{
  "_format": "hh3-artifact-1",
  "contractName": "ConfidentialTrading",
  "sourceName": "src/ConfidentialTrading.sol",
  "abi": [
    {
      "inputs": [
        {
          "internalType": "address",
          "name": "_usdc",
          "type": "address"
        },
        {
          "internalType": "address",
          "name": "_core",
          "type": "address"
        },
        {
          "internalType": "address",
          "name": "_vault",
          "type": "address"
        },
        {
          "internalType": "address",
          "name": "_oracle",
          "type": "address"
        }
      ],
      "stateMutability": "nonpayable",
      "type": "constructor"
    },
    {
      "inputs": [],
      "name": "ReentrancyGuardReentrantCall",
      "type": "error"
    },
    {
      "anonymous": false,
      "inputs": [
        {
          "indexed": true,
          "internalType": "uint256",
          "name": "orderId",
          "type": "uint256"
        }
      ],
      "name": "OrderCancelled",
      "type": "event"
    },
    {
      "anonymous": false,
      "inputs": [
        {
          "indexed": true,
          "internalType": "uint256",
          "name": "orderId",
          "type": "uint256"
        },
        {
          "indexed": true,
          "internalType": "uint256",
          "name": "positionId",
          "type": "uint256"
        }
      ],
      "name": "OrderExecuted",
      "type": "event"
    },
    {
      "anonymous": false,
      "inputs": [
        {
          "indexed": true,
          "internalType": "uint256",
          "name": "orderId",
          "type": "uint256"
        },
        {
          "indexed": true,
          "internalType": "address",
          "name": "trader",
          "type": "address"
        },
        {
          "indexed": false,
          "internalType": "bytes32",
          "name": "pairId",
          "type": "bytes32"
        },
        {
          "indexed": false,
          "internalType": "uint8",
          "name": "orderType",
          "type": "uint8"
        },
        {
          "indexed": false,
          "internalType": "uint256",
          "name": "triggerPrice",
          "type": "uint256"
        }
      ],
      "name": "OrderPlaced",
      "type": "event"
    },
    {
      "anonymous": false,
      "inputs": [
        {
          "indexed": true,
          "internalType": "uint256",
          "name": "positionId",
          "type": "uint256"
        },
        {
          "indexed": true,
          "internalType": "address",
          "name": "trader",
          "type": "address"
        },
        {
          "indexed": false,
          "internalType": "uint256",
          "name": "exitPrice",
          "type": "uint256"
        },
        {
          "indexed": false,
          "internalType": "int256",
          "name": "pnl",
          "type": "int256"
        }
      ],
      "name": "PositionClosed",
      "type": "event"
    },
    {
      "anonymous": false,
      "inputs": [
        {
          "indexed": true,
          "internalType": "uint256",
          "name": "positionId",
          "type": "uint256"
        },
        {
          "indexed": true,
          "internalType": "address",
          "name": "trader",
          "type": "address"
        },
        {
          "indexed": false,
          "internalType": "uint256",
          "name": "executionPrice",
          "type": "uint256"
        },
        {
          "indexed": true,
          "internalType": "address",
          "name": "liquidator",
          "type": "address"
        },
        {
          "indexed": false,
          "internalType": "uint256",
          "name": "reward",
          "type": "uint256"
        }
      ],
      "name": "PositionLiquidated",
      "type": "event"
    },
    {
      "anonymous": false,
      "inputs": [
        {
          "indexed": true,
          "internalType": "uint256",
          "name": "positionId",
          "type": "uint256"
        },
        {
          "indexed": true,
          "internalType": "address",
          "name": "trader",
          "type": "address"
        },
        {
          "indexed": false,
          "internalType": "bytes32",
          "name": "pairId",
          "type": "bytes32"
        },
        {
          "indexed": false,
          "internalType": "bool",
          "name": "isLong",
          "type": "bool"
        },
        {
          "indexed": false,
          "internalType": "uint256",
          "name": "sizeUsd",
          "type": "uint256"
        },
        {
          "indexed": false,
          "internalType": "uint256",
          "name": "entryPrice",
          "type": "uint256"
        },
        {
          "indexed": false,
          "internalType": "uint256",
          "name": "leverage",
          "type": "uint256"
        }
      ],
      "name": "PositionOpened",
      "type": "event"
    },
    {
      "anonymous": false,
      "inputs": [
        {
          "indexed": true,
          "internalType": "uint256",
          "name": "positionId",
          "type": "uint256"
        },
        {
          "indexed": false,
          "internalType": "bool",
          "name": "isTakeProfit",
          "type": "bool"
        },
        {
          "indexed": false,
          "internalType": "uint256",
          "name": "executionPrice",
          "type": "uint256"
        }
      ],
      "name": "TPSLTriggered",
      "type": "event"
    },
    {
      "anonymous": false,
      "inputs": [
        {
          "indexed": true,
          "internalType": "uint256",
          "name": "orderId",
          "type": "uint256"
        },
        {
          "indexed": false,
          "internalType": "uint256",
          "name": "sliceNumber",
          "type": "uint256"
        },
        {
          "indexed": false,
          "internalType": "uint256",
          "name": "sizeUsd",
          "type": "uint256"
        }
      ],
      "name": "TWAPSliceExecuted",
      "type": "event"
    },
    {
      "inputs": [],
      "name": "MIN_POSITION_SIZE",
      "outputs": [
        {
          "internalType": "uint256",
          "name": "",
          "type": "uint256"
        }
      ],
      "stateMutability": "view",
      "type": "function"
    },
    {
      "inputs": [
        {
          "internalType": "uint256",
          "name": "orderId",
          "type": "uint256"
        }
      ],
      "name": "cancelOrder",
      "outputs": [],
      "stateMutability": "nonpayable",
      "type": "function"
    },
    {
      "inputs": [],
      "name": "core",
      "outputs": [
        {
          "internalType": "contract ConfidentialCore",
          "name": "",
          "type": "address"
        }
      ],
      "stateMutability": "view",
      "type": "function"
    },
    {
      "inputs": [
        {
          "internalType": "uint256",
          "name": "positionId",
          "type": "uint256"
        }
      ],
      "name": "createCloseRequest",
      "outputs": [
        {
          "internalType": "uint256",
          "name": "orderId",
          "type": "uint256"
        }
      ],
      "stateMutability": "payable",
      "type": "function"
    },
    {
      "inputs": [
        {
          "internalType": "bytes32",
          "name": "pairId",
          "type": "bytes32"
        },
        {
          "internalType": "bool",
          "name": "isLong",
          "type": "bool"
        },
        {
          "internalType": "uint256",
          "name": "totalSizeUsd",
          "type": "uint256"
        },
        {
          "internalType": "uint256",
          "name": "leverage",
          "type": "uint256"
        },
        {
          "internalType": "uint256",
          "name": "slices",
          "type": "uint256"
        },
        {
          "internalType": "uint256",
          "name": "intervalSec",
          "type": "uint256"
        },
        {
          "internalType": "uint256",
          "name": "tpPrice",
          "type": "uint256"
        },
        {
          "internalType": "uint256",
          "name": "slPrice",
          "type": "uint256"
        }
      ],
      "name": "createTwapOrder",
      "outputs": [
        {
          "internalType": "uint256",
          "name": "orderId",
          "type": "uint256"
        }
      ],
      "stateMutability": "payable",
      "type": "function"
    },
    {
      "inputs": [
        {
          "internalType": "uint256",
          "name": "orderId",
          "type": "uint256"
        },
        {
          "internalType": "bytes[]",
          "name": "updateData",
          "type": "bytes[]"
        }
      ],
      "name": "executeOrder",
      "outputs": [],
      "stateMutability": "payable",
      "type": "function"
    },
    {
      "inputs": [
        {
          "internalType": "uint256",
          "name": "positionId",
          "type": "uint256"
        },
        {
          "internalType": "bytes[]",
          "name": "updateData",
          "type": "bytes[]"
        }
      ],
      "name": "executeTPSL",
      "outputs": [],
      "stateMutability": "payable",
      "type": "function"
    },
    {
      "inputs": [
        {
          "internalType": "uint256",
          "name": "positionId",
          "type": "uint256"
        },
        {
          "internalType": "bytes[]",
          "name": "updateData",
          "type": "bytes[]"
        }
      ],
      "name": "liquidate",
      "outputs": [],
      "stateMutability": "payable",
      "type": "function"
    },
    {
      "inputs": [],
      "name": "liquidationRewardBps",
      "outputs": [
        {
          "internalType": "uint256",
          "name": "",
          "type": "uint256"
        }
      ],
      "stateMutability": "view",
      "type": "function"
    },
    {
      "inputs": [],
      "name": "nextOrderId",
      "outputs": [
        {
          "internalType": "uint256",
          "name": "",
          "type": "uint256"
        }
      ],
      "stateMutability": "view",
      "type": "function"
    },
    {
      "inputs": [],
      "name": "nextPositionId",
      "outputs": [
        {
          "internalType": "uint256",
          "name": "",
          "type": "uint256"
        }
      ],
      "stateMutability": "view",
      "type": "function"
    },
    {
      "inputs": [],
      "name": "oracle",
      "outputs": [
        {
          "internalType": "contract PythPriceOracle",
          "name": "",
          "type": "address"
        }
      ],
      "stateMutability": "view",
      "type": "function"
    },
    {
      "inputs": [
        {
          "internalType": "uint256",
          "name": "",
          "type": "uint256"
        }
      ],
      "name": "pendingOrders",
      "outputs": [
        {
          "internalType": "bytes32",
          "name": "pairId",
          "type": "bytes32"
        },
        {
          "internalType": "address",
          "name": "trader",
          "type": "address"
        },
        {
          "internalType": "bool",
          "name": "isLong",
          "type": "bool"
        },
        {
          "internalType": "uint256",
          "name": "sizeUsd",
          "type": "uint256"
        },
        {
          "internalType": "uint256",
          "name": "collateral",
          "type": "uint256"
        },
        {
          "internalType": "uint256",
          "name": "leverage",
          "type": "uint256"
        },
        {
          "internalType": "uint256",
          "name": "triggerPrice",
          "type": "uint256"
        },
        {
          "internalType": "uint8",
          "name": "orderType",
          "type": "uint8"
        },
        {
          "internalType": "bool",
          "name": "reduceOnly",
          "type": "bool"
        },
        {
          "internalType": "bool",
          "name": "isActive",
          "type": "bool"
        },
        {
          "internalType": "uint256",
          "name": "createdAt",
          "type": "uint256"
        },
        {
          "internalType": "uint256",
          "name": "positionId",
          "type": "uint256"
        },
        {
          "internalType": "uint256",
          "name": "feePaid",
          "type": "uint256"
        },
        {
          "internalType": "uint256",
          "name": "executionFee",
          "type": "uint256"
        },
        {
          "internalType": "uint256",
          "name": "tpPrice",
          "type": "uint256"
        },
        {
          "internalType": "uint256",
          "name": "slPrice",
          "type": "uint256"
        },
        {
          "internalType": "uint256",
          "name": "twapSlices",
          "type": "uint256"
        },
        {
          "internalType": "uint256",
          "name": "twapInterval",
          "type": "uint256"
        },
        {
          "internalType": "uint256",
          "name": "twapExecuted",
          "type": "uint256"
        },
        {
          "internalType": "uint256",
          "name": "twapLastExec",
          "type": "uint256"
        }
      ],
      "stateMutability": "view",
      "type": "function"
    },
    {
      "inputs": [
        {
          "internalType": "bytes32",
          "name": "pairId",
          "type": "bytes32"
        },
        {
          "internalType": "bool",
          "name": "isLong",
          "type": "bool"
        },
        {
          "internalType": "uint256",
          "name": "sizeUsd",
          "type": "uint256"
        },
        {
          "internalType": "uint256",
          "name": "leverage",
          "type": "uint256"
        },
        {
          "internalType": "uint256",
          "name": "triggerPrice",
          "type": "uint256"
        },
        {
          "internalType": "uint8",
          "name": "orderType",
          "type": "uint8"
        },
        {
          "internalType": "bool",
          "name": "reduceOnly",
          "type": "bool"
        },
        {
          "internalType": "uint256",
          "name": "tpPrice",
          "type": "uint256"
        },
        {
          "internalType": "uint256",
          "name": "slPrice",
          "type": "uint256"
        }
      ],
      "name": "placeOrder",
      "outputs": [
        {
          "internalType": "uint256",
          "name": "orderId",
          "type": "uint256"
        }
      ],
      "stateMutability": "payable",
      "type": "function"
    },
    {
      "inputs": [
        {
          "internalType": "uint256",
          "name": "",
          "type": "uint256"
        }
      ],
      "name": "positions",
      "outputs": [
        {
          "internalType": "bytes32",
          "name": "pairId",
          "type": "bytes32"
        },
        {
          "internalType": "address",
          "name": "trader",
          "type": "address"
        },
        {
          "internalType": "bool",
          "name": "isLong",
          "type": "bool"
        },
        {
          "internalType": "uint256",
          "name": "sizeUsd",
          "type": "uint256"
        },
        {
          "internalType": "uint256",
          "name": "collateral",
          "type": "uint256"
        },
        {
          "internalType": "uint256",
          "name": "entryPrice",
          "type": "uint256"
        },
        {
          "internalType": "uint256",
          "name": "leverage",
          "type": "uint256"
        },
        {
          "internalType": "uint256",
          "name": "liquidationPrice",
          "type": "uint256"
        },
        {
          "internalType": "uint256",
          "name": "openedAt",
          "type": "uint256"
        },
        {
          "internalType": "bool",
          "name": "isOpen",
          "type": "bool"
        },
        {
          "internalType": "uint256",
          "name": "tpPrice",
          "type": "uint256"
        },
        {
          "internalType": "uint256",
          "name": "slPrice",
          "type": "uint256"
        },
        {
          "internalType": "int256",
          "name": "entryFundingIndex",
          "type": "int256"
        }
      ],
      "stateMutability": "view",
      "type": "function"
    },
    {
      "inputs": [],
      "name": "rolloverFeePerHour",
      "outputs": [
        {
          "internalType": "uint256",
          "name": "",
          "type": "uint256"
        }
      ],
      "stateMutability": "view",
      "type": "function"
    },
    {
      "inputs": [],
      "name": "usdc",
      "outputs": [
        {
          "internalType": "contract IERC20",
          "name": "",
          "type": "address"
        }
      ],
      "stateMutability": "view",
      "type": "function"
    },
    {
      "inputs": [
        {
          "internalType": "address",
          "name": "",
          "type": "address"
        },
        {
          "internalType": "uint256",
          "name": "",
          "type": "uint256"
        }
      ],
      "name": "userOrders",
      "outputs": [
        {
          "internalType": "uint256",
          "name": "",
          "type": "uint256"
        }
      ],
      "stateMutability": "view",
      "type": "function"
    },
    {
      "inputs": [
        {
          "internalType": "address",
          "name": "",
          "type": "address"
        },
        {
          "internalType": "uint256",
          "name": "",
          "type": "uint256"
        }
      ],
      "name": "userPositions",
      "outputs": [
        {
          "internalType": "uint256",
          "name": "",
          "type": "uint256"
        }
      ],
      "stateMutability": "view",
      "type": "function"
    },
    {
      "inputs": [],
      "name": "vault",
      "outputs": [
        {
          "internalType": "contract ConfidentialVault",
          "name": "",
          "type": "address"
        }
      ],
      "stateMutability": "view",
      "type": "function"
    }
  ],
  "bytecode": "0x608034620000de57601f6200385838819003918201601f19168301916001600160401b03831184841017620000e257808492608094604052833981010312620000de576200004d81620000f6565b906200005c60208201620000f6565b6200007860606200007060408501620000f6565b9301620000f6565b9060015f55600160055560016006556014600b556064600c5560018060a01b03928380928160018060a01b0319971687600454161760045516856001541617600155168360025416176002551690600354161760035560405161374c90816200010c8239f35b5f80fd5b634e487b7160e01b5f52604160045260245ffd5b51906001600160a01b0382168203620000de5756fe60e0806040526004361015610012575f80fd5b5f905f3560e01c9081632a58b33014612a585750806333e7dddb1461140a578063368dbba8146113ec5780633e413bee146113c3578063514fcac71461123c5780635e1b4d99146111fe578063666c187e14610e215780636fb197f714610aef5780637dc0d1d014610ac657806380b74258146108cd578063856652e914610881578063899346c7146108635780638fb735ee1461084557806399fbab88146107825780639bfe7e3e146105a8578063c3aaea4e14610454578063effaed8914610436578063f2f4eb261461040d578063f6614170146101255763fbfa77cf146100fa575f80fd5b346101225780600319360112610122576002546040516001600160a01b039091168152602090f35b80fd5b508061013036612a72565b9061013c939293612eb3565b816103ab575b505090806024925260076020526040832090600882019182549261016860ff8516612e7c565b6003548254604080516331d98b3f60e01b815260048101839052976001600160a01b039592949293899190829088165afa9687156103a057889761036e575b506001820192835460ff8160a01c1691825f146103615760068501548a11155b15610329578460038c9601946127106101e48754600c5490612e22565b049a60ff191690556002886001541691015492813b156103255760405163019ca2b960e51b8152600481019390935288166001600160a01b03166024830152921515604482015260648101919091529083908290608490829084905af190811561031a578391610302575b5050836002541690848454169054823b156102fe57608484928360405195869485936309c0533b60e01b8552600485015233602485015260448401528b60648401525af180156102f3576102db575b505054169160405193845260208401527f3b7bc7c0fdc798ac653b9f0d6d28adb2293a55402d32c21d323da740ccc6553960403394a46001815580f35b6102e490612b20565b6102ef57855f61029e565b8580fd5b6040513d84823e3d90fd5b8380fd5b61030b90612b20565b61031657815f61024f565b5080fd5b6040513d85823e3d90fd5b8680fd5b60405162461bcd60e51b815260206004820152601060248201526f4e6f74206c6971756964617461626c6560801b6044820152606490fd5b60068501548a10156101c7565b61039191975060403d604011610399575b6103898183612b48565b810190612c45565b50955f6101a7565b503d61037f565b6040513d8a823e3d90fd5b6003546001600160a01b031691823b156102fe57604051631df3cbc560e31b81529284928492839182916103e29160048401612b6a565b039134905af180156102f3576103f9575b80610142565b61040290612b20565b61031657815f6103f3565b50346101225780600319360112610122576001546040516001600160a01b039091168152602090f35b50346101225780600319360112610122576020600c54604051908152f35b503461012257602036600319011261012257600435815260086020526040902080808054600182015460c05260028201546003830154600484015460058501546006860154600787015490600888015492600989015494600a8a015496600b8b015498600c8c01549a600d8d01549c600e01549d600f01549e6010015460805260405160a05260a05152600160a01b6001900360c0511660a0516020015260c05160a01c60ff16151560a0516040015260a0516060015260a0516080015260a05160a0015260a05160c0015260ff811660a05160e001528060081c60ff16151560a051610100015260101c60ff16151560a051610120015260a051610140015260a051610160015260a051610180015260a0516101a0015260a0516101c0015260a0516101e0015260a051610200015260a051610220015260a051610240015260805160a051610260015260a05161028090f35b506020908160031936011261012257600435906105c3612eb3565b818152600783526040812060ff6008820154161561074957600460018060a01b036105f5816001850154163314612dea565b856007840154916001541660405193848092636d78097360e11b82525afa90811561073e578491610709575b61062b9250612c5b565b42106106d257906001916006549361064285612e35565b600655848352600886526040832090848201336bffffffffffffffffffffffff60a01b825416179055600682016201000362ff00ff198254161790554260078301556008820155600a3491015554604051908152600385820152816040820152837f401524beccff0d9dd3447788dea32e11f3b7c9618ed6084f14a773dbf2025f1660603393a355604051908152f35b60405162461bcd60e51b815260048101859052600f60248201526e436f6f6c646f776e2061637469766560881b6044820152606490fd5b90508582813d8311610737575b6107208183612b48565b810103126107335761062b915190610621565b5f80fd5b503d610716565b6040513d86823e3d90fd5b60405162461bcd60e51b81526004810185905260116024820152702837b9b4ba34b7b7103737ba1037b832b760791b6044820152606490fd5b50346101225760203660031901126101225760406101a0916004358152600760205220805490600181015490600281015460038201546004830154600584015460068501549060078601549260ff6008880154169460098801549660ff600b600a8b01549a01549a6040519c8d528c602060018060a01b03831691015260a01c16151560408c015260608b015260808a015260a089015260c088015260e08701526101008601521515610120850152610140840152610160830152610180820152f35b50346101225780600319360112610122576020600b54604051908152f35b50346101225780600319360112610122576020600554604051908152f35b50346101225761089036612ac2565b6001600160a01b039091168252600a602052604082208054919290918310156101225760206108bf8484612ae8565b90546040519160031b1c8152f35b50806108d836612a72565b906108e4939293612eb3565b81610a64575b50508190526007602052604082209061090960ff600884015416612e7c565b60018060a01b0360035416906040835460248251809581936331d98b3f60e01b835260048301525afa91821561073e578492610a42575b50838493600981015480610a17575b50811580610a0a575b6109e0575b50156109a557807fac4fd466c8f994e08ce2eb9141c2f01f2a779a3537d9bd71fa8762df3d12842c604061099e9581519015158152856020820152a2613007565b6001815580f35b60405162461bcd60e51b815260206004820152601360248201527215140bd4d3081b9bdd081d1c9a59d9d95c9959606a1b6044820152606490fd5b6001810154600a925060a01c60ff1615610a005701548211155b5f61095d565b01548210156109fa565b50600a8101541515610958565b9150935060ff600185015460a01c165f14610a3957821015925b83905f61094f565b82111592610a31565b610a5c91925060403d604011610399576103898183612b48565b50905f610940565b6003546001600160a01b031691823b156102fe57604051631df3cbc560e31b8152928492849283918291610a9b9160048401612b6a565b039134905af180156102f357610ab2575b806108ea565b610abb90612b20565b61031657815f610aac565b50346101225780600319360112610122576003546040516001600160a01b039091168152602090f35b506101003660031901126101225760043590610b09612b11565b9160443591606435916084359460a43590610b22612eb3565b600287101580610e16575b15610de057603c8210610da857629896808781029081048803610d94578610610d58576001546001600160a01b031696873b15610d495760405163bd79156f60e01b81526004810185905233602482015282151560448201526064810188905260848101879052858160a4818c5afa8015610d4d57908691610d35575b5050610bb68688612d80565b9760405198899163e4d8cbe560e01b835289600484015287602484015282604460209c8d935afa918215610d2a578792610cf4575b509060019782610c09610c0284600e989796612c5b565b3033613492565b6006549a610c168c612e35565b6006558b8a5260088d5260408a208981558b8101805460ff60a01b1933166001600160a81b03199091161797151560a01b60ff60a01b1697909717909655600286015560038501556004840155600683016201000462ff00ff19825416179055426007840155600983015534600a83015560c435600b83015560e435600c830155600d8201550155338252600a8552610cb28460408420612e43565b604051908152600485820152816040820152837f401524beccff0d9dd3447788dea32e11f3b7c9618ed6084f14a773dbf2025f1660603393a355604051908152f35b939291508984813d8311610d23575b610d0d8183612b48565b8101031261073357925191929091906001610beb565b503d610d03565b6040513d89823e3d90fd5b610d3e90612b20565b610d4957845f610baa565b8480fd5b6040513d88823e3d90fd5b60405162461bcd60e51b815260206004820152601460248201527314db1a58d9481cda5e99481d1bdbc81cdb585b1b60621b6044820152606490fd5b634e487b7160e01b85526011600452602485fd5b60405162461bcd60e51b815260206004820152601060248201526f135a5b880d8c1cc81a5b9d195c9d985b60821b6044820152606490fd5b60405162461bcd60e51b815260206004820152600e60248201526d496e76616c696420736c6963657360901b6044820152606490fd5b506064871115610b2d565b5061012036600319011261012257610e37612b11565b9060a4359060ff821682036101225760c43591821515830361073357610e5b612eb3565b62989680604435106111c857600260ff82161161118e5760e435611118575b610104356110a0575b6001546001600160a01b0316803b1561109c5760405163bd79156f60e01b8152600480359082015233602482015285151560448083019190915235606480830191909152356084820152838160a481855afa801561073e57908491611088575b505060206044916040519283809263e4d8cbe560e01b82528235600483015260ff87161560248301525afa90811561031a57839161104f575b509060209460019392610f33606435604435612d80565b95610f41610c028389612c5b565b60065496610f4e88612e35565b60065587865260088952604086206004358155878101805460ff60a01b1933166001600160a81b03199091161795151560a01b60ff60a01b1695909517909455604435600285015560038401556064356004840155608435600584015562010000600684019161ff00835491151560081b169060ff87169062ffffff19161717179055426007830155600982015534600a82015560e435600b820155600c61010435910155338252600a85526110078460408420612e43565b60ff60405191600435835216858201526084356040820152837f401524beccff0d9dd3447788dea32e11f3b7c9618ed6084f14a773dbf2025f1660603393a355604051908152f35b929190506020833d602011611080575b8161106c60209383612b48565b810103126107335791519091906020610f1c565b3d915061105f565b61109190612b20565b61109c57825f610ee3565b8280fd5b83156110fe57608435610104351080156110f1575b610e835760405162461bcd60e51b815260206004820152601060248201526f496e76616c696420534c20707269636560801b6044820152606490fd5b50600260ff8216146110b5565b6084356101043511806110b55750600260ff8216146110b5565b83156111755760843560e435118015611168575b610e7a5760405162461bcd60e51b815260206004820152601060248201526f496e76616c696420545020707269636560801b6044820152606490fd5b50600260ff82161461112c565b60843560e435108061112c5750600260ff82161461112c565b60405162461bcd60e51b8152602060048201526012602482015271496e76616c6964206f72646572207479706560701b6044820152606490fd5b60405162461bcd60e51b815260206004820152600e60248201526d14da5e99481d1bdbc81cdb585b1b60921b6044820152606490fd5b50346101225761120d36612ac2565b6001600160a01b0390911682526009602052604082208054919290918310156101225760206108bf8484612ae8565b503461012257602036600319011261012257600435611259612eb3565b808252600860205281600a6040822060ff6006820180549061127f838360101c16612c0c565b61129660018060a01b036001860154163314612dea565b62ff00001982169055166002198101611334575b500154806112df575b50807f61b9399f2f0f32ca39ce8d7be32caed5ec22fe07a6daba3a467ed479ec60658291a26001815580f35b81808092335af16112ee612d9e565b50156112fb57815f6112b3565b60405162461bcd60e51b8152602060048201526011602482015270115512081c99599d5b990819985a5b1959607a1b6044820152606490fd5b6003820154600460098401549214806113b6575b61137c575b6113578282612c5b565b611362575b506112aa565b6113759161136f91612c5b565b336133e4565b5f8061135c565b6113b0906113a5600d850154916113aa836113a561139e600f8a015483612ddd565b8094612e22565b612d80565b94612e22565b9061134d565b50600f8301541515611348565b50346101225780600319360112610122576004546040516001600160a01b039091168152602090f35b50346101225780600319360112610122576020604051629896808152f35b5061141436612a72565b9061141d612eb3565b816129ec575b5050808252600860205260408220600681015461144560ff8260101c16612c0c565b60018060a01b0360035416906040835460248251809581936331d98b3f60e01b835260048301525afa9182156129e15785926129bc575b5060ff1680611c4c5750600182015460a01c60ff1615611c3f5760058201548111155b15611c06576114ad82612c7c565b9060018060a01b03600154166020835160646040860151151591606087015194604051958694859363b391decf60e01b85526004850152602484015260448301525afa908115610d4d578691611bd4575b508186821315611b8057506115166127109183612e22565b04604083015115155f14611b725761152d91612c5b565b6005549061153a82612e35565b6005558186526007602090815260408088208551815591850151600183018054928701516001600160a81b03199093166001600160a01b03929092169190911791151560a081901b60ff60a01b169290921790558791906115c1905b606087015160028401556080870151600384015584600484015560a08701518060058501558561353e565b600682015542600782015560088101600160ff198254161790556101c085015160098201556101e0850151600a820155602060018060a01b0360015416602487516040519586938492637cc6765f60e11b845260048401525af19182156103a0578892611b3d575b50600b015560015483516020850151604086015160608701518a94909392911515916001600160a01b039182169116813b156102ef5760405163b65b361f60e01b815260048101949094526001600160a01b03166024840152901515604483015260648201929092529082908290608490829084905af180156102f357611b29575b505060025460808401516116c7916001600160a01b03166133e4565b600254608084015187916001600160a01b031690813b1561109c578291602483926040519485938492636e93ae2b60e01b845260048401525af180156102f357611b15575b5050610180830151600154604051631db0457960e11b81526004810192909252606090829060249082906001600160a01b03165afa908115610d2a57878081928294611ad0575b5080611a63575b5050806119f5575b5080611920575b5060a05f805160206136f783398151915291600180831b036020860151168852600960205261179b8460408a20612e43565b600180831b03602086015116948051916040820151151591846060820151910151926040519485526020850152604084015260608301526080820152a360068101805462ff0000191690555b82600a82015480611874575b5050600681015460ff8160101c161561180f575b836001815580f35b60ff1660030361184b5760080154905b7f9947370f1e808dd40de986fca744d8715d4d7aa575359f77a7bdeeb887f590ea8380a35f8080611807565b506005545f198101908111611860579061181f565b634e487b7160e01b83526011600452602483fd5b81906006840154600460ff82161480611913575b156118f9575061189e9150600d84015490612d80565b80156117f35781808092335af16118b3612d9e565b50156118c057825f6117f3565b60405162461bcd60e51b815260206004820152601160248201527012d9595c195c881999594819985a5b1959607a1b6044820152606490fd5b60101c60ff161561190b575b5061189e565b90505f611905565b50600d8501541515611888565b60015460405163b790230360e01b81529290602090849060049082906001600160a01b03165afa9283156103a05788936119c4575b506001600160a01b038316156119865761197f60a0925f805160206136f7833981519152946133e4565b9150611769565b60405162461bcd60e51b8152602060048201526016602482015275125b9cdd5c985b98d948199d5b99081b9bdd081cd95d60521b6044820152606490fd5b6119e791935060203d6020116119ee575b6119df8183612b48565b81019061361e565b915f611955565b503d6119d5565b6001546040516361d027b360e01b81529190602090839060049082906001600160a01b03165afa8015611a5857611a33928a91611a39575b506133e4565b5f611762565b611a52915060203d6020116119ee576119df8183612b48565b5f611a2d565b6040513d8b823e3d90fd5b600254611a7a9082906001600160a01b03166133e4565b6002546001600160a01b031690813b1561109c5782916024839260405194859384926302102c9760e11b845260048401525af180156102f3571561175a57611ac190612b20565b611acc57875f61175a565b8780fd5b93505050506060813d606011611b0d575b81611aee60609383612b48565b810103126103255780518760406020840151930151919291925f611753565b3d9150611ae1565b611b1e90612b20565b6102ef57855f61170c565b611b3290612b20565b6102ef57855f6116ab565b9091506020813d602011611b6a575b81611b5960209383612b48565b81010312610733575190600b611629565b3d9150611b4c565b611b7b91612ddd565b61152d565b90868112611b90575b505061152d565b612710919250611ba2611ba891612ed4565b83612e22565b04604083015115155f14611bc657611bbf91612ddd565b5f80611b89565b611bcf91612c5b565b611bbf565b90506020813d602011611bfe575b81611bef60209383612b48565b8101031261073357515f6114fe565b3d9150611be2565b60405162461bcd60e51b8152602060048201526011602482015270131a5b5a5d081b9bdd081c995858da1959607a1b6044820152606490fd5b600582015481101561149f565b6001810361223b5750600182015460a01c60ff161561222e5760058201548110155b156121f657611c7c82612c7c565b9060018060a01b03600154166020835160646040860151151591606087015194604051958694859363b391decf60e01b85526004850152602484015260448301525afa908115610d4d5786916121c4575b5081868213156121765750611ce56127109183612e22565b04604083015115155f1461216857611cfc91612c5b565b60055490611d0982612e35565b6005558186526007602090815260408088208551815591850151600183018054928701516001600160a81b03199093166001600160a01b03929092169190911791151560a081901b60ff60a01b16929092179055879190611d6990611596565b600682015542600782015560088101600160ff198254161790556101c085015160098201556101e0850151600a820155602060018060a01b0360015416602487516040519586938492637cc6765f60e11b845260048401525af19182156103a0578892612133575b50600b015560015483516020850151604086015160608701518a94909392911515916001600160a01b039182169116813b156102ef5760405163b65b361f60e01b815260048101949094526001600160a01b03166024840152901515604483015260648201929092529082908290608490829084905af180156102f35761211f575b50506002546080840151611e6f916001600160a01b03166133e4565b600254608084015187916001600160a01b031690813b1561109c578291602483926040519485938492636e93ae2b60e01b845260048401525af180156102f35761210b575b5050610180830151600154604051631db0457960e11b81526004810192909252606090829060249082906001600160a01b03165afa908115610d2a578780819282946120c6575b508061205d575b50508061201a575b5080611f93575b5060a05f805160206136f783398151915291600180831b0360208601511688526009602052611f438460408a20612e43565b600180831b03602086015116948051916040820151151591846060820151910151926040519485526020850152604084015260608301526080820152a360068101805462ff0000191690556117e7565b60015460405163b790230360e01b81529290602090849060049082906001600160a01b03165afa9283156103a0578893611ff9575b506001600160a01b0383161561198657611ff260a0925f805160206136f7833981519152946133e4565b9150611f11565b61201391935060203d6020116119ee576119df8183612b48565b915f611fc8565b6001546040516361d027b360e01b81529190602090839060049082906001600160a01b03165afa8015611a5857612057928a91611a3957506133e4565b5f611f0a565b6002546120749082906001600160a01b03166133e4565b6002546001600160a01b031690813b1561109c5782916024839260405194859384926302102c9760e11b845260048401525af180156102f35715611f02576120bb90612b20565b611acc57875f611f02565b93505050506060813d606011612103575b816120e460609383612b48565b810103126103255780518760406020840151930151919291925f611efb565b3d91506120d7565b61211490612b20565b6102ef57855f611eb4565b61212890612b20565b6102ef57855f611e53565b9091506020813d602011612160575b8161214f60209383612b48565b81010312610733575190600b611dd1565b3d9150612142565b61217191612ddd565b611cfc565b90868112612186575b5050611cfc565b612710919250611ba261219891612ed4565b04604083015115155f146121b6576121af91612ddd565b5f8061217f565b6121bf91612c5b565b6121af565b90506020813d6020116121ee575b816121df60209383612b48565b8101031261073357515f611ccd565b3d91506121d2565b60405162461bcd60e51b815260206004820152601060248201526f14dd1bdc081b9bdd081c995858da195960821b6044820152606490fd5b6005820154811115611c6e565b600281036122f25750600182015460ff8160a01c165f146122e55760058301548211155b80156122d9575b156122885750611c7c82612c7c565b60068101805462ff0000191690556117e7565b6122af91506122a06003840154600985015490612c5b565b906001600160a01b03166133e4565b817f61b9399f2f0f32ca39ce8d7be32caed5ec22fe07a6daba3a467ed479ec6065828480a2612275565b50600583015415612266565b600583015482101561225f565b600381036123095750612275906008830154613007565b600414612317575b506117e7565b600f8201541580156129a0575b156129695761233282612c7c565b9061236c600284015461234a600d8601548092612d80565b606085015261235d816003870154612d80565b60808501526009850154612d80565b61018083015260015482516040808501516060860151915163b391decf60e01b8152600481019390935215156024830152604482015290602090829060649082906001600160a01b03165afa908115610d4d578691612937575b5081868213156128e957506123de6127109183612e22565b04604083015115155f146128db576123f591612c5b565b60055461240181612e35565b6005558086526007602090815260408088208551815591850151600183018054928701516001600160a81b03199093166001600160a01b03929092169190911791151560a081901b60ff60a01b1692909217905587919061248790606087015160028401556080870151600384015585600484015560a08701518060058501558661353e565b600682015542600782015560088101600160ff198254161790556101c085015160098201556101e0850151600a820155602060018060a01b0360015416602487516040519586938492637cc6765f60e11b845260048401525af19182156103a05788926128a6575b50600b015560015483516020850151604086015160608701518a94909392911515916001600160a01b039182169116813b156102ef5760405163b65b361f60e01b815260048101949094526001600160a01b03166024840152901515604483015260648201929092529082908290608490829084905af180156102f357612892575b5050600254608084015161258d916001600160a01b03166133e4565b600254608084015187916001600160a01b031690813b1561109c578291602483926040519485938492636e93ae2b60e01b845260048401525af180156102f35761287e575b5050610180830151600154604051631db0457960e11b81526004810192909252606090829060249082906001600160a01b03165afa908115610d2a57878081928294612839575b50806127d0575b50508061278d575b5080612718575b506020838101516001600160a01b031687526009905260408620612654908290612e43565b5f805160206136f783398151915260a0600180821b03602086015116938551906040870151151590606088015184890151926040519485526020850152604084015260608301526080820152a3600f8201549060018201809211610d94577f098dc6c1012d2fb4cc0470ec0f1b82ad9eaf354865d76ebad869d83f1559344e60406060869385600f88015542601088015501518151908582526020820152a2600d8201541115612705575b5f612311565b60068101805462ff0000191690556126ff565b60015460405163b790230360e01b81529190602090839060049082906001600160a01b03165afa9182156103a057889261276c575b506001600160a01b0382161561198657612766916133e4565b5f61262f565b61278691925060203d6020116119ee576119df8183612b48565b905f61274d565b6001546040516361d027b360e01b81529190602090839060049082906001600160a01b03165afa8015611a58576127ca928a91611a3957506133e4565b5f612628565b6002546127e79082906001600160a01b03166133e4565b6002546001600160a01b031690813b1561109c5782916024839260405194859384926302102c9760e11b845260048401525af180156102f357156126205761282e90612b20565b611acc57875f612620565b93505050506060813d606011612876575b8161285760609383612b48565b810103126103255780518760406020840151930151919291925f612619565b3d915061284a565b61288790612b20565b6102ef57855f6125d2565b61289b90612b20565b6102ef57855f612571565b9091506020813d6020116128d3575b816128c260209383612b48565b81010312610733575190600b6124ef565b3d91506128b5565b6128e491612ddd565b6123f5565b908681126128f9575b50506123f5565b612710919250611ba261290b91612ed4565b04604083015115155f146129295761292291612ddd565b5f806128f2565b61293291612c5b565b612922565b90506020813d602011612961575b8161295260209383612b48565b8101031261073357515f6123c6565b3d9150612945565b60405162461bcd60e51b815260206004820152600f60248201526e545741503a20746f6f206561726c7960881b6044820152606490fd5b506129b46010830154600e84015490612c5b565b421015612324565b60ff9192506129d99060403d604011610399576103898183612b48565b50919061147c565b6040513d87823e3d90fd5b6003546001600160a01b031691823b1561073357604051631df3cbc560e31b8152925f92849283918291612a239160048401612b6a565b039134905af18015612a4d57612a3a575b80611423565b612a45919250612b20565b5f905f612a34565b6040513d5f823e3d90fd5b34610733575f366003190112610733576020906006548152f35b6040600319820112610733576004359160243567ffffffffffffffff9283821161073357806023830112156107335781600401359384116107335760248460051b83010111610733576024019190565b6040906003190112610733576004356001600160a01b0381168103610733579060243590565b8054821015612afd575f5260205f2001905f90565b634e487b7160e01b5f52603260045260245ffd5b60243590811515820361073357565b67ffffffffffffffff8111612b3457604052565b634e487b7160e01b5f52604160045260245ffd5b90601f8019910116810190811067ffffffffffffffff821117612b3457604052565b9160208181850182865252604084019360408360051b82010194845f925b858410612b99575050505050505090565b90919293949596603f198282030184528735601e198436030181121561073357830186810191903567ffffffffffffffff81116107335780360383136107335787828280600196849695859652848401375f828201840152601f01601f1916010199019796959190910193019190612b88565b15612c1357565b60405162461bcd60e51b815260206004820152600a6024820152694e6f742061637469766560b01b6044820152606490fd5b9190826040910312610733576020825192015190565b91908201809211612c6857565b634e487b7160e01b5f52601160045260245ffd5b90604051610280810181811067ffffffffffffffff821117612b3457604052610260601082948054845260ff600182015460018060a01b038116602087015260a01c16151560408501526002810154606085015260038101546080850152600481015460a0850152600581015460c085015260ff600682015481811660e0870152818160081c161515610100870152831c161515610120850152600781015461014085015260088101546101608501526009810154610180850152600a8101546101a0850152600b8101546101c0850152600c8101546101e0850152600d810154610200850152600e810154610220850152600f8101546102408501520154910152565b8115612d8a570490565b634e487b7160e01b5f52601260045260245ffd5b3d15612dd8573d9067ffffffffffffffff8211612b345760405191612dcd601f8201601f191660200184612b48565b82523d5f602084013e565b606090565b91908203918211612c6857565b15612df157565b60405162461bcd60e51b81526020600482015260096024820152682737ba1037bbb732b960b91b6044820152606490fd5b81810292918115918404141715612c6857565b5f198114612c685760010190565b805468010000000000000000811015612b3457612e6591600182018155612ae8565b819291549060031b91821b915f19901b1916179055565b15612e8357565b60405162461bcd60e51b81526020600482015260086024820152672737ba1037b832b760c11b6044820152606490fd5b60025f5414612ec25760025f55565b604051633ee5aeb560e01b8152600490fd5b600160ff1b8114612c68575f0390565b81810392915f138015828513169184121617612c6857565b81810292915f8212600160ff1b821416612c68578184051490151715612c6857565b8115612d8a57600160ff1b81145f19831416612c68570590565b906040516101a0810181811067ffffffffffffffff821117612b3457604052610180600b82948054845260ff600182015460018060a01b038116602087015260a01c16151560408501526002810154606085015260038101546080850152600481015460a0850152600581015460c0850152600681015460e0850152600781015461010085015260ff60088201541615156101208501526009810154610140850152600a8101546101608501520154910152565b9190915f8382019384129112908015821691151617612c6857565b91905f92805f5260209160078352604090815f206008810161302c60ff825416612e7c565b60018201805460a01c60ff16156133b157613062600484015461305d6130528288612ee4565b600287015490612efc565b612f1e565b925b60018060a01b0392836001541690600283019283549389519363e4d8cbe560e01b8552600495868601525f60248601528c85604481845afa9485156133a7578b918e915f97613374575b50905f91602463d693a4006130ea6130c589612f38565b6130e560606130d961010084015142612ddd565b920151600b5490612e22565b612e22565b0494875490519485938492637cc6765f60e11b84528d8401525af1801561336a57908e91613341575b505061313c6131429161313761313061312b87612f38565b61363d565b9188612fec565b612fec565b89612ee4565b835460ff191690935560015482548754925490918916803b15610733578c5163019ca2b960e51b81528089019384526001600160a01b03858c1616602085015260a09490941c60ff161515604084015260608301919091525f9183919082908490829060800103925af1801561333757613322575b50908c918282136132c7575b866002541660038888541692015490803b15610d49578492836064928e51968795869463118f304360e01b86528c860152602485015260448401525af180156132bd576132a5575b505080613249575b50507f356fca566f3a054a459c7224d9c9d634f31a98835cfd4fb4c5ddbf8b96aca21195969798505416958351928352820152a3565b8a90846002541692833b1561109c57602490838a5195869485936335b8e71360e01b85528401525af1801561329b57613283575b80613213565b61328d8a91612b20565b613297578861327d565b8880fd5b86513d8c823e3d90fd5b6132ae90612b20565b6132b9578a5f61320b565b8a80fd5b89513d84823e3d90fd5b8660015416803b156102fe5783809160248d518094819363630304f960e11b8352888c8401525af1801561331857908491613304575b50506131c3565b61330d90612b20565b61109c57825f6132fd565b8b513d86823e3d90fd5b61332e91929d50612b20565b5f9b905f6131b7565b8a513d5f823e3d90fd5b813d8311613363575b6133548183612b48565b81010312610733578c5f613113565b503d61334a565b8c513d5f823e3d90fd5b9250955081813d83116133a0575b61338c8183612b48565b810103126107335751938a908d905f6130ae565b503d613382565b8b513d5f823e3d90fd5b6133c6600484015461305d6130528783612ee4565b92613064565b90816020910312610733575180151581036107335790565b602090604460018060a01b03915f8360045416604051968795869463a9059cbb60e01b865216600485015260248401525af1908115612a4d575f91613463575b501561342c57565b60405162461bcd60e51b815260206004820152600f60248201526e151c985b9cd9995c8819985a5b1959608a1b6044820152606490fd5b613485915060203d60201161348b575b61347d8183612b48565b8101906133cc565b5f613424565b503d613473565b916064602092935f60018060a01b03938460045416908560405198899788966323b872dd60e01b885216600487015216602485015260448401525af1908115612a4d575f9161351f575b50156134e457565b60405162461bcd60e51b8152602060048201526013602482015272151c985b9cd9995c919c9bdb4819985a5b1959606a1b6044820152606490fd5b613538915060203d60201161348b5761347d8183612b48565b5f6134dc565b6001546040516335123baf60e21b815291929190602090829060049082906001600160a01b03165afa908115612a4d575f916135ec575b50600a8101809111612c68578161358b91612e22565b61232891908281106135d4575050506064915b156135bd576127106135b36135ba9383612e22565b0490612ddd565b90565b6127106135cd6135ba9383612e22565b0490612c5b565b8203918211612c68576135e691612d80565b9161359e565b90506020813d602011613616575b8161360760209383612b48565b8101031261073357515f613575565b3d91506135fa565b9081602091031261073357516001600160a01b03811681036107335790565b60018060a01b03600154169060208151602460405180958193634655f1eb60e01b835260048301525afa918215612a4d575f926136c0575b5061368f670de0b6b3a76400009261018083015190612ee4565b6040820151156136aa5760606136a6920151612efc565b0590565b6136bb9060606136a6930151612efc565b612ed4565b91506020823d6020116136ee575b816136db60209383612b48565b810103126107335790519061368f613675565b3d91506136ce56fe52ca44dea94749aadfaa4d3749a0323a33b3a6434adcfff52ad54c511f5579c7a2646970667358221220c154b09e3de2b57932bc767b2caacea3ca68e63cfc8d65561e835ccbf9c94fb664736f6c63430008180033",
  "linkReferences": {},
  "deployedLinkReferences": {},
  "immutableReferences": {},
  "inputSourceName": "project/src/ConfidentialTrading.sol",
  "buildInfoId": "solc-0_8_24-1a293de7f3c19925a1dd9bdf390e4b6ff7566990"
}