{
  "_format": "hh3-artifact-1",
  "contractName": "ConfidentialVault",
  "sourceName": "src/ConfidentialVault.sol",
  "abi": [
    {
      "inputs": [
        {
          "internalType": "address",
          "name": "_usdc",
          "type": "address"
        },
        {
          "internalType": "address",
          "name": "_core",
          "type": "address"
        }
      ],
      "stateMutability": "nonpayable",
      "type": "constructor"
    },
    {
      "inputs": [],
      "name": "DepositsDisabled",
      "type": "error"
    },
    {
      "inputs": [],
      "name": "ExceedsDepositCap",
      "type": "error"
    },
    {
      "inputs": [],
      "name": "ExceedsTVLCap",
      "type": "error"
    },
    {
      "inputs": [],
      "name": "InsufficientLiquidity",
      "type": "error"
    },
    {
      "inputs": [],
      "name": "InsufficientShares",
      "type": "error"
    },
    {
      "inputs": [],
      "name": "LockupNotExpired",
      "type": "error"
    },
    {
      "inputs": [],
      "name": "OnlyOwner",
      "type": "error"
    },
    {
      "inputs": [],
      "name": "OnlyTrading",
      "type": "error"
    },
    {
      "inputs": [],
      "name": "ReentrancyGuardReentrantCall",
      "type": "error"
    },
    {
      "inputs": [],
      "name": "ZeroAmount",
      "type": "error"
    },
    {
      "anonymous": false,
      "inputs": [
        {
          "indexed": false,
          "internalType": "uint256",
          "name": "amount",
          "type": "uint256"
        }
      ],
      "name": "AccruedFeesSettled",
      "type": "event"
    },
    {
      "anonymous": false,
      "inputs": [
        {
          "indexed": true,
          "internalType": "address",
          "name": "trader",
          "type": "address"
        },
        {
          "indexed": false,
          "internalType": "uint256",
          "name": "amount",
          "type": "uint256"
        }
      ],
      "name": "CollateralReturned",
      "type": "event"
    },
    {
      "anonymous": false,
      "inputs": [
        {
          "indexed": true,
          "internalType": "address",
          "name": "user",
          "type": "address"
        },
        {
          "indexed": false,
          "internalType": "uint256",
          "name": "amount",
          "type": "uint256"
        },
        {
          "indexed": false,
          "internalType": "uint256",
          "name": "sharesReceived",
          "type": "uint256"
        }
      ],
      "name": "Deposit",
      "type": "event"
    },
    {
      "anonymous": false,
      "inputs": [
        {
          "indexed": false,
          "internalType": "uint256",
          "name": "amount",
          "type": "uint256"
        }
      ],
      "name": "FeeReceived",
      "type": "event"
    },
    {
      "anonymous": false,
      "inputs": [
        {
          "indexed": true,
          "internalType": "address",
          "name": "trader",
          "type": "address"
        },
        {
          "indexed": true,
          "internalType": "address",
          "name": "liquidator",
          "type": "address"
        },
        {
          "indexed": false,
          "internalType": "uint256",
          "name": "collateral",
          "type": "uint256"
        },
        {
          "indexed": false,
          "internalType": "uint256",
          "name": "reward",
          "type": "uint256"
        }
      ],
      "name": "LiquidationSettled",
      "type": "event"
    },
    {
      "anonymous": false,
      "inputs": [
        {
          "indexed": true,
          "internalType": "address",
          "name": "trader",
          "type": "address"
        },
        {
          "indexed": false,
          "internalType": "int256",
          "name": "netPnl",
          "type": "int256"
        },
        {
          "indexed": false,
          "internalType": "uint256",
          "name": "collateral",
          "type": "uint256"
        }
      ],
      "name": "PositionSettled",
      "type": "event"
    },
    {
      "anonymous": false,
      "inputs": [
        {
          "indexed": true,
          "internalType": "address",
          "name": "trader",
          "type": "address"
        },
        {
          "indexed": false,
          "internalType": "uint256",
          "name": "requestedProfit",
          "type": "uint256"
        },
        {
          "indexed": false,
          "internalType": "uint256",
          "name": "cappedProfit",
          "type": "uint256"
        }
      ],
      "name": "ProfitCapped",
      "type": "event"
    },
    {
      "anonymous": false,
      "inputs": [
        {
          "indexed": true,
          "internalType": "address",
          "name": "user",
          "type": "address"
        },
        {
          "indexed": false,
          "internalType": "uint256",
          "name": "amount",
          "type": "uint256"
        },
        {
          "indexed": false,
          "internalType": "uint256",
          "name": "sharesBurned",
          "type": "uint256"
        }
      ],
      "name": "Withdraw",
      "type": "event"
    },
    {
      "inputs": [],
      "name": "MINIMUM_LIQUIDITY",
      "outputs": [
        {
          "internalType": "uint256",
          "name": "",
          "type": "uint256"
        }
      ],
      "stateMutability": "view",
      "type": "function"
    },
    {
      "inputs": [],
      "name": "availableLiquidity",
      "outputs": [
        {
          "internalType": "uint256",
          "name": "",
          "type": "uint256"
        }
      ],
      "stateMutability": "view",
      "type": "function"
    },
    {
      "inputs": [
        {
          "internalType": "address",
          "name": "user",
          "type": "address"
        }
      ],
      "name": "balanceOfUnderlying",
      "outputs": [
        {
          "internalType": "uint256",
          "name": "",
          "type": "uint256"
        }
      ],
      "stateMutability": "view",
      "type": "function"
    },
    {
      "inputs": [
        {
          "internalType": "address",
          "name": "user",
          "type": "address"
        }
      ],
      "name": "canWithdraw",
      "outputs": [
        {
          "internalType": "bool",
          "name": "",
          "type": "bool"
        }
      ],
      "stateMutability": "view",
      "type": "function"
    },
    {
      "inputs": [],
      "name": "core",
      "outputs": [
        {
          "internalType": "contract ConfidentialCore",
          "name": "",
          "type": "address"
        }
      ],
      "stateMutability": "view",
      "type": "function"
    },
    {
      "inputs": [],
      "name": "decimals",
      "outputs": [
        {
          "internalType": "uint8",
          "name": "",
          "type": "uint8"
        }
      ],
      "stateMutability": "view",
      "type": "function"
    },
    {
      "inputs": [
        {
          "internalType": "uint256",
          "name": "amount",
          "type": "uint256"
        }
      ],
      "name": "deposit",
      "outputs": [],
      "stateMutability": "nonpayable",
      "type": "function"
    },
    {
      "inputs": [
        {
          "internalType": "address",
          "name": "",
          "type": "address"
        }
      ],
      "name": "depositTimestamp",
      "outputs": [
        {
          "internalType": "uint256",
          "name": "",
          "type": "uint256"
        }
      ],
      "stateMutability": "view",
      "type": "function"
    },
    {
      "inputs": [],
      "name": "depositsEnabled",
      "outputs": [
        {
          "internalType": "bool",
          "name": "",
          "type": "bool"
        }
      ],
      "stateMutability": "view",
      "type": "function"
    },
    {
      "inputs": [
        {
          "internalType": "uint256",
          "name": "totalFee",
          "type": "uint256"
        }
      ],
      "name": "distributeClosingFee",
      "outputs": [],
      "stateMutability": "nonpayable",
      "type": "function"
    },
    {
      "inputs": [],
      "name": "lockupPeriod",
      "outputs": [
        {
          "internalType": "uint256",
          "name": "",
          "type": "uint256"
        }
      ],
      "stateMutability": "view",
      "type": "function"
    },
    {
      "inputs": [],
      "name": "maxDepositPerUser",
      "outputs": [
        {
          "internalType": "uint256",
          "name": "",
          "type": "uint256"
        }
      ],
      "stateMutability": "view",
      "type": "function"
    },
    {
      "inputs": [],
      "name": "maxTotalDeposits",
      "outputs": [
        {
          "internalType": "uint256",
          "name": "",
          "type": "uint256"
        }
      ],
      "stateMutability": "view",
      "type": "function"
    },
    {
      "inputs": [],
      "name": "name",
      "outputs": [
        {
          "internalType": "string",
          "name": "",
          "type": "string"
        }
      ],
      "stateMutability": "view",
      "type": "function"
    },
    {
      "inputs": [
        {
          "internalType": "uint256",
          "name": "amount",
          "type": "uint256"
        }
      ],
      "name": "receiveFees",
      "outputs": [],
      "stateMutability": "nonpayable",
      "type": "function"
    },
    {
      "inputs": [
        {
          "internalType": "uint256",
          "name": "amount",
          "type": "uint256"
        }
      ],
      "name": "releaseBacking",
      "outputs": [],
      "stateMutability": "nonpayable",
      "type": "function"
    },
    {
      "inputs": [
        {
          "internalType": "uint256",
          "name": "amount",
          "type": "uint256"
        }
      ],
      "name": "reserveBacking",
      "outputs": [],
      "stateMutability": "nonpayable",
      "type": "function"
    },
    {
      "inputs": [
        {
          "internalType": "address",
          "name": "trader",
          "type": "address"
        },
        {
          "internalType": "uint256",
          "name": "amount",
          "type": "uint256"
        }
      ],
      "name": "returnCollateral",
      "outputs": [],
      "stateMutability": "nonpayable",
      "type": "function"
    },
    {
      "inputs": [
        {
          "internalType": "uint256",
          "name": "_perUser",
          "type": "uint256"
        },
        {
          "internalType": "uint256",
          "name": "_total",
          "type": "uint256"
        }
      ],
      "name": "setDepositCaps",
      "outputs": [],
      "stateMutability": "nonpayable",
      "type": "function"
    },
    {
      "inputs": [
        {
          "internalType": "uint256",
          "name": "_seconds",
          "type": "uint256"
        }
      ],
      "name": "setLockupPeriod",
      "outputs": [],
      "stateMutability": "nonpayable",
      "type": "function"
    },
    {
      "inputs": [
        {
          "internalType": "uint256",
          "name": "amount",
          "type": "uint256"
        }
      ],
      "name": "settleAccruedFees",
      "outputs": [],
      "stateMutability": "nonpayable",
      "type": "function"
    },
    {
      "inputs": [
        {
          "internalType": "address",
          "name": "trader",
          "type": "address"
        },
        {
          "internalType": "address",
          "name": "liquidator",
          "type": "address"
        },
        {
          "internalType": "uint256",
          "name": "collateral",
          "type": "uint256"
        },
        {
          "internalType": "uint256",
          "name": "reward",
          "type": "uint256"
        }
      ],
      "name": "settleLiquidation",
      "outputs": [],
      "stateMutability": "nonpayable",
      "type": "function"
    },
    {
      "inputs": [
        {
          "internalType": "address",
          "name": "trader",
          "type": "address"
        },
        {
          "internalType": "uint256",
          "name": "collateral",
          "type": "uint256"
        },
        {
          "internalType": "int256",
          "name": "netPnl",
          "type": "int256"
        }
      ],
      "name": "settlePosition",
      "outputs": [],
      "stateMutability": "nonpayable",
      "type": "function"
    },
    {
      "inputs": [],
      "name": "sharePrice",
      "outputs": [
        {
          "internalType": "uint256",
          "name": "",
          "type": "uint256"
        }
      ],
      "stateMutability": "view",
      "type": "function"
    },
    {
      "inputs": [
        {
          "internalType": "address",
          "name": "",
          "type": "address"
        }
      ],
      "name": "shares",
      "outputs": [
        {
          "internalType": "uint256",
          "name": "",
          "type": "uint256"
        }
      ],
      "stateMutability": "view",
      "type": "function"
    },
    {
      "inputs": [],
      "name": "symbol",
      "outputs": [
        {
          "internalType": "string",
          "name": "",
          "type": "string"
        }
      ],
      "stateMutability": "view",
      "type": "function"
    },
    {
      "inputs": [
        {
          "internalType": "bool",
          "name": "_enabled",
          "type": "bool"
        }
      ],
      "name": "toggleDeposits",
      "outputs": [],
      "stateMutability": "nonpayable",
      "type": "function"
    },
    {
      "inputs": [],
      "name": "totalAssets",
      "outputs": [
        {
          "internalType": "uint256",
          "name": "",
          "type": "uint256"
        }
      ],
      "stateMutability": "view",
      "type": "function"
    },
    {
      "inputs": [],
      "name": "totalBacking",
      "outputs": [
        {
          "internalType": "uint256",
          "name": "",
          "type": "uint256"
        }
      ],
      "stateMutability": "view",
      "type": "function"
    },
    {
      "inputs": [],
      "name": "totalShares",
      "outputs": [
        {
          "internalType": "uint256",
          "name": "",
          "type": "uint256"
        }
      ],
      "stateMutability": "view",
      "type": "function"
    },
    {
      "inputs": [],
      "name": "usdc",
      "outputs": [
        {
          "internalType": "contract IERC20",
          "name": "",
          "type": "address"
        }
      ],
      "stateMutability": "view",
      "type": "function"
    },
    {
      "inputs": [],
      "name": "utilization",
      "outputs": [
        {
          "internalType": "uint256",
          "name": "",
          "type": "uint256"
        }
      ],
      "stateMutability": "view",
      "type": "function"
    },
    {
      "inputs": [
        {
          "internalType": "uint256",
          "name": "shareAmount",
          "type": "uint256"
        }
      ],
      "name": "withdraw",
      "outputs": [],
      "stateMutability": "nonpayable",
      "type": "function"
    }
  ],
  "bytecode": "0x60a0346100e857601f61190438819003918201601f19168301916001600160401b038311848410176100ec5780849260409485528339810103126100e857610052602061004b83610100565b9201610100565b60015f8190556206978060055564e8d4a51000600855652d79883d2000600955600a805460ff1916821790556001600160a01b0392831660805280546001600160a01b031916919092161790556040516117ef90816101158239608051818181610542015281816108d101528181610aae01528181610c4401528181610e32015281816110040152818161114a01526113650152f35b5f80fd5b634e487b7160e01b5f52604160045260245ffd5b51906001600160a01b03821682036100e85756fe6080604081815260049182361015610015575f80fd5b5f3560e01c90816301e1d114146114fd575080630420592e1461144357806306fdde03146113ef57806309c0533b146112585780630bfedc8c146111e0578063118f304314610f3257806319262d3014610eee5780632e1a7d4d14610d58578063313ce56714610d3d57806335b8e71314610b205780633a98ef3914610b025780633af9e66914610add5780633e413bee14610a9a57806346b00d0414610a655780635392fd1c14610a4257806361b01b5d14610a245780636e93ae2b146109ab578063743753591461098d57806374e863ad1461083f57806382e5310c14610821578063872697291461080557806395d89b41146107c457806399383f7814610737578063b6b55f251461045b578063ba9a7a561461043f578063c771c3901461037e578063ce7c2ac214610347578063dd3018a0146102b3578063ea21cd9214610290578063eb2cd25814610272578063ee947a7c14610254578063f2f4eb261461022c5763ff20b48d1461018a575f80fd5b34610228576020366003190112610228576001548151637622567960e11b81526001600160a01b039160209082908690829086165afa90811561021e575f916101ef575b501633036101e2576101e08235611732565b005b5163e9e3f4ad60e01b8152fd5b610211915060203d602011610217575b6102098183611547565b8101906115c6565b5f6101ce565b503d6101ff565b83513d5f823e3d90fd5b5f80fd5b5034610228575f3660031901126102285760015490516001600160a01b039091168152602090f35b5034610228575f366003190112610228576020906005549051908152f35b5034610228575f366003190112610228576020906007549051908152f35b5034610228575f366003190112610228576020906102ac611703565b9051908152f35b509034610228576020366003190112610228576001548251637622567960e11b8152823593916001600160a01b03919060209082908690829086165afa90811561021e575f91610328575b501633036101e25760075483808211156103205761031b91611606565b600755005b50505f600755005b610341915060203d602011610217576102098183611547565b5f6102fe565b5034610228576020366003190112610228576020906001600160a01b0361036c6115b0565b165f5260038252805f20549051908152f35b509034610228576020366003190112610228576001548251638da5cb5b60e01b8152823593916001600160a01b03919060209082908690829086165afa90811561021e575f91610420575b501633036104135762278d0083116103e2576005839055005b906020606492519162461bcd60e51b8352820152600b60248201526a4d6178203330206461797360a81b6044820152fd5b51635fc483c560e01b8152fd5b610439915060203d602011610217576102098183611547565b5f6103c9565b5034610228575f36600319011261022857602090516103e88152f35b503461022857602090816003193601126102285782359161047a611798565b82156107275760ff600a541615610717576006549061049984836115e5565b600954106107075760025491821580156106ff575b156106eb57506103e891828511156106a8576103e719850185811161069557928101809111610682576002555b81156106495760025484811561063e5761050e61051392335f5260038552610509875f205460065490611669565b61167c565b6115e5565b6008541061062e5782516323b872dd60e01b81523386820152306024820152604481018590529481866064815f7f00000000000000000000000000000000000000000000000000000000000000006001600160a01b03165af1958615610624577f90890809c654f11d6e72a28fa60149770a0d11ec6c92319d6ceb2bb0a4ea1a1595966105a7915f916105f7575b5061162b565b6105b3836002546115e5565b600255335f5260038252835f206105cb8482546115e5565b90556105d9866006546115e5565b600655335f52815242835f205582519485528401523392a260015f55005b6106179150843d861161061d575b61060f8183611547565b810190611613565b5f6105a1565b503d610605565b84513d5f823e3d90fd5b8251631823752b60e11b81528590fd5b61051391505f6115e5565b8460649184519162461bcd60e51b8352820152601460248201527353686172657320776f756c64206265207a65726f60601b6044820152fd5b601186634e487b7160e01b5f525260245ffd5b601187634e487b7160e01b5f525260245ffd5b835162461bcd60e51b8152808701839052601760248201527f4669727374206465706f73697420746f6f20736d616c6c0000000000000000006044820152606490fd5b6105096106f9929386611669565b906104db565b5080156104ae565b82516336a00c8b60e11b81528590fd5b8151630e2f42c960e31b81528490fd5b8151631f2a200560e01b81528490fd5b50903461022857602036600319011261022857803591821515809303610228576001548151638da5cb5b60e01b81526001600160a01b039160209082908690829086165afa90811561021e575f916107a5575b50163303610413578260ff8019600a5416911617600a555f80f35b6107be915060203d602011610217576102098183611547565b5f61078a565b5034610228575f366003190112610228578051610801916107e482611517565b600682526518d59055531560d21b60208301525191829182611569565b0390f35b5034610228575f366003190112610228576020906102ac6116d0565b5034610228575f366003190112610228576020906008549051908152f35b5090346102285781600319360112610228576108596115b0565b6001548351637622567960e11b8152602435936020936001600160a01b0393909290859082908490829088165afa80156109835784915f91610966575b5016330361095857855163a9059cbb60e01b81526001600160a01b038316918101918252602082018690529084908290819060400103815f877f0000000000000000000000000000000000000000000000000000000000000000165af190811561094e577f3db642b80902afb8ef23a2aeab4800b4b3717feb180705cf0a1c273ccc591c9795969161092e915f91610937575061162b565b519485521692a2005b6106179150863d881161061d5761060f8183611547565b86513d5f823e3d90fd5b855163e9e3f4ad60e01b8152fd5b61097d9150863d8811610217576102098183611547565b5f610896565b87513d5f823e3d90fd5b5034610228575f366003190112610228576020906006549051908152f35b5034610228576020366003190112610228576001548151637622567960e11b81526001600160a01b039160209082908690829086165afa90811561021e575f91610a05575b501633036101e25761031b82356007546115e5565b610a1e915060203d602011610217576102098183611547565b5f6109f0565b5034610228575f366003190112610228576020906009549051908152f35b5034610228575f3660031901126102285760209060ff600a541690519015158152f35b5034610228576020366003190112610228576020916001600160a01b03610a8a6115b0565b165f528252805f20549051908152f35b5034610228575f36600319011261022857517f00000000000000000000000000000000000000000000000000000000000000006001600160a01b03168152602090f35b5034610228576020366003190112610228576020906102ac610afd6115b0565b61169a565b5034610228575f366003190112610228576020906002549051908152f35b50346102285760209081600319360112610228576001548151637622567960e11b81526001600160a01b0391821694803593929091858184818a5afa908115610624579082915f91610d20575b50163303610d11578251631db0457960e11b81528281018590529083826024818a5afa918215610624575f92610ce0575b5081610bd0575b7f86c46efee0a638b418fa0952cd587c78b75b8bc989e7a7c13a86d448ec34a08486868651908152a1005b85839497610be084600654611606565b60065588516361d027b360e01b815294859182905afa801561098357610c409487945f92610cbf575b50885163a9059cbb60e01b81526001600160a01b03909216908201908152602081019390935293849283915f918391604090910190565b03927f0000000000000000000000000000000000000000000000000000000000000000165af1908115610624577f86c46efee0a638b418fa0952cd587c78b75b8bc989e7a7c13a86d448ec34a0849491610ca0915f91610ca8575061162b565b5f8080610ba5565b6106179150853d871161061d5761060f8183611547565b5f919250610cd990863d8811610217576102098183611547565b9190610c09565b9091508381813d8311610d0a575b610cf88183611547565b8101031261022857850151905f610b9e565b503d610cee565b50905163e9e3f4ad60e01b8152fd5b610d379150873d8911610217576102098183611547565b5f610b6d565b5034610228575f366003190112610228576020905160068152f35b50346102285760209081600319360112610228578235610d76611798565b801561072757335f526003835280825f205410610ede57335f52838352610da3825f2054600554906115e5565b4210610ece5760065492610db78483611669565b610dc4600254809261167c565b948511610ebe5784610e2d96610ddb858594611606565b600255335f5260038352855f20610df3868254611606565b9055610e0182600654611606565b600655855163a9059cbb60e01b8152339181019182526020820192909252909687918291604090910190565b03815f7f00000000000000000000000000000000000000000000000000000000000000006001600160a01b03165af194851561021e577ff279e6a1f5e320cca91135676d9cb6e44ca8a08c0b88342bcdb1144f6511b5689495610e96915f91610ea7575061162b565b82519485528401523392a260015f55005b6106179150833d851161061d5761060f8183611547565b835163bb55fd2760e01b81528690fd5b81516354e21be360e11b81528490fd5b8151633999656760e01b81528490fd5b5034610228576020366003190112610228576020916001600160a01b03610f136115b0565b165f528252610f28815f2054600554906115e5565b4210159051908152f35b503461022857606036600319011261022857610f4c6115b0565b906024356044359260018060a01b0391826001541684518091637622567960e11b8252818960209485935afa90811561094e579085915f916111c3575b501633036111b35760075482808211156111ab57610fa691611606565b6007555f86126110b0578083610fd488600654808b11611077575b81610fcb91611606565b600655856115e5565b875163a9059cbb60e01b81526001600160a01b03909216998201998a5260208a0152978890819060400103815f887f0000000000000000000000000000000000000000000000000000000000000000165af196871561106d577fa9c6720706505784683f09b0975d4f1a78dfdeebc7fead8936439abd5b96f0219697611060915f91610ea7575061162b565b84519687528601521692a2005b85513d5f823e3d90fd5b905088518a815281858201527f8bd96464087bd7a29c2d462da44e6cd69fa230fd14f8367b75b1f9240f3a89ea8a8a861692a280610fc1565b600160ff1b8614610695575f8690038281106110ff57507fa9c6720706505784683f09b0975d4f1a78dfdeebc7fead8936439abd5b96f0219596506110f7826006546115e5565b600655611060565b8361111a8261111185946006546115e5565b60065585611606565b875163a9059cbb60e01b81526001600160a01b03909216998201998a5260208a0152978890819060400103815f887f0000000000000000000000000000000000000000000000000000000000000000165af196871561106d577fa9c6720706505784683f09b0975d4f1a78dfdeebc7fead8936439abd5b96f02196976111a6915f91610ea7575061162b565b611060565b50505f610fa6565b845163e9e3f4ad60e01b81528790fd5b6111da9150833d8511610217576102098183611547565b5f610f89565b50346102285780600319360112610228576001548151638da5cb5b60e01b81526001600160a01b039160209082908690829086165afa90811561021e575f91611239575b50163303610413575035600855602435600955005b611252915060203d602011610217576102098183611547565b5f611224565b509034610228576080366003190112610228576112736115b0565b602435926001600160a01b03808516939284860361022857604435936064359083600154169085518092637622567960e11b8252818360209586935afa908115610983579086915f916113d2575b501633036109585760075487808211156113ca576112de91611606565b6007556112f66112ee8489611606565b6006546115e5565b60065582611332575b507f3046bb5fb86890e6f3c32d7527b763c83ee73588c10f9533662078355cc634fa9596975084519687528601521692a3005b855163a9059cbb60e01b81526001600160a01b039099169089019081526020810183905281908990819060400103815f887f0000000000000000000000000000000000000000000000000000000000000000165af197881561106d577f3046bb5fb86890e6f3c32d7527b763c83ee73588c10f9533662078355cc634fa9697986113c2915f91610ea7575061162b565b8796956112ff565b50505f6112de565b6113e99150843d8611610217576102098183611547565b5f6112c1565b5034610228575f3660031901126102285780516108019161140f82611517565b601882527f436f6e666964656e7469616c205661756c74205368617265000000000000000060208301525191829182611569565b5034610228576020366003190112610228576001548151637622567960e11b8152833593916001600160a01b03919060209082908590829086165afa908115610624575f916114de575b501633036114d0577f86c46efee0a638b418fa0952cd587c78b75b8bc989e7a7c13a86d448ec34a084602084846114c6826006546115e5565b60065551908152a1005b905163e9e3f4ad60e01b8152fd5b6114f7915060203d602011610217576102098183611547565b5f61148d565b34610228575f366003190112610228576020906006548152f35b6040810190811067ffffffffffffffff82111761153357604052565b634e487b7160e01b5f52604160045260245ffd5b90601f8019910116810190811067ffffffffffffffff82111761153357604052565b602080825282518183018190529093925f5b82811061159c57505060409293505f838284010152601f8019910116010190565b81810186015184820160400152850161157b565b600435906001600160a01b038216820361022857565b9081602091031261022857516001600160a01b03811681036102285790565b919082018092116115f257565b634e487b7160e01b5f52601160045260245ffd5b919082039182116115f257565b90816020910312610228575180151581036102285790565b1561163257565b60405162461bcd60e51b815260206004820152600f60248201526e151c985b9cd9995c8819985a5b1959608a1b6044820152606490fd5b818102929181159184041417156115f257565b8115611686570490565b634e487b7160e01b5f52601260045260245ffd5b60025480156116ca576116c79160018060a01b03165f52600360205261050960405f205460065490611669565b90565b50505f90565b60025480156116fb5760065490620f4240918281029281840414901517156115f2576116c79161167c565b50620f424090565b600654801561172d5760075490612710918281029281840414901517156115f2576116c79161167c565b505f90565b80156117955760207fb0bf1136427af53a4f141a4607b21ad2b14e0ae6d42711aaf85b8ee33f65d3db91600754818082115f1461178d5761177291611606565b600755611781816006546115e5565b600655604051908152a1565b50505f611772565b50565b60025f54146117a75760025f55565b604051633ee5aeb560e01b8152600490fdfea2646970667358221220051070e23008c667c3d3661c8928dcc28128a6708e4e8cab69969f946847cc5964736f6c63430008180033",
  "linkReferences": {},
  "deployedLinkReferences": {},
  "immutableReferences": {
    "5632": [
      {
        "length": 32,
        "start": 1346
      },
      {
        "length": 32,
        "start": 2257
      },
      {
        "length": 32,
        "start": 2734
      },
      {
        "length": 32,
        "start": 3140
      },
      {
        "length": 32,
        "start": 3634
      },
      {
        "length": 32,
        "start": 4100
      },
      {
        "length": 32,
        "start": 4426
      },
      {
        "length": 32,
        "start": 4965
      }
    ]
  },
  "inputSourceName": "project/src/ConfidentialVault.sol",
  "buildInfoId": "solc-0_8_24-7edb3ce04e1737f0f525a27d30297d14643a819a"
}