{
  "_format": "hh3-artifact-1",
  "contractName": "ConfidentialCore",
  "sourceName": "src/ConfidentialCore.sol",
  "abi": [
    {
      "inputs": [
        {
          "internalType": "address",
          "name": "_usdc",
          "type": "address"
        },
        {
          "internalType": "address",
          "name": "_oracle",
          "type": "address"
        }
      ],
      "stateMutability": "nonpayable",
      "type": "constructor"
    },
    {
      "inputs": [],
      "name": "ExceedsMaxLeverage",
      "type": "error"
    },
    {
      "inputs": [],
      "name": "ExceedsMaxOI",
      "type": "error"
    },
    {
      "inputs": [],
      "name": "ExceedsMaxPositionSize",
      "type": "error"
    },
    {
      "inputs": [],
      "name": "ExceedsUtilizationCap",
      "type": "error"
    },
    {
      "inputs": [],
      "name": "InvalidFeeSplit",
      "type": "error"
    },
    {
      "inputs": [],
      "name": "IsPaused",
      "type": "error"
    },
    {
      "inputs": [],
      "name": "OnlyOwner",
      "type": "error"
    },
    {
      "inputs": [],
      "name": "OnlyTrading",
      "type": "error"
    },
    {
      "inputs": [],
      "name": "PairNotActive",
      "type": "error"
    },
    {
      "inputs": [],
      "name": "ZeroAddress",
      "type": "error"
    },
    {
      "anonymous": false,
      "inputs": [
        {
          "indexed": false,
          "internalType": "uint256",
          "name": "dailyLoss",
          "type": "uint256"
        },
        {
          "indexed": false,
          "internalType": "uint256",
          "name": "threshold",
          "type": "uint256"
        }
      ],
      "name": "CircuitBreakerTriggered",
      "type": "event"
    },
    {
      "anonymous": false,
      "inputs": [
        {
          "indexed": false,
          "internalType": "uint256",
          "name": "toVault",
          "type": "uint256"
        },
        {
          "indexed": false,
          "internalType": "uint256",
          "name": "toTreasury",
          "type": "uint256"
        }
      ],
      "name": "FeeDistributed",
      "type": "event"
    },
    {
      "anonymous": false,
      "inputs": [
        {
          "indexed": true,
          "internalType": "bytes32",
          "name": "pairId",
          "type": "bytes32"
        },
        {
          "indexed": false,
          "internalType": "int256",
          "name": "newCumulativeIndex",
          "type": "int256"
        },
        {
          "indexed": false,
          "internalType": "int256",
          "name": "delta",
          "type": "int256"
        }
      ],
      "name": "FundingUpdated",
      "type": "event"
    },
    {
      "anonymous": false,
      "inputs": [
        {
          "indexed": true,
          "internalType": "address",
          "name": "current",
          "type": "address"
        },
        {
          "indexed": true,
          "internalType": "address",
          "name": "pending",
          "type": "address"
        }
      ],
      "name": "OwnershipTransferStarted",
      "type": "event"
    },
    {
      "anonymous": false,
      "inputs": [
        {
          "indexed": true,
          "internalType": "address",
          "name": "prev",
          "type": "address"
        },
        {
          "indexed": true,
          "internalType": "address",
          "name": "next",
          "type": "address"
        }
      ],
      "name": "OwnershipTransferred",
      "type": "event"
    },
    {
      "anonymous": false,
      "inputs": [
        {
          "indexed": true,
          "internalType": "bytes32",
          "name": "pairId",
          "type": "bytes32"
        },
        {
          "indexed": false,
          "internalType": "uint256",
          "name": "maxLeverage",
          "type": "uint256"
        },
        {
          "indexed": false,
          "internalType": "uint256",
          "name": "maxLongOI",
          "type": "uint256"
        },
        {
          "indexed": false,
          "internalType": "uint256",
          "name": "maxShortOI",
          "type": "uint256"
        }
      ],
      "name": "PairAdded",
      "type": "event"
    },
    {
      "anonymous": false,
      "inputs": [
        {
          "indexed": true,
          "internalType": "bytes32",
          "name": "pairId",
          "type": "bytes32"
        },
        {
          "indexed": false,
          "internalType": "bool",
          "name": "active",
          "type": "bool"
        }
      ],
      "name": "PairToggled",
      "type": "event"
    },
    {
      "anonymous": false,
      "inputs": [
        {
          "indexed": true,
          "internalType": "bytes32",
          "name": "pairId",
          "type": "bytes32"
        }
      ],
      "name": "PairUpdated",
      "type": "event"
    },
    {
      "anonymous": false,
      "inputs": [],
      "name": "Paused",
      "type": "event"
    },
    {
      "anonymous": false,
      "inputs": [],
      "name": "Unpaused",
      "type": "event"
    },
    {
      "inputs": [],
      "name": "acceptOwnership",
      "outputs": [],
      "stateMutability": "nonpayable",
      "type": "function"
    },
    {
      "inputs": [
        {
          "internalType": "string",
          "name": "pairName",
          "type": "string"
        },
        {
          "internalType": "bytes32",
          "name": "pythFeedId",
          "type": "bytes32"
        },
        {
          "internalType": "uint256",
          "name": "maxLeverage",
          "type": "uint256"
        },
        {
          "internalType": "uint256",
          "name": "maxLongOI_",
          "type": "uint256"
        },
        {
          "internalType": "uint256",
          "name": "maxShortOI_",
          "type": "uint256"
        },
        {
          "internalType": "uint256",
          "name": "maxPositionPct",
          "type": "uint256"
        }
      ],
      "name": "addPair",
      "outputs": [],
      "stateMutability": "nonpayable",
      "type": "function"
    },
    {
      "inputs": [
        {
          "internalType": "bytes32",
          "name": "pairId",
          "type": "bytes32"
        },
        {
          "internalType": "bool",
          "name": "isLong",
          "type": "bool"
        },
        {
          "internalType": "uint256",
          "name": "sizeUsd",
          "type": "uint256"
        }
      ],
      "name": "calcPriceImpact",
      "outputs": [
        {
          "internalType": "int256",
          "name": "impactBps",
          "type": "int256"
        }
      ],
      "stateMutability": "view",
      "type": "function"
    },
    {
      "inputs": [
        {
          "internalType": "uint256",
          "name": "sizeUsd",
          "type": "uint256"
        }
      ],
      "name": "calculateFee",
      "outputs": [
        {
          "internalType": "uint256",
          "name": "",
          "type": "uint256"
        }
      ],
      "stateMutability": "view",
      "type": "function"
    },
    {
      "inputs": [
        {
          "internalType": "uint256",
          "name": "sizeUsd",
          "type": "uint256"
        },
        {
          "internalType": "bool",
          "name": "isMaker",
          "type": "bool"
        }
      ],
      "name": "calculateFee",
      "outputs": [
        {
          "internalType": "uint256",
          "name": "",
          "type": "uint256"
        }
      ],
      "stateMutability": "view",
      "type": "function"
    },
    {
      "inputs": [
        {
          "internalType": "bytes32",
          "name": "",
          "type": "bytes32"
        }
      ],
      "name": "cumulativeFundingIndex",
      "outputs": [
        {
          "internalType": "int256",
          "name": "",
          "type": "int256"
        }
      ],
      "stateMutability": "view",
      "type": "function"
    },
    {
      "inputs": [],
      "name": "dailyLossResetTime",
      "outputs": [
        {
          "internalType": "uint256",
          "name": "",
          "type": "uint256"
        }
      ],
      "stateMutability": "view",
      "type": "function"
    },
    {
      "inputs": [],
      "name": "dailyLossTracker",
      "outputs": [
        {
          "internalType": "uint256",
          "name": "",
          "type": "uint256"
        }
      ],
      "stateMutability": "view",
      "type": "function"
    },
    {
      "inputs": [
        {
          "internalType": "bytes32",
          "name": "pairId",
          "type": "bytes32"
        },
        {
          "internalType": "address",
          "name": "user",
          "type": "address"
        },
        {
          "internalType": "bool",
          "name": "isLong",
          "type": "bool"
        },
        {
          "internalType": "uint256",
          "name": "sizeUsd",
          "type": "uint256"
        }
      ],
      "name": "decreaseOI",
      "outputs": [],
      "stateMutability": "nonpayable",
      "type": "function"
    },
    {
      "inputs": [],
      "name": "fundingRateCoefficient",
      "outputs": [
        {
          "internalType": "uint256",
          "name": "",
          "type": "uint256"
        }
      ],
      "stateMutability": "view",
      "type": "function"
    },
    {
      "inputs": [
        {
          "internalType": "uint256",
          "name": "totalFee",
          "type": "uint256"
        }
      ],
      "name": "getFeeSplit",
      "outputs": [
        {
          "internalType": "uint256",
          "name": "toVault",
          "type": "uint256"
        },
        {
          "internalType": "uint256",
          "name": "toTreasury",
          "type": "uint256"
        }
      ],
      "stateMutability": "view",
      "type": "function"
    },
    {
      "inputs": [
        {
          "internalType": "bytes32",
          "name": "pairId",
          "type": "bytes32"
        }
      ],
      "name": "getNetOI",
      "outputs": [
        {
          "internalType": "int256",
          "name": "",
          "type": "int256"
        }
      ],
      "stateMutability": "view",
      "type": "function"
    },
    {
      "inputs": [
        {
          "internalType": "bytes32",
          "name": "pairId",
          "type": "bytes32"
        }
      ],
      "name": "getOIInfo",
      "outputs": [
        {
          "internalType": "uint256",
          "name": "longOI_",
          "type": "uint256"
        },
        {
          "internalType": "uint256",
          "name": "shortOI_",
          "type": "uint256"
        },
        {
          "internalType": "uint256",
          "name": "maxLong_",
          "type": "uint256"
        },
        {
          "internalType": "uint256",
          "name": "maxShort_",
          "type": "uint256"
        }
      ],
      "stateMutability": "view",
      "type": "function"
    },
    {
      "inputs": [
        {
          "internalType": "bytes32",
          "name": "pairId",
          "type": "bytes32"
        }
      ],
      "name": "getPairConfig",
      "outputs": [
        {
          "components": [
            {
              "internalType": "bytes32",
              "name": "pairId",
              "type": "bytes32"
            },
            {
              "internalType": "bytes32",
              "name": "pythFeedId",
              "type": "bytes32"
            },
            {
              "internalType": "uint256",
              "name": "maxLeverage",
              "type": "uint256"
            },
            {
              "internalType": "uint256",
              "name": "maxLongOI",
              "type": "uint256"
            },
            {
              "internalType": "uint256",
              "name": "maxShortOI",
              "type": "uint256"
            },
            {
              "internalType": "uint256",
              "name": "maxPositionPct",
              "type": "uint256"
            },
            {
              "internalType": "bool",
              "name": "active",
              "type": "bool"
            }
          ],
          "internalType": "struct ConfidentialCore.PairConfig",
          "name": "",
          "type": "tuple"
        }
      ],
      "stateMutability": "view",
      "type": "function"
    },
    {
      "inputs": [],
      "name": "getPairCount",
      "outputs": [
        {
          "internalType": "uint256",
          "name": "",
          "type": "uint256"
        }
      ],
      "stateMutability": "view",
      "type": "function"
    },
    {
      "inputs": [
        {
          "internalType": "bytes32",
          "name": "pairId",
          "type": "bytes32"
        }
      ],
      "name": "getProjectedFundingRate",
      "outputs": [
        {
          "internalType": "int256",
          "name": "",
          "type": "int256"
        }
      ],
      "stateMutability": "view",
      "type": "function"
    },
    {
      "inputs": [
        {
          "internalType": "bytes32",
          "name": "pairId",
          "type": "bytes32"
        },
        {
          "internalType": "address",
          "name": "user",
          "type": "address"
        },
        {
          "internalType": "bool",
          "name": "isLong",
          "type": "bool"
        },
        {
          "internalType": "uint256",
          "name": "sizeUsd",
          "type": "uint256"
        }
      ],
      "name": "increaseOI",
      "outputs": [],
      "stateMutability": "nonpayable",
      "type": "function"
    },
    {
      "inputs": [],
      "name": "keeper",
      "outputs": [
        {
          "internalType": "address",
          "name": "",
          "type": "address"
        }
      ],
      "stateMutability": "view",
      "type": "function"
    },
    {
      "inputs": [
        {
          "internalType": "bytes32",
          "name": "",
          "type": "bytes32"
        }
      ],
      "name": "lastFundingUpdate",
      "outputs": [
        {
          "internalType": "uint256",
          "name": "",
          "type": "uint256"
        }
      ],
      "stateMutability": "view",
      "type": "function"
    },
    {
      "inputs": [
        {
          "internalType": "bytes32",
          "name": "",
          "type": "bytes32"
        }
      ],
      "name": "longOI",
      "outputs": [
        {
          "internalType": "uint256",
          "name": "",
          "type": "uint256"
        }
      ],
      "stateMutability": "view",
      "type": "function"
    },
    {
      "inputs": [],
      "name": "makerFeeBps",
      "outputs": [
        {
          "internalType": "uint256",
          "name": "",
          "type": "uint256"
        }
      ],
      "stateMutability": "view",
      "type": "function"
    },
    {
      "inputs": [],
      "name": "maxDailyDrawdownBps",
      "outputs": [
        {
          "internalType": "uint256",
          "name": "",
          "type": "uint256"
        }
      ],
      "stateMutability": "view",
      "type": "function"
    },
    {
      "inputs": [],
      "name": "maxPriceImpactBps",
      "outputs": [
        {
          "internalType": "uint256",
          "name": "",
          "type": "uint256"
        }
      ],
      "stateMutability": "view",
      "type": "function"
    },
    {
      "inputs": [],
      "name": "minPositionDuration",
      "outputs": [
        {
          "internalType": "uint256",
          "name": "",
          "type": "uint256"
        }
      ],
      "stateMutability": "view",
      "type": "function"
    },
    {
      "inputs": [],
      "name": "oracle",
      "outputs": [
        {
          "internalType": "contract PythPriceOracle",
          "name": "",
          "type": "address"
        }
      ],
      "stateMutability": "view",
      "type": "function"
    },
    {
      "inputs": [],
      "name": "owner",
      "outputs": [
        {
          "internalType": "address",
          "name": "",
          "type": "address"
        }
      ],
      "stateMutability": "view",
      "type": "function"
    },
    {
      "inputs": [
        {
          "internalType": "uint256",
          "name": "",
          "type": "uint256"
        }
      ],
      "name": "pairList",
      "outputs": [
        {
          "internalType": "bytes32",
          "name": "",
          "type": "bytes32"
        }
      ],
      "stateMutability": "view",
      "type": "function"
    },
    {
      "inputs": [
        {
          "internalType": "bytes32",
          "name": "",
          "type": "bytes32"
        }
      ],
      "name": "pairs",
      "outputs": [
        {
          "internalType": "bytes32",
          "name": "pairId",
          "type": "bytes32"
        },
        {
          "internalType": "bytes32",
          "name": "pythFeedId",
          "type": "bytes32"
        },
        {
          "internalType": "uint256",
          "name": "maxLeverage",
          "type": "uint256"
        },
        {
          "internalType": "uint256",
          "name": "maxLongOI",
          "type": "uint256"
        },
        {
          "internalType": "uint256",
          "name": "maxShortOI",
          "type": "uint256"
        },
        {
          "internalType": "uint256",
          "name": "maxPositionPct",
          "type": "uint256"
        },
        {
          "internalType": "bool",
          "name": "active",
          "type": "bool"
        }
      ],
      "stateMutability": "view",
      "type": "function"
    },
    {
      "inputs": [],
      "name": "pause",
      "outputs": [],
      "stateMutability": "nonpayable",
      "type": "function"
    },
    {
      "inputs": [],
      "name": "paused",
      "outputs": [
        {
          "internalType": "bool",
          "name": "",
          "type": "bool"
        }
      ],
      "stateMutability": "view",
      "type": "function"
    },
    {
      "inputs": [],
      "name": "pendingOwner",
      "outputs": [
        {
          "internalType": "address",
          "name": "",
          "type": "address"
        }
      ],
      "stateMutability": "view",
      "type": "function"
    },
    {
      "inputs": [
        {
          "internalType": "uint256",
          "name": "_vaultBps",
          "type": "uint256"
        },
        {
          "internalType": "uint256",
          "name": "_treasuryBps",
          "type": "uint256"
        }
      ],
      "name": "setFeeSplit",
      "outputs": [],
      "stateMutability": "nonpayable",
      "type": "function"
    },
    {
      "inputs": [
        {
          "internalType": "uint256",
          "name": "_coefficient",
          "type": "uint256"
        }
      ],
      "name": "setFundingRateCoefficient",
      "outputs": [],
      "stateMutability": "nonpayable",
      "type": "function"
    },
    {
      "inputs": [
        {
          "internalType": "address",
          "name": "_keeper",
          "type": "address"
        }
      ],
      "name": "setKeeper",
      "outputs": [],
      "stateMutability": "nonpayable",
      "type": "function"
    },
    {
      "inputs": [
        {
          "internalType": "uint256",
          "name": "_bps",
          "type": "uint256"
        }
      ],
      "name": "setMaxDailyDrawdown",
      "outputs": [],
      "stateMutability": "nonpayable",
      "type": "function"
    },
    {
      "inputs": [
        {
          "internalType": "uint256",
          "name": "_maxBps",
          "type": "uint256"
        }
      ],
      "name": "setMaxPriceImpact",
      "outputs": [],
      "stateMutability": "nonpayable",
      "type": "function"
    },
    {
      "inputs": [
        {
          "internalType": "uint256",
          "name": "_seconds",
          "type": "uint256"
        }
      ],
      "name": "setMinPositionDuration",
      "outputs": [],
      "stateMutability": "nonpayable",
      "type": "function"
    },
    {
      "inputs": [
        {
          "internalType": "address",
          "name": "_trading",
          "type": "address"
        }
      ],
      "name": "setTrading",
      "outputs": [],
      "stateMutability": "nonpayable",
      "type": "function"
    },
    {
      "inputs": [
        {
          "internalType": "uint256",
          "name": "_takerBps",
          "type": "uint256"
        },
        {
          "internalType": "uint256",
          "name": "_makerBps",
          "type": "uint256"
        }
      ],
      "name": "setTradingFees",
      "outputs": [],
      "stateMutability": "nonpayable",
      "type": "function"
    },
    {
      "inputs": [
        {
          "internalType": "address",
          "name": "_treasury",
          "type": "address"
        }
      ],
      "name": "setTreasury",
      "outputs": [],
      "stateMutability": "nonpayable",
      "type": "function"
    },
    {
      "inputs": [
        {
          "internalType": "uint256",
          "name": "_capBps",
          "type": "uint256"
        }
      ],
      "name": "setUtilizationCap",
      "outputs": [],
      "stateMutability": "nonpayable",
      "type": "function"
    },
    {
      "inputs": [
        {
          "internalType": "address",
          "name": "_vault",
          "type": "address"
        }
      ],
      "name": "setVault",
      "outputs": [],
      "stateMutability": "nonpayable",
      "type": "function"
    },
    {
      "inputs": [
        {
          "internalType": "bytes32",
          "name": "",
          "type": "bytes32"
        }
      ],
      "name": "shortOI",
      "outputs": [
        {
          "internalType": "uint256",
          "name": "",
          "type": "uint256"
        }
      ],
      "stateMutability": "view",
      "type": "function"
    },
    {
      "inputs": [],
      "name": "takerFeeBps",
      "outputs": [
        {
          "internalType": "uint256",
          "name": "",
          "type": "uint256"
        }
      ],
      "stateMutability": "view",
      "type": "function"
    },
    {
      "inputs": [
        {
          "internalType": "bytes32",
          "name": "pairId",
          "type": "bytes32"
        },
        {
          "internalType": "bool",
          "name": "active",
          "type": "bool"
        }
      ],
      "name": "togglePair",
      "outputs": [],
      "stateMutability": "nonpayable",
      "type": "function"
    },
    {
      "inputs": [
        {
          "internalType": "uint256",
          "name": "lossAmount",
          "type": "uint256"
        }
      ],
      "name": "trackVaultLoss",
      "outputs": [],
      "stateMutability": "nonpayable",
      "type": "function"
    },
    {
      "inputs": [],
      "name": "trading",
      "outputs": [
        {
          "internalType": "address",
          "name": "",
          "type": "address"
        }
      ],
      "stateMutability": "view",
      "type": "function"
    },
    {
      "inputs": [
        {
          "internalType": "address",
          "name": "newOwner",
          "type": "address"
        }
      ],
      "name": "transferOwnership",
      "outputs": [],
      "stateMutability": "nonpayable",
      "type": "function"
    },
    {
      "inputs": [],
      "name": "treasury",
      "outputs": [
        {
          "internalType": "address",
          "name": "",
          "type": "address"
        }
      ],
      "stateMutability": "view",
      "type": "function"
    },
    {
      "inputs": [],
      "name": "treasuryFeeBps",
      "outputs": [
        {
          "internalType": "uint256",
          "name": "",
          "type": "uint256"
        }
      ],
      "stateMutability": "view",
      "type": "function"
    },
    {
      "inputs": [],
      "name": "unpause",
      "outputs": [],
      "stateMutability": "nonpayable",
      "type": "function"
    },
    {
      "inputs": [
        {
          "internalType": "bytes32",
          "name": "pairId",
          "type": "bytes32"
        }
      ],
      "name": "updateFunding",
      "outputs": [
        {
          "internalType": "int256",
          "name": "",
          "type": "int256"
        }
      ],
      "stateMutability": "nonpayable",
      "type": "function"
    },
    {
      "inputs": [
        {
          "internalType": "bytes32",
          "name": "pairId",
          "type": "bytes32"
        },
        {
          "internalType": "uint256",
          "name": "maxLeverage_",
          "type": "uint256"
        }
      ],
      "name": "updatePairLeverage",
      "outputs": [],
      "stateMutability": "nonpayable",
      "type": "function"
    },
    {
      "inputs": [
        {
          "internalType": "bytes32",
          "name": "pairId",
          "type": "bytes32"
        },
        {
          "internalType": "uint256",
          "name": "maxLongOI_",
          "type": "uint256"
        },
        {
          "internalType": "uint256",
          "name": "maxShortOI_",
          "type": "uint256"
        },
        {
          "internalType": "uint256",
          "name": "maxPositionPct",
          "type": "uint256"
        }
      ],
      "name": "updatePairLimits",
      "outputs": [],
      "stateMutability": "nonpayable",
      "type": "function"
    },
    {
      "inputs": [],
      "name": "usdc",
      "outputs": [
        {
          "internalType": "address",
          "name": "",
          "type": "address"
        }
      ],
      "stateMutability": "view",
      "type": "function"
    },
    {
      "inputs": [
        {
          "internalType": "bytes32",
          "name": "",
          "type": "bytes32"
        },
        {
          "internalType": "address",
          "name": "",
          "type": "address"
        }
      ],
      "name": "userLongOI",
      "outputs": [
        {
          "internalType": "uint256",
          "name": "",
          "type": "uint256"
        }
      ],
      "stateMutability": "view",
      "type": "function"
    },
    {
      "inputs": [
        {
          "internalType": "bytes32",
          "name": "",
          "type": "bytes32"
        },
        {
          "internalType": "address",
          "name": "",
          "type": "address"
        }
      ],
      "name": "userShortOI",
      "outputs": [
        {
          "internalType": "uint256",
          "name": "",
          "type": "uint256"
        }
      ],
      "stateMutability": "view",
      "type": "function"
    },
    {
      "inputs": [],
      "name": "utilizationCapBps",
      "outputs": [
        {
          "internalType": "uint256",
          "name": "",
          "type": "uint256"
        }
      ],
      "stateMutability": "view",
      "type": "function"
    },
    {
      "inputs": [
        {
          "internalType": "bytes32",
          "name": "pairId",
          "type": "bytes32"
        },
        {
          "internalType": "address",
          "name": "user",
          "type": "address"
        },
        {
          "internalType": "bool",
          "name": "isLong",
          "type": "bool"
        },
        {
          "internalType": "uint256",
          "name": "sizeUsd",
          "type": "uint256"
        },
        {
          "internalType": "uint256",
          "name": "leverage",
          "type": "uint256"
        }
      ],
      "name": "validateOpenPosition",
      "outputs": [],
      "stateMutability": "view",
      "type": "function"
    },
    {
      "inputs": [],
      "name": "vault",
      "outputs": [
        {
          "internalType": "address",
          "name": "",
          "type": "address"
        }
      ],
      "stateMutability": "view",
      "type": "function"
    },
    {
      "inputs": [],
      "name": "vaultFeeBps",
      "outputs": [
        {
          "internalType": "uint256",
          "name": "",
          "type": "uint256"
        }
      ],
      "stateMutability": "view",
      "type": "function"
    }
  ],
  "bytecode": "0x60a034620000fc57601f6200208738819003918201601f19168301916001600160401b0383118484101762000100578084926040948552833981010312620000fc576200005a6020620000528362000114565b920162000114565b60046007556002600855611b58600955610bb8600a819055611f40600b556064600c819055600f5560056016556017556001600160a01b0390828216158015620000f1575b620000df5760018060a01b03199233845f5416175f556080521690600254161760025542601955604051611f5d90816200012a8239608051816114710152f35b60405163d92e233d60e01b8152600490fd5b50818116156200009f565b5f80fd5b634e487b7160e01b5f52604160045260245ffd5b51906001600160a01b0382168203620000fc5756fe6080604081815260049182361015610015575f80fd5b5f3560e01c9081631b573019146118f2575080632de900b5146118d45780633394572014611784578063353081e5146117085780633b608af2146116ce5780633c098f10146116565780633e153c40146114a05780633e413bee1461145d5780633f4ba83a146114085780634655f1eb146113e157806353c915f8146113c35780635a109871146113845780635c975abb1461135e57806361d027b3146113365780636321de7f1461131857806365100531146112f1578063673e0481146112855780636811dbb21461121f5780636817031b146111d45780636a37a22a146110f7578063748747e6146110ac57806379ba5097146110085780637dc0d1d014610fe05780637e6335c714610f925780637e8d588314610f74578063806954e314610f43578063837df08e14610f045780638456cb5914610ea95780638da5cb5b14610e825780638da97d9d14610e2e5780638e8c779114610df65780639124d0cb14610dd857806393359fe414610dba57806399a5d74714610d955780639cf2ebf514610d77578063a553906c14610d11578063a7432ecc14610c8f578063ac1fff0514610c1f578063acc87ba614610bb2578063aced166114610b8a578063aec376cd14610b6c578063b391decf14610b42578063b65b361f14610a94578063bd79156f14610840578063c60609f2146106be578063c8d594db146106a0578063d448eebc14610682578063daf012e614610664578063dc5998e0146105fd578063dd2bb29f146105df578063dd561c8c146105b8578063decbc2b714610591578063e30c397814610569578063e4d8cbe514610526578063e80cfa5e14610508578063ec44acf2146104e1578063f0f4426014610486578063f2fde38b146103f5578063f98cecbe146103b2578063fbfa77cf1461038a5763fda5ecb1146102be575f80fd5b34610386576102cc366119d7565b5f5490939192906001600160a01b031633036103795760328311158061036e575b1561033c57838310610303575050600755600855005b906020606492519162461bcd60e51b835282015260136024820152722a30b5b2b91036bab9ba101f1e9026b0b5b2b960691b6044820152fd5b906020606492519162461bcd60e51b8352820152600c60248201526b08ccaca40e8dede40d0d2ced60a31b6044820152fd5b5060328411156102ed565b51635fc483c560e01b8152fd5b5f80fd5b5034610386575f3660031901126103865760035490516001600160a01b039091168152602090f35b50346103865760203660031901126103865781546001600160a01b031633036103e8576103e160209235611dd4565b9051908152f35b5163e9e3f4ad60e01b8152fd5b5090346103865760203660031901126103865761041061197b565b5f546001600160a01b039081169291338490036104765716928315610469575050600180546001600160a01b031916831790557f38d16b8cac22d99fc7c124b9cd0de2d3fa1faef420bfe791d8c362d765e227005f80a3005b5163d92e233d60e01b8152fd5b8451635fc483c560e01b81528390fd5b509034610386576020366003190112610386576104a161197b565b5f546001600160a01b039190821633036104d1571691821561046957600580546001600160a01b03191684179055005b8351635fc483c560e01b81528390fd5b5034610386575f36600319011261038657905490516001600160a01b039091168152602090f35b5034610386575f36600319011261038657602090600a549051908152f35b5034610386578060031936011261038657612710610558602093610548611991565b1561056057600854905b35611a57565b049051908152f35b60075490610552565b5034610386575f3660031901126103865760015490516001600160a01b039091168152602090f35b503461038657602036600319011261038657602091355f52600e8252805f20549051908152f35b503461038657602036600319011261038657602091355f5260138252805f20549051908152f35b5034610386575f366003190112610386576020906009549051908152f35b509034610386576020366003190112610386575f54813592906001600160a01b031633036103795761012c8311610635576016839055005b906020606492519162461bcd60e51b8352820152600960248201526826b0bc101a9036b4b760b91b6044820152fd5b5034610386575f366003190112610386576020906016549051908152f35b5034610386575f366003190112610386576020906007549051908152f35b5034610386575f366003190112610386576020906008549051908152f35b50346103865760209182600319360112610386576003546001600160a01b03169033829003610810576019546201518081018091116107fd574210156107f0575b61070c8135601854611af6565b918260185580610719575b005b5f8091855187810190631e2ebe8f60e31b825285815261073881611ab8565b51915afa610744611d95565b90806107e5575b61075157005b84818051810103126103865784015190811561071757612710908184029184830414841517156107d257509061078691611a6a565b60175480911161079257005b7fc1b68f84e2906898e13e04dfea4f2ca4c44015fceb114b71916f54a7072712a693600160a01b60ff60a01b1960015416176001558351928352820152a1005b601190634e487b7160e01b5f525260245ffd5b50848151101561074b565b5f601855426019556106ff565b601182634e487b7160e01b5f525260245ffd5b825162461bcd60e51b8152908101849052600a60248201526913db9b1e4815985d5b1d60b21b6044820152606490fd5b50346103865760a036600319011261038657813561085c611965565b9060443580151581036103865760643560ff60015460a01c16610a8457825f5260209360108552855f20865161089181611a88565b81548152600182015487820152600282015494888201958652600383015495606083019687528a840154926080810193845260ff600660058701549660a08401978852015416159060c08215910152610a74575160843511610a6457156109f55750845f526012865261090783885f2054611af6565b8451106109e5575180610996575b50505050505b6003546001600160a01b03168061092e57005b5f8091845184810190637510e6c960e11b825287815261094d81611ab8565b51915afa610959611d95565b908061098b575b61096657005b8181805181010312610386570151600b541061097e57005b516324e397d360e21b8152fd5b508181511015610960565b6109a7612710916109c89551611a57565b04935f5260148552855f209060018060a01b03165f528452845f2054611af6565b116109d7575f80808080610915565b5051639f17b34d60e01b8152fd5b8651638a9d1c4160e01b81528890fd5b9350845f5260138652610a0b83885f2054611af6565b8451106109e5575180610a23575b505050505061091b565b610a3461271091610a559551611a57565b04935f5260158552855f209060018060a01b03165f528452845f2054611af6565b116109d7575f80808080610a19565b88516334bcdead60e11b81528a90fd5b8951634fedf0ed60e01b81528b90fd5b8451631309a56360e01b81528690fd5b50903461038657610aa4366119a0565b8454909593946001600160a01b03929183163303610b34575015610afd5783610af9945f526012602052835f20610adc878254611af6565b90555f526014602052825f2091165f526020525f20918254611af6565b9055005b83610af9945f526013602052835f20610b17878254611af6565b90555f526015602052825f2091165f526020525f20918254611af6565b845163e9e3f4ad60e01b8152fd5b5034610386576060366003190112610386576103e1602092610b62611991565b6044359135611c74565b5034610386575f366003190112610386576020906017549051908152f35b5034610386575f3660031901126103865760065490516001600160a01b039091168152602090f35b50346103865780600319360112610386575f54823592906001600160a01b03163303610c115750815f5260106020526002602435915f2001557feaab1fbae57c9453947c2c5733c4728c55777f0c7adefa5cc50d91eb3e1e36845f80a2005b9051635fc483c560e01b8152fd5b509034610386576080366003190112610386575f54813592906001600160a01b0316330361037957825f5260106020525f209060243560038301556044359082015560056064359101557feaab1fbae57c9453947c2c5733c4728c55777f0c7adefa5cc50d91eb3e1e36845f80a2005b509034610386578160031936011261038657803591610cac611991565b5f549092906001600160a01b03163303610c1157507fd6c85b16f14b4f3729d9c05fba629c9c41cb77a2eaea1cbe9f972e3c1add760a91602091845f5260108352610d08826006835f20019060ff801983541691151516179055565b519015158152a2005b503461038657602036600319011261038657610d2b61197b565b5f546001600160a01b03919082163303610d685716908115610d59575081546001600160a01b031916179055005b5163d92e233d60e01b81529050fd5b505051635fc483c560e01b8152fd5b5034610386575f366003190112610386576020906011549051908152f35b5034610386576020366003190112610386576127106105586020936007549035611a57565b5034610386575f36600319011261038657602090600f549051908152f35b5034610386576020366003190112610386576103e160209235611ba3565b50903461038657602036600319011261038657359060115482101561038657610e206020926119ed565b91905490519160031b1c8152f35b5090346103865760203660031901126103865760809181355f526012602052805f2054916013602052815f2054916010602052805f2091600383015492015492815194855260208501528301526060820152f35b5034610386575f366003190112610386575f5490516001600160a01b039091168152602090f35b5034610386575f366003190112610386575f546001600160a01b03163303610379576001805460ff60a01b1916600160a01b1790557f9e87fac88ff661f02d44f95383c817fece4bce600a3dab7a54406878b965e7525f80a1005b5034610386578060031936011261038657602091610f20611965565b90355f5260148352815f209060018060a01b03165f528252805f20549051908152f35b503461038657602036600319011261038657602091355f52601282526103e1815f205460138452825f205490611b03565b5034610386575f36600319011261038657602090600b549051908152f35b503461038657610fa1366119d7565b5f5490939192906001600160a01b0316330361037957612710610fc48585611af6565b03610fd3575050600955600a55005b51630601f69760e01b8152fd5b5034610386575f3660031901126103865760025490516001600160a01b039091168152602090f35b5034610386575f366003190112610386576001546001600160a01b03929091838316919033839003611075575050805f549384167f8be0079c531659141344cd1fd0a4f28419497f9722a3daafe3b4186f6b6457e05f80a36001600160a01b0319928316175f5516600155005b906020606492519162461bcd60e51b835282015260116024820152702737ba103832b73234b7339037bbb732b960791b6044820152fd5b509034610386576020366003190112610386576110c761197b565b5f546001600160a01b039190821633036104d1571691821561046957600680546001600160a01b03191684179055005b50903461038657602036600319011261038657815f60c060e0945161111b81611a88565b82815282602082015282848201528260608201528260808201528260a0820152015281355f526010602052805f2081519161115583611a88565b81549384845260018301549160208501928352600284015481860190815260038501549260608701938452850154936080870194855260c060ff600660058901549860a08b01998a5201541697019615158752825197885251602088015251908601525160608501525160808401525160a083015251151560c0820152f35b509034610386576020366003190112610386576111ef61197b565b5f546001600160a01b039190821633036104d1571691821561046957600380546001600160a01b03191684179055005b509034610386576020366003190112610386575f54813592906001600160a01b03163303610379576103e8831161125757600c839055005b906020606492519162461bcd60e51b835282015260086024820152670a8dede40d0d2ced60c31b6044820152fd5b5034610386576020366003190112610386578160e092355f526010602052815f2080549260018201549260028301546003840154918401549260ff600660058701549601541695815197885260208801528601526060850152608084015260a0830152151560c0820152f35b503461038657602036600319011261038657602091355f5260128252805f20549051908152f35b5034610386575f366003190112610386576020906018549051908152f35b5034610386575f3660031901126103865760055490516001600160a01b039091168152602090f35b5034610386575f3660031901126103865760209060ff60015460a01c1690519015158152f35b50346103865780600319360112610386576020916113a0611965565b90355f5260158352815f209060018060a01b03165f528252805f20549051908152f35b5034610386575f366003190112610386576020906019549051908152f35b503461038657602036600319011261038657602091355f52600d8252805f20549051908152f35b5034610386575f366003190112610386575f546001600160a01b03163303610379576001805460ff60a01b191690557fa45f47fdea8a1efdd9029a5691c7f759c32b7c698632b563573e155625d169335f80a1005b5034610386575f36600319011261038657517f00000000000000000000000000000000000000000000000000000000000000006001600160a01b03168152602090f35b50346103865760c03660031901126103865781359067ffffffffffffffff9081831161038657366023840112156103865782840135918211610386573660248385010111610386575f546044359360843593606435926001600160a01b031633036116465783516020928382019261152f91859184918190602401873781015f83820152038084520182611ad4565b519020956115b7845161154181611a88565b88815260068985830160243581528884018b81526060850189815260808601918c835260a087019360a435855260c0880195600187525f5260108b528c5f2097518855516001880155516002870155516003860155518685015551600584015551151591019060ff801983541691151516179055565b60115490680100000000000000008210156116335750917fc09b0e6ea17e638181154aed6758ae0143886172f6cf847a2302ff6def18661995939161160584600160609896016011556119ed565b81549060031b908a821b915f19901b1916179055875f52600e815242835f20558251948552840152820152a2005b604190634e487b7160e01b5f525260245ffd5b8351635fc483c560e01b81528790fd5b509034610386576020366003190112610386575f54813592906001600160a01b03163303610379576103e8831015806116c2575b15611696576017839055005b906020606492519162461bcd60e51b8352820152600660248201526531302d35302560d01b6044820152fd5b5061138883111561168a565b50903461038657602036600319011261038657356116fc6127106116f460095484611a57565b048092611a36565b82519182526020820152f35b509034610386576020366003190112610386575f54813592906001600160a01b031633036103795761138883101580611778575b1561174857600b839055005b906020606492519162461bcd60e51b8352820152600a6024820152694361702035302d39352560b01b6044820152fd5b5061251c83111561173c565b503461038657611793366119a0565b8554939592936001600160a01b039391929190841633036118c657501561183d57845f5260209160128352845f2054828082115f14611835576117d591611a36565b865f5260128452855f205560148352845f20931692835f52825280845f2054115f1461182d5761181790855f5260148352845f20845f528352845f2054611a36565b935b5f5260148152825f20915f52525f20555f80f35b505f93611819565b50505f6117d5565b845f5260209160138352845f2054828082115f146118be5761185e91611a36565b865f5260138452855f205560158352845f20931692835f52825280845f2054115f146118b6576118a090855f5260158352845f20845f528352845f2054611a36565b935b5f5260158152825f20915f52525f20555f80f35b505f936118a2565b50505f61185e565b855163e9e3f4ad60e01b8152fd5b5034610386575f36600319011261038657602090600c549051908152f35b838334610386576020366003190112610386575f54823593906001600160a01b0316330361195757506101f4831161192b57600f839055005b906020606492519162461bcd60e51b835282015260066024820152654d617820352560d01b6044820152fd5b635fc483c560e01b81529050fd5b602435906001600160a01b038216820361038657565b600435906001600160a01b038216820361038657565b60243590811515820361038657565b608090600319011261038657600435906024356001600160a01b038116810361038657906044358015158103610386579060643590565b6040906003190112610386576004359060243590565b601154811015611a225760115f527f31ecc21a745e3968a04e9570e4425bc18fa8019c68028196b546d1669c200c6801905f90565b634e487b7160e01b5f52603260045260245ffd5b91908203918211611a4357565b634e487b7160e01b5f52601160045260245ffd5b81810292918115918404141715611a4357565b8115611a74570490565b634e487b7160e01b5f52601260045260245ffd5b60e0810190811067ffffffffffffffff821117611aa457604052565b634e487b7160e01b5f52604160045260245ffd5b6040810190811067ffffffffffffffff821117611aa457604052565b90601f8019910116810190811067ffffffffffffffff821117611aa457604052565b91908201809211611a4357565b81810392915f138015828513169184121617611a4357565b90670de0b6b3a764000091828102928184051490151715611a4357565b906201518091828102928184051490151715611a4357565b9061271091828102928184051490151715611a4357565b81810292915f8212600160ff1b821416611a43578184051490151715611a4357565b8115611a7457600160ff1b81145f19831416611a43570590565b805f52601060205260405f2090604051611bbc81611a88565b82548152600183015460208201526002830154604082015260c060ff600660038601549586606086015260048101546080860152600581015460a086015201541615159101528115611c6e575f526012602052611c33611c2a60405f2054601360205260405f205490611b03565b600c5490611b67565b9061708091828102928184051490151715611a4357611c65611c60611c5a611c6b94611b1b565b92611b38565b611b50565b90611b89565b90565b50505f90565b919091805f5260209060108252604090815f20825190611c9382611a88565b8054825260018101548583015260028101548483015260038101549182606082015260c060ff6006600485015494856080860152600581015460a08601520154161515910152865f14611d8d5750945b8515611d835715611d6a575f52601282526013815f205492525f20541115905b620f42409283820291808304851490151715611a4357611d27611d2d918593611a6a565b80611a57565b0491611d3c600f548094611a57565b0491808311611d62575b5015611d4f5790565b60011c600160ff1b8114611a43575f0390565b91505f611d46565b5f52601382526012815f205492525f2054111590611d03565b5050505050505f90565b905094611ce3565b3d15611dcf573d9067ffffffffffffffff8211611aa45760405191611dc4601f8201601f191660200184611ad4565b82523d5f602084013e565b606090565b805f52602090600e8252604091611dee835f205442611a36565b8015611f1a57825f5260108252835f20908451611e0a81611a88565b8254815260018301548482015260028301548682015260c060ff600660038601549586606086015260048101546080860152600581015460a086015201541615159101528115611f035790611c65611c60611c5a611e89611e8e95885f5260128852611e84611c2a8b5f205460138b528c5f205490611b03565b611b67565b611b1b565b91805f52600d8252835f20928354818101905f8383129112908015821691151617611a43578583927facab28495f5d412e24f181214dd823bd5fa666235afd596193c593fedee9064f92600d9755835f52600e865242825f2055868652815f205490825191825286820152a25f52525f205490565b5050600d915f52600e815242835f2055525f205490565b50600d915f52525f20549056fea264697066735822122039f189c05dbccc77a07ca1be78dbfd530ce19e59123c4adcfa1ae754b96e412564736f6c63430008180033",
  "linkReferences": {},
  "deployedLinkReferences": {},
  "immutableReferences": {
    "104": [
      {
        "length": 32,
        "start": 5233
      }
    ]
  },
  "inputSourceName": "project/src/ConfidentialCore.sol",
  "buildInfoId": "solc-0_8_24-7d9c4b7265ea7a05907941e5a707096b56b84902"
}