{
  "_format": "hh3-artifact-1",
  "contractName": "ConfidentialTrading",
  "sourceName": "src/ConfidentialTrading.sol",
  "abi": [
    {
      "inputs": [
        {
          "internalType": "address",
          "name": "_usdc",
          "type": "address"
        },
        {
          "internalType": "address",
          "name": "_core",
          "type": "address"
        },
        {
          "internalType": "address",
          "name": "_vault",
          "type": "address"
        },
        {
          "internalType": "address",
          "name": "_oracle",
          "type": "address"
        }
      ],
      "stateMutability": "nonpayable",
      "type": "constructor"
    },
    {
      "inputs": [],
      "name": "ReentrancyGuardReentrantCall",
      "type": "error"
    },
    {
      "anonymous": false,
      "inputs": [
        {
          "indexed": true,
          "internalType": "uint256",
          "name": "positionId",
          "type": "uint256"
        },
        {
          "indexed": true,
          "internalType": "address",
          "name": "trader",
          "type": "address"
        },
        {
          "indexed": false,
          "internalType": "uint256",
          "name": "amount",
          "type": "uint256"
        },
        {
          "indexed": false,
          "internalType": "uint256",
          "name": "newLiquidationPrice",
          "type": "uint256"
        }
      ],
      "name": "CollateralAdded",
      "type": "event"
    },
    {
      "anonymous": false,
      "inputs": [
        {
          "indexed": true,
          "internalType": "uint256",
          "name": "positionId",
          "type": "uint256"
        },
        {
          "indexed": true,
          "internalType": "address",
          "name": "trader",
          "type": "address"
        },
        {
          "indexed": false,
          "internalType": "uint256",
          "name": "amount",
          "type": "uint256"
        },
        {
          "indexed": false,
          "internalType": "uint256",
          "name": "newLiquidationPrice",
          "type": "uint256"
        }
      ],
      "name": "CollateralRemoved",
      "type": "event"
    },
    {
      "anonymous": false,
      "inputs": [
        {
          "indexed": true,
          "internalType": "uint256",
          "name": "orderId",
          "type": "uint256"
        }
      ],
      "name": "OrderCancelled",
      "type": "event"
    },
    {
      "anonymous": false,
      "inputs": [
        {
          "indexed": true,
          "internalType": "uint256",
          "name": "orderId",
          "type": "uint256"
        },
        {
          "indexed": true,
          "internalType": "uint256",
          "name": "positionId",
          "type": "uint256"
        }
      ],
      "name": "OrderExecuted",
      "type": "event"
    },
    {
      "anonymous": false,
      "inputs": [
        {
          "indexed": true,
          "internalType": "uint256",
          "name": "orderId",
          "type": "uint256"
        },
        {
          "indexed": true,
          "internalType": "address",
          "name": "trader",
          "type": "address"
        },
        {
          "indexed": false,
          "internalType": "bytes32",
          "name": "pairId",
          "type": "bytes32"
        },
        {
          "indexed": false,
          "internalType": "uint8",
          "name": "orderType",
          "type": "uint8"
        },
        {
          "indexed": false,
          "internalType": "uint256",
          "name": "triggerPrice",
          "type": "uint256"
        }
      ],
      "name": "OrderPlaced",
      "type": "event"
    },
    {
      "anonymous": false,
      "inputs": [
        {
          "indexed": true,
          "internalType": "uint256",
          "name": "positionId",
          "type": "uint256"
        },
        {
          "indexed": true,
          "internalType": "address",
          "name": "trader",
          "type": "address"
        },
        {
          "indexed": false,
          "internalType": "uint256",
          "name": "exitPrice",
          "type": "uint256"
        },
        {
          "indexed": false,
          "internalType": "int256",
          "name": "pnl",
          "type": "int256"
        }
      ],
      "name": "PositionClosed",
      "type": "event"
    },
    {
      "anonymous": false,
      "inputs": [
        {
          "indexed": true,
          "internalType": "uint256",
          "name": "positionId",
          "type": "uint256"
        },
        {
          "indexed": true,
          "internalType": "address",
          "name": "trader",
          "type": "address"
        },
        {
          "indexed": false,
          "internalType": "uint256",
          "name": "additionalSizeUsd",
          "type": "uint256"
        },
        {
          "indexed": false,
          "internalType": "uint256",
          "name": "newEntryPrice",
          "type": "uint256"
        },
        {
          "indexed": false,
          "internalType": "uint256",
          "name": "newLiquidationPrice",
          "type": "uint256"
        }
      ],
      "name": "PositionIncreased",
      "type": "event"
    },
    {
      "anonymous": false,
      "inputs": [
        {
          "indexed": true,
          "internalType": "uint256",
          "name": "positionId",
          "type": "uint256"
        },
        {
          "indexed": true,
          "internalType": "address",
          "name": "trader",
          "type": "address"
        },
        {
          "indexed": false,
          "internalType": "uint256",
          "name": "executionPrice",
          "type": "uint256"
        },
        {
          "indexed": true,
          "internalType": "address",
          "name": "liquidator",
          "type": "address"
        },
        {
          "indexed": false,
          "internalType": "uint256",
          "name": "reward",
          "type": "uint256"
        }
      ],
      "name": "PositionLiquidated",
      "type": "event"
    },
    {
      "anonymous": false,
      "inputs": [
        {
          "indexed": true,
          "internalType": "uint256",
          "name": "positionId",
          "type": "uint256"
        },
        {
          "indexed": true,
          "internalType": "address",
          "name": "trader",
          "type": "address"
        },
        {
          "indexed": false,
          "internalType": "bytes32",
          "name": "pairId",
          "type": "bytes32"
        },
        {
          "indexed": false,
          "internalType": "bool",
          "name": "isLong",
          "type": "bool"
        },
        {
          "indexed": false,
          "internalType": "uint256",
          "name": "sizeUsd",
          "type": "uint256"
        },
        {
          "indexed": false,
          "internalType": "uint256",
          "name": "entryPrice",
          "type": "uint256"
        },
        {
          "indexed": false,
          "internalType": "uint256",
          "name": "leverage",
          "type": "uint256"
        }
      ],
      "name": "PositionOpened",
      "type": "event"
    },
    {
      "anonymous": false,
      "inputs": [
        {
          "indexed": true,
          "internalType": "uint256",
          "name": "positionId",
          "type": "uint256"
        },
        {
          "indexed": true,
          "internalType": "address",
          "name": "trader",
          "type": "address"
        },
        {
          "indexed": false,
          "internalType": "uint256",
          "name": "closeSizeUsd",
          "type": "uint256"
        },
        {
          "indexed": false,
          "internalType": "uint256",
          "name": "exitPrice",
          "type": "uint256"
        },
        {
          "indexed": false,
          "internalType": "int256",
          "name": "pnl",
          "type": "int256"
        }
      ],
      "name": "PositionPartialClose",
      "type": "event"
    },
    {
      "anonymous": false,
      "inputs": [
        {
          "indexed": true,
          "internalType": "uint256",
          "name": "positionId",
          "type": "uint256"
        },
        {
          "indexed": false,
          "internalType": "bool",
          "name": "isTakeProfit",
          "type": "bool"
        },
        {
          "indexed": false,
          "internalType": "uint256",
          "name": "executionPrice",
          "type": "uint256"
        }
      ],
      "name": "TPSLTriggered",
      "type": "event"
    },
    {
      "anonymous": false,
      "inputs": [
        {
          "indexed": true,
          "internalType": "uint256",
          "name": "orderId",
          "type": "uint256"
        },
        {
          "indexed": false,
          "internalType": "uint256",
          "name": "sliceNumber",
          "type": "uint256"
        },
        {
          "indexed": false,
          "internalType": "uint256",
          "name": "sizeUsd",
          "type": "uint256"
        }
      ],
      "name": "TWAPSliceExecuted",
      "type": "event"
    },
    {
      "inputs": [],
      "name": "MIN_COLLATERAL",
      "outputs": [
        {
          "internalType": "uint256",
          "name": "",
          "type": "uint256"
        }
      ],
      "stateMutability": "view",
      "type": "function"
    },
    {
      "inputs": [],
      "name": "MIN_POSITION_SIZE",
      "outputs": [
        {
          "internalType": "uint256",
          "name": "",
          "type": "uint256"
        }
      ],
      "stateMutability": "view",
      "type": "function"
    },
    {
      "inputs": [
        {
          "internalType": "uint256",
          "name": "positionId",
          "type": "uint256"
        },
        {
          "internalType": "uint256",
          "name": "amount",
          "type": "uint256"
        }
      ],
      "name": "addCollateral",
      "outputs": [],
      "stateMutability": "nonpayable",
      "type": "function"
    },
    {
      "inputs": [
        {
          "internalType": "uint256",
          "name": "orderId",
          "type": "uint256"
        }
      ],
      "name": "cancelOrder",
      "outputs": [],
      "stateMutability": "nonpayable",
      "type": "function"
    },
    {
      "inputs": [
        {
          "internalType": "uint256",
          "name": "positionId",
          "type": "uint256"
        },
        {
          "internalType": "bytes[]",
          "name": "updateData",
          "type": "bytes[]"
        }
      ],
      "name": "closePositionInstantly",
      "outputs": [],
      "stateMutability": "payable",
      "type": "function"
    },
    {
      "inputs": [
        {
          "internalType": "uint256",
          "name": "positionId",
          "type": "uint256"
        },
        {
          "internalType": "uint256",
          "name": "closePercent",
          "type": "uint256"
        },
        {
          "internalType": "bytes[]",
          "name": "updateData",
          "type": "bytes[]"
        }
      ],
      "name": "closePositionPartial",
      "outputs": [],
      "stateMutability": "payable",
      "type": "function"
    },
    {
      "inputs": [],
      "name": "core",
      "outputs": [
        {
          "internalType": "contract ConfidentialCore",
          "name": "",
          "type": "address"
        }
      ],
      "stateMutability": "view",
      "type": "function"
    },
    {
      "inputs": [
        {
          "internalType": "uint256",
          "name": "positionId",
          "type": "uint256"
        }
      ],
      "name": "createCloseRequest",
      "outputs": [
        {
          "internalType": "uint256",
          "name": "orderId",
          "type": "uint256"
        }
      ],
      "stateMutability": "payable",
      "type": "function"
    },
    {
      "inputs": [
        {
          "internalType": "bytes32",
          "name": "pairId",
          "type": "bytes32"
        },
        {
          "internalType": "bool",
          "name": "isLong",
          "type": "bool"
        },
        {
          "internalType": "uint256",
          "name": "totalSizeUsd",
          "type": "uint256"
        },
        {
          "internalType": "uint256",
          "name": "leverage",
          "type": "uint256"
        },
        {
          "internalType": "uint256",
          "name": "slices",
          "type": "uint256"
        },
        {
          "internalType": "uint256",
          "name": "intervalSec",
          "type": "uint256"
        },
        {
          "internalType": "uint256",
          "name": "tpPrice",
          "type": "uint256"
        },
        {
          "internalType": "uint256",
          "name": "slPrice",
          "type": "uint256"
        }
      ],
      "name": "createTwapOrder",
      "outputs": [
        {
          "internalType": "uint256",
          "name": "orderId",
          "type": "uint256"
        }
      ],
      "stateMutability": "payable",
      "type": "function"
    },
    {
      "inputs": [
        {
          "internalType": "uint256",
          "name": "orderId",
          "type": "uint256"
        },
        {
          "internalType": "bytes[]",
          "name": "updateData",
          "type": "bytes[]"
        }
      ],
      "name": "executeOrder",
      "outputs": [],
      "stateMutability": "payable",
      "type": "function"
    },
    {
      "inputs": [
        {
          "internalType": "uint256",
          "name": "positionId",
          "type": "uint256"
        },
        {
          "internalType": "bytes[]",
          "name": "updateData",
          "type": "bytes[]"
        }
      ],
      "name": "executeTPSL",
      "outputs": [],
      "stateMutability": "payable",
      "type": "function"
    },
    {
      "inputs": [
        {
          "internalType": "uint256",
          "name": "",
          "type": "uint256"
        }
      ],
      "name": "hasActiveCloseRequest",
      "outputs": [
        {
          "internalType": "bool",
          "name": "",
          "type": "bool"
        }
      ],
      "stateMutability": "view",
      "type": "function"
    },
    {
      "inputs": [
        {
          "internalType": "uint256",
          "name": "positionId",
          "type": "uint256"
        },
        {
          "internalType": "uint256",
          "name": "additionalSizeUsd",
          "type": "uint256"
        },
        {
          "internalType": "uint256",
          "name": "additionalLeverage",
          "type": "uint256"
        },
        {
          "internalType": "uint256",
          "name": "acceptablePrice",
          "type": "uint256"
        },
        {
          "internalType": "bytes[]",
          "name": "updateData",
          "type": "bytes[]"
        }
      ],
      "name": "increasePosition",
      "outputs": [],
      "stateMutability": "payable",
      "type": "function"
    },
    {
      "inputs": [
        {
          "internalType": "uint256",
          "name": "positionId",
          "type": "uint256"
        },
        {
          "internalType": "bytes[]",
          "name": "updateData",
          "type": "bytes[]"
        }
      ],
      "name": "liquidate",
      "outputs": [],
      "stateMutability": "payable",
      "type": "function"
    },
    {
      "inputs": [],
      "name": "liquidationRewardBps",
      "outputs": [
        {
          "internalType": "uint256",
          "name": "",
          "type": "uint256"
        }
      ],
      "stateMutability": "view",
      "type": "function"
    },
    {
      "inputs": [],
      "name": "maxOrderAge",
      "outputs": [
        {
          "internalType": "uint256",
          "name": "",
          "type": "uint256"
        }
      ],
      "stateMutability": "view",
      "type": "function"
    },
    {
      "inputs": [],
      "name": "nextOrderId",
      "outputs": [
        {
          "internalType": "uint256",
          "name": "",
          "type": "uint256"
        }
      ],
      "stateMutability": "view",
      "type": "function"
    },
    {
      "inputs": [],
      "name": "nextPositionId",
      "outputs": [
        {
          "internalType": "uint256",
          "name": "",
          "type": "uint256"
        }
      ],
      "stateMutability": "view",
      "type": "function"
    },
    {
      "inputs": [],
      "name": "oracle",
      "outputs": [
        {
          "internalType": "contract PythPriceOracle",
          "name": "",
          "type": "address"
        }
      ],
      "stateMutability": "view",
      "type": "function"
    },
    {
      "inputs": [
        {
          "internalType": "uint256",
          "name": "",
          "type": "uint256"
        }
      ],
      "name": "pendingOrders",
      "outputs": [
        {
          "internalType": "bytes32",
          "name": "pairId",
          "type": "bytes32"
        },
        {
          "internalType": "address",
          "name": "trader",
          "type": "address"
        },
        {
          "internalType": "bool",
          "name": "isLong",
          "type": "bool"
        },
        {
          "internalType": "uint256",
          "name": "sizeUsd",
          "type": "uint256"
        },
        {
          "internalType": "uint256",
          "name": "collateral",
          "type": "uint256"
        },
        {
          "internalType": "uint256",
          "name": "leverage",
          "type": "uint256"
        },
        {
          "internalType": "uint256",
          "name": "triggerPrice",
          "type": "uint256"
        },
        {
          "internalType": "uint8",
          "name": "orderType",
          "type": "uint8"
        },
        {
          "internalType": "bool",
          "name": "isActive",
          "type": "bool"
        },
        {
          "internalType": "uint256",
          "name": "createdAt",
          "type": "uint256"
        },
        {
          "internalType": "uint256",
          "name": "positionId",
          "type": "uint256"
        },
        {
          "internalType": "uint256",
          "name": "feePaid",
          "type": "uint256"
        },
        {
          "internalType": "uint256",
          "name": "executionFee",
          "type": "uint256"
        },
        {
          "internalType": "uint256",
          "name": "tpPrice",
          "type": "uint256"
        },
        {
          "internalType": "uint256",
          "name": "slPrice",
          "type": "uint256"
        },
        {
          "internalType": "uint256",
          "name": "twapSlices",
          "type": "uint256"
        },
        {
          "internalType": "uint256",
          "name": "twapInterval",
          "type": "uint256"
        },
        {
          "internalType": "uint256",
          "name": "twapExecuted",
          "type": "uint256"
        },
        {
          "internalType": "uint256",
          "name": "twapLastExec",
          "type": "uint256"
        }
      ],
      "stateMutability": "view",
      "type": "function"
    },
    {
      "inputs": [
        {
          "internalType": "bytes32",
          "name": "pairId",
          "type": "bytes32"
        },
        {
          "internalType": "bool",
          "name": "isLong",
          "type": "bool"
        },
        {
          "internalType": "uint256",
          "name": "sizeUsd",
          "type": "uint256"
        },
        {
          "internalType": "uint256",
          "name": "leverage",
          "type": "uint256"
        },
        {
          "internalType": "uint256",
          "name": "tpPrice",
          "type": "uint256"
        },
        {
          "internalType": "uint256",
          "name": "slPrice",
          "type": "uint256"
        },
        {
          "internalType": "uint256",
          "name": "acceptablePrice",
          "type": "uint256"
        },
        {
          "internalType": "bytes[]",
          "name": "updateData",
          "type": "bytes[]"
        }
      ],
      "name": "placeMarketOrder",
      "outputs": [
        {
          "internalType": "uint256",
          "name": "posId",
          "type": "uint256"
        }
      ],
      "stateMutability": "payable",
      "type": "function"
    },
    {
      "inputs": [
        {
          "internalType": "bytes32",
          "name": "pairId",
          "type": "bytes32"
        },
        {
          "internalType": "bool",
          "name": "isLong",
          "type": "bool"
        },
        {
          "internalType": "uint256",
          "name": "sizeUsd",
          "type": "uint256"
        },
        {
          "internalType": "uint256",
          "name": "leverage",
          "type": "uint256"
        },
        {
          "internalType": "uint256",
          "name": "triggerPrice",
          "type": "uint256"
        },
        {
          "internalType": "uint8",
          "name": "orderType",
          "type": "uint8"
        },
        {
          "internalType": "uint256",
          "name": "tpPrice",
          "type": "uint256"
        },
        {
          "internalType": "uint256",
          "name": "slPrice",
          "type": "uint256"
        }
      ],
      "name": "placeOrder",
      "outputs": [
        {
          "internalType": "uint256",
          "name": "orderId",
          "type": "uint256"
        }
      ],
      "stateMutability": "payable",
      "type": "function"
    },
    {
      "inputs": [
        {
          "internalType": "uint256",
          "name": "",
          "type": "uint256"
        }
      ],
      "name": "positions",
      "outputs": [
        {
          "internalType": "bytes32",
          "name": "pairId",
          "type": "bytes32"
        },
        {
          "internalType": "address",
          "name": "trader",
          "type": "address"
        },
        {
          "internalType": "bool",
          "name": "isLong",
          "type": "bool"
        },
        {
          "internalType": "uint256",
          "name": "sizeUsd",
          "type": "uint256"
        },
        {
          "internalType": "uint256",
          "name": "collateral",
          "type": "uint256"
        },
        {
          "internalType": "uint256",
          "name": "entryPrice",
          "type": "uint256"
        },
        {
          "internalType": "uint256",
          "name": "leverage",
          "type": "uint256"
        },
        {
          "internalType": "uint256",
          "name": "liquidationPrice",
          "type": "uint256"
        },
        {
          "internalType": "uint256",
          "name": "openedAt",
          "type": "uint256"
        },
        {
          "internalType": "bool",
          "name": "isOpen",
          "type": "bool"
        },
        {
          "internalType": "uint256",
          "name": "tpPrice",
          "type": "uint256"
        },
        {
          "internalType": "uint256",
          "name": "slPrice",
          "type": "uint256"
        },
        {
          "internalType": "int256",
          "name": "entryFundingIndex",
          "type": "int256"
        },
        {
          "internalType": "uint256",
          "name": "lastRolloverSettled",
          "type": "uint256"
        }
      ],
      "stateMutability": "view",
      "type": "function"
    },
    {
      "inputs": [
        {
          "internalType": "uint256",
          "name": "positionId",
          "type": "uint256"
        },
        {
          "internalType": "uint256",
          "name": "amount",
          "type": "uint256"
        },
        {
          "internalType": "bytes[]",
          "name": "updateData",
          "type": "bytes[]"
        }
      ],
      "name": "removeCollateral",
      "outputs": [],
      "stateMutability": "payable",
      "type": "function"
    },
    {
      "inputs": [],
      "name": "rolloverFeePerHour",
      "outputs": [
        {
          "internalType": "uint256",
          "name": "",
          "type": "uint256"
        }
      ],
      "stateMutability": "view",
      "type": "function"
    },
    {
      "inputs": [
        {
          "internalType": "uint256",
          "name": "_bps",
          "type": "uint256"
        }
      ],
      "name": "setLiquidationRewardBps",
      "outputs": [],
      "stateMutability": "nonpayable",
      "type": "function"
    },
    {
      "inputs": [
        {
          "internalType": "uint256",
          "name": "_seconds",
          "type": "uint256"
        }
      ],
      "name": "setMaxOrderAge",
      "outputs": [],
      "stateMutability": "nonpayable",
      "type": "function"
    },
    {
      "inputs": [
        {
          "internalType": "uint256",
          "name": "_fee",
          "type": "uint256"
        }
      ],
      "name": "setRolloverFeePerHour",
      "outputs": [],
      "stateMutability": "nonpayable",
      "type": "function"
    },
    {
      "inputs": [
        {
          "internalType": "uint256",
          "name": "positionId",
          "type": "uint256"
        },
        {
          "internalType": "uint256",
          "name": "newTpPrice",
          "type": "uint256"
        },
        {
          "internalType": "uint256",
          "name": "newSlPrice",
          "type": "uint256"
        }
      ],
      "name": "updateTpSl",
      "outputs": [],
      "stateMutability": "nonpayable",
      "type": "function"
    },
    {
      "inputs": [],
      "name": "usdc",
      "outputs": [
        {
          "internalType": "contract IERC20",
          "name": "",
          "type": "address"
        }
      ],
      "stateMutability": "view",
      "type": "function"
    },
    {
      "inputs": [
        {
          "internalType": "address",
          "name": "",
          "type": "address"
        },
        {
          "internalType": "uint256",
          "name": "",
          "type": "uint256"
        }
      ],
      "name": "userOrders",
      "outputs": [
        {
          "internalType": "uint256",
          "name": "",
          "type": "uint256"
        }
      ],
      "stateMutability": "view",
      "type": "function"
    },
    {
      "inputs": [
        {
          "internalType": "address",
          "name": "",
          "type": "address"
        },
        {
          "internalType": "uint256",
          "name": "",
          "type": "uint256"
        }
      ],
      "name": "userPositions",
      "outputs": [
        {
          "internalType": "uint256",
          "name": "",
          "type": "uint256"
        }
      ],
      "stateMutability": "view",
      "type": "function"
    },
    {
      "inputs": [],
      "name": "vault",
      "outputs": [
        {
          "internalType": "contract ConfidentialVault",
          "name": "",
          "type": "address"
        }
      ],
      "stateMutability": "view",
      "type": "function"
    },
    {
      "stateMutability": "payable",
      "type": "receive"
    }
  ],
  "bytecode": "0x608034620000e557601f620057a538819003918201601f19168301916001600160401b03831184841017620000e957808492608094604052833981010312620000e5576200004d81620000fd565b906200005c60208201620000fd565b6200007860606200007060408501620000fd565b9301620000fd565b9060015f55600160055560016006556014600b556064600c5562093a80600d5560018060a01b03928380928160018060a01b031997168760045416176004551685600154161760015516836002541617600255169060035416176003556040516156929081620001138239f35b5f80fd5b634e487b7160e01b5f52604160045260245ffd5b51906001600160a01b0382168203620000e55756fe60e080604052600436101561001c575b50361561001a575f80fd5b005b5f905f3560e01c9081632a58b33014613d09575080632c0e1e9e146136fa5780632c338fed146136cb5780632e80f9a41461363957806331e01f4a14612f5257806333e7dddb14611df5578063368dbba8146101ba5780633e413bee14611dcc57806341aa303b14611d66578063514fcac714611b8b5780635e1b4d9914611b4d5780636fb197f71461183a5780637dc0d1d01461181157806380b742581461161f578063856652e9146115d357806387f19423146111fa578063899346c7146111dc5780638fb735ee146111be57806399fbab88146110f05780639bfe7e3e14610ef7578063a8f35adf14610dbc578063ba7ebf5f14610d0f578063c009687c14610c42578063c09403ac14610923578063c29433a614610905578063c3aaea4e146107c2578063ee6d5198146107a4578063effaed8914610786578063f2f4eb261461075d578063f5ba8a2a146105bf578063f6614170146101bf578063fa779648146101ba5763fbfa77cf0361000f57346101b757806003193601126101b7576002546040516001600160a01b039091168152602090f35b80fd5b613d97565b50806101ca36613d63565b906101d6939293614c63565b8161055d575b50509080602492526020906007825260408420600881019061020160ff835416613e73565b6003548154604080516331d98b3f60e01b815260048101839052976001600160a01b03949293899190829087165afa968715610552578897610520575b50600181019160ff835460a01c165f146105135760068201548811155b156104db57908891828861027661027185614ba4565b615556565b9260248860015416916040519485938492637cc6765f60e11b845260048401525af19081156104815789916104a8575b50506102b96102b483614ba4565b615588565b81848213610497575b50506003820154908181111561048c57506102dd81806140c0565b916127106102ed600c54856140ad565b049660ff1981541690558560015416908054906002875491015492803b156103f3578692838a61033d6040519788968795869463019ca2b960e51b865260ff8360a01c16921690600486016140cd565b03925af1908115610481578491610469575b505080610406575b508360025416908484541690823b1561040257608484928360405195869485936309c0533b60e01b8552600485015233602485015260448401528a60648401525af180156103f7576103df575b50505416926040519485528401527f3b7bc7c0fdc798ac653b9f0d6d28adb2293a55402d32c21d323da740ccc6553960403394a46001815580f35b6103e890613ee2565b6103f357865f6103a4565b8680fd5b6040513d84823e3d90fd5b8380fd5b846002541690813b1561040257839160248392604051948593849263ff20b48d60e01b845260048401525af190811561045e578391610446575b50610357565b61044f90613ee2565b61045a57815f610440565b5080fd5b6040513d85823e3d90fd5b61047290613ee2565b61047d57825f61034f565b8280fd5b6040513d86823e3d90fd5b6102dd9080926140c0565b6104a1925061407c565b5f806102c2565b90809294503d83116104d4575b6104bf8183613f13565b810103126104d0578891875f6102a6565b5f80fd5b503d6104b5565b60405162461bcd60e51b815260048101889052601060248201526f4e6f74206c6971756964617461626c6560801b6044820152606490fd5b600682015488101561025b565b61054391975060403d60401161054b575b61053b8183613f13565b810190613fd7565b50955f61023e565b503d610531565b6040513d8a823e3d90fd5b6003546001600160a01b031691823b1561040257604051631df3cbc560e31b81529284928492839182916105949160048401613f35565b039134905af180156103f7576105ab575b806101dc565b6105b490613ee2565b61045a57815f6105a5565b506105c936613d63565b91906105d3614c63565b81845260076020528360408120936105f160ff600887015416613e73565b60018501546001600160a01b03939061060d9085163314613eaa565b600460078701546020866001541660405193848092636d78097360e11b82525afa918215610752578592610719575b506106529161064a9161407c565b4210156143c2565b816106be575b50505060409060035416925460248251809581936331d98b3f60e01b835260048301525afa90811561045e5761069592849261069c575b5061522d565b6001815580f35b6106b691925060403d60401161054b5761053b8183613f13565b50905f61068f565b836003541691823b1561040257604051631df3cbc560e31b81529284928492839182916106ee9160048401613f35565b039134905af180156103f757610705575b80610658565b61070e90613ee2565b61040257835f6106ff565b945090506020843d60201161074a575b8161073660209383613f13565b810103126104d0579251879361064a61063c565b3d9150610729565b6040513d87823e3d90fd5b50346101b757806003193601126101b7576001546040516001600160a01b039091168152602090f35b50346101b757806003193601126101b7576020600c54604051908152f35b506106956107b136613e03565b926107bd929192614c63565b61446f565b50346101b75760203660031901126101b757600435815260086020526040902080808054600182015460c05260028201546003830154600484015460058501546006860154600787015490600888015492600989015494600a8a015496600b8b015498600c8c01549a600d8d01549c600e01549d600f01549e6010015460805260405160a05260a05152600160a01b6001900360c0511660a0516020015260c05160a01c60ff16151560a0516040015260a0516060015260a0516080015260a05160a0015260a05160c0015260ff811660a05160e0015260081c60ff16151560a051610100015260a051610120015260a051610140015260a051610160015260a051610180015260a0516101a0015260a0516101c0015260a0516101e0015260a051610200015260a051610220015260805160a051610240015260a05161026090f35b50346101b757806003193601126101b7576020600d54604051908152f35b506101003660031901126101b757610939613d54565b9060a4359060ff821682036101b757610950614c63565b610961620f42406044351015613e36565b600160ff831611610bfd5760c435610bb8575b60e435610b73575b6001546001600160a01b031692833b1561045a5760405163bd79156f60e01b81528281806109b760643560443587336004803590870161402d565b0381885afa801561045e57610b5f575b506020604493946040519485809263e4d8cbe560e01b82528235600483015260ff89161560248301525afa9283156103f7578293610b28575b5090602093600192610a1660643560443561405e565b94610a2b610a24828861407c565b3033614c84565b60065495610a38876142f0565b60065586855260088852604085206004358155868101805460ff60a01b1933166001600160a81b03199091161794151560a01b60ff60a01b169490941790935560443560028401556003830155606435600483015560843560058301556006820161010060ff851661ffff1983541617179055426007830155600982015534600a82015560c435600b820155600c60e435910155338252600a8552610ae084604084206142fe565b60ff60405191600435835216858201526084356040820152837f401524beccff0d9dd3447788dea32e11f3b7c9618ed6084f14a773dbf2025f1660603393a355604051908152f35b919092506020823d602011610b57575b81610b4560209383613f13565b810103126104d0579051916020610a00565b3d9150610b38565b610b698391613ee2565b61045a575f6109c7565b8215610ba25760843560e435108015610b95575b610b9090614154565b61097c565b5060ff8216600214610b87565b60843560e435118015610b9557610b9090614154565b8215610be75760843560c435118015610bda575b610bd590614115565b610974565b5060ff8216600214610bcc565b60843560c435108015610bda57610bd590614115565b60405162461bcd60e51b815260206004820152601f60248201527f55736520706c6163654d61726b65744f7264657220666f72206d61726b6574006044820152606490fd5b50346101b75760203660031901126101b757600154604051638da5cb5b60e01b815260048035926001600160a01b0391602091849190829085165afa801561048157610c98928591610ce0575b50163314613eaa565b60c88111610ca657600b5580f35b60405162461bcd60e51b815260206004820152601260248201527126b0bc101817181912903832b9103437bab960711b6044820152606490fd5b610d02915060203d602011610d08575b610cfa8183613f13565b8101906140f6565b5f610c8f565b503d610cf0565b50346101b75760203660031901126101b757600154604051638da5cb5b60e01b815260048035926001600160a01b0391602091849190829085165afa801561048157610d64928591610ce05750163314613eaa565b610e1081101580610daf575b15610d7b57600d5580f35b60405162461bcd60e51b815260206004820152600c60248201526b31682d3330642072616e676560a01b6044820152606490fd5b5062278d00811115610d70565b50346101b75760403660031901126101b757602435600435610ddc614c63565b610de7821515614337565b808352600760205260408320610e0360ff600883015416613e73565b60018101908460018060a01b03610e1e818554163314613eaa565b610e2d86826002541633614c84565b60025416803b1561045a57818091602460405180948193636e93ae2b60e01b83528b60048401525af180156103f757610edf575b5050610ea260069260038301610e7887825461407c565b8091556002840154610e8a828261405e565b600586015560ff6004860154935460a01c1692614f20565b918291015560405192835260208301527f935a476d8eb416e1441bbdc27477a7d90012bed1a74dba06f77fc32b8b119bd860403393a36001815580f35b610ee890613ee2565b610ef357845f610e61565b8480fd5b50602090816003193601126101b75760043590610f12614c63565b818152600783526040812060ff600882015416156110b75760018101546001600160a01b0390610f459082163314613eaa565b838352600e855260ff60408420541661107b576007820154600154604051636d78097360e11b8152949392879186916004918391165afa93841561045e57839461104a575b5061064a600194610f9a9261407c565b838252600e855260408220805460ff19168417905560065493610fbc856142f0565b600655848352600886526040832090848201336bffffffffffffffffffffffff60a01b8254161790556006820161010361ffff198254161790554260078301556008820155600a3491015554604051908152600385820152816040820152837f401524beccff0d9dd3447788dea32e11f3b7c9618ed6084f14a773dbf2025f1660603393a355604051908152f35b93508584813d8311611074575b6110618183613f13565b810103126104d05792519261064a610f8a565b503d611057565b60405162461bcd60e51b8152600481018690526014602482015273436c6f736520726571756573742065786973747360601b6044820152606490fd5b60405162461bcd60e51b81526004810185905260116024820152702837b9b4ba34b7b7103737ba1037b832b760791b6044820152606490fd5b50346101b75760203660031901126101b75760406101c09160043581526007602052208054906001810154906002810154600382015460048301546005840154600685015460078601549160ff60088801541693600988015495600a8901549760ff600c600b8c01549b01549b6040519d8e528d602060018060a01b03831691015260a01c16151560408d015260608c015260808b015260a08a015260c089015260e088015261010087015215156101208601526101408501526101608401526101808301526101a0820152f35b50346101b757806003193601126101b7576020600b54604051908152f35b50346101b757806003193601126101b7576020600554604051908152f35b5061120436613e03565b90611210939293614c63565b61121b841515614337565b82855260209060078252604086209261123a60ff600886015416613e73565b86600185019160018060a01b0393611256858554163314613eaa565b81611578575b50505061126884614d4b565b5060038401936112798786546140c0565b90620f4240821061153c57600281015491611294818461405e565b90856001541694602460e08554976040519283809263351bd11560e11b82528b60048301525afa8015611531578d90611487575b604091500151831161144b57906112f58493928260ff8f9a99989760040154925460a01c16968792614f20565b98604087600354169660248251809981936331d98b3f60e01b835260048301525afa8015610552578a60069681988b93611429575b501561141a5761133a911161437e565b55600582015501558060025416803b1561047d578280916024604051809481936306e980c560e51b83528c60048401525af190811561045e578391611406575b505060025416803b1561045a576040516374e863ad60e01b8152336004820152602481018790529082908290604490829084905af180156103f7576113f2575b50506040519384528301527fdf372a02d8e5139b85d7448d53241f194a27db9f321178c970db6e998ebb600160403393a36001815580f35b6113fb90613ee2565b610ef357845f6113ba565b61140f90613ee2565b61045a57815f61137a565b611424911061437e565b61133a565b61144391935060403d60401161054b5761053b8183613f13565b50915f61132a565b60405162461bcd60e51b815260048101899052601460248201527345786365656473206d6178206c6576657261676560601b6044820152606490fd5b5060e0813d60e011611529575b816114a160e09383613f13565b810103126115255760405160e081019181831067ffffffffffffffff8411176115115760c0611507916040948552805184528c8101518d8501528481015185850152606081015160608501526080810151608085015260a081015160a085015201614371565b60c08201526112c8565b634e487b7160e01b5f52604160045260245ffd5b8c80fd5b3d9150611494565b6040513d8f823e3d90fd5b60405162461bcd60e51b815260048101869052601460248201527310995b1bddc81b5a5b8818dbdb1b185d195c985b60621b6044820152606490fd5b846003541691823b1561040257604051631df3cbc560e31b81529284928492839182916115a89160048401613f35565b039134905af180156103f7576115bf575b8061125c565b6115c890613ee2565b6103f357865f6115b9565b50346101b7576115e236613db4565b6001600160a01b039091168252600a602052604082208054919290918310156101b75760206116118484613dda565b90546040519160031b1c8152f35b508061162a36613d63565b90611636939293614c63565b816117af575b50508190526007602052604082209061165b60ff600884015416613e73565b60018060a01b0360035416906040835460248251809581936331d98b3f60e01b835260048301525afa91821561048157849261178d575b50838493600981015480611762575b50811580611755575b61172b575b50156116f057807fac4fd466c8f994e08ce2eb9141c2f01f2a779a3537d9bd71fa8762df3d12842c60406106959581519015158152856020820152a261522d565b60405162461bcd60e51b815260206004820152601360248201527215140bd4d3081b9bdd081d1c9a59d9d95c9959606a1b6044820152606490fd5b6001810154600a925060a01c60ff161561174b5701548211155b5f6116af565b0154821015611745565b50600a81015415156116aa565b9150935060ff600185015460a01c165f1461178457821015925b83905f6116a1565b8211159261177c565b6117a791925060403d60401161054b5761053b8183613f13565b50905f611692565b6003546001600160a01b031691823b1561040257604051631df3cbc560e31b81529284928492839182916117e69160048401613f35565b039134905af180156103f7576117fd575b8061163c565b61180690613ee2565b61045a57815f6117f7565b50346101b757806003193601126101b7576003546040516001600160a01b039091168152602090f35b506101003660031901126101b75760043590611854613d54565b9160443591606435916084359460a4359061186d614c63565b600287101580611b42575b15611b0c57603c8210611ad457620f42408781029081048803611ac0578610611a84576001546001600160a01b031696873b15610ef35760405163bd79156f60e01b81528581806118d08a8c88338c6004870161402d565b03818c5afa8015611a7957908691611a65575b50506118ef868861405e565b9760405198899163e4d8cbe560e01b835289600484015287602484015282604460209c8d935afa918215611a5a578792611a24575b50906001978261193b610a2484600e98979661407c565b6006549a6119488c6142f0565b6006558b8a5260088d5260408a208981558b8101805460ff60a01b1933166001600160a81b03199091161797151560a01b60ff60a01b16979097179096556002860155600385015560048401556006830161010461ffff19825416179055426007840155600983015534600a83015560c435600b83015560e435600c830155600d8201550155338252600a85526119e284604084206142fe565b604051908152600485820152816040820152837f401524beccff0d9dd3447788dea32e11f3b7c9618ed6084f14a773dbf2025f1660603393a355604051908152f35b939291508984813d8311611a53575b611a3d8183613f13565b810103126104d057925191929091906001611924565b503d611a33565b6040513d89823e3d90fd5b611a6e90613ee2565b610ef357845f6118e3565b6040513d88823e3d90fd5b60405162461bcd60e51b815260206004820152601460248201527314db1a58d9481cda5e99481d1bdbc81cdb585b1b60621b6044820152606490fd5b634e487b7160e01b85526011600452602485fd5b60405162461bcd60e51b815260206004820152601060248201526f135a5b880d8c1cc81a5b9d195c9d985b60821b6044820152606490fd5b60405162461bcd60e51b815260206004820152600e60248201526d496e76616c696420736c6963657360901b6044820152606490fd5b506064871115611878565b50346101b757611b5c36613db4565b6001600160a01b0390911682526009602052604082208054919290918310156101b75760206116118484613dda565b50346101b75760203660031901126101b757600435611ba8614c63565b80825260086020528160408120600681019060ff8254611bcc828260081c16614193565b611be360018060a01b036001850154163314613eaa565b61ff001981168455166002198101611cd1575b50600460ff600a8301549354161480611cc4575b611c97575b5080611c42575b50807f61b9399f2f0f32ca39ce8d7be32caed5ec22fe07a6daba3a467ed479ec60658291a26001815580f35b81808092335af1611c516142b1565b5015611c5e57815f611c16565b60405162461bcd60e51b8152602060048201526011602482015270115512081c99599d5b990819985a5b1959607a1b6044820152606490fd5b90611cb882600f611caf600d611cbe9601548561405e565b910154906140ad565b906140c0565b5f611c0f565b50600f8101541515611c0a565b600382015460046009840154921480611d59575b611d19575b611cf4828261407c565b611cff575b50611bf6565b611d1291611d0c9161407c565b33615021565b5f80611cf9565b90611d5390611cb8600d850154611d4d611d3d611d36838861405e565b928561405e565b95611cb8600f89015480946140ad565b946140ad565b90611cea565b50600f8301541515611ce5565b50346101b75760603660031901126101b757611d80614c63565b6004358152600760205260408120611d9e60ff600883015416613e73565b611db560018060a01b036001830154163314613eaa565b6024356009820155600a6044359101556001815580f35b50346101b757806003193601126101b7576004546040516001600160a01b039091168152602090f35b5080611e0036613d63565b90611e0c939293614c63565b81612ef0575b50508190526008602052604082206006810154611e3460ff8260081c16614193565b611e456007830154600d549061407c565b4211612ebb5760018060a01b0360035416906040835460248251809581936331d98b3f60e01b835260048301525afa918215610752578592612e96575b5060ff16806124065750600182015460a01c60ff16156123f95760058201548111155b156123c057611eb3826141cc565b60015481516040808401516060850151915163b391decf60e01b8152600481019390935215156024830152604482015291929190602090829060649082906001600160a01b03165afa908115611a7957869161238e575b50818682131561233a5750611f2261271091836140ad565b04604083015115155f1461232c57611f399161407c565b60055490611f46826142f0565b6005558186526007602090815260408088208551815591850151600183018054928701516001600160a81b03199093166001600160a01b03929092169190911791151560a081901b60ff60a01b16929092179055879190611fcf905b606087015180600285015560808801519081600386015586600486015560a0890151600586015586614f20565b600682015542600782015542600c82015560088101600160ff198254161790556101a085015160098201556101c0850151600a820155602060018060a01b0360015416602487516040519586938492637cc6765f60e11b845260048401525af19182156105525788926122f7575b50600b015560015483516020850151604086015160608701518a94909392911515916001600160a01b039182169116813b156122df578580946120966040519788968795869463b65b361f60e01b8652600486016140cd565b03925af180156103f7576122e3575b505060025460808401516120c1916001600160a01b0316615021565b600254608084015187916001600160a01b031690813b1561047d578291602483926040519485938492636e93ae2b60e01b845260048401525af180156103f7576122cb575b505060a05f8051602061563d833981519152916121276101608601516150e3565b600180831b03602086015116885260096020526121478460408a206142fe565b600180831b03602086015116948051916040820151151591846060820151910151926040519485526020850152604084015260608301526080820152a360068101805461ff00191690555b82600a8201548061221f575b5050600681015460ff8160081c16156121ba575b836001815580f35b60ff166003036121f65760080154905b7f9947370f1e808dd40de986fca744d8715d4d7aa575359f77a7bdeeb887f590ea8380a35f80806121b2565b506005545f19810190811161220b57906121ca565b634e487b7160e01b83526011600452602483fd5b81906006840154600460ff821614806122be575b156122a457506122499150600d8401549061405e565b801561219e5781808092335af161225e6142b1565b501561226b57825f61219e565b60405162461bcd60e51b815260206004820152601160248201527012d9595c195c881999594819985a5b1959607a1b6044820152606490fd5b60081c60ff16156122b6575b50612249565b90505f6122b0565b50600d8501541515612233565b6122d490613ee2565b6122df57855f612106565b8580fd5b6122ec90613ee2565b6122df57855f6120a5565b9091506020813d602011612324575b8161231360209383613f13565b810103126104d0575190600b61203d565b3d9150612306565b612335916140c0565b611f39565b9086811261234a575b5050611f39565b61271091925061235c6123629161409d565b836140ad565b04604083015115155f1461238057612379916140c0565b5f80612343565b6123899161407c565b612379565b90506020813d6020116123b8575b816123a960209383613f13565b810103126104d057515f611f0a565b3d915061239c565b60405162461bcd60e51b8152602060048201526011602482015270131a5b5a5d081b9bdd081c995858da1959607a1b6044820152606490fd5b6005820154811015611ea5565b600181036128205750600182015460a01c60ff16156128135760058201548110155b156127db57612436826141cc565b60015481516040808401516060850151915163b391decf60e01b8152600481019390935215156024830152604482015291929190602090829060649082906001600160a01b03165afa908115611a795786916127a9575b50818682131561275b57506124a561271091836140ad565b04604083015115155f1461274d576124bc9161407c565b600554906124c9826142f0565b6005558186526007602090815260408088208551815591850151600183018054928701516001600160a81b03199093166001600160a01b03929092169190911791151560a081901b60ff60a01b1692909217905587919061252990611fa2565b600682015542600782015542600c82015560088101600160ff198254161790556101a085015160098201556101c0850151600a820155602060018060a01b0360015416602487516040519586938492637cc6765f60e11b845260048401525af1918215610552578892612718575b50600b015560015483516020850151604086015160608701518a94909392911515916001600160a01b039182169116813b156122df578580946125f06040519788968795869463b65b361f60e01b8652600486016140cd565b03925af180156103f757612704575b5050600254608084015161261b916001600160a01b0316615021565b600254608084015187916001600160a01b031690813b1561047d578291602483926040519485938492636e93ae2b60e01b845260048401525af180156103f7576126f0575b505060a05f8051602061563d833981519152916126816101608601516150e3565b600180831b03602086015116885260096020526126a18460408a206142fe565b600180831b03602086015116948051916040820151151591846060820151910151926040519485526020850152604084015260608301526080820152a360068101805461ff0019169055612192565b6126f990613ee2565b6122df57855f612660565b61270d90613ee2565b6122df57855f6125ff565b9091506020813d602011612745575b8161273460209383613f13565b810103126104d0575190600b612597565b3d9150612727565b612756916140c0565b6124bc565b9086811261276b575b50506124bc565b61271091925061235c61277d9161409d565b04604083015115155f1461279b57612794916140c0565b5f80612764565b6127a49161407c565b612794565b90506020813d6020116127d3575b816127c460209383613f13565b810103126104d057515f61248d565b3d91506127b7565b60405162461bcd60e51b815260206004820152601060248201526f14dd1bdc081b9bdd081c995858da195960821b6044820152606490fd5b6005820154811115612428565b600281036128d65750600182015460ff8160a01c165f146128c95760058301548211155b80156128bd575b1561286c5750612436826141cc565b60068101805461ff0019169055612192565b6128939150612884600384015460098501549061407c565b906001600160a01b0316615021565b817f61b9399f2f0f32ca39ce8d7be32caed5ec22fe07a6daba3a467ed479ec6065828480a261285a565b5060058301541561284b565b6005830154821015612844565b6003810361291457506128ee6008830191825461522d565b548352600e60205260408320805460ff1916905560068101805461ff0019169055612192565b600414612922575b50612192565b600f8201549081158015612e7a575b15612e435761293f836141cc565b91600181018111612e2f57600d840154600182018103612def57611cb86129b89260028701546129ae84611cb8848b6129a461297b858861405e565b96611cb88461299e600961299460038801549a8b61405e565b9601549d8e61405e565b996140ad565b60608d01526140ad565b60808801526140ad565b6101608301525b60015482516040808501516060860151915163b391decf60e01b8152600481019390935215156024830152604482015290602090829060649082906001600160a01b03165afa908115611a79578691612dbd575b508186821315612d6f5750612a2b61271091836140ad565b04604083015115155f14612d6157612a429161407c565b600554612a4e816142f0565b6005558086526007602090815260408088208551815591850151600183018054928701516001600160a81b03199093166001600160a01b03929092169190911791151560a081901b60ff60a01b16929092179055879190612ad690606087015180600285015560808801519081600386015587600486015560a0890151600586015587614f20565b600682015542600782015542600c82015560088101600160ff198254161790556101a085015160098201556101c0850151600a820155602060018060a01b0360015416602487516040519586938492637cc6765f60e11b845260048401525af1918215610552578892612d2c575b50600b015560015483516020850151604086015160608701518a94909392911515916001600160a01b039182169116813b156122df57858094612b9d6040519788968795869463b65b361f60e01b8652600486016140cd565b03925af180156103f757612d18575b50506002546080840151612bc8916001600160a01b0316615021565b600254608084015187916001600160a01b031690813b1561047d578291602483926040519485938492636e93ae2b60e01b845260048401525af180156103f757612d04575b5050612c1d6101608401516150e3565b6020838101516001600160a01b031687526009905260408620612c419082906142fe565b5f8051602061563d83398151915260a0600180821b03602086015116938551906040870151151590606088015184890151926040519485526020850152604084015260608301526080820152a3600f8201549060018201809211611ac0577f098dc6c1012d2fb4cc0470ec0f1b82ad9eaf354865d76ebad869d83f1559344e60406060869385600f88015542601088015501518151908582526020820152a2600d8201541115612cf2575b5f61291c565b60068101805461ff0019169055612cec565b612d0d90613ee2565b6122df57855f612c0d565b612d2190613ee2565b6122df57855f612bac565b9091506020813d602011612d59575b81612d4860209383613f13565b810103126104d0575190600b612b44565b3d9150612d3b565b612d6a916140c0565b612a42565b90868112612d7f575b5050612a42565b61271091925061235c612d919161409d565b04604083015115155f14612daf57612da8916140c0565b5f80612d78565b612db89161407c565b612da8565b90506020813d602011612de7575b81612dd860209383613f13565b810103126104d057515f612a13565b3d9150612dcb565b612e249150612e0281600287015461405e565b6060850152612e1581600387015461405e565b6080850152600985015461405e565b6101608301526129bf565b634e487b7160e01b86526011600452602486fd5b60405162461bcd60e51b815260206004820152600f60248201526e545741503a20746f6f206561726c7960881b6044820152606490fd5b50612e8e6010840154600e8501549061407c565b421015612931565b60ff919250612eb39060403d60401161054b5761053b8183613f13565b509190611e82565b60405162461bcd60e51b815260206004820152600d60248201526c13dc99195c88195e1c1a5c9959609a1b6044820152606490fd5b6003546001600160a01b031691823b1561040257604051631df3cbc560e31b8152928492849283918291612f279160048401613f35565b039134905af180156103f757612f3e575b80611e12565b612f4790613ee2565b61045a57815f612f38565b506101003660031901126101b757612f68613d54565b60c4358260e43567ffffffffffffffff811161045a57612f8c903690600401613d23565b90612f95614c63565b612fa6620f42406044351015613e36565b816135d7575b5050600354604080516331d98b3f60e01b8152600480359082015293925090839060249082906001600160a01b03165afa9182156104815784926135b5575b508061358c575b50608435613567575b60a435613542575b6001546001600160a01b031691823b15610402578360405163bd79156f60e01b815281818061303f60643560443588336004356004870161402d565b0381885afa80156103f75761352e575b505060206044936040519485809263e4d8cbe560e01b8252823560048301528860248301525afa9283156104815784936134f9575b50602061317b9161309960643560443561405e565b946130a7610a24828861407c565b604051956130b487613ef6565b8760c0880152876101208801528761014088015287610180880152876101e08801528761020088015287610220880152876102408801526004358752338488015282151560408801526044356060880152608087015260643560a0870152600260e087015260016101008701526101608601526084356101a086015260a4356101c086015260018060a01b0360015416604051808095819463b391decf60e01b83526044359015156004356004850160409194939260608201958252151560208201520152565b03915afa9081156104815784916134c7575b50818482131561347957506131a561271091836140ad565b04604083015115155f1461346b576131bc9161407c565b600554906131c9826142f0565b6005558184526007602090815260408086208551815591850151600183018054928701516001600160a81b03199093166001600160a01b03929092169190911791151560a081901b60ff60a01b1692909217905585919061322990611fa2565b600682015542600782015542600c82015560088101600160ff198254161790556101a085015160098201556101c0850151600a820155602060018060a01b0360015416602487516040519586938492637cc6765f60e11b845260048401525af1918215611a79578692613436575b50600b015560015483516020850151604086015160608701518894909392911515916001600160a01b039182169116813b156122df578580946132f06040519788968795869463b65b361f60e01b8652600486016140cd565b03925af180156103f757613422575b5050600254608084015161331b916001600160a01b0316615021565b600254608084015185916001600160a01b031690813b1561047d578291602483926040519485938492636e93ae2b60e01b845260048401525af180156103f75761340e575b505060a05f8051602061563d833981519152916133816101608601516150e3565b600180831b03602086015116865260096020526133a184604088206142fe565b600180831b03602086015116948051916040820151151591846060820151910151926040519485526020850152604084015260608301526080820152a36005545f1981019081116133fa57600160209255604051908152f35b634e487b7160e01b82526011600452602482fd5b61341790613ee2565b61040257835f613360565b61342b90613ee2565b61040257835f6132ff565b9091506020813d602011613463575b8161345260209383613f13565b810103126104d0575190600b613297565b3d9150613445565b613474916140c0565b6131bc565b90848112613489575b50506131bc565b61271091925061235c61349b9161409d565b04604083015115155f146134b9576134b2916140c0565b5f80613482565b6134c29161407c565b6134b2565b90506020813d6020116134f1575b816134e260209383613f13565b810103126104d057515f61318d565b3d91506134d5565b9092506020813d602011613526575b8161351560209383613f13565b810103126104d05751916020613084565b3d9150613508565b61353790613ee2565b61040257835f61304f565b811561355a576135558160a43510614154565b613003565b6135558160a43511614154565b811561357f5761357a8160843511614115565b612ffb565b61357a8160843510614115565b82156135a45761359e90821115613fed565b5f612ff2565b6135b090821015613fed565b61359e565b6135cf91925060403d60401161054b5761053b8183613f13565b50905f612feb565b6003546001600160a01b031691823b1561040257604051631df3cbc560e31b815292849284928391829161360e9160048401613f35565b039134905af180156103f757613625575b80612fac565b61362e90613ee2565b61047d57825f61361f565b50346101b75760203660031901126101b757600154604051638da5cb5b60e01b815260048035926001600160a01b0391602091849190829085165afa80156104815761368e928591610ce05750163314613eaa565b6101f4811161369d57600c5580f35b60405162461bcd60e51b81526020600482015260066024820152654d617820352560d01b6044820152606490fd5b50346101b75760203660031901126101b75760ff60406020926004358152600e84522054166040519015158152f35b5060a03660031901126104d0576064359060443560843567ffffffffffffffff81116104d05761372e903690600401613d23565b919093613739614c63565b61374a620f42406024351015613e36565b6004355f52600760205260405f209261376960ff600886015416613e73565b600184019561378260018060a01b038854163314613eaa565b81613c9c575b50506003548354604080516331d98b3f60e01b815260048101839052969791939192879060249082906001600160a01b03165afa958615611a5a578796613c7a575b5080613c4a575b508560018060a01b03600154169260ff835460a01c16843b1561047d5760405163bd79156f60e01b815291839183918291613817918a916024359133906004870161402d565b0381875afa80156103f757613c36575b5050602061383960449460243561405e565b926040519485809263e4d8cbe560e01b825260243560048301528a60248301525afa928315611a79578693613c02575b50613877610a24848461407c565b61388084614d4b565b506001548454915460405163b391decf60e01b81526004810184905260a09190911c60ff16801515602480840191909152356044830152969160209082906001600160a01b031681806064810103915afa908115610552578891613bd0575b508188821315613b8457506138f761271091836140ad565b048615613b76576139079161407c565b945b60028501549586670de0b6b3a7640000810204670de0b6b3a76400001487151715613b62576139466004870154670de0b6b3a7640000890261405e565b90602435670de0b6b3a76400006024350204670de0b6b3a764000014602435151715613b4e5761398290670de0b6b3a76400006024350261405e565b61398e6024358961407c565b9182670de0b6b3a7640000810204670de0b6b3a76400001483151715613b3a57836139e36139d98c98979695670de0b6b3a76400006139d2600697613a179761407c565b910261405e565b9a6024359061407c565b8060028b015560038a01906139f988835461407c565b8092558b60048c0155613a0c828261405e565b60058c01558b614f20565b96019586556001546001600160a01b031691823b15610ef357613a599285928360405180968195829463b65b361f60e01b8452602435913390600486016140cd565b03925af190811561045e578391613b26575b5050600254613a849082906001600160a01b0316615021565b6002546001600160a01b031690813b1561047d578291602483926040519485938492636e93ae2b60e01b845260048401525af180156103f757613b12575b5050613acd906150e3565b546040519160243583526020830152604082015233907ff48aa9a1deec4f3fc0cb0c073f4f097041726d7c7f9d2c3a863cd52f721e8d1a606060043592a36001815580f35b613b1b90613ee2565b61040257835f613ac2565b613b2f90613ee2565b61045a57815f613a6b565b634e487b7160e01b8a52601160045260248afd5b634e487b7160e01b89526011600452602489fd5b634e487b7160e01b88526011600452602488fd5b613b7f916140c0565b613907565b90888198939812613b97575b5050613909565b6127109192975061235c613baa9161409d565b048615613bc257613bba916140c0565b945f80613b90565b613bcb9161407c565b613bba565b90506020813d602011613bfa575b81613beb60209383613f13565b810103126104d057515f6138df565b3d9150613bde565b9092506020813d602011613c2e575b81613c1e60209383613f13565b810103126104d05751915f613869565b3d9150613c11565b613c3f90613ee2565b6122df57855f613827565b815460a01c60ff1615613c6957613c6390861115613fed565b5f6137d1565b613c7590861015613fed565b613c63565b613c9491965060403d60401161054b5761053b8183613f13565b50945f6137ca565b6003546001600160a01b031691823b156104d057604051631df3cbc560e31b8152925f92849283918291613cd39160048401613f35565b039134905af18015613cfe57613cea575b80613788565b60249450613cf790613ee2565b5f93613ce4565b6040513d5f823e3d90fd5b346104d0575f3660031901126104d0576020906006548152f35b9181601f840112156104d05782359167ffffffffffffffff83116104d0576020808501948460051b0101116104d057565b6024359081151582036104d057565b9060406003198301126104d057600435916024359067ffffffffffffffff82116104d057613d9391600401613d23565b9091565b346104d0575f3660031901126104d0576020604051620f42408152f35b60409060031901126104d0576004356001600160a01b03811681036104d0579060243590565b8054821015613def575f5260205f2001905f90565b634e487b7160e01b5f52603260045260245ffd5b60606003198201126104d05760043591602435916044359067ffffffffffffffff82116104d057613d9391600401613d23565b15613e3d57565b60405162461bcd60e51b815260206004820152600e60248201526d14da5e99481d1bdbc81cdb585b1b60921b6044820152606490fd5b15613e7a57565b60405162461bcd60e51b81526020600482015260086024820152672737ba1037b832b760c11b6044820152606490fd5b15613eb157565b60405162461bcd60e51b81526020600482015260096024820152682737ba1037bbb732b960b91b6044820152606490fd5b67ffffffffffffffff811161151157604052565b610260810190811067ffffffffffffffff82111761151157604052565b90601f8019910116810190811067ffffffffffffffff82111761151157604052565b9160208181850182865252604084019360408360051b82010194845f925b858410613f64575050505050505090565b90919293949596603f198282030184528735601e19843603018112156104d057830186810191903567ffffffffffffffff81116104d05780360383136104d05787828280600196849695859652848401375f828201840152601f01601f1916010199019796959190910193019190613f53565b91908260409103126104d0576020825192015190565b15613ff457565b60405162461bcd60e51b815260206004820152601160248201527014db1a5c1c1859d948195e18d959591959607a1b6044820152606490fd5b9081526001600160a01b03909116602082015290151560408201526060810191909152608081019190915260a00190565b8115614068570490565b634e487b7160e01b5f52601260045260245ffd5b9190820180921161408957565b634e487b7160e01b5f52601160045260245ffd5b600160ff1b8114614089575f0390565b8181029291811591840414171561408957565b9190820391821161408957565b9081526001600160a01b0390911660208201529015156040820152606081019190915260800190565b908160209103126104d057516001600160a01b03811681036104d05790565b1561411c57565b60405162461bcd60e51b815260206004820152601060248201526f496e76616c696420545020707269636560801b6044820152606490fd5b1561415b57565b60405162461bcd60e51b815260206004820152601060248201526f496e76616c696420534c20707269636560801b6044820152606490fd5b1561419a57565b60405162461bcd60e51b815260206004820152600a6024820152694e6f742061637469766560b01b6044820152606490fd5b906040516141d981613ef6565b610240601082948054845260ff600182015460018060a01b038116602087015260a01c16151560408501526002810154606085015260038101546080850152600481015460a0850152600581015460c085015260ff600682015481811660e087015260081c161515610100850152600781015461012085015260088101546101408501526009810154610160850152600a810154610180850152600b8101546101a0850152600c8101546101c0850152600d8101546101e0850152600e810154610200850152600f8101546102208501520154910152565b3d156142eb573d9067ffffffffffffffff821161151157604051916142e0601f8201601f191660200184613f13565b82523d5f602084013e565b606090565b5f1981146140895760010190565b8054680100000000000000008110156115115761432091600182018155613dda565b819291549060031b91821b915f19901b1916179055565b1561433e57565b60405162461bcd60e51b815260206004820152600b60248201526a16995c9bc8185b5bdd5b9d60aa1b6044820152606490fd5b519081151582036104d057565b1561438557565b60405162461bcd60e51b8152602060048201526015602482015274576f756c64206265206c6971756964617461626c6560581b6044820152606490fd5b156143c957565b60405162461bcd60e51b815260206004820152600f60248201526e436f6f6c646f776e2061637469766560881b6044820152606490fd5b81810392915f13801582851316918412161761408957565b81810292915f8212600160ff1b82141661408957818405149015171561408957565b811561406857600160ff1b81145f19831416614089570590565b9190915f838201938412911290801582169115161761408957565b9190925f9084151580614b98575b15614b6157835f52600760205260405f209261449f60ff600886015416613e73565b6144b660018060a01b036001860154163314613eaa565b6007840154600154604051636d78097360e11b815290602090829060049082906001600160a01b03165afa908115613cfe575f91614b2d575b5061064a906144fd9261407c565b81614ace575b505060018060a01b0360035416906040835460248251809581936331d98b3f60e01b835260048301525afa918215614ac1578192614a9f575b5061271094858114614a8e5761457b9561458160028601548261455f85836140ad565b0498899361457260038a015496876140ad565b049384926140c0565b936140c0565b94620f4240808410614a53578610614a0e57600181015460a01c60ff16156149f3576145c360048201546145be8a6145b9838a614400565b614418565b61443a565b60018060a01b0360015416906040519463e4d8cbe560e01b86528a6004870152866024870152602086604481865afa958615611a5a578b889182986149b7575b5063d693a40061462f61461b602093600b54906140ad565b614629600c8a0154426140c0565b906140ad565b0494602487546040519485938492637cc6765f60e11b845260048401525af180156105525761498c575b506001548454604051634655f1eb60e01b815260048101829052909491602090829060249082906001600160a01b03165afa9081156149815789939291878f928692614943575b50926146ef670de0b6b3a76400006147289798946146c96146f495600b6146fa99015490614400565b60018d01549a5060a08b901c60ff161561492a576146e691614418565b05915b8c614454565b614454565b90614400565b99816002870155806003870155614711818361405e565b600587015560ff8460a01c16916004870154614f20565b60068401556001546001600160a01b031691823b156103f357614778928792838d936040519687958694859363019ca2b960e51b855260ff8260a01c169160018060a01b031690600486016140cd565b03925af1801561075257908591614916575b5086136148bc575b600254600191909101546001600160a01b039182169116813b15610ef35760405163118f304360e01b81526001600160a01b0391909116600482015260248101839052604481018790529084908290606490829084905af18015610481579084916148a8575b50508115159081614896575b50614844575b5050604051938452602084015260408301527f5cc0748e06097a585a6534dafcca64d5cc367340dff0e00469484e8269a7ca7b60603393a3565b6002546001600160a01b031690813b1561047d5782916024839260405194859384926335b8e71360e01b845260048401525af180156103f7571561480a5761488c8291613ee2565b6101b7578061480a565b6148a0915061409d565b84135f614804565b6148b190613ee2565b61047d57825f6147f8565b6001546001600160a01b0316803b15610ef35784809160246040518094819363630304f960e11b83528c60048401525af1801561075257908591614902575b5050614792565b61490b90613ee2565b61040257835f6148fb565b61491f90613ee2565b61040257835f61478a565b6149379061493c92614418565b61409d565b05916146e9565b95505050506020833d602011614979575b8161496160209383613f13565b810103126104d05791518892908d90876146ef6146a0565b3d9150614954565b6040513d8b823e3d90fd5b602090813d83116149b0575b6149a28183613f13565b810103126104d0575f614659565b503d614998565b975050506020863d6020116149eb575b816149d460209383613f13565b810103126104d057945194868b63d693a400614603565b3d91506149c7565b614a0960048201546145be8a6145b98984614400565b6145c3565b60405162461bcd60e51b815260206004820152601e60248201527f52656d61696e64657220636f6c6c61746572616c20746f6f20736d616c6c00006044820152606490fd5b60405162461bcd60e51b815260206004820152601360248201527214995b585a5b99195c881d1bdbc81cdb585b1b606a1b6044820152606490fd5b5050919050614a9d925061522d565b565b614ab991925060403d60401161054b5761053b8183613f13565b50905f61453c565b50604051903d90823e3d90fd5b6003546001600160a01b031691823b156104d057604051631df3cbc560e31b8152925f92849283918291614b059160048401613f35565b039134905af18015613cfe57614b1c575b80614503565b614b269150613ee2565b5f80614b16565b90506020813d602011614b59575b81614b4860209383613f13565b810103126104d057516144fd6144ef565b3d9150614b3b565b60405162461bcd60e51b815260206004820152600f60248201526e125b9d985b1a59081c195c98d95b9d608a1b6044820152606490fd5b5061271085111561447d565b906040516101c0810181811067ffffffffffffffff821117611511576040526101a0600c82948054845260ff600182015460018060a01b038116602087015260a01c16151560408501526002810154606085015260038101546080850152600481015460a0850152600581015460c0850152600681015460e0850152600781015461010085015260ff60088201541615156101208501526009810154610140850152600a810154610160850152600b8101546101808501520154910152565b60025f5414614c725760025f55565b604051633ee5aeb560e01b8152600490fd5b916064602092935f60018060a01b03938460045416908560405198899788966323b872dd60e01b885216600487015216602485015260448401525af1908115613cfe575f91614d11575b5015614cd657565b60405162461bcd60e51b8152602060048201526013602482015272151c985b9cd9995c919c9bdb4819985a5b1959606a1b6044820152606490fd5b90506020813d602011614d43575b81614d2c60209383613f13565b810103126104d057614d3d90614371565b5f614cce565b3d9150614d1f565b90614d5861027183614ba4565b91600154905f60018060a01b03808354604095865191637cc6765f60e11b83526004830152816024815f6020978895165af18015614e9657908391614ef7575b5050614da66102b485614ba4565b875f8213614ee4575b505086614e2f575b42600c85015560015416918184546024875180968193634655f1eb60e01b835260048301525afa948515614e25575093614df4575b5050600b0155565b9080929350813d8311614e1e575b614e0c8183613f13565b810103126104d0575190600b5f614dec565b503d614e02565b51903d90823e3d90fd5b60038401805480891015614ea05788614e47916140c0565b90558060025416803b156104d0575f8091602488518094819363ff20b48d60e01b83528d60048401525af18015614e9657614e83575b50614db7565b614e8e919350613ee2565b5f915f614e7d565b86513d5f823e3d90fd5b865162461bcd60e51b815260048101859052601f60248201527f506f736974696f6e206c6971756964617461626c652066726f6d2066656573006044820152606490fd5b614eef92985061407c565b955f80614daf565b813d8311614f19575b614f0a8183613f13565b810103126104d057815f614d98565b503d614f00565b9192909261232890818102918183041490151715614089576001546040516335123baf60e21b81526127109283900491602090829060049082906001600160a01b03165afa908115613cfe575f91614fef575b50600a810180911161408957614f8a8391876140ad565b0490808210614fdf57505060648402848104606414851517156140895704905b15614fc857614fc592614fc0611cb892846140ad565b61405e565b90565b614fc592614fc0614fd992846140ad565b9061407c565b614fe992506140c0565b90614faa565b90506020813d602011615019575b8161500a60209383613f13565b810103126104d057515f614f73565b3d9150614ffd565b6004805460405163a9059cbb60e01b81526001600160a01b0393841692810192909252602482019390935291602091839160449183915f91165af1908115613cfe575f916150a9575b501561507257565b60405162461bcd60e51b815260206004820152600f60248201526e151c985b9cd9995c8819985a5b1959608a1b6044820152606490fd5b90506020813d6020116150db575b816150c460209383613f13565b810103126104d0576150d590614371565b5f61506a565b3d91506150b7565b60015460408051631db0457960e11b815260048101939093525f9392916001600160a01b039082908490602490829085165afa928315615223575f905f94615201575b50806151a0575b508261513b575b5050509050565b6020600491600154168351928380926361d027b360e01b82525afa918215615197575061516f939491615178575b50615021565b805f8080615134565b615191915060203d602011610d0857610cfa8183613f13565b5f615169565b513d86823e3d90fd5b6151ae818360025416615021565b816002541690813b156104d0575f9160248392865194859384926302102c9760e11b845260048401525af180156151f7571561512d576151ef919550613ee2565b5f935f61512d565b83513d5f823e3d90fd5b905061521b919350823d841161054b5761053b8183613f13565b92905f615126565b82513d5f823e3d90fd5b91905f92805f5260209160078352604090815f20600881019061525360ff835416613e73565b60018101805460a01c60ff161561553c5761528460048301546145be6152798288614400565b600286015490614418565b600154600284018054885163e4d8cbe560e01b815260048101919091525f60248201526001600160a01b0395909390928616908b85604481855afa948515615532575f95615503575b505f8c6152dc61027187614ba4565b9360248d885490519485938492637cc6765f60e11b845260048401525af180156154f957908d916154d0575b50506146f4615327926146ef6153206102b488614ba4565b9188614454565b865460ff19169096556001548254855492549290918716803b156104d0575f9283896153728e519788968795869463019ca2b960e51b865260ff8360a01c16921690600486016140cd565b03925af180156154c6576154b3575b508a8460025416600386865416930192835490823b15610402578a5163118f304360e01b81526001600160a01b039190911660048201526024810191909152604481018890529082908290606490829084905af180156154a957615491575b5050811515908161547e575b50615427575b507f356fca566f3a054a459c7224d9c9d634f31a98835cfd4fb4c5ddbf8b96aca21195969798505416958351928352820152a3565b89908360025416803b1561047d5760248392895194859384926335b8e71360e01b845260048401525af1801561547457156153f2576154668a91613ee2565b61547057886153f2565b8880fd5b86513d8c823e3d90fd5b61548991505461409d565b84135f6153ec565b61549a90613ee2565b6154a5578a5f6153e0565b8a80fd5b89513d84823e3d90fd5b6154be919b50613ee2565b5f995f615381565b88513d5f823e3d90fd5b813d83116154f2575b6154e38183613f13565b810103126104d0578b5f615308565b503d6154d9565b8b513d5f823e3d90fd5b9094508b81813d831161552b575b61551b8183613f13565b810103126104d05751935f6152cd565b503d615511565b8a513d5f823e3d90fd5b61555160048301546145be6152798783614400565b615284565b61558463d693a4009161557f60606155736101a0840151426140c0565b920151600b54906140ad565b6140ad565b0490565b60018060a01b03600154169060208151602460405180958193634655f1eb60e01b835260048301525afa918215613cfe575f92615606575b506155da670de0b6b3a76400009261018083015190614400565b6040820151156155f55760606155f1920151614418565b0590565b6149379060606155f1930151614418565b91506020823d602011615634575b8161562160209383613f13565b810103126104d0579051906155da6155c0565b3d915061561456fe52ca44dea94749aadfaa4d3749a0323a33b3a6434adcfff52ad54c511f5579c7a2646970667358221220640925ed631181ddae79d46217be5d5be759594281e01600a7a5213be21ef57864736f6c63430008180033",
  "linkReferences": {},
  "deployedLinkReferences": {},
  "immutableReferences": {},
  "inputSourceName": "project/src/ConfidentialTrading.sol",
  "buildInfoId": "solc-0_8_24-43536e752ca2aaee02add51e31b8df79780e4b13"
}