{
  "_format": "hh3-artifact-1",
  "contractName": "ConfidentialTrading",
  "sourceName": "src/ConfidentialTrading.sol",
  "abi": [
    {
      "inputs": [
        {
          "internalType": "address",
          "name": "_usdc",
          "type": "address"
        },
        {
          "internalType": "address",
          "name": "_core",
          "type": "address"
        },
        {
          "internalType": "address",
          "name": "_vault",
          "type": "address"
        },
        {
          "internalType": "address",
          "name": "_oracle",
          "type": "address"
        }
      ],
      "stateMutability": "nonpayable",
      "type": "constructor"
    },
    {
      "inputs": [],
      "name": "ReentrancyGuardReentrantCall",
      "type": "error"
    },
    {
      "anonymous": false,
      "inputs": [
        {
          "indexed": true,
          "internalType": "uint256",
          "name": "positionId",
          "type": "uint256"
        },
        {
          "indexed": true,
          "internalType": "address",
          "name": "trader",
          "type": "address"
        },
        {
          "indexed": false,
          "internalType": "uint256",
          "name": "amount",
          "type": "uint256"
        },
        {
          "indexed": false,
          "internalType": "uint256",
          "name": "newLiquidationPrice",
          "type": "uint256"
        }
      ],
      "name": "CollateralAdded",
      "type": "event"
    },
    {
      "anonymous": false,
      "inputs": [
        {
          "indexed": true,
          "internalType": "uint256",
          "name": "positionId",
          "type": "uint256"
        },
        {
          "indexed": true,
          "internalType": "address",
          "name": "trader",
          "type": "address"
        },
        {
          "indexed": false,
          "internalType": "uint256",
          "name": "amount",
          "type": "uint256"
        },
        {
          "indexed": false,
          "internalType": "uint256",
          "name": "newLiquidationPrice",
          "type": "uint256"
        }
      ],
      "name": "CollateralRemoved",
      "type": "event"
    },
    {
      "anonymous": false,
      "inputs": [
        {
          "indexed": true,
          "internalType": "uint256",
          "name": "orderId",
          "type": "uint256"
        }
      ],
      "name": "OrderCancelled",
      "type": "event"
    },
    {
      "anonymous": false,
      "inputs": [
        {
          "indexed": true,
          "internalType": "uint256",
          "name": "orderId",
          "type": "uint256"
        },
        {
          "indexed": true,
          "internalType": "uint256",
          "name": "positionId",
          "type": "uint256"
        }
      ],
      "name": "OrderExecuted",
      "type": "event"
    },
    {
      "anonymous": false,
      "inputs": [
        {
          "indexed": true,
          "internalType": "uint256",
          "name": "orderId",
          "type": "uint256"
        },
        {
          "indexed": true,
          "internalType": "address",
          "name": "trader",
          "type": "address"
        },
        {
          "indexed": false,
          "internalType": "bytes32",
          "name": "pairId",
          "type": "bytes32"
        },
        {
          "indexed": false,
          "internalType": "uint8",
          "name": "orderType",
          "type": "uint8"
        },
        {
          "indexed": false,
          "internalType": "uint256",
          "name": "triggerPrice",
          "type": "uint256"
        }
      ],
      "name": "OrderPlaced",
      "type": "event"
    },
    {
      "anonymous": false,
      "inputs": [
        {
          "indexed": true,
          "internalType": "uint256",
          "name": "positionId",
          "type": "uint256"
        },
        {
          "indexed": true,
          "internalType": "address",
          "name": "trader",
          "type": "address"
        },
        {
          "indexed": false,
          "internalType": "uint256",
          "name": "exitPrice",
          "type": "uint256"
        },
        {
          "indexed": false,
          "internalType": "int256",
          "name": "pnl",
          "type": "int256"
        }
      ],
      "name": "PositionClosed",
      "type": "event"
    },
    {
      "anonymous": false,
      "inputs": [
        {
          "indexed": true,
          "internalType": "uint256",
          "name": "positionId",
          "type": "uint256"
        },
        {
          "indexed": true,
          "internalType": "address",
          "name": "trader",
          "type": "address"
        },
        {
          "indexed": false,
          "internalType": "uint256",
          "name": "additionalSizeUsd",
          "type": "uint256"
        },
        {
          "indexed": false,
          "internalType": "uint256",
          "name": "newEntryPrice",
          "type": "uint256"
        },
        {
          "indexed": false,
          "internalType": "uint256",
          "name": "newLiquidationPrice",
          "type": "uint256"
        }
      ],
      "name": "PositionIncreased",
      "type": "event"
    },
    {
      "anonymous": false,
      "inputs": [
        {
          "indexed": true,
          "internalType": "uint256",
          "name": "positionId",
          "type": "uint256"
        },
        {
          "indexed": true,
          "internalType": "address",
          "name": "trader",
          "type": "address"
        },
        {
          "indexed": false,
          "internalType": "uint256",
          "name": "executionPrice",
          "type": "uint256"
        },
        {
          "indexed": true,
          "internalType": "address",
          "name": "liquidator",
          "type": "address"
        },
        {
          "indexed": false,
          "internalType": "uint256",
          "name": "reward",
          "type": "uint256"
        }
      ],
      "name": "PositionLiquidated",
      "type": "event"
    },
    {
      "anonymous": false,
      "inputs": [
        {
          "indexed": true,
          "internalType": "uint256",
          "name": "positionId",
          "type": "uint256"
        },
        {
          "indexed": true,
          "internalType": "address",
          "name": "trader",
          "type": "address"
        },
        {
          "indexed": false,
          "internalType": "bytes32",
          "name": "pairId",
          "type": "bytes32"
        },
        {
          "indexed": false,
          "internalType": "bool",
          "name": "isLong",
          "type": "bool"
        },
        {
          "indexed": false,
          "internalType": "uint256",
          "name": "sizeUsd",
          "type": "uint256"
        },
        {
          "indexed": false,
          "internalType": "uint256",
          "name": "entryPrice",
          "type": "uint256"
        },
        {
          "indexed": false,
          "internalType": "uint256",
          "name": "leverage",
          "type": "uint256"
        }
      ],
      "name": "PositionOpened",
      "type": "event"
    },
    {
      "anonymous": false,
      "inputs": [
        {
          "indexed": true,
          "internalType": "uint256",
          "name": "positionId",
          "type": "uint256"
        },
        {
          "indexed": true,
          "internalType": "address",
          "name": "trader",
          "type": "address"
        },
        {
          "indexed": false,
          "internalType": "uint256",
          "name": "closeSizeUsd",
          "type": "uint256"
        },
        {
          "indexed": false,
          "internalType": "uint256",
          "name": "exitPrice",
          "type": "uint256"
        },
        {
          "indexed": false,
          "internalType": "int256",
          "name": "pnl",
          "type": "int256"
        }
      ],
      "name": "PositionPartialClose",
      "type": "event"
    },
    {
      "anonymous": false,
      "inputs": [
        {
          "indexed": true,
          "internalType": "uint256",
          "name": "positionId",
          "type": "uint256"
        },
        {
          "indexed": false,
          "internalType": "bool",
          "name": "isTakeProfit",
          "type": "bool"
        },
        {
          "indexed": false,
          "internalType": "uint256",
          "name": "executionPrice",
          "type": "uint256"
        }
      ],
      "name": "TPSLTriggered",
      "type": "event"
    },
    {
      "anonymous": false,
      "inputs": [
        {
          "indexed": true,
          "internalType": "uint256",
          "name": "orderId",
          "type": "uint256"
        },
        {
          "indexed": false,
          "internalType": "uint256",
          "name": "sliceNumber",
          "type": "uint256"
        },
        {
          "indexed": false,
          "internalType": "uint256",
          "name": "sizeUsd",
          "type": "uint256"
        }
      ],
      "name": "TWAPSliceExecuted",
      "type": "event"
    },
    {
      "inputs": [],
      "name": "MIN_COLLATERAL",
      "outputs": [
        {
          "internalType": "uint256",
          "name": "",
          "type": "uint256"
        }
      ],
      "stateMutability": "view",
      "type": "function"
    },
    {
      "inputs": [],
      "name": "MIN_POSITION_SIZE",
      "outputs": [
        {
          "internalType": "uint256",
          "name": "",
          "type": "uint256"
        }
      ],
      "stateMutability": "view",
      "type": "function"
    },
    {
      "inputs": [
        {
          "internalType": "uint256",
          "name": "positionId",
          "type": "uint256"
        },
        {
          "internalType": "uint256",
          "name": "amount",
          "type": "uint256"
        }
      ],
      "name": "addCollateral",
      "outputs": [],
      "stateMutability": "nonpayable",
      "type": "function"
    },
    {
      "inputs": [
        {
          "internalType": "uint256",
          "name": "orderId",
          "type": "uint256"
        }
      ],
      "name": "cancelOrder",
      "outputs": [],
      "stateMutability": "nonpayable",
      "type": "function"
    },
    {
      "inputs": [
        {
          "internalType": "uint256",
          "name": "positionId",
          "type": "uint256"
        },
        {
          "internalType": "bytes[]",
          "name": "updateData",
          "type": "bytes[]"
        }
      ],
      "name": "closePositionInstantly",
      "outputs": [],
      "stateMutability": "payable",
      "type": "function"
    },
    {
      "inputs": [
        {
          "internalType": "uint256",
          "name": "positionId",
          "type": "uint256"
        },
        {
          "internalType": "uint256",
          "name": "closePercent",
          "type": "uint256"
        },
        {
          "internalType": "bytes[]",
          "name": "updateData",
          "type": "bytes[]"
        }
      ],
      "name": "closePositionPartial",
      "outputs": [],
      "stateMutability": "payable",
      "type": "function"
    },
    {
      "inputs": [],
      "name": "core",
      "outputs": [
        {
          "internalType": "contract ConfidentialCore",
          "name": "",
          "type": "address"
        }
      ],
      "stateMutability": "view",
      "type": "function"
    },
    {
      "inputs": [
        {
          "internalType": "uint256",
          "name": "positionId",
          "type": "uint256"
        }
      ],
      "name": "createCloseRequest",
      "outputs": [
        {
          "internalType": "uint256",
          "name": "orderId",
          "type": "uint256"
        }
      ],
      "stateMutability": "payable",
      "type": "function"
    },
    {
      "inputs": [
        {
          "internalType": "bytes32",
          "name": "pairId",
          "type": "bytes32"
        },
        {
          "internalType": "bool",
          "name": "isLong",
          "type": "bool"
        },
        {
          "internalType": "uint256",
          "name": "totalSizeUsd",
          "type": "uint256"
        },
        {
          "internalType": "uint256",
          "name": "leverage",
          "type": "uint256"
        },
        {
          "internalType": "uint256",
          "name": "slices",
          "type": "uint256"
        },
        {
          "internalType": "uint256",
          "name": "intervalSec",
          "type": "uint256"
        },
        {
          "internalType": "uint256",
          "name": "tpPrice",
          "type": "uint256"
        },
        {
          "internalType": "uint256",
          "name": "slPrice",
          "type": "uint256"
        }
      ],
      "name": "createTwapOrder",
      "outputs": [
        {
          "internalType": "uint256",
          "name": "orderId",
          "type": "uint256"
        }
      ],
      "stateMutability": "payable",
      "type": "function"
    },
    {
      "inputs": [
        {
          "internalType": "uint256",
          "name": "orderId",
          "type": "uint256"
        },
        {
          "internalType": "bytes[]",
          "name": "updateData",
          "type": "bytes[]"
        }
      ],
      "name": "executeOrder",
      "outputs": [],
      "stateMutability": "payable",
      "type": "function"
    },
    {
      "inputs": [
        {
          "internalType": "uint256",
          "name": "positionId",
          "type": "uint256"
        },
        {
          "internalType": "bytes[]",
          "name": "updateData",
          "type": "bytes[]"
        }
      ],
      "name": "executeTPSL",
      "outputs": [],
      "stateMutability": "payable",
      "type": "function"
    },
    {
      "inputs": [
        {
          "internalType": "uint256",
          "name": "",
          "type": "uint256"
        }
      ],
      "name": "hasActiveCloseRequest",
      "outputs": [
        {
          "internalType": "bool",
          "name": "",
          "type": "bool"
        }
      ],
      "stateMutability": "view",
      "type": "function"
    },
    {
      "inputs": [
        {
          "internalType": "uint256",
          "name": "positionId",
          "type": "uint256"
        },
        {
          "internalType": "uint256",
          "name": "additionalSizeUsd",
          "type": "uint256"
        },
        {
          "internalType": "uint256",
          "name": "additionalLeverage",
          "type": "uint256"
        },
        {
          "internalType": "uint256",
          "name": "acceptablePrice",
          "type": "uint256"
        },
        {
          "internalType": "bytes[]",
          "name": "updateData",
          "type": "bytes[]"
        }
      ],
      "name": "increasePosition",
      "outputs": [],
      "stateMutability": "payable",
      "type": "function"
    },
    {
      "inputs": [
        {
          "internalType": "uint256",
          "name": "positionId",
          "type": "uint256"
        },
        {
          "internalType": "bytes[]",
          "name": "updateData",
          "type": "bytes[]"
        }
      ],
      "name": "liquidate",
      "outputs": [],
      "stateMutability": "payable",
      "type": "function"
    },
    {
      "inputs": [],
      "name": "liquidationRewardBps",
      "outputs": [
        {
          "internalType": "uint256",
          "name": "",
          "type": "uint256"
        }
      ],
      "stateMutability": "view",
      "type": "function"
    },
    {
      "inputs": [],
      "name": "maxOrderAge",
      "outputs": [
        {
          "internalType": "uint256",
          "name": "",
          "type": "uint256"
        }
      ],
      "stateMutability": "view",
      "type": "function"
    },
    {
      "inputs": [],
      "name": "nextOrderId",
      "outputs": [
        {
          "internalType": "uint256",
          "name": "",
          "type": "uint256"
        }
      ],
      "stateMutability": "view",
      "type": "function"
    },
    {
      "inputs": [],
      "name": "nextPositionId",
      "outputs": [
        {
          "internalType": "uint256",
          "name": "",
          "type": "uint256"
        }
      ],
      "stateMutability": "view",
      "type": "function"
    },
    {
      "inputs": [],
      "name": "oracle",
      "outputs": [
        {
          "internalType": "contract PythPriceOracle",
          "name": "",
          "type": "address"
        }
      ],
      "stateMutability": "view",
      "type": "function"
    },
    {
      "inputs": [
        {
          "internalType": "uint256",
          "name": "",
          "type": "uint256"
        }
      ],
      "name": "pendingOrders",
      "outputs": [
        {
          "internalType": "bytes32",
          "name": "pairId",
          "type": "bytes32"
        },
        {
          "internalType": "address",
          "name": "trader",
          "type": "address"
        },
        {
          "internalType": "bool",
          "name": "isLong",
          "type": "bool"
        },
        {
          "internalType": "uint256",
          "name": "sizeUsd",
          "type": "uint256"
        },
        {
          "internalType": "uint256",
          "name": "collateral",
          "type": "uint256"
        },
        {
          "internalType": "uint256",
          "name": "leverage",
          "type": "uint256"
        },
        {
          "internalType": "uint256",
          "name": "triggerPrice",
          "type": "uint256"
        },
        {
          "internalType": "uint8",
          "name": "orderType",
          "type": "uint8"
        },
        {
          "internalType": "bool",
          "name": "isActive",
          "type": "bool"
        },
        {
          "internalType": "uint256",
          "name": "createdAt",
          "type": "uint256"
        },
        {
          "internalType": "uint256",
          "name": "positionId",
          "type": "uint256"
        },
        {
          "internalType": "uint256",
          "name": "feePaid",
          "type": "uint256"
        },
        {
          "internalType": "uint256",
          "name": "executionFee",
          "type": "uint256"
        },
        {
          "internalType": "uint256",
          "name": "tpPrice",
          "type": "uint256"
        },
        {
          "internalType": "uint256",
          "name": "slPrice",
          "type": "uint256"
        },
        {
          "internalType": "uint256",
          "name": "twapSlices",
          "type": "uint256"
        },
        {
          "internalType": "uint256",
          "name": "twapInterval",
          "type": "uint256"
        },
        {
          "internalType": "uint256",
          "name": "twapExecuted",
          "type": "uint256"
        },
        {
          "internalType": "uint256",
          "name": "twapLastExec",
          "type": "uint256"
        }
      ],
      "stateMutability": "view",
      "type": "function"
    },
    {
      "inputs": [
        {
          "internalType": "bytes32",
          "name": "pairId",
          "type": "bytes32"
        },
        {
          "internalType": "bool",
          "name": "isLong",
          "type": "bool"
        },
        {
          "internalType": "uint256",
          "name": "sizeUsd",
          "type": "uint256"
        },
        {
          "internalType": "uint256",
          "name": "leverage",
          "type": "uint256"
        },
        {
          "internalType": "uint256",
          "name": "tpPrice",
          "type": "uint256"
        },
        {
          "internalType": "uint256",
          "name": "slPrice",
          "type": "uint256"
        },
        {
          "internalType": "uint256",
          "name": "acceptablePrice",
          "type": "uint256"
        },
        {
          "internalType": "bytes[]",
          "name": "updateData",
          "type": "bytes[]"
        }
      ],
      "name": "placeMarketOrder",
      "outputs": [
        {
          "internalType": "uint256",
          "name": "posId",
          "type": "uint256"
        }
      ],
      "stateMutability": "payable",
      "type": "function"
    },
    {
      "inputs": [
        {
          "internalType": "bytes32",
          "name": "pairId",
          "type": "bytes32"
        },
        {
          "internalType": "bool",
          "name": "isLong",
          "type": "bool"
        },
        {
          "internalType": "uint256",
          "name": "sizeUsd",
          "type": "uint256"
        },
        {
          "internalType": "uint256",
          "name": "leverage",
          "type": "uint256"
        },
        {
          "internalType": "uint256",
          "name": "triggerPrice",
          "type": "uint256"
        },
        {
          "internalType": "uint8",
          "name": "orderType",
          "type": "uint8"
        },
        {
          "internalType": "uint256",
          "name": "tpPrice",
          "type": "uint256"
        },
        {
          "internalType": "uint256",
          "name": "slPrice",
          "type": "uint256"
        }
      ],
      "name": "placeOrder",
      "outputs": [
        {
          "internalType": "uint256",
          "name": "orderId",
          "type": "uint256"
        }
      ],
      "stateMutability": "payable",
      "type": "function"
    },
    {
      "inputs": [
        {
          "internalType": "uint256",
          "name": "",
          "type": "uint256"
        }
      ],
      "name": "positions",
      "outputs": [
        {
          "internalType": "bytes32",
          "name": "pairId",
          "type": "bytes32"
        },
        {
          "internalType": "address",
          "name": "trader",
          "type": "address"
        },
        {
          "internalType": "bool",
          "name": "isLong",
          "type": "bool"
        },
        {
          "internalType": "uint256",
          "name": "sizeUsd",
          "type": "uint256"
        },
        {
          "internalType": "uint256",
          "name": "collateral",
          "type": "uint256"
        },
        {
          "internalType": "uint256",
          "name": "entryPrice",
          "type": "uint256"
        },
        {
          "internalType": "uint256",
          "name": "leverage",
          "type": "uint256"
        },
        {
          "internalType": "uint256",
          "name": "liquidationPrice",
          "type": "uint256"
        },
        {
          "internalType": "uint256",
          "name": "openedAt",
          "type": "uint256"
        },
        {
          "internalType": "bool",
          "name": "isOpen",
          "type": "bool"
        },
        {
          "internalType": "uint256",
          "name": "tpPrice",
          "type": "uint256"
        },
        {
          "internalType": "uint256",
          "name": "slPrice",
          "type": "uint256"
        },
        {
          "internalType": "int256",
          "name": "entryFundingIndex",
          "type": "int256"
        },
        {
          "internalType": "uint256",
          "name": "lastRolloverSettled",
          "type": "uint256"
        }
      ],
      "stateMutability": "view",
      "type": "function"
    },
    {
      "inputs": [
        {
          "internalType": "uint256",
          "name": "positionId",
          "type": "uint256"
        },
        {
          "internalType": "uint256",
          "name": "amount",
          "type": "uint256"
        },
        {
          "internalType": "bytes[]",
          "name": "updateData",
          "type": "bytes[]"
        }
      ],
      "name": "removeCollateral",
      "outputs": [],
      "stateMutability": "payable",
      "type": "function"
    },
    {
      "inputs": [],
      "name": "rolloverFeePerHour",
      "outputs": [
        {
          "internalType": "uint256",
          "name": "",
          "type": "uint256"
        }
      ],
      "stateMutability": "view",
      "type": "function"
    },
    {
      "inputs": [
        {
          "internalType": "uint256",
          "name": "_bps",
          "type": "uint256"
        }
      ],
      "name": "setLiquidationRewardBps",
      "outputs": [],
      "stateMutability": "nonpayable",
      "type": "function"
    },
    {
      "inputs": [
        {
          "internalType": "uint256",
          "name": "_seconds",
          "type": "uint256"
        }
      ],
      "name": "setMaxOrderAge",
      "outputs": [],
      "stateMutability": "nonpayable",
      "type": "function"
    },
    {
      "inputs": [
        {
          "internalType": "uint256",
          "name": "_fee",
          "type": "uint256"
        }
      ],
      "name": "setRolloverFeePerHour",
      "outputs": [],
      "stateMutability": "nonpayable",
      "type": "function"
    },
    {
      "inputs": [
        {
          "internalType": "uint256",
          "name": "positionId",
          "type": "uint256"
        },
        {
          "internalType": "uint256",
          "name": "newTpPrice",
          "type": "uint256"
        },
        {
          "internalType": "uint256",
          "name": "newSlPrice",
          "type": "uint256"
        }
      ],
      "name": "updateTpSl",
      "outputs": [],
      "stateMutability": "nonpayable",
      "type": "function"
    },
    {
      "inputs": [],
      "name": "usdc",
      "outputs": [
        {
          "internalType": "contract IERC20",
          "name": "",
          "type": "address"
        }
      ],
      "stateMutability": "view",
      "type": "function"
    },
    {
      "inputs": [
        {
          "internalType": "address",
          "name": "",
          "type": "address"
        },
        {
          "internalType": "uint256",
          "name": "",
          "type": "uint256"
        }
      ],
      "name": "userOrders",
      "outputs": [
        {
          "internalType": "uint256",
          "name": "",
          "type": "uint256"
        }
      ],
      "stateMutability": "view",
      "type": "function"
    },
    {
      "inputs": [
        {
          "internalType": "address",
          "name": "",
          "type": "address"
        },
        {
          "internalType": "uint256",
          "name": "",
          "type": "uint256"
        }
      ],
      "name": "userPositions",
      "outputs": [
        {
          "internalType": "uint256",
          "name": "",
          "type": "uint256"
        }
      ],
      "stateMutability": "view",
      "type": "function"
    },
    {
      "inputs": [],
      "name": "vault",
      "outputs": [
        {
          "internalType": "contract ConfidentialVault",
          "name": "",
          "type": "address"
        }
      ],
      "stateMutability": "view",
      "type": "function"
    },
    {
      "stateMutability": "payable",
      "type": "receive"
    }
  ],
  "bytecode": "0x608034620000e557601f620056e938819003918201601f19168301916001600160401b03831184841017620000e957808492608094604052833981010312620000e5576200004d81620000fd565b906200005c60208201620000fd565b6200007860606200007060408501620000fd565b9301620000fd565b9060015f55600160055560016006556014600b556064600c5562093a80600d5560018060a01b03928380928160018060a01b031997168760045416176004551685600154161760015516836002541617600255169060035416176003556040516155d69081620001138239f35b5f80fd5b634e487b7160e01b5f52604160045260245ffd5b51906001600160a01b0382168203620000e55756fe60e080604052600436101561001c575b50361561001a575f80fd5b005b5f905f3560e01c9081632a58b33014613c19575080632c0e1e9e146136c35780632c338fed146136945780632e80f9a41461360257806331e01f4a14612f1b57806333e7dddb14611db8578063368dbba8146101ba5780633e413bee14611d8f57806341aa303b14611d29578063514fcac714611ba35780635e1b4d9914611b655780636fb197f7146118525780637dc0d1d01461182957806380b7425814611637578063856652e9146115eb57806387f194231461120e578063899346c7146111f05780638fb735ee146111d257806399fbab88146111045780639bfe7e3e14610f0b578063a8f35adf14610dd0578063ba7ebf5f14610d23578063c009687c14610c56578063c09403ac14610937578063c29433a614610919578063c3aaea4e146107d6578063ee6d5198146107b8578063effaed891461079a578063f2f4eb2614610771578063f5ba8a2a146105de578063f6614170146101bf578063fa779648146101ba5763fbfa77cf0361000f57346101b757806003193601126101b7576002546040516001600160a01b039091168152602090f35b80fd5b613ca7565b50806101ca36613c73565b906101d6939293614b79565b8161057c575b50509080602492526020906007825260408420600881019061020160ff835416613d83565b6003548154604080516331d98b3f60e01b815260048101839052976001600160a01b03949293899190829087165afa96871561057157889761053f575b50600181019160ff835460a01c165f146105325760068201548811155b156104fa57908891828861027661027185614aba565b61549a565b9260248860015416916040519485938492637cc6765f60e11b845260048401525af19081156104ef5789916104bc575b50506102b96102b483614aba565b6154cc565b818482136104ab575b505060038201805482808211156104a2576102dc91613fd0565b925b6127106102ed600c5486613fbd565b049760ff1981541690558660015416908054906002885491015492803b1561049e578792838b61033d6040519788968795869463019ca2b960e51b865260ff8360a01c1692169060048601613fdd565b03925af190811561049357859161047f575b50508115159081610473575b50610410575b508360025416908484541690823b1561040c57608484928360405195869485936309c0533b60e01b8552600485015233602485015260448401528a60648401525af18015610401576103e9575b50505416926040519485528401527f3b7bc7c0fdc798ac653b9f0d6d28adb2293a55402d32c21d323da740ccc6553960403394a46001815580f35b6103f290613df2565b6103fd57865f6103ae565b8680fd5b6040513d84823e3d90fd5b8380fd5b846002541690813b1561040c57839160248392604051948593849263ff20b48d60e01b845260048401525af1908115610468578391610450575b50610361565b61045990613df2565b61046457815f61044a565b5080fd5b6040513d85823e3d90fd5b9050548111155f61035b565b61048890613df2565b61040c57835f61034f565b6040513d87823e3d90fd5b8780fd5b505083926102de565b6104b59250613f8c565b5f806102c2565b90809294503d83116104e8575b6104d38183613e23565b810103126104e4578891875f6102a6565b5f80fd5b503d6104c9565b6040513d86823e3d90fd5b60405162461bcd60e51b815260048101889052601060248201526f4e6f74206c6971756964617461626c6560801b6044820152606490fd5b600682015488101561025b565b61056291975060403d60401161056a575b61055a8183613e23565b810190613ee7565b50955f61023e565b503d610550565b6040513d8a823e3d90fd5b6003546001600160a01b031691823b1561040c57604051631df3cbc560e31b81529284928492839182916105b39160048401613e45565b039134905af18015610401576105ca575b806101dc565b6105d390613df2565b61046457815f6105c4565b506105e836613c73565b91906105f2614b79565b818452600760205283604081209361061060ff600887015416613d83565b60018501546001600160a01b03939061062c9085163314613dba565b600460078701546020866001541660405193848092636d78097360e11b82525afa918215610493578592610738575b506106719161066991613f8c565b4210156142d2565b816106dd575b50505060409060035416925460248251809581936331d98b3f60e01b835260048301525afa908115610468576106b49284926106bb575b5061510a565b6001815580f35b6106d591925060403d60401161056a5761055a8183613e23565b50905f6106ae565b836003541691823b1561040c57604051631df3cbc560e31b815292849284928391829161070d9160048401613e45565b039134905af1801561040157610724575b80610677565b61072d90613df2565b61040c57835f61071e565b945090506020843d602011610769575b8161075560209383613e23565b810103126104e4579251879361066961065b565b3d9150610748565b50346101b757806003193601126101b7576001546040516001600160a01b039091168152602090f35b50346101b757806003193601126101b7576020600c54604051908152f35b506106b46107c536613d13565b926107d1929192614b79565b61437f565b50346101b75760203660031901126101b757600435815260086020526040902080808054600182015460c05260028201546003830154600484015460058501546006860154600787015490600888015492600989015494600a8a015496600b8b015498600c8c01549a600d8d01549c600e01549d600f01549e6010015460805260405160a05260a05152600160a01b6001900360c0511660a0516020015260c05160a01c60ff16151560a0516040015260a0516060015260a0516080015260a05160a0015260a05160c0015260ff811660a05160e0015260081c60ff16151560a051610100015260a051610120015260a051610140015260a051610160015260a051610180015260a0516101a0015260a0516101c0015260a0516101e0015260a051610200015260a051610220015260805160a051610240015260a05161026090f35b50346101b757806003193601126101b7576020600d54604051908152f35b506101003660031901126101b75761094d613c64565b9060a4359060ff821682036101b757610964614b79565b610975620f42406044351015613d46565b600160ff831611610c115760c435610bcc575b60e435610b87575b6001546001600160a01b031692833b156104645760405163bd79156f60e01b81528281806109cb606435604435873360048035908701613f3d565b0381885afa801561046857610b73575b506020604493946040519485809263e4d8cbe560e01b82528235600483015260ff89161560248301525afa928315610401578293610b3c575b5090602093600192610a2a606435604435613f6e565b94610a3f610a388288613f8c565b3033614b9a565b60065495610a4c87614200565b60065586855260088852604085206004358155868101805460ff60a01b1933166001600160a81b03199091161794151560a01b60ff60a01b169490941790935560443560028401556003830155606435600483015560843560058301556006820161010060ff851661ffff1983541617179055426007830155600982015534600a82015560c435600b820155600c60e435910155338252600a8552610af4846040842061420e565b60ff60405191600435835216858201526084356040820152837f401524beccff0d9dd3447788dea32e11f3b7c9618ed6084f14a773dbf2025f1660603393a355604051908152f35b919092506020823d602011610b6b575b81610b5960209383613e23565b810103126104e4579051916020610a14565b3d9150610b4c565b610b7d8391613df2565b610464575f6109db565b8215610bb65760843560e435108015610ba9575b610ba490614064565b610990565b5060ff8216600214610b9b565b60843560e435118015610ba957610ba490614064565b8215610bfb5760843560c435118015610bee575b610be990614025565b610988565b5060ff8216600214610be0565b60843560c435108015610bee57610be990614025565b60405162461bcd60e51b815260206004820152601f60248201527f55736520706c6163654d61726b65744f7264657220666f72206d61726b6574006044820152606490fd5b50346101b75760203660031901126101b757600154604051638da5cb5b60e01b815260048035926001600160a01b0391602091849190829085165afa80156104ef57610cac928591610cf4575b50163314613dba565b60c88111610cba57600b5580f35b60405162461bcd60e51b815260206004820152601260248201527126b0bc101817181912903832b9103437bab960711b6044820152606490fd5b610d16915060203d602011610d1c575b610d0e8183613e23565b810190614006565b5f610ca3565b503d610d04565b50346101b75760203660031901126101b757600154604051638da5cb5b60e01b815260048035926001600160a01b0391602091849190829085165afa80156104ef57610d78928591610cf45750163314613dba565b610e1081101580610dc3575b15610d8f57600d5580f35b60405162461bcd60e51b815260206004820152600c60248201526b31682d3330642072616e676560a01b6044820152606490fd5b5062278d00811115610d84565b50346101b75760403660031901126101b757602435600435610df0614b79565b610dfb821515614247565b808352600760205260408320610e1760ff600883015416613d83565b60018101908460018060a01b03610e32818554163314613dba565b610e4186826002541633614b9a565b60025416803b1561046457818091602460405180948193636e93ae2b60e01b83528b60048401525af1801561040157610ef3575b5050610eb660069260038301610e8c878254613f8c565b8091556002840154610e9e8282613f6e565b600586015560ff6004860154935460a01c1692614e02565b918291015560405192835260208301527f935a476d8eb416e1441bbdc27477a7d90012bed1a74dba06f77fc32b8b119bd860403393a36001815580f35b610efc90613df2565b610f0757845f610e75565b8480fd5b50602090816003193601126101b75760043590610f26614b79565b818152600783526040812060ff600882015416156110cb5760018101546001600160a01b0390610f599082163314613dba565b838352600e855260ff60408420541661108f576007820154600154604051636d78097360e11b8152949392879186916004918391165afa93841561046857839461105e575b50610669600194610fae92613f8c565b838252600e855260408220805460ff19168417905560065493610fd085614200565b600655848352600886526040832090848201336bffffffffffffffffffffffff60a01b8254161790556006820161010361ffff198254161790554260078301556008820155600a3491015554604051908152600385820152816040820152837f401524beccff0d9dd3447788dea32e11f3b7c9618ed6084f14a773dbf2025f1660603393a355604051908152f35b93508584813d8311611088575b6110758183613e23565b810103126104e457925192610669610f9e565b503d61106b565b60405162461bcd60e51b8152600481018690526014602482015273436c6f736520726571756573742065786973747360601b6044820152606490fd5b60405162461bcd60e51b81526004810185905260116024820152702837b9b4ba34b7b7103737ba1037b832b760791b6044820152606490fd5b50346101b75760203660031901126101b75760406101c09160043581526007602052208054906001810154906002810154600382015460048301546005840154600685015460078601549160ff60088801541693600988015495600a8901549760ff600c600b8c01549b01549b6040519d8e528d602060018060a01b03831691015260a01c16151560408d015260608c015260808b015260a08a015260c089015260e088015261010087015215156101208601526101408501526101608401526101808301526101a0820152f35b50346101b757806003193601126101b7576020600b54604051908152f35b50346101b757806003193601126101b7576020600554604051908152f35b5061121836613d13565b90611224939293614b79565b61122f841515614247565b82855260209060078252604086209261124e60ff600886015416613d83565b86600185019160018060a01b039361126a858554163314613dba565b81611590575b50505061127c84614c61565b50600384019361128d878654613fd0565b90620f42408210611554576002810154916112a88184613f6e565b90856001541694602460e08554976040519283809263351bd11560e11b82528b60048301525afa8015611549578d9061149f575b604091500151831161146357906113098493928260ff8f9a99989760040154925460a01c16968792614e02565b98604087600354169660248251809981936331d98b3f60e01b835260048301525afa8015610571578a60069681988b93611441575b50156114325761134e911161428e565b55600582015501558060025416803b1561142e578280916024604051809481936306e980c560e51b83528c60048401525af190811561046857839161141a575b505060025416803b15610464576040516374e863ad60e01b8152336004820152602481018790529082908290604490829084905af1801561040157611406575b50506040519384528301527fdf372a02d8e5139b85d7448d53241f194a27db9f321178c970db6e998ebb600160403393a36001815580f35b61140f90613df2565b610f0757845f6113ce565b61142390613df2565b61046457815f61138e565b8280fd5b61143c911061428e565b61134e565b61145b91935060403d60401161056a5761055a8183613e23565b50915f61133e565b60405162461bcd60e51b815260048101899052601460248201527345786365656473206d6178206c6576657261676560601b6044820152606490fd5b5060e0813d60e011611541575b816114b960e09383613e23565b8101031261153d5760405160e081019181831067ffffffffffffffff8411176115295760c061151f916040948552805184528c8101518d8501528481015185850152606081015160608501526080810151608085015260a081015160a085015201614281565b60c08201526112dc565b634e487b7160e01b5f52604160045260245ffd5b8c80fd5b3d91506114ac565b6040513d8f823e3d90fd5b60405162461bcd60e51b815260048101869052601460248201527310995b1bddc81b5a5b8818dbdb1b185d195c985b60621b6044820152606490fd5b846003541691823b1561040c57604051631df3cbc560e31b81529284928492839182916115c09160048401613e45565b039134905af18015610401576115d7575b80611270565b6115e090613df2565b6103fd57865f6115d1565b50346101b7576115fa36613cc4565b6001600160a01b039091168252600a602052604082208054919290918310156101b75760206116298484613cea565b90546040519160031b1c8152f35b508061164236613c73565b9061164e939293614b79565b816117c7575b50508190526007602052604082209061167360ff600884015416613d83565b60018060a01b0360035416906040835460248251809581936331d98b3f60e01b835260048301525afa9182156104ef5784926117a5575b5083849360098101548061177a575b5081158061176d575b611743575b501561170857807fac4fd466c8f994e08ce2eb9141c2f01f2a779a3537d9bd71fa8762df3d12842c60406106b49581519015158152856020820152a261510a565b60405162461bcd60e51b815260206004820152601360248201527215140bd4d3081b9bdd081d1c9a59d9d95c9959606a1b6044820152606490fd5b6001810154600a925060a01c60ff16156117635701548211155b5f6116c7565b015482101561175d565b50600a81015415156116c2565b9150935060ff600185015460a01c165f1461179c57821015925b83905f6116b9565b82111592611794565b6117bf91925060403d60401161056a5761055a8183613e23565b50905f6116aa565b6003546001600160a01b031691823b1561040c57604051631df3cbc560e31b81529284928492839182916117fe9160048401613e45565b039134905af1801561040157611815575b80611654565b61181e90613df2565b61046457815f61180f565b50346101b757806003193601126101b7576003546040516001600160a01b039091168152602090f35b506101003660031901126101b7576004359061186c613c64565b9160443591606435916084359460a43590611885614b79565b600287101580611b5a575b15611b2457603c8210611aec57620f42408781029081048803611ad8578610611a9c576001546001600160a01b031696873b15610f075760405163bd79156f60e01b81528581806118e88a8c88338c60048701613f3d565b03818c5afa8015611a9157908691611a7d575b50506119078688613f6e565b9760405198899163e4d8cbe560e01b835289600484015287602484015282604460209c8d935afa918215611a72578792611a3c575b509060019782611953610a3884600e989796613f8c565b6006549a6119608c614200565b6006558b8a5260088d5260408a208981558b8101805460ff60a01b1933166001600160a81b03199091161797151560a01b60ff60a01b16979097179096556002860155600385015560048401556006830161010461ffff19825416179055426007840155600983015534600a83015560c435600b83015560e435600c830155600d8201550155338252600a85526119fa846040842061420e565b604051908152600485820152816040820152837f401524beccff0d9dd3447788dea32e11f3b7c9618ed6084f14a773dbf2025f1660603393a355604051908152f35b939291508984813d8311611a6b575b611a558183613e23565b810103126104e45792519192909190600161193c565b503d611a4b565b6040513d89823e3d90fd5b611a8690613df2565b610f0757845f6118fb565b6040513d88823e3d90fd5b60405162461bcd60e51b815260206004820152601460248201527314db1a58d9481cda5e99481d1bdbc81cdb585b1b60621b6044820152606490fd5b634e487b7160e01b85526011600452602485fd5b60405162461bcd60e51b815260206004820152601060248201526f135a5b880d8c1cc81a5b9d195c9d985b60821b6044820152606490fd5b60405162461bcd60e51b815260206004820152600e60248201526d496e76616c696420736c6963657360901b6044820152606490fd5b506064871115611890565b50346101b757611b7436613cc4565b6001600160a01b0390911682526009602052604082208054919290918310156101b75760206116298484613cea565b50346101b75760203660031901126101b757600435611bc0614b79565b808252600860205281600a6040822060ff60068201805490611be6838360081c166140a3565b611bfd60018060a01b036001860154163314613dba565b61ff001982169055166002198101611c9a575b50015480611c45575b50807f61b9399f2f0f32ca39ce8d7be32caed5ec22fe07a6daba3a467ed479ec60658291a26001815580f35b81808092335af1611c546141c1565b5015611c6157815f611c19565b60405162461bcd60e51b8152602060048201526011602482015270115512081c99599d5b990819985a5b1959607a1b6044820152606490fd5b600382015460046009840154921480611d1c575b611ce2575b611cbd8282613f8c565b611cc8575b50611c10565b611cdb91611cd591613f8c565b33614efe565b5f80611cc2565b611d1690611d0b600d85015491611d1083611d0b611d04600f8a015483613fd0565b8094613fbd565b613f6e565b94613fbd565b90611cb3565b50600f8301541515611cae565b50346101b75760603660031901126101b757611d43614b79565b6004358152600760205260408120611d6160ff600883015416613d83565b611d7860018060a01b036001830154163314613dba565b6024356009820155600a6044359101556001815580f35b50346101b757806003193601126101b7576004546040516001600160a01b039091168152602090f35b5080611dc336613c73565b90611dcf939293614b79565b81612eb9575b50508190526008602052604082206006810154611df760ff8260081c166140a3565b611e086007830154600d5490613f8c565b4211612e845760018060a01b0360035416906040835460248251809581936331d98b3f60e01b835260048301525afa918215610493578592612e5f575b5060ff16806123c95750600182015460a01c60ff16156123bc5760058201548111155b1561238357611e76826140dc565b60015481516040808401516060850151915163b391decf60e01b8152600481019390935215156024830152604482015291929190602090829060649082906001600160a01b03165afa908115611a91578691612351575b5081868213156122fd5750611ee56127109183613fbd565b04604083015115155f146122ef57611efc91613f8c565b60055490611f0982614200565b6005558186526007602090815260408088208551815591850151600183018054928701516001600160a81b03199093166001600160a01b03929092169190911791151560a081901b60ff60a01b16929092179055879190611f92905b606087015180600285015560808801519081600386015586600486015560a0890151600586015586614e02565b600682015542600782015542600c82015560088101600160ff198254161790556101a085015160098201556101c0850151600a820155602060018060a01b0360015416602487516040519586938492637cc6765f60e11b845260048401525af19182156105715788926122ba575b50600b015560015483516020850151604086015160608701518a94909392911515916001600160a01b039182169116813b156122a2578580946120596040519788968795869463b65b361f60e01b865260048601613fdd565b03925af18015610401576122a6575b50506002546080840151612084916001600160a01b0316614efe565b600254608084015187916001600160a01b031690813b1561142e578291602483926040519485938492636e93ae2b60e01b845260048401525af180156104015761228e575b505060a05f80516020615581833981519152916120ea610160860151614fc0565b600180831b036020860151168852600960205261210a8460408a2061420e565b600180831b03602086015116948051916040820151151591846060820151910151926040519485526020850152604084015260608301526080820152a360068101805461ff00191690555b82600a820154806121e2575b5050600681015460ff8160081c161561217d575b836001815580f35b60ff166003036121b95760080154905b7f9947370f1e808dd40de986fca744d8715d4d7aa575359f77a7bdeeb887f590ea8380a35f8080612175565b506005545f1981019081116121ce579061218d565b634e487b7160e01b83526011600452602483fd5b81906006840154600460ff82161480612281575b15612267575061220c9150600d84015490613f6e565b80156121615781808092335af16122216141c1565b501561222e57825f612161565b60405162461bcd60e51b815260206004820152601160248201527012d9595c195c881999594819985a5b1959607a1b6044820152606490fd5b60081c60ff1615612279575b5061220c565b90505f612273565b50600d85015415156121f6565b61229790613df2565b6122a257855f6120c9565b8580fd5b6122af90613df2565b6122a257855f612068565b9091506020813d6020116122e7575b816122d660209383613e23565b810103126104e4575190600b612000565b3d91506122c9565b6122f891613fd0565b611efc565b9086811261230d575b5050611efc565b61271091925061231f61232591613fad565b83613fbd565b04604083015115155f146123435761233c91613fd0565b5f80612306565b61234c91613f8c565b61233c565b90506020813d60201161237b575b8161236c60209383613e23565b810103126104e457515f611ecd565b3d915061235f565b60405162461bcd60e51b8152602060048201526011602482015270131a5b5a5d081b9bdd081c995858da1959607a1b6044820152606490fd5b6005820154811015611e68565b600181036127e35750600182015460a01c60ff16156127d65760058201548110155b1561279e576123f9826140dc565b60015481516040808401516060850151915163b391decf60e01b8152600481019390935215156024830152604482015291929190602090829060649082906001600160a01b03165afa908115611a9157869161276c575b50818682131561271e57506124686127109183613fbd565b04604083015115155f146127105761247f91613f8c565b6005549061248c82614200565b6005558186526007602090815260408088208551815591850151600183018054928701516001600160a81b03199093166001600160a01b03929092169190911791151560a081901b60ff60a01b169290921790558791906124ec90611f65565b600682015542600782015542600c82015560088101600160ff198254161790556101a085015160098201556101c0850151600a820155602060018060a01b0360015416602487516040519586938492637cc6765f60e11b845260048401525af19182156105715788926126db575b50600b015560015483516020850151604086015160608701518a94909392911515916001600160a01b039182169116813b156122a2578580946125b36040519788968795869463b65b361f60e01b865260048601613fdd565b03925af18015610401576126c7575b505060025460808401516125de916001600160a01b0316614efe565b600254608084015187916001600160a01b031690813b1561142e578291602483926040519485938492636e93ae2b60e01b845260048401525af18015610401576126b3575b505060a05f8051602061558183398151915291612644610160860151614fc0565b600180831b03602086015116885260096020526126648460408a2061420e565b600180831b03602086015116948051916040820151151591846060820151910151926040519485526020850152604084015260608301526080820152a360068101805461ff0019169055612155565b6126bc90613df2565b6122a257855f612623565b6126d090613df2565b6122a257855f6125c2565b9091506020813d602011612708575b816126f760209383613e23565b810103126104e4575190600b61255a565b3d91506126ea565b61271991613fd0565b61247f565b9086811261272e575b505061247f565b61271091925061231f61274091613fad565b04604083015115155f1461275e5761275791613fd0565b5f80612727565b61276791613f8c565b612757565b90506020813d602011612796575b8161278760209383613e23565b810103126104e457515f612450565b3d915061277a565b60405162461bcd60e51b815260206004820152601060248201526f14dd1bdc081b9bdd081c995858da195960821b6044820152606490fd5b60058201548111156123eb565b600281036128995750600182015460ff8160a01c165f1461288c5760058301548211155b8015612880575b1561282f57506123f9826140dc565b60068101805461ff0019169055612155565b61285691506128476003840154600985015490613f8c565b906001600160a01b0316614efe565b817f61b9399f2f0f32ca39ce8d7be32caed5ec22fe07a6daba3a467ed479ec6065828480a261281d565b5060058301541561280e565b6005830154821015612807565b600381036128d757506128b16008830191825461510a565b548352600e60205260408320805460ff1916905560068101805461ff0019169055612155565b6004146128e5575b50612155565b600f8201549081158015612e43575b15612e0c57612902836140dc565b91600181018111612df857600d840154600182018103612db85761296761298192600287015461297784612967848b61296d61293e8588613f6e565b9661296784612961600961295760038801549a8b613f6e565b9601549d8e613f6e565b99613fbd565b90613fd0565b60608d0152613fbd565b6080880152613fbd565b6101608301525b60015482516040808501516060860151915163b391decf60e01b8152600481019390935215156024830152604482015290602090829060649082906001600160a01b03165afa908115611a91578691612d86575b508186821315612d3857506129f46127109183613fbd565b04604083015115155f14612d2a57612a0b91613f8c565b600554612a1781614200565b6005558086526007602090815260408088208551815591850151600183018054928701516001600160a81b03199093166001600160a01b03929092169190911791151560a081901b60ff60a01b16929092179055879190612a9f90606087015180600285015560808801519081600386015587600486015560a0890151600586015587614e02565b600682015542600782015542600c82015560088101600160ff198254161790556101a085015160098201556101c0850151600a820155602060018060a01b0360015416602487516040519586938492637cc6765f60e11b845260048401525af1918215610571578892612cf5575b50600b015560015483516020850151604086015160608701518a94909392911515916001600160a01b039182169116813b156122a257858094612b666040519788968795869463b65b361f60e01b865260048601613fdd565b03925af1801561040157612ce1575b50506002546080840151612b91916001600160a01b0316614efe565b600254608084015187916001600160a01b031690813b1561142e578291602483926040519485938492636e93ae2b60e01b845260048401525af1801561040157612ccd575b5050612be6610160840151614fc0565b6020838101516001600160a01b031687526009905260408620612c0a90829061420e565b5f8051602061558183398151915260a0600180821b03602086015116938551906040870151151590606088015184890151926040519485526020850152604084015260608301526080820152a3600f8201549060018201809211611ad8577f098dc6c1012d2fb4cc0470ec0f1b82ad9eaf354865d76ebad869d83f1559344e60406060869385600f88015542601088015501518151908582526020820152a2600d8201541115612cbb575b5f6128df565b60068101805461ff0019169055612cb5565b612cd690613df2565b6122a257855f612bd6565b612cea90613df2565b6122a257855f612b75565b9091506020813d602011612d22575b81612d1160209383613e23565b810103126104e4575190600b612b0d565b3d9150612d04565b612d3391613fd0565b612a0b565b90868112612d48575b5050612a0b565b61271091925061231f612d5a91613fad565b04604083015115155f14612d7857612d7191613fd0565b5f80612d41565b612d8191613f8c565b612d71565b90506020813d602011612db0575b81612da160209383613e23565b810103126104e457515f6129dc565b3d9150612d94565b612ded9150612dcb816002870154613f6e565b6060850152612dde816003870154613f6e565b60808501526009850154613f6e565b610160830152612988565b634e487b7160e01b86526011600452602486fd5b60405162461bcd60e51b815260206004820152600f60248201526e545741503a20746f6f206561726c7960881b6044820152606490fd5b50612e576010840154600e85015490613f8c565b4210156128f4565b60ff919250612e7c9060403d60401161056a5761055a8183613e23565b509190611e45565b60405162461bcd60e51b815260206004820152600d60248201526c13dc99195c88195e1c1a5c9959609a1b6044820152606490fd5b6003546001600160a01b031691823b1561040c57604051631df3cbc560e31b8152928492849283918291612ef09160048401613e45565b039134905af1801561040157612f07575b80611dd5565b612f1090613df2565b61046457815f612f01565b506101003660031901126101b757612f31613c64565b60c4358260e43567ffffffffffffffff811161046457612f55903690600401613c33565b90612f5e614b79565b612f6f620f42406044351015613d46565b816135a0575b5050600354604080516331d98b3f60e01b8152600480359082015293925090839060249082906001600160a01b03165afa9182156104ef57849261357e575b5080613555575b50608435613530575b60a43561350b575b6001546001600160a01b031691823b1561040c578360405163bd79156f60e01b8152818180613008606435604435883360043560048701613f3d565b0381885afa8015610401576134f7575b505060206044936040519485809263e4d8cbe560e01b8252823560048301528860248301525afa9283156104ef5784936134c2575b50602061314491613062606435604435613f6e565b94613070610a388288613f8c565b6040519561307d87613e06565b8760c0880152876101208801528761014088015287610180880152876101e08801528761020088015287610220880152876102408801526004358752338488015282151560408801526044356060880152608087015260643560a0870152600260e087015260016101008701526101608601526084356101a086015260a4356101c086015260018060a01b0360015416604051808095819463b391decf60e01b83526044359015156004356004850160409194939260608201958252151560208201520152565b03915afa9081156104ef578491613490575b508184821315613442575061316e6127109183613fbd565b04604083015115155f146134345761318591613f8c565b6005549061319282614200565b6005558184526007602090815260408086208551815591850151600183018054928701516001600160a81b03199093166001600160a01b03929092169190911791151560a081901b60ff60a01b169290921790558591906131f290611f65565b600682015542600782015542600c82015560088101600160ff198254161790556101a085015160098201556101c0850151600a820155602060018060a01b0360015416602487516040519586938492637cc6765f60e11b845260048401525af1918215611a915786926133ff575b50600b015560015483516020850151604086015160608701518894909392911515916001600160a01b039182169116813b156122a2578580946132b96040519788968795869463b65b361f60e01b865260048601613fdd565b03925af18015610401576133eb575b505060025460808401516132e4916001600160a01b0316614efe565b600254608084015185916001600160a01b031690813b1561142e578291602483926040519485938492636e93ae2b60e01b845260048401525af18015610401576133d7575b505060a05f805160206155818339815191529161334a610160860151614fc0565b600180831b036020860151168652600960205261336a846040882061420e565b600180831b03602086015116948051916040820151151591846060820151910151926040519485526020850152604084015260608301526080820152a36005545f1981019081116133c357600160209255604051908152f35b634e487b7160e01b82526011600452602482fd5b6133e090613df2565b61040c57835f613329565b6133f490613df2565b61040c57835f6132c8565b9091506020813d60201161342c575b8161341b60209383613e23565b810103126104e4575190600b613260565b3d915061340e565b61343d91613fd0565b613185565b90848112613452575b5050613185565b61271091925061231f61346491613fad565b04604083015115155f146134825761347b91613fd0565b5f8061344b565b61348b91613f8c565b61347b565b90506020813d6020116134ba575b816134ab60209383613e23565b810103126104e457515f613156565b3d915061349e565b9092506020813d6020116134ef575b816134de60209383613e23565b810103126104e4575191602061304d565b3d91506134d1565b61350090613df2565b61040c57835f613018565b81156135235761351e8160a43510614064565b612fcc565b61351e8160a43511614064565b8115613548576135438160843511614025565b612fc4565b6135438160843510614025565b821561356d5761356790821115613efd565b5f612fbb565b61357990821015613efd565b613567565b61359891925060403d60401161056a5761055a8183613e23565b50905f612fb4565b6003546001600160a01b031691823b1561040c57604051631df3cbc560e31b81529284928492839182916135d79160048401613e45565b039134905af18015610401576135ee575b80612f75565b6135f790613df2565b61142e57825f6135e8565b50346101b75760203660031901126101b757600154604051638da5cb5b60e01b815260048035926001600160a01b0391602091849190829085165afa80156104ef57613657928591610cf45750163314613dba565b6101f4811161366657600c5580f35b60405162461bcd60e51b81526020600482015260066024820152654d617820352560d01b6044820152606490fd5b50346101b75760203660031901126101b75760ff60406020926004358152600e84522054166040519015158152f35b5060a03660031901126104e4576064359060843567ffffffffffffffff81116104e4576136f4903690600401613c33565b6136fc614b79565b61370d620f42406024351015613d46565b6004355f52600760205260405f209161372c60ff600885015416613d83565b61374360018060a01b036001850154163314613dba565b81613bac575b50506003548154604080516331d98b3f60e01b81526004810183905294959192859060249082906001600160a01b03165afa938415610493578594613b8a575b5080613b57575b508360018060a01b03600154169160ff600185015460a01c1690833b1561142e5760405163bd79156f60e01b8152918391839182916137dd91604435916024359190339060048701613f3d565b0381865afa801561040157613b43575b5060449160206138008435602435613f6e565b916040519485809263e4d8cbe560e01b825260243560048301528660248301525afa928315610401578293613b0c575b5061383e610a388483613f8c565b61384784614c61565b506001805485549186015460405163b391decf60e01b81526004810184905260a09190911c60ff16801515602480840191909152356044830152979160209082906001600160a01b031681806064810103915afa908115610493578591613ad7575b508185821315613a8b57506138c16127109183613fbd565b048715613a7d576138d191613f8c565b955b6002860181815498600489019081546138ec908c613fbd565b906138f990602435613fbd565b61390291613f8c565b61390e6024358c613f8c565b61391791613f6e565b9960243561392491613f8c565b8093558960038a01918783549061393a91613f8c565b809355556139488184613f6e565b60058a0155613957928a614e02565b60069096019586556001546001600160a01b031691823b15610f075761399c9285928360405180968195829463b65b361f60e01b845260243591339060048601613fdd565b03925af1908115610468578391613a69575b50506002546139c79082906001600160a01b0316614efe565b6002546001600160a01b031690813b1561142e578291602483926040519485938492636e93ae2b60e01b845260048401525af1801561040157613a55575b5050613a1090614fc0565b546040519160243583526020830152604082015233907ff48aa9a1deec4f3fc0cb0c073f4f097041726d7c7f9d2c3a863cd52f721e8d1a606060043592a36001815580f35b613a5e90613df2565b61040c57835f613a05565b613a7290613df2565b61046457815f6139ae565b613a8691613fd0565b6138d1565b90858199939912613a9e575b50506138d3565b6127109192985061231f613ab191613fad565b048715613ac957613ac191613fd0565b955f80613a97565b613ad291613f8c565b613ac1565b9450506020843d602011613b04575b81613af360209383613e23565b810103126104e4578793515f6138a9565b3d9150613ae6565b915091506020813d602011613b3b575b81613b2960209383613e23565b810103126104e457849051915f613830565b3d9150613b1c565b613b4d8291613df2565b6101b7575f6137ed565b600183015460a01c60ff1615613b7957613b7390841115613efd565b5f613790565b613b8590841015613efd565b613b73565b613ba491945060403d60401161056a5761055a8183613e23565b50925f613789565b6003546001600160a01b031691823b156104e457604051631df3cbc560e31b8152925f92849283918291613be39160048401613e45565b039134905af18015613c0e57613bfa575b80613749565b60249250613c0790613df2565b5f91613bf4565b6040513d5f823e3d90fd5b346104e4575f3660031901126104e4576020906006548152f35b9181601f840112156104e45782359167ffffffffffffffff83116104e4576020808501948460051b0101116104e457565b6024359081151582036104e457565b9060406003198301126104e457600435916024359067ffffffffffffffff82116104e457613ca391600401613c33565b9091565b346104e4575f3660031901126104e4576020604051620f42408152f35b60409060031901126104e4576004356001600160a01b03811681036104e4579060243590565b8054821015613cff575f5260205f2001905f90565b634e487b7160e01b5f52603260045260245ffd5b60606003198201126104e45760043591602435916044359067ffffffffffffffff82116104e457613ca391600401613c33565b15613d4d57565b60405162461bcd60e51b815260206004820152600e60248201526d14da5e99481d1bdbc81cdb585b1b60921b6044820152606490fd5b15613d8a57565b60405162461bcd60e51b81526020600482015260086024820152672737ba1037b832b760c11b6044820152606490fd5b15613dc157565b60405162461bcd60e51b81526020600482015260096024820152682737ba1037bbb732b960b91b6044820152606490fd5b67ffffffffffffffff811161152957604052565b610260810190811067ffffffffffffffff82111761152957604052565b90601f8019910116810190811067ffffffffffffffff82111761152957604052565b9160208181850182865252604084019360408360051b82010194845f925b858410613e74575050505050505090565b90919293949596603f198282030184528735601e19843603018112156104e457830186810191903567ffffffffffffffff81116104e45780360383136104e45787828280600196849695859652848401375f828201840152601f01601f1916010199019796959190910193019190613e63565b91908260409103126104e4576020825192015190565b15613f0457565b60405162461bcd60e51b815260206004820152601160248201527014db1a5c1c1859d948195e18d959591959607a1b6044820152606490fd5b9081526001600160a01b03909116602082015290151560408201526060810191909152608081019190915260a00190565b8115613f78570490565b634e487b7160e01b5f52601260045260245ffd5b91908201809211613f9957565b634e487b7160e01b5f52601160045260245ffd5b600160ff1b8114613f99575f0390565b81810292918115918404141715613f9957565b91908203918211613f9957565b9081526001600160a01b0390911660208201529015156040820152606081019190915260800190565b908160209103126104e457516001600160a01b03811681036104e45790565b1561402c57565b60405162461bcd60e51b815260206004820152601060248201526f496e76616c696420545020707269636560801b6044820152606490fd5b1561406b57565b60405162461bcd60e51b815260206004820152601060248201526f496e76616c696420534c20707269636560801b6044820152606490fd5b156140aa57565b60405162461bcd60e51b815260206004820152600a6024820152694e6f742061637469766560b01b6044820152606490fd5b906040516140e981613e06565b610240601082948054845260ff600182015460018060a01b038116602087015260a01c16151560408501526002810154606085015260038101546080850152600481015460a0850152600581015460c085015260ff600682015481811660e087015260081c161515610100850152600781015461012085015260088101546101408501526009810154610160850152600a810154610180850152600b8101546101a0850152600c8101546101c0850152600d8101546101e0850152600e810154610200850152600f8101546102208501520154910152565b3d156141fb573d9067ffffffffffffffff821161152957604051916141f0601f8201601f191660200184613e23565b82523d5f602084013e565b606090565b5f198114613f995760010190565b8054680100000000000000008110156115295761423091600182018155613cea565b819291549060031b91821b915f19901b1916179055565b1561424e57565b60405162461bcd60e51b815260206004820152600b60248201526a16995c9bc8185b5bdd5b9d60aa1b6044820152606490fd5b519081151582036104e457565b1561429557565b60405162461bcd60e51b8152602060048201526015602482015274576f756c64206265206c6971756964617461626c6560581b6044820152606490fd5b156142d957565b60405162461bcd60e51b815260206004820152600f60248201526e436f6f6c646f776e2061637469766560881b6044820152606490fd5b81810392915f138015828513169184121617613f9957565b81810292915f8212600160ff1b821416613f99578184051490151715613f9957565b8115613f7857600160ff1b81145f19831416613f99570590565b9190915f8382019384129112908015821691151617613f9957565b9190925f9084151580614aae575b15614a7757835f52600760205260405f20926143af60ff600886015416613d83565b6143c660018060a01b036001860154163314613dba565b6007840154600154604051636d78097360e11b815290602090829060049082906001600160a01b03165afa908115613c0e575f91614a43575b506106699061440d92613f8c565b816149e4575b505060018060a01b0360035416906040835460248251809581936331d98b3f60e01b835260048301525afa9182156149d75781926149b5575b50612710948581146149a45761448b9561449160028601548261446f8583613fbd565b0498899361448260038a01549687613fbd565b04938492613fd0565b93613fd0565b94620f424080841061496957861061492457600181015460a01c60ff1615614909576144d360048201546144ce8a6144c9838a614310565b614328565b61434a565b60018060a01b0360015416906040519463e4d8cbe560e01b86528a6004870152866024870152602086604481865afa958615611a72578b889182986148cd575b5063d693a40061453f61452b602093600b5490613fbd565b614539600c8a015442613fd0565b90613fbd565b0494602487546040519485938492637cc6765f60e11b845260048401525af18015610571576148a2575b506001548454604051634655f1eb60e01b815260048101829052909491602090829060249082906001600160a01b03165afa9081156148975789939291878f928692614859575b50926145ff670de0b6b3a764000061463e9798946145d961460495600b61460a99015490614310565b60018d01549a5060a08b901c60ff1615614840576145f691614328565b05915b8c614364565b614364565b90614310565b998160028701558060038701556146218183613f6e565b600587015542600c87015560ff8460a01c16916004870154614e02565b60068401556001546001600160a01b031691823b156103fd5761468e928792838d936040519687958694859363019ca2b960e51b855260ff8260a01c169160018060a01b03169060048601613fdd565b03925af180156104935790859161482c575b5086136147d2575b600254600191909101546001600160a01b039182169116813b15610f075760405163118f304360e01b81526001600160a01b0391909116600482015260248101839052604481018790529084908290606490829084905af180156104ef579084916147be575b505081151590816147ac575b5061475a575b5050604051938452602084015260408301527f5cc0748e06097a585a6534dafcca64d5cc367340dff0e00469484e8269a7ca7b60603393a3565b6002546001600160a01b031690813b1561142e5782916024839260405194859384926335b8e71360e01b845260048401525af180156104015715614720576147a28291613df2565b6101b75780614720565b6147b69150613fad565b84135f61471a565b6147c790613df2565b61142e57825f61470e565b6001546001600160a01b0316803b15610f075784809160246040518094819363630304f960e11b83528c60048401525af1801561049357908591614818575b50506146a8565b61482190613df2565b61040c57835f614811565b61483590613df2565b61040c57835f6146a0565b61484d9061485292614328565b613fad565b05916145f9565b95505050506020833d60201161488f575b8161487760209383613e23565b810103126104e45791518892908d90876145ff6145b0565b3d915061486a565b6040513d8b823e3d90fd5b602090813d83116148c6575b6148b88183613e23565b810103126104e4575f614569565b503d6148ae565b975050506020863d602011614901575b816148ea60209383613e23565b810103126104e457945194868b63d693a400614513565b3d91506148dd565b61491f60048201546144ce8a6144c98984614310565b6144d3565b60405162461bcd60e51b815260206004820152601e60248201527f52656d61696e64657220636f6c6c61746572616c20746f6f20736d616c6c00006044820152606490fd5b60405162461bcd60e51b815260206004820152601360248201527214995b585a5b99195c881d1bdbc81cdb585b1b606a1b6044820152606490fd5b50509190506149b3925061510a565b565b6149cf91925060403d60401161056a5761055a8183613e23565b50905f61444c565b50604051903d90823e3d90fd5b6003546001600160a01b031691823b156104e457604051631df3cbc560e31b8152925f92849283918291614a1b9160048401613e45565b039134905af18015613c0e57614a32575b80614413565b614a3c9150613df2565b5f80614a2c565b90506020813d602011614a6f575b81614a5e60209383613e23565b810103126104e4575161440d6143ff565b3d9150614a51565b60405162461bcd60e51b815260206004820152600f60248201526e125b9d985b1a59081c195c98d95b9d608a1b6044820152606490fd5b5061271085111561438d565b906040516101c0810181811067ffffffffffffffff821117611529576040526101a0600c82948054845260ff600182015460018060a01b038116602087015260a01c16151560408501526002810154606085015260038101546080850152600481015460a0850152600581015460c0850152600681015460e0850152600781015461010085015260ff60088201541615156101208501526009810154610140850152600a810154610160850152600b8101546101808501520154910152565b60025f5414614b885760025f55565b604051633ee5aeb560e01b8152600490fd5b916064602092935f60018060a01b03938460045416908560405198899788966323b872dd60e01b885216600487015216602485015260448401525af1908115613c0e575f91614c27575b5015614bec57565b60405162461bcd60e51b8152602060048201526013602482015272151c985b9cd9995c919c9bdb4819985a5b1959606a1b6044820152606490fd5b90506020813d602011614c59575b81614c4260209383613e23565b810103126104e457614c5390614281565b5f614be4565b3d9150614c35565b90614c6e61027183614aba565b91600154905f60018060a01b03808354604095865191637cc6765f60e11b83526004830152816024815f6020978895165af18015614da757908391614dd9575b5050614cbc6102b485614aba565b875f8213614dc6575b505086151580614db9575b15614db15760038401614ce4888254613fd0565b90558060025416803b156104e4575f8091602488518094819363ff20b48d60e01b83528d60048401525af18015614da757614d94575b505b42600c85015560015416918184546024875180968193634655f1eb60e01b835260048301525afa948515614d8a575093614d59575b5050600b0155565b9080929350813d8311614d83575b614d718183613e23565b810103126104e4575190600b5f614d51565b503d614d67565b51903d90823e3d90fd5b614d9f919350613df2565b5f915f614d1a565b86513d5f823e3d90fd5b5f9650614d1c565b5060038401548710614cd0565b614dd1929850613f8c565b955f80614cc5565b813d8311614dfb575b614dec8183613e23565b810103126104e457815f614cae565b503d614de2565b9192909261232890818102918183041490151715613f99576001546040516335123baf60e21b81526127109283900491602090829060049082906001600160a01b03165afa908115613c0e575f91614ecc575b50600a8101809111613f9957614e6c839187613fbd565b0490808210614ebc5750506064840284810460641485151715613f995704905b15614ea557614ea292611d0b6129679284613fbd565b90565b614ea292611d0b614eb69284613fbd565b90613f8c565b614ec69250613fd0565b90614e8c565b90506020813d602011614ef6575b81614ee760209383613e23565b810103126104e457515f614e55565b3d9150614eda565b6004805460405163a9059cbb60e01b81526001600160a01b0393841692810192909252602482019390935291602091839160449183915f91165af1908115613c0e575f91614f86575b5015614f4f57565b60405162461bcd60e51b815260206004820152600f60248201526e151c985b9cd9995c8819985a5b1959608a1b6044820152606490fd5b90506020813d602011614fb8575b81614fa160209383613e23565b810103126104e457614fb290614281565b5f614f47565b3d9150614f94565b60015460408051631db0457960e11b815260048101939093525f9392916001600160a01b039082908490602490829085165afa928315615100575f905f946150de575b508061507d575b5082615018575b5050509050565b6020600491600154168351928380926361d027b360e01b82525afa918215615074575061504c939491615055575b50614efe565b805f8080615011565b61506e915060203d602011610d1c57610d0e8183613e23565b5f615046565b513d86823e3d90fd5b61508b818360025416614efe565b816002541690813b156104e4575f9160248392865194859384926302102c9760e11b845260048401525af180156150d4571561500a576150cc919550613df2565b5f935f61500a565b83513d5f823e3d90fd5b90506150f8919350823d841161056a5761055a8183613e23565b92905f615003565b82513d5f823e3d90fd5b91905f92805f5260209160078352604090815f20600881019061513060ff835416613d83565b60018101805460a01c60ff16156154805761516160048301546144ce6151568288614310565b600286015490614328565b60018060a01b03928360015416906002810180549389519363e4d8cbe560e01b8552600495868601525f60248601528c85604481845afa948515615476578b92918e915f97615442575b50905f9160246151bd61027189614aba565b95885490519485938492637cc6765f60e11b84528d8401525af1801561543857908e9161540f575b5050614604615204926145ff6151fd6102b488614aba565b9188614364565b875460ff191690975560015482548654925490918816803b156104e4575f92838a61524f8f958b96519889978896879563019ca2b960e51b875260ff8460a01c169316918601613fdd565b03925af18015615405576153f2575b508b86136153a3575b8b85600254166003878754169301928354823b1561040c578b5163118f304360e01b81526001600160a01b039092168288019081526020810191909152604081018a90529091839183919082908490829060600103925af1801561539957615381575b5050811515908161536e575b50615312575b50507f356fca566f3a054a459c7224d9c9d634f31a98835cfd4fb4c5ddbf8b96aca21195969798505416958351928352820152a3565b8a90846002541692833b1561142e57602490838a5195869485936335b8e71360e01b85528401525af180156153645761534c575b806152dc565b6153568a91613df2565b6153605788615346565b8880fd5b86513d8c823e3d90fd5b615379915054613fad565b85135f6152d6565b61538a90613df2565b615395578b5f6152ca565b8b80fd5b8a513d84823e3d90fd5b8b8560015416803b156104645781809160248c518094819363630304f960e11b83528d8b8401525af18015615399576153de575b5050615267565b6153e790613df2565b615395578b5f6153d7565b6153fd919c50613df2565b5f9a5f61525e565b89513d5f823e3d90fd5b813d8311615431575b6154228183613e23565b810103126104e4578c5f6151e5565b503d615418565b8c513d5f823e3d90fd5b9350955082813d831161546f575b61545a8183613e23565b810103126104e4575f8d8c93519690916151ab565b503d615450565b8b513d5f823e3d90fd5b61549560048301546144ce6151568783614310565b615161565b6154c863d693a400916154c360606154b76101a084015142613fd0565b920151600b5490613fbd565b613fbd565b0490565b60018060a01b03600154169060208151602460405180958193634655f1eb60e01b835260048301525afa918215613c0e575f9261554a575b5061551e670de0b6b3a76400009261018083015190614310565b604082015115615539576060615535920151614328565b0590565b61484d906060615535930151614328565b91506020823d602011615578575b8161556560209383613e23565b810103126104e45790519061551e615504565b3d915061555856fe52ca44dea94749aadfaa4d3749a0323a33b3a6434adcfff52ad54c511f5579c7a26469706673582212208d456388a5b1c59d71cf40b5d39ec3866713e10f439368535d575ed991dcb56764736f6c63430008180033",
  "linkReferences": {},
  "deployedLinkReferences": {},
  "immutableReferences": {},
  "inputSourceName": "project/src/ConfidentialTrading.sol",
  "buildInfoId": "solc-0_8_24-7edb3ce04e1737f0f525a27d30297d14643a819a"
}