{
  "_format": "hh3-artifact-1",
  "contractName": "ConfidentialTrading",
  "sourceName": "src/ConfidentialTrading.sol",
  "abi": [
    {
      "inputs": [
        {
          "internalType": "address",
          "name": "_usdc",
          "type": "address"
        },
        {
          "internalType": "address",
          "name": "_core",
          "type": "address"
        },
        {
          "internalType": "address",
          "name": "_vault",
          "type": "address"
        },
        {
          "internalType": "address",
          "name": "_oracle",
          "type": "address"
        }
      ],
      "stateMutability": "nonpayable",
      "type": "constructor"
    },
    {
      "inputs": [],
      "name": "ReentrancyGuardReentrantCall",
      "type": "error"
    },
    {
      "anonymous": false,
      "inputs": [
        {
          "indexed": true,
          "internalType": "uint256",
          "name": "positionId",
          "type": "uint256"
        },
        {
          "indexed": true,
          "internalType": "address",
          "name": "trader",
          "type": "address"
        },
        {
          "indexed": false,
          "internalType": "uint256",
          "name": "amount",
          "type": "uint256"
        },
        {
          "indexed": false,
          "internalType": "uint256",
          "name": "newLiquidationPrice",
          "type": "uint256"
        }
      ],
      "name": "CollateralAdded",
      "type": "event"
    },
    {
      "anonymous": false,
      "inputs": [
        {
          "indexed": true,
          "internalType": "uint256",
          "name": "positionId",
          "type": "uint256"
        },
        {
          "indexed": true,
          "internalType": "address",
          "name": "trader",
          "type": "address"
        },
        {
          "indexed": false,
          "internalType": "uint256",
          "name": "amount",
          "type": "uint256"
        },
        {
          "indexed": false,
          "internalType": "uint256",
          "name": "newLiquidationPrice",
          "type": "uint256"
        }
      ],
      "name": "CollateralRemoved",
      "type": "event"
    },
    {
      "anonymous": false,
      "inputs": [
        {
          "indexed": true,
          "internalType": "uint256",
          "name": "orderId",
          "type": "uint256"
        }
      ],
      "name": "OrderCancelled",
      "type": "event"
    },
    {
      "anonymous": false,
      "inputs": [
        {
          "indexed": true,
          "internalType": "uint256",
          "name": "orderId",
          "type": "uint256"
        },
        {
          "indexed": true,
          "internalType": "uint256",
          "name": "positionId",
          "type": "uint256"
        }
      ],
      "name": "OrderExecuted",
      "type": "event"
    },
    {
      "anonymous": false,
      "inputs": [
        {
          "indexed": true,
          "internalType": "uint256",
          "name": "orderId",
          "type": "uint256"
        },
        {
          "indexed": true,
          "internalType": "address",
          "name": "trader",
          "type": "address"
        },
        {
          "indexed": false,
          "internalType": "bytes32",
          "name": "pairId",
          "type": "bytes32"
        },
        {
          "indexed": false,
          "internalType": "uint8",
          "name": "orderType",
          "type": "uint8"
        },
        {
          "indexed": false,
          "internalType": "uint256",
          "name": "triggerPrice",
          "type": "uint256"
        }
      ],
      "name": "OrderPlaced",
      "type": "event"
    },
    {
      "anonymous": false,
      "inputs": [
        {
          "indexed": true,
          "internalType": "uint256",
          "name": "positionId",
          "type": "uint256"
        },
        {
          "indexed": true,
          "internalType": "address",
          "name": "trader",
          "type": "address"
        },
        {
          "indexed": false,
          "internalType": "uint256",
          "name": "exitPrice",
          "type": "uint256"
        },
        {
          "indexed": false,
          "internalType": "int256",
          "name": "pnl",
          "type": "int256"
        }
      ],
      "name": "PositionClosed",
      "type": "event"
    },
    {
      "anonymous": false,
      "inputs": [
        {
          "indexed": true,
          "internalType": "uint256",
          "name": "positionId",
          "type": "uint256"
        },
        {
          "indexed": true,
          "internalType": "address",
          "name": "trader",
          "type": "address"
        },
        {
          "indexed": false,
          "internalType": "uint256",
          "name": "additionalSizeUsd",
          "type": "uint256"
        },
        {
          "indexed": false,
          "internalType": "uint256",
          "name": "newEntryPrice",
          "type": "uint256"
        },
        {
          "indexed": false,
          "internalType": "uint256",
          "name": "newLiquidationPrice",
          "type": "uint256"
        }
      ],
      "name": "PositionIncreased",
      "type": "event"
    },
    {
      "anonymous": false,
      "inputs": [
        {
          "indexed": true,
          "internalType": "uint256",
          "name": "positionId",
          "type": "uint256"
        },
        {
          "indexed": true,
          "internalType": "address",
          "name": "trader",
          "type": "address"
        },
        {
          "indexed": false,
          "internalType": "uint256",
          "name": "executionPrice",
          "type": "uint256"
        },
        {
          "indexed": true,
          "internalType": "address",
          "name": "liquidator",
          "type": "address"
        },
        {
          "indexed": false,
          "internalType": "uint256",
          "name": "reward",
          "type": "uint256"
        }
      ],
      "name": "PositionLiquidated",
      "type": "event"
    },
    {
      "anonymous": false,
      "inputs": [
        {
          "indexed": true,
          "internalType": "uint256",
          "name": "positionId",
          "type": "uint256"
        },
        {
          "indexed": true,
          "internalType": "address",
          "name": "trader",
          "type": "address"
        },
        {
          "indexed": false,
          "internalType": "bytes32",
          "name": "pairId",
          "type": "bytes32"
        },
        {
          "indexed": false,
          "internalType": "bool",
          "name": "isLong",
          "type": "bool"
        },
        {
          "indexed": false,
          "internalType": "uint256",
          "name": "sizeUsd",
          "type": "uint256"
        },
        {
          "indexed": false,
          "internalType": "uint256",
          "name": "entryPrice",
          "type": "uint256"
        },
        {
          "indexed": false,
          "internalType": "uint256",
          "name": "leverage",
          "type": "uint256"
        }
      ],
      "name": "PositionOpened",
      "type": "event"
    },
    {
      "anonymous": false,
      "inputs": [
        {
          "indexed": true,
          "internalType": "uint256",
          "name": "positionId",
          "type": "uint256"
        },
        {
          "indexed": true,
          "internalType": "address",
          "name": "trader",
          "type": "address"
        },
        {
          "indexed": false,
          "internalType": "uint256",
          "name": "closeSizeUsd",
          "type": "uint256"
        },
        {
          "indexed": false,
          "internalType": "uint256",
          "name": "exitPrice",
          "type": "uint256"
        },
        {
          "indexed": false,
          "internalType": "int256",
          "name": "pnl",
          "type": "int256"
        }
      ],
      "name": "PositionPartialClose",
      "type": "event"
    },
    {
      "anonymous": false,
      "inputs": [
        {
          "indexed": true,
          "internalType": "uint256",
          "name": "positionId",
          "type": "uint256"
        },
        {
          "indexed": false,
          "internalType": "bool",
          "name": "isTakeProfit",
          "type": "bool"
        },
        {
          "indexed": false,
          "internalType": "uint256",
          "name": "executionPrice",
          "type": "uint256"
        }
      ],
      "name": "TPSLTriggered",
      "type": "event"
    },
    {
      "anonymous": false,
      "inputs": [
        {
          "indexed": true,
          "internalType": "uint256",
          "name": "orderId",
          "type": "uint256"
        },
        {
          "indexed": false,
          "internalType": "uint256",
          "name": "sliceNumber",
          "type": "uint256"
        },
        {
          "indexed": false,
          "internalType": "uint256",
          "name": "sizeUsd",
          "type": "uint256"
        }
      ],
      "name": "TWAPSliceExecuted",
      "type": "event"
    },
    {
      "inputs": [],
      "name": "MIN_COLLATERAL",
      "outputs": [
        {
          "internalType": "uint256",
          "name": "",
          "type": "uint256"
        }
      ],
      "stateMutability": "view",
      "type": "function"
    },
    {
      "inputs": [],
      "name": "MIN_POSITION_SIZE",
      "outputs": [
        {
          "internalType": "uint256",
          "name": "",
          "type": "uint256"
        }
      ],
      "stateMutability": "view",
      "type": "function"
    },
    {
      "inputs": [
        {
          "internalType": "uint256",
          "name": "positionId",
          "type": "uint256"
        },
        {
          "internalType": "uint256",
          "name": "amount",
          "type": "uint256"
        }
      ],
      "name": "addCollateral",
      "outputs": [],
      "stateMutability": "nonpayable",
      "type": "function"
    },
    {
      "inputs": [
        {
          "internalType": "uint256",
          "name": "orderId",
          "type": "uint256"
        }
      ],
      "name": "cancelOrder",
      "outputs": [],
      "stateMutability": "nonpayable",
      "type": "function"
    },
    {
      "inputs": [
        {
          "internalType": "uint256",
          "name": "positionId",
          "type": "uint256"
        },
        {
          "internalType": "bytes[]",
          "name": "updateData",
          "type": "bytes[]"
        }
      ],
      "name": "closePositionInstantly",
      "outputs": [],
      "stateMutability": "payable",
      "type": "function"
    },
    {
      "inputs": [
        {
          "internalType": "uint256",
          "name": "positionId",
          "type": "uint256"
        },
        {
          "internalType": "uint256",
          "name": "closePercent",
          "type": "uint256"
        },
        {
          "internalType": "bytes[]",
          "name": "updateData",
          "type": "bytes[]"
        }
      ],
      "name": "closePositionPartial",
      "outputs": [],
      "stateMutability": "payable",
      "type": "function"
    },
    {
      "inputs": [],
      "name": "core",
      "outputs": [
        {
          "internalType": "contract ConfidentialCore",
          "name": "",
          "type": "address"
        }
      ],
      "stateMutability": "view",
      "type": "function"
    },
    {
      "inputs": [
        {
          "internalType": "uint256",
          "name": "positionId",
          "type": "uint256"
        }
      ],
      "name": "createCloseRequest",
      "outputs": [
        {
          "internalType": "uint256",
          "name": "orderId",
          "type": "uint256"
        }
      ],
      "stateMutability": "payable",
      "type": "function"
    },
    {
      "inputs": [
        {
          "internalType": "bytes32",
          "name": "pairId",
          "type": "bytes32"
        },
        {
          "internalType": "bool",
          "name": "isLong",
          "type": "bool"
        },
        {
          "internalType": "uint256",
          "name": "totalSizeUsd",
          "type": "uint256"
        },
        {
          "internalType": "uint256",
          "name": "leverage",
          "type": "uint256"
        },
        {
          "internalType": "uint256",
          "name": "slices",
          "type": "uint256"
        },
        {
          "internalType": "uint256",
          "name": "intervalSec",
          "type": "uint256"
        },
        {
          "internalType": "uint256",
          "name": "tpPrice",
          "type": "uint256"
        },
        {
          "internalType": "uint256",
          "name": "slPrice",
          "type": "uint256"
        }
      ],
      "name": "createTwapOrder",
      "outputs": [
        {
          "internalType": "uint256",
          "name": "orderId",
          "type": "uint256"
        }
      ],
      "stateMutability": "payable",
      "type": "function"
    },
    {
      "inputs": [
        {
          "internalType": "uint256[]",
          "name": "positionIds",
          "type": "uint256[]"
        },
        {
          "internalType": "bytes[]",
          "name": "updateData",
          "type": "bytes[]"
        }
      ],
      "name": "executeADL",
      "outputs": [],
      "stateMutability": "payable",
      "type": "function"
    },
    {
      "inputs": [
        {
          "internalType": "uint256",
          "name": "orderId",
          "type": "uint256"
        },
        {
          "internalType": "bytes[]",
          "name": "updateData",
          "type": "bytes[]"
        }
      ],
      "name": "executeOrder",
      "outputs": [],
      "stateMutability": "payable",
      "type": "function"
    },
    {
      "inputs": [
        {
          "internalType": "address",
          "name": "trader",
          "type": "address"
        },
        {
          "internalType": "bytes32",
          "name": "pairId",
          "type": "bytes32"
        },
        {
          "internalType": "bool",
          "name": "isLong",
          "type": "bool"
        },
        {
          "internalType": "uint256",
          "name": "sizeUsd",
          "type": "uint256"
        },
        {
          "internalType": "uint256",
          "name": "collateral",
          "type": "uint256"
        },
        {
          "internalType": "uint256",
          "name": "matchPrice",
          "type": "uint256"
        },
        {
          "internalType": "bool",
          "name": "isMaker",
          "type": "bool"
        }
      ],
      "name": "executeP2POpen",
      "outputs": [],
      "stateMutability": "nonpayable",
      "type": "function"
    },
    {
      "inputs": [
        {
          "internalType": "uint256",
          "name": "positionId",
          "type": "uint256"
        },
        {
          "internalType": "bytes[]",
          "name": "updateData",
          "type": "bytes[]"
        }
      ],
      "name": "executeTPSL",
      "outputs": [],
      "stateMutability": "payable",
      "type": "function"
    },
    {
      "inputs": [
        {
          "internalType": "uint256",
          "name": "",
          "type": "uint256"
        }
      ],
      "name": "hasActiveCloseRequest",
      "outputs": [
        {
          "internalType": "bool",
          "name": "",
          "type": "bool"
        }
      ],
      "stateMutability": "view",
      "type": "function"
    },
    {
      "inputs": [
        {
          "internalType": "uint256",
          "name": "positionId",
          "type": "uint256"
        },
        {
          "internalType": "uint256",
          "name": "additionalSizeUsd",
          "type": "uint256"
        },
        {
          "internalType": "uint256",
          "name": "additionalLeverage",
          "type": "uint256"
        },
        {
          "internalType": "uint256",
          "name": "acceptablePrice",
          "type": "uint256"
        },
        {
          "internalType": "bytes[]",
          "name": "updateData",
          "type": "bytes[]"
        }
      ],
      "name": "increasePosition",
      "outputs": [],
      "stateMutability": "payable",
      "type": "function"
    },
    {
      "inputs": [
        {
          "internalType": "uint256",
          "name": "positionId",
          "type": "uint256"
        },
        {
          "internalType": "bytes[]",
          "name": "updateData",
          "type": "bytes[]"
        }
      ],
      "name": "liquidate",
      "outputs": [],
      "stateMutability": "payable",
      "type": "function"
    },
    {
      "inputs": [],
      "name": "liquidationRewardBps",
      "outputs": [
        {
          "internalType": "uint256",
          "name": "",
          "type": "uint256"
        }
      ],
      "stateMutability": "view",
      "type": "function"
    },
    {
      "inputs": [],
      "name": "maxOrderAge",
      "outputs": [
        {
          "internalType": "uint256",
          "name": "",
          "type": "uint256"
        }
      ],
      "stateMutability": "view",
      "type": "function"
    },
    {
      "inputs": [],
      "name": "nextOrderId",
      "outputs": [
        {
          "internalType": "uint256",
          "name": "",
          "type": "uint256"
        }
      ],
      "stateMutability": "view",
      "type": "function"
    },
    {
      "inputs": [],
      "name": "nextPositionId",
      "outputs": [
        {
          "internalType": "uint256",
          "name": "",
          "type": "uint256"
        }
      ],
      "stateMutability": "view",
      "type": "function"
    },
    {
      "inputs": [],
      "name": "oracle",
      "outputs": [
        {
          "internalType": "contract PythPriceOracle",
          "name": "",
          "type": "address"
        }
      ],
      "stateMutability": "view",
      "type": "function"
    },
    {
      "inputs": [],
      "name": "p2pContract",
      "outputs": [
        {
          "internalType": "address",
          "name": "",
          "type": "address"
        }
      ],
      "stateMutability": "view",
      "type": "function"
    },
    {
      "inputs": [
        {
          "internalType": "uint256",
          "name": "",
          "type": "uint256"
        }
      ],
      "name": "pendingOrders",
      "outputs": [
        {
          "internalType": "bytes32",
          "name": "pairId",
          "type": "bytes32"
        },
        {
          "internalType": "address",
          "name": "trader",
          "type": "address"
        },
        {
          "internalType": "bool",
          "name": "isLong",
          "type": "bool"
        },
        {
          "internalType": "uint256",
          "name": "sizeUsd",
          "type": "uint256"
        },
        {
          "internalType": "uint256",
          "name": "collateral",
          "type": "uint256"
        },
        {
          "internalType": "uint256",
          "name": "leverage",
          "type": "uint256"
        },
        {
          "internalType": "uint256",
          "name": "triggerPrice",
          "type": "uint256"
        },
        {
          "internalType": "uint8",
          "name": "orderType",
          "type": "uint8"
        },
        {
          "internalType": "bool",
          "name": "isActive",
          "type": "bool"
        },
        {
          "internalType": "uint256",
          "name": "createdAt",
          "type": "uint256"
        },
        {
          "internalType": "uint256",
          "name": "positionId",
          "type": "uint256"
        },
        {
          "internalType": "uint256",
          "name": "feePaid",
          "type": "uint256"
        },
        {
          "internalType": "uint256",
          "name": "executionFee",
          "type": "uint256"
        },
        {
          "internalType": "uint256",
          "name": "tpPrice",
          "type": "uint256"
        },
        {
          "internalType": "uint256",
          "name": "slPrice",
          "type": "uint256"
        },
        {
          "internalType": "uint256",
          "name": "twapSlices",
          "type": "uint256"
        },
        {
          "internalType": "uint256",
          "name": "twapInterval",
          "type": "uint256"
        },
        {
          "internalType": "uint256",
          "name": "twapExecuted",
          "type": "uint256"
        },
        {
          "internalType": "uint256",
          "name": "twapLastExec",
          "type": "uint256"
        }
      ],
      "stateMutability": "view",
      "type": "function"
    },
    {
      "inputs": [
        {
          "internalType": "bytes32",
          "name": "pairId",
          "type": "bytes32"
        },
        {
          "internalType": "bool",
          "name": "isLong",
          "type": "bool"
        },
        {
          "internalType": "uint256",
          "name": "sizeUsd",
          "type": "uint256"
        },
        {
          "internalType": "uint256",
          "name": "leverage",
          "type": "uint256"
        },
        {
          "internalType": "uint256",
          "name": "tpPrice",
          "type": "uint256"
        },
        {
          "internalType": "uint256",
          "name": "slPrice",
          "type": "uint256"
        },
        {
          "internalType": "uint256",
          "name": "acceptablePrice",
          "type": "uint256"
        },
        {
          "internalType": "bytes[]",
          "name": "updateData",
          "type": "bytes[]"
        }
      ],
      "name": "placeMarketOrder",
      "outputs": [
        {
          "internalType": "uint256",
          "name": "posId",
          "type": "uint256"
        }
      ],
      "stateMutability": "payable",
      "type": "function"
    },
    {
      "inputs": [
        {
          "internalType": "bytes32",
          "name": "pairId",
          "type": "bytes32"
        },
        {
          "internalType": "bool",
          "name": "isLong",
          "type": "bool"
        },
        {
          "internalType": "uint256",
          "name": "sizeUsd",
          "type": "uint256"
        },
        {
          "internalType": "uint256",
          "name": "leverage",
          "type": "uint256"
        },
        {
          "internalType": "uint256",
          "name": "triggerPrice",
          "type": "uint256"
        },
        {
          "internalType": "uint8",
          "name": "orderType",
          "type": "uint8"
        },
        {
          "internalType": "uint256",
          "name": "tpPrice",
          "type": "uint256"
        },
        {
          "internalType": "uint256",
          "name": "slPrice",
          "type": "uint256"
        }
      ],
      "name": "placeOrder",
      "outputs": [
        {
          "internalType": "uint256",
          "name": "orderId",
          "type": "uint256"
        }
      ],
      "stateMutability": "payable",
      "type": "function"
    },
    {
      "inputs": [
        {
          "internalType": "uint256",
          "name": "",
          "type": "uint256"
        }
      ],
      "name": "positions",
      "outputs": [
        {
          "internalType": "bytes32",
          "name": "pairId",
          "type": "bytes32"
        },
        {
          "internalType": "address",
          "name": "trader",
          "type": "address"
        },
        {
          "internalType": "bool",
          "name": "isLong",
          "type": "bool"
        },
        {
          "internalType": "uint256",
          "name": "sizeUsd",
          "type": "uint256"
        },
        {
          "internalType": "uint256",
          "name": "collateral",
          "type": "uint256"
        },
        {
          "internalType": "uint256",
          "name": "entryPrice",
          "type": "uint256"
        },
        {
          "internalType": "uint256",
          "name": "leverage",
          "type": "uint256"
        },
        {
          "internalType": "uint256",
          "name": "liquidationPrice",
          "type": "uint256"
        },
        {
          "internalType": "uint256",
          "name": "openedAt",
          "type": "uint256"
        },
        {
          "internalType": "bool",
          "name": "isOpen",
          "type": "bool"
        },
        {
          "internalType": "uint256",
          "name": "tpPrice",
          "type": "uint256"
        },
        {
          "internalType": "uint256",
          "name": "slPrice",
          "type": "uint256"
        },
        {
          "internalType": "int256",
          "name": "entryFundingIndex",
          "type": "int256"
        },
        {
          "internalType": "uint256",
          "name": "lastRolloverSettled",
          "type": "uint256"
        }
      ],
      "stateMutability": "view",
      "type": "function"
    },
    {
      "inputs": [
        {
          "internalType": "uint256",
          "name": "positionId",
          "type": "uint256"
        },
        {
          "internalType": "uint256",
          "name": "amount",
          "type": "uint256"
        },
        {
          "internalType": "bytes[]",
          "name": "updateData",
          "type": "bytes[]"
        }
      ],
      "name": "removeCollateral",
      "outputs": [],
      "stateMutability": "payable",
      "type": "function"
    },
    {
      "inputs": [],
      "name": "rolloverFeePerHour",
      "outputs": [
        {
          "internalType": "uint256",
          "name": "",
          "type": "uint256"
        }
      ],
      "stateMutability": "view",
      "type": "function"
    },
    {
      "inputs": [
        {
          "internalType": "uint256",
          "name": "_bps",
          "type": "uint256"
        }
      ],
      "name": "setLiquidationRewardBps",
      "outputs": [],
      "stateMutability": "nonpayable",
      "type": "function"
    },
    {
      "inputs": [
        {
          "internalType": "uint256",
          "name": "_seconds",
          "type": "uint256"
        }
      ],
      "name": "setMaxOrderAge",
      "outputs": [],
      "stateMutability": "nonpayable",
      "type": "function"
    },
    {
      "inputs": [
        {
          "internalType": "address",
          "name": "_p2pContract",
          "type": "address"
        }
      ],
      "name": "setP2PContract",
      "outputs": [],
      "stateMutability": "nonpayable",
      "type": "function"
    },
    {
      "inputs": [
        {
          "internalType": "uint256",
          "name": "_fee",
          "type": "uint256"
        }
      ],
      "name": "setRolloverFeePerHour",
      "outputs": [],
      "stateMutability": "nonpayable",
      "type": "function"
    },
    {
      "inputs": [
        {
          "internalType": "uint256",
          "name": "positionId",
          "type": "uint256"
        },
        {
          "internalType": "uint256",
          "name": "newTpPrice",
          "type": "uint256"
        },
        {
          "internalType": "uint256",
          "name": "newSlPrice",
          "type": "uint256"
        }
      ],
      "name": "updateTpSl",
      "outputs": [],
      "stateMutability": "nonpayable",
      "type": "function"
    },
    {
      "inputs": [],
      "name": "usdc",
      "outputs": [
        {
          "internalType": "contract IERC20",
          "name": "",
          "type": "address"
        }
      ],
      "stateMutability": "view",
      "type": "function"
    },
    {
      "inputs": [
        {
          "internalType": "address",
          "name": "",
          "type": "address"
        },
        {
          "internalType": "uint256",
          "name": "",
          "type": "uint256"
        }
      ],
      "name": "userOrders",
      "outputs": [
        {
          "internalType": "uint256",
          "name": "",
          "type": "uint256"
        }
      ],
      "stateMutability": "view",
      "type": "function"
    },
    {
      "inputs": [
        {
          "internalType": "address",
          "name": "",
          "type": "address"
        },
        {
          "internalType": "uint256",
          "name": "",
          "type": "uint256"
        }
      ],
      "name": "userPositions",
      "outputs": [
        {
          "internalType": "uint256",
          "name": "",
          "type": "uint256"
        }
      ],
      "stateMutability": "view",
      "type": "function"
    },
    {
      "inputs": [],
      "name": "vault",
      "outputs": [
        {
          "internalType": "contract ConfidentialVault",
          "name": "",
          "type": "address"
        }
      ],
      "stateMutability": "view",
      "type": "function"
    },
    {
      "stateMutability": "payable",
      "type": "receive"
    }
  ],
  "bytecode": "0x608034620000e557601f6200601238819003918201601f19168301916001600160401b03831184841017620000e957808492608094604052833981010312620000e5576200004d81620000fd565b906200005c60208201620000fd565b6200007860606200007060408501620000fd565b9301620000fd565b9060015f55600160065560016007556014600c556064600d5562093a80600e5560018060a01b03928380928160018060a01b03199716876004541617600455168560015416176001551683600254161760025516906003541617600355604051615eff9081620001138239f35b5f80fd5b634e487b7160e01b5f52604160045260245ffd5b51906001600160a01b0382168203620000e55756fe60e080604052600436101561001c575b50361561001a575f80fd5b005b5f905f3560e01c9081632a58b3301461451d575080632c0e1e9e14613f0f5780632c338fed14613ee05780632e80f9a414613e4e5780632f703c3514613a0457806331e01f4a1461330f57806333e7dddb14612187578063368dbba8146104d85780633e413bee1461215e57806341aa303b146120f8578063458f91431461207e578063514fcac714611ea35780635e1b4d9914611e5b5780636fb197f714611b485780637dc0d1d014611b1f57806380b742581461192d578063856652e9146118d757806387f19423146114ff578063899346c7146114e15780638fb735ee146114c357806399fbab88146113f55780639bfe7e3e146111fc578063a8f35adf146110c5578063b62023541461109c578063ba7ebf5f14610fef578063c009687c14610f32578063c09403ac14610c0f578063c29433a614610bf1578063c3aaea4e14610aae578063ee6d519814610a90578063effaed8914610a72578063f2f4eb2614610a49578063f5ba8a2a146108ab578063f6614170146104dd578063fa779648146104d8578063fbfa77cf146104af5763fd5c77cd0361000f5760403660031901126104ac576001600160401b036004358181116104a8576101e7903690600401614537565b91906024916024359081116104a457610204903690600401614537565b93909161020f615469565b60018060a01b0392600195846001541691604051809363aced166160e01b825281600460209687935afa80156104995787918b9161046c575b5016330361043157908891816103c3575b50505b83811061026b57876001815580f35b610276818585615459565b358852600880835288604081208960ff809483015416156103b95750876003541692604082548b8251809781936331d98b3f60e01b835260048301525afa9384156103ae57839461037c575b50818b015460a01c161561035e57806102f260046102f79301549160026102e98488614bfc565b91015490614c14565b614c36565b131561031a5790610314889261030e838888615459565b35615a33565b0161025c565b60405162461bcd60e51b815260048101849052601c818901527f43616e6e6f742041444c2061206c6f73696e6720706f736974696f6e000000006044820152606490fd5b806102f260046103779301549160026102e98785614bfc565b6102f7565b61039f91945060403d6040116103a7575b6103978183614712565b8101906147d4565b50925f6102c2565b503d61038d565b6040513d85823e3d90fd5b9392505050610314565b866003541691823b1561042d57604051631df3cbc560e31b81529284928492839182916103f39160048401614733565b039134905af180156104225761040a575b80610259565b610413906146e3565b61041e57865f610404565b8680fd5b6040513d84823e3d90fd5b8380fd5b60405162461bcd60e51b815260048101849052601360248201527213db9b1e4812d9595c195c8818d85b88105113606a1b6044820152606490fd5b61048c9150853d8711610492575b6104848183614712565b8101906148f3565b5f610248565b503d61047a565b6040513d8c823e3d90fd5b8480fd5b8280fd5b80fd5b50346104ac57806003193601126104ac576002546040516001600160a01b039091168152602090f35b6145bf565b50806104e83661458c565b906104f4939293615469565b81610849575b50509080602492526020906008825260408420600881019061051f60ff835416614674565b6003548154604080516331d98b3f60e01b815260048101839052976001600160a01b03949293899190829087165afa96871561083e57889761081c575b50600181019160ff835460a01c165f1461080f5760068201548811155b156107d757908891828861059461058f8561539b565b615dc3565b9260248860015416916040519485938492637cc6765f60e11b845260048401525af190811561077d5789916107a4575b50506105d76105d28361539b565b615df5565b81848213610793575b50506003820154908181111561078857506105fb81806148bd565b9161271061060b600d54856148aa565b049660ff1981541690558560015416908054906002875491015492803b1561041e578692838a61065b6040519788968795869463019ca2b960e51b865260ff8360a01c16921690600486016148ca565b03925af190811561077d578491610769575b505080610711575b508360025416908484541690823b1561042d57608484928360405195869485936309c0533b60e01b8552600485015233602485015260448401528a60648401525af18015610422576106fd575b50505416926040519485528401527f3b7bc7c0fdc798ac653b9f0d6d28adb2293a55402d32c21d323da740ccc6553960403394a46001815580f35b610706906146e3565b61041e57865f6106c2565b846002541690813b1561042d57839160248392604051948593849263ff20b48d60e01b845260048401525af19081156103ae578391610751575b50610675565b61075a906146e3565b61076557815f61074b565b5080fd5b610772906146e3565b6104a857825f61066d565b6040513d86823e3d90fd5b6105fb9080926148bd565b61079d9250614879565b5f806105e0565b90809294503d83116107d0575b6107bb8183614712565b810103126107cc578891875f6105c4565b5f80fd5b503d6107b1565b60405162461bcd60e51b815260048101889052601060248201526f4e6f74206c6971756964617461626c6560801b6044820152606490fd5b6006820154881015610579565b61083691975060403d6040116103a7576103978183614712565b50955f61055c565b6040513d8a823e3d90fd5b6003546001600160a01b031691823b1561042d57604051631df3cbc560e31b81529284928492839182916108809160048401614733565b039134905af1801561042257610897575b806104fa565b6108a0906146e3565b61076557815f610891565b506108b53661458c565b91906108bf615469565b81845260086020528360408120936108dd60ff600887015416614674565b60018501546001600160a01b0393906108f990851633146146ab565b600460078701546020866001541660405193848092636d78097360e11b82525afa918215610a3e578592610a05575b5061093e9161093691614879565b421015614bbe565b816109aa575b50505060409060035416925460248251809581936331d98b3f60e01b835260048301525afa9081156103ae57610981928492610988575b50615a33565b6001815580f35b6109a291925060403d6040116103a7576103978183614712565b50905f61097b565b836003541691823b1561042d57604051631df3cbc560e31b81529284928492839182916109da9160048401614733565b039134905af18015610422576109f1575b80610944565b6109fa906146e3565b61042d57835f6109eb565b945090506020843d602011610a36575b81610a2260209383614712565b810103126107cc5792518793610936610928565b3d9150610a15565b6040513d87823e3d90fd5b50346104ac57806003193601126104ac576001546040516001600160a01b039091168152602090f35b50346104ac57806003193601126104ac576020600d54604051908152f35b50610981610a9d36614605565b92610aa9929192615469565b614c6b565b50346104ac5760203660031901126104ac57600435815260096020526040902080808054600182015460c05260028201546003830154600484015460058501546006860154600787015490600888015492600989015494600a8a015496600b8b015498600c8c01549a600d8d01549c600e01549d600f01549e6010015460805260405160a05260a05152600160a01b6001900360c0511660a0516020015260c05160a01c60ff16151560a0516040015260a0516060015260a0516080015260a05160a0015260a05160c0015260ff811660a05160e0015260081c60ff16151560a051610100015260a051610120015260a051610140015260a051610160015260a051610180015260a0516101a0015260a0516101c0015260a0516101e0015260a051610200015260a051610220015260805160a051610240015260a05161026090f35b50346104ac57806003193601126104ac576020600e54604051908152f35b506101003660031901126104ac57610c2561457d565b60a4359160ff831683036104ac57610c3b615469565b610c4c620f42406044351015614637565b600160ff841611610eed5760c435610ea8575b60e435610e63575b6001546001600160a01b031691823b156107655760405163bd79156f60e01b8152828180610ca260643560443587336004803590870161482a565b0381875afa80156103ae57908391610e4f575b505060405163e4d8cbe560e01b815260448035600483015260ff86161560248301529093602091859182905afa928315610422578293610e18575b5090602093600192610d0660643560443561485b565b94610d1b610d148288614879565b303361548a565b60075495610d2887614912565b60075586855260098852604085206004358155868101805460ff60a01b1933166001600160a81b03199091161794151560a01b60ff60a01b169490941790935560443560028401556003830155606435600483015560843560058301556006820161010060ff851661ffff1983541617179055426007830155600982015534600a82015560c435600b820155600c60e435910155338252600b8552610dd08460408420614920565b60ff60405191600435835216858201526084356040820152837f401524beccff0d9dd3447788dea32e11f3b7c9618ed6084f14a773dbf2025f1660603393a355604051908152f35b919092506020823d602011610e47575b81610e3560209383614712565b810103126107cc579051916020610cf0565b3d9150610e28565b610e58906146e3565b61076557815f610cb5565b8115610e925760843560e435108015610e85575b610e8090614998565b610c67565b5060ff8316600214610e77565b60843560e435118015610e8557610e8090614998565b8115610ed75760843560c435118015610eca575b610ec590614959565b610c5f565b5060ff8316600214610ebc565b60843560c435108015610eca57610ec590614959565b60405162461bcd60e51b815260206004820152601f60248201527f55736520706c6163654d61726b65744f7264657220666f72206d61726b6574006044820152606490fd5b50346104ac5760203660031901126104ac57600154604051638da5cb5b60e01b815260048035926001600160a01b0391602091849190829085165afa801561077d57610f88928591610fd0575b501633146146ab565b60c88111610f9657600c5580f35b60405162461bcd60e51b815260206004820152601260248201527126b0bc101817181912903832b9103437bab960711b6044820152606490fd5b610fe9915060203d602011610492576104848183614712565b5f610f7f565b50346104ac5760203660031901126104ac57600154604051638da5cb5b60e01b815260048035926001600160a01b0391602091849190829085165afa801561077d57611044928591610fd057501633146146ab565b610e108110158061108f575b1561105b57600e5580f35b60405162461bcd60e51b815260206004820152600c60248201526b31682d3330642072616e676560a01b6044820152606490fd5b5062278d00811115611050565b50346104ac57806003193601126104ac576005546040516001600160a01b039091168152602090f35b50346104ac5760403660031901126104ac576024356004356110e5615469565b6110f0821515614b33565b80835260086020526040832061110c60ff600883015416614674565b60018101908460018060a01b036111278185541633146146ab565b6111368682600254163361548a565b60025416803b1561076557818091602460405180948193636e93ae2b60e01b83528b60048401525af18015610422576111e8575b50506111ab60069260038301611181878254614879565b8091556002840154611193828261485b565b600586015560ff6004860154935460a01c1692615726565b918291015560405192835260208301527f935a476d8eb416e1441bbdc27477a7d90012bed1a74dba06f77fc32b8b119bd860403393a36001815580f35b6111f1906146e3565b6104a457845f61116a565b50602090816003193601126104ac5760043590611217615469565b818152600883526040812060ff600882015416156113bc5760018101546001600160a01b039061124a90821633146146ab565b838352600f855260ff604084205416611380576007820154600154604051636d78097360e11b8152949392879186916004918391165afa9384156103ae57839461134f575b5061093660019461129f92614879565b838252600f855260408220805460ff191684179055600754936112c185614912565b600755848352600986526040832090848201336bffffffffffffffffffffffff60a01b8254161790556006820161010361ffff198254161790554260078301556008820155600a3491015554604051908152600385820152816040820152837f401524beccff0d9dd3447788dea32e11f3b7c9618ed6084f14a773dbf2025f1660603393a355604051908152f35b93508584813d8311611379575b6113668183614712565b810103126107cc5792519261093661128f565b503d61135c565b60405162461bcd60e51b8152600481018690526014602482015273436c6f736520726571756573742065786973747360601b6044820152606490fd5b60405162461bcd60e51b81526004810185905260116024820152702837b9b4ba34b7b7103737ba1037b832b760791b6044820152606490fd5b50346104ac5760203660031901126104ac5760406101c09160043581526008602052208054906001810154906002810154600382015460048301546005840154600685015460078601549160ff60088801541693600988015495600a8901549760ff600c600b8c01549b01549b6040519d8e528d602060018060a01b03831691015260a01c16151560408d015260608c015260808b015260a08a015260c089015260e088015261010087015215156101208601526101408501526101608401526101808301526101a0820152f35b50346104ac57806003193601126104ac576020600c54604051908152f35b50346104ac57806003193601126104ac576020600654604051908152f35b5061150936614605565b90611515939293615469565b611520841515614b33565b82855260209060088252604086209261153f60ff600886015416614674565b86600185019160018060a01b039361155b8585541633146146ab565b8161187c575b50505061156d84615551565b50600384019361157e8786546148bd565b90620f4240821061184057600281015491611599818461485b565b90856001541694602460e08554976040519283809263351bd11560e11b82528b60048301525afa8015611835578d9061178c575b604091500151831161175057906115fa8493928260ff8f9a99989760040154925460a01c16968792615726565b98604087600354169660248251809981936331d98b3f60e01b835260048301525afa801561083e578a60069681988b9361172e575b501561171f5761163f9111614b7a565b55600582015501558060025416803b156104a8578280916024604051809481936306e980c560e51b83528c60048401525af19081156103ae57839161170b575b505060025416803b15610765576040516374e863ad60e01b8152336004820152602481018790529082908290604490829084905af18015610422576116f7575b50506040519384528301527fdf372a02d8e5139b85d7448d53241f194a27db9f321178c970db6e998ebb600160403393a36001815580f35b611700906146e3565b6104a457845f6116bf565b611714906146e3565b61076557815f61167f565b6117299110614b7a565b61163f565b61174891935060403d6040116103a7576103978183614712565b50915f61162f565b60405162461bcd60e51b815260048101899052601460248201527345786365656473206d6178206c6576657261676560601b6044820152606490fd5b5060e0813d60e01161182d575b816117a660e09383614712565b810103126118295760405160e08101918183106001600160401b038411176118155760c061180b916040948552805184528c8101518d8501528481015185850152606081015160608501526080810151608085015260a081015160a085015201614b6d565b60c08201526115cd565b634e487b7160e01b5f52604160045260245ffd5b8c80fd5b3d9150611799565b6040513d8f823e3d90fd5b60405162461bcd60e51b815260048101869052601460248201527310995b1bddc81b5a5b8818dbdb1b185d195c985b60621b6044820152606490fd5b846003541691823b1561042d57604051631df3cbc560e31b81529284928492839182916118ac9160048401614733565b039134905af18015610422576118c3575b80611561565b6118cc906146e3565b61041e57865f6118bd565b50346104ac5760403660031901126104ac576118f1614567565b6001600160a01b03168152600b60205260408120805460243592908310156104ac57602061191f84846145dc565b90546040519160031b1c8152f35b50806119383661458c565b90611944939293615469565b81611abd575b50508190526008602052604082209061196960ff600884015416614674565b60018060a01b0360035416906040835460248251809581936331d98b3f60e01b835260048301525afa91821561077d578492611a9b575b50838493600981015480611a70575b50811580611a63575b611a39575b50156119fe57807fac4fd466c8f994e08ce2eb9141c2f01f2a779a3537d9bd71fa8762df3d12842c60406109819581519015158152856020820152a2615a33565b60405162461bcd60e51b815260206004820152601360248201527215140bd4d3081b9bdd081d1c9a59d9d95c9959606a1b6044820152606490fd5b6001810154600a925060a01c60ff1615611a595701548211155b5f6119bd565b0154821015611a53565b50600a81015415156119b8565b9150935060ff600185015460a01c165f14611a9257821015925b83905f6119af565b82111592611a8a565b611ab591925060403d6040116103a7576103978183614712565b50905f6119a0565b6003546001600160a01b031691823b1561042d57604051631df3cbc560e31b8152928492849283918291611af49160048401614733565b039134905af1801561042257611b0b575b8061194a565b611b14906146e3565b61076557815f611b05565b50346104ac57806003193601126104ac576003546040516001600160a01b039091168152602090f35b506101003660031901126104ac5760043590611b6261457d565b9160443591606435916084359460a43590611b7b615469565b600287101580611e50575b15611e1a57603c8210611de257620f42408781029081048803611dce578610611d92576001546001600160a01b031696873b156104a45760405163bd79156f60e01b8152858180611bde8a8c88338c6004870161482a565b03818c5afa8015611d8757908691611d73575b5050611bfd868861485b565b9760405198899163e4d8cbe560e01b835289600484015287602484015282604460209c8d935afa918215611d68578792611d32575b509060019782611c49610d1484600e989796614879565b6007549a611c568c614912565b6007558b8a5260098d5260408a208981558b8101805460ff60a01b1933166001600160a81b03199091161797151560a01b60ff60a01b16979097179096556002860155600385015560048401556006830161010461ffff19825416179055426007840155600983015534600a83015560c435600b83015560e435600c830155600d8201550155338252600b8552611cf08460408420614920565b604051908152600485820152816040820152837f401524beccff0d9dd3447788dea32e11f3b7c9618ed6084f14a773dbf2025f1660603393a355604051908152f35b939291508984813d8311611d61575b611d4b8183614712565b810103126107cc57925191929091906001611c32565b503d611d41565b6040513d89823e3d90fd5b611d7c906146e3565b6104a457845f611bf1565b6040513d88823e3d90fd5b60405162461bcd60e51b815260206004820152601460248201527314db1a58d9481cda5e99481d1bdbc81cdb585b1b60621b6044820152606490fd5b634e487b7160e01b85526011600452602485fd5b60405162461bcd60e51b815260206004820152601060248201526f135a5b880d8c1cc81a5b9d195c9d985b60821b6044820152606490fd5b60405162461bcd60e51b815260206004820152600e60248201526d496e76616c696420736c6963657360901b6044820152606490fd5b506064871115611b86565b50346104ac5760403660031901126104ac57611e75614567565b6001600160a01b03168152600a60205260408120805460243592908310156104ac57602061191f84846145dc565b50346104ac5760203660031901126104ac57600435611ec0615469565b80825260096020528160408120600681019060ff8254611ee4828260081c166149d7565b611efb60018060a01b0360018501541633146146ab565b61ff001981168455166002198101611fe9575b50600460ff600a8301549354161480611fdc575b611faf575b5080611f5a575b50807f61b9399f2f0f32ca39ce8d7be32caed5ec22fe07a6daba3a467ed479ec60658291a26001815580f35b81808092335af1611f69614af5565b5015611f7657815f611f2e565b60405162461bcd60e51b8152602060048201526011602482015270115512081c99599d5b990819985a5b1959607a1b6044820152606490fd5b90611fd082600f611fc7600d611fd69601548561485b565b910154906148aa565b906148bd565b5f611f27565b50600f8101541515611f22565b600382015460046009840154921480612071575b612031575b61200c8282614879565b612017575b50611f0e565b61202a9161202491614879565b33615827565b5f80612011565b9061206b90611fd0600d85015461206561205561204e838861485b565b928561485b565b95611fd0600f89015480946148aa565b946148aa565b90612002565b50600f8301541515611ffd565b50346104ac5760203660031901126104ac57612098614567565b600154604051638da5cb5b60e01b81526001600160a01b0392916020908290600490829087165afa90811561077d576120dc9184918691610fd057501633146146ab565b166bffffffffffffffffffffffff60a01b600554161760055580f35b50346104ac5760603660031901126104ac57612112615469565b600435815260086020526040812061213060ff600883015416614674565b61214760018060a01b0360018301541633146146ab565b6024356009820155600a6044359101556001815580f35b50346104ac57806003193601126104ac576004546040516001600160a01b039091168152602090f35b50806121923661458c565b9061219e939293615469565b816132ad575b505081905260096020526040822060068101546121c660ff8260081c166149d7565b6121d76007830154600e5490614879565b42116132785760018060a01b0360035416906040835460248251809581936331d98b3f60e01b835260048301525afa918215610a3e578592613253575b5060ff16806127a75750600182015460a01c60ff161561279a5760058201548111155b156127615761224582614a10565b60015481516040808401516060850151915163b391decf60e01b8152600481019390935215156024830152604482015291929190602090829060649082906001600160a01b03165afa908115611d8757869161272f575b5081868213156126db57506122b461271091836148aa565b04604083015115155f146126cd576122cb91614879565b600654906122d882614912565b6006558186526008602090815260408088208551815591850151600183018054928701516001600160a81b03199093166001600160a01b03929092169190911791151560a081901b60ff60a01b16929092179055879190612361905b606087015180600285015560808801519081600386015586600486015560a0890151600586015586615726565b600682015542600782015542600c82015560088101600160ff198254161790556101a085015160098201556101c0850151600a820155602060018060a01b0360015416602487516040519586938492637cc6765f60e11b845260048401525af191821561083e578892612698575b50600b015560015483516020850151604086015160608701518a94909392911515916001600160a01b039182169116813b15612680578580946124286040519788968795869463b65b361f60e01b8652600486016148ca565b03925af1801561042257612684575b50506002546080840151612453916001600160a01b0316615827565b600254608084015187916001600160a01b031690813b156104a8578291602483926040519485938492636e93ae2b60e01b845260048401525af180156104225761266c575b50505f80516020615eaa833981519152906124b76101608501516158e9565b6020848101516001600160a01b03168852600a9052604087206124db908490614920565b60208481015185516040808801516060808a015160a09a8b01518451958652921515968501969096529183019490945281019390935260808301919091526001600160a01b03169390a360068101805461ff00191690555b82600a820154806125c0575b5050600681015460ff8160081c161561255b575b836001815580f35b60ff166003036125975760080154905b7f9947370f1e808dd40de986fca744d8715d4d7aa575359f77a7bdeeb887f590ea8380a35f8080612553565b506006545f1981019081116125ac579061256b565b634e487b7160e01b83526011600452602483fd5b81906006840154600460ff8216148061265f575b1561264557506125ea9150600d8401549061485b565b801561253f5781808092335af16125ff614af5565b501561260c57825f61253f565b60405162461bcd60e51b815260206004820152601160248201527012d9595c195c881999594819985a5b1959607a1b6044820152606490fd5b60081c60ff1615612657575b506125ea565b90505f612651565b50600d85015415156125d4565b612675906146e3565b61268057855f612498565b8580fd5b61268d906146e3565b61268057855f612437565b9091506020813d6020116126c5575b816126b460209383614712565b810103126107cc575190600b6123cf565b3d91506126a7565b6126d6916148bd565b6122cb565b908681126126eb575b50506122cb565b6127109192506126fd6127039161489a565b836148aa565b04604083015115155f146127215761271a916148bd565b5f806126e4565b61272a91614879565b61271a565b90506020813d602011612759575b8161274a60209383614712565b810103126107cc57515f61229c565b3d915061273d565b60405162461bcd60e51b8152602060048201526011602482015270131a5b5a5d081b9bdd081c995858da1959607a1b6044820152606490fd5b6005820154811015612237565b60018103612bd05750600182015460a01c60ff1615612bc35760058201548110155b15612b8b576127d782614a10565b60015481516040808401516060850151915163b391decf60e01b8152600481019390935215156024830152604482015291929190602090829060649082906001600160a01b03165afa908115611d87578691612b59575b508186821315612b0b575061284661271091836148aa565b04604083015115155f14612afd5761285d91614879565b6006549061286a82614912565b6006558186526008602090815260408088208551815591850151600183018054928701516001600160a81b03199093166001600160a01b03929092169190911791151560a081901b60ff60a01b169290921790558791906128ca90612334565b600682015542600782015542600c82015560088101600160ff198254161790556101a085015160098201556101c0850151600a820155602060018060a01b0360015416602487516040519586938492637cc6765f60e11b845260048401525af191821561083e578892612ac8575b50600b015560015483516020850151604086015160608701518a94909392911515916001600160a01b039182169116813b15612680578580946129916040519788968795869463b65b361f60e01b8652600486016148ca565b03925af1801561042257612ab4575b505060025460808401516129bc916001600160a01b0316615827565b600254608084015187916001600160a01b031690813b156104a8578291602483926040519485938492636e93ae2b60e01b845260048401525af1801561042257612aa0575b50505f80516020615eaa83398151915290612a206101608501516158e9565b6020848101516001600160a01b03168852600a905260408720612a44908490614920565b60208481015185516040808801516060808a015160a09a8b01518451958652921515968501969096529183019490945281019390935260808301919091526001600160a01b03169390a360068101805461ff0019169055612533565b612aa9906146e3565b61268057855f612a01565b612abd906146e3565b61268057855f6129a0565b9091506020813d602011612af5575b81612ae460209383614712565b810103126107cc575190600b612938565b3d9150612ad7565b612b06916148bd565b61285d565b90868112612b1b575b505061285d565b6127109192506126fd612b2d9161489a565b04604083015115155f14612b4b57612b44916148bd565b5f80612b14565b612b5491614879565b612b44565b90506020813d602011612b83575b81612b7460209383614712565b810103126107cc57515f61282e565b3d9150612b67565b60405162461bcd60e51b815260206004820152601060248201526f14dd1bdc081b9bdd081c995858da195960821b6044820152606490fd5b60058201548111156127c9565b60028103612c865750600182015460ff8160a01c165f14612c795760058301548211155b8015612c6d575b15612c1c57506127d782614a10565b60068101805461ff0019169055612533565b612c439150612c346003840154600985015490614879565b906001600160a01b0316615827565b817f61b9399f2f0f32ca39ce8d7be32caed5ec22fe07a6daba3a467ed479ec6065828480a2612c0a565b50600583015415612bfb565b6005830154821015612bf4565b60038103612cc45750612c9e60088301918254615a33565b548352600f60205260408320805460ff1916905560068101805461ff0019169055612533565b600414612cd2575b50612533565b600f8201549081158015613237575b1561320057612cef83614a10565b916001810181116131ec57600d8401546001820181036131ac57611fd0612d68926002870154612d5e84611fd0848b612d54612d2b858861485b565b96611fd084612d4e6009612d4460038801549a8b61485b565b9601549d8e61485b565b996148aa565b60608d01526148aa565b60808801526148aa565b6101608301525b60015482516040808501516060860151915163b391decf60e01b8152600481019390935215156024830152604482015290602090829060649082906001600160a01b03165afa908115611d8757869161317a575b50818682131561312c5750612ddb61271091836148aa565b04604083015115155f1461311e57612df291614879565b600654612dfe81614912565b6006558086526008602090815260408088208551815591850151600183018054928701516001600160a81b03199093166001600160a01b03929092169190911791151560a081901b60ff60a01b16929092179055879190612e8690606087015180600285015560808801519081600386015587600486015560a0890151600586015587615726565b600682015542600782015542600c82015560088101600160ff198254161790556101a085015160098201556101c0850151600a820155602060018060a01b0360015416602487516040519586938492637cc6765f60e11b845260048401525af191821561083e5788926130e9575b50600b015560015483516020850151604086015160608701518a94909392911515916001600160a01b039182169116813b1561268057858094612f4d6040519788968795869463b65b361f60e01b8652600486016148ca565b03925af18015610422576130d5575b50506002546080840151612f78916001600160a01b0316615827565b600254608084015187916001600160a01b031690813b156104a8578291602483926040519485938492636e93ae2b60e01b845260048401525af18015610422576130c1575b5050612fcd6101608401516158e9565b6020838101516001600160a01b03168752600a905260408620612ff1908290614920565b602083810151845160408087015160608089015160a0808b0151855196875293151597860197909752928401929092529082019590955260808101949094526001600160a01b0316925f80516020615eaa8339815191529190a3600f8201549060018201809211611dce577f098dc6c1012d2fb4cc0470ec0f1b82ad9eaf354865d76ebad869d83f1559344e60406060869385600f88015542601088015501518151908582526020820152a2600d82015411156130af575b5f612ccc565b60068101805461ff00191690556130a9565b6130ca906146e3565b61268057855f612fbd565b6130de906146e3565b61268057855f612f5c565b9091506020813d602011613116575b8161310560209383614712565b810103126107cc575190600b612ef4565b3d91506130f8565b613127916148bd565b612df2565b9086811261313c575b5050612df2565b6127109192506126fd61314e9161489a565b04604083015115155f1461316c57613165916148bd565b5f80613135565b61317591614879565b613165565b90506020813d6020116131a4575b8161319560209383614712565b810103126107cc57515f612dc3565b3d9150613188565b6131e191506131bf81600287015461485b565b60608501526131d281600387015461485b565b6080850152600985015461485b565b610160830152612d6f565b634e487b7160e01b86526011600452602486fd5b60405162461bcd60e51b815260206004820152600f60248201526e545741503a20746f6f206561726c7960881b6044820152606490fd5b5061324b6010840154600e85015490614879565b421015612ce1565b60ff9192506132709060403d6040116103a7576103978183614712565b509190612214565b60405162461bcd60e51b815260206004820152600d60248201526c13dc99195c88195e1c1a5c9959609a1b6044820152606490fd5b6003546001600160a01b031691823b1561042d57604051631df3cbc560e31b81529284928492839182916132e49160048401614733565b039134905af18015610422576132fb575b806121a4565b613304906146e3565b61076557815f6132f5565b506101003660031901126104ac5761332561457d565b60c4358260e4356001600160401b03811161076557613348903690600401614537565b90613351615469565b613362620f42406044351015614637565b816139a2575b5050600354604080516331d98b3f60e01b8152600480359082015293925090839060249082906001600160a01b03165afa91821561077d578492613980575b5080613957575b50608435613932575b60a43561390d575b6001546001600160a01b031691823b1561042d578360405163bd79156f60e01b81528181806133fb60643560443588336004356004870161482a565b0381885afa8015610422576138f9575b505060206044936040519485809263e4d8cbe560e01b8252823560048301528860248301525afa92831561077d5784936138c4575b5060206135379161345560643560443561485b565b94613463610d148288614879565b60405195613470876146f6565b8760c0880152876101208801528761014088015287610180880152876101e08801528761020088015287610220880152876102408801526004358752338488015282151560408801526044356060880152608087015260643560a0870152600260e087015260016101008701526101608601526084356101a086015260a4356101c086015260018060a01b0360015416604051808095819463b391decf60e01b83526044359015156004356004850160409194939260608201958252151560208201520152565b03915afa90811561077d578491613892575b508184821315613844575061356161271091836148aa565b04604083015115155f146138365761357891614879565b6006549061358582614912565b6006558184526008602090815260408086208551815591850151600183018054928701516001600160a81b03199093166001600160a01b03929092169190911791151560a081901b60ff60a01b169290921790558591906135e590612334565b600682015542600782015542600c82015560088101600160ff198254161790556101a085015160098201556101c0850151600a820155602060018060a01b0360015416602487516040519586938492637cc6765f60e11b845260048401525af1918215611d87578692613801575b50600b015560015483516020850151604086015160608701518894909392911515916001600160a01b039182169116813b15612680578580946136ac6040519788968795869463b65b361f60e01b8652600486016148ca565b03925af18015610422576137ed575b505060025460808401516136d7916001600160a01b0316615827565b600254608084015185916001600160a01b031690813b156104a8578291602483926040519485938492636e93ae2b60e01b845260048401525af18015610422576137d9575b50505f80516020615eaa8339815191529061373b6101608501516158e9565b6020848101516001600160a01b03168652600a90526040852061375f908490614920565b60208481015185516040808801516060808a015160a09a8b01518451958652921515968501969096529183019490945281019390935260808301919091526001600160a01b03169390a36006545f1981019081116137c557600160209255604051908152f35b634e487b7160e01b82526011600452602482fd5b6137e2906146e3565b61042d57835f61371c565b6137f6906146e3565b61042d57835f6136bb565b9091506020813d60201161382e575b8161381d60209383614712565b810103126107cc575190600b613653565b3d9150613810565b61383f916148bd565b613578565b90848112613854575b5050613578565b6127109192506126fd6138669161489a565b04604083015115155f146138845761387d916148bd565b5f8061384d565b61388d91614879565b61387d565b90506020813d6020116138bc575b816138ad60209383614712565b810103126107cc57515f613549565b3d91506138a0565b9092506020813d6020116138f1575b816138e060209383614712565b810103126107cc5751916020613440565b3d91506138d3565b613902906146e3565b61042d57835f61340b565b8115613925576139208160a43510614998565b6133bf565b6139208160a43511614998565b811561394a576139458160843511614959565b6133b7565b6139458160843510614959565b821561396f57613969908211156147ea565b5f6133ae565b61397b908210156147ea565b613969565b61399a91925060403d6040116103a7576103978183614712565b50905f6133a7565b6003546001600160a01b031691823b1561042d57604051631df3cbc560e31b81529284928492839182916139d99160048401614733565b039134905af18015610422576139f0575b80613368565b6139f9906146e3565b6104a857825f6139ea565b50346104ac5760e03660031901126104ac57613a1e614567565b6044351515604435036107cc5760c43580151581036107cc57613a3f615469565b6005546001600160a01b03163303613e1557620f4240613a63816064351015614637565b60843510613dd957613a7960843560643561485b565b6001549091906001600160a01b0316803b156104a45760405163bd79156f60e01b81528590818180613ab8886064356044358c6024356004870161482a565b0381865afa801561042257613dc5575b505060405163e4d8cbe560e01b815260643560048201529115156024830152602090829060449082905afa90811561077d578491613d93575b50613b18613b1182608435614879565b308561548a565b60065491613b2583614912565b60065582855260086020526040852060243581556001810180546001600160a81b0319166001600160a01b03871617604435151560a01b60ff60a01b16179055906064356002830155608435600383015560a43560048301556005820155613b9760443560843560643560a435615726565b600682015542600782015542600c82015560088101600160ff1982541617905584600982015584600a82015584602060018060a01b0360015416602460405180948193637cc6765f60e11b8352833560048401525af1908115611d87578691613d61575b50600b82015560015485906001600160a01b0316803b156107655760405163b65b361f60e01b81529082908290818381613c416064356044358e602435600486016148ca565b03925af1801561042257613d4d575b5050600254613c6b90608435906001600160a01b0316615827565b60025485906001600160a01b0316803b1561076557818091602460405180948193636e93ae2b60e01b835260843560048401525af1801561042257613d39575b50506005613d2f91613cca5f80516020615eaa833981519152946158e9565b6001600160a01b0386168752600a60205260408720613cea908690614920565b0154604080516024358152604435151560208201526064359181019190915260a435606082015260808101919091526001600160a01b039094169390819060a0820190565b0390a36001815580f35b613d42906146e3565b6104a457845f613cab565b613d56906146e3565b6104a457845f613c50565b90506020813d602011613d8b575b81613d7c60209383614712565b810103126107cc57515f613bfb565b3d9150613d6f565b90506020813d602011613dbd575b81613dae60209383614712565b810103126107cc57515f613b01565b3d9150613da1565b613dce906146e3565b6104a457845f613ac8565b60405162461bcd60e51b815260206004820152601460248201527310dbdb1b185d195c985b081d1bdbc81cdb585b1b60621b6044820152606490fd5b60405162461bcd60e51b815260206004820152601160248201527013db9b1e48140c940810dbdb9d1c9858dd607a1b6044820152606490fd5b50346104ac5760203660031901126104ac57600154604051638da5cb5b60e01b815260048035926001600160a01b0391602091849190829085165afa801561077d57613ea3928591610fd057501633146146ab565b6101f48111613eb257600d5580f35b60405162461bcd60e51b81526020600482015260066024820152654d617820352560d01b6044820152606490fd5b50346104ac5760203660031901126104ac5760ff60406020926004358152600f84522054166040519015158152f35b5060a03660031901126107cc57606435906044356084356001600160401b0381116107cc57613f42903690600401614537565b919093613f4d615469565b613f5e620f42406024351015614637565b6004355f52600860205260405f2092613f7d60ff600886015416614674565b6001840195613f9660018060a01b0388541633146146ab565b816144b0575b50506003548354604080516331d98b3f60e01b815260048101839052969791939192879060249082906001600160a01b03165afa958615611d6857879661448e575b508061445e575b508560018060a01b03600154169260ff835460a01c16843b156104a85760405163bd79156f60e01b81529183918391829161402b918a916024359133906004870161482a565b0381875afa80156104225761444a575b5050602061404d60449460243561485b565b926040519485809263e4d8cbe560e01b825260243560048301528a60248301525afa928315611d87578693614416575b5061408b610d148484614879565b61409484615551565b506001548454915460405163b391decf60e01b81526004810184905260a09190911c60ff16801515602480840191909152356044830152969160209082906001600160a01b031681806064810103915afa90811561083e5788916143e4575b508188821315614398575061410b61271091836148aa565b04861561438a5761411b91614879565b945b60028501549586670de0b6b3a7640000810204670de0b6b3a764000014871517156143765761415a6004870154670de0b6b3a7640000890261485b565b90602435670de0b6b3a76400006024350204670de0b6b3a7640000146024351517156143625761419690670de0b6b3a76400006024350261485b565b6141a260243589614879565b9182670de0b6b3a7640000810204670de0b6b3a7640000148315171561434e57836141f76141ed8c98979695670de0b6b3a76400006141e660069761422b97614879565b910261485b565b9a60243590614879565b8060028b015560038a019061420d888354614879565b8092558b60048c0155614220828261485b565b60058c01558b615726565b96019586556001546001600160a01b031691823b156104a45761426d9285928360405180968195829463b65b361f60e01b8452602435913390600486016148ca565b03925af19081156103ae57839161433a575b50506002546142989082906001600160a01b0316615827565b6002546001600160a01b031690813b156104a8578291602483926040519485938492636e93ae2b60e01b845260048401525af1801561042257614326575b50506142e1906158e9565b546040519160243583526020830152604082015233907ff48aa9a1deec4f3fc0cb0c073f4f097041726d7c7f9d2c3a863cd52f721e8d1a606060043592a36001815580f35b61432f906146e3565b61042d57835f6142d6565b614343906146e3565b61076557815f61427f565b634e487b7160e01b8a52601160045260248afd5b634e487b7160e01b89526011600452602489fd5b634e487b7160e01b88526011600452602488fd5b614393916148bd565b61411b565b908881989398126143ab575b505061411d565b612710919297506126fd6143be9161489a565b0486156143d6576143ce916148bd565b945f806143a4565b6143df91614879565b6143ce565b90506020813d60201161440e575b816143ff60209383614712565b810103126107cc57515f6140f3565b3d91506143f2565b9092506020813d602011614442575b8161443260209383614712565b810103126107cc5751915f61407d565b3d9150614425565b614453906146e3565b61268057855f61403b565b815460a01c60ff161561447d57614477908611156147ea565b5f613fe5565b614489908610156147ea565b614477565b6144a891965060403d6040116103a7576103978183614712565b50945f613fde565b6003546001600160a01b031691823b156107cc57604051631df3cbc560e31b8152925f928492839182916144e79160048401614733565b039134905af18015614512576144fe575b80613f9c565b6024945061450b906146e3565b5f936144f8565b6040513d5f823e3d90fd5b346107cc575f3660031901126107cc576020906007548152f35b9181601f840112156107cc578235916001600160401b0383116107cc576020808501948460051b0101116107cc57565b600435906001600160a01b03821682036107cc57565b6024359081151582036107cc57565b9060406003198301126107cc5760043591602435906001600160401b0382116107cc576145bb91600401614537565b9091565b346107cc575f3660031901126107cc576020604051620f42408152f35b80548210156145f1575f5260205f2001905f90565b634e487b7160e01b5f52603260045260245ffd5b60606003198201126107cc576004359160243591604435906001600160401b0382116107cc576145bb91600401614537565b1561463e57565b60405162461bcd60e51b815260206004820152600e60248201526d14da5e99481d1bdbc81cdb585b1b60921b6044820152606490fd5b1561467b57565b60405162461bcd60e51b81526020600482015260086024820152672737ba1037b832b760c11b6044820152606490fd5b156146b257565b60405162461bcd60e51b81526020600482015260096024820152682737ba1037bbb732b960b91b6044820152606490fd5b6001600160401b03811161181557604052565b61026081019081106001600160401b0382111761181557604052565b90601f801991011681019081106001600160401b0382111761181557604052565b9160208181850182865252604084019360408360051b82010194845f925b858410614762575050505050505090565b90919293949596603f198282030184528735601e19843603018112156107cc5783018681019190356001600160401b0381116107cc5780360383136107cc5787828280600196849695859652848401375f828201840152601f01601f1916010199019796959190910193019190614751565b91908260409103126107cc576020825192015190565b156147f157565b60405162461bcd60e51b815260206004820152601160248201527014db1a5c1c1859d948195e18d959591959607a1b6044820152606490fd5b9081526001600160a01b03909116602082015290151560408201526060810191909152608081019190915260a00190565b8115614865570490565b634e487b7160e01b5f52601260045260245ffd5b9190820180921161488657565b634e487b7160e01b5f52601160045260245ffd5b600160ff1b8114614886575f0390565b8181029291811591840414171561488657565b9190820391821161488657565b9081526001600160a01b0390911660208201529015156040820152606081019190915260800190565b908160209103126107cc57516001600160a01b03811681036107cc5790565b5f1981146148865760010190565b80546801000000000000000081101561181557614942916001820181556145dc565b819291549060031b91821b915f19901b1916179055565b1561496057565b60405162461bcd60e51b815260206004820152601060248201526f496e76616c696420545020707269636560801b6044820152606490fd5b1561499f57565b60405162461bcd60e51b815260206004820152601060248201526f496e76616c696420534c20707269636560801b6044820152606490fd5b156149de57565b60405162461bcd60e51b815260206004820152600a6024820152694e6f742061637469766560b01b6044820152606490fd5b90604051614a1d816146f6565b610240601082948054845260ff600182015460018060a01b038116602087015260a01c16151560408501526002810154606085015260038101546080850152600481015460a0850152600581015460c085015260ff600682015481811660e087015260081c161515610100850152600781015461012085015260088101546101408501526009810154610160850152600a810154610180850152600b8101546101a0850152600c8101546101c0850152600d8101546101e0850152600e810154610200850152600f8101546102208501520154910152565b3d15614b2e573d906001600160401b0382116118155760405191614b23601f8201601f191660200184614712565b82523d5f602084013e565b606090565b15614b3a57565b60405162461bcd60e51b815260206004820152600b60248201526a16995c9bc8185b5bdd5b9d60aa1b6044820152606490fd5b519081151582036107cc57565b15614b8157565b60405162461bcd60e51b8152602060048201526015602482015274576f756c64206265206c6971756964617461626c6560581b6044820152606490fd5b15614bc557565b60405162461bcd60e51b815260206004820152600f60248201526e436f6f6c646f776e2061637469766560881b6044820152606490fd5b81810392915f13801582851316918412161761488657565b81810292915f8212600160ff1b82141661488657818405149015171561488657565b811561486557600160ff1b81145f19831416614886570590565b9190915f838201938412911290801582169115161761488657565b9190925f908415158061538f575b1561535857835f52600860205260405f2092614c9b60ff600886015416614674565b614cb260018060a01b0360018601541633146146ab565b6007840154600154604051636d78097360e11b815290602090829060049082906001600160a01b03165afa908115614512575f91615324575b5061093690614cf992614879565b816152c5575b505060018060a01b0360035416906040835460248251809581936331d98b3f60e01b835260048301525afa9182156152b8578192615296575b506127109485811461528557614d7795614d7d600286015482614d5b85836148aa565b04988993614d6e60038a015496876148aa565b049384926148bd565b936148bd565b94620f424080841061524a57861061520557600181015460a01c60ff16156151ea57614dba60048201546102f28a614db5838a614bfc565b614c14565b60018060a01b0360015416906040519463e4d8cbe560e01b86528a6004870152866024870152602086604481865afa958615611d68578b889182986151ae575b5063d693a400614e26614e12602093600c54906148aa565b614e20600c8a0154426148bd565b906148aa565b0494602487546040519485938492637cc6765f60e11b845260048401525af1801561083e57615183575b506001548454604051634655f1eb60e01b815260048101829052909491602090829060249082906001600160a01b03165afa9081156151785789939291878f92869261513a575b5092614ee6670de0b6b3a7640000614f1f979894614ec0614eeb95600b614ef199015490614bfc565b60018d01549a5060a08b901c60ff161561512157614edd91614c14565b05915b8c614c50565b614c50565b90614bfc565b99816002870155806003870155614f08818361485b565b600587015560ff8460a01c16916004870154615726565b60068401556001546001600160a01b031691823b1561041e57614f6f928792838d936040519687958694859363019ca2b960e51b855260ff8260a01c169160018060a01b031690600486016148ca565b03925af18015610a3e5790859161510d575b5086136150b3575b600254600191909101546001600160a01b039182169116813b156104a45760405163118f304360e01b81526001600160a01b0391909116600482015260248101839052604481018790529084908290606490829084905af1801561077d5790849161509f575b5050811515908161508d575b5061503b575b5050604051938452602084015260408301527f5cc0748e06097a585a6534dafcca64d5cc367340dff0e00469484e8269a7ca7b60603393a3565b6002546001600160a01b031690813b156104a85782916024839260405194859384926335b8e71360e01b845260048401525af1801561042257156150015761508382916146e3565b6104ac5780615001565b615097915061489a565b84135f614ffb565b6150a8906146e3565b6104a857825f614fef565b6001546001600160a01b0316803b156104a45784809160246040518094819363630304f960e11b83528c60048401525af18015610a3e579085916150f9575b5050614f89565b615102906146e3565b61042d57835f6150f2565b615116906146e3565b61042d57835f614f81565b61512e9061513392614c14565b61489a565b0591614ee0565b95505050506020833d602011615170575b8161515860209383614712565b810103126107cc5791518892908d9087614ee6614e97565b3d915061514b565b6040513d8b823e3d90fd5b602090813d83116151a7575b6151998183614712565b810103126107cc575f614e50565b503d61518f565b975050506020863d6020116151e2575b816151cb60209383614712565b810103126107cc57945194868b63d693a400614dfa565b3d91506151be565b61520060048201546102f28a614db58984614bfc565b614dba565b60405162461bcd60e51b815260206004820152601e60248201527f52656d61696e64657220636f6c6c61746572616c20746f6f20736d616c6c00006044820152606490fd5b60405162461bcd60e51b815260206004820152601360248201527214995b585a5b99195c881d1bdbc81cdb585b1b606a1b6044820152606490fd5b50509190506152949250615a33565b565b6152b091925060403d6040116103a7576103978183614712565b50905f614d38565b50604051903d90823e3d90fd5b6003546001600160a01b031691823b156107cc57604051631df3cbc560e31b8152925f928492839182916152fc9160048401614733565b039134905af1801561451257615313575b80614cff565b61531d91506146e3565b5f8061530d565b90506020813d602011615350575b8161533f60209383614712565b810103126107cc5751614cf9614ceb565b3d9150615332565b60405162461bcd60e51b815260206004820152600f60248201526e125b9d985b1a59081c195c98d95b9d608a1b6044820152606490fd5b50612710851115614c79565b906040516101c081018181106001600160401b03821117611815576040526101a0600c82948054845260ff600182015460018060a01b038116602087015260a01c16151560408501526002810154606085015260038101546080850152600481015460a0850152600581015460c0850152600681015460e0850152600781015461010085015260ff60088201541615156101208501526009810154610140850152600a810154610160850152600b8101546101808501520154910152565b91908110156145f15760051b0190565b60025f54146154785760025f55565b604051633ee5aeb560e01b8152600490fd5b916064602092935f60018060a01b03938460045416908560405198899788966323b872dd60e01b885216600487015216602485015260448401525af1908115614512575f91615517575b50156154dc57565b60405162461bcd60e51b8152602060048201526013602482015272151c985b9cd9995c919c9bdb4819985a5b1959606a1b6044820152606490fd5b90506020813d602011615549575b8161553260209383614712565b810103126107cc5761554390614b6d565b5f6154d4565b3d9150615525565b9061555e61058f8361539b565b91600154905f60018060a01b03808354604095865191637cc6765f60e11b83526004830152816024815f6020978895165af1801561569c579083916156fd575b50506155ac6105d28561539b565b875f82136156ea575b505086615635575b42600c85015560015416918184546024875180968193634655f1eb60e01b835260048301525afa94851561562b5750936155fa575b5050600b0155565b9080929350813d8311615624575b6156128183614712565b810103126107cc575190600b5f6155f2565b503d615608565b51903d90823e3d90fd5b600384018054808910156156a6578861564d916148bd565b90558060025416803b156107cc575f8091602488518094819363ff20b48d60e01b83528d60048401525af1801561569c57615689575b506155bd565b6156949193506146e3565b5f915f615683565b86513d5f823e3d90fd5b865162461bcd60e51b815260048101859052601f60248201527f506f736974696f6e206c6971756964617461626c652066726f6d2066656573006044820152606490fd5b6156f5929850614879565b955f806155b5565b813d831161571f575b6157108183614712565b810103126107cc57815f61559e565b503d615706565b9192909261232890818102918183041490151715614886576001546040516335123baf60e21b81526127109283900491602090829060049082906001600160a01b03165afa908115614512575f916157f5575b50600a8101809111614886576157908391876148aa565b04908082106157e557505060648402848104606414851517156148865704905b156157ce576157cb926157c6611fd092846148aa565b61485b565b90565b6157cb926157c66157df92846148aa565b90614879565b6157ef92506148bd565b906157b0565b90506020813d60201161581f575b8161581060209383614712565b810103126107cc57515f615779565b3d9150615803565b6004805460405163a9059cbb60e01b81526001600160a01b0393841692810192909252602482019390935291602091839160449183915f91165af1908115614512575f916158af575b501561587857565b60405162461bcd60e51b815260206004820152600f60248201526e151c985b9cd9995c8819985a5b1959608a1b6044820152606490fd5b90506020813d6020116158e1575b816158ca60209383614712565b810103126107cc576158db90614b6d565b5f615870565b3d91506158bd565b60015460408051631db0457960e11b815260048101939093525f9392916001600160a01b039082908490602490829085165afa928315615a29575f905f94615a07575b50806159a6575b5082615941575b5050509050565b6020600491600154168351928380926361d027b360e01b82525afa91821561599d575061597593949161597e575b50615827565b805f808061593a565b615997915060203d602011610492576104848183614712565b5f61596f565b513d86823e3d90fd5b6159b4818360025416615827565b816002541690813b156107cc575f9160248392865194859384926302102c9760e11b845260048401525af180156159fd5715615933576159f59195506146e3565b5f935f615933565b83513d5f823e3d90fd5b9050615a21919350823d84116103a7576103978183614712565b92905f61592c565b82513d5f823e3d90fd5b91905f92805f5260209160088352604090815f206008810190615a5960ff835416614674565b60018101805460a01c60ff1615615da957615a8a60048301546102f2615a7f8288614bfc565b600286015490614c14565b60018060a01b03928360015416906002810180549389519363e4d8cbe560e01b8552600495868601525f60248601528c85604481845afa948515615d9f578b92918e915f97615d6b575b50905f916024615ae661058f8961539b565b95885490519485938492637cc6765f60e11b84528d8401525af18015615d6157908e91615d38575b5050614eeb615b2d92614ee6615b266105d28861539b565b9188614c50565b875460ff191690975560015482548654925490918816803b156107cc575f92838a615b788f958b96519889978896879563019ca2b960e51b875260ff8460a01c1693169186016148ca565b03925af18015615d2e57615d1b575b508b8613615ccc575b8b85600254166003878754169301928354823b1561042d578b5163118f304360e01b81526001600160a01b039092168288019081526020810191909152604081018a90529091839183919082908490829060600103925af18015615cc257615caa575b50508115159081615c97575b50615c3b575b50507f356fca566f3a054a459c7224d9c9d634f31a98835cfd4fb4c5ddbf8b96aca21195969798505416958351928352820152a3565b8a90846002541692833b156104a857602490838a5195869485936335b8e71360e01b85528401525af18015615c8d57615c75575b80615c05565b615c7f8a916146e3565b615c895788615c6f565b8880fd5b86513d8c823e3d90fd5b615ca291505461489a565b85135f615bff565b615cb3906146e3565b615cbe578b5f615bf3565b8b80fd5b8a513d84823e3d90fd5b8b8560015416803b156107655781809160248c518094819363630304f960e11b83528d8b8401525af18015615cc257615d07575b5050615b90565b615d10906146e3565b615cbe578b5f615d00565b615d26919c506146e3565b5f9a5f615b87565b89513d5f823e3d90fd5b813d8311615d5a575b615d4b8183614712565b810103126107cc578c5f615b0e565b503d615d41565b8c513d5f823e3d90fd5b9350955082813d8311615d98575b615d838183614712565b810103126107cc575f8d8c9351969091615ad4565b503d615d79565b8b513d5f823e3d90fd5b615dbe60048301546102f2615a7f8783614bfc565b615a8a565b615df163d693a40091615dec6060615de06101a0840151426148bd565b920151600c54906148aa565b6148aa565b0490565b60018060a01b03600154169060208151602460405180958193634655f1eb60e01b835260048301525afa918215614512575f92615e73575b50615e47670de0b6b3a76400009261018083015190614bfc565b604082015115615e62576060615e5e920151614c14565b0590565b61512e906060615e5e930151614c14565b91506020823d602011615ea1575b81615e8e60209383614712565b810103126107cc57905190615e47615e2d565b3d9150615e8156fe52ca44dea94749aadfaa4d3749a0323a33b3a6434adcfff52ad54c511f5579c7a2646970667358221220f7825d1e2ba8bb92e5f5e118e6887daa9d79820a15c42791f3ed89b82aa5c61264736f6c63430008180033",
  "linkReferences": {},
  "deployedLinkReferences": {},
  "immutableReferences": {},
  "inputSourceName": "project/src/ConfidentialTrading.sol",
  "buildInfoId": "solc-0_8_24-75c3931803b0d8eeb85d1c3e968d480e2772b78e"
}