{
  "_format": "hh3-artifact-1",
  "contractName": "ConfidentialCore",
  "sourceName": "src/ConfidentialCore.sol",
  "abi": [
    {
      "inputs": [
        {
          "internalType": "address",
          "name": "_usdc",
          "type": "address"
        },
        {
          "internalType": "address",
          "name": "_oracle",
          "type": "address"
        }
      ],
      "stateMutability": "nonpayable",
      "type": "constructor"
    },
    {
      "inputs": [],
      "name": "ExceedsMaxLeverage",
      "type": "error"
    },
    {
      "inputs": [],
      "name": "ExceedsMaxOI",
      "type": "error"
    },
    {
      "inputs": [],
      "name": "ExceedsMaxPositionSize",
      "type": "error"
    },
    {
      "inputs": [],
      "name": "ExceedsUtilizationCap",
      "type": "error"
    },
    {
      "inputs": [],
      "name": "InvalidFeeSplit",
      "type": "error"
    },
    {
      "inputs": [],
      "name": "IsPaused",
      "type": "error"
    },
    {
      "inputs": [],
      "name": "OnlyOwner",
      "type": "error"
    },
    {
      "inputs": [],
      "name": "OnlyTrading",
      "type": "error"
    },
    {
      "inputs": [],
      "name": "PairNotActive",
      "type": "error"
    },
    {
      "inputs": [],
      "name": "ZeroAddress",
      "type": "error"
    },
    {
      "anonymous": false,
      "inputs": [
        {
          "indexed": false,
          "internalType": "uint256",
          "name": "dailyLoss",
          "type": "uint256"
        },
        {
          "indexed": false,
          "internalType": "uint256",
          "name": "threshold",
          "type": "uint256"
        }
      ],
      "name": "CircuitBreakerTriggered",
      "type": "event"
    },
    {
      "anonymous": false,
      "inputs": [
        {
          "indexed": false,
          "internalType": "uint256",
          "name": "toVault",
          "type": "uint256"
        },
        {
          "indexed": false,
          "internalType": "uint256",
          "name": "toTreasury",
          "type": "uint256"
        }
      ],
      "name": "FeeDistributed",
      "type": "event"
    },
    {
      "anonymous": false,
      "inputs": [
        {
          "indexed": true,
          "internalType": "bytes32",
          "name": "pairId",
          "type": "bytes32"
        },
        {
          "indexed": false,
          "internalType": "int256",
          "name": "newCumulativeIndex",
          "type": "int256"
        },
        {
          "indexed": false,
          "internalType": "int256",
          "name": "delta",
          "type": "int256"
        }
      ],
      "name": "FundingUpdated",
      "type": "event"
    },
    {
      "anonymous": false,
      "inputs": [
        {
          "indexed": true,
          "internalType": "address",
          "name": "current",
          "type": "address"
        },
        {
          "indexed": true,
          "internalType": "address",
          "name": "pending",
          "type": "address"
        }
      ],
      "name": "OwnershipTransferStarted",
      "type": "event"
    },
    {
      "anonymous": false,
      "inputs": [
        {
          "indexed": true,
          "internalType": "address",
          "name": "prev",
          "type": "address"
        },
        {
          "indexed": true,
          "internalType": "address",
          "name": "next",
          "type": "address"
        }
      ],
      "name": "OwnershipTransferred",
      "type": "event"
    },
    {
      "anonymous": false,
      "inputs": [
        {
          "indexed": true,
          "internalType": "bytes32",
          "name": "pairId",
          "type": "bytes32"
        },
        {
          "indexed": false,
          "internalType": "uint256",
          "name": "maxLeverage",
          "type": "uint256"
        },
        {
          "indexed": false,
          "internalType": "uint256",
          "name": "maxLongOI",
          "type": "uint256"
        },
        {
          "indexed": false,
          "internalType": "uint256",
          "name": "maxShortOI",
          "type": "uint256"
        }
      ],
      "name": "PairAdded",
      "type": "event"
    },
    {
      "anonymous": false,
      "inputs": [
        {
          "indexed": true,
          "internalType": "bytes32",
          "name": "pairId",
          "type": "bytes32"
        },
        {
          "indexed": false,
          "internalType": "bool",
          "name": "active",
          "type": "bool"
        }
      ],
      "name": "PairToggled",
      "type": "event"
    },
    {
      "anonymous": false,
      "inputs": [
        {
          "indexed": true,
          "internalType": "bytes32",
          "name": "pairId",
          "type": "bytes32"
        }
      ],
      "name": "PairUpdated",
      "type": "event"
    },
    {
      "anonymous": false,
      "inputs": [],
      "name": "Paused",
      "type": "event"
    },
    {
      "anonymous": false,
      "inputs": [],
      "name": "Unpaused",
      "type": "event"
    },
    {
      "inputs": [],
      "name": "acceptOwnership",
      "outputs": [],
      "stateMutability": "nonpayable",
      "type": "function"
    },
    {
      "inputs": [
        {
          "internalType": "string",
          "name": "pairName",
          "type": "string"
        },
        {
          "internalType": "bytes32",
          "name": "pythFeedId",
          "type": "bytes32"
        },
        {
          "internalType": "uint256",
          "name": "maxLeverage",
          "type": "uint256"
        },
        {
          "internalType": "uint256",
          "name": "maxLongOI_",
          "type": "uint256"
        },
        {
          "internalType": "uint256",
          "name": "maxShortOI_",
          "type": "uint256"
        },
        {
          "internalType": "uint256",
          "name": "maxPositionPct",
          "type": "uint256"
        }
      ],
      "name": "addPair",
      "outputs": [],
      "stateMutability": "nonpayable",
      "type": "function"
    },
    {
      "inputs": [],
      "name": "baseFundingRate",
      "outputs": [
        {
          "internalType": "uint256",
          "name": "",
          "type": "uint256"
        }
      ],
      "stateMutability": "view",
      "type": "function"
    },
    {
      "inputs": [
        {
          "internalType": "bytes32",
          "name": "pairId",
          "type": "bytes32"
        },
        {
          "internalType": "bool",
          "name": "isLong",
          "type": "bool"
        },
        {
          "internalType": "uint256",
          "name": "sizeUsd",
          "type": "uint256"
        }
      ],
      "name": "calcPriceImpact",
      "outputs": [
        {
          "internalType": "int256",
          "name": "impactBps",
          "type": "int256"
        }
      ],
      "stateMutability": "view",
      "type": "function"
    },
    {
      "inputs": [
        {
          "internalType": "uint256",
          "name": "sizeUsd",
          "type": "uint256"
        }
      ],
      "name": "calculateFee",
      "outputs": [
        {
          "internalType": "uint256",
          "name": "",
          "type": "uint256"
        }
      ],
      "stateMutability": "view",
      "type": "function"
    },
    {
      "inputs": [
        {
          "internalType": "uint256",
          "name": "sizeUsd",
          "type": "uint256"
        },
        {
          "internalType": "bool",
          "name": "isMaker",
          "type": "bool"
        }
      ],
      "name": "calculateFee",
      "outputs": [
        {
          "internalType": "uint256",
          "name": "",
          "type": "uint256"
        }
      ],
      "stateMutability": "view",
      "type": "function"
    },
    {
      "inputs": [
        {
          "internalType": "bytes32",
          "name": "",
          "type": "bytes32"
        }
      ],
      "name": "cumulativeFundingIndex",
      "outputs": [
        {
          "internalType": "int256",
          "name": "",
          "type": "int256"
        }
      ],
      "stateMutability": "view",
      "type": "function"
    },
    {
      "inputs": [],
      "name": "dailyLossResetTime",
      "outputs": [
        {
          "internalType": "uint256",
          "name": "",
          "type": "uint256"
        }
      ],
      "stateMutability": "view",
      "type": "function"
    },
    {
      "inputs": [],
      "name": "dailyLossTracker",
      "outputs": [
        {
          "internalType": "uint256",
          "name": "",
          "type": "uint256"
        }
      ],
      "stateMutability": "view",
      "type": "function"
    },
    {
      "inputs": [
        {
          "internalType": "bytes32",
          "name": "pairId",
          "type": "bytes32"
        },
        {
          "internalType": "address",
          "name": "user",
          "type": "address"
        },
        {
          "internalType": "bool",
          "name": "isLong",
          "type": "bool"
        },
        {
          "internalType": "uint256",
          "name": "sizeUsd",
          "type": "uint256"
        }
      ],
      "name": "decreaseOI",
      "outputs": [],
      "stateMutability": "nonpayable",
      "type": "function"
    },
    {
      "inputs": [
        {
          "internalType": "uint256",
          "name": "totalFee",
          "type": "uint256"
        }
      ],
      "name": "getFeeSplit",
      "outputs": [
        {
          "internalType": "uint256",
          "name": "toVault",
          "type": "uint256"
        },
        {
          "internalType": "uint256",
          "name": "toTreasury",
          "type": "uint256"
        }
      ],
      "stateMutability": "view",
      "type": "function"
    },
    {
      "inputs": [
        {
          "internalType": "bytes32",
          "name": "pairId",
          "type": "bytes32"
        }
      ],
      "name": "getNetOI",
      "outputs": [
        {
          "internalType": "int256",
          "name": "",
          "type": "int256"
        }
      ],
      "stateMutability": "view",
      "type": "function"
    },
    {
      "inputs": [
        {
          "internalType": "bytes32",
          "name": "pairId",
          "type": "bytes32"
        }
      ],
      "name": "getOIInfo",
      "outputs": [
        {
          "internalType": "uint256",
          "name": "longOI_",
          "type": "uint256"
        },
        {
          "internalType": "uint256",
          "name": "shortOI_",
          "type": "uint256"
        },
        {
          "internalType": "uint256",
          "name": "maxLong_",
          "type": "uint256"
        },
        {
          "internalType": "uint256",
          "name": "maxShort_",
          "type": "uint256"
        }
      ],
      "stateMutability": "view",
      "type": "function"
    },
    {
      "inputs": [
        {
          "internalType": "bytes32",
          "name": "pairId",
          "type": "bytes32"
        }
      ],
      "name": "getPairConfig",
      "outputs": [
        {
          "components": [
            {
              "internalType": "bytes32",
              "name": "pairId",
              "type": "bytes32"
            },
            {
              "internalType": "bytes32",
              "name": "pythFeedId",
              "type": "bytes32"
            },
            {
              "internalType": "uint256",
              "name": "maxLeverage",
              "type": "uint256"
            },
            {
              "internalType": "uint256",
              "name": "maxLongOI",
              "type": "uint256"
            },
            {
              "internalType": "uint256",
              "name": "maxShortOI",
              "type": "uint256"
            },
            {
              "internalType": "uint256",
              "name": "maxPositionPct",
              "type": "uint256"
            },
            {
              "internalType": "bool",
              "name": "active",
              "type": "bool"
            }
          ],
          "internalType": "struct ConfidentialCore.PairConfig",
          "name": "",
          "type": "tuple"
        }
      ],
      "stateMutability": "view",
      "type": "function"
    },
    {
      "inputs": [],
      "name": "getPairCount",
      "outputs": [
        {
          "internalType": "uint256",
          "name": "",
          "type": "uint256"
        }
      ],
      "stateMutability": "view",
      "type": "function"
    },
    {
      "inputs": [
        {
          "internalType": "bytes32",
          "name": "pairId",
          "type": "bytes32"
        }
      ],
      "name": "getProjectedFundingRate",
      "outputs": [
        {
          "internalType": "int256",
          "name": "",
          "type": "int256"
        }
      ],
      "stateMutability": "view",
      "type": "function"
    },
    {
      "inputs": [
        {
          "internalType": "bytes32",
          "name": "pairId",
          "type": "bytes32"
        },
        {
          "internalType": "address",
          "name": "user",
          "type": "address"
        },
        {
          "internalType": "bool",
          "name": "isLong",
          "type": "bool"
        },
        {
          "internalType": "uint256",
          "name": "sizeUsd",
          "type": "uint256"
        }
      ],
      "name": "increaseOI",
      "outputs": [],
      "stateMutability": "nonpayable",
      "type": "function"
    },
    {
      "inputs": [],
      "name": "keeper",
      "outputs": [
        {
          "internalType": "address",
          "name": "",
          "type": "address"
        }
      ],
      "stateMutability": "view",
      "type": "function"
    },
    {
      "inputs": [
        {
          "internalType": "bytes32",
          "name": "",
          "type": "bytes32"
        }
      ],
      "name": "lastFundingUpdate",
      "outputs": [
        {
          "internalType": "uint256",
          "name": "",
          "type": "uint256"
        }
      ],
      "stateMutability": "view",
      "type": "function"
    },
    {
      "inputs": [
        {
          "internalType": "bytes32",
          "name": "",
          "type": "bytes32"
        }
      ],
      "name": "longOI",
      "outputs": [
        {
          "internalType": "uint256",
          "name": "",
          "type": "uint256"
        }
      ],
      "stateMutability": "view",
      "type": "function"
    },
    {
      "inputs": [],
      "name": "makerFeeBps",
      "outputs": [
        {
          "internalType": "uint256",
          "name": "",
          "type": "uint256"
        }
      ],
      "stateMutability": "view",
      "type": "function"
    },
    {
      "inputs": [],
      "name": "maxDailyDrawdownBps",
      "outputs": [
        {
          "internalType": "uint256",
          "name": "",
          "type": "uint256"
        }
      ],
      "stateMutability": "view",
      "type": "function"
    },
    {
      "inputs": [],
      "name": "maxPriceImpactBps",
      "outputs": [
        {
          "internalType": "uint256",
          "name": "",
          "type": "uint256"
        }
      ],
      "stateMutability": "view",
      "type": "function"
    },
    {
      "inputs": [],
      "name": "minPositionDuration",
      "outputs": [
        {
          "internalType": "uint256",
          "name": "",
          "type": "uint256"
        }
      ],
      "stateMutability": "view",
      "type": "function"
    },
    {
      "inputs": [],
      "name": "oracle",
      "outputs": [
        {
          "internalType": "contract PythPriceOracle",
          "name": "",
          "type": "address"
        }
      ],
      "stateMutability": "view",
      "type": "function"
    },
    {
      "inputs": [],
      "name": "owner",
      "outputs": [
        {
          "internalType": "address",
          "name": "",
          "type": "address"
        }
      ],
      "stateMutability": "view",
      "type": "function"
    },
    {
      "inputs": [
        {
          "internalType": "uint256",
          "name": "",
          "type": "uint256"
        }
      ],
      "name": "pairList",
      "outputs": [
        {
          "internalType": "bytes32",
          "name": "",
          "type": "bytes32"
        }
      ],
      "stateMutability": "view",
      "type": "function"
    },
    {
      "inputs": [
        {
          "internalType": "bytes32",
          "name": "",
          "type": "bytes32"
        }
      ],
      "name": "pairs",
      "outputs": [
        {
          "internalType": "bytes32",
          "name": "pairId",
          "type": "bytes32"
        },
        {
          "internalType": "bytes32",
          "name": "pythFeedId",
          "type": "bytes32"
        },
        {
          "internalType": "uint256",
          "name": "maxLeverage",
          "type": "uint256"
        },
        {
          "internalType": "uint256",
          "name": "maxLongOI",
          "type": "uint256"
        },
        {
          "internalType": "uint256",
          "name": "maxShortOI",
          "type": "uint256"
        },
        {
          "internalType": "uint256",
          "name": "maxPositionPct",
          "type": "uint256"
        },
        {
          "internalType": "bool",
          "name": "active",
          "type": "bool"
        }
      ],
      "stateMutability": "view",
      "type": "function"
    },
    {
      "inputs": [],
      "name": "pause",
      "outputs": [],
      "stateMutability": "nonpayable",
      "type": "function"
    },
    {
      "inputs": [],
      "name": "paused",
      "outputs": [
        {
          "internalType": "bool",
          "name": "",
          "type": "bool"
        }
      ],
      "stateMutability": "view",
      "type": "function"
    },
    {
      "inputs": [],
      "name": "pendingOwner",
      "outputs": [
        {
          "internalType": "address",
          "name": "",
          "type": "address"
        }
      ],
      "stateMutability": "view",
      "type": "function"
    },
    {
      "inputs": [
        {
          "internalType": "uint256",
          "name": "_rate",
          "type": "uint256"
        }
      ],
      "name": "setBaseFundingRate",
      "outputs": [],
      "stateMutability": "nonpayable",
      "type": "function"
    },
    {
      "inputs": [
        {
          "internalType": "uint256",
          "name": "_vaultBps",
          "type": "uint256"
        },
        {
          "internalType": "uint256",
          "name": "_treasuryBps",
          "type": "uint256"
        }
      ],
      "name": "setFeeSplit",
      "outputs": [],
      "stateMutability": "nonpayable",
      "type": "function"
    },
    {
      "inputs": [
        {
          "internalType": "address",
          "name": "_keeper",
          "type": "address"
        }
      ],
      "name": "setKeeper",
      "outputs": [],
      "stateMutability": "nonpayable",
      "type": "function"
    },
    {
      "inputs": [
        {
          "internalType": "uint256",
          "name": "_bps",
          "type": "uint256"
        }
      ],
      "name": "setMaxDailyDrawdown",
      "outputs": [],
      "stateMutability": "nonpayable",
      "type": "function"
    },
    {
      "inputs": [
        {
          "internalType": "uint256",
          "name": "_maxBps",
          "type": "uint256"
        }
      ],
      "name": "setMaxPriceImpact",
      "outputs": [],
      "stateMutability": "nonpayable",
      "type": "function"
    },
    {
      "inputs": [
        {
          "internalType": "uint256",
          "name": "_seconds",
          "type": "uint256"
        }
      ],
      "name": "setMinPositionDuration",
      "outputs": [],
      "stateMutability": "nonpayable",
      "type": "function"
    },
    {
      "inputs": [
        {
          "internalType": "address",
          "name": "_trading",
          "type": "address"
        }
      ],
      "name": "setTrading",
      "outputs": [],
      "stateMutability": "nonpayable",
      "type": "function"
    },
    {
      "inputs": [
        {
          "internalType": "uint256",
          "name": "_takerBps",
          "type": "uint256"
        },
        {
          "internalType": "uint256",
          "name": "_makerBps",
          "type": "uint256"
        }
      ],
      "name": "setTradingFees",
      "outputs": [],
      "stateMutability": "nonpayable",
      "type": "function"
    },
    {
      "inputs": [
        {
          "internalType": "address",
          "name": "_treasury",
          "type": "address"
        }
      ],
      "name": "setTreasury",
      "outputs": [],
      "stateMutability": "nonpayable",
      "type": "function"
    },
    {
      "inputs": [
        {
          "internalType": "uint256",
          "name": "_capBps",
          "type": "uint256"
        }
      ],
      "name": "setUtilizationCap",
      "outputs": [],
      "stateMutability": "nonpayable",
      "type": "function"
    },
    {
      "inputs": [
        {
          "internalType": "address",
          "name": "_vault",
          "type": "address"
        }
      ],
      "name": "setVault",
      "outputs": [],
      "stateMutability": "nonpayable",
      "type": "function"
    },
    {
      "inputs": [
        {
          "internalType": "bytes32",
          "name": "",
          "type": "bytes32"
        }
      ],
      "name": "shortOI",
      "outputs": [
        {
          "internalType": "uint256",
          "name": "",
          "type": "uint256"
        }
      ],
      "stateMutability": "view",
      "type": "function"
    },
    {
      "inputs": [],
      "name": "takerFeeBps",
      "outputs": [
        {
          "internalType": "uint256",
          "name": "",
          "type": "uint256"
        }
      ],
      "stateMutability": "view",
      "type": "function"
    },
    {
      "inputs": [
        {
          "internalType": "bytes32",
          "name": "pairId",
          "type": "bytes32"
        },
        {
          "internalType": "bool",
          "name": "active",
          "type": "bool"
        }
      ],
      "name": "togglePair",
      "outputs": [],
      "stateMutability": "nonpayable",
      "type": "function"
    },
    {
      "inputs": [
        {
          "internalType": "uint256",
          "name": "lossAmount",
          "type": "uint256"
        }
      ],
      "name": "trackVaultLoss",
      "outputs": [],
      "stateMutability": "nonpayable",
      "type": "function"
    },
    {
      "inputs": [],
      "name": "trading",
      "outputs": [
        {
          "internalType": "address",
          "name": "",
          "type": "address"
        }
      ],
      "stateMutability": "view",
      "type": "function"
    },
    {
      "inputs": [
        {
          "internalType": "address",
          "name": "newOwner",
          "type": "address"
        }
      ],
      "name": "transferOwnership",
      "outputs": [],
      "stateMutability": "nonpayable",
      "type": "function"
    },
    {
      "inputs": [],
      "name": "treasury",
      "outputs": [
        {
          "internalType": "address",
          "name": "",
          "type": "address"
        }
      ],
      "stateMutability": "view",
      "type": "function"
    },
    {
      "inputs": [],
      "name": "treasuryFeeBps",
      "outputs": [
        {
          "internalType": "uint256",
          "name": "",
          "type": "uint256"
        }
      ],
      "stateMutability": "view",
      "type": "function"
    },
    {
      "inputs": [],
      "name": "unpause",
      "outputs": [],
      "stateMutability": "nonpayable",
      "type": "function"
    },
    {
      "inputs": [
        {
          "internalType": "bytes32",
          "name": "pairId",
          "type": "bytes32"
        }
      ],
      "name": "updateFunding",
      "outputs": [
        {
          "internalType": "int256",
          "name": "",
          "type": "int256"
        }
      ],
      "stateMutability": "nonpayable",
      "type": "function"
    },
    {
      "inputs": [
        {
          "internalType": "bytes32",
          "name": "pairId",
          "type": "bytes32"
        },
        {
          "internalType": "uint256",
          "name": "maxLeverage_",
          "type": "uint256"
        }
      ],
      "name": "updatePairLeverage",
      "outputs": [],
      "stateMutability": "nonpayable",
      "type": "function"
    },
    {
      "inputs": [
        {
          "internalType": "bytes32",
          "name": "pairId",
          "type": "bytes32"
        },
        {
          "internalType": "uint256",
          "name": "maxLongOI_",
          "type": "uint256"
        },
        {
          "internalType": "uint256",
          "name": "maxShortOI_",
          "type": "uint256"
        },
        {
          "internalType": "uint256",
          "name": "maxPositionPct",
          "type": "uint256"
        }
      ],
      "name": "updatePairLimits",
      "outputs": [],
      "stateMutability": "nonpayable",
      "type": "function"
    },
    {
      "inputs": [],
      "name": "usdc",
      "outputs": [
        {
          "internalType": "address",
          "name": "",
          "type": "address"
        }
      ],
      "stateMutability": "view",
      "type": "function"
    },
    {
      "inputs": [
        {
          "internalType": "bytes32",
          "name": "",
          "type": "bytes32"
        },
        {
          "internalType": "address",
          "name": "",
          "type": "address"
        }
      ],
      "name": "userLongOI",
      "outputs": [
        {
          "internalType": "uint256",
          "name": "",
          "type": "uint256"
        }
      ],
      "stateMutability": "view",
      "type": "function"
    },
    {
      "inputs": [
        {
          "internalType": "bytes32",
          "name": "",
          "type": "bytes32"
        },
        {
          "internalType": "address",
          "name": "",
          "type": "address"
        }
      ],
      "name": "userShortOI",
      "outputs": [
        {
          "internalType": "uint256",
          "name": "",
          "type": "uint256"
        }
      ],
      "stateMutability": "view",
      "type": "function"
    },
    {
      "inputs": [],
      "name": "utilizationCapBps",
      "outputs": [
        {
          "internalType": "uint256",
          "name": "",
          "type": "uint256"
        }
      ],
      "stateMutability": "view",
      "type": "function"
    },
    {
      "inputs": [
        {
          "internalType": "bytes32",
          "name": "pairId",
          "type": "bytes32"
        },
        {
          "internalType": "address",
          "name": "user",
          "type": "address"
        },
        {
          "internalType": "bool",
          "name": "isLong",
          "type": "bool"
        },
        {
          "internalType": "uint256",
          "name": "sizeUsd",
          "type": "uint256"
        },
        {
          "internalType": "uint256",
          "name": "leverage",
          "type": "uint256"
        }
      ],
      "name": "validateOpenPosition",
      "outputs": [],
      "stateMutability": "view",
      "type": "function"
    },
    {
      "inputs": [],
      "name": "vault",
      "outputs": [
        {
          "internalType": "address",
          "name": "",
          "type": "address"
        }
      ],
      "stateMutability": "view",
      "type": "function"
    },
    {
      "inputs": [],
      "name": "vaultFeeBps",
      "outputs": [
        {
          "internalType": "uint256",
          "name": "",
          "type": "uint256"
        }
      ],
      "stateMutability": "view",
      "type": "function"
    }
  ],
  "bytecode": "0x60a0346200010257601f62001fc438819003918201601f19168301916001600160401b038311848410176200010657808492604094855283398101031262000102576200005a602062000052836200011a565b92016200011a565b60046007556002600855611b58600955610bb8600a819055611f40600b55660aa87bee538000600c556064600f5560056016556017556001600160a01b0390828216158015620000f7575b620000e55760018060a01b03199233845f5416175f556080521690600254161760025542601955604051611e949081620001308239608051816114290152f35b60405163d92e233d60e01b8152600490fd5b5081811615620000a5565b5f80fd5b634e487b7160e01b5f52604160045260245ffd5b51906001600160a01b0382168203620001025756fe6080604081815260049182361015610015575f80fd5b5f3560e01c9081631b573019146118fd575080632e354c7d1461188c578063339457201461173c578063353081e5146116c05780633b608af2146116865780633c098f101461160e5780633e153c40146114585780633e413bee146114155780633f4ba83a146113c05780634655f1eb1461139957806353c915f81461137b5780635a1098711461133c5780635c975abb1461131657806361d027b3146112ee5780636321de7f146112d057806365100531146112a9578063673e04811461123d5780636817031b146111f25780636a37a22a14611115578063748747e6146110ca57806379ba5097146110265780637dc0d1d014610ffe5780637e6335c714610fb05780637e8d588314610f92578063806954e314610f61578063837df08e14610f225780638456cb5914610ec75780638da5cb5b14610ea05780638da97d9d14610e4c5780638e8c779114610e145780639124d0cb14610df657806393359fe414610dd857806399a5d74714610db35780639cf2ebf514610d95578063a553906c14610d2f578063a7432ecc14610cad578063ac1fff0514610c3d578063acc87ba614610bd0578063aced166114610ba8578063aec376cd14610b8a578063b391decf14610b60578063b65b361f14610ab2578063bd79156f1461085e578063c60609f2146106dc578063c8d594db146106be578063cc018b7c146106a0578063d448eebc14610682578063daf012e614610664578063dc5998e0146105fd578063dd2bb29f146105df578063dd561c8c146105b8578063decbc2b714610591578063e30c397814610569578063e4d8cbe514610526578063e80cfa5e14610508578063ec44acf2146104e1578063f0f4426014610486578063f2fde38b146103f5578063f98cecbe146103b2578063fbfa77cf1461038a5763fda5ecb1146102be575f80fd5b34610386576102cc366119e2565b5f5490939192906001600160a01b031633036103795760328311158061036e575b1561033c57838310610303575050600755600855005b906020606492519162461bcd60e51b835282015260136024820152722a30b5b2b91036bab9ba101f1e9026b0b5b2b960691b6044820152fd5b906020606492519162461bcd60e51b8352820152600c60248201526b08ccaca40e8dede40d0d2ced60a31b6044820152fd5b5060328411156102ed565b51635fc483c560e01b8152fd5b5f80fd5b5034610386575f3660031901126103865760035490516001600160a01b039091168152602090f35b50346103865760203660031901126103865781546001600160a01b031633036103e8576103e160209235611d47565b9051908152f35b5163e9e3f4ad60e01b8152fd5b50903461038657602036600319011261038657610410611986565b5f546001600160a01b039081169291338490036104765716928315610469575050600180546001600160a01b031916831790557f38d16b8cac22d99fc7c124b9cd0de2d3fa1faef420bfe791d8c362d765e227005f80a3005b5163d92e233d60e01b8152fd5b8451635fc483c560e01b81528390fd5b509034610386576020366003190112610386576104a1611986565b5f546001600160a01b039190821633036104d1571691821561046957600580546001600160a01b03191684179055005b8351635fc483c560e01b81528390fd5b5034610386575f36600319011261038657905490516001600160a01b039091168152602090f35b5034610386575f36600319011261038657602090600a549051908152f35b503461038657806003193601126103865761271061055860209361054861199c565b1561056057600854905b35611a62565b049051908152f35b60075490610552565b5034610386575f3660031901126103865760015490516001600160a01b039091168152602090f35b503461038657602036600319011261038657602091355f52600e8252805f20549051908152f35b503461038657602036600319011261038657602091355f5260138252805f20549051908152f35b5034610386575f366003190112610386576020906009549051908152f35b509034610386576020366003190112610386575f54813592906001600160a01b031633036103795761012c8311610635576016839055005b906020606492519162461bcd60e51b8352820152600960248201526826b0bc101a9036b4b760b91b6044820152fd5b5034610386575f366003190112610386576020906016549051908152f35b5034610386575f366003190112610386576020906007549051908152f35b5034610386575f36600319011261038657602090600c549051908152f35b5034610386575f366003190112610386576020906008549051908152f35b50346103865760209182600319360112610386576003546001600160a01b0316903382900361082e5760195462015180810180911161081b5742101561080e575b61072a8135601854611b01565b918260185580610737575b005b5f8091855187810190631e2ebe8f60e31b825285815261075681611ac3565b51915afa610762611d08565b9080610803575b61076f57005b84818051810103126103865784015190811561073557612710908184029184830414841517156107f05750906107a491611a75565b6017548091116107b057005b7fc1b68f84e2906898e13e04dfea4f2ca4c44015fceb114b71916f54a7072712a693600160a01b60ff60a01b1960015416176001558351928352820152a1005b601190634e487b7160e01b5f525260245ffd5b508481511015610769565b5f6018554260195561071d565b601182634e487b7160e01b5f525260245ffd5b825162461bcd60e51b8152908101849052600a60248201526913db9b1e4815985d5b1d60b21b6044820152606490fd5b50346103865760a036600319011261038657813561087a611970565b9060443580151581036103865760643560ff60015460a01c16610aa257825f5260209360108552855f2086516108af81611a93565b81548152600182015487820152600282015494888201958652600383015495606083019687528a840154926080810193845260ff600660058701549660a08401978852015416159060c08215910152610a92575160843511610a825715610a135750845f526012865261092583885f2054611b01565b845110610a035751806109b4575b50505050505b6003546001600160a01b03168061094c57005b5f8091845184810190637510e6c960e11b825287815261096b81611ac3565b51915afa610977611d08565b90806109a9575b61098457005b8181805181010312610386570151600b541061099c57005b516324e397d360e21b8152fd5b50818151101561097e565b6109c5612710916109e69551611a62565b04935f5260148552855f209060018060a01b03165f528452845f2054611b01565b116109f5575f80808080610933565b5051639f17b34d60e01b8152fd5b8651638a9d1c4160e01b81528890fd5b9350845f5260138652610a2983885f2054611b01565b845110610a03575180610a41575b5050505050610939565b610a5261271091610a739551611a62565b04935f5260158552855f209060018060a01b03165f528452845f2054611b01565b116109f5575f80808080610a37565b88516334bcdead60e11b81528a90fd5b8951634fedf0ed60e01b81528b90fd5b8451631309a56360e01b81528690fd5b50903461038657610ac2366119ab565b8454909593946001600160a01b03929183163303610b52575015610b1b5783610b17945f526012602052835f20610afa878254611b01565b90555f526014602052825f2091165f526020525f20918254611b01565b9055005b83610b17945f526013602052835f20610b35878254611b01565b90555f526015602052825f2091165f526020525f20918254611b01565b845163e9e3f4ad60e01b8152fd5b5034610386576060366003190112610386576103e1602092610b8061199c565b6044359135611be7565b5034610386575f366003190112610386576020906017549051908152f35b5034610386575f3660031901126103865760065490516001600160a01b039091168152602090f35b50346103865780600319360112610386575f54823592906001600160a01b03163303610c2f5750815f5260106020526002602435915f2001557feaab1fbae57c9453947c2c5733c4728c55777f0c7adefa5cc50d91eb3e1e36845f80a2005b9051635fc483c560e01b8152fd5b509034610386576080366003190112610386575f54813592906001600160a01b0316330361037957825f5260106020525f209060243560038301556044359082015560056064359101557feaab1fbae57c9453947c2c5733c4728c55777f0c7adefa5cc50d91eb3e1e36845f80a2005b509034610386578160031936011261038657803591610cca61199c565b5f549092906001600160a01b03163303610c2f57507fd6c85b16f14b4f3729d9c05fba629c9c41cb77a2eaea1cbe9f972e3c1add760a91602091845f5260108352610d26826006835f20019060ff801983541691151516179055565b519015158152a2005b503461038657602036600319011261038657610d49611986565b5f546001600160a01b03919082163303610d865716908115610d77575081546001600160a01b031916179055005b5163d92e233d60e01b81529050fd5b505051635fc483c560e01b8152fd5b5034610386575f366003190112610386576020906011549051908152f35b5034610386576020366003190112610386576127106105586020936007549035611a62565b5034610386575f36600319011261038657602090600f549051908152f35b5034610386576020366003190112610386576103e160209235611b7a565b50903461038657602036600319011261038657359060115482101561038657610e3e6020926119f8565b91905490519160031b1c8152f35b5090346103865760203660031901126103865760809181355f526012602052805f2054916013602052815f2054916010602052805f2091600383015492015492815194855260208501528301526060820152f35b5034610386575f366003190112610386575f5490516001600160a01b039091168152602090f35b5034610386575f366003190112610386575f546001600160a01b03163303610379576001805460ff60a01b1916600160a01b1790557f9e87fac88ff661f02d44f95383c817fece4bce600a3dab7a54406878b965e7525f80a1005b5034610386578060031936011261038657602091610f3e611970565b90355f5260148352815f209060018060a01b03165f528252805f20549051908152f35b503461038657602036600319011261038657602091355f52601282526103e1815f205460138452825f205490611b0e565b5034610386575f36600319011261038657602090600b549051908152f35b503461038657610fbf366119e2565b5f5490939192906001600160a01b0316330361037957612710610fe28585611b01565b03610ff1575050600955600a55005b51630601f69760e01b8152fd5b5034610386575f3660031901126103865760025490516001600160a01b039091168152602090f35b5034610386575f366003190112610386576001546001600160a01b03929091838316919033839003611093575050805f549384167f8be0079c531659141344cd1fd0a4f28419497f9722a3daafe3b4186f6b6457e05f80a36001600160a01b0319928316175f5516600155005b906020606492519162461bcd60e51b835282015260116024820152702737ba103832b73234b7339037bbb732b960791b6044820152fd5b509034610386576020366003190112610386576110e5611986565b5f546001600160a01b039190821633036104d1571691821561046957600680546001600160a01b03191684179055005b50903461038657602036600319011261038657815f60c060e0945161113981611a93565b82815282602082015282848201528260608201528260808201528260a0820152015281355f526010602052805f2081519161117383611a93565b81549384845260018301549160208501928352600284015481860190815260038501549260608701938452850154936080870194855260c060ff600660058901549860a08b01998a5201541697019615158752825197885251602088015251908601525160608501525160808401525160a083015251151560c0820152f35b5090346103865760203660031901126103865761120d611986565b5f546001600160a01b039190821633036104d1571691821561046957600380546001600160a01b03191684179055005b5034610386576020366003190112610386578160e092355f526010602052815f2080549260018201549260028301546003840154918401549260ff600660058701549601541695815197885260208801528601526060850152608084015260a0830152151560c0820152f35b503461038657602036600319011261038657602091355f5260128252805f20549051908152f35b5034610386575f366003190112610386576020906018549051908152f35b5034610386575f3660031901126103865760055490516001600160a01b039091168152602090f35b5034610386575f3660031901126103865760209060ff60015460a01c1690519015158152f35b5034610386578060031936011261038657602091611358611970565b90355f5260158352815f209060018060a01b03165f528252805f20549051908152f35b5034610386575f366003190112610386576020906019549051908152f35b503461038657602036600319011261038657602091355f52600d8252805f20549051908152f35b5034610386575f366003190112610386575f546001600160a01b03163303610379576001805460ff60a01b191690557fa45f47fdea8a1efdd9029a5691c7f759c32b7c698632b563573e155625d169335f80a1005b5034610386575f36600319011261038657517f00000000000000000000000000000000000000000000000000000000000000006001600160a01b03168152602090f35b50346103865760c03660031901126103865781359067ffffffffffffffff9081831161038657366023840112156103865782840135918211610386573660248385010111610386575f546044359360843593606435926001600160a01b031633036115fe578351602092838201926114e791859184918190602401873781015f83820152038084520182611adf565b5190209561156f84516114f981611a93565b88815260068985830160243581528884018b81526060850189815260808601918c835260a087019360a435855260c0880195600187525f5260108b528c5f2097518855516001880155516002870155516003860155518685015551600584015551151591019060ff801983541691151516179055565b60115490680100000000000000008210156115eb5750917fc09b0e6ea17e638181154aed6758ae0143886172f6cf847a2302ff6def1866199593916115bd84600160609896016011556119f8565b81549060031b908a821b915f19901b1916179055875f52600e815242835f20558251948552840152820152a2005b604190634e487b7160e01b5f525260245ffd5b8351635fc483c560e01b81528790fd5b509034610386576020366003190112610386575f54813592906001600160a01b03163303610379576103e88310158061167a575b1561164e576017839055005b906020606492519162461bcd60e51b8352820152600660248201526531302d35302560d01b6044820152fd5b50611388831115611642565b50903461038657602036600319011261038657356116b46127106116ac60095484611a62565b048092611a41565b82519182526020820152f35b509034610386576020366003190112610386575f54813592906001600160a01b031633036103795761138883101580611730575b1561170057600b839055005b906020606492519162461bcd60e51b8352820152600a6024820152694361702035302d39352560b01b6044820152fd5b5061251c8311156116f4565b50346103865761174b366119ab565b8554939592936001600160a01b0393919291908416330361187e5750156117f557845f5260209160128352845f2054828082115f146117ed5761178d91611a41565b865f5260128452855f205560148352845f20931692835f52825280845f2054115f146117e5576117cf90855f5260148352845f20845f528352845f2054611a41565b935b5f5260148152825f20915f52525f20555f80f35b505f936117d1565b50505f61178d565b845f5260209160138352845f2054828082115f146118765761181691611a41565b865f5260138452855f205560158352845f20931692835f52825280845f2054115f1461186e5761185890855f5260158352845f20845f528352845f2054611a41565b935b5f5260158152825f20915f52525f20555f80f35b505f9361185a565b50505f611816565b855163e9e3f4ad60e01b8152fd5b509034610386576020366003190112610386575f54813592906001600160a01b0316330361037957662386f26fc1000083116118c957600c839055005b906020606492519162461bcd60e51b8352820152600e60248201526d4d6178203125207065722064617960901b6044820152fd5b838334610386576020366003190112610386575f54823593906001600160a01b0316330361196257506101f4831161193657600f839055005b906020606492519162461bcd60e51b835282015260066024820152654d617820352560d01b6044820152fd5b635fc483c560e01b81529050fd5b602435906001600160a01b038216820361038657565b600435906001600160a01b038216820361038657565b60243590811515820361038657565b608090600319011261038657600435906024356001600160a01b038116810361038657906044358015158103610386579060643590565b6040906003190112610386576004359060243590565b601154811015611a2d5760115f527f31ecc21a745e3968a04e9570e4425bc18fa8019c68028196b546d1669c200c6801905f90565b634e487b7160e01b5f52603260045260245ffd5b91908203918211611a4e57565b634e487b7160e01b5f52601160045260245ffd5b81810292918115918404141715611a4e57565b8115611a7f570490565b634e487b7160e01b5f52601260045260245ffd5b60e0810190811067ffffffffffffffff821117611aaf57604052565b634e487b7160e01b5f52604160045260245ffd5b6040810190811067ffffffffffffffff821117611aaf57604052565b90601f8019910116810190811067ffffffffffffffff821117611aaf57604052565b91908201809211611a4e57565b81810392915f138015828513169184121617611a4e57565b906201518091828102928184051490151715611a4e57565b81810292915f8212600160ff1b821416611a4e578184051490151715611a4e57565b8115611a7f57600160ff1b81145f19831416611a4e570590565b5f52601260205260405f2054601360205260405f2054611b9a8183611b01565b918215611be057611bb791611bae91611b0e565b600c5490611b3e565b610e1090818102918183051490151715611a4e57611bd7611bdd92611b26565b90611b60565b90565b5050505f90565b919091805f5260209060108252604090815f20825190611c0682611a93565b8054825260018101548583015260028101548483015260038101549182606082015260c060ff6006600485015494856080860152600581015460a08601520154161515910152865f14611d005750945b8515611cf65715611cdd575f52601282526013815f205492525f20541115905b620f42409283820291808304851490151715611a4e57611c9a611ca0918593611a75565b80611a62565b0491611caf600f548094611a62565b0491808311611cd5575b5015611cc25790565b60011c600160ff1b8114611a4e575f0390565b91505f611cb9565b5f52601382526012815f205492525f2054111590611c76565b5050505050505f90565b905094611c56565b3d15611d42573d9067ffffffffffffffff8211611aaf5760405191611d37601f8201601f191660200184611adf565b82523d5f602084013e565b606090565b805f52602090600e8252604091611d61835f205442611a41565b8015611e5157610e10808211611e49575b50825f5260128252835f20549060138352845f2054611d918184611b01565b928315611e3057611dbb9392611db0611bae611bd794611db594611b0e565b611b3e565b91611b26565b91805f52600d8252835f20928354818101905f8383129112908015821691151617611a4e578583927facab28495f5d412e24f181214dd823bd5fa666235afd596193c593fedee9064f92600d9755835f52600e865242825f2055868652815f205490825191825286820152a25f52525f205490565b50505050600d915f52600e815242835f2055525f205490565b90505f611d72565b50600d915f52525f20549056fea26469706673582212202a9ace8164dc8f548a05648a5881a8d203f574d13ae0e983f03e90313b523e5364736f6c63430008180033",
  "linkReferences": {},
  "deployedLinkReferences": {},
  "immutableReferences": {
    "104": [
      {
        "length": 32,
        "start": 5161
      }
    ]
  },
  "inputSourceName": "project/src/ConfidentialCore.sol",
  "buildInfoId": "solc-0_8_24-3567498d54a75ae06b4713e51b40a119ec76c424"
}