{
  "_format": "hh3-artifact-1",
  "contractName": "ConfidentialVault",
  "sourceName": "src/ConfidentialVault.sol",
  "abi": [
    {
      "inputs": [
        {
          "internalType": "address",
          "name": "_usdc",
          "type": "address"
        },
        {
          "internalType": "address",
          "name": "_core",
          "type": "address"
        }
      ],
      "stateMutability": "nonpayable",
      "type": "constructor"
    },
    {
      "inputs": [],
      "name": "DepositsDisabled",
      "type": "error"
    },
    {
      "inputs": [],
      "name": "ExceedsDepositCap",
      "type": "error"
    },
    {
      "inputs": [],
      "name": "ExceedsTVLCap",
      "type": "error"
    },
    {
      "inputs": [],
      "name": "InsufficientLiquidity",
      "type": "error"
    },
    {
      "inputs": [],
      "name": "InsufficientShares",
      "type": "error"
    },
    {
      "inputs": [],
      "name": "LockupNotExpired",
      "type": "error"
    },
    {
      "inputs": [],
      "name": "OnlyOwner",
      "type": "error"
    },
    {
      "inputs": [],
      "name": "OnlyTrading",
      "type": "error"
    },
    {
      "inputs": [],
      "name": "ReentrancyGuardReentrantCall",
      "type": "error"
    },
    {
      "inputs": [],
      "name": "ZeroAmount",
      "type": "error"
    },
    {
      "anonymous": false,
      "inputs": [
        {
          "indexed": false,
          "internalType": "uint256",
          "name": "amount",
          "type": "uint256"
        }
      ],
      "name": "AccruedFeesSettled",
      "type": "event"
    },
    {
      "anonymous": false,
      "inputs": [
        {
          "indexed": true,
          "internalType": "address",
          "name": "trader",
          "type": "address"
        },
        {
          "indexed": false,
          "internalType": "uint256",
          "name": "amount",
          "type": "uint256"
        }
      ],
      "name": "CollateralReturned",
      "type": "event"
    },
    {
      "anonymous": false,
      "inputs": [
        {
          "indexed": true,
          "internalType": "address",
          "name": "user",
          "type": "address"
        },
        {
          "indexed": false,
          "internalType": "uint256",
          "name": "amount",
          "type": "uint256"
        },
        {
          "indexed": false,
          "internalType": "uint256",
          "name": "sharesReceived",
          "type": "uint256"
        },
        {
          "indexed": false,
          "internalType": "bool",
          "name": "isDegen",
          "type": "bool"
        }
      ],
      "name": "Deposit",
      "type": "event"
    },
    {
      "anonymous": false,
      "inputs": [
        {
          "indexed": false,
          "internalType": "bool",
          "name": "isDegen",
          "type": "bool"
        },
        {
          "indexed": false,
          "internalType": "uint256",
          "name": "newEpoch",
          "type": "uint256"
        }
      ],
      "name": "EpochReset",
      "type": "event"
    },
    {
      "anonymous": false,
      "inputs": [
        {
          "indexed": false,
          "internalType": "uint256",
          "name": "amount",
          "type": "uint256"
        }
      ],
      "name": "FeeReceived",
      "type": "event"
    },
    {
      "anonymous": false,
      "inputs": [
        {
          "indexed": true,
          "internalType": "address",
          "name": "trader",
          "type": "address"
        },
        {
          "indexed": true,
          "internalType": "address",
          "name": "liquidator",
          "type": "address"
        },
        {
          "indexed": false,
          "internalType": "uint256",
          "name": "collateral",
          "type": "uint256"
        },
        {
          "indexed": false,
          "internalType": "uint256",
          "name": "reward",
          "type": "uint256"
        }
      ],
      "name": "LiquidationSettled",
      "type": "event"
    },
    {
      "anonymous": false,
      "inputs": [
        {
          "indexed": true,
          "internalType": "address",
          "name": "trader",
          "type": "address"
        },
        {
          "indexed": false,
          "internalType": "int256",
          "name": "netPnl",
          "type": "int256"
        },
        {
          "indexed": false,
          "internalType": "uint256",
          "name": "collateral",
          "type": "uint256"
        }
      ],
      "name": "PositionSettled",
      "type": "event"
    },
    {
      "anonymous": false,
      "inputs": [
        {
          "indexed": true,
          "internalType": "address",
          "name": "trader",
          "type": "address"
        },
        {
          "indexed": false,
          "internalType": "uint256",
          "name": "requestedProfit",
          "type": "uint256"
        },
        {
          "indexed": false,
          "internalType": "uint256",
          "name": "cappedProfit",
          "type": "uint256"
        }
      ],
      "name": "ProfitCapped",
      "type": "event"
    },
    {
      "anonymous": false,
      "inputs": [
        {
          "indexed": true,
          "internalType": "address",
          "name": "user",
          "type": "address"
        },
        {
          "indexed": false,
          "internalType": "uint256",
          "name": "amount",
          "type": "uint256"
        },
        {
          "indexed": false,
          "internalType": "uint256",
          "name": "sharesBurned",
          "type": "uint256"
        },
        {
          "indexed": false,
          "internalType": "bool",
          "name": "isDegen",
          "type": "bool"
        }
      ],
      "name": "Withdraw",
      "type": "event"
    },
    {
      "inputs": [],
      "name": "MINIMUM_LIQUIDITY",
      "outputs": [
        {
          "internalType": "uint256",
          "name": "",
          "type": "uint256"
        }
      ],
      "stateMutability": "view",
      "type": "function"
    },
    {
      "inputs": [],
      "name": "availableLiquidity",
      "outputs": [
        {
          "internalType": "uint256",
          "name": "",
          "type": "uint256"
        }
      ],
      "stateMutability": "view",
      "type": "function"
    },
    {
      "inputs": [
        {
          "internalType": "address",
          "name": "user",
          "type": "address"
        },
        {
          "internalType": "bool",
          "name": "isDegen",
          "type": "bool"
        }
      ],
      "name": "balanceOfUnderlying",
      "outputs": [
        {
          "internalType": "uint256",
          "name": "",
          "type": "uint256"
        }
      ],
      "stateMutability": "view",
      "type": "function"
    },
    {
      "inputs": [
        {
          "internalType": "address",
          "name": "user",
          "type": "address"
        },
        {
          "internalType": "bool",
          "name": "isDegen",
          "type": "bool"
        }
      ],
      "name": "canWithdraw",
      "outputs": [
        {
          "internalType": "bool",
          "name": "",
          "type": "bool"
        }
      ],
      "stateMutability": "view",
      "type": "function"
    },
    {
      "inputs": [],
      "name": "core",
      "outputs": [
        {
          "internalType": "contract ConfidentialCore",
          "name": "",
          "type": "address"
        }
      ],
      "stateMutability": "view",
      "type": "function"
    },
    {
      "inputs": [],
      "name": "decimals",
      "outputs": [
        {
          "internalType": "uint8",
          "name": "",
          "type": "uint8"
        }
      ],
      "stateMutability": "view",
      "type": "function"
    },
    {
      "inputs": [
        {
          "internalType": "address",
          "name": "",
          "type": "address"
        }
      ],
      "name": "degenDepositTimestamp",
      "outputs": [
        {
          "internalType": "uint256",
          "name": "",
          "type": "uint256"
        }
      ],
      "stateMutability": "view",
      "type": "function"
    },
    {
      "inputs": [],
      "name": "degenEpoch",
      "outputs": [
        {
          "internalType": "uint256",
          "name": "",
          "type": "uint256"
        }
      ],
      "stateMutability": "view",
      "type": "function"
    },
    {
      "inputs": [],
      "name": "degenLockupPeriod",
      "outputs": [
        {
          "internalType": "uint256",
          "name": "",
          "type": "uint256"
        }
      ],
      "stateMutability": "view",
      "type": "function"
    },
    {
      "inputs": [],
      "name": "degenSharePrice",
      "outputs": [
        {
          "internalType": "uint256",
          "name": "",
          "type": "uint256"
        }
      ],
      "stateMutability": "view",
      "type": "function"
    },
    {
      "inputs": [
        {
          "internalType": "uint256",
          "name": "",
          "type": "uint256"
        },
        {
          "internalType": "address",
          "name": "",
          "type": "address"
        }
      ],
      "name": "degenShares",
      "outputs": [
        {
          "internalType": "uint256",
          "name": "",
          "type": "uint256"
        }
      ],
      "stateMutability": "view",
      "type": "function"
    },
    {
      "inputs": [
        {
          "internalType": "uint256",
          "name": "amount",
          "type": "uint256"
        },
        {
          "internalType": "bool",
          "name": "isDegen",
          "type": "bool"
        }
      ],
      "name": "deposit",
      "outputs": [],
      "stateMutability": "nonpayable",
      "type": "function"
    },
    {
      "inputs": [],
      "name": "depositsEnabled",
      "outputs": [
        {
          "internalType": "bool",
          "name": "",
          "type": "bool"
        }
      ],
      "stateMutability": "view",
      "type": "function"
    },
    {
      "inputs": [
        {
          "internalType": "uint256",
          "name": "totalFee",
          "type": "uint256"
        }
      ],
      "name": "distributeClosingFee",
      "outputs": [],
      "stateMutability": "nonpayable",
      "type": "function"
    },
    {
      "inputs": [],
      "name": "maxDegenDeposits",
      "outputs": [
        {
          "internalType": "uint256",
          "name": "",
          "type": "uint256"
        }
      ],
      "stateMutability": "view",
      "type": "function"
    },
    {
      "inputs": [],
      "name": "maxDepositPerUser",
      "outputs": [
        {
          "internalType": "uint256",
          "name": "",
          "type": "uint256"
        }
      ],
      "stateMutability": "view",
      "type": "function"
    },
    {
      "inputs": [],
      "name": "maxPrimeDeposits",
      "outputs": [
        {
          "internalType": "uint256",
          "name": "",
          "type": "uint256"
        }
      ],
      "stateMutability": "view",
      "type": "function"
    },
    {
      "inputs": [],
      "name": "name",
      "outputs": [
        {
          "internalType": "string",
          "name": "",
          "type": "string"
        }
      ],
      "stateMutability": "view",
      "type": "function"
    },
    {
      "inputs": [
        {
          "internalType": "uint256",
          "name": "amount",
          "type": "uint256"
        }
      ],
      "name": "payFundingReward",
      "outputs": [
        {
          "internalType": "uint256",
          "name": "",
          "type": "uint256"
        }
      ],
      "stateMutability": "nonpayable",
      "type": "function"
    },
    {
      "inputs": [
        {
          "internalType": "address",
          "name": "",
          "type": "address"
        }
      ],
      "name": "primeDepositTimestamp",
      "outputs": [
        {
          "internalType": "uint256",
          "name": "",
          "type": "uint256"
        }
      ],
      "stateMutability": "view",
      "type": "function"
    },
    {
      "inputs": [],
      "name": "primeEpoch",
      "outputs": [
        {
          "internalType": "uint256",
          "name": "",
          "type": "uint256"
        }
      ],
      "stateMutability": "view",
      "type": "function"
    },
    {
      "inputs": [],
      "name": "primeLockupPeriod",
      "outputs": [
        {
          "internalType": "uint256",
          "name": "",
          "type": "uint256"
        }
      ],
      "stateMutability": "view",
      "type": "function"
    },
    {
      "inputs": [],
      "name": "primeProtectionBps",
      "outputs": [
        {
          "internalType": "uint256",
          "name": "",
          "type": "uint256"
        }
      ],
      "stateMutability": "view",
      "type": "function"
    },
    {
      "inputs": [],
      "name": "primeSharePrice",
      "outputs": [
        {
          "internalType": "uint256",
          "name": "",
          "type": "uint256"
        }
      ],
      "stateMutability": "view",
      "type": "function"
    },
    {
      "inputs": [
        {
          "internalType": "uint256",
          "name": "",
          "type": "uint256"
        },
        {
          "internalType": "address",
          "name": "",
          "type": "address"
        }
      ],
      "name": "primeShares",
      "outputs": [
        {
          "internalType": "uint256",
          "name": "",
          "type": "uint256"
        }
      ],
      "stateMutability": "view",
      "type": "function"
    },
    {
      "inputs": [
        {
          "internalType": "uint256",
          "name": "amount",
          "type": "uint256"
        }
      ],
      "name": "receiveFees",
      "outputs": [],
      "stateMutability": "nonpayable",
      "type": "function"
    },
    {
      "inputs": [
        {
          "internalType": "uint256",
          "name": "amount",
          "type": "uint256"
        }
      ],
      "name": "releaseBacking",
      "outputs": [],
      "stateMutability": "nonpayable",
      "type": "function"
    },
    {
      "inputs": [
        {
          "internalType": "uint256",
          "name": "amount",
          "type": "uint256"
        }
      ],
      "name": "reserveBacking",
      "outputs": [],
      "stateMutability": "nonpayable",
      "type": "function"
    },
    {
      "inputs": [
        {
          "internalType": "address",
          "name": "trader",
          "type": "address"
        },
        {
          "internalType": "uint256",
          "name": "amount",
          "type": "uint256"
        }
      ],
      "name": "returnCollateral",
      "outputs": [],
      "stateMutability": "nonpayable",
      "type": "function"
    },
    {
      "inputs": [
        {
          "internalType": "uint256",
          "name": "_perUser",
          "type": "uint256"
        },
        {
          "internalType": "uint256",
          "name": "_degenTotal",
          "type": "uint256"
        },
        {
          "internalType": "uint256",
          "name": "_primeTotal",
          "type": "uint256"
        }
      ],
      "name": "setDepositCaps",
      "outputs": [],
      "stateMutability": "nonpayable",
      "type": "function"
    },
    {
      "inputs": [
        {
          "internalType": "uint256",
          "name": "_bps",
          "type": "uint256"
        }
      ],
      "name": "setPrimeProtection",
      "outputs": [],
      "stateMutability": "nonpayable",
      "type": "function"
    },
    {
      "inputs": [
        {
          "internalType": "uint256",
          "name": "_degenSeconds",
          "type": "uint256"
        },
        {
          "internalType": "uint256",
          "name": "_primeSeconds",
          "type": "uint256"
        }
      ],
      "name": "setTieredLockups",
      "outputs": [],
      "stateMutability": "nonpayable",
      "type": "function"
    },
    {
      "inputs": [
        {
          "internalType": "uint256",
          "name": "amount",
          "type": "uint256"
        }
      ],
      "name": "settleAccruedFees",
      "outputs": [],
      "stateMutability": "nonpayable",
      "type": "function"
    },
    {
      "inputs": [
        {
          "internalType": "address",
          "name": "trader",
          "type": "address"
        },
        {
          "internalType": "address",
          "name": "liquidator",
          "type": "address"
        },
        {
          "internalType": "uint256",
          "name": "collateral",
          "type": "uint256"
        },
        {
          "internalType": "uint256",
          "name": "reward",
          "type": "uint256"
        }
      ],
      "name": "settleLiquidation",
      "outputs": [],
      "stateMutability": "nonpayable",
      "type": "function"
    },
    {
      "inputs": [
        {
          "internalType": "address",
          "name": "trader",
          "type": "address"
        },
        {
          "internalType": "uint256",
          "name": "collateral",
          "type": "uint256"
        },
        {
          "internalType": "int256",
          "name": "netPnl",
          "type": "int256"
        }
      ],
      "name": "settlePosition",
      "outputs": [],
      "stateMutability": "nonpayable",
      "type": "function"
    },
    {
      "inputs": [
        {
          "internalType": "address",
          "name": "user",
          "type": "address"
        },
        {
          "internalType": "bool",
          "name": "isDegen",
          "type": "bool"
        }
      ],
      "name": "sharesOf",
      "outputs": [
        {
          "internalType": "uint256",
          "name": "",
          "type": "uint256"
        }
      ],
      "stateMutability": "view",
      "type": "function"
    },
    {
      "inputs": [],
      "name": "symbol",
      "outputs": [
        {
          "internalType": "string",
          "name": "",
          "type": "string"
        }
      ],
      "stateMutability": "view",
      "type": "function"
    },
    {
      "inputs": [
        {
          "internalType": "bool",
          "name": "_enabled",
          "type": "bool"
        }
      ],
      "name": "toggleDeposits",
      "outputs": [],
      "stateMutability": "nonpayable",
      "type": "function"
    },
    {
      "inputs": [],
      "name": "totalAssets",
      "outputs": [
        {
          "internalType": "uint256",
          "name": "",
          "type": "uint256"
        }
      ],
      "stateMutability": "view",
      "type": "function"
    },
    {
      "inputs": [],
      "name": "totalBacking",
      "outputs": [
        {
          "internalType": "uint256",
          "name": "",
          "type": "uint256"
        }
      ],
      "stateMutability": "view",
      "type": "function"
    },
    {
      "inputs": [],
      "name": "totalDegenAssets",
      "outputs": [
        {
          "internalType": "uint256",
          "name": "",
          "type": "uint256"
        }
      ],
      "stateMutability": "view",
      "type": "function"
    },
    {
      "inputs": [],
      "name": "totalDegenShares",
      "outputs": [
        {
          "internalType": "uint256",
          "name": "",
          "type": "uint256"
        }
      ],
      "stateMutability": "view",
      "type": "function"
    },
    {
      "inputs": [],
      "name": "totalPrimeAssets",
      "outputs": [
        {
          "internalType": "uint256",
          "name": "",
          "type": "uint256"
        }
      ],
      "stateMutability": "view",
      "type": "function"
    },
    {
      "inputs": [],
      "name": "totalPrimeShares",
      "outputs": [
        {
          "internalType": "uint256",
          "name": "",
          "type": "uint256"
        }
      ],
      "stateMutability": "view",
      "type": "function"
    },
    {
      "inputs": [],
      "name": "usdc",
      "outputs": [
        {
          "internalType": "contract IERC20",
          "name": "",
          "type": "address"
        }
      ],
      "stateMutability": "view",
      "type": "function"
    },
    {
      "inputs": [],
      "name": "utilization",
      "outputs": [
        {
          "internalType": "uint256",
          "name": "",
          "type": "uint256"
        }
      ],
      "stateMutability": "view",
      "type": "function"
    },
    {
      "inputs": [
        {
          "internalType": "uint256",
          "name": "shareAmount",
          "type": "uint256"
        },
        {
          "internalType": "bool",
          "name": "isDegen",
          "type": "bool"
        }
      ],
      "name": "withdraw",
      "outputs": [],
      "stateMutability": "nonpayable",
      "type": "function"
    }
  ],
  "bytecode": "0x60a0346200010857601f6200288938819003918201601f19168301916001600160401b038311848410176200010c57808492604094855283398101031262000108576200005a6020620000528362000120565b920162000120565b60015f8190556202a300600c5562069780600d5564e8d4a51000600f55650da475abf000601055651fd512913000601155611b586012556013805460ff1916821790556001600160a01b0392831660805280546001600160a01b03191691909216179055604051612753908162000136823960805181818161073201528181610daa015281816111170152818161122f015281816116380152818161187a01528181611bcd0152611d8d0152f35b5f80fd5b634e487b7160e01b5f52604160045260245ffd5b51906001600160a01b0382168203620001085756fe604060808152600480361015610013575f80fd5b5f915f3560e01c806301e1d1141461204157806302361ad2146120235780630420592e14611f6557806306ae707f14611ee657806306fdde0314611e92578063099339be14611e5b57806309c0533b14611c85578063118f304314611788578063269dd1b414611769578063313ce5671461174d57806335b8e7131461151657806338d07436146111635780633902eeba146111465780633e413bee146111025780634da84110146110d45780635392fd1c146110b0578063569ab63a146110725780636e93ae2b14610ff857806370805da114610f2357806371657b5314610f045780637258b22714610e845780637437535914610e6757806374e863ad14610d1857806381227ebb14610cf957806382d99eb414610cda57806382e5310c14610cbb57806385f5dc3114610c7c57806394d88cba14610c5d57806395d89b4114610c1b578063968e16c914610bed57806399383f7814610b5c5780639a408321146106295780639a5f9bdd1461060a5780639c48d242146105ed5780639c87500a14610566578063a1ee65f7146104a8578063aa0539c414610489578063ba4eb8721461046a578063ba9a7a561461044d578063c0a0d32a1461042e578063db3eff57146103f6578063dd3018a014610355578063ea21cd9214610331578063eb2cd25814610312578063f175f478146102f3578063f2f4eb26146102c65763ff20b48d14610222575f80fd5b346102c25760203660031901126102c2576001548151637622567960e11b81526001600160a01b039160209082908690829086165afa9081156102b8578591610289575b5016330361027c57506102799035612564565b80f35b5163e9e3f4ad60e01b8152fd5b6102ab915060203d6020116102b1575b6102a381836120e3565b81019061216d565b5f610266565b503d610299565b83513d87823e3d90fd5b8280fd5b8382346102ef57816003193601126102ef5760015490516001600160a01b039091168152602090f35b5080fd5b8382346102ef57816003193601126102ef576020906009549051908152f35b8382346102ef57816003193601126102ef57602090600e549051908152f35b8382346102ef57816003193601126102ef5760209061034e612529565b9051908152f35b5090346102c25760203660031901126102c2576001548251637622567960e11b8152823593916001600160a01b03919060209082908690829086165afa9081156103ec5786916103cd575b5016330361027c575050600e5490808211156103c5576103bf9161218c565b600e5580f35b5050806103bf565b6103e6915060203d6020116102b1576102a381836120e3565b5f6103a0565b83513d88823e3d90fd5b8382346102ef5760203660031901126102ef5760209181906001600160a01b0361041e612064565b168152600b845220549051908152f35b8382346102ef57816003193601126102ef576020906002549051908152f35b8382346102ef57816003193601126102ef57602090516103e88152f35b8382346102ef57816003193601126102ef576020906003549051908152f35b8382346102ef57816003193601126102ef576020906011549051908152f35b5090346102c25760203660031901126102c2576001548251638da5cb5b60e01b8152823593916001600160a01b03919060209082908690829086165afa9081156103ec578691610547575b5016330361053a57612710831161050c57505060125580f35b906020606492519162461bcd60e51b835282015260086024820152674d6178203130302560c01b6044820152fd5b51635fc483c560e01b8152fd5b610560915060203d6020116102b1576102a381836120e3565b5f6104f3565b5082346105ea5760203660031901126105ea576001548251637622567960e11b81526001600160a01b03929160209082908790829087165afa9182156105df57916105c0575b5016330361027c5761034e60209235612380565b6105d9915060203d6020116102b1576102a381836120e3565b846105ac565b8451903d90823e3d90fd5b80fd5b8382346102ef57816003193601126102ef5760209061034e612355565b8382346102ef57816003193601126102ef57602090600c549051908152f35b50346102c257806003193601126102c257813591610645612090565b9061064e6126fc565b8315610b4e5760ff6013541615610b40578115610b1d576106718460055461214c565b60105410610b0f575b8115610b0657600354905b8215610afe576005545b8315610af557600254925b80159182159283610aed575b15610ad9576103e89485891115610a96576103e7198901898111610a6e57958715610a8157600354908101809111610a6e576003555b8515610a345789936109e6575b5050506106f6868261214c565b600f54106109d75784516323b872dd60e01b815233818401523060248201526044810187905260209288916001600160a01b03908581606481877f000000000000000000000000000000000000000000000000000000000000000087165af19081156109cd579061076e9185916109a0575b506121b1565b861561095c576107808660035461214c565b6003556002548352818552878320335f528552875f206107a187825461214c565b90556107af8960055461214c565b6005555b8615610880575050509361082d917f6dbb6056a2fff319358e6dd7d0d72cb3baa992cdcc7e120fb0a32cd1601840e595338952600a825287838a205480158015610878575b1561083757505050600a903389525242818820555b519485526020850191909152901515604084015233929081906060820190565b0390a26001815580f35b9161086461086a9261085e61084e84600a976121ef565b61085883426121ef565b9061214c565b9261214c565b90612202565b91338a52528188205561080d565b5082156107f8565b91939092338552600b8252888886205480158015610954575b1561092f57505050600b903385525242868420555b6001541690813b156102c2578660248492838951958694859363e53eb6dd60e01b85528401525af180156109255761090d575b505061082d7f6dbb6056a2fff319358e6dd7d0d72cb3baa992cdcc7e120fb0a32cd1601840e59361080d565b6109169061209f565b61092157845f6108e1565b8480fd5b85513d84823e3d90fd5b916108646109469261085e61084e84600b976121ef565b9133865252868420556108ae565b508215610899565b6109688660075461214c565b600755600654835260088552878320335f528552875f2061098a87825461214c565b90556109988960095461214c565b6009556107b3565b6109c09150873d89116109c6575b6109b881836120e3565b810190612199565b5f610768565b503d6109ae565b89513d86823e3d90fd5b508351631823752b60e11b8152fd5b610a139350610a0e91908715610a1b578a5284602052878a20335f52602052875f20546121ef565b612202565b5f80806106e9565b8a526008602052878a20335f52602052875f20546121ef565b875162461bcd60e51b8152602081870152601460248201527353686172657320776f756c64206265207a65726f60601b6044820152606490fd5b634e487b7160e01b8b526011865260248bfd5b600754908101809111610a6e576007556106dc565b875162461bcd60e51b8152602081870152601760248201527f4669727374206465706f73697420746f6f20736d616c6c0000000000000000006044820152606490fd5b610ae781610a0e848b6121ef565b946106dc565b5080156106a6565b6006549261069a565b60095461068f565b60075490610685565b82516336a00c8b60e11b8152fd5b610b298460095461214c565b601154101561067a5782516336a00c8b60e11b8152fd5b8251630e2f42c960e31b8152fd5b8251631f2a200560e01b8152fd5b5090346102c25760203660031901126102c257803591821515809303610be9576001548151638da5cb5b60e01b81526001600160a01b039160209082908690829086165afa9081156103ec578691610bca575b5016330361053a57505060ff80196013541691161760135580f35b610be3915060203d6020116102b1576102a381836120e3565b5f610baf565b5f80fd5b8382346102ef57806003193601126102ef5760209061034e610c0d612064565b610c15612090565b90612307565b8382346102ef57816003193601126102ef578051610c5991610c3c826120c7565b600682526518d59055531560d21b60208301525191829182612105565b0390f35b8382346102ef57816003193601126102ef576020906010549051908152f35b5090346102c257816003193601126102c25781602093610c9a61207a565b9235815260088552209060018060a01b03165f528252805f20549051908152f35b8382346102ef57816003193601126102ef57602090600f549051908152f35b8382346102ef57816003193601126102ef57602090600d549051908152f35b8382346102ef57816003193601126102ef576020906006549051908152f35b5090346102c257816003193601126102c257610d32612064565b6001548351637622567960e11b8152602435936020936001600160a01b0393909290859082908490829088165afa8015610e5d5784918991610e40575b50163303610e3257855163a9059cbb60e01b81526001600160a01b038316918101918252602082018690529084908290819060400103818a877f0000000000000000000000000000000000000000000000000000000000000000165af1908115610e28577f3db642b80902afb8ef23a2aeab4800b4b3717feb180705cf0a1c273ccc591c97959691610e07918991610e1157506121b1565b519485521692a280f35b6109c09150863d88116109c6576109b881836120e3565b86513d89823e3d90fd5b855163e9e3f4ad60e01b8152fd5b610e579150863d88116102b1576102a381836120e3565b5f610d6f565b87513d8a823e3d90fd5b8382346102ef57816003193601126102ef5760209061034e6122e4565b50346102c25760603660031901126102c2576001548151638da5cb5b60e01b81526001600160a01b039160209082908690829086165afa9081156102b8578591610ee5575b5016330361053a575035600f5560243560105560443560115580f35b610efe915060203d6020116102b1576102a381836120e3565b5f610ec9565b8382346102ef57816003193601126102ef576020906012549051908152f35b5090346102c257816003193601126102c2578035906024359260018060a01b038260208260015416845192838092638da5cb5b60e01b82525afa908115610fee578791610fcf575b5016330361053a5762278d00808411159081610fc4575b5015610f93575050600c55600d5580f35b906020606492519162461bcd60e51b8352820152600b60248201526a4d6178203330206461797360a81b6044820152fd5b90508411155f610f82565b610fe8915060203d6020116102b1576102a381836120e3565b5f610f6b565b83513d89823e3d90fd5b50346102c25760203660031901126102c2576001548151637622567960e11b81526001600160a01b039160209082908690829086165afa9081156102b8578591611053575b5016330361027c57506103bf9035600e5461214c565b61106c915060203d6020116102b1576102a381836120e3565b5f61103d565b5090346102c257816003193601126102c2578160209361109061207a565b92803582528552209060018060a01b03165f528252805f20549051908152f35b8382346102ef57816003193601126102ef5760209060ff6013541690519015158152f35b8382346102ef57806003193601126102ef5760209061034e6110f4612064565b6110fc612090565b90612264565b8382346102ef57816003193601126102ef57517f00000000000000000000000000000000000000000000000000000000000000006001600160a01b03168152602090f35b8382346102ef57816003193601126102ef5760209061034e61222e565b5090346102c257816003193601126102c257803590611180612090565b906111896126fc565b82908315611508578215611500576002545b83156114e657865280602052848620335f5260205283855f20545b106114d85782156114cd576111df600c545b84156114bc57338852600a6020528688205461214c565b42106114ae5782156114a557600354905b83156114945761120782610a0e60055480986121ef565b94876112116122e4565b88516370a0823160e01b815230858201526020956001600160a01b037f00000000000000000000000000000000000000000000000000000000000000008116959093919290919088816024818a5afa90811561148a578691611459575b50808210156114515750915b828b11611416575b5050509187918593885f14611365575050611303936112a38760035461218c565b6003556002548b52808452898b20335f528452895f206112c488825461218c565b90556112d28360055461218c565b6005555b895163a9059cbb60e01b81523391810191825260208201939093529193849283918c918391604090910190565b03925af1918215610e285761082d927fb97e775637eca8401af330efee0810af7079bafae27761741e09caa14db8d27296979261080d928a92611348575b50506121b1565b61135e9250803d106109c6576109b881836120e3565b5f80611341565b91925092506113768660075461218c565b600755600654835260088552888320335f528552885f2061139887825461218c565b90556113a68860095461218c565b60095560015416803b156102c257829060248a51809581936304a27ac560e31b83528c898401525af19089821561140b57859389936113eb575b5050611303936112d6565b9092506113f991935061209f565b61140757858391895f6113e0565b8780fd5b8951903d90823e3d90fd5b9297509250809850978015611441576114378993610a0e8896948e946121ef565b9691938193611282565b895163bb55fd2760e01b81528590fd5b90509161127a565b809650898092503d8311611483575b61147281836120e3565b81010312610be9578c94515f61126e565b503d611468565b8d513d88823e3d90fd5b61120782610a0e60095480986121ef565b600754906111f0565b84516354e21be360e11b8152fd5b338852600b6020528688205461214c565b6111df600d546111c8565b8451633999656760e01b8152fd5b86526008602052848620335f5260205283855f20546111b6565b60065461119b565b8451631f2a200560e01b8152fd5b5090346102c25760209081600319360112611749576001548351637622567960e11b8152823592916001600160a01b03919082169085818581855afa8015610e5d578391899161172c575b5016330361171c579085602492815193848092631db0457960e11b825288888301525afa918215610e285787926116e7575b50816115c7575b5050507f86c46efee0a638b418fa0952cd587c78b75b8bc989e7a7c13a86d448ec34a0849251908152a180f35b9082916115d38261264b565b8581600154168851948580926361d027b360e01b82525afa8881156116dc5761163495889582936116bd575b50895163a9059cbb60e01b81526001600160a01b03909316908301908152602081019490945290948593849291839160400190565b03927f0000000000000000000000000000000000000000000000000000000000000000165af19081156116b3577f86c46efee0a638b418fa0952cd587c78b75b8bc989e7a7c13a86d448ec34a084949161169491879161169c57506121b1565b925f8061159a565b6109c09150853d87116109c6576109b881836120e3565b84513d87823e3d90fd5b6116d5919350863d88116102b1576102a381836120e3565b915f6115ff565b8851903d90823e3d90fd5b9091508581813d8311611715575b6116ff81836120e3565b8101031261171157840151905f611593565b8680fd5b503d6116f5565b855163e9e3f4ad60e01b81528390fd5b6117439150873d89116102b1576102a381836120e3565b5f611561565b8380fd5b8382346102ef57816003193601126102ef576020905160068152f35b8382346102ef57816003193601126102ef576020906007549051908152f35b5034610be9576060366003190112610be9576117a2612064565b906024356044359260018060a01b0391826001541684518091637622567960e11b8252818960209485935afa908115611c33579085915f91611c68575b50163303611c5857600e548280821115611c50576117fc9161218c565b600e555f8612611b435785600954601254612710908103818111611b3057906118268992846121ef565b04611834600554918261214c565b808b11611af5575b508084116119fc57505050806118576118679260055461218c565b80600555156119b6575b8361214c565b85516370a0823160e01b815230818a01527f00000000000000000000000000000000000000000000000000000000000000008616988a9184816024818e5afa9081156119ac578391611971575b5083926118fc9b92828993889711611969575b508a5163a9059cbb60e01b81526001600160a01b039093169083019081526020810194909452909a8b93849291839160400190565b03925af196871561195f577fa9c6720706505784683f09b0975d4f1a78dfdeebc7fead8936439abd5b96f021969761193a918a9161194857506121b1565b84519687528601521692a280f35b6109c09150833d85116109c6576109b881836120e3565b85513d8a823e3d90fd5b94505f6118c7565b80949350858092509b929b3d83116119a5575b61198e81836120e3565b81010312610be9579151919890918a9190846118b4565b503d611984565b89513d85823e3d90fd5b7f19747c4fc33d5e520aba7581fd70140b6ebf32410fb2ace04e42eb69590a4015876119e3600254612220565b806002558c6003558151906001825286820152a1611861565b611a06908461218c565b915f600555611a16600254612220565b806002555f60035582519060018252868201527f19747c4fc33d5e520aba7581fd70140b6ebf32410fb2ace04e42eb69590a4015928391a18280821115611aed57611a609161218c565b8060095515611ac8575b50856001541690813b15610be9575f9060248b838b51958694859363630304f960e11b85528401525af18015611abe57611aa9575b5061186790611861565b611ab491995061209f565b5f97611867611a9f565b87513d5f823e3d90fd5b87611ad4600654612220565b806006555f6007558151905f825286820152a15f611a6a565b50505f611a60565b90935081518a815281868201527f8bd96464087bd7a29c2d462da44e6cd69fa230fd14f8367b75b1f9240f3a89ea838a8a1692a2925f61183c565b60118b634e487b7160e01b5f525260245ffd5b959695600160ff1b8614611c3d575f86900397828910611b9157507fa9c6720706505784683f09b0975d4f1a78dfdeebc7fead8936439abd5b96f02195969750611b8c826125c4565b61193a565b8184611b9d8b8661218c565b885163a9059cbb60e01b81526001600160a01b039092169382019384526020840152918290819060400103815f897f0000000000000000000000000000000000000000000000000000000000000000165af1908115611c335798611c2e611b8c927fa9c6720706505784683f09b0975d4f1a78dfdeebc7fead8936439abd5b96f021999a9b5f9161169c57506121b1565b6125c4565b86513d5f823e3d90fd5b601188634e487b7160e01b5f525260245ffd5b50505f6117fc565b845163e9e3f4ad60e01b81528790fd5b611c7f9150833d85116102b1576102a381836120e3565b5f6117df565b509034610be9576080366003190112610be957611ca0612064565b90611ca961207a565b926044359160643560018060a01b039182600154169084518092637622567960e11b8252818360209586935afa908115611c33579085915f91611e3e575b50163303611e30578583600e54828082115f14611e2857611d079161218c565b600e5511611e20575b611d1d611c2e848861218c565b82611d5a575b509582917f3046bb5fb86890e6f3c32d7527b763c83ee73588c10f9533662078355cc634fa959697855197885287015216941692a3005b845163a9059cbb60e01b81526001600160a01b038916918101918252602082018490529082908290819060400103815f887f0000000000000000000000000000000000000000000000000000000000000000165af1908115611e165791611dee8594927f3046bb5fb86890e6f3c32d7527b763c83ee73588c10f9533662078355cc634fa98999a945f91611df957506121b1565b919796955091611d23565b611e109150833d85116109c6576109b881836120e3565b8b610768565b85513d5f823e3d90fd5b859250611d10565b50505f611d07565b845163e9e3f4ad60e01b8152fd5b611e559150843d86116102b1576102a381836120e3565b8a611ce7565b5034610be9576020366003190112610be9576020906001600160a01b03611e80612064565b165f52600a8252805f20549051908152f35b5034610be9575f366003190112610be9578051610c5991611eb2826120c7565b601882527f436f6e666964656e7469616c205661756c74205368617265000000000000000060208301525191829182612105565b5034610be95780600319360112610be957602090611f38611f05612064565b611f0d612090565b908115611f5c57600c54915b15611f42576001600160a01b03165f908152600a85528390205461214c565b4210159051908152f35b6001600160a01b03165f908152600b85528390205461214c565b600d5491611f19565b5034610be9576020366003190112610be9576001548151637622567960e11b8152833593916001600160a01b03919060209082908590829086165afa908115612019575f91611ffa575b50163303611fec577f86c46efee0a638b418fa0952cd587c78b75b8bc989e7a7c13a86d448ec34a08460208484611fe5826125c4565b51908152a1005b905163e9e3f4ad60e01b8152fd5b612013915060203d6020116102b1576102a381836120e3565b85611faf565b84513d5f823e3d90fd5b5034610be9575f366003190112610be9576020906005549051908152f35b5034610be9575f366003190112610be95760209061034e6005546009549061214c565b600435906001600160a01b0382168203610be957565b602435906001600160a01b0382168203610be957565b602435908115158203610be957565b67ffffffffffffffff81116120b357604052565b634e487b7160e01b5f52604160045260245ffd5b6040810190811067ffffffffffffffff8211176120b357604052565b90601f8019910116810190811067ffffffffffffffff8211176120b357604052565b602080825282518183018190529093925f5b82811061213857505060409293505f838284010152601f8019910116010190565b818101860151848201604001528501612117565b9190820180921161215957565b634e487b7160e01b5f52601160045260245ffd5b90816020910312610be957516001600160a01b0381168103610be95790565b9190820391821161215957565b90816020910312610be957518015158103610be95790565b156121b857565b60405162461bcd60e51b815260206004820152600f60248201526e151c985b9cd9995c8819985a5b1959608a1b6044820152606490fd5b8181029291811591840414171561215957565b811561220c570490565b634e487b7160e01b5f52601260045260245ffd5b5f1981146121595760010190565b600354801561225c5760055490620f4240918281029281840414901517156121595761225991612202565b90565b50620f424090565b90156122aa5760035480156122a457612259916002545f52600460205260405f209060018060a01b03165f52602052610a0e60405f2054600554906121ef565b50505f90565b60075480156122a457612259916006545f52600860205260405f209060018060a01b03165f52602052610a0e60405f2054600954906121ef565b6122f36005546009549061214c565b600e54808211156122a4576122599161218c565b9015612331576002545f52600460205260405f209060018060a01b03165f5260205260405f205490565b6006545f52600860205260405f209060018060a01b03165f5260205260405f205490565b600754801561225c5760095490620f4240918281029281840414901517156121595761225991612202565b5f81156122a45760095490601254612710908103818111612159576123a590846121ef565b046123b3600554918261214c565b8085116124ee575b508084116123e8575050506123d28160055461218c565b6005555b6123e281600e5461214c565b600e5590565b6123f2908461218c565b905f600555612402600254612220565b91826002555f60035560409384938451906001825260208201527f19747c4fc33d5e520aba7581fd70140b6ebf32410fb2ace04e42eb69590a4015958691a181808211156124e6576124539161218c565b6009556001546001600160a01b031690813b15610be9575f91602483928651948593849263630304f960e11b845260048401525af180156124dc576124cb575b50600954156124a5575b5050506123d6565b6124b0600654612220565b806006558160075582519182526020820152a15f808061249d565b6124d5915061209f565b5f80612493565b83513d5f823e3d90fd5b50505f612453565b90936040519081528160208201527f8bd96464087bd7a29c2d462da44e6cd69fa230fd14f8367b75b1f9240f3a89ea60403392a2925f6123bb565b6125386005546009549061214c565b801561255f57600e5490612710918281029281840414901517156121595761225991612202565b505f90565b80156125c15760207fb0bf1136427af53a4f141a4607b21ad2b14e0ae6d42711aaf85b8ee33f65d3db91600e54818082115f146125b9576125a49161218c565b600e556125b0816125c4565b604051908152a1565b50505f6125a4565b50565b80156125c1576005549060038202828104600314831517156121595760095480800460011481151715612159576125fb908261214c565b92831561263a575061262161261a61263594610a0e61262a94866121ef565b809361218c565b9160055461214c565b60055560095461214c565b600955565b9050612646925061214c565b600555565b80156125c1576005546003810281810460031482151715612159576009548080046001148115171561215957612681908261214c565b9182156126df57506126a191610a0e61269a92856121ef565b809261218c565b6005549091808211156126d7576126b79161218c565b60055560095490808211156126cf576126359161218c565b50505f600955565b50505f6126b7565b92915050808211156126f4576126469161218c565b50505f600555565b60025f541461270b5760025f55565b604051633ee5aeb560e01b8152600490fdfea2646970667358221220043986eb9ecd88e289da0323f6a6d3a4086dd25651a6a3d43d2afb14c5b89d2964736f6c63430008180033",
  "linkReferences": {},
  "deployedLinkReferences": {},
  "immutableReferences": {
    "6058": [
      {
        "length": 32,
        "start": 1842
      },
      {
        "length": 32,
        "start": 3498
      },
      {
        "length": 32,
        "start": 4375
      },
      {
        "length": 32,
        "start": 4655
      },
      {
        "length": 32,
        "start": 5688
      },
      {
        "length": 32,
        "start": 6266
      },
      {
        "length": 32,
        "start": 7117
      },
      {
        "length": 32,
        "start": 7565
      }
    ]
  },
  "inputSourceName": "project/src/ConfidentialVault.sol",
  "buildInfoId": "solc-0_8_24-9d1f27a98e16fc69ca9c32b6b20b5be9c44a4ba0"
}