{
  "_format": "hh3-artifact-1",
  "contractName": "ConfidentialVault",
  "sourceName": "src/ConfidentialVault.sol",
  "abi": [
    {
      "inputs": [
        {
          "internalType": "address",
          "name": "_usdc",
          "type": "address"
        },
        {
          "internalType": "address",
          "name": "_core",
          "type": "address"
        }
      ],
      "stateMutability": "nonpayable",
      "type": "constructor"
    },
    {
      "inputs": [],
      "name": "DepositsDisabled",
      "type": "error"
    },
    {
      "inputs": [],
      "name": "ExceedsDepositCap",
      "type": "error"
    },
    {
      "inputs": [],
      "name": "ExceedsTVLCap",
      "type": "error"
    },
    {
      "inputs": [],
      "name": "InsufficientLiquidity",
      "type": "error"
    },
    {
      "inputs": [],
      "name": "InsufficientShares",
      "type": "error"
    },
    {
      "inputs": [],
      "name": "LockupNotExpired",
      "type": "error"
    },
    {
      "inputs": [],
      "name": "OnlyOwner",
      "type": "error"
    },
    {
      "inputs": [],
      "name": "OnlyTrading",
      "type": "error"
    },
    {
      "inputs": [],
      "name": "ReentrancyGuardReentrantCall",
      "type": "error"
    },
    {
      "inputs": [],
      "name": "ZeroAmount",
      "type": "error"
    },
    {
      "anonymous": false,
      "inputs": [
        {
          "indexed": false,
          "internalType": "uint256",
          "name": "amount",
          "type": "uint256"
        }
      ],
      "name": "AccruedFeesSettled",
      "type": "event"
    },
    {
      "anonymous": false,
      "inputs": [
        {
          "indexed": true,
          "internalType": "address",
          "name": "trader",
          "type": "address"
        },
        {
          "indexed": false,
          "internalType": "uint256",
          "name": "amount",
          "type": "uint256"
        }
      ],
      "name": "CollateralReturned",
      "type": "event"
    },
    {
      "anonymous": false,
      "inputs": [
        {
          "indexed": true,
          "internalType": "address",
          "name": "user",
          "type": "address"
        },
        {
          "indexed": false,
          "internalType": "uint256",
          "name": "amount",
          "type": "uint256"
        },
        {
          "indexed": false,
          "internalType": "uint256",
          "name": "sharesReceived",
          "type": "uint256"
        },
        {
          "indexed": false,
          "internalType": "bool",
          "name": "isDegen",
          "type": "bool"
        }
      ],
      "name": "Deposit",
      "type": "event"
    },
    {
      "anonymous": false,
      "inputs": [
        {
          "indexed": false,
          "internalType": "bool",
          "name": "isDegen",
          "type": "bool"
        },
        {
          "indexed": false,
          "internalType": "uint256",
          "name": "newEpoch",
          "type": "uint256"
        }
      ],
      "name": "EpochReset",
      "type": "event"
    },
    {
      "anonymous": false,
      "inputs": [
        {
          "indexed": false,
          "internalType": "uint256",
          "name": "amount",
          "type": "uint256"
        }
      ],
      "name": "FeeReceived",
      "type": "event"
    },
    {
      "anonymous": false,
      "inputs": [
        {
          "indexed": true,
          "internalType": "address",
          "name": "trader",
          "type": "address"
        },
        {
          "indexed": true,
          "internalType": "address",
          "name": "liquidator",
          "type": "address"
        },
        {
          "indexed": false,
          "internalType": "uint256",
          "name": "collateral",
          "type": "uint256"
        },
        {
          "indexed": false,
          "internalType": "uint256",
          "name": "reward",
          "type": "uint256"
        }
      ],
      "name": "LiquidationSettled",
      "type": "event"
    },
    {
      "anonymous": false,
      "inputs": [
        {
          "indexed": true,
          "internalType": "address",
          "name": "trader",
          "type": "address"
        },
        {
          "indexed": false,
          "internalType": "int256",
          "name": "netPnl",
          "type": "int256"
        },
        {
          "indexed": false,
          "internalType": "uint256",
          "name": "collateral",
          "type": "uint256"
        }
      ],
      "name": "PositionSettled",
      "type": "event"
    },
    {
      "anonymous": false,
      "inputs": [
        {
          "indexed": true,
          "internalType": "address",
          "name": "trader",
          "type": "address"
        },
        {
          "indexed": false,
          "internalType": "uint256",
          "name": "requestedProfit",
          "type": "uint256"
        },
        {
          "indexed": false,
          "internalType": "uint256",
          "name": "cappedProfit",
          "type": "uint256"
        }
      ],
      "name": "ProfitCapped",
      "type": "event"
    },
    {
      "anonymous": false,
      "inputs": [
        {
          "indexed": true,
          "internalType": "address",
          "name": "user",
          "type": "address"
        },
        {
          "indexed": false,
          "internalType": "uint256",
          "name": "amount",
          "type": "uint256"
        },
        {
          "indexed": false,
          "internalType": "uint256",
          "name": "sharesBurned",
          "type": "uint256"
        },
        {
          "indexed": false,
          "internalType": "bool",
          "name": "isDegen",
          "type": "bool"
        }
      ],
      "name": "Withdraw",
      "type": "event"
    },
    {
      "inputs": [],
      "name": "MINIMUM_LIQUIDITY",
      "outputs": [
        {
          "internalType": "uint256",
          "name": "",
          "type": "uint256"
        }
      ],
      "stateMutability": "view",
      "type": "function"
    },
    {
      "inputs": [],
      "name": "availableLiquidity",
      "outputs": [
        {
          "internalType": "uint256",
          "name": "",
          "type": "uint256"
        }
      ],
      "stateMutability": "view",
      "type": "function"
    },
    {
      "inputs": [
        {
          "internalType": "address",
          "name": "user",
          "type": "address"
        },
        {
          "internalType": "bool",
          "name": "isDegen",
          "type": "bool"
        }
      ],
      "name": "balanceOfUnderlying",
      "outputs": [
        {
          "internalType": "uint256",
          "name": "",
          "type": "uint256"
        }
      ],
      "stateMutability": "view",
      "type": "function"
    },
    {
      "inputs": [
        {
          "internalType": "address",
          "name": "user",
          "type": "address"
        },
        {
          "internalType": "bool",
          "name": "isDegen",
          "type": "bool"
        }
      ],
      "name": "canWithdraw",
      "outputs": [
        {
          "internalType": "bool",
          "name": "",
          "type": "bool"
        }
      ],
      "stateMutability": "view",
      "type": "function"
    },
    {
      "inputs": [],
      "name": "core",
      "outputs": [
        {
          "internalType": "contract ConfidentialCore",
          "name": "",
          "type": "address"
        }
      ],
      "stateMutability": "view",
      "type": "function"
    },
    {
      "inputs": [],
      "name": "decimals",
      "outputs": [
        {
          "internalType": "uint8",
          "name": "",
          "type": "uint8"
        }
      ],
      "stateMutability": "view",
      "type": "function"
    },
    {
      "inputs": [
        {
          "internalType": "address",
          "name": "",
          "type": "address"
        }
      ],
      "name": "degenDepositTimestamp",
      "outputs": [
        {
          "internalType": "uint256",
          "name": "",
          "type": "uint256"
        }
      ],
      "stateMutability": "view",
      "type": "function"
    },
    {
      "inputs": [],
      "name": "degenEpoch",
      "outputs": [
        {
          "internalType": "uint256",
          "name": "",
          "type": "uint256"
        }
      ],
      "stateMutability": "view",
      "type": "function"
    },
    {
      "inputs": [],
      "name": "degenLockupPeriod",
      "outputs": [
        {
          "internalType": "uint256",
          "name": "",
          "type": "uint256"
        }
      ],
      "stateMutability": "view",
      "type": "function"
    },
    {
      "inputs": [],
      "name": "degenSharePrice",
      "outputs": [
        {
          "internalType": "uint256",
          "name": "",
          "type": "uint256"
        }
      ],
      "stateMutability": "view",
      "type": "function"
    },
    {
      "inputs": [
        {
          "internalType": "uint256",
          "name": "",
          "type": "uint256"
        },
        {
          "internalType": "address",
          "name": "",
          "type": "address"
        }
      ],
      "name": "degenShares",
      "outputs": [
        {
          "internalType": "uint256",
          "name": "",
          "type": "uint256"
        }
      ],
      "stateMutability": "view",
      "type": "function"
    },
    {
      "inputs": [
        {
          "internalType": "uint256",
          "name": "amount",
          "type": "uint256"
        },
        {
          "internalType": "bool",
          "name": "isDegen",
          "type": "bool"
        }
      ],
      "name": "deposit",
      "outputs": [],
      "stateMutability": "nonpayable",
      "type": "function"
    },
    {
      "inputs": [],
      "name": "depositsEnabled",
      "outputs": [
        {
          "internalType": "bool",
          "name": "",
          "type": "bool"
        }
      ],
      "stateMutability": "view",
      "type": "function"
    },
    {
      "inputs": [
        {
          "internalType": "uint256",
          "name": "totalFee",
          "type": "uint256"
        }
      ],
      "name": "distributeClosingFee",
      "outputs": [],
      "stateMutability": "nonpayable",
      "type": "function"
    },
    {
      "inputs": [],
      "name": "maxDegenDeposits",
      "outputs": [
        {
          "internalType": "uint256",
          "name": "",
          "type": "uint256"
        }
      ],
      "stateMutability": "view",
      "type": "function"
    },
    {
      "inputs": [],
      "name": "maxDepositPerUser",
      "outputs": [
        {
          "internalType": "uint256",
          "name": "",
          "type": "uint256"
        }
      ],
      "stateMutability": "view",
      "type": "function"
    },
    {
      "inputs": [],
      "name": "maxPrimeDeposits",
      "outputs": [
        {
          "internalType": "uint256",
          "name": "",
          "type": "uint256"
        }
      ],
      "stateMutability": "view",
      "type": "function"
    },
    {
      "inputs": [],
      "name": "name",
      "outputs": [
        {
          "internalType": "string",
          "name": "",
          "type": "string"
        }
      ],
      "stateMutability": "view",
      "type": "function"
    },
    {
      "inputs": [
        {
          "internalType": "uint256",
          "name": "amount",
          "type": "uint256"
        }
      ],
      "name": "payFundingReward",
      "outputs": [],
      "stateMutability": "nonpayable",
      "type": "function"
    },
    {
      "inputs": [
        {
          "internalType": "address",
          "name": "",
          "type": "address"
        }
      ],
      "name": "primeDepositTimestamp",
      "outputs": [
        {
          "internalType": "uint256",
          "name": "",
          "type": "uint256"
        }
      ],
      "stateMutability": "view",
      "type": "function"
    },
    {
      "inputs": [],
      "name": "primeEpoch",
      "outputs": [
        {
          "internalType": "uint256",
          "name": "",
          "type": "uint256"
        }
      ],
      "stateMutability": "view",
      "type": "function"
    },
    {
      "inputs": [],
      "name": "primeLockupPeriod",
      "outputs": [
        {
          "internalType": "uint256",
          "name": "",
          "type": "uint256"
        }
      ],
      "stateMutability": "view",
      "type": "function"
    },
    {
      "inputs": [],
      "name": "primeProtectionBps",
      "outputs": [
        {
          "internalType": "uint256",
          "name": "",
          "type": "uint256"
        }
      ],
      "stateMutability": "view",
      "type": "function"
    },
    {
      "inputs": [],
      "name": "primeSharePrice",
      "outputs": [
        {
          "internalType": "uint256",
          "name": "",
          "type": "uint256"
        }
      ],
      "stateMutability": "view",
      "type": "function"
    },
    {
      "inputs": [
        {
          "internalType": "uint256",
          "name": "",
          "type": "uint256"
        },
        {
          "internalType": "address",
          "name": "",
          "type": "address"
        }
      ],
      "name": "primeShares",
      "outputs": [
        {
          "internalType": "uint256",
          "name": "",
          "type": "uint256"
        }
      ],
      "stateMutability": "view",
      "type": "function"
    },
    {
      "inputs": [
        {
          "internalType": "uint256",
          "name": "amount",
          "type": "uint256"
        }
      ],
      "name": "receiveFees",
      "outputs": [],
      "stateMutability": "nonpayable",
      "type": "function"
    },
    {
      "inputs": [
        {
          "internalType": "uint256",
          "name": "amount",
          "type": "uint256"
        }
      ],
      "name": "releaseBacking",
      "outputs": [],
      "stateMutability": "nonpayable",
      "type": "function"
    },
    {
      "inputs": [
        {
          "internalType": "uint256",
          "name": "amount",
          "type": "uint256"
        }
      ],
      "name": "reserveBacking",
      "outputs": [],
      "stateMutability": "nonpayable",
      "type": "function"
    },
    {
      "inputs": [
        {
          "internalType": "address",
          "name": "trader",
          "type": "address"
        },
        {
          "internalType": "uint256",
          "name": "amount",
          "type": "uint256"
        }
      ],
      "name": "returnCollateral",
      "outputs": [],
      "stateMutability": "nonpayable",
      "type": "function"
    },
    {
      "inputs": [
        {
          "internalType": "uint256",
          "name": "_perUser",
          "type": "uint256"
        },
        {
          "internalType": "uint256",
          "name": "_degenTotal",
          "type": "uint256"
        },
        {
          "internalType": "uint256",
          "name": "_primeTotal",
          "type": "uint256"
        }
      ],
      "name": "setDepositCaps",
      "outputs": [],
      "stateMutability": "nonpayable",
      "type": "function"
    },
    {
      "inputs": [
        {
          "internalType": "uint256",
          "name": "_bps",
          "type": "uint256"
        }
      ],
      "name": "setPrimeProtection",
      "outputs": [],
      "stateMutability": "nonpayable",
      "type": "function"
    },
    {
      "inputs": [
        {
          "internalType": "uint256",
          "name": "_degenSeconds",
          "type": "uint256"
        },
        {
          "internalType": "uint256",
          "name": "_primeSeconds",
          "type": "uint256"
        }
      ],
      "name": "setTieredLockups",
      "outputs": [],
      "stateMutability": "nonpayable",
      "type": "function"
    },
    {
      "inputs": [
        {
          "internalType": "uint256",
          "name": "amount",
          "type": "uint256"
        }
      ],
      "name": "settleAccruedFees",
      "outputs": [],
      "stateMutability": "nonpayable",
      "type": "function"
    },
    {
      "inputs": [
        {
          "internalType": "address",
          "name": "trader",
          "type": "address"
        },
        {
          "internalType": "address",
          "name": "liquidator",
          "type": "address"
        },
        {
          "internalType": "uint256",
          "name": "collateral",
          "type": "uint256"
        },
        {
          "internalType": "uint256",
          "name": "reward",
          "type": "uint256"
        }
      ],
      "name": "settleLiquidation",
      "outputs": [],
      "stateMutability": "nonpayable",
      "type": "function"
    },
    {
      "inputs": [
        {
          "internalType": "address",
          "name": "trader",
          "type": "address"
        },
        {
          "internalType": "uint256",
          "name": "collateral",
          "type": "uint256"
        },
        {
          "internalType": "int256",
          "name": "netPnl",
          "type": "int256"
        }
      ],
      "name": "settlePosition",
      "outputs": [],
      "stateMutability": "nonpayable",
      "type": "function"
    },
    {
      "inputs": [
        {
          "internalType": "address",
          "name": "user",
          "type": "address"
        },
        {
          "internalType": "bool",
          "name": "isDegen",
          "type": "bool"
        }
      ],
      "name": "sharesOf",
      "outputs": [
        {
          "internalType": "uint256",
          "name": "",
          "type": "uint256"
        }
      ],
      "stateMutability": "view",
      "type": "function"
    },
    {
      "inputs": [],
      "name": "symbol",
      "outputs": [
        {
          "internalType": "string",
          "name": "",
          "type": "string"
        }
      ],
      "stateMutability": "view",
      "type": "function"
    },
    {
      "inputs": [
        {
          "internalType": "bool",
          "name": "_enabled",
          "type": "bool"
        }
      ],
      "name": "toggleDeposits",
      "outputs": [],
      "stateMutability": "nonpayable",
      "type": "function"
    },
    {
      "inputs": [],
      "name": "totalAssets",
      "outputs": [
        {
          "internalType": "uint256",
          "name": "",
          "type": "uint256"
        }
      ],
      "stateMutability": "view",
      "type": "function"
    },
    {
      "inputs": [],
      "name": "totalBacking",
      "outputs": [
        {
          "internalType": "uint256",
          "name": "",
          "type": "uint256"
        }
      ],
      "stateMutability": "view",
      "type": "function"
    },
    {
      "inputs": [],
      "name": "totalDegenAssets",
      "outputs": [
        {
          "internalType": "uint256",
          "name": "",
          "type": "uint256"
        }
      ],
      "stateMutability": "view",
      "type": "function"
    },
    {
      "inputs": [],
      "name": "totalDegenShares",
      "outputs": [
        {
          "internalType": "uint256",
          "name": "",
          "type": "uint256"
        }
      ],
      "stateMutability": "view",
      "type": "function"
    },
    {
      "inputs": [],
      "name": "totalPrimeAssets",
      "outputs": [
        {
          "internalType": "uint256",
          "name": "",
          "type": "uint256"
        }
      ],
      "stateMutability": "view",
      "type": "function"
    },
    {
      "inputs": [],
      "name": "totalPrimeShares",
      "outputs": [
        {
          "internalType": "uint256",
          "name": "",
          "type": "uint256"
        }
      ],
      "stateMutability": "view",
      "type": "function"
    },
    {
      "inputs": [],
      "name": "usdc",
      "outputs": [
        {
          "internalType": "contract IERC20",
          "name": "",
          "type": "address"
        }
      ],
      "stateMutability": "view",
      "type": "function"
    },
    {
      "inputs": [],
      "name": "utilization",
      "outputs": [
        {
          "internalType": "uint256",
          "name": "",
          "type": "uint256"
        }
      ],
      "stateMutability": "view",
      "type": "function"
    },
    {
      "inputs": [
        {
          "internalType": "uint256",
          "name": "shareAmount",
          "type": "uint256"
        },
        {
          "internalType": "bool",
          "name": "isDegen",
          "type": "bool"
        }
      ],
      "name": "withdraw",
      "outputs": [],
      "stateMutability": "nonpayable",
      "type": "function"
    }
  ],
  "bytecode": "0x60a0346200010f57601f6200254f38819003918201601f19168301916001600160401b03831184841017620001135780849260409485528339810103126200010f576200005a6020620000528362000127565b920162000127565b60015f8190556202a300600c5562069780600d5564e8d4a51000600f55650da475abf000601055651fd512913000601155611b586012556013805460ff1916821790556001600160a01b0392831660805280546001600160a01b0319169190921617905560405161241290816200013d823960805181818161071c01528181610c6701528181610fca015281816111460152818161123d0152818161145d015281816116a601528181611a260152611bdf0152f35b5f80fd5b634e487b7160e01b5f52604160045260245ffd5b51906001600160a01b03821682036200010f5756fe604060808152600480361015610013575f80fd5b5f915f3560e01c806301e1d11414611e9357806302361ad214611e755780630420592e14611db757806306ae707f14611d3857806306fdde0314611ce4578063099339be14611cad57806309c0533b14611ad7578063118f3043146115bc578063269dd1b41461159d578063313ce5671461158157806335b8e7131461133357806338d07436146110165780633902eeba14610ff95780633e413bee14610fb55780634da8411014610f875780635392fd1c14610f63578063569ab63a14610f255780636e93ae2b14610eab57806370805da114610dd657806371657b5314610db75780637258b22714610d375780637437535914610d1a57806374e863ad14610bd557806381227ebb14610bb657806382d99eb414610b9757806382e5310c14610b7857806385f5dc3114610b3957806394d88cba14610b1a57806395d89b4114610ad8578063968e16c914610aaa57806399383f7814610a195780639a408321146106195780639a5f9bdd146105fa5780639c48d242146105dd5780639c87500a14610566578063a1ee65f7146104a8578063aa0539c414610489578063ba4eb8721461046a578063ba9a7a561461044d578063c0a0d32a1461042e578063db3eff57146103f6578063dd3018a014610355578063ea21cd9214610331578063eb2cd25814610312578063f175f478146102f3578063f2f4eb26146102c65763ff20b48d14610222575f80fd5b346102c25760203660031901126102c2576001548151637622567960e11b81526001600160a01b039160209082908690829086165afa9081156102b8578591610289575b5016330361027c575061027990356122d7565b80f35b5163e9e3f4ad60e01b8152fd5b6102ab915060203d6020116102b1575b6102a38183611f21565b810190611fab565b5f610266565b503d610299565b83513d87823e3d90fd5b8280fd5b8382346102ef57816003193601126102ef5760015490516001600160a01b039091168152602090f35b5080fd5b8382346102ef57816003193601126102ef576020906009549051908152f35b8382346102ef57816003193601126102ef57602090600e549051908152f35b8382346102ef57816003193601126102ef5760209061034e61229c565b9051908152f35b5090346102c25760203660031901126102c2576001548251637622567960e11b8152823593916001600160a01b03919060209082908690829086165afa9081156103ec5786916103cd575b5016330361027c575050600e5490808211156103c5576103bf91611fca565b600e5580f35b5050806103bf565b6103e6915060203d6020116102b1576102a38183611f21565b5f6103a0565b83513d88823e3d90fd5b8382346102ef5760203660031901126102ef5760209181906001600160a01b0361041e611eb6565b168152600b845220549051908152f35b8382346102ef57816003193601126102ef576020906002549051908152f35b8382346102ef57816003193601126102ef57602090516103e88152f35b8382346102ef57816003193601126102ef576020906003549051908152f35b8382346102ef57816003193601126102ef576020906011549051908152f35b5090346102c25760203660031901126102c2576001548251638da5cb5b60e01b8152823593916001600160a01b03919060209082908690829086165afa9081156103ec578691610547575b5016330361053a57612710831161050c57505060125580f35b906020606492519162461bcd60e51b835282015260086024820152674d6178203130302560c01b6044820152fd5b51635fc483c560e01b8152fd5b610560915060203d6020116102b1576102a38183611f21565b5f6104f3565b50346102c25760203660031901126102c2576001548151637622567960e11b81526001600160a01b039160209082908690829086165afa9081156102b85785916105be575b5016330361027c575061027990356121be565b6105d7915060203d6020116102b1576102a38183611f21565b5f6105ab565b8382346102ef57816003193601126102ef5760209061034e612193565b8382346102ef57816003193601126102ef57602090600c549051908152f35b5090346102c257816003193601126102c257803590610636611ee2565b9061063f6123bb565b8215610a0b5760ff60135416156109fd5781156109da5761066283600554611f8a565b601054106109cc575b81156109c357600354905b82156109bb576005545b83156109b257600254925b801591821592836109aa575b15610996576103e89485881115610953576103e719880188811161092b5795871561093e5760035490810180911161092b576003555b85156108f157916106ea939188938b936108a3575b505050611f8a565b600f54106108955784516323b872dd60e01b81523382820152306024820152604481018590526020919082816064818b7f00000000000000000000000000000000000000000000000000000000000000006001600160a01b03165af190811561088b57916107876107fe94927f6dbb6056a2fff319358e6dd7d0d72cb3baa992cdcc7e120fb0a32cd1601840e59899948b9161085e575b50611fef565b85156108195761079985600354611f8a565b60035560025489528152818820335f528152815f206107b9858254611f8a565b90556107c787600554611f8a565b6005555b841561080857600a903389525242818820555b519485526020850191909152901515604084015233929081906060820190565b0390a26001815580f35b600b903389525242818820556107de565b5061082684600754611f8a565b600755600654885260088152818820335f528152815f20610848858254611f8a565b905561085687600954611f8a565b6009556107cb565b61087e9150843d8611610884575b6108768183611f21565b810190611fd7565b5f610781565b503d61086c565b87513d8a823e3d90fd5b8451631823752b60e11b8152fd5b6108d093506108cb919089156108d8578c52866020528a8c20335f526020528a5f205461202d565b612040565b5f80806106e2565b8c5260086020528a8c20335f526020528a5f205461202d565b885162461bcd60e51b8152602081870152601460248201527353686172657320776f756c64206265207a65726f60601b6044820152606490fd5b634e487b7160e01b8b526011865260248bfd5b60075490810180911161092b576007556106cd565b885162461bcd60e51b8152602081870152601760248201527f4669727374206465706f73697420746f6f20736d616c6c0000000000000000006044820152606490fd5b6109a4816108cb848a61202d565b946106cd565b508015610697565b6006549261068b565b600954610680565b60075490610676565b83516336a00c8b60e11b8152fd5b6109e683600954611f8a565b601154101561066b5783516336a00c8b60e11b8152fd5b8351630e2f42c960e31b8152fd5b8351631f2a200560e01b8152fd5b5090346102c25760203660031901126102c257803591821515809303610aa6576001548151638da5cb5b60e01b81526001600160a01b039160209082908690829086165afa9081156103ec578691610a87575b5016330361053a57505060ff80196013541691161760135580f35b610aa0915060203d6020116102b1576102a38183611f21565b5f610a6c565b5f80fd5b8382346102ef57806003193601126102ef5760209061034e610aca611eb6565b610ad2611ee2565b90612145565b8382346102ef57816003193601126102ef578051610b1691610af982611ef1565b600682526518d59055531560d21b60208301525191829182611f43565b0390f35b8382346102ef57816003193601126102ef576020906010549051908152f35b5090346102c257816003193601126102c25781602093610b57611ecc565b9235815260088552209060018060a01b03165f528252805f20549051908152f35b8382346102ef57816003193601126102ef57602090600f549051908152f35b8382346102ef57816003193601126102ef57602090600d549051908152f35b8382346102ef57816003193601126102ef576020906006549051908152f35b5090346102c257816003193601126102c257610bef611eb6565b6001548351637622567960e11b8152602435936020936001600160a01b0393909290859082908490829088165afa801561088b5784918991610cfd575b50163303610cef57855163a9059cbb60e01b81526001600160a01b038316918101918252602082018690529084908290819060400103818a877f0000000000000000000000000000000000000000000000000000000000000000165af1908115610ce5577f3db642b80902afb8ef23a2aeab4800b4b3717feb180705cf0a1c273ccc591c97959691610cc4918991610cce5750611fef565b519485521692a280f35b61087e9150863d8811610884576108768183611f21565b86513d89823e3d90fd5b855163e9e3f4ad60e01b8152fd5b610d149150863d88116102b1576102a38183611f21565b5f610c2c565b8382346102ef57816003193601126102ef5760209061034e612122565b50346102c25760603660031901126102c2576001548151638da5cb5b60e01b81526001600160a01b039160209082908690829086165afa9081156102b8578591610d98575b5016330361053a575035600f5560243560105560443560115580f35b610db1915060203d6020116102b1576102a38183611f21565b5f610d7c565b8382346102ef57816003193601126102ef576020906012549051908152f35b5090346102c257816003193601126102c2578035906024359260018060a01b038260208260015416845192838092638da5cb5b60e01b82525afa908115610ea1578791610e82575b5016330361053a5762278d00808411159081610e77575b5015610e46575050600c55600d5580f35b906020606492519162461bcd60e51b8352820152600b60248201526a4d6178203330206461797360a81b6044820152fd5b90508411155f610e35565b610e9b915060203d6020116102b1576102a38183611f21565b5f610e1e565b83513d89823e3d90fd5b50346102c25760203660031901126102c2576001548151637622567960e11b81526001600160a01b039160209082908690829086165afa9081156102b8578591610f06575b5016330361027c57506103bf9035600e54611f8a565b610f1f915060203d6020116102b1576102a38183611f21565b5f610ef0565b5090346102c257816003193601126102c25781602093610f43611ecc565b92803582528552209060018060a01b03165f528252805f20549051908152f35b8382346102ef57816003193601126102ef5760209060ff6013541690519015158152f35b8382346102ef57806003193601126102ef5760209061034e610fa7611eb6565b610faf611ee2565b906120a2565b8382346102ef57816003193601126102ef57517f00000000000000000000000000000000000000000000000000000000000000006001600160a01b03168152602090f35b8382346102ef57816003193601126102ef5760209061034e61206c565b5090346102c257816003193601126102c2578035611032611ee2565b9061103b6123bb565b801561132357811561131b576002545b821561130157855282602052838520335f5260205280845f20545b106112f15781156112e65761108f600c545b83156112d557338752600a60205285872054611f8a565b42106112c55781156112ba576110b56003545b83156112af576108cb6005545b8461202d565b926110be612122565b84118015611223575b6112155760208461114192855f146111d1576110e585600354611fca565b6003556002548952808352878920335f528352875f20611106868254611fca565b905561111482600554611fca565b6005555b875163a9059cbb60e01b8152339181019182526020820192909252909283918291604090910190565b0381897f00000000000000000000000000000000000000000000000000000000000000006001600160a01b03165af19081156111c757946107de6107fe927fb97e775637eca8401af330efee0810af7079bafae27761741e09caa14db8d272969789916111ae5750611fef565b61087e915060203d602011610884576108768183611f21565b85513d88823e3d90fd5b6111dd85600754611fca565b600755600654895260088352878920335f528352875f206111ff868254611fca565b905561120d82600954611fca565b600955611118565b845163bb55fd2760e01b8152fd5b5084516370a0823160e01b815230828201526020816024817f00000000000000000000000000000000000000000000000000000000000000006001600160a01b03165afa908115610ce557879161127d575b5084116110c7565b90506020813d6020116112a7575b8161129860209383611f21565b81010312610aa657515f611275565b3d915061128b565b6108cb6009546110af565b6110b56007546110a2565b83516354e21be360e11b81528390fd5b338752600b60205285872054611f8a565b61108f600d54611078565b8351633999656760e01b81528390fd5b85526008602052838520335f5260205280845f2054611066565b60065461104b565b8351631f2a200560e01b81528390fd5b5090346102c2576020908160031936011261157d576001548351637622567960e11b8152823592916001600160a01b03919082169085818581855afa801561088b5783918991611560575b50163303611550579085602492815193848092631db0457960e11b825288888301525afa918215610ce557879261151b575b506113bb8285611fca565b8061150c575b50816113f5575b5050507f86c46efee0a638b418fa0952cd587c78b75b8bc989e7a7c13a86d448ec34a0849251908152a180f35b9081858493600154168851948580926361d027b360e01b82525afa8881156115015761145995889582936114e2575b50895163a9059cbb60e01b81526001600160a01b03909316908301908152602081019490945290948593849291839160400190565b03927f0000000000000000000000000000000000000000000000000000000000000000165af19081156114d8577f86c46efee0a638b418fa0952cd587c78b75b8bc989e7a7c13a86d448ec34a08494916114b99187916114c15750611fef565b925f806113c8565b61087e9150853d8711610884576108768183611f21565b84513d87823e3d90fd5b6114fa919350863d88116102b1576102a38183611f21565b915f611424565b8851903d90823e3d90fd5b61151590612334565b5f6113c1565b9091508581813d8311611549575b6115338183611f21565b8101031261154557840151905f6113b0565b8680fd5b503d611529565b855163e9e3f4ad60e01b81528390fd5b6115779150873d89116102b1576102a38183611f21565b5f61137e565b8380fd5b8382346102ef57816003193601126102ef576020905160068152f35b8382346102ef57816003193601126102ef576020906007549051908152f35b5034610aa6576060366003190112610aa6576115d6611eb6565b906024928335926044359360018060a01b039283600154169085518092637622567960e11b8252818360209586935afa908115611acd579086915f91611ab0575b50163303610cef57600e548380821115611aa85761163491611fca565b600e555f871261199c578660095460125461271090810381811161198a5782916116618b928f969561202d565b0461166f6005549182611f8a565b808d1161194f575b5080841161183657505050806116926116a292600554611fca565b80600555156117f0575b85611f8a565b91867f00000000000000000000000000000000000000000000000000000000000000001699848b8a51928380926370a0823160e01b825230878301525afa9081156117e65783916117ab575b5083926117369b928289938897116117a3575b508a5163a9059cbb60e01b81526001600160a01b039093169083019081526020810194909452909a8b93849291839160400190565b03925af1968715611799577fa9c6720706505784683f09b0975d4f1a78dfdeebc7fead8936439abd5b96f0219697611774918a916117825750611fef565b84519687528601521692a280f35b61087e9150833d8511610884576108768183611f21565b85513d8a823e3d90fd5b94505f611701565b80949350858092509b929b3d83116117df575b6117c88183611f21565b81010312610aa6579151919890918a9190846116ee565b503d6117be565b89513d85823e3d90fd5b7f19747c4fc33d5e520aba7581fd70140b6ebf32410fb2ace04e42eb69590a40158961181d60025461205e565b80600255856003558151906001825288820152a161169c565b836118449293949550611fca565b915f60055561185460025461205e565b806002555f60035582519060018252878201527f19747c4fc33d5e520aba7581fd70140b6ebf32410fb2ace04e42eb69590a4015928391a182808211156119475761189e91611fca565b8060095515611922575b50866001541690813b15610aa6575f918b83928b51948593849263630304f960e11b8452898401525af18015611918576118e8575b506116a28a9161169c565b995067ffffffffffffffff8a11611906576116a29987525f996118dd565b88604183634e487b7160e01b5f52525ffd5b88513d5f823e3d90fd5b8861192e60065461205e565b806006555f6007558151905f825287820152a15f6118a8565b50505f61189e565b90935081518c815281888201527f8bd96464087bd7a29c2d462da44e6cd69fa230fd14f8367b75b1f9240f3a89ea838c8c1692a2925f611677565b8b601186634e487b7160e01b5f52525ffd5b9796600160ff1b8714611a9657505f869003978289106119ea57507fa9c6720706505784683f09b0975d4f1a78dfdeebc7fead8936439abd5b96f021959697506119e582612334565b611774565b81846119f68b86611fca565b885163a9059cbb60e01b81526001600160a01b039092169382019384526020840152918290819060400103815f897f0000000000000000000000000000000000000000000000000000000000000000165af1908115611a8c5798611a876119e5927fa9c6720706505784683f09b0975d4f1a78dfdeebc7fead8936439abd5b96f021999a9b5f916114c15750611fef565b612334565b86513d5f823e3d90fd5b634e487b7160e01b5f90815260118a52fd5b50505f611634565b611ac79150843d86116102b1576102a38183611f21565b5f611617565b87513d5f823e3d90fd5b509034610aa6576080366003190112610aa657611af2611eb6565b90611afb611ecc565b926044359160643560018060a01b039182600154169084518092637622567960e11b8252818360209586935afa908115611a8c579085915f91611c90575b50163303611c82578583600e54828082115f14611c7a57611b5991611fca565b600e5511611c72575b611b6f611a878488611fca565b82611bac575b509582917f3046bb5fb86890e6f3c32d7527b763c83ee73588c10f9533662078355cc634fa959697855197885287015216941692a3005b845163a9059cbb60e01b81526001600160a01b038916918101918252602082018490529082908290819060400103815f887f0000000000000000000000000000000000000000000000000000000000000000165af1908115611c685791611c408594927f3046bb5fb86890e6f3c32d7527b763c83ee73588c10f9533662078355cc634fa98999a945f91611c4b5750611fef565b919796955091611b75565b611c629150833d8511610884576108768183611f21565b8b610781565b85513d5f823e3d90fd5b859250611b62565b50505f611b59565b845163e9e3f4ad60e01b8152fd5b611ca79150843d86116102b1576102a38183611f21565b8a611b39565b5034610aa6576020366003190112610aa6576020906001600160a01b03611cd2611eb6565b165f52600a8252805f20549051908152f35b5034610aa6575f366003190112610aa6578051610b1691611d0482611ef1565b601882527f436f6e666964656e7469616c205661756c74205368617265000000000000000060208301525191829182611f43565b5034610aa65780600319360112610aa657602090611d8a611d57611eb6565b611d5f611ee2565b908115611dae57600c54915b15611d94576001600160a01b03165f908152600a855283902054611f8a565b4210159051908152f35b6001600160a01b03165f908152600b855283902054611f8a565b600d5491611d6b565b5034610aa6576020366003190112610aa6576001548151637622567960e11b8152833593916001600160a01b03919060209082908590829086165afa908115611e6b575f91611e4c575b50163303611e3e577f86c46efee0a638b418fa0952cd587c78b75b8bc989e7a7c13a86d448ec34a08460208484611e3782612334565b51908152a1005b905163e9e3f4ad60e01b8152fd5b611e65915060203d6020116102b1576102a38183611f21565b85611e01565b84513d5f823e3d90fd5b5034610aa6575f366003190112610aa6576020906005549051908152f35b5034610aa6575f366003190112610aa65760209061034e60055460095490611f8a565b600435906001600160a01b0382168203610aa657565b602435906001600160a01b0382168203610aa657565b602435908115158203610aa657565b6040810190811067ffffffffffffffff821117611f0d57604052565b634e487b7160e01b5f52604160045260245ffd5b90601f8019910116810190811067ffffffffffffffff821117611f0d57604052565b602080825282518183018190529093925f5b828110611f7657505060409293505f838284010152601f8019910116010190565b818101860151848201604001528501611f55565b91908201809211611f9757565b634e487b7160e01b5f52601160045260245ffd5b90816020910312610aa657516001600160a01b0381168103610aa65790565b91908203918211611f9757565b90816020910312610aa657518015158103610aa65790565b15611ff657565b60405162461bcd60e51b815260206004820152600f60248201526e151c985b9cd9995c8819985a5b1959608a1b6044820152606490fd5b81810292918115918404141715611f9757565b811561204a570490565b634e487b7160e01b5f52601260045260245ffd5b5f198114611f975760010190565b600354801561209a5760055490620f424091828102928184041490151715611f975761209791612040565b90565b50620f424090565b90156120e85760035480156120e257612097916002545f52600460205260405f209060018060a01b03165f526020526108cb60405f20546005549061202d565b50505f90565b60075480156120e257612097916006545f52600860205260405f209060018060a01b03165f526020526108cb60405f20546009549061202d565b61213160055460095490611f8a565b600e54808211156120e25761209791611fca565b901561216f576002545f52600460205260405f209060018060a01b03165f5260205260405f205490565b6006545f52600860205260405f209060018060a01b03165f5260205260405f205490565b600754801561209a5760095490620f424091828102928184041490151715611f975761209791612040565b8015612299576005546121ec91908082116121f157506121e081600554611fca565b6005555b600e54611f8a565b600e55565b6121fd60409183611fca565b5f60055561220c60025461205e565b806002555f6003558251906001825260208201527f19747c4fc33d5e520aba7581fd70140b6ebf32410fb2ace04e42eb69590a4015928391a160095490808211156122915761225a91611fca565b806009551561226a575b506121e4565b604061227760065461205e565b806006555f6007558151905f82526020820152a15f612264565b50505f61225a565b50565b6122ab60055460095490611f8a565b80156122d257600e549061271091828102928184041490151715611f975761209791612040565b505f90565b80156122995760207fb0bf1136427af53a4f141a4607b21ad2b14e0ae6d42711aaf85b8ee33f65d3db91600e54818082115f1461232c5761231791611fca565b600e5561232381612334565b604051908152a1565b50505f612317565b801561229957600554906003820282810460031483151715611f975760095480800460011481151715611f975761236b9082611f8a565b9283156123aa575061239161238a6123a5946108cb61239a948661202d565b8093611fca565b91600554611f8a565b600555600954611f8a565b600955565b90506123b69250611f8a565b600555565b60025f54146123ca5760025f55565b604051633ee5aeb560e01b8152600490fdfea2646970667358221220a9d440522c043753380dd908f266410b157534f3c3bb0e579fdcabea3c00c32364736f6c63430008180033",
  "linkReferences": {},
  "deployedLinkReferences": {},
  "immutableReferences": {
    "6036": [
      {
        "length": 32,
        "start": 1820
      },
      {
        "length": 32,
        "start": 3175
      },
      {
        "length": 32,
        "start": 4042
      },
      {
        "length": 32,
        "start": 4422
      },
      {
        "length": 32,
        "start": 4669
      },
      {
        "length": 32,
        "start": 5213
      },
      {
        "length": 32,
        "start": 5798
      },
      {
        "length": 32,
        "start": 6694
      },
      {
        "length": 32,
        "start": 7135
      }
    ]
  },
  "inputSourceName": "project/src/ConfidentialVault.sol",
  "buildInfoId": "solc-0_8_24-3567498d54a75ae06b4713e51b40a119ec76c424"
}