{
  "_format": "hh3-artifact-1",
  "contractName": "ConfidentialTradingV1",
  "sourceName": "src/ConfidentialTradingV1.sol",
  "abi": [
    {
      "inputs": [
        {
          "internalType": "address",
          "name": "_usdc",
          "type": "address"
        },
        {
          "internalType": "address",
          "name": "_core",
          "type": "address"
        },
        {
          "internalType": "address",
          "name": "_vault",
          "type": "address"
        },
        {
          "internalType": "address",
          "name": "_oracle",
          "type": "address"
        }
      ],
      "stateMutability": "nonpayable",
      "type": "constructor"
    },
    {
      "inputs": [],
      "name": "ReentrancyGuardReentrantCall",
      "type": "error"
    },
    {
      "anonymous": false,
      "inputs": [
        {
          "indexed": true,
          "internalType": "uint256",
          "name": "positionId",
          "type": "uint256"
        },
        {
          "indexed": true,
          "internalType": "address",
          "name": "trader",
          "type": "address"
        },
        {
          "indexed": false,
          "internalType": "uint256",
          "name": "amount",
          "type": "uint256"
        },
        {
          "indexed": false,
          "internalType": "uint256",
          "name": "newLiquidationPrice",
          "type": "uint256"
        }
      ],
      "name": "CollateralAdded",
      "type": "event"
    },
    {
      "anonymous": false,
      "inputs": [
        {
          "indexed": true,
          "internalType": "uint256",
          "name": "positionId",
          "type": "uint256"
        },
        {
          "indexed": true,
          "internalType": "address",
          "name": "trader",
          "type": "address"
        },
        {
          "indexed": false,
          "internalType": "uint256",
          "name": "amount",
          "type": "uint256"
        },
        {
          "indexed": false,
          "internalType": "uint256",
          "name": "newLiquidationPrice",
          "type": "uint256"
        }
      ],
      "name": "CollateralRemoved",
      "type": "event"
    },
    {
      "anonymous": false,
      "inputs": [
        {
          "indexed": true,
          "internalType": "uint256",
          "name": "orderId",
          "type": "uint256"
        }
      ],
      "name": "OrderCancelled",
      "type": "event"
    },
    {
      "anonymous": false,
      "inputs": [
        {
          "indexed": true,
          "internalType": "uint256",
          "name": "orderId",
          "type": "uint256"
        },
        {
          "indexed": true,
          "internalType": "uint256",
          "name": "positionId",
          "type": "uint256"
        }
      ],
      "name": "OrderExecuted",
      "type": "event"
    },
    {
      "anonymous": false,
      "inputs": [
        {
          "indexed": true,
          "internalType": "uint256",
          "name": "orderId",
          "type": "uint256"
        },
        {
          "indexed": true,
          "internalType": "address",
          "name": "trader",
          "type": "address"
        },
        {
          "indexed": false,
          "internalType": "bytes32",
          "name": "pairId",
          "type": "bytes32"
        },
        {
          "indexed": false,
          "internalType": "uint8",
          "name": "orderType",
          "type": "uint8"
        },
        {
          "indexed": false,
          "internalType": "uint256",
          "name": "triggerPrice",
          "type": "uint256"
        }
      ],
      "name": "OrderPlaced",
      "type": "event"
    },
    {
      "anonymous": false,
      "inputs": [
        {
          "indexed": true,
          "internalType": "uint256",
          "name": "positionId",
          "type": "uint256"
        },
        {
          "indexed": true,
          "internalType": "address",
          "name": "trader",
          "type": "address"
        },
        {
          "indexed": false,
          "internalType": "uint256",
          "name": "exitPrice",
          "type": "uint256"
        },
        {
          "indexed": false,
          "internalType": "int256",
          "name": "pnl",
          "type": "int256"
        }
      ],
      "name": "PositionClosed",
      "type": "event"
    },
    {
      "anonymous": false,
      "inputs": [
        {
          "indexed": true,
          "internalType": "uint256",
          "name": "positionId",
          "type": "uint256"
        },
        {
          "indexed": true,
          "internalType": "address",
          "name": "trader",
          "type": "address"
        },
        {
          "indexed": false,
          "internalType": "uint256",
          "name": "additionalSizeUsd",
          "type": "uint256"
        },
        {
          "indexed": false,
          "internalType": "uint256",
          "name": "newEntryPrice",
          "type": "uint256"
        },
        {
          "indexed": false,
          "internalType": "uint256",
          "name": "newLiquidationPrice",
          "type": "uint256"
        }
      ],
      "name": "PositionIncreased",
      "type": "event"
    },
    {
      "anonymous": false,
      "inputs": [
        {
          "indexed": true,
          "internalType": "uint256",
          "name": "positionId",
          "type": "uint256"
        },
        {
          "indexed": true,
          "internalType": "address",
          "name": "trader",
          "type": "address"
        },
        {
          "indexed": false,
          "internalType": "uint256",
          "name": "executionPrice",
          "type": "uint256"
        },
        {
          "indexed": true,
          "internalType": "address",
          "name": "liquidator",
          "type": "address"
        },
        {
          "indexed": false,
          "internalType": "uint256",
          "name": "reward",
          "type": "uint256"
        }
      ],
      "name": "PositionLiquidated",
      "type": "event"
    },
    {
      "anonymous": false,
      "inputs": [
        {
          "indexed": true,
          "internalType": "uint256",
          "name": "positionId",
          "type": "uint256"
        },
        {
          "indexed": true,
          "internalType": "address",
          "name": "trader",
          "type": "address"
        },
        {
          "indexed": false,
          "internalType": "bytes32",
          "name": "pairId",
          "type": "bytes32"
        },
        {
          "indexed": false,
          "internalType": "bool",
          "name": "isLong",
          "type": "bool"
        },
        {
          "indexed": false,
          "internalType": "uint256",
          "name": "sizeUsd",
          "type": "uint256"
        },
        {
          "indexed": false,
          "internalType": "uint256",
          "name": "entryPrice",
          "type": "uint256"
        },
        {
          "indexed": false,
          "internalType": "uint256",
          "name": "leverage",
          "type": "uint256"
        }
      ],
      "name": "PositionOpened",
      "type": "event"
    },
    {
      "anonymous": false,
      "inputs": [
        {
          "indexed": true,
          "internalType": "uint256",
          "name": "positionId",
          "type": "uint256"
        },
        {
          "indexed": true,
          "internalType": "address",
          "name": "trader",
          "type": "address"
        },
        {
          "indexed": false,
          "internalType": "uint256",
          "name": "closeSizeUsd",
          "type": "uint256"
        },
        {
          "indexed": false,
          "internalType": "uint256",
          "name": "exitPrice",
          "type": "uint256"
        },
        {
          "indexed": false,
          "internalType": "int256",
          "name": "pnl",
          "type": "int256"
        }
      ],
      "name": "PositionPartialClose",
      "type": "event"
    },
    {
      "anonymous": false,
      "inputs": [
        {
          "indexed": true,
          "internalType": "uint256",
          "name": "positionId",
          "type": "uint256"
        },
        {
          "indexed": false,
          "internalType": "bool",
          "name": "isTakeProfit",
          "type": "bool"
        },
        {
          "indexed": false,
          "internalType": "uint256",
          "name": "executionPrice",
          "type": "uint256"
        }
      ],
      "name": "TPSLTriggered",
      "type": "event"
    },
    {
      "anonymous": false,
      "inputs": [
        {
          "indexed": true,
          "internalType": "uint256",
          "name": "orderId",
          "type": "uint256"
        },
        {
          "indexed": false,
          "internalType": "uint256",
          "name": "sliceNumber",
          "type": "uint256"
        },
        {
          "indexed": false,
          "internalType": "uint256",
          "name": "sizeUsd",
          "type": "uint256"
        }
      ],
      "name": "TWAPSliceExecuted",
      "type": "event"
    },
    {
      "inputs": [],
      "name": "MIN_COLLATERAL",
      "outputs": [
        {
          "internalType": "uint256",
          "name": "",
          "type": "uint256"
        }
      ],
      "stateMutability": "view",
      "type": "function"
    },
    {
      "inputs": [],
      "name": "MIN_POSITION_SIZE",
      "outputs": [
        {
          "internalType": "uint256",
          "name": "",
          "type": "uint256"
        }
      ],
      "stateMutability": "view",
      "type": "function"
    },
    {
      "inputs": [
        {
          "internalType": "uint256",
          "name": "positionId",
          "type": "uint256"
        },
        {
          "internalType": "uint256",
          "name": "amount",
          "type": "uint256"
        }
      ],
      "name": "addCollateral",
      "outputs": [],
      "stateMutability": "nonpayable",
      "type": "function"
    },
    {
      "inputs": [
        {
          "internalType": "uint256",
          "name": "orderId",
          "type": "uint256"
        }
      ],
      "name": "cancelOrder",
      "outputs": [],
      "stateMutability": "nonpayable",
      "type": "function"
    },
    {
      "inputs": [],
      "name": "core",
      "outputs": [
        {
          "internalType": "contract ConfidentialCoreV1",
          "name": "",
          "type": "address"
        }
      ],
      "stateMutability": "view",
      "type": "function"
    },
    {
      "inputs": [
        {
          "internalType": "uint256",
          "name": "positionId",
          "type": "uint256"
        }
      ],
      "name": "createCloseRequest",
      "outputs": [
        {
          "internalType": "uint256",
          "name": "orderId",
          "type": "uint256"
        }
      ],
      "stateMutability": "payable",
      "type": "function"
    },
    {
      "inputs": [
        {
          "internalType": "uint256",
          "name": "positionId",
          "type": "uint256"
        },
        {
          "internalType": "uint256",
          "name": "additionalSizeUsd",
          "type": "uint256"
        },
        {
          "internalType": "uint256",
          "name": "additionalLeverage",
          "type": "uint256"
        },
        {
          "internalType": "uint256",
          "name": "acceptablePrice",
          "type": "uint256"
        }
      ],
      "name": "createIncreaseRequest",
      "outputs": [
        {
          "internalType": "uint256",
          "name": "orderId",
          "type": "uint256"
        }
      ],
      "stateMutability": "payable",
      "type": "function"
    },
    {
      "inputs": [
        {
          "internalType": "uint256",
          "name": "positionId",
          "type": "uint256"
        },
        {
          "internalType": "uint256",
          "name": "closePercent",
          "type": "uint256"
        }
      ],
      "name": "createPartialCloseRequest",
      "outputs": [
        {
          "internalType": "uint256",
          "name": "orderId",
          "type": "uint256"
        }
      ],
      "stateMutability": "payable",
      "type": "function"
    },
    {
      "inputs": [
        {
          "internalType": "uint256",
          "name": "positionId",
          "type": "uint256"
        },
        {
          "internalType": "uint256",
          "name": "amount",
          "type": "uint256"
        }
      ],
      "name": "createRemoveCollateralRequest",
      "outputs": [
        {
          "internalType": "uint256",
          "name": "orderId",
          "type": "uint256"
        }
      ],
      "stateMutability": "payable",
      "type": "function"
    },
    {
      "inputs": [
        {
          "internalType": "bytes32",
          "name": "pairId",
          "type": "bytes32"
        },
        {
          "internalType": "bool",
          "name": "isLong",
          "type": "bool"
        },
        {
          "internalType": "uint256",
          "name": "totalSizeUsd",
          "type": "uint256"
        },
        {
          "internalType": "uint256",
          "name": "leverage",
          "type": "uint256"
        },
        {
          "internalType": "uint256",
          "name": "slices",
          "type": "uint256"
        },
        {
          "internalType": "uint256",
          "name": "intervalSec",
          "type": "uint256"
        },
        {
          "internalType": "uint256",
          "name": "tpPrice",
          "type": "uint256"
        },
        {
          "internalType": "uint256",
          "name": "slPrice",
          "type": "uint256"
        }
      ],
      "name": "createTwapOrder",
      "outputs": [
        {
          "internalType": "uint256",
          "name": "orderId",
          "type": "uint256"
        }
      ],
      "stateMutability": "payable",
      "type": "function"
    },
    {
      "inputs": [
        {
          "internalType": "uint256[]",
          "name": "positionIds",
          "type": "uint256[]"
        },
        {
          "internalType": "bytes[]",
          "name": "updateData",
          "type": "bytes[]"
        }
      ],
      "name": "executeADL",
      "outputs": [],
      "stateMutability": "payable",
      "type": "function"
    },
    {
      "inputs": [
        {
          "internalType": "uint256",
          "name": "orderId",
          "type": "uint256"
        },
        {
          "internalType": "bytes[]",
          "name": "updateData",
          "type": "bytes[]"
        }
      ],
      "name": "executeOrder",
      "outputs": [],
      "stateMutability": "payable",
      "type": "function"
    },
    {
      "inputs": [
        {
          "internalType": "uint256",
          "name": "positionId",
          "type": "uint256"
        },
        {
          "internalType": "bytes[]",
          "name": "updateData",
          "type": "bytes[]"
        }
      ],
      "name": "executeTPSL",
      "outputs": [],
      "stateMutability": "payable",
      "type": "function"
    },
    {
      "inputs": [],
      "name": "executionBufferBps",
      "outputs": [
        {
          "internalType": "uint256",
          "name": "",
          "type": "uint256"
        }
      ],
      "stateMutability": "view",
      "type": "function"
    },
    {
      "inputs": [
        {
          "internalType": "uint256",
          "name": "",
          "type": "uint256"
        }
      ],
      "name": "hasActiveCloseRequest",
      "outputs": [
        {
          "internalType": "bool",
          "name": "",
          "type": "bool"
        }
      ],
      "stateMutability": "view",
      "type": "function"
    },
    {
      "inputs": [
        {
          "internalType": "uint256",
          "name": "positionId",
          "type": "uint256"
        },
        {
          "internalType": "bytes[]",
          "name": "updateData",
          "type": "bytes[]"
        }
      ],
      "name": "liquidate",
      "outputs": [],
      "stateMutability": "payable",
      "type": "function"
    },
    {
      "inputs": [],
      "name": "liquidationRewardBps",
      "outputs": [
        {
          "internalType": "uint256",
          "name": "",
          "type": "uint256"
        }
      ],
      "stateMutability": "view",
      "type": "function"
    },
    {
      "inputs": [],
      "name": "maxOrderAge",
      "outputs": [
        {
          "internalType": "uint256",
          "name": "",
          "type": "uint256"
        }
      ],
      "stateMutability": "view",
      "type": "function"
    },
    {
      "inputs": [],
      "name": "nextOrderId",
      "outputs": [
        {
          "internalType": "uint256",
          "name": "",
          "type": "uint256"
        }
      ],
      "stateMutability": "view",
      "type": "function"
    },
    {
      "inputs": [],
      "name": "nextPositionId",
      "outputs": [
        {
          "internalType": "uint256",
          "name": "",
          "type": "uint256"
        }
      ],
      "stateMutability": "view",
      "type": "function"
    },
    {
      "inputs": [],
      "name": "oracle",
      "outputs": [
        {
          "internalType": "contract PythPriceOracle",
          "name": "",
          "type": "address"
        }
      ],
      "stateMutability": "view",
      "type": "function"
    },
    {
      "inputs": [
        {
          "internalType": "uint256",
          "name": "",
          "type": "uint256"
        }
      ],
      "name": "pendingOrders",
      "outputs": [
        {
          "internalType": "bytes32",
          "name": "pairId",
          "type": "bytes32"
        },
        {
          "internalType": "address",
          "name": "trader",
          "type": "address"
        },
        {
          "internalType": "bool",
          "name": "isLong",
          "type": "bool"
        },
        {
          "internalType": "uint256",
          "name": "sizeUsd",
          "type": "uint256"
        },
        {
          "internalType": "uint256",
          "name": "collateral",
          "type": "uint256"
        },
        {
          "internalType": "uint256",
          "name": "leverage",
          "type": "uint256"
        },
        {
          "internalType": "uint256",
          "name": "triggerPrice",
          "type": "uint256"
        },
        {
          "internalType": "uint8",
          "name": "orderType",
          "type": "uint8"
        },
        {
          "internalType": "bool",
          "name": "isActive",
          "type": "bool"
        },
        {
          "internalType": "uint256",
          "name": "createdAt",
          "type": "uint256"
        },
        {
          "internalType": "uint256",
          "name": "positionId",
          "type": "uint256"
        },
        {
          "internalType": "uint256",
          "name": "feePaid",
          "type": "uint256"
        },
        {
          "internalType": "uint256",
          "name": "executionFee",
          "type": "uint256"
        },
        {
          "internalType": "uint256",
          "name": "tpPrice",
          "type": "uint256"
        },
        {
          "internalType": "uint256",
          "name": "slPrice",
          "type": "uint256"
        },
        {
          "internalType": "uint256",
          "name": "twapSlices",
          "type": "uint256"
        },
        {
          "internalType": "uint256",
          "name": "twapInterval",
          "type": "uint256"
        },
        {
          "internalType": "uint256",
          "name": "twapExecuted",
          "type": "uint256"
        },
        {
          "internalType": "uint256",
          "name": "twapLastExec",
          "type": "uint256"
        }
      ],
      "stateMutability": "view",
      "type": "function"
    },
    {
      "inputs": [
        {
          "internalType": "bytes32",
          "name": "pairId",
          "type": "bytes32"
        },
        {
          "internalType": "bool",
          "name": "isLong",
          "type": "bool"
        },
        {
          "internalType": "uint256",
          "name": "sizeUsd",
          "type": "uint256"
        },
        {
          "internalType": "uint256",
          "name": "leverage",
          "type": "uint256"
        },
        {
          "internalType": "uint256",
          "name": "triggerPrice",
          "type": "uint256"
        },
        {
          "internalType": "uint8",
          "name": "orderType",
          "type": "uint8"
        },
        {
          "internalType": "uint256",
          "name": "tpPrice",
          "type": "uint256"
        },
        {
          "internalType": "uint256",
          "name": "slPrice",
          "type": "uint256"
        }
      ],
      "name": "placeOrder",
      "outputs": [
        {
          "internalType": "uint256",
          "name": "orderId",
          "type": "uint256"
        }
      ],
      "stateMutability": "payable",
      "type": "function"
    },
    {
      "inputs": [
        {
          "internalType": "uint256",
          "name": "",
          "type": "uint256"
        }
      ],
      "name": "positions",
      "outputs": [
        {
          "internalType": "bytes32",
          "name": "pairId",
          "type": "bytes32"
        },
        {
          "internalType": "address",
          "name": "trader",
          "type": "address"
        },
        {
          "internalType": "bool",
          "name": "isLong",
          "type": "bool"
        },
        {
          "internalType": "uint256",
          "name": "sizeUsd",
          "type": "uint256"
        },
        {
          "internalType": "uint256",
          "name": "collateral",
          "type": "uint256"
        },
        {
          "internalType": "uint256",
          "name": "entryPrice",
          "type": "uint256"
        },
        {
          "internalType": "uint256",
          "name": "leverage",
          "type": "uint256"
        },
        {
          "internalType": "uint256",
          "name": "liquidationPrice",
          "type": "uint256"
        },
        {
          "internalType": "uint256",
          "name": "openedAt",
          "type": "uint256"
        },
        {
          "internalType": "bool",
          "name": "isOpen",
          "type": "bool"
        },
        {
          "internalType": "uint256",
          "name": "tpPrice",
          "type": "uint256"
        },
        {
          "internalType": "uint256",
          "name": "slPrice",
          "type": "uint256"
        },
        {
          "internalType": "int256",
          "name": "entryFundingIndex",
          "type": "int256"
        },
        {
          "internalType": "uint256",
          "name": "lastRolloverSettled",
          "type": "uint256"
        }
      ],
      "stateMutability": "view",
      "type": "function"
    },
    {
      "inputs": [],
      "name": "rolloverFeePerHour",
      "outputs": [
        {
          "internalType": "uint256",
          "name": "",
          "type": "uint256"
        }
      ],
      "stateMutability": "view",
      "type": "function"
    },
    {
      "inputs": [
        {
          "internalType": "uint256",
          "name": "_bps",
          "type": "uint256"
        }
      ],
      "name": "setExecutionBufferBps",
      "outputs": [],
      "stateMutability": "nonpayable",
      "type": "function"
    },
    {
      "inputs": [
        {
          "internalType": "uint256",
          "name": "_bps",
          "type": "uint256"
        }
      ],
      "name": "setLiquidationRewardBps",
      "outputs": [],
      "stateMutability": "nonpayable",
      "type": "function"
    },
    {
      "inputs": [
        {
          "internalType": "uint256",
          "name": "_seconds",
          "type": "uint256"
        }
      ],
      "name": "setMaxOrderAge",
      "outputs": [],
      "stateMutability": "nonpayable",
      "type": "function"
    },
    {
      "inputs": [
        {
          "internalType": "uint256",
          "name": "_fee",
          "type": "uint256"
        }
      ],
      "name": "setRolloverFeePerHour",
      "outputs": [],
      "stateMutability": "nonpayable",
      "type": "function"
    },
    {
      "inputs": [
        {
          "internalType": "uint256",
          "name": "positionId",
          "type": "uint256"
        },
        {
          "internalType": "uint256",
          "name": "newTpPrice",
          "type": "uint256"
        },
        {
          "internalType": "uint256",
          "name": "newSlPrice",
          "type": "uint256"
        }
      ],
      "name": "updateTpSl",
      "outputs": [],
      "stateMutability": "nonpayable",
      "type": "function"
    },
    {
      "inputs": [],
      "name": "usdc",
      "outputs": [
        {
          "internalType": "contract IERC20",
          "name": "",
          "type": "address"
        }
      ],
      "stateMutability": "view",
      "type": "function"
    },
    {
      "inputs": [
        {
          "internalType": "address",
          "name": "",
          "type": "address"
        },
        {
          "internalType": "uint256",
          "name": "",
          "type": "uint256"
        }
      ],
      "name": "userOrders",
      "outputs": [
        {
          "internalType": "uint256",
          "name": "",
          "type": "uint256"
        }
      ],
      "stateMutability": "view",
      "type": "function"
    },
    {
      "inputs": [
        {
          "internalType": "address",
          "name": "",
          "type": "address"
        },
        {
          "internalType": "uint256",
          "name": "",
          "type": "uint256"
        }
      ],
      "name": "userPositions",
      "outputs": [
        {
          "internalType": "uint256",
          "name": "",
          "type": "uint256"
        }
      ],
      "stateMutability": "view",
      "type": "function"
    },
    {
      "inputs": [],
      "name": "vault",
      "outputs": [
        {
          "internalType": "contract ConfidentialVaultV1",
          "name": "",
          "type": "address"
        }
      ],
      "stateMutability": "view",
      "type": "function"
    },
    {
      "stateMutability": "payable",
      "type": "receive"
    }
  ],
  "bytecode": "0x608034620000e957601f6200567e38819003918201601f19168301916001600160401b03831184841017620000ed57808492608094604052833981010312620000e9576200004d8162000101565b906200005c6020820162000101565b620000786060620000706040850162000101565b930162000101565b9060015f55600160055560016006555f600b556064600c5562093a80600d55601e600e5560018060a01b03928380928160018060a01b031997168760045416176004551685600154161760015516836002541617600255169060035416176003556040516155679081620001178239f35b5f80fd5b634e487b7160e01b5f52604160045260245ffd5b51906001600160a01b0382168203620000e95756fe60e08060405260048036101561001e575b5050361561001c575f80fd5b005b5f915f3560e01c908163233b4d571461271b575080632a58b330146126fe5780632c338fed146126d05780632e80f9a41461262057806333e7dddb14612600578063368dbba8146105785780633e413bee146125d957806341aa303b14612575578063514fcac7146123635780635df6deae146121405780635e1b4d99146121055780636c4c001d146120e85780636fb197f714611df65780637dc0d1d014611dcd57806380b7425814611a6b578063856652e914611a1f578063899346c714611a015780638fb735ee146119e357806399fbab88146119155780639bfe7e3e14611738578063a8f35adf14611609578063ba7ebf5f1461155c578063c009687c1461149f578063c09403ac1461117b578063c29433a61461115d578063c3aaea4e14611018578063ccc6d49214610dae578063effaed8914610d90578063f2f4eb2614610d6757828163f66141701461089157508063f884931c1461057d578063fa77964814610578578063fbfa77cf1461054c5763fd5c77cd036100105760403660031901126105485767ffffffffffffffff908035828111610441576101ca90369083016127a8565b602493919391602435908111610544576101e790369085016127a8565b9490936101f261466a565b6001805460405163aced166160e01b815291976001600160a01b03969260209283908290879082908c165afa80156105395788918c9161050c575b501633036104d2576002978483896002541660405192838092637510e6c960e11b82525afa80156104c7578c90610494575b61251c9150111561044557908a91816103d8575b50505b85811061028557896001815580f35b610290818787614606565b358a526007825260408a208a60ff918b83600883015416156103ce575089600354169260408254888251809781936331d98b3f60e01b83528d8301525afa9384156103c3578394610391575b50818d015460a01c1615610375578061030a8861030f930154918d6103018488614616565b9101549061462e565b614650565b1315610332579061032c8a92610326838a8a614606565b35614b8d565b01610276565b60405162461bcd60e51b8152808601849052601c818601527f43616e6e6f742041444c2061206c6f73696e6720706f736974696f6e000000006044820152606490fd5b8061030a8861038c930154918d6103018785614616565b61030f565b6103b491945060403d6040116103bc575b6103ac81836128c6565b810190612aba565b50925f6102dc565b503d6103a2565b6040513d85823e3d90fd5b939250505061032c565b886003541691823b1561044157604051631df3cbc560e31b8152928492849283918291610407918c840161293f565b039134905af180156104365761041e575b80610273565b6104279061289e565b61043257885f610418565b8880fd5b6040513d84823e3d90fd5b8380fd5b60405162461bcd60e51b8152808601849052602260248201527f41444c206f6e6c7920696e20656d657267656e637920287574696c203e203935604482015261252960f01b6064820152608490fd5b508381813d83116104c0575b6104aa81836128c6565b810103126104bc5761251c905161025f565b5f80fd5b503d6104a0565b6040513d8e823e3d90fd5b60405162461bcd60e51b8152808501839052601360248201527213db9b1e4812d9595c195c8818d85b88105113606a1b6044820152606490fd5b61052c9150843d8611610532575b61052481836128c6565b8101906128e8565b5f61022d565b503d61051a565b6040513d8d823e3d90fd5b8580fd5b5080fd5b82346105755780600319360112610575576002546040516001600160a01b039091168152602090f35b80fd5b61280d565b50906105883661282a565b909161059261466a565b600154604051635c975abb60e01b81526020946001600160a01b03928316929186818981875afa801561088657859061084c575b6105d191501561437c565b84151580610841575b1561080b578084526007865260408420926105fb60ff600886015416614345565b61060d60018501938454163314612907565b878760078601549260405192838092636d78097360e11b82525afa9081156108005786916107d1575b506106449061064c92612a1a565b4210156144cc565b808452600f865261066460ff604086205416156143f4565b6002830154620f4240978861068861271093846106818b83612be5565b0490612bf8565b1061078d575060019596976106aa6106b1926003870154906106818b83612be5565b1015614439565b808452600f875260408420805460ff191686179055600654956106d387614485565b6006558685526008885261072260408620938554855560ff88860191336001600160601b0360a01b8454161783555460a01c1681549060ff60a01b90151560a01b169060ff60a01b1916179055565b60028301556006820161010661ffff198254161790554260078301556008820155600a34910155338252600a855261075d8460408420614493565b54604051908152600685820152816040820152835f8051602061551283398151915260603393a355604051908152f35b60405162461bcd60e51b8152908101889052601860248201527f52656d61696e6465722073697a6520746f6f20736d616c6c00000000000000006044820152606490fd5b90508781813d83116107f9575b6107e881836128c6565b810103126104bc575161064c610636565b503d6107de565b6040513d88823e3d90fd5b60405162461bcd60e51b8152808801879052600f60248201526e125b9d985b1a59081c195c98d95b9d608a1b6044820152606490fd5b5061271085106105da565b508681813d831161087f575b61086281836128c6565b8101031261087b576108766105d191612c36565b6105c6565b8480fd5b503d610858565b6040513d87823e3d90fd5b808361089c366127d9565b906108a894929461466a565b81610d02575b5050918060409352602091600783528385209060088201916108d360ff845416614345565b600354815487516331d98b3f60e01b8152808501829052976001600160a01b03946024939091908a908590829089165afa988915610cf7578a99610cd5575b50600184019360ff855460a01c165f14610cc85760068101548a11155b15610c925790818b8a61094c61094783989796614547565b615076565b94868a60015416916040519485938492637cc6765f60e11b8452898401525af1908115610800578b91610c63575b505061098d61098882614547565b6150a8565b83868213610c50575b505086600154169260448b6002840154956040519283809263e4d8cbe560e01b825289898301528b8b8301525afa908115610bfb578791610c1c575b506109dd9082612a1a565b6003830154929083811115610c16575082915b8280821115610c0a57610a0f9150610a09815b82612bf8565b94612bf8565b94612710610a1f600c5488612be5565b049a60ff1981541690558960015416915490895492803b15610c06576040805163019ca2b960e51b81528089019485526001600160a01b03868f1616602086015260a09590951c60ff161515908401526060830191909152889183919082908490829060800103925af1908115610bfb578791610be7575b505080610b95575b5080610b43575b5085600254168686541691813b156105445785608492819560405197889687956309c0533b60e01b8752860152339085015260448401528a60648401525af1801561043657610b2b575b50505416926040519485528401527f3b7bc7c0fdc798ac653b9f0d6d28adb2293a55402d32c21d323da740ccc6553960403394a46001815580f35b610b349061289e565b610b3f578688610af0565b8680fd5b866002541690813b1561054457859185839260405194859384926335b8e71360e01b8452888401525af1908115610886578591610b81575b50610aa6565b610b8a9061289e565b61044157838c610b7b565b876002541690813b15610b3f578691868392604051948593849263ff20b48d60e01b8452898401525af1908115610800578691610bd3575b50610a9f565b610bdc9061289e565b61087b57848d610bcd565b610bf09061289e565b61054457858e610a97565b6040513d89823e3d90fd5b8980fd5b610a09610a0f92610a03565b916109f0565b8097508c8092503d8311610c49575b610c3581836128c6565b810103126104bc576109dd8d9651906109d2565b503d610c2b565b610c5b929450612a1a565b918c80610996565b90809296503d8311610c8b575b610c7a81836128c6565b810103126104bc578a93898d61097a565b503d610c70565b60405162461bcd60e51b81528083018a90526010818601526f4e6f74206c6971756964617461626c6560801b6044820152606490fd5b60068101548a101561092f565b610cef91995060403d6040116103bc576103ac81836128c6565b50978a610912565b6040513d8c823e3d90fd5b6003546001600160a01b031691823b1561044157604051631df3cbc560e31b8152928492849283918291610d38918a840161293f565b039134905af1801561043657610d4f575b806108ae565b610d589061289e565b610d63578284610d49565b8280fd5b82346105755780600319360112610575576001546040516001600160a01b039091168152602090f35b82346105755780600319360112610575576020600c54604051908152f35b509060803660031901126105755781359160243591606435604435610dd161466a565b60018060a01b039360019480865416976040518099635c975abb60e01b8252818560209c8d935afa8015610bfb578790610fe2575b610e1191501561437c565b610e20620f424089101561450a565b808652600789526040862093610e3c60ff600887015416614345565b87850193610e4e848654163314612907565b828852600f8b52610e6660ff60408a205416156143f4565b828852600f8b5260408820805460ff19168a179055610e85828b612bc7565b93895416938b8b60446040518098819363e4d8cbe560e01b8352878301528d60248301525afa948515610fd7578995610fa8575b50610ece610ec78683612a1a565b3033614eae565b6006549a610edb8c614485565b6006558b8a5260088d52610f2a60408b20978954895560ff8d8a0191336001600160601b0360a01b8454161783555460a01c1681549060ff60a01b90151560a01b169060ff60a01b1916179055565b600287015560038601558401558460058401556006830161010561ffff1982541617905542600784015560088301556009820155600a34910155338352600a8652610f788560408520614493565b54906040519182526005868301526040820152835f8051602061551283398151915260603393a355604051908152f35b9094508b81813d8311610fd0575b610fc081836128c6565b810103126104bc5751935f610eb9565b503d610fb6565b6040513d8b823e3d90fd5b508981813d8311611011575b610ff881836128c6565b81010312610b3f5761100c610e1191612c36565b610e06565b503d610fee565b5090346105755760203660031901126105755781358152600860205260409020808092815490600183015460c05260028301549060038401549084015460058501546006860154600787015490600888015492600989015494600a8a015496600b8b015498600c8c01549a600d8d01549c600e01549d600f01549e6010015460805260405160a05260a05152600160a01b6001900360c0511660a0516020015260c05160a01c60ff16151560a0516040015260a0516060015260a0516080015260a05160a0015260a05160c0015260ff811660a05160e0015260081c60ff16151560a051610100015260a051610120015260a051610140015260a051610160015260a051610180015260a0516101a0015260a0516101c0015260a0516101e0015260a051610200015260a051610220015260805160a051610240015260a05161026090f35b82346105755780600319360112610575576020600d54604051908152f35b50906101003660031901126105755781359061119561288f565b9160443592606435906084359160a4359160ff83168093036105445760c43560e435926111c061466a565b6111cf620f42408a101561450a565b600285116114675781611400575b83611399575b6001546001600160a01b031690813b156104325783898c8a61121b858f604051968795869563bd79156f60e01b875233918701612c05565b0381865afa8015610cf757908a91611385575b50506040519a8b9263e4d8cbe560e01b84528b828501528715602485015283604460209e8f935afa928315610cf7578a93611356575b5061126f828c612bc7565b6112798482612a1a565b611284903033614eae565b6006549b6112918d614485565b6006558c8c5260088e5260408c208b815560018101805460ff60a01b1933166001600160a81b03199091161798151560a01b60ff60a01b169890981790975560028701556003860155840155856005840155600683018561ffff1982541617610100179055426007840155600983015534600a830155600b820155600c0155338452600a865284604085209061132691614493565b60405192835285830152604082015282339160605f8051602061551283398151915291a360019055604051908152f35b9092508b81813d831161137e575b61136e81836128c6565b810103126104bc5751915f611264565b503d611364565b61138e9061289e565b61043257885f61122e565b82156113ee5785841080156113e4575b6111e35760405162461bcd60e51b81526020818c0152601060248201526f496e76616c696420534c20707269636560801b6044820152606490fd5b50600285146113a9565b858411806113a95750600285146113a9565b821561145557858211801561144b575b6111dd5760405162461bcd60e51b81526020818c0152601060248201526f496e76616c696420545020707269636560801b6044820152606490fd5b5060028514611410565b85821080611410575060028514611410565b60405162461bcd60e51b81526020818c01526011602482015270496e76616c6964206f726465725479706560781b6044820152606490fd5b503461054857602036600319011261054857600154604051638da5cb5b60e01b8152823592916001600160a01b039060209083908590829085165afa8015610886576114f592869161153d575b50163314612907565b606482116115045750600b5580f35b60649060206040519162461bcd60e51b8352820152601260248201527126b0bc101817181892903832b9103437bab960711b6044820152fd5b611556915060203d6020116105325761052481836128c6565b5f6114ec565b503461054857602036600319011261054857600154604051638da5cb5b60e01b8152823592916001600160a01b039060209083908590829085165afa8015610886576115b192869161153d5750163314612907565b610e10821015806115fc575b156115c95750600d5580f35b60649060206040519162461bcd60e51b8352820152600c60248201526b31682d3330642072616e676560a01b6044820152fd5b5062278d008211156115bd565b5034610548576116183661282a565b9161162161466a565b61162c8315156143ba565b81845260076020526040842061164860ff600883015416614345565b60018101918560018060a01b03611663818654163314612907565b61167287826002541633614eae565b60025416803b1561054857818091602460405180948193636e93ae2b60e01b83528c898401525af1801561043657611724575b50506006926116e79160038401906116be888354612a1a565b80925560ff6002860154916116d38484612bc7565b6005880155860154935460a01c1692614f75565b918291015560405192835260208301527f935a476d8eb416e1441bbdc27477a7d90012bed1a74dba06f77fc32b8b119bd860403393a36001815580f35b61172d9061289e565b61054457855f6116a5565b5090602091826003193601126105485780359161175361466a565b828152600784526040812060ff600882015416156118dd5760018101546001600160a01b03906117869082163314612907565b848352600f865260ff6040842054166118a257856007830154916001541660405195868092636d78097360e11b82525afa9384156103c3578394611871575b506106446001946117d592612a1a565b838252600f855260408220805460ff191684179055600654936117f785614485565b60065584835260088652604083209082548255848201336001600160601b0360a01b8254161790556006820161010361ffff198254161790554260078301556008820155600a3491015554604051908152600385820152816040820152835f8051602061551283398151915260603393a355604051908152f35b93508584813d831161189b575b61188881836128c6565b810103126104bc579251926106446117c5565b503d61187e565b60405162461bcd60e51b81528085018790526014602482015273436c6f736520726571756573742065786973747360601b6044820152606490fd5b60405162461bcd60e51b815280840186905260116024820152702837b9b4ba34b7b7103737ba1037b832b760791b6044820152606490fd5b50346105485760203660031901126105485760406101c09282358152600760205220908154916001810154916002820154906003830154908301546005840154600685015460078601549160ff60088801541693600988015495600a8901549760ff600c600b8c01549b01549b6040519d8e528d602060018060a01b03831691015260a01c16151560408d015260608c015260808b015260a08a015260c089015260e088015261010087015215156101208601526101408501526101608401526101808301526101a0820152f35b82346105755780600319360112610575576020600b54604051908152f35b82346105755780600319360112610575576020600554604051908152f35b823461057557611a2e36612840565b6001600160a01b039091168252600a60205260408220805491929091831015610575576020611a5d8484612866565b90546040519160031b1c8152f35b5090611a76366127d9565b90611a8294929461466a565b81611d6f575b5050828252602092600784526040832091611aa960ff600885015416614345565b6007830154600154604051636d78097360e11b81526001600160a01b03929183169188828681865afa918215611d6457918593918a938a92611d2b575b50611af49161064491612a1a565b604051635c975abb60e01b815292839182905afa8015610800578690611cf5575b611b2091501561437c565b60035416906040845460248251809581936331d98b3f60e01b8352868301525afa918215610886578592611cd3575b508485928095600981015480611c66575b50821580611c59575b611bf2575b505015611bb857507fac4fd466c8f994e08ce2eb9141c2f01f2a779a3537d9bd71fa8762df3d12842c6040839285611bb1979883519215158352820152a2614b8d565b6001815580f35b60405162461bcd60e51b8152908101869052601360248201527215140bd4d3081b9bdd081d1c9a59d9d95c9959606a1b6044820152606490fd5b909150600a8101549060ff6001611c28600e5494612710610681611c2182611c1a8a86612be5565b0484612a1a565b9783612be5565b92015460a01c1615611c4e5750811115905b81611c46575b80611b6e565b94505f611c40565b905081101590611c3a565b50600a8101541515611b69565b9192509350611c9b600e5491612710611c94611c8d82611c868786612be5565b0484612bf8565b9483612be5565b0490612a1a565b600185015460a01c60ff1615611cc85750811015905b819382611cbf575b5f611b60565b95508095611cb9565b905081111590611cb1565b611ced91925060403d6040116103bc576103ac81836128c6565b50905f611b4f565b508681813d8311611d24575b611d0b81836128c6565b8101031261054457611d1f611b2091612c36565b611b15565b503d611d01565b93849195508092503d8311611d5d575b611d4581836128c6565b810103126104bc579051849289929190610644611ae6565b503d611d3b565b6040513d8a823e3d90fd5b6003546001600160a01b031690813b1561087b57918491611da593604051809581948293631df3cbc560e31b845289840161293f565b039134905af180156103c35790839115611a8857611dc29061289e565b61054857815f611a88565b82346105755780600319360112610575576003546040516001600160a01b039091168152602090f35b50906101003660031901126104bc57813591611e1061288f565b9160443593606435926084359460a43590611e2961466a565b6002871015806120dd575b156120a857603c821061207157620f4240878102908104880361205e578810612023576001546001600160a01b031696873b156104bc5760405163bd79156f60e01b81525f8180611e8b8b8e88338d8d8701612c05565b03818c5afa801561201857612005575b50611ea6878a612bc7565b98604051998a9963e4d8cbe560e01b8b5282878c01528860248c01528a604460209c8d935afa918215611d64578a9b899b9a9b93611fca575b50998160019a9b611ef8610ec786600e99989796612a1a565b60086006549d8e611f0881614485565b6006558d525260408b208a81558c8101805460ff60a01b1933166001600160a81b03199091161797151560a01b60ff60a01b169790971790965560028601556003850155868401556006830161010461ffff19825416179055426007840155600983015534600a83015560c435600b83015560e435600c830155600d8201550155338352600a8652611f9d8560408520614493565b60405191825285820152816040820152835f8051602061551283398151915260603393a355604051908152f35b80959493508a91929a3d8311611ffe575b611fe581836128c6565b810103126104bc5792518a989293919290916001611edf565b503d611fdb565b61201091965061289e565b5f945f611e9b565b6040513d5f823e3d90fd5b60405162461bcd60e51b8152602081850152601460248201527314db1a58d9481cda5e99481d1bdbc81cdb585b1b60621b6044820152606490fd5b601184634e487b7160e01b5f525260245ffd5b60405162461bcd60e51b8152602081850152601060248201526f135a5b880d8c1cc81a5b9d195c9d985b60821b6044820152606490fd5b60405162461bcd60e51b8152602081850152600e60248201526d496e76616c696420736c6963657360901b6044820152606490fd5b506064871115611e34565b346104bc575f3660031901126104bc576020600e54604051908152f35b346104bc5761211336612840565b6001600160a01b039091165f90815260096020526040902080548210156104bc57602091611a5d91612866565b5061214a3661282a565b909161215461466a565b600154604051635c975abb60e01b81526020946001600160a01b0392909190869082908690829087165afa8015612018575f9061232d575b61219791501561437c565b6121a28415156143ba565b805f526007855260405f20926121be60ff600886015416614345565b6121d060018501938454163314612907565b815f52600f86526121e860ff60405f205416156143f4565b600384015490858211156122e95750620f42406106aa8661220893612bf8565b805f52600f855260405f20600160ff198254161790556006549361222b85614485565b600655845f526008865261227b60405f20938554855560ff6001860191336001600160601b0360a01b8454161783555460a01c1681549060ff60a01b90151560a01b169060ff60a01b1916179055565b60028301556006820161010761ffff198254161790554260078301556008820155600a34910155335f52600a83526122b68260405f20614493565b546040519081526007838201525f6040820152815f8051602061551283398151915260603393a360015f55604051908152f35b60405162461bcd60e51b8152908101879052601960248201527f416d6f756e74206578636565647320636f6c6c61746572616c000000000000006044820152606490fd5b508581813d831161235c575b61234381836128c6565b810103126104bc5761235761219791612c36565b61218c565b503d612339565b50346104bc5760203660031901126104bc5780359061238061466a565b815f52600860205260405f20600681019160ff83546123a3828260081c166129e1565b6123ba60018060a01b036001860154163314612907565b61ff001981168555166003811490811561256a575b811561255f575b8115612554575b50612537575b60ff83541660038114158061252c575b80612521575b61248d575b5060ff600a8301549354161480612480575b612453575b5080612434575b505f805160206154f28339815191525f80a260015f55005b5f80808061244d94335af1612447612a3b565b50612a7a565b8161241c565b9061247482600f61246b600d61247a96015485612bc7565b91015490612be5565b90612bf8565b82612415565b50600f8101541515612410565b6003830154826009850154921480612514575b6124d4575b6124af8282612a1a565b6124ba575b506123fe565b6124cd916124c791612a1a565b3361468b565b84806124b4565b9061250e90612474600d8601546125086124f86124f18388612bc7565b9285612bc7565b95612474600f8a01548094612be5565b94612be5565b906124a5565b50600f84015415156124a0565b5060078114156123f9565b5060068114156123f3565b60088201545f52600f60205260405f2060ff1981541690556123e3565b6007915014856123dd565b6006811491506123d6565b6005811491506123cf565b50346104bc5760603660031901126104bc5761258f61466a565b355f52600760205260405f206125ab60ff600883015416614345565b6125c260018060a01b036001830154163314612907565b6024356009820155604435600a9091015560015f55005b50346104bc575f3660031901126104bc57546040516001600160a01b039091168152602090f35b61261a61260c366127d9565b9161261561466a565b612c78565b60015f55005b50346104bc5760203660031901126104bc57600154604051638da5cb5b60e01b8152823592916001600160a01b039060209083908590829085165afa801561201857612675925f916126b15750163314612907565b6101f482116126845750600c55005b60649060206040519162461bcd60e51b835282015260066024820152654d617820352560d01b6044820152fd5b6126ca915060203d6020116105325761052481836128c6565b856114ec565b50346104bc5760203660031901126104bc57355f52600f602052602060ff60405f2054166040519015158152f35b346104bc575f3660031901126104bc576020600654604051908152f35b82346104bc5760203660031901126104bc5780359160018060a01b0360208284818460015416638da5cb5b60e01b82525afa801561201857612766925f916126b15750163314612907565b606482116127745750600e55005b60649060206040519162461bcd60e51b8352820152600d60248201526c26b0bc10189290313ab33332b960991b6044820152fd5b9181601f840112156104bc5782359167ffffffffffffffff83116104bc576020808501948460051b0101116104bc57565b9060406003198301126104bc57600435916024359067ffffffffffffffff82116104bc57612809916004016127a8565b9091565b346104bc575f3660031901126104bc576020604051620f42408152f35b60409060031901126104bc576004359060243590565b60409060031901126104bc576004356001600160a01b03811681036104bc579060243590565b805482101561287b575f5260205f2001905f90565b634e487b7160e01b5f52603260045260245ffd5b6024359081151582036104bc57565b67ffffffffffffffff81116128b257604052565b634e487b7160e01b5f52604160045260245ffd5b90601f8019910116810190811067ffffffffffffffff8211176128b257604052565b908160209103126104bc57516001600160a01b03811681036104bc5790565b1561290e57565b60405162461bcd60e51b81526020600482015260096024820152682737ba1037bbb732b960b91b6044820152606490fd5b9160208181850182865252604084019360408360051b82010194845f925b85841061296e575050505050505090565b90919293949596603f198282030184528735601e19843603018112156104bc57830186810191903567ffffffffffffffff81116104bc5780360383136104bc5787828280600196849695859652848401375f828201840152601f01601f191601019901979695919091019301919061295d565b156129e857565b60405162461bcd60e51b815260206004820152600a6024820152694e6f742061637469766560b01b6044820152606490fd5b91908201809211612a2757565b634e487b7160e01b5f52601160045260245ffd5b3d15612a75573d9067ffffffffffffffff82116128b25760405191612a6a601f8201601f1916602001846128c6565b82523d5f602084013e565b606090565b15612a8157565b60405162461bcd60e51b8152602060048201526011602482015270115512081c99599d5b990819985a5b1959607a1b6044820152606490fd5b91908260409103126104bc576020825192015190565b90604051610260810181811067ffffffffffffffff8211176128b257604052610240601082948054845260ff600182015460018060a01b038116602087015260a01c16151560408501526002810154606085015260038101546080850152600481015460a0850152600581015460c085015260ff600682015481811660e087015260081c161515610100850152600781015461012085015260088101546101408501526009810154610160850152600a810154610180850152600b8101546101a0850152600c8101546101c0850152600d8101546101e0850152600e810154610200850152600f8101546102208501520154910152565b8115612bd1570490565b634e487b7160e01b5f52601260045260245ffd5b81810292918115918404141715612a2757565b91908203918211612a2757565b9081526001600160a01b03909116602082015290151560408201526060810191909152608081019190915260a00190565b519081151582036104bc57565b15612c4a57565b60405162461bcd60e51b815260206004820152600660248201526514185d5cd95960d21b6044820152606490fd5b90915f92816142e4575b50508082526008602052604082206006810154612ca460ff8260081c166129e1565b612cb56007830154600d5490612a1a565b421161419f57506003548154604080516331d98b3f60e01b8152600481018390529192829060249082906001600160a01b03165afa90811561088657859161417f575b50600683015460ff1680612f165750600183015460a01c60ff1691508115612f095760058301548111155b15612ed057612d4e9115612ebd57600583015480821015612eb657505b612d4983612ad0565b61475d565b60068101805461ff00191690555b82600a82015480612e0a575b5050600681015460ff8160081c1615612d82575b50505050565b60ff16600303612dbf5760087f9947370f1e808dd40de986fca744d8715d4d7aa575359f77a7bdeeb887f590ea910154925b80a35f808080612d7c565b506005545f198101908111612df6577f9947370f1e808dd40de986fca744d8715d4d7aa575359f77a7bdeeb887f590ea9092612db4565b634e487b7160e01b83526011600452602483fd5b81906006840154600460ff82161480612ea9575b15612e8f5750612e349150600d84015490612bc7565b8015612d685781808092335af1612e49612a3b565b5015612e5657825f612d68565b60405162461bcd60e51b815260206004820152601160248201527012d9595c195c881999594819985a5b1959607a1b6044820152606490fd5b60081c60ff1615612ea1575b50612e34565b90505f612e9b565b50600d8501541515612e1e565b9050612d40565b600583015480821115612eb65750612d40565b60405162461bcd60e51b8152602060048201526011602482015270131a5b5a5d081b9bdd081c995858da1959607a1b6044820152606490fd5b6005830154811015612d23565b60018103612fd65750905060ff600183015460a01c16805f14612fb957612f4a6005840154612710610681600e5483612be5565b905b15612fb1578110155b15612f7957612f6790612d4983612ad0565b60068101805461ff0019169055612d5c565b60405162461bcd60e51b815260206004820152601060248201526f14dd1bdc081b9bdd081c995858da195960821b6044820152606490fd5b811115612f55565b612fd06005840154612710611c94600e5483612be5565b90612f4c565b6002810361306d57509050600182015460ff8160a01c165f146130605760058301548211155b8015613054575b156130165750612f6790612d4983612ad0565b61303d915061302e6003840154600985015490612a1a565b906001600160a01b031661468b565b815f805160206154f28339815191528480a2612f67565b50600583015415613003565b6005830154821015612ffc565b600381036131265750600154604051635c975abb60e01b8152919250602090829060049082906001600160a01b03165afa80156108865785906130eb575b6130b6915015612c43565b6130c560088301918254614b8d565b548352600f60205260408320805460ff1916905560068101805461ff0019169055612d5c565b506020813d60201161311e575b81613105602093836128c6565b8101031261087b576131196130b691612c36565b6130ab565b3d91506130f8565b600581036136f65750600154604051635c975abb60e01b8152919250602090829060049082906001600160a01b03165afa80156108865785906136bb575b61316f915015612c43565b600182015460ff8160a01c165f146136ae5760058301548211155b80156136a2575b1561367357506131a082612ad0565b906101408201518552600760205260408520916131c360ff600885015416614345565b6060810151906080810151610160820151906131de866152a1565b6002860154946131ee8587612a1a565b6132076003890154916132018584612a1a565b90612bc7565b9060018060a01b03600154169289549360018b015493813b1561366f5760405163bd79156f60e01b8152908f9082908190613259908e60a08b901c60ff166001600160a01b038c168d60048701612c05565b0381855afa8015613662578f90918b92613647575b505060405163b391decf60e01b81526004810187905260ff60a087901c1615156024820152604481019190915290602090829060649082905afa90811561363a57908e92918391613605575b5081928082135f146135b3575061271091506132d69083612be5565b0460ff8460a01c165f146135a5576132ed91612a1a565b88670de0b6b3a7640000810204670de0b6b3a764000014891517156135915761332460048b0154670de0b6b3a76400008b02612bc7565b9088670de0b6b3a7640000810204670de0b6b3a7640000148915171561357d5761335890670de0b6b3a76400008a02612bc7565b613362898b612a1a565b9182670de0b6b3a7640000810204670de0b6b3a76400001483151715613569576133e8938c6133b58c6133af600297670de0b6b3a76400006133a86133bf998f99612a1a565b9102612bc7565b9e612a1a565b9485910155612a1a565b8060038c01558960048c01556133d58183612bc7565b60058c015560ff8460a01c16918a614f75565b60068901556001546001600160a01b031691823b156135655760405163b65b361f60e01b815260048101919091526001600160a01b038216602482015260a09190911c60ff161515604482015260648101869052908a9082908183816084810103925af18015610cf757908a91613551575b50506002546134739082906001600160a01b031661468b565b6002546001600160a01b031690813b15610c06578991602483926040519485938492636e93ae2b60e01b845260048401525af18015610fd757908991613539575b5050916101406060926134e77ff48aa9a1deec4f3fc0cb0c073f4f097041726d7c7f9d2c3a863cd52f721e8d1a95615161565b015193600660018060a01b036001880154169601549060405192835260208301526040820152a35b60088101548352600f60205260408320805460ff1916905560068101805461ff0019169055612d5c565b6135429061289e565b61354d57875f6134b4565b8780fd5b61355a9061289e565b61043257885f61345a565b8b80fd5b634e487b7160e01b8f52601160045260248ffd5b634e487b7160e01b8e52601160045260248efd5b634e487b7160e01b8d52601160045260248dfd5b6135ae91612bf8565b6132ed565b81126135c1575b50506132ed565b6127109192506135d36135d99161474d565b83612be5565b0460ff8460a01c165f146135f7576135f091612bf8565b5f806135ba565b61360091612a1a565b6135f0565b9250506020823d602011613632575b81613621602093836128c6565b810103126104bc578d91515f6132ba565b3d9150613614565b8e604051903d90823e3d90fd5b61365291925061289e565b61365e57888e5f61326e565b8d80fd5b8f604051903d90823e3d90fd5b8e80fd5b61368b915061302e6003840154600985015490612a1a565b815f805160206154f28339815191528480a261350f565b50600583015415613191565b600583015482101561318a565b506020813d6020116136ee575b816136d5602093836128c6565b8101031261087b576136e961316f91612c36565b613164565b3d91506136c8565b60068103613b335750600154604051635c975abb60e01b8152919250602090829060049082906001600160a01b03165afa8015610886578590613af8575b61373f915015612c43565b61374882612ad0565b610140810151855260076020526137b0604086209161376d60ff600885015416614345565b60608101519061377c846152a1565b6002840154916137b661271093846137948483612be5565b049586956137a760038a01549586612be5565b04958692612bf8565b92612bf8565b92620f42408210613abd576137d0620f4240851015614439565b600186015460ff8160a01c165f14613aa1576137fd600488015461030a886137f8838d614616565b61462e565b925b60015460405163e4d8cbe560e01b815260048101899052602481018e90529490602090869060449082906001600160a01b03165afa948515613a96578d95613a5e575b50906138518561387f93614616565b968160028b01558060038b01556138688183612bc7565b60058b015560ff8460a01c169160048b0154614f75565b600688015560018060a01b0360015416908754823b15613a5a5760405163019ca2b960e51b815260048101919091526001600160a01b038216602482015260a09190911c60ff161515604482015260648101879052908b9082908183816084810103925af1801561053957908b91613a46575b505060025460018701546001600160a01b03918216929116823b156135655760405163118f304360e01b81526001600160a01b03919091166004820152602481019190915260448101859052908a908290606490829084905af18015610cf757908a91613a32575b5050806139d7575b50916060916101407f5cc0748e06097a585a6534dafcca64d5cc367340dff0e00469484e8269a7ca7b940151946001808060a01b03910154169560405192835260208301526040820152a360088101548352600f60205260408320805460ff1916905560068101805461ff0019169055612d5c565b6002546001600160a01b031690813b15610c065789916024839260405194859384926335b8e71360e01b845260048401525af18015610fd757908991613a1e575b50613962565b613a279061289e565b61354d57875f613a18565b613a3b9061289e565b61043257885f61395a565b613a4f9061289e565b610c0657895f6138f2565b8c80fd5b919094506020823d602011613a8e575b81613a7b602093836128c6565b810103126104bc57905193613851613842565b3d9150613a6e565b6040513d8f823e3d90fd5b613ab7600488015461030a886137f88c84614616565b926137ff565b60405162461bcd60e51b815260206004820152601360248201527214995b585a5b99195c881d1bdbc81cdb585b1b606a1b6044820152606490fd5b506020813d602011613b2b575b81613b12602093836128c6565b8101031261087b57613b2661373f91612c36565b613734565b3d9150613b05565b60078103613ef85750600154604051635c975abb60e01b8152919250602090829060049082906001600160a01b03165afa8015610886578590613ebd575b613b7c915015612c43565b613b8582612ad0565b610140810151855260076020526040852090613ba760ff600884015416614345565b606081015190613bb6836152a1565b613bc4826003850154612bf8565b93620f42408510613e8157600284015494613bdf8187612bc7565b9160018060a01b036001541660e0875460246040518094819363351bd11560e11b835260048301525afa8015610539578b90613de5575b6040915001518311613da957613c3e60048701548360ff60018a015460a01c16998a92614f75565b80975f14613d9a57613c509111614b2e565b60038501556005840155600683018490556002546001600160a01b0316803b1561354d578780916024604051809481936306e980c560e51b83528860048401525af18015611d6457908891613d86575b505060025460018401546001600160a01b039182169116813b15610432576040516374e863ad60e01b81526001600160a01b03919091166004820152602481018490529088908290604490829084905af18015611d6457908891613d72575b505061014001516001909201546040805192835260208301949094526001600160a01b0316927fdf372a02d8e5139b85d7448d53241f194a27db9f321178c970db6e998ebb600191a360088101548352600f60205260408320805460ff1916905560068101805461ff0019169055612d5c565b613d7b9061289e565b610b3f57865f613cff565b613d8f9061289e565b610b3f57865f613ca0565b613da49110614b2e565b613c50565b60405162461bcd60e51b815260206004820152601460248201527345786365656473206d6178206c6576657261676560601b6044820152606490fd5b5060e0813d60e011613e79575b81613dff60e093836128c6565b81010312613e75576040518060e081011067ffffffffffffffff60e0830111176128b257613e6b60c060409360e08401855280518452602081015160208501528481015185850152606081015160608501526080810151608085015260a081015160a085015201612c36565b60c0820152613c16565b8a80fd5b3d9150613df2565b60405162461bcd60e51b815260206004820152601460248201527310995b1bddc81b5a5b8818dbdb1b185d195c985b60621b6044820152606490fd5b506020813d602011613ef0575b81613ed7602093836128c6565b8101031261087b57613eeb613b7c91612c36565b613b71565b3d9150613eca565b600414613f07575b5050612d5c565b600f8301549182158015614163575b1561412c57613f2484612ad0565b9260018101811161411857600d850154906001810182036140d857806002870154613f4f8482612bc7565b8260038a015492613f608785612bc7565b9260098c015497613f719089612bc7565b96613f7b91612be5565b613f8491612bf8565b60608a0152613f9291612be5565b613f9b91612bf8565b6080870152613fa991612be5565b613fb291612bf8565b6101608401525b6001805490850154606085015160048701549390926001600160a01b03169190823b15610c065760405163bd79156f60e01b8152948a948694938593849361401b939092909160a082901c60ff16916001600160a01b03169060048701612c05565b03915afa8015610800579086916140c4575b5050614039908261475d565b600f82015490600182018092116140b0577f098dc6c1012d2fb4cc0470ec0f1b82ad9eaf354865d76ebad869d83f1559344e60406060869385600f88015542601088015501518151908582526020820152a2600d820154111561409e575b5f80613f00565b60068101805461ff0019169055614097565b634e487b7160e01b85526011600452602485fd5b6140cd9061289e565b61087b57845f61402d565b50806140eb61410d926002880154612bc7565b60608601526140fe816003880154612bc7565b60808601526009860154612bc7565b610160840152613fb9565b634e487b7160e01b87526011600452602487fd5b60405162461bcd60e51b815260206004820152600f60248201526e545741503a20746f6f206561726c7960881b6044820152606490fd5b506141776010850154600e86015490612a1a565b421015613f16565b614198915060403d6040116103bc576103ac81836128c6565b505f612cf8565b9060ff5f805160206154f283398151915293949261ff00198116600684015516600381149081156142d9575b81156142ce575b81156142c3575b506142a6575b60ff6006820154166003811415908161429a575b8161428e575b5080614273575b614241575b81600a8201549182614218575b509050a2565b60010154614239928291829182916001600160a01b03165af1612447612a3b565b5f8181614212565b60018101546003820154600983015461426e926001600160a01b0316916142689190612a1a565b9061468b565b614205565b506142876003820154600983015490612a1a565b1515614200565b6007915014155f6141f9565b600681141591506141f3565b60088101548252600f60205260408220805460ff191690556141df565b60079150145f6141d9565b6006811491506141d2565b6005811491506141cb565b6003546001600160a01b031691823b156104bc57604051631df3cbc560e31b8152925f9284928391829161431b916004840161293f565b039134905af1801561201857614332575b80612c82565b61433d91925061289e565b5f905f61432c565b1561434c57565b60405162461bcd60e51b81526020600482015260086024820152672737ba1037b832b760c11b6044820152606490fd5b1561438357565b60405162461bcd60e51b815260206004820152600f60248201526e141c9bdd1bd8dbdb081c185d5cd959608a1b6044820152606490fd5b156143c157565b60405162461bcd60e51b815260206004820152600b60248201526a16995c9bc8185b5bdd5b9d60aa1b6044820152606490fd5b156143fb57565b60405162461bcd60e51b815260206004820152601660248201527550656e64696e6720726571756573742065786973747360501b6044820152606490fd5b1561444057565b60405162461bcd60e51b815260206004820152601e60248201527f52656d61696e64657220636f6c6c61746572616c20746f6f20736d616c6c00006044820152606490fd5b5f198114612a275760010190565b8054680100000000000000008110156128b2576144b591600182018155612866565b819291549060031b91821b915f19901b1916179055565b156144d357565b60405162461bcd60e51b815260206004820152600f60248201526e436f6f6c646f776e2061637469766560881b6044820152606490fd5b1561451157565b60405162461bcd60e51b815260206004820152600e60248201526d14da5e99481d1bdbc81cdb585b1b60921b6044820152606490fd5b906040516101c0810181811067ffffffffffffffff8211176128b2576040526101a0600c82948054845260ff600182015460018060a01b038116602087015260a01c16151560408501526002810154606085015260038101546080850152600481015460a0850152600581015460c0850152600681015460e0850152600781015461010085015260ff60088201541615156101208501526009810154610140850152600a810154610160850152600b8101546101808501520154910152565b919081101561287b5760051b0190565b81810392915f138015828513169184121617612a2757565b81810292915f8212600160ff1b821416612a27578184051490151715612a2757565b8115612bd157600160ff1b81145f19831416612a27570590565b60025f54146146795760025f55565b604051633ee5aeb560e01b8152600490fd5b6004805460405163a9059cbb60e01b81526001600160a01b0393841692810192909252602482019390935291602091839160449183915f91165af1908115612018575f91614713575b50156146dc57565b60405162461bcd60e51b815260206004820152600f60248201526e151c985b9cd9995c8819985a5b1959608a1b6044820152606490fd5b90506020813d602011614745575b8161472e602093836128c6565b810103126104bc5761473f90612c36565b5f6146d4565b3d9150614721565b600160ff1b8114612a27575f0390565b600154815160408084018051606086018051845163b391decf60e01b815260048101969096529115156024860152604485019190915294955f95919460209492936001600160a01b039390929186908290606490829088165afa908115614b24575f91614af7575b50815f821315614aa457506147dd6127109183612be5565b04865115155f14614a96576147f191612a1a565b9283925b88600554986148038a614485565b6005555f8a81526007895285812083518155838a0180516001830180548e5160ff60a01b19938a16939093166001600160a81b03199091161791151560a081901b60ff60a01b169290921790559094909291908b906148898951958660028601558c6080840197885191826003890155600488015560a085019e8f516005890155614f75565b600684015542600784015542600c84015560088301600160ff198254161790556101a081015160098401556101c0810151600a8401556024886001541691518b519586938492637cc6765f60e11b845260048401525af1918215614a8c575f92614a5c575b50600b015583600154168c5185855116918c51151590885193813b156104bc578a5163b65b361f60e01b815260048101949094526001600160a01b0316602484015290151560448301526064820192909252905f908290608490829084905af18015614a5257614a3f575b5061496a846002541682519061468b565b83600254169051813b15610d635782916024839289519485938492636e93ae2b60e01b845260048401525af18015614a35578b92918d91614a1b575b508694927f52ca44dea94749aadfaa4d3749a0323a33b3a6434adcfff52ad54c511f5579c79b999760a09b999795936149e66101606149f6950151615161565b85855116815260098b5220614493565b51169951955115159051925194825196875286015284015260608301526080820152a3565b829350614a28915061289e565b6105755789908b5f6149a6565b86513d84823e3d90fd5b614a4a91925061289e565b5f905f614959565b87513d5f823e3d90fd5b9091508a81813d8311614a85575b614a7481836128c6565b810103126104bc575190600b6148ee565b503d614a6a565b88513d5f823e3d90fd5b614a9f91612bf8565b6147f1565b905f8195939512614aba575b50509282936147f5565b612710919294506135d3614acd9161474d565b04865115155f14614ae957614ae191612bf8565b915f80614ab0565b614af291612a1a565b614ae1565b90508581813d8311614b1d575b614b0e81836128c6565b810103126104bc57515f6147c5565b503d614b04565b83513d5f823e3d90fd5b15614b3557565b60405162461bcd60e51b8152602060048201526015602482015274576f756c64206265206c6971756964617461626c6560581b6044820152606490fd5b9190915f8382019384129112908015821691151617612a2757565b91905f92805f5260209160078352604090815f206008810190614bb360ff835416614345565b60018101805460a01c60ff1615614e9457614be4600483015461030a614bd98288614616565b60028601549061462e565b600154600284018054885163e4d8cbe560e01b815260048101919091525f60248201526001600160a01b0395909390928616908b85604481855afa948515614e8a575f95614e5b575b505f8c614c3c61094787614547565b9360248d885490519485938492637cc6765f60e11b845260048401525af18015614e5157908d91614e28575b5050614c8c614c9292614c87614c8061098888614547565b9188614b72565b614b72565b90614616565b865460ff19169096556001548254855492549290918716803b156104bc578a5163019ca2b960e51b815260048101939093526001600160a01b0382891616602484015260a09190911c60ff16151560448301526064820192909252905f9082908183816084810103925af18015614a8c57614e15575b508a9084600254169060038686541691015490823b1561044157895163118f304360e01b81526001600160a01b039190911660048201526024810191909152604481018790529082908290606490829084905af18015614e0b57614df7575b505080614da4575b507f356fca566f3a054a459c7224d9c9d634f31a98835cfd4fb4c5ddbf8b96aca21195969798505416958351928352820152a3565b89908360025416803b15610d635760248392895194859384926335b8e71360e01b845260048401525af18015614ded5715614d6f57614de38a9161289e565b6104325788614d6f565b86513d8c823e3d90fd5b614e009061289e565b610c0657895f614d67565b88513d84823e3d90fd5b614e20919b5061289e565b5f995f614d08565b813d8311614e4a575b614e3b81836128c6565b810103126104bc578b5f614c68565b503d614e31565b8b513d5f823e3d90fd5b9094508b81813d8311614e83575b614e7381836128c6565b810103126104bc5751935f614c2d565b503d614e69565b8a513d5f823e3d90fd5b614ea9600483015461030a614bd98783614616565b614be4565b916064602092935f60018060a01b03938460045416908560405198899788966323b872dd60e01b885216600487015216602485015260448401525af1908115612018575f91614f3b575b5015614f0057565b60405162461bcd60e51b8152602060048201526013602482015272151c985b9cd9995c919c9bdb4819985a5b1959606a1b6044820152606490fd5b90506020813d602011614f6d575b81614f56602093836128c6565b810103126104bc57614f6790612c36565b5f614ef8565b3d9150614f49565b9192909261232890818102918183041490151715612a27576001546040516335123baf60e21b81526127109283900491602090829060049082906001600160a01b03165afa908115612018575f91615044575b50600a8101809111612a2757614fdf839187612be5565b04908082106150345750506064840284810460641485151715612a275704905b1561501d5761501a926150156124749284612be5565b612bc7565b90565b61501a9261501561502e9284612be5565b90612a1a565b61503e9250612bf8565b90614fff565b90506020813d60201161506e575b8161505f602093836128c6565b810103126104bc57515f614fc8565b3d9150615052565b6150a463d693a4009161509f60606150936101a084015142612bf8565b920151600b5490612be5565b612be5565b0490565b60018060a01b03600154169060208151602460405180958193634655f1eb60e01b835260048301525afa918215612018575f9261512b575b506150fa670de0b6b3a76400009261018083015190614616565b60408201511561511557606061511192015161462e565b0590565b61512690606061511193015161462e565b61474d565b91506020823d602011615159575b81615146602093836128c6565b810103126104bc579051906150fa6150e0565b3d9150615139565b60015460408051631db0457960e11b815260048101939093525f9392916001600160a01b039082908490602490829085165afa928315615297575f905f94615275575b508061521e575b50826151b9575b5050509050565b6020600491600154168351928380926361d027b360e01b82525afa91821561521557506151ed9394916151f6575b5061468b565b805f80806151b2565b61520f915060203d6020116105325761052481836128c6565b5f6151e7565b513d86823e3d90fd5b61522c81836002541661468b565b816002541690813b156104bc575f9160248392865194859384926302102c9760e11b845260048401525af18015614b2457156151ab5761526d91955061289e565b5f935f6151ab565b905061528f919350823d84116103bc576103ac81836128c6565b92905f6151a4565b82513d5f823e3d90fd5b6152ad61094782614547565b90600154915f9060018060a01b0380918454604096875191637cc6765f60e11b83526004830152816024815f6020988995165af18015614a52579084916154c8575b50506153079061530161098887614547565b90614b72565b5f81131561543a57600385018054808310156153f6578261532791612bf8565b9055816002541690813b156104bc575f91602483928951948593849263ff20b48d60e01b845260048401525af180156153ec576153d9575b505b42600c85015560015416918184546024875180968193634655f1eb60e01b835260048301525afa9485156153cf57509361539e575b5050600b0155565b9080929350813d83116153c8575b6153b681836128c6565b810103126104bc575190600b5f615396565b503d6153ac565b51903d90823e3d90fd5b6153e491935061289e565b5f915f61535f565b86513d5f823e3d90fd5b875162461bcd60e51b815260048101869052601f60248201527f506f736974696f6e206c6971756964617461626c652066726f6d2066656573006044820152606490fd5b825f821261544a575b5050615361565b6154545f9261474d565b602484600254169189519485938492634e43a80560e11b845260048401525af19081156153ec575f9161549b575b5061549260038601918254612a1a565b90555f82615443565b90508281813d83116154c1575b6154b281836128c6565b810103126104bc57515f615482565b503d6154a8565b813d83116154ea575b6154db81836128c6565b810103126104bc57825f6152ef565b503d6154d156fe61b9399f2f0f32ca39ce8d7be32caed5ec22fe07a6daba3a467ed479ec606582401524beccff0d9dd3447788dea32e11f3b7c9618ed6084f14a773dbf2025f16a2646970667358221220554d5a72030daf37b2638b66f3d20ec373b5c0a98a87dabebb58bfdd2d10714664736f6c63430008180033",
  "linkReferences": {},
  "deployedLinkReferences": {},
  "immutableReferences": {},
  "inputSourceName": "project/src/ConfidentialTradingV1.sol",
  "buildInfoId": "solc-0_8_24-81c8f96fe57aa6fde0fb4428b1f5a774ca65fdd2"
}