{
  "_format": "hh3-artifact-1",
  "contractName": "ConfidentialTrading",
  "sourceName": "src/ConfidentialTrading.sol",
  "abi": [
    {
      "inputs": [
        {
          "internalType": "address",
          "name": "_usdc",
          "type": "address"
        },
        {
          "internalType": "address",
          "name": "_core",
          "type": "address"
        },
        {
          "internalType": "address",
          "name": "_vault",
          "type": "address"
        },
        {
          "internalType": "address",
          "name": "_oracle",
          "type": "address"
        }
      ],
      "stateMutability": "nonpayable",
      "type": "constructor"
    },
    {
      "inputs": [],
      "name": "ReentrancyGuardReentrantCall",
      "type": "error"
    },
    {
      "anonymous": false,
      "inputs": [
        {
          "indexed": true,
          "internalType": "uint256",
          "name": "positionId",
          "type": "uint256"
        },
        {
          "indexed": true,
          "internalType": "address",
          "name": "trader",
          "type": "address"
        },
        {
          "indexed": false,
          "internalType": "uint256",
          "name": "amount",
          "type": "uint256"
        },
        {
          "indexed": false,
          "internalType": "uint256",
          "name": "newLiquidationPrice",
          "type": "uint256"
        }
      ],
      "name": "CollateralAdded",
      "type": "event"
    },
    {
      "anonymous": false,
      "inputs": [
        {
          "indexed": true,
          "internalType": "uint256",
          "name": "positionId",
          "type": "uint256"
        },
        {
          "indexed": true,
          "internalType": "address",
          "name": "trader",
          "type": "address"
        },
        {
          "indexed": false,
          "internalType": "uint256",
          "name": "amount",
          "type": "uint256"
        },
        {
          "indexed": false,
          "internalType": "uint256",
          "name": "newLiquidationPrice",
          "type": "uint256"
        }
      ],
      "name": "CollateralRemoved",
      "type": "event"
    },
    {
      "anonymous": false,
      "inputs": [
        {
          "indexed": true,
          "internalType": "uint256",
          "name": "orderId",
          "type": "uint256"
        }
      ],
      "name": "OrderCancelled",
      "type": "event"
    },
    {
      "anonymous": false,
      "inputs": [
        {
          "indexed": true,
          "internalType": "uint256",
          "name": "orderId",
          "type": "uint256"
        },
        {
          "indexed": true,
          "internalType": "uint256",
          "name": "positionId",
          "type": "uint256"
        }
      ],
      "name": "OrderExecuted",
      "type": "event"
    },
    {
      "anonymous": false,
      "inputs": [
        {
          "indexed": true,
          "internalType": "uint256",
          "name": "orderId",
          "type": "uint256"
        },
        {
          "indexed": true,
          "internalType": "address",
          "name": "trader",
          "type": "address"
        },
        {
          "indexed": false,
          "internalType": "bytes32",
          "name": "pairId",
          "type": "bytes32"
        },
        {
          "indexed": false,
          "internalType": "uint8",
          "name": "orderType",
          "type": "uint8"
        },
        {
          "indexed": false,
          "internalType": "uint256",
          "name": "triggerPrice",
          "type": "uint256"
        }
      ],
      "name": "OrderPlaced",
      "type": "event"
    },
    {
      "anonymous": false,
      "inputs": [
        {
          "indexed": true,
          "internalType": "uint256",
          "name": "positionId",
          "type": "uint256"
        },
        {
          "indexed": true,
          "internalType": "address",
          "name": "trader",
          "type": "address"
        },
        {
          "indexed": false,
          "internalType": "uint256",
          "name": "exitPrice",
          "type": "uint256"
        },
        {
          "indexed": false,
          "internalType": "int256",
          "name": "pnl",
          "type": "int256"
        }
      ],
      "name": "PositionClosed",
      "type": "event"
    },
    {
      "anonymous": false,
      "inputs": [
        {
          "indexed": true,
          "internalType": "uint256",
          "name": "positionId",
          "type": "uint256"
        },
        {
          "indexed": true,
          "internalType": "address",
          "name": "trader",
          "type": "address"
        },
        {
          "indexed": false,
          "internalType": "uint256",
          "name": "additionalSizeUsd",
          "type": "uint256"
        },
        {
          "indexed": false,
          "internalType": "uint256",
          "name": "newEntryPrice",
          "type": "uint256"
        },
        {
          "indexed": false,
          "internalType": "uint256",
          "name": "newLiquidationPrice",
          "type": "uint256"
        }
      ],
      "name": "PositionIncreased",
      "type": "event"
    },
    {
      "anonymous": false,
      "inputs": [
        {
          "indexed": true,
          "internalType": "uint256",
          "name": "positionId",
          "type": "uint256"
        },
        {
          "indexed": true,
          "internalType": "address",
          "name": "trader",
          "type": "address"
        },
        {
          "indexed": false,
          "internalType": "uint256",
          "name": "executionPrice",
          "type": "uint256"
        },
        {
          "indexed": true,
          "internalType": "address",
          "name": "liquidator",
          "type": "address"
        },
        {
          "indexed": false,
          "internalType": "uint256",
          "name": "reward",
          "type": "uint256"
        }
      ],
      "name": "PositionLiquidated",
      "type": "event"
    },
    {
      "anonymous": false,
      "inputs": [
        {
          "indexed": true,
          "internalType": "uint256",
          "name": "positionId",
          "type": "uint256"
        },
        {
          "indexed": true,
          "internalType": "address",
          "name": "trader",
          "type": "address"
        },
        {
          "indexed": false,
          "internalType": "bytes32",
          "name": "pairId",
          "type": "bytes32"
        },
        {
          "indexed": false,
          "internalType": "bool",
          "name": "isLong",
          "type": "bool"
        },
        {
          "indexed": false,
          "internalType": "uint256",
          "name": "sizeUsd",
          "type": "uint256"
        },
        {
          "indexed": false,
          "internalType": "uint256",
          "name": "entryPrice",
          "type": "uint256"
        },
        {
          "indexed": false,
          "internalType": "uint256",
          "name": "leverage",
          "type": "uint256"
        }
      ],
      "name": "PositionOpened",
      "type": "event"
    },
    {
      "anonymous": false,
      "inputs": [
        {
          "indexed": true,
          "internalType": "uint256",
          "name": "positionId",
          "type": "uint256"
        },
        {
          "indexed": true,
          "internalType": "address",
          "name": "trader",
          "type": "address"
        },
        {
          "indexed": false,
          "internalType": "uint256",
          "name": "closeSizeUsd",
          "type": "uint256"
        },
        {
          "indexed": false,
          "internalType": "uint256",
          "name": "exitPrice",
          "type": "uint256"
        },
        {
          "indexed": false,
          "internalType": "int256",
          "name": "pnl",
          "type": "int256"
        }
      ],
      "name": "PositionPartialClose",
      "type": "event"
    },
    {
      "anonymous": false,
      "inputs": [
        {
          "indexed": true,
          "internalType": "uint256",
          "name": "positionId",
          "type": "uint256"
        },
        {
          "indexed": false,
          "internalType": "bool",
          "name": "isTakeProfit",
          "type": "bool"
        },
        {
          "indexed": false,
          "internalType": "uint256",
          "name": "executionPrice",
          "type": "uint256"
        }
      ],
      "name": "TPSLTriggered",
      "type": "event"
    },
    {
      "anonymous": false,
      "inputs": [
        {
          "indexed": true,
          "internalType": "uint256",
          "name": "orderId",
          "type": "uint256"
        },
        {
          "indexed": false,
          "internalType": "uint256",
          "name": "sliceNumber",
          "type": "uint256"
        },
        {
          "indexed": false,
          "internalType": "uint256",
          "name": "sizeUsd",
          "type": "uint256"
        }
      ],
      "name": "TWAPSliceExecuted",
      "type": "event"
    },
    {
      "inputs": [],
      "name": "MIN_COLLATERAL",
      "outputs": [
        {
          "internalType": "uint256",
          "name": "",
          "type": "uint256"
        }
      ],
      "stateMutability": "view",
      "type": "function"
    },
    {
      "inputs": [],
      "name": "MIN_POSITION_SIZE",
      "outputs": [
        {
          "internalType": "uint256",
          "name": "",
          "type": "uint256"
        }
      ],
      "stateMutability": "view",
      "type": "function"
    },
    {
      "inputs": [
        {
          "internalType": "uint256",
          "name": "positionId",
          "type": "uint256"
        },
        {
          "internalType": "uint256",
          "name": "amount",
          "type": "uint256"
        }
      ],
      "name": "addCollateral",
      "outputs": [],
      "stateMutability": "nonpayable",
      "type": "function"
    },
    {
      "inputs": [
        {
          "internalType": "uint256",
          "name": "orderId",
          "type": "uint256"
        }
      ],
      "name": "cancelOrder",
      "outputs": [],
      "stateMutability": "nonpayable",
      "type": "function"
    },
    {
      "inputs": [
        {
          "internalType": "uint256",
          "name": "positionId",
          "type": "uint256"
        },
        {
          "internalType": "bytes[]",
          "name": "updateData",
          "type": "bytes[]"
        }
      ],
      "name": "closePositionInstantly",
      "outputs": [],
      "stateMutability": "payable",
      "type": "function"
    },
    {
      "inputs": [
        {
          "internalType": "uint256",
          "name": "positionId",
          "type": "uint256"
        },
        {
          "internalType": "uint256",
          "name": "closePercent",
          "type": "uint256"
        },
        {
          "internalType": "bytes[]",
          "name": "updateData",
          "type": "bytes[]"
        }
      ],
      "name": "closePositionPartial",
      "outputs": [],
      "stateMutability": "payable",
      "type": "function"
    },
    {
      "inputs": [],
      "name": "core",
      "outputs": [
        {
          "internalType": "contract ConfidentialCore",
          "name": "",
          "type": "address"
        }
      ],
      "stateMutability": "view",
      "type": "function"
    },
    {
      "inputs": [
        {
          "internalType": "uint256",
          "name": "positionId",
          "type": "uint256"
        }
      ],
      "name": "createCloseRequest",
      "outputs": [
        {
          "internalType": "uint256",
          "name": "orderId",
          "type": "uint256"
        }
      ],
      "stateMutability": "payable",
      "type": "function"
    },
    {
      "inputs": [
        {
          "internalType": "bytes32",
          "name": "pairId",
          "type": "bytes32"
        },
        {
          "internalType": "bool",
          "name": "isLong",
          "type": "bool"
        },
        {
          "internalType": "uint256",
          "name": "totalSizeUsd",
          "type": "uint256"
        },
        {
          "internalType": "uint256",
          "name": "leverage",
          "type": "uint256"
        },
        {
          "internalType": "uint256",
          "name": "slices",
          "type": "uint256"
        },
        {
          "internalType": "uint256",
          "name": "intervalSec",
          "type": "uint256"
        },
        {
          "internalType": "uint256",
          "name": "tpPrice",
          "type": "uint256"
        },
        {
          "internalType": "uint256",
          "name": "slPrice",
          "type": "uint256"
        }
      ],
      "name": "createTwapOrder",
      "outputs": [
        {
          "internalType": "uint256",
          "name": "orderId",
          "type": "uint256"
        }
      ],
      "stateMutability": "payable",
      "type": "function"
    },
    {
      "inputs": [
        {
          "internalType": "uint256[]",
          "name": "positionIds",
          "type": "uint256[]"
        },
        {
          "internalType": "bytes[]",
          "name": "updateData",
          "type": "bytes[]"
        }
      ],
      "name": "executeADL",
      "outputs": [],
      "stateMutability": "payable",
      "type": "function"
    },
    {
      "inputs": [
        {
          "internalType": "uint256[]",
          "name": "longOrderIds",
          "type": "uint256[]"
        },
        {
          "internalType": "uint256[]",
          "name": "shortOrderIds",
          "type": "uint256[]"
        },
        {
          "internalType": "bytes[]",
          "name": "updateData",
          "type": "bytes[]"
        }
      ],
      "name": "executeHybridBatch",
      "outputs": [],
      "stateMutability": "payable",
      "type": "function"
    },
    {
      "inputs": [
        {
          "internalType": "uint256",
          "name": "orderId",
          "type": "uint256"
        },
        {
          "internalType": "bytes[]",
          "name": "updateData",
          "type": "bytes[]"
        }
      ],
      "name": "executeOrder",
      "outputs": [],
      "stateMutability": "payable",
      "type": "function"
    },
    {
      "inputs": [
        {
          "internalType": "uint256",
          "name": "positionId",
          "type": "uint256"
        },
        {
          "internalType": "bytes[]",
          "name": "updateData",
          "type": "bytes[]"
        }
      ],
      "name": "executeTPSL",
      "outputs": [],
      "stateMutability": "payable",
      "type": "function"
    },
    {
      "inputs": [
        {
          "internalType": "uint256",
          "name": "",
          "type": "uint256"
        }
      ],
      "name": "hasActiveCloseRequest",
      "outputs": [
        {
          "internalType": "bool",
          "name": "",
          "type": "bool"
        }
      ],
      "stateMutability": "view",
      "type": "function"
    },
    {
      "inputs": [
        {
          "internalType": "uint256",
          "name": "positionId",
          "type": "uint256"
        },
        {
          "internalType": "uint256",
          "name": "additionalSizeUsd",
          "type": "uint256"
        },
        {
          "internalType": "uint256",
          "name": "additionalLeverage",
          "type": "uint256"
        },
        {
          "internalType": "uint256",
          "name": "acceptablePrice",
          "type": "uint256"
        },
        {
          "internalType": "bytes[]",
          "name": "updateData",
          "type": "bytes[]"
        }
      ],
      "name": "increasePosition",
      "outputs": [],
      "stateMutability": "payable",
      "type": "function"
    },
    {
      "inputs": [
        {
          "internalType": "uint256",
          "name": "positionId",
          "type": "uint256"
        },
        {
          "internalType": "bytes[]",
          "name": "updateData",
          "type": "bytes[]"
        }
      ],
      "name": "liquidate",
      "outputs": [],
      "stateMutability": "payable",
      "type": "function"
    },
    {
      "inputs": [],
      "name": "liquidationRewardBps",
      "outputs": [
        {
          "internalType": "uint256",
          "name": "",
          "type": "uint256"
        }
      ],
      "stateMutability": "view",
      "type": "function"
    },
    {
      "inputs": [],
      "name": "maxOrderAge",
      "outputs": [
        {
          "internalType": "uint256",
          "name": "",
          "type": "uint256"
        }
      ],
      "stateMutability": "view",
      "type": "function"
    },
    {
      "inputs": [],
      "name": "nextOrderId",
      "outputs": [
        {
          "internalType": "uint256",
          "name": "",
          "type": "uint256"
        }
      ],
      "stateMutability": "view",
      "type": "function"
    },
    {
      "inputs": [],
      "name": "nextPositionId",
      "outputs": [
        {
          "internalType": "uint256",
          "name": "",
          "type": "uint256"
        }
      ],
      "stateMutability": "view",
      "type": "function"
    },
    {
      "inputs": [],
      "name": "oracle",
      "outputs": [
        {
          "internalType": "contract PythPriceOracle",
          "name": "",
          "type": "address"
        }
      ],
      "stateMutability": "view",
      "type": "function"
    },
    {
      "inputs": [
        {
          "internalType": "uint256",
          "name": "",
          "type": "uint256"
        }
      ],
      "name": "pendingOrders",
      "outputs": [
        {
          "internalType": "bytes32",
          "name": "pairId",
          "type": "bytes32"
        },
        {
          "internalType": "address",
          "name": "trader",
          "type": "address"
        },
        {
          "internalType": "bool",
          "name": "isLong",
          "type": "bool"
        },
        {
          "internalType": "uint256",
          "name": "sizeUsd",
          "type": "uint256"
        },
        {
          "internalType": "uint256",
          "name": "collateral",
          "type": "uint256"
        },
        {
          "internalType": "uint256",
          "name": "leverage",
          "type": "uint256"
        },
        {
          "internalType": "uint256",
          "name": "triggerPrice",
          "type": "uint256"
        },
        {
          "internalType": "uint8",
          "name": "orderType",
          "type": "uint8"
        },
        {
          "internalType": "bool",
          "name": "isActive",
          "type": "bool"
        },
        {
          "internalType": "uint256",
          "name": "createdAt",
          "type": "uint256"
        },
        {
          "internalType": "uint256",
          "name": "positionId",
          "type": "uint256"
        },
        {
          "internalType": "uint256",
          "name": "feePaid",
          "type": "uint256"
        },
        {
          "internalType": "uint256",
          "name": "executionFee",
          "type": "uint256"
        },
        {
          "internalType": "uint256",
          "name": "tpPrice",
          "type": "uint256"
        },
        {
          "internalType": "uint256",
          "name": "slPrice",
          "type": "uint256"
        },
        {
          "internalType": "uint256",
          "name": "twapSlices",
          "type": "uint256"
        },
        {
          "internalType": "uint256",
          "name": "twapInterval",
          "type": "uint256"
        },
        {
          "internalType": "uint256",
          "name": "twapExecuted",
          "type": "uint256"
        },
        {
          "internalType": "uint256",
          "name": "twapLastExec",
          "type": "uint256"
        }
      ],
      "stateMutability": "view",
      "type": "function"
    },
    {
      "inputs": [
        {
          "internalType": "bytes32",
          "name": "pairId",
          "type": "bytes32"
        },
        {
          "internalType": "bool",
          "name": "isLong",
          "type": "bool"
        },
        {
          "internalType": "uint256",
          "name": "sizeUsd",
          "type": "uint256"
        },
        {
          "internalType": "uint256",
          "name": "leverage",
          "type": "uint256"
        },
        {
          "internalType": "uint256",
          "name": "tpPrice",
          "type": "uint256"
        },
        {
          "internalType": "uint256",
          "name": "slPrice",
          "type": "uint256"
        },
        {
          "internalType": "uint256",
          "name": "acceptablePrice",
          "type": "uint256"
        },
        {
          "internalType": "bytes[]",
          "name": "updateData",
          "type": "bytes[]"
        }
      ],
      "name": "placeMarketOrder",
      "outputs": [
        {
          "internalType": "uint256",
          "name": "posId",
          "type": "uint256"
        }
      ],
      "stateMutability": "payable",
      "type": "function"
    },
    {
      "inputs": [
        {
          "internalType": "bytes32",
          "name": "pairId",
          "type": "bytes32"
        },
        {
          "internalType": "bool",
          "name": "isLong",
          "type": "bool"
        },
        {
          "internalType": "uint256",
          "name": "sizeUsd",
          "type": "uint256"
        },
        {
          "internalType": "uint256",
          "name": "leverage",
          "type": "uint256"
        },
        {
          "internalType": "uint256",
          "name": "triggerPrice",
          "type": "uint256"
        },
        {
          "internalType": "uint8",
          "name": "orderType",
          "type": "uint8"
        },
        {
          "internalType": "uint256",
          "name": "tpPrice",
          "type": "uint256"
        },
        {
          "internalType": "uint256",
          "name": "slPrice",
          "type": "uint256"
        }
      ],
      "name": "placeOrder",
      "outputs": [
        {
          "internalType": "uint256",
          "name": "orderId",
          "type": "uint256"
        }
      ],
      "stateMutability": "payable",
      "type": "function"
    },
    {
      "inputs": [
        {
          "internalType": "uint256",
          "name": "",
          "type": "uint256"
        }
      ],
      "name": "positions",
      "outputs": [
        {
          "internalType": "bytes32",
          "name": "pairId",
          "type": "bytes32"
        },
        {
          "internalType": "address",
          "name": "trader",
          "type": "address"
        },
        {
          "internalType": "bool",
          "name": "isLong",
          "type": "bool"
        },
        {
          "internalType": "uint256",
          "name": "sizeUsd",
          "type": "uint256"
        },
        {
          "internalType": "uint256",
          "name": "collateral",
          "type": "uint256"
        },
        {
          "internalType": "uint256",
          "name": "entryPrice",
          "type": "uint256"
        },
        {
          "internalType": "uint256",
          "name": "leverage",
          "type": "uint256"
        },
        {
          "internalType": "uint256",
          "name": "liquidationPrice",
          "type": "uint256"
        },
        {
          "internalType": "uint256",
          "name": "openedAt",
          "type": "uint256"
        },
        {
          "internalType": "bool",
          "name": "isOpen",
          "type": "bool"
        },
        {
          "internalType": "uint256",
          "name": "tpPrice",
          "type": "uint256"
        },
        {
          "internalType": "uint256",
          "name": "slPrice",
          "type": "uint256"
        },
        {
          "internalType": "int256",
          "name": "entryFundingIndex",
          "type": "int256"
        },
        {
          "internalType": "uint256",
          "name": "lastRolloverSettled",
          "type": "uint256"
        }
      ],
      "stateMutability": "view",
      "type": "function"
    },
    {
      "inputs": [
        {
          "internalType": "uint256",
          "name": "positionId",
          "type": "uint256"
        },
        {
          "internalType": "uint256",
          "name": "amount",
          "type": "uint256"
        },
        {
          "internalType": "bytes[]",
          "name": "updateData",
          "type": "bytes[]"
        }
      ],
      "name": "removeCollateral",
      "outputs": [],
      "stateMutability": "payable",
      "type": "function"
    },
    {
      "inputs": [],
      "name": "rolloverFeePerHour",
      "outputs": [
        {
          "internalType": "uint256",
          "name": "",
          "type": "uint256"
        }
      ],
      "stateMutability": "view",
      "type": "function"
    },
    {
      "inputs": [
        {
          "internalType": "uint256",
          "name": "_bps",
          "type": "uint256"
        }
      ],
      "name": "setLiquidationRewardBps",
      "outputs": [],
      "stateMutability": "nonpayable",
      "type": "function"
    },
    {
      "inputs": [
        {
          "internalType": "uint256",
          "name": "_seconds",
          "type": "uint256"
        }
      ],
      "name": "setMaxOrderAge",
      "outputs": [],
      "stateMutability": "nonpayable",
      "type": "function"
    },
    {
      "inputs": [
        {
          "internalType": "uint256",
          "name": "_fee",
          "type": "uint256"
        }
      ],
      "name": "setRolloverFeePerHour",
      "outputs": [],
      "stateMutability": "nonpayable",
      "type": "function"
    },
    {
      "inputs": [
        {
          "internalType": "uint256",
          "name": "positionId",
          "type": "uint256"
        },
        {
          "internalType": "uint256",
          "name": "newTpPrice",
          "type": "uint256"
        },
        {
          "internalType": "uint256",
          "name": "newSlPrice",
          "type": "uint256"
        }
      ],
      "name": "updateTpSl",
      "outputs": [],
      "stateMutability": "nonpayable",
      "type": "function"
    },
    {
      "inputs": [],
      "name": "usdc",
      "outputs": [
        {
          "internalType": "contract IERC20",
          "name": "",
          "type": "address"
        }
      ],
      "stateMutability": "view",
      "type": "function"
    },
    {
      "inputs": [
        {
          "internalType": "address",
          "name": "",
          "type": "address"
        },
        {
          "internalType": "uint256",
          "name": "",
          "type": "uint256"
        }
      ],
      "name": "userOrders",
      "outputs": [
        {
          "internalType": "uint256",
          "name": "",
          "type": "uint256"
        }
      ],
      "stateMutability": "view",
      "type": "function"
    },
    {
      "inputs": [
        {
          "internalType": "address",
          "name": "",
          "type": "address"
        },
        {
          "internalType": "uint256",
          "name": "",
          "type": "uint256"
        }
      ],
      "name": "userPositions",
      "outputs": [
        {
          "internalType": "uint256",
          "name": "",
          "type": "uint256"
        }
      ],
      "stateMutability": "view",
      "type": "function"
    },
    {
      "inputs": [],
      "name": "vault",
      "outputs": [
        {
          "internalType": "contract ConfidentialVault",
          "name": "",
          "type": "address"
        }
      ],
      "stateMutability": "view",
      "type": "function"
    },
    {
      "stateMutability": "payable",
      "type": "receive"
    }
  ],
  "bytecode": "0x608034620000e457601f62005ba038819003918201601f19168301916001600160401b03831184841017620000e857808492608094604052833981010312620000e4576200004d81620000fc565b906200005c60208201620000fc565b6200007860606200007060408501620000fc565b9301620000fc565b9060015f55600160055560016006555f600b556064600c5562093a80600d5560018060a01b03928380928160018060a01b03199716876004541617600455168560015416176001551683600254161760025516906003541617600355604051615a8e9081620001128239f35b5f80fd5b634e487b7160e01b5f52604160045260245ffd5b51906001600160a01b0382168203620000e45756fe60e080604052600436101561001c575b50361561001a575f80fd5b005b5f905f3560e01c9081632a58b33014613205575080632c0e1e9e14612be25780632c338fed14612bb35780632e80f9a414612b2157806331e01f4a146127d057806333e7dddb146127b5578063368dbba8146105835780633e413bee1461278c57806341aa303b1461272657806341daf4931461216d578063514fcac714611f9f5780635e1b4d9914611f615780636fb197f714611c595780637dc0d1d014611c3057806380b74258146119c5578063856652e91461197957806387f19423146115a1578063899346c7146115835780638fb735ee1461156557806399fbab88146114975780639bfe7e3e1461129e578063a8f35adf14611167578063ba7ebf5f146110ba578063c009687c14610ff5578063c09403ac14610cd6578063c29433a614610cb8578063c3aaea4e14610b75578063ee6d519814610b57578063effaed8914610b39578063f2f4eb2614610b10578063f5ba8a2a14610972578063f661417014610588578063fa77964814610583578063fbfa77cf1461055a5763fd5c77cd0361000f576040366003190112610557576001600160401b03600435818111610553576101d190369060040161321f565b60249260243590811161054f576101ec90369060040161321f565b9190926101f7614906565b60018060a01b0392600195846001541691604051809363aced166160e01b825281600460209687935afa80156105445787918b91610517575b501633036104dc57600296600484886002541660405192838092637510e6c960e11b82525afa80156104d1578b9061049e575b61251c9150111561044e57908991816103e0575b50505b84811061028957886001815580f35b610294818686613f97565b35895260078352604089208960ff918a83600883015416156103d6575088600354169260408254878251809781936331d98b3f60e01b835260048301525afa9384156103cb578394610399575b50818c015460a01c161561037c57806103106004610315930154918c61030784886140f3565b9101549061410b565b61412d565b13156103385790610332899261032c838989613f97565b35615617565b0161027a565b60405162461bcd60e51b815260048101859052601c818501527f43616e6e6f742041444c2061206c6f73696e6720706f736974696f6e000000006044820152606490fd5b806103106004610394930154918c61030787856140f3565b610315565b6103bc91945060403d6040116103c4575b6103b4818361340a565b8101906134cc565b50925f6102e1565b503d6103aa565b6040513d85823e3d90fd5b9392505050610332565b876003541691823b1561044a57604051631df3cbc560e31b8152928492849283918291610410916004840161342b565b039134905af1801561043f57610427575b80610277565b610430906133db565b61043b57875f610421565b8780fd5b6040513d84823e3d90fd5b8380fd5b60405162461bcd60e51b815260048101859052602260248201527f41444c206f6e6c7920696e20656d657267656e637920287574696c203e203935604482015261252960f01b6064820152608490fd5b508481813d83116104ca575b6104b4818361340a565b810103126104c65761251c9051610263565b5f80fd5b503d6104aa565b6040513d8d823e3d90fd5b60405162461bcd60e51b815260048101849052601360248201527213db9b1e4812d9595c195c8818d85b88105113606a1b6044820152606490fd5b6105379150853d871161053d575b61052f818361340a565b8101906135ae565b5f610230565b503d610525565b6040513d8c823e3d90fd5b8480fd5b8280fd5b80fd5b50346105575780600319360112610557576002546040516001600160a01b039091168152602090f35b613291565b50806105933661325e565b9061059f939293614906565b81610910575b5050908060249252602090600782526040842060088101906105ca60ff83541661336c565b6003548154604080516331d98b3f60e01b815260048101839052976001600160a01b03949293899190829087165afa9687156109055788976108e3575b50600181019160ff835460a01c165f146108d65760068201548811155b1561089e57908891828861063f61063a85614848565b615952565b9260248860015416916040519485938492637cc6765f60e11b845260048401525af190811561084857899161086f575b505061068261067d83614848565b615984565b8184821361085e575b50506003820154908181111561085357506106a681806135a1565b916127106106b6600c548561358e565b049660ff1981541690558560015416908054906002875491015492803b156107d85760405163019ca2b960e51b815260048101939093526001600160a01b03828a1616602484015260a09190911c60ff1615156044830152606482019290925290849082908183816084810103925af1908115610848578491610834575b5050806107dc575b508360025416908484541690823b1561044a57608484928360405195869485936309c0533b60e01b8552600485015233602485015260448401528a60648401525af1801561043f576107c4575b50505416926040519485528401527f3b7bc7c0fdc798ac653b9f0d6d28adb2293a55402d32c21d323da740ccc6553960403394a46001815580f35b6107cd906133db565b6107d857865f610789565b8680fd5b846002541690813b1561044a57839160248392604051948593849263ff20b48d60e01b845260048401525af19081156103cb57839161081c575b5061073c565b610825906133db565b61083057815f610816565b5080fd5b61083d906133db565b61055357825f610734565b6040513d86823e3d90fd5b6106a69080926135a1565b6108689250613571565b5f8061068b565b90809294503d8311610897575b610886818361340a565b810103126104c6578891875f61066f565b503d61087c565b60405162461bcd60e51b815260048101889052601060248201526f4e6f74206c6971756964617461626c6560801b6044820152606490fd5b6006820154881015610624565b6108fd91975060403d6040116103c4576103b4818361340a565b50955f610607565b6040513d8a823e3d90fd5b6003546001600160a01b031691823b1561044a57604051631df3cbc560e31b8152928492849283918291610947916004840161342b565b039134905af1801561043f5761095e575b806105a5565b610967906133db565b61083057815f610958565b5061097c3661325e565b9190610986614906565b81845260076020528360408120936109a460ff60088701541661336c565b60018501546001600160a01b0393906109c090851633146133a3565b600460078701546020866001541660405193848092636d78097360e11b82525afa918215610b05578592610acc575b50610a05916109fd91613571565b42101561402a565b81610a71575b50505060409060035416925460248251809581936331d98b3f60e01b835260048301525afa9081156103cb57610a48928492610a4f575b50615617565b6001815580f35b610a6991925060403d6040116103c4576103b4818361340a565b50905f610a42565b836003541691823b1561044a57604051631df3cbc560e31b8152928492849283918291610aa1916004840161342b565b039134905af1801561043f57610ab8575b80610a0b565b610ac1906133db565b61044a57835f610ab2565b945090506020843d602011610afd575b81610ae96020938361340a565b810103126104c657925187936109fd6109ef565b3d9150610adc565b6040513d87823e3d90fd5b50346105575780600319360112610557576001546040516001600160a01b039091168152602090f35b50346105575780600319360112610557576020600c54604051908152f35b50610a48610b64366132fd565b92610b70929192614906565b614162565b503461055757602036600319011261055757600435815260086020526040902080808054600182015460c05260028201546003830154600484015460058501546006860154600787015490600888015492600989015494600a8a015496600b8b015498600c8c01549a600d8d01549c600e01549d600f01549e6010015460805260405160a05260a05152600160a01b6001900360c0511660a0516020015260c05160a01c60ff16151560a0516040015260a0516060015260a0516080015260a05160a0015260a05160c0015260ff811660a05160e0015260081c60ff16151560a051610100015260a051610120015260a051610140015260a051610160015260a051610180015260a0516101a0015260a0516101c0015260a0516101e0015260a051610200015260a051610220015260805160a051610240015260a05161026090f35b50346105575780600319360112610557576020600d54604051908152f35b5061010036600319011261055757610cec61324f565b9060a4359060ff8216820361055757610d03614906565b610d14620f4240604435101561332f565b600160ff831611610fb05760c435610f6b575b60e435610f26575b6001546001600160a01b031692833b156108305760405163bd79156f60e01b8152828180610d6a606435604435873360048035908701613522565b0381885afa80156103cb57610f12575b506020604493946040519485809263e4d8cbe560e01b82528235600483015260ff89161560248301525afa92831561043f578293610edb575b5090602093600192610dc9606435604435613553565b94610dde610dd78288613571565b3033614927565b60065495610deb87613fe3565b60065586855260088852604085206004358155868101805460ff60a01b1933166001600160a81b03199091161794151560a01b60ff60a01b169490941790935560443560028401556003830155606435600483015560843560058301556006820161010060ff851661ffff1983541617179055426007830155600982015534600a82015560c435600b820155600c60e435910155338252600a8552610e938460408420613ff1565b60ff60405191600435835216858201526084356040820152837f401524beccff0d9dd3447788dea32e11f3b7c9618ed6084f14a773dbf2025f1660603393a355604051908152f35b919092506020823d602011610f0a575b81610ef86020938361340a565b810103126104c6579051916020610db3565b3d9150610eeb565b610f1c83916133db565b610830575f610d7a565b8215610f555760843560e435108015610f48575b610f439061360c565b610d2f565b5060ff8216600214610f3a565b60843560e435118015610f4857610f439061360c565b8215610f9a5760843560c435118015610f8d575b610f88906135cd565b610d27565b5060ff8216600214610f7f565b60843560c435108015610f8d57610f88906135cd565b60405162461bcd60e51b815260206004820152601f60248201527f55736520706c6163654d61726b65744f7264657220666f72206d61726b6574006044820152606490fd5b503461055757602036600319011261055757600154604051638da5cb5b60e01b815260048035926001600160a01b0391602091849190829085165afa80156108485761104b92859161109b575b501633146133a3565b8061105657600b5580f35b60405162461bcd60e51b815260206004820152601860248201527f5a65726f20626f72726f772066656520656e666f7263656400000000000000006044820152606490fd5b6110b4915060203d60201161053d5761052f818361340a565b5f611042565b503461055757602036600319011261055757600154604051638da5cb5b60e01b815260048035926001600160a01b0391602091849190829085165afa80156108485761110f92859161109b57501633146133a3565b610e108110158061115a575b1561112657600d5580f35b60405162461bcd60e51b815260206004820152600c60248201526b31682d3330642072616e676560a01b6044820152606490fd5b5062278d0081111561111b565b503461055757604036600319011261055757602435600435611187614906565b611192821515614068565b8083526007602052604083206111ae60ff60088301541661336c565b60018101908460018060a01b036111c98185541633146133a3565b6111d886826002541633614927565b60025416803b1561083057818091602460405180948193636e93ae2b60e01b83528b60048401525af1801561043f5761128a575b505061124d60069260038301611223878254613571565b80915560028401546112358282613553565b600586015560ff6004860154935460a01c1692614bc3565b918291015560405192835260208301527f935a476d8eb416e1441bbdc27477a7d90012bed1a74dba06f77fc32b8b119bd860403393a36001815580f35b611293906133db565b61054f57845f61120c565b506020908160031936011261055757600435906112b9614906565b818152600783526040812060ff6008820154161561145e5760018101546001600160a01b03906112ec90821633146133a3565b838352600e855260ff604084205416611422576007820154600154604051636d78097360e11b8152949392879186916004918391165afa9384156103cb5783946113f1575b506109fd60019461134192613571565b838252600e855260408220805460ff1916841790556006549361136385613fe3565b600655848352600886526040832090848201336bffffffffffffffffffffffff60a01b8254161790556006820161010361ffff198254161790554260078301556008820155600a3491015554604051908152600385820152816040820152837f401524beccff0d9dd3447788dea32e11f3b7c9618ed6084f14a773dbf2025f1660603393a355604051908152f35b93508584813d831161141b575b611408818361340a565b810103126104c6579251926109fd611331565b503d6113fe565b60405162461bcd60e51b8152600481018690526014602482015273436c6f736520726571756573742065786973747360601b6044820152606490fd5b60405162461bcd60e51b81526004810185905260116024820152702837b9b4ba34b7b7103737ba1037b832b760791b6044820152606490fd5b50346105575760203660031901126105575760406101c09160043581526007602052208054906001810154906002810154600382015460048301546005840154600685015460078601549160ff60088801541693600988015495600a8901549760ff600c600b8c01549b01549b6040519d8e528d602060018060a01b03831691015260a01c16151560408d015260608c015260808b015260a08a015260c089015260e088015261010087015215156101208601526101408501526101608401526101808301526101a0820152f35b50346105575780600319360112610557576020600b54604051908152f35b50346105575780600319360112610557576020600554604051908152f35b506115ab366132fd565b906115b7939293614906565b6115c2841515614068565b8285526020906007825260408620926115e160ff60088601541661336c565b86600185019160018060a01b03936115fd8585541633146133a3565b8161191e575b50505061160f846149ee565b5060038401936116208786546135a1565b90620f424082106118e25760028101549161163b8184613553565b90856001541694602460e08554976040519283809263351bd11560e11b82528b60048301525afa80156118d7578d9061182e575b60409150015183116117f2579061169c8493928260ff8f9a99989760040154925460a01c16968792614bc3565b98604087600354169660248251809981936331d98b3f60e01b835260048301525afa8015610905578a60069681988b936117d0575b50156117c1576116e191116140af565b55600582015501558060025416803b15610553578280916024604051809481936306e980c560e51b83528c60048401525af19081156103cb5783916117ad575b505060025416803b15610830576040516374e863ad60e01b8152336004820152602481018790529082908290604490829084905af1801561043f57611799575b50506040519384528301527fdf372a02d8e5139b85d7448d53241f194a27db9f321178c970db6e998ebb600160403393a36001815580f35b6117a2906133db565b61054f57845f611761565b6117b6906133db565b61083057815f611721565b6117cb91106140af565b6116e1565b6117ea91935060403d6040116103c4576103b4818361340a565b50915f6116d1565b60405162461bcd60e51b815260048101899052601460248201527345786365656473206d6178206c6576657261676560601b6044820152606490fd5b5060e0813d60e0116118cf575b8161184860e0938361340a565b810103126118cb5760405160e08101918183106001600160401b038411176118b75760c06118ad916040948552805184528c8101518d8501528481015185850152606081015160608501526080810151608085015260a081015160a0850152016140a2565b60c082015261166f565b634e487b7160e01b5f52604160045260245ffd5b8c80fd5b3d915061183b565b6040513d8f823e3d90fd5b60405162461bcd60e51b815260048101869052601460248201527310995b1bddc81b5a5b8818dbdb1b185d195c985b60621b6044820152606490fd5b846003541691823b1561044a57604051631df3cbc560e31b815292849284928391829161194e916004840161342b565b039134905af1801561043f57611965575b80611603565b61196e906133db565b6107d857865f61195f565b503461055757611988366132ae565b6001600160a01b039091168252600a602052604082208054919290918310156105575760206119b784846132d4565b90546040519160031b1c8152f35b506119cf3661325e565b906119db939293614906565b81611bd1575b5050818152602091600783526040822090611a0260ff60088401541661336c565b6007820154600154604051636d78097360e11b81526001600160a01b03929187908290600490829087165afa908115611bc6578691611b97575b506109fd90611a4a92613571565b60035416916040815460248251809681936331d98b3f60e01b835260048301525afa928315610848578493611b75575b50838491600981015480611b4a575b50811580611b3d575b611b13575b5015611ad8577fac4fd466c8f994e08ce2eb9141c2f01f2a779a3537d9bd71fa8762df3d12842c6040839285610a48979883519215158352820152a2615617565b60405162461bcd60e51b815260048101869052601360248201527215140bd4d3081b9bdd081d1c9a59d9d95c9959606a1b6044820152606490fd5b6001810154600a925060a01c60ff1615611b335701548311155b5f611a97565b0154831015611b2d565b50600a8101541515611a92565b9150915060ff600183015460a01c165f14611b6c57831015905b81905f611a89565b83111590611b64565b611b8f91935060403d6040116103c4576103b4818361340a565b50915f611a7a565b90508681813d8311611bbf575b611bae818361340a565b810103126104c65751611a4a611a3c565b503d611ba4565b6040513d88823e3d90fd5b6003546001600160a01b031690813b1561044a57918391611c0893604051809581948293631df3cbc560e31b84526004840161342b565b039134905af1801561043f57908291156119e157611c25906133db565b61055757805f6119e1565b50346105575780600319360112610557576003546040516001600160a01b039091168152602090f35b506101003660031901126105575760043590611c7361324f565b9160443591606435916084359460a43590611c8c614906565b600287101580611f56575b15611f2057603c8210611ee857620f42408781029081048803611ed4578610611e98576001546001600160a01b031696873b1561054f5760405163bd79156f60e01b8152858180611cef8a8c88338c60048701613522565b03818c5afa8015611bc657908691611e84575b5050611d0e8688613553565b9760405198899163e4d8cbe560e01b835289600484015287602484015282604460209c8d935afa918215611e79578792611e43575b509060019782611d5a610dd784600e989796613571565b6006549a611d678c613fe3565b6006558b8a5260088d5260408a208981558b8101805460ff60a01b1933166001600160a81b03199091161797151560a01b60ff60a01b16979097179096556002860155600385015560048401556006830161010461ffff19825416179055426007840155600983015534600a83015560c435600b83015560e435600c830155600d8201550155338252600a8552611e018460408420613ff1565b604051908152600485820152816040820152837f401524beccff0d9dd3447788dea32e11f3b7c9618ed6084f14a773dbf2025f1660603393a355604051908152f35b939291508984813d8311611e72575b611e5c818361340a565b810103126104c657925191929091906001611d43565b503d611e52565b6040513d89823e3d90fd5b611e8d906133db565b61054f57845f611d02565b60405162461bcd60e51b815260206004820152601460248201527314db1a58d9481cda5e99481d1bdbc81cdb585b1b60621b6044820152606490fd5b634e487b7160e01b85526011600452602485fd5b60405162461bcd60e51b815260206004820152601060248201526f135a5b880d8c1cc81a5b9d195c9d985b60821b6044820152606490fd5b60405162461bcd60e51b815260206004820152600e60248201526d496e76616c696420736c6963657360901b6044820152606490fd5b506064871115611c97565b503461055757611f70366132ae565b6001600160a01b0390911682526009602052604082208054919290918310156105575760206119b784846132d4565b503461055757602036600319011261055757600435611fbc614906565b8082526008602052604082206006810190600360ff8354611fe1828260081c1661364b565b611ff860018060a01b0360018601541633146133a3565b61ff0019811685551614612150575b60ff825416600381036120bb575b50600460ff600a83015493541614806120ae575b612081575b508281612062575b7f61b9399f2f0f32ca39ce8d7be32caed5ec22fe07a6daba3a467ed479ec606582915080a26001815580f35b80808061207a94335af1612074613684565b506136c2565b5f82612036565b906120a282600f612099600d6120a896015485613553565b9101549061358e565b906135a1565b5f61202e565b50600f8101541515612029565b600382015460046009840154921480612143575b612103575b6120de8282613571565b6120e9575b50612015565b6120fc916120f691613571565b33614cc4565b5f806120e3565b9061213d906120a2600d8501546121376121276121208388613553565b9285613553565b956120a2600f890154809461358e565b9461358e565b906120d4565b50600f83015415156120cf565b60088101548452600e60205260408420805460ff19169055612007565b506060366003190112610557576001600160401b03906004358281116108305761219b90369060040161321f565b9260243581811161044a576121b490369060040161321f565b9160443590811161054f576121cd90369060040161321f565b906121d6614906565b60015460405163aced166160e01b815290602090829060049082906001600160a01b03165afa908115611e79578791612707575b506001600160a01b031633036126d45781612675575b50849390508380805b8881106125c65750865b8581106124ff5750600354604080516331d98b3f60e01b8152600481019890985290879060249082906001600160a01b03165afa958615611e795787966124dd575b50808210156124d55750955b5f915f5b8281106123c857505050505f805b8381106122a257856001815580f35b6122ad818585613f97565b355f526008602052600a61230760405f20935f8a82106123a3575b6122f36006870191600160ff845416801561238e575b14612379575b8a6122ee89613702565b6152da565b805461ff0019169055600285015490613571565b9201548061235a575b5061231c818585613f97565b35906005545f198101908111612346576001925f80516020615a398339815191525f80a301612293565b634e487b7160e01b5f52601160045260245ffd5b5f80808061237394335af161236d613684565b50613866565b5f612310565b61238960058901548c11156137e7565b6122e4565b61239e8d60058c01541115613826565b6122de565b506123ae818b6135a1565b6002860154908082116123c157506122c8565b90506122c8565b6123d3818484613f97565b355f526008602052600a61242d60405f20955f8c82106124b0575b612419600689019160018d8b60ff86541691821561249a575b505014612485575b8c6122ee8b613702565b805461ff0019169055600287015490613571565b9401548061246c575b50612442818484613f97565b35906005545f198101908111612346576001925f80516020615a398339815191525f80a301612285565b5f80808061247f94335af161236d613684565b5f612436565b6124958d60058c015411156137e7565b61240f565b60056124a99201541015613826565b8b8f612407565b506124bb818d6135a1565b6002880154908082116124ce57506123ee565b90506123ee565b905095612281565b6124f791965060403d6040116103c4576103b4818361340a565b50945f612275565b9061250b828787613f97565b35885260089687602052604089209760ff809160068b0154901c1690816125b4575b501561257f57891580612577575b1561255c575061255560019160028954995b015490613571565b9101612233565b966001916002826125728b612555955414613fa7565b61254d565b50821561253b565b60405162461bcd60e51b815260206004820152600d60248201526c125b9d985b1a59081cda1bdc9d609a1b6044820152606490fd5b9050600189015460a01c16155f61252d565b916125d2838a86613f97565b35885260089687602052604089209760ff809160068b0154901c169081612664575b5015612630578361261a57506126136001916002895499015490613571565b9201612229565b966001916002826125728b612613955414613fa7565b60405162461bcd60e51b815260206004820152600c60248201526b496e76616c6964206c6f6e6760a01b6044820152606490fd5b9050600189015460a01c165f6125f4565b6003546001600160a01b031690813b156107d8579186916126ac93604051809581948293631df3cbc560e31b84526004840161342b565b039134905af18015610b055790859115612220576126c9906133db565b61044a57835f612220565b60405162461bcd60e51b815260206004820152600b60248201526a27b7363c9025b2b2b832b960a91b6044820152606490fd5b612720915060203d60201161053d5761052f818361340a565b5f61220a565b503461055757606036600319011261055757612740614906565b600435815260076020526040812061275e60ff60088301541661336c565b61277560018060a01b0360018301541633146133a3565b6024356009820155600a6044359101556001815580f35b50346105575780600319360112610557576004546040516001600160a01b039091168152602090f35b50610a486127c23661325e565b916127cb614906565b6138a6565b5061010036600319011261055757600435906127ea61324f565b9160c43560e4356001600160401b03811161044a5761280d90369060040161321f565b90612816614906565b612827620f4240604435101561332f565b81612abe575b5050600354604080516331d98b3f60e01b815260048101859052926001600160a01b03929091908490602490829086165afa928315610b05578593612a9c575b5080612a73575b50608435612a4e575b60a435612a29575b6001541691823b1561044a5760405163bd79156f60e01b81528481806128b66064356044358b338960048701613522565b0381875afa8015610b0557908591612a15575b505060405194859363e4d8cbe560e01b8552604435600486015285602486015284604460209889935afa908115610b055785916129e4575b6129b59450612914606435604435613553565b90612922610dd78484613571565b6040519361292f856133ee565b8760c0860152876101208601528761014086015287610180860152876101e086015287610200860152876102208601528761024086015284523388850152151560408401526044356060840152608083015260643560a0830152600260e083015260016101008301526101608201526084356101a082015260a4356101c0820152614ed0565b6005545f198101919082116129d05760019055604051908152f35b634e487b7160e01b81526011600452602490fd5b90508584813d8311612a0e575b6129fb818361340a565b810103126104c6576129b5935190612901565b503d6129f1565b612a1e906133db565b61044a57835f6128c9565b8415612a4157612a3c8260a4351061360c565b612885565b612a3c8260a4351161360c565b8415612a6657612a6182608435116135cd565b61287d565b612a6182608435106135cd565b8515612a8b57612a85908311156134e2565b5f612874565b612a97908310156134e2565b612a85565b612ab691935060403d6040116103c4576103b4818361340a565b50915f61286d565b6003546001600160a01b031690813b15612b1d57918591612af593604051809581948293631df3cbc560e31b84526004840161342b565b039134905af18015610848579084911561282d57612b12906133db565b61055357825f61282d565b8580fd5b503461055757602036600319011261055757600154604051638da5cb5b60e01b815260048035926001600160a01b0391602091849190829085165afa801561084857612b7692859161109b57501633146133a3565b6101f48111612b8557600c5580f35b60405162461bcd60e51b81526020600482015260066024820152654d617820352560d01b6044820152606490fd5b50346105575760203660031901126105575760ff60406020926004358152600e84522054166040519015158152f35b5060a03660031901126104c657606435906044356084356001600160401b0381116104c657612c1590369060040161321f565b919093612c20614906565b612c31620f4240602435101561332f565b6004355f52600760205260405f2092612c5060ff60088601541661336c565b6001840195612c6960018060a01b0388541633146133a3565b81613198575b50506003548354604080516331d98b3f60e01b815260048101839052969791939192879060249082906001600160a01b03165afa958615611e79578796613176575b5080613146575b508560018060a01b03600154169260ff835460a01c16843b156105535760405163bd79156f60e01b815291839183918291612cfe918a9160243591339060048701613522565b0381875afa801561043f57613132575b50506020612d20604494602435613553565b926040519485809263e4d8cbe560e01b825260243560048301528a60248301525afa928315611bc65786936130fe575b50612d5e610dd78484613571565b612d67846149ee565b506001548454915460405163b391decf60e01b81526004810184905260a09190911c60ff16801515602480840191909152356044830152969160209082906001600160a01b031681806064810103915afa9081156109055788916130cc575b50818882131561307a5750612dde612710918361358e565b04861561306c57612dee91613571565b945b60028501549586670de0b6b3a7640000810204670de0b6b3a7640000148715171561305857612e2d6004870154670de0b6b3a76400008902613553565b90602435670de0b6b3a76400006024350204670de0b6b3a76400001460243515171561304457612e6990670de0b6b3a764000060243502613553565b612e7560243589613571565b9182670de0b6b3a7640000810204670de0b6b3a764000014831517156130305783612eca612ec08c98979695670de0b6b3a7640000612eb9600697612efe97613571565b9102613553565b9a60243590613571565b8060028b015560038a0190612ee0888354613571565b8092558b60048c0155612ef38282613553565b60058c01558b614bc3565b96019586556001546001600160a01b031691823b1561054f5760405163b65b361f60e01b81526004810191909152336024808301919091529115156044820152903560648201529083908290608490829084905af19081156103cb57839161301c575b5050600254612f7a9082906001600160a01b0316614cc4565b6002546001600160a01b031690813b15610553578291602483926040519485938492636e93ae2b60e01b845260048401525af1801561043f57613008575b5050612fc390614d86565b546040519160243583526020830152604082015233907ff48aa9a1deec4f3fc0cb0c073f4f097041726d7c7f9d2c3a863cd52f721e8d1a606060043592a36001815580f35b613011906133db565b61044a57835f612fb8565b613025906133db565b61083057815f612f61565b634e487b7160e01b8a52601160045260248afd5b634e487b7160e01b89526011600452602489fd5b634e487b7160e01b88526011600452602488fd5b613075916135a1565b612dee565b9088819893981261308d575b5050612df0565b612710919297506130a06130a69161357e565b8361358e565b0486156130be576130b6916135a1565b945f80613086565b6130c791613571565b6130b6565b90506020813d6020116130f6575b816130e76020938361340a565b810103126104c657515f612dc6565b3d91506130da565b9092506020813d60201161312a575b8161311a6020938361340a565b810103126104c65751915f612d50565b3d915061310d565b61313b906133db565b612b1d57855f612d0e565b815460a01c60ff16156131655761315f908611156134e2565b5f612cb8565b613171908610156134e2565b61315f565b61319091965060403d6040116103c4576103b4818361340a565b50945f612cb1565b6003546001600160a01b031691823b156104c657604051631df3cbc560e31b8152925f928492839182916131cf916004840161342b565b039134905af180156131fa576131e6575b80612c6f565b602494506131f3906133db565b5f936131e0565b6040513d5f823e3d90fd5b346104c6575f3660031901126104c6576020906006548152f35b9181601f840112156104c6578235916001600160401b0383116104c6576020808501948460051b0101116104c657565b6024359081151582036104c657565b9060406003198301126104c65760043591602435906001600160401b0382116104c65761328d9160040161321f565b9091565b346104c6575f3660031901126104c6576020604051620f42408152f35b60409060031901126104c6576004356001600160a01b03811681036104c6579060243590565b80548210156132e9575f5260205f2001905f90565b634e487b7160e01b5f52603260045260245ffd5b60606003198201126104c6576004359160243591604435906001600160401b0382116104c65761328d9160040161321f565b1561333657565b60405162461bcd60e51b815260206004820152600e60248201526d14da5e99481d1bdbc81cdb585b1b60921b6044820152606490fd5b1561337357565b60405162461bcd60e51b81526020600482015260086024820152672737ba1037b832b760c11b6044820152606490fd5b156133aa57565b60405162461bcd60e51b81526020600482015260096024820152682737ba1037bbb732b960b91b6044820152606490fd5b6001600160401b0381116118b757604052565b61026081019081106001600160401b038211176118b757604052565b90601f801991011681019081106001600160401b038211176118b757604052565b9160208181850182865252604084019360408360051b82010194845f925b85841061345a575050505050505090565b90919293949596603f198282030184528735601e19843603018112156104c65783018681019190356001600160401b0381116104c65780360383136104c65787828280600196849695859652848401375f828201840152601f01601f1916010199019796959190910193019190613449565b91908260409103126104c6576020825192015190565b156134e957565b60405162461bcd60e51b815260206004820152601160248201527014db1a5c1c1859d948195e18d959591959607a1b6044820152606490fd5b9081526001600160a01b03909116602082015290151560408201526060810191909152608081019190915260a00190565b811561355d570490565b634e487b7160e01b5f52601260045260245ffd5b9190820180921161234657565b600160ff1b8114612346575f0390565b8181029291811591840414171561234657565b9190820391821161234657565b908160209103126104c657516001600160a01b03811681036104c65790565b156135d457565b60405162461bcd60e51b815260206004820152601060248201526f496e76616c696420545020707269636560801b6044820152606490fd5b1561361357565b60405162461bcd60e51b815260206004820152601060248201526f496e76616c696420534c20707269636560801b6044820152606490fd5b1561365257565b60405162461bcd60e51b815260206004820152600a6024820152694e6f742061637469766560b01b6044820152606490fd5b3d156136bd573d906001600160401b0382116118b757604051916136b2601f8201601f19166020018461340a565b82523d5f602084013e565b606090565b156136c957565b60405162461bcd60e51b8152602060048201526011602482015270115512081c99599d5b990819985a5b1959607a1b6044820152606490fd5b9060405161370f816133ee565b610240601082948054845260ff600182015460018060a01b038116602087015260a01c16151560408501526002810154606085015260038101546080850152600481015460a0850152600581015460c085015260ff600682015481811660e087015260081c161515610100850152600781015461012085015260088101546101408501526009810154610160850152600a810154610180850152600b8101546101a0850152600c8101546101c0850152600d8101546101e0850152600e810154610200850152600f8101546102208501520154910152565b156137ee57565b60405162461bcd60e51b815260206004820152601060248201526f14dd1bdc081b9bdd081c995858da195960821b6044820152606490fd5b1561382d57565b60405162461bcd60e51b8152602060048201526011602482015270131a5b5a5d081b9bdd081c995858da1959607a1b6044820152606490fd5b1561386d57565b60405162461bcd60e51b815260206004820152601160248201527012d9595c195c881999594819985a5b1959607a1b6044820152606490fd5b90915f9281613f36575b505080825260086020526040822060068101546138d260ff8260081c1661364b565b6138e36007830154600d5490613571565b4211613e3e57506003548154604080516331d98b3f60e01b8152600481018390529192829060249082906001600160a01b03165afa908115610b05578591613e1e575b50600683015460ff1680613a8357506001830154613968925060a01c60ff1615613a735761395a6005840154821115613826565b61396383613702565b614ed0565b60068101805461ff00191690555b600a810154806139fc575b50600681015460ff8160081c161561399a575b50505050565b60ff166003036139c45760085f80516020615a39833981519152910154925b80a35f808080613994565b506005545f1981019081116139e8575f80516020615a3983398151915290926139b9565b634e487b7160e01b83526011600452602483fd5b83906006830154600460ff82161480613a66575b15613a4c5750613a269150600d83015490613553565b8381613a33575b50613981565b808080613a4594335af161236d613684565b5f83613a2d565b60081c60ff1615613a5e575b50613a26565b90505f613a58565b50600d8401541515613a10565b61395a6005840154821015613826565b60018103613ad357506001830154613ab1925060a01c60ff1615613ac35761395a60058401548210156137e7565b60068101805461ff0019169055613976565b61395a60058401548211156137e7565b60028103613b7d57509050600182015460ff8160a01c165f14613b705760058301548211155b8015613b64575b15613b135750613ab19061396383613702565b613b3a9150613b2b6003840154600985015490613571565b906001600160a01b0316614cc4565b817f61b9399f2f0f32ca39ce8d7be32caed5ec22fe07a6daba3a467ed479ec6065828480a2613ab1565b50600583015415613b00565b6005830154821015613af9565b60038103613bbd57509050613b9760088301918254615617565b548352600e60205260408320805460ff1916905560068101805461ff0019169055613976565b600414613bcc575b5050613976565b600f8301549182158015613e02575b15613dcb57613be984613702565b92600181019081811161305857600d860154918203613d8b57806002870154613c128482613553565b8260038a015492613c238785613553565b9260098c015497613c349089613553565b96613c3e9161358e565b613c47916135a1565b60608a0152613c559161358e565b613c5e916135a1565b6080870152613c6c9161358e565b613c75916135a1565b6101608401525b6001805490850154606085015160048701549390926001600160a01b03169190823b15613d875760405163bd79156f60e01b8152948a9486949385938493613cde939092909160a082901c60ff16916001600160a01b03169060048701613522565b03915afa8015611bc657908691613d73575b5050613cfc9082614ed0565b600f8201549060018201809211611ed4577f098dc6c1012d2fb4cc0470ec0f1b82ad9eaf354865d76ebad869d83f1559344e60406060869385600f88015542601088015501518151908582526020820152a2600d8201541115613d61575b5f80613bc5565b60068101805461ff0019169055613d5a565b613d7c906133db565b61054f57845f613cf0565b8980fd5b5080613d9e613dc0926002880154613553565b6060860152613db1816003880154613553565b60808601526009860154613553565b610160840152613c7c565b60405162461bcd60e51b815260206004820152600f60248201526e545741503a20746f6f206561726c7960881b6044820152606490fd5b50613e166010850154600e86015490613571565b421015613bdb565b613e37915060403d6040116103c4576103b4818361340a565b505f613926565b90600360ff7f61b9399f2f0f32ca39ce8d7be32caed5ec22fe07a6daba3a467ed479ec60658294959361ff0019811660068501551614613f19575b600360ff600683015416141580613efe575b613ecc575b81600a8201549182613ea3575b509050a2565b60010154613ec4928291829182916001600160a01b03165af1612074613684565b5f8181613e9d565b600181015460038201546009830154613ef9926001600160a01b031691613ef39190613571565b90614cc4565b613e90565b50613f126003820154600983015490613571565b1515613e8b565b60088101548252600e60205260408220805460ff19169055613e79565b6003546001600160a01b031691823b156104c657604051631df3cbc560e31b8152925f92849283918291613f6d916004840161342b565b039134905af180156131fa57613f84575b806138b0565b613f8f9192506133db565b5f905f613f7e565b91908110156132e95760051b0190565b15613fae57565b60405162461bcd60e51b815260206004820152600d60248201526c0a0c2d2e440dad2e6dac2e8c6d609b1b6044820152606490fd5b5f1981146123465760010190565b8054680100000000000000008110156118b757614013916001820181556132d4565b819291549060031b91821b915f19901b1916179055565b1561403157565b60405162461bcd60e51b815260206004820152600f60248201526e436f6f6c646f776e2061637469766560881b6044820152606490fd5b1561406f57565b60405162461bcd60e51b815260206004820152600b60248201526a16995c9bc8185b5bdd5b9d60aa1b6044820152606490fd5b519081151582036104c657565b156140b657565b60405162461bcd60e51b8152602060048201526015602482015274576f756c64206265206c6971756964617461626c6560581b6044820152606490fd5b81810392915f13801582851316918412161761234657565b81810292915f8212600160ff1b82141661234657818405149015171561234657565b811561355d57600160ff1b81145f19831416612346570590565b9190915f838201938412911290801582169115161761234657565b9190925f908415158061483c575b1561480557835f52600760205260405f209261419260ff60088601541661336c565b6141a960018060a01b0360018601541633146133a3565b6007840154600154604051636d78097360e11b815290602090829060049082906001600160a01b03165afa9081156131fa575f916147d1575b506109fd906141f092613571565b81614772575b505060018060a01b0360035416906040835460248251809581936331d98b3f60e01b835260048301525afa918215614765578192614743575b50612710948581146147325761426e95614274600286015482614252858361358e565b0498899361426560038a0154968761358e565b049384926135a1565b936135a1565b94620f42408084106146f75786106146b257600181015460a01c60ff1615614697576142b160048201546103108a6142ac838a6140f3565b61410b565b60018060a01b0360015416906040519463e4d8cbe560e01b86528a6004870152866024870152602086604481865afa958615611e79578b8891829861465b575b5063d693a40061431d614309602093600b549061358e565b614317600c8a0154426135a1565b9061358e565b0494602487546040519485938492637cc6765f60e11b845260048401525af1801561090557614630575b506001548454604051634655f1eb60e01b815260048101829052909491602090829060249082906001600160a01b03165afa9081156146255789939291878f9286926145e7575b50926143dd670de0b6b3a764000061441c9798946143b76143e295600b6143e8990154906140f3565b60018d01549a5060a08b901c60ff16156145ce576143d49161410b565b05915b8c614147565b614147565b906140f3565b998160028701558060038701556143ff8183613553565b600587015542600c87015560ff8460a01c16916004870154614bc3565b60068401556001546001600160a01b031691823b156107d85760405163019ca2b960e51b815260048101919091526001600160a01b038216602482015260a09190911c60ff1615156044820152606481018a905290859082908183816084810103925af18015610b05579085916145ba575b5050600254600191909101546001600160a01b039182169116813b1561054f5760405163118f304360e01b81526001600160a01b0391909116600482015260248101839052604481018790529084908290606490829084905af18015610848579084916145a6575b50508115159081614594575b50614542575b5050604051938452602084015260408301527f5cc0748e06097a585a6534dafcca64d5cc367340dff0e00469484e8269a7ca7b60603393a3565b6002546001600160a01b031690813b156105535782916024839260405194859384926335b8e71360e01b845260048401525af1801561043f57156145085761458a82916133db565b6105575780614508565b61459e915061357e565b84135f614502565b6145af906133db565b61055357825f6144f6565b6145c3906133db565b61044a57835f61448e565b6145db906145e09261410b565b61357e565b05916143d7565b95505050506020833d60201161461d575b816146056020938361340a565b810103126104c65791518892908d90876143dd61438e565b3d91506145f8565b6040513d8b823e3d90fd5b602090813d8311614654575b614646818361340a565b810103126104c6575f614347565b503d61463c565b975050506020863d60201161468f575b816146786020938361340a565b810103126104c657945194868b63d693a4006142f1565b3d915061466b565b6146ad60048201546103108a6142ac89846140f3565b6142b1565b60405162461bcd60e51b815260206004820152601e60248201527f52656d61696e64657220636f6c6c61746572616c20746f6f20736d616c6c00006044820152606490fd5b60405162461bcd60e51b815260206004820152601360248201527214995b585a5b99195c881d1bdbc81cdb585b1b606a1b6044820152606490fd5b50509190506147419250615617565b565b61475d91925060403d6040116103c4576103b4818361340a565b50905f61422f565b50604051903d90823e3d90fd5b6003546001600160a01b031691823b156104c657604051631df3cbc560e31b8152925f928492839182916147a9916004840161342b565b039134905af180156131fa576147c0575b806141f6565b6147ca91506133db565b5f806147ba565b90506020813d6020116147fd575b816147ec6020938361340a565b810103126104c657516141f06141e2565b3d91506147df565b60405162461bcd60e51b815260206004820152600f60248201526e125b9d985b1a59081c195c98d95b9d608a1b6044820152606490fd5b50612710851115614170565b906040516101c081018181106001600160401b038211176118b7576040526101a0600c82948054845260ff600182015460018060a01b038116602087015260a01c16151560408501526002810154606085015260038101546080850152600481015460a0850152600581015460c0850152600681015460e0850152600781015461010085015260ff60088201541615156101208501526009810154610140850152600a810154610160850152600b8101546101808501520154910152565b60025f54146149155760025f55565b604051633ee5aeb560e01b8152600490fd5b916064602092935f60018060a01b03938460045416908560405198899788966323b872dd60e01b885216600487015216602485015260448401525af19081156131fa575f916149b4575b501561497957565b60405162461bcd60e51b8152602060048201526013602482015272151c985b9cd9995c919c9bdb4819985a5b1959606a1b6044820152606490fd5b90506020813d6020116149e6575b816149cf6020938361340a565b810103126104c6576149e0906140a2565b5f614971565b3d91506149c2565b906149fb61063a83614848565b91600154905f60018060a01b03808354604095865191637cc6765f60e11b83526004830152816024815f6020978895165af18015614b3957908391614b9a575b5050614a4961067d85614848565b875f8213614b87575b505086614ad2575b42600c85015560015416918184546024875180968193634655f1eb60e01b835260048301525afa948515614ac8575093614a97575b5050600b0155565b9080929350813d8311614ac1575b614aaf818361340a565b810103126104c6575190600b5f614a8f565b503d614aa5565b51903d90823e3d90fd5b60038401805480891015614b435788614aea916135a1565b90558060025416803b156104c6575f8091602488518094819363ff20b48d60e01b83528d60048401525af18015614b3957614b26575b50614a5a565b614b319193506133db565b5f915f614b20565b86513d5f823e3d90fd5b865162461bcd60e51b815260048101859052601f60248201527f506f736974696f6e206c6971756964617461626c652066726f6d2066656573006044820152606490fd5b614b92929850613571565b955f80614a52565b813d8311614bbc575b614bad818361340a565b810103126104c657815f614a3b565b503d614ba3565b9192909261232890818102918183041490151715612346576001546040516335123baf60e21b81526127109283900491602090829060049082906001600160a01b03165afa9081156131fa575f91614c92575b50600a810180911161234657614c2d83918761358e565b0490808210614c8257505060648402848104606414851517156123465704905b15614c6b57614c6892614c636120a2928461358e565b613553565b90565b614c6892614c63614c7c928461358e565b90613571565b614c8c92506135a1565b90614c4d565b90506020813d602011614cbc575b81614cad6020938361340a565b810103126104c657515f614c16565b3d9150614ca0565b6004805460405163a9059cbb60e01b81526001600160a01b0393841692810192909252602482019390935291602091839160449183915f91165af19081156131fa575f91614d4c575b5015614d1557565b60405162461bcd60e51b815260206004820152600f60248201526e151c985b9cd9995c8819985a5b1959608a1b6044820152606490fd5b90506020813d602011614d7e575b81614d676020938361340a565b810103126104c657614d78906140a2565b5f614d0d565b3d9150614d5a565b60015460408051631db0457960e11b815260048101939093525f9392916001600160a01b039082908490602490829085165afa928315614ec6575f905f94614ea4575b5080614e43575b5082614dde575b5050509050565b6020600491600154168351928380926361d027b360e01b82525afa918215614e3a5750614e12939491614e1b575b50614cc4565b805f8080614dd7565b614e34915060203d60201161053d5761052f818361340a565b5f614e0c565b513d86823e3d90fd5b614e51818360025416614cc4565b816002541690813b156104c6575f9160248392865194859384926302102c9760e11b845260048401525af18015614e9a5715614dd057614e929195506133db565b5f935f614dd0565b83513d5f823e3d90fd5b9050614ebe919350823d84116103c4576103b4818361340a565b92905f614dc9565b82513d5f823e3d90fd5b60608101805191925f9291908383156152d257505f925b83908061522f575b5081848213156151e15750614f07612710918361358e565b04604086015115155f146151d357614f1e91613571565b60055493614f2b85613fe3565b6005558484526007602090815260408086208851815588830180516001830180548c860180516001600160a81b03199092166001600160a01b039485161791151560a081901b60ff60a01b16929092179092559099959893969495939491938c8651988960028201558a6080830194855180600385015582600485015560a085019c8d516005860155614fbd93614bc3565b600682015542600782015542600c8201556008810160ff1981541660011790556101a082015160098201556101c0820151600a8201558b876001541692518a51938491637cc6765f60e11b8352600483015281865a92602493f19182156151c9578392615199575b50600b015584600154168d519086865116908d51151591895193823b15612b1d578b5163b65b361f60e01b815260048101919091526001600160a01b03919091166024820152911515604483015260648201929092529082908290608490829084905af1801561518f5761517b575b50506150a68460025416825190614cc4565b83600254169051813b156105535782916024839289519485938492636e93ae2b60e01b845260048401525af18015615171578b92918d91615157575b508694927f52ca44dea94749aadfaa4d3749a0323a33b3a6434adcfff52ad54c511f5579c79b999760a09b99979593615122610160615132950151614d86565b85855116815260098b5220613ff1565b51169951955115159051925194825196875286015284015260608301526080820152a3565b82935061516491506133db565b6105575789908b5f6150e2565b86513d84823e3d90fd5b615187919293506133db565b905f80615094565b88513d84823e3d90fd5b9091508b81813d83116151c2575b6151b1818361340a565b81010312610553575190600b615025565b503d6151a7565b89513d85823e3d90fd5b6151dc916135a1565b614f1e565b908481126151f1575b5050614f1e565b6127109192506130a06152039161357e565b04604086015115155f146152215761521a916135a1565b5f806151ea565b61522a91613571565b61521a565b60015487516040808a0151905163b391decf60e01b815260048101929092521515602482015260448101839052919250602090829060649082906001600160a01b03165afa908115610b0557859161529e575b50615298916152909161410b565b83519061412d565b5f614eef565b90506020813d6020116152ca575b816152b96020938361340a565b8101031261054f5751615298615282565b3d91506152ac565b92505f614ee7565b91906060830180515f938082115f1461560e576152f6916135a1565b915b5f928061556f575b506153aa92815f821315615521575061531c612710918361358e565b04604086015115155f146155135761533391613571565b806005549461534186613fe3565b6005555f8681526007602090815260408083208a5181558a830180516001830180548e860180516001600160a81b03199092166001600160a01b039485161791151560a081901b60ff60a01b1692909217909255909b959a94979496919592949390928b908f90565b6153db8951958660028601558c6080840197885191826003890155600488015560a085019e8f516005890155614bc3565b600684015542600784015542600c84015560088301600160ff198254161790556101a081015160098401556101c0810151600a8401556024886001541691518b519586938492637cc6765f60e11b845260048401525af1918215615509575f926154d9575b50600b015583600154168c5185855116918c51151590885193813b156104c6578a5163b65b361f60e01b815260048101949094526001600160a01b0316602484015290151560448301526064820192909252905f908290608490829084905af180156154cf576154bc575b506150a68460025416825190614cc4565b6154c79192506133db565b5f905f6154ab565b87513d5f823e3d90fd5b9091508a81813d8311615502575b6154f1818361340a565b810103126104c6575190600b615440565b503d6154e7565b88513d5f823e3d90fd5b61551c916135a1565b615333565b905f8112615531575b5050615333565b6127109192506130a06155439161357e565b04604086015115155f146155615761555a916135a1565b5f8061552a565b61556a91613571565b61555a565b6001548651604080890151905163b391decf60e01b8152600481019290925215156024820152604481018390529450602090859060649082906001600160a01b03165afa9384156131fa575f946155d8575b506152906155d2916153aa9561410b565b92615300565b93506020843d602011615606575b816155f36020938361340a565b810103126104c6579251926152906155c1565b3d91506155e6565b50505f916152f8565b91905f92805f5260209160078352604090815f20600881019061563d60ff83541661336c565b60018101805460a01c60ff16156159385761566e600483015461031061566382886140f3565b60028601549061410b565b600154600284018054885163e4d8cbe560e01b815260048101919091525f60248201526001600160a01b0395909390928616908b85604481855afa94851561592e575f956158ff575b505f8c6156c661063a87614848565b9360248d885490519485938492637cc6765f60e11b845260048401525af180156158f557908d916158cc575b50506143e2615711926143dd61570a61067d88614848565b9188614147565b865460ff19169096556001548254855492549290918716803b156104c6578a5163019ca2b960e51b815260048101939093526001600160a01b0382891616602484015260a09190911c60ff16151560448301526064820192909252905f9082908183816084810103925af18015615509576158b9575b508a8460025416600386865416930192835490823b1561044a578a5163118f304360e01b81526001600160a01b039190911660048201526024810191909152604481018890529082908290606490829084905af180156158af57615897575b50508115159081615884575b5061582d575b507f356fca566f3a054a459c7224d9c9d634f31a98835cfd4fb4c5ddbf8b96aca21195969798505416958351928352820152a3565b89908360025416803b156105535760248392895194859384926335b8e71360e01b845260048401525af1801561587a57156157f85761586c8a916133db565b61587657886157f8565b8880fd5b86513d8c823e3d90fd5b61588f91505461357e565b84135f6157f2565b6158a0906133db565b6158ab578a5f6157e6565b8a80fd5b89513d84823e3d90fd5b6158c4919b506133db565b5f995f615787565b813d83116158ee575b6158df818361340a565b810103126104c6578b5f6156f2565b503d6158d5565b8b513d5f823e3d90fd5b9094508b81813d8311615927575b615917818361340a565b810103126104c65751935f6156b7565b503d61590d565b8a513d5f823e3d90fd5b61594d600483015461031061566387836140f3565b61566e565b61598063d693a4009161597b606061596f6101a0840151426135a1565b920151600b549061358e565b61358e565b0490565b60018060a01b03600154169060208151602460405180958193634655f1eb60e01b835260048301525afa9182156131fa575f92615a02575b506159d6670de0b6b3a764000092610180830151906140f3565b6040820151156159f15760606159ed92015161410b565b0590565b6145db9060606159ed93015161410b565b91506020823d602011615a30575b81615a1d6020938361340a565b810103126104c6579051906159d66159bc565b3d9150615a1056fe9947370f1e808dd40de986fca744d8715d4d7aa575359f77a7bdeeb887f590eaa2646970667358221220410239ce42f7fa62b12d27c22635da68f0841561575193cb7de08db99e411a8e64736f6c63430008180033",
  "linkReferences": {},
  "deployedLinkReferences": {},
  "immutableReferences": {},
  "inputSourceName": "project/src/ConfidentialTrading.sol",
  "buildInfoId": "solc-0_8_24-05b760b7bb1268f726c3a629ecec10b4a9956d8a"
}