{
  "_format": "hh3-artifact-1",
  "contractName": "ConfidentialVault",
  "sourceName": "src/ConfidentialVault.sol",
  "abi": [
    {
      "inputs": [
        {
          "internalType": "address",
          "name": "_usdc",
          "type": "address"
        },
        {
          "internalType": "address",
          "name": "_core",
          "type": "address"
        }
      ],
      "stateMutability": "nonpayable",
      "type": "constructor"
    },
    {
      "inputs": [],
      "name": "DepositsDisabled",
      "type": "error"
    },
    {
      "inputs": [],
      "name": "ExceedsDepositCap",
      "type": "error"
    },
    {
      "inputs": [],
      "name": "ExceedsTVLCap",
      "type": "error"
    },
    {
      "inputs": [],
      "name": "InsufficientLiquidity",
      "type": "error"
    },
    {
      "inputs": [],
      "name": "InsufficientShares",
      "type": "error"
    },
    {
      "inputs": [],
      "name": "LockupNotExpired",
      "type": "error"
    },
    {
      "inputs": [],
      "name": "OnlyOwner",
      "type": "error"
    },
    {
      "inputs": [],
      "name": "OnlyTrading",
      "type": "error"
    },
    {
      "inputs": [],
      "name": "ReentrancyGuardReentrantCall",
      "type": "error"
    },
    {
      "inputs": [],
      "name": "ZeroAmount",
      "type": "error"
    },
    {
      "anonymous": false,
      "inputs": [
        {
          "indexed": true,
          "internalType": "address",
          "name": "user",
          "type": "address"
        },
        {
          "indexed": false,
          "internalType": "uint256",
          "name": "amount",
          "type": "uint256"
        },
        {
          "indexed": false,
          "internalType": "uint256",
          "name": "sharesReceived",
          "type": "uint256"
        }
      ],
      "name": "Deposit",
      "type": "event"
    },
    {
      "anonymous": false,
      "inputs": [],
      "name": "EmergencyModeActivated",
      "type": "event"
    },
    {
      "anonymous": false,
      "inputs": [],
      "name": "EmergencyModeDeactivated",
      "type": "event"
    },
    {
      "anonymous": false,
      "inputs": [
        {
          "indexed": false,
          "internalType": "uint256",
          "name": "amount",
          "type": "uint256"
        }
      ],
      "name": "FeeReceived",
      "type": "event"
    },
    {
      "anonymous": false,
      "inputs": [
        {
          "indexed": true,
          "internalType": "address",
          "name": "trader",
          "type": "address"
        },
        {
          "indexed": true,
          "internalType": "address",
          "name": "liquidator",
          "type": "address"
        },
        {
          "indexed": false,
          "internalType": "uint256",
          "name": "collateral",
          "type": "uint256"
        },
        {
          "indexed": false,
          "internalType": "uint256",
          "name": "reward",
          "type": "uint256"
        }
      ],
      "name": "LiquidationSettled",
      "type": "event"
    },
    {
      "anonymous": false,
      "inputs": [
        {
          "indexed": true,
          "internalType": "address",
          "name": "trader",
          "type": "address"
        },
        {
          "indexed": false,
          "internalType": "int256",
          "name": "netPnl",
          "type": "int256"
        },
        {
          "indexed": false,
          "internalType": "uint256",
          "name": "collateral",
          "type": "uint256"
        }
      ],
      "name": "PositionSettled",
      "type": "event"
    },
    {
      "anonymous": false,
      "inputs": [
        {
          "indexed": true,
          "internalType": "address",
          "name": "user",
          "type": "address"
        },
        {
          "indexed": false,
          "internalType": "uint256",
          "name": "amount",
          "type": "uint256"
        },
        {
          "indexed": false,
          "internalType": "uint256",
          "name": "sharesBurned",
          "type": "uint256"
        }
      ],
      "name": "Withdraw",
      "type": "event"
    },
    {
      "inputs": [],
      "name": "MINIMUM_LIQUIDITY",
      "outputs": [
        {
          "internalType": "uint256",
          "name": "",
          "type": "uint256"
        }
      ],
      "stateMutability": "view",
      "type": "function"
    },
    {
      "inputs": [],
      "name": "availableLiquidity",
      "outputs": [
        {
          "internalType": "uint256",
          "name": "",
          "type": "uint256"
        }
      ],
      "stateMutability": "view",
      "type": "function"
    },
    {
      "inputs": [
        {
          "internalType": "address",
          "name": "user",
          "type": "address"
        }
      ],
      "name": "balanceOfUnderlying",
      "outputs": [
        {
          "internalType": "uint256",
          "name": "",
          "type": "uint256"
        }
      ],
      "stateMutability": "view",
      "type": "function"
    },
    {
      "inputs": [
        {
          "internalType": "address",
          "name": "user",
          "type": "address"
        }
      ],
      "name": "canWithdraw",
      "outputs": [
        {
          "internalType": "bool",
          "name": "",
          "type": "bool"
        }
      ],
      "stateMutability": "view",
      "type": "function"
    },
    {
      "inputs": [],
      "name": "core",
      "outputs": [
        {
          "internalType": "contract ConfidentialCore",
          "name": "",
          "type": "address"
        }
      ],
      "stateMutability": "view",
      "type": "function"
    },
    {
      "inputs": [],
      "name": "decimals",
      "outputs": [
        {
          "internalType": "uint8",
          "name": "",
          "type": "uint8"
        }
      ],
      "stateMutability": "view",
      "type": "function"
    },
    {
      "inputs": [
        {
          "internalType": "uint256",
          "name": "amount",
          "type": "uint256"
        }
      ],
      "name": "deposit",
      "outputs": [],
      "stateMutability": "nonpayable",
      "type": "function"
    },
    {
      "inputs": [
        {
          "internalType": "address",
          "name": "",
          "type": "address"
        }
      ],
      "name": "depositTimestamp",
      "outputs": [
        {
          "internalType": "uint256",
          "name": "",
          "type": "uint256"
        }
      ],
      "stateMutability": "view",
      "type": "function"
    },
    {
      "inputs": [],
      "name": "depositsEnabled",
      "outputs": [
        {
          "internalType": "bool",
          "name": "",
          "type": "bool"
        }
      ],
      "stateMutability": "view",
      "type": "function"
    },
    {
      "inputs": [],
      "name": "disableEmergencyMode",
      "outputs": [],
      "stateMutability": "nonpayable",
      "type": "function"
    },
    {
      "inputs": [
        {
          "internalType": "uint256",
          "name": "totalFee",
          "type": "uint256"
        }
      ],
      "name": "distributeClosingFee",
      "outputs": [],
      "stateMutability": "nonpayable",
      "type": "function"
    },
    {
      "inputs": [],
      "name": "emergencyMode",
      "outputs": [
        {
          "internalType": "bool",
          "name": "",
          "type": "bool"
        }
      ],
      "stateMutability": "view",
      "type": "function"
    },
    {
      "inputs": [],
      "name": "enableEmergencyMode",
      "outputs": [],
      "stateMutability": "nonpayable",
      "type": "function"
    },
    {
      "inputs": [],
      "name": "lockupPeriod",
      "outputs": [
        {
          "internalType": "uint256",
          "name": "",
          "type": "uint256"
        }
      ],
      "stateMutability": "view",
      "type": "function"
    },
    {
      "inputs": [],
      "name": "maxDepositPerUser",
      "outputs": [
        {
          "internalType": "uint256",
          "name": "",
          "type": "uint256"
        }
      ],
      "stateMutability": "view",
      "type": "function"
    },
    {
      "inputs": [],
      "name": "maxTotalDeposits",
      "outputs": [
        {
          "internalType": "uint256",
          "name": "",
          "type": "uint256"
        }
      ],
      "stateMutability": "view",
      "type": "function"
    },
    {
      "inputs": [],
      "name": "name",
      "outputs": [
        {
          "internalType": "string",
          "name": "",
          "type": "string"
        }
      ],
      "stateMutability": "view",
      "type": "function"
    },
    {
      "inputs": [
        {
          "internalType": "uint256",
          "name": "amount",
          "type": "uint256"
        }
      ],
      "name": "receiveFees",
      "outputs": [],
      "stateMutability": "nonpayable",
      "type": "function"
    },
    {
      "inputs": [
        {
          "internalType": "uint256",
          "name": "amount",
          "type": "uint256"
        }
      ],
      "name": "reserveBacking",
      "outputs": [],
      "stateMutability": "nonpayable",
      "type": "function"
    },
    {
      "inputs": [
        {
          "internalType": "uint256",
          "name": "_perUser",
          "type": "uint256"
        },
        {
          "internalType": "uint256",
          "name": "_total",
          "type": "uint256"
        }
      ],
      "name": "setDepositCaps",
      "outputs": [],
      "stateMutability": "nonpayable",
      "type": "function"
    },
    {
      "inputs": [
        {
          "internalType": "bool",
          "name": "_enabled",
          "type": "bool"
        }
      ],
      "name": "setDepositsEnabled",
      "outputs": [],
      "stateMutability": "nonpayable",
      "type": "function"
    },
    {
      "inputs": [
        {
          "internalType": "uint256",
          "name": "_seconds",
          "type": "uint256"
        }
      ],
      "name": "setLockupPeriod",
      "outputs": [],
      "stateMutability": "nonpayable",
      "type": "function"
    },
    {
      "inputs": [
        {
          "internalType": "address",
          "name": "trader",
          "type": "address"
        },
        {
          "internalType": "address",
          "name": "liquidator",
          "type": "address"
        },
        {
          "internalType": "uint256",
          "name": "collateral",
          "type": "uint256"
        },
        {
          "internalType": "uint256",
          "name": "reward",
          "type": "uint256"
        }
      ],
      "name": "settleLiquidation",
      "outputs": [],
      "stateMutability": "nonpayable",
      "type": "function"
    },
    {
      "inputs": [
        {
          "internalType": "address",
          "name": "trader",
          "type": "address"
        },
        {
          "internalType": "uint256",
          "name": "collateral",
          "type": "uint256"
        },
        {
          "internalType": "int256",
          "name": "netPnl",
          "type": "int256"
        }
      ],
      "name": "settlePosition",
      "outputs": [],
      "stateMutability": "nonpayable",
      "type": "function"
    },
    {
      "inputs": [],
      "name": "sharePrice",
      "outputs": [
        {
          "internalType": "uint256",
          "name": "",
          "type": "uint256"
        }
      ],
      "stateMutability": "view",
      "type": "function"
    },
    {
      "inputs": [
        {
          "internalType": "address",
          "name": "",
          "type": "address"
        }
      ],
      "name": "shares",
      "outputs": [
        {
          "internalType": "uint256",
          "name": "",
          "type": "uint256"
        }
      ],
      "stateMutability": "view",
      "type": "function"
    },
    {
      "inputs": [],
      "name": "symbol",
      "outputs": [
        {
          "internalType": "string",
          "name": "",
          "type": "string"
        }
      ],
      "stateMutability": "view",
      "type": "function"
    },
    {
      "inputs": [],
      "name": "totalAssets",
      "outputs": [
        {
          "internalType": "uint256",
          "name": "",
          "type": "uint256"
        }
      ],
      "stateMutability": "view",
      "type": "function"
    },
    {
      "inputs": [],
      "name": "totalBacking",
      "outputs": [
        {
          "internalType": "uint256",
          "name": "",
          "type": "uint256"
        }
      ],
      "stateMutability": "view",
      "type": "function"
    },
    {
      "inputs": [],
      "name": "totalShares",
      "outputs": [
        {
          "internalType": "uint256",
          "name": "",
          "type": "uint256"
        }
      ],
      "stateMutability": "view",
      "type": "function"
    },
    {
      "inputs": [],
      "name": "usdc",
      "outputs": [
        {
          "internalType": "contract IERC20",
          "name": "",
          "type": "address"
        }
      ],
      "stateMutability": "view",
      "type": "function"
    },
    {
      "inputs": [],
      "name": "utilization",
      "outputs": [
        {
          "internalType": "uint256",
          "name": "",
          "type": "uint256"
        }
      ],
      "stateMutability": "view",
      "type": "function"
    },
    {
      "inputs": [
        {
          "internalType": "uint256",
          "name": "shareAmount",
          "type": "uint256"
        }
      ],
      "name": "withdraw",
      "outputs": [],
      "stateMutability": "nonpayable",
      "type": "function"
    }
  ],
  "bytecode": "0x60a0346100e457601f61187538819003918201601f19168301916001600160401b038311848410176100e85780849260409485528339810103126100e457610052602061004b836100fc565b92016100fc565b60015f81905562093a8060055564e8d4a51000600855652d79883d2000600955600a805461ff0019166101001790556001600160a01b0392831660805280546001600160a01b031916919092161790556040516117649081610111823960805181818161056c015281816109c001528181610b5601528181610d5901528181610f530152818161109401526112b90152f35b5f80fd5b634e487b7160e01b5f52604160045260245ffd5b51906001600160a01b03821682036100e45756fe6080604090808252600480361015610015575f80fd5b5f3560e01c91826301e1d1141461149f575081630420592e146113e557816306fdde03146113915781630905f5601461136e57816309c0533b146111ac5781630bfedc8c14611134578163118f304314610e6e57816319262d3014610e405781632e1a7d4d14610c7a578163313ce56714610c5f57816335b8e71314610a325781633a98ef3914610a145781633af9e669146109ef5781633e413bee146109ac57816346b00d04146109775781635392fd1c1461095157816361b01b5d146109335781636e93ae2b146108a8578163743753591461086d57816382e5310c1461084f578163872697291461083357816395d89b41146107f25781639f04586c14610761578163b6b55f2514610482578163ba9a7a5614610466578163c5b1c7d0146103c7578163c771c39014610313578163ce7c2ac2146102dc578163ea21cd92146102b9578163eb2cd2581461029b578163ee947a7c1461027d578163ef952568146101b6575063f2f4eb261461018b575f80fd5b346101b2575f3660031901126101b25760015490516001600160a01b039091168152602090f35b5f80fd5b82346101b2575f3660031901126101b2576001548151638da5cb5b60e01b81526001600160a01b039160209082908690829086165afa908115610273575f91610244575b501633036102375761010061ffff19600a541617600a557f70b9dcaceb756943ac1a4f48b8df9ea82fbb012b87e405cba4ed77d1ded0df415f80a1005b51635fc483c560e01b8152fd5b610266915060203d60201161026c575b61025e81836114e9565b810190611568565b846101fa565b503d610254565b83513d5f823e3d90fd5b82346101b2575f3660031901126101b2576020906005549051908152f35b82346101b2575f3660031901126101b2576020906007549051908152f35b82346101b2575f3660031901126101b2576020906102d56116de565b9051908152f35b82346101b25760203660031901126101b2576020906001600160a01b03610301611552565b165f5260038252805f20549051908152f35b9050346101b25760203660031901126101b2576001548251638da5cb5b60e01b8152823593916001600160a01b03919060209082908690829086165afa908115610273575f916103a8575b501633036102375762278d008311610377576005839055005b906020606492519162461bcd60e51b8352820152600b60248201526a4d6178203330206461797360a81b6044820152fd5b6103c1915060203d60201161026c5761025e81836114e9565b5f61035e565b82346101b2575f3660031901126101b2576001548151638da5cb5b60e01b81526001600160a01b039160209082908690829086165afa908115610273575f91610447575b5016330361023757600161ffff19600a541617600a557f9e91804b7b70a36dcecd9afc85507eb02441c485502f58d0e68589aa50b8226a5f80a1005b610460915060203d60201161026c5761025e81836114e9565b8461040b565b82346101b2575f3660031901126101b257602090516103e88152f35b82346101b257602090816003193601126101b2578235916104a161170d565b82156107515760ff600a5460081c161561074157600654906104c38483611587565b60095410610731576002549182158015610729575b1561071557506103e891828511156106d2576103e71985018581116106bf579281018091116106ac576002555b8115610673576002548481156106685761053861053d92335f5260038552610533875f205460065490611644565b611657565b611587565b600854106106585782516323b872dd60e01b81523386820152306024820152604481018590529481866064815f7f00000000000000000000000000000000000000000000000000000000000000006001600160a01b03165af195861561064e577f90890809c654f11d6e72a28fa60149770a0d11ec6c92319d6ceb2bb0a4ea1a1595966105d1915f91610621575b506115cd565b6105dd83600254611587565b600255335f5260038252835f206105f5848254611587565b905561060386600654611587565b600655335f52815242835f205582519485528401523392a260015f55005b6106419150843d8611610647575b61063981836114e9565b8101906115b5565b886105cb565b503d61062f565b84513d5f823e3d90fd5b8251631823752b60e11b81528590fd5b61053d91505f611587565b8460649184519162461bcd60e51b8352820152601460248201527353686172657320776f756c64206265207a65726f60601b6044820152fd5b601186634e487b7160e01b5f525260245ffd5b601187634e487b7160e01b5f525260245ffd5b835162461bcd60e51b8152808701839052601760248201527f4669727374206465706f73697420746f6f20736d616c6c0000000000000000006044820152606490fd5b610533610723929386611644565b90610505565b5080156104d8565b82516336a00c8b60e11b81528590fd5b8151630e2f42c960e31b81528490fd5b8151631f2a200560e01b81528490fd5b9050346101b25760203660031901126101b2578035918215158093036101b2576001548151638da5cb5b60e01b81526001600160a01b039160209082908690829086165afa908115610273575f916107d3575b5016330361023757600a805461ff001916600885901b61ff0016179055005b6107ec915060203d60201161026c5761025e81836114e9565b5f6107b4565b82346101b2575f3660031901126101b257805161082f91610812826114b9565b600682526518d59055531560d21b6020830152519182918261150b565b0390f35b82346101b2575f3660031901126101b2576020906102d56116ab565b82346101b2575f3660031901126101b2576020906008549051908152f35b82346101b2575f3660031901126101b2576020906006546007548082115f1461089f576102d5916115a8565b51908152f35b50505f90610899565b82346101b25760203660031901126101b2576001548151637622567960e11b81526001600160a01b039160209082908690829086165afa908115610273575f91610914575b50163303610907576109028235600754611587565b600755005b5163e9e3f4ad60e01b8152fd5b61092d915060203d60201161026c5761025e81836114e9565b846108ed565b82346101b2575f3660031901126101b2576020906009549051908152f35b82346101b2575f3660031901126101b25760209060ff600a5460081c1690519015158152f35b82346101b25760203660031901126101b2576020916001600160a01b0361099c611552565b165f528252805f20549051908152f35b82346101b2575f3660031901126101b257517f00000000000000000000000000000000000000000000000000000000000000006001600160a01b03168152602090f35b82346101b25760203660031901126101b2576020906102d5610a0f611552565b611675565b82346101b2575f3660031901126101b2576020906002549051908152f35b82346101b257602090816003193601126101b2576001548151637622567960e11b81526001600160a01b0391821694803593929091858184818a5afa90811561064e579082915f91610c42575b50163303610c33578251631db0457960e11b81528281018590529083826024818a5afa91821561064e575f92610c02575b5081610ae2575b7f86c46efee0a638b418fa0952cd587c78b75b8bc989e7a7c13a86d448ec34a08486868651908152a1005b85839497610af2846006546115a8565b60065588516361d027b360e01b815294859182905afa8015610bf857610b529487945f92610bd7575b50885163a9059cbb60e01b81526001600160a01b03909216908201908152602081019390935293849283915f918391604090910190565b03927f0000000000000000000000000000000000000000000000000000000000000000165af190811561064e577f86c46efee0a638b418fa0952cd587c78b75b8bc989e7a7c13a86d448ec34a0849491610bb2915f91610bba57506115cd565b848080610ab7565b610bd19150853d87116106475761063981836114e9565b866105cb565b5f919250610bf190863d881161026c5761025e81836114e9565b9190610b1b565b87513d5f823e3d90fd5b9091508381813d8311610c2c575b610c1a81836114e9565b810103126101b2578501519087610ab0565b503d610c10565b50905163e9e3f4ad60e01b8152fd5b610c599150873d891161026c5761025e81836114e9565b88610a7f565b82346101b2575f3660031901126101b2576020905160068152f35b82346101b257602090816003193601126101b2578235610c9861170d565b801561075157335f526003835280825f205410610e305760ff600a541615610e03575b60065492610cc98483611644565b610cd66002548092611657565b946007548082115f14610dfb57610cec916115a8565b8511610deb5784610d5496610d028585946115a8565b600255335f5260038352855f20610d1a8682546115a8565b9055610d28826006546115a8565b600655855163a9059cbb60e01b8152339181019182526020820192909252909687918291604090910190565b03815f7f00000000000000000000000000000000000000000000000000000000000000006001600160a01b03165af1948515610273577ff279e6a1f5e320cca91135676d9cb6e44ca8a08c0b88342bcdb1144f6511b5689495610dbd915f91610dce57506115cd565b82519485528401523392a260015f55005b610de59150833d85116106475761063981836114e9565b876105cb565b835163bb55fd2760e01b81528690fd5b50505f610cec565b335f52838352610e19825f205460055490611587565b421015610cbb5781516354e21be360e11b81528490fd5b8151633999656760e01b81528490fd5b82346101b25760203660031901126101b257602090610e65610e60611552565b61160b565b90519015158152f35b82346101b25760603660031901126101b257610e88611552565b906024356044359260018060a01b0391826001541684518091637622567960e11b8252818960209485935afa90811561112a579085915f9161110d575b501633036110fd5760075482808211156110f557610ee2916115a8565b6007555f8612610ffa5760065460075480821115610ff357610f0490826115a8565b8711610fe35786610f14916115a8565b6006558083610f238885611587565b875163a9059cbb60e01b81526001600160a01b03909216998201998a5260208a0152978890819060400103815f887f0000000000000000000000000000000000000000000000000000000000000000165af1968715610fd9577fa9c6720706505784683f09b0975d4f1a78dfdeebc7fead8936439abd5b96f0219697610faf915f91610fbc57506115cd565b84519687528601521692a2005b610fd39150833d85116106475761063981836114e9565b896105cb565b85513d5f823e3d90fd5b855163bb55fd2760e01b81528890fd5b505f610f04565b600160ff1b86146106bf575f86900382811061104957507fa9c6720706505784683f09b0975d4f1a78dfdeebc7fead8936439abd5b96f02195965061104182600654611587565b600655610faf565b836110648261105b8594600654611587565b600655856115a8565b875163a9059cbb60e01b81526001600160a01b03909216998201998a5260208a0152978890819060400103815f887f0000000000000000000000000000000000000000000000000000000000000000165af1968715610fd9577fa9c6720706505784683f09b0975d4f1a78dfdeebc7fead8936439abd5b96f02196976110f0915f91610fbc57506115cd565b610faf565b50505f610ee2565b845163e9e3f4ad60e01b81528790fd5b6111249150833d851161026c5761025e81836114e9565b89610ec5565b86513d5f823e3d90fd5b82346101b257806003193601126101b2576001548151638da5cb5b60e01b81526001600160a01b039160209082908690829086165afa908115610273575f9161118d575b50163303610237575035600855602435600955005b6111a6915060203d60201161026c5761025e81836114e9565b84611178565b9050346101b25760803660031901126101b2576111c7611552565b602435926001600160a01b0380851693928486036101b257604435936064359083600154169085518092637622567960e11b8252818360209586935afa908115610bf8579086915f91611351575b5016330361134357600754878082111561133b57611232916115a8565b60075561124a61124284896115a8565b600654611587565b60065582611286575b507f3046bb5fb86890e6f3c32d7527b763c83ee73588c10f9533662078355cc634fa9596975084519687528601521692a3005b855163a9059cbb60e01b81526001600160a01b039099169089019081526020810183905281908990819060400103815f887f0000000000000000000000000000000000000000000000000000000000000000165af1978815610fd9577f3046bb5fb86890e6f3c32d7527b763c83ee73588c10f9533662078355cc634fa969798611316915f9161131e57506115cd565b879695611253565b6113359150833d85116106475761063981836114e9565b5f6105cb565b50505f611232565b855163e9e3f4ad60e01b8152fd5b6113689150843d861161026c5761025e81836114e9565b5f611215565b82346101b2575f3660031901126101b25760209060ff600a541690519015158152f35b82346101b2575f3660031901126101b257805161082f916113b1826114b9565b601882527f436f6e666964656e7469616c205661756c7420536861726500000000000000006020830152519182918261150b565b82346101b25760203660031901126101b2576001548151637622567960e11b8152833593916001600160a01b03919060209082908590829086165afa90811561064e575f91611480575b50163303611472577f86c46efee0a638b418fa0952cd587c78b75b8bc989e7a7c13a86d448ec34a0846020848461146882600654611587565b60065551908152a1005b905163e9e3f4ad60e01b8152fd5b611499915060203d60201161026c5761025e81836114e9565b8561142f565b346101b2575f3660031901126101b2576020906006548152f35b6040810190811067ffffffffffffffff8211176114d557604052565b634e487b7160e01b5f52604160045260245ffd5b90601f8019910116810190811067ffffffffffffffff8211176114d557604052565b602080825282518183018190529093925f5b82811061153e57505060409293505f838284010152601f8019910116010190565b81810186015184820160400152850161151d565b600435906001600160a01b03821682036101b257565b908160209103126101b257516001600160a01b03811681036101b25790565b9190820180921161159457565b634e487b7160e01b5f52601160045260245ffd5b9190820391821161159457565b908160209103126101b2575180151581036101b25790565b156115d457565b60405162461bcd60e51b815260206004820152600f60248201526e151c985b9cd9995c8819985a5b1959608a1b6044820152606490fd5b60ff600a541661163e576001600160a01b03165f9081526004602052604090205460055461163891611587565b42101590565b50600190565b8181029291811591840414171561159457565b8115611661570490565b634e487b7160e01b5f52601260045260245ffd5b60025480156116a5576116a29160018060a01b03165f52600360205261053360405f205460065490611644565b90565b50505f90565b60025480156116d65760065490620f424091828102928184041490151715611594576116a291611657565b50620f424090565b6006548015611708576007549061271091828102928184041490151715611594576116a291611657565b505f90565b60025f541461171c5760025f55565b604051633ee5aeb560e01b8152600490fdfea264697066735822122048891b955e2044155791904e8ea00fb412793669e30411c55971650622e759d264736f6c63430008180033",
  "linkReferences": {},
  "deployedLinkReferences": {},
  "immutableReferences": {
    "4135": [
      {
        "length": 32,
        "start": 1388
      },
      {
        "length": 32,
        "start": 2496
      },
      {
        "length": 32,
        "start": 2902
      },
      {
        "length": 32,
        "start": 3417
      },
      {
        "length": 32,
        "start": 3923
      },
      {
        "length": 32,
        "start": 4244
      },
      {
        "length": 32,
        "start": 4793
      }
    ]
  },
  "inputSourceName": "project/src/ConfidentialVault.sol",
  "buildInfoId": "solc-0_8_24-60f953a579e55ea861bf2ee8ebdfc0b5bda7b680"
}