{
  "_format": "hh3-artifact-1",
  "contractName": "ConfidentialTrading",
  "sourceName": "src/ConfidentialTrading.sol",
  "abi": [
    {
      "inputs": [
        {
          "internalType": "address",
          "name": "_usdc",
          "type": "address"
        },
        {
          "internalType": "address",
          "name": "_core",
          "type": "address"
        },
        {
          "internalType": "address",
          "name": "_vault",
          "type": "address"
        },
        {
          "internalType": "address",
          "name": "_oracle",
          "type": "address"
        }
      ],
      "stateMutability": "nonpayable",
      "type": "constructor"
    },
    {
      "inputs": [],
      "name": "ReentrancyGuardReentrantCall",
      "type": "error"
    },
    {
      "anonymous": false,
      "inputs": [
        {
          "indexed": true,
          "internalType": "uint256",
          "name": "positionId",
          "type": "uint256"
        },
        {
          "indexed": true,
          "internalType": "address",
          "name": "trader",
          "type": "address"
        },
        {
          "indexed": false,
          "internalType": "uint256",
          "name": "amount",
          "type": "uint256"
        },
        {
          "indexed": false,
          "internalType": "uint256",
          "name": "newLiquidationPrice",
          "type": "uint256"
        }
      ],
      "name": "CollateralAdded",
      "type": "event"
    },
    {
      "anonymous": false,
      "inputs": [
        {
          "indexed": true,
          "internalType": "uint256",
          "name": "positionId",
          "type": "uint256"
        },
        {
          "indexed": true,
          "internalType": "address",
          "name": "trader",
          "type": "address"
        },
        {
          "indexed": false,
          "internalType": "uint256",
          "name": "amount",
          "type": "uint256"
        },
        {
          "indexed": false,
          "internalType": "uint256",
          "name": "newLiquidationPrice",
          "type": "uint256"
        }
      ],
      "name": "CollateralRemoved",
      "type": "event"
    },
    {
      "anonymous": false,
      "inputs": [
        {
          "indexed": true,
          "internalType": "uint256",
          "name": "orderId",
          "type": "uint256"
        }
      ],
      "name": "OrderCancelled",
      "type": "event"
    },
    {
      "anonymous": false,
      "inputs": [
        {
          "indexed": true,
          "internalType": "uint256",
          "name": "orderId",
          "type": "uint256"
        },
        {
          "indexed": true,
          "internalType": "uint256",
          "name": "positionId",
          "type": "uint256"
        }
      ],
      "name": "OrderExecuted",
      "type": "event"
    },
    {
      "anonymous": false,
      "inputs": [
        {
          "indexed": true,
          "internalType": "uint256",
          "name": "orderId",
          "type": "uint256"
        },
        {
          "indexed": true,
          "internalType": "address",
          "name": "trader",
          "type": "address"
        },
        {
          "indexed": false,
          "internalType": "bytes32",
          "name": "pairId",
          "type": "bytes32"
        },
        {
          "indexed": false,
          "internalType": "uint8",
          "name": "orderType",
          "type": "uint8"
        },
        {
          "indexed": false,
          "internalType": "uint256",
          "name": "triggerPrice",
          "type": "uint256"
        }
      ],
      "name": "OrderPlaced",
      "type": "event"
    },
    {
      "anonymous": false,
      "inputs": [
        {
          "indexed": true,
          "internalType": "uint256",
          "name": "positionId",
          "type": "uint256"
        },
        {
          "indexed": true,
          "internalType": "address",
          "name": "trader",
          "type": "address"
        },
        {
          "indexed": false,
          "internalType": "uint256",
          "name": "exitPrice",
          "type": "uint256"
        },
        {
          "indexed": false,
          "internalType": "int256",
          "name": "pnl",
          "type": "int256"
        }
      ],
      "name": "PositionClosed",
      "type": "event"
    },
    {
      "anonymous": false,
      "inputs": [
        {
          "indexed": true,
          "internalType": "uint256",
          "name": "positionId",
          "type": "uint256"
        },
        {
          "indexed": true,
          "internalType": "address",
          "name": "trader",
          "type": "address"
        },
        {
          "indexed": false,
          "internalType": "uint256",
          "name": "additionalSizeUsd",
          "type": "uint256"
        },
        {
          "indexed": false,
          "internalType": "uint256",
          "name": "newEntryPrice",
          "type": "uint256"
        },
        {
          "indexed": false,
          "internalType": "uint256",
          "name": "newLiquidationPrice",
          "type": "uint256"
        }
      ],
      "name": "PositionIncreased",
      "type": "event"
    },
    {
      "anonymous": false,
      "inputs": [
        {
          "indexed": true,
          "internalType": "uint256",
          "name": "positionId",
          "type": "uint256"
        },
        {
          "indexed": true,
          "internalType": "address",
          "name": "trader",
          "type": "address"
        },
        {
          "indexed": false,
          "internalType": "uint256",
          "name": "executionPrice",
          "type": "uint256"
        },
        {
          "indexed": true,
          "internalType": "address",
          "name": "liquidator",
          "type": "address"
        },
        {
          "indexed": false,
          "internalType": "uint256",
          "name": "reward",
          "type": "uint256"
        }
      ],
      "name": "PositionLiquidated",
      "type": "event"
    },
    {
      "anonymous": false,
      "inputs": [
        {
          "indexed": true,
          "internalType": "uint256",
          "name": "positionId",
          "type": "uint256"
        },
        {
          "indexed": true,
          "internalType": "address",
          "name": "trader",
          "type": "address"
        },
        {
          "indexed": false,
          "internalType": "bytes32",
          "name": "pairId",
          "type": "bytes32"
        },
        {
          "indexed": false,
          "internalType": "bool",
          "name": "isLong",
          "type": "bool"
        },
        {
          "indexed": false,
          "internalType": "uint256",
          "name": "sizeUsd",
          "type": "uint256"
        },
        {
          "indexed": false,
          "internalType": "uint256",
          "name": "entryPrice",
          "type": "uint256"
        },
        {
          "indexed": false,
          "internalType": "uint256",
          "name": "leverage",
          "type": "uint256"
        }
      ],
      "name": "PositionOpened",
      "type": "event"
    },
    {
      "anonymous": false,
      "inputs": [
        {
          "indexed": true,
          "internalType": "uint256",
          "name": "positionId",
          "type": "uint256"
        },
        {
          "indexed": true,
          "internalType": "address",
          "name": "trader",
          "type": "address"
        },
        {
          "indexed": false,
          "internalType": "uint256",
          "name": "closeSizeUsd",
          "type": "uint256"
        },
        {
          "indexed": false,
          "internalType": "uint256",
          "name": "exitPrice",
          "type": "uint256"
        },
        {
          "indexed": false,
          "internalType": "int256",
          "name": "pnl",
          "type": "int256"
        }
      ],
      "name": "PositionPartialClose",
      "type": "event"
    },
    {
      "anonymous": false,
      "inputs": [
        {
          "indexed": true,
          "internalType": "uint256",
          "name": "positionId",
          "type": "uint256"
        },
        {
          "indexed": false,
          "internalType": "bool",
          "name": "isTakeProfit",
          "type": "bool"
        },
        {
          "indexed": false,
          "internalType": "uint256",
          "name": "executionPrice",
          "type": "uint256"
        }
      ],
      "name": "TPSLTriggered",
      "type": "event"
    },
    {
      "anonymous": false,
      "inputs": [
        {
          "indexed": true,
          "internalType": "uint256",
          "name": "orderId",
          "type": "uint256"
        },
        {
          "indexed": false,
          "internalType": "uint256",
          "name": "sliceNumber",
          "type": "uint256"
        },
        {
          "indexed": false,
          "internalType": "uint256",
          "name": "sizeUsd",
          "type": "uint256"
        }
      ],
      "name": "TWAPSliceExecuted",
      "type": "event"
    },
    {
      "inputs": [],
      "name": "MIN_COLLATERAL",
      "outputs": [
        {
          "internalType": "uint256",
          "name": "",
          "type": "uint256"
        }
      ],
      "stateMutability": "view",
      "type": "function"
    },
    {
      "inputs": [],
      "name": "MIN_POSITION_SIZE",
      "outputs": [
        {
          "internalType": "uint256",
          "name": "",
          "type": "uint256"
        }
      ],
      "stateMutability": "view",
      "type": "function"
    },
    {
      "inputs": [
        {
          "internalType": "uint256",
          "name": "positionId",
          "type": "uint256"
        },
        {
          "internalType": "uint256",
          "name": "amount",
          "type": "uint256"
        }
      ],
      "name": "addCollateral",
      "outputs": [],
      "stateMutability": "nonpayable",
      "type": "function"
    },
    {
      "inputs": [
        {
          "internalType": "uint256",
          "name": "orderId",
          "type": "uint256"
        }
      ],
      "name": "cancelOrder",
      "outputs": [],
      "stateMutability": "nonpayable",
      "type": "function"
    },
    {
      "inputs": [
        {
          "internalType": "uint256",
          "name": "positionId",
          "type": "uint256"
        },
        {
          "internalType": "bytes[]",
          "name": "updateData",
          "type": "bytes[]"
        }
      ],
      "name": "closePositionInstantly",
      "outputs": [],
      "stateMutability": "payable",
      "type": "function"
    },
    {
      "inputs": [
        {
          "internalType": "uint256",
          "name": "positionId",
          "type": "uint256"
        },
        {
          "internalType": "uint256",
          "name": "closePercent",
          "type": "uint256"
        },
        {
          "internalType": "bytes[]",
          "name": "updateData",
          "type": "bytes[]"
        }
      ],
      "name": "closePositionPartial",
      "outputs": [],
      "stateMutability": "payable",
      "type": "function"
    },
    {
      "inputs": [],
      "name": "core",
      "outputs": [
        {
          "internalType": "contract ConfidentialCore",
          "name": "",
          "type": "address"
        }
      ],
      "stateMutability": "view",
      "type": "function"
    },
    {
      "inputs": [
        {
          "internalType": "uint256",
          "name": "positionId",
          "type": "uint256"
        }
      ],
      "name": "createCloseRequest",
      "outputs": [
        {
          "internalType": "uint256",
          "name": "orderId",
          "type": "uint256"
        }
      ],
      "stateMutability": "payable",
      "type": "function"
    },
    {
      "inputs": [
        {
          "internalType": "bytes32",
          "name": "pairId",
          "type": "bytes32"
        },
        {
          "internalType": "bool",
          "name": "isLong",
          "type": "bool"
        },
        {
          "internalType": "uint256",
          "name": "totalSizeUsd",
          "type": "uint256"
        },
        {
          "internalType": "uint256",
          "name": "leverage",
          "type": "uint256"
        },
        {
          "internalType": "uint256",
          "name": "slices",
          "type": "uint256"
        },
        {
          "internalType": "uint256",
          "name": "intervalSec",
          "type": "uint256"
        },
        {
          "internalType": "uint256",
          "name": "tpPrice",
          "type": "uint256"
        },
        {
          "internalType": "uint256",
          "name": "slPrice",
          "type": "uint256"
        }
      ],
      "name": "createTwapOrder",
      "outputs": [
        {
          "internalType": "uint256",
          "name": "orderId",
          "type": "uint256"
        }
      ],
      "stateMutability": "payable",
      "type": "function"
    },
    {
      "inputs": [
        {
          "internalType": "uint256[]",
          "name": "positionIds",
          "type": "uint256[]"
        },
        {
          "internalType": "bytes[]",
          "name": "updateData",
          "type": "bytes[]"
        }
      ],
      "name": "executeADL",
      "outputs": [],
      "stateMutability": "payable",
      "type": "function"
    },
    {
      "inputs": [
        {
          "internalType": "uint256",
          "name": "orderId",
          "type": "uint256"
        },
        {
          "internalType": "bytes[]",
          "name": "updateData",
          "type": "bytes[]"
        }
      ],
      "name": "executeOrder",
      "outputs": [],
      "stateMutability": "payable",
      "type": "function"
    },
    {
      "inputs": [
        {
          "internalType": "uint256",
          "name": "positionId",
          "type": "uint256"
        },
        {
          "internalType": "bytes[]",
          "name": "updateData",
          "type": "bytes[]"
        }
      ],
      "name": "executeTPSL",
      "outputs": [],
      "stateMutability": "payable",
      "type": "function"
    },
    {
      "inputs": [],
      "name": "executionBufferBps",
      "outputs": [
        {
          "internalType": "uint256",
          "name": "",
          "type": "uint256"
        }
      ],
      "stateMutability": "view",
      "type": "function"
    },
    {
      "inputs": [
        {
          "internalType": "uint256",
          "name": "",
          "type": "uint256"
        }
      ],
      "name": "hasActiveCloseRequest",
      "outputs": [
        {
          "internalType": "bool",
          "name": "",
          "type": "bool"
        }
      ],
      "stateMutability": "view",
      "type": "function"
    },
    {
      "inputs": [
        {
          "internalType": "uint256",
          "name": "positionId",
          "type": "uint256"
        },
        {
          "internalType": "uint256",
          "name": "additionalSizeUsd",
          "type": "uint256"
        },
        {
          "internalType": "uint256",
          "name": "additionalLeverage",
          "type": "uint256"
        },
        {
          "internalType": "uint256",
          "name": "acceptablePrice",
          "type": "uint256"
        },
        {
          "internalType": "bytes[]",
          "name": "updateData",
          "type": "bytes[]"
        }
      ],
      "name": "increasePosition",
      "outputs": [],
      "stateMutability": "payable",
      "type": "function"
    },
    {
      "inputs": [
        {
          "internalType": "uint256",
          "name": "positionId",
          "type": "uint256"
        },
        {
          "internalType": "bytes[]",
          "name": "updateData",
          "type": "bytes[]"
        }
      ],
      "name": "liquidate",
      "outputs": [],
      "stateMutability": "payable",
      "type": "function"
    },
    {
      "inputs": [],
      "name": "liquidationRewardBps",
      "outputs": [
        {
          "internalType": "uint256",
          "name": "",
          "type": "uint256"
        }
      ],
      "stateMutability": "view",
      "type": "function"
    },
    {
      "inputs": [],
      "name": "maxOrderAge",
      "outputs": [
        {
          "internalType": "uint256",
          "name": "",
          "type": "uint256"
        }
      ],
      "stateMutability": "view",
      "type": "function"
    },
    {
      "inputs": [],
      "name": "nextOrderId",
      "outputs": [
        {
          "internalType": "uint256",
          "name": "",
          "type": "uint256"
        }
      ],
      "stateMutability": "view",
      "type": "function"
    },
    {
      "inputs": [],
      "name": "nextPositionId",
      "outputs": [
        {
          "internalType": "uint256",
          "name": "",
          "type": "uint256"
        }
      ],
      "stateMutability": "view",
      "type": "function"
    },
    {
      "inputs": [],
      "name": "oracle",
      "outputs": [
        {
          "internalType": "contract PythPriceOracle",
          "name": "",
          "type": "address"
        }
      ],
      "stateMutability": "view",
      "type": "function"
    },
    {
      "inputs": [
        {
          "internalType": "uint256",
          "name": "",
          "type": "uint256"
        }
      ],
      "name": "pendingOrders",
      "outputs": [
        {
          "internalType": "bytes32",
          "name": "pairId",
          "type": "bytes32"
        },
        {
          "internalType": "address",
          "name": "trader",
          "type": "address"
        },
        {
          "internalType": "bool",
          "name": "isLong",
          "type": "bool"
        },
        {
          "internalType": "uint256",
          "name": "sizeUsd",
          "type": "uint256"
        },
        {
          "internalType": "uint256",
          "name": "collateral",
          "type": "uint256"
        },
        {
          "internalType": "uint256",
          "name": "leverage",
          "type": "uint256"
        },
        {
          "internalType": "uint256",
          "name": "triggerPrice",
          "type": "uint256"
        },
        {
          "internalType": "uint8",
          "name": "orderType",
          "type": "uint8"
        },
        {
          "internalType": "bool",
          "name": "isActive",
          "type": "bool"
        },
        {
          "internalType": "uint256",
          "name": "createdAt",
          "type": "uint256"
        },
        {
          "internalType": "uint256",
          "name": "positionId",
          "type": "uint256"
        },
        {
          "internalType": "uint256",
          "name": "feePaid",
          "type": "uint256"
        },
        {
          "internalType": "uint256",
          "name": "executionFee",
          "type": "uint256"
        },
        {
          "internalType": "uint256",
          "name": "tpPrice",
          "type": "uint256"
        },
        {
          "internalType": "uint256",
          "name": "slPrice",
          "type": "uint256"
        },
        {
          "internalType": "uint256",
          "name": "twapSlices",
          "type": "uint256"
        },
        {
          "internalType": "uint256",
          "name": "twapInterval",
          "type": "uint256"
        },
        {
          "internalType": "uint256",
          "name": "twapExecuted",
          "type": "uint256"
        },
        {
          "internalType": "uint256",
          "name": "twapLastExec",
          "type": "uint256"
        }
      ],
      "stateMutability": "view",
      "type": "function"
    },
    {
      "inputs": [
        {
          "internalType": "bytes32",
          "name": "pairId",
          "type": "bytes32"
        },
        {
          "internalType": "bool",
          "name": "isLong",
          "type": "bool"
        },
        {
          "internalType": "uint256",
          "name": "sizeUsd",
          "type": "uint256"
        },
        {
          "internalType": "uint256",
          "name": "leverage",
          "type": "uint256"
        },
        {
          "internalType": "uint256",
          "name": "tpPrice",
          "type": "uint256"
        },
        {
          "internalType": "uint256",
          "name": "slPrice",
          "type": "uint256"
        },
        {
          "internalType": "uint256",
          "name": "acceptablePrice",
          "type": "uint256"
        },
        {
          "internalType": "bytes[]",
          "name": "updateData",
          "type": "bytes[]"
        }
      ],
      "name": "placeMarketOrder",
      "outputs": [
        {
          "internalType": "uint256",
          "name": "posId",
          "type": "uint256"
        }
      ],
      "stateMutability": "payable",
      "type": "function"
    },
    {
      "inputs": [
        {
          "internalType": "bytes32",
          "name": "pairId",
          "type": "bytes32"
        },
        {
          "internalType": "bool",
          "name": "isLong",
          "type": "bool"
        },
        {
          "internalType": "uint256",
          "name": "sizeUsd",
          "type": "uint256"
        },
        {
          "internalType": "uint256",
          "name": "leverage",
          "type": "uint256"
        },
        {
          "internalType": "uint256",
          "name": "triggerPrice",
          "type": "uint256"
        },
        {
          "internalType": "uint8",
          "name": "orderType",
          "type": "uint8"
        },
        {
          "internalType": "uint256",
          "name": "tpPrice",
          "type": "uint256"
        },
        {
          "internalType": "uint256",
          "name": "slPrice",
          "type": "uint256"
        }
      ],
      "name": "placeOrder",
      "outputs": [
        {
          "internalType": "uint256",
          "name": "orderId",
          "type": "uint256"
        }
      ],
      "stateMutability": "payable",
      "type": "function"
    },
    {
      "inputs": [
        {
          "internalType": "uint256",
          "name": "",
          "type": "uint256"
        }
      ],
      "name": "positions",
      "outputs": [
        {
          "internalType": "bytes32",
          "name": "pairId",
          "type": "bytes32"
        },
        {
          "internalType": "address",
          "name": "trader",
          "type": "address"
        },
        {
          "internalType": "bool",
          "name": "isLong",
          "type": "bool"
        },
        {
          "internalType": "uint256",
          "name": "sizeUsd",
          "type": "uint256"
        },
        {
          "internalType": "uint256",
          "name": "collateral",
          "type": "uint256"
        },
        {
          "internalType": "uint256",
          "name": "entryPrice",
          "type": "uint256"
        },
        {
          "internalType": "uint256",
          "name": "leverage",
          "type": "uint256"
        },
        {
          "internalType": "uint256",
          "name": "liquidationPrice",
          "type": "uint256"
        },
        {
          "internalType": "uint256",
          "name": "openedAt",
          "type": "uint256"
        },
        {
          "internalType": "bool",
          "name": "isOpen",
          "type": "bool"
        },
        {
          "internalType": "uint256",
          "name": "tpPrice",
          "type": "uint256"
        },
        {
          "internalType": "uint256",
          "name": "slPrice",
          "type": "uint256"
        },
        {
          "internalType": "int256",
          "name": "entryFundingIndex",
          "type": "int256"
        },
        {
          "internalType": "uint256",
          "name": "lastRolloverSettled",
          "type": "uint256"
        }
      ],
      "stateMutability": "view",
      "type": "function"
    },
    {
      "inputs": [
        {
          "internalType": "uint256",
          "name": "positionId",
          "type": "uint256"
        },
        {
          "internalType": "uint256",
          "name": "amount",
          "type": "uint256"
        },
        {
          "internalType": "bytes[]",
          "name": "updateData",
          "type": "bytes[]"
        }
      ],
      "name": "removeCollateral",
      "outputs": [],
      "stateMutability": "payable",
      "type": "function"
    },
    {
      "inputs": [],
      "name": "rolloverFeePerHour",
      "outputs": [
        {
          "internalType": "uint256",
          "name": "",
          "type": "uint256"
        }
      ],
      "stateMutability": "view",
      "type": "function"
    },
    {
      "inputs": [
        {
          "internalType": "uint256",
          "name": "_bps",
          "type": "uint256"
        }
      ],
      "name": "setExecutionBufferBps",
      "outputs": [],
      "stateMutability": "nonpayable",
      "type": "function"
    },
    {
      "inputs": [
        {
          "internalType": "uint256",
          "name": "_bps",
          "type": "uint256"
        }
      ],
      "name": "setLiquidationRewardBps",
      "outputs": [],
      "stateMutability": "nonpayable",
      "type": "function"
    },
    {
      "inputs": [
        {
          "internalType": "uint256",
          "name": "_seconds",
          "type": "uint256"
        }
      ],
      "name": "setMaxOrderAge",
      "outputs": [],
      "stateMutability": "nonpayable",
      "type": "function"
    },
    {
      "inputs": [
        {
          "internalType": "uint256",
          "name": "_fee",
          "type": "uint256"
        }
      ],
      "name": "setRolloverFeePerHour",
      "outputs": [],
      "stateMutability": "nonpayable",
      "type": "function"
    },
    {
      "inputs": [
        {
          "internalType": "uint256",
          "name": "positionId",
          "type": "uint256"
        },
        {
          "internalType": "uint256",
          "name": "newTpPrice",
          "type": "uint256"
        },
        {
          "internalType": "uint256",
          "name": "newSlPrice",
          "type": "uint256"
        }
      ],
      "name": "updateTpSl",
      "outputs": [],
      "stateMutability": "nonpayable",
      "type": "function"
    },
    {
      "inputs": [],
      "name": "usdc",
      "outputs": [
        {
          "internalType": "contract IERC20",
          "name": "",
          "type": "address"
        }
      ],
      "stateMutability": "view",
      "type": "function"
    },
    {
      "inputs": [
        {
          "internalType": "address",
          "name": "",
          "type": "address"
        },
        {
          "internalType": "uint256",
          "name": "",
          "type": "uint256"
        }
      ],
      "name": "userOrders",
      "outputs": [
        {
          "internalType": "uint256",
          "name": "",
          "type": "uint256"
        }
      ],
      "stateMutability": "view",
      "type": "function"
    },
    {
      "inputs": [
        {
          "internalType": "address",
          "name": "",
          "type": "address"
        },
        {
          "internalType": "uint256",
          "name": "",
          "type": "uint256"
        }
      ],
      "name": "userPositions",
      "outputs": [
        {
          "internalType": "uint256",
          "name": "",
          "type": "uint256"
        }
      ],
      "stateMutability": "view",
      "type": "function"
    },
    {
      "inputs": [],
      "name": "vault",
      "outputs": [
        {
          "internalType": "contract ConfidentialVault",
          "name": "",
          "type": "address"
        }
      ],
      "stateMutability": "view",
      "type": "function"
    },
    {
      "stateMutability": "payable",
      "type": "receive"
    }
  ],
  "bytecode": "0x608034620000e957601f6200540138819003918201601f19168301916001600160401b03831184841017620000ed57808492608094604052833981010312620000e9576200004d8162000101565b906200005c6020820162000101565b620000786060620000706040850162000101565b930162000101565b9060015f55600160055560016006555f600b556064600c5562093a80600d55601e600e5560018060a01b03928380928160018060a01b031997168760045416176004551685600154161760015516836002541617600255169060035416176003556040516152ea9081620001178239f35b5f80fd5b634e487b7160e01b5f52604160045260245ffd5b51906001600160a01b0382168203620000e95756fe60e080604052600436101561001c575b50361561001a575f80fd5b005b5f905f3560e01c908163233b4d5714612dce575080632a58b33014612db15780632c0e1e9e1461278f5780632c338fed146127605780632e80f9a4146126ce57806331e01f4a1461237d57806333e7dddb14612362578063368dbba81461058e5780633e413bee1461233957806341aa303b146122d3578063514fcac7146121055780635e1b4d99146120c75780636c4c001d146120a95780636fb197f714611da15780637dc0d1d014611d7857806380b7425814611a33578063856652e9146119e757806387f1942314611610578063899346c7146115f25780638fb735ee146115d457806399fbab88146115065780639bfe7e3e1461130d578063a8f35adf146111d6578063ba7ebf5f14611129578063c009687c1461106c578063c09403ac14610d59578063c29433a614610d3b578063c3aaea4e14610bf8578063ee6d519814610bda578063effaed8914610bbc578063f2f4eb2614610b93578063f5ba8a2a1461097d578063f661417014610593578063fa7796481461058e578063fbfa77cf146105655763fd5c77cd0361000f576040366003190112610562576001600160401b0360043581811161055e576101dc903690600401612e7b565b60249260243590811161055a576101f7903690600401612e7b565b91909261020261446f565b60018060a01b0392600195846001541691604051809363aced166160e01b825281600460209687935afa801561054f5787918b91610522575b501633036104e757600296600484886002541660405192838092637510e6c960e11b82525afa80156104dc578b906104a9575b61251c9150111561045957908991816103eb575b50505b84811061029457886001815580f35b61029f81868661445f565b35895260078352604089208960ff918a83600883015416156103e1575088600354169260408254878251809781936331d98b3f60e01b835260048301525afa9384156103d65783946103a4575b50818c015460a01c1615610387578061031b6004610320930154918c6103128488613dd6565b91015490613dee565b613e10565b1315610343579061033d899261033783898961445f565b35614e83565b01610285565b60405162461bcd60e51b815260048101859052601c818501527f43616e6e6f742041444c2061206c6f73696e6720706f736974696f6e000000006044820152606490fd5b8061031b600461039f930154918c6103128785613dd6565b610320565b6103c791945060403d6040116103cf575b6103bf8183612fba565b810190613147565b50925f6102ec565b503d6103b5565b6040513d85823e3d90fd5b939250505061033d565b876003541691823b1561045557604051631df3cbc560e31b815292849284928391829161041b91600484016130a6565b039134905af1801561044a57610432575b80610282565b61043b90612f8b565b61044657875f61042c565b8780fd5b6040513d84823e3d90fd5b8380fd5b60405162461bcd60e51b815260048101859052602260248201527f41444c206f6e6c7920696e20656d657267656e637920287574696c203e203935604482015261252960f01b6064820152608490fd5b508481813d83116104d5575b6104bf8183612fba565b810103126104d15761251c905161026e565b5f80fd5b503d6104b5565b6040513d8d823e3d90fd5b60405162461bcd60e51b815260048101849052601360248201527213db9b1e4812d9595c195c8818d85b88105113606a1b6044820152606490fd5b6105429150853d8711610548575b61053a8183612fba565b810190612fdb565b5f61023b565b503d610530565b6040513d8c823e3d90fd5b8480fd5b8280fd5b80fd5b50346105625780600319360112610562576002546040516001600160a01b039091168152602090f35b612eed565b508061059e36612eba565b906105aa93929361446f565b8161091b575b5050908060249252602090600782526040842060088101906105d560ff83541661306f565b6003548154604080516331d98b3f60e01b815260048101839052976001600160a01b03949293899190829087165afa9687156109105788976108ee575b50600181019160ff835460a01c165f146108e15760068201548811155b156108a957908891828861064a610645856143a1565b6151c9565b9260248860015416916040519485938492637cc6765f60e11b845260048401525af190811561085357899161087a575b505061068d610688836143a1565b6151fb565b81848213610869575b50506003820154908181111561085e57506106b18180613230565b916127106106c1600c548561321d565b049660ff1981541690558560015416908054906002875491015492803b156107e35760405163019ca2b960e51b815260048101939093526001600160a01b03828a1616602484015260a09190911c60ff1615156044830152606482019290925290849082908183816084810103925af190811561085357849161083f575b5050806107e7575b508360025416908484541690823b1561045557608484928360405195869485936309c0533b60e01b8552600485015233602485015260448401528a60648401525af1801561044a576107cf575b50505416926040519485528401527f3b7bc7c0fdc798ac653b9f0d6d28adb2293a55402d32c21d323da740ccc6553960403394a46001815580f35b6107d890612f8b565b6107e357865f610794565b8680fd5b846002541690813b1561045557839160248392604051948593849263ff20b48d60e01b845260048401525af19081156103d6578391610827575b50610747565b61083090612f8b565b61083b57815f610821565b5080fd5b61084890612f8b565b61055e57825f61073f565b6040513d86823e3d90fd5b6106b1908092613230565b61087392506131ec565b5f80610696565b90809294503d83116108a2575b6108918183612fba565b810103126104d1578891875f61067a565b503d610887565b60405162461bcd60e51b815260048101889052601060248201526f4e6f74206c6971756964617461626c6560801b6044820152606490fd5b600682015488101561062f565b61090891975060403d6040116103cf576103bf8183612fba565b50955f610612565b6040513d8a823e3d90fd5b6003546001600160a01b031691823b1561045557604051631df3cbc560e31b815292849284928391829161095291600484016130a6565b039134905af1801561044a57610969575b806105b0565b61097290612f8b565b61083b57815f610963565b5061098736612eba565b61099292919261446f565b818452836020916007835260408220946109b260ff60088801541661306f565b60018601546001600160a01b0394906109ce9086163314612ffa565b6007870154600154604051636d78097360e11b8152908716918382600481865afa918215610b88578792610b50575b5091610a19610a11859493600496946131ec565b421015613ccf565b604051635c975abb60e01b815293849182905afa908115610b45578591610b0e575b50610a47915015613d1a565b81610ab3575b50505060409060035416925460248251809581936331d98b3f60e01b835260048301525afa9081156103d657610a8a928492610a91575b50614e83565b6001815580f35b610aab91925060403d6040116103cf576103bf8183612fba565b50905f610a84565b836003541691823b1561045557604051631df3cbc560e31b8152928492849283918291610ae391600484016130a6565b039134905af1801561044a57610afa575b80610a4d565b610b0390612f8b565b61045557835f610af4565b905081813d8311610b3e575b610b248183612fba565b8101031261045557610b38610a4791613d0d565b5f610a3b565b503d610b1a565b6040513d87823e3d90fd5b848094985081935091943d8311610b81575b610b6c8183612fba565b810103126104d1575189959192610a196109fd565b503d610b62565b6040513d89823e3d90fd5b50346105625780600319360112610562576001546040516001600160a01b039091168152602090f35b50346105625780600319360112610562576020600c54604051908152f35b50610a8a610be736612f59565b92610bf392919261446f565b613e2a565b503461056257602036600319011261056257600435815260086020526040902080808054600182015460c05260028201546003830154600484015460058501546006860154600787015490600888015492600989015494600a8a015496600b8b015498600c8c01549a600d8d01549c600e01549d600f01549e6010015460805260405160a05260a05152600160a01b6001900360c0511660a0516020015260c05160a01c60ff16151560a0516040015260a0516060015260a0516080015260a05160a0015260a05160c0015260ff811660a05160e0015260081c60ff16151560a051610100015260a051610120015260a051610140015260a051610160015260a051610180015260a0516101a0015260a0516101c0015260a0516101e0015260a051610200015260a051610220015260805160a051610240015260a05161026090f35b50346105625780600319360112610562576020600d54604051908152f35b5061010036600319011261056257610d6f612eab565b9060a4359060ff8216820361056257610d8661446f565b610d97620f42406044351015613032565b600260ff8316116110335760c435610fee575b60e435610fa9575b6001546001600160a01b031692833b1561083b5760405163bd79156f60e01b8152828180610ded60643560443587336004803590870161319d565b0381885afa80156103d657610f95575b506020604493946040519485809263e4d8cbe560e01b82528235600483015260ff89161560248301525afa92831561044a578293610f5e575b5090602093600192610e4c6064356044356131ce565b94610e61610e5a82886131ec565b3033614490565b60065495610e6e87613c88565b60065586855260088852604085206004358155868101805460ff60a01b1933166001600160a81b03199091161794151560a01b60ff60a01b169490941790935560443560028401556003830155606435600483015560843560058301556006820161010060ff851661ffff1983541617179055426007830155600982015534600a82015560c435600b820155600c60e435910155338252600a8552610f168460408420613c96565b60ff60405191600435835216858201526084356040820152837f401524beccff0d9dd3447788dea32e11f3b7c9618ed6084f14a773dbf2025f1660603393a355604051908152f35b919092506020823d602011610f8d575b81610f7b60209383612fba565b810103126104d1579051916020610e36565b3d9150610f6e565b610f9f8391612f8b565b61083b575f610dfd565b8215610fd85760843560e435108015610fcb575b610fc69061327c565b610db2565b5060ff8216600214610fbd565b60843560e435118015610fcb57610fc69061327c565b821561101d5760843560c435118015611010575b61100b9061323d565b610daa565b5060ff8216600214611002565b60843560c4351080156110105761100b9061323d565b60405162461bcd60e51b8152602060048201526011602482015270496e76616c6964206f726465725479706560781b6044820152606490fd5b503461056257602036600319011261056257600154604051638da5cb5b60e01b815260048035926001600160a01b0391602091849190829085165afa8015610853576110c292859161110a575b50163314612ffa565b606481116110d057600b5580f35b60405162461bcd60e51b815260206004820152601260248201527126b0bc101817181892903832b9103437bab960711b6044820152606490fd5b611123915060203d6020116105485761053a8183612fba565b5f6110b9565b503461056257602036600319011261056257600154604051638da5cb5b60e01b815260048035926001600160a01b0391602091849190829085165afa80156108535761117e92859161110a5750163314612ffa565b610e10811015806111c9575b1561119557600d5580f35b60405162461bcd60e51b815260206004820152600c60248201526b31682d3330642072616e676560a01b6044820152606490fd5b5062278d0081111561118a565b5034610562576040366003190112610562576024356004356111f661446f565b611201821515613d58565b80835260076020526040832061121d60ff60088301541661306f565b60018101908460018060a01b03611238818554163314612ffa565b61124786826002541633614490565b60025416803b1561083b57818091602460405180948193636e93ae2b60e01b83528b60048401525af1801561044a576112f9575b50506112bc600692600383016112928782546131ec565b80915560028401546112a482826131ce565b600586015560ff6004860154935460a01c16926147b9565b918291015560405192835260208301527f935a476d8eb416e1441bbdc27477a7d90012bed1a74dba06f77fc32b8b119bd860403393a36001815580f35b61130290612f8b565b61055a57845f61127b565b5060209081600319360112610562576004359061132861446f565b818152600783526040812060ff600882015416156114cd5760018101546001600160a01b039061135b9082163314612ffa565b838352600f855260ff604084205416611491576007820154600154604051636d78097360e11b8152949392879186916004918391165afa9384156103d6578394611460575b50610a116001946113b0926131ec565b838252600f855260408220805460ff191684179055600654936113d285613c88565b600655848352600886526040832090848201336bffffffffffffffffffffffff60a01b8254161790556006820161010361ffff198254161790554260078301556008820155600a3491015554604051908152600385820152816040820152837f401524beccff0d9dd3447788dea32e11f3b7c9618ed6084f14a773dbf2025f1660603393a355604051908152f35b93508584813d831161148a575b6114778183612fba565b810103126104d157925192610a116113a0565b503d61146d565b60405162461bcd60e51b8152600481018690526014602482015273436c6f736520726571756573742065786973747360601b6044820152606490fd5b60405162461bcd60e51b81526004810185905260116024820152702837b9b4ba34b7b7103737ba1037b832b760791b6044820152606490fd5b50346105625760203660031901126105625760406101c09160043581526007602052208054906001810154906002810154600382015460048301546005840154600685015460078601549160ff60088801541693600988015495600a8901549760ff600c600b8c01549b01549b6040519d8e528d602060018060a01b03831691015260a01c16151560408d015260608c015260808b015260a08a015260c089015260e088015261010087015215156101208601526101408501526101608401526101808301526101a0820152f35b50346105625780600319360112610562576020600b54604051908152f35b50346105625780600319360112610562576020600554604051908152f35b5061161a36612f59565b9061162693929361446f565b611631841515613d58565b82855260209060078252604086209261165060ff60088601541661306f565b86600185019160018060a01b039361166c858554163314612ffa565b8161198c575b50505061167e84614572565b600384019361168e878654613230565b90620f42408210611950576002810154916116a981846131ce565b90856001541694602460e08554976040519283809263351bd11560e11b82528b60048301525afa8015611945578d9061189c575b6040915001518311611860579061170a8493928260ff8f9a99989760040154925460a01c169687926147b9565b98604087600354169660248251809981936331d98b3f60e01b835260048301525afa8015610910578a60069681988b9361183e575b501561182f5761174f9111613d92565b55600582015501558060025416803b1561055e578280916024604051809481936306e980c560e51b83528c60048401525af19081156103d657839161181b575b505060025416803b1561083b576040516374e863ad60e01b8152336004820152602481018790529082908290604490829084905af1801561044a57611807575b50506040519384528301527fdf372a02d8e5139b85d7448d53241f194a27db9f321178c970db6e998ebb600160403393a36001815580f35b61181090612f8b565b61055a57845f6117cf565b61182490612f8b565b61083b57815f61178f565b6118399110613d92565b61174f565b61185891935060403d6040116103cf576103bf8183612fba565b50915f61173f565b60405162461bcd60e51b815260048101899052601460248201527345786365656473206d6178206c6576657261676560601b6044820152606490fd5b5060e0813d60e01161193d575b816118b660e09383612fba565b810103126119395760405160e08101918183106001600160401b038411176119255760c061191b916040948552805184528c8101518d8501528481015185850152606081015160608501526080810151608085015260a081015160a085015201613d0d565b60c08201526116dd565b634e487b7160e01b5f52604160045260245ffd5b8c80fd5b3d91506118a9565b6040513d8f823e3d90fd5b60405162461bcd60e51b815260048101869052601460248201527310995b1bddc81b5a5b8818dbdb1b185d195c985b60621b6044820152606490fd5b846003541691823b1561045557604051631df3cbc560e31b81529284928492839182916119bc91600484016130a6565b039134905af1801561044a576119d3575b80611672565b6119dc90612f8b565b6107e357865f6119cd565b5034610562576119f636612f0a565b6001600160a01b039091168252600a60205260408220805491929091831015610562576020611a258484612f30565b90546040519160031b1c8152f35b50611a3d36612eba565b90611a4993929361446f565b81611d19575b5050818152602091600783526040822090611a7060ff60088401541661306f565b6007820154600154604051636d78097360e11b81526001600160a01b0392918316908781600481855afa908115610b8857908892918891611ce6575b50610a11611abc916004956131ec565b604051635c975abb60e01b815292839182905afa8015610b45578590611cb0575b611ae8915015613d1a565b600354166040835460248251809481936331d98b3f60e01b835260048301525afa908115610853578491611c90575b508384918094600981015480611c2c575b50821580611c1f575b611bb3575b505015611b78577fac4fd466c8f994e08ce2eb9141c2f01f2a779a3537d9bd71fa8762df3d12842c6040839285610a8a979883519215158352820152a2614e83565b60405162461bcd60e51b815260048101869052601360248201527215140bd4d3081b9bdd081d1c9a59d9d95c9959606a1b6044820152606490fd5b909150600a81015491600e549160ff6001611bf0612710611be9611be282611bdb8a8c61321d565b048a6131ec565b978961321d565b0487613230565b92015460a01c1615611c1557501115905b81611c0d575b80611b36565b93505f611c07565b9150101590611c01565b50600a8101541515611b31565b93509150600e54611c5f612710611c58611c5182611c4a868a61321d565b0488613230565b938761321d565b04856131ec565b600184015460a01c60ff1615611c855750811015915b82938315611b285795505f611b28565b905081111591611c75565b611ca9915060403d6040116103cf576103bf8183612fba565b505f611b17565b508581813d8311611cdf575b611cc68183612fba565b8101031261055a57611cda611ae891613d0d565b611add565b503d611cbc565b83819492503d8311611d12575b611cfd8183612fba565b810103126104d1579051879190610a11611aac565b503d611cf3565b6003546001600160a01b031690813b1561045557918391611d5093604051809581948293631df3cbc560e31b8452600484016130a6565b039134905af1801561044a5790829115611a4f57611d6d90612f8b565b61056257805f611a4f565b50346105625780600319360112610562576003546040516001600160a01b039091168152602090f35b506101003660031901126105625760043590611dbb612eab565b9160443591606435916084359460a43590611dd461446f565b60028710158061209e575b1561206857603c821061203057620f4240878102908104880361201c578610611fe0576001546001600160a01b031696873b1561055a5760405163bd79156f60e01b8152858180611e378a8c88338c6004870161319d565b03818c5afa8015611fd557908691611fc1575b5050611e5686886131ce565b9760405198899163e4d8cbe560e01b835289600484015287602484015282604460209c8d935afa918215610b88578792611f8b575b509060019782611ea2610e5a84600e9897966131ec565b6006549a611eaf8c613c88565b6006558b8a5260088d5260408a208981558b8101805460ff60a01b1933166001600160a81b03199091161797151560a01b60ff60a01b16979097179096556002860155600385015560048401556006830161010461ffff19825416179055426007840155600983015534600a83015560c435600b83015560e435600c830155600d8201550155338252600a8552611f498460408420613c96565b604051908152600485820152816040820152837f401524beccff0d9dd3447788dea32e11f3b7c9618ed6084f14a773dbf2025f1660603393a355604051908152f35b939291508984813d8311611fba575b611fa48183612fba565b810103126104d157925191929091906001611e8b565b503d611f9a565b611fca90612f8b565b61055a57845f611e4a565b6040513d88823e3d90fd5b60405162461bcd60e51b815260206004820152601460248201527314db1a58d9481cda5e99481d1bdbc81cdb585b1b60621b6044820152606490fd5b634e487b7160e01b85526011600452602485fd5b60405162461bcd60e51b815260206004820152601060248201526f135a5b880d8c1cc81a5b9d195c9d985b60821b6044820152606490fd5b60405162461bcd60e51b815260206004820152600e60248201526d496e76616c696420736c6963657360901b6044820152606490fd5b506064871115611ddf565b50346105625780600319360112610562576020600e54604051908152f35b5034610562576120d636612f0a565b6001600160a01b039091168252600960205260408220805491929091831015610562576020611a258484612f30565b50346105625760203660031901126105625760043561212261446f565b8082526008602052604082206006810190600360ff8354612147828260081c166132bb565b61215e60018060a01b036001860154163314612ffa565b61ff00198116855516146122b6575b60ff82541660038103612221575b50600460ff600a8301549354161480612214575b6121e7575b5082816121c8575b7f61b9399f2f0f32ca39ce8d7be32caed5ec22fe07a6daba3a467ed479ec606582915080a26001815580f35b8080806121e094335af16121da6132f4565b50613332565b5f8261219c565b9061220882600f6121ff600d61220e960154856131ce565b9101549061321d565b90613230565b5f612194565b50600f810154151561218f565b6003820154600460098401549214806122a9575b612269575b61224482826131ec565b61224f575b5061217b565b6122629161225c916131ec565b336148ba565b5f80612249565b906122a390612208600d85015461229d61228d61228683886131ce565b92856131ce565b95612208600f890154809461321d565b9461321d565b9061223a565b50600f8301541515612235565b60088101548452600f60205260408420805460ff1916905561216d565b5034610562576060366003190112610562576122ed61446f565b600435815260076020526040812061230b60ff60088301541661306f565b61232260018060a01b036001830154163314612ffa565b6024356009820155600a6044359101556001815580f35b50346105625780600319360112610562576004546040516001600160a01b039091168152602090f35b50610a8a61236f36612eba565b9161237861446f565b613457565b506101003660031901126105625760043590612397612eab565b9160c43560e4356001600160401b038111610455576123ba903690600401612e7b565b906123c361446f565b6123d4620f42406044351015613032565b8161266b575b5050600354604080516331d98b3f60e01b815260048101859052926001600160a01b03929091908490602490829086165afa928315610b45578593612649575b5080612620575b506084356125fb575b60a4356125d6575b6001541691823b156104555760405163bd79156f60e01b81528481806124636064356044358b33896004870161319d565b0381875afa8015610b45579085916125c2575b505060405194859363e4d8cbe560e01b8552604435600486015285602486015284604460209889935afa908115610b45578591612591575b61256294506124c16064356044356131ce565b906124cf610e5a84846131ec565b604051936124dc85612f9e565b8760c0860152876101208601528761014086015287610180860152876101e086015287610200860152876102208601528761024086015284523388850152151560408401526044356060840152608083015260643560a0830152600260e083015260016101008301526101608201526084356101a082015260a4356101c0820152614ac6565b6005545f1981019190821161257d5760019055604051908152f35b634e487b7160e01b81526011600452602490fd5b90508584813d83116125bb575b6125a88183612fba565b810103126104d1576125629351906124ae565b503d61259e565b6125cb90612f8b565b61045557835f612476565b84156125ee576125e98260a4351061327c565b612432565b6125e98260a4351161327c565b84156126135761260e826084351161323d565b61242a565b61260e826084351061323d565b8515612638576126329083111561315d565b5f612421565b6126449083101561315d565b612632565b61266391935060403d6040116103cf576103bf8183612fba565b50915f61241a565b6003546001600160a01b031690813b156126ca579185916126a293604051809581948293631df3cbc560e31b8452600484016130a6565b039134905af1801561085357908491156123da576126bf90612f8b565b61055e57825f6123da565b8580fd5b503461056257602036600319011261056257600154604051638da5cb5b60e01b815260048035926001600160a01b0391602091849190829085165afa80156108535761272392859161110a5750163314612ffa565b6101f4811161273257600c5580f35b60405162461bcd60e51b81526020600482015260066024820152654d617820352560d01b6044820152606490fd5b50346105625760203660031901126105625760ff60406020926004358152600f84522054166040519015158152f35b5060a03660031901126104d157606435906044356084356001600160401b0381116104d1576127c2903690600401612e7b565b9190936127cd61446f565b6127de620f42406024351015613032565b6004355f52600760205260405f20926127fd60ff60088601541661306f565b600184019561281660018060a01b038854163314612ffa565b81612d44575b50506003548354604080516331d98b3f60e01b815260048101839052969791939192879060249082906001600160a01b03165afa958615610b88578796612d22575b5080612cf2575b508560018060a01b03600154169260ff835460a01c16843b1561055e5760405163bd79156f60e01b8152918391839182916128ab918a916024359133906004870161319d565b0381875afa801561044a57612cde575b505060206128cd6044946024356131ce565b926040519485809263e4d8cbe560e01b825260243560048301528a60248301525afa928315611fd5578693612caa575b5061290b610e5a84846131ec565b61291484614572565b6001548454915460405163b391decf60e01b81526004810184905260a09190911c60ff16801515602480840191909152356044830152969160209082906001600160a01b031681806064810103915afa908115610910578891612c78575b508188821315612c26575061298a612710918361321d565b048615612c185761299a916131ec565b945b60028501549586670de0b6b3a7640000810204670de0b6b3a76400001487151715612c04576129d96004870154670de0b6b3a764000089026131ce565b90602435670de0b6b3a76400006024350204670de0b6b3a764000014602435151715612bf057612a1590670de0b6b3a7640000602435026131ce565b612a21602435896131ec565b9182670de0b6b3a7640000810204670de0b6b3a76400001483151715612bdc5783612a76612a6c8c98979695670de0b6b3a7640000612a65600697612aaa976131ec565b91026131ce565b9a602435906131ec565b8060028b015560038a0190612a8c8883546131ec565b8092558b60048c0155612a9f82826131ce565b60058c01558b6147b9565b96019586556001546001600160a01b031691823b1561055a5760405163b65b361f60e01b81526004810191909152336024808301919091529115156044820152903560648201529083908290608490829084905af19081156103d6578391612bc8575b5050600254612b269082906001600160a01b03166148ba565b6002546001600160a01b031690813b1561055e578291602483926040519485938492636e93ae2b60e01b845260048401525af1801561044a57612bb4575b5050612b6f9061497c565b546040519160243583526020830152604082015233907ff48aa9a1deec4f3fc0cb0c073f4f097041726d7c7f9d2c3a863cd52f721e8d1a606060043592a36001815580f35b612bbd90612f8b565b61045557835f612b64565b612bd190612f8b565b61083b57815f612b0d565b634e487b7160e01b8a52601160045260248afd5b634e487b7160e01b89526011600452602489fd5b634e487b7160e01b88526011600452602488fd5b612c2191613230565b61299a565b90888198939812612c39575b505061299c565b61271091929750612c4c612c529161320d565b8361321d565b048615612c6a57612c6291613230565b945f80612c32565b612c73916131ec565b612c62565b90506020813d602011612ca2575b81612c9360209383612fba565b810103126104d157515f612972565b3d9150612c86565b9092506020813d602011612cd6575b81612cc660209383612fba565b810103126104d15751915f6128fd565b3d9150612cb9565b612ce790612f8b565b6126ca57855f6128bb565b815460a01c60ff1615612d1157612d0b9086111561315d565b5f612865565b612d1d9086101561315d565b612d0b565b612d3c91965060403d6040116103cf576103bf8183612fba565b50945f61285e565b6003546001600160a01b031691823b156104d157604051631df3cbc560e31b8152925f92849283918291612d7b91600484016130a6565b039134905af18015612da657612d92575b8061281c565b60249450612d9f90612f8b565b5f93612d8c565b6040513d5f823e3d90fd5b346104d1575f3660031901126104d1576020600654604051908152f35b346104d15760203660031901126104d1576004359060018060a01b036020826004818460015416638da5cb5b60e01b82525afa8015612da657612e1a925f91612e5c5750163314612ffa565b60648111612e2757600e55005b60405162461bcd60e51b815260206004820152600d60248201526c26b0bc10189290313ab33332b960991b6044820152606490fd5b612e75915060203d6020116105485761053a8183612fba565b846110b9565b9181601f840112156104d1578235916001600160401b0383116104d1576020808501948460051b0101116104d157565b6024359081151582036104d157565b9060406003198301126104d15760043591602435906001600160401b0382116104d157612ee991600401612e7b565b9091565b346104d1575f3660031901126104d1576020604051620f42408152f35b60409060031901126104d1576004356001600160a01b03811681036104d1579060243590565b8054821015612f45575f5260205f2001905f90565b634e487b7160e01b5f52603260045260245ffd5b60606003198201126104d1576004359160243591604435906001600160401b0382116104d157612ee991600401612e7b565b6001600160401b03811161192557604052565b61026081019081106001600160401b0382111761192557604052565b90601f801991011681019081106001600160401b0382111761192557604052565b908160209103126104d157516001600160a01b03811681036104d15790565b1561300157565b60405162461bcd60e51b81526020600482015260096024820152682737ba1037bbb732b960b91b6044820152606490fd5b1561303957565b60405162461bcd60e51b815260206004820152600e60248201526d14da5e99481d1bdbc81cdb585b1b60921b6044820152606490fd5b1561307657565b60405162461bcd60e51b81526020600482015260086024820152672737ba1037b832b760c11b6044820152606490fd5b9160208181850182865252604084019360408360051b82010194845f925b8584106130d5575050505050505090565b90919293949596603f198282030184528735601e19843603018112156104d15783018681019190356001600160401b0381116104d15780360383136104d15787828280600196849695859652848401375f828201840152601f01601f19160101990197969591909101930191906130c4565b91908260409103126104d1576020825192015190565b1561316457565b60405162461bcd60e51b815260206004820152601160248201527014db1a5c1c1859d948195e18d959591959607a1b6044820152606490fd5b9081526001600160a01b03909116602082015290151560408201526060810191909152608081019190915260a00190565b81156131d8570490565b634e487b7160e01b5f52601260045260245ffd5b919082018092116131f957565b634e487b7160e01b5f52601160045260245ffd5b600160ff1b81146131f9575f0390565b818102929181159184041417156131f957565b919082039182116131f957565b1561324457565b60405162461bcd60e51b815260206004820152601060248201526f496e76616c696420545020707269636560801b6044820152606490fd5b1561328357565b60405162461bcd60e51b815260206004820152601060248201526f496e76616c696420534c20707269636560801b6044820152606490fd5b156132c257565b60405162461bcd60e51b815260206004820152600a6024820152694e6f742061637469766560b01b6044820152606490fd5b3d1561332d573d906001600160401b0382116119255760405191613322601f8201601f191660200184612fba565b82523d5f602084013e565b606090565b1561333957565b60405162461bcd60e51b8152602060048201526011602482015270115512081c99599d5b990819985a5b1959607a1b6044820152606490fd5b9060405161337f81612f9e565b610240601082948054845260ff600182015460018060a01b038116602087015260a01c16151560408501526002810154606085015260038101546080850152600481015460a0850152600581015460c085015260ff600682015481811660e087015260081c161515610100850152600781015461012085015260088101546101408501526009810154610160850152600a810154610180850152600b8101546101a0850152600c8101546101c0850152600d8101546101e0850152600e810154610200850152600f8101546102208501520154910152565b90915f9281613c27575b5050808252600860205260408220600681015461348360ff8260081c166132bb565b6134946007830154600d54906131ec565b4211613b2f57506003548154604080516331d98b3f60e01b8152600481018390529192829060249082906001600160a01b03165afa908115610b45578591613b0f575b50600683015460ff16806136f55750600183015460a01c60ff16915081156136e85760058301548111155b156136af5761352d911561369c5760058301548082101561369557505b61352883613372565b614ac6565b60068101805461ff00191690555b82600a820154806135e9575b5050600681015460ff8160081c1615613561575b50505050565b60ff1660030361359e5760087f9947370f1e808dd40de986fca744d8715d4d7aa575359f77a7bdeeb887f590ea910154925b80a35f80808061355b565b506005545f1981019081116135d5577f9947370f1e808dd40de986fca744d8715d4d7aa575359f77a7bdeeb887f590ea9092613593565b634e487b7160e01b83526011600452602483fd5b81906006840154600460ff82161480613688575b1561366e57506136139150600d840154906131ce565b80156135475781808092335af16136286132f4565b501561363557825f613547565b60405162461bcd60e51b815260206004820152601160248201527012d9595c195c881999594819985a5b1959607a1b6044820152606490fd5b60081c60ff1615613680575b50613613565b90505f61367a565b50600d85015415156135fd565b905061351f565b600583015480821115613695575061351f565b60405162461bcd60e51b8152602060048201526011602482015270131a5b5a5d081b9bdd081c995858da1959607a1b6044820152606490fd5b6005830154811015613502565b600181036137c45750600183015460a01c60ff16915081156137a05761372f6005840154612710613728600e548361321d565b0490613230565b915b156137995710155b156137615761374f600582015461352883613372565b60068101805461ff001916905561353b565b60405162461bcd60e51b815260206004820152601060248201526f14dd1bdc081b9bdd081c995858da195960821b6044820152606490fd5b1115613739565b6137be60058401546127106137b7600e548361321d565b04906131ec565b91613731565b6002810361386e57509050600182015460ff8160a01c165f146138615760058301548211155b8015613855575b15613804575061374f9061352883613372565b61382b915061381c60038401546009850154906131ec565b906001600160a01b03166148ba565b817f61b9399f2f0f32ca39ce8d7be32caed5ec22fe07a6daba3a467ed479ec6065828480a261374f565b506005830154156137f1565b60058301548210156137ea565b600381036138ae5750905061388860088301918254614e83565b548352600f60205260408320805460ff1916905560068101805461ff001916905561353b565b6004146138bd575b505061353b565b600f8301549182158015613af3575b15613abc576138da84613372565b926001810190818111612c0457600d860154918203613a7c5780600287015461390384826131ce565b8260038a01549261391487856131ce565b9260098c01549761392590896131ce565b9661392f9161321d565b61393891613230565b60608a01526139469161321d565b61394f91613230565b608087015261395d9161321d565b61396691613230565b6101608401525b6001805490850154606085015160048701549390926001600160a01b03169190823b15613a785760405163bd79156f60e01b8152948a94869493859384936139cf939092909160a082901c60ff16916001600160a01b0316906004870161319d565b03915afa8015611fd557908691613a64575b50506139ed9082614ac6565b600f820154906001820180921161201c577f098dc6c1012d2fb4cc0470ec0f1b82ad9eaf354865d76ebad869d83f1559344e60406060869385600f88015542601088015501518151908582526020820152a2600d8201541115613a52575b5f806138b6565b60068101805461ff0019169055613a4b565b613a6d90612f8b565b61055a57845f6139e1565b8980fd5b5080613a8f613ab19260028801546131ce565b6060860152613aa28160038801546131ce565b608086015260098601546131ce565b61016084015261396d565b60405162461bcd60e51b815260206004820152600f60248201526e545741503a20746f6f206561726c7960881b6044820152606490fd5b50613b076010850154600e860154906131ec565b4210156138cc565b613b28915060403d6040116103cf576103bf8183612fba565b505f6134d7565b90600360ff7f61b9399f2f0f32ca39ce8d7be32caed5ec22fe07a6daba3a467ed479ec60658294959361ff0019811660068501551614613c0a575b600360ff600683015416141580613bef575b613bbd575b81600a8201549182613b94575b509050a2565b60010154613bb5928291829182916001600160a01b03165af16121da6132f4565b5f8181613b8e565b600181015460038201546009830154613bea926001600160a01b031691613be491906131ec565b906148ba565b613b81565b50613c0360038201546009830154906131ec565b1515613b7c565b60088101548252600f60205260408220805460ff19169055613b6a565b6003546001600160a01b031691823b156104d157604051631df3cbc560e31b8152925f92849283918291613c5e91600484016130a6565b039134905af18015612da657613c75575b80613461565b613c80919250612f8b565b5f905f613c6f565b5f1981146131f95760010190565b80546801000000000000000081101561192557613cb891600182018155612f30565b819291549060031b91821b915f19901b1916179055565b15613cd657565b60405162461bcd60e51b815260206004820152600f60248201526e436f6f6c646f776e2061637469766560881b6044820152606490fd5b519081151582036104d157565b15613d2157565b60405162461bcd60e51b815260206004820152600f60248201526e141c9bdd1bd8dbdb081c185d5cd959608a1b6044820152606490fd5b15613d5f57565b60405162461bcd60e51b815260206004820152600b60248201526a16995c9bc8185b5bdd5b9d60aa1b6044820152606490fd5b15613d9957565b60405162461bcd60e51b8152602060048201526015602482015274576f756c64206265206c6971756964617461626c6560581b6044820152606490fd5b81810392915f1380158285131691841216176131f957565b81810292915f8212600160ff1b8214166131f95781840514901517156131f957565b81156131d857600160ff1b81145f198314166131f9570590565b9192905f81151580614395575b1561435e57835f526007602052602060405f2093613e5b60ff60088701541661306f565b6001850196613e7460018060a01b038954163314612ffa565b6007860154600154604051636d78097360e11b815260049590918290879082906001600160a01b03165afa908115612da6575f9161432a575b50610a1190613ebb926131ec565b816142ca575b505060018060a01b0360035416926040855460248251809781936331d98b3f60e01b8352878301525afa9384156103d65783946142a8575b5061271080821461429557613f4097613f1187614572565b613f46600288015483613f24868361321d565b049a8b94613f3760038c0154978861321d565b04948592613230565b94613230565b96620f424080851061425b5788106142175781549060ff8260a01c165f146141fc57613f828682015461031b8d613f7d838d613dd6565b613dee565b945b60015460405163e4d8cbe560e01b81528881018e9052602481018a90529690602090889060449082906001600160a01b03165afa9687156141f15789976141b9575b5090613fd58761400293613dd6565b9a816002850155806003850155613fec81836131ce565b600585015560ff8560a01c1691898501546147b9565b600682015560018060a01b03600154169054813b15610446576040805163019ca2b960e51b81528089019283526001600160a01b038516602084015260a09490941c60ff16151590820152606081018c90528791839182908490829060800103925af18015611fd5579086916141a5575b505060025490546001600160a01b039182169116813b156126ca576040805163118f304360e01b81526001600160a01b03909216868301908152602081018590529081018990529091869183919082908490829060600103925af18015610b4557908591614191575b5050811515908161417f575b50614129575b505050604051938452602084015260408301527f5cc0748e06097a585a6534dafcca64d5cc367340dff0e00469484e8269a7ca7b60603393a3565b6002546001600160a01b031691823b156104555790602484928360405195869485936335b8e71360e01b85528401525af1801561044a5761416b575b806140ee565b6141758291612f8b565b6105625780614165565b614189915061320d565b85135f6140e8565b61419a90612f8b565b61045557835f6140dc565b6141ae90612f8b565b61055a57845f614073565b919096506020823d6020116141e9575b816141d660209383612fba565b810103126104d157905195613fd5613fc6565b3d91506141c9565b6040513d8b823e3d90fd5b6142118682015461031b8d613f7d8c84613dd6565b94613f84565b60405162461bcd60e51b8152602081870152601e60248201527f52656d61696e64657220636f6c6c61746572616c20746f6f20736d616c6c00006044820152606490fd5b60405162461bcd60e51b8152602081880152601360248201527214995b585a5b99195c881d1bdbc81cdb585b1b606a1b6044820152606490fd5b505050509190506142a69250614e83565b565b6142c291945060403d6040116103cf576103bf8183612fba565b50925f613ef9565b6003546001600160a01b031691823b156104d157604051631df3cbc560e31b8152925f92849283918291614300918984016130a6565b039134905af18015612da657614317575b80613ec1565b614322919250612f8b565b5f905f614311565b90506020813d602011614356575b8161434560209383612fba565b810103126104d15751613ebb613ead565b3d9150614338565b60405162461bcd60e51b815260206004820152600f60248201526e125b9d985b1a59081c195c98d95b9d608a1b6044820152606490fd5b50612710821115613e37565b906040516101c081018181106001600160401b03821117611925576040526101a0600c82948054845260ff600182015460018060a01b038116602087015260a01c16151560408501526002810154606085015260038101546080850152600481015460a0850152600581015460c0850152600681015460e0850152600781015461010085015260ff60088201541615156101208501526009810154610140850152600a810154610160850152600b8101546101808501520154910152565b9190811015612f455760051b0190565b60025f541461447e5760025f55565b604051633ee5aeb560e01b8152600490fd5b916064602092935f60018060a01b03938460045416908560405198899788966323b872dd60e01b885216600487015216602485015260448401525af1908115612da6575f9161451d575b50156144e257565b60405162461bcd60e51b8152602060048201526013602482015272151c985b9cd9995c919c9bdb4819985a5b1959606a1b6044820152606490fd5b90506020813d60201161454f575b8161453860209383612fba565b810103126104d15761454990613d0d565b5f6144da565b3d915061452b565b9190915f83820193841291129080158216911516176131f957565b61457e610645826143a1565b90600154915f9060018060a01b0380918454604096875191637cc6765f60e11b83526004830152816024815f6020988995165af1801561478657908491614790575b50506145d8906145d2610688876143a1565b90614557565b5f81131561471057600385018054808310156146cc57826145f891613230565b9055816002541690813b1561055a578491602483928951948593849263ff20b48d60e01b845260048401525af180156146c2579084916146ae575b50505b42600c85015560015416918184546024875180968193634655f1eb60e01b835260048301525afa9485156146a4575093614673575b5050600b0155565b9080929350813d831161469d575b61468b8183612fba565b810103126104d1575190600b5f61466b565b503d614681565b51903d90823e3d90fd5b6146b790612f8b565b61055e57825f614633565b86513d86823e3d90fd5b875162461bcd60e51b815260048101869052601f60248201527f506f736974696f6e206c6971756964617461626c652066726f6d2066656573006044820152606490fd5b5f811261471e575b50614636565b6147279061320d565b8160025416803b156104d1575f80916024895180948193634e43a80560e11b83528760048401525af1801561478657614773575b5061476b600386019182546131ec565b90555f614718565b61477e919450612f8b565b5f925f61475b565b87513d5f823e3d90fd5b813d83116147b2575b6147a38183612fba565b810103126104d157825f6145c0565b503d614799565b91929092612328908181029181830414901517156131f9576001546040516335123baf60e21b81526127109283900491602090829060049082906001600160a01b03165afa908115612da6575f91614888575b50600a81018091116131f95761482383918761321d565b049080821061487857505060648402848104606414851517156131f95704905b156148615761485e92614859612208928461321d565b6131ce565b90565b61485e92614859614872928461321d565b906131ec565b6148829250613230565b90614843565b90506020813d6020116148b2575b816148a360209383612fba565b810103126104d157515f61480c565b3d9150614896565b6004805460405163a9059cbb60e01b81526001600160a01b0393841692810192909252602482019390935291602091839160449183915f91165af1908115612da6575f91614942575b501561490b57565b60405162461bcd60e51b815260206004820152600f60248201526e151c985b9cd9995c8819985a5b1959608a1b6044820152606490fd5b90506020813d602011614974575b8161495d60209383612fba565b810103126104d15761496e90613d0d565b5f614903565b3d9150614950565b60015460408051631db0457960e11b815260048101939093525f9392916001600160a01b039082908490602490829085165afa928315614abc575f905f94614a9a575b5080614a39575b50826149d4575b5050509050565b6020600491600154168351928380926361d027b360e01b82525afa918215614a305750614a08939491614a11575b506148ba565b805f80806149cd565b614a2a915060203d6020116105485761053a8183612fba565b5f614a02565b513d86823e3d90fd5b614a478183600254166148ba565b816002541690813b156104d1575f9160248392865194859384926302102c9760e11b845260048401525af18015614a9057156149c657614a88919550612f8b565b5f935f6149c6565b83513d5f823e3d90fd5b9050614ab4919350823d84116103cf576103bf8183612fba565b92905f6149bf565b82513d5f823e3d90fd5b600154815160408084018051606086018051845163b391decf60e01b815260048101969096529115156024860152604485019190915294955f95919460209492936001600160a01b039390929186908290606490829088165afa908115614a90575f91614e56575b50815f821315614e035750614b46612710918361321d565b04865115155f14614df557614b5a916131ec565b9283925b8860055498614b6c8a613c88565b6005555f8a81526007895285812083518155838a0180516001830180548e5160ff60a01b19938a16939093166001600160a81b03199091161791151560a081901b60ff60a01b169290921790559094909291908b90614bf28951958660028601558c6080840197885191826003890155600488015560a085019e8f5160058901556147b9565b600684015542600784015542600c84015560088301600160ff198254161790556101a081015160098401556101c0810151600a8401556024886001541691518b519586938492637cc6765f60e11b845260048401525af1918215614deb575f92614dbb575b50600b015583600154168c5185855116918c51151590885193813b156104d1578a5163b65b361f60e01b815260048101949094526001600160a01b0316602484015290151560448301526064820192909252905f908290608490829084905af1801561478657614da8575b50614cd384600254168251906148ba565b83600254169051813b1561055e5782916024839289519485938492636e93ae2b60e01b845260048401525af18015614d9e578b92918d91614d84575b508694927f52ca44dea94749aadfaa4d3749a0323a33b3a6434adcfff52ad54c511f5579c79b999760a09b99979593614d4f610160614d5f95015161497c565b85855116815260098b5220613c96565b51169951955115159051925194825196875286015284015260608301526080820152a3565b829350614d919150612f8b565b6105625789908b5f614d0f565b86513d84823e3d90fd5b614db3919250612f8b565b5f905f614cc2565b9091508a81813d8311614de4575b614dd38183612fba565b810103126104d1575190600b614c57565b503d614dc9565b88513d5f823e3d90fd5b614dfe91613230565b614b5a565b905f8195939512614e19575b5050928293614b5e565b61271091929450612c4c614e2c9161320d565b04865115155f14614e4857614e4091613230565b915f80614e0f565b614e51916131ec565b614e40565b90508581813d8311614e7c575b614e6d8183612fba565b810103126104d157515f614b2e565b503d614e63565b91905f92805f5260209160078352604090815f206008810190614ea960ff83541661306f565b60018101805460a01c60ff16156151af57614eda600483015461031b614ecf8288613dd6565b600286015490613dee565b600154600284018054885163e4d8cbe560e01b815260048101919091525f60248201526001600160a01b0395909390928616908b85604481855afa9485156151a5575f95615176575b505f8c614f32610645876143a1565b9360248d885490519485938492637cc6765f60e11b845260048401525af1801561516c57908d91615143575b5050614f82614f8892614f7d614f76610688886143a1565b9188614557565b614557565b90613dd6565b865460ff19169096556001548254855492549290918716803b156104d1578a5163019ca2b960e51b815260048101939093526001600160a01b0382891616602484015260a09190911c60ff16151560448301526064820192909252905f9082908183816084810103925af18015614deb57615130575b508a8460025416600386865416930192835490823b15610455578a5163118f304360e01b81526001600160a01b039190911660048201526024810191909152604481018890529082908290606490829084905af180156151265761510e575b505081151590816150fb575b506150a4575b507f356fca566f3a054a459c7224d9c9d634f31a98835cfd4fb4c5ddbf8b96aca21195969798505416958351928352820152a3565b89908360025416803b1561055e5760248392895194859384926335b8e71360e01b845260048401525af180156150f1571561506f576150e38a91612f8b565b6150ed578861506f565b8880fd5b86513d8c823e3d90fd5b61510691505461320d565b84135f615069565b61511790612f8b565b615122578a5f61505d565b8a80fd5b89513d84823e3d90fd5b61513b919b50612f8b565b5f995f614ffe565b813d8311615165575b6151568183612fba565b810103126104d1578b5f614f5e565b503d61514c565b8b513d5f823e3d90fd5b9094508b81813d831161519e575b61518e8183612fba565b810103126104d15751935f614f23565b503d615184565b8a513d5f823e3d90fd5b6151c4600483015461031b614ecf8783613dd6565b614eda565b6151f763d693a400916151f260606151e66101a084015142613230565b920151600b549061321d565b61321d565b0490565b60018060a01b03600154169060208151602460405180958193634655f1eb60e01b835260048301525afa918215612da6575f9261527e575b5061524d670de0b6b3a76400009261018083015190613dd6565b604082015115615268576060615264920151613dee565b0590565b615279906060615264930151613dee565b61320d565b91506020823d6020116152ac575b8161529960209383612fba565b810103126104d15790519061524d615233565b3d915061528c56fea2646970667358221220064f840006d6ae9af39f1bd7407a889a6f77b8a601906d2c0c06d1d3708e189c64736f6c63430008180033",
  "linkReferences": {},
  "deployedLinkReferences": {},
  "immutableReferences": {},
  "inputSourceName": "project/src/ConfidentialTrading.sol",
  "buildInfoId": "solc-0_8_24-7995d18fa39666c9cb456dcdff4bac5ab61681bf"
}