{
  "_format": "hh3-artifact-1",
  "contractName": "ConfidentialTrading",
  "sourceName": "src/ConfidentialTrading.sol",
  "abi": [
    {
      "inputs": [
        {
          "internalType": "address",
          "name": "_usdc",
          "type": "address"
        },
        {
          "internalType": "address",
          "name": "_core",
          "type": "address"
        },
        {
          "internalType": "address",
          "name": "_vault",
          "type": "address"
        },
        {
          "internalType": "address",
          "name": "_oracle",
          "type": "address"
        }
      ],
      "stateMutability": "nonpayable",
      "type": "constructor"
    },
    {
      "inputs": [],
      "name": "ReentrancyGuardReentrantCall",
      "type": "error"
    },
    {
      "anonymous": false,
      "inputs": [
        {
          "indexed": true,
          "internalType": "uint256",
          "name": "positionId",
          "type": "uint256"
        },
        {
          "indexed": true,
          "internalType": "address",
          "name": "trader",
          "type": "address"
        },
        {
          "indexed": false,
          "internalType": "uint256",
          "name": "amount",
          "type": "uint256"
        },
        {
          "indexed": false,
          "internalType": "uint256",
          "name": "newLiquidationPrice",
          "type": "uint256"
        }
      ],
      "name": "CollateralAdded",
      "type": "event"
    },
    {
      "anonymous": false,
      "inputs": [
        {
          "indexed": true,
          "internalType": "uint256",
          "name": "positionId",
          "type": "uint256"
        },
        {
          "indexed": true,
          "internalType": "address",
          "name": "trader",
          "type": "address"
        },
        {
          "indexed": false,
          "internalType": "uint256",
          "name": "amount",
          "type": "uint256"
        },
        {
          "indexed": false,
          "internalType": "uint256",
          "name": "newLiquidationPrice",
          "type": "uint256"
        }
      ],
      "name": "CollateralRemoved",
      "type": "event"
    },
    {
      "anonymous": false,
      "inputs": [
        {
          "indexed": true,
          "internalType": "uint256",
          "name": "orderId",
          "type": "uint256"
        }
      ],
      "name": "OrderCancelled",
      "type": "event"
    },
    {
      "anonymous": false,
      "inputs": [
        {
          "indexed": true,
          "internalType": "uint256",
          "name": "orderId",
          "type": "uint256"
        },
        {
          "indexed": true,
          "internalType": "uint256",
          "name": "positionId",
          "type": "uint256"
        }
      ],
      "name": "OrderExecuted",
      "type": "event"
    },
    {
      "anonymous": false,
      "inputs": [
        {
          "indexed": true,
          "internalType": "uint256",
          "name": "orderId",
          "type": "uint256"
        },
        {
          "indexed": true,
          "internalType": "address",
          "name": "trader",
          "type": "address"
        },
        {
          "indexed": false,
          "internalType": "bytes32",
          "name": "pairId",
          "type": "bytes32"
        },
        {
          "indexed": false,
          "internalType": "uint8",
          "name": "orderType",
          "type": "uint8"
        },
        {
          "indexed": false,
          "internalType": "uint256",
          "name": "triggerPrice",
          "type": "uint256"
        }
      ],
      "name": "OrderPlaced",
      "type": "event"
    },
    {
      "anonymous": false,
      "inputs": [
        {
          "indexed": true,
          "internalType": "uint256",
          "name": "positionId",
          "type": "uint256"
        },
        {
          "indexed": true,
          "internalType": "address",
          "name": "trader",
          "type": "address"
        },
        {
          "indexed": false,
          "internalType": "uint256",
          "name": "exitPrice",
          "type": "uint256"
        },
        {
          "indexed": false,
          "internalType": "int256",
          "name": "pnl",
          "type": "int256"
        }
      ],
      "name": "PositionClosed",
      "type": "event"
    },
    {
      "anonymous": false,
      "inputs": [
        {
          "indexed": true,
          "internalType": "uint256",
          "name": "positionId",
          "type": "uint256"
        },
        {
          "indexed": true,
          "internalType": "address",
          "name": "trader",
          "type": "address"
        },
        {
          "indexed": false,
          "internalType": "uint256",
          "name": "additionalSizeUsd",
          "type": "uint256"
        },
        {
          "indexed": false,
          "internalType": "uint256",
          "name": "newEntryPrice",
          "type": "uint256"
        },
        {
          "indexed": false,
          "internalType": "uint256",
          "name": "newLiquidationPrice",
          "type": "uint256"
        }
      ],
      "name": "PositionIncreased",
      "type": "event"
    },
    {
      "anonymous": false,
      "inputs": [
        {
          "indexed": true,
          "internalType": "uint256",
          "name": "positionId",
          "type": "uint256"
        },
        {
          "indexed": true,
          "internalType": "address",
          "name": "trader",
          "type": "address"
        },
        {
          "indexed": false,
          "internalType": "uint256",
          "name": "executionPrice",
          "type": "uint256"
        },
        {
          "indexed": true,
          "internalType": "address",
          "name": "liquidator",
          "type": "address"
        },
        {
          "indexed": false,
          "internalType": "uint256",
          "name": "reward",
          "type": "uint256"
        }
      ],
      "name": "PositionLiquidated",
      "type": "event"
    },
    {
      "anonymous": false,
      "inputs": [
        {
          "indexed": true,
          "internalType": "uint256",
          "name": "positionId",
          "type": "uint256"
        },
        {
          "indexed": true,
          "internalType": "address",
          "name": "trader",
          "type": "address"
        },
        {
          "indexed": false,
          "internalType": "bytes32",
          "name": "pairId",
          "type": "bytes32"
        },
        {
          "indexed": false,
          "internalType": "bool",
          "name": "isLong",
          "type": "bool"
        },
        {
          "indexed": false,
          "internalType": "uint256",
          "name": "sizeUsd",
          "type": "uint256"
        },
        {
          "indexed": false,
          "internalType": "uint256",
          "name": "entryPrice",
          "type": "uint256"
        },
        {
          "indexed": false,
          "internalType": "uint256",
          "name": "leverage",
          "type": "uint256"
        }
      ],
      "name": "PositionOpened",
      "type": "event"
    },
    {
      "anonymous": false,
      "inputs": [
        {
          "indexed": true,
          "internalType": "uint256",
          "name": "positionId",
          "type": "uint256"
        },
        {
          "indexed": true,
          "internalType": "address",
          "name": "trader",
          "type": "address"
        },
        {
          "indexed": false,
          "internalType": "uint256",
          "name": "closeSizeUsd",
          "type": "uint256"
        },
        {
          "indexed": false,
          "internalType": "uint256",
          "name": "exitPrice",
          "type": "uint256"
        },
        {
          "indexed": false,
          "internalType": "int256",
          "name": "pnl",
          "type": "int256"
        }
      ],
      "name": "PositionPartialClose",
      "type": "event"
    },
    {
      "anonymous": false,
      "inputs": [
        {
          "indexed": true,
          "internalType": "uint256",
          "name": "positionId",
          "type": "uint256"
        },
        {
          "indexed": false,
          "internalType": "bool",
          "name": "isTakeProfit",
          "type": "bool"
        },
        {
          "indexed": false,
          "internalType": "uint256",
          "name": "executionPrice",
          "type": "uint256"
        }
      ],
      "name": "TPSLTriggered",
      "type": "event"
    },
    {
      "anonymous": false,
      "inputs": [
        {
          "indexed": true,
          "internalType": "uint256",
          "name": "orderId",
          "type": "uint256"
        },
        {
          "indexed": false,
          "internalType": "uint256",
          "name": "sliceNumber",
          "type": "uint256"
        },
        {
          "indexed": false,
          "internalType": "uint256",
          "name": "sizeUsd",
          "type": "uint256"
        }
      ],
      "name": "TWAPSliceExecuted",
      "type": "event"
    },
    {
      "inputs": [],
      "name": "MIN_COLLATERAL",
      "outputs": [
        {
          "internalType": "uint256",
          "name": "",
          "type": "uint256"
        }
      ],
      "stateMutability": "view",
      "type": "function"
    },
    {
      "inputs": [],
      "name": "MIN_POSITION_SIZE",
      "outputs": [
        {
          "internalType": "uint256",
          "name": "",
          "type": "uint256"
        }
      ],
      "stateMutability": "view",
      "type": "function"
    },
    {
      "inputs": [
        {
          "internalType": "uint256",
          "name": "positionId",
          "type": "uint256"
        },
        {
          "internalType": "uint256",
          "name": "amount",
          "type": "uint256"
        }
      ],
      "name": "addCollateral",
      "outputs": [],
      "stateMutability": "nonpayable",
      "type": "function"
    },
    {
      "inputs": [
        {
          "internalType": "uint256",
          "name": "orderId",
          "type": "uint256"
        }
      ],
      "name": "cancelOrder",
      "outputs": [],
      "stateMutability": "nonpayable",
      "type": "function"
    },
    {
      "inputs": [
        {
          "internalType": "uint256",
          "name": "positionId",
          "type": "uint256"
        },
        {
          "internalType": "bytes[]",
          "name": "updateData",
          "type": "bytes[]"
        }
      ],
      "name": "closePositionInstantly",
      "outputs": [],
      "stateMutability": "payable",
      "type": "function"
    },
    {
      "inputs": [
        {
          "internalType": "uint256",
          "name": "positionId",
          "type": "uint256"
        },
        {
          "internalType": "uint256",
          "name": "closePercent",
          "type": "uint256"
        },
        {
          "internalType": "bytes[]",
          "name": "updateData",
          "type": "bytes[]"
        }
      ],
      "name": "closePositionPartial",
      "outputs": [],
      "stateMutability": "payable",
      "type": "function"
    },
    {
      "inputs": [],
      "name": "core",
      "outputs": [
        {
          "internalType": "contract ConfidentialCore",
          "name": "",
          "type": "address"
        }
      ],
      "stateMutability": "view",
      "type": "function"
    },
    {
      "inputs": [
        {
          "internalType": "uint256",
          "name": "positionId",
          "type": "uint256"
        }
      ],
      "name": "createCloseRequest",
      "outputs": [
        {
          "internalType": "uint256",
          "name": "orderId",
          "type": "uint256"
        }
      ],
      "stateMutability": "payable",
      "type": "function"
    },
    {
      "inputs": [
        {
          "internalType": "bytes32",
          "name": "pairId",
          "type": "bytes32"
        },
        {
          "internalType": "bool",
          "name": "isLong",
          "type": "bool"
        },
        {
          "internalType": "uint256",
          "name": "totalSizeUsd",
          "type": "uint256"
        },
        {
          "internalType": "uint256",
          "name": "leverage",
          "type": "uint256"
        },
        {
          "internalType": "uint256",
          "name": "slices",
          "type": "uint256"
        },
        {
          "internalType": "uint256",
          "name": "intervalSec",
          "type": "uint256"
        },
        {
          "internalType": "uint256",
          "name": "tpPrice",
          "type": "uint256"
        },
        {
          "internalType": "uint256",
          "name": "slPrice",
          "type": "uint256"
        }
      ],
      "name": "createTwapOrder",
      "outputs": [
        {
          "internalType": "uint256",
          "name": "orderId",
          "type": "uint256"
        }
      ],
      "stateMutability": "payable",
      "type": "function"
    },
    {
      "inputs": [
        {
          "internalType": "uint256[]",
          "name": "positionIds",
          "type": "uint256[]"
        },
        {
          "internalType": "bytes[]",
          "name": "updateData",
          "type": "bytes[]"
        }
      ],
      "name": "executeADL",
      "outputs": [],
      "stateMutability": "payable",
      "type": "function"
    },
    {
      "inputs": [
        {
          "internalType": "uint256",
          "name": "orderId",
          "type": "uint256"
        },
        {
          "internalType": "bytes[]",
          "name": "updateData",
          "type": "bytes[]"
        }
      ],
      "name": "executeOrder",
      "outputs": [],
      "stateMutability": "payable",
      "type": "function"
    },
    {
      "inputs": [
        {
          "internalType": "uint256",
          "name": "positionId",
          "type": "uint256"
        },
        {
          "internalType": "bytes[]",
          "name": "updateData",
          "type": "bytes[]"
        }
      ],
      "name": "executeTPSL",
      "outputs": [],
      "stateMutability": "payable",
      "type": "function"
    },
    {
      "inputs": [],
      "name": "executionBufferBps",
      "outputs": [
        {
          "internalType": "uint256",
          "name": "",
          "type": "uint256"
        }
      ],
      "stateMutability": "view",
      "type": "function"
    },
    {
      "inputs": [
        {
          "internalType": "uint256",
          "name": "",
          "type": "uint256"
        }
      ],
      "name": "hasActiveCloseRequest",
      "outputs": [
        {
          "internalType": "bool",
          "name": "",
          "type": "bool"
        }
      ],
      "stateMutability": "view",
      "type": "function"
    },
    {
      "inputs": [
        {
          "internalType": "uint256",
          "name": "positionId",
          "type": "uint256"
        },
        {
          "internalType": "uint256",
          "name": "additionalSizeUsd",
          "type": "uint256"
        },
        {
          "internalType": "uint256",
          "name": "additionalLeverage",
          "type": "uint256"
        },
        {
          "internalType": "uint256",
          "name": "acceptablePrice",
          "type": "uint256"
        },
        {
          "internalType": "bytes[]",
          "name": "updateData",
          "type": "bytes[]"
        }
      ],
      "name": "increasePosition",
      "outputs": [],
      "stateMutability": "payable",
      "type": "function"
    },
    {
      "inputs": [
        {
          "internalType": "uint256",
          "name": "positionId",
          "type": "uint256"
        },
        {
          "internalType": "bytes[]",
          "name": "updateData",
          "type": "bytes[]"
        }
      ],
      "name": "liquidate",
      "outputs": [],
      "stateMutability": "payable",
      "type": "function"
    },
    {
      "inputs": [],
      "name": "liquidationRewardBps",
      "outputs": [
        {
          "internalType": "uint256",
          "name": "",
          "type": "uint256"
        }
      ],
      "stateMutability": "view",
      "type": "function"
    },
    {
      "inputs": [],
      "name": "maxOrderAge",
      "outputs": [
        {
          "internalType": "uint256",
          "name": "",
          "type": "uint256"
        }
      ],
      "stateMutability": "view",
      "type": "function"
    },
    {
      "inputs": [],
      "name": "nextOrderId",
      "outputs": [
        {
          "internalType": "uint256",
          "name": "",
          "type": "uint256"
        }
      ],
      "stateMutability": "view",
      "type": "function"
    },
    {
      "inputs": [],
      "name": "nextPositionId",
      "outputs": [
        {
          "internalType": "uint256",
          "name": "",
          "type": "uint256"
        }
      ],
      "stateMutability": "view",
      "type": "function"
    },
    {
      "inputs": [],
      "name": "oracle",
      "outputs": [
        {
          "internalType": "contract PythPriceOracle",
          "name": "",
          "type": "address"
        }
      ],
      "stateMutability": "view",
      "type": "function"
    },
    {
      "inputs": [
        {
          "internalType": "uint256",
          "name": "",
          "type": "uint256"
        }
      ],
      "name": "pendingOrders",
      "outputs": [
        {
          "internalType": "bytes32",
          "name": "pairId",
          "type": "bytes32"
        },
        {
          "internalType": "address",
          "name": "trader",
          "type": "address"
        },
        {
          "internalType": "bool",
          "name": "isLong",
          "type": "bool"
        },
        {
          "internalType": "uint256",
          "name": "sizeUsd",
          "type": "uint256"
        },
        {
          "internalType": "uint256",
          "name": "collateral",
          "type": "uint256"
        },
        {
          "internalType": "uint256",
          "name": "leverage",
          "type": "uint256"
        },
        {
          "internalType": "uint256",
          "name": "triggerPrice",
          "type": "uint256"
        },
        {
          "internalType": "uint8",
          "name": "orderType",
          "type": "uint8"
        },
        {
          "internalType": "bool",
          "name": "isActive",
          "type": "bool"
        },
        {
          "internalType": "uint256",
          "name": "createdAt",
          "type": "uint256"
        },
        {
          "internalType": "uint256",
          "name": "positionId",
          "type": "uint256"
        },
        {
          "internalType": "uint256",
          "name": "feePaid",
          "type": "uint256"
        },
        {
          "internalType": "uint256",
          "name": "executionFee",
          "type": "uint256"
        },
        {
          "internalType": "uint256",
          "name": "tpPrice",
          "type": "uint256"
        },
        {
          "internalType": "uint256",
          "name": "slPrice",
          "type": "uint256"
        },
        {
          "internalType": "uint256",
          "name": "twapSlices",
          "type": "uint256"
        },
        {
          "internalType": "uint256",
          "name": "twapInterval",
          "type": "uint256"
        },
        {
          "internalType": "uint256",
          "name": "twapExecuted",
          "type": "uint256"
        },
        {
          "internalType": "uint256",
          "name": "twapLastExec",
          "type": "uint256"
        }
      ],
      "stateMutability": "view",
      "type": "function"
    },
    {
      "inputs": [
        {
          "internalType": "bytes32",
          "name": "pairId",
          "type": "bytes32"
        },
        {
          "internalType": "bool",
          "name": "isLong",
          "type": "bool"
        },
        {
          "internalType": "uint256",
          "name": "sizeUsd",
          "type": "uint256"
        },
        {
          "internalType": "uint256",
          "name": "leverage",
          "type": "uint256"
        },
        {
          "internalType": "uint256",
          "name": "tpPrice",
          "type": "uint256"
        },
        {
          "internalType": "uint256",
          "name": "slPrice",
          "type": "uint256"
        },
        {
          "internalType": "uint256",
          "name": "acceptablePrice",
          "type": "uint256"
        },
        {
          "internalType": "bytes[]",
          "name": "updateData",
          "type": "bytes[]"
        }
      ],
      "name": "placeMarketOrder",
      "outputs": [
        {
          "internalType": "uint256",
          "name": "posId",
          "type": "uint256"
        }
      ],
      "stateMutability": "payable",
      "type": "function"
    },
    {
      "inputs": [
        {
          "internalType": "bytes32",
          "name": "pairId",
          "type": "bytes32"
        },
        {
          "internalType": "bool",
          "name": "isLong",
          "type": "bool"
        },
        {
          "internalType": "uint256",
          "name": "sizeUsd",
          "type": "uint256"
        },
        {
          "internalType": "uint256",
          "name": "leverage",
          "type": "uint256"
        },
        {
          "internalType": "uint256",
          "name": "triggerPrice",
          "type": "uint256"
        },
        {
          "internalType": "uint8",
          "name": "orderType",
          "type": "uint8"
        },
        {
          "internalType": "uint256",
          "name": "tpPrice",
          "type": "uint256"
        },
        {
          "internalType": "uint256",
          "name": "slPrice",
          "type": "uint256"
        }
      ],
      "name": "placeOrder",
      "outputs": [
        {
          "internalType": "uint256",
          "name": "orderId",
          "type": "uint256"
        }
      ],
      "stateMutability": "payable",
      "type": "function"
    },
    {
      "inputs": [
        {
          "internalType": "uint256",
          "name": "",
          "type": "uint256"
        }
      ],
      "name": "positions",
      "outputs": [
        {
          "internalType": "bytes32",
          "name": "pairId",
          "type": "bytes32"
        },
        {
          "internalType": "address",
          "name": "trader",
          "type": "address"
        },
        {
          "internalType": "bool",
          "name": "isLong",
          "type": "bool"
        },
        {
          "internalType": "uint256",
          "name": "sizeUsd",
          "type": "uint256"
        },
        {
          "internalType": "uint256",
          "name": "collateral",
          "type": "uint256"
        },
        {
          "internalType": "uint256",
          "name": "entryPrice",
          "type": "uint256"
        },
        {
          "internalType": "uint256",
          "name": "leverage",
          "type": "uint256"
        },
        {
          "internalType": "uint256",
          "name": "liquidationPrice",
          "type": "uint256"
        },
        {
          "internalType": "uint256",
          "name": "openedAt",
          "type": "uint256"
        },
        {
          "internalType": "bool",
          "name": "isOpen",
          "type": "bool"
        },
        {
          "internalType": "uint256",
          "name": "tpPrice",
          "type": "uint256"
        },
        {
          "internalType": "uint256",
          "name": "slPrice",
          "type": "uint256"
        },
        {
          "internalType": "int256",
          "name": "entryFundingIndex",
          "type": "int256"
        },
        {
          "internalType": "uint256",
          "name": "lastRolloverSettled",
          "type": "uint256"
        }
      ],
      "stateMutability": "view",
      "type": "function"
    },
    {
      "inputs": [
        {
          "internalType": "uint256",
          "name": "positionId",
          "type": "uint256"
        },
        {
          "internalType": "uint256",
          "name": "amount",
          "type": "uint256"
        },
        {
          "internalType": "bytes[]",
          "name": "updateData",
          "type": "bytes[]"
        }
      ],
      "name": "removeCollateral",
      "outputs": [],
      "stateMutability": "payable",
      "type": "function"
    },
    {
      "inputs": [],
      "name": "rolloverFeePerHour",
      "outputs": [
        {
          "internalType": "uint256",
          "name": "",
          "type": "uint256"
        }
      ],
      "stateMutability": "view",
      "type": "function"
    },
    {
      "inputs": [
        {
          "internalType": "uint256",
          "name": "_bps",
          "type": "uint256"
        }
      ],
      "name": "setExecutionBufferBps",
      "outputs": [],
      "stateMutability": "nonpayable",
      "type": "function"
    },
    {
      "inputs": [
        {
          "internalType": "uint256",
          "name": "_bps",
          "type": "uint256"
        }
      ],
      "name": "setLiquidationRewardBps",
      "outputs": [],
      "stateMutability": "nonpayable",
      "type": "function"
    },
    {
      "inputs": [
        {
          "internalType": "uint256",
          "name": "_seconds",
          "type": "uint256"
        }
      ],
      "name": "setMaxOrderAge",
      "outputs": [],
      "stateMutability": "nonpayable",
      "type": "function"
    },
    {
      "inputs": [
        {
          "internalType": "uint256",
          "name": "_fee",
          "type": "uint256"
        }
      ],
      "name": "setRolloverFeePerHour",
      "outputs": [],
      "stateMutability": "nonpayable",
      "type": "function"
    },
    {
      "inputs": [
        {
          "internalType": "uint256",
          "name": "positionId",
          "type": "uint256"
        },
        {
          "internalType": "uint256",
          "name": "newTpPrice",
          "type": "uint256"
        },
        {
          "internalType": "uint256",
          "name": "newSlPrice",
          "type": "uint256"
        }
      ],
      "name": "updateTpSl",
      "outputs": [],
      "stateMutability": "nonpayable",
      "type": "function"
    },
    {
      "inputs": [],
      "name": "usdc",
      "outputs": [
        {
          "internalType": "contract IERC20",
          "name": "",
          "type": "address"
        }
      ],
      "stateMutability": "view",
      "type": "function"
    },
    {
      "inputs": [
        {
          "internalType": "address",
          "name": "",
          "type": "address"
        },
        {
          "internalType": "uint256",
          "name": "",
          "type": "uint256"
        }
      ],
      "name": "userOrders",
      "outputs": [
        {
          "internalType": "uint256",
          "name": "",
          "type": "uint256"
        }
      ],
      "stateMutability": "view",
      "type": "function"
    },
    {
      "inputs": [
        {
          "internalType": "address",
          "name": "",
          "type": "address"
        },
        {
          "internalType": "uint256",
          "name": "",
          "type": "uint256"
        }
      ],
      "name": "userPositions",
      "outputs": [
        {
          "internalType": "uint256",
          "name": "",
          "type": "uint256"
        }
      ],
      "stateMutability": "view",
      "type": "function"
    },
    {
      "inputs": [],
      "name": "vault",
      "outputs": [
        {
          "internalType": "contract ConfidentialVault",
          "name": "",
          "type": "address"
        }
      ],
      "stateMutability": "view",
      "type": "function"
    },
    {
      "stateMutability": "payable",
      "type": "receive"
    }
  ],
  "bytecode": "0x608034620000e957601f6200537a38819003918201601f19168301916001600160401b03831184841017620000ed57808492608094604052833981010312620000e9576200004d8162000101565b906200005c6020820162000101565b620000786060620000706040850162000101565b930162000101565b9060015f55600160055560016006555f600b556064600c5562093a80600d55601e600e5560018060a01b03928380928160018060a01b031997168760045416176004551685600154161760015516836002541617600255169060035416176003556040516152639081620001178239f35b5f80fd5b634e487b7160e01b5f52604160045260245ffd5b51906001600160a01b0382168203620000e95756fe60e080604052600436101561001c575b50361561001a575f80fd5b005b5f905f3560e01c908163233b4d5714612cff575080632a58b33014612ce25780632c0e1e9e146126c05780632c338fed146126915780632e80f9a4146125ff57806331e01f4a146122ae57806333e7dddb14612293578063368dbba81461058e5780633e413bee1461226a57806341aa303b14612204578063514fcac7146120365780635e1b4d9914611ff85780636c4c001d14611fda5780636fb197f714611cd25780637dc0d1d014611ca957806380b74258146119c3578063856652e91461197757806387f19423146115a0578063899346c7146115825780638fb735ee1461156457806399fbab88146114965780639bfe7e3e1461129d578063a8f35adf14611166578063ba7ebf5f146110b9578063c009687c14610ff4578063c09403ac14610ce1578063c29433a614610cc3578063c3aaea4e14610b80578063ee6d519814610b62578063effaed8914610b44578063f2f4eb2614610b1b578063f5ba8a2a1461097d578063f661417014610593578063fa7796481461058e578063fbfa77cf146105655763fd5c77cd0361000f576040366003190112610562576001600160401b0360043581811161055e576101dc903690600401612dac565b60249260243590811161055a576101f7903690600401612dac565b919092610202614362565b60018060a01b0392600195846001541691604051809363aced166160e01b825281600460209687935afa801561054f5787918b91610522575b501633036104e757600296600484886002541660405192838092637510e6c960e11b82525afa80156104dc578b906104a9575b61251c9150111561045957908991816103eb575b50505b84811061029457886001815580f35b61029f818686614352565b35895260078352604089208960ff918a83600883015416156103e1575088600354169260408254878251809781936331d98b3f60e01b835260048301525afa9384156103d65783946103a4575b50818c015460a01c1615610387578061031b6004610320930154918c6103128488613cc9565b91015490613ce1565b613d03565b1315610343579061033d8992610337838989614352565b35614dfc565b01610285565b60405162461bcd60e51b815260048101859052601c818501527f43616e6e6f742041444c2061206c6f73696e6720706f736974696f6e000000006044820152606490fd5b8061031b600461039f930154918c6103128785613cc9565b610320565b6103c791945060403d6040116103cf575b6103bf8183612eeb565b810190613078565b50925f6102ec565b503d6103b5565b6040513d85823e3d90fd5b939250505061033d565b876003541691823b1561045557604051631df3cbc560e31b815292849284928391829161041b9160048401612fd7565b039134905af1801561044a57610432575b80610282565b61043b90612ebc565b61044657875f61042c565b8780fd5b6040513d84823e3d90fd5b8380fd5b60405162461bcd60e51b815260048101859052602260248201527f41444c206f6e6c7920696e20656d657267656e637920287574696c203e203935604482015261252960f01b6064820152608490fd5b508481813d83116104d5575b6104bf8183612eeb565b810103126104d15761251c905161026e565b5f80fd5b503d6104b5565b6040513d8d823e3d90fd5b60405162461bcd60e51b815260048101849052601360248201527213db9b1e4812d9595c195c8818d85b88105113606a1b6044820152606490fd5b6105429150853d8711610548575b61053a8183612eeb565b810190612f0c565b5f61023b565b503d610530565b6040513d8c823e3d90fd5b8480fd5b8280fd5b80fd5b50346105625780600319360112610562576002546040516001600160a01b039091168152602090f35b612e1e565b508061059e36612deb565b906105aa939293614362565b8161091b575b5050908060249252602090600782526040842060088101906105d560ff835416612fa0565b6003548154604080516331d98b3f60e01b815260048101839052976001600160a01b03949293899190829087165afa9687156109105788976108ee575b50600181019160ff835460a01c165f146108e15760068201548811155b156108a957908891828861064a61064585614294565b615142565b9260248860015416916040519485938492637cc6765f60e11b845260048401525af190811561085357899161087a575b505061068d61068883614294565b615174565b81848213610869575b50506003820154908181111561085e57506106b18180613161565b916127106106c1600c548561314e565b049660ff1981541690558560015416908054906002875491015492803b156107e35760405163019ca2b960e51b815260048101939093526001600160a01b03828a1616602484015260a09190911c60ff1615156044830152606482019290925290849082908183816084810103925af190811561085357849161083f575b5050806107e7575b508360025416908484541690823b1561045557608484928360405195869485936309c0533b60e01b8552600485015233602485015260448401528a60648401525af1801561044a576107cf575b50505416926040519485528401527f3b7bc7c0fdc798ac653b9f0d6d28adb2293a55402d32c21d323da740ccc6553960403394a46001815580f35b6107d890612ebc565b6107e357865f610794565b8680fd5b846002541690813b1561045557839160248392604051948593849263ff20b48d60e01b845260048401525af19081156103d6578391610827575b50610747565b61083090612ebc565b61083b57815f610821565b5080fd5b61084890612ebc565b61055e57825f61073f565b6040513d86823e3d90fd5b6106b1908092613161565b610873925061311d565b5f80610696565b90809294503d83116108a2575b6108918183612eeb565b810103126104d1578891875f61067a565b503d610887565b60405162461bcd60e51b815260048101889052601060248201526f4e6f74206c6971756964617461626c6560801b6044820152606490fd5b600682015488101561062f565b61090891975060403d6040116103cf576103bf8183612eeb565b50955f610612565b6040513d8a823e3d90fd5b6003546001600160a01b031691823b1561045557604051631df3cbc560e31b81529284928492839182916109529160048401612fd7565b039134905af1801561044a57610969575b806105b0565b61097290612ebc565b61083b57815f610963565b5061098736612deb565b9190610991614362565b81845260076020528360408120936109af60ff600887015416612fa0565b60018501546001600160a01b0393906109cb9085163314612f2b565b600460078701546020866001541660405193848092636d78097360e11b82525afa918215610b10578592610ad7575b50610a1091610a089161311d565b421015613c00565b81610a7c575b50505060409060035416925460248251809581936331d98b3f60e01b835260048301525afa9081156103d657610a53928492610a5a575b50614dfc565b6001815580f35b610a7491925060403d6040116103cf576103bf8183612eeb565b50905f610a4d565b836003541691823b1561045557604051631df3cbc560e31b8152928492849283918291610aac9160048401612fd7565b039134905af1801561044a57610ac3575b80610a16565b610acc90612ebc565b61045557835f610abd565b945090506020843d602011610b08575b81610af460209383612eeb565b810103126104d15792518793610a086109fa565b3d9150610ae7565b6040513d87823e3d90fd5b50346105625780600319360112610562576001546040516001600160a01b039091168152602090f35b50346105625780600319360112610562576020600c54604051908152f35b50610a53610b6f36612e8a565b92610b7b929192614362565b613d1d565b503461056257602036600319011261056257600435815260086020526040902080808054600182015460c05260028201546003830154600484015460058501546006860154600787015490600888015492600989015494600a8a015496600b8b015498600c8c01549a600d8d01549c600e01549d600f01549e6010015460805260405160a05260a05152600160a01b6001900360c0511660a0516020015260c05160a01c60ff16151560a0516040015260a0516060015260a0516080015260a05160a0015260a05160c0015260ff811660a05160e0015260081c60ff16151560a051610100015260a051610120015260a051610140015260a051610160015260a051610180015260a0516101a0015260a0516101c0015260a0516101e0015260a051610200015260a051610220015260805160a051610240015260a05161026090f35b50346105625780600319360112610562576020600d54604051908152f35b5061010036600319011261056257610cf7612ddc565b9060a4359060ff8216820361056257610d0e614362565b610d1f620f42406044351015612f63565b600260ff831611610fbb5760c435610f76575b60e435610f31575b6001546001600160a01b031692833b1561083b5760405163bd79156f60e01b8152828180610d756064356044358733600480359087016130ce565b0381885afa80156103d657610f1d575b506020604493946040519485809263e4d8cbe560e01b82528235600483015260ff89161560248301525afa92831561044a578293610ee6575b5090602093600192610dd46064356044356130ff565b94610de9610de2828861311d565b3033614383565b60065495610df687613bb9565b60065586855260088852604085206004358155868101805460ff60a01b1933166001600160a81b03199091161794151560a01b60ff60a01b169490941790935560443560028401556003830155606435600483015560843560058301556006820161010060ff851661ffff1983541617179055426007830155600982015534600a82015560c435600b820155600c60e435910155338252600a8552610e9e8460408420613bc7565b60ff60405191600435835216858201526084356040820152837f401524beccff0d9dd3447788dea32e11f3b7c9618ed6084f14a773dbf2025f1660603393a355604051908152f35b919092506020823d602011610f15575b81610f0360209383612eeb565b810103126104d1579051916020610dbe565b3d9150610ef6565b610f278391612ebc565b61083b575f610d85565b8215610f605760843560e435108015610f53575b610f4e906131ad565b610d3a565b5060ff8216600214610f45565b60843560e435118015610f5357610f4e906131ad565b8215610fa55760843560c435118015610f98575b610f939061316e565b610d32565b5060ff8216600214610f8a565b60843560c435108015610f9857610f939061316e565b60405162461bcd60e51b8152602060048201526011602482015270496e76616c6964206f726465725479706560781b6044820152606490fd5b503461056257602036600319011261056257600154604051638da5cb5b60e01b815260048035926001600160a01b0391602091849190829085165afa80156108535761104a92859161109a575b50163314612f2b565b8061105557600b5580f35b60405162461bcd60e51b815260206004820152601860248201527f5a65726f20626f72726f772066656520656e666f7263656400000000000000006044820152606490fd5b6110b3915060203d6020116105485761053a8183612eeb565b5f611041565b503461056257602036600319011261056257600154604051638da5cb5b60e01b815260048035926001600160a01b0391602091849190829085165afa80156108535761110e92859161109a5750163314612f2b565b610e1081101580611159575b1561112557600d5580f35b60405162461bcd60e51b815260206004820152600c60248201526b31682d3330642072616e676560a01b6044820152606490fd5b5062278d0081111561111a565b503461056257604036600319011261056257602435600435611186614362565b611191821515613c3e565b8083526007602052604083206111ad60ff600883015416612fa0565b60018101908460018060a01b036111c8818554163314612f2b565b6111d786826002541633614383565b60025416803b1561083b57818091602460405180948193636e93ae2b60e01b83528b60048401525af1801561044a57611289575b505061124c6006926003830161122287825461311d565b809155600284015461123482826130ff565b600586015560ff6004860154935460a01c1692614728565b918291015560405192835260208301527f935a476d8eb416e1441bbdc27477a7d90012bed1a74dba06f77fc32b8b119bd860403393a36001815580f35b61129290612ebc565b61055a57845f61120b565b506020908160031936011261056257600435906112b8614362565b818152600783526040812060ff6008820154161561145d5760018101546001600160a01b03906112eb9082163314612f2b565b838352600f855260ff604084205416611421576007820154600154604051636d78097360e11b8152949392879186916004918391165afa9384156103d65783946113f0575b50610a086001946113409261311d565b838252600f855260408220805460ff1916841790556006549361136285613bb9565b600655848352600886526040832090848201336bffffffffffffffffffffffff60a01b8254161790556006820161010361ffff198254161790554260078301556008820155600a3491015554604051908152600385820152816040820152837f401524beccff0d9dd3447788dea32e11f3b7c9618ed6084f14a773dbf2025f1660603393a355604051908152f35b93508584813d831161141a575b6114078183612eeb565b810103126104d157925192610a08611330565b503d6113fd565b60405162461bcd60e51b8152600481018690526014602482015273436c6f736520726571756573742065786973747360601b6044820152606490fd5b60405162461bcd60e51b81526004810185905260116024820152702837b9b4ba34b7b7103737ba1037b832b760791b6044820152606490fd5b50346105625760203660031901126105625760406101c09160043581526007602052208054906001810154906002810154600382015460048301546005840154600685015460078601549160ff60088801541693600988015495600a8901549760ff600c600b8c01549b01549b6040519d8e528d602060018060a01b03831691015260a01c16151560408d015260608c015260808b015260a08a015260c089015260e088015261010087015215156101208601526101408501526101608401526101808301526101a0820152f35b50346105625780600319360112610562576020600b54604051908152f35b50346105625780600319360112610562576020600554604051908152f35b506115aa36612e8a565b906115b6939293614362565b6115c1841515613c3e565b8285526020906007825260408620926115e060ff600886015416612fa0565b86600185019160018060a01b03936115fc858554163314612f2b565b8161191c575b50505061160e84614465565b600384019361161e878654613161565b90620f424082106118e05760028101549161163981846130ff565b90856001541694602460e08554976040519283809263351bd11560e11b82528b60048301525afa80156118d5578d9061182c575b60409150015183116117f0579061169a8493928260ff8f9a99989760040154925460a01c16968792614728565b98604087600354169660248251809981936331d98b3f60e01b835260048301525afa8015610910578a60069681988b936117ce575b50156117bf576116df9111613c85565b55600582015501558060025416803b1561055e578280916024604051809481936306e980c560e51b83528c60048401525af19081156103d65783916117ab575b505060025416803b1561083b576040516374e863ad60e01b8152336004820152602481018790529082908290604490829084905af1801561044a57611797575b50506040519384528301527fdf372a02d8e5139b85d7448d53241f194a27db9f321178c970db6e998ebb600160403393a36001815580f35b6117a090612ebc565b61055a57845f61175f565b6117b490612ebc565b61083b57815f61171f565b6117c99110613c85565b6116df565b6117e891935060403d6040116103cf576103bf8183612eeb565b50915f6116cf565b60405162461bcd60e51b815260048101899052601460248201527345786365656473206d6178206c6576657261676560601b6044820152606490fd5b5060e0813d60e0116118cd575b8161184660e09383612eeb565b810103126118c95760405160e08101918183106001600160401b038411176118b55760c06118ab916040948552805184528c8101518d8501528481015185850152606081015160608501526080810151608085015260a081015160a085015201613c78565b60c082015261166d565b634e487b7160e01b5f52604160045260245ffd5b8c80fd5b3d9150611839565b6040513d8f823e3d90fd5b60405162461bcd60e51b815260048101869052601460248201527310995b1bddc81b5a5b8818dbdb1b185d195c985b60621b6044820152606490fd5b846003541691823b1561045557604051631df3cbc560e31b815292849284928391829161194c9160048401612fd7565b039134905af1801561044a57611963575b80611602565b61196c90612ebc565b6107e357865f61195d565b50346105625761198636612e3b565b6001600160a01b039091168252600a602052604082208054919290918310156105625760206119b58484612e61565b90546040519160031b1c8152f35b506119cd36612deb565b906119d9939293614362565b81611c4a575b5050818152602091600783526040822090611a0060ff600884015416612fa0565b6007820154600154604051636d78097360e11b81526001600160a01b03929187908290600490829087165afa908115611c3f578691611c10575b50610a0890611a489261311d565b600354166040835460248251809481936331d98b3f60e01b835260048301525afa908115610853578491611bf0575b508384918094600981015480611b8c575b50821580611b7f575b611b13575b505015611ad8577fac4fd466c8f994e08ce2eb9141c2f01f2a779a3537d9bd71fa8762df3d12842c6040839285610a53979883519215158352820152a2614dfc565b60405162461bcd60e51b815260048101869052601360248201527215140bd4d3081b9bdd081d1c9a59d9d95c9959606a1b6044820152606490fd5b909150600a81015491600e549160ff6001611b50612710611b49611b4282611b3b8a8c61314e565b048a61311d565b978961314e565b0487613161565b92015460a01c1615611b7557501115905b81611b6d575b80611a96565b93505f611b67565b9150101590611b61565b50600a8101541515611a91565b93509150600e54611bbf612710611bb8611bb182611baa868a61314e565b0488613161565b938761314e565b048561311d565b600184015460a01c60ff1615611be55750811015915b82938315611a885795505f611a88565b905081111591611bd5565b611c09915060403d6040116103cf576103bf8183612eeb565b505f611a77565b90508681813d8311611c38575b611c278183612eeb565b810103126104d15751611a48611a3a565b503d611c1d565b6040513d88823e3d90fd5b6003546001600160a01b031690813b1561045557918391611c8193604051809581948293631df3cbc560e31b845260048401612fd7565b039134905af1801561044a57908291156119df57611c9e90612ebc565b61056257805f6119df565b50346105625780600319360112610562576003546040516001600160a01b039091168152602090f35b506101003660031901126105625760043590611cec612ddc565b9160443591606435916084359460a43590611d05614362565b600287101580611fcf575b15611f9957603c8210611f6157620f42408781029081048803611f4d578610611f11576001546001600160a01b031696873b1561055a5760405163bd79156f60e01b8152858180611d688a8c88338c600487016130ce565b03818c5afa8015611c3f57908691611efd575b5050611d8786886130ff565b9760405198899163e4d8cbe560e01b835289600484015287602484015282604460209c8d935afa918215611ef2578792611ebc575b509060019782611dd3610de284600e98979661311d565b6006549a611de08c613bb9565b6006558b8a5260088d5260408a208981558b8101805460ff60a01b1933166001600160a81b03199091161797151560a01b60ff60a01b16979097179096556002860155600385015560048401556006830161010461ffff19825416179055426007840155600983015534600a83015560c435600b83015560e435600c830155600d8201550155338252600a8552611e7a8460408420613bc7565b604051908152600485820152816040820152837f401524beccff0d9dd3447788dea32e11f3b7c9618ed6084f14a773dbf2025f1660603393a355604051908152f35b939291508984813d8311611eeb575b611ed58183612eeb565b810103126104d157925191929091906001611dbc565b503d611ecb565b6040513d89823e3d90fd5b611f0690612ebc565b61055a57845f611d7b565b60405162461bcd60e51b815260206004820152601460248201527314db1a58d9481cda5e99481d1bdbc81cdb585b1b60621b6044820152606490fd5b634e487b7160e01b85526011600452602485fd5b60405162461bcd60e51b815260206004820152601060248201526f135a5b880d8c1cc81a5b9d195c9d985b60821b6044820152606490fd5b60405162461bcd60e51b815260206004820152600e60248201526d496e76616c696420736c6963657360901b6044820152606490fd5b506064871115611d10565b50346105625780600319360112610562576020600e54604051908152f35b50346105625761200736612e3b565b6001600160a01b0390911682526009602052604082208054919290918310156105625760206119b58484612e61565b503461056257602036600319011261056257600435612053614362565b8082526008602052604082206006810190600360ff8354612078828260081c166131ec565b61208f60018060a01b036001860154163314612f2b565b61ff00198116855516146121e7575b60ff82541660038103612152575b50600460ff600a8301549354161480612145575b612118575b5082816120f9575b7f61b9399f2f0f32ca39ce8d7be32caed5ec22fe07a6daba3a467ed479ec606582915080a26001815580f35b80808061211194335af161210b613225565b50613263565b5f826120cd565b9061213982600f612130600d61213f960154856130ff565b9101549061314e565b90613161565b5f6120c5565b50600f81015415156120c0565b6003820154600460098401549214806121da575b61219a575b612175828261311d565b612180575b506120ac565b6121939161218d9161311d565b33614829565b5f8061217a565b906121d490612139600d8501546121ce6121be6121b783886130ff565b92856130ff565b95612139600f890154809461314e565b9461314e565b9061216b565b50600f8301541515612166565b60088101548452600f60205260408420805460ff1916905561209e565b50346105625760603660031901126105625761221e614362565b600435815260076020526040812061223c60ff600883015416612fa0565b61225360018060a01b036001830154163314612f2b565b6024356009820155600a6044359101556001815580f35b50346105625780600319360112610562576004546040516001600160a01b039091168152602090f35b50610a536122a036612deb565b916122a9614362565b613388565b5061010036600319011261056257600435906122c8612ddc565b9160c43560e4356001600160401b038111610455576122eb903690600401612dac565b906122f4614362565b612305620f42406044351015612f63565b8161259c575b5050600354604080516331d98b3f60e01b815260048101859052926001600160a01b03929091908490602490829086165afa928315610b1057859361257a575b5080612551575b5060843561252c575b60a435612507575b6001541691823b156104555760405163bd79156f60e01b81528481806123946064356044358b3389600487016130ce565b0381875afa8015610b10579085916124f3575b505060405194859363e4d8cbe560e01b8552604435600486015285602486015284604460209889935afa908115610b105785916124c2575b61249394506123f26064356044356130ff565b90612400610de2848461311d565b6040519361240d85612ecf565b8760c0860152876101208601528761014086015287610180860152876101e086015287610200860152876102208601528761024086015284523388850152151560408401526044356060840152608083015260643560a0830152600260e083015260016101008301526101608201526084356101a082015260a4356101c0820152614a35565b6005545f198101919082116124ae5760019055604051908152f35b634e487b7160e01b81526011600452602490fd5b90508584813d83116124ec575b6124d98183612eeb565b810103126104d1576124939351906123df565b503d6124cf565b6124fc90612ebc565b61045557835f6123a7565b841561251f5761251a8260a435106131ad565b612363565b61251a8260a435116131ad565b84156125445761253f826084351161316e565b61235b565b61253f826084351061316e565b8515612569576125639083111561308e565b5f612352565b6125759083101561308e565b612563565b61259491935060403d6040116103cf576103bf8183612eeb565b50915f61234b565b6003546001600160a01b031690813b156125fb579185916125d393604051809581948293631df3cbc560e31b845260048401612fd7565b039134905af18015610853579084911561230b576125f090612ebc565b61055e57825f61230b565b8580fd5b503461056257602036600319011261056257600154604051638da5cb5b60e01b815260048035926001600160a01b0391602091849190829085165afa80156108535761265492859161109a5750163314612f2b565b6101f4811161266357600c5580f35b60405162461bcd60e51b81526020600482015260066024820152654d617820352560d01b6044820152606490fd5b50346105625760203660031901126105625760ff60406020926004358152600f84522054166040519015158152f35b5060a03660031901126104d157606435906044356084356001600160401b0381116104d1576126f3903690600401612dac565b9190936126fe614362565b61270f620f42406024351015612f63565b6004355f52600760205260405f209261272e60ff600886015416612fa0565b600184019561274760018060a01b038854163314612f2b565b81612c75575b50506003548354604080516331d98b3f60e01b815260048101839052969791939192879060249082906001600160a01b03165afa958615611ef2578796612c53575b5080612c23575b508560018060a01b03600154169260ff835460a01c16843b1561055e5760405163bd79156f60e01b8152918391839182916127dc918a91602435913390600487016130ce565b0381875afa801561044a57612c0f575b505060206127fe6044946024356130ff565b926040519485809263e4d8cbe560e01b825260243560048301528a60248301525afa928315611c3f578693612bdb575b5061283c610de2848461311d565b61284584614465565b6001548454915460405163b391decf60e01b81526004810184905260a09190911c60ff16801515602480840191909152356044830152969160209082906001600160a01b031681806064810103915afa908115610910578891612ba9575b508188821315612b5757506128bb612710918361314e565b048615612b49576128cb9161311d565b945b60028501549586670de0b6b3a7640000810204670de0b6b3a76400001487151715612b355761290a6004870154670de0b6b3a764000089026130ff565b90602435670de0b6b3a76400006024350204670de0b6b3a764000014602435151715612b215761294690670de0b6b3a7640000602435026130ff565b6129526024358961311d565b9182670de0b6b3a7640000810204670de0b6b3a76400001483151715612b0d57836129a761299d8c98979695670de0b6b3a76400006129966006976129db9761311d565b91026130ff565b9a6024359061311d565b8060028b015560038a01906129bd88835461311d565b8092558b60048c01556129d082826130ff565b60058c01558b614728565b96019586556001546001600160a01b031691823b1561055a5760405163b65b361f60e01b81526004810191909152336024808301919091529115156044820152903560648201529083908290608490829084905af19081156103d6578391612af9575b5050600254612a579082906001600160a01b0316614829565b6002546001600160a01b031690813b1561055e578291602483926040519485938492636e93ae2b60e01b845260048401525af1801561044a57612ae5575b5050612aa0906148eb565b546040519160243583526020830152604082015233907ff48aa9a1deec4f3fc0cb0c073f4f097041726d7c7f9d2c3a863cd52f721e8d1a606060043592a36001815580f35b612aee90612ebc565b61045557835f612a95565b612b0290612ebc565b61083b57815f612a3e565b634e487b7160e01b8a52601160045260248afd5b634e487b7160e01b89526011600452602489fd5b634e487b7160e01b88526011600452602488fd5b612b5291613161565b6128cb565b90888198939812612b6a575b50506128cd565b61271091929750612b7d612b839161313e565b8361314e565b048615612b9b57612b9391613161565b945f80612b63565b612ba49161311d565b612b93565b90506020813d602011612bd3575b81612bc460209383612eeb565b810103126104d157515f6128a3565b3d9150612bb7565b9092506020813d602011612c07575b81612bf760209383612eeb565b810103126104d15751915f61282e565b3d9150612bea565b612c1890612ebc565b6125fb57855f6127ec565b815460a01c60ff1615612c4257612c3c9086111561308e565b5f612796565b612c4e9086101561308e565b612c3c565b612c6d91965060403d6040116103cf576103bf8183612eeb565b50945f61278f565b6003546001600160a01b031691823b156104d157604051631df3cbc560e31b8152925f92849283918291612cac9160048401612fd7565b039134905af18015612cd757612cc3575b8061274d565b60249450612cd090612ebc565b5f93612cbd565b6040513d5f823e3d90fd5b346104d1575f3660031901126104d1576020600654604051908152f35b346104d15760203660031901126104d1576004359060018060a01b036020826004818460015416638da5cb5b60e01b82525afa8015612cd757612d4b925f91612d8d5750163314612f2b565b60648111612d5857600e55005b60405162461bcd60e51b815260206004820152600d60248201526c26b0bc10189290313ab33332b960991b6044820152606490fd5b612da6915060203d6020116105485761053a8183612eeb565b84611041565b9181601f840112156104d1578235916001600160401b0383116104d1576020808501948460051b0101116104d157565b6024359081151582036104d157565b9060406003198301126104d15760043591602435906001600160401b0382116104d157612e1a91600401612dac565b9091565b346104d1575f3660031901126104d1576020604051620f42408152f35b60409060031901126104d1576004356001600160a01b03811681036104d1579060243590565b8054821015612e76575f5260205f2001905f90565b634e487b7160e01b5f52603260045260245ffd5b60606003198201126104d1576004359160243591604435906001600160401b0382116104d157612e1a91600401612dac565b6001600160401b0381116118b557604052565b61026081019081106001600160401b038211176118b557604052565b90601f801991011681019081106001600160401b038211176118b557604052565b908160209103126104d157516001600160a01b03811681036104d15790565b15612f3257565b60405162461bcd60e51b81526020600482015260096024820152682737ba1037bbb732b960b91b6044820152606490fd5b15612f6a57565b60405162461bcd60e51b815260206004820152600e60248201526d14da5e99481d1bdbc81cdb585b1b60921b6044820152606490fd5b15612fa757565b60405162461bcd60e51b81526020600482015260086024820152672737ba1037b832b760c11b6044820152606490fd5b9160208181850182865252604084019360408360051b82010194845f925b858410613006575050505050505090565b90919293949596603f198282030184528735601e19843603018112156104d15783018681019190356001600160401b0381116104d15780360383136104d15787828280600196849695859652848401375f828201840152601f01601f1916010199019796959190910193019190612ff5565b91908260409103126104d1576020825192015190565b1561309557565b60405162461bcd60e51b815260206004820152601160248201527014db1a5c1c1859d948195e18d959591959607a1b6044820152606490fd5b9081526001600160a01b03909116602082015290151560408201526060810191909152608081019190915260a00190565b8115613109570490565b634e487b7160e01b5f52601260045260245ffd5b9190820180921161312a57565b634e487b7160e01b5f52601160045260245ffd5b600160ff1b811461312a575f0390565b8181029291811591840414171561312a57565b9190820391821161312a57565b1561317557565b60405162461bcd60e51b815260206004820152601060248201526f496e76616c696420545020707269636560801b6044820152606490fd5b156131b457565b60405162461bcd60e51b815260206004820152601060248201526f496e76616c696420534c20707269636560801b6044820152606490fd5b156131f357565b60405162461bcd60e51b815260206004820152600a6024820152694e6f742061637469766560b01b6044820152606490fd5b3d1561325e573d906001600160401b0382116118b55760405191613253601f8201601f191660200184612eeb565b82523d5f602084013e565b606090565b1561326a57565b60405162461bcd60e51b8152602060048201526011602482015270115512081c99599d5b990819985a5b1959607a1b6044820152606490fd5b906040516132b081612ecf565b610240601082948054845260ff600182015460018060a01b038116602087015260a01c16151560408501526002810154606085015260038101546080850152600481015460a0850152600581015460c085015260ff600682015481811660e087015260081c161515610100850152600781015461012085015260088101546101408501526009810154610160850152600a810154610180850152600b8101546101a0850152600c8101546101c0850152600d8101546101e0850152600e810154610200850152600f8101546102208501520154910152565b90915f9281613b58575b505080825260086020526040822060068101546133b460ff8260081c166131ec565b6133c56007830154600d549061311d565b4211613a6057506003548154604080516331d98b3f60e01b8152600481018390529192829060249082906001600160a01b03165afa908115610b10578591613a40575b50600683015460ff16806136265750600183015460a01c60ff16915081156136195760058301548111155b156135e05761345e91156135cd576005830154808210156135c657505b613459836132a3565b614a35565b60068101805461ff00191690555b82600a8201548061351a575b5050600681015460ff8160081c1615613492575b50505050565b60ff166003036134cf5760087f9947370f1e808dd40de986fca744d8715d4d7aa575359f77a7bdeeb887f590ea910154925b80a35f80808061348c565b506005545f198101908111613506577f9947370f1e808dd40de986fca744d8715d4d7aa575359f77a7bdeeb887f590ea90926134c4565b634e487b7160e01b83526011600452602483fd5b81906006840154600460ff821614806135b9575b1561359f57506135449150600d840154906130ff565b80156134785781808092335af1613559613225565b501561356657825f613478565b60405162461bcd60e51b815260206004820152601160248201527012d9595c195c881999594819985a5b1959607a1b6044820152606490fd5b60081c60ff16156135b1575b50613544565b90505f6135ab565b50600d850154151561352e565b9050613450565b6005830154808211156135c65750613450565b60405162461bcd60e51b8152602060048201526011602482015270131a5b5a5d081b9bdd081c995858da1959607a1b6044820152606490fd5b6005830154811015613433565b600181036136f55750600183015460a01c60ff16915081156136d1576136606005840154612710613659600e548361314e565b0490613161565b915b156136ca5710155b15613692576136806005820154613459836132a3565b60068101805461ff001916905561346c565b60405162461bcd60e51b815260206004820152601060248201526f14dd1bdc081b9bdd081c995858da195960821b6044820152606490fd5b111561366a565b6136ef60058401546127106136e8600e548361314e565b049061311d565b91613662565b6002810361379f57509050600182015460ff8160a01c165f146137925760058301548211155b8015613786575b15613735575061368090613459836132a3565b61375c915061374d600384015460098501549061311d565b906001600160a01b0316614829565b817f61b9399f2f0f32ca39ce8d7be32caed5ec22fe07a6daba3a467ed479ec6065828480a2613680565b50600583015415613722565b600583015482101561371b565b600381036137df575090506137b960088301918254614dfc565b548352600f60205260408320805460ff1916905560068101805461ff001916905561346c565b6004146137ee575b505061346c565b600f8301549182158015613a24575b156139ed5761380b846132a3565b926001810190818111612b3557600d8601549182036139ad5780600287015461383484826130ff565b8260038a01549261384587856130ff565b9260098c01549761385690896130ff565b966138609161314e565b61386991613161565b60608a01526138779161314e565b61388091613161565b608087015261388e9161314e565b61389791613161565b6101608401525b6001805490850154606085015160048701549390926001600160a01b03169190823b156139a95760405163bd79156f60e01b8152948a9486949385938493613900939092909160a082901c60ff16916001600160a01b031690600487016130ce565b03915afa8015611c3f57908691613995575b505061391e9082614a35565b600f8201549060018201809211611f4d577f098dc6c1012d2fb4cc0470ec0f1b82ad9eaf354865d76ebad869d83f1559344e60406060869385600f88015542601088015501518151908582526020820152a2600d8201541115613983575b5f806137e7565b60068101805461ff001916905561397c565b61399e90612ebc565b61055a57845f613912565b8980fd5b50806139c06139e29260028801546130ff565b60608601526139d38160038801546130ff565b608086015260098601546130ff565b61016084015261389e565b60405162461bcd60e51b815260206004820152600f60248201526e545741503a20746f6f206561726c7960881b6044820152606490fd5b50613a386010850154600e8601549061311d565b4210156137fd565b613a59915060403d6040116103cf576103bf8183612eeb565b505f613408565b90600360ff7f61b9399f2f0f32ca39ce8d7be32caed5ec22fe07a6daba3a467ed479ec60658294959361ff0019811660068501551614613b3b575b600360ff600683015416141580613b20575b613aee575b81600a8201549182613ac5575b509050a2565b60010154613ae6928291829182916001600160a01b03165af161210b613225565b5f8181613abf565b600181015460038201546009830154613b1b926001600160a01b031691613b15919061311d565b90614829565b613ab2565b50613b34600382015460098301549061311d565b1515613aad565b60088101548252600f60205260408220805460ff19169055613a9b565b6003546001600160a01b031691823b156104d157604051631df3cbc560e31b8152925f92849283918291613b8f9160048401612fd7565b039134905af18015612cd757613ba6575b80613392565b613bb1919250612ebc565b5f905f613ba0565b5f19811461312a5760010190565b8054680100000000000000008110156118b557613be991600182018155612e61565b819291549060031b91821b915f19901b1916179055565b15613c0757565b60405162461bcd60e51b815260206004820152600f60248201526e436f6f6c646f776e2061637469766560881b6044820152606490fd5b15613c4557565b60405162461bcd60e51b815260206004820152600b60248201526a16995c9bc8185b5bdd5b9d60aa1b6044820152606490fd5b519081151582036104d157565b15613c8c57565b60405162461bcd60e51b8152602060048201526015602482015274576f756c64206265206c6971756964617461626c6560581b6044820152606490fd5b81810392915f13801582851316918412161761312a57565b81810292915f8212600160ff1b82141661312a57818405149015171561312a57565b811561310957600160ff1b81145f1983141661312a570590565b9192905f81151580614288575b1561425157835f526007602052602060405f2093613d4e60ff600887015416612fa0565b6001850196613d6760018060a01b038954163314612f2b565b6007860154600154604051636d78097360e11b815260049590918290879082906001600160a01b03165afa908115612cd7575f9161421d575b50610a0890613dae9261311d565b816141bd575b505060018060a01b0360035416926040855460248251809781936331d98b3f60e01b8352878301525afa9384156103d657839461419b575b5061271080821461418857613e3397613e0487614465565b613e39600288015483613e17868361314e565b049a8b94613e2a60038c0154978861314e565b04948592613161565b94613161565b96620f424080851061414e57881061410a5781549060ff8260a01c165f146140ef57613e758682015461031b8d613e70838d613cc9565b613ce1565b945b60015460405163e4d8cbe560e01b81528881018e9052602481018a90529690602090889060449082906001600160a01b03165afa9687156140e45789976140ac575b5090613ec887613ef593613cc9565b9a816002850155806003850155613edf81836130ff565b600585015560ff8560a01c169189850154614728565b600682015560018060a01b03600154169054813b15610446576040805163019ca2b960e51b81528089019283526001600160a01b038516602084015260a09490941c60ff16151590820152606081018c90528791839182908490829060800103925af18015611c3f57908691614098575b505060025490546001600160a01b039182169116813b156125fb576040805163118f304360e01b81526001600160a01b03909216868301908152602081018590529081018990529091869183919082908490829060600103925af18015610b1057908591614084575b50508115159081614072575b5061401c575b505050604051938452602084015260408301527f5cc0748e06097a585a6534dafcca64d5cc367340dff0e00469484e8269a7ca7b60603393a3565b6002546001600160a01b031691823b156104555790602484928360405195869485936335b8e71360e01b85528401525af1801561044a5761405e575b80613fe1565b6140688291612ebc565b6105625780614058565b61407c915061313e565b85135f613fdb565b61408d90612ebc565b61045557835f613fcf565b6140a190612ebc565b61055a57845f613f66565b919096506020823d6020116140dc575b816140c960209383612eeb565b810103126104d157905195613ec8613eb9565b3d91506140bc565b6040513d8b823e3d90fd5b6141048682015461031b8d613e708c84613cc9565b94613e77565b60405162461bcd60e51b8152602081870152601e60248201527f52656d61696e64657220636f6c6c61746572616c20746f6f20736d616c6c00006044820152606490fd5b60405162461bcd60e51b8152602081880152601360248201527214995b585a5b99195c881d1bdbc81cdb585b1b606a1b6044820152606490fd5b505050509190506141999250614dfc565b565b6141b591945060403d6040116103cf576103bf8183612eeb565b50925f613dec565b6003546001600160a01b031691823b156104d157604051631df3cbc560e31b8152925f928492839182916141f391898401612fd7565b039134905af18015612cd75761420a575b80613db4565b614215919250612ebc565b5f905f614204565b90506020813d602011614249575b8161423860209383612eeb565b810103126104d15751613dae613da0565b3d915061422b565b60405162461bcd60e51b815260206004820152600f60248201526e125b9d985b1a59081c195c98d95b9d608a1b6044820152606490fd5b50612710821115613d2a565b906040516101c081018181106001600160401b038211176118b5576040526101a0600c82948054845260ff600182015460018060a01b038116602087015260a01c16151560408501526002810154606085015260038101546080850152600481015460a0850152600581015460c0850152600681015460e0850152600781015461010085015260ff60088201541615156101208501526009810154610140850152600a810154610160850152600b8101546101808501520154910152565b9190811015612e765760051b0190565b60025f54146143715760025f55565b604051633ee5aeb560e01b8152600490fd5b916064602092935f60018060a01b03938460045416908560405198899788966323b872dd60e01b885216600487015216602485015260448401525af1908115612cd7575f91614410575b50156143d557565b60405162461bcd60e51b8152602060048201526013602482015272151c985b9cd9995c919c9bdb4819985a5b1959606a1b6044820152606490fd5b90506020813d602011614442575b8161442b60209383612eeb565b810103126104d15761443c90613c78565b5f6143cd565b3d915061441e565b9190915f838201938412911290801582169115161761312a57565b61447161064582614294565b906001545f9060018060a01b039183548360409687518095637cc6765f60e11b8252600494858301526020968791815f60249b8c93165af180156146f5579086916146ff575b50506144cf906144c961068889614294565b9061444a565b845f82131561460c5750600387018054808310156145ca57826144f191613161565b9055816002541690813b1561055a5784918783928b51948593849263ff20b48d60e01b8452898401525af180156145c0578593929185916145a5575b50505b42600c880155600154169486549188519687938492634655f1eb60e01b84528301525afa94851561459b57509361456a575b5050600b0155565b9080929350813d8311614594575b6145828183612eeb565b810103126104d1575190600b5f614562565b503d614578565b51903d90823e3d90fd5b6145b29192939450612ebc565b61055e57908391835f61452d565b88513d86823e3d90fd5b895162461bcd60e51b8152808601889052601f818a01527f506f736974696f6e206c6971756964617461626c652066726f6d2066656573006044820152606490fd5b9291905f811261461d575b50614530565b6146299192935061313e565b6003870161463882825461311d565b90558160025416803b156104d1575f809160648b518094819363118f304360e01b8352308a840152818d8401528760448401525af180156146f5576146e2575b50614687818360025416614829565b816002541690813b1561055a5784918783928b519485938492636e93ae2b60e01b8452898401525af180156145c0578593929185916146c7575b50614617565b6146d49192939450612ebc565b61055e57908391835f6146c1565b6146ed919450612ebc565b5f925f614678565b89513d5f823e3d90fd5b813d8311614721575b6147128183612eeb565b810103126104d157845f6144b7565b503d614708565b919290926123289081810291818304149015171561312a576001546040516335123baf60e21b81526127109283900491602090829060049082906001600160a01b03165afa908115612cd7575f916147f7575b50600a810180911161312a5761479283918761314e565b04908082106147e7575050606484028481046064148515171561312a5704905b156147d0576147cd926147c8612139928461314e565b6130ff565b90565b6147cd926147c86147e1928461314e565b9061311d565b6147f19250613161565b906147b2565b90506020813d602011614821575b8161481260209383612eeb565b810103126104d157515f61477b565b3d9150614805565b6004805460405163a9059cbb60e01b81526001600160a01b0393841692810192909252602482019390935291602091839160449183915f91165af1908115612cd7575f916148b1575b501561487a57565b60405162461bcd60e51b815260206004820152600f60248201526e151c985b9cd9995c8819985a5b1959608a1b6044820152606490fd5b90506020813d6020116148e3575b816148cc60209383612eeb565b810103126104d1576148dd90613c78565b5f614872565b3d91506148bf565b60015460408051631db0457960e11b815260048101939093525f9392916001600160a01b039082908490602490829085165afa928315614a2b575f905f94614a09575b50806149a8575b5082614943575b5050509050565b6020600491600154168351928380926361d027b360e01b82525afa91821561499f5750614977939491614980575b50614829565b805f808061493c565b614999915060203d6020116105485761053a8183612eeb565b5f614971565b513d86823e3d90fd5b6149b6818360025416614829565b816002541690813b156104d1575f9160248392865194859384926302102c9760e11b845260048401525af180156149ff5715614935576149f7919550612ebc565b5f935f614935565b83513d5f823e3d90fd5b9050614a23919350823d84116103cf576103bf8183612eeb565b92905f61492e565b82513d5f823e3d90fd5b600154815160408084018051606086018051845163b391decf60e01b815260048101969096529115156024860152604485019190915294955f95919460209492936001600160a01b039390929186908290606490829088165afa9081156149ff575f91614dcf575b50815f821315614d7c5750614ab5612710918361314e565b04865115155f14614d6e57614ac99161311d565b9283925b8860055498614adb8a613bb9565b6005555f8a81526007895285812083518155838a0180516001830180548e5160ff60a01b19938a16939093166001600160a81b03199091161791151560a081901b60ff60a01b169290921790559094909291908b90614b618951958660028601558c6080840197885191826003890155600488015560a085019e8f516005890155614728565b600684015542600784015542600c84015560088301600160ff198254161790556101a081015160098401556101c0810151600a8401556024886001541691518b519586938492637cc6765f60e11b845260048401525af1918215614d64575f92614d34575b50600b015583600154168c5185855116918c51151590885193813b156104d1578a5163b65b361f60e01b815260048101949094526001600160a01b0316602484015290151560448301526064820192909252905f908290608490829084905af18015614d2a57614d17575b50614c428460025416825190614829565b83600254169051813b1561055e5782916024839289519485938492636e93ae2b60e01b845260048401525af18015614d0d578b92918d91614cf3575b508694927f52ca44dea94749aadfaa4d3749a0323a33b3a6434adcfff52ad54c511f5579c79b999760a09b99979593614cbe610160614cce9501516148eb565b85855116815260098b5220613bc7565b51169951955115159051925194825196875286015284015260608301526080820152a3565b829350614d009150612ebc565b6105625789908b5f614c7e565b86513d84823e3d90fd5b614d22919250612ebc565b5f905f614c31565b87513d5f823e3d90fd5b9091508a81813d8311614d5d575b614d4c8183612eeb565b810103126104d1575190600b614bc6565b503d614d42565b88513d5f823e3d90fd5b614d7791613161565b614ac9565b905f8195939512614d92575b5050928293614acd565b61271091929450612b7d614da59161313e565b04865115155f14614dc157614db991613161565b915f80614d88565b614dca9161311d565b614db9565b90508581813d8311614df5575b614de68183612eeb565b810103126104d157515f614a9d565b503d614ddc565b91905f92805f5260209160078352604090815f206008810190614e2260ff835416612fa0565b60018101805460a01c60ff161561512857614e53600483015461031b614e488288613cc9565b600286015490613ce1565b600154600284018054885163e4d8cbe560e01b815260048101919091525f60248201526001600160a01b0395909390928616908b85604481855afa94851561511e575f956150ef575b505f8c614eab61064587614294565b9360248d885490519485938492637cc6765f60e11b845260048401525af180156150e557908d916150bc575b5050614efb614f0192614ef6614eef61068888614294565b918861444a565b61444a565b90613cc9565b865460ff19169096556001548254855492549290918716803b156104d1578a5163019ca2b960e51b815260048101939093526001600160a01b0382891616602484015260a09190911c60ff16151560448301526064820192909252905f9082908183816084810103925af18015614d64576150a9575b508a8460025416600386865416930192835490823b15610455578a5163118f304360e01b81526001600160a01b039190911660048201526024810191909152604481018890529082908290606490829084905af1801561509f57615087575b50508115159081615074575b5061501d575b507f356fca566f3a054a459c7224d9c9d634f31a98835cfd4fb4c5ddbf8b96aca21195969798505416958351928352820152a3565b89908360025416803b1561055e5760248392895194859384926335b8e71360e01b845260048401525af1801561506a5715614fe85761505c8a91612ebc565b6150665788614fe8565b8880fd5b86513d8c823e3d90fd5b61507f91505461313e565b84135f614fe2565b61509090612ebc565b61509b578a5f614fd6565b8a80fd5b89513d84823e3d90fd5b6150b4919b50612ebc565b5f995f614f77565b813d83116150de575b6150cf8183612eeb565b810103126104d1578b5f614ed7565b503d6150c5565b8b513d5f823e3d90fd5b9094508b81813d8311615117575b6151078183612eeb565b810103126104d15751935f614e9c565b503d6150fd565b8a513d5f823e3d90fd5b61513d600483015461031b614e488783613cc9565b614e53565b61517063d693a4009161516b606061515f6101a084015142613161565b920151600b549061314e565b61314e565b0490565b60018060a01b03600154169060208151602460405180958193634655f1eb60e01b835260048301525afa918215612cd7575f926151f7575b506151c6670de0b6b3a76400009261018083015190613cc9565b6040820151156151e15760606151dd920151613ce1565b0590565b6151f29060606151dd930151613ce1565b61313e565b91506020823d602011615225575b8161521260209383612eeb565b810103126104d1579051906151c66151ac565b3d915061520556fea2646970667358221220057426c2ab0e7c004c55081fea908e24d9104386df508e81704c6969ba309a8664736f6c63430008180033",
  "linkReferences": {},
  "deployedLinkReferences": {},
  "immutableReferences": {},
  "inputSourceName": "project/src/ConfidentialTrading.sol",
  "buildInfoId": "solc-0_8_24-27768af3a74a5293aed3d5565cfadeab4478c17c"
}