{
  "_format": "hh3-artifact-1",
  "contractName": "ConfidentialTrading",
  "sourceName": "src/ConfidentialTrading.sol",
  "abi": [
    {
      "inputs": [
        {
          "internalType": "address",
          "name": "_usdc",
          "type": "address"
        },
        {
          "internalType": "address",
          "name": "_core",
          "type": "address"
        },
        {
          "internalType": "address",
          "name": "_vault",
          "type": "address"
        },
        {
          "internalType": "address",
          "name": "_oracle",
          "type": "address"
        }
      ],
      "stateMutability": "nonpayable",
      "type": "constructor"
    },
    {
      "inputs": [],
      "name": "ReentrancyGuardReentrantCall",
      "type": "error"
    },
    {
      "anonymous": false,
      "inputs": [
        {
          "indexed": true,
          "internalType": "uint256",
          "name": "positionId",
          "type": "uint256"
        },
        {
          "indexed": true,
          "internalType": "address",
          "name": "trader",
          "type": "address"
        },
        {
          "indexed": false,
          "internalType": "uint256",
          "name": "amount",
          "type": "uint256"
        },
        {
          "indexed": false,
          "internalType": "uint256",
          "name": "newLiquidationPrice",
          "type": "uint256"
        }
      ],
      "name": "CollateralAdded",
      "type": "event"
    },
    {
      "anonymous": false,
      "inputs": [
        {
          "indexed": true,
          "internalType": "uint256",
          "name": "positionId",
          "type": "uint256"
        },
        {
          "indexed": true,
          "internalType": "address",
          "name": "trader",
          "type": "address"
        },
        {
          "indexed": false,
          "internalType": "uint256",
          "name": "amount",
          "type": "uint256"
        },
        {
          "indexed": false,
          "internalType": "uint256",
          "name": "newLiquidationPrice",
          "type": "uint256"
        }
      ],
      "name": "CollateralRemoved",
      "type": "event"
    },
    {
      "anonymous": false,
      "inputs": [
        {
          "indexed": true,
          "internalType": "uint256",
          "name": "orderId",
          "type": "uint256"
        }
      ],
      "name": "OrderCancelled",
      "type": "event"
    },
    {
      "anonymous": false,
      "inputs": [
        {
          "indexed": true,
          "internalType": "uint256",
          "name": "orderId",
          "type": "uint256"
        },
        {
          "indexed": true,
          "internalType": "uint256",
          "name": "positionId",
          "type": "uint256"
        }
      ],
      "name": "OrderExecuted",
      "type": "event"
    },
    {
      "anonymous": false,
      "inputs": [
        {
          "indexed": true,
          "internalType": "uint256",
          "name": "orderId",
          "type": "uint256"
        },
        {
          "indexed": true,
          "internalType": "address",
          "name": "trader",
          "type": "address"
        },
        {
          "indexed": false,
          "internalType": "bytes32",
          "name": "pairId",
          "type": "bytes32"
        },
        {
          "indexed": false,
          "internalType": "uint8",
          "name": "orderType",
          "type": "uint8"
        },
        {
          "indexed": false,
          "internalType": "uint256",
          "name": "triggerPrice",
          "type": "uint256"
        }
      ],
      "name": "OrderPlaced",
      "type": "event"
    },
    {
      "anonymous": false,
      "inputs": [
        {
          "indexed": true,
          "internalType": "uint256",
          "name": "positionId",
          "type": "uint256"
        },
        {
          "indexed": true,
          "internalType": "address",
          "name": "trader",
          "type": "address"
        },
        {
          "indexed": false,
          "internalType": "uint256",
          "name": "exitPrice",
          "type": "uint256"
        },
        {
          "indexed": false,
          "internalType": "int256",
          "name": "pnl",
          "type": "int256"
        }
      ],
      "name": "PositionClosed",
      "type": "event"
    },
    {
      "anonymous": false,
      "inputs": [
        {
          "indexed": true,
          "internalType": "uint256",
          "name": "positionId",
          "type": "uint256"
        },
        {
          "indexed": true,
          "internalType": "address",
          "name": "trader",
          "type": "address"
        },
        {
          "indexed": false,
          "internalType": "uint256",
          "name": "additionalSizeUsd",
          "type": "uint256"
        },
        {
          "indexed": false,
          "internalType": "uint256",
          "name": "newEntryPrice",
          "type": "uint256"
        },
        {
          "indexed": false,
          "internalType": "uint256",
          "name": "newLiquidationPrice",
          "type": "uint256"
        }
      ],
      "name": "PositionIncreased",
      "type": "event"
    },
    {
      "anonymous": false,
      "inputs": [
        {
          "indexed": true,
          "internalType": "uint256",
          "name": "positionId",
          "type": "uint256"
        },
        {
          "indexed": true,
          "internalType": "address",
          "name": "trader",
          "type": "address"
        },
        {
          "indexed": false,
          "internalType": "uint256",
          "name": "executionPrice",
          "type": "uint256"
        },
        {
          "indexed": true,
          "internalType": "address",
          "name": "liquidator",
          "type": "address"
        },
        {
          "indexed": false,
          "internalType": "uint256",
          "name": "reward",
          "type": "uint256"
        }
      ],
      "name": "PositionLiquidated",
      "type": "event"
    },
    {
      "anonymous": false,
      "inputs": [
        {
          "indexed": true,
          "internalType": "uint256",
          "name": "positionId",
          "type": "uint256"
        },
        {
          "indexed": true,
          "internalType": "address",
          "name": "trader",
          "type": "address"
        },
        {
          "indexed": false,
          "internalType": "bytes32",
          "name": "pairId",
          "type": "bytes32"
        },
        {
          "indexed": false,
          "internalType": "bool",
          "name": "isLong",
          "type": "bool"
        },
        {
          "indexed": false,
          "internalType": "uint256",
          "name": "sizeUsd",
          "type": "uint256"
        },
        {
          "indexed": false,
          "internalType": "uint256",
          "name": "entryPrice",
          "type": "uint256"
        },
        {
          "indexed": false,
          "internalType": "uint256",
          "name": "leverage",
          "type": "uint256"
        }
      ],
      "name": "PositionOpened",
      "type": "event"
    },
    {
      "anonymous": false,
      "inputs": [
        {
          "indexed": true,
          "internalType": "uint256",
          "name": "positionId",
          "type": "uint256"
        },
        {
          "indexed": true,
          "internalType": "address",
          "name": "trader",
          "type": "address"
        },
        {
          "indexed": false,
          "internalType": "uint256",
          "name": "closeSizeUsd",
          "type": "uint256"
        },
        {
          "indexed": false,
          "internalType": "uint256",
          "name": "exitPrice",
          "type": "uint256"
        },
        {
          "indexed": false,
          "internalType": "int256",
          "name": "pnl",
          "type": "int256"
        }
      ],
      "name": "PositionPartialClose",
      "type": "event"
    },
    {
      "anonymous": false,
      "inputs": [
        {
          "indexed": true,
          "internalType": "uint256",
          "name": "positionId",
          "type": "uint256"
        },
        {
          "indexed": false,
          "internalType": "bool",
          "name": "isTakeProfit",
          "type": "bool"
        },
        {
          "indexed": false,
          "internalType": "uint256",
          "name": "executionPrice",
          "type": "uint256"
        }
      ],
      "name": "TPSLTriggered",
      "type": "event"
    },
    {
      "anonymous": false,
      "inputs": [
        {
          "indexed": true,
          "internalType": "uint256",
          "name": "orderId",
          "type": "uint256"
        },
        {
          "indexed": false,
          "internalType": "uint256",
          "name": "sliceNumber",
          "type": "uint256"
        },
        {
          "indexed": false,
          "internalType": "uint256",
          "name": "sizeUsd",
          "type": "uint256"
        }
      ],
      "name": "TWAPSliceExecuted",
      "type": "event"
    },
    {
      "inputs": [],
      "name": "MIN_COLLATERAL",
      "outputs": [
        {
          "internalType": "uint256",
          "name": "",
          "type": "uint256"
        }
      ],
      "stateMutability": "view",
      "type": "function"
    },
    {
      "inputs": [],
      "name": "MIN_POSITION_SIZE",
      "outputs": [
        {
          "internalType": "uint256",
          "name": "",
          "type": "uint256"
        }
      ],
      "stateMutability": "view",
      "type": "function"
    },
    {
      "inputs": [
        {
          "internalType": "uint256",
          "name": "positionId",
          "type": "uint256"
        },
        {
          "internalType": "uint256",
          "name": "amount",
          "type": "uint256"
        }
      ],
      "name": "addCollateral",
      "outputs": [],
      "stateMutability": "nonpayable",
      "type": "function"
    },
    {
      "inputs": [
        {
          "internalType": "uint256",
          "name": "orderId",
          "type": "uint256"
        }
      ],
      "name": "cancelOrder",
      "outputs": [],
      "stateMutability": "nonpayable",
      "type": "function"
    },
    {
      "inputs": [
        {
          "internalType": "uint256",
          "name": "positionId",
          "type": "uint256"
        },
        {
          "internalType": "bytes[]",
          "name": "updateData",
          "type": "bytes[]"
        }
      ],
      "name": "closePositionInstantly",
      "outputs": [],
      "stateMutability": "payable",
      "type": "function"
    },
    {
      "inputs": [
        {
          "internalType": "uint256",
          "name": "positionId",
          "type": "uint256"
        },
        {
          "internalType": "uint256",
          "name": "closePercent",
          "type": "uint256"
        },
        {
          "internalType": "bytes[]",
          "name": "updateData",
          "type": "bytes[]"
        }
      ],
      "name": "closePositionPartial",
      "outputs": [],
      "stateMutability": "payable",
      "type": "function"
    },
    {
      "inputs": [],
      "name": "core",
      "outputs": [
        {
          "internalType": "contract ConfidentialCore",
          "name": "",
          "type": "address"
        }
      ],
      "stateMutability": "view",
      "type": "function"
    },
    {
      "inputs": [
        {
          "internalType": "uint256",
          "name": "positionId",
          "type": "uint256"
        }
      ],
      "name": "createCloseRequest",
      "outputs": [
        {
          "internalType": "uint256",
          "name": "orderId",
          "type": "uint256"
        }
      ],
      "stateMutability": "payable",
      "type": "function"
    },
    {
      "inputs": [
        {
          "internalType": "bytes32",
          "name": "pairId",
          "type": "bytes32"
        },
        {
          "internalType": "bool",
          "name": "isLong",
          "type": "bool"
        },
        {
          "internalType": "uint256",
          "name": "totalSizeUsd",
          "type": "uint256"
        },
        {
          "internalType": "uint256",
          "name": "leverage",
          "type": "uint256"
        },
        {
          "internalType": "uint256",
          "name": "slices",
          "type": "uint256"
        },
        {
          "internalType": "uint256",
          "name": "intervalSec",
          "type": "uint256"
        },
        {
          "internalType": "uint256",
          "name": "tpPrice",
          "type": "uint256"
        },
        {
          "internalType": "uint256",
          "name": "slPrice",
          "type": "uint256"
        }
      ],
      "name": "createTwapOrder",
      "outputs": [
        {
          "internalType": "uint256",
          "name": "orderId",
          "type": "uint256"
        }
      ],
      "stateMutability": "payable",
      "type": "function"
    },
    {
      "inputs": [
        {
          "internalType": "uint256[]",
          "name": "positionIds",
          "type": "uint256[]"
        },
        {
          "internalType": "bytes[]",
          "name": "updateData",
          "type": "bytes[]"
        }
      ],
      "name": "executeADL",
      "outputs": [],
      "stateMutability": "payable",
      "type": "function"
    },
    {
      "inputs": [
        {
          "internalType": "uint256",
          "name": "orderId",
          "type": "uint256"
        },
        {
          "internalType": "bytes[]",
          "name": "updateData",
          "type": "bytes[]"
        }
      ],
      "name": "executeOrder",
      "outputs": [],
      "stateMutability": "payable",
      "type": "function"
    },
    {
      "inputs": [
        {
          "internalType": "uint256",
          "name": "positionId",
          "type": "uint256"
        },
        {
          "internalType": "bytes[]",
          "name": "updateData",
          "type": "bytes[]"
        }
      ],
      "name": "executeTPSL",
      "outputs": [],
      "stateMutability": "payable",
      "type": "function"
    },
    {
      "inputs": [
        {
          "internalType": "uint256",
          "name": "",
          "type": "uint256"
        }
      ],
      "name": "hasActiveCloseRequest",
      "outputs": [
        {
          "internalType": "bool",
          "name": "",
          "type": "bool"
        }
      ],
      "stateMutability": "view",
      "type": "function"
    },
    {
      "inputs": [
        {
          "internalType": "uint256",
          "name": "positionId",
          "type": "uint256"
        },
        {
          "internalType": "uint256",
          "name": "additionalSizeUsd",
          "type": "uint256"
        },
        {
          "internalType": "uint256",
          "name": "additionalLeverage",
          "type": "uint256"
        },
        {
          "internalType": "uint256",
          "name": "acceptablePrice",
          "type": "uint256"
        },
        {
          "internalType": "bytes[]",
          "name": "updateData",
          "type": "bytes[]"
        }
      ],
      "name": "increasePosition",
      "outputs": [],
      "stateMutability": "payable",
      "type": "function"
    },
    {
      "inputs": [
        {
          "internalType": "uint256",
          "name": "positionId",
          "type": "uint256"
        },
        {
          "internalType": "bytes[]",
          "name": "updateData",
          "type": "bytes[]"
        }
      ],
      "name": "liquidate",
      "outputs": [],
      "stateMutability": "payable",
      "type": "function"
    },
    {
      "inputs": [],
      "name": "liquidationRewardBps",
      "outputs": [
        {
          "internalType": "uint256",
          "name": "",
          "type": "uint256"
        }
      ],
      "stateMutability": "view",
      "type": "function"
    },
    {
      "inputs": [],
      "name": "maxOrderAge",
      "outputs": [
        {
          "internalType": "uint256",
          "name": "",
          "type": "uint256"
        }
      ],
      "stateMutability": "view",
      "type": "function"
    },
    {
      "inputs": [],
      "name": "nextOrderId",
      "outputs": [
        {
          "internalType": "uint256",
          "name": "",
          "type": "uint256"
        }
      ],
      "stateMutability": "view",
      "type": "function"
    },
    {
      "inputs": [],
      "name": "nextPositionId",
      "outputs": [
        {
          "internalType": "uint256",
          "name": "",
          "type": "uint256"
        }
      ],
      "stateMutability": "view",
      "type": "function"
    },
    {
      "inputs": [],
      "name": "oracle",
      "outputs": [
        {
          "internalType": "contract PythPriceOracle",
          "name": "",
          "type": "address"
        }
      ],
      "stateMutability": "view",
      "type": "function"
    },
    {
      "inputs": [
        {
          "internalType": "uint256",
          "name": "",
          "type": "uint256"
        }
      ],
      "name": "pendingOrders",
      "outputs": [
        {
          "internalType": "bytes32",
          "name": "pairId",
          "type": "bytes32"
        },
        {
          "internalType": "address",
          "name": "trader",
          "type": "address"
        },
        {
          "internalType": "bool",
          "name": "isLong",
          "type": "bool"
        },
        {
          "internalType": "uint256",
          "name": "sizeUsd",
          "type": "uint256"
        },
        {
          "internalType": "uint256",
          "name": "collateral",
          "type": "uint256"
        },
        {
          "internalType": "uint256",
          "name": "leverage",
          "type": "uint256"
        },
        {
          "internalType": "uint256",
          "name": "triggerPrice",
          "type": "uint256"
        },
        {
          "internalType": "uint8",
          "name": "orderType",
          "type": "uint8"
        },
        {
          "internalType": "bool",
          "name": "isActive",
          "type": "bool"
        },
        {
          "internalType": "uint256",
          "name": "createdAt",
          "type": "uint256"
        },
        {
          "internalType": "uint256",
          "name": "positionId",
          "type": "uint256"
        },
        {
          "internalType": "uint256",
          "name": "feePaid",
          "type": "uint256"
        },
        {
          "internalType": "uint256",
          "name": "executionFee",
          "type": "uint256"
        },
        {
          "internalType": "uint256",
          "name": "tpPrice",
          "type": "uint256"
        },
        {
          "internalType": "uint256",
          "name": "slPrice",
          "type": "uint256"
        },
        {
          "internalType": "uint256",
          "name": "twapSlices",
          "type": "uint256"
        },
        {
          "internalType": "uint256",
          "name": "twapInterval",
          "type": "uint256"
        },
        {
          "internalType": "uint256",
          "name": "twapExecuted",
          "type": "uint256"
        },
        {
          "internalType": "uint256",
          "name": "twapLastExec",
          "type": "uint256"
        }
      ],
      "stateMutability": "view",
      "type": "function"
    },
    {
      "inputs": [
        {
          "internalType": "bytes32",
          "name": "pairId",
          "type": "bytes32"
        },
        {
          "internalType": "bool",
          "name": "isLong",
          "type": "bool"
        },
        {
          "internalType": "uint256",
          "name": "sizeUsd",
          "type": "uint256"
        },
        {
          "internalType": "uint256",
          "name": "leverage",
          "type": "uint256"
        },
        {
          "internalType": "uint256",
          "name": "tpPrice",
          "type": "uint256"
        },
        {
          "internalType": "uint256",
          "name": "slPrice",
          "type": "uint256"
        },
        {
          "internalType": "uint256",
          "name": "acceptablePrice",
          "type": "uint256"
        },
        {
          "internalType": "bytes[]",
          "name": "updateData",
          "type": "bytes[]"
        }
      ],
      "name": "placeMarketOrder",
      "outputs": [
        {
          "internalType": "uint256",
          "name": "posId",
          "type": "uint256"
        }
      ],
      "stateMutability": "payable",
      "type": "function"
    },
    {
      "inputs": [
        {
          "internalType": "bytes32",
          "name": "pairId",
          "type": "bytes32"
        },
        {
          "internalType": "bool",
          "name": "isLong",
          "type": "bool"
        },
        {
          "internalType": "uint256",
          "name": "sizeUsd",
          "type": "uint256"
        },
        {
          "internalType": "uint256",
          "name": "leverage",
          "type": "uint256"
        },
        {
          "internalType": "uint256",
          "name": "triggerPrice",
          "type": "uint256"
        },
        {
          "internalType": "uint8",
          "name": "orderType",
          "type": "uint8"
        },
        {
          "internalType": "uint256",
          "name": "tpPrice",
          "type": "uint256"
        },
        {
          "internalType": "uint256",
          "name": "slPrice",
          "type": "uint256"
        }
      ],
      "name": "placeOrder",
      "outputs": [
        {
          "internalType": "uint256",
          "name": "orderId",
          "type": "uint256"
        }
      ],
      "stateMutability": "payable",
      "type": "function"
    },
    {
      "inputs": [
        {
          "internalType": "uint256",
          "name": "",
          "type": "uint256"
        }
      ],
      "name": "positions",
      "outputs": [
        {
          "internalType": "bytes32",
          "name": "pairId",
          "type": "bytes32"
        },
        {
          "internalType": "address",
          "name": "trader",
          "type": "address"
        },
        {
          "internalType": "bool",
          "name": "isLong",
          "type": "bool"
        },
        {
          "internalType": "uint256",
          "name": "sizeUsd",
          "type": "uint256"
        },
        {
          "internalType": "uint256",
          "name": "collateral",
          "type": "uint256"
        },
        {
          "internalType": "uint256",
          "name": "entryPrice",
          "type": "uint256"
        },
        {
          "internalType": "uint256",
          "name": "leverage",
          "type": "uint256"
        },
        {
          "internalType": "uint256",
          "name": "liquidationPrice",
          "type": "uint256"
        },
        {
          "internalType": "uint256",
          "name": "openedAt",
          "type": "uint256"
        },
        {
          "internalType": "bool",
          "name": "isOpen",
          "type": "bool"
        },
        {
          "internalType": "uint256",
          "name": "tpPrice",
          "type": "uint256"
        },
        {
          "internalType": "uint256",
          "name": "slPrice",
          "type": "uint256"
        },
        {
          "internalType": "int256",
          "name": "entryFundingIndex",
          "type": "int256"
        },
        {
          "internalType": "uint256",
          "name": "lastRolloverSettled",
          "type": "uint256"
        }
      ],
      "stateMutability": "view",
      "type": "function"
    },
    {
      "inputs": [
        {
          "internalType": "uint256",
          "name": "positionId",
          "type": "uint256"
        },
        {
          "internalType": "uint256",
          "name": "amount",
          "type": "uint256"
        },
        {
          "internalType": "bytes[]",
          "name": "updateData",
          "type": "bytes[]"
        }
      ],
      "name": "removeCollateral",
      "outputs": [],
      "stateMutability": "payable",
      "type": "function"
    },
    {
      "inputs": [],
      "name": "rolloverFeePerHour",
      "outputs": [
        {
          "internalType": "uint256",
          "name": "",
          "type": "uint256"
        }
      ],
      "stateMutability": "view",
      "type": "function"
    },
    {
      "inputs": [
        {
          "internalType": "uint256",
          "name": "_bps",
          "type": "uint256"
        }
      ],
      "name": "setLiquidationRewardBps",
      "outputs": [],
      "stateMutability": "nonpayable",
      "type": "function"
    },
    {
      "inputs": [
        {
          "internalType": "uint256",
          "name": "_seconds",
          "type": "uint256"
        }
      ],
      "name": "setMaxOrderAge",
      "outputs": [],
      "stateMutability": "nonpayable",
      "type": "function"
    },
    {
      "inputs": [
        {
          "internalType": "uint256",
          "name": "_fee",
          "type": "uint256"
        }
      ],
      "name": "setRolloverFeePerHour",
      "outputs": [],
      "stateMutability": "nonpayable",
      "type": "function"
    },
    {
      "inputs": [
        {
          "internalType": "uint256",
          "name": "positionId",
          "type": "uint256"
        },
        {
          "internalType": "uint256",
          "name": "newTpPrice",
          "type": "uint256"
        },
        {
          "internalType": "uint256",
          "name": "newSlPrice",
          "type": "uint256"
        }
      ],
      "name": "updateTpSl",
      "outputs": [],
      "stateMutability": "nonpayable",
      "type": "function"
    },
    {
      "inputs": [],
      "name": "usdc",
      "outputs": [
        {
          "internalType": "contract IERC20",
          "name": "",
          "type": "address"
        }
      ],
      "stateMutability": "view",
      "type": "function"
    },
    {
      "inputs": [
        {
          "internalType": "address",
          "name": "",
          "type": "address"
        },
        {
          "internalType": "uint256",
          "name": "",
          "type": "uint256"
        }
      ],
      "name": "userOrders",
      "outputs": [
        {
          "internalType": "uint256",
          "name": "",
          "type": "uint256"
        }
      ],
      "stateMutability": "view",
      "type": "function"
    },
    {
      "inputs": [
        {
          "internalType": "address",
          "name": "",
          "type": "address"
        },
        {
          "internalType": "uint256",
          "name": "",
          "type": "uint256"
        }
      ],
      "name": "userPositions",
      "outputs": [
        {
          "internalType": "uint256",
          "name": "",
          "type": "uint256"
        }
      ],
      "stateMutability": "view",
      "type": "function"
    },
    {
      "inputs": [],
      "name": "vault",
      "outputs": [
        {
          "internalType": "contract ConfidentialVault",
          "name": "",
          "type": "address"
        }
      ],
      "stateMutability": "view",
      "type": "function"
    },
    {
      "stateMutability": "payable",
      "type": "receive"
    }
  ],
  "bytecode": "0x608034620000e557601f62005cfd38819003918201601f19168301916001600160401b03831184841017620000e957808492608094604052833981010312620000e5576200004d81620000fd565b906200005c60208201620000fd565b6200007860606200007060408501620000fd565b9301620000fd565b9060015f55600160055560016006556014600b556064600c5562093a80600d5560018060a01b03928380928160018060a01b03199716876004541617600455168560015416176001551683600254161760025516906003541617600355604051615bea9081620001138239f35b5f80fd5b634e487b7160e01b5f52604160045260245ffd5b51906001600160a01b0382168203620000e55756fe60e080604052600436101561001c575b50361561001a575f80fd5b005b5f905f3560e01c9081632a58b33014612fd0575080632c0e1e9e146129c25780632c338fed146129935780632e80f9a41461290157806331e01f4a146121e857806333e7dddb146121cd578063368dbba8146105785780633e413bee146121a457806341aa303b1461213e578063514fcac714611f705780635e1b4d9914611f325780636fb197f714611c2a5780637dc0d1d014611c0157806380b7425814611996578063856652e91461194a57806387f1942314611572578063899346c7146115545780638fb735ee1461153657806399fbab88146114685780639bfe7e3e1461126f578063a8f35adf14611138578063ba7ebf5f1461108b578063c009687c14610fce578063c09403ac14610caf578063c29433a614610c91578063c3aaea4e14610b4e578063ee6d519814610b30578063effaed8914610b12578063f2f4eb2614610ae9578063f5ba8a2a1461094b578063f66141701461057d578063fa77964814610578578063fbfa77cf1461054f5763fd5c77cd0361000f57604036600319011261054c576001600160401b03600435818111610548576101c6903690600401612fea565b602492602435908111610544576101e1903690600401612fea565b9190926101ec6151bf565b60018060a01b0392600195846001541691604051809363aced166160e01b825281600460209687935afa80156105395787918b9161050c575b501633036104d157600296600484886002541660405192838092637510e6c960e11b82525afa80156104c6578b90610493575b61251c9150111561044357908991816103d5575b50505b84811061027e57886001815580f35b6102898186866151af565b35895260078352604089208960ff918a83600883015416156103cb575088600354169260408254878251809781936331d98b3f60e01b835260048301525afa9384156103c057839461038e575b50818c015460a01c16156103715780610305600461030a930154918c6102fc84886149ac565b910154906149c4565b6149e6565b131561032d579061032789926103218389896151af565b35615789565b0161026f565b60405162461bcd60e51b815260048101859052601c818501527f43616e6e6f742041444c2061206c6f73696e6720706f736974696f6e000000006044820152606490fd5b806103056004610389930154918c6102fc87856149ac565b61030a565b6103b191945060403d6040116103b9575b6103a981836131d5565b810190613297565b50925f6102d6565b503d61039f565b6040513d85823e3d90fd5b9392505050610327565b876003541691823b1561043f57604051631df3cbc560e31b815292849284928391829161040591600484016131f6565b039134905af180156104345761041c575b8061026c565b610425906131a6565b61043057875f610416565b8780fd5b6040513d84823e3d90fd5b8380fd5b60405162461bcd60e51b815260048101859052602260248201527f41444c206f6e6c7920696e20656d657267656e637920287574696c203e203935604482015261252960f01b6064820152608490fd5b508481813d83116104bf575b6104a981836131d5565b810103126104bb5761251c9051610258565b5f80fd5b503d61049f565b6040513d8d823e3d90fd5b60405162461bcd60e51b815260048101849052601360248201527213db9b1e4812d9595c195c8818d85b88105113606a1b6044820152606490fd5b61052c9150853d8711610532575b61052481836131d5565b8101906133b6565b5f610225565b503d61051a565b6040513d8c823e3d90fd5b8480fd5b8280fd5b80fd5b503461054c578060031936011261054c576002546040516001600160a01b039091168152602090f35b61305c565b508061058836613029565b906105949392936151bf565b816108e9575b5050908060249252602090600782526040842060088101906105bf60ff835416613137565b6003548154604080516331d98b3f60e01b815260048101839052976001600160a01b03949293899190829087165afa9687156108de5788976108bc575b50600181019160ff835460a01c165f146108af5760068201548811155b1561087757908891828861063461062f856150f1565b615aae565b9260248860015416916040519485938492637cc6765f60e11b845260048401525af1908115610821578991610848575b5050610677610672836150f1565b615ae0565b81848213610837575b50506003820154908181111561082c575061069b8180613380565b916127106106ab600c548561336d565b049660ff1981541690558560015416908054906002875491015492803b156107b1578692838a6106fb6040519788968795869463019ca2b960e51b865260ff8360a01c169216906004860161338d565b03925af190811561082157849161080d575b5050806107b5575b508360025416908484541690823b1561043f57608484928360405195869485936309c0533b60e01b8552600485015233602485015260448401528a60648401525af180156104345761079d575b50505416926040519485528401527f3b7bc7c0fdc798ac653b9f0d6d28adb2293a55402d32c21d323da740ccc6553960403394a46001815580f35b6107a6906131a6565b6107b157865f610762565b8680fd5b846002541690813b1561043f57839160248392604051948593849263ff20b48d60e01b845260048401525af19081156103c05783916107f5575b50610715565b6107fe906131a6565b61080957815f6107ef565b5080fd5b610816906131a6565b61054857825f61070d565b6040513d86823e3d90fd5b61069b908092613380565b610841925061333c565b5f80610680565b90809294503d8311610870575b61085f81836131d5565b810103126104bb578891875f610664565b503d610855565b60405162461bcd60e51b815260048101889052601060248201526f4e6f74206c6971756964617461626c6560801b6044820152606490fd5b6006820154881015610619565b6108d691975060403d6040116103b9576103a981836131d5565b50955f6105fc565b6040513d8a823e3d90fd5b6003546001600160a01b031691823b1561043f57604051631df3cbc560e31b815292849284928391829161092091600484016131f6565b039134905af1801561043457610937575b8061059a565b610940906131a6565b61080957815f610931565b5061095536613029565b919061095f6151bf565b818452600760205283604081209361097d60ff600887015416613137565b60018501546001600160a01b039390610999908516331461316e565b600460078701546020866001541660405193848092636d78097360e11b82525afa918215610ade578592610aa5575b506109de916109d69161333c565b4210156148e3565b81610a4a575b50505060409060035416925460248251809581936331d98b3f60e01b835260048301525afa9081156103c057610a21928492610a28575b50615789565b6001815580f35b610a4291925060403d6040116103b9576103a981836131d5565b50905f610a1b565b836003541691823b1561043f57604051631df3cbc560e31b8152928492849283918291610a7a91600484016131f6565b039134905af1801561043457610a91575b806109e4565b610a9a906131a6565b61043f57835f610a8b565b945090506020843d602011610ad6575b81610ac2602093836131d5565b810103126104bb57925187936109d66109c8565b3d9150610ab5565b6040513d87823e3d90fd5b503461054c578060031936011261054c576001546040516001600160a01b039091168152602090f35b503461054c578060031936011261054c576020600c54604051908152f35b50610a21610b3d366130c8565b92610b499291926151bf565b614a1b565b503461054c57602036600319011261054c57600435815260086020526040902080808054600182015460c05260028201546003830154600484015460058501546006860154600787015490600888015492600989015494600a8a015496600b8b015498600c8c01549a600d8d01549c600e01549d600f01549e6010015460805260405160a05260a05152600160a01b6001900360c0511660a0516020015260c05160a01c60ff16151560a0516040015260a0516060015260a0516080015260a05160a0015260a05160c0015260ff811660a05160e0015260081c60ff16151560a051610100015260a051610120015260a051610140015260a051610160015260a051610180015260a0516101a0015260a0516101c0015260a0516101e0015260a051610200015260a051610220015260805160a051610240015260a05161026090f35b503461054c578060031936011261054c576020600d54604051908152f35b5061010036600319011261054c57610cc561301a565b9060a4359060ff8216820361054c57610cdc6151bf565b610ced620f424060443510156130fa565b600160ff831611610f895760c435610f44575b60e435610eff575b6001546001600160a01b031692833b156108095760405163bd79156f60e01b8152828180610d436064356044358733600480359087016132ed565b0381885afa80156103c057610eeb575b506020604493946040519485809263e4d8cbe560e01b82528235600483015260ff89161560248301525afa928315610434578293610eb4575b5090602093600192610da260643560443561331e565b94610db7610db0828861333c565b30336151e0565b60065495610dc48761489c565b60065586855260088852604085206004358155868101805460ff60a01b1933166001600160a81b03199091161794151560a01b60ff60a01b169490941790935560443560028401556003830155606435600483015560843560058301556006820161010060ff851661ffff1983541617179055426007830155600982015534600a82015560c435600b820155600c60e435910155338252600a8552610e6c84604084206148aa565b60ff60405191600435835216858201526084356040820152837f401524beccff0d9dd3447788dea32e11f3b7c9618ed6084f14a773dbf2025f1660603393a355604051908152f35b919092506020823d602011610ee3575b81610ed1602093836131d5565b810103126104bb579051916020610d8c565b3d9150610ec4565b610ef583916131a6565b610809575f610d53565b8215610f2e5760843560e435108015610f21575b610f1c90613414565b610d08565b5060ff8216600214610f13565b60843560e435118015610f2157610f1c90613414565b8215610f735760843560c435118015610f66575b610f61906133d5565b610d00565b5060ff8216600214610f58565b60843560c435108015610f6657610f61906133d5565b60405162461bcd60e51b815260206004820152601f60248201527f55736520706c6163654d61726b65744f7264657220666f72206d61726b6574006044820152606490fd5b503461054c57602036600319011261054c57600154604051638da5cb5b60e01b815260048035926001600160a01b0391602091849190829085165afa80156108215761102492859161106c575b5016331461316e565b60c8811161103257600b5580f35b60405162461bcd60e51b815260206004820152601260248201527126b0bc101817181912903832b9103437bab960711b6044820152606490fd5b611085915060203d6020116105325761052481836131d5565b5f61101b565b503461054c57602036600319011261054c57600154604051638da5cb5b60e01b815260048035926001600160a01b0391602091849190829085165afa8015610821576110e092859161106c575016331461316e565b610e108110158061112b575b156110f757600d5580f35b60405162461bcd60e51b815260206004820152600c60248201526b31682d3330642072616e676560a01b6044820152606490fd5b5062278d008111156110ec565b503461054c57604036600319011261054c576024356004356111586151bf565b611163821515614921565b80835260076020526040832061117f60ff600883015416613137565b60018101908460018060a01b0361119a81855416331461316e565b6111a9868260025416336151e0565b60025416803b1561080957818091602460405180948193636e93ae2b60e01b83528b60048401525af180156104345761125b575b505061121e600692600383016111f487825461333c565b8091556002840154611206828261331e565b600586015560ff6004860154935460a01c169261547c565b918291015560405192835260208301527f935a476d8eb416e1441bbdc27477a7d90012bed1a74dba06f77fc32b8b119bd860403393a36001815580f35b611264906131a6565b61054457845f6111dd565b506020908160031936011261054c576004359061128a6151bf565b818152600783526040812060ff6008820154161561142f5760018101546001600160a01b03906112bd908216331461316e565b838352600e855260ff6040842054166113f3576007820154600154604051636d78097360e11b8152949392879186916004918391165afa9384156103c05783946113c2575b506109d66001946113129261333c565b838252600e855260408220805460ff191684179055600654936113348561489c565b600655848352600886526040832090848201336bffffffffffffffffffffffff60a01b8254161790556006820161010361ffff198254161790554260078301556008820155600a3491015554604051908152600385820152816040820152837f401524beccff0d9dd3447788dea32e11f3b7c9618ed6084f14a773dbf2025f1660603393a355604051908152f35b93508584813d83116113ec575b6113d981836131d5565b810103126104bb579251926109d6611302565b503d6113cf565b60405162461bcd60e51b8152600481018690526014602482015273436c6f736520726571756573742065786973747360601b6044820152606490fd5b60405162461bcd60e51b81526004810185905260116024820152702837b9b4ba34b7b7103737ba1037b832b760791b6044820152606490fd5b503461054c57602036600319011261054c5760406101c09160043581526007602052208054906001810154906002810154600382015460048301546005840154600685015460078601549160ff60088801541693600988015495600a8901549760ff600c600b8c01549b01549b6040519d8e528d602060018060a01b03831691015260a01c16151560408d015260608c015260808b015260a08a015260c089015260e088015261010087015215156101208601526101408501526101608401526101808301526101a0820152f35b503461054c578060031936011261054c576020600b54604051908152f35b503461054c578060031936011261054c576020600554604051908152f35b5061157c366130c8565b906115889392936151bf565b611593841515614921565b8285526020906007825260408620926115b260ff600886015416613137565b86600185019160018060a01b03936115ce85855416331461316e565b816118ef575b5050506115e0846152a7565b5060038401936115f1878654613380565b90620f424082106118b35760028101549161160c818461331e565b90856001541694602460e08554976040519283809263351bd11560e11b82528b60048301525afa80156118a8578d906117ff575b60409150015183116117c3579061166d8493928260ff8f9a99989760040154925460a01c1696879261547c565b98604087600354169660248251809981936331d98b3f60e01b835260048301525afa80156108de578a60069681988b936117a1575b5015611792576116b29111614968565b55600582015501558060025416803b15610548578280916024604051809481936306e980c560e51b83528c60048401525af19081156103c057839161177e575b505060025416803b15610809576040516374e863ad60e01b8152336004820152602481018790529082908290604490829084905af180156104345761176a575b50506040519384528301527fdf372a02d8e5139b85d7448d53241f194a27db9f321178c970db6e998ebb600160403393a36001815580f35b611773906131a6565b61054457845f611732565b611787906131a6565b61080957815f6116f2565b61179c9110614968565b6116b2565b6117bb91935060403d6040116103b9576103a981836131d5565b50915f6116a2565b60405162461bcd60e51b815260048101899052601460248201527345786365656473206d6178206c6576657261676560601b6044820152606490fd5b5060e0813d60e0116118a0575b8161181960e093836131d5565b8101031261189c5760405160e08101918183106001600160401b038411176118885760c061187e916040948552805184528c8101518d8501528481015185850152606081015160608501526080810151608085015260a081015160a08501520161495b565b60c0820152611640565b634e487b7160e01b5f52604160045260245ffd5b8c80fd5b3d915061180c565b6040513d8f823e3d90fd5b60405162461bcd60e51b815260048101869052601460248201527310995b1bddc81b5a5b8818dbdb1b185d195c985b60621b6044820152606490fd5b846003541691823b1561043f57604051631df3cbc560e31b815292849284928391829161191f91600484016131f6565b039134905af1801561043457611936575b806115d4565b61193f906131a6565b6107b157865f611930565b503461054c5761195936613079565b6001600160a01b039091168252600a6020526040822080549192909183101561054c576020611988848461309f565b90546040519160031b1c8152f35b506119a036613029565b906119ac9392936151bf565b81611ba2575b50508181526020916007835260408220906119d360ff600884015416613137565b6007820154600154604051636d78097360e11b81526001600160a01b03929187908290600490829087165afa908115611b97578691611b68575b506109d690611a1b9261333c565b60035416916040815460248251809681936331d98b3f60e01b835260048301525afa928315610821578493611b46575b50838491600981015480611b1b575b50811580611b0e575b611ae4575b5015611aa9577fac4fd466c8f994e08ce2eb9141c2f01f2a779a3537d9bd71fa8762df3d12842c6040839285610a21979883519215158352820152a2615789565b60405162461bcd60e51b815260048101869052601360248201527215140bd4d3081b9bdd081d1c9a59d9d95c9959606a1b6044820152606490fd5b6001810154600a925060a01c60ff1615611b045701548311155b5f611a68565b0154831015611afe565b50600a8101541515611a63565b9150915060ff600183015460a01c165f14611b3d57831015905b81905f611a5a565b83111590611b35565b611b6091935060403d6040116103b9576103a981836131d5565b50915f611a4b565b90508681813d8311611b90575b611b7f81836131d5565b810103126104bb5751611a1b611a0d565b503d611b75565b6040513d88823e3d90fd5b6003546001600160a01b031690813b1561043f57918391611bd993604051809581948293631df3cbc560e31b8452600484016131f6565b039134905af1801561043457908291156119b257611bf6906131a6565b61054c57805f6119b2565b503461054c578060031936011261054c576003546040516001600160a01b039091168152602090f35b5061010036600319011261054c5760043590611c4461301a565b9160443591606435916084359460a43590611c5d6151bf565b600287101580611f27575b15611ef157603c8210611eb957620f42408781029081048803611ea5578610611e69576001546001600160a01b031696873b156105445760405163bd79156f60e01b8152858180611cc08a8c88338c600487016132ed565b03818c5afa8015611b9757908691611e55575b5050611cdf868861331e565b9760405198899163e4d8cbe560e01b835289600484015287602484015282604460209c8d935afa918215611e4a578792611e14575b509060019782611d2b610db084600e98979661333c565b6006549a611d388c61489c565b6006558b8a5260088d5260408a208981558b8101805460ff60a01b1933166001600160a81b03199091161797151560a01b60ff60a01b16979097179096556002860155600385015560048401556006830161010461ffff19825416179055426007840155600983015534600a83015560c435600b83015560e435600c830155600d8201550155338252600a8552611dd284604084206148aa565b604051908152600485820152816040820152837f401524beccff0d9dd3447788dea32e11f3b7c9618ed6084f14a773dbf2025f1660603393a355604051908152f35b939291508984813d8311611e43575b611e2d81836131d5565b810103126104bb57925191929091906001611d14565b503d611e23565b6040513d89823e3d90fd5b611e5e906131a6565b61054457845f611cd3565b60405162461bcd60e51b815260206004820152601460248201527314db1a58d9481cda5e99481d1bdbc81cdb585b1b60621b6044820152606490fd5b634e487b7160e01b85526011600452602485fd5b60405162461bcd60e51b815260206004820152601060248201526f135a5b880d8c1cc81a5b9d195c9d985b60821b6044820152606490fd5b60405162461bcd60e51b815260206004820152600e60248201526d496e76616c696420736c6963657360901b6044820152606490fd5b506064871115611c68565b503461054c57611f4136613079565b6001600160a01b03909116825260096020526040822080549192909183101561054c576020611988848461309f565b503461054c57602036600319011261054c57600435611f8d6151bf565b8082526008602052604082206006810190600360ff8354611fb2828260081c16613453565b611fc960018060a01b03600186015416331461316e565b61ff0019811685551614612121575b60ff8254166003810361208c575b50600460ff600a830154935416148061207f575b612052575b508281612033575b7f61b9399f2f0f32ca39ce8d7be32caed5ec22fe07a6daba3a467ed479ec606582915080a26001815580f35b80808061204b94335af161204561348c565b506134ca565b5f82612007565b9061207382600f61206a600d6120799601548561331e565b9101549061336d565b90613380565b5f611fff565b50600f8101541515611ffa565b600382015460046009840154921480612114575b6120d4575b6120af828261333c565b6120ba575b50611fe6565b6120cd916120c79161333c565b3361557d565b5f806120b4565b9061210e90612073600d8501546121086120f86120f1838861331e565b928561331e565b95612073600f890154809461336d565b9461336d565b906120a5565b50600f83015415156120a0565b60088101548452600e60205260408420805460ff19169055611fd8565b503461054c57606036600319011261054c576121586151bf565b600435815260076020526040812061217660ff600883015416613137565b61218d60018060a01b03600183015416331461316e565b6024356009820155600a6044359101556001815580f35b503461054c578060031936011261054c576004546040516001600160a01b039091168152602090f35b50610a216121da36613029565b916121e36151bf565b6135ef565b5061010036600319011261054c576121fe61301a565b60c4358260e4356001600160401b03811161080957612221903690600401612fea565b9061222a6151bf565b61223b620f424060443510156130fa565b8161289f575b5050600354604080516331d98b3f60e01b8152600480359082015293925090839060249082906001600160a01b03165afa91821561082157849261287d575b5080612854575b5060843561282f575b60a43561280a575b6001546001600160a01b031691823b1561043f578360405163bd79156f60e01b81528181806122d46064356044358833600435600487016132ed565b0381885afa8015610434576127f6575b505060206044936040519485809263e4d8cbe560e01b8252823560048301528860248301525afa9283156108215784936127c1575b5060206124109161232e60643560443561331e565b9461233c610db0828861333c565b60405195612349876131b9565b8760c0880152876101208801528761014088015287610180880152876101e08801528761020088015287610220880152876102408801526004358752338488015282151560408801526044356060880152608087015260643560a0870152600260e087015260016101008701526101608601526084356101a086015260a4356101c086015260018060a01b0360015416604051808095819463b391decf60e01b83526044359015156004356004850160409194939260608201958252151560208201520152565b03915afa90811561082157849161278f575b50818482131561273b575061243a612710918361336d565b04604083015115155f1461272d576124519161333c565b6005549061245e8261489c565b6005558184526007602090815260408086208551815591850151600183018054928701516001600160a81b03199093166001600160a01b03929092169190911791151560a081901b60ff60a01b169290921790558591906124e7905b606087015180600285015560808801519081600386015586600486015560a089015160058601558661547c565b600682015542600782015542600c82015560088101600160ff198254161790556101a085015160098201556101c0850151600a820155602060018060a01b0360015416602487516040519586938492637cc6765f60e11b845260048401525af1918215611b975786926126f8575b50600b015560015483516020850151604086015160608701518894909392911515916001600160a01b039182169116813b156126f4578580946125ae6040519788968795869463b65b361f60e01b86526004860161338d565b03925af18015610434576126e0575b505060025460808401516125d9916001600160a01b031661557d565b600254608084015185916001600160a01b031690813b15610548578291602483926040519485938492636e93ae2b60e01b845260048401525af18015610434576126cc575b505060a05f80516020615b958339815191529161263f61016086015161563f565b600180831b036020860151168652600960205261265f84604088206148aa565b600180831b03602086015116948051916040820151151591846060820151910151926040519485526020850152604084015260608301526080820152a36005545f1981019081116126b857600160209255604051908152f35b634e487b7160e01b82526011600452602482fd5b6126d5906131a6565b61043f57835f61261e565b6126e9906131a6565b61043f57835f6125bd565b8580fd5b9091506020813d602011612725575b81612714602093836131d5565b810103126104bb575190600b612555565b3d9150612707565b61273691613380565b612451565b9084811261274b575b5050612451565b61271091925061275d6127639161335d565b8361336d565b04604083015115155f146127815761277a91613380565b5f80612744565b61278a9161333c565b61277a565b90506020813d6020116127b9575b816127aa602093836131d5565b810103126104bb57515f612422565b3d915061279d565b9092506020813d6020116127ee575b816127dd602093836131d5565b810103126104bb5751916020612319565b3d91506127d0565b6127ff906131a6565b61043f57835f6122e4565b81156128225761281d8160a43510613414565b612298565b61281d8160a43511613414565b81156128475761284281608435116133d5565b612290565b61284281608435106133d5565b821561286c57612866908211156132ad565b5f612287565b612878908210156132ad565b612866565b61289791925060403d6040116103b9576103a981836131d5565b50905f612280565b6003546001600160a01b031691823b1561043f57604051631df3cbc560e31b81529284928492839182916128d691600484016131f6565b039134905af18015610434576128ed575b80612241565b6128f6906131a6565b61054857825f6128e7565b503461054c57602036600319011261054c57600154604051638da5cb5b60e01b815260048035926001600160a01b0391602091849190829085165afa80156108215761295692859161106c575016331461316e565b6101f4811161296557600c5580f35b60405162461bcd60e51b81526020600482015260066024820152654d617820352560d01b6044820152606490fd5b503461054c57602036600319011261054c5760ff60406020926004358152600e84522054166040519015158152f35b5060a03660031901126104bb57606435906044356084356001600160401b0381116104bb576129f5903690600401612fea565b919093612a006151bf565b612a11620f424060243510156130fa565b6004355f52600760205260405f2092612a3060ff600886015416613137565b6001840195612a4960018060a01b03885416331461316e565b81612f63575b50506003548354604080516331d98b3f60e01b815260048101839052969791939192879060249082906001600160a01b03165afa958615611e4a578796612f41575b5080612f11575b508560018060a01b03600154169260ff835460a01c16843b156105485760405163bd79156f60e01b815291839183918291612ade918a91602435913390600487016132ed565b0381875afa801561043457612efd575b50506020612b0060449460243561331e565b926040519485809263e4d8cbe560e01b825260243560048301528a60248301525afa928315611b97578693612ec9575b50612b3e610db0848461333c565b612b47846152a7565b506001548454915460405163b391decf60e01b81526004810184905260a09190911c60ff16801515602480840191909152356044830152969160209082906001600160a01b031681806064810103915afa9081156108de578891612e97575b508188821315612e4b5750612bbe612710918361336d565b048615612e3d57612bce9161333c565b945b60028501549586670de0b6b3a7640000810204670de0b6b3a76400001487151715612e2957612c0d6004870154670de0b6b3a7640000890261331e565b90602435670de0b6b3a76400006024350204670de0b6b3a764000014602435151715612e1557612c4990670de0b6b3a76400006024350261331e565b612c556024358961333c565b9182670de0b6b3a7640000810204670de0b6b3a76400001483151715612e015783612caa612ca08c98979695670de0b6b3a7640000612c99600697612cde9761333c565b910261331e565b9a6024359061333c565b8060028b015560038a0190612cc088835461333c565b8092558b60048c0155612cd3828261331e565b60058c01558b61547c565b96019586556001546001600160a01b031691823b1561054457612d209285928360405180968195829463b65b361f60e01b84526024359133906004860161338d565b03925af19081156103c0578391612ded575b5050600254612d4b9082906001600160a01b031661557d565b6002546001600160a01b031690813b15610548578291602483926040519485938492636e93ae2b60e01b845260048401525af1801561043457612dd9575b5050612d949061563f565b546040519160243583526020830152604082015233907ff48aa9a1deec4f3fc0cb0c073f4f097041726d7c7f9d2c3a863cd52f721e8d1a606060043592a36001815580f35b612de2906131a6565b61043f57835f612d89565b612df6906131a6565b61080957815f612d32565b634e487b7160e01b8a52601160045260248afd5b634e487b7160e01b89526011600452602489fd5b634e487b7160e01b88526011600452602488fd5b612e4691613380565b612bce565b90888198939812612e5e575b5050612bd0565b6127109192975061275d612e719161335d565b048615612e8957612e8191613380565b945f80612e57565b612e929161333c565b612e81565b90506020813d602011612ec1575b81612eb2602093836131d5565b810103126104bb57515f612ba6565b3d9150612ea5565b9092506020813d602011612ef5575b81612ee5602093836131d5565b810103126104bb5751915f612b30565b3d9150612ed8565b612f06906131a6565b6126f457855f612aee565b815460a01c60ff1615612f3057612f2a908611156132ad565b5f612a98565b612f3c908610156132ad565b612f2a565b612f5b91965060403d6040116103b9576103a981836131d5565b50945f612a91565b6003546001600160a01b031691823b156104bb57604051631df3cbc560e31b8152925f92849283918291612f9a91600484016131f6565b039134905af18015612fc557612fb1575b80612a4f565b60249450612fbe906131a6565b5f93612fab565b6040513d5f823e3d90fd5b346104bb575f3660031901126104bb576020906006548152f35b9181601f840112156104bb578235916001600160401b0383116104bb576020808501948460051b0101116104bb57565b6024359081151582036104bb57565b9060406003198301126104bb5760043591602435906001600160401b0382116104bb5761305891600401612fea565b9091565b346104bb575f3660031901126104bb576020604051620f42408152f35b60409060031901126104bb576004356001600160a01b03811681036104bb579060243590565b80548210156130b4575f5260205f2001905f90565b634e487b7160e01b5f52603260045260245ffd5b60606003198201126104bb576004359160243591604435906001600160401b0382116104bb5761305891600401612fea565b1561310157565b60405162461bcd60e51b815260206004820152600e60248201526d14da5e99481d1bdbc81cdb585b1b60921b6044820152606490fd5b1561313e57565b60405162461bcd60e51b81526020600482015260086024820152672737ba1037b832b760c11b6044820152606490fd5b1561317557565b60405162461bcd60e51b81526020600482015260096024820152682737ba1037bbb732b960b91b6044820152606490fd5b6001600160401b03811161188857604052565b61026081019081106001600160401b0382111761188857604052565b90601f801991011681019081106001600160401b0382111761188857604052565b9160208181850182865252604084019360408360051b82010194845f925b858410613225575050505050505090565b90919293949596603f198282030184528735601e19843603018112156104bb5783018681019190356001600160401b0381116104bb5780360383136104bb5787828280600196849695859652848401375f828201840152601f01601f1916010199019796959190910193019190613214565b91908260409103126104bb576020825192015190565b156132b457565b60405162461bcd60e51b815260206004820152601160248201527014db1a5c1c1859d948195e18d959591959607a1b6044820152606490fd5b9081526001600160a01b03909116602082015290151560408201526060810191909152608081019190915260a00190565b8115613328570490565b634e487b7160e01b5f52601260045260245ffd5b9190820180921161334957565b634e487b7160e01b5f52601160045260245ffd5b600160ff1b8114613349575f0390565b8181029291811591840414171561334957565b9190820391821161334957565b9081526001600160a01b0390911660208201529015156040820152606081019190915260800190565b908160209103126104bb57516001600160a01b03811681036104bb5790565b156133dc57565b60405162461bcd60e51b815260206004820152601060248201526f496e76616c696420545020707269636560801b6044820152606490fd5b1561341b57565b60405162461bcd60e51b815260206004820152601060248201526f496e76616c696420534c20707269636560801b6044820152606490fd5b1561345a57565b60405162461bcd60e51b815260206004820152600a6024820152694e6f742061637469766560b01b6044820152606490fd5b3d156134c5573d906001600160401b03821161188857604051916134ba601f8201601f1916602001846131d5565b82523d5f602084013e565b606090565b156134d157565b60405162461bcd60e51b8152602060048201526011602482015270115512081c99599d5b990819985a5b1959607a1b6044820152606490fd5b90604051613517816131b9565b610240601082948054845260ff600182015460018060a01b038116602087015260a01c16151560408501526002810154606085015260038101546080850152600481015460a0850152600581015460c085015260ff600682015481811660e087015260081c161515610100850152600781015461012085015260088101546101408501526009810154610160850152600a810154610180850152600b8101546101a0850152600c8101546101c0850152600d8101546101e0850152600e810154610200850152600f8101546102208501520154910152565b90915f928161483b575b5050808252600860205260408220600681015461361b60ff8260081c16613453565b61362c6007830154600d549061333c565b421161474357506003548154604080516331d98b3f60e01b8152600481018390529192829060249082906001600160a01b03165afa908115610ade578591614723575b50600683015460ff1680613bf15750905060ff600183015460a01c165f14613be45760058201548111155b15613bab576136a88261350a565b60015481516040808401516060850151915163b391decf60e01b8152600481019390935215156024830152604482015291929190602090829060649082906001600160a01b03165afa908115611b97578691613b79575b508186821315613b2b5750613717612710918361336d565b04604083015115155f14613b1d5761372e9161333c565b6005549061373b8261489c565b6005558186526007602090815260408088208551815591850151600183018054928701516001600160a81b03199093166001600160a01b03929092169190911791151560a081901b60ff60a01b1692909217905587919061379b906124ba565b600682015542600782015542600c82015560088101600160ff198254161790556101a085015160098201556101c0850151600a820155602060018060a01b0360015416602487516040519586938492637cc6765f60e11b845260048401525af19182156108de578892613ae8575b50600b0155600154835160208501516040860151606087015193901515926001600160a01b039182169290911690823b15613ae457908a809493926138646040519788968795869463b65b361f60e01b86526004860161338d565b03925af18015611e4a57908791613ad0575b50506002546080840151613892916001600160a01b031661557d565b60018060a01b03600254166080840151813b15610430578791602483926040519485938492636e93ae2b60e01b845260048401525af18015611e4a57908791613abc575b505060a05f80516020615b95833981519152916138f761016086015161563f565b600180831b03602086015116885260096020526139178460408a206148aa565b600180831b03602086015116948051916040820151151591846060820151910151926040519485526020850152604084015260608301526080820152a360068101805461ff00191690555b82600a82015480613a10575b5050600681015460ff8160081c1615613988575b50505050565b60ff166003036139c55760087f9947370f1e808dd40de986fca744d8715d4d7aa575359f77a7bdeeb887f590ea910154925b80a35f808080613982565b506005545f1981019081116139fc577f9947370f1e808dd40de986fca744d8715d4d7aa575359f77a7bdeeb887f590ea90926139ba565b634e487b7160e01b83526011600452602483fd5b81906006840154600460ff82161480613aaf575b15613a955750613a3a9150600d8401549061331e565b801561396e5781808092335af1613a4f61348c565b5015613a5c57825f61396e565b60405162461bcd60e51b815260206004820152601160248201527012d9595c195c881999594819985a5b1959607a1b6044820152606490fd5b60081c60ff1615613aa7575b50613a3a565b90505f613aa1565b50600d8501541515613a24565b613ac5906131a6565b6126f457855f6138d6565b613ad9906131a6565b6126f457855f613876565b8a80fd5b9091506020813d602011613b15575b81613b04602093836131d5565b810103126104bb575190600b613809565b3d9150613af7565b613b2691613380565b61372e565b90868112613b3b575b505061372e565b61271091925061275d613b4d9161335d565b04604083015115155f14613b6b57613b6491613380565b5f80613b34565b613b749161333c565b613b64565b90506020813d602011613ba3575b81613b94602093836131d5565b810103126104bb57515f6136ff565b3d9150613b87565b60405162461bcd60e51b8152602060048201526011602482015270131a5b5a5d081b9bdd081c995858da1959607a1b6044820152606490fd5b600582015481101561369a565b600181036140125750905060ff600183015460a01c165f146140055760058201548110155b15613fcd57613c248261350a565b60015481516040808401516060850151915163b391decf60e01b8152600481019390935215156024830152604482015291929190602090829060649082906001600160a01b03165afa908115611b97578691613f9b575b508186821315613f4d5750613c93612710918361336d565b04604083015115155f14613f3f57613caa9161333c565b60055490613cb78261489c565b6005558186526007602090815260408088208551815591850151600183018054928701516001600160a81b03199093166001600160a01b03929092169190911791151560a081901b60ff60a01b16929092179055879190613d17906124ba565b600682015542600782015542600c82015560088101600160ff198254161790556101a085015160098201556101c0850151600a820155602060018060a01b0360015416602487516040519586938492637cc6765f60e11b845260048401525af19182156108de578892613f0a575b50600b0155600154835160208501516040860151606087015193901515926001600160a01b039182169290911690823b15613ae457908a80949392613de06040519788968795869463b65b361f60e01b86526004860161338d565b03925af18015611e4a57908791613ef6575b50506002546080840151613e0e916001600160a01b031661557d565b60018060a01b03600254166080840151813b15610430578791602483926040519485938492636e93ae2b60e01b845260048401525af18015611e4a57908791613ee2575b505060a05f80516020615b9583398151915291613e7361016086015161563f565b600180831b0360208601511688526009602052613e938460408a206148aa565b600180831b03602086015116948051916040820151151591846060820151910151926040519485526020850152604084015260608301526080820152a360068101805461ff0019169055613962565b613eeb906131a6565b6126f457855f613e52565b613eff906131a6565b6126f457855f613df2565b9091506020813d602011613f37575b81613f26602093836131d5565b810103126104bb575190600b613d85565b3d9150613f19565b613f4891613380565b613caa565b90868112613f5d575b5050613caa565b61271091925061275d613f6f9161335d565b04604083015115155f14613f8d57613f8691613380565b5f80613f56565b613f969161333c565b613f86565b90506020813d602011613fc5575b81613fb6602093836131d5565b810103126104bb57515f613c7b565b3d9150613fa9565b60405162461bcd60e51b815260206004820152601060248201526f14dd1bdc081b9bdd081c995858da195960821b6044820152606490fd5b6005820154811115613c16565b600281036140ca57509050600182015460ff8160a01c165f146140bd5760058301548211155b80156140b1575b156140605750613c248261350a565b60068101805461ff0019169055613962565b6140879150614078600384015460098501549061333c565b906001600160a01b031661557d565b817f61b9399f2f0f32ca39ce8d7be32caed5ec22fe07a6daba3a467ed479ec6065828480a261404e565b5060058301541561403f565b6005830154821015614038565b6003810361410a575090506140e460088301918254615789565b548352600e60205260408320805460ff1916905560068101805461ff0019169055613962565b600414614119575b5050613962565b600f8301549182158015614707575b156146d0576141368461350a565b926001810181116146bc57600d8501549060018101820361467c57806002870154614161848261331e565b8260038a015492614172878561331e565b9260098c015497614183908961331e565b9661418d9161336d565b61419691613380565b60608a01526141a49161336d565b6141ad91613380565b60808701526141bb9161336d565b6141c491613380565b6101608401525b60018060a01b03600154169060018501546060850151916004870154843b156146785760405163bd79156f60e01b8152938a9385938493614226939092909160a082901c60ff16916001600160a01b031690600487016132ed565b0381855afa8015611e4a57908791614664575b505082516040808501516060860151915163b391decf60e01b8152600481019390935215156024830152604482015290602090829060649082905afa908115611b97578691614632575b5081868213156145e4575061429b612710918361336d565b04604083015115155f146145d6576142b29161333c565b6005546142be8161489c565b6005558086526007602090815260408088208551815591850151600183018054928701516001600160a81b03199093166001600160a01b03929092169190911791151560a081901b60ff60a01b1692909217905587919061434690606087015180600285015560808801519081600386015587600486015560a089015160058601558761547c565b600682015542600782015542600c82015560088101600160ff198254161790556101a085015160098201556101c0850151600a820155602060018060a01b0360015416602487516040519586938492637cc6765f60e11b845260048401525af19182156108de5788926145a1575b50600b0155600154835160208501516040860151606087015193901515926001600160a01b039182169290911690823b15613ae457908a8094939261440f6040519788968795869463b65b361f60e01b86526004860161338d565b03925af18015611e4a5790879161458d575b5050600254608084015161443d916001600160a01b031661557d565b60018060a01b03600254166080840151813b15610430578791602483926040519485938492636e93ae2b60e01b845260048401525af18015611e4a57908791614579575b505061449161016084015161563f565b6020838101516001600160a01b0316875260099052604086206144b59082906148aa565b5f80516020615b9583398151915260a0600180821b03602086015116938551906040870151151590606088015184890151926040519485526020850152604084015260608301526080820152a3600f8201549060018201809211611ea5577f098dc6c1012d2fb4cc0470ec0f1b82ad9eaf354865d76ebad869d83f1559344e60406060869385600f88015542601088015501518151908582526020820152a2600d8201541115614567575b5f80614112565b60068101805461ff0019169055614560565b614582906131a6565b6126f457855f614481565b614596906131a6565b6126f457855f614421565b9091506020813d6020116145ce575b816145bd602093836131d5565b810103126104bb575190600b6143b4565b3d91506145b0565b6145df91613380565b6142b2565b908681126145f4575b50506142b2565b61271091925061275d6146069161335d565b04604083015115155f146146245761461d91613380565b5f806145ed565b61462d9161333c565b61461d565b90506020813d60201161465c575b8161464d602093836131d5565b810103126104bb57515f614283565b3d9150614640565b61466d906131a6565b6126f457855f614239565b8980fd5b508061468f6146b192600288015461331e565b60608601526146a281600388015461331e565b6080860152600986015461331e565b6101608401526141cb565b634e487b7160e01b87526011600452602487fd5b60405162461bcd60e51b815260206004820152600f60248201526e545741503a20746f6f206561726c7960881b6044820152606490fd5b5061471b6010850154600e8601549061333c565b421015614128565b61473c915060403d6040116103b9576103a981836131d5565b505f61366f565b90600360ff7f61b9399f2f0f32ca39ce8d7be32caed5ec22fe07a6daba3a467ed479ec60658294959361ff001981166006850155161461481e575b600360ff600683015416141580614803575b6147d1575b81600a82015491826147a8575b509050a2565b600101546147c9928291829182916001600160a01b03165af161204561348c565b5f81816147a2565b6001810154600382015460098301546147fe926001600160a01b0316916147f8919061333c565b9061557d565b614795565b50614817600382015460098301549061333c565b1515614790565b60088101548252600e60205260408220805460ff1916905561477e565b6003546001600160a01b031691823b156104bb57604051631df3cbc560e31b8152925f9284928391829161487291600484016131f6565b039134905af18015612fc557614889575b806135f9565b6148949192506131a6565b5f905f614883565b5f1981146133495760010190565b805468010000000000000000811015611888576148cc9160018201815561309f565b819291549060031b91821b915f19901b1916179055565b156148ea57565b60405162461bcd60e51b815260206004820152600f60248201526e436f6f6c646f776e2061637469766560881b6044820152606490fd5b1561492857565b60405162461bcd60e51b815260206004820152600b60248201526a16995c9bc8185b5bdd5b9d60aa1b6044820152606490fd5b519081151582036104bb57565b1561496f57565b60405162461bcd60e51b8152602060048201526015602482015274576f756c64206265206c6971756964617461626c6560581b6044820152606490fd5b81810392915f13801582851316918412161761334957565b81810292915f8212600160ff1b82141661334957818405149015171561334957565b811561332857600160ff1b81145f19831416613349570590565b9190915f838201938412911290801582169115161761334957565b9190925f90841515806150e5575b156150ae57835f52600760205260405f2092614a4b60ff600886015416613137565b614a6260018060a01b03600186015416331461316e565b6007840154600154604051636d78097360e11b815290602090829060049082906001600160a01b03165afa908115612fc5575f9161507a575b506109d690614aa99261333c565b8161501b575b505060018060a01b0360035416906040835460248251809581936331d98b3f60e01b835260048301525afa91821561500e578192614fec575b5061271094858114614fdb57614b2795614b2d600286015482614b0b858361336d565b04988993614b1e60038a0154968761336d565b04938492613380565b93613380565b94620f4240808410614fa0578610614f5b57600181015460a01c60ff1615614f4057614b6a60048201546103058a614b65838a6149ac565b6149c4565b60018060a01b0360015416906040519463e4d8cbe560e01b86528a6004870152866024870152602086604481865afa958615611e4a578b88918298614f04575b5063d693a400614bd6614bc2602093600b549061336d565b614bd0600c8a015442613380565b9061336d565b0494602487546040519485938492637cc6765f60e11b845260048401525af180156108de57614ed9575b506001548454604051634655f1eb60e01b815260048101829052909491602090829060249082906001600160a01b03165afa908115614ece5789939291878f928692614e90575b5092614c96670de0b6b3a7640000614cd5979894614c70614c9b95600b614ca1990154906149ac565b60018d01549a5060a08b901c60ff1615614e7757614c8d916149c4565b05915b8c614a00565b614a00565b906149ac565b99816002870155806003870155614cb8818361331e565b600587015542600c87015560ff8460a01c1691600487015461547c565b60068401556001546001600160a01b031691823b156107b157614d25928792838d936040519687958694859363019ca2b960e51b855260ff8260a01c169160018060a01b0316906004860161338d565b03925af18015610ade57908591614e63575b5050600254600191909101546001600160a01b039182169116813b156105445760405163118f304360e01b81526001600160a01b0391909116600482015260248101839052604481018790529084908290606490829084905af1801561082157908491614e4f575b50508115159081614e3d575b50614deb575b5050604051938452602084015260408301527f5cc0748e06097a585a6534dafcca64d5cc367340dff0e00469484e8269a7ca7b60603393a3565b6002546001600160a01b031690813b156105485782916024839260405194859384926335b8e71360e01b845260048401525af180156104345715614db157614e3382916131a6565b61054c5780614db1565b614e47915061335d565b84135f614dab565b614e58906131a6565b61054857825f614d9f565b614e6c906131a6565b61043f57835f614d37565b614e8490614e89926149c4565b61335d565b0591614c90565b95505050506020833d602011614ec6575b81614eae602093836131d5565b810103126104bb5791518892908d9087614c96614c47565b3d9150614ea1565b6040513d8b823e3d90fd5b602090813d8311614efd575b614eef81836131d5565b810103126104bb575f614c00565b503d614ee5565b975050506020863d602011614f38575b81614f21602093836131d5565b810103126104bb57945194868b63d693a400614baa565b3d9150614f14565b614f5660048201546103058a614b6589846149ac565b614b6a565b60405162461bcd60e51b815260206004820152601e60248201527f52656d61696e64657220636f6c6c61746572616c20746f6f20736d616c6c00006044820152606490fd5b60405162461bcd60e51b815260206004820152601360248201527214995b585a5b99195c881d1bdbc81cdb585b1b606a1b6044820152606490fd5b5050919050614fea9250615789565b565b61500691925060403d6040116103b9576103a981836131d5565b50905f614ae8565b50604051903d90823e3d90fd5b6003546001600160a01b031691823b156104bb57604051631df3cbc560e31b8152925f9284928391829161505291600484016131f6565b039134905af18015612fc557615069575b80614aaf565b61507391506131a6565b5f80615063565b90506020813d6020116150a6575b81615095602093836131d5565b810103126104bb5751614aa9614a9b565b3d9150615088565b60405162461bcd60e51b815260206004820152600f60248201526e125b9d985b1a59081c195c98d95b9d608a1b6044820152606490fd5b50612710851115614a29565b906040516101c081018181106001600160401b03821117611888576040526101a0600c82948054845260ff600182015460018060a01b038116602087015260a01c16151560408501526002810154606085015260038101546080850152600481015460a0850152600581015460c0850152600681015460e0850152600781015461010085015260ff60088201541615156101208501526009810154610140850152600a810154610160850152600b8101546101808501520154910152565b91908110156130b45760051b0190565b60025f54146151ce5760025f55565b604051633ee5aeb560e01b8152600490fd5b916064602092935f60018060a01b03938460045416908560405198899788966323b872dd60e01b885216600487015216602485015260448401525af1908115612fc5575f9161526d575b501561523257565b60405162461bcd60e51b8152602060048201526013602482015272151c985b9cd9995c919c9bdb4819985a5b1959606a1b6044820152606490fd5b90506020813d60201161529f575b81615288602093836131d5565b810103126104bb576152999061495b565b5f61522a565b3d915061527b565b906152b461062f836150f1565b91600154905f60018060a01b03808354604095865191637cc6765f60e11b83526004830152816024815f6020978895165af180156153f257908391615453575b5050615302610672856150f1565b875f8213615440575b50508661538b575b42600c85015560015416918184546024875180968193634655f1eb60e01b835260048301525afa948515615381575093615350575b5050600b0155565b9080929350813d831161537a575b61536881836131d5565b810103126104bb575190600b5f615348565b503d61535e565b51903d90823e3d90fd5b600384018054808910156153fc57886153a391613380565b90558060025416803b156104bb575f8091602488518094819363ff20b48d60e01b83528d60048401525af180156153f2576153df575b50615313565b6153ea9193506131a6565b5f915f6153d9565b86513d5f823e3d90fd5b865162461bcd60e51b815260048101859052601f60248201527f506f736974696f6e206c6971756964617461626c652066726f6d2066656573006044820152606490fd5b61544b92985061333c565b955f8061530b565b813d8311615475575b61546681836131d5565b810103126104bb57815f6152f4565b503d61545c565b9192909261232890818102918183041490151715613349576001546040516335123baf60e21b81526127109283900491602090829060049082906001600160a01b03165afa908115612fc5575f9161554b575b50600a8101809111613349576154e683918761336d565b049080821061553b57505060648402848104606414851517156133495704905b15615524576155219261551c612073928461336d565b61331e565b90565b6155219261551c615535928461336d565b9061333c565b6155459250613380565b90615506565b90506020813d602011615575575b81615566602093836131d5565b810103126104bb57515f6154cf565b3d9150615559565b6004805460405163a9059cbb60e01b81526001600160a01b0393841692810192909252602482019390935291602091839160449183915f91165af1908115612fc5575f91615605575b50156155ce57565b60405162461bcd60e51b815260206004820152600f60248201526e151c985b9cd9995c8819985a5b1959608a1b6044820152606490fd5b90506020813d602011615637575b81615620602093836131d5565b810103126104bb576156319061495b565b5f6155c6565b3d9150615613565b60015460408051631db0457960e11b815260048101939093525f9392916001600160a01b039082908490602490829085165afa92831561577f575f905f9461575d575b50806156fc575b5082615697575b5050509050565b6020600491600154168351928380926361d027b360e01b82525afa9182156156f357506156cb9394916156d4575b5061557d565b805f8080615690565b6156ed915060203d6020116105325761052481836131d5565b5f6156c5565b513d86823e3d90fd5b61570a81836002541661557d565b816002541690813b156104bb575f9160248392865194859384926302102c9760e11b845260048401525af1801561575357156156895761574b9195506131a6565b5f935f615689565b83513d5f823e3d90fd5b9050615777919350823d84116103b9576103a981836131d5565b92905f615682565b82513d5f823e3d90fd5b91905f92805f5260209160078352604090815f2060088101906157af60ff835416613137565b60018101805460a01c60ff1615615a94576157e060048301546103056157d582886149ac565b6002860154906149c4565b600154600284018054885163e4d8cbe560e01b815260048101919091525f60248201526001600160a01b0395909390928616908b85604481855afa948515615a8a575f95615a5b575b505f8c61583861062f876150f1565b9360248d885490519485938492637cc6765f60e11b845260048401525af18015615a5157908d91615a28575b5050614c9b61588392614c9661587c610672886150f1565b9188614a00565b865460ff19169096556001548254855492549290918716803b156104bb575f9283896158ce8e519788968795869463019ca2b960e51b865260ff8360a01c169216906004860161338d565b03925af18015615a1e57615a0b575b508a8460025416600386865416930192835490823b1561043f578a5163118f304360e01b81526001600160a01b039190911660048201526024810191909152604481018890529082908290606490829084905af18015615a01576159ed575b505081151590816159da575b50615983575b507f356fca566f3a054a459c7224d9c9d634f31a98835cfd4fb4c5ddbf8b96aca21195969798505416958351928352820152a3565b89908360025416803b156105485760248392895194859384926335b8e71360e01b845260048401525af180156159d0571561594e576159c28a916131a6565b6159cc578861594e565b8880fd5b86513d8c823e3d90fd5b6159e591505461335d565b84135f615948565b6159f6906131a6565b613ae4578a5f61593c565b89513d84823e3d90fd5b615a16919b506131a6565b5f995f6158dd565b88513d5f823e3d90fd5b813d8311615a4a575b615a3b81836131d5565b810103126104bb578b5f615864565b503d615a31565b8b513d5f823e3d90fd5b9094508b81813d8311615a83575b615a7381836131d5565b810103126104bb5751935f615829565b503d615a69565b8a513d5f823e3d90fd5b615aa960048301546103056157d587836149ac565b6157e0565b615adc63d693a40091615ad76060615acb6101a084015142613380565b920151600b549061336d565b61336d565b0490565b60018060a01b03600154169060208151602460405180958193634655f1eb60e01b835260048301525afa918215612fc5575f92615b5e575b50615b32670de0b6b3a764000092610180830151906149ac565b604082015115615b4d576060615b499201516149c4565b0590565b614e84906060615b499301516149c4565b91506020823d602011615b8c575b81615b79602093836131d5565b810103126104bb57905190615b32615b18565b3d9150615b6c56fe52ca44dea94749aadfaa4d3749a0323a33b3a6434adcfff52ad54c511f5579c7a2646970667358221220bcb9d51dd46c7bc4ca8e01fe39d3a7baf547563fd82f13ceb28d05adc3feecdd64736f6c63430008180033",
  "linkReferences": {},
  "deployedLinkReferences": {},
  "immutableReferences": {},
  "inputSourceName": "project/src/ConfidentialTrading.sol",
  "buildInfoId": "solc-0_8_24-1d81f48088b0594752caae50a2c0fc8f4d6c9fab"
}