{
  "_format": "hh3-artifact-1",
  "contractName": "ConfidentialVaultV1",
  "sourceName": "src/ConfidentialVaultV1.sol",
  "abi": [
    {
      "inputs": [
        {
          "internalType": "address",
          "name": "_usdc",
          "type": "address"
        },
        {
          "internalType": "address",
          "name": "_core",
          "type": "address"
        }
      ],
      "stateMutability": "nonpayable",
      "type": "constructor"
    },
    {
      "inputs": [],
      "name": "DepositsDisabled",
      "type": "error"
    },
    {
      "inputs": [],
      "name": "ExceedsDepositCap",
      "type": "error"
    },
    {
      "inputs": [],
      "name": "ExceedsTVLCap",
      "type": "error"
    },
    {
      "inputs": [],
      "name": "InsufficientLiquidity",
      "type": "error"
    },
    {
      "inputs": [],
      "name": "InsufficientShares",
      "type": "error"
    },
    {
      "inputs": [],
      "name": "LockupNotExpired",
      "type": "error"
    },
    {
      "inputs": [],
      "name": "OnlyOwner",
      "type": "error"
    },
    {
      "inputs": [],
      "name": "OnlyTrading",
      "type": "error"
    },
    {
      "inputs": [],
      "name": "ReentrancyGuardReentrantCall",
      "type": "error"
    },
    {
      "inputs": [],
      "name": "ZeroAmount",
      "type": "error"
    },
    {
      "anonymous": false,
      "inputs": [
        {
          "indexed": false,
          "internalType": "uint256",
          "name": "amount",
          "type": "uint256"
        }
      ],
      "name": "AccruedFeesSettled",
      "type": "event"
    },
    {
      "anonymous": false,
      "inputs": [
        {
          "indexed": true,
          "internalType": "address",
          "name": "trader",
          "type": "address"
        },
        {
          "indexed": false,
          "internalType": "uint256",
          "name": "amount",
          "type": "uint256"
        }
      ],
      "name": "CollateralReturned",
      "type": "event"
    },
    {
      "anonymous": false,
      "inputs": [
        {
          "indexed": true,
          "internalType": "address",
          "name": "user",
          "type": "address"
        },
        {
          "indexed": false,
          "internalType": "uint256",
          "name": "amount",
          "type": "uint256"
        },
        {
          "indexed": false,
          "internalType": "uint256",
          "name": "sharesReceived",
          "type": "uint256"
        },
        {
          "indexed": false,
          "internalType": "bool",
          "name": "isDegen",
          "type": "bool"
        }
      ],
      "name": "Deposit",
      "type": "event"
    },
    {
      "anonymous": false,
      "inputs": [
        {
          "indexed": false,
          "internalType": "bool",
          "name": "isDegen",
          "type": "bool"
        },
        {
          "indexed": false,
          "internalType": "uint256",
          "name": "newEpoch",
          "type": "uint256"
        }
      ],
      "name": "EpochReset",
      "type": "event"
    },
    {
      "anonymous": false,
      "inputs": [
        {
          "indexed": false,
          "internalType": "uint256",
          "name": "amount",
          "type": "uint256"
        }
      ],
      "name": "FeeReceived",
      "type": "event"
    },
    {
      "anonymous": false,
      "inputs": [
        {
          "indexed": true,
          "internalType": "address",
          "name": "trader",
          "type": "address"
        },
        {
          "indexed": true,
          "internalType": "address",
          "name": "liquidator",
          "type": "address"
        },
        {
          "indexed": false,
          "internalType": "uint256",
          "name": "collateral",
          "type": "uint256"
        },
        {
          "indexed": false,
          "internalType": "uint256",
          "name": "reward",
          "type": "uint256"
        }
      ],
      "name": "LiquidationSettled",
      "type": "event"
    },
    {
      "anonymous": false,
      "inputs": [
        {
          "indexed": true,
          "internalType": "address",
          "name": "trader",
          "type": "address"
        },
        {
          "indexed": false,
          "internalType": "int256",
          "name": "netPnl",
          "type": "int256"
        },
        {
          "indexed": false,
          "internalType": "uint256",
          "name": "collateral",
          "type": "uint256"
        }
      ],
      "name": "PositionSettled",
      "type": "event"
    },
    {
      "anonymous": false,
      "inputs": [
        {
          "indexed": true,
          "internalType": "address",
          "name": "trader",
          "type": "address"
        },
        {
          "indexed": false,
          "internalType": "uint256",
          "name": "requestedProfit",
          "type": "uint256"
        },
        {
          "indexed": false,
          "internalType": "uint256",
          "name": "cappedProfit",
          "type": "uint256"
        }
      ],
      "name": "ProfitCapped",
      "type": "event"
    },
    {
      "anonymous": false,
      "inputs": [
        {
          "indexed": true,
          "internalType": "address",
          "name": "user",
          "type": "address"
        },
        {
          "indexed": false,
          "internalType": "uint256",
          "name": "amount",
          "type": "uint256"
        },
        {
          "indexed": false,
          "internalType": "uint256",
          "name": "sharesBurned",
          "type": "uint256"
        },
        {
          "indexed": false,
          "internalType": "bool",
          "name": "isDegen",
          "type": "bool"
        }
      ],
      "name": "Withdraw",
      "type": "event"
    },
    {
      "inputs": [],
      "name": "MINIMUM_LIQUIDITY",
      "outputs": [
        {
          "internalType": "uint256",
          "name": "",
          "type": "uint256"
        }
      ],
      "stateMutability": "view",
      "type": "function"
    },
    {
      "inputs": [],
      "name": "availableLiquidity",
      "outputs": [
        {
          "internalType": "uint256",
          "name": "",
          "type": "uint256"
        }
      ],
      "stateMutability": "view",
      "type": "function"
    },
    {
      "inputs": [
        {
          "internalType": "address",
          "name": "user",
          "type": "address"
        },
        {
          "internalType": "bool",
          "name": "isDegen",
          "type": "bool"
        }
      ],
      "name": "balanceOfUnderlying",
      "outputs": [
        {
          "internalType": "uint256",
          "name": "",
          "type": "uint256"
        }
      ],
      "stateMutability": "view",
      "type": "function"
    },
    {
      "inputs": [
        {
          "internalType": "address",
          "name": "user",
          "type": "address"
        },
        {
          "internalType": "bool",
          "name": "isDegen",
          "type": "bool"
        }
      ],
      "name": "canWithdraw",
      "outputs": [
        {
          "internalType": "bool",
          "name": "",
          "type": "bool"
        }
      ],
      "stateMutability": "view",
      "type": "function"
    },
    {
      "inputs": [],
      "name": "core",
      "outputs": [
        {
          "internalType": "contract ConfidentialCoreV1",
          "name": "",
          "type": "address"
        }
      ],
      "stateMutability": "view",
      "type": "function"
    },
    {
      "inputs": [],
      "name": "decimals",
      "outputs": [
        {
          "internalType": "uint8",
          "name": "",
          "type": "uint8"
        }
      ],
      "stateMutability": "view",
      "type": "function"
    },
    {
      "inputs": [
        {
          "internalType": "address",
          "name": "",
          "type": "address"
        }
      ],
      "name": "degenDepositTimestamp",
      "outputs": [
        {
          "internalType": "uint256",
          "name": "",
          "type": "uint256"
        }
      ],
      "stateMutability": "view",
      "type": "function"
    },
    {
      "inputs": [],
      "name": "degenEpoch",
      "outputs": [
        {
          "internalType": "uint256",
          "name": "",
          "type": "uint256"
        }
      ],
      "stateMutability": "view",
      "type": "function"
    },
    {
      "inputs": [],
      "name": "degenLockupPeriod",
      "outputs": [
        {
          "internalType": "uint256",
          "name": "",
          "type": "uint256"
        }
      ],
      "stateMutability": "view",
      "type": "function"
    },
    {
      "inputs": [],
      "name": "degenSharePrice",
      "outputs": [
        {
          "internalType": "uint256",
          "name": "",
          "type": "uint256"
        }
      ],
      "stateMutability": "view",
      "type": "function"
    },
    {
      "inputs": [
        {
          "internalType": "uint256",
          "name": "",
          "type": "uint256"
        },
        {
          "internalType": "address",
          "name": "",
          "type": "address"
        }
      ],
      "name": "degenShares",
      "outputs": [
        {
          "internalType": "uint256",
          "name": "",
          "type": "uint256"
        }
      ],
      "stateMutability": "view",
      "type": "function"
    },
    {
      "inputs": [
        {
          "internalType": "uint256",
          "name": "amount",
          "type": "uint256"
        },
        {
          "internalType": "bool",
          "name": "isDegen",
          "type": "bool"
        }
      ],
      "name": "deposit",
      "outputs": [],
      "stateMutability": "nonpayable",
      "type": "function"
    },
    {
      "inputs": [],
      "name": "depositsEnabled",
      "outputs": [
        {
          "internalType": "bool",
          "name": "",
          "type": "bool"
        }
      ],
      "stateMutability": "view",
      "type": "function"
    },
    {
      "inputs": [
        {
          "internalType": "uint256",
          "name": "totalFee",
          "type": "uint256"
        }
      ],
      "name": "distributeClosingFee",
      "outputs": [],
      "stateMutability": "nonpayable",
      "type": "function"
    },
    {
      "inputs": [],
      "name": "maxDegenDeposits",
      "outputs": [
        {
          "internalType": "uint256",
          "name": "",
          "type": "uint256"
        }
      ],
      "stateMutability": "view",
      "type": "function"
    },
    {
      "inputs": [],
      "name": "maxDepositPerUser",
      "outputs": [
        {
          "internalType": "uint256",
          "name": "",
          "type": "uint256"
        }
      ],
      "stateMutability": "view",
      "type": "function"
    },
    {
      "inputs": [],
      "name": "maxPrimeDeposits",
      "outputs": [
        {
          "internalType": "uint256",
          "name": "",
          "type": "uint256"
        }
      ],
      "stateMutability": "view",
      "type": "function"
    },
    {
      "inputs": [],
      "name": "name",
      "outputs": [
        {
          "internalType": "string",
          "name": "",
          "type": "string"
        }
      ],
      "stateMutability": "view",
      "type": "function"
    },
    {
      "inputs": [
        {
          "internalType": "uint256",
          "name": "amount",
          "type": "uint256"
        }
      ],
      "name": "payFundingReward",
      "outputs": [
        {
          "internalType": "uint256",
          "name": "",
          "type": "uint256"
        }
      ],
      "stateMutability": "nonpayable",
      "type": "function"
    },
    {
      "inputs": [
        {
          "internalType": "address",
          "name": "",
          "type": "address"
        }
      ],
      "name": "primeDepositTimestamp",
      "outputs": [
        {
          "internalType": "uint256",
          "name": "",
          "type": "uint256"
        }
      ],
      "stateMutability": "view",
      "type": "function"
    },
    {
      "inputs": [],
      "name": "primeEpoch",
      "outputs": [
        {
          "internalType": "uint256",
          "name": "",
          "type": "uint256"
        }
      ],
      "stateMutability": "view",
      "type": "function"
    },
    {
      "inputs": [],
      "name": "primeLockupPeriod",
      "outputs": [
        {
          "internalType": "uint256",
          "name": "",
          "type": "uint256"
        }
      ],
      "stateMutability": "view",
      "type": "function"
    },
    {
      "inputs": [],
      "name": "primeProtectionBps",
      "outputs": [
        {
          "internalType": "uint256",
          "name": "",
          "type": "uint256"
        }
      ],
      "stateMutability": "view",
      "type": "function"
    },
    {
      "inputs": [],
      "name": "primeSharePrice",
      "outputs": [
        {
          "internalType": "uint256",
          "name": "",
          "type": "uint256"
        }
      ],
      "stateMutability": "view",
      "type": "function"
    },
    {
      "inputs": [
        {
          "internalType": "uint256",
          "name": "",
          "type": "uint256"
        },
        {
          "internalType": "address",
          "name": "",
          "type": "address"
        }
      ],
      "name": "primeShares",
      "outputs": [
        {
          "internalType": "uint256",
          "name": "",
          "type": "uint256"
        }
      ],
      "stateMutability": "view",
      "type": "function"
    },
    {
      "inputs": [
        {
          "internalType": "uint256",
          "name": "amount",
          "type": "uint256"
        }
      ],
      "name": "receiveFees",
      "outputs": [],
      "stateMutability": "nonpayable",
      "type": "function"
    },
    {
      "inputs": [
        {
          "internalType": "uint256",
          "name": "amount",
          "type": "uint256"
        }
      ],
      "name": "releaseBacking",
      "outputs": [],
      "stateMutability": "nonpayable",
      "type": "function"
    },
    {
      "inputs": [
        {
          "internalType": "uint256",
          "name": "amount",
          "type": "uint256"
        }
      ],
      "name": "reserveBacking",
      "outputs": [],
      "stateMutability": "nonpayable",
      "type": "function"
    },
    {
      "inputs": [
        {
          "internalType": "address",
          "name": "trader",
          "type": "address"
        },
        {
          "internalType": "uint256",
          "name": "amount",
          "type": "uint256"
        }
      ],
      "name": "returnCollateral",
      "outputs": [],
      "stateMutability": "nonpayable",
      "type": "function"
    },
    {
      "inputs": [
        {
          "internalType": "uint256",
          "name": "_perUser",
          "type": "uint256"
        },
        {
          "internalType": "uint256",
          "name": "_degenTotal",
          "type": "uint256"
        },
        {
          "internalType": "uint256",
          "name": "_primeTotal",
          "type": "uint256"
        }
      ],
      "name": "setDepositCaps",
      "outputs": [],
      "stateMutability": "nonpayable",
      "type": "function"
    },
    {
      "inputs": [
        {
          "internalType": "uint256",
          "name": "_bps",
          "type": "uint256"
        }
      ],
      "name": "setPrimeProtection",
      "outputs": [],
      "stateMutability": "nonpayable",
      "type": "function"
    },
    {
      "inputs": [
        {
          "internalType": "uint256",
          "name": "_degenSeconds",
          "type": "uint256"
        },
        {
          "internalType": "uint256",
          "name": "_primeSeconds",
          "type": "uint256"
        }
      ],
      "name": "setTieredLockups",
      "outputs": [],
      "stateMutability": "nonpayable",
      "type": "function"
    },
    {
      "inputs": [
        {
          "internalType": "uint256",
          "name": "amount",
          "type": "uint256"
        }
      ],
      "name": "settleAccruedFees",
      "outputs": [],
      "stateMutability": "nonpayable",
      "type": "function"
    },
    {
      "inputs": [
        {
          "internalType": "address",
          "name": "trader",
          "type": "address"
        },
        {
          "internalType": "address",
          "name": "liquidator",
          "type": "address"
        },
        {
          "internalType": "uint256",
          "name": "collateral",
          "type": "uint256"
        },
        {
          "internalType": "uint256",
          "name": "reward",
          "type": "uint256"
        }
      ],
      "name": "settleLiquidation",
      "outputs": [],
      "stateMutability": "nonpayable",
      "type": "function"
    },
    {
      "inputs": [
        {
          "internalType": "address",
          "name": "trader",
          "type": "address"
        },
        {
          "internalType": "uint256",
          "name": "collateral",
          "type": "uint256"
        },
        {
          "internalType": "int256",
          "name": "netPnl",
          "type": "int256"
        }
      ],
      "name": "settlePosition",
      "outputs": [],
      "stateMutability": "nonpayable",
      "type": "function"
    },
    {
      "inputs": [
        {
          "internalType": "address",
          "name": "user",
          "type": "address"
        },
        {
          "internalType": "bool",
          "name": "isDegen",
          "type": "bool"
        }
      ],
      "name": "sharesOf",
      "outputs": [
        {
          "internalType": "uint256",
          "name": "",
          "type": "uint256"
        }
      ],
      "stateMutability": "view",
      "type": "function"
    },
    {
      "inputs": [],
      "name": "symbol",
      "outputs": [
        {
          "internalType": "string",
          "name": "",
          "type": "string"
        }
      ],
      "stateMutability": "view",
      "type": "function"
    },
    {
      "inputs": [
        {
          "internalType": "bool",
          "name": "_enabled",
          "type": "bool"
        }
      ],
      "name": "toggleDeposits",
      "outputs": [],
      "stateMutability": "nonpayable",
      "type": "function"
    },
    {
      "inputs": [],
      "name": "totalAssets",
      "outputs": [
        {
          "internalType": "uint256",
          "name": "",
          "type": "uint256"
        }
      ],
      "stateMutability": "view",
      "type": "function"
    },
    {
      "inputs": [],
      "name": "totalBacking",
      "outputs": [
        {
          "internalType": "uint256",
          "name": "",
          "type": "uint256"
        }
      ],
      "stateMutability": "view",
      "type": "function"
    },
    {
      "inputs": [],
      "name": "totalDegenAssets",
      "outputs": [
        {
          "internalType": "uint256",
          "name": "",
          "type": "uint256"
        }
      ],
      "stateMutability": "view",
      "type": "function"
    },
    {
      "inputs": [],
      "name": "totalDegenShares",
      "outputs": [
        {
          "internalType": "uint256",
          "name": "",
          "type": "uint256"
        }
      ],
      "stateMutability": "view",
      "type": "function"
    },
    {
      "inputs": [],
      "name": "totalPrimeAssets",
      "outputs": [
        {
          "internalType": "uint256",
          "name": "",
          "type": "uint256"
        }
      ],
      "stateMutability": "view",
      "type": "function"
    },
    {
      "inputs": [],
      "name": "totalPrimeShares",
      "outputs": [
        {
          "internalType": "uint256",
          "name": "",
          "type": "uint256"
        }
      ],
      "stateMutability": "view",
      "type": "function"
    },
    {
      "inputs": [],
      "name": "usdc",
      "outputs": [
        {
          "internalType": "contract IERC20",
          "name": "",
          "type": "address"
        }
      ],
      "stateMutability": "view",
      "type": "function"
    },
    {
      "inputs": [],
      "name": "utilization",
      "outputs": [
        {
          "internalType": "uint256",
          "name": "",
          "type": "uint256"
        }
      ],
      "stateMutability": "view",
      "type": "function"
    },
    {
      "inputs": [
        {
          "internalType": "uint256",
          "name": "shareAmount",
          "type": "uint256"
        },
        {
          "internalType": "bool",
          "name": "isDegen",
          "type": "bool"
        },
        {
          "internalType": "uint256",
          "name": "minUsdcOut",
          "type": "uint256"
        }
      ],
      "name": "withdraw",
      "outputs": [],
      "stateMutability": "nonpayable",
      "type": "function"
    }
  ],
  "bytecode": "0x60a0346200010857601f62002b3f38819003918201601f19168301916001600160401b038311848410176200010c57808492604094855283398101031262000108576200005a6020620000528362000120565b920162000120565b60015f8190556202a300600c5562069780600d5564e8d4a51000600f55650da475abf000601055651fd5129130006011556117706012556013805460ff1916821790556001600160a01b0392831660805280546001600160a01b03191691909216179055604051612a09908162000136823960805181818161076a01528181610e7d0152818161125f015281816115c201528181611730015281816119b901528181611d020152611ec20152f35b5f80fd5b634e487b7160e01b5f52604160045260245ffd5b51906001600160a01b0382168203620001085756fe604060808152600480361015610013575f80fd5b5f915f3560e01c806301e1d1141461217657806302361ad2146121585780630420592e1461209a57806306ae707f1461201b57806306fdde0314611fc7578063099339be14611f9057806309c0533b14611dba578063118f304314611880578063269dd1b414611861578063313ce5671461184557806335b8e7131461160e5780633902eeba146115f15780633e413bee146115ad5780634da841101461157f5780635392fd1c1461155b578063569ab63a1461151d5780636e93ae2b146114a357806370805da1146113ce57806371657b53146113af5780637258b2271461132f578063743753591461131257806374e863ad146111cd5780637f223b4c14610d7e57806381227ebb14610d5f57806382d99eb414610d4057806382e5310c14610d2157806385f5dc3114610ce257806394d88cba14610cc357806395d89b4114610c81578063968e16c914610c5357806399383f7814610bc25780639a408321146106295780639a5f9bdd1461060a5780639c48d242146105ed5780639c87500a14610566578063a1ee65f7146104a8578063aa0539c414610489578063ba4eb8721461046a578063ba9a7a561461044d578063c0a0d32a1461042e578063db3eff57146103f6578063dd3018a014610355578063ea21cd9214610331578063eb2cd25814610312578063f175f478146102f3578063f2f4eb26146102c65763ff20b48d14610222575f80fd5b346102c25760203660031901126102c2576001548151637622567960e11b81526001600160a01b039160209082908690829086165afa9081156102b8578591610289575b5016330361027c57506102799035612769565b80f35b5163e9e3f4ad60e01b8152fd5b6102ab915060203d6020116102b1575b6102a38183612218565b8101906122a2565b5f610266565b503d610299565b83513d87823e3d90fd5b8280fd5b8382346102ef57816003193601126102ef5760015490516001600160a01b039091168152602090f35b5080fd5b8382346102ef57816003193601126102ef576020906009549051908152f35b8382346102ef57816003193601126102ef57602090600e549051908152f35b8382346102ef57816003193601126102ef5760209061034e61272e565b9051908152f35b5090346102c25760203660031901126102c2576001548251637622567960e11b8152823593916001600160a01b03919060209082908690829086165afa9081156103ec5786916103cd575b5016330361027c575050600e5490808211156103c5576103bf916122c1565b600e5580f35b5050806103bf565b6103e6915060203d6020116102b1576102a38183612218565b5f6103a0565b83513d88823e3d90fd5b8382346102ef5760203660031901126102ef5760209181906001600160a01b0361041e612199565b168152600b845220549051908152f35b8382346102ef57816003193601126102ef576020906002549051908152f35b8382346102ef57816003193601126102ef57602090516103e88152f35b8382346102ef57816003193601126102ef576020906003549051908152f35b8382346102ef57816003193601126102ef576020906011549051908152f35b5090346102c25760203660031901126102c2576001548251638da5cb5b60e01b8152823593916001600160a01b03919060209082908690829086165afa9081156103ec578691610547575b5016330361053a57612710831161050c57505060125580f35b906020606492519162461bcd60e51b835282015260086024820152674d6178203130302560c01b6044820152fd5b51635fc483c560e01b8152fd5b610560915060203d6020116102b1576102a38183612218565b5f6104f3565b5082346105ea5760203660031901126105ea576001548251637622567960e11b81526001600160a01b03929160209082908790829087165afa9182156105df57916105c0575b5016330361027c5761034e602092356124f3565b6105d9915060203d6020116102b1576102a38183612218565b846105ac565b8451903d90823e3d90fd5b80fd5b8382346102ef57816003193601126102ef5760209061034e6124c8565b8382346102ef57816003193601126102ef57602090600c549051908152f35b50346102c257806003193601126102c2578135916106456121c5565b9061064e612992565b6001548351635c975abb60e01b81526020916001600160a01b039190839082908690829086165afa908115610bb85790610690918991610b9b575b501561243c565b8515610b8b5760ff6013541615610b7b578315610b56576106b386600554612281565b60105410610b46575b8315610b3d57600354925b8415610b3457600554915b8515610b2b57600254945b80159384159485610b23575b15610b0f576103e896878b1115610acc576103e7198b018b8111610aa457978915610ab757600354908101809111610aa4576003555b8715610a6a578b95610a1d575b5050506107398884612281565b600f5410610a0e5790889187516323b872dd60e01b81523383820152306024820152896044820152858160648187867f0000000000000000000000000000000000000000000000000000000000000000165af1908115610a0457906107a59185916109d7575b506122e6565b8615610993576107b786600354612281565b6003556002548352818552878320335f528552875f206107d8878254612281565b90556107e689600554612281565b6005555b86156108b75750505093610864917f6dbb6056a2fff319358e6dd7d0d72cb3baa992cdcc7e120fb0a32cd1601840e595338952600a825287838a2054801580156108af575b1561086e57505050600a903389525242818820555b519485526020850191909152901515604084015233929081906060820190565b0390a26001815580f35b9161089b6108a19261089561088584600a97612324565b61088f8342612324565b90612281565b92612281565b90612337565b91338a525281882055610844565b50821561082f565b91939092338552600b825288888620548015801561098b575b1561096657505050600b903385525242868420555b6001541690813b156102c2578660248492838951958694859363e53eb6dd60e01b85528401525af1801561095c57610944575b50506108647f6dbb6056a2fff319358e6dd7d0d72cb3baa992cdcc7e120fb0a32cd1601840e593610844565b61094d906121d4565b61095857845f610918565b8480fd5b85513d84823e3d90fd5b9161089b61097d9261089561088584600b97612324565b9133865252868420556108e5565b5082156108d0565b61099f86600754612281565b600755600654835260088552878320335f528552875f206109c1878254612281565b90556109cf89600954612281565b6009556107ea565b6109f79150873d89116109fd575b6109ef8183612218565b8101906122ce565b5f61079f565b503d6109e5565b89513d86823e3d90fd5b508551631823752b60e11b8152fd5b610a4a93955090610a4591895f14610a53578c52848752898c20335f528752895f2054612324565b612337565b915f808061072c565b8c5260088752898c20335f528752895f2054612324565b895162461bcd60e51b8152808601889052601460248201527353686172657320776f756c64206265207a65726f60601b6044820152606490fd5b634e487b7160e01b8d526011865260248dfd5b600754908101809111610aa45760075561071f565b895162461bcd60e51b8152808601889052601760248201527f4669727374206465706f73697420746f6f20736d616c6c0000000000000000006044820152606490fd5b610b1d81610a45848d612324565b9661071f565b5080156106e9565b600654946106dd565b600954916106d2565b600754926106c7565b84516336a00c8b60e11b81528390fd5b610b6286600954612281565b60115410156106bc5784516336a00c8b60e11b81528390fd5b8451630e2f42c960e31b81528390fd5b8451631f2a200560e01b81528390fd5b610bb29150843d86116109fd576109ef8183612218565b5f610689565b86513d8a823e3d90fd5b5090346102c25760203660031901126102c257803591821515809303610c4f576001548151638da5cb5b60e01b81526001600160a01b039160209082908690829086165afa9081156103ec578691610c30575b5016330361053a57505060ff80196013541691161760135580f35b610c49915060203d6020116102b1576102a38183612218565b5f610c15565b5f80fd5b8382346102ef57806003193601126102ef5760209061034e610c73612199565b610c7b6121c5565b9061247a565b8382346102ef57816003193601126102ef578051610cbf91610ca2826121fc565b600682526518d59055531560d21b6020830152519182918261223a565b0390f35b8382346102ef57816003193601126102ef576020906010549051908152f35b5090346102c257816003193601126102c25781602093610d006121af565b9235815260088552209060018060a01b03165f528252805f20549051908152f35b8382346102ef57816003193601126102ef57602090600f549051908152f35b8382346102ef57816003193601126102ef57602090600d549051908152f35b8382346102ef57816003193601126102ef576020906006549051908152f35b5090346102c25760603660031901126102c257803590610d9c6121c5565b90610da5612992565b6001548451635c975abb60e01b81526001600160a01b03949260209284929084908290849082908b165afa80156111c357610de7918a916111ac57501561243c565b811561119e578415611196576002545b851561117e578852808352868820335f52835281875f20545b1061117057841561116557610e38600c545b861561115557338a52600a8552888a2054612281565b421061114757841561113d5787600354965b861561112c57610e6188610a456005548097612324565b97610e6a612419565b8a516370a0823160e01b815230868201527f0000000000000000000000000000000000000000000000000000000000000000841696919088816024818b5afa9081156111225786916110f1575b50808210156110e95750915b828b11611085575b505050865f14610feb575050610ee3846003546122c1565b6003556002548852808352868820335f528352865f20610f048582546122c1565b9055610f12866005546122c1565b6005555b6044358610610fb457865163a9059cbb60e01b8152339181019182526020820187905291839183919082908b90829060400103925af1918215610faa57610864927fb97e775637eca8401af330efee0810af7079bafae27761741e09caa14db8d272969792610844928a92610f8d575b50506122e6565b610fa39250803d106109fd576109ef8183612218565b5f80610f86565b86513d89823e3d90fd5b865162461bcd60e51b8152908101839052601160248201527014db1a5c1c1859d948195e18d959591959607a1b6044820152606490fd5b610ff7866007546122c1565b600755600654825260088552888220335f528552885f206110198782546122c1565b9055611027886009546122c1565b60095560015416803b156102ef5781809160248b51809481936304a27ac560e31b83528d898401525af1801561107b57611063575b5050610f16565b61106c906121d4565b61107757875f61105c565b8780fd5b89513d84823e3d90fd5b92975092508098509780156110d9576110a26110a7928492612324565b612281565b5f1981019081116110c65789916110bd91612337565b945f8080610ecb565b634e487b7160e01b8a526011835260248afd5b895163bb55fd2760e01b81528490fd5b905091610ec3565b809650898092503d831161111b575b61110a8183612218565b81010312610c4f578c94515f610eb7565b503d611100565b8d513d88823e3d90fd5b610e6188610a456009548097612324565b8760075496610e4a565b86516354e21be360e11b8152fd5b338a52600b8552888a2054612281565b610e38600d54610e22565b8651633999656760e01b8152fd5b885260088352868820335f52835281875f2054610e10565b600654610df7565b8651631f2a200560e01b8152fd5b610bb29150853d87116109fd576109ef8183612218565b88513d8b823e3d90fd5b5090346102c257816003193601126102c2576111e7612199565b6001548351637622567960e11b8152602435936020936001600160a01b0393909290859082908490829088165afa801561130857849189916112eb575b501633036112dd57855163a9059cbb60e01b81526001600160a01b038316918101918252602082018690529084908290819060400103818a877f0000000000000000000000000000000000000000000000000000000000000000165af1908115610faa577f3db642b80902afb8ef23a2aeab4800b4b3717feb180705cf0a1c273ccc591c979596916112bc9189916112c657506122e6565b519485521692a280f35b6109f79150863d88116109fd576109ef8183612218565b855163e9e3f4ad60e01b8152fd5b6113029150863d88116102b1576102a38183612218565b5f611224565b87513d8a823e3d90fd5b8382346102ef57816003193601126102ef5760209061034e612419565b50346102c25760603660031901126102c2576001548151638da5cb5b60e01b81526001600160a01b039160209082908690829086165afa9081156102b8578591611390575b5016330361053a575035600f5560243560105560443560115580f35b6113a9915060203d6020116102b1576102a38183612218565b5f611374565b8382346102ef57816003193601126102ef576020906012549051908152f35b5090346102c257816003193601126102c2578035906024359260018060a01b038260208260015416845192838092638da5cb5b60e01b82525afa90811561149957879161147a575b5016330361053a5762278d0080841115908161146f575b501561143e575050600c55600d5580f35b906020606492519162461bcd60e51b8352820152600b60248201526a4d6178203330206461797360a81b6044820152fd5b90508411155f61142d565b611493915060203d6020116102b1576102a38183612218565b5f611416565b83513d89823e3d90fd5b50346102c25760203660031901126102c2576001548151637622567960e11b81526001600160a01b039160209082908690829086165afa9081156102b85785916114fe575b5016330361027c57506103bf9035600e54612281565b611517915060203d6020116102b1576102a38183612218565b5f6114e8565b5090346102c257816003193601126102c2578160209361153b6121af565b92803582528552209060018060a01b03165f528252805f20549051908152f35b8382346102ef57816003193601126102ef5760209060ff6013541690519015158152f35b8382346102ef57806003193601126102ef5760209061034e61159f612199565b6115a76121c5565b90612399565b8382346102ef57816003193601126102ef57517f00000000000000000000000000000000000000000000000000000000000000006001600160a01b03168152602090f35b8382346102ef57816003193601126102ef5760209061034e612363565b5090346102c25760209081600319360112611841576001548351637622567960e11b8152823592916001600160a01b03919082169085818581855afa80156113085783918991611824575b50163303611814579085602492815193848092631db0457960e11b825288888301525afa918215610faa5787926117df575b50816116bf575b5050507f86c46efee0a638b418fa0952cd587c78b75b8bc989e7a7c13a86d448ec34a0849251908152a180f35b9082916116cb82612850565b8581600154168851948580926361d027b360e01b82525afa8881156117d45761172c95889582936117b5575b50895163a9059cbb60e01b81526001600160a01b03909316908301908152602081019490945290948593849291839160400190565b03927f0000000000000000000000000000000000000000000000000000000000000000165af19081156117ab577f86c46efee0a638b418fa0952cd587c78b75b8bc989e7a7c13a86d448ec34a084949161178c91879161179457506122e6565b925f80611692565b6109f79150853d87116109fd576109ef8183612218565b84513d87823e3d90fd5b6117cd919350863d88116102b1576102a38183612218565b915f6116f7565b8851903d90823e3d90fd5b9091508581813d831161180d575b6117f78183612218565b8101031261180957840151905f61168b565b8680fd5b503d6117ed565b855163e9e3f4ad60e01b81528390fd5b61183b9150873d89116102b1576102a38183612218565b5f611659565b8380fd5b8382346102ef57816003193601126102ef576020905160068152f35b8382346102ef57816003193601126102ef576020906007549051908152f35b5034610c4f576060366003190112610c4f5761189a612199565b906024356044359260018060a01b0391826001541684518091637622567960e11b8252818960209485935afa908115611d68579085915f91611d9d575b50163303611d8d57600e548280821115611d85576118f4916122c1565b600e555f8612611c78578560095461271061191160125483612324565b0480821115611c705761192490826122c1565b905b6005546119338382612281565b808b11611c35575b506119468282612281565b8015611c2b5761195a90610a458387612324565b9061196582866122c1565b935b808511611c0e575b50808211611be9575b81611982916122c1565b80600555159081611bdf575b50611bac575b81611af5575b50506119a69083612281565b85516370a0823160e01b815230818a01527f00000000000000000000000000000000000000000000000000000000000000008616988a9184816024818e5afa908115611aeb578391611ab0575b508392611a3b9b92828993889711611aa8575b508a5163a9059cbb60e01b81526001600160a01b039093169083019081526020810194909452909a8b93849291839160400190565b03925af1968715611a9e577fa9c6720706505784683f09b0975d4f1a78dfdeebc7fead8936439abd5b96f0219697611a79918a91611a8757506122e6565b84519687528601521692a280f35b6109f79150833d85116109fd576109ef8183612218565b85513d8a823e3d90fd5b94505f611a06565b80949350858092509b929b3d8311611ae4575b611acd8183612218565b81010312610c4f579151919890918a9190846119f3565b503d611ac3565b89513d85823e3d90fd5b8180821115611ba457611b07916122c1565b600955856001541690813b15610c4f575f9060248b838b51958694859363630304f960e11b85528401525af18015611b9a57611b85575b506119a69060095415611b53575b905f61199a565b5f805160206129b483398151915287611b6d600654612355565b806006558c6007558151908d825286820152a1611b4c565b611b909199506121d4565b5f976119a6611b3e565b87513d5f823e3d90fd5b50505f611b07565b5f805160206129b483398151915288611bc6600254612355565b806002555f6003558151906001825287820152a1611994565b905015155f61198e565b9290611bf884611982926122c1565b91611c0585938492612281565b94915050611978565b611c1d81611c249394966122c1565b9094612281565b905f61196f565b5083905f93611967565b90935088518a815281868201527f8bd96464087bd7a29c2d462da44e6cd69fa230fd14f8367b75b1f9240f3a89ea8a8a8a1692a2925f61193b565b505f90611926565b959695600160ff1b8614611d72575f86900397828910611cc657507fa9c6720706505784683f09b0975d4f1a78dfdeebc7fead8936439abd5b96f02195969750611cc1826127c9565b611a79565b8184611cd28b866122c1565b885163a9059cbb60e01b81526001600160a01b039092169382019384526020840152918290819060400103815f897f0000000000000000000000000000000000000000000000000000000000000000165af1908115611d685798611d63611cc1927fa9c6720706505784683f09b0975d4f1a78dfdeebc7fead8936439abd5b96f021999a9b5f9161179457506122e6565b6127c9565b86513d5f823e3d90fd5b601188634e487b7160e01b5f525260245ffd5b50505f6118f4565b845163e9e3f4ad60e01b81528790fd5b611db49150833d85116102b1576102a38183612218565b5f6118d7565b509034610c4f576080366003190112610c4f57611dd5612199565b90611dde6121af565b926044359160643560018060a01b039182600154169084518092637622567960e11b8252818360209586935afa908115611d68579085915f91611f73575b50163303611f65578583600e54828082115f14611f5d57611e3c916122c1565b600e5511611f55575b611e52611d6384886122c1565b82611e8f575b509582917f3046bb5fb86890e6f3c32d7527b763c83ee73588c10f9533662078355cc634fa959697855197885287015216941692a3005b845163a9059cbb60e01b81526001600160a01b038916918101918252602082018490529082908290819060400103815f887f0000000000000000000000000000000000000000000000000000000000000000165af1908115611f4b5791611f238594927f3046bb5fb86890e6f3c32d7527b763c83ee73588c10f9533662078355cc634fa98999a945f91611f2e57506122e6565b919796955091611e58565b611f459150833d85116109fd576109ef8183612218565b8b61079f565b85513d5f823e3d90fd5b859250611e45565b50505f611e3c565b845163e9e3f4ad60e01b8152fd5b611f8a9150843d86116102b1576102a38183612218565b8a611e1c565b5034610c4f576020366003190112610c4f576020906001600160a01b03611fb5612199565b165f52600a8252805f20549051908152f35b5034610c4f575f366003190112610c4f578051610cbf91611fe7826121fc565b601882527f436f6e666964656e7469616c205661756c7420536861726500000000000000006020830152519182918261223a565b5034610c4f5780600319360112610c4f5760209061206d61203a612199565b6120426121c5565b90811561209157600c54915b15612077576001600160a01b03165f908152600a855283902054612281565b4210159051908152f35b6001600160a01b03165f908152600b855283902054612281565b600d549161204e565b5034610c4f576020366003190112610c4f576001548151637622567960e11b8152833593916001600160a01b03919060209082908590829086165afa90811561214e575f9161212f575b50163303612121577f86c46efee0a638b418fa0952cd587c78b75b8bc989e7a7c13a86d448ec34a0846020848461211a826127c9565b51908152a1005b905163e9e3f4ad60e01b8152fd5b612148915060203d6020116102b1576102a38183612218565b856120e4565b84513d5f823e3d90fd5b5034610c4f575f366003190112610c4f576020906005549051908152f35b5034610c4f575f366003190112610c4f5760209061034e60055460095490612281565b600435906001600160a01b0382168203610c4f57565b602435906001600160a01b0382168203610c4f57565b602435908115158203610c4f57565b67ffffffffffffffff81116121e857604052565b634e487b7160e01b5f52604160045260245ffd5b6040810190811067ffffffffffffffff8211176121e857604052565b90601f8019910116810190811067ffffffffffffffff8211176121e857604052565b602080825282518183018190529093925f5b82811061226d57505060409293505f838284010152601f8019910116010190565b81810186015184820160400152850161224c565b9190820180921161228e57565b634e487b7160e01b5f52601160045260245ffd5b90816020910312610c4f57516001600160a01b0381168103610c4f5790565b9190820391821161228e57565b90816020910312610c4f57518015158103610c4f5790565b156122ed57565b60405162461bcd60e51b815260206004820152600f60248201526e151c985b9cd9995c8819985a5b1959608a1b6044820152606490fd5b8181029291811591840414171561228e57565b8115612341570490565b634e487b7160e01b5f52601260045260245ffd5b5f19811461228e5760010190565b60035480156123915760055490620f42409182810292818404149015171561228e5761238e91612337565b90565b50620f424090565b90156123df5760035480156123d95761238e916002545f52600460205260405f209060018060a01b03165f52602052610a4560405f205460055490612324565b50505f90565b60075480156123d95761238e916006545f52600860205260405f209060018060a01b03165f52602052610a4560405f205460095490612324565b61242860055460095490612281565b600e54808211156123d95761238e916122c1565b1561244357565b60405162461bcd60e51b815260206004820152600f60248201526e141c9bdd1bd8dbdb081c185d5cd959608a1b6044820152606490fd5b90156124a4576002545f52600460205260405f209060018060a01b03165f5260205260405f205490565b6006545f52600860205260405f209060018060a01b03165f5260205260405f205490565b60075480156123915760095490620f42409182810292818404149015171561228e5761238e91612337565b5f81156123d95760095461271061250c60125483612324565b04808211156127265761251f90826122c1565b905b60055461252e8382612281565b8086116126eb575b506125418282612281565b80156126e15761255590610a458388612324565b9061256082876122c1565b935b8085116126cb575b508082116126a6575b8161257d916122c1565b8060055515908161269c575b50612667575b816125aa575b5050506125a481600e54612281565b600e5590565b818082111561265f576125bc916122c1565b6009556001546001600160a01b031690813b15610c4f575f9160248392604051948593849263630304f960e11b845260048401525af1801561265457612643575b506009541561260e575b8080612595565b60405f805160206129b48339815191529161262a600654612355565b806006558160075582519182526020820152a15f612607565b61264d91506121d4565b5f806125fd565b6040513d5f823e3d90fd5b50505f6125bc565b5f805160206129b48339815191526040612682600254612355565b806002555f600355815190600182526020820152a161258f565b905015155f612589565b92906126b58461257d926122c1565b916126c285938492612281565b94915050612573565b611c1d816126da9394966122c1565b905f61256a565b5084905f93612562565b90946040519081528160208201527f8bd96464087bd7a29c2d462da44e6cd69fa230fd14f8367b75b1f9240f3a89ea60403392a2935f612536565b505f90612521565b61273d60055460095490612281565b801561276457600e54906127109182810292818404149015171561228e5761238e91612337565b505f90565b80156127c65760207fb0bf1136427af53a4f141a4607b21ad2b14e0ae6d42711aaf85b8ee33f65d3db91600e54818082115f146127be576127a9916122c1565b600e556127b5816127c9565b604051908152a1565b50505f6127a9565b50565b80156127c65760055490600382028281046003148315171561228e576009548080046001148115171561228e576128009082612281565b92831561283f575061282661281f61283a94610a4561282f9486612324565b80936122c1565b91600554612281565b600555600954612281565b600955565b905061284b9250612281565b600555565b80156127c65760058054600381028181046003148215171561228e576009548080046001148115171561228e576128879082612281565b91821561293f57506128a091610a4561281f9286612324565b91808254115f14612906576128b69082546122c1565b90555b80600954115f146128d05761283a906009546122c1565b505f6009555f805160206129b483398151915260406128f0600654612355565b806006555f6007558151905f82526020820152a1565b505f90555f805160206129b48339815191526040612925600254612355565b806002555f600355815190600182526020820152a16128b9565b90508392939150115f1461295c576129589082546122c1565b9055565b505f90555f805160206129b4833981519152604061297b600254612355565b806002555f600355815190600182526020820152a1565b60025f54146129a15760025f55565b604051633ee5aeb560e01b8152600490fdfe19747c4fc33d5e520aba7581fd70140b6ebf32410fb2ace04e42eb69590a4015a2646970667358221220ffb23b91a032306416c2b974f3e8a8e76278b114e188ac131db579ad0ce2393564736f6c63430008180033",
  "linkReferences": {},
  "deployedLinkReferences": {},
  "immutableReferences": {
    "6338": [
      {
        "length": 32,
        "start": 1898
      },
      {
        "length": 32,
        "start": 3709
      },
      {
        "length": 32,
        "start": 4703
      },
      {
        "length": 32,
        "start": 5570
      },
      {
        "length": 32,
        "start": 5936
      },
      {
        "length": 32,
        "start": 6585
      },
      {
        "length": 32,
        "start": 7426
      },
      {
        "length": 32,
        "start": 7874
      }
    ]
  },
  "inputSourceName": "project/src/ConfidentialVaultV1.sol",
  "buildInfoId": "solc-0_8_24-96cabe466aa37beb7b6956fb3a0401e3356d443f"
}