{
  "_format": "hh3-artifact-1",
  "contractName": "ConfidentialTradingV1",
  "sourceName": "src/ConfidentialTradingV1.sol",
  "abi": [
    {
      "inputs": [
        {
          "internalType": "address",
          "name": "_usdc",
          "type": "address"
        },
        {
          "internalType": "address",
          "name": "_core",
          "type": "address"
        },
        {
          "internalType": "address",
          "name": "_vault",
          "type": "address"
        },
        {
          "internalType": "address",
          "name": "_oracle",
          "type": "address"
        }
      ],
      "stateMutability": "nonpayable",
      "type": "constructor"
    },
    {
      "inputs": [],
      "name": "ReentrancyGuardReentrantCall",
      "type": "error"
    },
    {
      "anonymous": false,
      "inputs": [
        {
          "indexed": true,
          "internalType": "uint256",
          "name": "positionId",
          "type": "uint256"
        },
        {
          "indexed": true,
          "internalType": "address",
          "name": "trader",
          "type": "address"
        },
        {
          "indexed": false,
          "internalType": "uint256",
          "name": "amount",
          "type": "uint256"
        },
        {
          "indexed": false,
          "internalType": "uint256",
          "name": "newLiquidationPrice",
          "type": "uint256"
        }
      ],
      "name": "CollateralAdded",
      "type": "event"
    },
    {
      "anonymous": false,
      "inputs": [
        {
          "indexed": true,
          "internalType": "uint256",
          "name": "positionId",
          "type": "uint256"
        },
        {
          "indexed": true,
          "internalType": "address",
          "name": "trader",
          "type": "address"
        },
        {
          "indexed": false,
          "internalType": "uint256",
          "name": "amount",
          "type": "uint256"
        },
        {
          "indexed": false,
          "internalType": "uint256",
          "name": "newLiquidationPrice",
          "type": "uint256"
        }
      ],
      "name": "CollateralRemoved",
      "type": "event"
    },
    {
      "anonymous": false,
      "inputs": [
        {
          "indexed": true,
          "internalType": "uint256",
          "name": "orderId",
          "type": "uint256"
        }
      ],
      "name": "OrderCancelled",
      "type": "event"
    },
    {
      "anonymous": false,
      "inputs": [
        {
          "indexed": true,
          "internalType": "uint256",
          "name": "orderId",
          "type": "uint256"
        },
        {
          "indexed": true,
          "internalType": "uint256",
          "name": "positionId",
          "type": "uint256"
        }
      ],
      "name": "OrderExecuted",
      "type": "event"
    },
    {
      "anonymous": false,
      "inputs": [
        {
          "indexed": true,
          "internalType": "uint256",
          "name": "orderId",
          "type": "uint256"
        },
        {
          "indexed": true,
          "internalType": "address",
          "name": "trader",
          "type": "address"
        },
        {
          "indexed": false,
          "internalType": "bytes32",
          "name": "pairId",
          "type": "bytes32"
        },
        {
          "indexed": false,
          "internalType": "uint8",
          "name": "orderType",
          "type": "uint8"
        },
        {
          "indexed": false,
          "internalType": "uint256",
          "name": "triggerPrice",
          "type": "uint256"
        }
      ],
      "name": "OrderPlaced",
      "type": "event"
    },
    {
      "anonymous": false,
      "inputs": [
        {
          "indexed": true,
          "internalType": "uint256",
          "name": "positionId",
          "type": "uint256"
        },
        {
          "indexed": true,
          "internalType": "address",
          "name": "trader",
          "type": "address"
        },
        {
          "indexed": false,
          "internalType": "uint256",
          "name": "exitPrice",
          "type": "uint256"
        },
        {
          "indexed": false,
          "internalType": "int256",
          "name": "pnl",
          "type": "int256"
        }
      ],
      "name": "PositionClosed",
      "type": "event"
    },
    {
      "anonymous": false,
      "inputs": [
        {
          "indexed": true,
          "internalType": "uint256",
          "name": "positionId",
          "type": "uint256"
        },
        {
          "indexed": true,
          "internalType": "address",
          "name": "trader",
          "type": "address"
        },
        {
          "indexed": false,
          "internalType": "uint256",
          "name": "additionalSizeUsd",
          "type": "uint256"
        },
        {
          "indexed": false,
          "internalType": "uint256",
          "name": "newEntryPrice",
          "type": "uint256"
        },
        {
          "indexed": false,
          "internalType": "uint256",
          "name": "newLiquidationPrice",
          "type": "uint256"
        }
      ],
      "name": "PositionIncreased",
      "type": "event"
    },
    {
      "anonymous": false,
      "inputs": [
        {
          "indexed": true,
          "internalType": "uint256",
          "name": "positionId",
          "type": "uint256"
        },
        {
          "indexed": true,
          "internalType": "address",
          "name": "trader",
          "type": "address"
        },
        {
          "indexed": false,
          "internalType": "uint256",
          "name": "executionPrice",
          "type": "uint256"
        },
        {
          "indexed": true,
          "internalType": "address",
          "name": "liquidator",
          "type": "address"
        },
        {
          "indexed": false,
          "internalType": "uint256",
          "name": "reward",
          "type": "uint256"
        }
      ],
      "name": "PositionLiquidated",
      "type": "event"
    },
    {
      "anonymous": false,
      "inputs": [
        {
          "indexed": true,
          "internalType": "uint256",
          "name": "positionId",
          "type": "uint256"
        },
        {
          "indexed": true,
          "internalType": "address",
          "name": "trader",
          "type": "address"
        },
        {
          "indexed": false,
          "internalType": "bytes32",
          "name": "pairId",
          "type": "bytes32"
        },
        {
          "indexed": false,
          "internalType": "bool",
          "name": "isLong",
          "type": "bool"
        },
        {
          "indexed": false,
          "internalType": "uint256",
          "name": "sizeUsd",
          "type": "uint256"
        },
        {
          "indexed": false,
          "internalType": "uint256",
          "name": "entryPrice",
          "type": "uint256"
        },
        {
          "indexed": false,
          "internalType": "uint256",
          "name": "leverage",
          "type": "uint256"
        }
      ],
      "name": "PositionOpened",
      "type": "event"
    },
    {
      "anonymous": false,
      "inputs": [
        {
          "indexed": true,
          "internalType": "uint256",
          "name": "positionId",
          "type": "uint256"
        },
        {
          "indexed": true,
          "internalType": "address",
          "name": "trader",
          "type": "address"
        },
        {
          "indexed": false,
          "internalType": "uint256",
          "name": "closeSizeUsd",
          "type": "uint256"
        },
        {
          "indexed": false,
          "internalType": "uint256",
          "name": "exitPrice",
          "type": "uint256"
        },
        {
          "indexed": false,
          "internalType": "int256",
          "name": "pnl",
          "type": "int256"
        }
      ],
      "name": "PositionPartialClose",
      "type": "event"
    },
    {
      "anonymous": false,
      "inputs": [
        {
          "indexed": true,
          "internalType": "uint256",
          "name": "positionId",
          "type": "uint256"
        },
        {
          "indexed": false,
          "internalType": "bool",
          "name": "isTakeProfit",
          "type": "bool"
        },
        {
          "indexed": false,
          "internalType": "uint256",
          "name": "executionPrice",
          "type": "uint256"
        }
      ],
      "name": "TPSLTriggered",
      "type": "event"
    },
    {
      "anonymous": false,
      "inputs": [
        {
          "indexed": true,
          "internalType": "uint256",
          "name": "orderId",
          "type": "uint256"
        },
        {
          "indexed": false,
          "internalType": "uint256",
          "name": "sliceNumber",
          "type": "uint256"
        },
        {
          "indexed": false,
          "internalType": "uint256",
          "name": "sizeUsd",
          "type": "uint256"
        }
      ],
      "name": "TWAPSliceExecuted",
      "type": "event"
    },
    {
      "inputs": [],
      "name": "MIN_COLLATERAL",
      "outputs": [
        {
          "internalType": "uint256",
          "name": "",
          "type": "uint256"
        }
      ],
      "stateMutability": "view",
      "type": "function"
    },
    {
      "inputs": [],
      "name": "MIN_POSITION_SIZE",
      "outputs": [
        {
          "internalType": "uint256",
          "name": "",
          "type": "uint256"
        }
      ],
      "stateMutability": "view",
      "type": "function"
    },
    {
      "inputs": [
        {
          "internalType": "uint256",
          "name": "positionId",
          "type": "uint256"
        },
        {
          "internalType": "uint256",
          "name": "amount",
          "type": "uint256"
        }
      ],
      "name": "addCollateral",
      "outputs": [],
      "stateMutability": "nonpayable",
      "type": "function"
    },
    {
      "inputs": [
        {
          "internalType": "uint256",
          "name": "orderId",
          "type": "uint256"
        }
      ],
      "name": "cancelOrder",
      "outputs": [],
      "stateMutability": "nonpayable",
      "type": "function"
    },
    {
      "inputs": [],
      "name": "core",
      "outputs": [
        {
          "internalType": "contract ConfidentialCoreV1",
          "name": "",
          "type": "address"
        }
      ],
      "stateMutability": "view",
      "type": "function"
    },
    {
      "inputs": [
        {
          "internalType": "uint256",
          "name": "positionId",
          "type": "uint256"
        }
      ],
      "name": "createCloseRequest",
      "outputs": [
        {
          "internalType": "uint256",
          "name": "orderId",
          "type": "uint256"
        }
      ],
      "stateMutability": "payable",
      "type": "function"
    },
    {
      "inputs": [
        {
          "internalType": "uint256",
          "name": "positionId",
          "type": "uint256"
        },
        {
          "internalType": "uint256",
          "name": "additionalSizeUsd",
          "type": "uint256"
        },
        {
          "internalType": "uint256",
          "name": "additionalLeverage",
          "type": "uint256"
        },
        {
          "internalType": "uint256",
          "name": "acceptablePrice",
          "type": "uint256"
        }
      ],
      "name": "createIncreaseRequest",
      "outputs": [
        {
          "internalType": "uint256",
          "name": "orderId",
          "type": "uint256"
        }
      ],
      "stateMutability": "payable",
      "type": "function"
    },
    {
      "inputs": [
        {
          "internalType": "uint256",
          "name": "positionId",
          "type": "uint256"
        },
        {
          "internalType": "uint256",
          "name": "closePercent",
          "type": "uint256"
        }
      ],
      "name": "createPartialCloseRequest",
      "outputs": [
        {
          "internalType": "uint256",
          "name": "orderId",
          "type": "uint256"
        }
      ],
      "stateMutability": "payable",
      "type": "function"
    },
    {
      "inputs": [
        {
          "internalType": "uint256",
          "name": "positionId",
          "type": "uint256"
        },
        {
          "internalType": "uint256",
          "name": "amount",
          "type": "uint256"
        }
      ],
      "name": "createRemoveCollateralRequest",
      "outputs": [
        {
          "internalType": "uint256",
          "name": "orderId",
          "type": "uint256"
        }
      ],
      "stateMutability": "payable",
      "type": "function"
    },
    {
      "inputs": [
        {
          "internalType": "bytes32",
          "name": "pairId",
          "type": "bytes32"
        },
        {
          "internalType": "bool",
          "name": "isLong",
          "type": "bool"
        },
        {
          "internalType": "uint256",
          "name": "totalSizeUsd",
          "type": "uint256"
        },
        {
          "internalType": "uint256",
          "name": "leverage",
          "type": "uint256"
        },
        {
          "internalType": "uint256",
          "name": "slices",
          "type": "uint256"
        },
        {
          "internalType": "uint256",
          "name": "intervalSec",
          "type": "uint256"
        },
        {
          "internalType": "uint256",
          "name": "tpPrice",
          "type": "uint256"
        },
        {
          "internalType": "uint256",
          "name": "slPrice",
          "type": "uint256"
        }
      ],
      "name": "createTwapOrder",
      "outputs": [
        {
          "internalType": "uint256",
          "name": "orderId",
          "type": "uint256"
        }
      ],
      "stateMutability": "payable",
      "type": "function"
    },
    {
      "inputs": [
        {
          "internalType": "uint256[]",
          "name": "positionIds",
          "type": "uint256[]"
        },
        {
          "internalType": "bytes[]",
          "name": "updateData",
          "type": "bytes[]"
        }
      ],
      "name": "executeADL",
      "outputs": [],
      "stateMutability": "payable",
      "type": "function"
    },
    {
      "inputs": [
        {
          "internalType": "uint256",
          "name": "orderId",
          "type": "uint256"
        },
        {
          "internalType": "bytes[]",
          "name": "updateData",
          "type": "bytes[]"
        }
      ],
      "name": "executeOrder",
      "outputs": [],
      "stateMutability": "payable",
      "type": "function"
    },
    {
      "inputs": [
        {
          "internalType": "uint256",
          "name": "positionId",
          "type": "uint256"
        },
        {
          "internalType": "bytes[]",
          "name": "updateData",
          "type": "bytes[]"
        }
      ],
      "name": "executeTPSL",
      "outputs": [],
      "stateMutability": "payable",
      "type": "function"
    },
    {
      "inputs": [],
      "name": "executionBufferBps",
      "outputs": [
        {
          "internalType": "uint256",
          "name": "",
          "type": "uint256"
        }
      ],
      "stateMutability": "view",
      "type": "function"
    },
    {
      "inputs": [
        {
          "internalType": "uint256",
          "name": "",
          "type": "uint256"
        }
      ],
      "name": "hasActiveCloseRequest",
      "outputs": [
        {
          "internalType": "bool",
          "name": "",
          "type": "bool"
        }
      ],
      "stateMutability": "view",
      "type": "function"
    },
    {
      "inputs": [
        {
          "internalType": "uint256",
          "name": "positionId",
          "type": "uint256"
        },
        {
          "internalType": "bytes[]",
          "name": "updateData",
          "type": "bytes[]"
        }
      ],
      "name": "liquidate",
      "outputs": [],
      "stateMutability": "payable",
      "type": "function"
    },
    {
      "inputs": [],
      "name": "liquidationRewardBps",
      "outputs": [
        {
          "internalType": "uint256",
          "name": "",
          "type": "uint256"
        }
      ],
      "stateMutability": "view",
      "type": "function"
    },
    {
      "inputs": [],
      "name": "maxOrderAge",
      "outputs": [
        {
          "internalType": "uint256",
          "name": "",
          "type": "uint256"
        }
      ],
      "stateMutability": "view",
      "type": "function"
    },
    {
      "inputs": [],
      "name": "nextOrderId",
      "outputs": [
        {
          "internalType": "uint256",
          "name": "",
          "type": "uint256"
        }
      ],
      "stateMutability": "view",
      "type": "function"
    },
    {
      "inputs": [],
      "name": "nextPositionId",
      "outputs": [
        {
          "internalType": "uint256",
          "name": "",
          "type": "uint256"
        }
      ],
      "stateMutability": "view",
      "type": "function"
    },
    {
      "inputs": [],
      "name": "oracle",
      "outputs": [
        {
          "internalType": "contract PythPriceOracle",
          "name": "",
          "type": "address"
        }
      ],
      "stateMutability": "view",
      "type": "function"
    },
    {
      "inputs": [
        {
          "internalType": "uint256",
          "name": "",
          "type": "uint256"
        }
      ],
      "name": "pendingOrders",
      "outputs": [
        {
          "internalType": "bytes32",
          "name": "pairId",
          "type": "bytes32"
        },
        {
          "internalType": "address",
          "name": "trader",
          "type": "address"
        },
        {
          "internalType": "bool",
          "name": "isLong",
          "type": "bool"
        },
        {
          "internalType": "uint256",
          "name": "sizeUsd",
          "type": "uint256"
        },
        {
          "internalType": "uint256",
          "name": "collateral",
          "type": "uint256"
        },
        {
          "internalType": "uint256",
          "name": "leverage",
          "type": "uint256"
        },
        {
          "internalType": "uint256",
          "name": "triggerPrice",
          "type": "uint256"
        },
        {
          "internalType": "uint8",
          "name": "orderType",
          "type": "uint8"
        },
        {
          "internalType": "bool",
          "name": "isActive",
          "type": "bool"
        },
        {
          "internalType": "uint256",
          "name": "createdAt",
          "type": "uint256"
        },
        {
          "internalType": "uint256",
          "name": "positionId",
          "type": "uint256"
        },
        {
          "internalType": "uint256",
          "name": "feePaid",
          "type": "uint256"
        },
        {
          "internalType": "uint256",
          "name": "executionFee",
          "type": "uint256"
        },
        {
          "internalType": "uint256",
          "name": "tpPrice",
          "type": "uint256"
        },
        {
          "internalType": "uint256",
          "name": "slPrice",
          "type": "uint256"
        },
        {
          "internalType": "uint256",
          "name": "twapSlices",
          "type": "uint256"
        },
        {
          "internalType": "uint256",
          "name": "twapInterval",
          "type": "uint256"
        },
        {
          "internalType": "uint256",
          "name": "twapExecuted",
          "type": "uint256"
        },
        {
          "internalType": "uint256",
          "name": "twapLastExec",
          "type": "uint256"
        }
      ],
      "stateMutability": "view",
      "type": "function"
    },
    {
      "inputs": [
        {
          "internalType": "bytes32",
          "name": "pairId",
          "type": "bytes32"
        },
        {
          "internalType": "bool",
          "name": "isLong",
          "type": "bool"
        },
        {
          "internalType": "uint256",
          "name": "sizeUsd",
          "type": "uint256"
        },
        {
          "internalType": "uint256",
          "name": "leverage",
          "type": "uint256"
        },
        {
          "internalType": "uint256",
          "name": "triggerPrice",
          "type": "uint256"
        },
        {
          "internalType": "uint8",
          "name": "orderType",
          "type": "uint8"
        },
        {
          "internalType": "uint256",
          "name": "tpPrice",
          "type": "uint256"
        },
        {
          "internalType": "uint256",
          "name": "slPrice",
          "type": "uint256"
        }
      ],
      "name": "placeOrder",
      "outputs": [
        {
          "internalType": "uint256",
          "name": "orderId",
          "type": "uint256"
        }
      ],
      "stateMutability": "payable",
      "type": "function"
    },
    {
      "inputs": [
        {
          "internalType": "uint256",
          "name": "",
          "type": "uint256"
        }
      ],
      "name": "positions",
      "outputs": [
        {
          "internalType": "bytes32",
          "name": "pairId",
          "type": "bytes32"
        },
        {
          "internalType": "address",
          "name": "trader",
          "type": "address"
        },
        {
          "internalType": "bool",
          "name": "isLong",
          "type": "bool"
        },
        {
          "internalType": "uint256",
          "name": "sizeUsd",
          "type": "uint256"
        },
        {
          "internalType": "uint256",
          "name": "collateral",
          "type": "uint256"
        },
        {
          "internalType": "uint256",
          "name": "entryPrice",
          "type": "uint256"
        },
        {
          "internalType": "uint256",
          "name": "leverage",
          "type": "uint256"
        },
        {
          "internalType": "uint256",
          "name": "liquidationPrice",
          "type": "uint256"
        },
        {
          "internalType": "uint256",
          "name": "openedAt",
          "type": "uint256"
        },
        {
          "internalType": "bool",
          "name": "isOpen",
          "type": "bool"
        },
        {
          "internalType": "uint256",
          "name": "tpPrice",
          "type": "uint256"
        },
        {
          "internalType": "uint256",
          "name": "slPrice",
          "type": "uint256"
        },
        {
          "internalType": "int256",
          "name": "entryFundingIndex",
          "type": "int256"
        },
        {
          "internalType": "uint256",
          "name": "lastRolloverSettled",
          "type": "uint256"
        }
      ],
      "stateMutability": "view",
      "type": "function"
    },
    {
      "inputs": [],
      "name": "rolloverFeePerHour",
      "outputs": [
        {
          "internalType": "uint256",
          "name": "",
          "type": "uint256"
        }
      ],
      "stateMutability": "view",
      "type": "function"
    },
    {
      "inputs": [
        {
          "internalType": "uint256",
          "name": "_bps",
          "type": "uint256"
        }
      ],
      "name": "setExecutionBufferBps",
      "outputs": [],
      "stateMutability": "nonpayable",
      "type": "function"
    },
    {
      "inputs": [
        {
          "internalType": "uint256",
          "name": "_bps",
          "type": "uint256"
        }
      ],
      "name": "setLiquidationRewardBps",
      "outputs": [],
      "stateMutability": "nonpayable",
      "type": "function"
    },
    {
      "inputs": [
        {
          "internalType": "uint256",
          "name": "_seconds",
          "type": "uint256"
        }
      ],
      "name": "setMaxOrderAge",
      "outputs": [],
      "stateMutability": "nonpayable",
      "type": "function"
    },
    {
      "inputs": [
        {
          "internalType": "uint256",
          "name": "_fee",
          "type": "uint256"
        }
      ],
      "name": "setRolloverFeePerHour",
      "outputs": [],
      "stateMutability": "nonpayable",
      "type": "function"
    },
    {
      "inputs": [
        {
          "internalType": "uint256",
          "name": "positionId",
          "type": "uint256"
        },
        {
          "internalType": "uint256",
          "name": "newTpPrice",
          "type": "uint256"
        },
        {
          "internalType": "uint256",
          "name": "newSlPrice",
          "type": "uint256"
        }
      ],
      "name": "updateTpSl",
      "outputs": [],
      "stateMutability": "nonpayable",
      "type": "function"
    },
    {
      "inputs": [],
      "name": "usdc",
      "outputs": [
        {
          "internalType": "contract IERC20",
          "name": "",
          "type": "address"
        }
      ],
      "stateMutability": "view",
      "type": "function"
    },
    {
      "inputs": [
        {
          "internalType": "address",
          "name": "",
          "type": "address"
        },
        {
          "internalType": "uint256",
          "name": "",
          "type": "uint256"
        }
      ],
      "name": "userOrders",
      "outputs": [
        {
          "internalType": "uint256",
          "name": "",
          "type": "uint256"
        }
      ],
      "stateMutability": "view",
      "type": "function"
    },
    {
      "inputs": [
        {
          "internalType": "address",
          "name": "",
          "type": "address"
        },
        {
          "internalType": "uint256",
          "name": "",
          "type": "uint256"
        }
      ],
      "name": "userPositions",
      "outputs": [
        {
          "internalType": "uint256",
          "name": "",
          "type": "uint256"
        }
      ],
      "stateMutability": "view",
      "type": "function"
    },
    {
      "inputs": [],
      "name": "vault",
      "outputs": [
        {
          "internalType": "contract ConfidentialVaultV1",
          "name": "",
          "type": "address"
        }
      ],
      "stateMutability": "view",
      "type": "function"
    },
    {
      "stateMutability": "payable",
      "type": "receive"
    }
  ],
  "bytecode": "0x608034620000e957601f620052e838819003918201601f19168301916001600160401b03831184841017620000ed57808492608094604052833981010312620000e9576200004d8162000101565b906200005c6020820162000101565b620000786060620000706040850162000101565b930162000101565b9060015f55600160055560016006555f600b556064600c5562093a80600d55601e600e5560018060a01b03928380928160018060a01b031997168760045416176004551685600154161760015516836002541617600255169060035416176003556040516151d19081620001178239f35b5f80fd5b634e487b7160e01b5f52604160045260245ffd5b51906001600160a01b0382168203620000e95756fe60e08060405260048036101561001e575b5050361561001c575f80fd5b005b5f915f3560e01c908163233b4d5714612474575080632a58b330146124575780632c338fed146124295780632e80f9a41461237957806333e7dddb14612359578063368dbba8146105785780633e413bee1461233257806341aa303b146122ce578063514fcac7146121055780635df6deae14611f7a5780635e1b4d9914611f3f5780636c4c001d14611f225780636fb197f714611c305780637dc0d1d014611c0757806380b742581461189e578063856652e914611852578063899346c7146118345780638fb735ee1461181657806399fbab88146117485780639bfe7e3e1461156f578063a8f35adf14611440578063ba7ebf5f14611393578063c009687c146112d6578063c09403ac14610fa7578063c29433a614610f89578063c3aaea4e14610e44578063ccc6d49214610bfd578063effaed8914610bdf578063f2f4eb2614610bb657828163f6614170146107cb57508063f884931c1461057d578063fa77964814610578578063fbfa77cf1461054c5763fd5c77cd036100105760403660031901126105485767ffffffffffffffff908035828111610441576101ca9036908301612501565b602493919391602435908111610544576101e79036908501612501565b9490936101f26142d7565b6001805460405163aced166160e01b815291976001600160a01b03969260209283908290879082908c165afa80156105395788918c9161050c575b501633036104d2576002978483896002541660405192838092637510e6c960e11b82525afa80156104c7578c90610494575b61251c9150111561044557908a91816103d8575b50505b85811061028557896001815580f35b610290818787614273565b358a526007825260408a208a60ff918b83600883015416156103ce575089600354169260408254888251809781936331d98b3f60e01b83528d8301525afa9384156103c3578394610391575b50818d015460a01c1615610375578061030a8861030f930154918d6103018488614283565b9101549061429b565b6142bd565b1315610332579061032c8a92610326838a8a614273565b356147fa565b01610276565b60405162461bcd60e51b8152808601849052601c818601527f43616e6e6f742041444c2061206c6f73696e6720706f736974696f6e000000006044820152606490fd5b8061030a8861038c930154918d6103018785614283565b61030f565b6103b491945060403d6040116103bc575b6103ac818361261f565b810190612813565b50925f6102dc565b503d6103a2565b6040513d85823e3d90fd5b939250505061032c565b886003541691823b1561044157604051631df3cbc560e31b8152928492849283918291610407918c8401612698565b039134905af180156104365761041e575b80610273565b610427906125f7565b61043257885f610418565b8880fd5b6040513d84823e3d90fd5b8380fd5b60405162461bcd60e51b8152808601849052602260248201527f41444c206f6e6c7920696e20656d657267656e637920287574696c203e203935604482015261252960f01b6064820152608490fd5b508381813d83116104c0575b6104aa818361261f565b810103126104bc5761251c905161025f565b5f80fd5b503d6104a0565b6040513d8e823e3d90fd5b60405162461bcd60e51b8152808501839052601360248201527213db9b1e4812d9595c195c8818d85b88105113606a1b6044820152606490fd5b61052c9150843d8611610532575b610524818361261f565b810190612641565b5f61022d565b503d61051a565b6040513d8d823e3d90fd5b8580fd5b5080fd5b82346105755780600319360112610575576002546040516001600160a01b039091168152602090f35b80fd5b612566565b5061058736612583565b9190926105926142d7565b600154604051635c975abb60e01b81526020956001600160a01b03928316929187818781875afa8015610745578590610791575b6105d191501561407a565b85151580610786575b15610750578084526007875260408420926105fb60ff600886015416614043565b61060d60018501938454163314612660565b8760078501549160405197888092636d78097360e11b82525afa958615610745578596610714575b5061064560019661064d92612773565b421015614139565b6006549561065a876140f2565b600655868552600888526106a960408620938554855560ff88860191336001600160601b0360a01b8454161783555460a01c1681549060ff60a01b90151560a01b169060ff60a01b1916179055565b60028301556006820161010661ffff198254161790554260078301556008820155600a34910155338252600a85526106e48460408420614100565b54604051908152600685820152816040820152835f8051602061517c83398151915260603393a355604051908152f35b95508786813d831161073e575b61072b818361261f565b810103126104bc57945194610645610635565b503d610721565b6040513d87823e3d90fd5b60405162461bcd60e51b8152808601889052600f60248201526e125b9d985b1a59081c195c98d95b9d608a1b6044820152606490fd5b5061271086106105da565b508781813d83116107c4575b6107a7818361261f565b810103126107c0576107bb6105d19161298f565b6105c6565b8480fd5b503d61079d565b80836107d636612532565b906107e29492946142d7565b81610b55575b50509180602493526020916007835260408520600881019161080d60ff845416614043565b6003548254604080516331d98b3f60e01b8152808501839052986001600160a01b0395929492938a9190829088165afa978815610b4a578998610b28575b50600182019260ff845460a01c165f14610b1b5760068301548911155b15610ae4579082918a8961088461087f83976141b4565b614d00565b9260248960015416916040519485938492637cc6765f60e11b8452898401525af1908115610745578a91610ab5575b50506108c66108c1846141b4565b614d32565b81858213610aa4575b505060038301549081811115610a9957506108ea8180612951565b926127106108fa600c548661293e565b049760ff1981541690558660015416908054906002885491015492803b15610a95576040805163019ca2b960e51b81528781019485526001600160a01b03848d1616602086015260a09390931c60ff16151590840152606083019390935291869183919082908490829060800103925af1908115610745578591610a81575b505080610a1f575b5084600254168585541690803b156107c05784928360849260405196879586946309c0533b60e01b865285015233602485015260448401528a60648401525af1801561043657610a07575b50505416926040519485528401527f3b7bc7c0fdc798ac653b9f0d6d28adb2293a55402d32c21d323da740ccc6553960403394a46001815580f35b610a10906125f7565b610a1b5786886109cc565b8680fd5b856002541690813b156107c057849160248392604051948593849263ff20b48d60e01b8452888401525af1908115610a76578491610a5e575b50610981565b610a67906125f7565b610a7257828b610a58565b8280fd5b6040513d86823e3d90fd5b610a8a906125f7565b61044157838c610979565b8780fd5b6108ea908092612951565b610aae9250612773565b8b806108cf565b90809295503d8311610add575b610acc818361261f565b810103126104bc578992888c6108b3565b503d610ac2565b60405162461bcd60e51b8152808301899052601060248201526f4e6f74206c6971756964617461626c6560801b6044820152606490fd5b6006830154891015610868565b610b4291985060403d6040116103bc576103ac818361261f565b50968961084b565b6040513d8b823e3d90fd5b6003546001600160a01b031691823b1561044157604051631df3cbc560e31b8152928492849283918291610b8b918a8401612698565b039134905af1801561043657610ba2575b806107e8565b610bab906125f7565b610a72578284610b9c565b82346105755780600319360112610575576001546040516001600160a01b039091168152602090f35b82346105755780600319360112610575576020600c54604051908152f35b509060803660031901126105755781359160243591606435604435610c206142d7565b600154604051635c975abb60e01b81526020976001600160a01b039283169691898184818b5afa8015610e39578790610e03575b610c5f91501561407a565b610c6e620f4240891015614177565b808652600789526040862093610c8a60ff600887015416614043565b610c9c60018601948554163314612660565b610ca6818a612920565b928a8a6044604051809c819363e4d8cbe560e01b8352868301528c60248301525afa938415610df8578894610dc8575b60019950610cee610ce78683612773565b3033614b38565b6006549a610cfb8c6140f2565b6006558b8a5260088d52610d4a60408b20978954895560ff8d8a0191336001600160601b0360a01b8454161783555460a01c1681549060ff60a01b90151560a01b169060ff60a01b1916179055565b600287015560038601558401558460058401556006830161010561ffff1982541617905542600784015560088301556009820155600a34910155338352600a8652610d988560408520614100565b54906040519182526005868301526040820152835f8051602061517c83398151915260603393a355604051908152f35b93508a89813d8311610df1575b610ddf818361261f565b810103126104bc576001985193610cd6565b503d610dd5565b6040513d8a823e3d90fd5b508981813d8311610e32575b610e19818361261f565b81010312610a1b57610e2d610c5f9161298f565b610c54565b503d610e0f565b6040513d89823e3d90fd5b5090346105755760203660031901126105755781358152600860205260409020808092815490600183015460c05260028301549060038401549084015460058501546006860154600787015490600888015492600989015494600a8a015496600b8b015498600c8c01549a600d8d01549c600e01549d600f01549e6010015460805260405160a05260a05152600160a01b6001900360c0511660a0516020015260c05160a01c60ff16151560a0516040015260a0516060015260a0516080015260a05160a0015260a05160c0015260ff811660a05160e0015260081c60ff16151560a051610100015260a051610120015260a051610140015260a051610160015260a051610180015260a0516101a0015260a0516101c0015260a0516101e0015260a051610200015260a051610220015260805160a051610240015260a05161026090f35b82346105755780600319360112610575576020600d54604051908152f35b509061010036600319011261057557813590610fc16125e8565b9160443592606435906084359160a4359160ff83168093036105445760c43560e43592610fec6142d7565b610ffb620f42408a1015614177565b6002851161129e5781611237575b836111d0575b6001546001600160a01b031690813b156104325783898c8a611047858f604051968795869563bd79156f60e01b87523391870161295e565b0381865afa80156111b157908a916111bc575b50506040519a8b9263e4d8cbe560e01b84528b828501528715602485015283604460209e8f935afa9283156111b1578a93611182575b5061109b828c612920565b6110a58482612773565b6110b0903033614b38565b6006549b6110bd8d6140f2565b6006558c8c5260088e5260408c208b815560018101805460ff60a01b1933166001600160a81b03199091161798151560a01b60ff60a01b169890981790975560028701556003860155840155856005840155600683018561ffff1982541617610100179055426007840155600983015534600a830155600b820155600c0155338452600a865284604085209061115291614100565b60405192835285830152604082015282339160605f8051602061517c83398151915291a360019055604051908152f35b9092508b81813d83116111aa575b61119a818361261f565b810103126104bc5751915f611090565b503d611190565b6040513d8c823e3d90fd5b6111c5906125f7565b61043257885f61105a565b821561122557858410801561121b575b61100f5760405162461bcd60e51b81526020818c0152601060248201526f496e76616c696420534c20707269636560801b6044820152606490fd5b50600285146111e0565b858411806111e05750600285146111e0565b821561128c578582118015611282575b6110095760405162461bcd60e51b81526020818c0152601060248201526f496e76616c696420545020707269636560801b6044820152606490fd5b5060028514611247565b85821080611247575060028514611247565b60405162461bcd60e51b81526020818c01526011602482015270496e76616c6964206f726465725479706560781b6044820152606490fd5b503461054857602036600319011261054857600154604051638da5cb5b60e01b8152823592916001600160a01b039060209083908590829085165afa80156107455761132c928691611374575b50163314612660565b6064821161133b5750600b5580f35b60649060206040519162461bcd60e51b8352820152601260248201527126b0bc101817181892903832b9103437bab960711b6044820152fd5b61138d915060203d60201161053257610524818361261f565b5f611323565b503461054857602036600319011261054857600154604051638da5cb5b60e01b8152823592916001600160a01b039060209083908590829085165afa8015610745576113e89286916113745750163314612660565b610e1082101580611433575b156114005750600d5580f35b60649060206040519162461bcd60e51b8352820152600c60248201526b31682d3330642072616e676560a01b6044820152fd5b5062278d008211156113f4565b50346105485761144f36612583565b916114586142d7565b6114638315156140b8565b81845260076020526040842061147f60ff600883015416614043565b60018101918560018060a01b0361149a818654163314612660565b6114a987826002541633614b38565b60025416803b1561054857818091602460405180948193636e93ae2b60e01b83528c898401525af180156104365761155b575b505060069261151e9160038401906114f5888354612773565b80925560ff60028601549161150a8484612920565b6005880155860154935460a01c1692614bff565b918291015560405192835260208301527f935a476d8eb416e1441bbdc27477a7d90012bed1a74dba06f77fc32b8b119bd860403393a36001815580f35b611564906125f7565b61054457855f6114dc565b5090602091826003193601126105485780359161158a6142d7565b828152600784526040812060ff600882015416156117105760018101546001600160a01b03906115bd9082163314612660565b848352600f865260ff6040842054166116d557856007830154916001541660405195868092636d78097360e11b82525afa9384156103c35783946116a4575b5061064560019461160c92612773565b838252600f855260408220805460ff1916841790556006549361162e856140f2565b600655848352600886526040832090848201336001600160601b0360a01b8254161790556006820161010361ffff198254161790554260078301556008820155600a3491015554604051908152600385820152816040820152835f8051602061517c83398151915260603393a355604051908152f35b93508584813d83116116ce575b6116bb818361261f565b810103126104bc579251926106456115fc565b503d6116b1565b60405162461bcd60e51b81528085018790526014602482015273436c6f736520726571756573742065786973747360601b6044820152606490fd5b60405162461bcd60e51b815280840186905260116024820152702837b9b4ba34b7b7103737ba1037b832b760791b6044820152606490fd5b50346105485760203660031901126105485760406101c09282358152600760205220908154916001810154916002820154906003830154908301546005840154600685015460078601549160ff60088801541693600988015495600a8901549760ff600c600b8c01549b01549b6040519d8e528d602060018060a01b03831691015260a01c16151560408d015260608c015260808b015260a08a015260c089015260e088015261010087015215156101208601526101408501526101608401526101808301526101a0820152f35b82346105755780600319360112610575576020600b54604051908152f35b82346105755780600319360112610575576020600554604051908152f35b82346105755761186136612599565b6001600160a01b039091168252600a6020526040822080549192909183101561057557602061189084846125bf565b90546040519160031b1c8152f35b50906118a936612532565b906118b59492946142d7565b81611ba9575b50508282526020926007845260408320916118dc60ff600885015416614043565b6007830154600154604051636d78097360e11b81526001600160a01b03929183169188828681865afa918215610df857918593918a938a92611b70575b506119279161064591612773565b604051635c975abb60e01b815292839182905afa8015611b65578690611b2f575b61195391501561407a565b60035416906040845460248251809581936331d98b3f60e01b8352868301525afa918215610745578592611b0d575b508485928095600981015480611aa0575b50821580611a93575b611a25575b5050156119eb57507fac4fd466c8f994e08ce2eb9141c2f01f2a779a3537d9bd71fa8762df3d12842c60408392856119e4979883519215158352820152a26147fa565b6001815580f35b60405162461bcd60e51b8152908101869052601360248201527215140bd4d3081b9bdd081d1c9a59d9d95c9959606a1b6044820152606490fd5b909150600a8101549060ff6001611a62600e5494612710611a5b611a5482611a4d8a8661293e565b0484612773565b978361293e565b0490612951565b92015460a01c1615611a885750811115905b81611a80575b806119a1565b94505f611a7a565b905081101590611a74565b50600a810154151561199c565b9192509350611ad5600e5491612710611ace611ac782611ac0878661293e565b0484612951565b948361293e565b0490612773565b600185015460a01c60ff1615611b025750811015905b819382611af9575b5f611993565b95508095611af3565b905081111590611aeb565b611b2791925060403d6040116103bc576103ac818361261f565b50905f611982565b508681813d8311611b5e575b611b45818361261f565b8101031261054457611b596119539161298f565b611948565b503d611b3b565b6040513d88823e3d90fd5b93849195508092503d8311611ba2575b611b8a818361261f565b810103126104bc579051849289929190610645611919565b503d611b80565b6003546001600160a01b031690813b156107c057918491611bdf93604051809581948293631df3cbc560e31b8452898401612698565b039134905af180156103c357908391156118bb57611bfc906125f7565b61054857815f6118bb565b82346105755780600319360112610575576003546040516001600160a01b039091168152602090f35b50906101003660031901126104bc57813591611c4a6125e8565b9160443593606435926084359460a43590611c636142d7565b600287101580611f17575b15611ee257603c8210611eab57620f42408781029081048803611e98578810611e5d576001546001600160a01b031696873b156104bc5760405163bd79156f60e01b81525f8180611cc58b8e88338d8d870161295e565b03818c5afa8015611e5257611e3f575b50611ce0878a612920565b98604051998a9963e4d8cbe560e01b8b5282878c01528860248c01528a604460209c8d935afa918215610df8578a9b899b9a9b93611e04575b50998160019a9b611d32610ce786600e99989796612773565b60086006549d8e611d42816140f2565b6006558d525260408b208a81558c8101805460ff60a01b1933166001600160a81b03199091161797151560a01b60ff60a01b169790971790965560028601556003850155868401556006830161010461ffff19825416179055426007840155600983015534600a83015560c435600b83015560e435600c830155600d8201550155338352600a8652611dd78560408520614100565b60405191825285820152816040820152835f8051602061517c83398151915260603393a355604051908152f35b80959493508a91929a3d8311611e38575b611e1f818361261f565b810103126104bc5792518a989293919290916001611d19565b503d611e15565b611e4a9196506125f7565b5f945f611cd5565b6040513d5f823e3d90fd5b60405162461bcd60e51b8152602081850152601460248201527314db1a58d9481cda5e99481d1bdbc81cdb585b1b60621b6044820152606490fd5b601184634e487b7160e01b5f525260245ffd5b60405162461bcd60e51b8152602081850152601060248201526f135a5b880d8c1cc81a5b9d195c9d985b60821b6044820152606490fd5b60405162461bcd60e51b8152602081850152600e60248201526d496e76616c696420736c6963657360901b6044820152606490fd5b506064871115611c6e565b346104bc575f3660031901126104bc576020600e54604051908152f35b346104bc57611f4d36612599565b6001600160a01b039091165f90815260096020526040902080548210156104bc57602091611890916125bf565b50611f8436612583565b90611f8d6142d7565b600154604051635c975abb60e01b81526020946001600160a01b039286918391829086165afa8015611e52575f906120cf575b611fcb91501561407a565b611fd68315156140b8565b815f526007845260405f2091611ff260ff600885015416614043565b61200460018401928354163314612660565b60065493612011856140f2565b600655845f526008865261206160405f20938554855560ff6001860191336001600160601b0360a01b8454161783555460a01c1681549060ff60a01b90151560a01b169060ff60a01b1916179055565b60028301556006820161010761ffff198254161790554260078301556008820155600a34910155335f52600a835261209c8260405f20614100565b546040519081526007838201525f6040820152815f8051602061517c83398151915260603393a360015f55604051908152f35b508481813d83116120fe575b6120e5818361261f565b810103126104bc576120f9611fcb9161298f565b611fc0565b503d6120db565b50346104bc5760203660031901126104bc578035906121226142d7565b815f52600860205260405f206006810191600360ff8454612147828260081c1661273a565b61215e60018060a01b036001870154163314612660565b61ff00198116865516146122b1575b60ff8354166003810361221d575b5060ff600a8301549354161480612210575b6121e3575b50806121c4575b507f61b9399f2f0f32ca39ce8d7be32caed5ec22fe07a6daba3a467ed479ec6065825f80a260015f55005b5f8080806121dd94335af16121d7612794565b506127d3565b81612199565b9061220482600f6121fb600d61220a96015485612920565b9101549061293e565b90612951565b82612192565b50600f810154151561218d565b60038301548260098501549214806122a4575b612264575b61223f8282612773565b61224a575b5061217b565b61225d9161225791612773565b336142f8565b8480612244565b9061229e90612204600d8601546122986122886122818388612920565b9285612920565b95612204600f8a0154809461293e565b9461293e565b90612235565b50600f8401541515612230565b60088201545f52600f60205260405f2060ff19815416905561216d565b50346104bc5760603660031901126104bc576122e86142d7565b355f52600760205260405f2061230460ff600883015416614043565b61231b60018060a01b036001830154163314612660565b6024356009820155604435600a9091015560015f55005b50346104bc575f3660031901126104bc57546040516001600160a01b039091168152602090f35b61237361236536612532565b9161236e6142d7565b6129d1565b60015f55005b50346104bc5760203660031901126104bc57600154604051638da5cb5b60e01b8152823592916001600160a01b039060209083908590829085165afa8015611e52576123ce925f9161240a5750163314612660565b6101f482116123dd5750600c55005b60649060206040519162461bcd60e51b835282015260066024820152654d617820352560d01b6044820152fd5b612423915060203d60201161053257610524818361261f565b85611323565b50346104bc5760203660031901126104bc57355f52600f602052602060ff60405f2054166040519015158152f35b346104bc575f3660031901126104bc576020600654604051908152f35b82346104bc5760203660031901126104bc5780359160018060a01b0360208284818460015416638da5cb5b60e01b82525afa8015611e52576124bf925f9161240a5750163314612660565b606482116124cd5750600e55005b60649060206040519162461bcd60e51b8352820152600d60248201526c26b0bc10189290313ab33332b960991b6044820152fd5b9181601f840112156104bc5782359167ffffffffffffffff83116104bc576020808501948460051b0101116104bc57565b9060406003198301126104bc57600435916024359067ffffffffffffffff82116104bc5761256291600401612501565b9091565b346104bc575f3660031901126104bc576020604051620f42408152f35b60409060031901126104bc576004359060243590565b60409060031901126104bc576004356001600160a01b03811681036104bc579060243590565b80548210156125d4575f5260205f2001905f90565b634e487b7160e01b5f52603260045260245ffd5b6024359081151582036104bc57565b67ffffffffffffffff811161260b57604052565b634e487b7160e01b5f52604160045260245ffd5b90601f8019910116810190811067ffffffffffffffff82111761260b57604052565b908160209103126104bc57516001600160a01b03811681036104bc5790565b1561266757565b60405162461bcd60e51b81526020600482015260096024820152682737ba1037bbb732b960b91b6044820152606490fd5b9160208181850182865252604084019360408360051b82010194845f925b8584106126c7575050505050505090565b90919293949596603f198282030184528735601e19843603018112156104bc57830186810191903567ffffffffffffffff81116104bc5780360383136104bc5787828280600196849695859652848401375f828201840152601f01601f19160101990197969591909101930191906126b6565b1561274157565b60405162461bcd60e51b815260206004820152600a6024820152694e6f742061637469766560b01b6044820152606490fd5b9190820180921161278057565b634e487b7160e01b5f52601160045260245ffd5b3d156127ce573d9067ffffffffffffffff821161260b57604051916127c3601f8201601f19166020018461261f565b82523d5f602084013e565b606090565b156127da57565b60405162461bcd60e51b8152602060048201526011602482015270115512081c99599d5b990819985a5b1959607a1b6044820152606490fd5b91908260409103126104bc576020825192015190565b90604051610260810181811067ffffffffffffffff82111761260b57604052610240601082948054845260ff600182015460018060a01b038116602087015260a01c16151560408501526002810154606085015260038101546080850152600481015460a0850152600581015460c085015260ff600682015481811660e087015260081c161515610100850152600781015461012085015260088101546101408501526009810154610160850152600a810154610180850152600b8101546101a0850152600c8101546101c0850152600d8101546101e0850152600e810154610200850152600f8101546102208501520154910152565b811561292a570490565b634e487b7160e01b5f52601260045260245ffd5b8181029291811591840414171561278057565b9190820391821161278057565b9081526001600160a01b03909116602082015290151560408201526060810191909152608081019190915260a00190565b519081151582036104bc57565b156129a357565b60405162461bcd60e51b815260206004820152600660248201526514185d5cd95960d21b6044820152606490fd5b90915f9281613fe2575b505080825260086020526040822060068101546129fd60ff8260081c1661273a565b612a0e6007830154600d5490612773565b4211613eea57506003548154604080516331d98b3f60e01b8152600481018390529192829060249082906001600160a01b03165afa908115610745578591613eca575b50600683015460ff1680612c6f5750600183015460a01c60ff1691508115612c625760058301548111155b15612c2957612aa79115612c1657600583015480821015612c0f57505b612aa283612829565b6143ca565b60068101805461ff00191690555b82600a82015480612b63575b5050600681015460ff8160081c1615612adb575b50505050565b60ff16600303612b185760087f9947370f1e808dd40de986fca744d8715d4d7aa575359f77a7bdeeb887f590ea910154925b80a35f808080612ad5565b506005545f198101908111612b4f577f9947370f1e808dd40de986fca744d8715d4d7aa575359f77a7bdeeb887f590ea9092612b0d565b634e487b7160e01b83526011600452602483fd5b81906006840154600460ff82161480612c02575b15612be85750612b8d9150600d84015490612920565b8015612ac15781808092335af1612ba2612794565b5015612baf57825f612ac1565b60405162461bcd60e51b815260206004820152601160248201527012d9595c195c881999594819985a5b1959607a1b6044820152606490fd5b60081c60ff1615612bfa575b50612b8d565b90505f612bf4565b50600d8501541515612b77565b9050612a99565b600583015480821115612c0f5750612a99565b60405162461bcd60e51b8152602060048201526011602482015270131a5b5a5d081b9bdd081c995858da1959607a1b6044820152606490fd5b6005830154811015612a7c565b60018103612d2f5750905060ff600183015460a01c16805f14612d1257612ca36005840154612710611a5b600e548361293e565b905b15612d0a578110155b15612cd257612cc090612aa283612829565b60068101805461ff0019169055612ab5565b60405162461bcd60e51b815260206004820152601060248201526f14dd1bdc081b9bdd081c995858da195960821b6044820152606490fd5b811115612cae565b612d296005840154612710611ace600e548361293e565b90612ca5565b60028103612dd957509050600182015460ff8160a01c165f14612dcc5760058301548211155b8015612dc0575b15612d6f5750612cc090612aa283612829565b612d969150612d876003840154600985015490612773565b906001600160a01b03166142f8565b817f61b9399f2f0f32ca39ce8d7be32caed5ec22fe07a6daba3a467ed479ec6065828480a2612cc0565b50600583015415612d5c565b6005830154821015612d55565b60038103612e925750600154604051635c975abb60e01b8152919250602090829060049082906001600160a01b03165afa8015610745578590612e57575b612e2291501561299c565b612e31600883019182546147fa565b548352600f60205260408320805460ff1916905560068101805461ff0019169055612ab5565b506020813d602011612e8a575b81612e716020938361261f565b810103126107c057612e85612e229161298f565b612e17565b3d9150612e64565b6005810361341a5750600154604051635c975abb60e01b8152919250602090829060049082906001600160a01b03165afa80156107455785906133df575b612edb91501561299c565b600182015460ff8160a01c165f146133d25760058301548211155b80156133c6575b15612d6f5750612f0c82612829565b90610140820151855260076020526040852091612f2f60ff600885015416614043565b606081015190608081015161016082015190612f4a86614f2b565b600286015494612f5a8587612773565b612f73600389015491612f6d8584612773565b90612920565b9060018060a01b03600154169289549360018b015493813b156133c25760405163bd79156f60e01b8152908f9082908190612fc5908e60a08b901c60ff166001600160a01b038c168d6004870161295e565b0381855afa80156133b5578f90918b9261339a575b505060405163b391decf60e01b81526004810187905260ff60a087901c1615156024820152604481019190915290602090829060649082905afa90811561338d57908e92918391613358575b5081928082135f1461330657506127109150613042908361293e565b0460ff8460a01c165f146132f85761305991612773565b88670de0b6b3a7640000810204670de0b6b3a764000014891517156132e45761309060048b0154670de0b6b3a76400008b02612920565b9088670de0b6b3a7640000810204670de0b6b3a764000014891517156132d0576130c490670de0b6b3a76400008a02612920565b6130ce898b612773565b9182670de0b6b3a7640000810204670de0b6b3a764000014831517156132bc57613154938c6131218c61311b600297670de0b6b3a764000061311461312b998f99612773565b9102612920565b9e612773565b9485910155612773565b8060038c01558960048c01556131418183612920565b60058c015560ff8460a01c16918a614bff565b60068901556001546001600160a01b031691823b156132b85760405163b65b361f60e01b815260048101919091526001600160a01b038216602482015260a09190911c60ff161515604482015260648101869052908a9082908183816084810103925af180156111b157908a916132a4575b50506002546131df9082906001600160a01b03166142f8565b6002546001600160a01b031690813b156132a0578991602483926040519485938492636e93ae2b60e01b845260048401525af18015610b4a5790899161328c575b5050916101406060926132537ff48aa9a1deec4f3fc0cb0c073f4f097041726d7c7f9d2c3a863cd52f721e8d1a95614deb565b015193600660018060a01b036001880154169601549060405192835260208301526040820152a360068101805461ff0019169055612ab5565b613295906125f7565b610a9557875f613220565b8980fd5b6132ad906125f7565b61043257885f6131c6565b8b80fd5b634e487b7160e01b8f52601160045260248ffd5b634e487b7160e01b8e52601160045260248efd5b634e487b7160e01b8d52601160045260248dfd5b61330191612951565b613059565b8112613314575b5050613059565b61271091925061332661332c916143ba565b8361293e565b0460ff8460a01c165f1461334a5761334391612951565b5f8061330d565b61335391612773565b613343565b9250506020823d602011613385575b816133746020938361261f565b810103126104bc578d91515f613026565b3d9150613367565b8e604051903d90823e3d90fd5b6133a59192506125f7565b6133b157888e5f612fda565b8d80fd5b8f604051903d90823e3d90fd5b8e80fd5b50600583015415612efd565b6005830154821015612ef6565b506020813d602011613412575b816133f96020938361261f565b810103126107c05761340d612edb9161298f565b612ed0565b3d91506133ec565b600681036138965750600154604051635c975abb60e01b8152919250602090829060049082906001600160a01b03165afa801561074557859061385b575b61346391501561299c565b61346c82612829565b610140810151855260076020526134d4604086209161349160ff600885015416614043565b6060810151906134a084614f2b565b6002840154916134da61271093846134b8848361293e565b049586956134cb60038a0154958661293e565b04958692612951565b92612951565b92620f42408083106138205784106137db57600186015460ff8160a01c165f146137bf57613519600488015461030a88613514838d614283565b61429b565b925b60015460405163e4d8cbe560e01b815260048101899052602481018e90529490602090869060449082906001600160a01b03165afa9485156137b4578d9561377c575b509061356d8561359b93614283565b968160028b01558060038b01556135848183612920565b60058b015560ff8460a01c169160048b0154614bff565b600688015560018060a01b0360015416908754823b156137785760405163019ca2b960e51b815260048101919091526001600160a01b038216602482015260a09190911c60ff161515604482015260648101879052908b9082908183816084810103925af1801561053957908b91613764575b505060025460018701546001600160a01b039182169116813b156132b85760405163118f304360e01b81526001600160a01b039190911660048201526024810183905260448101869052908b908290606490829084905af1801561053957908b91613750575b5050811515908161373e575b506136e3575b50916060916101407f5cc0748e06097a585a6534dafcca64d5cc367340dff0e00469484e8269a7ca7b940151946001808060a01b03910154169560405192835260208301526040820152a360068101805461ff0019169055612ab5565b6002546001600160a01b031690813b156132a05789916024839260405194859384926335b8e71360e01b845260048401525af18015610b4a5790899161372a575b50613686565b613733906125f7565b610a9557875f613724565b61374891506143ba565b83135f613680565b613759906125f7565b6132a057895f613674565b61376d906125f7565b6132a057895f61360e565b8c80fd5b919094506020823d6020116137ac575b816137996020938361261f565b810103126104bc5790519361356d61355e565b3d915061378c565b6040513d8f823e3d90fd5b6137d5600488015461030a886135148c84614283565b9261351b565b60405162461bcd60e51b815260206004820152601e60248201527f52656d61696e64657220636f6c6c61746572616c20746f6f20736d616c6c00006044820152606490fd5b60405162461bcd60e51b815260206004820152601360248201527214995b585a5b99195c881d1bdbc81cdb585b1b606a1b6044820152606490fd5b506020813d60201161388e575b816138756020938361261f565b810103126107c0576138896134639161298f565b613458565b3d9150613868565b60078103613c435750600154604051635c975abb60e01b8152919250602090829060049082906001600160a01b03165afa8015610745578590613c08575b6138df91501561299c565b6138e882612829565b61014081015185526007602052604085209061390a60ff600884015416614043565b60608101519061391983614f2b565b613927826003850154612951565b93620f42408510613bcc576002840154946139428187612920565b9160018060a01b036001541660e0875460246040518094819363351bd11560e11b835260048301525afa8015610539578b90613b30575b6040915001518311613af4576139a160048701548360ff60018a015460a01c16998a92614bff565b80975f14613ae5576139b3911161479b565b60038501556005840155600683018490556002546001600160a01b0316803b15610a95578780916024604051809481936306e980c560e51b83528860048401525af18015610df857908891613ad1575b505060025460018401546001600160a01b039182169116813b15610432576040516374e863ad60e01b81526001600160a01b03919091166004820152602481018490529088908290604490829084905af18015610df857908891613abd575b505061014001516001909201546040805192835260208301949094526001600160a01b0316927fdf372a02d8e5139b85d7448d53241f194a27db9f321178c970db6e998ebb600191a360068101805461ff0019169055612ab5565b613ac6906125f7565b610a1b57865f613a62565b613ada906125f7565b610a1b57865f613a03565b613aef911061479b565b6139b3565b60405162461bcd60e51b815260206004820152601460248201527345786365656473206d6178206c6576657261676560601b6044820152606490fd5b5060e0813d60e011613bc4575b81613b4a60e0938361261f565b81010312613bc0576040518060e081011067ffffffffffffffff60e08301111761260b57613bb660c060409360e08401855280518452602081015160208501528481015185850152606081015160608501526080810151608085015260a081015160a08501520161298f565b60c0820152613979565b8a80fd5b3d9150613b3d565b60405162461bcd60e51b815260206004820152601460248201527310995b1bddc81b5a5b8818dbdb1b185d195c985b60621b6044820152606490fd5b506020813d602011613c3b575b81613c226020938361261f565b810103126107c057613c366138df9161298f565b6138d4565b3d9150613c15565b600414613c52575b5050612ab5565b600f8301549182158015613eae575b15613e7757613c6f84612829565b92600181018111613e6357600d85015490600181018203613e2357806002870154613c9a8482612920565b8260038a015492613cab8785612920565b9260098c015497613cbc9089612920565b96613cc69161293e565b613ccf91612951565b60608a0152613cdd9161293e565b613ce691612951565b6080870152613cf49161293e565b613cfd91612951565b6101608401525b6001805490850154606085015160048701549390926001600160a01b03169190823b156132a05760405163bd79156f60e01b8152948a9486949385938493613d66939092909160a082901c60ff16916001600160a01b0316906004870161295e565b03915afa8015611b6557908691613e0f575b5050613d8490826143ca565b600f8201549060018201809211613dfb577f098dc6c1012d2fb4cc0470ec0f1b82ad9eaf354865d76ebad869d83f1559344e60406060869385600f88015542601088015501518151908582526020820152a2600d8201541115613de9575b5f80613c4b565b60068101805461ff0019169055613de2565b634e487b7160e01b85526011600452602485fd5b613e18906125f7565b6107c057845f613d78565b5080613e36613e58926002880154612920565b6060860152613e49816003880154612920565b60808601526009860154612920565b610160840152613d04565b634e487b7160e01b87526011600452602487fd5b60405162461bcd60e51b815260206004820152600f60248201526e545741503a20746f6f206561726c7960881b6044820152606490fd5b50613ec26010850154600e86015490612773565b421015613c61565b613ee3915060403d6040116103bc576103ac818361261f565b505f612a51565b90600360ff7f61b9399f2f0f32ca39ce8d7be32caed5ec22fe07a6daba3a467ed479ec60658294959361ff0019811660068501551614613fc5575b600360ff600683015416141580613faa575b613f78575b81600a8201549182613f4f575b509050a2565b60010154613f70928291829182916001600160a01b03165af16121d7612794565b5f8181613f49565b600181015460038201546009830154613fa5926001600160a01b031691613f9f9190612773565b906142f8565b613f3c565b50613fbe6003820154600983015490612773565b1515613f37565b60088101548252600f60205260408220805460ff19169055613f25565b6003546001600160a01b031691823b156104bc57604051631df3cbc560e31b8152925f928492839182916140199160048401612698565b039134905af18015611e5257614030575b806129db565b61403b9192506125f7565b5f905f61402a565b1561404a57565b60405162461bcd60e51b81526020600482015260086024820152672737ba1037b832b760c11b6044820152606490fd5b1561408157565b60405162461bcd60e51b815260206004820152600f60248201526e141c9bdd1bd8dbdb081c185d5cd959608a1b6044820152606490fd5b156140bf57565b60405162461bcd60e51b815260206004820152600b60248201526a16995c9bc8185b5bdd5b9d60aa1b6044820152606490fd5b5f1981146127805760010190565b80546801000000000000000081101561260b57614122916001820181556125bf565b819291549060031b91821b915f19901b1916179055565b1561414057565b60405162461bcd60e51b815260206004820152600f60248201526e436f6f6c646f776e2061637469766560881b6044820152606490fd5b1561417e57565b60405162461bcd60e51b815260206004820152600e60248201526d14da5e99481d1bdbc81cdb585b1b60921b6044820152606490fd5b906040516101c0810181811067ffffffffffffffff82111761260b576040526101a0600c82948054845260ff600182015460018060a01b038116602087015260a01c16151560408501526002810154606085015260038101546080850152600481015460a0850152600581015460c0850152600681015460e0850152600781015461010085015260ff60088201541615156101208501526009810154610140850152600a810154610160850152600b8101546101808501520154910152565b91908110156125d45760051b0190565b81810392915f13801582851316918412161761278057565b81810292915f8212600160ff1b82141661278057818405149015171561278057565b811561292a57600160ff1b81145f19831416612780570590565b60025f54146142e65760025f55565b604051633ee5aeb560e01b8152600490fd5b6004805460405163a9059cbb60e01b81526001600160a01b0393841692810192909252602482019390935291602091839160449183915f91165af1908115611e52575f91614380575b501561434957565b60405162461bcd60e51b815260206004820152600f60248201526e151c985b9cd9995c8819985a5b1959608a1b6044820152606490fd5b90506020813d6020116143b2575b8161439b6020938361261f565b810103126104bc576143ac9061298f565b5f614341565b3d915061438e565b600160ff1b8114612780575f0390565b600154815160408084018051606086018051845163b391decf60e01b815260048101969096529115156024860152604485019190915294955f95919460209492936001600160a01b039390929186908290606490829088165afa908115614791575f91614764575b50815f821315614711575061444a612710918361293e565b04865115155f146147035761445e91612773565b9283925b88600554986144708a6140f2565b6005555f8a81526007895285812083518155838a0180516001830180548e5160ff60a01b19938a16939093166001600160a81b03199091161791151560a081901b60ff60a01b169290921790559094909291908b906144f68951958660028601558c6080840197885191826003890155600488015560a085019e8f516005890155614bff565b600684015542600784015542600c84015560088301600160ff198254161790556101a081015160098401556101c0810151600a8401556024886001541691518b519586938492637cc6765f60e11b845260048401525af19182156146f9575f926146c9575b50600b015583600154168c5185855116918c51151590885193813b156104bc578a5163b65b361f60e01b815260048101949094526001600160a01b0316602484015290151560448301526064820192909252905f908290608490829084905af180156146bf576146ac575b506145d784600254168251906142f8565b83600254169051813b15610a725782916024839289519485938492636e93ae2b60e01b845260048401525af180156146a2578b92918d91614688575b508694927f52ca44dea94749aadfaa4d3749a0323a33b3a6434adcfff52ad54c511f5579c79b999760a09b99979593614653610160614663950151614deb565b85855116815260098b5220614100565b51169951955115159051925194825196875286015284015260608301526080820152a3565b82935061469591506125f7565b6105755789908b5f614613565b86513d84823e3d90fd5b6146b79192506125f7565b5f905f6145c6565b87513d5f823e3d90fd5b9091508a81813d83116146f2575b6146e1818361261f565b810103126104bc575190600b61455b565b503d6146d7565b88513d5f823e3d90fd5b61470c91612951565b61445e565b905f8195939512614727575b5050928293614462565b6127109192945061332661473a916143ba565b04865115155f146147565761474e91612951565b915f8061471d565b61475f91612773565b61474e565b90508581813d831161478a575b61477b818361261f565b810103126104bc57515f614432565b503d614771565b83513d5f823e3d90fd5b156147a257565b60405162461bcd60e51b8152602060048201526015602482015274576f756c64206265206c6971756964617461626c6560581b6044820152606490fd5b9190915f838201938412911290801582169115161761278057565b91905f92805f5260209160078352604090815f20600881019061482060ff835416614043565b60018101805460a01c60ff1615614b1e57614851600483015461030a6148468288614283565b60028601549061429b565b600154600284018054885163e4d8cbe560e01b815260048101919091525f60248201526001600160a01b0395909390928616908b85604481855afa948515614b14575f95614ae5575b505f8c6148a961087f876141b4565b9360248d885490519485938492637cc6765f60e11b845260048401525af18015614adb57908d91614ab2575b50506148f96148ff926148f46148ed6108c1886141b4565b91886147df565b6147df565b90614283565b865460ff19169096556001548254855492549290918716803b156104bc578a5163019ca2b960e51b815260048101939093526001600160a01b0382891616602484015260a09190911c60ff16151560448301526064820192909252905f9082908183816084810103925af180156146f957614a9f575b508a8460025416600386865416930192835490823b15610441578a5163118f304360e01b81526001600160a01b039190911660048201526024810191909152604481018890529082908290606490829084905af18015614a9557614a81575b50508115159081614a6e575b50614a1b575b507f356fca566f3a054a459c7224d9c9d634f31a98835cfd4fb4c5ddbf8b96aca21195969798505416958351928352820152a3565b89908360025416803b15610a725760248392895194859384926335b8e71360e01b845260048401525af18015614a6457156149e657614a5a8a916125f7565b61043257886149e6565b86513d8c823e3d90fd5b614a799150546143ba565b84135f6149e0565b614a8a906125f7565b613bc0578a5f6149d4565b89513d84823e3d90fd5b614aaa919b506125f7565b5f995f614975565b813d8311614ad4575b614ac5818361261f565b810103126104bc578b5f6148d5565b503d614abb565b8b513d5f823e3d90fd5b9094508b81813d8311614b0d575b614afd818361261f565b810103126104bc5751935f61489a565b503d614af3565b8a513d5f823e3d90fd5b614b33600483015461030a6148468783614283565b614851565b916064602092935f60018060a01b03938460045416908560405198899788966323b872dd60e01b885216600487015216602485015260448401525af1908115611e52575f91614bc5575b5015614b8a57565b60405162461bcd60e51b8152602060048201526013602482015272151c985b9cd9995c919c9bdb4819985a5b1959606a1b6044820152606490fd5b90506020813d602011614bf7575b81614be06020938361261f565b810103126104bc57614bf19061298f565b5f614b82565b3d9150614bd3565b9192909261232890818102918183041490151715612780576001546040516335123baf60e21b81526127109283900491602090829060049082906001600160a01b03165afa908115611e52575f91614cce575b50600a810180911161278057614c6983918761293e565b0490808210614cbe57505060648402848104606414851517156127805704905b15614ca757614ca492614c9f612204928461293e565b612920565b90565b614ca492614c9f614cb8928461293e565b90612773565b614cc89250612951565b90614c89565b90506020813d602011614cf8575b81614ce96020938361261f565b810103126104bc57515f614c52565b3d9150614cdc565b614d2e63d693a40091614d296060614d1d6101a084015142612951565b920151600b549061293e565b61293e565b0490565b60018060a01b03600154169060208151602460405180958193634655f1eb60e01b835260048301525afa918215611e52575f92614db5575b50614d84670de0b6b3a76400009261018083015190614283565b604082015115614d9f576060614d9b92015161429b565b0590565b614db0906060614d9b93015161429b565b6143ba565b91506020823d602011614de3575b81614dd06020938361261f565b810103126104bc57905190614d84614d6a565b3d9150614dc3565b60015460408051631db0457960e11b815260048101939093525f9392916001600160a01b039082908490602490829085165afa928315614f21575f905f94614eff575b5080614ea8575b5082614e43575b5050509050565b6020600491600154168351928380926361d027b360e01b82525afa918215614e9f5750614e77939491614e80575b506142f8565b805f8080614e3c565b614e99915060203d60201161053257610524818361261f565b5f614e71565b513d86823e3d90fd5b614eb68183600254166142f8565b816002541690813b156104bc575f9160248392865194859384926302102c9760e11b845260048401525af180156147915715614e3557614ef79195506125f7565b5f935f614e35565b9050614f19919350823d84116103bc576103ac818361261f565b92905f614e2e565b82513d5f823e3d90fd5b614f3761087f826141b4565b90600154915f9060018060a01b0380918454604096875191637cc6765f60e11b83526004830152816024815f6020988995165af180156146bf57908491615152575b5050614f9190614f8b6108c1876141b4565b906147df565b5f8113156150c457600385018054808310156150805782614fb191612951565b9055816002541690813b156104bc575f91602483928951948593849263ff20b48d60e01b845260048401525af1801561507657615063575b505b42600c85015560015416918184546024875180968193634655f1eb60e01b835260048301525afa948515615059575093615028575b5050600b0155565b9080929350813d8311615052575b615040818361261f565b810103126104bc575190600b5f615020565b503d615036565b51903d90823e3d90fd5b61506e9193506125f7565b5f915f614fe9565b86513d5f823e3d90fd5b875162461bcd60e51b815260048101869052601f60248201527f506f736974696f6e206c6971756964617461626c652066726f6d2066656573006044820152606490fd5b825f82126150d4575b5050614feb565b6150de5f926143ba565b602484600254169189519485938492634e43a80560e11b845260048401525af1908115615076575f91615125575b5061511c60038601918254612773565b90555f826150cd565b90508281813d831161514b575b61513c818361261f565b810103126104bc57515f61510c565b503d615132565b813d8311615174575b615165818361261f565b810103126104bc57825f614f79565b503d61515b56fe401524beccff0d9dd3447788dea32e11f3b7c9618ed6084f14a773dbf2025f16a2646970667358221220d488ed1a5c116fb94f7b8e563f3625b2c09006cb6a4bdd058ac4078c023a888564736f6c63430008180033",
  "linkReferences": {},
  "deployedLinkReferences": {},
  "immutableReferences": {},
  "inputSourceName": "project/src/ConfidentialTradingV1.sol",
  "buildInfoId": "solc-0_8_24-72fc1ca1f20ee8aecdc51867a91a5c139e7f89da"
}