{
  "_format": "hh3-artifact-1",
  "contractName": "ConfidentialTrading",
  "sourceName": "src/ConfidentialTrading.sol",
  "abi": [
    {
      "inputs": [
        {
          "internalType": "address",
          "name": "_usdc",
          "type": "address"
        },
        {
          "internalType": "address",
          "name": "_core",
          "type": "address"
        },
        {
          "internalType": "address",
          "name": "_vault",
          "type": "address"
        },
        {
          "internalType": "address",
          "name": "_oracle",
          "type": "address"
        }
      ],
      "stateMutability": "nonpayable",
      "type": "constructor"
    },
    {
      "inputs": [],
      "name": "ReentrancyGuardReentrantCall",
      "type": "error"
    },
    {
      "anonymous": false,
      "inputs": [
        {
          "indexed": true,
          "internalType": "uint256",
          "name": "orderId",
          "type": "uint256"
        }
      ],
      "name": "OrderCancelled",
      "type": "event"
    },
    {
      "anonymous": false,
      "inputs": [
        {
          "indexed": true,
          "internalType": "uint256",
          "name": "orderId",
          "type": "uint256"
        },
        {
          "indexed": true,
          "internalType": "uint256",
          "name": "positionId",
          "type": "uint256"
        }
      ],
      "name": "OrderExecuted",
      "type": "event"
    },
    {
      "anonymous": false,
      "inputs": [
        {
          "indexed": true,
          "internalType": "uint256",
          "name": "orderId",
          "type": "uint256"
        },
        {
          "indexed": true,
          "internalType": "address",
          "name": "trader",
          "type": "address"
        },
        {
          "indexed": false,
          "internalType": "bytes32",
          "name": "pairId",
          "type": "bytes32"
        },
        {
          "indexed": false,
          "internalType": "uint8",
          "name": "orderType",
          "type": "uint8"
        },
        {
          "indexed": false,
          "internalType": "uint256",
          "name": "triggerPrice",
          "type": "uint256"
        }
      ],
      "name": "OrderPlaced",
      "type": "event"
    },
    {
      "anonymous": false,
      "inputs": [
        {
          "indexed": true,
          "internalType": "uint256",
          "name": "positionId",
          "type": "uint256"
        },
        {
          "indexed": true,
          "internalType": "address",
          "name": "trader",
          "type": "address"
        },
        {
          "indexed": false,
          "internalType": "uint256",
          "name": "exitPrice",
          "type": "uint256"
        },
        {
          "indexed": false,
          "internalType": "int256",
          "name": "pnl",
          "type": "int256"
        }
      ],
      "name": "PositionClosed",
      "type": "event"
    },
    {
      "anonymous": false,
      "inputs": [
        {
          "indexed": true,
          "internalType": "uint256",
          "name": "positionId",
          "type": "uint256"
        },
        {
          "indexed": true,
          "internalType": "address",
          "name": "trader",
          "type": "address"
        },
        {
          "indexed": false,
          "internalType": "uint256",
          "name": "executionPrice",
          "type": "uint256"
        },
        {
          "indexed": true,
          "internalType": "address",
          "name": "liquidator",
          "type": "address"
        },
        {
          "indexed": false,
          "internalType": "uint256",
          "name": "reward",
          "type": "uint256"
        }
      ],
      "name": "PositionLiquidated",
      "type": "event"
    },
    {
      "anonymous": false,
      "inputs": [
        {
          "indexed": true,
          "internalType": "uint256",
          "name": "positionId",
          "type": "uint256"
        },
        {
          "indexed": true,
          "internalType": "address",
          "name": "trader",
          "type": "address"
        },
        {
          "indexed": false,
          "internalType": "bytes32",
          "name": "pairId",
          "type": "bytes32"
        },
        {
          "indexed": false,
          "internalType": "bool",
          "name": "isLong",
          "type": "bool"
        },
        {
          "indexed": false,
          "internalType": "uint256",
          "name": "sizeUsd",
          "type": "uint256"
        },
        {
          "indexed": false,
          "internalType": "uint256",
          "name": "entryPrice",
          "type": "uint256"
        },
        {
          "indexed": false,
          "internalType": "uint256",
          "name": "leverage",
          "type": "uint256"
        }
      ],
      "name": "PositionOpened",
      "type": "event"
    },
    {
      "anonymous": false,
      "inputs": [
        {
          "indexed": true,
          "internalType": "uint256",
          "name": "positionId",
          "type": "uint256"
        },
        {
          "indexed": false,
          "internalType": "bool",
          "name": "isTakeProfit",
          "type": "bool"
        },
        {
          "indexed": false,
          "internalType": "uint256",
          "name": "executionPrice",
          "type": "uint256"
        }
      ],
      "name": "TPSLTriggered",
      "type": "event"
    },
    {
      "anonymous": false,
      "inputs": [
        {
          "indexed": true,
          "internalType": "uint256",
          "name": "orderId",
          "type": "uint256"
        },
        {
          "indexed": false,
          "internalType": "uint256",
          "name": "sliceNumber",
          "type": "uint256"
        },
        {
          "indexed": false,
          "internalType": "uint256",
          "name": "sizeUsd",
          "type": "uint256"
        }
      ],
      "name": "TWAPSliceExecuted",
      "type": "event"
    },
    {
      "inputs": [],
      "name": "MIN_POSITION_SIZE",
      "outputs": [
        {
          "internalType": "uint256",
          "name": "",
          "type": "uint256"
        }
      ],
      "stateMutability": "view",
      "type": "function"
    },
    {
      "inputs": [
        {
          "internalType": "uint256",
          "name": "orderId",
          "type": "uint256"
        }
      ],
      "name": "cancelOrder",
      "outputs": [],
      "stateMutability": "nonpayable",
      "type": "function"
    },
    {
      "inputs": [
        {
          "internalType": "uint256",
          "name": "positionId",
          "type": "uint256"
        },
        {
          "internalType": "bytes[]",
          "name": "updateData",
          "type": "bytes[]"
        }
      ],
      "name": "closePositionInstantly",
      "outputs": [],
      "stateMutability": "payable",
      "type": "function"
    },
    {
      "inputs": [],
      "name": "core",
      "outputs": [
        {
          "internalType": "contract ConfidentialCore",
          "name": "",
          "type": "address"
        }
      ],
      "stateMutability": "view",
      "type": "function"
    },
    {
      "inputs": [
        {
          "internalType": "uint256",
          "name": "positionId",
          "type": "uint256"
        }
      ],
      "name": "createCloseRequest",
      "outputs": [
        {
          "internalType": "uint256",
          "name": "orderId",
          "type": "uint256"
        }
      ],
      "stateMutability": "payable",
      "type": "function"
    },
    {
      "inputs": [
        {
          "internalType": "bytes32",
          "name": "pairId",
          "type": "bytes32"
        },
        {
          "internalType": "bool",
          "name": "isLong",
          "type": "bool"
        },
        {
          "internalType": "uint256",
          "name": "totalSizeUsd",
          "type": "uint256"
        },
        {
          "internalType": "uint256",
          "name": "leverage",
          "type": "uint256"
        },
        {
          "internalType": "uint256",
          "name": "slices",
          "type": "uint256"
        },
        {
          "internalType": "uint256",
          "name": "intervalSec",
          "type": "uint256"
        },
        {
          "internalType": "uint256",
          "name": "tpPrice",
          "type": "uint256"
        },
        {
          "internalType": "uint256",
          "name": "slPrice",
          "type": "uint256"
        }
      ],
      "name": "createTwapOrder",
      "outputs": [
        {
          "internalType": "uint256",
          "name": "orderId",
          "type": "uint256"
        }
      ],
      "stateMutability": "payable",
      "type": "function"
    },
    {
      "inputs": [
        {
          "internalType": "uint256",
          "name": "orderId",
          "type": "uint256"
        },
        {
          "internalType": "bytes[]",
          "name": "updateData",
          "type": "bytes[]"
        }
      ],
      "name": "executeOrder",
      "outputs": [],
      "stateMutability": "payable",
      "type": "function"
    },
    {
      "inputs": [
        {
          "internalType": "uint256",
          "name": "positionId",
          "type": "uint256"
        },
        {
          "internalType": "bytes[]",
          "name": "updateData",
          "type": "bytes[]"
        }
      ],
      "name": "executeTPSL",
      "outputs": [],
      "stateMutability": "payable",
      "type": "function"
    },
    {
      "inputs": [
        {
          "internalType": "uint256",
          "name": "positionId",
          "type": "uint256"
        },
        {
          "internalType": "bytes[]",
          "name": "updateData",
          "type": "bytes[]"
        }
      ],
      "name": "liquidate",
      "outputs": [],
      "stateMutability": "payable",
      "type": "function"
    },
    {
      "inputs": [],
      "name": "liquidationRewardBps",
      "outputs": [
        {
          "internalType": "uint256",
          "name": "",
          "type": "uint256"
        }
      ],
      "stateMutability": "view",
      "type": "function"
    },
    {
      "inputs": [],
      "name": "nextOrderId",
      "outputs": [
        {
          "internalType": "uint256",
          "name": "",
          "type": "uint256"
        }
      ],
      "stateMutability": "view",
      "type": "function"
    },
    {
      "inputs": [],
      "name": "nextPositionId",
      "outputs": [
        {
          "internalType": "uint256",
          "name": "",
          "type": "uint256"
        }
      ],
      "stateMutability": "view",
      "type": "function"
    },
    {
      "inputs": [],
      "name": "oracle",
      "outputs": [
        {
          "internalType": "contract PythPriceOracle",
          "name": "",
          "type": "address"
        }
      ],
      "stateMutability": "view",
      "type": "function"
    },
    {
      "inputs": [
        {
          "internalType": "uint256",
          "name": "",
          "type": "uint256"
        }
      ],
      "name": "pendingOrders",
      "outputs": [
        {
          "internalType": "bytes32",
          "name": "pairId",
          "type": "bytes32"
        },
        {
          "internalType": "address",
          "name": "trader",
          "type": "address"
        },
        {
          "internalType": "bool",
          "name": "isLong",
          "type": "bool"
        },
        {
          "internalType": "uint256",
          "name": "sizeUsd",
          "type": "uint256"
        },
        {
          "internalType": "uint256",
          "name": "collateral",
          "type": "uint256"
        },
        {
          "internalType": "uint256",
          "name": "leverage",
          "type": "uint256"
        },
        {
          "internalType": "uint256",
          "name": "triggerPrice",
          "type": "uint256"
        },
        {
          "internalType": "uint8",
          "name": "orderType",
          "type": "uint8"
        },
        {
          "internalType": "bool",
          "name": "isActive",
          "type": "bool"
        },
        {
          "internalType": "uint256",
          "name": "createdAt",
          "type": "uint256"
        },
        {
          "internalType": "uint256",
          "name": "positionId",
          "type": "uint256"
        },
        {
          "internalType": "uint256",
          "name": "feePaid",
          "type": "uint256"
        },
        {
          "internalType": "uint256",
          "name": "executionFee",
          "type": "uint256"
        },
        {
          "internalType": "uint256",
          "name": "tpPrice",
          "type": "uint256"
        },
        {
          "internalType": "uint256",
          "name": "slPrice",
          "type": "uint256"
        },
        {
          "internalType": "uint256",
          "name": "twapSlices",
          "type": "uint256"
        },
        {
          "internalType": "uint256",
          "name": "twapInterval",
          "type": "uint256"
        },
        {
          "internalType": "uint256",
          "name": "twapExecuted",
          "type": "uint256"
        },
        {
          "internalType": "uint256",
          "name": "twapLastExec",
          "type": "uint256"
        }
      ],
      "stateMutability": "view",
      "type": "function"
    },
    {
      "inputs": [
        {
          "internalType": "bytes32",
          "name": "pairId",
          "type": "bytes32"
        },
        {
          "internalType": "bool",
          "name": "isLong",
          "type": "bool"
        },
        {
          "internalType": "uint256",
          "name": "sizeUsd",
          "type": "uint256"
        },
        {
          "internalType": "uint256",
          "name": "leverage",
          "type": "uint256"
        },
        {
          "internalType": "uint256",
          "name": "tpPrice",
          "type": "uint256"
        },
        {
          "internalType": "uint256",
          "name": "slPrice",
          "type": "uint256"
        },
        {
          "internalType": "bytes[]",
          "name": "updateData",
          "type": "bytes[]"
        }
      ],
      "name": "placeMarketOrder",
      "outputs": [
        {
          "internalType": "uint256",
          "name": "posId",
          "type": "uint256"
        }
      ],
      "stateMutability": "payable",
      "type": "function"
    },
    {
      "inputs": [
        {
          "internalType": "bytes32",
          "name": "pairId",
          "type": "bytes32"
        },
        {
          "internalType": "bool",
          "name": "isLong",
          "type": "bool"
        },
        {
          "internalType": "uint256",
          "name": "sizeUsd",
          "type": "uint256"
        },
        {
          "internalType": "uint256",
          "name": "leverage",
          "type": "uint256"
        },
        {
          "internalType": "uint256",
          "name": "triggerPrice",
          "type": "uint256"
        },
        {
          "internalType": "uint8",
          "name": "orderType",
          "type": "uint8"
        },
        {
          "internalType": "uint256",
          "name": "tpPrice",
          "type": "uint256"
        },
        {
          "internalType": "uint256",
          "name": "slPrice",
          "type": "uint256"
        }
      ],
      "name": "placeOrder",
      "outputs": [
        {
          "internalType": "uint256",
          "name": "orderId",
          "type": "uint256"
        }
      ],
      "stateMutability": "payable",
      "type": "function"
    },
    {
      "inputs": [
        {
          "internalType": "uint256",
          "name": "",
          "type": "uint256"
        }
      ],
      "name": "positions",
      "outputs": [
        {
          "internalType": "bytes32",
          "name": "pairId",
          "type": "bytes32"
        },
        {
          "internalType": "address",
          "name": "trader",
          "type": "address"
        },
        {
          "internalType": "bool",
          "name": "isLong",
          "type": "bool"
        },
        {
          "internalType": "uint256",
          "name": "sizeUsd",
          "type": "uint256"
        },
        {
          "internalType": "uint256",
          "name": "collateral",
          "type": "uint256"
        },
        {
          "internalType": "uint256",
          "name": "entryPrice",
          "type": "uint256"
        },
        {
          "internalType": "uint256",
          "name": "leverage",
          "type": "uint256"
        },
        {
          "internalType": "uint256",
          "name": "liquidationPrice",
          "type": "uint256"
        },
        {
          "internalType": "uint256",
          "name": "openedAt",
          "type": "uint256"
        },
        {
          "internalType": "bool",
          "name": "isOpen",
          "type": "bool"
        },
        {
          "internalType": "uint256",
          "name": "tpPrice",
          "type": "uint256"
        },
        {
          "internalType": "uint256",
          "name": "slPrice",
          "type": "uint256"
        },
        {
          "internalType": "int256",
          "name": "entryFundingIndex",
          "type": "int256"
        }
      ],
      "stateMutability": "view",
      "type": "function"
    },
    {
      "inputs": [],
      "name": "rolloverFeePerHour",
      "outputs": [
        {
          "internalType": "uint256",
          "name": "",
          "type": "uint256"
        }
      ],
      "stateMutability": "view",
      "type": "function"
    },
    {
      "inputs": [
        {
          "internalType": "uint256",
          "name": "positionId",
          "type": "uint256"
        },
        {
          "internalType": "uint256",
          "name": "newTpPrice",
          "type": "uint256"
        },
        {
          "internalType": "uint256",
          "name": "newSlPrice",
          "type": "uint256"
        }
      ],
      "name": "updateTpSl",
      "outputs": [],
      "stateMutability": "nonpayable",
      "type": "function"
    },
    {
      "inputs": [],
      "name": "usdc",
      "outputs": [
        {
          "internalType": "contract IERC20",
          "name": "",
          "type": "address"
        }
      ],
      "stateMutability": "view",
      "type": "function"
    },
    {
      "inputs": [
        {
          "internalType": "address",
          "name": "",
          "type": "address"
        },
        {
          "internalType": "uint256",
          "name": "",
          "type": "uint256"
        }
      ],
      "name": "userOrders",
      "outputs": [
        {
          "internalType": "uint256",
          "name": "",
          "type": "uint256"
        }
      ],
      "stateMutability": "view",
      "type": "function"
    },
    {
      "inputs": [
        {
          "internalType": "address",
          "name": "",
          "type": "address"
        },
        {
          "internalType": "uint256",
          "name": "",
          "type": "uint256"
        }
      ],
      "name": "userPositions",
      "outputs": [
        {
          "internalType": "uint256",
          "name": "",
          "type": "uint256"
        }
      ],
      "stateMutability": "view",
      "type": "function"
    },
    {
      "inputs": [],
      "name": "vault",
      "outputs": [
        {
          "internalType": "contract ConfidentialVault",
          "name": "",
          "type": "address"
        }
      ],
      "stateMutability": "view",
      "type": "function"
    }
  ],
  "bytecode": "0x608034620000de57601f6200411a38819003918201601f19168301916001600160401b03831184841017620000e257808492608094604052833981010312620000de576200004d81620000f6565b906200005c60208201620000f6565b6200007860606200007060408501620000f6565b9301620000f6565b9060015f55600160055560016006556014600b556064600c5560018060a01b03928380928160018060a01b0319971687600454161760045516856001541617600155168360025416176002551690600354161760035560405161400e90816200010c8239f35b5f80fd5b634e487b7160e01b5f52604160045260245ffd5b51906001600160a01b0382168203620000de5756fe60e0806040526004361015610012575f80fd5b5f905f3560e01c9081632a58b3301461322d5750806333e7dddb14611d9a578063368dbba814611d7c5780633ae95909146115095780633e413bee146114e057806341aa303b1461147a578063514fcac7146112f45780635e1b4d99146112b65780636fb197f714610f8d5780637dc0d1d014610f6457806380b7425814610d67578063856652e914610d1b578063899346c714610cfd5780638fb735ee14610cdf57806399fbab8814610c1c5780639bfe7e3e14610a8c578063c09403ac1461075a578063c3aaea4e14610617578063effaed89146105f9578063f2f4eb26146105d0578063f5ba8a2a1461042e578063f6614170146101465763fbfa77cf1461011b575f80fd5b346101435780600319360112610143576002546040516001600160a01b039091168152602090f35b80fd5b508061015136613278565b9061015d939293613794565b816103cc575b505090806024925260076020526040832090600882019182549261018960ff851661368d565b6003548254604080516331d98b3f60e01b815260048101839052976001600160a01b039592949293899190829088165afa9687156103c157889761038f575b506001820192835460ff8160a01c1691825f146103825760068501548a11155b1561034a578460038c9601946127106102058754600c54906136fc565b049a60ff191690556002886001541691015492813b156103465760405163019ca2b960e51b8152600481019390935288166001600160a01b03166024830152921515604482015260648101919091529083908290608490829084905af190811561033b578391610323575b5050836002541690848454169054823b1561031f57608484928360405195869485936309c0533b60e01b8552600485015233602485015260448401528b60648401525af18015610314576102fc575b505054169160405193845260208401527f3b7bc7c0fdc798ac653b9f0d6d28adb2293a55402d32c21d323da740ccc6553960403394a46001815580f35b6103059061330a565b61031057855f6102bf565b8580fd5b6040513d84823e3d90fd5b8380fd5b61032c9061330a565b61033757815f610270565b5080fd5b6040513d85823e3d90fd5b8680fd5b60405162461bcd60e51b815260206004820152601060248201526f4e6f74206c6971756964617461626c6560801b6044820152606490fd5b60068501548a10156101e8565b6103b291975060403d6040116103ba575b6103aa818361334f565b81019061344c565b50955f6101c8565b503d6103a0565b6040513d8a823e3d90fd5b6003546001600160a01b031691823b1561031f57604051631df3cbc560e31b81529284928492839182916104039160048401613371565b039134905af180156103145761041a575b80610163565b6104239061330a565b61033757815f610414565b5061043836613278565b9190610442613794565b818452600760205283604081209361046060ff60088701541661368d565b60018501546001600160a01b03939061047c90851633146136c4565b600460078701546020866001541660405193848092636d78097360e11b82525afa9182156105c5578592610588575b506104c1916104b991613462565b421015613756565b8161052d575b50505060409060035416925460248251809581936331d98b3f60e01b835260048301525afa90811561033b5761050492849261050b575b506138e8565b6001815580f35b61052591925060403d6040116103ba576103aa818361334f565b50905f6104fe565b836003541691823b1561031f57604051631df3cbc560e31b815292849284928391829161055d9160048401613371565b039134905af1801561031457610574575b806104c7565b61057d9061330a565b61031f57835f61056e565b945090506020843d6020116105bd575b816105a56020938361334f565b810103126105b957925187936104b96104ab565b5f80fd5b3d9150610598565b6040513d87823e3d90fd5b50346101435780600319360112610143576001546040516001600160a01b039091168152602090f35b50346101435780600319360112610143576020600c54604051908152f35b503461014357602036600319011261014357600435815260086020526040902080808054600182015460c05260028201546003830154600484015460058501546006860154600787015490600888015492600989015494600a8a015496600b8b015498600c8c01549a600d8d01549c600e01549d600f01549e6010015460805260405160a05260a05152600160a01b6001900360c0511660a0516020015260c05160a01c60ff16151560a0516040015260a0516060015260a0516080015260a05160a0015260a05160c0015260ff811660a05160e0015260081c60ff16151560a051610100015260a051610120015260a051610140015260a051610160015260a051610180015260a0516101a0015260a0516101c0015260a0516101e0015260a051610200015260a051610220015260805160a051610240015260a05161026090f35b50610100366003190112610143576107706132ac565b9060a4359060ff8216820361014357610787613794565b6107986298968060443510156135d2565b600160ff831611610a475760c435610a02575b60e4356109bd575b6001546001600160a01b031692833b156103375760405163bd79156f60e01b8152600480359082015233602482015281151560448083019190915235606480830191909152356084820152828160a481885afa801561033b576109a9575b506020604493946040519485809263e4d8cbe560e01b82528235600483015260ff89161560248301525afa928315610314578293610972575b5090602093600192610860606435604435613568565b9461087561086e8288613462565b3033613d73565b600654956108828761370f565b60065586855260088852604085206004358155868101805460ff60a01b1933166001600160a81b03199091161794151560a01b60ff60a01b169490941790935560443560028401556003830155606435600483015560843560058301556006820161010060ff851661ffff1983541617179055426007830155600982015534600a82015560c435600b820155600c60e435910155338252600a855261092a846040842061371d565b60ff60405191600435835216858201526084356040820152837f401524beccff0d9dd3447788dea32e11f3b7c9618ed6084f14a773dbf2025f1660603393a355604051908152f35b919092506020823d6020116109a1575b8161098f6020938361334f565b810103126105b957905191602061084a565b3d9150610982565b6109b3839161330a565b610337575f610811565b82156109ec5760843560e4351080156109df575b6109da9061364e565b6107b3565b5060ff82166002146109d1565b60843560e4351180156109df576109da9061364e565b8215610a315760843560c435118015610a24575b610a1f9061360f565b6107ab565b5060ff8216600214610a16565b60843560c435108015610a2457610a1f9061360f565b60405162461bcd60e51b815260206004820152601f60248201527f55736520706c6163654d61726b65744f7264657220666f72206d61726b6574006044820152606490fd5b50602090816003193601126101435760043590610aa7613794565b818152600783526040812060ff60088201541615610be3579060049160018060a01b03610adb8160018401541633146136c4565b856007830154916001541660405195868092636d78097360e11b82525afa93841561033b578394610bb2575b506104b9600194610b1792613462565b60065493610b248561370f565b600655848352600886526040832090848201336bffffffffffffffffffffffff60a01b8254161790556006820161010361ffff198254161790554260078301556008820155600a3491015554604051908152600385820152816040820152837f401524beccff0d9dd3447788dea32e11f3b7c9618ed6084f14a773dbf2025f1660603393a355604051908152f35b93508584813d8311610bdc575b610bc9818361334f565b810103126105b9579251926104b9610b07565b503d610bbf565b60405162461bcd60e51b81526004810185905260116024820152702837b9b4ba34b7b7103737ba1037b832b760791b6044820152606490fd5b50346101435760203660031901126101435760406101a0916004358152600760205220805490600181015490600281015460038201546004830154600584015460068501549060078601549260ff6008880154169460098801549660ff600b600a8b01549a01549a6040519c8d528c602060018060a01b03831691015260a01c16151560408c015260608b015260808a015260a089015260c088015260e08701526101008601521515610120850152610140840152610160830152610180820152f35b50346101435780600319360112610143576020600b54604051908152f35b50346101435780600319360112610143576020600554604051908152f35b503461014357610d2a366132bb565b6001600160a01b039091168252600a60205260408220805491929091831015610143576020610d5984846132e1565b90546040519160031b1c8152f35b5080610d7236613278565b90610d7e939293613794565b81610f02575b505081905260076020526040822090610da360ff60088401541661368d565b60018060a01b0360035416906040835460248251809581936331d98b3f60e01b835260048301525afa918215610ef7578492610ed5575b50838493600981015480610eaa575b50811580610e9d575b610e73575b5015610e3857807fac4fd466c8f994e08ce2eb9141c2f01f2a779a3537d9bd71fa8762df3d12842c60406105049581519015158152856020820152a26138e8565b60405162461bcd60e51b815260206004820152601360248201527215140bd4d3081b9bdd081d1c9a59d9d95c9959606a1b6044820152606490fd5b6001810154600a925060a01c60ff1615610e935701548211155b5f610df7565b0154821015610e8d565b50600a8101541515610df2565b9150935060ff600185015460a01c165f14610ecc57821015925b83905f610de9565b82111592610ec4565b610eef91925060403d6040116103ba576103aa818361334f565b50905f610dda565b6040513d86823e3d90fd5b6003546001600160a01b031691823b1561031f57604051631df3cbc560e31b8152928492849283918291610f399160048401613371565b039134905af1801561031457610f50575b80610d84565b610f599061330a565b61033757815f610f4a565b50346101435780600319360112610143576003546040516001600160a01b039091168152602090f35b506101003660031901126101435760043590610fa76132ac565b9160443591606435916084359460a43590610fc0613794565b6002871015806112ab575b1561127557603c821061123d576298968087810290810488036112295786106111ed576001546001600160a01b031696873b156111de5760405163bd79156f60e01b81526004810185905233602482015282151560448201526064810188905260848101879052858160a4818c5afa80156111e2579086916111ca575b50506110548688613568565b9760405198899163e4d8cbe560e01b835289600484015287602484015282604460209c8d935afa9182156111bf578792611189575b5090600197826110a061086e84600e989796613462565b6006549a6110ad8c61370f565b6006558b8a5260088d5260408a208981558b8101805460ff60a01b1933166001600160a81b03199091161797151560a01b60ff60a01b16979097179096556002860155600385015560048401556006830161010461ffff19825416179055426007840155600983015534600a83015560c435600b83015560e435600c830155600d8201550155338252600a8552611147846040842061371d565b604051908152600485820152816040820152837f401524beccff0d9dd3447788dea32e11f3b7c9618ed6084f14a773dbf2025f1660603393a355604051908152f35b939291508984813d83116111b8575b6111a2818361334f565b810103126105b957925191929091906001611089565b503d611198565b6040513d89823e3d90fd5b6111d39061330a565b6111de57845f611048565b8480fd5b6040513d88823e3d90fd5b60405162461bcd60e51b815260206004820152601460248201527314db1a58d9481cda5e99481d1bdbc81cdb585b1b60621b6044820152606490fd5b634e487b7160e01b85526011600452602485fd5b60405162461bcd60e51b815260206004820152601060248201526f135a5b880d8c1cc81a5b9d195c9d985b60821b6044820152606490fd5b60405162461bcd60e51b815260206004820152600e60248201526d496e76616c696420736c6963657360901b6044820152606490fd5b506064871115610fcb565b5034610143576112c5366132bb565b6001600160a01b039091168252600960205260408220805491929091831015610143576020610d5984846132e1565b503461014357602036600319011261014357600435611311613794565b808252600860205281600a6040822060ff60068201805490611337838360081c16613413565b61134e60018060a01b0360018601541633146136c4565b61ff0019821690551660021981016113eb575b50015480611396575b50807f61b9399f2f0f32ca39ce8d7be32caed5ec22fe07a6daba3a467ed479ec60658291a26001815580f35b81808092335af16113a5613586565b50156113b257815f61136a565b60405162461bcd60e51b8152602060048201526011602482015270115512081c99599d5b990819985a5b1959607a1b6044820152606490fd5b60038201546004600984015492148061146d575b611433575b61140e8282613462565b611419575b50611361565b61142c9161142691613462565b33613cc5565b5f80611413565b6114679061145c600d850154916114618361145c611455600f8a0154836135c5565b80946136fc565b613568565b946136fc565b90611404565b50600f83015415156113ff565b503461014357606036600319011261014357611494613794565b60043581526007602052604081206114b260ff60088301541661368d565b6114c960018060a01b0360018301541633146136c4565b6024356009820155600a6044359101556001815580f35b50346101435780600319360112610143576004546040516001600160a01b039091168152602090f35b5060e03660031901126101435761151e6132ac565b8160c43567ffffffffffffffff81116103375761153f903690600401613247565b90611548613794565b6115596298968060443510156135d2565b81611d1a575b5050600354604080516331d98b3f60e01b81526004803590820152925090829060249082906001600160a01b03165afa90811561033b578391611cfa575b50608435611cd5575b60a435611cb0575b6001546001600160a01b031691823b1561031f5760405163bd79156f60e01b81526004803590820152336024820152811515604480830191909152356064808301919091523560848201528490818160a481885afa801561031457611c9c575b505060206044936040519485809263e4d8cbe560e01b8252823560048301528860248301525afa928315610ef7578493611c68575b50611652606435604435613568565b9261166061086e8286613462565b6040519361166d85613332565b8560c0860152856101208601528561014086015285610180860152856101e0860152856102008601528561022086015285610240860152600435855233602086015282151560408601526044356060860152608085015260643560a0850152600260e085015260016101008501526101608401526084356101a084015260a4356101c0840152602060018060a01b03600154169160646040518094819363b391decf60e01b835260043560048401521515602483015260443560448301525afa908115610ef7578491611c36575b508184821315611be2575061175361271091836136fc565b04604083015115155f14611bd45761176a91613462565b600554906117778261370f565b6005558184526007602090815260408086208551815591850151600183018054928701516001600160a81b03199093166001600160a01b03929092169190911791151560a081901b60ff60a01b169290921790558591906117fe905b606087015160028401556080870151600384015584600484015560a087015180600585015585613e1f565b600682015542600782015560088101600160ff198254161790556101a085015160098201556101c0850151600a820155602060018060a01b0360015416602487516040519586938492637cc6765f60e11b845260048401525af19182156111e2578692611b9f575b50600b015560015483516020850151604086015160608701518894909392911515916001600160a01b039182169116813b156103105760405163b65b361f60e01b815260048101949094526001600160a01b03166024840152901515604483015260648201929092529082908290608490829084905af1801561031457611b8b575b50506002546080840151611904916001600160a01b0316613cc5565b600254608084015185916001600160a01b031690813b15611b42578291602483926040519485938492636e93ae2b60e01b845260048401525af1801561031457611b77575b505061016083015160015460408051631db0457960e11b815260048101939093528691839060249082906001600160a01b03165afa918215611b6a5781908293611b46575b5080611ad9575b505080611a3c575b5060a05f80516020613fb983398151915291600180831b03602086015116865260096020526119cf846040882061371d565b600180831b03602086015116948051916040820151151591846060820151910151926040519485526020850152604084015260608301526080820152a36005545f198101908111611a2857600160209255604051908152f35b634e487b7160e01b82526011600452602482fd5b6001546040516361d027b360e01b815290602090829060049082906001600160a01b03165afa9081156111e2578691611a93575b5091611a8c60a0925f80516020613fb983398151915294613cc5565b915061199d565b90506020813d602011611ad1575b81611aae6020938361334f565b810103126103105751916001600160a01b03831683036103105791611a8c611a70565b3d9150611aa1565b600254611af09082906001600160a01b0316613cc5565b6002546001600160a01b031690813b15611b425782916024839260405194859384926302102c9760e11b845260048401525af18015610314571561199557611b379061330a565b6111de57845f611995565b8280fd5b9050611b6291925060403d6040116103ba576103aa818361334f565b91905f61198e565b50604051903d90823e3d90fd5b611b809061330a565b61031f57835f611949565b611b949061330a565b61031f57835f6118e8565b9091506020813d602011611bcc575b81611bbb6020938361334f565b810103126105b9575190600b611866565b3d9150611bae565b611bdd916135c5565b61176a565b90848112611bf2575b505061176a565b612710919250611c04611c0a916137b5565b836136fc565b04604083015115155f14611c2857611c21916135c5565b5f80611beb565b611c3191613462565b611c21565b90506020813d602011611c60575b81611c516020938361334f565b810103126105b957515f61173b565b3d9150611c44565b9092506020813d602011611c94575b81611c846020938361334f565b810103126105b95751915f611643565b3d9150611c77565b611ca59061330a565b61031f57835f61160e565b8115611cc857611cc38160a4351061364e565b6115ae565b611cc38160a4351161364e565b8115611ced57611ce8816084351161360f565b6115a6565b611ce8816084351061360f565b611d13915060403d6040116103ba576103aa818361334f565b505f61159d565b6003546001600160a01b031691823b1561031f57604051631df3cbc560e31b8152928492849283918291611d519160048401613371565b039134905af1801561031457611d68575b8061155f565b611d719061330a565b61033757815f611d62565b50346101435780600319360112610143576020604051629896808152f35b50611da436613278565b90611dad613794565b816131c1575b50508082526008602052604082206006810154611dd560ff8260081c16613413565b60018060a01b0360035416906040835460248251809581936331d98b3f60e01b835260048301525afa9182156105c557859261319c575b5060ff16806124de5750600182015460a01c60ff16156124d15760058201548111155b1561249857611e3d82613483565b9060018060a01b03600154166020835160646040860151151591606087015194604051958694859363b391decf60e01b85526004850152602484015260448301525afa9081156111e2578691612466575b5081868213156124185750611ea661271091836136fc565b04604083015115155f1461240a57611ebd91613462565b60055490611eca8261370f565b6005558186526007602090815260408088208551815591850151600183018054928701516001600160a81b03199093166001600160a01b03929092169190911791151560a081901b60ff60a01b16929092179055879190611f2a906117d3565b600682015542600782015560088101600160ff198254161790556101a085015160098201556101c0850151600a820155602060018060a01b0360015416602487516040519586938492637cc6765f60e11b845260048401525af19182156103c15788926123d5575b50600b015560015483516020850151604086015160608701518a94909392911515916001600160a01b039182169116813b156103105760405163b65b361f60e01b815260048101949094526001600160a01b03166024840152901515604483015260648201929092529082908290608490829084905af18015610314576123c1575b50506002546080840151612030916001600160a01b0316613cc5565b600254608084015187916001600160a01b031690813b15611b42578291602483926040519485938492636e93ae2b60e01b845260048401525af18015610314576123ad575b505061016083015160015460408051631db0457960e11b815260048101939093528891839060249082906001600160a01b03165afa918215611b6a5781908293612389575b5080612320575b50508061227f575b5060a05f80516020613fb983398151915291600180831b03602086015116885260096020526120fb8460408a2061371d565b600180831b03602086015116948051916040820151151591846060820151910151926040519485526020850152604084015260608301526080820152a360068101805461ff00191690555b82600a820154806121d3575b5050600681015460ff8160081c161561216e575b836001815580f35b60ff166003036121aa5760080154905b7f9947370f1e808dd40de986fca744d8715d4d7aa575359f77a7bdeeb887f590ea8380a35f8080612166565b506005545f1981019081116121bf579061217e565b634e487b7160e01b83526011600452602483fd5b81906006840154600460ff82161480612272575b1561225857506121fd9150600d84015490613568565b80156121525781808092335af1612212613586565b501561221f57825f612152565b60405162461bcd60e51b815260206004820152601160248201527012d9595c195c881999594819985a5b1959607a1b6044820152606490fd5b60081c60ff161561226a575b506121fd565b90505f612264565b50600d85015415156121e7565b6001546040516361d027b360e01b815290602090829060049082906001600160a01b03165afa9081156103c15788916122d6575b50916122cf60a0925f80516020613fb983398151915294613cc5565b91506120c9565b90506020813d602011612318575b816122f16020938361334f565b810103126123145751916001600160a01b038316830361231457916122cf6122b3565b8780fd5b3d91506122e4565b6002546123379082906001600160a01b0316613cc5565b6002546001600160a01b031690813b15611b425782916024839260405194859384926302102c9760e11b845260048401525af1801561031457156120c15761237e9061330a565b61034657865f6120c1565b90506123a591925060403d6040116103ba576103aa818361334f565b91905f6120ba565b6123b69061330a565b61031057855f612075565b6123ca9061330a565b61031057855f612014565b9091506020813d602011612402575b816123f16020938361334f565b810103126105b9575190600b611f92565b3d91506123e4565b612413916135c5565b611ebd565b90868112612428575b5050611ebd565b612710919250611c0461243a916137b5565b04604083015115155f1461245857612451916135c5565b5f80612421565b61246191613462565b612451565b90506020813d602011612490575b816124816020938361334f565b810103126105b957515f611e8e565b3d9150612474565b60405162461bcd60e51b8152602060048201526011602482015270131a5b5a5d081b9bdd081c995858da1959607a1b6044820152606490fd5b6005820154811015611e2f565b60018103612a755750600182015460a01c60ff1615612a685760058201548110155b15612a305761250e82613483565b9060018060a01b03600154166020835160646040860151151591606087015194604051958694859363b391decf60e01b85526004850152602484015260448301525afa9081156111e25786916129fe575b5081868213156129b0575061257761271091836136fc565b04604083015115155f146129a25761258e91613462565b6005549061259b8261370f565b6005558186526007602090815260408088208551815591850151600183018054928701516001600160a81b03199093166001600160a01b03929092169190911791151560a081901b60ff60a01b169290921790558791906125fb906117d3565b600682015542600782015560088101600160ff198254161790556101a085015160098201556101c0850151600a820155602060018060a01b0360015416602487516040519586938492637cc6765f60e11b845260048401525af19182156103c157889261296d575b50600b015560015483516020850151604086015160608701518a94909392911515916001600160a01b039182169116813b156103105760405163b65b361f60e01b815260048101949094526001600160a01b03166024840152901515604483015260648201929092529082908290608490829084905af1801561031457612959575b50506002546080840151612701916001600160a01b0316613cc5565b600254608084015187916001600160a01b031690813b15611b42578291602483926040519485938492636e93ae2b60e01b845260048401525af1801561031457612945575b505061016083015160015460408051631db0457960e11b815260048101939093528891839060249082906001600160a01b03165afa918215611b6a5781908293612921575b50806128b8575b50508061281b575b5060a05f80516020613fb983398151915291600180831b03602086015116885260096020526127cc8460408a2061371d565b600180831b03602086015116948051916040820151151591846060820151910151926040519485526020850152604084015260608301526080820152a360068101805461ff0019169055612146565b6001546040516361d027b360e01b815290602090829060049082906001600160a01b03165afa9081156103c1578891612872575b509161286b60a0925f80516020613fb983398151915294613cc5565b915061279a565b90506020813d6020116128b0575b8161288d6020938361334f565b810103126123145751916001600160a01b0383168303612314579161286b61284f565b3d9150612880565b6002546128cf9082906001600160a01b0316613cc5565b6002546001600160a01b031690813b15611b425782916024839260405194859384926302102c9760e11b845260048401525af180156103145715612792576129169061330a565b61034657865f612792565b905061293d91925060403d6040116103ba576103aa818361334f565b91905f61278b565b61294e9061330a565b61031057855f612746565b6129629061330a565b61031057855f6126e5565b9091506020813d60201161299a575b816129896020938361334f565b810103126105b9575190600b612663565b3d915061297c565b6129ab916135c5565b61258e565b908681126129c0575b505061258e565b612710919250611c046129d2916137b5565b04604083015115155f146129f0576129e9916135c5565b5f806129b9565b6129f991613462565b6129e9565b90506020813d602011612a28575b81612a196020938361334f565b810103126105b957515f61255f565b3d9150612a0c565b60405162461bcd60e51b815260206004820152601060248201526f14dd1bdc081b9bdd081c995858da195960821b6044820152606490fd5b6005820154811115612500565b60028103612b2b5750600182015460ff8160a01c165f14612b1e5760058301548211155b8015612b12575b15612ac1575061250e82613483565b60068101805461ff0019169055612146565b612ae89150612ad96003840154600985015490613462565b906001600160a01b0316613cc5565b817f61b9399f2f0f32ca39ce8d7be32caed5ec22fe07a6daba3a467ed479ec6065828480a2612aaf565b50600583015415612aa0565b6005830154821015612a99565b60038103612b425750612aaf9060088301546138e8565b600414612b50575b50612146565b600f820154158015613180575b1561314957612b6b82613483565b90612ba56002840154612b83600d8601548092613568565b6060850152612b96816003870154613568565b60808501526009850154613568565b61016083015260015482516040808501516060860151915163b391decf60e01b8152600481019390935215156024830152604482015290602090829060649082906001600160a01b03165afa9081156111e2578691613117575b5081868213156130c95750612c1761271091836136fc565b04604083015115155f146130bb57612c2e91613462565b600554612c3a8161370f565b6005558086526007602090815260408088208551815591850151600183018054928701516001600160a81b03199093166001600160a01b03929092169190911791151560a081901b60ff60a01b16929092179055879190612cc090606087015160028401556080870151600384015585600484015560a087015180600585015586613e1f565b600682015542600782015560088101600160ff198254161790556101a085015160098201556101c0850151600a820155602060018060a01b0360015416602487516040519586938492637cc6765f60e11b845260048401525af19182156103c1578892613086575b50600b015560015483516020850151604086015160608701518a94909392911515916001600160a01b039182169116813b156103105760405163b65b361f60e01b815260048101949094526001600160a01b03166024840152901515604483015260648201929092529082908290608490829084905af1801561031457613072575b50506002546080840151612dc6916001600160a01b0316613cc5565b600254608084015187916001600160a01b031690813b15611b42578291602483926040519485938492636e93ae2b60e01b845260048401525af180156103145761305e575b505061016083015160015460408051631db0457960e11b815260048101939093528891839060249082906001600160a01b03165afa918215611b6a578190829361303a575b5080612fd1575b505080612f47575b506020838101516001600160a01b031687526009905260408620612e8490829061371d565b5f80516020613fb983398151915260a0600180821b03602086015116938551906040870151151590606088015184890151926040519485526020850152604084015260608301526080820152a3600f8201549060018201809211611229577f098dc6c1012d2fb4cc0470ec0f1b82ad9eaf354865d76ebad869d83f1559344e60406060869385600f88015542601088015501518151908582526020820152a2600d8201541115612f35575b5f612b4a565b60068101805461ff0019169055612f2f565b6001546040516361d027b360e01b81529190602090839060049082906001600160a01b03165afa80156103c1578890612f8b575b612f859250613cc5565b5f612e5f565b50906020813d602011612fc9575b81612fa66020938361334f565b810103126123145751906001600160a01b038216820361231457612f8591612f7b565b3d9150612f99565b600254612fe89082906001600160a01b0316613cc5565b6002546001600160a01b031690813b15611b425782916024839260405194859384926302102c9760e11b845260048401525af180156103145715612e575761302f9061330a565b61034657865f612e57565b905061305691925060403d6040116103ba576103aa818361334f565b91905f612e50565b6130679061330a565b61031057855f612e0b565b61307b9061330a565b61031057855f612daa565b9091506020813d6020116130b3575b816130a26020938361334f565b810103126105b9575190600b612d28565b3d9150613095565b6130c4916135c5565b612c2e565b908681126130d9575b5050612c2e565b612710919250611c046130eb916137b5565b04604083015115155f1461310957613102916135c5565b5f806130d2565b61311291613462565b613102565b90506020813d602011613141575b816131326020938361334f565b810103126105b957515f612bff565b3d9150613125565b60405162461bcd60e51b815260206004820152600f60248201526e545741503a20746f6f206561726c7960881b6044820152606490fd5b506131946010830154600e84015490613462565b421015612b5d565b60ff9192506131b99060403d6040116103ba576103aa818361334f565b509190611e0c565b6003546001600160a01b031691823b156105b957604051631df3cbc560e31b8152925f928492839182916131f89160048401613371565b039134905af180156132225761320f575b80611db3565b61321a91925061330a565b5f905f613209565b6040513d5f823e3d90fd5b346105b9575f3660031901126105b9576020906006548152f35b9181601f840112156105b95782359167ffffffffffffffff83116105b9576020808501948460051b0101116105b957565b9060406003198301126105b957600435916024359067ffffffffffffffff82116105b9576132a891600401613247565b9091565b6024359081151582036105b957565b60409060031901126105b9576004356001600160a01b03811681036105b9579060243590565b80548210156132f6575f5260205f2001905f90565b634e487b7160e01b5f52603260045260245ffd5b67ffffffffffffffff811161331e57604052565b634e487b7160e01b5f52604160045260245ffd5b610260810190811067ffffffffffffffff82111761331e57604052565b90601f8019910116810190811067ffffffffffffffff82111761331e57604052565b9160208181850182865252604084019360408360051b82010194845f925b8584106133a0575050505050505090565b90919293949596603f198282030184528735601e19843603018112156105b957830186810191903567ffffffffffffffff81116105b95780360383136105b95787828280600196849695859652848401375f828201840152601f01601f191601019901979695919091019301919061338f565b1561341a57565b60405162461bcd60e51b815260206004820152600a6024820152694e6f742061637469766560b01b6044820152606490fd5b91908260409103126105b9576020825192015190565b9190820180921161346f57565b634e487b7160e01b5f52601160045260245ffd5b9060405161349081613332565b610240601082948054845260ff600182015460018060a01b038116602087015260a01c16151560408501526002810154606085015260038101546080850152600481015460a0850152600581015460c085015260ff600682015481811660e087015260081c161515610100850152600781015461012085015260088101546101408501526009810154610160850152600a810154610180850152600b8101546101a0850152600c8101546101c0850152600d8101546101e0850152600e810154610200850152600f8101546102208501520154910152565b8115613572570490565b634e487b7160e01b5f52601260045260245ffd5b3d156135c0573d9067ffffffffffffffff821161331e57604051916135b5601f8201601f19166020018461334f565b82523d5f602084013e565b606090565b9190820391821161346f57565b156135d957565b60405162461bcd60e51b815260206004820152600e60248201526d14da5e99481d1bdbc81cdb585b1b60921b6044820152606490fd5b1561361657565b60405162461bcd60e51b815260206004820152601060248201526f496e76616c696420545020707269636560801b6044820152606490fd5b1561365557565b60405162461bcd60e51b815260206004820152601060248201526f496e76616c696420534c20707269636560801b6044820152606490fd5b1561369457565b60405162461bcd60e51b81526020600482015260086024820152672737ba1037b832b760c11b6044820152606490fd5b156136cb57565b60405162461bcd60e51b81526020600482015260096024820152682737ba1037bbb732b960b91b6044820152606490fd5b8181029291811591840414171561346f57565b5f19811461346f5760010190565b80546801000000000000000081101561331e5761373f916001820181556132e1565b819291549060031b91821b915f19901b1916179055565b1561375d57565b60405162461bcd60e51b815260206004820152600f60248201526e436f6f6c646f776e2061637469766560881b6044820152606490fd5b60025f54146137a35760025f55565b604051633ee5aeb560e01b8152600490fd5b600160ff1b811461346f575f0390565b81810392915f13801582851316918412161761346f57565b81810292915f8212600160ff1b82141661346f57818405149015171561346f57565b811561357257600160ff1b81145f1983141661346f570590565b906040516101a0810181811067ffffffffffffffff82111761331e57604052610180600b82948054845260ff600182015460018060a01b038116602087015260a01c16151560408501526002810154606085015260038101546080850152600481015460a0850152600581015460c0850152600681015460e0850152600781015461010085015260ff60088201541615156101208501526009810154610140850152600a8101546101608501520154910152565b9190915f838201938412911290801582169115161761346f57565b91905f92805f5260209160078352604090815f206008810161390d60ff82541661368d565b60018201805460a01c60ff1615613c9257613943600484015461393e61393382886137c5565b6002870154906137dd565b6137ff565b925b60018060a01b0392836001541690600283019283549389519363e4d8cbe560e01b8552600495868601525f60248601528c85604481845afa948515613c88578b918e915f97613c55575b50905f91602463d693a4006139cb6139a689613819565b6139c660606139ba610100840151426135c5565b920151600b54906136fc565b6136fc565b0494875490519485938492637cc6765f60e11b84528d8401525af18015613c4b57908e91613c22575b5050613a1d613a2391613a18613a11613a0c87613819565b613eff565b91886138cd565b6138cd565b896137c5565b835460ff191690935560015482548754925490918916803b156105b9578c5163019ca2b960e51b81528089019384526001600160a01b03858c1616602085015260a09490941c60ff161515604084015260608301919091525f9183919082908490829060800103925af18015613c1857613c03575b50908c91828213613ba8575b866002541660038888541692015490803b156111de578492836064928e51968795869463118f304360e01b86528c860152602485015260448401525af18015613b9e57613b86575b505080613b2a575b50507f356fca566f3a054a459c7224d9c9d634f31a98835cfd4fb4c5ddbf8b96aca21195969798505416958351928352820152a3565b8a90846002541692833b15611b4257602490838a5195869485936335b8e71360e01b85528401525af18015613b7c57613b64575b80613af4565b613b6e8a9161330a565b613b785788613b5e565b8880fd5b86513d8c823e3d90fd5b613b8f9061330a565b613b9a578a5f613aec565b8a80fd5b89513d84823e3d90fd5b8660015416803b1561031f5783809160248d518094819363630304f960e11b8352888c8401525af18015613bf957908491613be5575b5050613aa4565b613bee9061330a565b611b4257825f613bde565b8b513d86823e3d90fd5b613c0f91929d5061330a565b5f9b905f613a98565b8a513d5f823e3d90fd5b813d8311613c44575b613c35818361334f565b810103126105b9578c5f6139f4565b503d613c2b565b8c513d5f823e3d90fd5b9250955081813d8311613c81575b613c6d818361334f565b810103126105b95751938a908d905f61398f565b503d613c63565b8b513d5f823e3d90fd5b613ca7600484015461393e61393387836137c5565b92613945565b908160209103126105b9575180151581036105b95790565b602090604460018060a01b03915f8360045416604051968795869463a9059cbb60e01b865216600485015260248401525af1908115613222575f91613d44575b5015613d0d57565b60405162461bcd60e51b815260206004820152600f60248201526e151c985b9cd9995c8819985a5b1959608a1b6044820152606490fd5b613d66915060203d602011613d6c575b613d5e818361334f565b810190613cad565b5f613d05565b503d613d54565b916064602092935f60018060a01b03938460045416908560405198899788966323b872dd60e01b885216600487015216602485015260448401525af1908115613222575f91613e00575b5015613dc557565b60405162461bcd60e51b8152602060048201526013602482015272151c985b9cd9995c919c9bdb4819985a5b1959606a1b6044820152606490fd5b613e19915060203d602011613d6c57613d5e818361334f565b5f613dbd565b6001546040516335123baf60e21b815291929190602090829060049082906001600160a01b03165afa908115613222575f91613ecd575b50600a810180911161346f5781613e6c916136fc565b6123289190828110613eb5575050506064915b15613e9e57612710613e94613e9b93836136fc565b04906135c5565b90565b612710613eae613e9b93836136fc565b0490613462565b820391821161346f57613ec791613568565b91613e7f565b90506020813d602011613ef7575b81613ee86020938361334f565b810103126105b957515f613e56565b3d9150613edb565b60018060a01b03600154169060208151602460405180958193634655f1eb60e01b835260048301525afa918215613222575f92613f82575b50613f51670de0b6b3a764000092610180830151906137c5565b604082015115613f6c576060613f689201516137dd565b0590565b613f7d906060613f689301516137dd565b6137b5565b91506020823d602011613fb0575b81613f9d6020938361334f565b810103126105b957905190613f51613f37565b3d9150613f9056fe52ca44dea94749aadfaa4d3749a0323a33b3a6434adcfff52ad54c511f5579c7a26469706673582212201da3c20435da4095823e5ae8c022ac68e013424ccdcf2591bc2c290ba665418564736f6c63430008180033",
  "linkReferences": {},
  "deployedLinkReferences": {},
  "immutableReferences": {},
  "inputSourceName": "project/src/ConfidentialTrading.sol",
  "buildInfoId": "solc-0_8_24-8b2db231e35f85f45654d93931f6e0e21a22172b"
}