{"abi":[{"type":"constructor","inputs":[{"name":"_usdc","type":"address","internalType":"address"},{"name":"_oracle","type":"address","internalType":"address"}],"stateMutability":"nonpayable"},{"type":"function","name":"addPair","inputs":[{"name":"pairName","type":"string","internalType":"string"},{"name":"pythFeedId","type":"bytes32","internalType":"bytes32"},{"name":"maxLeverage","type":"uint256","internalType":"uint256"},{"name":"maxLongOI_","type":"uint256","internalType":"uint256"},{"name":"maxShortOI_","type":"uint256","internalType":"uint256"},{"name":"maxPositionPct","type":"uint256","internalType":"uint256"}],"outputs":[],"stateMutability":"nonpayable"},{"type":"function","name":"calculateFee","inputs":[{"name":"positionSize","type":"uint256","internalType":"uint256"}],"outputs":[{"name":"","type":"uint256","internalType":"uint256"}],"stateMutability":"view"},{"type":"function","name":"decreaseOI","inputs":[{"name":"pairId","type":"bytes32","internalType":"bytes32"},{"name":"user","type":"address","internalType":"address"},{"name":"isLong","type":"bool","internalType":"bool"},{"name":"sizeUsd","type":"uint256","internalType":"uint256"}],"outputs":[],"stateMutability":"nonpayable"},{"type":"function","name":"getFeeSplit","inputs":[{"name":"totalFee","type":"uint256","internalType":"uint256"}],"outputs":[{"name":"toVault","type":"uint256","internalType":"uint256"},{"name":"toTreasury","type":"uint256","internalType":"uint256"},{"name":"toInsurance","type":"uint256","internalType":"uint256"}],"stateMutability":"view"},{"type":"function","name":"getPairConfig","inputs":[{"name":"pairId","type":"bytes32","internalType":"bytes32"}],"outputs":[{"name":"","type":"tuple","internalType":"struct ConfidentialCore.PairConfig","components":[{"name":"pairId","type":"bytes32","internalType":"bytes32"},{"name":"pythFeedId","type":"bytes32","internalType":"bytes32"},{"name":"maxLeverage","type":"uint256","internalType":"uint256"},{"name":"maxLongOI","type":"uint256","internalType":"uint256"},{"name":"maxShortOI","type":"uint256","internalType":"uint256"},{"name":"maxPositionPct","type":"uint256","internalType":"uint256"},{"name":"active","type":"bool","internalType":"bool"}]}],"stateMutability":"view"},{"type":"function","name":"getPairCount","inputs":[],"outputs":[{"name":"","type":"uint256","internalType":"uint256"}],"stateMutability":"view"},{"type":"function","name":"increaseOI","inputs":[{"name":"pairId","type":"bytes32","internalType":"bytes32"},{"name":"user","type":"address","internalType":"address"},{"name":"isLong","type":"bool","internalType":"bool"},{"name":"sizeUsd","type":"uint256","internalType":"uint256"}],"outputs":[],"stateMutability":"nonpayable"},{"type":"function","name":"insuranceFeeBps","inputs":[],"outputs":[{"name":"","type":"uint256","internalType":"uint256"}],"stateMutability":"view"},{"type":"function","name":"insuranceFund","inputs":[],"outputs":[{"name":"","type":"address","internalType":"address"}],"stateMutability":"view"},{"type":"function","name":"longOI","inputs":[{"name":"","type":"bytes32","internalType":"bytes32"}],"outputs":[{"name":"","type":"uint256","internalType":"uint256"}],"stateMutability":"view"},{"type":"function","name":"oracle","inputs":[],"outputs":[{"name":"","type":"address","internalType":"contract MockOracle"}],"stateMutability":"view"},{"type":"function","name":"owner","inputs":[],"outputs":[{"name":"","type":"address","internalType":"address"}],"stateMutability":"view"},{"type":"function","name":"pairList","inputs":[{"name":"","type":"uint256","internalType":"uint256"}],"outputs":[{"name":"","type":"bytes32","internalType":"bytes32"}],"stateMutability":"view"},{"type":"function","name":"pairs","inputs":[{"name":"","type":"bytes32","internalType":"bytes32"}],"outputs":[{"name":"pairId","type":"bytes32","internalType":"bytes32"},{"name":"pythFeedId","type":"bytes32","internalType":"bytes32"},{"name":"maxLeverage","type":"uint256","internalType":"uint256"},{"name":"maxLongOI","type":"uint256","internalType":"uint256"},{"name":"maxShortOI","type":"uint256","internalType":"uint256"},{"name":"maxPositionPct","type":"uint256","internalType":"uint256"},{"name":"active","type":"bool","internalType":"bool"}],"stateMutability":"view"},{"type":"function","name":"pause","inputs":[],"outputs":[],"stateMutability":"nonpayable"},{"type":"function","name":"paused","inputs":[],"outputs":[{"name":"","type":"bool","internalType":"bool"}],"stateMutability":"view"},{"type":"function","name":"setInsuranceFund","inputs":[{"name":"_insuranceFund","type":"address","internalType":"address"}],"outputs":[],"stateMutability":"nonpayable"},{"type":"function","name":"setTrading","inputs":[{"name":"_trading","type":"address","internalType":"address"}],"outputs":[],"stateMutability":"nonpayable"},{"type":"function","name":"setTreasury","inputs":[{"name":"_treasury","type":"address","internalType":"address"}],"outputs":[],"stateMutability":"nonpayable"},{"type":"function","name":"setVault","inputs":[{"name":"_vault","type":"address","internalType":"address"}],"outputs":[],"stateMutability":"nonpayable"},{"type":"function","name":"shortOI","inputs":[{"name":"","type":"bytes32","internalType":"bytes32"}],"outputs":[{"name":"","type":"uint256","internalType":"uint256"}],"stateMutability":"view"},{"type":"function","name":"togglePair","inputs":[{"name":"pairId","type":"bytes32","internalType":"bytes32"},{"name":"active","type":"bool","internalType":"bool"}],"outputs":[],"stateMutability":"nonpayable"},{"type":"function","name":"trading","inputs":[],"outputs":[{"name":"","type":"address","internalType":"address"}],"stateMutability":"view"},{"type":"function","name":"tradingFeeBps","inputs":[],"outputs":[{"name":"","type":"uint256","internalType":"uint256"}],"stateMutability":"view"},{"type":"function","name":"transferOwnership","inputs":[{"name":"newOwner","type":"address","internalType":"address"}],"outputs":[],"stateMutability":"nonpayable"},{"type":"function","name":"treasury","inputs":[],"outputs":[{"name":"","type":"address","internalType":"address"}],"stateMutability":"view"},{"type":"function","name":"treasuryFeeBps","inputs":[],"outputs":[{"name":"","type":"uint256","internalType":"uint256"}],"stateMutability":"view"},{"type":"function","name":"unpause","inputs":[],"outputs":[],"stateMutability":"nonpayable"},{"type":"function","name":"updatePairLimits","inputs":[{"name":"pairId","type":"bytes32","internalType":"bytes32"},{"name":"maxLongOI_","type":"uint256","internalType":"uint256"},{"name":"maxShortOI_","type":"uint256","internalType":"uint256"},{"name":"maxPositionPct","type":"uint256","internalType":"uint256"}],"outputs":[],"stateMutability":"nonpayable"},{"type":"function","name":"usdc","inputs":[],"outputs":[{"name":"","type":"address","internalType":"address"}],"stateMutability":"view"},{"type":"function","name":"userLongOI","inputs":[{"name":"","type":"bytes32","internalType":"bytes32"},{"name":"","type":"address","internalType":"address"}],"outputs":[{"name":"","type":"uint256","internalType":"uint256"}],"stateMutability":"view"},{"type":"function","name":"userShortOI","inputs":[{"name":"","type":"bytes32","internalType":"bytes32"},{"name":"","type":"address","internalType":"address"}],"outputs":[{"name":"","type":"uint256","internalType":"uint256"}],"stateMutability":"view"},{"type":"function","name":"utilizationCapBps","inputs":[],"outputs":[{"name":"","type":"uint256","internalType":"uint256"}],"stateMutability":"view"},{"type":"function","name":"validateOpenPosition","inputs":[{"name":"pairId","type":"bytes32","internalType":"bytes32"},{"name":"user","type":"address","internalType":"address"},{"name":"isLong","type":"bool","internalType":"bool"},{"name":"sizeUsd","type":"uint256","internalType":"uint256"},{"name":"leverage","type":"uint256","internalType":"uint256"}],"outputs":[],"stateMutability":"view"},{"type":"function","name":"vault","inputs":[],"outputs":[{"name":"","type":"address","internalType":"address"}],"stateMutability":"view"},{"type":"function","name":"vaultFeeBps","inputs":[],"outputs":[{"name":"","type":"uint256","internalType":"uint256"}],"stateMutability":"view"},{"type":"event","name":"FeeDistributed","inputs":[{"name":"toVault","type":"uint256","indexed":false,"internalType":"uint256"},{"name":"toTreasury","type":"uint256","indexed":false,"internalType":"uint256"},{"name":"toInsurance","type":"uint256","indexed":false,"internalType":"uint256"}],"anonymous":false},{"type":"event","name":"OwnershipTransferred","inputs":[{"name":"prev","type":"address","indexed":true,"internalType":"address"},{"name":"next","type":"address","indexed":true,"internalType":"address"}],"anonymous":false},{"type":"event","name":"PairAdded","inputs":[{"name":"pairId","type":"bytes32","indexed":true,"internalType":"bytes32"},{"name":"maxLeverage","type":"uint256","indexed":false,"internalType":"uint256"},{"name":"maxLongOI","type":"uint256","indexed":false,"internalType":"uint256"},{"name":"maxShortOI","type":"uint256","indexed":false,"internalType":"uint256"}],"anonymous":false},{"type":"event","name":"PairToggled","inputs":[{"name":"pairId","type":"bytes32","indexed":true,"internalType":"bytes32"},{"name":"active","type":"bool","indexed":false,"internalType":"bool"}],"anonymous":false},{"type":"event","name":"PairUpdated","inputs":[{"name":"pairId","type":"bytes32","indexed":true,"internalType":"bytes32"}],"anonymous":false},{"type":"event","name":"Paused","inputs":[],"anonymous":false},{"type":"event","name":"Unpaused","inputs":[],"anonymous":false},{"type":"error","name":"ExceedsMaxLeverage","inputs":[]},{"type":"error","name":"ExceedsMaxOI","inputs":[]},{"type":"error","name":"ExceedsMaxPositionSize","inputs":[]},{"type":"error","name":"ExceedsUtilizationCap","inputs":[]},{"type":"error","name":"IsPaused","inputs":[]},{"type":"error","name":"OnlyOwner","inputs":[]},{"type":"error","name":"OnlyTrading","inputs":[]},{"type":"error","name":"PairNotActive","inputs":[]}],"bytecode":{"object":"0x60a06040526117706006556109c46007556105dc6008556004600955611f40600a5534801561002c575f80fd5b5060405161146338038061146383398101604081905261004b9161009a565b5f80546001600160a01b031990811633179091556001600160a01b03928316608052600180549290931691161790556100cb565b80516001600160a01b0381168114610095575f80fd5b919050565b5f80604083850312156100ab575f80fd5b6100b48361007f565b91506100c26020840161007f565b90509250929050565b6080516113806100e35f395f61027701526113805ff3fe608060405234801561000f575f80fd5b5060043610610213575f3560e01c8063924cca9a1161011f578063c3c05293116100a9578063ec44acf211610079578063ec44acf21461062e578063f0f4426014610641578063f2fde38b14610654578063f86f900014610667578063fbfa77cf14610670575f80fd5b8063c3c05293146105ea578063dd2bb29f146105fd578063dd561c8c14610606578063e80cfa5e14610625575f80fd5b8063a7432ecc116100ef578063a7432ecc1461058b578063ac1fff051461059e578063b65b361f146105b1578063b7902303146105c4578063bd79156f146105d7575f80fd5b8063924cca9a1461055457806399a5d7471461055d5780639cf2ebf514610570578063a553906c14610578575f80fd5b8063673e0481116101a05780637e8d5883116101705780637e8d5883146104f4578063837df08e146104fd5780638456cb59146105275780638da5cb5b1461052f5780638e8c779114610541575f80fd5b8063673e0481146103465780636817031b146103ca5780636a37a22a146103dd5780637dc0d1d0146104e1575f80fd5b80633f4ba83a116101e65780633f4ba83a146102b15780635a109871146102b95780635c975abb146102f157806361d027b3146103145780636510053114610327575f80fd5b806333945720146102175780633b608af21461022c5780633e153c401461025f5780633e413bee14610272575b5f80fd5b61022a6102253660046110ff565b610683565b005b61023f61023a366004611140565b610832565b604080519384526020840192909252908201526060015b60405180910390f35b61022a61026d366004611157565b61088c565b6102997f000000000000000000000000000000000000000000000000000000000000000081565b6040516001600160a01b039091168152602001610256565b61022a6109d9565b6102e36102c73660046111e7565b601060209081525f928352604080842090915290825290205481565b604051908152602001610256565b5f5461030490600160a01b900460ff1681565b6040519015158152602001610256565b600454610299906001600160a01b031681565b6102e3610335366004611140565b600d6020525f908152604090205481565b610393610354366004611140565b600b6020525f90815260409020805460018201546002830154600384015460048501546005860154600690960154949593949293919290919060ff1687565b604080519788526020880196909652948601939093526060850191909152608084015260a0830152151560c082015260e001610256565b61022a6103d8366004611211565b610a38565b61048a6103eb366004611140565b6040805160e0810182525f80825260208201819052918101829052606081018290526080810182905260a0810182905260c0810191909152505f908152600b6020908152604091829020825160e081018452815481526001820154928101929092526002810154928201929092526003820154606082015260048201546080820152600582015460a082015260069091015460ff16151560c082015290565b60405161025691905f60e082019050825182526020830151602083015260408301516040830152606083015160608301526080830151608083015260a083015160a083015260c0830151151560c083015292915050565b600154610299906001600160a01b031681565b6102e3600a5481565b6102e361050b3660046111e7565b600f60209081525f928352604080842090915290825290205481565b61022a610a84565b5f54610299906001600160a01b031681565b6102e361054f366004611140565b610ae9565b6102e360095481565b6102e361056b366004611140565b610b08565b600c546102e3565b61022a610586366004611211565b610b2a565b61022a610599366004611231565b610b76565b61022a6105ac366004611252565b610bf9565b61022a6105bf3660046110ff565b610c71565b600554610299906001600160a01b031681565b61022a6105e5366004611281565b610d5e565b61022a6105f8366004611211565b610fba565b6102e360065481565b6102e3610614366004611140565b600e6020525f908152604090205481565b6102e360075481565b600354610299906001600160a01b031681565b61022a61064f366004611211565b611006565b61022a610662366004611211565b611052565b6102e360085481565b600254610299906001600160a01b031681565b6003546001600160a01b031633146106ae5760405163e9e3f4ad60e01b815260040160405180910390fd5b8115610772575f848152600d602052604090205481106106ce575f6106e7565b5f848152600d60205260409020546106e79082906112df565b5f858152600d6020908152604080832093909355600f81528282206001600160a01b038716835290522054811061071e575f61074b565b5f848152600f602090815260408083206001600160a01b038716845290915290205461074b9082906112df565b5f858152600f602090815260408083206001600160a01b038816845290915290205561082c565b5f848152600e6020526040902054811061078c575f6107a5565b5f848152600e60205260409020546107a59082906112df565b5f858152600e6020908152604080832093909355601081528282206001600160a01b03871683529052205481106107dc575f610809565b5f8481526010602090815260408083206001600160a01b03871684529091529020546108099082906112df565b5f8581526010602090815260408083206001600160a01b03881684529091529020555b50505050565b5f805f6127106006548561084691906112f2565b6108509190611309565b92506127106007548561086391906112f2565b61086d9190611309565b91508161087a84866112df565b61088491906112df565b929491935050565b5f546001600160a01b031633146108b657604051635fc483c560e01b815260040160405180910390fd5b5f87876040516020016108ca929190611328565b60408051808303601f19018152828252805160209182012060e0840183528084528184018a81528484018a815260608087018b8152608088018b815260a089018b8152600160c08b018181525f898152600b8b528b81209c518d5597518c830155955160028c0155925160038b0155905160048a015551600589015591516006909701805460ff191697151597909717909655600c805491820181559091527fdf6966c971051c3d54ec59162606531493a51404a002842f56009d7e5cf4a8c701819055825189815291820188905291810186905290925082917fc09b0e6ea17e638181154aed6758ae0143886172f6cf847a2302ff6def186619910160405180910390a25050505050505050565b5f546001600160a01b03163314610a0357604051635fc483c560e01b815260040160405180910390fd5b5f805460ff60a01b191681556040517fa45f47fdea8a1efdd9029a5691c7f759c32b7c698632b563573e155625d169339190a1565b5f546001600160a01b03163314610a6257604051635fc483c560e01b815260040160405180910390fd5b600280546001600160a01b0319166001600160a01b0392909216919091179055565b5f546001600160a01b03163314610aae57604051635fc483c560e01b815260040160405180910390fd5b5f805460ff60a01b1916600160a01b1781556040517f9e87fac88ff661f02d44f95383c817fece4bce600a3dab7a54406878b965e7529190a1565b600c8181548110610af8575f80fd5b5f91825260209091200154905081565b5f61271060095483610b1a91906112f2565b610b249190611309565b92915050565b5f546001600160a01b03163314610b5457604051635fc483c560e01b815260040160405180910390fd5b600380546001600160a01b0319166001600160a01b0392909216919091179055565b5f546001600160a01b03163314610ba057604051635fc483c560e01b815260040160405180910390fd5b5f828152600b6020908152604091829020600601805460ff1916841515908117909155915191825283917fd6c85b16f14b4f3729d9c05fba629c9c41cb77a2eaea1cbe9f972e3c1add760a910160405180910390a25050565b5f546001600160a01b03163314610c2357604051635fc483c560e01b815260040160405180910390fd5b5f848152600b602052604080822060038101869055600481018590556005018390555185917feaab1fbae57c9453947c2c5733c4728c55777f0c7adefa5cc50d91eb3e1e368491a250505050565b6003546001600160a01b03163314610c9c5760405163e9e3f4ad60e01b815260040160405180910390fd5b8115610d00575f848152600d602052604081208054839290610cbf908490611337565b90915550505f848152600f602090815260408083206001600160a01b038716845290915281208054839290610cf5908490611337565b9091555061082c9050565b5f848152600e602052604081208054839290610d1d908490611337565b90915550505f8481526010602090815260408083206001600160a01b038716845290915281208054839290610d53908490611337565b909155505050505050565b5f54600160a01b900460ff1615610d8857604051631309a56360e01b815260040160405180910390fd5b5f858152600b6020908152604091829020825160e081018452815481526001820154928101929092526002810154928201929092526003820154606082015260048201546080820152600582015460a082015260069091015460ff16151560c08201819052610e0a57604051634fedf0ed60e01b815260040160405180910390fd5b8060400151821115610e2f576040516334bcdead60e11b815260040160405180910390fd5b8315610ef65760608101515f878152600d6020526040902054610e53908590611337565b1115610e7257604051638a9d1c4160e01b815260040160405180910390fd5b60a081015115610ef1575f6127108260a001518360600151610e9491906112f2565b610e9e9190611309565b5f888152600f602090815260408083206001600160a01b038b1684529091529020549091508190610ed0908690611337565b1115610eef57604051639f17b34d60e01b815260040160405180910390fd5b505b610fb2565b60808101515f878152600e6020526040902054610f14908590611337565b1115610f3357604051638a9d1c4160e01b815260040160405180910390fd5b60a081015115610fb2575f6127108260a001518360800151610f5591906112f2565b610f5f9190611309565b5f8881526010602090815260408083206001600160a01b038b1684529091529020549091508190610f91908690611337565b1115610fb057604051639f17b34d60e01b815260040160405180910390fd5b505b505050505050565b5f546001600160a01b03163314610fe457604051635fc483c560e01b815260040160405180910390fd5b600580546001600160a01b0319166001600160a01b0392909216919091179055565b5f546001600160a01b0316331461103057604051635fc483c560e01b815260040160405180910390fd5b600480546001600160a01b0319166001600160a01b0392909216919091179055565b5f546001600160a01b0316331461107c57604051635fc483c560e01b815260040160405180910390fd5b5f80546040516001600160a01b03808516939216917f8be0079c531659141344cd1fd0a4f28419497f9722a3daafe3b4186f6b6457e091a35f80546001600160a01b0319166001600160a01b0392909216919091179055565b80356001600160a01b03811681146110eb575f80fd5b919050565b803580151581146110eb575f80fd5b5f805f8060808587031215611112575f80fd5b84359350611122602086016110d5565b9250611130604086016110f0565b9396929550929360600135925050565b5f60208284031215611150575f80fd5b5035919050565b5f805f805f805f60c0888a03121561116d575f80fd5b873567ffffffffffffffff80821115611184575f80fd5b818a0191508a601f830112611197575f80fd5b8135818111156111a5575f80fd5b8b60208285010111156111b6575f80fd5b60209283019c909b50918a01359960408101359950606081013598506080810135975060a001359550909350505050565b5f80604083850312156111f8575f80fd5b82359150611208602084016110d5565b90509250929050565b5f60208284031215611221575f80fd5b61122a826110d5565b9392505050565b5f8060408385031215611242575f80fd5b82359150611208602084016110f0565b5f805f8060808587031215611265575f80fd5b5050823594602084013594506040840135936060013592509050565b5f805f805f60a08688031215611295575f80fd5b853594506112a5602087016110d5565b93506112b3604087016110f0565b94979396509394606081013594506080013592915050565b634e487b7160e01b5f52601160045260245ffd5b81810381811115610b2457610b246112cb565b8082028115828204841417610b2457610b246112cb565b5f8261132357634e487b7160e01b5f52601260045260245ffd5b500490565b818382375f9101908152919050565b80820180821115610b2457610b246112cb56fea26469706673582212203062ebfa72f7c5cff2c65aea53be0d70b62842aca2d231c1c3ba51cdd3a74aca64736f6c63430008180033","linkReferences":{}},"methodIdentifiers":{"addPair(string,bytes32,uint256,uint256,uint256,uint256)":"3e153c40","calculateFee(uint256)":"99a5d747","decreaseOI(bytes32,address,bool,uint256)":"33945720","getFeeSplit(uint256)":"3b608af2","getPairConfig(bytes32)":"6a37a22a","getPairCount()":"9cf2ebf5","increaseOI(bytes32,address,bool,uint256)":"b65b361f","insuranceFeeBps()":"f86f9000","insuranceFund()":"b7902303","longOI(bytes32)":"65100531","oracle()":"7dc0d1d0","owner()":"8da5cb5b","pairList(uint256)":"8e8c7791","pairs(bytes32)":"673e0481","pause()":"8456cb59","paused()":"5c975abb","setInsuranceFund(address)":"c3c05293","setTrading(address)":"a553906c","setTreasury(address)":"f0f44260","setVault(address)":"6817031b","shortOI(bytes32)":"dd561c8c","togglePair(bytes32,bool)":"a7432ecc","trading()":"ec44acf2","tradingFeeBps()":"924cca9a","transferOwnership(address)":"f2fde38b","treasury()":"61d027b3","treasuryFeeBps()":"e80cfa5e","unpause()":"3f4ba83a","updatePairLimits(bytes32,uint256,uint256,uint256)":"ac1fff05","usdc()":"3e413bee","userLongOI(bytes32,address)":"837df08e","userShortOI(bytes32,address)":"5a109871","utilizationCapBps()":"7e8d5883","validateOpenPosition(bytes32,address,bool,uint256,uint256)":"bd79156f","vault()":"fbfa77cf","vaultFeeBps()":"dd2bb29f"},"id":16}