{"abi":[{"type":"constructor","inputs":[{"name":"_usdc","type":"address","internalType":"address"},{"name":"_core","type":"address","internalType":"address"}],"stateMutability":"nonpayable"},{"type":"function","name":"availableLiquidity","inputs":[],"outputs":[{"name":"","type":"uint256","internalType":"uint256"}],"stateMutability":"view"},{"type":"function","name":"balanceOfUnderlying","inputs":[{"name":"user","type":"address","internalType":"address"}],"outputs":[{"name":"","type":"uint256","internalType":"uint256"}],"stateMutability":"view"},{"type":"function","name":"canWithdraw","inputs":[{"name":"user","type":"address","internalType":"address"}],"outputs":[{"name":"","type":"bool","internalType":"bool"}],"stateMutability":"view"},{"type":"function","name":"captureLoss","inputs":[{"name":"amount","type":"uint256","internalType":"uint256"}],"outputs":[],"stateMutability":"nonpayable"},{"type":"function","name":"core","inputs":[],"outputs":[{"name":"","type":"address","internalType":"contract ConfidentialCore"}],"stateMutability":"view"},{"type":"function","name":"decimals","inputs":[],"outputs":[{"name":"","type":"uint8","internalType":"uint8"}],"stateMutability":"view"},{"type":"function","name":"deposit","inputs":[{"name":"amount","type":"uint256","internalType":"uint256"}],"outputs":[],"stateMutability":"nonpayable"},{"type":"function","name":"depositTimestamp","inputs":[{"name":"","type":"address","internalType":"address"}],"outputs":[{"name":"","type":"uint256","internalType":"uint256"}],"stateMutability":"view"},{"type":"function","name":"lockupPeriod","inputs":[],"outputs":[{"name":"","type":"uint256","internalType":"uint256"}],"stateMutability":"view"},{"type":"function","name":"name","inputs":[],"outputs":[{"name":"","type":"string","internalType":"string"}],"stateMutability":"view"},{"type":"function","name":"payProfit","inputs":[{"name":"trader","type":"address","internalType":"address"},{"name":"amount","type":"uint256","internalType":"uint256"}],"outputs":[],"stateMutability":"nonpayable"},{"type":"function","name":"performanceFeeBps","inputs":[],"outputs":[{"name":"","type":"uint256","internalType":"uint256"}],"stateMutability":"view"},{"type":"function","name":"receiveFees","inputs":[{"name":"amount","type":"uint256","internalType":"uint256"}],"outputs":[],"stateMutability":"nonpayable"},{"type":"function","name":"releaseBacking","inputs":[{"name":"amount","type":"uint256","internalType":"uint256"}],"outputs":[],"stateMutability":"nonpayable"},{"type":"function","name":"reserveBacking","inputs":[{"name":"amount","type":"uint256","internalType":"uint256"}],"outputs":[],"stateMutability":"nonpayable"},{"type":"function","name":"sharePrice","inputs":[],"outputs":[{"name":"","type":"uint256","internalType":"uint256"}],"stateMutability":"view"},{"type":"function","name":"shares","inputs":[{"name":"","type":"address","internalType":"address"}],"outputs":[{"name":"","type":"uint256","internalType":"uint256"}],"stateMutability":"view"},{"type":"function","name":"symbol","inputs":[],"outputs":[{"name":"","type":"string","internalType":"string"}],"stateMutability":"view"},{"type":"function","name":"totalAssets","inputs":[],"outputs":[{"name":"","type":"uint256","internalType":"uint256"}],"stateMutability":"view"},{"type":"function","name":"totalBacking","inputs":[],"outputs":[{"name":"","type":"uint256","internalType":"uint256"}],"stateMutability":"view"},{"type":"function","name":"totalShares","inputs":[],"outputs":[{"name":"","type":"uint256","internalType":"uint256"}],"stateMutability":"view"},{"type":"function","name":"usdc","inputs":[],"outputs":[{"name":"","type":"address","internalType":"contract IERC20"}],"stateMutability":"view"},{"type":"function","name":"utilization","inputs":[],"outputs":[{"name":"","type":"uint256","internalType":"uint256"}],"stateMutability":"view"},{"type":"function","name":"withdraw","inputs":[{"name":"shareAmount","type":"uint256","internalType":"uint256"}],"outputs":[],"stateMutability":"nonpayable"},{"type":"event","name":"Deposit","inputs":[{"name":"user","type":"address","indexed":true,"internalType":"address"},{"name":"amount","type":"uint256","indexed":false,"internalType":"uint256"},{"name":"sharesReceived","type":"uint256","indexed":false,"internalType":"uint256"}],"anonymous":false},{"type":"event","name":"FeeReceived","inputs":[{"name":"amount","type":"uint256","indexed":false,"internalType":"uint256"}],"anonymous":false},{"type":"event","name":"LossCaptured","inputs":[{"name":"trader","type":"address","indexed":true,"internalType":"address"},{"name":"amount","type":"uint256","indexed":false,"internalType":"uint256"}],"anonymous":false},{"type":"event","name":"ProfitPaid","inputs":[{"name":"trader","type":"address","indexed":true,"internalType":"address"},{"name":"amount","type":"uint256","indexed":false,"internalType":"uint256"}],"anonymous":false},{"type":"event","name":"Withdraw","inputs":[{"name":"user","type":"address","indexed":true,"internalType":"address"},{"name":"amount","type":"uint256","indexed":false,"internalType":"uint256"},{"name":"sharesBurned","type":"uint256","indexed":false,"internalType":"uint256"}],"anonymous":false},{"type":"error","name":"InsufficientLiquidity","inputs":[]},{"type":"error","name":"InsufficientShares","inputs":[]},{"type":"error","name":"LockupNotExpired","inputs":[]},{"type":"error","name":"OnlyCore","inputs":[]},{"type":"error","name":"OnlyTrading","inputs":[]},{"type":"error","name":"ZeroAmount","inputs":[]}],"bytecode":{"object":"0x60a06040526203f4806004556103e860075534801561001c575f80fd5b50604051610f19380380610f1983398101604081905261003b9161007d565b6001600160a01b039182166080525f80546001600160a01b031916919092161790556100ae565b80516001600160a01b0381168114610078575f80fd5b919050565b5f806040838503121561008e575f80fd5b61009783610062565b91506100a560208401610062565b90509250929050565b608051610e3e6100db5f395f8181610242015281816105590152818161088b01526109ad0152610e3e5ff3fe608060405234801561000f575f80fd5b5060043610610153575f3560e01c806387269729116100bf578063d4a8252111610079578063d4a8252114610331578063dd3018a014610344578063ea21cd9214610357578063eb2cd2581461035f578063ee947a7c14610368578063f2f4eb2614610371575f80fd5b806387269729146102b657806395d89b41146102be5780639625b3d2146102e3578063b6b55f25146102f6578063b9d4e87914610309578063ce7c2ac214610312575f80fd5b80633a98ef39116101105780633a98ef39146102215780633af9e6691461022a5780633e413bee1461023d57806346b00d041461027c5780636e93ae2b1461029b57806374375359146102ae575f80fd5b806301e1d114146101575780630420592e1461017357806306fdde031461018857806319262d30146101d15780632e1a7d4d146101f4578063313ce56714610207575b5f80fd5b61016060055481565b6040519081526020015b60405180910390f35b610186610181366004610c98565b610383565b005b6101c46040518060400160405280601881526020017f436f6e666964656e7469616c205661756c74205368617265000000000000000081525081565b60405161016a9190610caf565b6101e46101df366004610d12565b6103cf565b604051901515815260200161016a565b610186610202366004610c98565b6103fe565b61020f600681565b60405160ff909116815260200161016a565b61016060015481565b610160610238366004610d12565b61060d565b6102647f000000000000000000000000000000000000000000000000000000000000000081565b6040516001600160a01b03909116815260200161016a565b61016061028a366004610d12565b60036020525f908152604090205481565b6101866102a9366004610c98565b610656565b610160610712565b610160610738565b6101c46040518060400160405280600681526020016518d59055531560d21b81525081565b6101866102f1366004610d34565b610767565b610186610304366004610c98565b610931565b61016060075481565b610160610320366004610d12565b60026020525f908152604090205481565b61018661033f366004610c98565b610ac0565b610186610352366004610c98565b610bb1565b610160610c77565b61016060065481565b61016060045481565b5f54610264906001600160a01b031681565b8060055f8282546103949190610d72565b90915550506040518181527f86c46efee0a638b418fa0952cd587c78b75b8bc989e7a7c13a86d448ec34a0849060200160405180910390a150565b6004546001600160a01b0382165f9081526003602052604081205490916103f591610d72565b42101592915050565b805f0361041e57604051631f2a200560e01b815260040160405180910390fd5b335f9081526002602052604090205481111561044d57604051633999656760e01b815260040160405180910390fd5b600454335f908152600360205260409020546104699190610d72565b421015610489576040516354e21be360e11b815260040160405180910390fd5b5f6001546005548361049b9190610d85565b6104a59190610d9c565b90505f600654600554116104b9575f6104c9565b6006546005546104c99190610dbb565b9050808211156104ec5760405163bb55fd2760e01b815260040160405180910390fd5b8260015f8282546104fd9190610dbb565b9091555050335f9081526002602052604081208054859290610520908490610dbb565b925050819055508160055f8282546105389190610dbb565b909155505060405163a9059cbb60e01b8152336004820152602481018390527f00000000000000000000000000000000000000000000000000000000000000006001600160a01b03169063a9059cbb906044016020604051808303815f875af11580156105a7573d5f803e3d5ffd5b505050506040513d601f19601f820116820180604052508101906105cb9190610dce565b50604080518381526020810185905233917ff279e6a1f5e320cca91135676d9cb6e44ca8a08c0b88342bcdb1144f6511b56891015b60405180910390a2505050565b5f6001545f0361061e57505f919050565b6001546005546001600160a01b0384165f908152600260205260409020546106469190610d85565b6106509190610d9c565b92915050565b5f8054906101000a90046001600160a01b03166001600160a01b031663ec44acf26040518163ffffffff1660e01b8152600401602060405180830381865afa1580156106a4573d5f803e3d5ffd5b505050506040513d601f19601f820116820180604052508101906106c89190610ded565b6001600160a01b0316336001600160a01b0316146106f95760405163e9e3f4ad60e01b815260040160405180910390fd5b8060065f82825461070a9190610d72565b909155505050565b5f6006546005541161072357505f90565b6006546005546107339190610dbb565b905090565b5f6001545f0361074a5750620f424090565b60015460055461075d90620f4240610d85565b6107339190610d9c565b5f8054906101000a90046001600160a01b03166001600160a01b031663ec44acf26040518163ffffffff1660e01b8152600401602060405180830381865afa1580156107b5573d5f803e3d5ffd5b505050506040513d601f19601f820116820180604052508101906107d99190610ded565b6001600160a01b0316336001600160a01b03161461080a5760405163e9e3f4ad60e01b815260040160405180910390fd5b5f6006546005541161081c575f61082c565b60065460055461082c9190610dbb565b90508082111561084f5760405163bb55fd2760e01b815260040160405180910390fd5b8160055f8282546108609190610dbb565b909155505060405163a9059cbb60e01b81526001600160a01b038481166004830152602482018490527f0000000000000000000000000000000000000000000000000000000000000000169063a9059cbb906044016020604051808303815f875af11580156108d1573d5f803e3d5ffd5b505050506040513d601f19601f820116820180604052508101906108f59190610dce565b50826001600160a01b03167f18b4d88519e317cd323e73f9cb4143659b157408d6c68da2a8e309e0c7155b348360405161060091815260200190565b805f0361095157604051631f2a200560e01b815260040160405180910390fd5b5f6001545f14806109625750600554155b1561096e57508061098b565b60055460015461097e9084610d85565b6109889190610d9c565b90505b6040516323b872dd60e01b8152336004820152306024820152604481018390527f00000000000000000000000000000000000000000000000000000000000000006001600160a01b0316906323b872dd906064016020604051808303815f875af11580156109fb573d5f803e3d5ffd5b505050506040513d601f19601f82011682018060405250810190610a1f9190610dce565b508060015f828254610a319190610d72565b9091555050335f9081526002602052604081208054839290610a54908490610d72565b925050819055508160055f828254610a6c9190610d72565b9091555050335f8181526003602090815260409182902042905581518581529081018490527f90890809c654f11d6e72a28fa60149770a0d11ec6c92319d6ceb2bb0a4ea1a15910160405180910390a25050565b5f8054906101000a90046001600160a01b03166001600160a01b031663ec44acf26040518163ffffffff1660e01b8152600401602060405180830381865afa158015610b0e573d5f803e3d5ffd5b505050506040513d601f19601f82011682018060405250810190610b329190610ded565b6001600160a01b0316336001600160a01b031614610b635760405163e9e3f4ad60e01b815260040160405180910390fd5b8060055f828254610b749190610d72565b909155505060405181815233907f5f67edf3c951c84283ce27ed5e4853f2440c3de81a00ef95197cbc6eb1bc32ed9060200160405180910390a250565b5f8054906101000a90046001600160a01b03166001600160a01b031663ec44acf26040518163ffffffff1660e01b8152600401602060405180830381865afa158015610bff573d5f803e3d5ffd5b505050506040513d601f19601f82011682018060405250810190610c239190610ded565b6001600160a01b0316336001600160a01b031614610c545760405163e9e3f4ad60e01b815260040160405180910390fd5b8060065411610c63575f610c71565b80600654610c719190610dbb565b60065550565b5f6005545f03610c8657505f90565b60055460065461075d90612710610d85565b5f60208284031215610ca8575f80fd5b5035919050565b5f602080835283518060208501525f5b81811015610cdb57858101830151858201604001528201610cbf565b505f604082860101526040601f19601f8301168501019250505092915050565b6001600160a01b0381168114610d0f575f80fd5b50565b5f60208284031215610d22575f80fd5b8135610d2d81610cfb565b9392505050565b5f8060408385031215610d45575f80fd5b8235610d5081610cfb565b946020939093013593505050565b634e487b7160e01b5f52601160045260245ffd5b8082018082111561065057610650610d5e565b808202811582820484141761065057610650610d5e565b5f82610db657634e487b7160e01b5f52601260045260245ffd5b500490565b8181038181111561065057610650610d5e565b5f60208284031215610dde575f80fd5b81518015158114610d2d575f80fd5b5f60208284031215610dfd575f80fd5b8151610d2d81610cfb56fea2646970667358221220a224ef5b542733ce7c792d3bec574e1bd5b4f16b225450485862a3a704b090e564736f6c63430008180033","linkReferences":{}},"methodIdentifiers":{"availableLiquidity()":"74375359","balanceOfUnderlying(address)":"3af9e669","canWithdraw(address)":"19262d30","captureLoss(uint256)":"d4a82521","core()":"f2f4eb26","decimals()":"313ce567","deposit(uint256)":"b6b55f25","depositTimestamp(address)":"46b00d04","lockupPeriod()":"ee947a7c","name()":"06fdde03","payProfit(address,uint256)":"9625b3d2","performanceFeeBps()":"b9d4e879","receiveFees(uint256)":"0420592e","releaseBacking(uint256)":"dd3018a0","reserveBacking(uint256)":"6e93ae2b","sharePrice()":"87269729","shares(address)":"ce7c2ac2","symbol()":"95d89b41","totalAssets()":"01e1d114","totalBacking()":"eb2cd258","totalShares()":"3a98ef39","usdc()":"3e413bee","utilization()":"ea21cd92","withdraw(uint256)":"2e1a7d4d"},"id":18}