{
  "_format": "hh3-artifact-1",
  "contractName": "ConfidentialVault",
  "sourceName": "src/ConfidentialVault.sol",
  "abi": [
    {
      "inputs": [
        {
          "internalType": "address",
          "name": "_usdc",
          "type": "address"
        },
        {
          "internalType": "address",
          "name": "_core",
          "type": "address"
        }
      ],
      "stateMutability": "nonpayable",
      "type": "constructor"
    },
    {
      "inputs": [],
      "name": "DepositsDisabled",
      "type": "error"
    },
    {
      "inputs": [],
      "name": "ExceedsDepositCap",
      "type": "error"
    },
    {
      "inputs": [],
      "name": "ExceedsTVLCap",
      "type": "error"
    },
    {
      "inputs": [],
      "name": "InsufficientLiquidity",
      "type": "error"
    },
    {
      "inputs": [],
      "name": "InsufficientShares",
      "type": "error"
    },
    {
      "inputs": [],
      "name": "LockupNotExpired",
      "type": "error"
    },
    {
      "inputs": [],
      "name": "OnlyOwner",
      "type": "error"
    },
    {
      "inputs": [],
      "name": "OnlyTrading",
      "type": "error"
    },
    {
      "inputs": [],
      "name": "ReentrancyGuardReentrantCall",
      "type": "error"
    },
    {
      "inputs": [],
      "name": "ZeroAmount",
      "type": "error"
    },
    {
      "anonymous": false,
      "inputs": [
        {
          "indexed": false,
          "internalType": "uint256",
          "name": "amount",
          "type": "uint256"
        }
      ],
      "name": "AccruedFeesSettled",
      "type": "event"
    },
    {
      "anonymous": false,
      "inputs": [
        {
          "indexed": true,
          "internalType": "address",
          "name": "trader",
          "type": "address"
        },
        {
          "indexed": false,
          "internalType": "uint256",
          "name": "amount",
          "type": "uint256"
        }
      ],
      "name": "CollateralReturned",
      "type": "event"
    },
    {
      "anonymous": false,
      "inputs": [
        {
          "indexed": true,
          "internalType": "address",
          "name": "user",
          "type": "address"
        },
        {
          "indexed": false,
          "internalType": "uint256",
          "name": "amount",
          "type": "uint256"
        },
        {
          "indexed": false,
          "internalType": "uint256",
          "name": "sharesReceived",
          "type": "uint256"
        },
        {
          "indexed": false,
          "internalType": "bool",
          "name": "isDegen",
          "type": "bool"
        }
      ],
      "name": "Deposit",
      "type": "event"
    },
    {
      "anonymous": false,
      "inputs": [
        {
          "indexed": false,
          "internalType": "bool",
          "name": "isDegen",
          "type": "bool"
        },
        {
          "indexed": false,
          "internalType": "uint256",
          "name": "newEpoch",
          "type": "uint256"
        }
      ],
      "name": "EpochReset",
      "type": "event"
    },
    {
      "anonymous": false,
      "inputs": [
        {
          "indexed": false,
          "internalType": "uint256",
          "name": "amount",
          "type": "uint256"
        }
      ],
      "name": "FeeReceived",
      "type": "event"
    },
    {
      "anonymous": false,
      "inputs": [
        {
          "indexed": true,
          "internalType": "address",
          "name": "trader",
          "type": "address"
        },
        {
          "indexed": true,
          "internalType": "address",
          "name": "liquidator",
          "type": "address"
        },
        {
          "indexed": false,
          "internalType": "uint256",
          "name": "collateral",
          "type": "uint256"
        },
        {
          "indexed": false,
          "internalType": "uint256",
          "name": "reward",
          "type": "uint256"
        }
      ],
      "name": "LiquidationSettled",
      "type": "event"
    },
    {
      "anonymous": false,
      "inputs": [
        {
          "indexed": true,
          "internalType": "address",
          "name": "trader",
          "type": "address"
        },
        {
          "indexed": false,
          "internalType": "int256",
          "name": "netPnl",
          "type": "int256"
        },
        {
          "indexed": false,
          "internalType": "uint256",
          "name": "collateral",
          "type": "uint256"
        }
      ],
      "name": "PositionSettled",
      "type": "event"
    },
    {
      "anonymous": false,
      "inputs": [
        {
          "indexed": true,
          "internalType": "address",
          "name": "trader",
          "type": "address"
        },
        {
          "indexed": false,
          "internalType": "uint256",
          "name": "requestedProfit",
          "type": "uint256"
        },
        {
          "indexed": false,
          "internalType": "uint256",
          "name": "cappedProfit",
          "type": "uint256"
        }
      ],
      "name": "ProfitCapped",
      "type": "event"
    },
    {
      "anonymous": false,
      "inputs": [
        {
          "indexed": true,
          "internalType": "address",
          "name": "user",
          "type": "address"
        },
        {
          "indexed": false,
          "internalType": "uint256",
          "name": "amount",
          "type": "uint256"
        },
        {
          "indexed": false,
          "internalType": "uint256",
          "name": "sharesBurned",
          "type": "uint256"
        },
        {
          "indexed": false,
          "internalType": "bool",
          "name": "isDegen",
          "type": "bool"
        }
      ],
      "name": "Withdraw",
      "type": "event"
    },
    {
      "inputs": [],
      "name": "MINIMUM_LIQUIDITY",
      "outputs": [
        {
          "internalType": "uint256",
          "name": "",
          "type": "uint256"
        }
      ],
      "stateMutability": "view",
      "type": "function"
    },
    {
      "inputs": [],
      "name": "availableLiquidity",
      "outputs": [
        {
          "internalType": "uint256",
          "name": "",
          "type": "uint256"
        }
      ],
      "stateMutability": "view",
      "type": "function"
    },
    {
      "inputs": [
        {
          "internalType": "address",
          "name": "user",
          "type": "address"
        },
        {
          "internalType": "bool",
          "name": "isDegen",
          "type": "bool"
        }
      ],
      "name": "balanceOfUnderlying",
      "outputs": [
        {
          "internalType": "uint256",
          "name": "",
          "type": "uint256"
        }
      ],
      "stateMutability": "view",
      "type": "function"
    },
    {
      "inputs": [
        {
          "internalType": "address",
          "name": "user",
          "type": "address"
        },
        {
          "internalType": "bool",
          "name": "isDegen",
          "type": "bool"
        }
      ],
      "name": "canWithdraw",
      "outputs": [
        {
          "internalType": "bool",
          "name": "",
          "type": "bool"
        }
      ],
      "stateMutability": "view",
      "type": "function"
    },
    {
      "inputs": [],
      "name": "core",
      "outputs": [
        {
          "internalType": "contract ConfidentialCore",
          "name": "",
          "type": "address"
        }
      ],
      "stateMutability": "view",
      "type": "function"
    },
    {
      "inputs": [],
      "name": "decimals",
      "outputs": [
        {
          "internalType": "uint8",
          "name": "",
          "type": "uint8"
        }
      ],
      "stateMutability": "view",
      "type": "function"
    },
    {
      "inputs": [
        {
          "internalType": "address",
          "name": "",
          "type": "address"
        }
      ],
      "name": "degenDepositTimestamp",
      "outputs": [
        {
          "internalType": "uint256",
          "name": "",
          "type": "uint256"
        }
      ],
      "stateMutability": "view",
      "type": "function"
    },
    {
      "inputs": [],
      "name": "degenEpoch",
      "outputs": [
        {
          "internalType": "uint256",
          "name": "",
          "type": "uint256"
        }
      ],
      "stateMutability": "view",
      "type": "function"
    },
    {
      "inputs": [],
      "name": "degenLockupPeriod",
      "outputs": [
        {
          "internalType": "uint256",
          "name": "",
          "type": "uint256"
        }
      ],
      "stateMutability": "view",
      "type": "function"
    },
    {
      "inputs": [],
      "name": "degenSharePrice",
      "outputs": [
        {
          "internalType": "uint256",
          "name": "",
          "type": "uint256"
        }
      ],
      "stateMutability": "view",
      "type": "function"
    },
    {
      "inputs": [
        {
          "internalType": "uint256",
          "name": "",
          "type": "uint256"
        },
        {
          "internalType": "address",
          "name": "",
          "type": "address"
        }
      ],
      "name": "degenShares",
      "outputs": [
        {
          "internalType": "uint256",
          "name": "",
          "type": "uint256"
        }
      ],
      "stateMutability": "view",
      "type": "function"
    },
    {
      "inputs": [
        {
          "internalType": "uint256",
          "name": "amount",
          "type": "uint256"
        },
        {
          "internalType": "bool",
          "name": "isDegen",
          "type": "bool"
        }
      ],
      "name": "deposit",
      "outputs": [],
      "stateMutability": "nonpayable",
      "type": "function"
    },
    {
      "inputs": [],
      "name": "depositsEnabled",
      "outputs": [
        {
          "internalType": "bool",
          "name": "",
          "type": "bool"
        }
      ],
      "stateMutability": "view",
      "type": "function"
    },
    {
      "inputs": [
        {
          "internalType": "uint256",
          "name": "totalFee",
          "type": "uint256"
        }
      ],
      "name": "distributeClosingFee",
      "outputs": [],
      "stateMutability": "nonpayable",
      "type": "function"
    },
    {
      "inputs": [],
      "name": "maxDegenDeposits",
      "outputs": [
        {
          "internalType": "uint256",
          "name": "",
          "type": "uint256"
        }
      ],
      "stateMutability": "view",
      "type": "function"
    },
    {
      "inputs": [],
      "name": "maxDepositPerUser",
      "outputs": [
        {
          "internalType": "uint256",
          "name": "",
          "type": "uint256"
        }
      ],
      "stateMutability": "view",
      "type": "function"
    },
    {
      "inputs": [],
      "name": "maxPrimeDeposits",
      "outputs": [
        {
          "internalType": "uint256",
          "name": "",
          "type": "uint256"
        }
      ],
      "stateMutability": "view",
      "type": "function"
    },
    {
      "inputs": [],
      "name": "name",
      "outputs": [
        {
          "internalType": "string",
          "name": "",
          "type": "string"
        }
      ],
      "stateMutability": "view",
      "type": "function"
    },
    {
      "inputs": [
        {
          "internalType": "address",
          "name": "",
          "type": "address"
        }
      ],
      "name": "primeDepositTimestamp",
      "outputs": [
        {
          "internalType": "uint256",
          "name": "",
          "type": "uint256"
        }
      ],
      "stateMutability": "view",
      "type": "function"
    },
    {
      "inputs": [],
      "name": "primeEpoch",
      "outputs": [
        {
          "internalType": "uint256",
          "name": "",
          "type": "uint256"
        }
      ],
      "stateMutability": "view",
      "type": "function"
    },
    {
      "inputs": [],
      "name": "primeLockupPeriod",
      "outputs": [
        {
          "internalType": "uint256",
          "name": "",
          "type": "uint256"
        }
      ],
      "stateMutability": "view",
      "type": "function"
    },
    {
      "inputs": [],
      "name": "primeProtectionBps",
      "outputs": [
        {
          "internalType": "uint256",
          "name": "",
          "type": "uint256"
        }
      ],
      "stateMutability": "view",
      "type": "function"
    },
    {
      "inputs": [],
      "name": "primeSharePrice",
      "outputs": [
        {
          "internalType": "uint256",
          "name": "",
          "type": "uint256"
        }
      ],
      "stateMutability": "view",
      "type": "function"
    },
    {
      "inputs": [
        {
          "internalType": "uint256",
          "name": "",
          "type": "uint256"
        },
        {
          "internalType": "address",
          "name": "",
          "type": "address"
        }
      ],
      "name": "primeShares",
      "outputs": [
        {
          "internalType": "uint256",
          "name": "",
          "type": "uint256"
        }
      ],
      "stateMutability": "view",
      "type": "function"
    },
    {
      "inputs": [
        {
          "internalType": "uint256",
          "name": "amount",
          "type": "uint256"
        }
      ],
      "name": "receiveFees",
      "outputs": [],
      "stateMutability": "nonpayable",
      "type": "function"
    },
    {
      "inputs": [
        {
          "internalType": "uint256",
          "name": "amount",
          "type": "uint256"
        }
      ],
      "name": "releaseBacking",
      "outputs": [],
      "stateMutability": "nonpayable",
      "type": "function"
    },
    {
      "inputs": [
        {
          "internalType": "uint256",
          "name": "amount",
          "type": "uint256"
        }
      ],
      "name": "reserveBacking",
      "outputs": [],
      "stateMutability": "nonpayable",
      "type": "function"
    },
    {
      "inputs": [
        {
          "internalType": "address",
          "name": "trader",
          "type": "address"
        },
        {
          "internalType": "uint256",
          "name": "amount",
          "type": "uint256"
        }
      ],
      "name": "returnCollateral",
      "outputs": [],
      "stateMutability": "nonpayable",
      "type": "function"
    },
    {
      "inputs": [
        {
          "internalType": "uint256",
          "name": "_perUser",
          "type": "uint256"
        },
        {
          "internalType": "uint256",
          "name": "_degenTotal",
          "type": "uint256"
        },
        {
          "internalType": "uint256",
          "name": "_primeTotal",
          "type": "uint256"
        }
      ],
      "name": "setDepositCaps",
      "outputs": [],
      "stateMutability": "nonpayable",
      "type": "function"
    },
    {
      "inputs": [
        {
          "internalType": "uint256",
          "name": "_bps",
          "type": "uint256"
        }
      ],
      "name": "setPrimeProtection",
      "outputs": [],
      "stateMutability": "nonpayable",
      "type": "function"
    },
    {
      "inputs": [
        {
          "internalType": "uint256",
          "name": "_degenSeconds",
          "type": "uint256"
        },
        {
          "internalType": "uint256",
          "name": "_primeSeconds",
          "type": "uint256"
        }
      ],
      "name": "setTieredLockups",
      "outputs": [],
      "stateMutability": "nonpayable",
      "type": "function"
    },
    {
      "inputs": [
        {
          "internalType": "uint256",
          "name": "amount",
          "type": "uint256"
        }
      ],
      "name": "settleAccruedFees",
      "outputs": [],
      "stateMutability": "nonpayable",
      "type": "function"
    },
    {
      "inputs": [
        {
          "internalType": "address",
          "name": "trader",
          "type": "address"
        },
        {
          "internalType": "address",
          "name": "liquidator",
          "type": "address"
        },
        {
          "internalType": "uint256",
          "name": "collateral",
          "type": "uint256"
        },
        {
          "internalType": "uint256",
          "name": "reward",
          "type": "uint256"
        }
      ],
      "name": "settleLiquidation",
      "outputs": [],
      "stateMutability": "nonpayable",
      "type": "function"
    },
    {
      "inputs": [
        {
          "internalType": "address",
          "name": "trader",
          "type": "address"
        },
        {
          "internalType": "uint256",
          "name": "collateral",
          "type": "uint256"
        },
        {
          "internalType": "int256",
          "name": "netPnl",
          "type": "int256"
        }
      ],
      "name": "settlePosition",
      "outputs": [],
      "stateMutability": "nonpayable",
      "type": "function"
    },
    {
      "inputs": [
        {
          "internalType": "address",
          "name": "user",
          "type": "address"
        },
        {
          "internalType": "bool",
          "name": "isDegen",
          "type": "bool"
        }
      ],
      "name": "sharesOf",
      "outputs": [
        {
          "internalType": "uint256",
          "name": "",
          "type": "uint256"
        }
      ],
      "stateMutability": "view",
      "type": "function"
    },
    {
      "inputs": [],
      "name": "symbol",
      "outputs": [
        {
          "internalType": "string",
          "name": "",
          "type": "string"
        }
      ],
      "stateMutability": "view",
      "type": "function"
    },
    {
      "inputs": [
        {
          "internalType": "bool",
          "name": "_enabled",
          "type": "bool"
        }
      ],
      "name": "toggleDeposits",
      "outputs": [],
      "stateMutability": "nonpayable",
      "type": "function"
    },
    {
      "inputs": [],
      "name": "totalAssets",
      "outputs": [
        {
          "internalType": "uint256",
          "name": "",
          "type": "uint256"
        }
      ],
      "stateMutability": "view",
      "type": "function"
    },
    {
      "inputs": [],
      "name": "totalBacking",
      "outputs": [
        {
          "internalType": "uint256",
          "name": "",
          "type": "uint256"
        }
      ],
      "stateMutability": "view",
      "type": "function"
    },
    {
      "inputs": [],
      "name": "totalDegenAssets",
      "outputs": [
        {
          "internalType": "uint256",
          "name": "",
          "type": "uint256"
        }
      ],
      "stateMutability": "view",
      "type": "function"
    },
    {
      "inputs": [],
      "name": "totalDegenShares",
      "outputs": [
        {
          "internalType": "uint256",
          "name": "",
          "type": "uint256"
        }
      ],
      "stateMutability": "view",
      "type": "function"
    },
    {
      "inputs": [],
      "name": "totalPrimeAssets",
      "outputs": [
        {
          "internalType": "uint256",
          "name": "",
          "type": "uint256"
        }
      ],
      "stateMutability": "view",
      "type": "function"
    },
    {
      "inputs": [],
      "name": "totalPrimeShares",
      "outputs": [
        {
          "internalType": "uint256",
          "name": "",
          "type": "uint256"
        }
      ],
      "stateMutability": "view",
      "type": "function"
    },
    {
      "inputs": [],
      "name": "usdc",
      "outputs": [
        {
          "internalType": "contract IERC20",
          "name": "",
          "type": "address"
        }
      ],
      "stateMutability": "view",
      "type": "function"
    },
    {
      "inputs": [],
      "name": "utilization",
      "outputs": [
        {
          "internalType": "uint256",
          "name": "",
          "type": "uint256"
        }
      ],
      "stateMutability": "view",
      "type": "function"
    },
    {
      "inputs": [
        {
          "internalType": "uint256",
          "name": "shareAmount",
          "type": "uint256"
        },
        {
          "internalType": "bool",
          "name": "isDegen",
          "type": "bool"
        }
      ],
      "name": "withdraw",
      "outputs": [],
      "stateMutability": "nonpayable",
      "type": "function"
    }
  ],
  "bytecode": "0x60a0346200010857601f620023f538819003918201601f19168301916001600160401b038311848410176200010c57808492604094855283398101031262000108576200005a6020620000528362000120565b920162000120565b60015f81905562069780600c556202a300600d5564e8d4a51000600f556512309ce54000601055651b48eb57e0006011556117706012556013805460ff1916821790556001600160a01b0392831660805280546001600160a01b031916919092161790556040516122bf908162000136823960805181818161069a01528181610be501528181610f7301528181611076015281816113da0152818161171c015281816119bb0152611b720152f35b5f80fd5b634e487b7160e01b5f52604160045260245ffd5b51906001600160a01b0382168203620001085756fe604060808152600480361015610013575f80fd5b5f915f3560e01c806301e1d11414611e1e57806302361ad214611e005780630420592e14611d4257806306ae707f14611cc357806306fdde0314611c6f578063099339be14611c3857806309c0533b14611a73578063118f304314611609578063269dd1b4146115ea578063313ce567146115ce57806335b8e713146112aa57806338d0743614610fbf5780633902eeba14610fa25780633e413bee14610f5e5780634da8411014610f305780635392fd1c14610f0c578063569ab63a14610ece5780636e93ae2b14610e5457806370805da114610d7f57806371657b5314610d605780637258b22714610ce05780637437535914610c9857806374e863ad14610b5357806381227ebb14610b3457806382d99eb414610b1557806382e5310c14610af657806385f5dc3114610ab757806394d88cba14610a9857806395d89b4114610a56578063968e16c914610a2857806399383f78146109975780639a408321146105975780639a5f9bdd146105785780639c48d2421461055b578063a1ee65f71461049d578063aa0539c41461047e578063ba4eb8721461045f578063ba9a7a5614610442578063c0a0d32a14610423578063db3eff57146103eb578063dd3018a01461034a578063ea21cd9214610326578063eb2cd25814610307578063f175f478146102e8578063f2f4eb26146102bb5763ff20b48d14610217575f80fd5b346102b75760203660031901126102b7576001548151637622567960e11b81526001600160a01b039160209082908690829086165afa9081156102ad57859161027e575b50163303610271575061026e9035612161565b80f35b5163e9e3f4ad60e01b8152fd5b6102a0915060203d6020116102a6575b6102988183611eac565b810190611f36565b5f61025b565b503d61028e565b83513d87823e3d90fd5b8280fd5b8382346102e457816003193601126102e45760015490516001600160a01b039091168152602090f35b5080fd5b8382346102e457816003193601126102e4576020906009549051908152f35b8382346102e457816003193601126102e457602090600e549051908152f35b8382346102e457816003193601126102e457602090610343612126565b9051908152f35b5090346102b75760203660031901126102b7576001548251637622567960e11b8152823593916001600160a01b03919060209082908690829086165afa9081156103e15786916103c2575b50163303610271575050600e5490808211156103ba576103b491611f55565b600e5580f35b5050806103b4565b6103db915060203d6020116102a6576102988183611eac565b5f610395565b83513d88823e3d90fd5b8382346102e45760203660031901126102e45760209181906001600160a01b03610413611e41565b168152600b845220549051908152f35b8382346102e457816003193601126102e4576020906002549051908152f35b8382346102e457816003193601126102e457602090516103e88152f35b8382346102e457816003193601126102e4576020906003549051908152f35b8382346102e457816003193601126102e4576020906011549051908152f35b5090346102b75760203660031901126102b7576001548251638da5cb5b60e01b8152823593916001600160a01b03919060209082908690829086165afa9081156103e157869161053c575b5016330361052f57612710831161050157505060125580f35b906020606492519162461bcd60e51b835282015260086024820152674d6178203130302560c01b6044820152fd5b51635fc483c560e01b8152fd5b610555915060203d6020116102a6576102988183611eac565b5f6104e8565b8382346102e457816003193601126102e4576020906103436120fb565b8382346102e457816003193601126102e457602090600c549051908152f35b5090346102b757816003193601126102b7578035906105b4611e6d565b906105bd612248565b82156109895760ff601354161561097b578115610958576105e083600554611f15565b6010541061094a575b811561094157600354905b8215610939576005545b831561093057600254925b80159182159283610928575b15610914576103e894858811156108d1576103e71988018881116108a9579587156108bc576003549081018091116108a9576003555b851561086f5791610668939188938b93610821575b505050611f15565b600f54106108135784516323b872dd60e01b81523382820152306024820152604481018590526020919082816064818b7f00000000000000000000000000000000000000000000000000000000000000006001600160a01b03165af1908115610809579161070561077c94927f6dbb6056a2fff319358e6dd7d0d72cb3baa992cdcc7e120fb0a32cd1601840e59899948b916107dc575b50611f7a565b85156107975761071785600354611f15565b60035560025489528152818820335f528152815f20610737858254611f15565b905561074587600554611f15565b6005555b841561078657600a903389525242818820555b519485526020850191909152901515604084015233929081906060820190565b0390a26001815580f35b600b9033895252428188205561075c565b506107a484600754611f15565b600755600654885260088152818820335f528152815f206107c6858254611f15565b90556107d487600954611f15565b600955610749565b6107fc9150843d8611610802575b6107f48183611eac565b810190611f62565b5f6106ff565b503d6107ea565b87513d8a823e3d90fd5b8451631823752b60e11b8152fd5b61084e935061084991908915610856578c52866020528a8c20335f526020528a5f2054611fb8565b611fcb565b5f8080610660565b8c5260086020528a8c20335f526020528a5f2054611fb8565b885162461bcd60e51b8152602081870152601460248201527353686172657320776f756c64206265207a65726f60601b6044820152606490fd5b634e487b7160e01b8b526011865260248bfd5b6007549081018091116108a95760075561064b565b885162461bcd60e51b8152602081870152601760248201527f4669727374206465706f73697420746f6f20736d616c6c0000000000000000006044820152606490fd5b61092281610849848a611fb8565b9461064b565b508015610615565b60065492610609565b6009546105fe565b600754906105f4565b83516336a00c8b60e11b8152fd5b61096483600954611f15565b60115410156105e95783516336a00c8b60e11b8152fd5b8351630e2f42c960e31b8152fd5b8351631f2a200560e01b8152fd5b5090346102b75760203660031901126102b757803591821515809303610a24576001548151638da5cb5b60e01b81526001600160a01b039160209082908690829086165afa9081156103e1578691610a05575b5016330361052f57505060ff80196013541691161760135580f35b610a1e915060203d6020116102a6576102988183611eac565b5f6109ea565b5f80fd5b8382346102e457806003193601126102e457602090610343610a48611e41565b610a50611e6d565b906120ad565b8382346102e457816003193601126102e4578051610a9491610a7782611e7c565b600682526518d59055531560d21b60208301525191829182611ece565b0390f35b8382346102e457816003193601126102e4576020906010549051908152f35b5090346102b757816003193601126102b75781602093610ad5611e57565b9235815260088552209060018060a01b03165f528252805f20549051908152f35b8382346102e457816003193601126102e457602090600f549051908152f35b8382346102e457816003193601126102e457602090600d549051908152f35b8382346102e457816003193601126102e4576020906006549051908152f35b5090346102b757816003193601126102b757610b6d611e41565b6001548351637622567960e11b8152602435936020936001600160a01b0393909290859082908490829088165afa80156108095784918991610c7b575b50163303610c6d57855163a9059cbb60e01b81526001600160a01b038316918101918252602082018690529084908290819060400103818a877f0000000000000000000000000000000000000000000000000000000000000000165af1908115610c63577f3db642b80902afb8ef23a2aeab4800b4b3717feb180705cf0a1c273ccc591c97959691610c42918991610c4c5750611f7a565b519485521692a280f35b6107fc9150863d8811610802576107f48183611eac565b86513d89823e3d90fd5b855163e9e3f4ad60e01b8152fd5b610c929150863d88116102a6576102988183611eac565b5f610baa565b8382346102e457816003193601126102e457602091610cbc60055460095490611f15565b600e549081811115610cd8576103439250611f55565b51908152f35b505090610cd2565b50346102b75760603660031901126102b7576001548151638da5cb5b60e01b81526001600160a01b039160209082908690829086165afa9081156102ad578591610d41575b5016330361052f575035600f5560243560105560443560115580f35b610d5a915060203d6020116102a6576102988183611eac565b5f610d25565b8382346102e457816003193601126102e4576020906012549051908152f35b5090346102b757816003193601126102b7578035906024359260018060a01b038260208260015416845192838092638da5cb5b60e01b82525afa908115610e4a578791610e2b575b5016330361052f5762278d00808411159081610e20575b5015610def575050600c55600d5580f35b906020606492519162461bcd60e51b8352820152600b60248201526a4d6178203330206461797360a81b6044820152fd5b90508411155f610dde565b610e44915060203d6020116102a6576102988183611eac565b5f610dc7565b83513d89823e3d90fd5b50346102b75760203660031901126102b7576001548151637622567960e11b81526001600160a01b039160209082908690829086165afa9081156102ad578591610eaf575b5016330361027157506103b49035600e54611f15565b610ec8915060203d6020116102a6576102988183611eac565b5f610e99565b5090346102b757816003193601126102b75781602093610eec611e57565b92803582528552209060018060a01b03165f528252805f20549051908152f35b8382346102e457816003193601126102e45760209060ff6013541690519015158152f35b8382346102e457806003193601126102e457602090610343610f50611e41565b610f58611e6d565b9061202d565b8382346102e457816003193601126102e457517f00000000000000000000000000000000000000000000000000000000000000006001600160a01b03168152602090f35b8382346102e457816003193601126102e457602090610343611ff7565b5090346102b757816003193601126102b7578035610fdb611e6d565b90610fe4612248565b801561129a578115611292576002545b821561127857855282602052838520335f5260205280845f20545b1061126857811561125d57611038600c545b831561124c57338752600a60205285872054611f15565b421061123c5781156112315761105e6003545b8315611226576108496005545b84611fb8565b84516370a0823160e01b8152308186015290936020917f00000000000000000000000000000000000000000000000000000000000000006001600160a01b031691908381602481865afa90811561121c5789916111eb575b5086116111dd5785611137928492875f14611199576110d787600354611f55565b6003556002548b52808452898b20335f528452895f206110f8888254611f55565b905561110683600554611f55565b6005555b895163a9059cbb60e01b81523391810191825260208201939093529193849283918c918391604090910190565b03925af1918215610c635761077c927fb97e775637eca8401af330efee0810af7079bafae27761741e09caa14db8d27296979261075c928a9261117c575b5050611f7a565b6111929250803d10610802576107f48183611eac565b5f80611175565b6111a587600754611f55565b6007556006548b5260088452898b20335f528452895f206111c7888254611f55565b90556111d583600954611f55565b60095561110a565b865163bb55fd2760e01b8152fd5b90508381813d8311611215575b6112028183611eac565b8101031261121157515f6110b6565b8880fd5b503d6111f8565b88513d8b823e3d90fd5b610849600954611058565b61105e60075461104b565b83516354e21be360e11b81528390fd5b338752600b60205285872054611f15565b611038600d54611021565b8351633999656760e01b81528390fd5b85526008602052838520335f5260205280845f205461100f565b600654610ff4565b8351631f2a200560e01b81528390fd5b50346102b757602090816003193601126115ca576001548151637622567960e11b81526001600160a01b0391821694803593929091858184818a5afa9081156115945790829189916115ad575b5016330361159e578251631db0457960e11b81528281018590529083826024818a5afa91821561159457889261155f575b508161135d575b5050507f86c46efee0a638b418fa0952cd587c78b75b8bc989e7a7c13a86d448ec34a084935051908152a180f35b858394976005546009546113718183611f15565b9182611489575b5050508851948580926361d027b360e01b82525afa88811561147e576113d6958895829361145f575b50895163a9059cbb60e01b81526001600160a01b03909316908301908152602081019490945290948593849291839160400190565b03927f0000000000000000000000000000000000000000000000000000000000000000165af1908115611455577f86c46efee0a638b418fa0952cd587c78b75b8bc989e7a7c13a86d448ec34a084949161143691879161143e5750611f7a565b5f808061132f565b6107fc9150853d8711610802576107f48183611eac565b84513d87823e3d90fd5b611477919350863d88116102a6576102988183611eac565b915f6113a1565b8851903d90823e3d90fd5b61149a6114bc93610849838a611fb8565b9283916114b26114aa848b611f55565b958692611f55565b9384600555611f55565b9182600955159081611555575b50611521575b159081611517575b506114e5575b5f8080611378565b5f8051602061226a833981519152896114ff600654611fe9565b806006558c6007558151908d825285820152a16114dd565b905015155f6114d7565b5f8051602061226a8339815191528b8d61153c600254611fe9565b90816002556003558151906001825287820152a16114cf565b905015155f6114c9565b9091508381813d831161158d575b6115778183611eac565b8101031261158957850151905f611328565b8780fd5b503d61156d565b84513d8a823e3d90fd5b50905163e9e3f4ad60e01b8152fd5b6115c49150873d89116102a6576102988183611eac565b5f6112f7565b8380fd5b8382346102e457816003193601126102e4576020905160068152f35b8382346102e457816003193601126102e4576020906007549051908152f35b5034610a24576060366003190112610a2457611623611e41565b906024356044359260018060a01b0391826001541684518091637622567960e11b8252818960209485935afa908115611a21579085915f91611a56575b50163303611a4657600e548280821115611a3e5761167d91611f55565b600e555f8612611931578560095460125461271090810381811161191e5791888594926116ab899584611fb8565b046116b96005549182611f15565b808d116118e3575b508084116117db57505050806116dc6116ec92600554611f55565b80600555156117a7575b85611f15565b875163a9059cbb60e01b81526001600160a01b03909216998201998a5260208a0152978890819060400103818b887f0000000000000000000000000000000000000000000000000000000000000000165af196871561179d577fa9c6720706505784683f09b0975d4f1a78dfdeebc7fead8936439abd5b96f0219697611778918a916117865750611f7a565b84519687528601521692a280f35b6107fc9150833d8511610802576107f48183611eac565b85513d8a823e3d90fd5b5f8051602061226a833981519152898d6117c2600254611fe9565b90816002556003558151906001825287820152a16116e6565b90928095506117eb929450611f55565b915f6005556117fb600254611fe9565b806002555f60035582519060018252868201525f8051602061226a833981519152928391a182808211156118db5761183291611f55565b80600955156118b6575b50856001541690813b15610a24575f9060248b838b51958694859363630304f960e11b85528401525af180156118ac5761187d575b50836116ec83926116e6565b90985067ffffffffffffffff81116118995785525f9783611871565b604188634e487b7160e01b5f525260245ffd5b87513d5f823e3d90fd5b876118c2600654611fe9565b806006555f6007558151905f825286820152a15f61183c565b50505f611832565b90935081518c815281878201527f8bd96464087bd7a29c2d462da44e6cd69fa230fd14f8367b75b1f9240f3a89ea838c881692a2925f6116c1565b60118b634e487b7160e01b5f525260245ffd5b959695600160ff1b8614611a2b575f8690039782891061197f57507fa9c6720706505784683f09b0975d4f1a78dfdeebc7fead8936439abd5b96f0219596975061197a826121c1565b611778565b818461198b8b86611f55565b885163a9059cbb60e01b81526001600160a01b039092169382019384526020840152918290819060400103815f897f0000000000000000000000000000000000000000000000000000000000000000165af1908115611a215798611a1c61197a927fa9c6720706505784683f09b0975d4f1a78dfdeebc7fead8936439abd5b96f021999a9b5f9161143e5750611f7a565b6121c1565b86513d5f823e3d90fd5b601188634e487b7160e01b5f525260245ffd5b50505f61167d565b845163e9e3f4ad60e01b81528790fd5b611a6d9150833d85116102a6576102988183611eac565b5f611660565b509034610a24576080366003190112610a2457611a8e611e41565b90611a97611e57565b926044359160643560018060a01b039182600154169084518092637622567960e11b8252818360209586935afa908115611a21579085915f91611c1b575b50163303611c0d57600e548680821115611c0557611af291611f55565b600e55611b02611a1c8488611f55565b82611b3f575b509582917f3046bb5fb86890e6f3c32d7527b763c83ee73588c10f9533662078355cc634fa959697855197885287015216941692a3005b845163a9059cbb60e01b81526001600160a01b038916918101918252602082018490529082908290819060400103815f887f0000000000000000000000000000000000000000000000000000000000000000165af1908115611bfb5791611bd38594927f3046bb5fb86890e6f3c32d7527b763c83ee73588c10f9533662078355cc634fa98999a945f91611bde5750611f7a565b919796955091611b08565b611bf59150833d8511610802576107f48183611eac565b8b6106ff565b85513d5f823e3d90fd5b50505f611af2565b845163e9e3f4ad60e01b8152fd5b611c329150843d86116102a6576102988183611eac565b8a611ad5565b5034610a24576020366003190112610a24576020906001600160a01b03611c5d611e41565b165f52600a8252805f20549051908152f35b5034610a24575f366003190112610a24578051610a9491611c8f82611e7c565b601882527f436f6e666964656e7469616c205661756c74205368617265000000000000000060208301525191829182611ece565b5034610a245780600319360112610a2457602090611d15611ce2611e41565b611cea611e6d565b908115611d3957600c54915b15611d1f576001600160a01b03165f908152600a855283902054611f15565b4210159051908152f35b6001600160a01b03165f908152600b855283902054611f15565b600d5491611cf6565b5034610a24576020366003190112610a24576001548151637622567960e11b8152833593916001600160a01b03919060209082908590829086165afa908115611df6575f91611dd7575b50163303611dc9577f86c46efee0a638b418fa0952cd587c78b75b8bc989e7a7c13a86d448ec34a08460208484611dc2826121c1565b51908152a1005b905163e9e3f4ad60e01b8152fd5b611df0915060203d6020116102a6576102988183611eac565b85611d8c565b84513d5f823e3d90fd5b5034610a24575f366003190112610a24576020906005549051908152f35b5034610a24575f366003190112610a245760209061034360055460095490611f15565b600435906001600160a01b0382168203610a2457565b602435906001600160a01b0382168203610a2457565b602435908115158203610a2457565b6040810190811067ffffffffffffffff821117611e9857604052565b634e487b7160e01b5f52604160045260245ffd5b90601f8019910116810190811067ffffffffffffffff821117611e9857604052565b602080825282518183018190529093925f5b828110611f0157505060409293505f838284010152601f8019910116010190565b818101860151848201604001528501611ee0565b91908201809211611f2257565b634e487b7160e01b5f52601160045260245ffd5b90816020910312610a2457516001600160a01b0381168103610a245790565b91908203918211611f2257565b90816020910312610a2457518015158103610a245790565b15611f8157565b60405162461bcd60e51b815260206004820152600f60248201526e151c985b9cd9995c8819985a5b1959608a1b6044820152606490fd5b81810292918115918404141715611f2257565b8115611fd5570490565b634e487b7160e01b5f52601260045260245ffd5b5f198114611f225760010190565b60035480156120255760055490620f424091828102928184041490151715611f225761202291611fcb565b90565b50620f424090565b901561207357600354801561206d57612022916002545f52600460205260405f209060018060a01b03165f5260205261084960405f205460055490611fb8565b50505f90565b600754801561206d57612022916006545f52600860205260405f209060018060a01b03165f5260205261084960405f205460095490611fb8565b90156120d7576002545f52600460205260405f209060018060a01b03165f5260205260405f205490565b6006545f52600860205260405f209060018060a01b03165f5260205260405f205490565b60075480156120255760095490620f424091828102928184041490151715611f225761202291611fcb565b61213560055460095490611f15565b801561215c57600e549061271091828102928184041490151715611f225761202291611fcb565b505f90565b80156121be5760207fb0bf1136427af53a4f141a4607b21ad2b14e0ae6d42711aaf85b8ee33f65d3db91600e54818082115f146121b6576121a191611f55565b600e556121ad816121c1565b604051908152a1565b50505f6121a1565b50565b80156121be57600554906003820282810460031483151715611f225760095480800460011481151715611f22576121f89082611f15565b928315612237575061221e612217612232946108496122279486611fb8565b8093611f55565b91600554611f15565b600555600954611f15565b600955565b90506122439250611f15565b600555565b60025f54146122575760025f55565b604051633ee5aeb560e01b8152600490fdfe19747c4fc33d5e520aba7581fd70140b6ebf32410fb2ace04e42eb69590a4015a2646970667358221220fe671bdfc18bf0be73193ba53f8d8d8e50c2e3f8db48537c1ecae70e53b1dfc964736f6c63430008180033",
  "linkReferences": {},
  "deployedLinkReferences": {},
  "immutableReferences": {
    "5671": [
      {
        "length": 32,
        "start": 1690
      },
      {
        "length": 32,
        "start": 3045
      },
      {
        "length": 32,
        "start": 3955
      },
      {
        "length": 32,
        "start": 4214
      },
      {
        "length": 32,
        "start": 5082
      },
      {
        "length": 32,
        "start": 5916
      },
      {
        "length": 32,
        "start": 6587
      },
      {
        "length": 32,
        "start": 7026
      }
    ]
  },
  "inputSourceName": "project/src/ConfidentialVault.sol",
  "buildInfoId": "solc-0_8_24-43536e752ca2aaee02add51e31b8df79780e4b13"
}