{
  "abi": [
    {
      "type": "constructor",
      "inputs": [
        {
          "name": "_usdc",
          "type": "address",
          "internalType": "address"
        },
        {
          "name": "_core",
          "type": "address",
          "internalType": "address"
        },
        {
          "name": "_vault",
          "type": "address",
          "internalType": "address"
        },
        {
          "name": "_oracle",
          "type": "address",
          "internalType": "address"
        }
      ],
      "stateMutability": "nonpayable"
    },
    {
      "type": "function",
      "name": "cancelOrder",
      "inputs": [
        {
          "name": "orderId",
          "type": "uint256",
          "internalType": "uint256"
        }
      ],
      "outputs": [],
      "stateMutability": "nonpayable"
    },
    {
      "type": "function",
      "name": "closePosition",
      "inputs": [
        {
          "name": "positionId",
          "type": "uint256",
          "internalType": "uint256"
        },
        {
          "name": "updateData",
          "type": "bytes[]",
          "internalType": "bytes[]"
        }
      ],
      "outputs": [],
      "stateMutability": "payable"
    },
    {
      "type": "function",
      "name": "core",
      "inputs": [],
      "outputs": [
        {
          "name": "",
          "type": "address",
          "internalType": "contract ConfidentialCore"
        }
      ],
      "stateMutability": "view"
    },
    {
      "type": "function",
      "name": "executeOrder",
      "inputs": [
        {
          "name": "orderId",
          "type": "uint256",
          "internalType": "uint256"
        },
        {
          "name": "updateData",
          "type": "bytes[]",
          "internalType": "bytes[]"
        }
      ],
      "outputs": [],
      "stateMutability": "payable"
    },
    {
      "type": "function",
      "name": "getPosition",
      "inputs": [
        {
          "name": "positionId",
          "type": "uint256",
          "internalType": "uint256"
        }
      ],
      "outputs": [
        {
          "name": "",
          "type": "tuple",
          "internalType": "struct ConfidentialTrading.Position",
          "components": [
            {
              "name": "pairId",
              "type": "bytes32",
              "internalType": "bytes32"
            },
            {
              "name": "trader",
              "type": "address",
              "internalType": "address"
            },
            {
              "name": "isLong",
              "type": "bool",
              "internalType": "bool"
            },
            {
              "name": "sizeUsd",
              "type": "uint256",
              "internalType": "uint256"
            },
            {
              "name": "collateral",
              "type": "uint256",
              "internalType": "uint256"
            },
            {
              "name": "entryPrice",
              "type": "uint256",
              "internalType": "uint256"
            },
            {
              "name": "leverage",
              "type": "uint256",
              "internalType": "uint256"
            },
            {
              "name": "liquidationPrice",
              "type": "uint256",
              "internalType": "uint256"
            },
            {
              "name": "openedAt",
              "type": "uint256",
              "internalType": "uint256"
            },
            {
              "name": "isOpen",
              "type": "bool",
              "internalType": "bool"
            }
          ]
        }
      ],
      "stateMutability": "view"
    },
    {
      "type": "function",
      "name": "getPositionPnl",
      "inputs": [
        {
          "name": "positionId",
          "type": "uint256",
          "internalType": "uint256"
        }
      ],
      "outputs": [
        {
          "name": "",
          "type": "int256",
          "internalType": "int256"
        }
      ],
      "stateMutability": "view"
    },
    {
      "type": "function",
      "name": "getUserPositionCount",
      "inputs": [
        {
          "name": "user",
          "type": "address",
          "internalType": "address"
        }
      ],
      "outputs": [
        {
          "name": "",
          "type": "uint256",
          "internalType": "uint256"
        }
      ],
      "stateMutability": "view"
    },
    {
      "type": "function",
      "name": "getUserPositionIds",
      "inputs": [
        {
          "name": "user",
          "type": "address",
          "internalType": "address"
        }
      ],
      "outputs": [
        {
          "name": "",
          "type": "uint256[]",
          "internalType": "uint256[]"
        }
      ],
      "stateMutability": "view"
    },
    {
      "type": "function",
      "name": "liquidate",
      "inputs": [
        {
          "name": "positionId",
          "type": "uint256",
          "internalType": "uint256"
        },
        {
          "name": "updateData",
          "type": "bytes[]",
          "internalType": "bytes[]"
        }
      ],
      "outputs": [],
      "stateMutability": "payable"
    },
    {
      "type": "function",
      "name": "liquidationRewardBps",
      "inputs": [],
      "outputs": [
        {
          "name": "",
          "type": "uint256",
          "internalType": "uint256"
        }
      ],
      "stateMutability": "view"
    },
    {
      "type": "function",
      "name": "nextOrderId",
      "inputs": [],
      "outputs": [
        {
          "name": "",
          "type": "uint256",
          "internalType": "uint256"
        }
      ],
      "stateMutability": "view"
    },
    {
      "type": "function",
      "name": "nextPositionId",
      "inputs": [],
      "outputs": [
        {
          "name": "",
          "type": "uint256",
          "internalType": "uint256"
        }
      ],
      "stateMutability": "view"
    },
    {
      "type": "function",
      "name": "openPosition",
      "inputs": [
        {
          "name": "pairId",
          "type": "bytes32",
          "internalType": "bytes32"
        },
        {
          "name": "isLong",
          "type": "bool",
          "internalType": "bool"
        },
        {
          "name": "sizeUsd",
          "type": "uint256",
          "internalType": "uint256"
        },
        {
          "name": "leverage",
          "type": "uint256",
          "internalType": "uint256"
        },
        {
          "name": "updateData",
          "type": "bytes[]",
          "internalType": "bytes[]"
        }
      ],
      "outputs": [
        {
          "name": "positionId",
          "type": "uint256",
          "internalType": "uint256"
        }
      ],
      "stateMutability": "payable"
    },
    {
      "type": "function",
      "name": "oracle",
      "inputs": [],
      "outputs": [
        {
          "name": "",
          "type": "address",
          "internalType": "contract MockOracle"
        }
      ],
      "stateMutability": "view"
    },
    {
      "type": "function",
      "name": "pendingOrders",
      "inputs": [
        {
          "name": "",
          "type": "uint256",
          "internalType": "uint256"
        }
      ],
      "outputs": [
        {
          "name": "pairId",
          "type": "bytes32",
          "internalType": "bytes32"
        },
        {
          "name": "trader",
          "type": "address",
          "internalType": "address"
        },
        {
          "name": "isLong",
          "type": "bool",
          "internalType": "bool"
        },
        {
          "name": "sizeUsd",
          "type": "uint256",
          "internalType": "uint256"
        },
        {
          "name": "collateral",
          "type": "uint256",
          "internalType": "uint256"
        },
        {
          "name": "leverage",
          "type": "uint256",
          "internalType": "uint256"
        },
        {
          "name": "triggerPrice",
          "type": "uint256",
          "internalType": "uint256"
        },
        {
          "name": "orderType",
          "type": "uint8",
          "internalType": "uint8"
        },
        {
          "name": "reduceOnly",
          "type": "bool",
          "internalType": "bool"
        },
        {
          "name": "isActive",
          "type": "bool",
          "internalType": "bool"
        },
        {
          "name": "createdAt",
          "type": "uint256",
          "internalType": "uint256"
        }
      ],
      "stateMutability": "view"
    },
    {
      "type": "function",
      "name": "placeOrder",
      "inputs": [
        {
          "name": "pairId",
          "type": "bytes32",
          "internalType": "bytes32"
        },
        {
          "name": "isLong",
          "type": "bool",
          "internalType": "bool"
        },
        {
          "name": "sizeUsd",
          "type": "uint256",
          "internalType": "uint256"
        },
        {
          "name": "leverage",
          "type": "uint256",
          "internalType": "uint256"
        },
        {
          "name": "triggerPrice",
          "type": "uint256",
          "internalType": "uint256"
        },
        {
          "name": "orderType",
          "type": "uint8",
          "internalType": "uint8"
        },
        {
          "name": "reduceOnly",
          "type": "bool",
          "internalType": "bool"
        }
      ],
      "outputs": [
        {
          "name": "orderId",
          "type": "uint256",
          "internalType": "uint256"
        }
      ],
      "stateMutability": "payable"
    },
    {
      "type": "function",
      "name": "positions",
      "inputs": [
        {
          "name": "",
          "type": "uint256",
          "internalType": "uint256"
        }
      ],
      "outputs": [
        {
          "name": "pairId",
          "type": "bytes32",
          "internalType": "bytes32"
        },
        {
          "name": "trader",
          "type": "address",
          "internalType": "address"
        },
        {
          "name": "isLong",
          "type": "bool",
          "internalType": "bool"
        },
        {
          "name": "sizeUsd",
          "type": "uint256",
          "internalType": "uint256"
        },
        {
          "name": "collateral",
          "type": "uint256",
          "internalType": "uint256"
        },
        {
          "name": "entryPrice",
          "type": "uint256",
          "internalType": "uint256"
        },
        {
          "name": "leverage",
          "type": "uint256",
          "internalType": "uint256"
        },
        {
          "name": "liquidationPrice",
          "type": "uint256",
          "internalType": "uint256"
        },
        {
          "name": "openedAt",
          "type": "uint256",
          "internalType": "uint256"
        },
        {
          "name": "isOpen",
          "type": "bool",
          "internalType": "bool"
        }
      ],
      "stateMutability": "view"
    },
    {
      "type": "function",
      "name": "usdc",
      "inputs": [],
      "outputs": [
        {
          "name": "",
          "type": "address",
          "internalType": "contract IERC20Transfer"
        }
      ],
      "stateMutability": "view"
    },
    {
      "type": "function",
      "name": "userPositions",
      "inputs": [
        {
          "name": "",
          "type": "address",
          "internalType": "address"
        },
        {
          "name": "",
          "type": "uint256",
          "internalType": "uint256"
        }
      ],
      "outputs": [
        {
          "name": "",
          "type": "uint256",
          "internalType": "uint256"
        }
      ],
      "stateMutability": "view"
    },
    {
      "type": "function",
      "name": "vault",
      "inputs": [],
      "outputs": [
        {
          "name": "",
          "type": "address",
          "internalType": "contract ConfidentialVault"
        }
      ],
      "stateMutability": "view"
    },
    {
      "type": "event",
      "name": "FeeDistributed",
      "inputs": [
        {
          "name": "toVault",
          "type": "uint256",
          "indexed": false,
          "internalType": "uint256"
        },
        {
          "name": "toTreasury",
          "type": "uint256",
          "indexed": false,
          "internalType": "uint256"
        },
        {
          "name": "toInsurance",
          "type": "uint256",
          "indexed": false,
          "internalType": "uint256"
        }
      ],
      "anonymous": false
    },
    {
      "type": "event",
      "name": "OrderCancelled",
      "inputs": [
        {
          "name": "orderId",
          "type": "uint256",
          "indexed": true,
          "internalType": "uint256"
        }
      ],
      "anonymous": false
    },
    {
      "type": "event",
      "name": "OrderExecuted",
      "inputs": [
        {
          "name": "orderId",
          "type": "uint256",
          "indexed": true,
          "internalType": "uint256"
        },
        {
          "name": "positionId",
          "type": "uint256",
          "indexed": true,
          "internalType": "uint256"
        }
      ],
      "anonymous": false
    },
    {
      "type": "event",
      "name": "OrderPlaced",
      "inputs": [
        {
          "name": "orderId",
          "type": "uint256",
          "indexed": true,
          "internalType": "uint256"
        },
        {
          "name": "trader",
          "type": "address",
          "indexed": true,
          "internalType": "address"
        },
        {
          "name": "pairId",
          "type": "bytes32",
          "indexed": false,
          "internalType": "bytes32"
        },
        {
          "name": "orderType",
          "type": "uint8",
          "indexed": false,
          "internalType": "uint8"
        },
        {
          "name": "triggerPrice",
          "type": "uint256",
          "indexed": false,
          "internalType": "uint256"
        }
      ],
      "anonymous": false
    },
    {
      "type": "event",
      "name": "PositionClosed",
      "inputs": [
        {
          "name": "positionId",
          "type": "uint256",
          "indexed": true,
          "internalType": "uint256"
        },
        {
          "name": "trader",
          "type": "address",
          "indexed": true,
          "internalType": "address"
        },
        {
          "name": "exitPrice",
          "type": "uint256",
          "indexed": false,
          "internalType": "uint256"
        },
        {
          "name": "pnl",
          "type": "int256",
          "indexed": false,
          "internalType": "int256"
        }
      ],
      "anonymous": false
    },
    {
      "type": "event",
      "name": "PositionLiquidated",
      "inputs": [
        {
          "name": "positionId",
          "type": "uint256",
          "indexed": true,
          "internalType": "uint256"
        },
        {
          "name": "liquidator",
          "type": "address",
          "indexed": true,
          "internalType": "address"
        },
        {
          "name": "reward",
          "type": "uint256",
          "indexed": false,
          "internalType": "uint256"
        }
      ],
      "anonymous": false
    },
    {
      "type": "event",
      "name": "PositionOpened",
      "inputs": [
        {
          "name": "positionId",
          "type": "uint256",
          "indexed": true,
          "internalType": "uint256"
        },
        {
          "name": "trader",
          "type": "address",
          "indexed": true,
          "internalType": "address"
        },
        {
          "name": "pairId",
          "type": "bytes32",
          "indexed": false,
          "internalType": "bytes32"
        },
        {
          "name": "isLong",
          "type": "bool",
          "indexed": false,
          "internalType": "bool"
        },
        {
          "name": "sizeUsd",
          "type": "uint256",
          "indexed": false,
          "internalType": "uint256"
        },
        {
          "name": "entryPrice",
          "type": "uint256",
          "indexed": false,
          "internalType": "uint256"
        },
        {
          "name": "leverage",
          "type": "uint256",
          "indexed": false,
          "internalType": "uint256"
        }
      ],
      "anonymous": false
    },
    {
      "type": "error",
      "name": "InsufficientCollateral",
      "inputs": []
    },
    {
      "type": "error",
      "name": "InvalidSize",
      "inputs": []
    },
    {
      "type": "error",
      "name": "NotLiquidatable",
      "inputs": []
    },
    {
      "type": "error",
      "name": "NotOrderOwner",
      "inputs": []
    },
    {
      "type": "error",
      "name": "NotPositionOwner",
      "inputs": []
    },
    {
      "type": "error",
      "name": "OrderNotActive",
      "inputs": []
    },
    {
      "type": "error",
      "name": "PositionNotOpen",
      "inputs": []
    },
    {
      "type": "error",
      "name": "ReduceOnlyViolation",
      "inputs": []
    },
    {
      "inputs": [
        {
          "internalType": "bytes32",
          "name": "pairId",
          "type": "bytes32"
        },
        {
          "internalType": "bool",
          "name": "isLong",
          "type": "bool"
        },
        {
          "internalType": "uint256",
          "name": "sizeUsd",
          "type": "uint256"
        },
        {
          "internalType": "uint256",
          "name": "leverage",
          "type": "uint256"
        }
      ],
      "name": "createOpenRequest",
      "outputs": [
        {
          "internalType": "uint256",
          "name": "orderId",
          "type": "uint256"
        }
      ],
      "stateMutability": "payable",
      "type": "function"
    },
    {
      "inputs": [
        {
          "internalType": "uint256",
          "name": "positionId",
          "type": "uint256"
        }
      ],
      "name": "createCloseRequest",
      "outputs": [
        {
          "internalType": "uint256",
          "name": "orderId",
          "type": "uint256"
        }
      ],
      "stateMutability": "payable",
      "type": "function"
    }
  ],
  "bytecode": {
    "object": "0x60a06040526101f460085534801562000016575f80fd5b50604051620031873803806200318783398101604081905262000039916200009c565b6001600160a01b039384166080525f80549385166001600160a01b0319948516179055600180549285169284169290921790915560028054919093169116179055620000f6565b80516001600160a01b038116811462000097575f80fd5b919050565b5f805f8060808587031215620000b0575f80fd5b620000bb8562000080565b9350620000cb6020860162000080565b9250620000db6040860162000080565b9150620000eb6060860162000080565b905092959194509250565b60805161301d6200016a5f395f81816101c701528181610756015281816112c4015281816114cb01528181611bea01528181611cdd01528181611ebc01528181611f9a015281816120a10152818161246d01528181612599015281816126bf015281816127ac0152612854015261301d5ff3fe60806040526004361061011b575f3560e01c806399fbab881161009d578063eddf757011610062578063eddf75701461048f578063effaed89146104bb578063f2f4eb26146104d0578063f6614170146104ee578063fbfa77cf14610501575f80fd5b806399fbab8814610273578063af13b90b14610343578063bc6e624314610356578063c3aaea4e14610375578063eb02c30114610463575f80fd5b80633e413bee116100e35780633e413bee146101b6578063514fcac7146102015780635e1b4d99146102205780637dc0d1d01461023f578063899346c71461025e575f80fd5b8063095a4b611461011f578063247d7b65146101455780632a58b3301461015a57806331e8a7ef1461016f57806333e7dddb146101a3575b5f80fd5b61013261012d366004612b0d565b610520565b6040519081526020015b60405180910390f35b610158610153366004612b7b565b610a82565b005b348015610165575f80fd5b5061013260075481565b34801561017a575f80fd5b50610132610189366004612bd7565b6001600160a01b03165f9081526005602052604090205490565b6101586101b1366004612b7b565b610b5a565b3480156101c1575f80fd5b506101e97f000000000000000000000000000000000000000000000000000000000000000081565b6040516001600160a01b03909116815260200161013c565b34801561020c575f80fd5b5061015861021b366004612bf2565b6111d5565b34801561022b575f80fd5b5061013261023a366004612c09565b61138f565b34801561024a575f80fd5b506002546101e9906001600160a01b031681565b348015610269575f80fd5b5061013260045481565b34801561027e575f80fd5b506102e961028d366004612bf2565b600360208190525f918252604090912080546001820154600283015493830154600484015460058501546006860154600787015460089097015495976001600160a01b0386169760ff600160a01b90970487169791969091168a565b604080519a8b526001600160a01b0390991660208b0152961515978901979097526060880194909452608087019290925260a086015260c085015260e084015261010083019190915215156101208201526101400161013c565b610132610351366004612c33565b6113ba565b348015610361575f80fd5b50610132610370366004612bf2565b61174c565b348015610380575f80fd5b506103fd61038f366004612bf2565b600660208190525f91825260409091208054600182015460028301546003840154600485015460058601549686015460079096015494966001600160a01b0385169660ff600160a01b909604861696949593949293919281831692610100830481169262010000900416908b565b604080519b8c526001600160a01b03909a1660208c0152971515988a01989098526060890195909552608088019390935260a087019190915260c086015260ff1660e085015215156101008401529015156101208301526101408201526101600161013c565b34801561046e575f80fd5b5061048261047d366004612bf2565b61186f565b60405161013c9190612cd6565b34801561049a575f80fd5b506104ae6104a9366004612bd7565b611963565b60405161013c9190612d69565b3480156104c6575f80fd5b5061013260085481565b3480156104db575f80fd5b505f546101e9906001600160a01b031681565b6101586104fc366004612b7b565b6119cc565b34801561050c575f80fd5b506001546101e9906001600160a01b031681565b5f811561058a57600254604051631df3cbc560e31b81526001600160a01b039091169063ef9e5e2890349061055b9087908790600401612dd4565b5f604051808303818588803b158015610572575f80fd5b505af1158015610584573d5f803e3d5ffd5b50505050505b845f036105aa57604051630ffd11ad60e01b815260040160405180910390fd5b5f5460405163bd79156f60e01b815260048101899052336024820152871515604482015260648101879052608481018690526001600160a01b039091169063bd79156f9060a4015f6040518083038186803b158015610607575f80fd5b505afa158015610619573d5f803e3d5ffd5b50506002546040516331d98b3f60e01b8152600481018b90525f93506001600160a01b0390911691506331d98b3f906024016040805180830381865afa158015610665573d5f803e3d5ffd5b505050506040513d601f19601f820116820180604052508101906106899190612e6c565b5090505f6106978688612ea2565b9050805f036106b957604051633a23d82560e01b815260040160405180910390fd5b5f80546040516399a5d74760e01b8152600481018a90526001600160a01b03909116906399a5d74790602401602060405180830381865afa158015610700573d5f803e3d5ffd5b505050506040513d601f19601f820116820180604052508101906107249190612ec1565b90505f6107318284612ed8565b6040516323b872dd60e01b8152336004820152306024820152604481018290529091507f00000000000000000000000000000000000000000000000000000000000000006001600160a01b0316906323b872dd906064016020604051808303815f875af11580156107a4573d5f803e3d5ffd5b505050506040513d601f19601f820116820180604052508101906107c89190612eeb565b506107d282611e1c565b600154604051636e93ae2b60e01b8152600481018590526001600160a01b0390911690636e93ae2b906024015f604051808303815f87803b158015610815575f80fd5b505af1158015610827573d5f803e3d5ffd5b505050505f610837858a8d6121e7565b600480549192505f61084883612f06565b9190505595506040518061014001604052808d8152602001336001600160a01b031681526020018c151581526020018b81526020018581526020018681526020018a81526020018281526020014281526020016001151581525060035f8881526020019081526020015f205f820151815f01556020820151816001015f6101000a8154816001600160a01b0302191690836001600160a01b0316021790555060408201518160010160146101000a81548160ff021916908315150217905550606082015181600201556080820151816003015560a0820151816004015560c0820151816005015560e082015181600601556101008201518160070155610120820151816008015f6101000a81548160ff02191690831515021790555090505060055f336001600160a01b03166001600160a01b031681526020019081526020015f2086908060018154018082558091505060019003905f5260205f20015f90919091909150555f8054906101000a90046001600160a01b03166001600160a01b031663b65b361f8d338e8e6040518563ffffffff1660e01b81526004016109f29493929190612f1e565b5f604051808303815f87803b158015610a09575f80fd5b505af1158015610a1b573d5f803e3d5ffd5b5050604080518f81528e151560208201529081018d905260608101889052608081018c90523392508891507f52ca44dea94749aadfaa4d3749a0323a33b3a6434adcfff52ad54c511f5579c79060a00160405180910390a350505050509695505050505050565b8015610aeb57600254604051631df3cbc560e31b81526001600160a01b039091169063ef9e5e28903490610abc9086908690600401612dd4565b5f604051808303818588803b158015610ad3575f80fd5b505af1158015610ae5573d5f803e3d5ffd5b50505050505b5f838152600360205260409020600881015460ff16610b1d576040516394e88a2160e01b815260040160405180910390fd5b60018101546001600160a01b03163314610b4a576040516370d645e360e01b815260040160405180910390fd5b610b54848261224e565b50505050565b8015610bc357600254604051631df3cbc560e31b81526001600160a01b039091169063ef9e5e28903490610b949086908690600401612dd4565b5f604051808303818588803b158015610bab575f80fd5b505af1158015610bbd573d5f803e3d5ffd5b50505050505b5f8381526006602081905260409091209081015462010000900460ff16610bfd57604051631d4ecc5b60e01b815260040160405180910390fd5b60025481546040516331d98b3f60e01b815260048101919091525f916001600160a01b0316906331d98b3f906024016040805180830381865afa158015610c46573d5f803e3d5ffd5b505050506040513d601f19601f82011682018060405250810190610c6a9190612e6c565b5060068301549091505f9060ff168103610cae576001830154600160a01b900460ff1615610ca057506005820154811115610cda565b506005820154811015610cda565b6001830154600160a01b900460ff1615610cd057506005820154811015610cda565b5060058201548111155b80610d215760405162461bcd60e51b815260206004820152601360248201527213dc99195c881b9bdd081d1c9a59d9d95c9959606a1b604482015260640160405180910390fd5b5f5483546001850154600286015460048088015460405163bd79156f60e01b8152918201949094526001600160a01b038084166024830152600160a01b90930460ff1615156044820152606481019190915260848101929092529091169063bd79156f9060a4015f6040518083038186803b158015610d9e575f80fd5b505afa158015610db0573d5f803e3d5ffd5b50505f805460028701546040516399a5d74760e01b815260048101919091529193506001600160a01b031691506399a5d74790602401602060405180830381865afa158015610e01573d5f803e3d5ffd5b505050506040513d601f19601f82011682018060405250810190610e259190612ec1565b9050610e3081611e1c565b6001546003850154604051636e93ae2b60e01b81526001600160a01b0390921691636e93ae2b91610e679160040190815260200190565b5f604051808303815f87803b158015610e7e575f80fd5b505af1158015610e90573d5f803e3d5ffd5b505050505f610eb58486600401548760010160149054906101000a900460ff166121e7565b600480549192505f919082610ec983612f06565b919050559050604051806101400160405280875f01548152602001876001015f9054906101000a90046001600160a01b03166001600160a01b031681526020018760010160149054906101000a900460ff16151581526020018760020154815260200187600301548152602001868152602001876004015481526020018381526020014281526020016001151581525060035f8381526020019081526020015f205f820151815f01556020820151816001015f6101000a8154816001600160a01b0302191690836001600160a01b0316021790555060408201518160010160146101000a81548160ff021916908315150217905550606082015181600201556080820151816003015560a0820151816004015560c0820151816005015560e082015181600601556101008201518160070155610120820151816008015f6101000a81548160ff02191690831515021790555090505060055f876001015f9054906101000a90046001600160a01b03166001600160a01b03166001600160a01b031681526020019081526020015f2081908060018154018082558091505060019003905f5260205f20015f90919091909150555f8054906101000a90046001600160a01b03166001600160a01b031663b65b361f875f0154886001015f9054906101000a90046001600160a01b03168960010160149054906101000a900460ff168a600201546040518563ffffffff1660e01b81526004016110ed9493929190612f1e565b5f604051808303815f87803b158015611104575f80fd5b505af1158015611116573d5f803e3d5ffd5b50505060068701805462ff0000191690555060405181908a907f9947370f1e808dd40de986fca744d8715d4d7aa575359f77a7bdeeb887f590ea905f90a3600186015486546002880154600489015460408051938452600160a01b850460ff16151560208501528301919091526060820188905260808201526001600160a01b039091169082907f52ca44dea94749aadfaa4d3749a0323a33b3a6434adcfff52ad54c511f5579c79060a00160405180910390a3505050505050505050565b5f8181526006602081905260409091209081015462010000900460ff1661120f57604051631d4ecc5b60e01b815260040160405180910390fd5b60018101546001600160a01b0316331461123c57604051637b2095ad60e11b815260040160405180910390fd5b60068101805462ff0000191690555f805460028301546040516399a5d74760e01b81526001600160a01b03909216916399a5d747916112819160040190815260200190565b602060405180830381865afa15801561129c573d5f803e3d5ffd5b505050506040513d601f19601f820116820180604052508101906112c09190612ec1565b90507f00000000000000000000000000000000000000000000000000000000000000006001600160a01b031663a9059cbb338385600301546113029190612ed8565b6040518363ffffffff1660e01b815260040161131f929190612f44565b6020604051808303815f875af115801561133b573d5f803e3d5ffd5b505050506040513d601f19601f8201168201806040525081019061135f9190612eeb565b5060405183907f61b9399f2f0f32ca39ce8d7be32caed5ec22fe07a6daba3a467ed479ec606582905f90a2505050565b6005602052815f5260405f2081815481106113a8575f80fd5b905f5260205f20015f91509150505481565b5f811561142457600254604051631df3cbc560e31b81526001600160a01b039091169063ef9e5e289034906113f59087908790600401612dd4565b5f604051808303818588803b15801561140c575f80fd5b505af115801561141e573d5f803e3d5ffd5b50505050505b875f0361144457604051630ffd11ad60e01b815260040160405180910390fd5b5f61144f888a612ea2565b5f80546040516399a5d74760e01b8152600481018d905292935090916001600160a01b03909116906399a5d74790602401602060405180830381865afa15801561149b573d5f803e3d5ffd5b505050506040513d601f19601f820116820180604052508101906114bf9190612ec1565b90506001600160a01b037f0000000000000000000000000000000000000000000000000000000000000000166323b872dd33306114fc8587612ed8565b6040516001600160e01b031960e086901b1681526001600160a01b03938416600482015292909116602483015260448201526064016020604051808303815f875af115801561154d573d5f803e3d5ffd5b505050506040513d601f19601f820116820180604052508101906115719190612eeb565b5060078054905f61158183612f06565b9190505592506040518061016001604052808d8152602001336001600160a01b031681526020018c151581526020018b81526020018381526020018a81526020018981526020018860ff16815260200187151581526020016001151581526020014281525060065f8581526020019081526020015f205f820151815f01556020820151816001015f6101000a8154816001600160a01b0302191690836001600160a01b0316021790555060408201518160010160146101000a81548160ff021916908315150217905550606082015181600201556080820151816003015560a0820151816004015560c0820151816005015560e0820151816006015f6101000a81548160ff021916908360ff1602179055506101008201518160060160016101000a81548160ff0219169083151502179055506101208201518160060160026101000a81548160ff0219169083151502179055506101408201518160070155905050336001600160a01b0316837f401524beccff0d9dd3447788dea32e11f3b7c9618ed6084f14a773dbf2025f168e8a8c6040516117359392919092835260ff919091166020830152604082015260600190565b60405180910390a350509998505050505050505050565b5f8181526003602081815260408084208151610140810183528154815260018201546001600160a01b0381169482019490945260ff600160a01b909404841615159281019290925260028101546060830152928301546080820152600483015460a0820152600583015460c0820152600683015460e0820152600783015461010082015260089092015416151561012082018190526117ed57505f92915050565b60025481516040516331d98b3f60e01b815260048101919091525f916001600160a01b0316906331d98b3f906024016040805180830381865afa158015611836573d5f803e3d5ffd5b505050506040513d601f19601f8201168201806040525081019061185a9190612e6c565b5090506118678282612a10565b949350505050565b6118cb6040518061014001604052805f80191681526020015f6001600160a01b031681526020015f151581526020015f81526020015f81526020015f81526020015f81526020015f81526020015f81526020015f151581525090565b505f908152600360208181526040928390208351610140810185528154815260018201546001600160a01b0381169382019390935260ff600160a01b909304831615159481019490945260028101546060850152918201546080840152600482015460a0840152600582015460c0840152600682015460e0840152600782015461010084015260089091015416151561012082015290565b6001600160a01b0381165f908152600560209081526040918290208054835181840281018401909452808452606093928301828280156119c057602002820191905f5260205f20905b8154815260200190600101908083116119ac575b50505050509050919050565b8015611a3557600254604051631df3cbc560e31b81526001600160a01b039091169063ef9e5e28903490611a069086908690600401612dd4565b5f604051808303818588803b158015611a1d575f80fd5b505af1158015611a2f573d5f803e3d5ffd5b50505050505b5f838152600360205260409020600881015460ff16611a67576040516394e88a2160e01b815260040160405180910390fd5b60025481546040516331d98b3f60e01b815260048101919091525f916001600160a01b0316906331d98b3f906024016040805180830381865afa158015611ab0573d5f803e3d5ffd5b505050506040513d601f19601f82011682018060405250810190611ad49190612e6c565b5060018301549091505f90600160a01b900460ff1615611afc57506006820154811115611b06565b5060068201548110155b80611b2457604051636ef5bcdd60e11b815260040160405180910390fd5b5f6127106008548560030154611b3a9190612f5d565b611b449190612ea2565b90505f81856003015411611b58575f611b68565b818560030154611b689190612f74565b60015460038701546040516306e980c560e51b815260048101919091529192506001600160a01b03169063dd3018a0906024015f604051808303815f87803b158015611bb2575f80fd5b505af1158015611bc4573d5f803e3d5ffd5b505050505f811115611cc05760015460405163a9059cbb60e01b81526001600160a01b037f000000000000000000000000000000000000000000000000000000000000000081169263a9059cbb92611c259291909116908590600401612f44565b6020604051808303815f875af1158015611c41573d5f803e3d5ffd5b505050506040513d601f19601f82011682018060405250810190611c659190612eeb565b5060015460405163d4a8252160e01b8152600481018390526001600160a01b039091169063d4a82521906024015f604051808303815f87803b158015611ca9575f80fd5b505af1158015611cbb573d5f803e3d5ffd5b505050505b8115611d565760405163a9059cbb60e01b81526001600160a01b037f0000000000000000000000000000000000000000000000000000000000000000169063a9059cbb90611d149033908690600401612f44565b6020604051808303815f875af1158015611d30573d5f803e3d5ffd5b505050506040513d601f19601f82011682018060405250810190611d549190612eeb565b505b5f5485546001870154600288015460405163019ca2b960e51b81526001600160a01b0394851694633394572094611da294909391811692600160a01b90910460ff169190600401612f1e565b5f604051808303815f87803b158015611db9575f80fd5b505af1158015611dcb573d5f803e3d5ffd5b5050505060088501805460ff19169055604051828152339089907f26dc706c10b1f8a4bf68a2f50b9a025921938e72ee2ab65f50815438fba4a88d9060200160405180910390a35050505050505050565b805f03611e265750565b5f8054604051631db0457960e11b815260048101849052829182916001600160a01b0390911690633b608af290602401606060405180830381865afa158015611e71573d5f803e3d5ffd5b505050506040513d601f19601f82011682018060405250810190611e959190612f87565b919450925090508215611f925760015460405163a9059cbb60e01b81526001600160a01b037f000000000000000000000000000000000000000000000000000000000000000081169263a9059cbb92611ef79291909116908790600401612f44565b6020604051808303815f875af1158015611f13573d5f803e3d5ffd5b505050506040513d601f19601f82011682018060405250810190611f379190612eeb565b506001546040516302102c9760e11b8152600481018590526001600160a01b0390911690630420592e906024015f604051808303815f87803b158015611f7b575f80fd5b505af1158015611f8d573d5f803e3d5ffd5b505050505b8115612099577f00000000000000000000000000000000000000000000000000000000000000006001600160a01b031663a9059cbb5f8054906101000a90046001600160a01b03166001600160a01b03166361d027b36040518163ffffffff1660e01b8152600401602060405180830381865afa158015612015573d5f803e3d5ffd5b505050506040513d601f19601f820116820180604052508101906120399190612fb2565b846040518363ffffffff1660e01b8152600401612057929190612f44565b6020604051808303815f875af1158015612073573d5f803e3d5ffd5b505050506040513d601f19601f820116820180604052508101906120979190612eeb565b505b80156121a0577f00000000000000000000000000000000000000000000000000000000000000006001600160a01b031663a9059cbb5f8054906101000a90046001600160a01b03166001600160a01b031663b79023036040518163ffffffff1660e01b8152600401602060405180830381865afa15801561211c573d5f803e3d5ffd5b505050506040513d601f19601f820116820180604052508101906121409190612fb2565b836040518363ffffffff1660e01b815260040161215e929190612f44565b6020604051808303815f875af115801561217a573d5f803e3d5ffd5b505050506040513d601f19601f8201168201806040525081019061219e9190612eeb565b505b60408051848152602081018490529081018290527fb7ba5f299d23ea3f21efcb2b2f5e209a9405c1ca1bb1c76dce1e0c39929c0fd99060600160405180910390a150505050565b5f806121f584612328612ea2565b905082156122265761271061220a8287612f5d565b6122149190612ea2565b61221e9086612f74565b915050612247565b6127106122338287612f5d565b61223d9190612ea2565b61221e9086612ed8565b9392505050565b60025481546040516331d98b3f60e01b815260048101919091525f916001600160a01b0316906331d98b3f906024016040805180830381865afa158015612297573d5f803e3d5ffd5b505050506040513d601f19601f820116820180604052508101906122bb9190612e6c565b5060408051610140810182528454815260018501546001600160a01b038116602083015260ff600160a01b90910481161515928201929092526002850154606082015260038501546080820152600485015460a0820152600585015460c0820152600685015460e08201526007850154610100820152600885015490911615156101208201529091505f906123509083612a10565b5f805460028601546040516399a5d74760e01b8152600481019190915292935090916001600160a01b03909116906399a5d74790602401602060405180830381865afa1580156123a2573d5f803e3d5ffd5b505050506040513d601f19601f820116820180604052508101906123c69190612ec1565b60015460038601546040516306e980c560e51b815260048101919091529192506001600160a01b03169063dd3018a0906024015f604051808303815f87803b158015612410575f80fd5b505af1158015612422573d5f803e3d5ffd5b505050505f821315612563578181811115612448576124418282612f74565b905061244c565b90505f5b6001850154600386015460405163a9059cbb60e01b81526001600160a01b037f000000000000000000000000000000000000000000000000000000000000000081169363a9059cbb936124a793919092169190600401612f44565b6020604051808303815f875af11580156124c3573d5f803e3d5ffd5b505050506040513d601f19601f820116820180604052508101906124e79190612eeb565b508015612554576001805490860154604051634b12d9e960e11b81526001600160a01b0392831692639625b3d292612526929116908590600401612f44565b5f604051808303815f87803b15801561253d575f80fd5b505af115801561254f573d5f803e3d5ffd5b505050505b61255d82611e1c565b50612938565b5f61256d83612fcd565b90508460030154811061267d57600154600386015460405163a9059cbb60e01b81526001600160a01b037f000000000000000000000000000000000000000000000000000000000000000081169363a9059cbb936125d393919092169190600401612f44565b6020604051808303815f875af11580156125ef573d5f803e3d5ffd5b505050506040513d601f19601f820116820180604052508101906126139190612eeb565b50600154600386015460405163d4a8252160e01b81526001600160a01b039092169163d4a825219161264b9160040190815260200190565b5f604051808303815f87803b158015612662575f80fd5b505af1158015612674573d5f803e3d5ffd5b50505050612936565b5f81866003015461268e9190612f74565b905082811115612835576126a28382612f74565b60015460405163a9059cbb60e01b81529192506001600160a01b037f000000000000000000000000000000000000000000000000000000000000000081169263a9059cbb926126f79216908690600401612f44565b6020604051808303815f875af1158015612713573d5f803e3d5ffd5b505050506040513d601f19601f820116820180604052508101906127379190612eeb565b5060015460405163d4a8252160e01b8152600481018490526001600160a01b039091169063d4a82521906024015f604051808303815f87803b15801561277b575f80fd5b505af115801561278d573d5f803e3d5ffd5b505050600187015460405163a9059cbb60e01b81526001600160a01b037f00000000000000000000000000000000000000000000000000000000000000008116935063a9059cbb926127e6929116908590600401612f44565b6020604051808303815f875af1158015612802573d5f803e3d5ffd5b505050506040513d601f19601f820116820180604052508101906128269190612eeb565b5061283083611e1c565b612934565b600154600387015460405163a9059cbb60e01b81526001600160a01b037f000000000000000000000000000000000000000000000000000000000000000081169363a9059cbb9361288e93919092169190600401612f44565b6020604051808303815f875af11580156128aa573d5f803e3d5ffd5b505050506040513d601f19601f820116820180604052508101906128ce9190612eeb565b50600154600387015460405163d4a8252160e01b81526001600160a01b039092169163d4a82521916129069160040190815260200190565b5f604051808303815f87803b15801561291d575f80fd5b505af115801561292f573d5f803e3d5ffd5b505050505b505b505b5f5484546001860154600287015460405163019ca2b960e51b81526001600160a01b039485169463339457209461298494909391811692600160a01b90910460ff169190600401612f1e565b5f604051808303815f87803b15801561299b575f80fd5b505af11580156129ad573d5f803e3d5ffd5b5050505060088401805460ff19169055600184015460408051858152602081018590526001600160a01b039092169187917f356fca566f3a054a459c7224d9c9d634f31a98835cfd4fb4c5ddbf8b96aca211910160405180910390a35050505050565b5f826040015115612a86578260a001518210612a555760a0830151612a358184612f74565b8460600151612a449190612f5d565b612a4e9190612ea2565b9050612aaf565b60a0830151612a648382612f74565b8460600151612a739190612f5d565b612a7d9190612ea2565b612a4e90612fcd565b818360a0015110612aa05760a0830151612a358382612f74565b60a0830151612a648184612f74565b92915050565b8015158114612ac2575f80fd5b50565b5f8083601f840112612ad5575f80fd5b50813567ffffffffffffffff811115612aec575f80fd5b6020830191508360208260051b8501011115612b06575f80fd5b9250929050565b5f805f805f8060a08789031215612b22575f80fd5b863595506020870135612b3481612ab5565b94506040870135935060608701359250608087013567ffffffffffffffff811115612b5d575f80fd5b612b6989828a01612ac5565b979a9699509497509295939492505050565b5f805f60408486031215612b8d575f80fd5b83359250602084013567ffffffffffffffff811115612baa575f80fd5b612bb686828701612ac5565b9497909650939450505050565b6001600160a01b0381168114612ac2575f80fd5b5f60208284031215612be7575f80fd5b813561224781612bc3565b5f60208284031215612c02575f80fd5b5035919050565b5f8060408385031215612c1a575f80fd5b8235612c2581612bc3565b946020939093013593505050565b5f805f805f805f805f6101008a8c031215612c4c575f80fd5b8935985060208a0135612c5e81612ab5565b975060408a0135965060608a0135955060808a0135945060a08a013560ff81168114612c88575f80fd5b935060c08a0135612c9881612ab5565b925060e08a013567ffffffffffffffff811115612cb3575f80fd5b612cbf8c828d01612ac5565b915080935050809150509295985092959850929598565b81518152602080830151610140830191612cfa908401826001600160a01b03169052565b506040830151612d0e604084018215159052565b50606083015160608301526080830151608083015260a083015160a083015260c083015160c083015260e083015160e083015261010080840151818401525061012080840151612d618285018215159052565b505092915050565b602080825282518282018190525f9190848201906040850190845b81811015612da057835183529284019291840191600101612d84565b50909695505050505050565b81835281816020850137505f828201602090810191909152601f909101601f19169091010190565b60208082528181018390525f906040600585901b8401810190840186845b87811015612e5f57868403603f190183528135368a9003601e19018112612e17575f80fd5b8901858101903567ffffffffffffffff811115612e32575f80fd5b803603821315612e40575f80fd5b612e4b868284612dac565b955050509184019190840190600101612df2565b5091979650505050505050565b5f8060408385031215612e7d575f80fd5b505080516020909101519092909150565b634e487b7160e01b5f52601160045260245ffd5b5f82612ebc57634e487b7160e01b5f52601260045260245ffd5b500490565b5f60208284031215612ed1575f80fd5b5051919050565b80820180821115612aaf57612aaf612e8e565b5f60208284031215612efb575f80fd5b815161224781612ab5565b5f60018201612f1757612f17612e8e565b5060010190565b9384526001600160a01b0392909216602084015215156040830152606082015260800190565b6001600160a01b03929092168252602082015260400190565b8082028115828204841417612aaf57612aaf612e8e565b81810381811115612aaf57612aaf612e8e565b5f805f60608486031215612f99575f80fd5b8351925060208401519150604084015190509250925092565b5f60208284031215612fc2575f80fd5b815161224781612bc3565b5f600160ff1b8201612fe157612fe1612e8e565b505f039056fea264697066735822122058653f25750d09df9259779b6c81d9fd8a0aa10b3c279a08f9ae6305f8327fef64736f6c63430008180033",
    "linkReferences": {}
  },
  "methodIdentifiers": {
    "cancelOrder(uint256)": "514fcac7",
    "closePosition(uint256,bytes[])": "247d7b65",
    "core()": "f2f4eb26",
    "executeOrder(uint256,bytes[])": "33e7dddb",
    "getPosition(uint256)": "eb02c301",
    "getPositionPnl(uint256)": "bc6e6243",
    "getUserPositionCount(address)": "31e8a7ef",
    "getUserPositionIds(address)": "eddf7570",
    "liquidate(uint256,bytes[])": "f6614170",
    "liquidationRewardBps()": "effaed89",
    "nextOrderId()": "2a58b330",
    "nextPositionId()": "899346c7",
    "openPosition(bytes32,bool,uint256,uint256,bytes[])": "095a4b61",
    "oracle()": "7dc0d1d0",
    "pendingOrders(uint256)": "c3aaea4e",
    "placeOrder(bytes32,bool,uint256,uint256,uint256,uint8,bool,bytes[])": "af13b90b",
    "positions(uint256)": "99fbab88",
    "usdc()": "3e413bee",
    "userPositions(address,uint256)": "5e1b4d99",
    "vault()": "fbfa77cf"
  },
  "id": 17
}