{
  "_format": "hh3-artifact-1",
  "contractName": "ConfidentialTrading",
  "sourceName": "src/ConfidentialTrading.sol",
  "abi": [
    {
      "inputs": [
        {
          "internalType": "address",
          "name": "_usdc",
          "type": "address"
        },
        {
          "internalType": "address",
          "name": "_core",
          "type": "address"
        },
        {
          "internalType": "address",
          "name": "_vault",
          "type": "address"
        },
        {
          "internalType": "address",
          "name": "_oracle",
          "type": "address"
        }
      ],
      "stateMutability": "nonpayable",
      "type": "constructor"
    },
    {
      "inputs": [],
      "name": "ReentrancyGuardReentrantCall",
      "type": "error"
    },
    {
      "anonymous": false,
      "inputs": [
        {
          "indexed": true,
          "internalType": "uint256",
          "name": "positionId",
          "type": "uint256"
        },
        {
          "indexed": true,
          "internalType": "address",
          "name": "trader",
          "type": "address"
        },
        {
          "indexed": false,
          "internalType": "uint256",
          "name": "amount",
          "type": "uint256"
        },
        {
          "indexed": false,
          "internalType": "uint256",
          "name": "newLiquidationPrice",
          "type": "uint256"
        }
      ],
      "name": "CollateralAdded",
      "type": "event"
    },
    {
      "anonymous": false,
      "inputs": [
        {
          "indexed": true,
          "internalType": "uint256",
          "name": "positionId",
          "type": "uint256"
        },
        {
          "indexed": true,
          "internalType": "address",
          "name": "trader",
          "type": "address"
        },
        {
          "indexed": false,
          "internalType": "uint256",
          "name": "amount",
          "type": "uint256"
        },
        {
          "indexed": false,
          "internalType": "uint256",
          "name": "newLiquidationPrice",
          "type": "uint256"
        }
      ],
      "name": "CollateralRemoved",
      "type": "event"
    },
    {
      "anonymous": false,
      "inputs": [
        {
          "indexed": true,
          "internalType": "uint256",
          "name": "orderId",
          "type": "uint256"
        }
      ],
      "name": "OrderCancelled",
      "type": "event"
    },
    {
      "anonymous": false,
      "inputs": [
        {
          "indexed": true,
          "internalType": "uint256",
          "name": "orderId",
          "type": "uint256"
        },
        {
          "indexed": true,
          "internalType": "uint256",
          "name": "positionId",
          "type": "uint256"
        }
      ],
      "name": "OrderExecuted",
      "type": "event"
    },
    {
      "anonymous": false,
      "inputs": [
        {
          "indexed": true,
          "internalType": "uint256",
          "name": "orderId",
          "type": "uint256"
        },
        {
          "indexed": true,
          "internalType": "address",
          "name": "trader",
          "type": "address"
        },
        {
          "indexed": false,
          "internalType": "bytes32",
          "name": "pairId",
          "type": "bytes32"
        },
        {
          "indexed": false,
          "internalType": "uint8",
          "name": "orderType",
          "type": "uint8"
        },
        {
          "indexed": false,
          "internalType": "uint256",
          "name": "triggerPrice",
          "type": "uint256"
        }
      ],
      "name": "OrderPlaced",
      "type": "event"
    },
    {
      "anonymous": false,
      "inputs": [
        {
          "indexed": true,
          "internalType": "uint256",
          "name": "positionId",
          "type": "uint256"
        },
        {
          "indexed": true,
          "internalType": "address",
          "name": "trader",
          "type": "address"
        },
        {
          "indexed": false,
          "internalType": "uint256",
          "name": "exitPrice",
          "type": "uint256"
        },
        {
          "indexed": false,
          "internalType": "int256",
          "name": "pnl",
          "type": "int256"
        }
      ],
      "name": "PositionClosed",
      "type": "event"
    },
    {
      "anonymous": false,
      "inputs": [
        {
          "indexed": true,
          "internalType": "uint256",
          "name": "positionId",
          "type": "uint256"
        },
        {
          "indexed": true,
          "internalType": "address",
          "name": "trader",
          "type": "address"
        },
        {
          "indexed": false,
          "internalType": "uint256",
          "name": "additionalSizeUsd",
          "type": "uint256"
        },
        {
          "indexed": false,
          "internalType": "uint256",
          "name": "newEntryPrice",
          "type": "uint256"
        },
        {
          "indexed": false,
          "internalType": "uint256",
          "name": "newLiquidationPrice",
          "type": "uint256"
        }
      ],
      "name": "PositionIncreased",
      "type": "event"
    },
    {
      "anonymous": false,
      "inputs": [
        {
          "indexed": true,
          "internalType": "uint256",
          "name": "positionId",
          "type": "uint256"
        },
        {
          "indexed": true,
          "internalType": "address",
          "name": "trader",
          "type": "address"
        },
        {
          "indexed": false,
          "internalType": "uint256",
          "name": "executionPrice",
          "type": "uint256"
        },
        {
          "indexed": true,
          "internalType": "address",
          "name": "liquidator",
          "type": "address"
        },
        {
          "indexed": false,
          "internalType": "uint256",
          "name": "reward",
          "type": "uint256"
        }
      ],
      "name": "PositionLiquidated",
      "type": "event"
    },
    {
      "anonymous": false,
      "inputs": [
        {
          "indexed": true,
          "internalType": "uint256",
          "name": "positionId",
          "type": "uint256"
        },
        {
          "indexed": true,
          "internalType": "address",
          "name": "trader",
          "type": "address"
        },
        {
          "indexed": false,
          "internalType": "bytes32",
          "name": "pairId",
          "type": "bytes32"
        },
        {
          "indexed": false,
          "internalType": "bool",
          "name": "isLong",
          "type": "bool"
        },
        {
          "indexed": false,
          "internalType": "uint256",
          "name": "sizeUsd",
          "type": "uint256"
        },
        {
          "indexed": false,
          "internalType": "uint256",
          "name": "entryPrice",
          "type": "uint256"
        },
        {
          "indexed": false,
          "internalType": "uint256",
          "name": "leverage",
          "type": "uint256"
        }
      ],
      "name": "PositionOpened",
      "type": "event"
    },
    {
      "anonymous": false,
      "inputs": [
        {
          "indexed": true,
          "internalType": "uint256",
          "name": "positionId",
          "type": "uint256"
        },
        {
          "indexed": true,
          "internalType": "address",
          "name": "trader",
          "type": "address"
        },
        {
          "indexed": false,
          "internalType": "uint256",
          "name": "closeSizeUsd",
          "type": "uint256"
        },
        {
          "indexed": false,
          "internalType": "uint256",
          "name": "exitPrice",
          "type": "uint256"
        },
        {
          "indexed": false,
          "internalType": "int256",
          "name": "pnl",
          "type": "int256"
        }
      ],
      "name": "PositionPartialClose",
      "type": "event"
    },
    {
      "anonymous": false,
      "inputs": [
        {
          "indexed": true,
          "internalType": "uint256",
          "name": "positionId",
          "type": "uint256"
        },
        {
          "indexed": false,
          "internalType": "bool",
          "name": "isTakeProfit",
          "type": "bool"
        },
        {
          "indexed": false,
          "internalType": "uint256",
          "name": "executionPrice",
          "type": "uint256"
        }
      ],
      "name": "TPSLTriggered",
      "type": "event"
    },
    {
      "anonymous": false,
      "inputs": [
        {
          "indexed": true,
          "internalType": "uint256",
          "name": "orderId",
          "type": "uint256"
        },
        {
          "indexed": false,
          "internalType": "uint256",
          "name": "sliceNumber",
          "type": "uint256"
        },
        {
          "indexed": false,
          "internalType": "uint256",
          "name": "sizeUsd",
          "type": "uint256"
        }
      ],
      "name": "TWAPSliceExecuted",
      "type": "event"
    },
    {
      "inputs": [],
      "name": "MIN_COLLATERAL",
      "outputs": [
        {
          "internalType": "uint256",
          "name": "",
          "type": "uint256"
        }
      ],
      "stateMutability": "view",
      "type": "function"
    },
    {
      "inputs": [],
      "name": "MIN_POSITION_SIZE",
      "outputs": [
        {
          "internalType": "uint256",
          "name": "",
          "type": "uint256"
        }
      ],
      "stateMutability": "view",
      "type": "function"
    },
    {
      "inputs": [
        {
          "internalType": "uint256",
          "name": "positionId",
          "type": "uint256"
        },
        {
          "internalType": "uint256",
          "name": "amount",
          "type": "uint256"
        }
      ],
      "name": "addCollateral",
      "outputs": [],
      "stateMutability": "nonpayable",
      "type": "function"
    },
    {
      "inputs": [
        {
          "internalType": "uint256",
          "name": "orderId",
          "type": "uint256"
        }
      ],
      "name": "cancelOrder",
      "outputs": [],
      "stateMutability": "nonpayable",
      "type": "function"
    },
    {
      "inputs": [
        {
          "internalType": "uint256",
          "name": "positionId",
          "type": "uint256"
        },
        {
          "internalType": "bytes[]",
          "name": "updateData",
          "type": "bytes[]"
        }
      ],
      "name": "closePositionInstantly",
      "outputs": [],
      "stateMutability": "payable",
      "type": "function"
    },
    {
      "inputs": [
        {
          "internalType": "uint256",
          "name": "positionId",
          "type": "uint256"
        },
        {
          "internalType": "uint256",
          "name": "closePercent",
          "type": "uint256"
        },
        {
          "internalType": "bytes[]",
          "name": "updateData",
          "type": "bytes[]"
        }
      ],
      "name": "closePositionPartial",
      "outputs": [],
      "stateMutability": "payable",
      "type": "function"
    },
    {
      "inputs": [],
      "name": "core",
      "outputs": [
        {
          "internalType": "contract ConfidentialCore",
          "name": "",
          "type": "address"
        }
      ],
      "stateMutability": "view",
      "type": "function"
    },
    {
      "inputs": [
        {
          "internalType": "uint256",
          "name": "positionId",
          "type": "uint256"
        }
      ],
      "name": "createCloseRequest",
      "outputs": [
        {
          "internalType": "uint256",
          "name": "orderId",
          "type": "uint256"
        }
      ],
      "stateMutability": "payable",
      "type": "function"
    },
    {
      "inputs": [
        {
          "internalType": "bytes32",
          "name": "pairId",
          "type": "bytes32"
        },
        {
          "internalType": "bool",
          "name": "isLong",
          "type": "bool"
        },
        {
          "internalType": "uint256",
          "name": "totalSizeUsd",
          "type": "uint256"
        },
        {
          "internalType": "uint256",
          "name": "leverage",
          "type": "uint256"
        },
        {
          "internalType": "uint256",
          "name": "slices",
          "type": "uint256"
        },
        {
          "internalType": "uint256",
          "name": "intervalSec",
          "type": "uint256"
        },
        {
          "internalType": "uint256",
          "name": "tpPrice",
          "type": "uint256"
        },
        {
          "internalType": "uint256",
          "name": "slPrice",
          "type": "uint256"
        }
      ],
      "name": "createTwapOrder",
      "outputs": [
        {
          "internalType": "uint256",
          "name": "orderId",
          "type": "uint256"
        }
      ],
      "stateMutability": "payable",
      "type": "function"
    },
    {
      "inputs": [
        {
          "internalType": "uint256[]",
          "name": "positionIds",
          "type": "uint256[]"
        },
        {
          "internalType": "bytes[]",
          "name": "updateData",
          "type": "bytes[]"
        }
      ],
      "name": "executeADL",
      "outputs": [],
      "stateMutability": "payable",
      "type": "function"
    },
    {
      "inputs": [
        {
          "internalType": "uint256[]",
          "name": "longOrderIds",
          "type": "uint256[]"
        },
        {
          "internalType": "uint256[]",
          "name": "shortOrderIds",
          "type": "uint256[]"
        },
        {
          "internalType": "bytes[]",
          "name": "updateData",
          "type": "bytes[]"
        }
      ],
      "name": "executeHybridBatch",
      "outputs": [],
      "stateMutability": "payable",
      "type": "function"
    },
    {
      "inputs": [
        {
          "internalType": "uint256",
          "name": "orderId",
          "type": "uint256"
        },
        {
          "internalType": "bytes[]",
          "name": "updateData",
          "type": "bytes[]"
        }
      ],
      "name": "executeOrder",
      "outputs": [],
      "stateMutability": "payable",
      "type": "function"
    },
    {
      "inputs": [
        {
          "internalType": "uint256",
          "name": "positionId",
          "type": "uint256"
        },
        {
          "internalType": "bytes[]",
          "name": "updateData",
          "type": "bytes[]"
        }
      ],
      "name": "executeTPSL",
      "outputs": [],
      "stateMutability": "payable",
      "type": "function"
    },
    {
      "inputs": [],
      "name": "executionBufferBps",
      "outputs": [
        {
          "internalType": "uint256",
          "name": "",
          "type": "uint256"
        }
      ],
      "stateMutability": "view",
      "type": "function"
    },
    {
      "inputs": [
        {
          "internalType": "uint256",
          "name": "",
          "type": "uint256"
        }
      ],
      "name": "hasActiveCloseRequest",
      "outputs": [
        {
          "internalType": "bool",
          "name": "",
          "type": "bool"
        }
      ],
      "stateMutability": "view",
      "type": "function"
    },
    {
      "inputs": [
        {
          "internalType": "uint256",
          "name": "positionId",
          "type": "uint256"
        },
        {
          "internalType": "uint256",
          "name": "additionalSizeUsd",
          "type": "uint256"
        },
        {
          "internalType": "uint256",
          "name": "additionalLeverage",
          "type": "uint256"
        },
        {
          "internalType": "uint256",
          "name": "acceptablePrice",
          "type": "uint256"
        },
        {
          "internalType": "bytes[]",
          "name": "updateData",
          "type": "bytes[]"
        }
      ],
      "name": "increasePosition",
      "outputs": [],
      "stateMutability": "payable",
      "type": "function"
    },
    {
      "inputs": [
        {
          "internalType": "uint256",
          "name": "positionId",
          "type": "uint256"
        },
        {
          "internalType": "bytes[]",
          "name": "updateData",
          "type": "bytes[]"
        }
      ],
      "name": "liquidate",
      "outputs": [],
      "stateMutability": "payable",
      "type": "function"
    },
    {
      "inputs": [],
      "name": "liquidationRewardBps",
      "outputs": [
        {
          "internalType": "uint256",
          "name": "",
          "type": "uint256"
        }
      ],
      "stateMutability": "view",
      "type": "function"
    },
    {
      "inputs": [],
      "name": "maxOrderAge",
      "outputs": [
        {
          "internalType": "uint256",
          "name": "",
          "type": "uint256"
        }
      ],
      "stateMutability": "view",
      "type": "function"
    },
    {
      "inputs": [],
      "name": "nextOrderId",
      "outputs": [
        {
          "internalType": "uint256",
          "name": "",
          "type": "uint256"
        }
      ],
      "stateMutability": "view",
      "type": "function"
    },
    {
      "inputs": [],
      "name": "nextPositionId",
      "outputs": [
        {
          "internalType": "uint256",
          "name": "",
          "type": "uint256"
        }
      ],
      "stateMutability": "view",
      "type": "function"
    },
    {
      "inputs": [],
      "name": "oracle",
      "outputs": [
        {
          "internalType": "contract PythPriceOracle",
          "name": "",
          "type": "address"
        }
      ],
      "stateMutability": "view",
      "type": "function"
    },
    {
      "inputs": [
        {
          "internalType": "uint256",
          "name": "",
          "type": "uint256"
        }
      ],
      "name": "pendingOrders",
      "outputs": [
        {
          "internalType": "bytes32",
          "name": "pairId",
          "type": "bytes32"
        },
        {
          "internalType": "address",
          "name": "trader",
          "type": "address"
        },
        {
          "internalType": "bool",
          "name": "isLong",
          "type": "bool"
        },
        {
          "internalType": "uint256",
          "name": "sizeUsd",
          "type": "uint256"
        },
        {
          "internalType": "uint256",
          "name": "collateral",
          "type": "uint256"
        },
        {
          "internalType": "uint256",
          "name": "leverage",
          "type": "uint256"
        },
        {
          "internalType": "uint256",
          "name": "triggerPrice",
          "type": "uint256"
        },
        {
          "internalType": "uint8",
          "name": "orderType",
          "type": "uint8"
        },
        {
          "internalType": "bool",
          "name": "isActive",
          "type": "bool"
        },
        {
          "internalType": "uint256",
          "name": "createdAt",
          "type": "uint256"
        },
        {
          "internalType": "uint256",
          "name": "positionId",
          "type": "uint256"
        },
        {
          "internalType": "uint256",
          "name": "feePaid",
          "type": "uint256"
        },
        {
          "internalType": "uint256",
          "name": "executionFee",
          "type": "uint256"
        },
        {
          "internalType": "uint256",
          "name": "tpPrice",
          "type": "uint256"
        },
        {
          "internalType": "uint256",
          "name": "slPrice",
          "type": "uint256"
        },
        {
          "internalType": "uint256",
          "name": "twapSlices",
          "type": "uint256"
        },
        {
          "internalType": "uint256",
          "name": "twapInterval",
          "type": "uint256"
        },
        {
          "internalType": "uint256",
          "name": "twapExecuted",
          "type": "uint256"
        },
        {
          "internalType": "uint256",
          "name": "twapLastExec",
          "type": "uint256"
        }
      ],
      "stateMutability": "view",
      "type": "function"
    },
    {
      "inputs": [
        {
          "internalType": "bytes32",
          "name": "pairId",
          "type": "bytes32"
        },
        {
          "internalType": "bool",
          "name": "isLong",
          "type": "bool"
        },
        {
          "internalType": "uint256",
          "name": "sizeUsd",
          "type": "uint256"
        },
        {
          "internalType": "uint256",
          "name": "leverage",
          "type": "uint256"
        },
        {
          "internalType": "uint256",
          "name": "tpPrice",
          "type": "uint256"
        },
        {
          "internalType": "uint256",
          "name": "slPrice",
          "type": "uint256"
        },
        {
          "internalType": "uint256",
          "name": "acceptablePrice",
          "type": "uint256"
        },
        {
          "internalType": "bytes[]",
          "name": "updateData",
          "type": "bytes[]"
        }
      ],
      "name": "placeMarketOrder",
      "outputs": [
        {
          "internalType": "uint256",
          "name": "posId",
          "type": "uint256"
        }
      ],
      "stateMutability": "payable",
      "type": "function"
    },
    {
      "inputs": [
        {
          "internalType": "bytes32",
          "name": "pairId",
          "type": "bytes32"
        },
        {
          "internalType": "bool",
          "name": "isLong",
          "type": "bool"
        },
        {
          "internalType": "uint256",
          "name": "sizeUsd",
          "type": "uint256"
        },
        {
          "internalType": "uint256",
          "name": "leverage",
          "type": "uint256"
        },
        {
          "internalType": "uint256",
          "name": "triggerPrice",
          "type": "uint256"
        },
        {
          "internalType": "uint8",
          "name": "orderType",
          "type": "uint8"
        },
        {
          "internalType": "uint256",
          "name": "tpPrice",
          "type": "uint256"
        },
        {
          "internalType": "uint256",
          "name": "slPrice",
          "type": "uint256"
        }
      ],
      "name": "placeOrder",
      "outputs": [
        {
          "internalType": "uint256",
          "name": "orderId",
          "type": "uint256"
        }
      ],
      "stateMutability": "payable",
      "type": "function"
    },
    {
      "inputs": [
        {
          "internalType": "uint256",
          "name": "",
          "type": "uint256"
        }
      ],
      "name": "positions",
      "outputs": [
        {
          "internalType": "bytes32",
          "name": "pairId",
          "type": "bytes32"
        },
        {
          "internalType": "address",
          "name": "trader",
          "type": "address"
        },
        {
          "internalType": "bool",
          "name": "isLong",
          "type": "bool"
        },
        {
          "internalType": "uint256",
          "name": "sizeUsd",
          "type": "uint256"
        },
        {
          "internalType": "uint256",
          "name": "collateral",
          "type": "uint256"
        },
        {
          "internalType": "uint256",
          "name": "entryPrice",
          "type": "uint256"
        },
        {
          "internalType": "uint256",
          "name": "leverage",
          "type": "uint256"
        },
        {
          "internalType": "uint256",
          "name": "liquidationPrice",
          "type": "uint256"
        },
        {
          "internalType": "uint256",
          "name": "openedAt",
          "type": "uint256"
        },
        {
          "internalType": "bool",
          "name": "isOpen",
          "type": "bool"
        },
        {
          "internalType": "uint256",
          "name": "tpPrice",
          "type": "uint256"
        },
        {
          "internalType": "uint256",
          "name": "slPrice",
          "type": "uint256"
        },
        {
          "internalType": "int256",
          "name": "entryFundingIndex",
          "type": "int256"
        },
        {
          "internalType": "uint256",
          "name": "lastRolloverSettled",
          "type": "uint256"
        }
      ],
      "stateMutability": "view",
      "type": "function"
    },
    {
      "inputs": [
        {
          "internalType": "uint256",
          "name": "positionId",
          "type": "uint256"
        },
        {
          "internalType": "uint256",
          "name": "amount",
          "type": "uint256"
        },
        {
          "internalType": "bytes[]",
          "name": "updateData",
          "type": "bytes[]"
        }
      ],
      "name": "removeCollateral",
      "outputs": [],
      "stateMutability": "payable",
      "type": "function"
    },
    {
      "inputs": [],
      "name": "rolloverFeePerHour",
      "outputs": [
        {
          "internalType": "uint256",
          "name": "",
          "type": "uint256"
        }
      ],
      "stateMutability": "view",
      "type": "function"
    },
    {
      "inputs": [
        {
          "internalType": "uint256",
          "name": "_bps",
          "type": "uint256"
        }
      ],
      "name": "setExecutionBufferBps",
      "outputs": [],
      "stateMutability": "nonpayable",
      "type": "function"
    },
    {
      "inputs": [
        {
          "internalType": "uint256",
          "name": "_bps",
          "type": "uint256"
        }
      ],
      "name": "setLiquidationRewardBps",
      "outputs": [],
      "stateMutability": "nonpayable",
      "type": "function"
    },
    {
      "inputs": [
        {
          "internalType": "uint256",
          "name": "_seconds",
          "type": "uint256"
        }
      ],
      "name": "setMaxOrderAge",
      "outputs": [],
      "stateMutability": "nonpayable",
      "type": "function"
    },
    {
      "inputs": [
        {
          "internalType": "uint256",
          "name": "_fee",
          "type": "uint256"
        }
      ],
      "name": "setRolloverFeePerHour",
      "outputs": [],
      "stateMutability": "nonpayable",
      "type": "function"
    },
    {
      "inputs": [
        {
          "internalType": "uint256",
          "name": "positionId",
          "type": "uint256"
        },
        {
          "internalType": "uint256",
          "name": "newTpPrice",
          "type": "uint256"
        },
        {
          "internalType": "uint256",
          "name": "newSlPrice",
          "type": "uint256"
        }
      ],
      "name": "updateTpSl",
      "outputs": [],
      "stateMutability": "nonpayable",
      "type": "function"
    },
    {
      "inputs": [],
      "name": "usdc",
      "outputs": [
        {
          "internalType": "contract IERC20",
          "name": "",
          "type": "address"
        }
      ],
      "stateMutability": "view",
      "type": "function"
    },
    {
      "inputs": [
        {
          "internalType": "address",
          "name": "",
          "type": "address"
        },
        {
          "internalType": "uint256",
          "name": "",
          "type": "uint256"
        }
      ],
      "name": "userOrders",
      "outputs": [
        {
          "internalType": "uint256",
          "name": "",
          "type": "uint256"
        }
      ],
      "stateMutability": "view",
      "type": "function"
    },
    {
      "inputs": [
        {
          "internalType": "address",
          "name": "",
          "type": "address"
        },
        {
          "internalType": "uint256",
          "name": "",
          "type": "uint256"
        }
      ],
      "name": "userPositions",
      "outputs": [
        {
          "internalType": "uint256",
          "name": "",
          "type": "uint256"
        }
      ],
      "stateMutability": "view",
      "type": "function"
    },
    {
      "inputs": [],
      "name": "vault",
      "outputs": [
        {
          "internalType": "contract ConfidentialVault",
          "name": "",
          "type": "address"
        }
      ],
      "stateMutability": "view",
      "type": "function"
    },
    {
      "stateMutability": "payable",
      "type": "receive"
    }
  ],
  "bytecode": "0x608034620000e957601f62005e2f38819003918201601f19168301916001600160401b03831184841017620000ed57808492608094604052833981010312620000e9576200004d8162000101565b906200005c6020820162000101565b620000786060620000706040850162000101565b930162000101565b9060015f55600160055560016006555f600b556064600c5562093a80600d55600a600e5560018060a01b03928380928160018060a01b03199716876004541617600455168560015416176001551683600254161760025516906003541617600355604051615d189081620001178239f35b5f80fd5b634e487b7160e01b5f52604160045260245ffd5b51906001600160a01b0382168203620000e95756fe60e080604052600436101561001c575b50361561001a575f80fd5b005b5f905f3560e01c908163233b4d5714612d7e575080632a58b33014612d615780632c0e1e9e1461273e5780632c338fed1461270f5780632e80f9a41461267d57806331e01f4a1461233057806333e7dddb14612315578063368dbba8146105995780633e413bee146122ec57806341aa303b1461228657806341daf49314612210578063514fcac7146120425780635e1b4d99146120045780636c4c001d14611fe65780636fb197f714611cde5780637dc0d1d014611cb557806380b74258146119cf578063856652e91461198357806387f19423146115ab578063899346c71461158d5780638fb735ee1461156f57806399fbab88146114a15780639bfe7e3e146112a8578063a8f35adf14611171578063ba7ebf5f146110c4578063c009687c14610fff578063c09403ac14610cec578063c29433a614610cce578063c3aaea4e14610b8b578063ee6d519814610b6d578063effaed8914610b4f578063f2f4eb2614610b26578063f5ba8a2a14610988578063f66141701461059e578063fa77964814610599578063fbfa77cf146105705763fd5c77cd0361000f57604036600319011261056d576001600160401b03600435818111610569576101e7903690600401612e2b565b60249260243590811161056557610202903690600401612e2b565b91909261020d614a85565b60018060a01b0392600195846001541691604051809363aced166160e01b825281600460209687935afa801561055a5787918b9161052d575b501633036104f257600296600484886002541660405192838092637510e6c960e11b82525afa80156104e7578b906104b4575b61251c9150111561046457908991816103f6575b50505b84811061029f57886001815580f35b6102aa818686613c41565b35895260078352604089208960ff918a83600883015416156103ec575088600354169260408254878251809781936331d98b3f60e01b835260048301525afa9384156103e15783946103af575b50818c015460a01c16156103925780610326600461032b930154918c61031d8488614272565b9101549061428a565b6142ac565b131561034e57906103488992610342838989613c41565b3561578c565b01610290565b60405162461bcd60e51b815260048101859052601c818501527f43616e6e6f742041444c2061206c6f73696e6720706f736974696f6e000000006044820152606490fd5b8061032660046103aa930154918c61031d8785614272565b61032b565b6103d291945060403d6040116103da575b6103ca8183612f6a565b8101906130f7565b50925f6102f7565b503d6103c0565b6040513d85823e3d90fd5b9392505050610348565b876003541691823b1561046057604051631df3cbc560e31b81529284928492839182916104269160048401613056565b039134905af180156104555761043d575b8061028d565b61044690612f3b565b61045157875f610437565b8780fd5b6040513d84823e3d90fd5b8380fd5b60405162461bcd60e51b815260048101859052602260248201527f41444c206f6e6c7920696e20656d657267656e637920287574696c203e203935604482015261252960f01b6064820152608490fd5b508481813d83116104e0575b6104ca8183612f6a565b810103126104dc5761251c9051610279565b5f80fd5b503d6104c0565b6040513d8d823e3d90fd5b60405162461bcd60e51b815260048101849052601360248201527213db9b1e4812d9595c195c8818d85b88105113606a1b6044820152606490fd5b61054d9150853d8711610553575b6105458183612f6a565b810190612f8b565b5f610246565b503d61053b565b6040513d8c823e3d90fd5b8480fd5b8280fd5b80fd5b503461056d578060031936011261056d576002546040516001600160a01b039091168152602090f35b612e9d565b50806105a936612e6a565b906105b5939293614a85565b81610926575b5050908060249252602090600782526040842060088101906105e060ff83541661301f565b6003548154604080516331d98b3f60e01b815260048101839052976001600160a01b03949293899190829087165afa96871561091b5788976108f9575b50600181019160ff835460a01c165f146108ec5760068201548811155b156108b4579088918288610655610650856149c7565b615bdc565b9260248860015416916040519485938492637cc6765f60e11b845260048401525af190811561085e578991610885575b5050610698610693836149c7565b615c0e565b81848213610874575b50506003820154908181111561086957506106bc81806131e0565b916127106106cc600c54856131cd565b049660ff1981541690558560015416908054906002875491015492803b156107ee5760405163019ca2b960e51b815260048101939093526001600160a01b03828a1616602484015260a09190911c60ff1615156044830152606482019290925290849082908183816084810103925af190811561085e57849161084a575b5050806107f2575b508360025416908484541690823b1561046057608484928360405195869485936309c0533b60e01b8552600485015233602485015260448401528a60648401525af18015610455576107da575b50505416926040519485528401527f3b7bc7c0fdc798ac653b9f0d6d28adb2293a55402d32c21d323da740ccc6553960403394a46001815580f35b6107e390612f3b565b6107ee57865f61079f565b8680fd5b846002541690813b1561046057839160248392604051948593849263ff20b48d60e01b845260048401525af19081156103e1578391610832575b50610752565b61083b90612f3b565b61084657815f61082c565b5080fd5b61085390612f3b565b61056957825f61074a565b6040513d86823e3d90fd5b6106bc9080926131e0565b61087e925061319c565b5f806106a1565b90809294503d83116108ad575b61089c8183612f6a565b810103126104dc578891875f610685565b503d610892565b60405162461bcd60e51b815260048101889052601060248201526f4e6f74206c6971756964617461626c6560801b6044820152606490fd5b600682015488101561063a565b61091391975060403d6040116103da576103ca8183612f6a565b50955f61061d565b6040513d8a823e3d90fd5b6003546001600160a01b031691823b1561046057604051631df3cbc560e31b815292849284928391829161095d9160048401613056565b039134905af1801561045557610974575b806105bb565b61097d90612f3b565b61084657815f61096e565b5061099236612e6a565b919061099c614a85565b81845260076020528360408120936109ba60ff60088701541661301f565b60018501546001600160a01b0393906109d69085163314612faa565b600460078701546020866001541660405193848092636d78097360e11b82525afa918215610b1b578592610ae2575b50610a1b91610a139161319c565b4210156141a9565b81610a87575b50505060409060035416925460248251809581936331d98b3f60e01b835260048301525afa9081156103e157610a5e928492610a65575b5061578c565b6001815580f35b610a7f91925060403d6040116103da576103ca8183612f6a565b50905f610a58565b836003541691823b1561046057604051631df3cbc560e31b8152928492849283918291610ab79160048401613056565b039134905af1801561045557610ace575b80610a21565b610ad790612f3b565b61046057835f610ac8565b945090506020843d602011610b13575b81610aff60209383612f6a565b810103126104dc5792518793610a13610a05565b3d9150610af2565b6040513d87823e3d90fd5b503461056d578060031936011261056d576001546040516001600160a01b039091168152602090f35b503461056d578060031936011261056d576020600c54604051908152f35b50610a5e610b7a36612f09565b92610b86929192614a85565b6142e1565b503461056d57602036600319011261056d57600435815260086020526040902080808054600182015460c05260028201546003830154600484015460058501546006860154600787015490600888015492600989015494600a8a015496600b8b015498600c8c01549a600d8d01549c600e01549d600f01549e6010015460805260405160a05260a05152600160a01b6001900360c0511660a0516020015260c05160a01c60ff16151560a0516040015260a0516060015260a0516080015260a05160a0015260a05160c0015260ff811660a05160e0015260081c60ff16151560a051610100015260a051610120015260a051610140015260a051610160015260a051610180015260a0516101a0015260a0516101c0015260a0516101e0015260a051610200015260a051610220015260805160a051610240015260a05161026090f35b503461056d578060031936011261056d576020600d54604051908152f35b5061010036600319011261056d57610d02612e5b565b9060a4359060ff8216820361056d57610d19614a85565b610d2a620f42406044351015612fe2565b600260ff831611610fc65760c435610f81575b60e435610f3c575b6001546001600160a01b031692833b156108465760405163bd79156f60e01b8152828180610d8060643560443587336004803590870161314d565b0381885afa80156103e157610f28575b506020604493946040519485809263e4d8cbe560e01b82528235600483015260ff89161560248301525afa928315610455578293610ef1575b5090602093600192610ddf60643560443561317e565b94610df4610ded828861319c565b3033614aa6565b60065495610e0187614162565b60065586855260088852604085206004358155868101805460ff60a01b1933166001600160a81b03199091161794151560a01b60ff60a01b169490941790935560443560028401556003830155606435600483015560843560058301556006820161010060ff851661ffff1983541617179055426007830155600982015534600a82015560c435600b820155600c60e435910155338252600a8552610ea98460408420614170565b60ff60405191600435835216858201526084356040820152837f401524beccff0d9dd3447788dea32e11f3b7c9618ed6084f14a773dbf2025f1660603393a355604051908152f35b919092506020823d602011610f20575b81610f0e60209383612f6a565b810103126104dc579051916020610dc9565b3d9150610f01565b610f328391612f3b565b610846575f610d90565b8215610f6b5760843560e435108015610f5e575b610f599061322c565b610d45565b5060ff8216600214610f50565b60843560e435118015610f5e57610f599061322c565b8215610fb05760843560c435118015610fa3575b610f9e906131ed565b610d3d565b5060ff8216600214610f95565b60843560c435108015610fa357610f9e906131ed565b60405162461bcd60e51b8152602060048201526011602482015270496e76616c6964206f726465725479706560781b6044820152606490fd5b503461056d57602036600319011261056d57600154604051638da5cb5b60e01b815260048035926001600160a01b0391602091849190829085165afa801561085e576110559285916110a5575b50163314612faa565b8061106057600b5580f35b60405162461bcd60e51b815260206004820152601860248201527f5a65726f20626f72726f772066656520656e666f7263656400000000000000006044820152606490fd5b6110be915060203d602011610553576105458183612f6a565b5f61104c565b503461056d57602036600319011261056d57600154604051638da5cb5b60e01b815260048035926001600160a01b0391602091849190829085165afa801561085e576111199285916110a55750163314612faa565b610e1081101580611164575b1561113057600d5580f35b60405162461bcd60e51b815260206004820152600c60248201526b31682d3330642072616e676560a01b6044820152606490fd5b5062278d00811115611125565b503461056d57604036600319011261056d57602435600435611191614a85565b61119c8215156141e7565b8083526007602052604083206111b860ff60088301541661301f565b60018101908460018060a01b036111d3818554163314612faa565b6111e286826002541633614aa6565b60025416803b1561084657818091602460405180948193636e93ae2b60e01b83528b60048401525af1801561045557611294575b50506112576006926003830161122d87825461319c565b809155600284015461123f828261317e565b600586015560ff6004860154935460a01c1692614d42565b918291015560405192835260208301527f935a476d8eb416e1441bbdc27477a7d90012bed1a74dba06f77fc32b8b119bd860403393a36001815580f35b61129d90612f3b565b61056557845f611216565b506020908160031936011261056d57600435906112c3614a85565b818152600783526040812060ff600882015416156114685760018101546001600160a01b03906112f69082163314612faa565b838352600f855260ff60408420541661142c576007820154600154604051636d78097360e11b8152949392879186916004918391165afa9384156103e15783946113fb575b50610a1360019461134b9261319c565b838252600f855260408220805460ff1916841790556006549361136d85614162565b600655848352600886526040832090848201336bffffffffffffffffffffffff60a01b8254161790556006820161010361ffff198254161790554260078301556008820155600a3491015554604051908152600385820152816040820152837f401524beccff0d9dd3447788dea32e11f3b7c9618ed6084f14a773dbf2025f1660603393a355604051908152f35b93508584813d8311611425575b6114128183612f6a565b810103126104dc57925192610a1361133b565b503d611408565b60405162461bcd60e51b8152600481018690526014602482015273436c6f736520726571756573742065786973747360601b6044820152606490fd5b60405162461bcd60e51b81526004810185905260116024820152702837b9b4ba34b7b7103737ba1037b832b760791b6044820152606490fd5b503461056d57602036600319011261056d5760406101c09160043581526007602052208054906001810154906002810154600382015460048301546005840154600685015460078601549160ff60088801541693600988015495600a8901549760ff600c600b8c01549b01549b6040519d8e528d602060018060a01b03831691015260a01c16151560408d015260608c015260808b015260a08a015260c089015260e088015261010087015215156101208601526101408501526101608401526101808301526101a0820152f35b503461056d578060031936011261056d576020600b54604051908152f35b503461056d578060031936011261056d576020600554604051908152f35b506115b536612f09565b906115c1939293614a85565b6115cc8415156141e7565b8285526020906007825260408620926115eb60ff60088601541661301f565b86600185019160018060a01b0393611607858554163314612faa565b81611928575b50505061161984614b6d565b50600384019361162a8786546131e0565b90620f424082106118ec57600281015491611645818461317e565b90856001541694602460e08554976040519283809263351bd11560e11b82528b60048301525afa80156118e1578d90611838575b60409150015183116117fc57906116a68493928260ff8f9a99989760040154925460a01c16968792614d42565b98604087600354169660248251809981936331d98b3f60e01b835260048301525afa801561091b578a60069681988b936117da575b50156117cb576116eb911161422e565b55600582015501558060025416803b15610569578280916024604051809481936306e980c560e51b83528c60048401525af19081156103e15783916117b7575b505060025416803b15610846576040516374e863ad60e01b8152336004820152602481018790529082908290604490829084905af18015610455576117a3575b50506040519384528301527fdf372a02d8e5139b85d7448d53241f194a27db9f321178c970db6e998ebb600160403393a36001815580f35b6117ac90612f3b565b61056557845f61176b565b6117c090612f3b565b61084657815f61172b565b6117d5911061422e565b6116eb565b6117f491935060403d6040116103da576103ca8183612f6a565b50915f6116db565b60405162461bcd60e51b815260048101899052601460248201527345786365656473206d6178206c6576657261676560601b6044820152606490fd5b5060e0813d60e0116118d9575b8161185260e09383612f6a565b810103126118d55760405160e08101918183106001600160401b038411176118c15760c06118b7916040948552805184528c8101518d8501528481015185850152606081015160608501526080810151608085015260a081015160a085015201614221565b60c0820152611679565b634e487b7160e01b5f52604160045260245ffd5b8c80fd5b3d9150611845565b6040513d8f823e3d90fd5b60405162461bcd60e51b815260048101869052601460248201527310995b1bddc81b5a5b8818dbdb1b185d195c985b60621b6044820152606490fd5b846003541691823b1561046057604051631df3cbc560e31b81529284928492839182916119589160048401613056565b039134905af180156104555761196f575b8061160d565b61197890612f3b565b6107ee57865f611969565b503461056d5761199236612eba565b6001600160a01b039091168252600a6020526040822080549192909183101561056d5760206119c18484612ee0565b90546040519160031b1c8152f35b506119d936612e6a565b906119e5939293614a85565b81611c56575b5050818152602091600783526040822090611a0c60ff60088401541661301f565b6007820154600154604051636d78097360e11b81526001600160a01b03929187908290600490829087165afa908115611c4b578691611c1c575b50610a1390611a549261319c565b600354166040835460248251809481936331d98b3f60e01b835260048301525afa90811561085e578491611bfc575b508384918094600981015480611b98575b50821580611b8b575b611b1f575b505015611ae4577fac4fd466c8f994e08ce2eb9141c2f01f2a779a3537d9bd71fa8762df3d12842c6040839285610a5e979883519215158352820152a261578c565b60405162461bcd60e51b815260048101869052601360248201527215140bd4d3081b9bdd081d1c9a59d9d95c9959606a1b6044820152606490fd5b909150600a81015491600e549160ff6001611b5c612710611b55611b4e82611b478a8c6131cd565b048a61319c565b97896131cd565b04876131e0565b92015460a01c1615611b8157501115905b81611b79575b80611aa2565b93505f611b73565b9150101590611b6d565b50600a8101541515611a9d565b93509150600e54611bcb612710611bc4611bbd82611bb6868a6131cd565b04886131e0565b93876131cd565b048561319c565b600184015460a01c60ff1615611bf15750811015915b82938315611a945795505f611a94565b905081111591611be1565b611c15915060403d6040116103da576103ca8183612f6a565b505f611a83565b90508681813d8311611c44575b611c338183612f6a565b810103126104dc5751611a54611a46565b503d611c29565b6040513d88823e3d90fd5b6003546001600160a01b031690813b1561046057918391611c8d93604051809581948293631df3cbc560e31b845260048401613056565b039134905af1801561045557908291156119eb57611caa90612f3b565b61056d57805f6119eb565b503461056d578060031936011261056d576003546040516001600160a01b039091168152602090f35b5061010036600319011261056d5760043590611cf8612e5b565b9160443591606435916084359460a43590611d11614a85565b600287101580611fdb575b15611fa557603c8210611f6d57620f42408781029081048803611f59578610611f1d576001546001600160a01b031696873b156105655760405163bd79156f60e01b8152858180611d748a8c88338c6004870161314d565b03818c5afa8015611c4b57908691611f09575b5050611d93868861317e565b9760405198899163e4d8cbe560e01b835289600484015287602484015282604460209c8d935afa918215611efe578792611ec8575b509060019782611ddf610ded84600e98979661319c565b6006549a611dec8c614162565b6006558b8a5260088d5260408a208981558b8101805460ff60a01b1933166001600160a81b03199091161797151560a01b60ff60a01b16979097179096556002860155600385015560048401556006830161010461ffff19825416179055426007840155600983015534600a83015560c435600b83015560e435600c830155600d8201550155338252600a8552611e868460408420614170565b604051908152600485820152816040820152837f401524beccff0d9dd3447788dea32e11f3b7c9618ed6084f14a773dbf2025f1660603393a355604051908152f35b939291508984813d8311611ef7575b611ee18183612f6a565b810103126104dc57925191929091906001611dc8565b503d611ed7565b6040513d89823e3d90fd5b611f1290612f3b565b61056557845f611d87565b60405162461bcd60e51b815260206004820152601460248201527314db1a58d9481cda5e99481d1bdbc81cdb585b1b60621b6044820152606490fd5b634e487b7160e01b85526011600452602485fd5b60405162461bcd60e51b815260206004820152601060248201526f135a5b880d8c1cc81a5b9d195c9d985b60821b6044820152606490fd5b60405162461bcd60e51b815260206004820152600e60248201526d496e76616c696420736c6963657360901b6044820152606490fd5b506064871115611d1c565b503461056d578060031936011261056d576020600e54604051908152f35b503461056d5761201336612eba565b6001600160a01b03909116825260096020526040822080549192909183101561056d5760206119c18484612ee0565b503461056d57602036600319011261056d5760043561205f614a85565b8082526008602052604082206006810190600360ff8354612084828260081c1661326b565b61209b60018060a01b036001860154163314612faa565b61ff00198116855516146121f3575b60ff8254166003810361215e575b50600460ff600a8301549354161480612151575b612124575b508281612105575b7f61b9399f2f0f32ca39ce8d7be32caed5ec22fe07a6daba3a467ed479ec606582915080a26001815580f35b80808061211d94335af16121176132a4565b506132e2565b5f826120d9565b9061214582600f61213c600d61214b9601548561317e565b910154906131cd565b906131e0565b5f6120d1565b50600f81015415156120cc565b6003820154600460098401549214806121e6575b6121a6575b612181828261319c565b61218c575b506120b8565b61219f916121999161319c565b33614e43565b5f80612186565b906121e090612145600d8501546121da6121ca6121c3838861317e565b928561317e565b95612145600f89015480946131cd565b946131cd565b90612177565b50600f8301541515612172565b60088101548452600f60205260408420805460ff191690556120aa565b50606036600319011261056d576001600160401b036004358181116105695761223d903690600401612e2b565b9060243583811161056557612256903690600401612e2b565b9060443594851161228257612272610a5e953690600401612e2b565b94909361227d614a85565b613c51565b8580fd5b503461056d57606036600319011261056d576122a0614a85565b60043581526007602052604081206122be60ff60088301541661301f565b6122d560018060a01b036001830154163314612faa565b6024356009820155600a6044359101556001815580f35b503461056d578060031936011261056d576004546040516001600160a01b039091168152602090f35b50610a5e61232236612e6a565b9161232b614a85565b613407565b5061010036600319011261056d576004359061234a612e5b565b9160c43560e4356001600160401b0381116104605761236d903690600401612e2b565b90612376614a85565b612387620f42406044351015612fe2565b8161261e575b5050600354604080516331d98b3f60e01b815260048101859052926001600160a01b03929091908490602490829086165afa928315610b1b5785936125fc575b50806125d3575b506084356125ae575b60a435612589575b6001541691823b156104605760405163bd79156f60e01b81528481806124166064356044358b33896004870161314d565b0381875afa8015610b1b57908591612575575b505060405194859363e4d8cbe560e01b8552604435600486015285602486015284604460209889935afa908115610b1b578591612544575b612515945061247460643560443561317e565b90612482610ded848461319c565b6040519361248f85612f4e565b8760c0860152876101208601528761014086015287610180860152876101e086015287610200860152876102208601528761024086015284523388850152151560408401526044356060840152608083015260643560a0830152600260e083015260016101008301526101608201526084356101a082015260a4356101c082015261504f565b6005545f198101919082116125305760019055604051908152f35b634e487b7160e01b81526011600452602490fd5b90508584813d831161256e575b61255b8183612f6a565b810103126104dc57612515935190612461565b503d612551565b61257e90612f3b565b61046057835f612429565b84156125a15761259c8260a4351061322c565b6123e5565b61259c8260a4351161322c565b84156125c6576125c182608435116131ed565b6123dd565b6125c182608435106131ed565b85156125eb576125e59083111561310d565b5f6123d4565b6125f79083101561310d565b6125e5565b61261691935060403d6040116103da576103ca8183612f6a565b50915f6123cd565b6003546001600160a01b031690813b156122825791859161265593604051809581948293631df3cbc560e31b845260048401613056565b039134905af1801561085e579084911561238d5761267290612f3b565b61056957825f61238d565b503461056d57602036600319011261056d57600154604051638da5cb5b60e01b815260048035926001600160a01b0391602091849190829085165afa801561085e576126d29285916110a55750163314612faa565b6101f481116126e157600c5580f35b60405162461bcd60e51b81526020600482015260066024820152654d617820352560d01b6044820152606490fd5b503461056d57602036600319011261056d5760ff60406020926004358152600f84522054166040519015158152f35b5060a03660031901126104dc57606435906044356084356001600160401b0381116104dc57612771903690600401612e2b565b91909361277c614a85565b61278d620f42406024351015612fe2565b6004355f52600760205260405f20926127ac60ff60088601541661301f565b60018401956127c560018060a01b038854163314612faa565b81612cf4575b50506003548354604080516331d98b3f60e01b815260048101839052969791939192879060249082906001600160a01b03165afa958615611efe578796612cd2575b5080612ca2575b508560018060a01b03600154169260ff835460a01c16843b156105695760405163bd79156f60e01b81529183918391829161285a918a916024359133906004870161314d565b0381875afa801561045557612c8e575b5050602061287c60449460243561317e565b926040519485809263e4d8cbe560e01b825260243560048301528a60248301525afa928315611c4b578693612c5a575b506128ba610ded848461319c565b6128c384614b6d565b506001548454915460405163b391decf60e01b81526004810184905260a09190911c60ff16801515602480840191909152356044830152969160209082906001600160a01b031681806064810103915afa90811561091b578891612c28575b508188821315612bd6575061293a61271091836131cd565b048615612bc85761294a9161319c565b945b60028501549586670de0b6b3a7640000810204670de0b6b3a76400001487151715612bb4576129896004870154670de0b6b3a7640000890261317e565b90602435670de0b6b3a76400006024350204670de0b6b3a764000014602435151715612ba0576129c590670de0b6b3a76400006024350261317e565b6129d16024358961319c565b9182670de0b6b3a7640000810204670de0b6b3a76400001483151715612b8c5783612a26612a1c8c98979695670de0b6b3a7640000612a15600697612a5a9761319c565b910261317e565b9a6024359061319c565b8060028b015560038a0190612a3c88835461319c565b8092558b60048c0155612a4f828261317e565b60058c01558b614d42565b96019586556001546001600160a01b031691823b156105655760405163b65b361f60e01b81526004810191909152336024808301919091529115156044820152903560648201529083908290608490829084905af19081156103e1578391612b78575b5050600254612ad69082906001600160a01b0316614e43565b6002546001600160a01b031690813b15610569578291602483926040519485938492636e93ae2b60e01b845260048401525af1801561045557612b64575b5050612b1f90614f05565b546040519160243583526020830152604082015233907ff48aa9a1deec4f3fc0cb0c073f4f097041726d7c7f9d2c3a863cd52f721e8d1a606060043592a36001815580f35b612b6d90612f3b565b61046057835f612b14565b612b8190612f3b565b61084657815f612abd565b634e487b7160e01b8a52601160045260248afd5b634e487b7160e01b89526011600452602489fd5b634e487b7160e01b88526011600452602488fd5b612bd1916131e0565b61294a565b90888198939812612be9575b505061294c565b61271091929750612bfc612c02916131bd565b836131cd565b048615612c1a57612c12916131e0565b945f80612be2565b612c239161319c565b612c12565b90506020813d602011612c52575b81612c4360209383612f6a565b810103126104dc57515f612922565b3d9150612c36565b9092506020813d602011612c86575b81612c7660209383612f6a565b810103126104dc5751915f6128ac565b3d9150612c69565b612c9790612f3b565b61228257855f61286a565b815460a01c60ff1615612cc157612cbb9086111561310d565b5f612814565b612ccd9086101561310d565b612cbb565b612cec91965060403d6040116103da576103ca8183612f6a565b50945f61280d565b6003546001600160a01b031691823b156104dc57604051631df3cbc560e31b8152925f92849283918291612d2b9160048401613056565b039134905af18015612d5657612d42575b806127cb565b60249450612d4f90612f3b565b5f93612d3c565b6040513d5f823e3d90fd5b346104dc575f3660031901126104dc576020600654604051908152f35b346104dc5760203660031901126104dc576004359060018060a01b036020826004818460015416638da5cb5b60e01b82525afa8015612d5657612dca925f91612e0c5750163314612faa565b60648111612dd757600e55005b60405162461bcd60e51b815260206004820152600d60248201526c26b0bc10189290313ab33332b960991b6044820152606490fd5b612e25915060203d602011610553576105458183612f6a565b8461104c565b9181601f840112156104dc578235916001600160401b0383116104dc576020808501948460051b0101116104dc57565b6024359081151582036104dc57565b9060406003198301126104dc5760043591602435906001600160401b0382116104dc57612e9991600401612e2b565b9091565b346104dc575f3660031901126104dc576020604051620f42408152f35b60409060031901126104dc576004356001600160a01b03811681036104dc579060243590565b8054821015612ef5575f5260205f2001905f90565b634e487b7160e01b5f52603260045260245ffd5b60606003198201126104dc576004359160243591604435906001600160401b0382116104dc57612e9991600401612e2b565b6001600160401b0381116118c157604052565b61026081019081106001600160401b038211176118c157604052565b90601f801991011681019081106001600160401b038211176118c157604052565b908160209103126104dc57516001600160a01b03811681036104dc5790565b15612fb157565b60405162461bcd60e51b81526020600482015260096024820152682737ba1037bbb732b960b91b6044820152606490fd5b15612fe957565b60405162461bcd60e51b815260206004820152600e60248201526d14da5e99481d1bdbc81cdb585b1b60921b6044820152606490fd5b1561302657565b60405162461bcd60e51b81526020600482015260086024820152672737ba1037b832b760c11b6044820152606490fd5b9160208181850182865252604084019360408360051b82010194845f925b858410613085575050505050505090565b90919293949596603f198282030184528735601e19843603018112156104dc5783018681019190356001600160401b0381116104dc5780360383136104dc5787828280600196849695859652848401375f828201840152601f01601f1916010199019796959190910193019190613074565b91908260409103126104dc576020825192015190565b1561311457565b60405162461bcd60e51b815260206004820152601160248201527014db1a5c1c1859d948195e18d959591959607a1b6044820152606490fd5b9081526001600160a01b03909116602082015290151560408201526060810191909152608081019190915260a00190565b8115613188570490565b634e487b7160e01b5f52601260045260245ffd5b919082018092116131a957565b634e487b7160e01b5f52601160045260245ffd5b600160ff1b81146131a9575f0390565b818102929181159184041417156131a957565b919082039182116131a957565b156131f457565b60405162461bcd60e51b815260206004820152601060248201526f496e76616c696420545020707269636560801b6044820152606490fd5b1561323357565b60405162461bcd60e51b815260206004820152601060248201526f496e76616c696420534c20707269636560801b6044820152606490fd5b1561327257565b60405162461bcd60e51b815260206004820152600a6024820152694e6f742061637469766560b01b6044820152606490fd5b3d156132dd573d906001600160401b0382116118c157604051916132d2601f8201601f191660200184612f6a565b82523d5f602084013e565b606090565b156132e957565b60405162461bcd60e51b8152602060048201526011602482015270115512081c99599d5b990819985a5b1959607a1b6044820152606490fd5b9060405161332f81612f4e565b610240601082948054845260ff600182015460018060a01b038116602087015260a01c16151560408501526002810154606085015260038101546080850152600481015460a0850152600581015460c085015260ff600682015481811660e087015260081c161515610100850152600781015461012085015260088101546101408501526009810154610160850152600a810154610180850152600b8101546101a0850152600c8101546101c0850152600d8101546101e0850152600e810154610200850152600f8101546102208501520154910152565b90915f9281613be0575b5050808252600860205260408220600681015461343360ff8260081c1661326b565b6134446007830154600d549061319c565b4211613ae857506003548154604080516331d98b3f60e01b8152600481018390529192829060249082906001600160a01b03165afa908115610b1b578591613ac8575b50600683015460ff16806136bc5750600183015460a01c60ff1691508115613699576134c760058401546127106134c0600e54836131cd565b049061319c565b8215613691578111155b15613658576134fc91156136455760058301548082101561363e57505b6134f783613322565b61504f565b60068101805461ff00191690555b82600a82015480613592575b5050600681015460ff8160081c1615613530575b50505050565b60ff1660030361355a5760085f80516020615cc3833981519152910154925b80a35f80808061352a565b506005545f19810190811161357e575f80516020615cc3833981519152909261354f565b634e487b7160e01b83526011600452602483fd5b81906006840154600460ff82161480613631575b1561361757506135bc9150600d8401549061317e565b80156135165781808092335af16135d16132a4565b50156135de57825f613516565b60405162461bcd60e51b815260206004820152601160248201527012d9595c195c881999594819985a5b1959607a1b6044820152606490fd5b60081c60ff1615613629575b506135bc565b90505f613623565b50600d85015415156135a6565b90506134ee565b60058301548082111561363e57506134ee565b60405162461bcd60e51b8152602060048201526011602482015270131a5b5a5d081b9bdd081c995858da1959607a1b6044820152606490fd5b8110156134d1565b6136b760058401546127106136b0600e54836131cd565b04906131e0565b6134c7565b6001810361377d5750600183015460a01c60ff1691508115613760576136ef60058401546127106136b0600e54836131cd565b915b156137595710155b156137215761370f60058201546134f783613322565b60068101805461ff001916905561350a565b60405162461bcd60e51b815260206004820152601060248201526f14dd1bdc081b9bdd081c995858da195960821b6044820152606490fd5b11156136f9565b61377760058401546127106134c0600e54836131cd565b916136f1565b6002810361382757509050600182015460ff8160a01c165f1461381a5760058301548211155b801561380e575b156137bd575061370f906134f783613322565b6137e491506137d5600384015460098501549061319c565b906001600160a01b0316614e43565b817f61b9399f2f0f32ca39ce8d7be32caed5ec22fe07a6daba3a467ed479ec6065828480a261370f565b506005830154156137aa565b60058301548210156137a3565b60038103613867575090506138416008830191825461578c565b548352600f60205260408320805460ff1916905560068101805461ff001916905561350a565b600414613876575b505061350a565b600f8301549182158015613aac575b15613a755761389384613322565b926001810190818111612bb457600d860154918203613a35578060028701546138bc848261317e565b8260038a0154926138cd878561317e565b9260098c0154976138de908961317e565b966138e8916131cd565b6138f1916131e0565b60608a01526138ff916131cd565b613908916131e0565b6080870152613916916131cd565b61391f916131e0565b6101608401525b6001805490850154606085015160048701549390926001600160a01b03169190823b15613a315760405163bd79156f60e01b8152948a9486949385938493613988939092909160a082901c60ff16916001600160a01b0316906004870161314d565b03915afa8015611c4b57908691613a1d575b50506139a6908261504f565b600f8201549060018201809211611f59577f098dc6c1012d2fb4cc0470ec0f1b82ad9eaf354865d76ebad869d83f1559344e60406060869385600f88015542601088015501518151908582526020820152a2600d8201541115613a0b575b5f8061386f565b60068101805461ff0019169055613a04565b613a2690612f3b565b61056557845f61399a565b8980fd5b5080613a48613a6a92600288015461317e565b6060860152613a5b81600388015461317e565b6080860152600986015461317e565b610160840152613926565b60405162461bcd60e51b815260206004820152600f60248201526e545741503a20746f6f206561726c7960881b6044820152606490fd5b50613ac06010850154600e8601549061319c565b421015613885565b613ae1915060403d6040116103da576103ca8183612f6a565b505f613487565b90600360ff7f61b9399f2f0f32ca39ce8d7be32caed5ec22fe07a6daba3a467ed479ec60658294959361ff0019811660068501551614613bc3575b600360ff600683015416141580613ba8575b613b76575b81600a8201549182613b4d575b509050a2565b60010154613b6e928291829182916001600160a01b03165af16121176132a4565b5f8181613b47565b600181015460038201546009830154613ba3926001600160a01b031691613b9d919061319c565b90614e43565b613b3a565b50613bbc600382015460098301549061319c565b1515613b35565b60088101548252600f60205260408220805460ff19169055613b23565b6003546001600160a01b031691823b156104dc57604051631df3cbc560e31b8152925f92849283918291613c179160048401613056565b039134905af18015612d5657613c2e575b80613411565b613c39919250612f3b565b5f905f613c28565b9190811015612ef55760051b0190565b600180546040805163aced166160e01b815292986020986004989597929692945f946001600160a01b0394939291908c9082908d90829089165afa908115614158579085915f9161413b575b5016330361410a57816140a8575b505080158061407d5761406a57863583526008895285832054915b60035416968651936331d98b3f60e01b8552838a8601528785602481819c5afa94851561405e57819561403e575b5080808d818e5b878210613fe65790508983915b8c808410613f8e575050505050508082105f14613f855750918b905b5f805b8d838310613e6f575050505050505f955f5b868110613d4e57505050505050505050505050565b613d59818888613c41565b355f5260088b52815f20978c858a5414801590613e56575b613e4d5750613db0600a918a5f89888410613e1b575b613d93613d9893613322565b615459565b60068b01805461ff001916905560028b01549061319c565b98015480613e03575b50613dc5818888613c41565b6005545f1981019135908211613df157908d92915f80516020615cc38339815191525f80a35b01613d39565b8a60118d634e487b7160e01b5f52525ffd5b5f80808093335af150613e146132a4565b505f613db9565b613d98929150613d93613e2e858b6131e0565b600284015490808211613e4657505b92935050613d87565b9050613e3d565b91909850613deb565b50613e6987613e648c613322565b615b59565b15613d71565b600890613e7d848689613c41565b355f52528a5f209387855414801590613f6c575b613f635750613ecb600a915f888210613f38575b613eb3908b613d9389613322565b60068601805461ff001916905560028601549061319c565b93015480613f20575b50613ee0818386613c41565b6005545f1981019135908211613f0e57908f92915f80516020615cc38339815191525f80a35b018d92613d27565b8c60118f634e487b7160e01b5f52525ffd5b5f80808093335af150613f316132a4565b505f613ed4565b50613eb3613f46828a6131e0565b600288015490808211613f5c57505b9050613ea5565b9050613f55565b91909350613f06565b50613f7f89613f7a87613322565b615ac7565b15613e91565b928c9150613d24565b83613f9b91600894613c41565b358552528b83208881541480613fd3575b613fbc575b50018e90898f613d08565b936002613fcc929501549061319c565b925f613fb1565b50613fe18a613e6483613322565b613fac565b600890613ff4838a8a613c41565b358552528b8320888154148061402b575b614014575b50018e908e613cfb565b946002614024929601549061319c565b935f61400a565b506140398a613f7a83613322565b614005565b614056919550883d8a116103da576103ca8183612f6a565b50935f613cf4565b508751903d90823e3d90fd5b634e487b7160e01b835260328852602483fd5b5084158061409b5761406a5783358352600889528583205491613cc6565b5050505050505050505050565b836003541691823b156104dc576140d6925f928c8b5195869485938493631df3cbc560e31b85528401613056565b039134905af18015614100576140ed575b80613cab565b6140f8919350612f3b565b5f915f6140e7565b87513d5f823e3d90fd5b875162461bcd60e51b8152808b018c9052600b60248201526a27b7363c9025b2b2b832b960a91b6044820152606490fd5b61415291508d803d10610553576105458183612f6a565b5f613c9d565b89513d5f823e3d90fd5b5f1981146131a95760010190565b8054680100000000000000008110156118c15761419291600182018155612ee0565b819291549060031b91821b915f19901b1916179055565b156141b057565b60405162461bcd60e51b815260206004820152600f60248201526e436f6f6c646f776e2061637469766560881b6044820152606490fd5b156141ee57565b60405162461bcd60e51b815260206004820152600b60248201526a16995c9bc8185b5bdd5b9d60aa1b6044820152606490fd5b519081151582036104dc57565b1561423557565b60405162461bcd60e51b8152602060048201526015602482015274576f756c64206265206c6971756964617461626c6560581b6044820152606490fd5b81810392915f1380158285131691841216176131a957565b81810292915f8212600160ff1b8214166131a95781840514901517156131a957565b811561318857600160ff1b81145f198314166131a9570590565b9190915f83820193841291129080158216911516176131a957565b9190925f90841515806149bb575b1561498457835f52600760205260405f209261431160ff60088601541661301f565b61432860018060a01b036001860154163314612faa565b6007840154600154604051636d78097360e11b815290602090829060049082906001600160a01b03165afa908115612d56575f91614950575b50610a139061436f9261319c565b816148f1575b505060018060a01b0360035416906040835460248251809581936331d98b3f60e01b835260048301525afa9182156148e45781926148c2575b50612710948581146148b1576143ed956143f36002860154826143d185836131cd565b049889936143e460038a015496876131cd565b049384926131e0565b936131e0565b94620f424080841061487657861061483157600181015460a01c60ff16156148165761443060048201546103268a61442b838a614272565b61428a565b60018060a01b0360015416906040519463e4d8cbe560e01b86528a6004870152866024870152602086604481865afa958615611efe578b889182986147da575b5063d693a40061449c614488602093600b54906131cd565b614496600c8a0154426131e0565b906131cd565b0494602487546040519485938492637cc6765f60e11b845260048401525af1801561091b576147af575b506001548454604051634655f1eb60e01b815260048101829052909491602090829060249082906001600160a01b03165afa9081156147a45789939291878f928692614766575b509261455c670de0b6b3a764000061459b97989461453661456195600b61456799015490614272565b60018d01549a5060a08b901c60ff161561474d576145539161428a565b05915b8c6142c6565b6142c6565b90614272565b9981600287015580600387015561457e818361317e565b600587015542600c87015560ff8460a01c16916004870154614d42565b60068401556001546001600160a01b031691823b156107ee5760405163019ca2b960e51b815260048101919091526001600160a01b038216602482015260a09190911c60ff1615156044820152606481018a905290859082908183816084810103925af18015610b1b57908591614739575b5050600254600191909101546001600160a01b039182169116813b156105655760405163118f304360e01b81526001600160a01b0391909116600482015260248101839052604481018790529084908290606490829084905af1801561085e57908491614725575b50508115159081614713575b506146c1575b5050604051938452602084015260408301527f5cc0748e06097a585a6534dafcca64d5cc367340dff0e00469484e8269a7ca7b60603393a3565b6002546001600160a01b031690813b156105695782916024839260405194859384926335b8e71360e01b845260048401525af180156104555715614687576147098291612f3b565b61056d5780614687565b61471d91506131bd565b84135f614681565b61472e90612f3b565b61056957825f614675565b61474290612f3b565b61046057835f61460d565b61475a9061475f9261428a565b6131bd565b0591614556565b95505050506020833d60201161479c575b8161478460209383612f6a565b810103126104dc5791518892908d908761455c61450d565b3d9150614777565b6040513d8b823e3d90fd5b602090813d83116147d3575b6147c58183612f6a565b810103126104dc575f6144c6565b503d6147bb565b975050506020863d60201161480e575b816147f760209383612f6a565b810103126104dc57945194868b63d693a400614470565b3d91506147ea565b61482c60048201546103268a61442b8984614272565b614430565b60405162461bcd60e51b815260206004820152601e60248201527f52656d61696e64657220636f6c6c61746572616c20746f6f20736d616c6c00006044820152606490fd5b60405162461bcd60e51b815260206004820152601360248201527214995b585a5b99195c881d1bdbc81cdb585b1b606a1b6044820152606490fd5b50509190506148c0925061578c565b565b6148dc91925060403d6040116103da576103ca8183612f6a565b50905f6143ae565b50604051903d90823e3d90fd5b6003546001600160a01b031691823b156104dc57604051631df3cbc560e31b8152925f928492839182916149289160048401613056565b039134905af18015612d565761493f575b80614375565b6149499150612f3b565b5f80614939565b90506020813d60201161497c575b8161496b60209383612f6a565b810103126104dc575161436f614361565b3d915061495e565b60405162461bcd60e51b815260206004820152600f60248201526e125b9d985b1a59081c195c98d95b9d608a1b6044820152606490fd5b506127108511156142ef565b906040516101c081018181106001600160401b038211176118c1576040526101a0600c82948054845260ff600182015460018060a01b038116602087015260a01c16151560408501526002810154606085015260038101546080850152600481015460a0850152600581015460c0850152600681015460e0850152600781015461010085015260ff60088201541615156101208501526009810154610140850152600a810154610160850152600b8101546101808501520154910152565b60025f5414614a945760025f55565b604051633ee5aeb560e01b8152600490fd5b916064602092935f60018060a01b03938460045416908560405198899788966323b872dd60e01b885216600487015216602485015260448401525af1908115612d56575f91614b33575b5015614af857565b60405162461bcd60e51b8152602060048201526013602482015272151c985b9cd9995c919c9bdb4819985a5b1959606a1b6044820152606490fd5b90506020813d602011614b65575b81614b4e60209383612f6a565b810103126104dc57614b5f90614221565b5f614af0565b3d9150614b41565b90614b7a610650836149c7565b91600154905f60018060a01b03808354604095865191637cc6765f60e11b83526004830152816024815f6020978895165af18015614cb857908391614d19575b5050614bc8610693856149c7565b875f8213614d06575b505086614c51575b42600c85015560015416918184546024875180968193634655f1eb60e01b835260048301525afa948515614c47575093614c16575b5050600b0155565b9080929350813d8311614c40575b614c2e8183612f6a565b810103126104dc575190600b5f614c0e565b503d614c24565b51903d90823e3d90fd5b60038401805480891015614cc25788614c69916131e0565b90558060025416803b156104dc575f8091602488518094819363ff20b48d60e01b83528d60048401525af18015614cb857614ca5575b50614bd9565b614cb0919350612f3b565b5f915f614c9f565b86513d5f823e3d90fd5b865162461bcd60e51b815260048101859052601f60248201527f506f736974696f6e206c6971756964617461626c652066726f6d2066656573006044820152606490fd5b614d1192985061319c565b955f80614bd1565b813d8311614d3b575b614d2c8183612f6a565b810103126104dc57815f614bba565b503d614d22565b91929092612328908181029181830414901517156131a9576001546040516335123baf60e21b81526127109283900491602090829060049082906001600160a01b03165afa908115612d56575f91614e11575b50600a81018091116131a957614dac8391876131cd565b0490808210614e0157505060648402848104606414851517156131a95704905b15614dea57614de792614de261214592846131cd565b61317e565b90565b614de792614de2614dfb92846131cd565b9061319c565b614e0b92506131e0565b90614dcc565b90506020813d602011614e3b575b81614e2c60209383612f6a565b810103126104dc57515f614d95565b3d9150614e1f565b6004805460405163a9059cbb60e01b81526001600160a01b0393841692810192909252602482019390935291602091839160449183915f91165af1908115612d56575f91614ecb575b5015614e9457565b60405162461bcd60e51b815260206004820152600f60248201526e151c985b9cd9995c8819985a5b1959608a1b6044820152606490fd5b90506020813d602011614efd575b81614ee660209383612f6a565b810103126104dc57614ef790614221565b5f614e8c565b3d9150614ed9565b60015460408051631db0457960e11b815260048101939093525f9392916001600160a01b039082908490602490829085165afa928315615045575f905f94615023575b5080614fc2575b5082614f5d575b5050509050565b6020600491600154168351928380926361d027b360e01b82525afa918215614fb95750614f91939491614f9a575b50614e43565b805f8080614f56565b614fb3915060203d602011610553576105458183612f6a565b5f614f8b565b513d86823e3d90fd5b614fd0818360025416614e43565b816002541690813b156104dc575f9160248392865194859384926302102c9760e11b845260048401525af180156150195715614f4f57615011919550612f3b565b5f935f614f4f565b83513d5f823e3d90fd5b905061503d919350823d84116103da576103ca8183612f6a565b92905f614f48565b82513d5f823e3d90fd5b60608101805191925f92919083831561545157505f925b8390806153ae575b508184821315615360575061508661271091836131cd565b04604086015115155f146153525761509d9161319c565b600554936150aa85614162565b6005558484526007602090815260408086208851815588830180516001830180548c860180516001600160a81b03199092166001600160a01b039485161791151560a081901b60ff60a01b16929092179092559099959893969495939491938c8651988960028201558a6080830194855180600385015582600485015560a085019c8d51600586015561513c93614d42565b600682015542600782015542600c8201556008810160ff1981541660011790556101a082015160098201556101c0820151600a8201558b876001541692518a51938491637cc6765f60e11b8352600483015281865a92602493f1918215615348578392615318575b50600b015584600154168d519086865116908d51151591895193823b15612282578b5163b65b361f60e01b815260048101919091526001600160a01b03919091166024820152911515604483015260648201929092529082908290608490829084905af1801561530e576152fa575b50506152258460025416825190614e43565b83600254169051813b156105695782916024839289519485938492636e93ae2b60e01b845260048401525af180156152f0578b92918d916152d6575b508694927f52ca44dea94749aadfaa4d3749a0323a33b3a6434adcfff52ad54c511f5579c79b999760a09b999795936152a16101606152b1950151614f05565b85855116815260098b5220614170565b51169951955115159051925194825196875286015284015260608301526080820152a3565b8293506152e39150612f3b565b61056d5789908b5f615261565b86513d84823e3d90fd5b61530691929350612f3b565b905f80615213565b88513d84823e3d90fd5b9091508b81813d8311615341575b6153308183612f6a565b81010312610569575190600b6151a4565b503d615326565b89513d85823e3d90fd5b61535b916131e0565b61509d565b90848112615370575b505061509d565b612710919250612bfc615382916131bd565b04604086015115155f146153a057615399916131e0565b5f80615369565b6153a99161319c565b615399565b60015487516040808a0151905163b391decf60e01b815260048101929092521515602482015260448101839052919250602090829060649082906001600160a01b03165afa908115610b1b57859161541d575b506154179161540f9161428a565b8351906142ac565b5f61506e565b90506020813d602011615449575b8161543860209383612f6a565b810103126105655751615417615401565b3d915061542b565b92505f615066565b91906060830180515f938082115f1461578357615475916131e0565b915b5f92806156e4575b5061552992815f821315615696575061549b61271091836131cd565b04604086015115155f14615688576154b29161319c565b80600554946154c086614162565b6005555f8681526007602090815260408083208a5181558a830180516001830180548e860180516001600160a81b03199092166001600160a01b039485161791151560a081901b60ff60a01b1692909217909255909b959a94979496919592949390928b908f90565b61555a8951958660028601558c6080840197885191826003890155600488015560a085019e8f516005890155614d42565b600684015542600784015542600c84015560088301600160ff198254161790556101a081015160098401556101c0810151600a8401556024886001541691518b519586938492637cc6765f60e11b845260048401525af191821561567e575f9261564e575b50600b015583600154168c5185855116918c51151590885193813b156104dc578a5163b65b361f60e01b815260048101949094526001600160a01b0316602484015290151560448301526064820192909252905f908290608490829084905af180156141005761563b575b506152258460025416825190614e43565b615646919250612f3b565b5f905f61562a565b9091508a81813d8311615677575b6156668183612f6a565b810103126104dc575190600b6155bf565b503d61565c565b88513d5f823e3d90fd5b615691916131e0565b6154b2565b905f81126156a6575b50506154b2565b612710919250612bfc6156b8916131bd565b04604086015115155f146156d6576156cf916131e0565b5f8061569f565b6156df9161319c565b6156cf565b6001548651604080890151905163b391decf60e01b8152600481019290925215156024820152604481018390529450602090859060649082906001600160a01b03165afa938415612d56575f9461574d575b5061540f615747916155299561428a565b9261547f565b93506020843d60201161577b575b8161576860209383612f6a565b810103126104dc5792519261540f615736565b3d915061575b565b50505f91615477565b91905f92805f5260209160078352604090815f2060088101906157b260ff83541661301f565b60018101805460a01c60ff1615615aad576157e360048301546103266157d88288614272565b60028601549061428a565b600154600284018054885163e4d8cbe560e01b815260048101919091525f60248201526001600160a01b0395909390928616908b85604481855afa948515615aa3575f95615a74575b505f8c61583b610650876149c7565b9360248d885490519485938492637cc6765f60e11b845260048401525af18015615a6a57908d91615a41575b50506145616158869261455c61587f610693886149c7565b91886142c6565b865460ff19169096556001548254855492549290918716803b156104dc578a5163019ca2b960e51b815260048101939093526001600160a01b0382891616602484015260a09190911c60ff16151560448301526064820192909252905f9082908183816084810103925af1801561567e57615a2e575b508a8460025416600386865416930192835490823b15610460578a5163118f304360e01b81526001600160a01b039190911660048201526024810191909152604481018890529082908290606490829084905af18015615a2457615a0c575b505081151590816159f9575b506159a2575b507f356fca566f3a054a459c7224d9c9d634f31a98835cfd4fb4c5ddbf8b96aca21195969798505416958351928352820152a3565b89908360025416803b156105695760248392895194859384926335b8e71360e01b845260048401525af180156159ef571561596d576159e18a91612f3b565b6159eb578861596d565b8880fd5b86513d8c823e3d90fd5b615a049150546131bd565b84135f615967565b615a1590612f3b565b615a20578a5f61595b565b8a80fd5b89513d84823e3d90fd5b615a39919b50612f3b565b5f995f6158fc565b813d8311615a63575b615a548183612f6a565b810103126104dc578b5f615867565b503d615a4a565b8b513d5f823e3d90fd5b9094508b81813d8311615a9c575b615a8c8183612f6a565b810103126104dc5751935f61582c565b503d615a82565b8a513d5f823e3d90fd5b615ac260048301546103266157d88783614272565b6157e3565b610100810151158015615b48575b615b425760e081015160ff1680615af9575060c0015110615af557600190565b5f90565b60018103615b10575060c0015111615af557600190565b60021480615b35575b615b25575b5050600190565b60c0015110615af5575f80615b1e565b5060c08101511515615b19565b50505f90565b506001604082015115151415615ad5565b610100810151158015615bcf575b615b425760e081015160ff1680615b87575060c0015111615af557600190565b60018103615b9e575060c0015110615af557600190565b60021480615bc2575b615bb2575050600190565b60c0015111615af5575f80615b1e565b5060c08101511515615ba7565b5060408101511515615b67565b615c0a63d693a40091615c056060615bf96101a0840151426131e0565b920151600b54906131cd565b6131cd565b0490565b60018060a01b03600154169060208151602460405180958193634655f1eb60e01b835260048301525afa918215612d56575f92615c8c575b50615c60670de0b6b3a76400009261018083015190614272565b604082015115615c7b576060615c7792015161428a565b0590565b61475a906060615c7793015161428a565b91506020823d602011615cba575b81615ca760209383612f6a565b810103126104dc57905190615c60615c46565b3d9150615c9a56fe9947370f1e808dd40de986fca744d8715d4d7aa575359f77a7bdeeb887f590eaa26469706673582212208d53d6229e14143c129700b94d7b15ec1d5aebd6fb86af19f807acfa5721a21664736f6c63430008180033",
  "linkReferences": {},
  "deployedLinkReferences": {},
  "immutableReferences": {},
  "inputSourceName": "project/src/ConfidentialTrading.sol",
  "buildInfoId": "solc-0_8_24-0d1c3c9f0b0e6c27e18af7a3cf756b15ecb7b5fa"
}