{
  "_format": "hh3-artifact-1",
  "contractName": "ConfidentialCoreV1",
  "sourceName": "src/ConfidentialCoreV1.sol",
  "abi": [
    {
      "inputs": [
        {
          "internalType": "address",
          "name": "_usdc",
          "type": "address"
        },
        {
          "internalType": "address",
          "name": "_oracle",
          "type": "address"
        }
      ],
      "stateMutability": "nonpayable",
      "type": "constructor"
    },
    {
      "inputs": [],
      "name": "ExceedsMaxLeverage",
      "type": "error"
    },
    {
      "inputs": [],
      "name": "ExceedsMaxOI",
      "type": "error"
    },
    {
      "inputs": [],
      "name": "ExceedsMaxPositionSize",
      "type": "error"
    },
    {
      "inputs": [],
      "name": "ExceedsUtilizationCap",
      "type": "error"
    },
    {
      "inputs": [],
      "name": "InvalidFeeSplit",
      "type": "error"
    },
    {
      "inputs": [],
      "name": "IsPaused",
      "type": "error"
    },
    {
      "inputs": [],
      "name": "OnlyOwner",
      "type": "error"
    },
    {
      "inputs": [],
      "name": "OnlyTrading",
      "type": "error"
    },
    {
      "inputs": [],
      "name": "PairNotActive",
      "type": "error"
    },
    {
      "inputs": [],
      "name": "ZeroAddress",
      "type": "error"
    },
    {
      "anonymous": false,
      "inputs": [
        {
          "indexed": false,
          "internalType": "uint256",
          "name": "totalLoss",
          "type": "uint256"
        },
        {
          "indexed": false,
          "internalType": "uint256",
          "name": "threshold",
          "type": "uint256"
        }
      ],
      "name": "CircuitBreakerTriggered",
      "type": "event"
    },
    {
      "anonymous": false,
      "inputs": [
        {
          "indexed": false,
          "internalType": "uint256",
          "name": "toVault",
          "type": "uint256"
        },
        {
          "indexed": false,
          "internalType": "uint256",
          "name": "toTreasury",
          "type": "uint256"
        }
      ],
      "name": "FeeDistributed",
      "type": "event"
    },
    {
      "anonymous": false,
      "inputs": [
        {
          "indexed": true,
          "internalType": "bytes32",
          "name": "pairId",
          "type": "bytes32"
        },
        {
          "indexed": false,
          "internalType": "int256",
          "name": "newCumulativeIndex",
          "type": "int256"
        },
        {
          "indexed": false,
          "internalType": "int256",
          "name": "delta",
          "type": "int256"
        }
      ],
      "name": "FundingUpdated",
      "type": "event"
    },
    {
      "anonymous": false,
      "inputs": [
        {
          "indexed": true,
          "internalType": "address",
          "name": "current",
          "type": "address"
        },
        {
          "indexed": true,
          "internalType": "address",
          "name": "pending",
          "type": "address"
        }
      ],
      "name": "OwnershipTransferStarted",
      "type": "event"
    },
    {
      "anonymous": false,
      "inputs": [
        {
          "indexed": true,
          "internalType": "address",
          "name": "prev",
          "type": "address"
        },
        {
          "indexed": true,
          "internalType": "address",
          "name": "next",
          "type": "address"
        }
      ],
      "name": "OwnershipTransferred",
      "type": "event"
    },
    {
      "anonymous": false,
      "inputs": [
        {
          "indexed": true,
          "internalType": "bytes32",
          "name": "pairId",
          "type": "bytes32"
        },
        {
          "indexed": false,
          "internalType": "uint256",
          "name": "maxLeverage",
          "type": "uint256"
        },
        {
          "indexed": false,
          "internalType": "uint256",
          "name": "maxLongOI",
          "type": "uint256"
        },
        {
          "indexed": false,
          "internalType": "uint256",
          "name": "maxShortOI",
          "type": "uint256"
        }
      ],
      "name": "PairAdded",
      "type": "event"
    },
    {
      "anonymous": false,
      "inputs": [
        {
          "indexed": true,
          "internalType": "bytes32",
          "name": "pairId",
          "type": "bytes32"
        },
        {
          "indexed": false,
          "internalType": "bool",
          "name": "active",
          "type": "bool"
        }
      ],
      "name": "PairToggled",
      "type": "event"
    },
    {
      "anonymous": false,
      "inputs": [
        {
          "indexed": true,
          "internalType": "bytes32",
          "name": "pairId",
          "type": "bytes32"
        }
      ],
      "name": "PairUpdated",
      "type": "event"
    },
    {
      "anonymous": false,
      "inputs": [],
      "name": "Paused",
      "type": "event"
    },
    {
      "anonymous": false,
      "inputs": [],
      "name": "Unpaused",
      "type": "event"
    },
    {
      "inputs": [],
      "name": "absolutePrimeLoss",
      "outputs": [
        {
          "internalType": "uint256",
          "name": "",
          "type": "uint256"
        }
      ],
      "stateMutability": "view",
      "type": "function"
    },
    {
      "inputs": [],
      "name": "acceptOwnership",
      "outputs": [],
      "stateMutability": "nonpayable",
      "type": "function"
    },
    {
      "inputs": [
        {
          "internalType": "string",
          "name": "pairName",
          "type": "string"
        },
        {
          "internalType": "bytes32",
          "name": "pythFeedId",
          "type": "bytes32"
        },
        {
          "internalType": "uint256",
          "name": "maxLeverage",
          "type": "uint256"
        },
        {
          "internalType": "uint256",
          "name": "maxLongOI_",
          "type": "uint256"
        },
        {
          "internalType": "uint256",
          "name": "maxShortOI_",
          "type": "uint256"
        },
        {
          "internalType": "uint256",
          "name": "maxPositionPct",
          "type": "uint256"
        }
      ],
      "name": "addPair",
      "outputs": [],
      "stateMutability": "nonpayable",
      "type": "function"
    },
    {
      "inputs": [],
      "name": "baseFundingRate",
      "outputs": [
        {
          "internalType": "uint256",
          "name": "",
          "type": "uint256"
        }
      ],
      "stateMutability": "view",
      "type": "function"
    },
    {
      "inputs": [
        {
          "internalType": "bytes32",
          "name": "pairId",
          "type": "bytes32"
        },
        {
          "internalType": "bool",
          "name": "isLong",
          "type": "bool"
        },
        {
          "internalType": "uint256",
          "name": "sizeUsd",
          "type": "uint256"
        }
      ],
      "name": "calcPriceImpact",
      "outputs": [
        {
          "internalType": "int256",
          "name": "impactBps",
          "type": "int256"
        }
      ],
      "stateMutability": "view",
      "type": "function"
    },
    {
      "inputs": [
        {
          "internalType": "uint256",
          "name": "sizeUsd",
          "type": "uint256"
        }
      ],
      "name": "calculateFee",
      "outputs": [
        {
          "internalType": "uint256",
          "name": "",
          "type": "uint256"
        }
      ],
      "stateMutability": "view",
      "type": "function"
    },
    {
      "inputs": [
        {
          "internalType": "uint256",
          "name": "sizeUsd",
          "type": "uint256"
        },
        {
          "internalType": "bool",
          "name": "isMaker",
          "type": "bool"
        }
      ],
      "name": "calculateFee",
      "outputs": [
        {
          "internalType": "uint256",
          "name": "",
          "type": "uint256"
        }
      ],
      "stateMutability": "view",
      "type": "function"
    },
    {
      "inputs": [
        {
          "internalType": "bytes32",
          "name": "",
          "type": "bytes32"
        }
      ],
      "name": "cumulativeFundingIndex",
      "outputs": [
        {
          "internalType": "int256",
          "name": "",
          "type": "int256"
        }
      ],
      "stateMutability": "view",
      "type": "function"
    },
    {
      "inputs": [
        {
          "internalType": "bytes32",
          "name": "pairId",
          "type": "bytes32"
        },
        {
          "internalType": "address",
          "name": "user",
          "type": "address"
        },
        {
          "internalType": "bool",
          "name": "isLong",
          "type": "bool"
        },
        {
          "internalType": "uint256",
          "name": "sizeUsd",
          "type": "uint256"
        }
      ],
      "name": "decreaseOI",
      "outputs": [],
      "stateMutability": "nonpayable",
      "type": "function"
    },
    {
      "inputs": [
        {
          "internalType": "uint256",
          "name": "totalFee",
          "type": "uint256"
        }
      ],
      "name": "getFeeSplit",
      "outputs": [
        {
          "internalType": "uint256",
          "name": "toVault",
          "type": "uint256"
        },
        {
          "internalType": "uint256",
          "name": "toTreasury",
          "type": "uint256"
        }
      ],
      "stateMutability": "view",
      "type": "function"
    },
    {
      "inputs": [
        {
          "internalType": "bytes32",
          "name": "pairId",
          "type": "bytes32"
        }
      ],
      "name": "getNetOI",
      "outputs": [
        {
          "internalType": "int256",
          "name": "",
          "type": "int256"
        }
      ],
      "stateMutability": "view",
      "type": "function"
    },
    {
      "inputs": [
        {
          "internalType": "bytes32",
          "name": "pairId",
          "type": "bytes32"
        }
      ],
      "name": "getOIInfo",
      "outputs": [
        {
          "internalType": "uint256",
          "name": "longOI_",
          "type": "uint256"
        },
        {
          "internalType": "uint256",
          "name": "shortOI_",
          "type": "uint256"
        },
        {
          "internalType": "uint256",
          "name": "maxLong_",
          "type": "uint256"
        },
        {
          "internalType": "uint256",
          "name": "maxShort_",
          "type": "uint256"
        }
      ],
      "stateMutability": "view",
      "type": "function"
    },
    {
      "inputs": [
        {
          "internalType": "bytes32",
          "name": "pairId",
          "type": "bytes32"
        }
      ],
      "name": "getPairConfig",
      "outputs": [
        {
          "components": [
            {
              "internalType": "bytes32",
              "name": "pairId",
              "type": "bytes32"
            },
            {
              "internalType": "bytes32",
              "name": "pythFeedId",
              "type": "bytes32"
            },
            {
              "internalType": "uint256",
              "name": "maxLeverage",
              "type": "uint256"
            },
            {
              "internalType": "uint256",
              "name": "maxLongOI",
              "type": "uint256"
            },
            {
              "internalType": "uint256",
              "name": "maxShortOI",
              "type": "uint256"
            },
            {
              "internalType": "uint256",
              "name": "maxPositionPct",
              "type": "uint256"
            },
            {
              "internalType": "bool",
              "name": "active",
              "type": "bool"
            }
          ],
          "internalType": "struct ConfidentialCoreV1.PairConfig",
          "name": "",
          "type": "tuple"
        }
      ],
      "stateMutability": "view",
      "type": "function"
    },
    {
      "inputs": [],
      "name": "getPairCount",
      "outputs": [
        {
          "internalType": "uint256",
          "name": "",
          "type": "uint256"
        }
      ],
      "stateMutability": "view",
      "type": "function"
    },
    {
      "inputs": [
        {
          "internalType": "bytes32",
          "name": "pairId",
          "type": "bytes32"
        }
      ],
      "name": "getProjectedFundingRate",
      "outputs": [
        {
          "internalType": "int256",
          "name": "",
          "type": "int256"
        }
      ],
      "stateMutability": "view",
      "type": "function"
    },
    {
      "inputs": [
        {
          "internalType": "bytes32",
          "name": "pairId",
          "type": "bytes32"
        },
        {
          "internalType": "address",
          "name": "user",
          "type": "address"
        },
        {
          "internalType": "bool",
          "name": "isLong",
          "type": "bool"
        },
        {
          "internalType": "uint256",
          "name": "sizeUsd",
          "type": "uint256"
        }
      ],
      "name": "increaseOI",
      "outputs": [],
      "stateMutability": "nonpayable",
      "type": "function"
    },
    {
      "inputs": [],
      "name": "keeper",
      "outputs": [
        {
          "internalType": "address",
          "name": "",
          "type": "address"
        }
      ],
      "stateMutability": "view",
      "type": "function"
    },
    {
      "inputs": [
        {
          "internalType": "bytes32",
          "name": "",
          "type": "bytes32"
        }
      ],
      "name": "lastFundingUpdate",
      "outputs": [
        {
          "internalType": "uint256",
          "name": "",
          "type": "uint256"
        }
      ],
      "stateMutability": "view",
      "type": "function"
    },
    {
      "inputs": [
        {
          "internalType": "bytes32",
          "name": "",
          "type": "bytes32"
        }
      ],
      "name": "longOI",
      "outputs": [
        {
          "internalType": "uint256",
          "name": "",
          "type": "uint256"
        }
      ],
      "stateMutability": "view",
      "type": "function"
    },
    {
      "inputs": [],
      "name": "makerFeeBps",
      "outputs": [
        {
          "internalType": "uint256",
          "name": "",
          "type": "uint256"
        }
      ],
      "stateMutability": "view",
      "type": "function"
    },
    {
      "inputs": [],
      "name": "maxDrawdownBps",
      "outputs": [
        {
          "internalType": "uint256",
          "name": "",
          "type": "uint256"
        }
      ],
      "stateMutability": "view",
      "type": "function"
    },
    {
      "inputs": [],
      "name": "maxPriceImpactBps",
      "outputs": [
        {
          "internalType": "uint256",
          "name": "",
          "type": "uint256"
        }
      ],
      "stateMutability": "view",
      "type": "function"
    },
    {
      "inputs": [],
      "name": "minPositionDuration",
      "outputs": [
        {
          "internalType": "uint256",
          "name": "",
          "type": "uint256"
        }
      ],
      "stateMutability": "view",
      "type": "function"
    },
    {
      "inputs": [],
      "name": "oracle",
      "outputs": [
        {
          "internalType": "contract PythPriceOracle",
          "name": "",
          "type": "address"
        }
      ],
      "stateMutability": "view",
      "type": "function"
    },
    {
      "inputs": [],
      "name": "owner",
      "outputs": [
        {
          "internalType": "address",
          "name": "",
          "type": "address"
        }
      ],
      "stateMutability": "view",
      "type": "function"
    },
    {
      "inputs": [
        {
          "internalType": "uint256",
          "name": "",
          "type": "uint256"
        }
      ],
      "name": "pairList",
      "outputs": [
        {
          "internalType": "bytes32",
          "name": "",
          "type": "bytes32"
        }
      ],
      "stateMutability": "view",
      "type": "function"
    },
    {
      "inputs": [
        {
          "internalType": "bytes32",
          "name": "",
          "type": "bytes32"
        }
      ],
      "name": "pairs",
      "outputs": [
        {
          "internalType": "bytes32",
          "name": "pairId",
          "type": "bytes32"
        },
        {
          "internalType": "bytes32",
          "name": "pythFeedId",
          "type": "bytes32"
        },
        {
          "internalType": "uint256",
          "name": "maxLeverage",
          "type": "uint256"
        },
        {
          "internalType": "uint256",
          "name": "maxLongOI",
          "type": "uint256"
        },
        {
          "internalType": "uint256",
          "name": "maxShortOI",
          "type": "uint256"
        },
        {
          "internalType": "uint256",
          "name": "maxPositionPct",
          "type": "uint256"
        },
        {
          "internalType": "bool",
          "name": "active",
          "type": "bool"
        }
      ],
      "stateMutability": "view",
      "type": "function"
    },
    {
      "inputs": [],
      "name": "pause",
      "outputs": [],
      "stateMutability": "nonpayable",
      "type": "function"
    },
    {
      "inputs": [],
      "name": "paused",
      "outputs": [
        {
          "internalType": "bool",
          "name": "",
          "type": "bool"
        }
      ],
      "stateMutability": "view",
      "type": "function"
    },
    {
      "inputs": [],
      "name": "pendingOwner",
      "outputs": [
        {
          "internalType": "address",
          "name": "",
          "type": "address"
        }
      ],
      "stateMutability": "view",
      "type": "function"
    },
    {
      "inputs": [
        {
          "internalType": "uint256",
          "name": "amount",
          "type": "uint256"
        }
      ],
      "name": "recordPrimeDeposit",
      "outputs": [],
      "stateMutability": "nonpayable",
      "type": "function"
    },
    {
      "inputs": [
        {
          "internalType": "uint256",
          "name": "amount",
          "type": "uint256"
        }
      ],
      "name": "recordPrimeWithdrawal",
      "outputs": [],
      "stateMutability": "nonpayable",
      "type": "function"
    },
    {
      "inputs": [
        {
          "internalType": "uint256",
          "name": "_rate",
          "type": "uint256"
        }
      ],
      "name": "setBaseFundingRate",
      "outputs": [],
      "stateMutability": "nonpayable",
      "type": "function"
    },
    {
      "inputs": [
        {
          "internalType": "uint256",
          "name": "_vaultBps",
          "type": "uint256"
        },
        {
          "internalType": "uint256",
          "name": "_treasuryBps",
          "type": "uint256"
        }
      ],
      "name": "setFeeSplit",
      "outputs": [],
      "stateMutability": "nonpayable",
      "type": "function"
    },
    {
      "inputs": [
        {
          "internalType": "address",
          "name": "_keeper",
          "type": "address"
        }
      ],
      "name": "setKeeper",
      "outputs": [],
      "stateMutability": "nonpayable",
      "type": "function"
    },
    {
      "inputs": [
        {
          "internalType": "uint256",
          "name": "_bps",
          "type": "uint256"
        }
      ],
      "name": "setMaxDrawdown",
      "outputs": [],
      "stateMutability": "nonpayable",
      "type": "function"
    },
    {
      "inputs": [
        {
          "internalType": "uint256",
          "name": "_maxBps",
          "type": "uint256"
        }
      ],
      "name": "setMaxPriceImpact",
      "outputs": [],
      "stateMutability": "nonpayable",
      "type": "function"
    },
    {
      "inputs": [
        {
          "internalType": "uint256",
          "name": "_seconds",
          "type": "uint256"
        }
      ],
      "name": "setMinPositionDuration",
      "outputs": [],
      "stateMutability": "nonpayable",
      "type": "function"
    },
    {
      "inputs": [
        {
          "internalType": "address",
          "name": "_trading",
          "type": "address"
        }
      ],
      "name": "setTrading",
      "outputs": [],
      "stateMutability": "nonpayable",
      "type": "function"
    },
    {
      "inputs": [
        {
          "internalType": "uint256",
          "name": "_takerBps",
          "type": "uint256"
        },
        {
          "internalType": "uint256",
          "name": "_makerBps",
          "type": "uint256"
        }
      ],
      "name": "setTradingFees",
      "outputs": [],
      "stateMutability": "nonpayable",
      "type": "function"
    },
    {
      "inputs": [
        {
          "internalType": "address",
          "name": "_treasury",
          "type": "address"
        }
      ],
      "name": "setTreasury",
      "outputs": [],
      "stateMutability": "nonpayable",
      "type": "function"
    },
    {
      "inputs": [
        {
          "internalType": "uint256",
          "name": "_capBps",
          "type": "uint256"
        }
      ],
      "name": "setUtilizationCap",
      "outputs": [],
      "stateMutability": "nonpayable",
      "type": "function"
    },
    {
      "inputs": [
        {
          "internalType": "address",
          "name": "_vault",
          "type": "address"
        }
      ],
      "name": "setVault",
      "outputs": [],
      "stateMutability": "nonpayable",
      "type": "function"
    },
    {
      "inputs": [
        {
          "internalType": "bytes32",
          "name": "",
          "type": "bytes32"
        }
      ],
      "name": "shortOI",
      "outputs": [
        {
          "internalType": "uint256",
          "name": "",
          "type": "uint256"
        }
      ],
      "stateMutability": "view",
      "type": "function"
    },
    {
      "inputs": [],
      "name": "takerFeeBps",
      "outputs": [
        {
          "internalType": "uint256",
          "name": "",
          "type": "uint256"
        }
      ],
      "stateMutability": "view",
      "type": "function"
    },
    {
      "inputs": [
        {
          "internalType": "bytes32",
          "name": "pairId",
          "type": "bytes32"
        },
        {
          "internalType": "bool",
          "name": "active",
          "type": "bool"
        }
      ],
      "name": "togglePair",
      "outputs": [],
      "stateMutability": "nonpayable",
      "type": "function"
    },
    {
      "inputs": [],
      "name": "totalHistoricalPrimeDeposits",
      "outputs": [
        {
          "internalType": "uint256",
          "name": "",
          "type": "uint256"
        }
      ],
      "stateMutability": "view",
      "type": "function"
    },
    {
      "inputs": [
        {
          "internalType": "uint256",
          "name": "lossAmount",
          "type": "uint256"
        }
      ],
      "name": "trackVaultLoss",
      "outputs": [],
      "stateMutability": "nonpayable",
      "type": "function"
    },
    {
      "inputs": [],
      "name": "trading",
      "outputs": [
        {
          "internalType": "address",
          "name": "",
          "type": "address"
        }
      ],
      "stateMutability": "view",
      "type": "function"
    },
    {
      "inputs": [
        {
          "internalType": "address",
          "name": "newOwner",
          "type": "address"
        }
      ],
      "name": "transferOwnership",
      "outputs": [],
      "stateMutability": "nonpayable",
      "type": "function"
    },
    {
      "inputs": [],
      "name": "treasury",
      "outputs": [
        {
          "internalType": "address",
          "name": "",
          "type": "address"
        }
      ],
      "stateMutability": "view",
      "type": "function"
    },
    {
      "inputs": [],
      "name": "treasuryFeeBps",
      "outputs": [
        {
          "internalType": "uint256",
          "name": "",
          "type": "uint256"
        }
      ],
      "stateMutability": "view",
      "type": "function"
    },
    {
      "inputs": [],
      "name": "unpause",
      "outputs": [],
      "stateMutability": "nonpayable",
      "type": "function"
    },
    {
      "inputs": [
        {
          "internalType": "bytes32",
          "name": "pairId",
          "type": "bytes32"
        }
      ],
      "name": "updateFunding",
      "outputs": [
        {
          "internalType": "int256",
          "name": "",
          "type": "int256"
        }
      ],
      "stateMutability": "nonpayable",
      "type": "function"
    },
    {
      "inputs": [
        {
          "internalType": "bytes32",
          "name": "pairId",
          "type": "bytes32"
        },
        {
          "internalType": "uint256",
          "name": "maxLeverage_",
          "type": "uint256"
        }
      ],
      "name": "updatePairLeverage",
      "outputs": [],
      "stateMutability": "nonpayable",
      "type": "function"
    },
    {
      "inputs": [
        {
          "internalType": "bytes32",
          "name": "pairId",
          "type": "bytes32"
        },
        {
          "internalType": "uint256",
          "name": "maxLongOI_",
          "type": "uint256"
        },
        {
          "internalType": "uint256",
          "name": "maxShortOI_",
          "type": "uint256"
        },
        {
          "internalType": "uint256",
          "name": "maxPositionPct",
          "type": "uint256"
        }
      ],
      "name": "updatePairLimits",
      "outputs": [],
      "stateMutability": "nonpayable",
      "type": "function"
    },
    {
      "inputs": [],
      "name": "usdc",
      "outputs": [
        {
          "internalType": "address",
          "name": "",
          "type": "address"
        }
      ],
      "stateMutability": "view",
      "type": "function"
    },
    {
      "inputs": [
        {
          "internalType": "bytes32",
          "name": "",
          "type": "bytes32"
        },
        {
          "internalType": "address",
          "name": "",
          "type": "address"
        }
      ],
      "name": "userLongOI",
      "outputs": [
        {
          "internalType": "uint256",
          "name": "",
          "type": "uint256"
        }
      ],
      "stateMutability": "view",
      "type": "function"
    },
    {
      "inputs": [
        {
          "internalType": "bytes32",
          "name": "",
          "type": "bytes32"
        },
        {
          "internalType": "address",
          "name": "",
          "type": "address"
        }
      ],
      "name": "userShortOI",
      "outputs": [
        {
          "internalType": "uint256",
          "name": "",
          "type": "uint256"
        }
      ],
      "stateMutability": "view",
      "type": "function"
    },
    {
      "inputs": [],
      "name": "utilizationCapBps",
      "outputs": [
        {
          "internalType": "uint256",
          "name": "",
          "type": "uint256"
        }
      ],
      "stateMutability": "view",
      "type": "function"
    },
    {
      "inputs": [
        {
          "internalType": "bytes32",
          "name": "pairId",
          "type": "bytes32"
        },
        {
          "internalType": "address",
          "name": "user",
          "type": "address"
        },
        {
          "internalType": "bool",
          "name": "isLong",
          "type": "bool"
        },
        {
          "internalType": "uint256",
          "name": "sizeUsd",
          "type": "uint256"
        },
        {
          "internalType": "uint256",
          "name": "leverage",
          "type": "uint256"
        }
      ],
      "name": "validateOpenPosition",
      "outputs": [],
      "stateMutability": "view",
      "type": "function"
    },
    {
      "inputs": [],
      "name": "vault",
      "outputs": [
        {
          "internalType": "address",
          "name": "",
          "type": "address"
        }
      ],
      "stateMutability": "view",
      "type": "function"
    },
    {
      "inputs": [],
      "name": "vaultFeeBps",
      "outputs": [
        {
          "internalType": "uint256",
          "name": "",
          "type": "uint256"
        }
      ],
      "stateMutability": "view",
      "type": "function"
    }
  ],
  "bytecode": "0x60a0346200010057601f62001fdf38819003918201601f19168301916001600160401b038311848410176200010457808492604094855283398101031262000100576200005a6020620000528362000118565b920162000118565b60046007556002600855611b58600955610bb8600a55611f40600b55660aa87bee538000600c5561012c600f556005601655610fa06017556001600160a01b0390828216158015620000f5575b620000e35760018060a01b03199233845f5416175f5560805216906002541617600255604051611eb190816200012e82396080518161147e0152f35b60405163d92e233d60e01b8152600490fd5b5081811615620000a7565b5f80fd5b634e487b7160e01b5f52604160045260245ffd5b51906001600160a01b0382168203620001005756fe6080604081815260049182361015610015575f80fd5b5f3560e01c908163044dae7314611995575080631b573019146119315780632513d628146118da5780632e354c7d146118695780633394572014611719578063353081e51461169d5780633b608af2146116635780633e153c40146114ad5780633e413bee1461146a5780633f4ba83a146114155780634655f1eb146113ee5780635661d461146113d05780635a109871146113915780635c975abb1461136b57806361d027b314611343578063651005311461131c578063673e0481146112b05780636817031b146112655780636a37a22a14611188578063748747e61461113d57806379ba5097146110995780637dc0d1d0146110715780637e6335c7146110235780637e8d588314611005578063806954e314610fd4578063837df08e14610f955780638456cb5914610f3a5780638cdb837914610f1c5780638da5cb5b14610ef55780638da97d9d14610ea15780638e8c779114610e695780639124d0cb14610e4b57806393359fe414610e2d57806399a5d74714610e085780639cf2ebf514610dea578063a553906c14610d84578063a7432ecc14610d02578063aa10af6414610c8a578063ac1fff0514610c1a578063acc87ba614610bad578063aced166114610b85578063b391decf14610b5b578063b65b361f14610aad578063bd79156f146107f3578063c60609f21461072b578063c8d594db1461070d578063cc018b7c146106ef578063d448eebc146106d1578063daf012e6146106b3578063dc5998e01461064c578063dd2bb29f1461062e578063dd561c8c14610607578063decbc2b7146105e0578063e30c3978146105b8578063e4d8cbe514610575578063e53eb6dd1461053c578063e80cfa5e1461051e578063ec44acf2146104f7578063f0f442601461049c578063f2fde38b1461040b578063f98cecbe146103c8578063fbfa77cf146103a05763fda5ecb1146102d4575f80fd5b3461039c576102e236611a21565b5f5490939192906001600160a01b0316330361038f57603283111580610384575b1561035257838310610319575050600755600855005b906020606492519162461bcd60e51b835282015260136024820152722a30b5b2b91036bab9ba101f1e9026b0b5b2b960691b6044820152fd5b906020606492519162461bcd60e51b8352820152600c60248201526b08ccaca40e8dede40d0d2ced60a31b6044820152fd5b506032841115610303565b51635fc483c560e01b8152fd5b5f80fd5b503461039c575f36600319011261039c5760035490516001600160a01b039091168152602090f35b503461039c57602036600319011261039c5781546001600160a01b031633036103fe576103f760209235611d64565b9051908152f35b5163e9e3f4ad60e01b8152fd5b50903461039c57602036600319011261039c576104266119c5565b5f546001600160a01b0390811692913384900361048c571692831561047f575050600180546001600160a01b031916831790557f38d16b8cac22d99fc7c124b9cd0de2d3fa1faef420bfe791d8c362d765e227005f80a3005b5163d92e233d60e01b8152fd5b8451635fc483c560e01b81528390fd5b50903461039c57602036600319011261039c576104b76119c5565b5f546001600160a01b039190821633036104e7571691821561047f57600580546001600160a01b03191684179055005b8351635fc483c560e01b81528390fd5b503461039c575f36600319011261039c57905490516001600160a01b039091168152602090f35b503461039c575f36600319011261039c57602090600a549051908152f35b823461039c57602036600319011261039c576105709061056760018060a01b03600354163314611a80565b35601854611b5d565b601855005b503461039c578060031936011261039c576127106105a76020936105976119db565b156105af57600854905b35611ada565b049051908152f35b600754906105a1565b503461039c575f36600319011261039c5760015490516001600160a01b039091168152602090f35b503461039c57602036600319011261039c57602091355f52600e8252805f20549051908152f35b503461039c57602036600319011261039c57602091355f5260138252805f20549051908152f35b503461039c575f36600319011261039c576020906009549051908152f35b50903461039c57602036600319011261039c575f54813592906001600160a01b0316330361038f5761012c8311610684576016839055005b906020606492519162461bcd60e51b8352820152600960248201526826b0bc101a9036b4b760b91b6044820152fd5b503461039c575f36600319011261039c576020906016549051908152f35b503461039c575f36600319011261039c576020906007549051908152f35b503461039c575f36600319011261039c57602090600c549051908152f35b503461039c575f36600319011261039c576020906008549051908152f35b503461039c57602036600319011261039c5761075260018060a01b03600354163314611a80565b61075f8235601954611b5d565b9182601955601854908161076f57005b612710908185029185830414851517156107e057509061078e91611aed565b9160175480931161079b57005b6001805460ff60a01b1916600160a01b179055815190815260208101929092527fc1b68f84e2906898e13e04dfea4f2ca4c44015fceb114b71916f54a7072712a691a1005b601190634e487b7160e01b5f525260245ffd5b503461039c5760a036600319011261039c57813561080f6119af565b90604435801515810361039c5760643560ff60015460a01c16610a9d57825f5260209360108552855f20865161084481611b0b565b81548152600182015487820152600282015494888201958652600383015495606083019687528a840154926080810193845260ff600660058701549660a08401978852015416159060c08215910152610a8d575160843511610a7d5715610a0e5750845f52601286526108ba83885f2054611b5d565b8451106109fe5751806109af575b50505050505b6003546001600160a01b0316806108e157005b8251637510e6c960e11b83820190815285825267ffffffffffffffff92918086018481118282101761099c578652515f928392905afa3d15610993573d9182116109805783519161093b601f8201601f1916850184611b3b565b82523d5f8484013e5b80610975575b61095057005b818180518101031261039c570151600b541061096857005b516324e397d360e21b8152fd5b50818151101561094a565b604185634e487b7160e01b5f525260245ffd5b60609150610944565b604188634e487b7160e01b5f525260245ffd5b6109c0612710916109e19551611ada565b04935f5260148552855f209060018060a01b03165f528452845f2054611b5d565b116109f0575f808080806108c8565b5051639f17b34d60e01b8152fd5b8651638a9d1c4160e01b81528890fd5b9350845f5260138652610a2483885f2054611b5d565b8451106109fe575180610a3c575b50505050506108ce565b610a4d61271091610a6e9551611ada565b04935f5260158552855f209060018060a01b03165f528452845f2054611b5d565b116109f0575f80808080610a32565b88516334bcdead60e11b81528a90fd5b8951634fedf0ed60e01b81528b90fd5b8451631309a56360e01b81528690fd5b50903461039c57610abd366119ea565b8454909593946001600160a01b03929183163303610b4d575015610b165783610b12945f526012602052835f20610af5878254611b5d565b90555f526014602052825f2091165f526020525f20918254611b5d565b9055005b83610b12945f526013602052835f20610b30878254611b5d565b90555f526015602052825f2091165f526020525f20918254611b5d565b845163e9e3f4ad60e01b8152fd5b503461039c57606036600319011261039c576103f7602092610b7b6119db565b6044359135611c43565b503461039c575f36600319011261039c5760065490516001600160a01b039091168152602090f35b503461039c578060031936011261039c575f54823592906001600160a01b03163303610c0c5750815f5260106020526002602435915f2001557feaab1fbae57c9453947c2c5733c4728c55777f0c7adefa5cc50d91eb3e1e36845f80a2005b9051635fc483c560e01b8152fd5b50903461039c57608036600319011261039c575f54813592906001600160a01b0316330361038f57825f5260106020525f209060243560038301556044359082015560056064359101557feaab1fbae57c9453947c2c5733c4728c55777f0c7adefa5cc50d91eb3e1e36845f80a2005b50903461039c57602036600319011261039c575f54813592906001600160a01b0316330361038f576103e883101580610cf6575b15610cca576017839055005b906020606492519162461bcd60e51b8352820152600660248201526531302d35302560d01b6044820152fd5b50611388831115610cbe565b50903461039c578160031936011261039c57803591610d1f6119db565b5f549092906001600160a01b03163303610c0c57507fd6c85b16f14b4f3729d9c05fba629c9c41cb77a2eaea1cbe9f972e3c1add760a91602091845f5260108352610d7b826006835f20019060ff801983541691151516179055565b519015158152a2005b503461039c57602036600319011261039c57610d9e6119c5565b5f546001600160a01b03919082163303610ddb5716908115610dcc575081546001600160a01b031916179055005b5163d92e233d60e01b81529050fd5b505051635fc483c560e01b8152fd5b503461039c575f36600319011261039c576020906011549051908152f35b503461039c57602036600319011261039c576127106105a76020936007549035611ada565b503461039c575f36600319011261039c57602090600f549051908152f35b503461039c57602036600319011261039c576103f760209235611bd6565b50903461039c57602036600319011261039c57359060115482101561039c57610e93602092611a37565b91905490519160031b1c8152f35b50903461039c57602036600319011261039c5760809181355f526012602052805f2054916013602052815f2054916010602052805f2091600383015492015492815194855260208501528301526060820152f35b503461039c575f36600319011261039c575f5490516001600160a01b039091168152602090f35b503461039c575f36600319011261039c576020906018549051908152f35b503461039c575f36600319011261039c575f546001600160a01b0316330361038f576001805460ff60a01b1916600160a01b1790557f9e87fac88ff661f02d44f95383c817fece4bce600a3dab7a54406878b965e7525f80a1005b503461039c578060031936011261039c57602091610fb16119af565b90355f5260148352815f209060018060a01b03165f528252805f20549051908152f35b503461039c57602036600319011261039c57602091355f52601282526103f7815f205460138452825f205490611b6a565b503461039c575f36600319011261039c57602090600b549051908152f35b503461039c5761103236611a21565b5f5490939192906001600160a01b0316330361038f576127106110558585611b5d565b03611064575050600955600a55005b51630601f69760e01b8152fd5b503461039c575f36600319011261039c5760025490516001600160a01b039091168152602090f35b503461039c575f36600319011261039c576001546001600160a01b03929091838316919033839003611106575050805f549384167f8be0079c531659141344cd1fd0a4f28419497f9722a3daafe3b4186f6b6457e05f80a36001600160a01b0319928316175f5516600155005b906020606492519162461bcd60e51b835282015260116024820152702737ba103832b73234b7339037bbb732b960791b6044820152fd5b50903461039c57602036600319011261039c576111586119c5565b5f546001600160a01b039190821633036104e7571691821561047f57600680546001600160a01b03191684179055005b50903461039c57602036600319011261039c57815f60c060e094516111ac81611b0b565b82815282602082015282848201528260608201528260808201528260a0820152015281355f526010602052805f208151916111e683611b0b565b81549384845260018301549160208501928352600284015481860190815260038501549260608701938452850154936080870194855260c060ff600660058901549860a08b01998a5201541697019615158752825197885251602088015251908601525160608501525160808401525160a083015251151560c0820152f35b50903461039c57602036600319011261039c576112806119c5565b5f546001600160a01b039190821633036104e7571691821561047f57600380546001600160a01b03191684179055005b503461039c57602036600319011261039c578160e092355f526010602052815f2080549260018201549260028301546003840154918401549260ff600660058701549601541695815197885260208801528601526060850152608084015260a0830152151560c0820152f35b503461039c57602036600319011261039c57602091355f5260128252805f20549051908152f35b503461039c575f36600319011261039c5760055490516001600160a01b039091168152602090f35b503461039c575f36600319011261039c5760209060ff60015460a01c1690519015158152f35b503461039c578060031936011261039c576020916113ad6119af565b90355f5260158352815f209060018060a01b03165f528252805f20549051908152f35b503461039c575f36600319011261039c576020906017549051908152f35b503461039c57602036600319011261039c57602091355f52600d8252805f20549051908152f35b503461039c575f36600319011261039c575f546001600160a01b0316330361038f576001805460ff60a01b191690557fa45f47fdea8a1efdd9029a5691c7f759c32b7c698632b563573e155625d169335f80a1005b503461039c575f36600319011261039c57517f00000000000000000000000000000000000000000000000000000000000000006001600160a01b03168152602090f35b503461039c5760c036600319011261039c5781359067ffffffffffffffff9081831161039c573660238401121561039c578284013591821161039c57366024838501011161039c575f546044359360843593606435926001600160a01b031633036116535783516020928382019261153c91859184918190602401873781015f83820152038084520182611b3b565b519020956115c4845161154e81611b0b565b88815260068985830160243581528884018b81526060850189815260808601918c835260a087019360a435855260c0880195600187525f5260108b528c5f2097518855516001880155516002870155516003860155518685015551600584015551151591019060ff801983541691151516179055565b60115490680100000000000000008210156116405750917fc09b0e6ea17e638181154aed6758ae0143886172f6cf847a2302ff6def1866199593916116128460016060989601601155611a37565b81549060031b908a821b915f19901b1916179055875f52600e815242835f20558251948552840152820152a2005b604190634e487b7160e01b5f525260245ffd5b8351635fc483c560e01b81528790fd5b50903461039c57602036600319011261039c573561169161271061168960095484611ada565b048092611ab9565b82519182526020820152f35b50903461039c57602036600319011261039c575f54813592906001600160a01b0316330361038f576113888310158061170d575b156116dd57600b839055005b906020606492519162461bcd60e51b8352820152600a6024820152694361702035302d39352560b01b6044820152fd5b5061251c8311156116d1565b503461039c57611728366119ea565b8554939592936001600160a01b0393919291908416330361185b5750156117d257845f5260209160128352845f2054828082115f146117ca5761176a91611ab9565b865f5260128452855f205560148352845f20931692835f52825280845f2054115f146117c2576117ac90855f5260148352845f20845f528352845f2054611ab9565b935b5f5260148152825f20915f52525f20555f80f35b505f936117ae565b50505f61176a565b845f5260209160138352845f2054828082115f14611853576117f391611ab9565b865f5260138452855f205560158352845f20931692835f52825280845f2054115f1461184b5761183590855f5260158352845f20845f528352845f2054611ab9565b935b5f5260158152825f20915f52525f20555f80f35b505f93611837565b50505f6117f3565b855163e9e3f4ad60e01b8152fd5b50903461039c57602036600319011261039c575f54813592906001600160a01b0316330361038f57662386f26fc1000083116118a657600c839055005b906020606492519162461bcd60e51b8352820152600e60248201526d4d6178203125207065722064617960901b6044820152fd5b823461039c57602036600319011261039c573561190260018060a01b03600354163314611a80565b601854908082106119295761191691611ab9565b6019548110156105705750601954601855005b50505f611916565b50903461039c57602036600319011261039c575f54813592906001600160a01b0316330361038f576101f4831161196957600f839055005b906020606492519162461bcd60e51b835282015260066024820152654d617820352560d01b6044820152fd5b3461039c575f36600319011261039c576020906019548152f35b602435906001600160a01b038216820361039c57565b600435906001600160a01b038216820361039c57565b60243590811515820361039c57565b608090600319011261039c57600435906024356001600160a01b038116810361039c5790604435801515810361039c579060643590565b604090600319011261039c576004359060243590565b601154811015611a6c5760115f527f31ecc21a745e3968a04e9570e4425bc18fa8019c68028196b546d1669c200c6801905f90565b634e487b7160e01b5f52603260045260245ffd5b15611a8757565b60405162461bcd60e51b815260206004820152600a60248201526913db9b1e4815985d5b1d60b21b6044820152606490fd5b91908203918211611ac657565b634e487b7160e01b5f52601160045260245ffd5b81810292918115918404141715611ac657565b8115611af7570490565b634e487b7160e01b5f52601260045260245ffd5b60e0810190811067ffffffffffffffff821117611b2757604052565b634e487b7160e01b5f52604160045260245ffd5b90601f8019910116810190811067ffffffffffffffff821117611b2757604052565b91908201809211611ac657565b81810392915f138015828513169184121617611ac657565b906201518091828102928184051490151715611ac657565b81810292915f8212600160ff1b821416611ac6578184051490151715611ac657565b8115611af757600160ff1b81145f19831416611ac6570590565b5f52601260205260405f2054601360205260405f2054611bf68183611b5d565b918215611c3c57611c1391611c0a91611b6a565b600c5490611b9a565b610e1090818102918183051490151715611ac657611c33611c3992611b82565b90611bbc565b90565b5050505f90565b919091805f5260209060108252604090815f20825190611c6282611b0b565b8054825260018101548583015260028101548483015260038101549182606082015260c060ff6006600485015494856080860152600581015460a08601520154161515910152865f14611d5c5750945b8515611d525715611d39575f52601282526013815f205492525f20541115905b620f42409283820291808304851490151715611ac657611cf6611cfc918593611aed565b80611ada565b0491611d0b600f548094611ada565b0491808311611d31575b5015611d1e5790565b60011c600160ff1b8114611ac6575f0390565b91505f611d15565b5f52601382526012815f205492525f2054111590611cd2565b5050505050505f90565b905094611cb2565b805f52602090600e8252604091611d7e835f205442611ab9565b8015611e6e57610e10808211611e66575b50825f5260128252835f20549060138352845f2054611dae8184611b5d565b928315611e4d57611dd89392611dcd611c0a611c3394611dd294611b6a565b611b9a565b91611b82565b91805f52600d8252835f20928354818101905f8383129112908015821691151617611ac6578583927facab28495f5d412e24f181214dd823bd5fa666235afd596193c593fedee9064f92600d9755835f52600e865242825f2055868652815f205490825191825286820152a25f52525f205490565b50505050600d915f52600e815242835f2055525f205490565b90505f611d8f565b50600d915f52525f20549056fea2646970667358221220b258b6f5db05584d44db83acbc59acfa98b78625a7ff7a35418c83ac03428e3464736f6c63430008180033",
  "linkReferences": {},
  "deployedLinkReferences": {},
  "immutableReferences": {
    "104": [
      {
        "length": 32,
        "start": 5246
      }
    ]
  },
  "inputSourceName": "project/src/ConfidentialCoreV1.sol",
  "buildInfoId": "solc-0_8_24-96cabe466aa37beb7b6956fb3a0401e3356d443f"
}