{
  "_format": "hh3-artifact-1",
  "contractName": "ConfidentialVault",
  "sourceName": "src/ConfidentialVault.sol",
  "abi": [
    {
      "inputs": [
        {
          "internalType": "address",
          "name": "_usdc",
          "type": "address"
        },
        {
          "internalType": "address",
          "name": "_core",
          "type": "address"
        }
      ],
      "stateMutability": "nonpayable",
      "type": "constructor"
    },
    {
      "inputs": [],
      "name": "DepositsDisabled",
      "type": "error"
    },
    {
      "inputs": [],
      "name": "ExceedsDepositCap",
      "type": "error"
    },
    {
      "inputs": [],
      "name": "ExceedsTVLCap",
      "type": "error"
    },
    {
      "inputs": [],
      "name": "InsufficientLiquidity",
      "type": "error"
    },
    {
      "inputs": [],
      "name": "InsufficientShares",
      "type": "error"
    },
    {
      "inputs": [],
      "name": "LockupNotExpired",
      "type": "error"
    },
    {
      "inputs": [],
      "name": "OnlyOwner",
      "type": "error"
    },
    {
      "inputs": [],
      "name": "OnlyTrading",
      "type": "error"
    },
    {
      "inputs": [],
      "name": "ReentrancyGuardReentrantCall",
      "type": "error"
    },
    {
      "inputs": [],
      "name": "ZeroAmount",
      "type": "error"
    },
    {
      "anonymous": false,
      "inputs": [
        {
          "indexed": false,
          "internalType": "uint256",
          "name": "amount",
          "type": "uint256"
        }
      ],
      "name": "AccruedFeesSettled",
      "type": "event"
    },
    {
      "anonymous": false,
      "inputs": [
        {
          "indexed": true,
          "internalType": "address",
          "name": "trader",
          "type": "address"
        },
        {
          "indexed": false,
          "internalType": "uint256",
          "name": "amount",
          "type": "uint256"
        }
      ],
      "name": "CollateralReturned",
      "type": "event"
    },
    {
      "anonymous": false,
      "inputs": [
        {
          "indexed": true,
          "internalType": "address",
          "name": "user",
          "type": "address"
        },
        {
          "indexed": false,
          "internalType": "uint256",
          "name": "amount",
          "type": "uint256"
        },
        {
          "indexed": false,
          "internalType": "uint256",
          "name": "sharesReceived",
          "type": "uint256"
        },
        {
          "indexed": false,
          "internalType": "bool",
          "name": "isDegen",
          "type": "bool"
        }
      ],
      "name": "Deposit",
      "type": "event"
    },
    {
      "anonymous": false,
      "inputs": [
        {
          "indexed": false,
          "internalType": "bool",
          "name": "isDegen",
          "type": "bool"
        },
        {
          "indexed": false,
          "internalType": "uint256",
          "name": "newEpoch",
          "type": "uint256"
        }
      ],
      "name": "EpochReset",
      "type": "event"
    },
    {
      "anonymous": false,
      "inputs": [
        {
          "indexed": false,
          "internalType": "uint256",
          "name": "amount",
          "type": "uint256"
        }
      ],
      "name": "FeeReceived",
      "type": "event"
    },
    {
      "anonymous": false,
      "inputs": [
        {
          "indexed": true,
          "internalType": "address",
          "name": "trader",
          "type": "address"
        },
        {
          "indexed": true,
          "internalType": "address",
          "name": "liquidator",
          "type": "address"
        },
        {
          "indexed": false,
          "internalType": "uint256",
          "name": "collateral",
          "type": "uint256"
        },
        {
          "indexed": false,
          "internalType": "uint256",
          "name": "reward",
          "type": "uint256"
        }
      ],
      "name": "LiquidationSettled",
      "type": "event"
    },
    {
      "anonymous": false,
      "inputs": [
        {
          "indexed": true,
          "internalType": "address",
          "name": "trader",
          "type": "address"
        },
        {
          "indexed": false,
          "internalType": "int256",
          "name": "netPnl",
          "type": "int256"
        },
        {
          "indexed": false,
          "internalType": "uint256",
          "name": "collateral",
          "type": "uint256"
        }
      ],
      "name": "PositionSettled",
      "type": "event"
    },
    {
      "anonymous": false,
      "inputs": [
        {
          "indexed": true,
          "internalType": "address",
          "name": "trader",
          "type": "address"
        },
        {
          "indexed": false,
          "internalType": "uint256",
          "name": "requestedProfit",
          "type": "uint256"
        },
        {
          "indexed": false,
          "internalType": "uint256",
          "name": "cappedProfit",
          "type": "uint256"
        }
      ],
      "name": "ProfitCapped",
      "type": "event"
    },
    {
      "anonymous": false,
      "inputs": [
        {
          "indexed": true,
          "internalType": "address",
          "name": "user",
          "type": "address"
        },
        {
          "indexed": false,
          "internalType": "uint256",
          "name": "amount",
          "type": "uint256"
        },
        {
          "indexed": false,
          "internalType": "uint256",
          "name": "sharesBurned",
          "type": "uint256"
        },
        {
          "indexed": false,
          "internalType": "bool",
          "name": "isDegen",
          "type": "bool"
        }
      ],
      "name": "Withdraw",
      "type": "event"
    },
    {
      "inputs": [],
      "name": "MINIMUM_LIQUIDITY",
      "outputs": [
        {
          "internalType": "uint256",
          "name": "",
          "type": "uint256"
        }
      ],
      "stateMutability": "view",
      "type": "function"
    },
    {
      "inputs": [],
      "name": "availableLiquidity",
      "outputs": [
        {
          "internalType": "uint256",
          "name": "",
          "type": "uint256"
        }
      ],
      "stateMutability": "view",
      "type": "function"
    },
    {
      "inputs": [
        {
          "internalType": "address",
          "name": "user",
          "type": "address"
        },
        {
          "internalType": "bool",
          "name": "isDegen",
          "type": "bool"
        }
      ],
      "name": "balanceOfUnderlying",
      "outputs": [
        {
          "internalType": "uint256",
          "name": "",
          "type": "uint256"
        }
      ],
      "stateMutability": "view",
      "type": "function"
    },
    {
      "inputs": [
        {
          "internalType": "address",
          "name": "user",
          "type": "address"
        },
        {
          "internalType": "bool",
          "name": "isDegen",
          "type": "bool"
        }
      ],
      "name": "canWithdraw",
      "outputs": [
        {
          "internalType": "bool",
          "name": "",
          "type": "bool"
        }
      ],
      "stateMutability": "view",
      "type": "function"
    },
    {
      "inputs": [],
      "name": "core",
      "outputs": [
        {
          "internalType": "contract ConfidentialCore",
          "name": "",
          "type": "address"
        }
      ],
      "stateMutability": "view",
      "type": "function"
    },
    {
      "inputs": [],
      "name": "decimals",
      "outputs": [
        {
          "internalType": "uint8",
          "name": "",
          "type": "uint8"
        }
      ],
      "stateMutability": "view",
      "type": "function"
    },
    {
      "inputs": [
        {
          "internalType": "address",
          "name": "",
          "type": "address"
        }
      ],
      "name": "degenDepositTimestamp",
      "outputs": [
        {
          "internalType": "uint256",
          "name": "",
          "type": "uint256"
        }
      ],
      "stateMutability": "view",
      "type": "function"
    },
    {
      "inputs": [],
      "name": "degenEpoch",
      "outputs": [
        {
          "internalType": "uint256",
          "name": "",
          "type": "uint256"
        }
      ],
      "stateMutability": "view",
      "type": "function"
    },
    {
      "inputs": [],
      "name": "degenLockupPeriod",
      "outputs": [
        {
          "internalType": "uint256",
          "name": "",
          "type": "uint256"
        }
      ],
      "stateMutability": "view",
      "type": "function"
    },
    {
      "inputs": [],
      "name": "degenSharePrice",
      "outputs": [
        {
          "internalType": "uint256",
          "name": "",
          "type": "uint256"
        }
      ],
      "stateMutability": "view",
      "type": "function"
    },
    {
      "inputs": [
        {
          "internalType": "uint256",
          "name": "",
          "type": "uint256"
        },
        {
          "internalType": "address",
          "name": "",
          "type": "address"
        }
      ],
      "name": "degenShares",
      "outputs": [
        {
          "internalType": "uint256",
          "name": "",
          "type": "uint256"
        }
      ],
      "stateMutability": "view",
      "type": "function"
    },
    {
      "inputs": [
        {
          "internalType": "uint256",
          "name": "amount",
          "type": "uint256"
        },
        {
          "internalType": "bool",
          "name": "isDegen",
          "type": "bool"
        }
      ],
      "name": "deposit",
      "outputs": [],
      "stateMutability": "nonpayable",
      "type": "function"
    },
    {
      "inputs": [],
      "name": "depositsEnabled",
      "outputs": [
        {
          "internalType": "bool",
          "name": "",
          "type": "bool"
        }
      ],
      "stateMutability": "view",
      "type": "function"
    },
    {
      "inputs": [
        {
          "internalType": "uint256",
          "name": "totalFee",
          "type": "uint256"
        }
      ],
      "name": "distributeClosingFee",
      "outputs": [],
      "stateMutability": "nonpayable",
      "type": "function"
    },
    {
      "inputs": [],
      "name": "maxDegenDeposits",
      "outputs": [
        {
          "internalType": "uint256",
          "name": "",
          "type": "uint256"
        }
      ],
      "stateMutability": "view",
      "type": "function"
    },
    {
      "inputs": [],
      "name": "maxDepositPerUser",
      "outputs": [
        {
          "internalType": "uint256",
          "name": "",
          "type": "uint256"
        }
      ],
      "stateMutability": "view",
      "type": "function"
    },
    {
      "inputs": [],
      "name": "maxPrimeDeposits",
      "outputs": [
        {
          "internalType": "uint256",
          "name": "",
          "type": "uint256"
        }
      ],
      "stateMutability": "view",
      "type": "function"
    },
    {
      "inputs": [],
      "name": "name",
      "outputs": [
        {
          "internalType": "string",
          "name": "",
          "type": "string"
        }
      ],
      "stateMutability": "view",
      "type": "function"
    },
    {
      "inputs": [
        {
          "internalType": "address",
          "name": "",
          "type": "address"
        }
      ],
      "name": "primeDepositTimestamp",
      "outputs": [
        {
          "internalType": "uint256",
          "name": "",
          "type": "uint256"
        }
      ],
      "stateMutability": "view",
      "type": "function"
    },
    {
      "inputs": [],
      "name": "primeEpoch",
      "outputs": [
        {
          "internalType": "uint256",
          "name": "",
          "type": "uint256"
        }
      ],
      "stateMutability": "view",
      "type": "function"
    },
    {
      "inputs": [],
      "name": "primeLockupPeriod",
      "outputs": [
        {
          "internalType": "uint256",
          "name": "",
          "type": "uint256"
        }
      ],
      "stateMutability": "view",
      "type": "function"
    },
    {
      "inputs": [],
      "name": "primeProtectionBps",
      "outputs": [
        {
          "internalType": "uint256",
          "name": "",
          "type": "uint256"
        }
      ],
      "stateMutability": "view",
      "type": "function"
    },
    {
      "inputs": [],
      "name": "primeSharePrice",
      "outputs": [
        {
          "internalType": "uint256",
          "name": "",
          "type": "uint256"
        }
      ],
      "stateMutability": "view",
      "type": "function"
    },
    {
      "inputs": [
        {
          "internalType": "uint256",
          "name": "",
          "type": "uint256"
        },
        {
          "internalType": "address",
          "name": "",
          "type": "address"
        }
      ],
      "name": "primeShares",
      "outputs": [
        {
          "internalType": "uint256",
          "name": "",
          "type": "uint256"
        }
      ],
      "stateMutability": "view",
      "type": "function"
    },
    {
      "inputs": [
        {
          "internalType": "uint256",
          "name": "amount",
          "type": "uint256"
        }
      ],
      "name": "receiveFees",
      "outputs": [],
      "stateMutability": "nonpayable",
      "type": "function"
    },
    {
      "inputs": [
        {
          "internalType": "uint256",
          "name": "amount",
          "type": "uint256"
        }
      ],
      "name": "releaseBacking",
      "outputs": [],
      "stateMutability": "nonpayable",
      "type": "function"
    },
    {
      "inputs": [
        {
          "internalType": "uint256",
          "name": "amount",
          "type": "uint256"
        }
      ],
      "name": "reserveBacking",
      "outputs": [],
      "stateMutability": "nonpayable",
      "type": "function"
    },
    {
      "inputs": [
        {
          "internalType": "address",
          "name": "trader",
          "type": "address"
        },
        {
          "internalType": "uint256",
          "name": "amount",
          "type": "uint256"
        }
      ],
      "name": "returnCollateral",
      "outputs": [],
      "stateMutability": "nonpayable",
      "type": "function"
    },
    {
      "inputs": [
        {
          "internalType": "uint256",
          "name": "_perUser",
          "type": "uint256"
        },
        {
          "internalType": "uint256",
          "name": "_degenTotal",
          "type": "uint256"
        },
        {
          "internalType": "uint256",
          "name": "_primeTotal",
          "type": "uint256"
        }
      ],
      "name": "setDepositCaps",
      "outputs": [],
      "stateMutability": "nonpayable",
      "type": "function"
    },
    {
      "inputs": [
        {
          "internalType": "uint256",
          "name": "_bps",
          "type": "uint256"
        }
      ],
      "name": "setPrimeProtection",
      "outputs": [],
      "stateMutability": "nonpayable",
      "type": "function"
    },
    {
      "inputs": [
        {
          "internalType": "uint256",
          "name": "_degenSeconds",
          "type": "uint256"
        },
        {
          "internalType": "uint256",
          "name": "_primeSeconds",
          "type": "uint256"
        }
      ],
      "name": "setTieredLockups",
      "outputs": [],
      "stateMutability": "nonpayable",
      "type": "function"
    },
    {
      "inputs": [
        {
          "internalType": "uint256",
          "name": "amount",
          "type": "uint256"
        }
      ],
      "name": "settleAccruedFees",
      "outputs": [],
      "stateMutability": "nonpayable",
      "type": "function"
    },
    {
      "inputs": [
        {
          "internalType": "address",
          "name": "trader",
          "type": "address"
        },
        {
          "internalType": "address",
          "name": "liquidator",
          "type": "address"
        },
        {
          "internalType": "uint256",
          "name": "collateral",
          "type": "uint256"
        },
        {
          "internalType": "uint256",
          "name": "reward",
          "type": "uint256"
        }
      ],
      "name": "settleLiquidation",
      "outputs": [],
      "stateMutability": "nonpayable",
      "type": "function"
    },
    {
      "inputs": [
        {
          "internalType": "address",
          "name": "trader",
          "type": "address"
        },
        {
          "internalType": "uint256",
          "name": "collateral",
          "type": "uint256"
        },
        {
          "internalType": "int256",
          "name": "netPnl",
          "type": "int256"
        }
      ],
      "name": "settlePosition",
      "outputs": [],
      "stateMutability": "nonpayable",
      "type": "function"
    },
    {
      "inputs": [
        {
          "internalType": "address",
          "name": "user",
          "type": "address"
        },
        {
          "internalType": "bool",
          "name": "isDegen",
          "type": "bool"
        }
      ],
      "name": "sharesOf",
      "outputs": [
        {
          "internalType": "uint256",
          "name": "",
          "type": "uint256"
        }
      ],
      "stateMutability": "view",
      "type": "function"
    },
    {
      "inputs": [],
      "name": "symbol",
      "outputs": [
        {
          "internalType": "string",
          "name": "",
          "type": "string"
        }
      ],
      "stateMutability": "view",
      "type": "function"
    },
    {
      "inputs": [
        {
          "internalType": "bool",
          "name": "_enabled",
          "type": "bool"
        }
      ],
      "name": "toggleDeposits",
      "outputs": [],
      "stateMutability": "nonpayable",
      "type": "function"
    },
    {
      "inputs": [],
      "name": "totalAssets",
      "outputs": [
        {
          "internalType": "uint256",
          "name": "",
          "type": "uint256"
        }
      ],
      "stateMutability": "view",
      "type": "function"
    },
    {
      "inputs": [],
      "name": "totalBacking",
      "outputs": [
        {
          "internalType": "uint256",
          "name": "",
          "type": "uint256"
        }
      ],
      "stateMutability": "view",
      "type": "function"
    },
    {
      "inputs": [],
      "name": "totalDegenAssets",
      "outputs": [
        {
          "internalType": "uint256",
          "name": "",
          "type": "uint256"
        }
      ],
      "stateMutability": "view",
      "type": "function"
    },
    {
      "inputs": [],
      "name": "totalDegenShares",
      "outputs": [
        {
          "internalType": "uint256",
          "name": "",
          "type": "uint256"
        }
      ],
      "stateMutability": "view",
      "type": "function"
    },
    {
      "inputs": [],
      "name": "totalPrimeAssets",
      "outputs": [
        {
          "internalType": "uint256",
          "name": "",
          "type": "uint256"
        }
      ],
      "stateMutability": "view",
      "type": "function"
    },
    {
      "inputs": [],
      "name": "totalPrimeShares",
      "outputs": [
        {
          "internalType": "uint256",
          "name": "",
          "type": "uint256"
        }
      ],
      "stateMutability": "view",
      "type": "function"
    },
    {
      "inputs": [],
      "name": "usdc",
      "outputs": [
        {
          "internalType": "contract IERC20",
          "name": "",
          "type": "address"
        }
      ],
      "stateMutability": "view",
      "type": "function"
    },
    {
      "inputs": [],
      "name": "utilization",
      "outputs": [
        {
          "internalType": "uint256",
          "name": "",
          "type": "uint256"
        }
      ],
      "stateMutability": "view",
      "type": "function"
    },
    {
      "inputs": [
        {
          "internalType": "uint256",
          "name": "shareAmount",
          "type": "uint256"
        },
        {
          "internalType": "bool",
          "name": "isDegen",
          "type": "bool"
        }
      ],
      "name": "withdraw",
      "outputs": [],
      "stateMutability": "nonpayable",
      "type": "function"
    }
  ],
  "bytecode": "0x60a0346200010857601f6200247c38819003918201601f19168301916001600160401b038311848410176200010c57808492604094855283398101031262000108576200005a6020620000528362000120565b920162000120565b60015f8190556202a300600c5562069780600d5564e8d4a51000600f556512309ce54000601055651b48eb57e0006011556117706012556013805460ff1916821790556001600160a01b0392831660805280546001600160a01b03191691909216179055604051612346908162000136823960805181818161069a01528181610be501528181610f7301528181611076015281816113d6015281816116ef01528181611a490152611bf90152f35b5f80fd5b634e487b7160e01b5f52604160045260245ffd5b51906001600160a01b0382168203620001085756fe604060808152600480361015610013575f80fd5b5f915f3560e01c806301e1d11414611ea557806302361ad214611e875780630420592e14611dc957806306ae707f14611d4a57806306fdde0314611cf6578063099339be14611cbf57806309c0533b14611afa578063118f304314611605578063269dd1b4146115e6578063313ce567146115ca57806335b8e713146112a657806338d0743614610fbf5780633902eeba14610fa25780633e413bee14610f5e5780634da8411014610f305780635392fd1c14610f0c578063569ab63a14610ece5780636e93ae2b14610e5457806370805da114610d7f57806371657b5314610d605780637258b22714610ce05780637437535914610c9857806374e863ad14610b5357806381227ebb14610b3457806382d99eb414610b1557806382e5310c14610af657806385f5dc3114610ab757806394d88cba14610a9857806395d89b4114610a56578063968e16c914610a2857806399383f78146109975780639a408321146105975780639a5f9bdd146105785780639c48d2421461055b578063a1ee65f71461049d578063aa0539c41461047e578063ba4eb8721461045f578063ba9a7a5614610442578063c0a0d32a14610423578063db3eff57146103eb578063dd3018a01461034a578063ea21cd9214610326578063eb2cd25814610307578063f175f478146102e8578063f2f4eb26146102bb5763ff20b48d14610217575f80fd5b346102b75760203660031901126102b7576001548151637622567960e11b81526001600160a01b039160209082908690829086165afa9081156102ad57859161027e575b50163303610271575061026e90356121e8565b80f35b5163e9e3f4ad60e01b8152fd5b6102a0915060203d6020116102a6575b6102988183611f33565b810190611fbd565b5f61025b565b503d61028e565b83513d87823e3d90fd5b8280fd5b8382346102e457816003193601126102e45760015490516001600160a01b039091168152602090f35b5080fd5b8382346102e457816003193601126102e4576020906009549051908152f35b8382346102e457816003193601126102e457602090600e549051908152f35b8382346102e457816003193601126102e4576020906103436121ad565b9051908152f35b5090346102b75760203660031901126102b7576001548251637622567960e11b8152823593916001600160a01b03919060209082908690829086165afa9081156103e15786916103c2575b50163303610271575050600e5490808211156103ba576103b491611fdc565b600e5580f35b5050806103b4565b6103db915060203d6020116102a6576102988183611f33565b5f610395565b83513d88823e3d90fd5b8382346102e45760203660031901126102e45760209181906001600160a01b03610413611ec8565b168152600b845220549051908152f35b8382346102e457816003193601126102e4576020906002549051908152f35b8382346102e457816003193601126102e457602090516103e88152f35b8382346102e457816003193601126102e4576020906003549051908152f35b8382346102e457816003193601126102e4576020906011549051908152f35b5090346102b75760203660031901126102b7576001548251638da5cb5b60e01b8152823593916001600160a01b03919060209082908690829086165afa9081156103e157869161053c575b5016330361052f57612710831161050157505060125580f35b906020606492519162461bcd60e51b835282015260086024820152674d6178203130302560c01b6044820152fd5b51635fc483c560e01b8152fd5b610555915060203d6020116102a6576102988183611f33565b5f6104e8565b8382346102e457816003193601126102e457602090610343612182565b8382346102e457816003193601126102e457602090600c549051908152f35b5090346102b757816003193601126102b7578035906105b4611ef4565b906105bd6122cf565b82156109895760ff601354161561097b578115610958576105e083600554611f9c565b6010541061094a575b811561094157600354905b8215610939576005545b831561093057600254925b80159182159283610928575b15610914576103e894858811156108d1576103e71988018881116108a9579587156108bc576003549081018091116108a9576003555b851561086f5791610668939188938b93610821575b505050611f9c565b600f54106108135784516323b872dd60e01b81523382820152306024820152604481018590526020919082816064818b7f00000000000000000000000000000000000000000000000000000000000000006001600160a01b03165af1908115610809579161070561077c94927f6dbb6056a2fff319358e6dd7d0d72cb3baa992cdcc7e120fb0a32cd1601840e59899948b916107dc575b50612001565b85156107975761071785600354611f9c565b60035560025489528152818820335f528152815f20610737858254611f9c565b905561074587600554611f9c565b6005555b841561078657600a903389525242818820555b519485526020850191909152901515604084015233929081906060820190565b0390a26001815580f35b600b9033895252428188205561075c565b506107a484600754611f9c565b600755600654885260088152818820335f528152815f206107c6858254611f9c565b90556107d487600954611f9c565b600955610749565b6107fc9150843d8611610802575b6107f48183611f33565b810190611fe9565b5f6106ff565b503d6107ea565b87513d8a823e3d90fd5b8451631823752b60e11b8152fd5b61084e935061084991908915610856578c52866020528a8c20335f526020528a5f205461203f565b612052565b5f8080610660565b8c5260086020528a8c20335f526020528a5f205461203f565b885162461bcd60e51b8152602081870152601460248201527353686172657320776f756c64206265207a65726f60601b6044820152606490fd5b634e487b7160e01b8b526011865260248bfd5b6007549081018091116108a95760075561064b565b885162461bcd60e51b8152602081870152601760248201527f4669727374206465706f73697420746f6f20736d616c6c0000000000000000006044820152606490fd5b61092281610849848a61203f565b9461064b565b508015610615565b60065492610609565b6009546105fe565b600754906105f4565b83516336a00c8b60e11b8152fd5b61096483600954611f9c565b60115410156105e95783516336a00c8b60e11b8152fd5b8351630e2f42c960e31b8152fd5b8351631f2a200560e01b8152fd5b5090346102b75760203660031901126102b757803591821515809303610a24576001548151638da5cb5b60e01b81526001600160a01b039160209082908690829086165afa9081156103e1578691610a05575b5016330361052f57505060ff80196013541691161760135580f35b610a1e915060203d6020116102a6576102988183611f33565b5f6109ea565b5f80fd5b8382346102e457806003193601126102e457602090610343610a48611ec8565b610a50611ef4565b90612134565b8382346102e457816003193601126102e4578051610a9491610a7782611f03565b600682526518d59055531560d21b60208301525191829182611f55565b0390f35b8382346102e457816003193601126102e4576020906010549051908152f35b5090346102b757816003193601126102b75781602093610ad5611ede565b9235815260088552209060018060a01b03165f528252805f20549051908152f35b8382346102e457816003193601126102e457602090600f549051908152f35b8382346102e457816003193601126102e457602090600d549051908152f35b8382346102e457816003193601126102e4576020906006549051908152f35b5090346102b757816003193601126102b757610b6d611ec8565b6001548351637622567960e11b8152602435936020936001600160a01b0393909290859082908490829088165afa80156108095784918991610c7b575b50163303610c6d57855163a9059cbb60e01b81526001600160a01b038316918101918252602082018690529084908290819060400103818a877f0000000000000000000000000000000000000000000000000000000000000000165af1908115610c63577f3db642b80902afb8ef23a2aeab4800b4b3717feb180705cf0a1c273ccc591c97959691610c42918991610c4c5750612001565b519485521692a280f35b6107fc9150863d8811610802576107f48183611f33565b86513d89823e3d90fd5b855163e9e3f4ad60e01b8152fd5b610c929150863d88116102a6576102988183611f33565b5f610baa565b8382346102e457816003193601126102e457602091610cbc60055460095490611f9c565b600e549081811115610cd8576103439250611fdc565b51908152f35b505090610cd2565b50346102b75760603660031901126102b7576001548151638da5cb5b60e01b81526001600160a01b039160209082908690829086165afa9081156102ad578591610d41575b5016330361052f575035600f5560243560105560443560115580f35b610d5a915060203d6020116102a6576102988183611f33565b5f610d25565b8382346102e457816003193601126102e4576020906012549051908152f35b5090346102b757816003193601126102b7578035906024359260018060a01b038260208260015416845192838092638da5cb5b60e01b82525afa908115610e4a578791610e2b575b5016330361052f5762278d00808411159081610e20575b5015610def575050600c55600d5580f35b906020606492519162461bcd60e51b8352820152600b60248201526a4d6178203330206461797360a81b6044820152fd5b90508411155f610dde565b610e44915060203d6020116102a6576102988183611f33565b5f610dc7565b83513d89823e3d90fd5b50346102b75760203660031901126102b7576001548151637622567960e11b81526001600160a01b039160209082908690829086165afa9081156102ad578591610eaf575b5016330361027157506103b49035600e54611f9c565b610ec8915060203d6020116102a6576102988183611f33565b5f610e99565b5090346102b757816003193601126102b75781602093610eec611ede565b92803582528552209060018060a01b03165f528252805f20549051908152f35b8382346102e457816003193601126102e45760209060ff6013541690519015158152f35b8382346102e457806003193601126102e457602090610343610f50611ec8565b610f58611ef4565b906120b4565b8382346102e457816003193601126102e457517f00000000000000000000000000000000000000000000000000000000000000006001600160a01b03168152602090f35b8382346102e457816003193601126102e45760209061034361207e565b5090346102b757816003193601126102b7578035610fdb611ef4565b90610fe46122cf565b801561129657811561128e576002545b821561127457855282602052838520335f5260205280845f20545b1061126457811561125957611038600c545b831561124857338752600a60205285872054611f9c565b421061123857811561122d5761105e6003545b8315611222576108496005545b8461203f565b84516370a0823160e01b8152308186015290936020917f00000000000000000000000000000000000000000000000000000000000000006001600160a01b031691908381602481865afa9081156112185789916111eb575b5086116111dd5785611137928492875f14611199576110d787600354611fdc565b6003556002548b52808452898b20335f528452895f206110f8888254611fdc565b905561110683600554611fdc565b6005555b895163a9059cbb60e01b81523391810191825260208201939093529193849283918c918391604090910190565b03925af1918215610c635761077c927fb97e775637eca8401af330efee0810af7079bafae27761741e09caa14db8d27296979261075c928a9261117c575b5050612001565b6111929250803d10610802576107f48183611f33565b5f80611175565b6111a587600754611fdc565b6007556006548b5260088452898b20335f528452895f206111c7888254611fdc565b90556111d583600954611fdc565b60095561110a565b865163bb55fd2760e01b8152fd5b90508381813d8311611211575b6112028183611f33565b81010312610a2457515f6110b6565b503d6111f8565b88513d8b823e3d90fd5b610849600954611058565b61105e60075461104b565b83516354e21be360e11b81528390fd5b338752600b60205285872054611f9c565b611038600d54611021565b8351633999656760e01b81528390fd5b85526008602052838520335f5260205280845f205461100f565b600654610ff4565b8351631f2a200560e01b81528390fd5b50346102b757602090816003193601126115c6576001548151637622567960e11b81526001600160a01b0391821694803593929091858184818a5afa9081156115905790829189916115a9575b5016330361159a578251631db0457960e11b81528281018590529083826024818a5afa91821561159057889261155b575b5081611359575b5050507f86c46efee0a638b418fa0952cd587c78b75b8bc989e7a7c13a86d448ec34a084935051908152a180f35b8583949760055460095461136d8183611f9c565b9182611485575b5050508851948580926361d027b360e01b82525afa88811561147a576113d2958895829361145b575b50895163a9059cbb60e01b81526001600160a01b03909316908301908152602081019490945290948593849291839160400190565b03927f0000000000000000000000000000000000000000000000000000000000000000165af1908115611451577f86c46efee0a638b418fa0952cd587c78b75b8bc989e7a7c13a86d448ec34a084949161143291879161143a5750612001565b5f808061132b565b6107fc9150853d8711610802576107f48183611f33565b84513d87823e3d90fd5b611473919350863d88116102a6576102988183611f33565b915f61139d565b8851903d90823e3d90fd5b6114966114b893610849838a61203f565b9283916114ae6114a6848b611fdc565b958692611fdc565b9384600555611fdc565b9182600955159081611551575b5061151d575b159081611513575b506114e1575b5f8080611374565b5f805160206122f1833981519152896114fb600654612070565b806006558c6007558151908d825285820152a16114d9565b905015155f6114d3565b5f805160206122f18339815191528b8d611538600254612070565b90816002556003558151906001825287820152a16114cb565b905015155f6114c5565b9091508381813d8311611589575b6115738183611f33565b8101031261158557850151905f611324565b8780fd5b503d611569565b84513d8a823e3d90fd5b50905163e9e3f4ad60e01b8152fd5b6115c09150873d89116102a6576102988183611f33565b5f6112f3565b8380fd5b8382346102e457816003193601126102e4576020905160068152f35b8382346102e457816003193601126102e4576020906007549051908152f35b5034610a24576060366003190112610a245761161f611ec8565b906024928335926044359360018060a01b039283600154169085518092637622567960e11b8252818360209586935afa908115611af0579086915f91611ad3575b50163303610c6d57600e548380821115611acb5761167d91611fdc565b600e555f87126119bf57866009546012546127109081038181116119ad5782916116aa8b928f969561203f565b046116b86005549182611f9c565b808d11611972575b5080841161186c57505050806116db6116eb92600554611fdc565b8060055515611839575b85611f9c565b91867f00000000000000000000000000000000000000000000000000000000000000001699848b8a51928380926370a0823160e01b825230878301525afa90811561182f5783916117f4575b50839261177f9b928289938897116117ec575b508a5163a9059cbb60e01b81526001600160a01b039093169083019081526020810194909452909a8b93849291839160400190565b03925af19687156117e2577fa9c6720706505784683f09b0975d4f1a78dfdeebc7fead8936439abd5b96f02196976117bd918a916117cb5750612001565b84519687528601521692a280f35b6107fc9150833d8511610802576107f48183611f33565b85513d8a823e3d90fd5b94505f61174a565b80949350858092509b929b3d8311611828575b6118118183611f33565b81010312610a24579151919890918a919084611737565b503d611807565b89513d85823e3d90fd5b5f805160206122f183398151915289611853600254612070565b80600255856003558151906001825288820152a16116e5565b8361187a9293949550611fdc565b915f60055561188a600254612070565b806002555f60035582519060018252878201525f805160206122f1833981519152928391a1828082111561196a576118c191611fdc565b8060095515611945575b50866001541690813b15610a24575f918b83928b51948593849263630304f960e11b8452898401525af1801561193b5761190b575b506116eb8a916116e5565b995067ffffffffffffffff8a11611929576116eb9987525f99611900565b88604183634e487b7160e01b5f52525ffd5b88513d5f823e3d90fd5b88611951600654612070565b806006555f6007558151905f825287820152a15f6118cb565b50505f6118c1565b90935081518c815281888201527f8bd96464087bd7a29c2d462da44e6cd69fa230fd14f8367b75b1f9240f3a89ea838c8c1692a2925f6116c0565b8b601186634e487b7160e01b5f52525ffd5b9796600160ff1b8714611ab957505f86900397828910611a0d57507fa9c6720706505784683f09b0975d4f1a78dfdeebc7fead8936439abd5b96f02195969750611a0882612248565b6117bd565b8184611a198b86611fdc565b885163a9059cbb60e01b81526001600160a01b039092169382019384526020840152918290819060400103815f897f0000000000000000000000000000000000000000000000000000000000000000165af1908115611aaf5798611aaa611a08927fa9c6720706505784683f09b0975d4f1a78dfdeebc7fead8936439abd5b96f021999a9b5f9161143a5750612001565b612248565b86513d5f823e3d90fd5b634e487b7160e01b5f90815260118a52fd5b50505f61167d565b611aea9150843d86116102a6576102988183611f33565b5f611660565b87513d5f823e3d90fd5b509034610a24576080366003190112610a2457611b15611ec8565b90611b1e611ede565b926044359160643560018060a01b039182600154169084518092637622567960e11b8252818360209586935afa908115611aaf579085915f91611ca2575b50163303611c9457600e548680821115611c8c57611b7991611fdc565b600e55611b89611aaa8488611fdc565b82611bc6575b509582917f3046bb5fb86890e6f3c32d7527b763c83ee73588c10f9533662078355cc634fa959697855197885287015216941692a3005b845163a9059cbb60e01b81526001600160a01b038916918101918252602082018490529082908290819060400103815f887f0000000000000000000000000000000000000000000000000000000000000000165af1908115611c825791611c5a8594927f3046bb5fb86890e6f3c32d7527b763c83ee73588c10f9533662078355cc634fa98999a945f91611c655750612001565b919796955091611b8f565b611c7c9150833d8511610802576107f48183611f33565b8b6106ff565b85513d5f823e3d90fd5b50505f611b79565b845163e9e3f4ad60e01b8152fd5b611cb99150843d86116102a6576102988183611f33565b8a611b5c565b5034610a24576020366003190112610a24576020906001600160a01b03611ce4611ec8565b165f52600a8252805f20549051908152f35b5034610a24575f366003190112610a24578051610a9491611d1682611f03565b601882527f436f6e666964656e7469616c205661756c74205368617265000000000000000060208301525191829182611f55565b5034610a245780600319360112610a2457602090611d9c611d69611ec8565b611d71611ef4565b908115611dc057600c54915b15611da6576001600160a01b03165f908152600a855283902054611f9c565b4210159051908152f35b6001600160a01b03165f908152600b855283902054611f9c565b600d5491611d7d565b5034610a24576020366003190112610a24576001548151637622567960e11b8152833593916001600160a01b03919060209082908590829086165afa908115611e7d575f91611e5e575b50163303611e50577f86c46efee0a638b418fa0952cd587c78b75b8bc989e7a7c13a86d448ec34a08460208484611e4982612248565b51908152a1005b905163e9e3f4ad60e01b8152fd5b611e77915060203d6020116102a6576102988183611f33565b85611e13565b84513d5f823e3d90fd5b5034610a24575f366003190112610a24576020906005549051908152f35b5034610a24575f366003190112610a245760209061034360055460095490611f9c565b600435906001600160a01b0382168203610a2457565b602435906001600160a01b0382168203610a2457565b602435908115158203610a2457565b6040810190811067ffffffffffffffff821117611f1f57604052565b634e487b7160e01b5f52604160045260245ffd5b90601f8019910116810190811067ffffffffffffffff821117611f1f57604052565b602080825282518183018190529093925f5b828110611f8857505060409293505f838284010152601f8019910116010190565b818101860151848201604001528501611f67565b91908201809211611fa957565b634e487b7160e01b5f52601160045260245ffd5b90816020910312610a2457516001600160a01b0381168103610a245790565b91908203918211611fa957565b90816020910312610a2457518015158103610a245790565b1561200857565b60405162461bcd60e51b815260206004820152600f60248201526e151c985b9cd9995c8819985a5b1959608a1b6044820152606490fd5b81810292918115918404141715611fa957565b811561205c570490565b634e487b7160e01b5f52601260045260245ffd5b5f198114611fa95760010190565b60035480156120ac5760055490620f424091828102928184041490151715611fa9576120a991612052565b90565b50620f424090565b90156120fa5760035480156120f4576120a9916002545f52600460205260405f209060018060a01b03165f5260205261084960405f20546005549061203f565b50505f90565b60075480156120f4576120a9916006545f52600860205260405f209060018060a01b03165f5260205261084960405f20546009549061203f565b901561215e576002545f52600460205260405f209060018060a01b03165f5260205260405f205490565b6006545f52600860205260405f209060018060a01b03165f5260205260405f205490565b60075480156120ac5760095490620f424091828102928184041490151715611fa9576120a991612052565b6121bc60055460095490611f9c565b80156121e357600e549061271091828102928184041490151715611fa9576120a991612052565b505f90565b80156122455760207fb0bf1136427af53a4f141a4607b21ad2b14e0ae6d42711aaf85b8ee33f65d3db91600e54818082115f1461223d5761222891611fdc565b600e5561223481612248565b604051908152a1565b50505f612228565b50565b801561224557600554906003820282810460031483151715611fa95760095480800460011481151715611fa95761227f9082611f9c565b9283156122be57506122a561229e6122b9946108496122ae948661203f565b8093611fdc565b91600554611f9c565b600555600954611f9c565b600955565b90506122ca9250611f9c565b600555565b60025f54146122de5760025f55565b604051633ee5aeb560e01b8152600490fdfe19747c4fc33d5e520aba7581fd70140b6ebf32410fb2ace04e42eb69590a4015a26469706673582212201fc6eae8e4300f894d79bbca3b9c9d5d96254fec3f1838cf185f4dca51ff92b664736f6c63430008180033",
  "linkReferences": {},
  "deployedLinkReferences": {},
  "immutableReferences": {
    "5953": [
      {
        "length": 32,
        "start": 1690
      },
      {
        "length": 32,
        "start": 3045
      },
      {
        "length": 32,
        "start": 3955
      },
      {
        "length": 32,
        "start": 4214
      },
      {
        "length": 32,
        "start": 5078
      },
      {
        "length": 32,
        "start": 5871
      },
      {
        "length": 32,
        "start": 6729
      },
      {
        "length": 32,
        "start": 7161
      }
    ]
  },
  "inputSourceName": "project/src/ConfidentialVault.sol",
  "buildInfoId": "solc-0_8_24-1d81f48088b0594752caae50a2c0fc8f4d6c9fab"
}