{
  "_format": "hh3-artifact-1",
  "contractName": "ConfidentialCore",
  "sourceName": "src/ConfidentialCore.sol",
  "abi": [
    {
      "inputs": [
        {
          "internalType": "address",
          "name": "_usdc",
          "type": "address"
        },
        {
          "internalType": "address",
          "name": "_oracle",
          "type": "address"
        }
      ],
      "stateMutability": "nonpayable",
      "type": "constructor"
    },
    {
      "inputs": [],
      "name": "ExceedsMaxLeverage",
      "type": "error"
    },
    {
      "inputs": [],
      "name": "ExceedsMaxOI",
      "type": "error"
    },
    {
      "inputs": [],
      "name": "ExceedsMaxPositionSize",
      "type": "error"
    },
    {
      "inputs": [],
      "name": "ExceedsUtilizationCap",
      "type": "error"
    },
    {
      "inputs": [],
      "name": "InvalidFeeSplit",
      "type": "error"
    },
    {
      "inputs": [],
      "name": "IsPaused",
      "type": "error"
    },
    {
      "inputs": [],
      "name": "OnlyOwner",
      "type": "error"
    },
    {
      "inputs": [],
      "name": "OnlyTrading",
      "type": "error"
    },
    {
      "inputs": [],
      "name": "PairNotActive",
      "type": "error"
    },
    {
      "inputs": [],
      "name": "ZeroAddress",
      "type": "error"
    },
    {
      "anonymous": false,
      "inputs": [
        {
          "indexed": false,
          "internalType": "uint256",
          "name": "dailyLoss",
          "type": "uint256"
        },
        {
          "indexed": false,
          "internalType": "uint256",
          "name": "threshold",
          "type": "uint256"
        }
      ],
      "name": "CircuitBreakerTriggered",
      "type": "event"
    },
    {
      "anonymous": false,
      "inputs": [
        {
          "indexed": false,
          "internalType": "uint256",
          "name": "toVault",
          "type": "uint256"
        },
        {
          "indexed": false,
          "internalType": "uint256",
          "name": "toTreasury",
          "type": "uint256"
        }
      ],
      "name": "FeeDistributed",
      "type": "event"
    },
    {
      "anonymous": false,
      "inputs": [
        {
          "indexed": true,
          "internalType": "bytes32",
          "name": "pairId",
          "type": "bytes32"
        },
        {
          "indexed": false,
          "internalType": "int256",
          "name": "newCumulativeIndex",
          "type": "int256"
        },
        {
          "indexed": false,
          "internalType": "int256",
          "name": "delta",
          "type": "int256"
        }
      ],
      "name": "FundingUpdated",
      "type": "event"
    },
    {
      "anonymous": false,
      "inputs": [
        {
          "indexed": true,
          "internalType": "address",
          "name": "current",
          "type": "address"
        },
        {
          "indexed": true,
          "internalType": "address",
          "name": "pending",
          "type": "address"
        }
      ],
      "name": "OwnershipTransferStarted",
      "type": "event"
    },
    {
      "anonymous": false,
      "inputs": [
        {
          "indexed": true,
          "internalType": "address",
          "name": "prev",
          "type": "address"
        },
        {
          "indexed": true,
          "internalType": "address",
          "name": "next",
          "type": "address"
        }
      ],
      "name": "OwnershipTransferred",
      "type": "event"
    },
    {
      "anonymous": false,
      "inputs": [
        {
          "indexed": true,
          "internalType": "bytes32",
          "name": "pairId",
          "type": "bytes32"
        },
        {
          "indexed": false,
          "internalType": "uint256",
          "name": "maxLeverage",
          "type": "uint256"
        },
        {
          "indexed": false,
          "internalType": "uint256",
          "name": "maxLongOI",
          "type": "uint256"
        },
        {
          "indexed": false,
          "internalType": "uint256",
          "name": "maxShortOI",
          "type": "uint256"
        }
      ],
      "name": "PairAdded",
      "type": "event"
    },
    {
      "anonymous": false,
      "inputs": [
        {
          "indexed": true,
          "internalType": "bytes32",
          "name": "pairId",
          "type": "bytes32"
        },
        {
          "indexed": false,
          "internalType": "bool",
          "name": "active",
          "type": "bool"
        }
      ],
      "name": "PairToggled",
      "type": "event"
    },
    {
      "anonymous": false,
      "inputs": [
        {
          "indexed": true,
          "internalType": "bytes32",
          "name": "pairId",
          "type": "bytes32"
        }
      ],
      "name": "PairUpdated",
      "type": "event"
    },
    {
      "anonymous": false,
      "inputs": [],
      "name": "Paused",
      "type": "event"
    },
    {
      "anonymous": false,
      "inputs": [],
      "name": "Unpaused",
      "type": "event"
    },
    {
      "inputs": [],
      "name": "acceptOwnership",
      "outputs": [],
      "stateMutability": "nonpayable",
      "type": "function"
    },
    {
      "inputs": [
        {
          "internalType": "string",
          "name": "pairName",
          "type": "string"
        },
        {
          "internalType": "bytes32",
          "name": "pythFeedId",
          "type": "bytes32"
        },
        {
          "internalType": "uint256",
          "name": "maxLeverage",
          "type": "uint256"
        },
        {
          "internalType": "uint256",
          "name": "maxLongOI_",
          "type": "uint256"
        },
        {
          "internalType": "uint256",
          "name": "maxShortOI_",
          "type": "uint256"
        },
        {
          "internalType": "uint256",
          "name": "maxPositionPct",
          "type": "uint256"
        }
      ],
      "name": "addPair",
      "outputs": [],
      "stateMutability": "nonpayable",
      "type": "function"
    },
    {
      "inputs": [
        {
          "internalType": "bytes32",
          "name": "pairId",
          "type": "bytes32"
        },
        {
          "internalType": "bool",
          "name": "isLong",
          "type": "bool"
        },
        {
          "internalType": "uint256",
          "name": "sizeUsd",
          "type": "uint256"
        }
      ],
      "name": "calcPriceImpact",
      "outputs": [
        {
          "internalType": "int256",
          "name": "impactBps",
          "type": "int256"
        }
      ],
      "stateMutability": "view",
      "type": "function"
    },
    {
      "inputs": [
        {
          "internalType": "uint256",
          "name": "sizeUsd",
          "type": "uint256"
        }
      ],
      "name": "calculateFee",
      "outputs": [
        {
          "internalType": "uint256",
          "name": "",
          "type": "uint256"
        }
      ],
      "stateMutability": "view",
      "type": "function"
    },
    {
      "inputs": [
        {
          "internalType": "uint256",
          "name": "sizeUsd",
          "type": "uint256"
        },
        {
          "internalType": "bool",
          "name": "isMaker",
          "type": "bool"
        }
      ],
      "name": "calculateFee",
      "outputs": [
        {
          "internalType": "uint256",
          "name": "",
          "type": "uint256"
        }
      ],
      "stateMutability": "view",
      "type": "function"
    },
    {
      "inputs": [
        {
          "internalType": "bytes32",
          "name": "",
          "type": "bytes32"
        }
      ],
      "name": "cumulativeFundingIndex",
      "outputs": [
        {
          "internalType": "int256",
          "name": "",
          "type": "int256"
        }
      ],
      "stateMutability": "view",
      "type": "function"
    },
    {
      "inputs": [],
      "name": "dailyLossResetTime",
      "outputs": [
        {
          "internalType": "uint256",
          "name": "",
          "type": "uint256"
        }
      ],
      "stateMutability": "view",
      "type": "function"
    },
    {
      "inputs": [],
      "name": "dailyLossTracker",
      "outputs": [
        {
          "internalType": "uint256",
          "name": "",
          "type": "uint256"
        }
      ],
      "stateMutability": "view",
      "type": "function"
    },
    {
      "inputs": [
        {
          "internalType": "bytes32",
          "name": "pairId",
          "type": "bytes32"
        },
        {
          "internalType": "address",
          "name": "user",
          "type": "address"
        },
        {
          "internalType": "bool",
          "name": "isLong",
          "type": "bool"
        },
        {
          "internalType": "uint256",
          "name": "sizeUsd",
          "type": "uint256"
        }
      ],
      "name": "decreaseOI",
      "outputs": [],
      "stateMutability": "nonpayable",
      "type": "function"
    },
    {
      "inputs": [],
      "name": "fundingRateCoefficient",
      "outputs": [
        {
          "internalType": "uint256",
          "name": "",
          "type": "uint256"
        }
      ],
      "stateMutability": "view",
      "type": "function"
    },
    {
      "inputs": [
        {
          "internalType": "uint256",
          "name": "totalFee",
          "type": "uint256"
        }
      ],
      "name": "getFeeSplit",
      "outputs": [
        {
          "internalType": "uint256",
          "name": "toVault",
          "type": "uint256"
        },
        {
          "internalType": "uint256",
          "name": "toTreasury",
          "type": "uint256"
        }
      ],
      "stateMutability": "view",
      "type": "function"
    },
    {
      "inputs": [
        {
          "internalType": "bytes32",
          "name": "pairId",
          "type": "bytes32"
        }
      ],
      "name": "getNetOI",
      "outputs": [
        {
          "internalType": "int256",
          "name": "",
          "type": "int256"
        }
      ],
      "stateMutability": "view",
      "type": "function"
    },
    {
      "inputs": [
        {
          "internalType": "bytes32",
          "name": "pairId",
          "type": "bytes32"
        }
      ],
      "name": "getOIInfo",
      "outputs": [
        {
          "internalType": "uint256",
          "name": "longOI_",
          "type": "uint256"
        },
        {
          "internalType": "uint256",
          "name": "shortOI_",
          "type": "uint256"
        },
        {
          "internalType": "uint256",
          "name": "maxLong_",
          "type": "uint256"
        },
        {
          "internalType": "uint256",
          "name": "maxShort_",
          "type": "uint256"
        }
      ],
      "stateMutability": "view",
      "type": "function"
    },
    {
      "inputs": [
        {
          "internalType": "bytes32",
          "name": "pairId",
          "type": "bytes32"
        }
      ],
      "name": "getPairConfig",
      "outputs": [
        {
          "components": [
            {
              "internalType": "bytes32",
              "name": "pairId",
              "type": "bytes32"
            },
            {
              "internalType": "bytes32",
              "name": "pythFeedId",
              "type": "bytes32"
            },
            {
              "internalType": "uint256",
              "name": "maxLeverage",
              "type": "uint256"
            },
            {
              "internalType": "uint256",
              "name": "maxLongOI",
              "type": "uint256"
            },
            {
              "internalType": "uint256",
              "name": "maxShortOI",
              "type": "uint256"
            },
            {
              "internalType": "uint256",
              "name": "maxPositionPct",
              "type": "uint256"
            },
            {
              "internalType": "bool",
              "name": "active",
              "type": "bool"
            }
          ],
          "internalType": "struct ConfidentialCore.PairConfig",
          "name": "",
          "type": "tuple"
        }
      ],
      "stateMutability": "view",
      "type": "function"
    },
    {
      "inputs": [],
      "name": "getPairCount",
      "outputs": [
        {
          "internalType": "uint256",
          "name": "",
          "type": "uint256"
        }
      ],
      "stateMutability": "view",
      "type": "function"
    },
    {
      "inputs": [
        {
          "internalType": "bytes32",
          "name": "pairId",
          "type": "bytes32"
        }
      ],
      "name": "getProjectedFundingRate",
      "outputs": [
        {
          "internalType": "int256",
          "name": "",
          "type": "int256"
        }
      ],
      "stateMutability": "view",
      "type": "function"
    },
    {
      "inputs": [
        {
          "internalType": "bytes32",
          "name": "pairId",
          "type": "bytes32"
        },
        {
          "internalType": "address",
          "name": "user",
          "type": "address"
        },
        {
          "internalType": "bool",
          "name": "isLong",
          "type": "bool"
        },
        {
          "internalType": "uint256",
          "name": "sizeUsd",
          "type": "uint256"
        }
      ],
      "name": "increaseOI",
      "outputs": [],
      "stateMutability": "nonpayable",
      "type": "function"
    },
    {
      "inputs": [
        {
          "internalType": "bytes32",
          "name": "",
          "type": "bytes32"
        }
      ],
      "name": "lastFundingUpdate",
      "outputs": [
        {
          "internalType": "uint256",
          "name": "",
          "type": "uint256"
        }
      ],
      "stateMutability": "view",
      "type": "function"
    },
    {
      "inputs": [
        {
          "internalType": "bytes32",
          "name": "",
          "type": "bytes32"
        }
      ],
      "name": "longOI",
      "outputs": [
        {
          "internalType": "uint256",
          "name": "",
          "type": "uint256"
        }
      ],
      "stateMutability": "view",
      "type": "function"
    },
    {
      "inputs": [],
      "name": "makerFeeBps",
      "outputs": [
        {
          "internalType": "uint256",
          "name": "",
          "type": "uint256"
        }
      ],
      "stateMutability": "view",
      "type": "function"
    },
    {
      "inputs": [],
      "name": "maxDailyDrawdownBps",
      "outputs": [
        {
          "internalType": "uint256",
          "name": "",
          "type": "uint256"
        }
      ],
      "stateMutability": "view",
      "type": "function"
    },
    {
      "inputs": [],
      "name": "maxPriceImpactBps",
      "outputs": [
        {
          "internalType": "uint256",
          "name": "",
          "type": "uint256"
        }
      ],
      "stateMutability": "view",
      "type": "function"
    },
    {
      "inputs": [],
      "name": "minPositionDuration",
      "outputs": [
        {
          "internalType": "uint256",
          "name": "",
          "type": "uint256"
        }
      ],
      "stateMutability": "view",
      "type": "function"
    },
    {
      "inputs": [],
      "name": "oracle",
      "outputs": [
        {
          "internalType": "contract PythPriceOracle",
          "name": "",
          "type": "address"
        }
      ],
      "stateMutability": "view",
      "type": "function"
    },
    {
      "inputs": [],
      "name": "owner",
      "outputs": [
        {
          "internalType": "address",
          "name": "",
          "type": "address"
        }
      ],
      "stateMutability": "view",
      "type": "function"
    },
    {
      "inputs": [
        {
          "internalType": "uint256",
          "name": "",
          "type": "uint256"
        }
      ],
      "name": "pairList",
      "outputs": [
        {
          "internalType": "bytes32",
          "name": "",
          "type": "bytes32"
        }
      ],
      "stateMutability": "view",
      "type": "function"
    },
    {
      "inputs": [
        {
          "internalType": "bytes32",
          "name": "",
          "type": "bytes32"
        }
      ],
      "name": "pairs",
      "outputs": [
        {
          "internalType": "bytes32",
          "name": "pairId",
          "type": "bytes32"
        },
        {
          "internalType": "bytes32",
          "name": "pythFeedId",
          "type": "bytes32"
        },
        {
          "internalType": "uint256",
          "name": "maxLeverage",
          "type": "uint256"
        },
        {
          "internalType": "uint256",
          "name": "maxLongOI",
          "type": "uint256"
        },
        {
          "internalType": "uint256",
          "name": "maxShortOI",
          "type": "uint256"
        },
        {
          "internalType": "uint256",
          "name": "maxPositionPct",
          "type": "uint256"
        },
        {
          "internalType": "bool",
          "name": "active",
          "type": "bool"
        }
      ],
      "stateMutability": "view",
      "type": "function"
    },
    {
      "inputs": [],
      "name": "pause",
      "outputs": [],
      "stateMutability": "nonpayable",
      "type": "function"
    },
    {
      "inputs": [],
      "name": "paused",
      "outputs": [
        {
          "internalType": "bool",
          "name": "",
          "type": "bool"
        }
      ],
      "stateMutability": "view",
      "type": "function"
    },
    {
      "inputs": [],
      "name": "pendingOwner",
      "outputs": [
        {
          "internalType": "address",
          "name": "",
          "type": "address"
        }
      ],
      "stateMutability": "view",
      "type": "function"
    },
    {
      "inputs": [
        {
          "internalType": "uint256",
          "name": "_vaultBps",
          "type": "uint256"
        },
        {
          "internalType": "uint256",
          "name": "_treasuryBps",
          "type": "uint256"
        }
      ],
      "name": "setFeeSplit",
      "outputs": [],
      "stateMutability": "nonpayable",
      "type": "function"
    },
    {
      "inputs": [
        {
          "internalType": "uint256",
          "name": "_coefficient",
          "type": "uint256"
        }
      ],
      "name": "setFundingRateCoefficient",
      "outputs": [],
      "stateMutability": "nonpayable",
      "type": "function"
    },
    {
      "inputs": [
        {
          "internalType": "uint256",
          "name": "_bps",
          "type": "uint256"
        }
      ],
      "name": "setMaxDailyDrawdown",
      "outputs": [],
      "stateMutability": "nonpayable",
      "type": "function"
    },
    {
      "inputs": [
        {
          "internalType": "uint256",
          "name": "_maxBps",
          "type": "uint256"
        }
      ],
      "name": "setMaxPriceImpact",
      "outputs": [],
      "stateMutability": "nonpayable",
      "type": "function"
    },
    {
      "inputs": [
        {
          "internalType": "uint256",
          "name": "_seconds",
          "type": "uint256"
        }
      ],
      "name": "setMinPositionDuration",
      "outputs": [],
      "stateMutability": "nonpayable",
      "type": "function"
    },
    {
      "inputs": [
        {
          "internalType": "address",
          "name": "_trading",
          "type": "address"
        }
      ],
      "name": "setTrading",
      "outputs": [],
      "stateMutability": "nonpayable",
      "type": "function"
    },
    {
      "inputs": [
        {
          "internalType": "uint256",
          "name": "_takerBps",
          "type": "uint256"
        },
        {
          "internalType": "uint256",
          "name": "_makerBps",
          "type": "uint256"
        }
      ],
      "name": "setTradingFees",
      "outputs": [],
      "stateMutability": "nonpayable",
      "type": "function"
    },
    {
      "inputs": [
        {
          "internalType": "address",
          "name": "_treasury",
          "type": "address"
        }
      ],
      "name": "setTreasury",
      "outputs": [],
      "stateMutability": "nonpayable",
      "type": "function"
    },
    {
      "inputs": [
        {
          "internalType": "uint256",
          "name": "_capBps",
          "type": "uint256"
        }
      ],
      "name": "setUtilizationCap",
      "outputs": [],
      "stateMutability": "nonpayable",
      "type": "function"
    },
    {
      "inputs": [
        {
          "internalType": "address",
          "name": "_vault",
          "type": "address"
        }
      ],
      "name": "setVault",
      "outputs": [],
      "stateMutability": "nonpayable",
      "type": "function"
    },
    {
      "inputs": [
        {
          "internalType": "bytes32",
          "name": "",
          "type": "bytes32"
        }
      ],
      "name": "shortOI",
      "outputs": [
        {
          "internalType": "uint256",
          "name": "",
          "type": "uint256"
        }
      ],
      "stateMutability": "view",
      "type": "function"
    },
    {
      "inputs": [],
      "name": "takerFeeBps",
      "outputs": [
        {
          "internalType": "uint256",
          "name": "",
          "type": "uint256"
        }
      ],
      "stateMutability": "view",
      "type": "function"
    },
    {
      "inputs": [
        {
          "internalType": "bytes32",
          "name": "pairId",
          "type": "bytes32"
        },
        {
          "internalType": "bool",
          "name": "active",
          "type": "bool"
        }
      ],
      "name": "togglePair",
      "outputs": [],
      "stateMutability": "nonpayable",
      "type": "function"
    },
    {
      "inputs": [
        {
          "internalType": "uint256",
          "name": "lossAmount",
          "type": "uint256"
        }
      ],
      "name": "trackVaultLoss",
      "outputs": [],
      "stateMutability": "nonpayable",
      "type": "function"
    },
    {
      "inputs": [],
      "name": "trading",
      "outputs": [
        {
          "internalType": "address",
          "name": "",
          "type": "address"
        }
      ],
      "stateMutability": "view",
      "type": "function"
    },
    {
      "inputs": [
        {
          "internalType": "address",
          "name": "newOwner",
          "type": "address"
        }
      ],
      "name": "transferOwnership",
      "outputs": [],
      "stateMutability": "nonpayable",
      "type": "function"
    },
    {
      "inputs": [],
      "name": "treasury",
      "outputs": [
        {
          "internalType": "address",
          "name": "",
          "type": "address"
        }
      ],
      "stateMutability": "view",
      "type": "function"
    },
    {
      "inputs": [],
      "name": "treasuryFeeBps",
      "outputs": [
        {
          "internalType": "uint256",
          "name": "",
          "type": "uint256"
        }
      ],
      "stateMutability": "view",
      "type": "function"
    },
    {
      "inputs": [],
      "name": "unpause",
      "outputs": [],
      "stateMutability": "nonpayable",
      "type": "function"
    },
    {
      "inputs": [
        {
          "internalType": "bytes32",
          "name": "pairId",
          "type": "bytes32"
        }
      ],
      "name": "updateFunding",
      "outputs": [
        {
          "internalType": "int256",
          "name": "",
          "type": "int256"
        }
      ],
      "stateMutability": "nonpayable",
      "type": "function"
    },
    {
      "inputs": [
        {
          "internalType": "bytes32",
          "name": "pairId",
          "type": "bytes32"
        },
        {
          "internalType": "uint256",
          "name": "maxLeverage_",
          "type": "uint256"
        }
      ],
      "name": "updatePairLeverage",
      "outputs": [],
      "stateMutability": "nonpayable",
      "type": "function"
    },
    {
      "inputs": [
        {
          "internalType": "bytes32",
          "name": "pairId",
          "type": "bytes32"
        },
        {
          "internalType": "uint256",
          "name": "maxLongOI_",
          "type": "uint256"
        },
        {
          "internalType": "uint256",
          "name": "maxShortOI_",
          "type": "uint256"
        },
        {
          "internalType": "uint256",
          "name": "maxPositionPct",
          "type": "uint256"
        }
      ],
      "name": "updatePairLimits",
      "outputs": [],
      "stateMutability": "nonpayable",
      "type": "function"
    },
    {
      "inputs": [],
      "name": "usdc",
      "outputs": [
        {
          "internalType": "address",
          "name": "",
          "type": "address"
        }
      ],
      "stateMutability": "view",
      "type": "function"
    },
    {
      "inputs": [
        {
          "internalType": "bytes32",
          "name": "",
          "type": "bytes32"
        },
        {
          "internalType": "address",
          "name": "",
          "type": "address"
        }
      ],
      "name": "userLongOI",
      "outputs": [
        {
          "internalType": "uint256",
          "name": "",
          "type": "uint256"
        }
      ],
      "stateMutability": "view",
      "type": "function"
    },
    {
      "inputs": [
        {
          "internalType": "bytes32",
          "name": "",
          "type": "bytes32"
        },
        {
          "internalType": "address",
          "name": "",
          "type": "address"
        }
      ],
      "name": "userShortOI",
      "outputs": [
        {
          "internalType": "uint256",
          "name": "",
          "type": "uint256"
        }
      ],
      "stateMutability": "view",
      "type": "function"
    },
    {
      "inputs": [],
      "name": "utilizationCapBps",
      "outputs": [
        {
          "internalType": "uint256",
          "name": "",
          "type": "uint256"
        }
      ],
      "stateMutability": "view",
      "type": "function"
    },
    {
      "inputs": [
        {
          "internalType": "bytes32",
          "name": "pairId",
          "type": "bytes32"
        },
        {
          "internalType": "address",
          "name": "user",
          "type": "address"
        },
        {
          "internalType": "bool",
          "name": "isLong",
          "type": "bool"
        },
        {
          "internalType": "uint256",
          "name": "sizeUsd",
          "type": "uint256"
        },
        {
          "internalType": "uint256",
          "name": "leverage",
          "type": "uint256"
        }
      ],
      "name": "validateOpenPosition",
      "outputs": [],
      "stateMutability": "view",
      "type": "function"
    },
    {
      "inputs": [],
      "name": "vault",
      "outputs": [
        {
          "internalType": "address",
          "name": "",
          "type": "address"
        }
      ],
      "stateMutability": "view",
      "type": "function"
    },
    {
      "inputs": [],
      "name": "vaultFeeBps",
      "outputs": [
        {
          "internalType": "uint256",
          "name": "",
          "type": "uint256"
        }
      ],
      "stateMutability": "view",
      "type": "function"
    }
  ],
  "bytecode": "0x60a034620000fc57601f62001ffe38819003918201601f19168301916001600160401b0383118484101762000100578084926040948552833981010312620000fc576200005a6020620000528362000114565b920162000114565b60046006556002600755611b58600855610bb86009819055611f40600a556064600b819055600e5560056015556016556001600160a01b0390828216158015620000f1575b620000df5760018060a01b03199233845f5416175f556080521690600254161760025542601855604051611ed490816200012a8239608051816113e80152f35b60405163d92e233d60e01b8152600490fd5b50818116156200009f565b5f80fd5b634e487b7160e01b5f52604160045260245ffd5b51906001600160a01b0382168203620000fc5756fe6080604081815260049182361015610015575f80fd5b5f3560e01c9081631b57301914611869575080632de900b51461184b57806333945720146116fb578063353081e51461167f5780633b608af2146116455780633c098f10146115cd5780633e153c40146114175780633e413bee146113d45780633f4ba83a1461137f5780634655f1eb1461135857806353c915f81461133a5780635a109871146112fb5780635c975abb146112d557806361d027b3146112ad5780636321de7f1461128f5780636510053114611268578063673e0481146111fc5780636811dbb2146111965780636817031b1461114b5780636a37a22a1461106e57806379ba509714610fca5780637dc0d1d014610fa25780637e6335c714610f545780637e8d588314610f36578063806954e314610f05578063837df08e14610ec65780638456cb5914610e6b5780638da5cb5b14610e445780638da97d9d14610df05780638e8c779114610db85780639124d0cb14610d9a57806393359fe414610d7c57806399a5d74714610d575780639cf2ebf514610d39578063a553906c14610cd3578063a7432ecc14610c51578063ac1fff0514610be1578063acc87ba614610b74578063aec376cd14610b56578063b391decf14610b2c578063b65b361f14610a7e578063bd79156f1461082a578063c60609f2146106a8578063c8d594db1461068a578063d448eebc1461066c578063daf012e61461064e578063dc5998e0146105e7578063dd2bb29f146105c9578063dd561c8c146105a2578063decbc2b71461057b578063e30c397814610553578063e4d8cbe514610510578063e80cfa5e146104f2578063ec44acf2146104cb578063f0f4426014610470578063f2fde38b146103df578063f98cecbe1461039c578063fbfa77cf146103745763fda5ecb1146102a8575f80fd5b34610370576102b63661194e565b5f5490939192906001600160a01b0316330361036357603283111580610358575b15610326578383106102ed575050600655600755005b906020606492519162461bcd60e51b835282015260136024820152722a30b5b2b91036bab9ba101f1e9026b0b5b2b960691b6044820152fd5b906020606492519162461bcd60e51b8352820152600c60248201526b08ccaca40e8dede40d0d2ced60a31b6044820152fd5b5060328411156102d7565b51635fc483c560e01b8152fd5b5f80fd5b5034610370575f3660031901126103705760035490516001600160a01b039091168152602090f35b50346103705760203660031901126103705781546001600160a01b031633036103d2576103cb60209235611d4b565b9051908152f35b5163e9e3f4ad60e01b8152fd5b509034610370576020366003190112610370576103fa6118f2565b5f546001600160a01b039081169291338490036104605716928315610453575050600180546001600160a01b031916831790557f38d16b8cac22d99fc7c124b9cd0de2d3fa1faef420bfe791d8c362d765e227005f80a3005b5163d92e233d60e01b8152fd5b8451635fc483c560e01b81528390fd5b5090346103705760203660031901126103705761048b6118f2565b5f546001600160a01b039190821633036104bb571691821561045357600580546001600160a01b03191684179055005b8351635fc483c560e01b81528390fd5b5034610370575f36600319011261037057905490516001600160a01b039091168152602090f35b5034610370575f366003190112610370576020906009549051908152f35b5034610370578060031936011261037057612710610542602093610532611908565b1561054a57600754905b356119ce565b049051908152f35b6006549061053c565b5034610370575f3660031901126103705760015490516001600160a01b039091168152602090f35b503461037057602036600319011261037057602091355f52600d8252805f20549051908152f35b503461037057602036600319011261037057602091355f5260128252805f20549051908152f35b5034610370575f366003190112610370576020906008549051908152f35b509034610370576020366003190112610370575f54813592906001600160a01b031633036103635761012c831161061f576015839055005b906020606492519162461bcd60e51b8352820152600960248201526826b0bc101a9036b4b760b91b6044820152fd5b5034610370575f366003190112610370576020906015549051908152f35b5034610370575f366003190112610370576020906006549051908152f35b5034610370575f366003190112610370576020906007549051908152f35b50346103705760209182600319360112610370576003546001600160a01b031690338290036107fa576018546201518081018091116107e7574210156107da575b6106f68135601754611a6d565b918260175580610703575b005b5f8091855187810190631e2ebe8f60e31b825285815261072281611a2f565b51915afa61072e611d0c565b90806107cf575b61073b57005b84818051810103126103705784015190811561070157612710908184029184830414841517156107bc575090610770916119e1565b60165480911161077c57005b7fc1b68f84e2906898e13e04dfea4f2ca4c44015fceb114b71916f54a7072712a693600160a01b60ff60a01b1960015416176001558351928352820152a1005b601190634e487b7160e01b5f525260245ffd5b508481511015610735565b5f601755426018556106e9565b601182634e487b7160e01b5f525260245ffd5b825162461bcd60e51b8152908101849052600a60248201526913db9b1e4815985d5b1d60b21b6044820152606490fd5b50346103705760a03660031901126103705781356108466118dc565b9060443580151581036103705760643560ff60015460a01c16610a6e57825f52602093600f8552855f20865161087b816119ff565b81548152600182015487820152600282015494888201958652600383015495606083019687528a840154926080810193845260ff600660058701549660a08401978852015416159060c08215910152610a5e575160843511610a4e57156109df5750845f52601186526108f183885f2054611a6d565b8451106109cf575180610980575b50505050505b6003546001600160a01b03168061091857005b5f8091845184810190637510e6c960e11b825287815261093781611a2f565b51915afa610943611d0c565b9080610975575b61095057005b8181805181010312610370570151600a541061096857005b516324e397d360e21b8152fd5b50818151101561094a565b610991612710916109b295516119ce565b04935f5260138552855f209060018060a01b03165f528452845f2054611a6d565b116109c1575f808080806108ff565b5051639f17b34d60e01b8152fd5b8651638a9d1c4160e01b81528890fd5b9350845f52601286526109f583885f2054611a6d565b8451106109cf575180610a0d575b5050505050610905565b610a1e61271091610a3f95516119ce565b04935f5260148552855f209060018060a01b03165f528452845f2054611a6d565b116109c1575f80808080610a03565b88516334bcdead60e11b81528a90fd5b8951634fedf0ed60e01b81528b90fd5b8451631309a56360e01b81528690fd5b50903461037057610a8e36611917565b8454909593946001600160a01b03929183163303610b1e575015610ae75783610ae3945f526011602052835f20610ac6878254611a6d565b90555f526013602052825f2091165f526020525f20918254611a6d565b9055005b83610ae3945f526012602052835f20610b01878254611a6d565b90555f526014602052825f2091165f526020525f20918254611a6d565b845163e9e3f4ad60e01b8152fd5b5034610370576060366003190112610370576103cb602092610b4c611908565b6044359135611beb565b5034610370575f366003190112610370576020906016549051908152f35b50346103705780600319360112610370575f54823592906001600160a01b03163303610bd35750815f52600f6020526002602435915f2001557feaab1fbae57c9453947c2c5733c4728c55777f0c7adefa5cc50d91eb3e1e36845f80a2005b9051635fc483c560e01b8152fd5b509034610370576080366003190112610370575f54813592906001600160a01b0316330361036357825f52600f6020525f209060243560038301556044359082015560056064359101557feaab1fbae57c9453947c2c5733c4728c55777f0c7adefa5cc50d91eb3e1e36845f80a2005b509034610370578160031936011261037057803591610c6e611908565b5f549092906001600160a01b03163303610bd357507fd6c85b16f14b4f3729d9c05fba629c9c41cb77a2eaea1cbe9f972e3c1add760a91602091845f52600f8352610cca826006835f20019060ff801983541691151516179055565b519015158152a2005b503461037057602036600319011261037057610ced6118f2565b5f546001600160a01b03919082163303610d2a5716908115610d1b575081546001600160a01b031916179055005b5163d92e233d60e01b81529050fd5b505051635fc483c560e01b8152fd5b5034610370575f366003190112610370576020906010549051908152f35b50346103705760203660031901126103705761271061054260209360065490356119ce565b5034610370575f36600319011261037057602090600e549051908152f35b5034610370576020366003190112610370576103cb60209235611b1a565b50903461037057602036600319011261037057359060105482101561037057610de2602092611964565b91905490519160031b1c8152f35b5090346103705760203660031901126103705760809181355f526011602052805f2054916012602052815f205491600f602052805f2091600383015492015492815194855260208501528301526060820152f35b5034610370575f366003190112610370575f5490516001600160a01b039091168152602090f35b5034610370575f366003190112610370575f546001600160a01b03163303610363576001805460ff60a01b1916600160a01b1790557f9e87fac88ff661f02d44f95383c817fece4bce600a3dab7a54406878b965e7525f80a1005b5034610370578060031936011261037057602091610ee26118dc565b90355f5260138352815f209060018060a01b03165f528252805f20549051908152f35b503461037057602036600319011261037057602091355f52601182526103cb815f205460128452825f205490611a7a565b5034610370575f36600319011261037057602090600a549051908152f35b503461037057610f633661194e565b5f5490939192906001600160a01b0316330361036357612710610f868585611a6d565b03610f95575050600855600955005b51630601f69760e01b8152fd5b5034610370575f3660031901126103705760025490516001600160a01b039091168152602090f35b5034610370575f366003190112610370576001546001600160a01b03929091838316919033839003611037575050805f549384167f8be0079c531659141344cd1fd0a4f28419497f9722a3daafe3b4186f6b6457e05f80a36001600160a01b0319928316175f5516600155005b906020606492519162461bcd60e51b835282015260116024820152702737ba103832b73234b7339037bbb732b960791b6044820152fd5b50903461037057602036600319011261037057815f60c060e09451611092816119ff565b82815282602082015282848201528260608201528260808201528260a0820152015281355f52600f602052805f208151916110cc836119ff565b81549384845260018301549160208501928352600284015481860190815260038501549260608701938452850154936080870194855260c060ff600660058901549860a08b01998a5201541697019615158752825197885251602088015251908601525160608501525160808401525160a083015251151560c0820152f35b509034610370576020366003190112610370576111666118f2565b5f546001600160a01b039190821633036104bb571691821561045357600380546001600160a01b03191684179055005b509034610370576020366003190112610370575f54813592906001600160a01b03163303610363576103e883116111ce57600b839055005b906020606492519162461bcd60e51b835282015260086024820152670a8dede40d0d2ced60c31b6044820152fd5b5034610370576020366003190112610370578160e092355f52600f602052815f2080549260018201549260028301546003840154918401549260ff600660058701549601541695815197885260208801528601526060850152608084015260a0830152151560c0820152f35b503461037057602036600319011261037057602091355f5260118252805f20549051908152f35b5034610370575f366003190112610370576020906017549051908152f35b5034610370575f3660031901126103705760055490516001600160a01b039091168152602090f35b5034610370575f3660031901126103705760209060ff60015460a01c1690519015158152f35b50346103705780600319360112610370576020916113176118dc565b90355f5260148352815f209060018060a01b03165f528252805f20549051908152f35b5034610370575f366003190112610370576020906018549051908152f35b503461037057602036600319011261037057602091355f52600c8252805f20549051908152f35b5034610370575f366003190112610370575f546001600160a01b03163303610363576001805460ff60a01b191690557fa45f47fdea8a1efdd9029a5691c7f759c32b7c698632b563573e155625d169335f80a1005b5034610370575f36600319011261037057517f00000000000000000000000000000000000000000000000000000000000000006001600160a01b03168152602090f35b50346103705760c03660031901126103705781359067ffffffffffffffff9081831161037057366023840112156103705782840135918211610370573660248385010111610370575f546044359360843593606435926001600160a01b031633036115bd578351602092838201926114a691859184918190602401873781015f83820152038084520182611a4b565b5190209561152e84516114b8816119ff565b88815260068985830160243581528884018b81526060850189815260808601918c835260a087019360a435855260c0880195600187525f52600f8b528c5f2097518855516001880155516002870155516003860155518685015551600584015551151591019060ff801983541691151516179055565b60105490680100000000000000008210156115aa5750917fc09b0e6ea17e638181154aed6758ae0143886172f6cf847a2302ff6def18661995939161157c8460016060989601601055611964565b81549060031b908a821b915f19901b1916179055875f52600d815242835f20558251948552840152820152a2005b604190634e487b7160e01b5f525260245ffd5b8351635fc483c560e01b81528790fd5b509034610370576020366003190112610370575f54813592906001600160a01b03163303610363576103e883101580611639575b1561160d576016839055005b906020606492519162461bcd60e51b8352820152600660248201526531302d35302560d01b6044820152fd5b50611388831115611601565b509034610370576020366003190112610370573561167361271061166b600854846119ce565b0480926119ad565b82519182526020820152f35b509034610370576020366003190112610370575f54813592906001600160a01b0316330361036357611388831015806116ef575b156116bf57600a839055005b906020606492519162461bcd60e51b8352820152600a6024820152694361702035302d39352560b01b6044820152fd5b5061251c8311156116b3565b50346103705761170a36611917565b8554939592936001600160a01b0393919291908416330361183d5750156117b457845f5260209160118352845f2054828082115f146117ac5761174c916119ad565b865f5260118452855f205560138352845f20931692835f52825280845f2054115f146117a45761178e90855f5260138352845f20845f528352845f20546119ad565b935b5f5260138152825f20915f52525f20555f80f35b505f93611790565b50505f61174c565b845f5260209160128352845f2054828082115f14611835576117d5916119ad565b865f5260128452855f205560148352845f20931692835f52825280845f2054115f1461182d5761181790855f5260148352845f20845f528352845f20546119ad565b935b5f5260148152825f20915f52525f20555f80f35b505f93611819565b50505f6117d5565b855163e9e3f4ad60e01b8152fd5b5034610370575f36600319011261037057602090600b549051908152f35b838334610370576020366003190112610370575f54823593906001600160a01b031633036118ce57506101f483116118a257600e839055005b906020606492519162461bcd60e51b835282015260066024820152654d617820352560d01b6044820152fd5b635fc483c560e01b81529050fd5b602435906001600160a01b038216820361037057565b600435906001600160a01b038216820361037057565b60243590811515820361037057565b608090600319011261037057600435906024356001600160a01b038116810361037057906044358015158103610370579060643590565b6040906003190112610370576004359060243590565b6010548110156119995760105f527f1b6847dc741a1b0cd08d278845f9d819d87b734759afb55fe2de5cb82a9ae67201905f90565b634e487b7160e01b5f52603260045260245ffd5b919082039182116119ba57565b634e487b7160e01b5f52601160045260245ffd5b818102929181159184041417156119ba57565b81156119eb570490565b634e487b7160e01b5f52601260045260245ffd5b60e0810190811067ffffffffffffffff821117611a1b57604052565b634e487b7160e01b5f52604160045260245ffd5b6040810190811067ffffffffffffffff821117611a1b57604052565b90601f8019910116810190811067ffffffffffffffff821117611a1b57604052565b919082018092116119ba57565b81810392915f1380158285131691841216176119ba57565b90670de0b6b3a7640000918281029281840514901517156119ba57565b9062015180918281029281840514901517156119ba57565b90612710918281029281840514901517156119ba57565b81810292915f8212600160ff1b8214166119ba5781840514901517156119ba57565b81156119eb57600160ff1b81145f198314166119ba570590565b805f52600f60205260405f2090604051611b33816119ff565b82548152600183015460208201526002830154604082015260c060ff600660038601549586606086015260048101546080860152600581015460a086015201541615159101528115611be5575f526011602052611baa611ba160405f2054601260205260405f205490611a7a565b600b5490611ade565b90617080918281029281840514901517156119ba57611bdc611bd7611bd1611be294611a92565b92611aaf565b611ac7565b90611b00565b90565b50505f90565b919091805f52602090600f8252604090815f20825190611c0a826119ff565b8054825260018101548583015260028101548483015260038101549182606082015260c060ff6006600485015494856080860152600581015460a08601520154161515910152865f14611d045750945b8515611cfa5715611ce1575f52601182526012815f205492525f20541115905b620f424092838202918083048514901517156119ba57611c9e611ca49185936119e1565b806119ce565b0491611cb3600e5480946119ce565b0491808311611cd9575b5015611cc65790565b60011c600160ff1b81146119ba575f0390565b91505f611cbd565b5f52601282526011815f205492525f2054111590611c7a565b5050505050505f90565b905094611c5a565b3d15611d46573d9067ffffffffffffffff8211611a1b5760405191611d3b601f8201601f191660200184611a4b565b82523d5f602084013e565b606090565b805f52602090600d8252604091611d65835f2054426119ad565b8015611e9157825f52600f8252835f20908451611d81816119ff565b8254815260018301548482015260028301548682015260c060ff600660038601549586606086015260048101546080860152600581015460a086015201541615159101528115611e7a5790611bdc611bd7611bd1611e00611e0595885f5260118852611dfb611ba18b5f205460128b528c5f205490611a7a565b611ade565b611a92565b91805f52600c8252835f20928354818101905f83831291129080158216911516176119ba578583927facab28495f5d412e24f181214dd823bd5fa666235afd596193c593fedee9064f92600c9755835f52600d865242825f2055868652815f205490825191825286820152a25f52525f205490565b5050600c915f52600d815242835f2055525f205490565b50600c915f52525f20549056fea26469706673582212206400a18f63dc310533797e3135c8a4e72968c9221907b981789009932fdcf2b964736f6c63430008180033",
  "linkReferences": {},
  "deployedLinkReferences": {},
  "immutableReferences": {
    "102": [
      {
        "length": 32,
        "start": 5096
      }
    ]
  },
  "inputSourceName": "project/src/ConfidentialCore.sol",
  "buildInfoId": "solc-0_8_24-43536e752ca2aaee02add51e31b8df79780e4b13"
}