{
  "_format": "hh3-artifact-1",
  "contractName": "ConfidentialP2P",
  "sourceName": "src/ConfidentialP2P.sol",
  "abi": [
    {
      "inputs": [
        {
          "internalType": "address",
          "name": "_core",
          "type": "address"
        },
        {
          "internalType": "address payable",
          "name": "_trading",
          "type": "address"
        }
      ],
      "stateMutability": "nonpayable",
      "type": "constructor"
    },
    {
      "inputs": [],
      "name": "ReentrancyGuardReentrantCall",
      "type": "error"
    },
    {
      "inputs": [],
      "name": "ORDER_TYPEHASH",
      "outputs": [
        {
          "internalType": "bytes32",
          "name": "",
          "type": "bytes32"
        }
      ],
      "stateMutability": "view",
      "type": "function"
    },
    {
      "inputs": [],
      "name": "cancelP2POrder",
      "outputs": [],
      "stateMutability": "nonpayable",
      "type": "function"
    },
    {
      "inputs": [],
      "name": "core",
      "outputs": [
        {
          "internalType": "contract ConfidentialCore",
          "name": "",
          "type": "address"
        }
      ],
      "stateMutability": "view",
      "type": "function"
    },
    {
      "inputs": [],
      "name": "getDomainSeparator",
      "outputs": [
        {
          "internalType": "bytes32",
          "name": "",
          "type": "bytes32"
        }
      ],
      "stateMutability": "view",
      "type": "function"
    },
    {
      "inputs": [
        {
          "internalType": "address",
          "name": "",
          "type": "address"
        }
      ],
      "name": "nonces",
      "outputs": [
        {
          "internalType": "uint256",
          "name": "",
          "type": "uint256"
        }
      ],
      "stateMutability": "view",
      "type": "function"
    },
    {
      "inputs": [
        {
          "internalType": "bytes",
          "name": "makerPayload",
          "type": "bytes"
        },
        {
          "internalType": "bytes",
          "name": "takerPayload",
          "type": "bytes"
        },
        {
          "internalType": "bytes",
          "name": "makerSig",
          "type": "bytes"
        },
        {
          "internalType": "bytes",
          "name": "takerSig",
          "type": "bytes"
        },
        {
          "internalType": "uint256",
          "name": "matchPrice",
          "type": "uint256"
        }
      ],
      "name": "settleP2PTrade",
      "outputs": [],
      "stateMutability": "nonpayable",
      "type": "function"
    },
    {
      "inputs": [],
      "name": "trading",
      "outputs": [
        {
          "internalType": "contract ConfidentialTrading",
          "name": "",
          "type": "address"
        }
      ],
      "stateMutability": "view",
      "type": "function"
    }
  ],
  "bytecode": "0x60803461008e57601f610ef338819003918201601f19168301916001600160401b0383118484101761009257808492604094855283398101031261008e5780516001600160a01b03918282169182900361008e576020015191821680920361008e5760015f5560018060a01b0319908160015416176001556002541617600255604051610e4c90816100a78239f35b5f80fd5b634e487b7160e01b5f52604160045260245ffdfe6080604052600480361015610012575f80fd5b5f3560e01c90816372f93f7d14610087575080637ecebe0014610082578063e239bf571461007d578063ec44acf214610078578063ed24911d14610073578063f2f4eb261461006e5763f973a20914610069575f80fd5b610246565b61021e565b6101fc565b6101d4565b6101aa565b610165565b346101155760a03660031901126101155767ffffffffffffffff8135818111610115576100b79036908401610119565b602492919235828111610115576100d19036908601610119565b9092604435818111610115576100ea9036908801610119565b929091606435908111610115576101139761010791369101610119565b95909460843597610280565b005b5f80fd5b9181601f840112156101155782359167ffffffffffffffff8311610115576020838186019501011161011557565b6001600160a01b0381160361011557565b359061016382610147565b565b346101155760203660031901126101155760043561018281610147565b60018060a01b03165f526003602052602060405f2054604051908152f35b5f91031261011557565b34610115575f36600319011261011557335f52600360205260405f206101d081546108f8565b9055005b34610115575f366003190112610115576002546040516001600160a01b039091168152602090f35b34610115575f366003190112610115576020610216610906565b604051908152f35b34610115575f366003190112610115576001546040516001600160a01b039091168152602090f35b34610115575f3660031901126101155760206040517f7474bc63c485755f401437b3ae05f835b36e7ca9849bbd19fdbe10e6baf51da48152f35b959493919796929060025f541461061a5760025f556001546102b2906001600160a01b03165b6001600160a01b031690565b93604051809563aced166160e01b825281600460209889935afa9a8b15610571576103096103489a610378956103016103399f610312965f916105fd575b506001600160a01b031633146106ba565b810190610713565b94810190610713565b96610372868501519761032a888b01998a5114610799565b610357604087019d8e51151590565b61034d60408d019d8e51151590565b151590565b90151514156107d5565b606086019661036c885160608d015114610816565b86610b30565b87610b30565b60025461038d906001600160a01b03166102a6565b916040516307dc0d1d60e41b81528481600481875afa908115610571576103dd916040915f916105d0575b508685015190825180809581946331d98b3f60e01b8352600483019190602083019252565b03916001600160a01b03165afa80156105715761041f915f916105a0575b5061040f6104088261087c565b6064900490565b8a10159081610589575b506108ad565b815160809061043c906001600160a01b0316958401519a51151590565b915192015193833b1561011557604051632f703c3560e01b8082526001600160a01b03929092166004820152602481019a909a5290151560448a01526064890191909152608488019290925260a48701869052600160c48801529095908160e4815a5f948591f1801561057157610576575b506002546104c4906001600160a01b03166102a6565b82519092906104df906001600160a01b031692519451151590565b956080606083015192015191843b15610115576040519182526001600160a01b03939093166004820152602481019490945294151560448401526064830152608482019390935260a48101919091525f60c482018190529091829060e490829084905af1801561057157610558575b5061016360015f55565b8061056561056b92610640565b806101a0565b5f61054e565b6106af565b8061056561058392610640565b5f6104ae565b610597915061040890610897565b8911155f610419565b6105c2915060403d6040116105c9575b6105ba8183610675565b810190610852565b505f6103fb565b503d6105b0565b6105f09150873d89116105f6575b6105e88183610675565b810190610697565b5f6103b8565b503d6105de565b61061491508c8d3d106105f6576105e88183610675565b5f6102f0565b604051633ee5aeb560e01b8152600490fd5b634e487b7160e01b5f52604160045260245ffd5b67ffffffffffffffff811161065457604052565b61062c565b6040810190811067ffffffffffffffff82111761065457604052565b90601f8019910116810190811067ffffffffffffffff82111761065457604052565b9081602091031261011557516106ac81610147565b90565b6040513d5f823e3d90fd5b156106c157565b60405162461bcd60e51b815260206004820152601a60248201527f4f6e6c79204b65657065722063616e20736574746c65205032500000000000006044820152606490fd5b3590811515820361011557565b80916101009283910312610115576040519182019082821067ffffffffffffffff8311176106545760e09160405261074a81610158565b83526020810135602084015261076260408201610706565b6040840152606081013560608401526080810135608084015260a081013560a084015260c081013560c0840152013560e082015290565b156107a057565b60405162461bcd60e51b815260206004820152600d60248201526c0a0c2d2e440dad2e6dac2e8c6d609b1b6044820152606490fd5b156107dc57565b60405162461bcd60e51b8152602060048201526012602482015271088d2e4cac6e8d2dedc40dad2e6dac2e8c6d60731b6044820152606490fd5b1561081d57565b60405162461bcd60e51b815260206004820152600d60248201526c0a6d2f4ca40dad2e6dac2e8c6d609b1b6044820152606490fd5b9190826040910312610115576020825192015190565b634e487b7160e01b5f52601160045260245ffd5b9060638202918083046063149015171561089257565b610868565b9060658202918083046065149015171561089257565b156108b457565b606460405162461bcd60e51b815260206004820152602060248201527f4d617463682070726963652064657669617465732066726f6d206f7261636c656044820152fd5b5f1981146108925760010190565b6f086dedcccd2c8cadce8d2c2d840888ab60831b602060405161092881610659565b601081520152603160f81b602060405161094181610659565b60018152015260405160208101907f8b73c3c69bb8fe3d512ecc4cf759cc79239f7b179b0ffacaa9a75d522b39400f82527f2d2fd28f27f857e6eee97504956886b52fda8ad40a224ac2bec2cabc886adf6860408201527fc89efdaa54c0f20c7adf612882df0950f5a951637e0307cdcb4c672f298b8bc660608201524660808201523060a082015260a0815260c0810181811067ffffffffffffffff8211176106545760405251902090565b156109f557565b60405162461bcd60e51b815260206004820152600d60248201526c13dc99195c88195e1c1a5c9959609a1b6044820152606490fd5b15610a3157565b60405162461bcd60e51b815260206004820152600d60248201526c496e76616c6964206e6f6e636560981b6044820152606490fd5b92919267ffffffffffffffff82116106545760405191610a90601f8201601f191660200184610675565b829481845281830111610115578281602093845f960137010152565b15610ab357565b60405162461bcd60e51b81526020600482015260156024820152745a65726f2061646472657373207265636f7665727960581b6044820152606490fd5b15610af757565b60405162461bcd60e51b8152602060048201526011602482015270496e76616c6964207369676e617475726560781b6044820152606490fd5b906102a661016393610cb1610ccb93610cab60e08701610b5381514211156109ee565b60c08801805189516001600160a01b03165f9081526003602052604090209192610c8992610c9592610b949190815491610b8c836108f8565b905514610a2a565b8a516001600160a01b031690610c418c602081015192610bb76040830151151590565b9760608301519260a0608082015191015191519251936040519a8b9760208901998a949192610100969399989794919961012087019a7f7474bc63c485755f401437b3ae05f835b36e7ca9849bbd19fdbe10e6baf51da4885260018060a01b03166020880152604087015215156060860152608085015260a084015260c083015260e08201520152565b0393610c55601f1995868101835282610675565b51902092610c61610906565b93604051938491602083019687909160429261190160f01b8352600283015260228201520190565b03908101835282610675565b5190206001600160a01b03949092369190610a66565b90610d2f565b1692610cbe841515610aac565b516001600160a01b031690565b14610af0565b60ff601b9116019060ff821161089257565b15610cea57565b60405162461bcd60e51b815260206004820152601960248201527f496e76616c6964207369676e617475726520762076616c7565000000000000006044820152606490fd5b6041825103610dd1576020915f91838201519160606040820151910151841a92601b8410610dba575b90610d9c91610d7660ff8616601b8114908115610daf575b50610ce3565b604051948594859094939260ff6060936080840197845216602083015260408201520152565b838052039060015afa15610571575f5190565b601c9150145f610d70565b9290610dc8610d9c92610cd1565b93909150610d58565b60405162461bcd60e51b815260206004820152601860248201527f496e76616c6964207369676e6174757265206c656e67746800000000000000006044820152606490fdfea2646970667358221220826f1917e4aaddc109711fe4d504f53d40f29fca9f2adef7cdc2b972a7cfdbde64736f6c63430008180033",
  "linkReferences": {},
  "deployedLinkReferences": {},
  "immutableReferences": {},
  "inputSourceName": "project/src/ConfidentialP2P.sol",
  "buildInfoId": "solc-0_8_24-75c3931803b0d8eeb85d1c3e968d480e2772b78e"
}