{
  "_format": "hh3-artifact-1",
  "contractName": "PythPriceOracle",
  "sourceName": "src/PythPriceOracle.sol",
  "abi": [
    {
      "inputs": [
        {
          "internalType": "address",
          "name": "_pyth",
          "type": "address"
        }
      ],
      "stateMutability": "nonpayable",
      "type": "constructor"
    },
    {
      "inputs": [],
      "name": "OnlyOwner",
      "type": "error"
    },
    {
      "inputs": [],
      "name": "PriceFeedNotSet",
      "type": "error"
    },
    {
      "inputs": [],
      "name": "StalePrice",
      "type": "error"
    },
    {
      "anonymous": false,
      "inputs": [
        {
          "indexed": false,
          "internalType": "uint256",
          "name": "newMaxStaleness",
          "type": "uint256"
        }
      ],
      "name": "MaxStalenessUpdated",
      "type": "event"
    },
    {
      "anonymous": false,
      "inputs": [
        {
          "indexed": true,
          "internalType": "address",
          "name": "prev",
          "type": "address"
        },
        {
          "indexed": true,
          "internalType": "address",
          "name": "next",
          "type": "address"
        }
      ],
      "name": "OwnershipTransferred",
      "type": "event"
    },
    {
      "anonymous": false,
      "inputs": [
        {
          "indexed": true,
          "internalType": "bytes32",
          "name": "pairId",
          "type": "bytes32"
        },
        {
          "indexed": false,
          "internalType": "bytes32",
          "name": "pythFeedId",
          "type": "bytes32"
        }
      ],
      "name": "PriceFeedSet",
      "type": "event"
    },
    {
      "inputs": [],
      "name": "acceptOwnership",
      "outputs": [],
      "stateMutability": "nonpayable",
      "type": "function"
    },
    {
      "inputs": [
        {
          "internalType": "bytes32",
          "name": "pairId",
          "type": "bytes32"
        }
      ],
      "name": "getPrice",
      "outputs": [
        {
          "internalType": "uint256",
          "name": "price",
          "type": "uint256"
        },
        {
          "internalType": "uint256",
          "name": "publishTime",
          "type": "uint256"
        }
      ],
      "stateMutability": "view",
      "type": "function"
    },
    {
      "inputs": [
        {
          "internalType": "bytes32",
          "name": "pairId",
          "type": "bytes32"
        }
      ],
      "name": "isPriceStale",
      "outputs": [
        {
          "internalType": "bool",
          "name": "",
          "type": "bool"
        }
      ],
      "stateMutability": "view",
      "type": "function"
    },
    {
      "inputs": [],
      "name": "maxStaleness",
      "outputs": [
        {
          "internalType": "uint256",
          "name": "",
          "type": "uint256"
        }
      ],
      "stateMutability": "view",
      "type": "function"
    },
    {
      "inputs": [],
      "name": "owner",
      "outputs": [
        {
          "internalType": "address",
          "name": "",
          "type": "address"
        }
      ],
      "stateMutability": "view",
      "type": "function"
    },
    {
      "inputs": [],
      "name": "pendingOwner",
      "outputs": [
        {
          "internalType": "address",
          "name": "",
          "type": "address"
        }
      ],
      "stateMutability": "view",
      "type": "function"
    },
    {
      "inputs": [
        {
          "internalType": "bytes32",
          "name": "",
          "type": "bytes32"
        }
      ],
      "name": "priceFeedIds",
      "outputs": [
        {
          "internalType": "bytes32",
          "name": "",
          "type": "bytes32"
        }
      ],
      "stateMutability": "view",
      "type": "function"
    },
    {
      "inputs": [],
      "name": "pyth",
      "outputs": [
        {
          "internalType": "contract IPyth",
          "name": "",
          "type": "address"
        }
      ],
      "stateMutability": "view",
      "type": "function"
    },
    {
      "inputs": [
        {
          "internalType": "uint256",
          "name": "_seconds",
          "type": "uint256"
        }
      ],
      "name": "setMaxStaleness",
      "outputs": [],
      "stateMutability": "nonpayable",
      "type": "function"
    },
    {
      "inputs": [
        {
          "internalType": "bytes32",
          "name": "pairId",
          "type": "bytes32"
        },
        {
          "internalType": "bytes32",
          "name": "pythFeedId",
          "type": "bytes32"
        }
      ],
      "name": "setPriceFeed",
      "outputs": [],
      "stateMutability": "nonpayable",
      "type": "function"
    },
    {
      "inputs": [
        {
          "internalType": "bytes32[]",
          "name": "pairIds",
          "type": "bytes32[]"
        },
        {
          "internalType": "bytes32[]",
          "name": "pythFeedIds",
          "type": "bytes32[]"
        }
      ],
      "name": "setPriceFeedsBatch",
      "outputs": [],
      "stateMutability": "nonpayable",
      "type": "function"
    },
    {
      "inputs": [
        {
          "internalType": "address",
          "name": "newOwner",
          "type": "address"
        }
      ],
      "name": "transferOwnership",
      "outputs": [],
      "stateMutability": "nonpayable",
      "type": "function"
    },
    {
      "inputs": [
        {
          "internalType": "bytes[]",
          "name": "updateData",
          "type": "bytes[]"
        }
      ],
      "name": "updatePriceFeeds",
      "outputs": [],
      "stateMutability": "payable",
      "type": "function"
    }
  ],
  "bytecode": "0x60a03461009657601f610d1838819003918201601f19168301916001600160401b0383118484101761009a5780849260209460405283398101031261009657516001600160a01b0381169081900361009657603c6001556080525f80546001600160a01b03191633179055604051610c6990816100af823960805181818160c301528181610198015281816106500152610b2d0152f35b5f80fd5b634e487b7160e01b5f52604160045260245ffdfe6080604081815260049182361015610015575f80fd5b5f925f3560e01c9182629591f51461095357508163100bc9e11461089b57816331d98b3f146106025781633d7d3294146105db5781633f3a3f40146104b757816379ba50971461041357816387cf4696146103f55781638da5cb5b146103ce578163dffc0aa6146103a7578163e30c39781461037f578163ef9e5e281461015a578163f2fde38b146100f6575063f98d06f0146100b0575f80fd5b346100f257816003193601126100f257517f00000000000000000000000000000000000000000000000000000000000000006001600160a01b03168152602090f35b5080fd5b9050346101565760203660031901126101565780356001600160a01b0381811693918490036101525784541633036101455750506bffffffffffffffffffffffff60a01b600354161760035580f35b51635fc483c560e01b8152fd5b8480fd5b8280fd5b91602091503660031901821361030c5767ffffffffffffffff833581811161030c5761018990369086016109c3565b835163d47eed4560e01b8152917f00000000000000000000000000000000000000000000000000000000000000006001600160a01b0316918684806101d184868d8401610b91565b0381865afa938415610375575f94610346575b5083341061031057823b1561030c57610215925f92858a895196879586948593631df3cbc560e31b85528401610b91565b03925af18015610302576102db575b50803411610230578580f35b34033481116102c8578580808093335af1903d156102c2573d9081116102af57825190610266601f8201601f19168601836109f4565b815285843d92013e5b1561027a5780808580f35b5162461bcd60e51b8152918201526011602482015270115512081c99599d5b990819985a5b1959607a1b604482015260649150fd5b634e487b7160e01b865260418552602486fd5b5061026f565b634e487b7160e01b865260118552602486fd5b9095508181116102ef5782525f945f610224565b604185634e487b7160e01b5f525260245ffd5b84513d5f823e3d90fd5b5f80fd5b855162461bcd60e51b8152808901889052601060248201526f496e73756666696369656e742066656560801b6044820152606490fd5b9093508681813d831161036e575b61035e81836109f4565b8101031261030c5751925f6101e4565b503d610354565b86513d5f823e3d90fd5b823461030c575f36600319011261030c5760035490516001600160a01b039091168152602090f35b823461030c57602036600319011261030c576103c560209235610af6565b90519015158152f35b823461030c575f36600319011261030c575f5490516001600160a01b039091168152602090f35b823461030c575f36600319011261030c576020906001549051908152f35b823461030c575f36600319011261030c576003546001600160a01b03929091838316919033839003610480575050805f549384167f8be0079c531659141344cd1fd0a4f28419497f9722a3daafe3b4186f6b6457e05f80a36001600160a01b0319928316175f5516600355005b906020606492519162461bcd60e51b835282015260116024820152702737ba103832b73234b7339037bbb732b960791b6044820152fd5b823461030c578060031936011261030c5767ffffffffffffffff91803583811161030c576104e890369083016109c3565b909360243590811161030c5761050190369084016109c3565b5f5490959193906001600160a01b031633036105cd5785830361059857505f5b82811061052a57005b806105386001928887610ad2565b35610544828686610ad2565b355f5260209060028252875f20557fd535b46df135cf99612eae06ed421848b3208d647b0d241eb6d230a4cd382a7061057e838787610ad2565b359161058b848b8a610ad2565b358951908152a201610521565b606490602086519162461bcd60e51b8352820152600f60248201526e098cadccee8d040dad2e6dac2e8c6d608b1b6044820152fd5b8451635fc483c560e01b8152fd5b823461030c57602036600319011261030c57602091355f5260028252805f20549051908152f35b90503461030c5760208060031936011261030c5781355f5260028152825f205491821561088d57600154845163052571af60e51b8152828101949094526024808501919091526080846044817f00000000000000000000000000000000000000000000000000000000000000006001600160a01b03165afa938415610883575f94610852575b505f845160070b13156108195767ffffffffffffffff906064828587015116028281169081036107b357828651169081156108075760029184910416116107c657848601805190929060030b5f811261072a57508551169263ffffffff8093511660120192831161071957505060609161070461070a92610a97565b90610abf565b925b0151908351928352820152f35b601190634e487b7160e01b5f52525ffd5b909250637fffffff1981146107b3575f0363ffffffff90811693909260128511610773578651169360120392831161071957505060609161070461076d92610a97565b9261070c565b8694939194511692601119019081116107b35761078f90610a97565b9283156107a2575050049160609061070c565b601290634e487b7160e01b5f52525ffd5b50634e487b7160e01b5f90815260118452fd5b601a915060649386519362461bcd60e51b85528401528201527f4f7261636c6520636f6e666964656e636520746f6f20776964650000000000006044820152fd5b82601286634e487b7160e01b5f52525ffd5b60169060649386519362461bcd60e51b855284015282015275496e76616c6964206e6567617469766520707269636560501b6044820152fd5b61087591945060803d60801161087c575b61086d81836109f4565b810190610a2a565b9285610688565b503d610863565b85513d5f823e3d90fd5b8351637e68a04560e01b8152fd5b90503461030c57602036600319011261030c575f54813591906001600160a01b0316330361094557600582101580610939575b15610903577f64a4703c7c168827058126cbd2e71d8d0f026afa821e7dff1480173dffdd3895602083858160015551908152a1005b606490602084519162461bcd60e51b8352820152601060248201526f5374616c656e65737320352d3330307360801b6044820152fd5b5061012c8211156108ce565b8251635fc483c560e01b8152fd5b833461030c578060031936011261030c575f548335936024359390916001600160a01b031633036109b757847fd535b46df135cf99612eae06ed421848b3208d647b0d241eb6d230a4cd382a7060208686845f526002835281815f205551908152a2005b635fc483c560e01b8152fd5b9181601f8401121561030c5782359167ffffffffffffffff831161030c576020808501948460051b01011161030c57565b90601f8019910116810190811067ffffffffffffffff821117610a1657604052565b634e487b7160e01b5f52604160045260245ffd5b9081608091031261030c576040519067ffffffffffffffff6080830181811184821017610a165760405281518060070b810361030c5783526020820151908116810361030c5760208301526040810151908160030b820361030c5760609160408401520151606082015290565b63ffffffff16604d8111610aab57600a0a90565b634e487b7160e01b5f52601160045260245ffd5b81810292918115918404141715610aab57565b9190811015610ae25760051b0190565b634e487b7160e01b5f52603260045260245ffd5b5f52600260205260405f20548015610b8b5760015460405163052571af60e51b8152600481019290925260248201526080816044817f00000000000000000000000000000000000000000000000000000000000000006001600160a01b03165afa9081610b6c575b50610b6857600190565b5f90565b610b849060803d60801161087c5761086d81836109f4565b505f610b5e565b50600190565b9160208181850182865252604084019360408360051b82010194845f925b858410610bc0575050505050505090565b90919293949596603f198282030184528735601e198436030181121561030c57830186810191903567ffffffffffffffff811161030c57803603831361030c5787828280600196849695859652848401375f828201840152601f01601f1916010199019796959190910193019190610baf56fea2646970667358221220c4a9bf240184051bd9f919b5ff88fb4ab48dbe1260d5ad7f24f95ac16865bbff64736f6c63430008180033",
  "linkReferences": {},
  "deployedLinkReferences": {},
  "immutableReferences": {
    "7576": [
      {
        "length": 32,
        "start": 195
      },
      {
        "length": 32,
        "start": 408
      },
      {
        "length": 32,
        "start": 1616
      },
      {
        "length": 32,
        "start": 2861
      }
    ]
  },
  "inputSourceName": "project/src/PythPriceOracle.sol",
  "buildInfoId": "solc-0_8_24-7995d18fa39666c9cb456dcdff4bac5ab61681bf"
}