{"project/src/ConfidentialVault.sol":{"ConfidentialVault":{"abi":[{"inputs":[{"internalType":"address","name":"_usdc","type":"address"},{"internalType":"address","name":"_core","type":"address"}],"stateMutability":"nonpayable","type":"constructor"},{"inputs":[],"name":"DepositsDisabled","type":"error"},{"inputs":[],"name":"ExceedsDepositCap","type":"error"},{"inputs":[],"name":"ExceedsTVLCap","type":"error"},{"inputs":[],"name":"InsufficientLiquidity","type":"error"},{"inputs":[],"name":"InsufficientShares","type":"error"},{"inputs":[],"name":"LockupNotExpired","type":"error"},{"inputs":[],"name":"OnlyOwner","type":"error"},{"inputs":[],"name":"OnlyTrading","type":"error"},{"inputs":[],"name":"ReentrancyGuardReentrantCall","type":"error"},{"inputs":[],"name":"ZeroAmount","type":"error"},{"anonymous":false,"inputs":[{"indexed":true,"internalType":"address","name":"user","type":"address"},{"indexed":false,"internalType":"uint256","name":"amount","type":"uint256"},{"indexed":false,"internalType":"uint256","name":"sharesReceived","type":"uint256"}],"name":"Deposit","type":"event"},{"anonymous":false,"inputs":[],"name":"EmergencyModeActivated","type":"event"},{"anonymous":false,"inputs":[],"name":"EmergencyModeDeactivated","type":"event"},{"anonymous":false,"inputs":[{"indexed":false,"internalType":"uint256","name":"amount","type":"uint256"}],"name":"FeeReceived","type":"event"},{"anonymous":false,"inputs":[{"indexed":true,"internalType":"address","name":"trader","type":"address"},{"indexed":true,"internalType":"address","name":"liquidator","type":"address"},{"indexed":false,"internalType":"uint256","name":"collateral","type":"uint256"},{"indexed":false,"internalType":"uint256","name":"reward","type":"uint256"}],"name":"LiquidationSettled","type":"event"},{"anonymous":false,"inputs":[{"indexed":true,"internalType":"address","name":"trader","type":"address"},{"indexed":false,"internalType":"int256","name":"netPnl","type":"int256"},{"indexed":false,"internalType":"uint256","name":"collateral","type":"uint256"}],"name":"PositionSettled","type":"event"},{"anonymous":false,"inputs":[{"indexed":true,"internalType":"address","name":"user","type":"address"},{"indexed":false,"internalType":"uint256","name":"amount","type":"uint256"},{"indexed":false,"internalType":"uint256","name":"sharesBurned","type":"uint256"}],"name":"Withdraw","type":"event"},{"inputs":[],"name":"MINIMUM_LIQUIDITY","outputs":[{"internalType":"uint256","name":"","type":"uint256"}],"stateMutability":"view","type":"function"},{"inputs":[],"name":"availableLiquidity","outputs":[{"internalType":"uint256","name":"","type":"uint256"}],"stateMutability":"view","type":"function"},{"inputs":[{"internalType":"address","name":"user","type":"address"}],"name":"balanceOfUnderlying","outputs":[{"internalType":"uint256","name":"","type":"uint256"}],"stateMutability":"view","type":"function"},{"inputs":[{"internalType":"address","name":"user","type":"address"}],"name":"canWithdraw","outputs":[{"internalType":"bool","name":"","type":"bool"}],"stateMutability":"view","type":"function"},{"inputs":[],"name":"core","outputs":[{"internalType":"contract ConfidentialCore","name":"","type":"address"}],"stateMutability":"view","type":"function"},{"inputs":[],"name":"decimals","outputs":[{"internalType":"uint8","name":"","type":"uint8"}],"stateMutability":"view","type":"function"},{"inputs":[{"internalType":"uint256","name":"amount","type":"uint256"}],"name":"deposit","outputs":[],"stateMutability":"nonpayable","type":"function"},{"inputs":[{"internalType":"address","name":"","type":"address"}],"name":"depositTimestamp","outputs":[{"internalType":"uint256","name":"","type":"uint256"}],"stateMutability":"view","type":"function"},{"inputs":[],"name":"depositsEnabled","outputs":[{"internalType":"bool","name":"","type":"bool"}],"stateMutability":"view","type":"function"},{"inputs":[],"name":"disableEmergencyMode","outputs":[],"stateMutability":"nonpayable","type":"function"},{"inputs":[{"internalType":"uint256","name":"totalFee","type":"uint256"}],"name":"distributeClosingFee","outputs":[],"stateMutability":"nonpayable","type":"function"},{"inputs":[],"name":"emergencyMode","outputs":[{"internalType":"bool","name":"","type":"bool"}],"stateMutability":"view","type":"function"},{"inputs":[],"name":"enableEmergencyMode","outputs":[],"stateMutability":"nonpayable","type":"function"},{"inputs":[],"name":"lockupPeriod","outputs":[{"internalType":"uint256","name":"","type":"uint256"}],"stateMutability":"view","type":"function"},{"inputs":[],"name":"maxDepositPerUser","outputs":[{"internalType":"uint256","name":"","type":"uint256"}],"stateMutability":"view","type":"function"},{"inputs":[],"name":"maxTotalDeposits","outputs":[{"internalType":"uint256","name":"","type":"uint256"}],"stateMutability":"view","type":"function"},{"inputs":[],"name":"name","outputs":[{"internalType":"string","name":"","type":"string"}],"stateMutability":"view","type":"function"},{"inputs":[{"internalType":"uint256","name":"amount","type":"uint256"}],"name":"receiveFees","outputs":[],"stateMutability":"nonpayable","type":"function"},{"inputs":[{"internalType":"uint256","name":"amount","type":"uint256"}],"name":"reserveBacking","outputs":[],"stateMutability":"nonpayable","type":"function"},{"inputs":[{"internalType":"uint256","name":"_perUser","type":"uint256"},{"internalType":"uint256","name":"_total","type":"uint256"}],"name":"setDepositCaps","outputs":[],"stateMutability":"nonpayable","type":"function"},{"inputs":[{"internalType":"bool","name":"_enabled","type":"bool"}],"name":"setDepositsEnabled","outputs":[],"stateMutability":"nonpayable","type":"function"},{"inputs":[{"internalType":"uint256","name":"_seconds","type":"uint256"}],"name":"setLockupPeriod","outputs":[],"stateMutability":"nonpayable","type":"function"},{"inputs":[{"internalType":"address","name":"trader","type":"address"},{"internalType":"address","name":"liquidator","type":"address"},{"internalType":"uint256","name":"collateral","type":"uint256"},{"internalType":"uint256","name":"reward","type":"uint256"}],"name":"settleLiquidation","outputs":[],"stateMutability":"nonpayable","type":"function"},{"inputs":[{"internalType":"address","name":"trader","type":"address"},{"internalType":"uint256","name":"collateral","type":"uint256"},{"internalType":"int256","name":"netPnl","type":"int256"}],"name":"settlePosition","outputs":[],"stateMutability":"nonpayable","type":"function"},{"inputs":[],"name":"sharePrice","outputs":[{"internalType":"uint256","name":"","type":"uint256"}],"stateMutability":"view","type":"function"},{"inputs":[{"internalType":"address","name":"","type":"address"}],"name":"shares","outputs":[{"internalType":"uint256","name":"","type":"uint256"}],"stateMutability":"view","type":"function"},{"inputs":[],"name":"symbol","outputs":[{"internalType":"string","name":"","type":"string"}],"stateMutability":"view","type":"function"},{"inputs":[],"name":"totalAssets","outputs":[{"internalType":"uint256","name":"","type":"uint256"}],"stateMutability":"view","type":"function"},{"inputs":[],"name":"totalBacking","outputs":[{"internalType":"uint256","name":"","type":"uint256"}],"stateMutability":"view","type":"function"},{"inputs":[],"name":"totalShares","outputs":[{"internalType":"uint256","name":"","type":"uint256"}],"stateMutability":"view","type":"function"},{"inputs":[],"name":"usdc","outputs":[{"internalType":"contract IERC20","name":"","type":"address"}],"stateMutability":"view","type":"function"},{"inputs":[],"name":"utilization","outputs":[{"internalType":"uint256","name":"","type":"uint256"}],"stateMutability":"view","type":"function"},{"inputs":[{"internalType":"uint256","name":"shareAmount","type":"uint256"}],"name":"withdraw","outputs":[],"stateMutability":"nonpayable","type":"function"}],"evm":{"bytecode":{"linkReferences":{},"object":"60a0346100e457601f61187538819003918201601f19168301916001600160401b038311848410176100e85780849260409485528339810103126100e457610052602061004b836100fc565b92016100fc565b60015f81905562093a8060055564e8d4a51000600855652d79883d2000600955600a805461ff0019166101001790556001600160a01b0392831660805280546001600160a01b031916919092161790556040516117649081610111823960805181818161056c015281816109c001528181610b5601528181610d5901528181610f530152818161109401526112b90152f35b5f80fd5b634e487b7160e01b5f52604160045260245ffd5b51906001600160a01b03821682036100e45756fe6080604090808252600480361015610015575f80fd5b5f3560e01c91826301e1d1141461149f575081630420592e146113e557816306fdde03146113915781630905f5601461136e57816309c0533b146111ac5781630bfedc8c14611134578163118f304314610e6e57816319262d3014610e405781632e1a7d4d14610c7a578163313ce56714610c5f57816335b8e71314610a325781633a98ef3914610a145781633af9e669146109ef5781633e413bee146109ac57816346b00d04146109775781635392fd1c1461095157816361b01b5d146109335781636e93ae2b146108a8578163743753591461086d57816382e5310c1461084f578163872697291461083357816395d89b41146107f25781639f04586c14610761578163b6b55f2514610482578163ba9a7a5614610466578163c5b1c7d0146103c7578163c771c39014610313578163ce7c2ac2146102dc578163ea21cd92146102b9578163eb2cd2581461029b578163ee947a7c1461027d578163ef952568146101b6575063f2f4eb261461018b575f80fd5b346101b2575f3660031901126101b25760015490516001600160a01b039091168152602090f35b5f80fd5b82346101b2575f3660031901126101b2576001548151638da5cb5b60e01b81526001600160a01b039160209082908690829086165afa908115610273575f91610244575b501633036102375761010061ffff19600a541617600a557f70b9dcaceb756943ac1a4f48b8df9ea82fbb012b87e405cba4ed77d1ded0df415f80a1005b51635fc483c560e01b8152fd5b610266915060203d60201161026c575b61025e81836114e9565b810190611568565b846101fa565b503d610254565b83513d5f823e3d90fd5b82346101b2575f3660031901126101b2576020906005549051908152f35b82346101b2575f3660031901126101b2576020906007549051908152f35b82346101b2575f3660031901126101b2576020906102d56116de565b9051908152f35b82346101b25760203660031901126101b2576020906001600160a01b03610301611552565b165f5260038252805f20549051908152f35b9050346101b25760203660031901126101b2576001548251638da5cb5b60e01b8152823593916001600160a01b03919060209082908690829086165afa908115610273575f916103a8575b501633036102375762278d008311610377576005839055005b906020606492519162461bcd60e51b8352820152600b60248201526a4d6178203330206461797360a81b6044820152fd5b6103c1915060203d60201161026c5761025e81836114e9565b5f61035e565b82346101b2575f3660031901126101b2576001548151638da5cb5b60e01b81526001600160a01b039160209082908690829086165afa908115610273575f91610447575b5016330361023757600161ffff19600a541617600a557f9e91804b7b70a36dcecd9afc85507eb02441c485502f58d0e68589aa50b8226a5f80a1005b610460915060203d60201161026c5761025e81836114e9565b8461040b565b82346101b2575f3660031901126101b257602090516103e88152f35b82346101b257602090816003193601126101b2578235916104a161170d565b82156107515760ff600a5460081c161561074157600654906104c38483611587565b60095410610731576002549182158015610729575b1561071557506103e891828511156106d2576103e71985018581116106bf579281018091116106ac576002555b8115610673576002548481156106685761053861053d92335f5260038552610533875f205460065490611644565b611657565b611587565b600854106106585782516323b872dd60e01b81523386820152306024820152604481018590529481866064815f7f00000000000000000000000000000000000000000000000000000000000000006001600160a01b03165af195861561064e577f90890809c654f11d6e72a28fa60149770a0d11ec6c92319d6ceb2bb0a4ea1a1595966105d1915f91610621575b506115cd565b6105dd83600254611587565b600255335f5260038252835f206105f5848254611587565b905561060386600654611587565b600655335f52815242835f205582519485528401523392a260015f55005b6106419150843d8611610647575b61063981836114e9565b8101906115b5565b886105cb565b503d61062f565b84513d5f823e3d90fd5b8251631823752b60e11b81528590fd5b61053d91505f611587565b8460649184519162461bcd60e51b8352820152601460248201527353686172657320776f756c64206265207a65726f60601b6044820152fd5b601186634e487b7160e01b5f525260245ffd5b601187634e487b7160e01b5f525260245ffd5b835162461bcd60e51b8152808701839052601760248201527f4669727374206465706f73697420746f6f20736d616c6c0000000000000000006044820152606490fd5b610533610723929386611644565b90610505565b5080156104d8565b82516336a00c8b60e11b81528590fd5b8151630e2f42c960e31b81528490fd5b8151631f2a200560e01b81528490fd5b9050346101b25760203660031901126101b2578035918215158093036101b2576001548151638da5cb5b60e01b81526001600160a01b039160209082908690829086165afa908115610273575f916107d3575b5016330361023757600a805461ff001916600885901b61ff0016179055005b6107ec915060203d60201161026c5761025e81836114e9565b5f6107b4565b82346101b2575f3660031901126101b257805161082f91610812826114b9565b600682526518d59055531560d21b6020830152519182918261150b565b0390f35b82346101b2575f3660031901126101b2576020906102d56116ab565b82346101b2575f3660031901126101b2576020906008549051908152f35b82346101b2575f3660031901126101b2576020906006546007548082115f1461089f576102d5916115a8565b51908152f35b50505f90610899565b82346101b25760203660031901126101b2576001548151637622567960e11b81526001600160a01b039160209082908690829086165afa908115610273575f91610914575b50163303610907576109028235600754611587565b600755005b5163e9e3f4ad60e01b8152fd5b61092d915060203d60201161026c5761025e81836114e9565b846108ed565b82346101b2575f3660031901126101b2576020906009549051908152f35b82346101b2575f3660031901126101b25760209060ff600a5460081c1690519015158152f35b82346101b25760203660031901126101b2576020916001600160a01b0361099c611552565b165f528252805f20549051908152f35b82346101b2575f3660031901126101b257517f00000000000000000000000000000000000000000000000000000000000000006001600160a01b03168152602090f35b82346101b25760203660031901126101b2576020906102d5610a0f611552565b611675565b82346101b2575f3660031901126101b2576020906002549051908152f35b82346101b257602090816003193601126101b2576001548151637622567960e11b81526001600160a01b0391821694803593929091858184818a5afa90811561064e579082915f91610c42575b50163303610c33578251631db0457960e11b81528281018590529083826024818a5afa91821561064e575f92610c02575b5081610ae2575b7f86c46efee0a638b418fa0952cd587c78b75b8bc989e7a7c13a86d448ec34a08486868651908152a1005b85839497610af2846006546115a8565b60065588516361d027b360e01b815294859182905afa8015610bf857610b529487945f92610bd7575b50885163a9059cbb60e01b81526001600160a01b03909216908201908152602081019390935293849283915f918391604090910190565b03927f0000000000000000000000000000000000000000000000000000000000000000165af190811561064e577f86c46efee0a638b418fa0952cd587c78b75b8bc989e7a7c13a86d448ec34a0849491610bb2915f91610bba57506115cd565b848080610ab7565b610bd19150853d87116106475761063981836114e9565b866105cb565b5f919250610bf190863d881161026c5761025e81836114e9565b9190610b1b565b87513d5f823e3d90fd5b9091508381813d8311610c2c575b610c1a81836114e9565b810103126101b2578501519087610ab0565b503d610c10565b50905163e9e3f4ad60e01b8152fd5b610c599150873d891161026c5761025e81836114e9565b88610a7f565b82346101b2575f3660031901126101b2576020905160068152f35b82346101b257602090816003193601126101b2578235610c9861170d565b801561075157335f526003835280825f205410610e305760ff600a541615610e03575b60065492610cc98483611644565b610cd66002548092611657565b946007548082115f14610dfb57610cec916115a8565b8511610deb5784610d5496610d028585946115a8565b600255335f5260038352855f20610d1a8682546115a8565b9055610d28826006546115a8565b600655855163a9059cbb60e01b8152339181019182526020820192909252909687918291604090910190565b03815f7f00000000000000000000000000000000000000000000000000000000000000006001600160a01b03165af1948515610273577ff279e6a1f5e320cca91135676d9cb6e44ca8a08c0b88342bcdb1144f6511b5689495610dbd915f91610dce57506115cd565b82519485528401523392a260015f55005b610de59150833d85116106475761063981836114e9565b876105cb565b835163bb55fd2760e01b81528690fd5b50505f610cec565b335f52838352610e19825f205460055490611587565b421015610cbb5781516354e21be360e11b81528490fd5b8151633999656760e01b81528490fd5b82346101b25760203660031901126101b257602090610e65610e60611552565b61160b565b90519015158152f35b82346101b25760603660031901126101b257610e88611552565b906024356044359260018060a01b0391826001541684518091637622567960e11b8252818960209485935afa90811561112a579085915f9161110d575b501633036110fd5760075482808211156110f557610ee2916115a8565b6007555f8612610ffa5760065460075480821115610ff357610f0490826115a8565b8711610fe35786610f14916115a8565b6006558083610f238885611587565b875163a9059cbb60e01b81526001600160a01b03909216998201998a5260208a0152978890819060400103815f887f0000000000000000000000000000000000000000000000000000000000000000165af1968715610fd9577fa9c6720706505784683f09b0975d4f1a78dfdeebc7fead8936439abd5b96f0219697610faf915f91610fbc57506115cd565b84519687528601521692a2005b610fd39150833d85116106475761063981836114e9565b896105cb565b85513d5f823e3d90fd5b855163bb55fd2760e01b81528890fd5b505f610f04565b600160ff1b86146106bf575f86900382811061104957507fa9c6720706505784683f09b0975d4f1a78dfdeebc7fead8936439abd5b96f02195965061104182600654611587565b600655610faf565b836110648261105b8594600654611587565b600655856115a8565b875163a9059cbb60e01b81526001600160a01b03909216998201998a5260208a0152978890819060400103815f887f0000000000000000000000000000000000000000000000000000000000000000165af1968715610fd9577fa9c6720706505784683f09b0975d4f1a78dfdeebc7fead8936439abd5b96f02196976110f0915f91610fbc57506115cd565b610faf565b50505f610ee2565b845163e9e3f4ad60e01b81528790fd5b6111249150833d851161026c5761025e81836114e9565b89610ec5565b86513d5f823e3d90fd5b82346101b257806003193601126101b2576001548151638da5cb5b60e01b81526001600160a01b039160209082908690829086165afa908115610273575f9161118d575b50163303610237575035600855602435600955005b6111a6915060203d60201161026c5761025e81836114e9565b84611178565b9050346101b25760803660031901126101b2576111c7611552565b602435926001600160a01b0380851693928486036101b257604435936064359083600154169085518092637622567960e11b8252818360209586935afa908115610bf8579086915f91611351575b5016330361134357600754878082111561133b57611232916115a8565b60075561124a61124284896115a8565b600654611587565b60065582611286575b507f3046bb5fb86890e6f3c32d7527b763c83ee73588c10f9533662078355cc634fa9596975084519687528601521692a3005b855163a9059cbb60e01b81526001600160a01b039099169089019081526020810183905281908990819060400103815f887f0000000000000000000000000000000000000000000000000000000000000000165af1978815610fd9577f3046bb5fb86890e6f3c32d7527b763c83ee73588c10f9533662078355cc634fa969798611316915f9161131e57506115cd565b879695611253565b6113359150833d85116106475761063981836114e9565b5f6105cb565b50505f611232565b855163e9e3f4ad60e01b8152fd5b6113689150843d861161026c5761025e81836114e9565b5f611215565b82346101b2575f3660031901126101b25760209060ff600a541690519015158152f35b82346101b2575f3660031901126101b257805161082f916113b1826114b9565b601882527f436f6e666964656e7469616c205661756c7420536861726500000000000000006020830152519182918261150b565b82346101b25760203660031901126101b2576001548151637622567960e11b8152833593916001600160a01b03919060209082908590829086165afa90811561064e575f91611480575b50163303611472577f86c46efee0a638b418fa0952cd587c78b75b8bc989e7a7c13a86d448ec34a0846020848461146882600654611587565b60065551908152a1005b905163e9e3f4ad60e01b8152fd5b611499915060203d60201161026c5761025e81836114e9565b8561142f565b346101b2575f3660031901126101b2576020906006548152f35b6040810190811067ffffffffffffffff8211176114d557604052565b634e487b7160e01b5f52604160045260245ffd5b90601f8019910116810190811067ffffffffffffffff8211176114d557604052565b602080825282518183018190529093925f5b82811061153e57505060409293505f838284010152601f8019910116010190565b81810186015184820160400152850161151d565b600435906001600160a01b03821682036101b257565b908160209103126101b257516001600160a01b03811681036101b25790565b9190820180921161159457565b634e487b7160e01b5f52601160045260245ffd5b9190820391821161159457565b908160209103126101b2575180151581036101b25790565b156115d457565b60405162461bcd60e51b815260206004820152600f60248201526e151c985b9cd9995c8819985a5b1959608a1b6044820152606490fd5b60ff600a541661163e576001600160a01b03165f9081526004602052604090205460055461163891611587565b42101590565b50600190565b8181029291811591840414171561159457565b8115611661570490565b634e487b7160e01b5f52601260045260245ffd5b60025480156116a5576116a29160018060a01b03165f52600360205261053360405f205460065490611644565b90565b50505f90565b60025480156116d65760065490620f424091828102928184041490151715611594576116a291611657565b50620f424090565b6006548015611708576007549061271091828102928184041490151715611594576116a291611657565b505f90565b60025f541461171c5760025f55565b604051633ee5aeb560e01b8152600490fdfea264697066735822122048891b955e2044155791904e8ea00fb412793669e30411c55971650622e759d264736f6c63430008180033","opcodes":"PUSH1 0xA0 CALLVALUE PUSH2 0xE4 JUMPI PUSH1 0x1F PUSH2 0x1875 CODESIZE DUP2 SWAP1 SUB SWAP2 DUP3 ADD PUSH1 0x1F NOT AND DUP4 ADD SWAP2 PUSH1 0x1 PUSH1 0x1 PUSH1 0x40 SHL SUB DUP4 GT DUP5 DUP5 LT OR PUSH2 0xE8 JUMPI DUP1 DUP5 SWAP3 PUSH1 0x40 SWAP5 DUP6 MSTORE DUP4 CODECOPY DUP2 ADD SUB SLT PUSH2 0xE4 JUMPI PUSH2 0x52 PUSH1 0x20 PUSH2 0x4B DUP4 PUSH2 0xFC JUMP JUMPDEST SWAP3 ADD PUSH2 0xFC JUMP JUMPDEST PUSH1 0x1 PUSH0 DUP2 SWAP1 SSTORE PUSH3 0x93A80 PUSH1 0x5 SSTORE PUSH5 0xE8D4A51000 PUSH1 0x8 SSTORE PUSH6 0x2D79883D2000 PUSH1 0x9 SSTORE PUSH1 0xA DUP1 SLOAD PUSH2 0xFF00 NOT AND PUSH2 0x100 OR SWAP1 SSTORE PUSH1 0x1 PUSH1 0x1 PUSH1 0xA0 SHL SUB SWAP3 DUP4 AND PUSH1 0x80 MSTORE DUP1 SLOAD PUSH1 0x1 PUSH1 0x1 PUSH1 0xA0 SHL SUB NOT AND SWAP2 SWAP1 SWAP3 AND OR SWAP1 SSTORE PUSH1 0x40 MLOAD PUSH2 0x1764 SWAP1 DUP2 PUSH2 0x111 DUP3 CODECOPY PUSH1 0x80 MLOAD DUP2 DUP2 DUP2 PUSH2 0x56C ADD MSTORE DUP2 DUP2 PUSH2 0x9C0 ADD MSTORE DUP2 DUP2 PUSH2 0xB56 ADD MSTORE DUP2 DUP2 PUSH2 0xD59 ADD MSTORE DUP2 DUP2 PUSH2 0xF53 ADD MSTORE DUP2 DUP2 PUSH2 0x1094 ADD MSTORE PUSH2 0x12B9 ADD MSTORE RETURN JUMPDEST PUSH0 DUP1 REVERT JUMPDEST PUSH4 0x4E487B71 PUSH1 0xE0 SHL PUSH0 MSTORE PUSH1 0x41 PUSH1 0x4 MSTORE PUSH1 0x24 PUSH0 REVERT JUMPDEST MLOAD SWAP1 PUSH1 0x1 PUSH1 0x1 PUSH1 0xA0 SHL SUB DUP3 AND DUP3 SUB PUSH2 0xE4 JUMPI JUMP INVALID PUSH1 0x80 PUSH1 0x40 SWAP1 DUP1 DUP3 MSTORE PUSH1 0x4 DUP1 CALLDATASIZE LT ISZERO PUSH2 0x15 JUMPI PUSH0 DUP1 REVERT JUMPDEST PUSH0 CALLDATALOAD PUSH1 0xE0 SHR SWAP2 DUP3 PUSH4 0x1E1D114 EQ PUSH2 0x149F JUMPI POP DUP2 PUSH4 0x420592E EQ PUSH2 0x13E5 JUMPI DUP2 PUSH4 0x6FDDE03 EQ PUSH2 0x1391 JUMPI DUP2 PUSH4 0x905F560 EQ PUSH2 0x136E JUMPI DUP2 PUSH4 0x9C0533B EQ PUSH2 0x11AC JUMPI DUP2 PUSH4 0xBFEDC8C EQ PUSH2 0x1134 JUMPI DUP2 PUSH4 0x118F3043 EQ PUSH2 0xE6E JUMPI DUP2 PUSH4 0x19262D30 EQ PUSH2 0xE40 JUMPI DUP2 PUSH4 0x2E1A7D4D EQ PUSH2 0xC7A JUMPI DUP2 PUSH4 0x313CE567 EQ PUSH2 0xC5F JUMPI DUP2 PUSH4 0x35B8E713 EQ PUSH2 0xA32 JUMPI DUP2 PUSH4 0x3A98EF39 EQ PUSH2 0xA14 JUMPI DUP2 PUSH4 0x3AF9E669 EQ PUSH2 0x9EF JUMPI DUP2 PUSH4 0x3E413BEE EQ PUSH2 0x9AC JUMPI DUP2 PUSH4 0x46B00D04 EQ PUSH2 0x977 JUMPI DUP2 PUSH4 0x5392FD1C EQ PUSH2 0x951 JUMPI DUP2 PUSH4 0x61B01B5D EQ PUSH2 0x933 JUMPI DUP2 PUSH4 0x6E93AE2B EQ PUSH2 0x8A8 JUMPI DUP2 PUSH4 0x74375359 EQ PUSH2 0x86D JUMPI DUP2 PUSH4 0x82E5310C EQ PUSH2 0x84F JUMPI DUP2 PUSH4 0x87269729 EQ PUSH2 0x833 JUMPI DUP2 PUSH4 0x95D89B41 EQ PUSH2 0x7F2 JUMPI DUP2 PUSH4 0x9F04586C EQ PUSH2 0x761 JUMPI DUP2 PUSH4 0xB6B55F25 EQ PUSH2 0x482 JUMPI DUP2 PUSH4 0xBA9A7A56 EQ PUSH2 0x466 JUMPI DUP2 PUSH4 0xC5B1C7D0 EQ PUSH2 0x3C7 JUMPI DUP2 PUSH4 0xC771C390 EQ PUSH2 0x313 JUMPI DUP2 PUSH4 0xCE7C2AC2 EQ PUSH2 0x2DC JUMPI DUP2 PUSH4 0xEA21CD92 EQ PUSH2 0x2B9 JUMPI DUP2 PUSH4 0xEB2CD258 EQ PUSH2 0x29B JUMPI DUP2 PUSH4 0xEE947A7C EQ PUSH2 0x27D JUMPI DUP2 PUSH4 0xEF952568 EQ PUSH2 0x1B6 JUMPI POP PUSH4 0xF2F4EB26 EQ PUSH2 0x18B JUMPI PUSH0 DUP1 REVERT JUMPDEST CALLVALUE PUSH2 0x1B2 JUMPI PUSH0 CALLDATASIZE PUSH1 0x3 NOT ADD SLT PUSH2 0x1B2 JUMPI PUSH1 0x1 SLOAD SWAP1 MLOAD PUSH1 0x1 PUSH1 0x1 PUSH1 0xA0 SHL SUB SWAP1 SWAP2 AND DUP2 MSTORE PUSH1 0x20 SWAP1 RETURN JUMPDEST PUSH0 DUP1 REVERT JUMPDEST DUP3 CALLVALUE PUSH2 0x1B2 JUMPI PUSH0 CALLDATASIZE PUSH1 0x3 NOT ADD SLT PUSH2 0x1B2 JUMPI PUSH1 0x1 SLOAD DUP2 MLOAD PUSH4 0x8DA5CB5B PUSH1 0xE0 SHL DUP2 MSTORE PUSH1 0x1 PUSH1 0x1 PUSH1 0xA0 SHL SUB SWAP2 PUSH1 0x20 SWAP1 DUP3 SWAP1 DUP7 SWAP1 DUP3 SWAP1 DUP7 AND GAS STATICCALL SWAP1 DUP2 ISZERO PUSH2 0x273 JUMPI PUSH0 SWAP2 PUSH2 0x244 JUMPI JUMPDEST POP AND CALLER SUB PUSH2 0x237 JUMPI PUSH2 0x100 PUSH2 0xFFFF NOT PUSH1 0xA SLOAD AND OR PUSH1 0xA SSTORE PUSH32 0x70B9DCACEB756943AC1A4F48B8DF9EA82FBB012B87E405CBA4ED77D1DED0DF41 PUSH0 DUP1 LOG1 STOP JUMPDEST MLOAD PUSH4 0x5FC483C5 PUSH1 0xE0 SHL DUP2 MSTORE REVERT JUMPDEST PUSH2 0x266 SWAP2 POP PUSH1 0x20 RETURNDATASIZE PUSH1 0x20 GT PUSH2 0x26C JUMPI JUMPDEST PUSH2 0x25E DUP2 DUP4 PUSH2 0x14E9 JUMP JUMPDEST DUP2 ADD SWAP1 PUSH2 0x1568 JUMP JUMPDEST DUP5 PUSH2 0x1FA JUMP JUMPDEST POP RETURNDATASIZE PUSH2 0x254 JUMP JUMPDEST DUP4 MLOAD RETURNDATASIZE PUSH0 DUP3 RETURNDATACOPY RETURNDATASIZE SWAP1 REVERT JUMPDEST DUP3 CALLVALUE PUSH2 0x1B2 JUMPI PUSH0 CALLDATASIZE PUSH1 0x3 NOT ADD SLT PUSH2 0x1B2 JUMPI PUSH1 0x20 SWAP1 PUSH1 0x5 SLOAD SWAP1 MLOAD SWAP1 DUP2 MSTORE RETURN JUMPDEST DUP3 CALLVALUE PUSH2 0x1B2 JUMPI PUSH0 CALLDATASIZE PUSH1 0x3 NOT ADD SLT PUSH2 0x1B2 JUMPI PUSH1 0x20 SWAP1 PUSH1 0x7 SLOAD SWAP1 MLOAD SWAP1 DUP2 MSTORE RETURN JUMPDEST DUP3 CALLVALUE PUSH2 0x1B2 JUMPI PUSH0 CALLDATASIZE PUSH1 0x3 NOT ADD SLT PUSH2 0x1B2 JUMPI PUSH1 0x20 SWAP1 PUSH2 0x2D5 PUSH2 0x16DE JUMP JUMPDEST SWAP1 MLOAD SWAP1 DUP2 MSTORE RETURN JUMPDEST DUP3 CALLVALUE PUSH2 0x1B2 JUMPI PUSH1 0x20 CALLDATASIZE PUSH1 0x3 NOT ADD SLT PUSH2 0x1B2 JUMPI PUSH1 0x20 SWAP1 PUSH1 0x1 PUSH1 0x1 PUSH1 0xA0 SHL SUB PUSH2 0x301 PUSH2 0x1552 JUMP JUMPDEST AND PUSH0 MSTORE PUSH1 0x3 DUP3 MSTORE DUP1 PUSH0 KECCAK256 SLOAD SWAP1 MLOAD SWAP1 DUP2 MSTORE RETURN JUMPDEST SWAP1 POP CALLVALUE PUSH2 0x1B2 JUMPI PUSH1 0x20 CALLDATASIZE PUSH1 0x3 NOT ADD SLT PUSH2 0x1B2 JUMPI PUSH1 0x1 SLOAD DUP3 MLOAD PUSH4 0x8DA5CB5B PUSH1 0xE0 SHL DUP2 MSTORE DUP3 CALLDATALOAD SWAP4 SWAP2 PUSH1 0x1 PUSH1 0x1 PUSH1 0xA0 SHL SUB SWAP2 SWAP1 PUSH1 0x20 SWAP1 DUP3 SWAP1 DUP7 SWAP1 DUP3 SWAP1 DUP7 AND GAS STATICCALL SWAP1 DUP2 ISZERO PUSH2 0x273 JUMPI PUSH0 SWAP2 PUSH2 0x3A8 JUMPI JUMPDEST POP AND CALLER SUB PUSH2 0x237 JUMPI PUSH3 0x278D00 DUP4 GT PUSH2 0x377 JUMPI PUSH1 0x5 DUP4 SWAP1 SSTORE STOP JUMPDEST SWAP1 PUSH1 0x20 PUSH1 0x64 SWAP3 MLOAD SWAP2 PUSH3 0x461BCD PUSH1 0xE5 SHL DUP4 MSTORE DUP3 ADD MSTORE PUSH1 0xB PUSH1 0x24 DUP3 ADD MSTORE PUSH11 0x4D61782033302064617973 PUSH1 0xA8 SHL PUSH1 0x44 DUP3 ADD MSTORE REVERT JUMPDEST PUSH2 0x3C1 SWAP2 POP PUSH1 0x20 RETURNDATASIZE PUSH1 0x20 GT PUSH2 0x26C JUMPI PUSH2 0x25E DUP2 DUP4 PUSH2 0x14E9 JUMP JUMPDEST PUSH0 PUSH2 0x35E JUMP JUMPDEST DUP3 CALLVALUE PUSH2 0x1B2 JUMPI PUSH0 CALLDATASIZE PUSH1 0x3 NOT ADD SLT PUSH2 0x1B2 JUMPI PUSH1 0x1 SLOAD DUP2 MLOAD PUSH4 0x8DA5CB5B PUSH1 0xE0 SHL DUP2 MSTORE PUSH1 0x1 PUSH1 0x1 PUSH1 0xA0 SHL SUB SWAP2 PUSH1 0x20 SWAP1 DUP3 SWAP1 DUP7 SWAP1 DUP3 SWAP1 DUP7 AND GAS STATICCALL SWAP1 DUP2 ISZERO PUSH2 0x273 JUMPI PUSH0 SWAP2 PUSH2 0x447 JUMPI JUMPDEST POP AND CALLER SUB PUSH2 0x237 JUMPI PUSH1 0x1 PUSH2 0xFFFF NOT PUSH1 0xA SLOAD AND OR PUSH1 0xA SSTORE PUSH32 0x9E91804B7B70A36DCECD9AFC85507EB02441C485502F58D0E68589AA50B8226A PUSH0 DUP1 LOG1 STOP JUMPDEST PUSH2 0x460 SWAP2 POP PUSH1 0x20 RETURNDATASIZE PUSH1 0x20 GT PUSH2 0x26C JUMPI PUSH2 0x25E DUP2 DUP4 PUSH2 0x14E9 JUMP JUMPDEST DUP5 PUSH2 0x40B JUMP JUMPDEST DUP3 CALLVALUE PUSH2 0x1B2 JUMPI PUSH0 CALLDATASIZE PUSH1 0x3 NOT ADD SLT PUSH2 0x1B2 JUMPI PUSH1 0x20 SWAP1 MLOAD PUSH2 0x3E8 DUP2 MSTORE RETURN JUMPDEST DUP3 CALLVALUE PUSH2 0x1B2 JUMPI PUSH1 0x20 SWAP1 DUP2 PUSH1 0x3 NOT CALLDATASIZE ADD SLT PUSH2 0x1B2 JUMPI DUP3 CALLDATALOAD SWAP2 PUSH2 0x4A1 PUSH2 0x170D JUMP JUMPDEST DUP3 ISZERO PUSH2 0x751 JUMPI PUSH1 0xFF PUSH1 0xA SLOAD PUSH1 0x8 SHR AND ISZERO PUSH2 0x741 JUMPI PUSH1 0x6 SLOAD SWAP1 PUSH2 0x4C3 DUP5 DUP4 PUSH2 0x1587 JUMP JUMPDEST PUSH1 0x9 SLOAD LT PUSH2 0x731 JUMPI PUSH1 0x2 SLOAD SWAP2 DUP3 ISZERO DUP1 ISZERO PUSH2 0x729 JUMPI JUMPDEST ISZERO PUSH2 0x715 JUMPI POP PUSH2 0x3E8 SWAP2 DUP3 DUP6 GT ISZERO PUSH2 0x6D2 JUMPI PUSH2 0x3E7 NOT DUP6 ADD DUP6 DUP2 GT PUSH2 0x6BF JUMPI SWAP3 DUP2 ADD DUP1 SWAP2 GT PUSH2 0x6AC JUMPI PUSH1 0x2 SSTORE JUMPDEST DUP2 ISZERO PUSH2 0x673 JUMPI PUSH1 0x2 SLOAD DUP5 DUP2 ISZERO PUSH2 0x668 JUMPI PUSH2 0x538 PUSH2 0x53D SWAP3 CALLER PUSH0 MSTORE PUSH1 0x3 DUP6 MSTORE PUSH2 0x533 DUP8 PUSH0 KECCAK256 SLOAD PUSH1 0x6 SLOAD SWAP1 PUSH2 0x1644 JUMP JUMPDEST PUSH2 0x1657 JUMP JUMPDEST PUSH2 0x1587 JUMP JUMPDEST PUSH1 0x8 SLOAD LT PUSH2 0x658 JUMPI DUP3 MLOAD PUSH4 0x23B872DD PUSH1 0xE0 SHL DUP2 MSTORE CALLER DUP7 DUP3 ADD MSTORE ADDRESS PUSH1 0x24 DUP3 ADD MSTORE PUSH1 0x44 DUP2 ADD DUP6 SWAP1 MSTORE SWAP5 DUP2 DUP7 PUSH1 0x64 DUP2 PUSH0 PUSH32 0x0 PUSH1 0x1 PUSH1 0x1 PUSH1 0xA0 SHL SUB AND GAS CALL SWAP6 DUP7 ISZERO PUSH2 0x64E JUMPI PUSH32 0x90890809C654F11D6E72A28FA60149770A0D11EC6C92319D6CEB2BB0A4EA1A15 SWAP6 SWAP7 PUSH2 0x5D1 SWAP2 PUSH0 SWAP2 PUSH2 0x621 JUMPI JUMPDEST POP PUSH2 0x15CD JUMP JUMPDEST PUSH2 0x5DD DUP4 PUSH1 0x2 SLOAD PUSH2 0x1587 JUMP JUMPDEST PUSH1 0x2 SSTORE CALLER PUSH0 MSTORE PUSH1 0x3 DUP3 MSTORE DUP4 PUSH0 KECCAK256 PUSH2 0x5F5 DUP5 DUP3 SLOAD PUSH2 0x1587 JUMP JUMPDEST SWAP1 SSTORE PUSH2 0x603 DUP7 PUSH1 0x6 SLOAD PUSH2 0x1587 JUMP JUMPDEST PUSH1 0x6 SSTORE CALLER PUSH0 MSTORE DUP2 MSTORE TIMESTAMP DUP4 PUSH0 KECCAK256 SSTORE DUP3 MLOAD SWAP5 DUP6 MSTORE DUP5 ADD MSTORE CALLER SWAP3 LOG2 PUSH1 0x1 PUSH0 SSTORE STOP JUMPDEST PUSH2 0x641 SWAP2 POP DUP5 RETURNDATASIZE DUP7 GT PUSH2 0x647 JUMPI JUMPDEST PUSH2 0x639 DUP2 DUP4 PUSH2 0x14E9 JUMP JUMPDEST DUP2 ADD SWAP1 PUSH2 0x15B5 JUMP JUMPDEST DUP9 PUSH2 0x5CB JUMP JUMPDEST POP RETURNDATASIZE PUSH2 0x62F JUMP JUMPDEST DUP5 MLOAD RETURNDATASIZE PUSH0 DUP3 RETURNDATACOPY RETURNDATASIZE SWAP1 REVERT JUMPDEST DUP3 MLOAD PUSH4 0x1823752B PUSH1 0xE1 SHL DUP2 MSTORE DUP6 SWAP1 REVERT JUMPDEST PUSH2 0x53D SWAP2 POP PUSH0 PUSH2 0x1587 JUMP JUMPDEST DUP5 PUSH1 0x64 SWAP2 DUP5 MLOAD SWAP2 PUSH3 0x461BCD PUSH1 0xE5 SHL DUP4 MSTORE DUP3 ADD MSTORE PUSH1 0x14 PUSH1 0x24 DUP3 ADD MSTORE PUSH20 0x53686172657320776F756C64206265207A65726F PUSH1 0x60 SHL PUSH1 0x44 DUP3 ADD MSTORE REVERT JUMPDEST PUSH1 0x11 DUP7 PUSH4 0x4E487B71 PUSH1 0xE0 SHL PUSH0 MSTORE MSTORE PUSH1 0x24 PUSH0 REVERT JUMPDEST PUSH1 0x11 DUP8 PUSH4 0x4E487B71 PUSH1 0xE0 SHL PUSH0 MSTORE MSTORE PUSH1 0x24 PUSH0 REVERT JUMPDEST DUP4 MLOAD PUSH3 0x461BCD PUSH1 0xE5 SHL DUP2 MSTORE DUP1 DUP8 ADD DUP4 SWAP1 MSTORE PUSH1 0x17 PUSH1 0x24 DUP3 ADD MSTORE PUSH32 0x4669727374206465706F73697420746F6F20736D616C6C000000000000000000 PUSH1 0x44 DUP3 ADD MSTORE PUSH1 0x64 SWAP1 REVERT JUMPDEST PUSH2 0x533 PUSH2 0x723 SWAP3 SWAP4 DUP7 PUSH2 0x1644 JUMP JUMPDEST SWAP1 PUSH2 0x505 JUMP JUMPDEST POP DUP1 ISZERO PUSH2 0x4D8 JUMP JUMPDEST DUP3 MLOAD PUSH4 0x36A00C8B PUSH1 0xE1 SHL DUP2 MSTORE DUP6 SWAP1 REVERT JUMPDEST DUP2 MLOAD PUSH4 0xE2F42C9 PUSH1 0xE3 SHL DUP2 MSTORE DUP5 SWAP1 REVERT JUMPDEST DUP2 MLOAD PUSH4 0x1F2A2005 PUSH1 0xE0 SHL DUP2 MSTORE DUP5 SWAP1 REVERT JUMPDEST SWAP1 POP CALLVALUE PUSH2 0x1B2 JUMPI PUSH1 0x20 CALLDATASIZE PUSH1 0x3 NOT ADD SLT PUSH2 0x1B2 JUMPI DUP1 CALLDATALOAD SWAP2 DUP3 ISZERO ISZERO DUP1 SWAP4 SUB PUSH2 0x1B2 JUMPI PUSH1 0x1 SLOAD DUP2 MLOAD PUSH4 0x8DA5CB5B PUSH1 0xE0 SHL DUP2 MSTORE PUSH1 0x1 PUSH1 0x1 PUSH1 0xA0 SHL SUB SWAP2 PUSH1 0x20 SWAP1 DUP3 SWAP1 DUP7 SWAP1 DUP3 SWAP1 DUP7 AND GAS STATICCALL SWAP1 DUP2 ISZERO PUSH2 0x273 JUMPI PUSH0 SWAP2 PUSH2 0x7D3 JUMPI JUMPDEST POP AND CALLER SUB PUSH2 0x237 JUMPI PUSH1 0xA DUP1 SLOAD PUSH2 0xFF00 NOT AND PUSH1 0x8 DUP6 SWAP1 SHL PUSH2 0xFF00 AND OR SWAP1 SSTORE STOP JUMPDEST PUSH2 0x7EC SWAP2 POP PUSH1 0x20 RETURNDATASIZE PUSH1 0x20 GT PUSH2 0x26C JUMPI PUSH2 0x25E DUP2 DUP4 PUSH2 0x14E9 JUMP JUMPDEST PUSH0 PUSH2 0x7B4 JUMP JUMPDEST DUP3 CALLVALUE PUSH2 0x1B2 JUMPI PUSH0 CALLDATASIZE PUSH1 0x3 NOT ADD SLT PUSH2 0x1B2 JUMPI DUP1 MLOAD PUSH2 0x82F SWAP2 PUSH2 0x812 DUP3 PUSH2 0x14B9 JUMP JUMPDEST PUSH1 0x6 DUP3 MSTORE PUSH6 0x18D590555315 PUSH1 0xD2 SHL PUSH1 0x20 DUP4 ADD MSTORE MLOAD SWAP2 DUP3 SWAP2 DUP3 PUSH2 0x150B JUMP JUMPDEST SUB SWAP1 RETURN JUMPDEST DUP3 CALLVALUE PUSH2 0x1B2 JUMPI PUSH0 CALLDATASIZE PUSH1 0x3 NOT ADD SLT PUSH2 0x1B2 JUMPI PUSH1 0x20 SWAP1 PUSH2 0x2D5 PUSH2 0x16AB JUMP JUMPDEST DUP3 CALLVALUE PUSH2 0x1B2 JUMPI PUSH0 CALLDATASIZE PUSH1 0x3 NOT ADD SLT PUSH2 0x1B2 JUMPI PUSH1 0x20 SWAP1 PUSH1 0x8 SLOAD SWAP1 MLOAD SWAP1 DUP2 MSTORE RETURN JUMPDEST DUP3 CALLVALUE PUSH2 0x1B2 JUMPI PUSH0 CALLDATASIZE PUSH1 0x3 NOT ADD SLT PUSH2 0x1B2 JUMPI PUSH1 0x20 SWAP1 PUSH1 0x6 SLOAD PUSH1 0x7 SLOAD DUP1 DUP3 GT PUSH0 EQ PUSH2 0x89F JUMPI PUSH2 0x2D5 SWAP2 PUSH2 0x15A8 JUMP JUMPDEST MLOAD SWAP1 DUP2 MSTORE RETURN JUMPDEST POP POP PUSH0 SWAP1 PUSH2 0x899 JUMP JUMPDEST DUP3 CALLVALUE PUSH2 0x1B2 JUMPI PUSH1 0x20 CALLDATASIZE PUSH1 0x3 NOT ADD SLT PUSH2 0x1B2 JUMPI PUSH1 0x1 SLOAD DUP2 MLOAD PUSH4 0x76225679 PUSH1 0xE1 SHL DUP2 MSTORE PUSH1 0x1 PUSH1 0x1 PUSH1 0xA0 SHL SUB SWAP2 PUSH1 0x20 SWAP1 DUP3 SWAP1 DUP7 SWAP1 DUP3 SWAP1 DUP7 AND GAS STATICCALL SWAP1 DUP2 ISZERO PUSH2 0x273 JUMPI PUSH0 SWAP2 PUSH2 0x914 JUMPI JUMPDEST POP AND CALLER SUB PUSH2 0x907 JUMPI PUSH2 0x902 DUP3 CALLDATALOAD PUSH1 0x7 SLOAD PUSH2 0x1587 JUMP JUMPDEST PUSH1 0x7 SSTORE STOP JUMPDEST MLOAD PUSH4 0xE9E3F4AD PUSH1 0xE0 SHL DUP2 MSTORE REVERT JUMPDEST PUSH2 0x92D SWAP2 POP PUSH1 0x20 RETURNDATASIZE PUSH1 0x20 GT PUSH2 0x26C JUMPI PUSH2 0x25E DUP2 DUP4 PUSH2 0x14E9 JUMP JUMPDEST DUP5 PUSH2 0x8ED JUMP JUMPDEST DUP3 CALLVALUE PUSH2 0x1B2 JUMPI PUSH0 CALLDATASIZE PUSH1 0x3 NOT ADD SLT PUSH2 0x1B2 JUMPI PUSH1 0x20 SWAP1 PUSH1 0x9 SLOAD SWAP1 MLOAD SWAP1 DUP2 MSTORE RETURN JUMPDEST DUP3 CALLVALUE PUSH2 0x1B2 JUMPI PUSH0 CALLDATASIZE PUSH1 0x3 NOT ADD SLT PUSH2 0x1B2 JUMPI PUSH1 0x20 SWAP1 PUSH1 0xFF PUSH1 0xA SLOAD PUSH1 0x8 SHR AND SWAP1 MLOAD SWAP1 ISZERO ISZERO DUP2 MSTORE RETURN JUMPDEST DUP3 CALLVALUE PUSH2 0x1B2 JUMPI PUSH1 0x20 CALLDATASIZE PUSH1 0x3 NOT ADD SLT PUSH2 0x1B2 JUMPI PUSH1 0x20 SWAP2 PUSH1 0x1 PUSH1 0x1 PUSH1 0xA0 SHL SUB PUSH2 0x99C PUSH2 0x1552 JUMP JUMPDEST AND PUSH0 MSTORE DUP3 MSTORE DUP1 PUSH0 KECCAK256 SLOAD SWAP1 MLOAD SWAP1 DUP2 MSTORE RETURN JUMPDEST DUP3 CALLVALUE PUSH2 0x1B2 JUMPI PUSH0 CALLDATASIZE PUSH1 0x3 NOT ADD SLT PUSH2 0x1B2 JUMPI MLOAD PUSH32 0x0 PUSH1 0x1 PUSH1 0x1 PUSH1 0xA0 SHL SUB AND DUP2 MSTORE PUSH1 0x20 SWAP1 RETURN JUMPDEST DUP3 CALLVALUE PUSH2 0x1B2 JUMPI PUSH1 0x20 CALLDATASIZE PUSH1 0x3 NOT ADD SLT PUSH2 0x1B2 JUMPI PUSH1 0x20 SWAP1 PUSH2 0x2D5 PUSH2 0xA0F PUSH2 0x1552 JUMP JUMPDEST PUSH2 0x1675 JUMP JUMPDEST DUP3 CALLVALUE PUSH2 0x1B2 JUMPI PUSH0 CALLDATASIZE PUSH1 0x3 NOT ADD SLT PUSH2 0x1B2 JUMPI PUSH1 0x20 SWAP1 PUSH1 0x2 SLOAD SWAP1 MLOAD SWAP1 DUP2 MSTORE RETURN JUMPDEST DUP3 CALLVALUE PUSH2 0x1B2 JUMPI PUSH1 0x20 SWAP1 DUP2 PUSH1 0x3 NOT CALLDATASIZE ADD SLT PUSH2 0x1B2 JUMPI PUSH1 0x1 SLOAD DUP2 MLOAD PUSH4 0x76225679 PUSH1 0xE1 SHL DUP2 MSTORE PUSH1 0x1 PUSH1 0x1 PUSH1 0xA0 SHL SUB SWAP2 DUP3 AND SWAP5 DUP1 CALLDATALOAD SWAP4 SWAP3 SWAP1 SWAP2 DUP6 DUP2 DUP5 DUP2 DUP11 GAS STATICCALL SWAP1 DUP2 ISZERO PUSH2 0x64E JUMPI SWAP1 DUP3 SWAP2 PUSH0 SWAP2 PUSH2 0xC42 JUMPI JUMPDEST POP AND CALLER SUB PUSH2 0xC33 JUMPI DUP3 MLOAD PUSH4 0x1DB04579 PUSH1 0xE1 SHL DUP2 MSTORE DUP3 DUP2 ADD DUP6 SWAP1 MSTORE SWAP1 DUP4 DUP3 PUSH1 0x24 DUP2 DUP11 GAS STATICCALL SWAP2 DUP3 ISZERO PUSH2 0x64E JUMPI PUSH0 SWAP3 PUSH2 0xC02 JUMPI JUMPDEST POP DUP2 PUSH2 0xAE2 JUMPI JUMPDEST PUSH32 0x86C46EFEE0A638B418FA0952CD587C78B75B8BC989E7A7C13A86D448EC34A084 DUP7 DUP7 DUP7 MLOAD SWAP1 DUP2 MSTORE LOG1 STOP JUMPDEST DUP6 DUP4 SWAP5 SWAP8 PUSH2 0xAF2 DUP5 PUSH1 0x6 SLOAD PUSH2 0x15A8 JUMP JUMPDEST PUSH1 0x6 SSTORE DUP9 MLOAD PUSH4 0x61D027B3 PUSH1 0xE0 SHL DUP2 MSTORE SWAP5 DUP6 SWAP2 DUP3 SWAP1 GAS STATICCALL DUP1 ISZERO PUSH2 0xBF8 JUMPI PUSH2 0xB52 SWAP5 DUP8 SWAP5 PUSH0 SWAP3 PUSH2 0xBD7 JUMPI JUMPDEST POP DUP9 MLOAD PUSH4 0xA9059CBB PUSH1 0xE0 SHL DUP2 MSTORE PUSH1 0x1 PUSH1 0x1 PUSH1 0xA0 SHL SUB SWAP1 SWAP3 AND SWAP1 DUP3 ADD SWAP1 DUP2 MSTORE PUSH1 0x20 DUP2 ADD SWAP4 SWAP1 SWAP4 MSTORE SWAP4 DUP5 SWAP3 DUP4 SWAP2 PUSH0 SWAP2 DUP4 SWAP2 PUSH1 0x40 SWAP1 SWAP2 ADD SWAP1 JUMP JUMPDEST SUB SWAP3 PUSH32 0x0 AND GAS CALL SWAP1 DUP2 ISZERO PUSH2 0x64E JUMPI PUSH32 0x86C46EFEE0A638B418FA0952CD587C78B75B8BC989E7A7C13A86D448EC34A084 SWAP5 SWAP2 PUSH2 0xBB2 SWAP2 PUSH0 SWAP2 PUSH2 0xBBA JUMPI POP PUSH2 0x15CD JUMP JUMPDEST DUP5 DUP1 DUP1 PUSH2 0xAB7 JUMP JUMPDEST PUSH2 0xBD1 SWAP2 POP DUP6 RETURNDATASIZE DUP8 GT PUSH2 0x647 JUMPI PUSH2 0x639 DUP2 DUP4 PUSH2 0x14E9 JUMP JUMPDEST DUP7 PUSH2 0x5CB JUMP JUMPDEST PUSH0 SWAP2 SWAP3 POP PUSH2 0xBF1 SWAP1 DUP7 RETURNDATASIZE DUP9 GT PUSH2 0x26C JUMPI PUSH2 0x25E DUP2 DUP4 PUSH2 0x14E9 JUMP JUMPDEST SWAP2 SWAP1 PUSH2 0xB1B JUMP JUMPDEST DUP8 MLOAD RETURNDATASIZE PUSH0 DUP3 RETURNDATACOPY RETURNDATASIZE SWAP1 REVERT JUMPDEST SWAP1 SWAP2 POP DUP4 DUP2 DUP2 RETURNDATASIZE DUP4 GT PUSH2 0xC2C JUMPI JUMPDEST PUSH2 0xC1A DUP2 DUP4 PUSH2 0x14E9 JUMP JUMPDEST DUP2 ADD SUB SLT PUSH2 0x1B2 JUMPI DUP6 ADD MLOAD SWAP1 DUP8 PUSH2 0xAB0 JUMP JUMPDEST POP RETURNDATASIZE PUSH2 0xC10 JUMP JUMPDEST POP SWAP1 MLOAD PUSH4 0xE9E3F4AD PUSH1 0xE0 SHL DUP2 MSTORE REVERT JUMPDEST PUSH2 0xC59 SWAP2 POP DUP8 RETURNDATASIZE DUP10 GT PUSH2 0x26C JUMPI PUSH2 0x25E DUP2 DUP4 PUSH2 0x14E9 JUMP JUMPDEST DUP9 PUSH2 0xA7F JUMP JUMPDEST DUP3 CALLVALUE PUSH2 0x1B2 JUMPI PUSH0 CALLDATASIZE PUSH1 0x3 NOT ADD SLT PUSH2 0x1B2 JUMPI PUSH1 0x20 SWAP1 MLOAD PUSH1 0x6 DUP2 MSTORE RETURN JUMPDEST DUP3 CALLVALUE PUSH2 0x1B2 JUMPI PUSH1 0x20 SWAP1 DUP2 PUSH1 0x3 NOT CALLDATASIZE ADD SLT PUSH2 0x1B2 JUMPI DUP3 CALLDATALOAD PUSH2 0xC98 PUSH2 0x170D JUMP JUMPDEST DUP1 ISZERO PUSH2 0x751 JUMPI CALLER PUSH0 MSTORE PUSH1 0x3 DUP4 MSTORE DUP1 DUP3 PUSH0 KECCAK256 SLOAD LT PUSH2 0xE30 JUMPI PUSH1 0xFF PUSH1 0xA SLOAD AND ISZERO PUSH2 0xE03 JUMPI JUMPDEST PUSH1 0x6 SLOAD SWAP3 PUSH2 0xCC9 DUP5 DUP4 PUSH2 0x1644 JUMP JUMPDEST PUSH2 0xCD6 PUSH1 0x2 SLOAD DUP1 SWAP3 PUSH2 0x1657 JUMP JUMPDEST SWAP5 PUSH1 0x7 SLOAD DUP1 DUP3 GT PUSH0 EQ PUSH2 0xDFB JUMPI PUSH2 0xCEC SWAP2 PUSH2 0x15A8 JUMP JUMPDEST DUP6 GT PUSH2 0xDEB JUMPI DUP5 PUSH2 0xD54 SWAP7 PUSH2 0xD02 DUP6 DUP6 SWAP5 PUSH2 0x15A8 JUMP JUMPDEST PUSH1 0x2 SSTORE CALLER PUSH0 MSTORE PUSH1 0x3 DUP4 MSTORE DUP6 PUSH0 KECCAK256 PUSH2 0xD1A DUP7 DUP3 SLOAD PUSH2 0x15A8 JUMP JUMPDEST SWAP1 SSTORE PUSH2 0xD28 DUP3 PUSH1 0x6 SLOAD PUSH2 0x15A8 JUMP JUMPDEST PUSH1 0x6 SSTORE DUP6 MLOAD PUSH4 0xA9059CBB PUSH1 0xE0 SHL DUP2 MSTORE CALLER SWAP2 DUP2 ADD SWAP2 DUP3 MSTORE PUSH1 0x20 DUP3 ADD SWAP3 SWAP1 SWAP3 MSTORE SWAP1 SWAP7 DUP8 SWAP2 DUP3 SWAP2 PUSH1 0x40 SWAP1 SWAP2 ADD SWAP1 JUMP JUMPDEST SUB DUP2 PUSH0 PUSH32 0x0 PUSH1 0x1 PUSH1 0x1 PUSH1 0xA0 SHL SUB AND GAS CALL SWAP5 DUP6 ISZERO PUSH2 0x273 JUMPI PUSH32 0xF279E6A1F5E320CCA91135676D9CB6E44CA8A08C0B88342BCDB1144F6511B568 SWAP5 SWAP6 PUSH2 0xDBD SWAP2 PUSH0 SWAP2 PUSH2 0xDCE JUMPI POP PUSH2 0x15CD JUMP JUMPDEST DUP3 MLOAD SWAP5 DUP6 MSTORE DUP5 ADD MSTORE CALLER SWAP3 LOG2 PUSH1 0x1 PUSH0 SSTORE STOP JUMPDEST PUSH2 0xDE5 SWAP2 POP DUP4 RETURNDATASIZE DUP6 GT PUSH2 0x647 JUMPI PUSH2 0x639 DUP2 DUP4 PUSH2 0x14E9 JUMP JUMPDEST DUP8 PUSH2 0x5CB JUMP JUMPDEST DUP4 MLOAD PUSH4 0xBB55FD27 PUSH1 0xE0 SHL DUP2 MSTORE DUP7 SWAP1 REVERT JUMPDEST POP POP PUSH0 PUSH2 0xCEC JUMP JUMPDEST CALLER PUSH0 MSTORE DUP4 DUP4 MSTORE PUSH2 0xE19 DUP3 PUSH0 KECCAK256 SLOAD PUSH1 0x5 SLOAD SWAP1 PUSH2 0x1587 JUMP JUMPDEST TIMESTAMP LT ISZERO PUSH2 0xCBB JUMPI DUP2 MLOAD PUSH4 0x54E21BE3 PUSH1 0xE1 SHL DUP2 MSTORE DUP5 SWAP1 REVERT JUMPDEST DUP2 MLOAD PUSH4 0x39996567 PUSH1 0xE0 SHL DUP2 MSTORE DUP5 SWAP1 REVERT JUMPDEST DUP3 CALLVALUE PUSH2 0x1B2 JUMPI PUSH1 0x20 CALLDATASIZE PUSH1 0x3 NOT ADD SLT PUSH2 0x1B2 JUMPI PUSH1 0x20 SWAP1 PUSH2 0xE65 PUSH2 0xE60 PUSH2 0x1552 JUMP JUMPDEST PUSH2 0x160B JUMP JUMPDEST SWAP1 MLOAD SWAP1 ISZERO ISZERO DUP2 MSTORE RETURN JUMPDEST DUP3 CALLVALUE PUSH2 0x1B2 JUMPI PUSH1 0x60 CALLDATASIZE PUSH1 0x3 NOT ADD SLT PUSH2 0x1B2 JUMPI PUSH2 0xE88 PUSH2 0x1552 JUMP JUMPDEST SWAP1 PUSH1 0x24 CALLDATALOAD PUSH1 0x44 CALLDATALOAD SWAP3 PUSH1 0x1 DUP1 PUSH1 0xA0 SHL SUB SWAP2 DUP3 PUSH1 0x1 SLOAD AND DUP5 MLOAD DUP1 SWAP2 PUSH4 0x76225679 PUSH1 0xE1 SHL DUP3 MSTORE DUP2 DUP10 PUSH1 0x20 SWAP5 DUP6 SWAP4 GAS STATICCALL SWAP1 DUP2 ISZERO PUSH2 0x112A JUMPI SWAP1 DUP6 SWAP2 PUSH0 SWAP2 PUSH2 0x110D JUMPI JUMPDEST POP AND CALLER SUB PUSH2 0x10FD JUMPI PUSH1 0x7 SLOAD DUP3 DUP1 DUP3 GT ISZERO PUSH2 0x10F5 JUMPI PUSH2 0xEE2 SWAP2 PUSH2 0x15A8 JUMP JUMPDEST PUSH1 0x7 SSTORE PUSH0 DUP7 SLT PUSH2 0xFFA JUMPI PUSH1 0x6 SLOAD PUSH1 0x7 SLOAD DUP1 DUP3 GT ISZERO PUSH2 0xFF3 JUMPI PUSH2 0xF04 SWAP1 DUP3 PUSH2 0x15A8 JUMP JUMPDEST DUP8 GT PUSH2 0xFE3 JUMPI DUP7 PUSH2 0xF14 SWAP2 PUSH2 0x15A8 JUMP JUMPDEST PUSH1 0x6 SSTORE DUP1 DUP4 PUSH2 0xF23 DUP9 DUP6 PUSH2 0x1587 JUMP JUMPDEST DUP8 MLOAD PUSH4 0xA9059CBB PUSH1 0xE0 SHL DUP2 MSTORE PUSH1 0x1 PUSH1 0x1 PUSH1 0xA0 SHL SUB SWAP1 SWAP3 AND SWAP10 DUP3 ADD SWAP10 DUP11 MSTORE PUSH1 0x20 DUP11 ADD MSTORE SWAP8 DUP9 SWAP1 DUP2 SWAP1 PUSH1 0x40 ADD SUB DUP2 PUSH0 DUP9 PUSH32 0x0 AND GAS CALL SWAP7 DUP8 ISZERO PUSH2 0xFD9 JUMPI PUSH32 0xA9C6720706505784683F09B0975D4F1A78DFDEEBC7FEAD8936439ABD5B96F021 SWAP7 SWAP8 PUSH2 0xFAF SWAP2 PUSH0 SWAP2 PUSH2 0xFBC JUMPI POP PUSH2 0x15CD JUMP JUMPDEST DUP5 MLOAD SWAP7 DUP8 MSTORE DUP7 ADD MSTORE AND SWAP3 LOG2 STOP JUMPDEST PUSH2 0xFD3 SWAP2 POP DUP4 RETURNDATASIZE DUP6 GT PUSH2 0x647 JUMPI PUSH2 0x639 DUP2 DUP4 PUSH2 0x14E9 JUMP JUMPDEST DUP10 PUSH2 0x5CB JUMP JUMPDEST DUP6 MLOAD RETURNDATASIZE PUSH0 DUP3 RETURNDATACOPY RETURNDATASIZE SWAP1 REVERT JUMPDEST DUP6 MLOAD PUSH4 0xBB55FD27 PUSH1 0xE0 SHL DUP2 MSTORE DUP9 SWAP1 REVERT JUMPDEST POP PUSH0 PUSH2 0xF04 JUMP JUMPDEST PUSH1 0x1 PUSH1 0xFF SHL DUP7 EQ PUSH2 0x6BF JUMPI PUSH0 DUP7 SWAP1 SUB DUP3 DUP2 LT PUSH2 0x1049 JUMPI POP PUSH32 0xA9C6720706505784683F09B0975D4F1A78DFDEEBC7FEAD8936439ABD5B96F021 SWAP6 SWAP7 POP PUSH2 0x1041 DUP3 PUSH1 0x6 SLOAD PUSH2 0x1587 JUMP JUMPDEST PUSH1 0x6 SSTORE PUSH2 0xFAF JUMP JUMPDEST DUP4 PUSH2 0x1064 DUP3 PUSH2 0x105B DUP6 SWAP5 PUSH1 0x6 SLOAD PUSH2 0x1587 JUMP JUMPDEST PUSH1 0x6 SSTORE DUP6 PUSH2 0x15A8 JUMP JUMPDEST DUP8 MLOAD PUSH4 0xA9059CBB PUSH1 0xE0 SHL DUP2 MSTORE PUSH1 0x1 PUSH1 0x1 PUSH1 0xA0 SHL SUB SWAP1 SWAP3 AND SWAP10 DUP3 ADD SWAP10 DUP11 MSTORE PUSH1 0x20 DUP11 ADD MSTORE SWAP8 DUP9 SWAP1 DUP2 SWAP1 PUSH1 0x40 ADD SUB DUP2 PUSH0 DUP9 PUSH32 0x0 AND GAS CALL SWAP7 DUP8 ISZERO PUSH2 0xFD9 JUMPI PUSH32 0xA9C6720706505784683F09B0975D4F1A78DFDEEBC7FEAD8936439ABD5B96F021 SWAP7 SWAP8 PUSH2 0x10F0 SWAP2 PUSH0 SWAP2 PUSH2 0xFBC JUMPI POP PUSH2 0x15CD JUMP JUMPDEST PUSH2 0xFAF JUMP JUMPDEST POP POP PUSH0 PUSH2 0xEE2 JUMP JUMPDEST DUP5 MLOAD PUSH4 0xE9E3F4AD PUSH1 0xE0 SHL DUP2 MSTORE DUP8 SWAP1 REVERT JUMPDEST PUSH2 0x1124 SWAP2 POP DUP4 RETURNDATASIZE DUP6 GT PUSH2 0x26C JUMPI PUSH2 0x25E DUP2 DUP4 PUSH2 0x14E9 JUMP JUMPDEST DUP10 PUSH2 0xEC5 JUMP JUMPDEST DUP7 MLOAD RETURNDATASIZE PUSH0 DUP3 RETURNDATACOPY RETURNDATASIZE SWAP1 REVERT JUMPDEST DUP3 CALLVALUE PUSH2 0x1B2 JUMPI DUP1 PUSH1 0x3 NOT CALLDATASIZE ADD SLT PUSH2 0x1B2 JUMPI PUSH1 0x1 SLOAD DUP2 MLOAD PUSH4 0x8DA5CB5B PUSH1 0xE0 SHL DUP2 MSTORE PUSH1 0x1 PUSH1 0x1 PUSH1 0xA0 SHL SUB SWAP2 PUSH1 0x20 SWAP1 DUP3 SWAP1 DUP7 SWAP1 DUP3 SWAP1 DUP7 AND GAS STATICCALL SWAP1 DUP2 ISZERO PUSH2 0x273 JUMPI PUSH0 SWAP2 PUSH2 0x118D JUMPI JUMPDEST POP AND CALLER SUB PUSH2 0x237 JUMPI POP CALLDATALOAD PUSH1 0x8 SSTORE PUSH1 0x24 CALLDATALOAD PUSH1 0x9 SSTORE STOP JUMPDEST PUSH2 0x11A6 SWAP2 POP PUSH1 0x20 RETURNDATASIZE PUSH1 0x20 GT PUSH2 0x26C JUMPI PUSH2 0x25E DUP2 DUP4 PUSH2 0x14E9 JUMP JUMPDEST DUP5 PUSH2 0x1178 JUMP JUMPDEST SWAP1 POP CALLVALUE PUSH2 0x1B2 JUMPI PUSH1 0x80 CALLDATASIZE PUSH1 0x3 NOT ADD SLT PUSH2 0x1B2 JUMPI PUSH2 0x11C7 PUSH2 0x1552 JUMP JUMPDEST PUSH1 0x24 CALLDATALOAD SWAP3 PUSH1 0x1 PUSH1 0x1 PUSH1 0xA0 SHL SUB DUP1 DUP6 AND SWAP4 SWAP3 DUP5 DUP7 SUB PUSH2 0x1B2 JUMPI PUSH1 0x44 CALLDATALOAD SWAP4 PUSH1 0x64 CALLDATALOAD SWAP1 DUP4 PUSH1 0x1 SLOAD AND SWAP1 DUP6 MLOAD DUP1 SWAP3 PUSH4 0x76225679 PUSH1 0xE1 SHL DUP3 MSTORE DUP2 DUP4 PUSH1 0x20 SWAP6 DUP7 SWAP4 GAS STATICCALL SWAP1 DUP2 ISZERO PUSH2 0xBF8 JUMPI SWAP1 DUP7 SWAP2 PUSH0 SWAP2 PUSH2 0x1351 JUMPI JUMPDEST POP AND CALLER SUB PUSH2 0x1343 JUMPI PUSH1 0x7 SLOAD DUP8 DUP1 DUP3 GT ISZERO PUSH2 0x133B JUMPI PUSH2 0x1232 SWAP2 PUSH2 0x15A8 JUMP JUMPDEST PUSH1 0x7 SSTORE PUSH2 0x124A PUSH2 0x1242 DUP5 DUP10 PUSH2 0x15A8 JUMP JUMPDEST PUSH1 0x6 SLOAD PUSH2 0x1587 JUMP JUMPDEST PUSH1 0x6 SSTORE DUP3 PUSH2 0x1286 JUMPI JUMPDEST POP PUSH32 0x3046BB5FB86890E6F3C32D7527B763C83EE73588C10F9533662078355CC634FA SWAP6 SWAP7 SWAP8 POP DUP5 MLOAD SWAP7 DUP8 MSTORE DUP7 ADD MSTORE AND SWAP3 LOG3 STOP JUMPDEST DUP6 MLOAD PUSH4 0xA9059CBB PUSH1 0xE0 SHL DUP2 MSTORE PUSH1 0x1 PUSH1 0x1 PUSH1 0xA0 SHL SUB SWAP1 SWAP10 AND SWAP1 DUP10 ADD SWAP1 DUP2 MSTORE PUSH1 0x20 DUP2 ADD DUP4 SWAP1 MSTORE DUP2 SWAP1 DUP10 SWAP1 DUP2 SWAP1 PUSH1 0x40 ADD SUB DUP2 PUSH0 DUP9 PUSH32 0x0 AND GAS CALL SWAP8 DUP9 ISZERO PUSH2 0xFD9 JUMPI PUSH32 0x3046BB5FB86890E6F3C32D7527B763C83EE73588C10F9533662078355CC634FA SWAP7 SWAP8 SWAP9 PUSH2 0x1316 SWAP2 PUSH0 SWAP2 PUSH2 0x131E JUMPI POP PUSH2 0x15CD JUMP JUMPDEST DUP8 SWAP7 SWAP6 PUSH2 0x1253 JUMP JUMPDEST PUSH2 0x1335 SWAP2 POP DUP4 RETURNDATASIZE DUP6 GT PUSH2 0x647 JUMPI PUSH2 0x639 DUP2 DUP4 PUSH2 0x14E9 JUMP JUMPDEST PUSH0 PUSH2 0x5CB JUMP JUMPDEST POP POP PUSH0 PUSH2 0x1232 JUMP JUMPDEST DUP6 MLOAD PUSH4 0xE9E3F4AD PUSH1 0xE0 SHL DUP2 MSTORE REVERT JUMPDEST PUSH2 0x1368 SWAP2 POP DUP5 RETURNDATASIZE DUP7 GT PUSH2 0x26C JUMPI PUSH2 0x25E DUP2 DUP4 PUSH2 0x14E9 JUMP JUMPDEST PUSH0 PUSH2 0x1215 JUMP JUMPDEST DUP3 CALLVALUE PUSH2 0x1B2 JUMPI PUSH0 CALLDATASIZE PUSH1 0x3 NOT ADD SLT PUSH2 0x1B2 JUMPI PUSH1 0x20 SWAP1 PUSH1 0xFF PUSH1 0xA SLOAD AND SWAP1 MLOAD SWAP1 ISZERO ISZERO DUP2 MSTORE RETURN JUMPDEST DUP3 CALLVALUE PUSH2 0x1B2 JUMPI PUSH0 CALLDATASIZE PUSH1 0x3 NOT ADD SLT PUSH2 0x1B2 JUMPI DUP1 MLOAD PUSH2 0x82F SWAP2 PUSH2 0x13B1 DUP3 PUSH2 0x14B9 JUMP JUMPDEST PUSH1 0x18 DUP3 MSTORE PUSH32 0x436F6E666964656E7469616C205661756C742053686172650000000000000000 PUSH1 0x20 DUP4 ADD MSTORE MLOAD SWAP2 DUP3 SWAP2 DUP3 PUSH2 0x150B JUMP JUMPDEST DUP3 CALLVALUE PUSH2 0x1B2 JUMPI PUSH1 0x20 CALLDATASIZE PUSH1 0x3 NOT ADD SLT PUSH2 0x1B2 JUMPI PUSH1 0x1 SLOAD DUP2 MLOAD PUSH4 0x76225679 PUSH1 0xE1 SHL DUP2 MSTORE DUP4 CALLDATALOAD SWAP4 SWAP2 PUSH1 0x1 PUSH1 0x1 PUSH1 0xA0 SHL SUB SWAP2 SWAP1 PUSH1 0x20 SWAP1 DUP3 SWAP1 DUP6 SWAP1 DUP3 SWAP1 DUP7 AND GAS STATICCALL SWAP1 DUP2 ISZERO PUSH2 0x64E JUMPI PUSH0 SWAP2 PUSH2 0x1480 JUMPI JUMPDEST POP AND CALLER SUB PUSH2 0x1472 JUMPI PUSH32 0x86C46EFEE0A638B418FA0952CD587C78B75B8BC989E7A7C13A86D448EC34A084 PUSH1 0x20 DUP5 DUP5 PUSH2 0x1468 DUP3 PUSH1 0x6 SLOAD PUSH2 0x1587 JUMP JUMPDEST PUSH1 0x6 SSTORE MLOAD SWAP1 DUP2 MSTORE LOG1 STOP JUMPDEST SWAP1 MLOAD PUSH4 0xE9E3F4AD PUSH1 0xE0 SHL DUP2 MSTORE REVERT JUMPDEST PUSH2 0x1499 SWAP2 POP PUSH1 0x20 RETURNDATASIZE PUSH1 0x20 GT PUSH2 0x26C JUMPI PUSH2 0x25E DUP2 DUP4 PUSH2 0x14E9 JUMP JUMPDEST DUP6 PUSH2 0x142F JUMP JUMPDEST CALLVALUE PUSH2 0x1B2 JUMPI PUSH0 CALLDATASIZE PUSH1 0x3 NOT ADD SLT PUSH2 0x1B2 JUMPI PUSH1 0x20 SWAP1 PUSH1 0x6 SLOAD DUP2 MSTORE RETURN JUMPDEST PUSH1 0x40 DUP2 ADD SWAP1 DUP2 LT PUSH8 0xFFFFFFFFFFFFFFFF DUP3 GT OR PUSH2 0x14D5 JUMPI PUSH1 0x40 MSTORE JUMP JUMPDEST PUSH4 0x4E487B71 PUSH1 0xE0 SHL PUSH0 MSTORE PUSH1 0x41 PUSH1 0x4 MSTORE PUSH1 0x24 PUSH0 REVERT JUMPDEST SWAP1 PUSH1 0x1F DUP1 NOT SWAP2 ADD AND DUP2 ADD SWAP1 DUP2 LT PUSH8 0xFFFFFFFFFFFFFFFF DUP3 GT OR PUSH2 0x14D5 JUMPI PUSH1 0x40 MSTORE JUMP JUMPDEST PUSH1 0x20 DUP1 DUP3 MSTORE DUP3 MLOAD DUP2 DUP4 ADD DUP2 SWAP1 MSTORE SWAP1 SWAP4 SWAP3 PUSH0 JUMPDEST DUP3 DUP2 LT PUSH2 0x153E JUMPI POP POP PUSH1 0x40 SWAP3 SWAP4 POP PUSH0 DUP4 DUP3 DUP5 ADD ADD MSTORE PUSH1 0x1F DUP1 NOT SWAP2 ADD AND ADD ADD SWAP1 JUMP JUMPDEST DUP2 DUP2 ADD DUP7 ADD MLOAD DUP5 DUP3 ADD PUSH1 0x40 ADD MSTORE DUP6 ADD PUSH2 0x151D JUMP JUMPDEST PUSH1 0x4 CALLDATALOAD SWAP1 PUSH1 0x1 PUSH1 0x1 PUSH1 0xA0 SHL SUB DUP3 AND DUP3 SUB PUSH2 0x1B2 JUMPI JUMP JUMPDEST SWAP1 DUP2 PUSH1 0x20 SWAP2 SUB SLT PUSH2 0x1B2 JUMPI MLOAD PUSH1 0x1 PUSH1 0x1 PUSH1 0xA0 SHL SUB DUP2 AND DUP2 SUB PUSH2 0x1B2 JUMPI SWAP1 JUMP JUMPDEST SWAP2 SWAP1 DUP3 ADD DUP1 SWAP3 GT PUSH2 0x1594 JUMPI JUMP JUMPDEST PUSH4 0x4E487B71 PUSH1 0xE0 SHL PUSH0 MSTORE PUSH1 0x11 PUSH1 0x4 MSTORE PUSH1 0x24 PUSH0 REVERT JUMPDEST SWAP2 SWAP1 DUP3 SUB SWAP2 DUP3 GT PUSH2 0x1594 JUMPI JUMP JUMPDEST SWAP1 DUP2 PUSH1 0x20 SWAP2 SUB SLT PUSH2 0x1B2 JUMPI MLOAD DUP1 ISZERO ISZERO DUP2 SUB PUSH2 0x1B2 JUMPI SWAP1 JUMP JUMPDEST ISZERO PUSH2 0x15D4 JUMPI JUMP JUMPDEST PUSH1 0x40 MLOAD PUSH3 0x461BCD PUSH1 0xE5 SHL DUP2 MSTORE PUSH1 0x20 PUSH1 0x4 DUP3 ADD MSTORE PUSH1 0xF PUSH1 0x24 DUP3 ADD MSTORE PUSH15 0x151C985B9CD9995C8819985A5B1959 PUSH1 0x8A SHL PUSH1 0x44 DUP3 ADD MSTORE PUSH1 0x64 SWAP1 REVERT JUMPDEST PUSH1 0xFF PUSH1 0xA SLOAD AND PUSH2 0x163E JUMPI PUSH1 0x1 PUSH1 0x1 PUSH1 0xA0 SHL SUB AND PUSH0 SWAP1 DUP2 MSTORE PUSH1 0x4 PUSH1 0x20 MSTORE PUSH1 0x40 SWAP1 KECCAK256 SLOAD PUSH1 0x5 SLOAD PUSH2 0x1638 SWAP2 PUSH2 0x1587 JUMP JUMPDEST TIMESTAMP LT ISZERO SWAP1 JUMP JUMPDEST POP PUSH1 0x1 SWAP1 JUMP JUMPDEST DUP2 DUP2 MUL SWAP3 SWAP2 DUP2 ISZERO SWAP2 DUP5 DIV EQ OR ISZERO PUSH2 0x1594 JUMPI JUMP JUMPDEST DUP2 ISZERO PUSH2 0x1661 JUMPI DIV SWAP1 JUMP JUMPDEST PUSH4 0x4E487B71 PUSH1 0xE0 SHL PUSH0 MSTORE PUSH1 0x12 PUSH1 0x4 MSTORE PUSH1 0x24 PUSH0 REVERT JUMPDEST PUSH1 0x2 SLOAD DUP1 ISZERO PUSH2 0x16A5 JUMPI PUSH2 0x16A2 SWAP2 PUSH1 0x1 DUP1 PUSH1 0xA0 SHL SUB AND PUSH0 MSTORE PUSH1 0x3 PUSH1 0x20 MSTORE PUSH2 0x533 PUSH1 0x40 PUSH0 KECCAK256 SLOAD PUSH1 0x6 SLOAD SWAP1 PUSH2 0x1644 JUMP JUMPDEST SWAP1 JUMP JUMPDEST POP POP PUSH0 SWAP1 JUMP JUMPDEST PUSH1 0x2 SLOAD DUP1 ISZERO PUSH2 0x16D6 JUMPI PUSH1 0x6 SLOAD SWAP1 PUSH3 0xF4240 SWAP2 DUP3 DUP2 MUL SWAP3 DUP2 DUP5 DIV EQ SWAP1 ISZERO OR ISZERO PUSH2 0x1594 JUMPI PUSH2 0x16A2 SWAP2 PUSH2 0x1657 JUMP JUMPDEST POP PUSH3 0xF4240 SWAP1 JUMP JUMPDEST PUSH1 0x6 SLOAD DUP1 ISZERO PUSH2 0x1708 JUMPI PUSH1 0x7 SLOAD SWAP1 PUSH2 0x2710 SWAP2 DUP3 DUP2 MUL SWAP3 DUP2 DUP5 DIV EQ SWAP1 ISZERO OR ISZERO PUSH2 0x1594 JUMPI PUSH2 0x16A2 SWAP2 PUSH2 0x1657 JUMP JUMPDEST POP PUSH0 SWAP1 JUMP JUMPDEST PUSH1 0x2 PUSH0 SLOAD EQ PUSH2 0x171C JUMPI PUSH1 0x2 PUSH0 SSTORE JUMP JUMPDEST PUSH1 0x40 MLOAD PUSH4 0x3EE5AEB5 PUSH1 0xE0 SHL DUP2 MSTORE PUSH1 0x4 SWAP1 REVERT INVALID LOG2 PUSH5 0x6970667358 0x22 SLT KECCAK256 BASEFEE DUP10 SHL SWAP6 MCOPY KECCAK256 PREVRANDAO ISZERO JUMPI SWAP2 SWAP1 0x4E DUP15 LOG0 0xF 0xB4 SLT PUSH26 0x3669E30411C55971650622E759D264736F6C6343000818003300 "},"methodIdentifiers":{"MINIMUM_LIQUIDITY()":"ba9a7a56","availableLiquidity()":"74375359","balanceOfUnderlying(address)":"3af9e669","canWithdraw(address)":"19262d30","core()":"f2f4eb26","decimals()":"313ce567","deposit(uint256)":"b6b55f25","depositTimestamp(address)":"46b00d04","depositsEnabled()":"5392fd1c","disableEmergencyMode()":"ef952568","distributeClosingFee(uint256)":"35b8e713","emergencyMode()":"0905f560","enableEmergencyMode()":"c5b1c7d0","lockupPeriod()":"ee947a7c","maxDepositPerUser()":"82e5310c","maxTotalDeposits()":"61b01b5d","name()":"06fdde03","receiveFees(uint256)":"0420592e","reserveBacking(uint256)":"6e93ae2b","setDepositCaps(uint256,uint256)":"0bfedc8c","setDepositsEnabled(bool)":"9f04586c","setLockupPeriod(uint256)":"c771c390","settleLiquidation(address,address,uint256,uint256)":"09c0533b","settlePosition(address,uint256,int256)":"118f3043","sharePrice()":"87269729","shares(address)":"ce7c2ac2","symbol()":"95d89b41","totalAssets()":"01e1d114","totalBacking()":"eb2cd258","totalShares()":"3a98ef39","usdc()":"3e413bee","utilization()":"ea21cd92","withdraw(uint256)":"2e1a7d4d"}}}}}