{"project/src/PythPriceOracle.sol":{"PythPriceOracle":{"abi":[{"inputs":[{"internalType":"address","name":"_pyth","type":"address"}],"stateMutability":"nonpayable","type":"constructor"},{"inputs":[],"name":"OnlyOwner","type":"error"},{"inputs":[],"name":"PriceFeedNotSet","type":"error"},{"inputs":[],"name":"StalePrice","type":"error"},{"anonymous":false,"inputs":[{"indexed":false,"internalType":"uint256","name":"newMaxStaleness","type":"uint256"}],"name":"MaxStalenessUpdated","type":"event"},{"anonymous":false,"inputs":[{"indexed":true,"internalType":"address","name":"prev","type":"address"},{"indexed":true,"internalType":"address","name":"next","type":"address"}],"name":"OwnershipTransferred","type":"event"},{"anonymous":false,"inputs":[{"indexed":true,"internalType":"bytes32","name":"pairId","type":"bytes32"},{"indexed":false,"internalType":"bytes32","name":"pythFeedId","type":"bytes32"}],"name":"PriceFeedSet","type":"event"},{"inputs":[{"internalType":"bytes32","name":"pairId","type":"bytes32"}],"name":"getPrice","outputs":[{"internalType":"uint256","name":"price","type":"uint256"},{"internalType":"uint256","name":"publishTime","type":"uint256"}],"stateMutability":"view","type":"function"},{"inputs":[{"internalType":"bytes32","name":"pairId","type":"bytes32"}],"name":"isPriceStale","outputs":[{"internalType":"bool","name":"","type":"bool"}],"stateMutability":"view","type":"function"},{"inputs":[],"name":"maxStaleness","outputs":[{"internalType":"uint256","name":"","type":"uint256"}],"stateMutability":"view","type":"function"},{"inputs":[],"name":"owner","outputs":[{"internalType":"address","name":"","type":"address"}],"stateMutability":"view","type":"function"},{"inputs":[{"internalType":"bytes32","name":"","type":"bytes32"}],"name":"priceFeedIds","outputs":[{"internalType":"bytes32","name":"","type":"bytes32"}],"stateMutability":"view","type":"function"},{"inputs":[],"name":"pyth","outputs":[{"internalType":"contract IPyth","name":"","type":"address"}],"stateMutability":"view","type":"function"},{"inputs":[{"internalType":"uint256","name":"_seconds","type":"uint256"}],"name":"setMaxStaleness","outputs":[],"stateMutability":"nonpayable","type":"function"},{"inputs":[{"internalType":"bytes32","name":"pairId","type":"bytes32"},{"internalType":"bytes32","name":"pythFeedId","type":"bytes32"}],"name":"setPriceFeed","outputs":[],"stateMutability":"nonpayable","type":"function"},{"inputs":[{"internalType":"bytes32[]","name":"pairIds","type":"bytes32[]"},{"internalType":"bytes32[]","name":"pythFeedIds","type":"bytes32[]"}],"name":"setPriceFeedsBatch","outputs":[],"stateMutability":"nonpayable","type":"function"},{"inputs":[{"internalType":"address","name":"newOwner","type":"address"}],"name":"transferOwnership","outputs":[],"stateMutability":"nonpayable","type":"function"},{"inputs":[{"internalType":"bytes[]","name":"updateData","type":"bytes[]"}],"name":"updatePriceFeeds","outputs":[],"stateMutability":"payable","type":"function"}],"evm":{"bytecode":{"linkReferences":{},"object":"60a03461009657601f610ba138819003918201601f19168301916001600160401b0383118484101761009a5780849260209460405283398101031261009657516001600160a01b0381169081900361009657603c6001556080525f80546001600160a01b03191633179055604051610af290816100af823960805181818160ad015281816101a20152818161053601526109b60152f35b5f80fd5b634e487b7160e01b5f52604160045260245ffdfe6080604081815260049182361015610015575f80fd5b5f925f3560e01c9182629591f5146107dc57508163100bc9e11461077757816331d98b3f146104e85781633d7d3294146104c15781633f3a3f401461039d57816387cf46961461037f5781638da5cb5b14610358578163dffc0aa614610331578163ef9e5e2814610165578163f2fde38b146100e0575063f98d06f01461009a575f80fd5b346100dc57816003193601126100dc57517f00000000000000000000000000000000000000000000000000000000000000006001600160a01b03168152602090f35b5080fd5b905034610161576020366003190112610161576001600160a01b0381358181169391929084900361015d5784549283169182330361015057505082907f8be0079c531659141344cd1fd0a4f28419497f9722a3daafe3b4186f6b6457e08580a36001600160a01b03191617815580f35b51635fc483c560e01b8152fd5b8480fd5b8280fd5b90506020806003193601126102bf5767ffffffffffffffff82358181116102bf57610193903690850161084c565b855163d47eed4560e01b8152937f00000000000000000000000000000000000000000000000000000000000000006001600160a01b0316939291908086806101de85878c8401610a1a565b0381885afa958615610327575f966102f8575b508534106102c35750833b156102bf57610222935f92868951809781958294631df3cbc560e31b84528c8401610a1a565b03925af180156102b55761028d575b505080341161023e578380f35b8034039134831161027a575083808093819382903414610271575b3390f1156102675780808380f35b51903d90823e3d90fd5b506108fc610259565b634e487b7160e01b855260119052602484fd5b9080929550116102a25782525f925f80610231565b604182634e487b7160e01b5f525260245ffd5b85513d5f823e3d90fd5b5f80fd5b8660649189519162461bcd60e51b8352820152601060248201526f496e73756666696369656e742066656560801b6044820152fd5b9080965081813d8311610320575b610310818361087d565b810103126102bf5751945f6101f1565b503d610306565b88513d5f823e3d90fd5b82346102bf5760203660031901126102bf5761034f6020923561097f565b90519015158152f35b82346102bf575f3660031901126102bf575f5490516001600160a01b039091168152602090f35b82346102bf575f3660031901126102bf576020906001549051908152f35b82346102bf57806003193601126102bf5767ffffffffffffffff9180358381116102bf576103ce903690830161084c565b90936024359081116102bf576103e7903690840161084c565b5f5490959193906001600160a01b031633036104b35785830361047e57505f5b82811061041057005b8061041e600192888761095b565b3561042a82868661095b565b355f5260209060028252875f20557fd535b46df135cf99612eae06ed421848b3208d647b0d241eb6d230a4cd382a7061046483878761095b565b3591610471848b8a61095b565b358951908152a201610407565b606490602086519162461bcd60e51b8352820152600f60248201526e098cadccee8d040dad2e6dac2e8c6d608b1b6044820152fd5b8451635fc483c560e01b8152fd5b82346102bf5760203660031901126102bf57602091355f5260028252805f20549051908152f35b9050346102bf576020806003193601126102bf5781355f5260028152825f205491821561076957600154845163052571af60e51b8152828101949094526024808501919091526080846044817f00000000000000000000000000000000000000000000000000000000000000006001600160a01b03165afa9384156102b5575f94610738575b505f845160070b13156106ff5767ffffffffffffffff9060648285870151160282811690810361069957828651169081156106ed5760019184910416116106ac57848601805190929060030b5f811261061057508551169263ffffffff809351166012019283116105ff5750506060916105ea6105f092610920565b90610948565b925b0151908351928352820152f35b601190634e487b7160e01b5f52525ffd5b909250637fffffff198114610699575f0363ffffffff9081169390926012851161065957865116936012039283116105ff5750506060916105ea61065392610920565b926105f2565b8694939194511692601119019081116106995761067590610920565b92831561068857505004916060906105f2565b601290634e487b7160e01b5f52525ffd5b50634e487b7160e01b5f90815260118452fd5b601a915060649386519362461bcd60e51b85528401528201527f4f7261636c6520636f6e666964656e636520746f6f20776964650000000000006044820152fd5b82601286634e487b7160e01b5f52525ffd5b60169060649386519362461bcd60e51b855284015282015275496e76616c6964206e6567617469766520707269636560501b6044820152fd5b61075b91945060803d608011610762575b610753818361087d565b8101906108b3565b928561056e565b503d610749565b8351637e68a04560e01b8152fd5b82346102bf5760203660031901126102bf575f54823592906001600160a01b031633036107ce577f64a4703c7c168827058126cbd2e71d8d0f026afa821e7dff1480173dffdd3895602084848160015551908152a1005b9051635fc483c560e01b8152fd5b83346102bf57806003193601126102bf575f548335936024359390916001600160a01b0316330361084057847fd535b46df135cf99612eae06ed421848b3208d647b0d241eb6d230a4cd382a7060208686845f526002835281815f205551908152a2005b635fc483c560e01b8152fd5b9181601f840112156102bf5782359167ffffffffffffffff83116102bf576020808501948460051b0101116102bf57565b90601f8019910116810190811067ffffffffffffffff82111761089f57604052565b634e487b7160e01b5f52604160045260245ffd5b908160809103126102bf576040519067ffffffffffffffff608083018181118482101761089f5760405281518060070b81036102bf578352602082015190811681036102bf5760208301526040810151908160030b82036102bf5760609160408401520151606082015290565b63ffffffff16604d811161093457600a0a90565b634e487b7160e01b5f52601160045260245ffd5b8181029291811591840414171561093457565b919081101561096b5760051b0190565b634e487b7160e01b5f52603260045260245ffd5b5f52600260205260405f20548015610a145760015460405163052571af60e51b8152600481019290925260248201526080816044817f00000000000000000000000000000000000000000000000000000000000000006001600160a01b03165afa90816109f5575b506109f157600190565b5f90565b610a0d9060803d60801161076257610753818361087d565b505f6109e7565b50600190565b9160208181850182865252604084019360408360051b82010194845f925b858410610a49575050505050505090565b90919293949596603f198282030184528735601e19843603018112156102bf57830186810191903567ffffffffffffffff81116102bf5780360383136102bf5787828280600196849695859652848401375f828201840152601f01601f1916010199019796959190910193019190610a3856fea2646970667358221220f7c59135420c48e7cab2f1dbeedb669fbec870b9cdfeb136f576b104091933cf64736f6c63430008180033","opcodes":"PUSH1 0xA0 CALLVALUE PUSH2 0x96 JUMPI PUSH1 0x1F PUSH2 0xBA1 CODESIZE DUP2 SWAP1 SUB SWAP2 DUP3 ADD PUSH1 0x1F NOT AND DUP4 ADD SWAP2 PUSH1 0x1 PUSH1 0x1 PUSH1 0x40 SHL SUB DUP4 GT DUP5 DUP5 LT OR PUSH2 0x9A JUMPI DUP1 DUP5 SWAP3 PUSH1 0x20 SWAP5 PUSH1 0x40 MSTORE DUP4 CODECOPY DUP2 ADD SUB SLT PUSH2 0x96 JUMPI MLOAD PUSH1 0x1 PUSH1 0x1 PUSH1 0xA0 SHL SUB DUP2 AND SWAP1 DUP2 SWAP1 SUB PUSH2 0x96 JUMPI PUSH1 0x3C PUSH1 0x1 SSTORE PUSH1 0x80 MSTORE PUSH0 DUP1 SLOAD PUSH1 0x1 PUSH1 0x1 PUSH1 0xA0 SHL SUB NOT AND CALLER OR SWAP1 SSTORE PUSH1 0x40 MLOAD PUSH2 0xAF2 SWAP1 DUP2 PUSH2 0xAF DUP3 CODECOPY PUSH1 0x80 MLOAD DUP2 DUP2 DUP2 PUSH1 0xAD ADD MSTORE DUP2 DUP2 PUSH2 0x1A2 ADD MSTORE DUP2 DUP2 PUSH2 0x536 ADD MSTORE PUSH2 0x9B6 ADD MSTORE RETURN JUMPDEST PUSH0 DUP1 REVERT JUMPDEST PUSH4 0x4E487B71 PUSH1 0xE0 SHL PUSH0 MSTORE PUSH1 0x41 PUSH1 0x4 MSTORE PUSH1 0x24 PUSH0 REVERT INVALID PUSH1 0x80 PUSH1 0x40 DUP2 DUP2 MSTORE PUSH1 0x4 SWAP2 DUP3 CALLDATASIZE LT ISZERO PUSH2 0x15 JUMPI PUSH0 DUP1 REVERT JUMPDEST PUSH0 SWAP3 PUSH0 CALLDATALOAD PUSH1 0xE0 SHR SWAP2 DUP3 PUSH3 0x9591F5 EQ PUSH2 0x7DC JUMPI POP DUP2 PUSH4 0x100BC9E1 EQ PUSH2 0x777 JUMPI DUP2 PUSH4 0x31D98B3F EQ PUSH2 0x4E8 JUMPI DUP2 PUSH4 0x3D7D3294 EQ PUSH2 0x4C1 JUMPI DUP2 PUSH4 0x3F3A3F40 EQ PUSH2 0x39D JUMPI DUP2 PUSH4 0x87CF4696 EQ PUSH2 0x37F JUMPI DUP2 PUSH4 0x8DA5CB5B EQ PUSH2 0x358 JUMPI DUP2 PUSH4 0xDFFC0AA6 EQ PUSH2 0x331 JUMPI DUP2 PUSH4 0xEF9E5E28 EQ PUSH2 0x165 JUMPI DUP2 PUSH4 0xF2FDE38B EQ PUSH2 0xE0 JUMPI POP PUSH4 0xF98D06F0 EQ PUSH2 0x9A JUMPI PUSH0 DUP1 REVERT JUMPDEST CALLVALUE PUSH2 0xDC JUMPI DUP2 PUSH1 0x3 NOT CALLDATASIZE ADD SLT PUSH2 0xDC JUMPI MLOAD PUSH32 0x0 PUSH1 0x1 PUSH1 0x1 PUSH1 0xA0 SHL SUB AND DUP2 MSTORE PUSH1 0x20 SWAP1 RETURN JUMPDEST POP DUP1 REVERT JUMPDEST SWAP1 POP CALLVALUE PUSH2 0x161 JUMPI PUSH1 0x20 CALLDATASIZE PUSH1 0x3 NOT ADD SLT PUSH2 0x161 JUMPI PUSH1 0x1 PUSH1 0x1 PUSH1 0xA0 SHL SUB DUP2 CALLDATALOAD DUP2 DUP2 AND SWAP4 SWAP2 SWAP3 SWAP1 DUP5 SWAP1 SUB PUSH2 0x15D JUMPI DUP5 SLOAD SWAP3 DUP4 AND SWAP2 DUP3 CALLER SUB PUSH2 0x150 JUMPI POP POP DUP3 SWAP1 PUSH32 0x8BE0079C531659141344CD1FD0A4F28419497F9722A3DAAFE3B4186F6B6457E0 DUP6 DUP1 LOG3 PUSH1 0x1 PUSH1 0x1 PUSH1 0xA0 SHL SUB NOT AND OR DUP2 SSTORE DUP1 RETURN JUMPDEST MLOAD PUSH4 0x5FC483C5 PUSH1 0xE0 SHL DUP2 MSTORE REVERT JUMPDEST DUP5 DUP1 REVERT JUMPDEST DUP3 DUP1 REVERT JUMPDEST SWAP1 POP PUSH1 0x20 DUP1 PUSH1 0x3 NOT CALLDATASIZE ADD SLT PUSH2 0x2BF JUMPI PUSH8 0xFFFFFFFFFFFFFFFF DUP3 CALLDATALOAD DUP2 DUP2 GT PUSH2 0x2BF JUMPI PUSH2 0x193 SWAP1 CALLDATASIZE SWAP1 DUP6 ADD PUSH2 0x84C JUMP JUMPDEST DUP6 MLOAD PUSH4 0xD47EED45 PUSH1 0xE0 SHL DUP2 MSTORE SWAP4 PUSH32 0x0 PUSH1 0x1 PUSH1 0x1 PUSH1 0xA0 SHL SUB AND SWAP4 SWAP3 SWAP2 SWAP1 DUP1 DUP7 DUP1 PUSH2 0x1DE DUP6 DUP8 DUP13 DUP5 ADD PUSH2 0xA1A JUMP JUMPDEST SUB DUP2 DUP9 GAS STATICCALL SWAP6 DUP7 ISZERO PUSH2 0x327 JUMPI PUSH0 SWAP7 PUSH2 0x2F8 JUMPI JUMPDEST POP DUP6 CALLVALUE LT PUSH2 0x2C3 JUMPI POP DUP4 EXTCODESIZE ISZERO PUSH2 0x2BF JUMPI PUSH2 0x222 SWAP4 PUSH0 SWAP3 DUP7 DUP10 MLOAD DUP1 SWAP8 DUP2 SWAP6 DUP3 SWAP5 PUSH4 0x1DF3CBC5 PUSH1 0xE3 SHL DUP5 MSTORE DUP13 DUP5 ADD PUSH2 0xA1A JUMP JUMPDEST SUB SWAP3 GAS CALL DUP1 ISZERO PUSH2 0x2B5 JUMPI PUSH2 0x28D JUMPI JUMPDEST POP POP DUP1 CALLVALUE GT PUSH2 0x23E JUMPI DUP4 DUP1 RETURN JUMPDEST DUP1 CALLVALUE SUB SWAP2 CALLVALUE DUP4 GT PUSH2 0x27A JUMPI POP DUP4 DUP1 DUP1 SWAP4 DUP2 SWAP4 DUP3 SWAP1 CALLVALUE EQ PUSH2 0x271 JUMPI JUMPDEST CALLER SWAP1 CALL ISZERO PUSH2 0x267 JUMPI DUP1 DUP1 DUP4 DUP1 RETURN JUMPDEST MLOAD SWAP1 RETURNDATASIZE SWAP1 DUP3 RETURNDATACOPY RETURNDATASIZE SWAP1 REVERT JUMPDEST POP PUSH2 0x8FC PUSH2 0x259 JUMP JUMPDEST PUSH4 0x4E487B71 PUSH1 0xE0 SHL DUP6 MSTORE PUSH1 0x11 SWAP1 MSTORE PUSH1 0x24 DUP5 REVERT JUMPDEST SWAP1 DUP1 SWAP3 SWAP6 POP GT PUSH2 0x2A2 JUMPI DUP3 MSTORE PUSH0 SWAP3 PUSH0 DUP1 PUSH2 0x231 JUMP JUMPDEST PUSH1 0x41 DUP3 PUSH4 0x4E487B71 PUSH1 0xE0 SHL PUSH0 MSTORE MSTORE PUSH1 0x24 PUSH0 REVERT JUMPDEST DUP6 MLOAD RETURNDATASIZE PUSH0 DUP3 RETURNDATACOPY RETURNDATASIZE SWAP1 REVERT JUMPDEST PUSH0 DUP1 REVERT JUMPDEST DUP7 PUSH1 0x64 SWAP2 DUP10 MLOAD SWAP2 PUSH3 0x461BCD PUSH1 0xE5 SHL DUP4 MSTORE DUP3 ADD MSTORE PUSH1 0x10 PUSH1 0x24 DUP3 ADD MSTORE PUSH16 0x496E73756666696369656E7420666565 PUSH1 0x80 SHL PUSH1 0x44 DUP3 ADD MSTORE REVERT JUMPDEST SWAP1 DUP1 SWAP7 POP DUP2 DUP2 RETURNDATASIZE DUP4 GT PUSH2 0x320 JUMPI JUMPDEST PUSH2 0x310 DUP2 DUP4 PUSH2 0x87D JUMP JUMPDEST DUP2 ADD SUB SLT PUSH2 0x2BF JUMPI MLOAD SWAP5 PUSH0 PUSH2 0x1F1 JUMP JUMPDEST POP RETURNDATASIZE PUSH2 0x306 JUMP JUMPDEST DUP9 MLOAD RETURNDATASIZE PUSH0 DUP3 RETURNDATACOPY RETURNDATASIZE SWAP1 REVERT JUMPDEST DUP3 CALLVALUE PUSH2 0x2BF JUMPI PUSH1 0x20 CALLDATASIZE PUSH1 0x3 NOT ADD SLT PUSH2 0x2BF JUMPI PUSH2 0x34F PUSH1 0x20 SWAP3 CALLDATALOAD PUSH2 0x97F JUMP JUMPDEST SWAP1 MLOAD SWAP1 ISZERO ISZERO DUP2 MSTORE RETURN JUMPDEST DUP3 CALLVALUE PUSH2 0x2BF JUMPI PUSH0 CALLDATASIZE PUSH1 0x3 NOT ADD SLT PUSH2 0x2BF JUMPI PUSH0 SLOAD SWAP1 MLOAD PUSH1 0x1 PUSH1 0x1 PUSH1 0xA0 SHL SUB SWAP1 SWAP2 AND DUP2 MSTORE PUSH1 0x20 SWAP1 RETURN JUMPDEST DUP3 CALLVALUE PUSH2 0x2BF JUMPI PUSH0 CALLDATASIZE PUSH1 0x3 NOT ADD SLT PUSH2 0x2BF JUMPI PUSH1 0x20 SWAP1 PUSH1 0x1 SLOAD SWAP1 MLOAD SWAP1 DUP2 MSTORE RETURN JUMPDEST DUP3 CALLVALUE PUSH2 0x2BF JUMPI DUP1 PUSH1 0x3 NOT CALLDATASIZE ADD SLT PUSH2 0x2BF JUMPI PUSH8 0xFFFFFFFFFFFFFFFF SWAP2 DUP1 CALLDATALOAD DUP4 DUP2 GT PUSH2 0x2BF JUMPI PUSH2 0x3CE SWAP1 CALLDATASIZE SWAP1 DUP4 ADD PUSH2 0x84C JUMP JUMPDEST SWAP1 SWAP4 PUSH1 0x24 CALLDATALOAD SWAP1 DUP2 GT PUSH2 0x2BF JUMPI PUSH2 0x3E7 SWAP1 CALLDATASIZE SWAP1 DUP5 ADD PUSH2 0x84C JUMP JUMPDEST PUSH0 SLOAD SWAP1 SWAP6 SWAP2 SWAP4 SWAP1 PUSH1 0x1 PUSH1 0x1 PUSH1 0xA0 SHL SUB AND CALLER SUB PUSH2 0x4B3 JUMPI DUP6 DUP4 SUB PUSH2 0x47E JUMPI POP PUSH0 JUMPDEST DUP3 DUP2 LT PUSH2 0x410 JUMPI STOP JUMPDEST DUP1 PUSH2 0x41E PUSH1 0x1 SWAP3 DUP9 DUP8 PUSH2 0x95B JUMP JUMPDEST CALLDATALOAD PUSH2 0x42A DUP3 DUP7 DUP7 PUSH2 0x95B JUMP JUMPDEST CALLDATALOAD PUSH0 MSTORE PUSH1 0x20 SWAP1 PUSH1 0x2 DUP3 MSTORE DUP8 PUSH0 KECCAK256 SSTORE PUSH32 0xD535B46DF135CF99612EAE06ED421848B3208D647B0D241EB6D230A4CD382A70 PUSH2 0x464 DUP4 DUP8 DUP8 PUSH2 0x95B JUMP JUMPDEST CALLDATALOAD SWAP2 PUSH2 0x471 DUP5 DUP12 DUP11 PUSH2 0x95B JUMP JUMPDEST CALLDATALOAD DUP10 MLOAD SWAP1 DUP2 MSTORE LOG2 ADD PUSH2 0x407 JUMP JUMPDEST PUSH1 0x64 SWAP1 PUSH1 0x20 DUP7 MLOAD SWAP2 PUSH3 0x461BCD PUSH1 0xE5 SHL DUP4 MSTORE DUP3 ADD MSTORE PUSH1 0xF PUSH1 0x24 DUP3 ADD MSTORE PUSH15 0x98CADCCEE8D040DAD2E6DAC2E8C6D PUSH1 0x8B SHL PUSH1 0x44 DUP3 ADD MSTORE REVERT JUMPDEST DUP5 MLOAD PUSH4 0x5FC483C5 PUSH1 0xE0 SHL DUP2 MSTORE REVERT JUMPDEST DUP3 CALLVALUE PUSH2 0x2BF JUMPI PUSH1 0x20 CALLDATASIZE PUSH1 0x3 NOT ADD SLT PUSH2 0x2BF JUMPI PUSH1 0x20 SWAP2 CALLDATALOAD PUSH0 MSTORE PUSH1 0x2 DUP3 MSTORE DUP1 PUSH0 KECCAK256 SLOAD SWAP1 MLOAD SWAP1 DUP2 MSTORE RETURN JUMPDEST SWAP1 POP CALLVALUE PUSH2 0x2BF JUMPI PUSH1 0x20 DUP1 PUSH1 0x3 NOT CALLDATASIZE ADD SLT PUSH2 0x2BF JUMPI DUP2 CALLDATALOAD PUSH0 MSTORE PUSH1 0x2 DUP2 MSTORE DUP3 PUSH0 KECCAK256 SLOAD SWAP2 DUP3 ISZERO PUSH2 0x769 JUMPI PUSH1 0x1 SLOAD DUP5 MLOAD PUSH4 0x52571AF PUSH1 0xE5 SHL DUP2 MSTORE DUP3 DUP2 ADD SWAP5 SWAP1 SWAP5 MSTORE PUSH1 0x24 DUP1 DUP6 ADD SWAP2 SWAP1 SWAP2 MSTORE PUSH1 0x80 DUP5 PUSH1 0x44 DUP2 PUSH32 0x0 PUSH1 0x1 PUSH1 0x1 PUSH1 0xA0 SHL SUB AND GAS STATICCALL SWAP4 DUP5 ISZERO PUSH2 0x2B5 JUMPI PUSH0 SWAP5 PUSH2 0x738 JUMPI JUMPDEST POP PUSH0 DUP5 MLOAD PUSH1 0x7 SIGNEXTEND SGT ISZERO PUSH2 0x6FF JUMPI PUSH8 0xFFFFFFFFFFFFFFFF SWAP1 PUSH1 0x64 DUP3 DUP6 DUP8 ADD MLOAD AND MUL DUP3 DUP2 AND SWAP1 DUP2 SUB PUSH2 0x699 JUMPI DUP3 DUP7 MLOAD AND SWAP1 DUP2 ISZERO PUSH2 0x6ED JUMPI PUSH1 0x1 SWAP2 DUP5 SWAP2 DIV AND GT PUSH2 0x6AC JUMPI DUP5 DUP7 ADD DUP1 MLOAD SWAP1 SWAP3 SWAP1 PUSH1 0x3 SIGNEXTEND PUSH0 DUP2 SLT PUSH2 0x610 JUMPI POP DUP6 MLOAD AND SWAP3 PUSH4 0xFFFFFFFF DUP1 SWAP4 MLOAD AND PUSH1 0x12 ADD SWAP3 DUP4 GT PUSH2 0x5FF JUMPI POP POP PUSH1 0x60 SWAP2 PUSH2 0x5EA PUSH2 0x5F0 SWAP3 PUSH2 0x920 JUMP JUMPDEST SWAP1 PUSH2 0x948 JUMP JUMPDEST SWAP3 JUMPDEST ADD MLOAD SWAP1 DUP4 MLOAD SWAP3 DUP4 MSTORE DUP3 ADD MSTORE RETURN JUMPDEST PUSH1 0x11 SWAP1 PUSH4 0x4E487B71 PUSH1 0xE0 SHL PUSH0 MSTORE MSTORE PUSH0 REVERT JUMPDEST SWAP1 SWAP3 POP PUSH4 0x7FFFFFFF NOT DUP2 EQ PUSH2 0x699 JUMPI PUSH0 SUB PUSH4 0xFFFFFFFF SWAP1 DUP2 AND SWAP4 SWAP1 SWAP3 PUSH1 0x12 DUP6 GT PUSH2 0x659 JUMPI DUP7 MLOAD AND SWAP4 PUSH1 0x12 SUB SWAP3 DUP4 GT PUSH2 0x5FF JUMPI POP POP PUSH1 0x60 SWAP2 PUSH2 0x5EA PUSH2 0x653 SWAP3 PUSH2 0x920 JUMP JUMPDEST SWAP3 PUSH2 0x5F2 JUMP JUMPDEST DUP7 SWAP5 SWAP4 SWAP2 SWAP5 MLOAD AND SWAP3 PUSH1 0x11 NOT ADD SWAP1 DUP2 GT PUSH2 0x699 JUMPI PUSH2 0x675 SWAP1 PUSH2 0x920 JUMP JUMPDEST SWAP3 DUP4 ISZERO PUSH2 0x688 JUMPI POP POP DIV SWAP2 PUSH1 0x60 SWAP1 PUSH2 0x5F2 JUMP JUMPDEST PUSH1 0x12 SWAP1 PUSH4 0x4E487B71 PUSH1 0xE0 SHL PUSH0 MSTORE MSTORE PUSH0 REVERT JUMPDEST POP PUSH4 0x4E487B71 PUSH1 0xE0 SHL PUSH0 SWAP1 DUP2 MSTORE PUSH1 0x11 DUP5 MSTORE REVERT JUMPDEST PUSH1 0x1A SWAP2 POP PUSH1 0x64 SWAP4 DUP7 MLOAD SWAP4 PUSH3 0x461BCD PUSH1 0xE5 SHL DUP6 MSTORE DUP5 ADD MSTORE DUP3 ADD MSTORE PUSH32 0x4F7261636C6520636F6E666964656E636520746F6F2077696465000000000000 PUSH1 0x44 DUP3 ADD MSTORE REVERT JUMPDEST DUP3 PUSH1 0x12 DUP7 PUSH4 0x4E487B71 PUSH1 0xE0 SHL PUSH0 MSTORE MSTORE PUSH0 REVERT JUMPDEST PUSH1 0x16 SWAP1 PUSH1 0x64 SWAP4 DUP7 MLOAD SWAP4 PUSH3 0x461BCD PUSH1 0xE5 SHL DUP6 MSTORE DUP5 ADD MSTORE DUP3 ADD MSTORE PUSH22 0x496E76616C6964206E65676174697665207072696365 PUSH1 0x50 SHL PUSH1 0x44 DUP3 ADD MSTORE REVERT JUMPDEST PUSH2 0x75B SWAP2 SWAP5 POP PUSH1 0x80 RETURNDATASIZE PUSH1 0x80 GT PUSH2 0x762 JUMPI JUMPDEST PUSH2 0x753 DUP2 DUP4 PUSH2 0x87D JUMP JUMPDEST DUP2 ADD SWAP1 PUSH2 0x8B3 JUMP JUMPDEST SWAP3 DUP6 PUSH2 0x56E JUMP JUMPDEST POP RETURNDATASIZE PUSH2 0x749 JUMP JUMPDEST DUP4 MLOAD PUSH4 0x7E68A045 PUSH1 0xE0 SHL DUP2 MSTORE REVERT JUMPDEST DUP3 CALLVALUE PUSH2 0x2BF JUMPI PUSH1 0x20 CALLDATASIZE PUSH1 0x3 NOT ADD SLT PUSH2 0x2BF JUMPI PUSH0 SLOAD DUP3 CALLDATALOAD SWAP3 SWAP1 PUSH1 0x1 PUSH1 0x1 PUSH1 0xA0 SHL SUB AND CALLER SUB PUSH2 0x7CE JUMPI PUSH32 0x64A4703C7C168827058126CBD2E71D8D0F026AFA821E7DFF1480173DFFDD3895 PUSH1 0x20 DUP5 DUP5 DUP2 PUSH1 0x1 SSTORE MLOAD SWAP1 DUP2 MSTORE LOG1 STOP JUMPDEST SWAP1 MLOAD PUSH4 0x5FC483C5 PUSH1 0xE0 SHL DUP2 MSTORE REVERT JUMPDEST DUP4 CALLVALUE PUSH2 0x2BF JUMPI DUP1 PUSH1 0x3 NOT CALLDATASIZE ADD SLT PUSH2 0x2BF JUMPI PUSH0 SLOAD DUP4 CALLDATALOAD SWAP4 PUSH1 0x24 CALLDATALOAD SWAP4 SWAP1 SWAP2 PUSH1 0x1 PUSH1 0x1 PUSH1 0xA0 SHL SUB AND CALLER SUB PUSH2 0x840 JUMPI DUP5 PUSH32 0xD535B46DF135CF99612EAE06ED421848B3208D647B0D241EB6D230A4CD382A70 PUSH1 0x20 DUP7 DUP7 DUP5 PUSH0 MSTORE PUSH1 0x2 DUP4 MSTORE DUP2 DUP2 PUSH0 KECCAK256 SSTORE MLOAD SWAP1 DUP2 MSTORE LOG2 STOP JUMPDEST PUSH4 0x5FC483C5 PUSH1 0xE0 SHL DUP2 MSTORE REVERT JUMPDEST SWAP2 DUP2 PUSH1 0x1F DUP5 ADD SLT ISZERO PUSH2 0x2BF JUMPI DUP3 CALLDATALOAD SWAP2 PUSH8 0xFFFFFFFFFFFFFFFF DUP4 GT PUSH2 0x2BF JUMPI PUSH1 0x20 DUP1 DUP6 ADD SWAP5 DUP5 PUSH1 0x5 SHL ADD ADD GT PUSH2 0x2BF JUMPI JUMP JUMPDEST SWAP1 PUSH1 0x1F DUP1 NOT SWAP2 ADD AND DUP2 ADD SWAP1 DUP2 LT PUSH8 0xFFFFFFFFFFFFFFFF DUP3 GT OR PUSH2 0x89F JUMPI PUSH1 0x40 MSTORE JUMP JUMPDEST PUSH4 0x4E487B71 PUSH1 0xE0 SHL PUSH0 MSTORE PUSH1 0x41 PUSH1 0x4 MSTORE PUSH1 0x24 PUSH0 REVERT JUMPDEST SWAP1 DUP2 PUSH1 0x80 SWAP2 SUB SLT PUSH2 0x2BF JUMPI PUSH1 0x40 MLOAD SWAP1 PUSH8 0xFFFFFFFFFFFFFFFF PUSH1 0x80 DUP4 ADD DUP2 DUP2 GT DUP5 DUP3 LT OR PUSH2 0x89F JUMPI PUSH1 0x40 MSTORE DUP2 MLOAD DUP1 PUSH1 0x7 SIGNEXTEND DUP2 SUB PUSH2 0x2BF JUMPI DUP4 MSTORE PUSH1 0x20 DUP3 ADD MLOAD SWAP1 DUP2 AND DUP2 SUB PUSH2 0x2BF JUMPI PUSH1 0x20 DUP4 ADD MSTORE PUSH1 0x40 DUP2 ADD MLOAD SWAP1 DUP2 PUSH1 0x3 SIGNEXTEND DUP3 SUB PUSH2 0x2BF JUMPI PUSH1 0x60 SWAP2 PUSH1 0x40 DUP5 ADD MSTORE ADD MLOAD PUSH1 0x60 DUP3 ADD MSTORE SWAP1 JUMP JUMPDEST PUSH4 0xFFFFFFFF AND PUSH1 0x4D DUP2 GT PUSH2 0x934 JUMPI PUSH1 0xA EXP SWAP1 JUMP JUMPDEST PUSH4 0x4E487B71 PUSH1 0xE0 SHL PUSH0 MSTORE PUSH1 0x11 PUSH1 0x4 MSTORE PUSH1 0x24 PUSH0 REVERT JUMPDEST DUP2 DUP2 MUL SWAP3 SWAP2 DUP2 ISZERO SWAP2 DUP5 DIV EQ OR ISZERO PUSH2 0x934 JUMPI JUMP JUMPDEST SWAP2 SWAP1 DUP2 LT ISZERO PUSH2 0x96B JUMPI PUSH1 0x5 SHL ADD SWAP1 JUMP JUMPDEST PUSH4 0x4E487B71 PUSH1 0xE0 SHL PUSH0 MSTORE PUSH1 0x32 PUSH1 0x4 MSTORE PUSH1 0x24 PUSH0 REVERT JUMPDEST PUSH0 MSTORE PUSH1 0x2 PUSH1 0x20 MSTORE PUSH1 0x40 PUSH0 KECCAK256 SLOAD DUP1 ISZERO PUSH2 0xA14 JUMPI PUSH1 0x1 SLOAD PUSH1 0x40 MLOAD PUSH4 0x52571AF PUSH1 0xE5 SHL DUP2 MSTORE PUSH1 0x4 DUP2 ADD SWAP3 SWAP1 SWAP3 MSTORE PUSH1 0x24 DUP3 ADD MSTORE PUSH1 0x80 DUP2 PUSH1 0x44 DUP2 PUSH32 0x0 PUSH1 0x1 PUSH1 0x1 PUSH1 0xA0 SHL SUB AND GAS STATICCALL SWAP1 DUP2 PUSH2 0x9F5 JUMPI JUMPDEST POP PUSH2 0x9F1 JUMPI PUSH1 0x1 SWAP1 JUMP JUMPDEST PUSH0 SWAP1 JUMP JUMPDEST PUSH2 0xA0D SWAP1 PUSH1 0x80 RETURNDATASIZE PUSH1 0x80 GT PUSH2 0x762 JUMPI PUSH2 0x753 DUP2 DUP4 PUSH2 0x87D JUMP JUMPDEST POP PUSH0 PUSH2 0x9E7 JUMP JUMPDEST POP PUSH1 0x1 SWAP1 JUMP JUMPDEST SWAP2 PUSH1 0x20 DUP2 DUP2 DUP6 ADD DUP3 DUP7 MSTORE MSTORE PUSH1 0x40 DUP5 ADD SWAP4 PUSH1 0x40 DUP4 PUSH1 0x5 SHL DUP3 ADD ADD SWAP5 DUP5 PUSH0 SWAP3 JUMPDEST DUP6 DUP5 LT PUSH2 0xA49 JUMPI POP POP POP POP POP POP POP SWAP1 JUMP JUMPDEST SWAP1 SWAP2 SWAP3 SWAP4 SWAP5 SWAP6 SWAP7 PUSH1 0x3F NOT DUP3 DUP3 SUB ADD DUP5 MSTORE DUP8 CALLDATALOAD PUSH1 0x1E NOT DUP5 CALLDATASIZE SUB ADD DUP2 SLT ISZERO PUSH2 0x2BF JUMPI DUP4 ADD DUP7 DUP2 ADD SWAP2 SWAP1 CALLDATALOAD PUSH8 0xFFFFFFFFFFFFFFFF DUP2 GT PUSH2 0x2BF JUMPI DUP1 CALLDATASIZE SUB DUP4 SGT PUSH2 0x2BF JUMPI DUP8 DUP3 DUP3 DUP1 PUSH1 0x1 SWAP7 DUP5 SWAP7 SWAP6 DUP6 SWAP7 MSTORE DUP5 DUP5 ADD CALLDATACOPY PUSH0 DUP3 DUP3 ADD DUP5 ADD MSTORE PUSH1 0x1F ADD PUSH1 0x1F NOT AND ADD ADD SWAP10 ADD SWAP8 SWAP7 SWAP6 SWAP2 SWAP1 SWAP2 ADD SWAP4 ADD SWAP2 SWAP1 PUSH2 0xA38 JUMP INVALID LOG2 PUSH5 0x6970667358 0x22 SLT KECCAK256 0xF7 0xC5 SWAP2 CALLDATALOAD TIMESTAMP 0xC BASEFEE 0xE7 0xCA 0xB2 CALL 0xDB 0xEE 0xDB PUSH7 0x9FBEC870B9CDFE 0xB1 CALLDATASIZE CREATE2 PUSH23 0xB104091933CF64736F6C63430008180033000000000000 "},"methodIdentifiers":{"getPrice(bytes32)":"31d98b3f","isPriceStale(bytes32)":"dffc0aa6","maxStaleness()":"87cf4696","owner()":"8da5cb5b","priceFeedIds(bytes32)":"3d7d3294","pyth()":"f98d06f0","setMaxStaleness(uint256)":"100bc9e1","setPriceFeed(bytes32,bytes32)":"009591f5","setPriceFeedsBatch(bytes32[],bytes32[])":"3f3a3f40","transferOwnership(address)":"f2fde38b","updatePriceFeeds(bytes[])":"ef9e5e28"}}}}}