{"project/src/ConfidentialTrading.sol":{"ConfidentialTrading":{"abi":[{"inputs":[{"internalType":"address","name":"_usdc","type":"address"},{"internalType":"address","name":"_core","type":"address"},{"internalType":"address","name":"_vault","type":"address"},{"internalType":"address","name":"_oracle","type":"address"}],"stateMutability":"nonpayable","type":"constructor"},{"inputs":[],"name":"ReentrancyGuardReentrantCall","type":"error"},{"anonymous":false,"inputs":[{"indexed":true,"internalType":"uint256","name":"orderId","type":"uint256"}],"name":"OrderCancelled","type":"event"},{"anonymous":false,"inputs":[{"indexed":true,"internalType":"uint256","name":"orderId","type":"uint256"},{"indexed":true,"internalType":"uint256","name":"positionId","type":"uint256"}],"name":"OrderExecuted","type":"event"},{"anonymous":false,"inputs":[{"indexed":true,"internalType":"uint256","name":"orderId","type":"uint256"},{"indexed":true,"internalType":"address","name":"trader","type":"address"},{"indexed":false,"internalType":"bytes32","name":"pairId","type":"bytes32"},{"indexed":false,"internalType":"uint8","name":"orderType","type":"uint8"},{"indexed":false,"internalType":"uint256","name":"triggerPrice","type":"uint256"}],"name":"OrderPlaced","type":"event"},{"anonymous":false,"inputs":[{"indexed":true,"internalType":"uint256","name":"positionId","type":"uint256"},{"indexed":true,"internalType":"address","name":"trader","type":"address"},{"indexed":false,"internalType":"uint256","name":"exitPrice","type":"uint256"},{"indexed":false,"internalType":"int256","name":"pnl","type":"int256"}],"name":"PositionClosed","type":"event"},{"anonymous":false,"inputs":[{"indexed":true,"internalType":"uint256","name":"positionId","type":"uint256"},{"indexed":true,"internalType":"address","name":"trader","type":"address"},{"indexed":false,"internalType":"uint256","name":"executionPrice","type":"uint256"},{"indexed":true,"internalType":"address","name":"liquidator","type":"address"},{"indexed":false,"internalType":"uint256","name":"reward","type":"uint256"}],"name":"PositionLiquidated","type":"event"},{"anonymous":false,"inputs":[{"indexed":true,"internalType":"uint256","name":"positionId","type":"uint256"},{"indexed":true,"internalType":"address","name":"trader","type":"address"},{"indexed":false,"internalType":"bytes32","name":"pairId","type":"bytes32"},{"indexed":false,"internalType":"bool","name":"isLong","type":"bool"},{"indexed":false,"internalType":"uint256","name":"sizeUsd","type":"uint256"},{"indexed":false,"internalType":"uint256","name":"entryPrice","type":"uint256"},{"indexed":false,"internalType":"uint256","name":"leverage","type":"uint256"}],"name":"PositionOpened","type":"event"},{"anonymous":false,"inputs":[{"indexed":true,"internalType":"uint256","name":"positionId","type":"uint256"},{"indexed":false,"internalType":"bool","name":"isTakeProfit","type":"bool"},{"indexed":false,"internalType":"uint256","name":"executionPrice","type":"uint256"}],"name":"TPSLTriggered","type":"event"},{"anonymous":false,"inputs":[{"indexed":true,"internalType":"uint256","name":"orderId","type":"uint256"},{"indexed":false,"internalType":"uint256","name":"sliceNumber","type":"uint256"},{"indexed":false,"internalType":"uint256","name":"sizeUsd","type":"uint256"}],"name":"TWAPSliceExecuted","type":"event"},{"inputs":[],"name":"MIN_POSITION_SIZE","outputs":[{"internalType":"uint256","name":"","type":"uint256"}],"stateMutability":"view","type":"function"},{"inputs":[{"internalType":"uint256","name":"orderId","type":"uint256"}],"name":"cancelOrder","outputs":[],"stateMutability":"nonpayable","type":"function"},{"inputs":[],"name":"core","outputs":[{"internalType":"contract ConfidentialCore","name":"","type":"address"}],"stateMutability":"view","type":"function"},{"inputs":[{"internalType":"uint256","name":"positionId","type":"uint256"}],"name":"createCloseRequest","outputs":[{"internalType":"uint256","name":"orderId","type":"uint256"}],"stateMutability":"payable","type":"function"},{"inputs":[{"internalType":"bytes32","name":"pairId","type":"bytes32"},{"internalType":"bool","name":"isLong","type":"bool"},{"internalType":"uint256","name":"totalSizeUsd","type":"uint256"},{"internalType":"uint256","name":"leverage","type":"uint256"},{"internalType":"uint256","name":"slices","type":"uint256"},{"internalType":"uint256","name":"intervalSec","type":"uint256"},{"internalType":"uint256","name":"tpPrice","type":"uint256"},{"internalType":"uint256","name":"slPrice","type":"uint256"}],"name":"createTwapOrder","outputs":[{"internalType":"uint256","name":"orderId","type":"uint256"}],"stateMutability":"payable","type":"function"},{"inputs":[{"internalType":"uint256","name":"orderId","type":"uint256"},{"internalType":"bytes[]","name":"updateData","type":"bytes[]"}],"name":"executeOrder","outputs":[],"stateMutability":"payable","type":"function"},{"inputs":[{"internalType":"uint256","name":"positionId","type":"uint256"},{"internalType":"bytes[]","name":"updateData","type":"bytes[]"}],"name":"executeTPSL","outputs":[],"stateMutability":"payable","type":"function"},{"inputs":[{"internalType":"uint256","name":"positionId","type":"uint256"},{"internalType":"bytes[]","name":"updateData","type":"bytes[]"}],"name":"liquidate","outputs":[],"stateMutability":"payable","type":"function"},{"inputs":[],"name":"liquidationRewardBps","outputs":[{"internalType":"uint256","name":"","type":"uint256"}],"stateMutability":"view","type":"function"},{"inputs":[],"name":"nextOrderId","outputs":[{"internalType":"uint256","name":"","type":"uint256"}],"stateMutability":"view","type":"function"},{"inputs":[],"name":"nextPositionId","outputs":[{"internalType":"uint256","name":"","type":"uint256"}],"stateMutability":"view","type":"function"},{"inputs":[],"name":"oracle","outputs":[{"internalType":"contract PythPriceOracle","name":"","type":"address"}],"stateMutability":"view","type":"function"},{"inputs":[{"internalType":"uint256","name":"","type":"uint256"}],"name":"pendingOrders","outputs":[{"internalType":"bytes32","name":"pairId","type":"bytes32"},{"internalType":"address","name":"trader","type":"address"},{"internalType":"bool","name":"isLong","type":"bool"},{"internalType":"uint256","name":"sizeUsd","type":"uint256"},{"internalType":"uint256","name":"collateral","type":"uint256"},{"internalType":"uint256","name":"leverage","type":"uint256"},{"internalType":"uint256","name":"triggerPrice","type":"uint256"},{"internalType":"uint8","name":"orderType","type":"uint8"},{"internalType":"bool","name":"reduceOnly","type":"bool"},{"internalType":"bool","name":"isActive","type":"bool"},{"internalType":"uint256","name":"createdAt","type":"uint256"},{"internalType":"uint256","name":"positionId","type":"uint256"},{"internalType":"uint256","name":"feePaid","type":"uint256"},{"internalType":"uint256","name":"executionFee","type":"uint256"},{"internalType":"uint256","name":"tpPrice","type":"uint256"},{"internalType":"uint256","name":"slPrice","type":"uint256"},{"internalType":"uint256","name":"twapSlices","type":"uint256"},{"internalType":"uint256","name":"twapInterval","type":"uint256"},{"internalType":"uint256","name":"twapExecuted","type":"uint256"},{"internalType":"uint256","name":"twapLastExec","type":"uint256"}],"stateMutability":"view","type":"function"},{"inputs":[{"internalType":"bytes32","name":"pairId","type":"bytes32"},{"internalType":"bool","name":"isLong","type":"bool"},{"internalType":"uint256","name":"sizeUsd","type":"uint256"},{"internalType":"uint256","name":"leverage","type":"uint256"},{"internalType":"uint256","name":"triggerPrice","type":"uint256"},{"internalType":"uint8","name":"orderType","type":"uint8"},{"internalType":"bool","name":"reduceOnly","type":"bool"},{"internalType":"uint256","name":"tpPrice","type":"uint256"},{"internalType":"uint256","name":"slPrice","type":"uint256"}],"name":"placeOrder","outputs":[{"internalType":"uint256","name":"orderId","type":"uint256"}],"stateMutability":"payable","type":"function"},{"inputs":[{"internalType":"uint256","name":"","type":"uint256"}],"name":"positions","outputs":[{"internalType":"bytes32","name":"pairId","type":"bytes32"},{"internalType":"address","name":"trader","type":"address"},{"internalType":"bool","name":"isLong","type":"bool"},{"internalType":"uint256","name":"sizeUsd","type":"uint256"},{"internalType":"uint256","name":"collateral","type":"uint256"},{"internalType":"uint256","name":"entryPrice","type":"uint256"},{"internalType":"uint256","name":"leverage","type":"uint256"},{"internalType":"uint256","name":"liquidationPrice","type":"uint256"},{"internalType":"uint256","name":"openedAt","type":"uint256"},{"internalType":"bool","name":"isOpen","type":"bool"},{"internalType":"uint256","name":"tpPrice","type":"uint256"},{"internalType":"uint256","name":"slPrice","type":"uint256"},{"internalType":"int256","name":"entryFundingIndex","type":"int256"}],"stateMutability":"view","type":"function"},{"inputs":[],"name":"rolloverFeePerHour","outputs":[{"internalType":"uint256","name":"","type":"uint256"}],"stateMutability":"view","type":"function"},{"inputs":[],"name":"usdc","outputs":[{"internalType":"contract IERC20","name":"","type":"address"}],"stateMutability":"view","type":"function"},{"inputs":[{"internalType":"address","name":"","type":"address"},{"internalType":"uint256","name":"","type":"uint256"}],"name":"userOrders","outputs":[{"internalType":"uint256","name":"","type":"uint256"}],"stateMutability":"view","type":"function"},{"inputs":[{"internalType":"address","name":"","type":"address"},{"internalType":"uint256","name":"","type":"uint256"}],"name":"userPositions","outputs":[{"internalType":"uint256","name":"","type":"uint256"}],"stateMutability":"view","type":"function"},{"inputs":[],"name":"vault","outputs":[{"internalType":"contract ConfidentialVault","name":"","type":"address"}],"stateMutability":"view","type":"function"}],"evm":{"bytecode":{"linkReferences":{},"object":"608034620000de57601f6200385838819003918201601f19168301916001600160401b03831184841017620000e257808492608094604052833981010312620000de576200004d81620000f6565b906200005c60208201620000f6565b6200007860606200007060408501620000f6565b9301620000f6565b9060015f55600160055560016006556014600b556064600c5560018060a01b03928380928160018060a01b0319971687600454161760045516856001541617600155168360025416176002551690600354161760035560405161374c90816200010c8239f35b5f80fd5b634e487b7160e01b5f52604160045260245ffd5b51906001600160a01b0382168203620000de5756fe60e0806040526004361015610012575f80fd5b5f905f3560e01c9081632a58b33014612a585750806333e7dddb1461140a578063368dbba8146113ec5780633e413bee146113c3578063514fcac71461123c5780635e1b4d99146111fe578063666c187e14610e215780636fb197f714610aef5780637dc0d1d014610ac657806380b74258146108cd578063856652e914610881578063899346c7146108635780638fb735ee1461084557806399fbab88146107825780639bfe7e3e146105a8578063c3aaea4e14610454578063effaed8914610436578063f2f4eb261461040d578063f6614170146101255763fbfa77cf146100fa575f80fd5b346101225780600319360112610122576002546040516001600160a01b039091168152602090f35b80fd5b508061013036612a72565b9061013c939293612eb3565b816103ab575b505090806024925260076020526040832090600882019182549261016860ff8516612e7c565b6003548254604080516331d98b3f60e01b815260048101839052976001600160a01b039592949293899190829088165afa9687156103a057889761036e575b506001820192835460ff8160a01c1691825f146103615760068501548a11155b15610329578460038c9601946127106101e48754600c5490612e22565b049a60ff191690556002886001541691015492813b156103255760405163019ca2b960e51b8152600481019390935288166001600160a01b03166024830152921515604482015260648101919091529083908290608490829084905af190811561031a578391610302575b5050836002541690848454169054823b156102fe57608484928360405195869485936309c0533b60e01b8552600485015233602485015260448401528b60648401525af180156102f3576102db575b505054169160405193845260208401527f3b7bc7c0fdc798ac653b9f0d6d28adb2293a55402d32c21d323da740ccc6553960403394a46001815580f35b6102e490612b20565b6102ef57855f61029e565b8580fd5b6040513d84823e3d90fd5b8380fd5b61030b90612b20565b61031657815f61024f565b5080fd5b6040513d85823e3d90fd5b8680fd5b60405162461bcd60e51b815260206004820152601060248201526f4e6f74206c6971756964617461626c6560801b6044820152606490fd5b60068501548a10156101c7565b61039191975060403d604011610399575b6103898183612b48565b810190612c45565b50955f6101a7565b503d61037f565b6040513d8a823e3d90fd5b6003546001600160a01b031691823b156102fe57604051631df3cbc560e31b81529284928492839182916103e29160048401612b6a565b039134905af180156102f3576103f9575b80610142565b61040290612b20565b61031657815f6103f3565b50346101225780600319360112610122576001546040516001600160a01b039091168152602090f35b50346101225780600319360112610122576020600c54604051908152f35b503461012257602036600319011261012257600435815260086020526040902080808054600182015460c05260028201546003830154600484015460058501546006860154600787015490600888015492600989015494600a8a015496600b8b015498600c8c01549a600d8d01549c600e01549d600f01549e6010015460805260405160a05260a05152600160a01b6001900360c0511660a0516020015260c05160a01c60ff16151560a0516040015260a0516060015260a0516080015260a05160a0015260a05160c0015260ff811660a05160e001528060081c60ff16151560a051610100015260101c60ff16151560a051610120015260a051610140015260a051610160015260a051610180015260a0516101a0015260a0516101c0015260a0516101e0015260a051610200015260a051610220015260a051610240015260805160a051610260015260a05161028090f35b506020908160031936011261012257600435906105c3612eb3565b818152600783526040812060ff6008820154161561074957600460018060a01b036105f5816001850154163314612dea565b856007840154916001541660405193848092636d78097360e11b82525afa90811561073e578491610709575b61062b9250612c5b565b42106106d257906001916006549361064285612e35565b600655848352600886526040832090848201336bffffffffffffffffffffffff60a01b825416179055600682016201000362ff00ff198254161790554260078301556008820155600a3491015554604051908152600385820152816040820152837f401524beccff0d9dd3447788dea32e11f3b7c9618ed6084f14a773dbf2025f1660603393a355604051908152f35b60405162461bcd60e51b815260048101859052600f60248201526e436f6f6c646f776e2061637469766560881b6044820152606490fd5b90508582813d8311610737575b6107208183612b48565b810103126107335761062b915190610621565b5f80fd5b503d610716565b6040513d86823e3d90fd5b60405162461bcd60e51b81526004810185905260116024820152702837b9b4ba34b7b7103737ba1037b832b760791b6044820152606490fd5b50346101225760203660031901126101225760406101a0916004358152600760205220805490600181015490600281015460038201546004830154600584015460068501549060078601549260ff6008880154169460098801549660ff600b600a8b01549a01549a6040519c8d528c602060018060a01b03831691015260a01c16151560408c015260608b015260808a015260a089015260c088015260e08701526101008601521515610120850152610140840152610160830152610180820152f35b50346101225780600319360112610122576020600b54604051908152f35b50346101225780600319360112610122576020600554604051908152f35b50346101225761089036612ac2565b6001600160a01b039091168252600a602052604082208054919290918310156101225760206108bf8484612ae8565b90546040519160031b1c8152f35b50806108d836612a72565b906108e4939293612eb3565b81610a64575b50508190526007602052604082209061090960ff600884015416612e7c565b60018060a01b0360035416906040835460248251809581936331d98b3f60e01b835260048301525afa91821561073e578492610a42575b50838493600981015480610a17575b50811580610a0a575b6109e0575b50156109a557807fac4fd466c8f994e08ce2eb9141c2f01f2a779a3537d9bd71fa8762df3d12842c604061099e9581519015158152856020820152a2613007565b6001815580f35b60405162461bcd60e51b815260206004820152601360248201527215140bd4d3081b9bdd081d1c9a59d9d95c9959606a1b6044820152606490fd5b6001810154600a925060a01c60ff1615610a005701548211155b5f61095d565b01548210156109fa565b50600a8101541515610958565b9150935060ff600185015460a01c165f14610a3957821015925b83905f61094f565b82111592610a31565b610a5c91925060403d604011610399576103898183612b48565b50905f610940565b6003546001600160a01b031691823b156102fe57604051631df3cbc560e31b8152928492849283918291610a9b9160048401612b6a565b039134905af180156102f357610ab2575b806108ea565b610abb90612b20565b61031657815f610aac565b50346101225780600319360112610122576003546040516001600160a01b039091168152602090f35b506101003660031901126101225760043590610b09612b11565b9160443591606435916084359460a43590610b22612eb3565b600287101580610e16575b15610de057603c8210610da857629896808781029081048803610d94578610610d58576001546001600160a01b031696873b15610d495760405163bd79156f60e01b81526004810185905233602482015282151560448201526064810188905260848101879052858160a4818c5afa8015610d4d57908691610d35575b5050610bb68688612d80565b9760405198899163e4d8cbe560e01b835289600484015287602484015282604460209c8d935afa918215610d2a578792610cf4575b509060019782610c09610c0284600e989796612c5b565b3033613492565b6006549a610c168c612e35565b6006558b8a5260088d5260408a208981558b8101805460ff60a01b1933166001600160a81b03199091161797151560a01b60ff60a01b1697909717909655600286015560038501556004840155600683016201000462ff00ff19825416179055426007840155600983015534600a83015560c435600b83015560e435600c830155600d8201550155338252600a8552610cb28460408420612e43565b604051908152600485820152816040820152837f401524beccff0d9dd3447788dea32e11f3b7c9618ed6084f14a773dbf2025f1660603393a355604051908152f35b939291508984813d8311610d23575b610d0d8183612b48565b8101031261073357925191929091906001610beb565b503d610d03565b6040513d89823e3d90fd5b610d3e90612b20565b610d4957845f610baa565b8480fd5b6040513d88823e3d90fd5b60405162461bcd60e51b815260206004820152601460248201527314db1a58d9481cda5e99481d1bdbc81cdb585b1b60621b6044820152606490fd5b634e487b7160e01b85526011600452602485fd5b60405162461bcd60e51b815260206004820152601060248201526f135a5b880d8c1cc81a5b9d195c9d985b60821b6044820152606490fd5b60405162461bcd60e51b815260206004820152600e60248201526d496e76616c696420736c6963657360901b6044820152606490fd5b506064871115610b2d565b5061012036600319011261012257610e37612b11565b9060a4359060ff821682036101225760c43591821515830361073357610e5b612eb3565b62989680604435106111c857600260ff82161161118e5760e435611118575b610104356110a0575b6001546001600160a01b0316803b1561109c5760405163bd79156f60e01b8152600480359082015233602482015285151560448083019190915235606480830191909152356084820152838160a481855afa801561073e57908491611088575b505060206044916040519283809263e4d8cbe560e01b82528235600483015260ff87161560248301525afa90811561031a57839161104f575b509060209460019392610f33606435604435612d80565b95610f41610c028389612c5b565b60065496610f4e88612e35565b60065587865260088952604086206004358155878101805460ff60a01b1933166001600160a81b03199091161795151560a01b60ff60a01b1695909517909455604435600285015560038401556064356004840155608435600584015562010000600684019161ff00835491151560081b169060ff87169062ffffff19161717179055426007830155600982015534600a82015560e435600b820155600c61010435910155338252600a85526110078460408420612e43565b60ff60405191600435835216858201526084356040820152837f401524beccff0d9dd3447788dea32e11f3b7c9618ed6084f14a773dbf2025f1660603393a355604051908152f35b929190506020833d602011611080575b8161106c60209383612b48565b810103126107335791519091906020610f1c565b3d915061105f565b61109190612b20565b61109c57825f610ee3565b8280fd5b83156110fe57608435610104351080156110f1575b610e835760405162461bcd60e51b815260206004820152601060248201526f496e76616c696420534c20707269636560801b6044820152606490fd5b50600260ff8216146110b5565b6084356101043511806110b55750600260ff8216146110b5565b83156111755760843560e435118015611168575b610e7a5760405162461bcd60e51b815260206004820152601060248201526f496e76616c696420545020707269636560801b6044820152606490fd5b50600260ff82161461112c565b60843560e435108061112c5750600260ff82161461112c565b60405162461bcd60e51b8152602060048201526012602482015271496e76616c6964206f72646572207479706560701b6044820152606490fd5b60405162461bcd60e51b815260206004820152600e60248201526d14da5e99481d1bdbc81cdb585b1b60921b6044820152606490fd5b50346101225761120d36612ac2565b6001600160a01b0390911682526009602052604082208054919290918310156101225760206108bf8484612ae8565b503461012257602036600319011261012257600435611259612eb3565b808252600860205281600a6040822060ff6006820180549061127f838360101c16612c0c565b61129660018060a01b036001860154163314612dea565b62ff00001982169055166002198101611334575b500154806112df575b50807f61b9399f2f0f32ca39ce8d7be32caed5ec22fe07a6daba3a467ed479ec60658291a26001815580f35b81808092335af16112ee612d9e565b50156112fb57815f6112b3565b60405162461bcd60e51b8152602060048201526011602482015270115512081c99599d5b990819985a5b1959607a1b6044820152606490fd5b6003820154600460098401549214806113b6575b61137c575b6113578282612c5b565b611362575b506112aa565b6113759161136f91612c5b565b336133e4565b5f8061135c565b6113b0906113a5600d850154916113aa836113a561139e600f8a015483612ddd565b8094612e22565b612d80565b94612e22565b9061134d565b50600f8301541515611348565b50346101225780600319360112610122576004546040516001600160a01b039091168152602090f35b50346101225780600319360112610122576020604051629896808152f35b5061141436612a72565b9061141d612eb3565b816129ec575b5050808252600860205260408220600681015461144560ff8260101c16612c0c565b60018060a01b0360035416906040835460248251809581936331d98b3f60e01b835260048301525afa9182156129e15785926129bc575b5060ff1680611c4c5750600182015460a01c60ff1615611c3f5760058201548111155b15611c06576114ad82612c7c565b9060018060a01b03600154166020835160646040860151151591606087015194604051958694859363b391decf60e01b85526004850152602484015260448301525afa908115610d4d578691611bd4575b508186821315611b8057506115166127109183612e22565b04604083015115155f14611b725761152d91612c5b565b6005549061153a82612e35565b6005558186526007602090815260408088208551815591850151600183018054928701516001600160a81b03199093166001600160a01b03929092169190911791151560a081901b60ff60a01b169290921790558791906115c1905b606087015160028401556080870151600384015584600484015560a08701518060058501558561353e565b600682015542600782015560088101600160ff198254161790556101c085015160098201556101e0850151600a820155602060018060a01b0360015416602487516040519586938492637cc6765f60e11b845260048401525af19182156103a0578892611b3d575b50600b015560015483516020850151604086015160608701518a94909392911515916001600160a01b039182169116813b156102ef5760405163b65b361f60e01b815260048101949094526001600160a01b03166024840152901515604483015260648201929092529082908290608490829084905af180156102f357611b29575b505060025460808401516116c7916001600160a01b03166133e4565b600254608084015187916001600160a01b031690813b1561109c578291602483926040519485938492636e93ae2b60e01b845260048401525af180156102f357611b15575b5050610180830151600154604051631db0457960e11b81526004810192909252606090829060249082906001600160a01b03165afa908115610d2a57878081928294611ad0575b5080611a63575b5050806119f5575b5080611920575b5060a05f805160206136f783398151915291600180831b036020860151168852600960205261179b8460408a20612e43565b600180831b03602086015116948051916040820151151591846060820151910151926040519485526020850152604084015260608301526080820152a360068101805462ff0000191690555b82600a82015480611874575b5050600681015460ff8160101c161561180f575b836001815580f35b60ff1660030361184b5760080154905b7f9947370f1e808dd40de986fca744d8715d4d7aa575359f77a7bdeeb887f590ea8380a35f8080611807565b506005545f198101908111611860579061181f565b634e487b7160e01b83526011600452602483fd5b81906006840154600460ff82161480611913575b156118f9575061189e9150600d84015490612d80565b80156117f35781808092335af16118b3612d9e565b50156118c057825f6117f3565b60405162461bcd60e51b815260206004820152601160248201527012d9595c195c881999594819985a5b1959607a1b6044820152606490fd5b60101c60ff161561190b575b5061189e565b90505f611905565b50600d8501541515611888565b60015460405163b790230360e01b81529290602090849060049082906001600160a01b03165afa9283156103a05788936119c4575b506001600160a01b038316156119865761197f60a0925f805160206136f7833981519152946133e4565b9150611769565b60405162461bcd60e51b8152602060048201526016602482015275125b9cdd5c985b98d948199d5b99081b9bdd081cd95d60521b6044820152606490fd5b6119e791935060203d6020116119ee575b6119df8183612b48565b81019061361e565b915f611955565b503d6119d5565b6001546040516361d027b360e01b81529190602090839060049082906001600160a01b03165afa8015611a5857611a33928a91611a39575b506133e4565b5f611762565b611a52915060203d6020116119ee576119df8183612b48565b5f611a2d565b6040513d8b823e3d90fd5b600254611a7a9082906001600160a01b03166133e4565b6002546001600160a01b031690813b1561109c5782916024839260405194859384926302102c9760e11b845260048401525af180156102f3571561175a57611ac190612b20565b611acc57875f61175a565b8780fd5b93505050506060813d606011611b0d575b81611aee60609383612b48565b810103126103255780518760406020840151930151919291925f611753565b3d9150611ae1565b611b1e90612b20565b6102ef57855f61170c565b611b3290612b20565b6102ef57855f6116ab565b9091506020813d602011611b6a575b81611b5960209383612b48565b81010312610733575190600b611629565b3d9150611b4c565b611b7b91612ddd565b61152d565b90868112611b90575b505061152d565b612710919250611ba2611ba891612ed4565b83612e22565b04604083015115155f14611bc657611bbf91612ddd565b5f80611b89565b611bcf91612c5b565b611bbf565b90506020813d602011611bfe575b81611bef60209383612b48565b8101031261073357515f6114fe565b3d9150611be2565b60405162461bcd60e51b8152602060048201526011602482015270131a5b5a5d081b9bdd081c995858da1959607a1b6044820152606490fd5b600582015481101561149f565b6001810361223b5750600182015460a01c60ff161561222e5760058201548110155b156121f657611c7c82612c7c565b9060018060a01b03600154166020835160646040860151151591606087015194604051958694859363b391decf60e01b85526004850152602484015260448301525afa908115610d4d5786916121c4575b5081868213156121765750611ce56127109183612e22565b04604083015115155f1461216857611cfc91612c5b565b60055490611d0982612e35565b6005558186526007602090815260408088208551815591850151600183018054928701516001600160a81b03199093166001600160a01b03929092169190911791151560a081901b60ff60a01b16929092179055879190611d6990611596565b600682015542600782015560088101600160ff198254161790556101c085015160098201556101e0850151600a820155602060018060a01b0360015416602487516040519586938492637cc6765f60e11b845260048401525af19182156103a0578892612133575b50600b015560015483516020850151604086015160608701518a94909392911515916001600160a01b039182169116813b156102ef5760405163b65b361f60e01b815260048101949094526001600160a01b03166024840152901515604483015260648201929092529082908290608490829084905af180156102f35761211f575b50506002546080840151611e6f916001600160a01b03166133e4565b600254608084015187916001600160a01b031690813b1561109c578291602483926040519485938492636e93ae2b60e01b845260048401525af180156102f35761210b575b5050610180830151600154604051631db0457960e11b81526004810192909252606090829060249082906001600160a01b03165afa908115610d2a578780819282946120c6575b508061205d575b50508061201a575b5080611f93575b5060a05f805160206136f783398151915291600180831b0360208601511688526009602052611f438460408a20612e43565b600180831b03602086015116948051916040820151151591846060820151910151926040519485526020850152604084015260608301526080820152a360068101805462ff0000191690556117e7565b60015460405163b790230360e01b81529290602090849060049082906001600160a01b03165afa9283156103a0578893611ff9575b506001600160a01b0383161561198657611ff260a0925f805160206136f7833981519152946133e4565b9150611f11565b61201391935060203d6020116119ee576119df8183612b48565b915f611fc8565b6001546040516361d027b360e01b81529190602090839060049082906001600160a01b03165afa8015611a5857612057928a91611a3957506133e4565b5f611f0a565b6002546120749082906001600160a01b03166133e4565b6002546001600160a01b031690813b1561109c5782916024839260405194859384926302102c9760e11b845260048401525af180156102f35715611f02576120bb90612b20565b611acc57875f611f02565b93505050506060813d606011612103575b816120e460609383612b48565b810103126103255780518760406020840151930151919291925f611efb565b3d91506120d7565b61211490612b20565b6102ef57855f611eb4565b61212890612b20565b6102ef57855f611e53565b9091506020813d602011612160575b8161214f60209383612b48565b81010312610733575190600b611dd1565b3d9150612142565b61217191612ddd565b611cfc565b90868112612186575b5050611cfc565b612710919250611ba261219891612ed4565b04604083015115155f146121b6576121af91612ddd565b5f8061217f565b6121bf91612c5b565b6121af565b90506020813d6020116121ee575b816121df60209383612b48565b8101031261073357515f611ccd565b3d91506121d2565b60405162461bcd60e51b815260206004820152601060248201526f14dd1bdc081b9bdd081c995858da195960821b6044820152606490fd5b6005820154811115611c6e565b600281036122f25750600182015460ff8160a01c165f146122e55760058301548211155b80156122d9575b156122885750611c7c82612c7c565b60068101805462ff0000191690556117e7565b6122af91506122a06003840154600985015490612c5b565b906001600160a01b03166133e4565b817f61b9399f2f0f32ca39ce8d7be32caed5ec22fe07a6daba3a467ed479ec6065828480a2612275565b50600583015415612266565b600583015482101561225f565b600381036123095750612275906008830154613007565b600414612317575b506117e7565b600f8201541580156129a0575b156129695761233282612c7c565b9061236c600284015461234a600d8601548092612d80565b606085015261235d816003870154612d80565b60808501526009850154612d80565b61018083015260015482516040808501516060860151915163b391decf60e01b8152600481019390935215156024830152604482015290602090829060649082906001600160a01b03165afa908115610d4d578691612937575b5081868213156128e957506123de6127109183612e22565b04604083015115155f146128db576123f591612c5b565b60055461240181612e35565b6005558086526007602090815260408088208551815591850151600183018054928701516001600160a81b03199093166001600160a01b03929092169190911791151560a081901b60ff60a01b1692909217905587919061248790606087015160028401556080870151600384015585600484015560a08701518060058501558661353e565b600682015542600782015560088101600160ff198254161790556101c085015160098201556101e0850151600a820155602060018060a01b0360015416602487516040519586938492637cc6765f60e11b845260048401525af19182156103a05788926128a6575b50600b015560015483516020850151604086015160608701518a94909392911515916001600160a01b039182169116813b156102ef5760405163b65b361f60e01b815260048101949094526001600160a01b03166024840152901515604483015260648201929092529082908290608490829084905af180156102f357612892575b5050600254608084015161258d916001600160a01b03166133e4565b600254608084015187916001600160a01b031690813b1561109c578291602483926040519485938492636e93ae2b60e01b845260048401525af180156102f35761287e575b5050610180830151600154604051631db0457960e11b81526004810192909252606090829060249082906001600160a01b03165afa908115610d2a57878081928294612839575b50806127d0575b50508061278d575b5080612718575b506020838101516001600160a01b031687526009905260408620612654908290612e43565b5f805160206136f783398151915260a0600180821b03602086015116938551906040870151151590606088015184890151926040519485526020850152604084015260608301526080820152a3600f8201549060018201809211610d94577f098dc6c1012d2fb4cc0470ec0f1b82ad9eaf354865d76ebad869d83f1559344e60406060869385600f88015542601088015501518151908582526020820152a2600d8201541115612705575b5f612311565b60068101805462ff0000191690556126ff565b60015460405163b790230360e01b81529190602090839060049082906001600160a01b03165afa9182156103a057889261276c575b506001600160a01b0382161561198657612766916133e4565b5f61262f565b61278691925060203d6020116119ee576119df8183612b48565b905f61274d565b6001546040516361d027b360e01b81529190602090839060049082906001600160a01b03165afa8015611a58576127ca928a91611a3957506133e4565b5f612628565b6002546127e79082906001600160a01b03166133e4565b6002546001600160a01b031690813b1561109c5782916024839260405194859384926302102c9760e11b845260048401525af180156102f357156126205761282e90612b20565b611acc57875f612620565b93505050506060813d606011612876575b8161285760609383612b48565b810103126103255780518760406020840151930151919291925f612619565b3d915061284a565b61288790612b20565b6102ef57855f6125d2565b61289b90612b20565b6102ef57855f612571565b9091506020813d6020116128d3575b816128c260209383612b48565b81010312610733575190600b6124ef565b3d91506128b5565b6128e491612ddd565b6123f5565b908681126128f9575b50506123f5565b612710919250611ba261290b91612ed4565b04604083015115155f146129295761292291612ddd565b5f806128f2565b61293291612c5b565b612922565b90506020813d602011612961575b8161295260209383612b48565b8101031261073357515f6123c6565b3d9150612945565b60405162461bcd60e51b815260206004820152600f60248201526e545741503a20746f6f206561726c7960881b6044820152606490fd5b506129b46010830154600e84015490612c5b565b421015612324565b60ff9192506129d99060403d604011610399576103898183612b48565b50919061147c565b6040513d87823e3d90fd5b6003546001600160a01b031691823b1561073357604051631df3cbc560e31b8152925f92849283918291612a239160048401612b6a565b039134905af18015612a4d57612a3a575b80611423565b612a45919250612b20565b5f905f612a34565b6040513d5f823e3d90fd5b34610733575f366003190112610733576020906006548152f35b6040600319820112610733576004359160243567ffffffffffffffff9283821161073357806023830112156107335781600401359384116107335760248460051b83010111610733576024019190565b6040906003190112610733576004356001600160a01b0381168103610733579060243590565b8054821015612afd575f5260205f2001905f90565b634e487b7160e01b5f52603260045260245ffd5b60243590811515820361073357565b67ffffffffffffffff8111612b3457604052565b634e487b7160e01b5f52604160045260245ffd5b90601f8019910116810190811067ffffffffffffffff821117612b3457604052565b9160208181850182865252604084019360408360051b82010194845f925b858410612b99575050505050505090565b90919293949596603f198282030184528735601e198436030181121561073357830186810191903567ffffffffffffffff81116107335780360383136107335787828280600196849695859652848401375f828201840152601f01601f1916010199019796959190910193019190612b88565b15612c1357565b60405162461bcd60e51b815260206004820152600a6024820152694e6f742061637469766560b01b6044820152606490fd5b9190826040910312610733576020825192015190565b91908201809211612c6857565b634e487b7160e01b5f52601160045260245ffd5b90604051610280810181811067ffffffffffffffff821117612b3457604052610260601082948054845260ff600182015460018060a01b038116602087015260a01c16151560408501526002810154606085015260038101546080850152600481015460a0850152600581015460c085015260ff600682015481811660e0870152818160081c161515610100870152831c161515610120850152600781015461014085015260088101546101608501526009810154610180850152600a8101546101a0850152600b8101546101c0850152600c8101546101e0850152600d810154610200850152600e810154610220850152600f8101546102408501520154910152565b8115612d8a570490565b634e487b7160e01b5f52601260045260245ffd5b3d15612dd8573d9067ffffffffffffffff8211612b345760405191612dcd601f8201601f191660200184612b48565b82523d5f602084013e565b606090565b91908203918211612c6857565b15612df157565b60405162461bcd60e51b81526020600482015260096024820152682737ba1037bbb732b960b91b6044820152606490fd5b81810292918115918404141715612c6857565b5f198114612c685760010190565b805468010000000000000000811015612b3457612e6591600182018155612ae8565b819291549060031b91821b915f19901b1916179055565b15612e8357565b60405162461bcd60e51b81526020600482015260086024820152672737ba1037b832b760c11b6044820152606490fd5b60025f5414612ec25760025f55565b604051633ee5aeb560e01b8152600490fd5b600160ff1b8114612c68575f0390565b81810392915f138015828513169184121617612c6857565b81810292915f8212600160ff1b821416612c68578184051490151715612c6857565b8115612d8a57600160ff1b81145f19831416612c68570590565b906040516101a0810181811067ffffffffffffffff821117612b3457604052610180600b82948054845260ff600182015460018060a01b038116602087015260a01c16151560408501526002810154606085015260038101546080850152600481015460a0850152600581015460c0850152600681015460e0850152600781015461010085015260ff60088201541615156101208501526009810154610140850152600a8101546101608501520154910152565b9190915f8382019384129112908015821691151617612c6857565b91905f92805f5260209160078352604090815f206008810161302c60ff825416612e7c565b60018201805460a01c60ff16156133b157613062600484015461305d6130528288612ee4565b600287015490612efc565b612f1e565b925b60018060a01b0392836001541690600283019283549389519363e4d8cbe560e01b8552600495868601525f60248601528c85604481845afa9485156133a7578b918e915f97613374575b50905f91602463d693a4006130ea6130c589612f38565b6130e560606130d961010084015142612ddd565b920151600b5490612e22565b612e22565b0494875490519485938492637cc6765f60e11b84528d8401525af1801561336a57908e91613341575b505061313c6131429161313761313061312b87612f38565b61363d565b9188612fec565b612fec565b89612ee4565b835460ff191690935560015482548754925490918916803b15610733578c5163019ca2b960e51b81528089019384526001600160a01b03858c1616602085015260a09490941c60ff161515604084015260608301919091525f9183919082908490829060800103925af1801561333757613322575b50908c918282136132c7575b866002541660038888541692015490803b15610d49578492836064928e51968795869463118f304360e01b86528c860152602485015260448401525af180156132bd576132a5575b505080613249575b50507f356fca566f3a054a459c7224d9c9d634f31a98835cfd4fb4c5ddbf8b96aca21195969798505416958351928352820152a3565b8a90846002541692833b1561109c57602490838a5195869485936335b8e71360e01b85528401525af1801561329b57613283575b80613213565b61328d8a91612b20565b613297578861327d565b8880fd5b86513d8c823e3d90fd5b6132ae90612b20565b6132b9578a5f61320b565b8a80fd5b89513d84823e3d90fd5b8660015416803b156102fe5783809160248d518094819363630304f960e11b8352888c8401525af1801561331857908491613304575b50506131c3565b61330d90612b20565b61109c57825f6132fd565b8b513d86823e3d90fd5b61332e91929d50612b20565b5f9b905f6131b7565b8a513d5f823e3d90fd5b813d8311613363575b6133548183612b48565b81010312610733578c5f613113565b503d61334a565b8c513d5f823e3d90fd5b9250955081813d83116133a0575b61338c8183612b48565b810103126107335751938a908d905f6130ae565b503d613382565b8b513d5f823e3d90fd5b6133c6600484015461305d6130528783612ee4565b92613064565b90816020910312610733575180151581036107335790565b602090604460018060a01b03915f8360045416604051968795869463a9059cbb60e01b865216600485015260248401525af1908115612a4d575f91613463575b501561342c57565b60405162461bcd60e51b815260206004820152600f60248201526e151c985b9cd9995c8819985a5b1959608a1b6044820152606490fd5b613485915060203d60201161348b575b61347d8183612b48565b8101906133cc565b5f613424565b503d613473565b916064602092935f60018060a01b03938460045416908560405198899788966323b872dd60e01b885216600487015216602485015260448401525af1908115612a4d575f9161351f575b50156134e457565b60405162461bcd60e51b8152602060048201526013602482015272151c985b9cd9995c919c9bdb4819985a5b1959606a1b6044820152606490fd5b613538915060203d60201161348b5761347d8183612b48565b5f6134dc565b6001546040516335123baf60e21b815291929190602090829060049082906001600160a01b03165afa908115612a4d575f916135ec575b50600a8101809111612c68578161358b91612e22565b61232891908281106135d4575050506064915b156135bd576127106135b36135ba9383612e22565b0490612ddd565b90565b6127106135cd6135ba9383612e22565b0490612c5b565b8203918211612c68576135e691612d80565b9161359e565b90506020813d602011613616575b8161360760209383612b48565b8101031261073357515f613575565b3d91506135fa565b9081602091031261073357516001600160a01b03811681036107335790565b60018060a01b03600154169060208151602460405180958193634655f1eb60e01b835260048301525afa918215612a4d575f926136c0575b5061368f670de0b6b3a76400009261018083015190612ee4565b6040820151156136aa5760606136a6920151612efc565b0590565b6136bb9060606136a6930151612efc565b612ed4565b91506020823d6020116136ee575b816136db60209383612b48565b810103126107335790519061368f613675565b3d91506136ce56fe52ca44dea94749aadfaa4d3749a0323a33b3a6434adcfff52ad54c511f5579c7a2646970667358221220c154b09e3de2b57932bc767b2caacea3ca68e63cfc8d65561e835ccbf9c94fb664736f6c63430008180033","opcodes":"PUSH1 0x80 CALLVALUE PUSH3 0xDE JUMPI PUSH1 0x1F PUSH3 0x3858 CODESIZE DUP2 SWAP1 SUB SWAP2 DUP3 ADD PUSH1 0x1F NOT AND DUP4 ADD SWAP2 PUSH1 0x1 PUSH1 0x1 PUSH1 0x40 SHL SUB DUP4 GT DUP5 DUP5 LT OR PUSH3 0xE2 JUMPI DUP1 DUP5 SWAP3 PUSH1 0x80 SWAP5 PUSH1 0x40 MSTORE DUP4 CODECOPY DUP2 ADD SUB SLT PUSH3 0xDE JUMPI PUSH3 0x4D DUP2 PUSH3 0xF6 JUMP JUMPDEST SWAP1 PUSH3 0x5C PUSH1 0x20 DUP3 ADD PUSH3 0xF6 JUMP JUMPDEST PUSH3 0x78 PUSH1 0x60 PUSH3 0x70 PUSH1 0x40 DUP6 ADD PUSH3 0xF6 JUMP JUMPDEST SWAP4 ADD PUSH3 0xF6 JUMP JUMPDEST SWAP1 PUSH1 0x1 PUSH0 SSTORE PUSH1 0x1 PUSH1 0x5 SSTORE PUSH1 0x1 PUSH1 0x6 SSTORE PUSH1 0x14 PUSH1 0xB SSTORE PUSH1 0x64 PUSH1 0xC SSTORE PUSH1 0x1 DUP1 PUSH1 0xA0 SHL SUB SWAP3 DUP4 DUP1 SWAP3 DUP2 PUSH1 0x1 DUP1 PUSH1 0xA0 SHL SUB NOT SWAP8 AND DUP8 PUSH1 0x4 SLOAD AND OR PUSH1 0x4 SSTORE AND DUP6 PUSH1 0x1 SLOAD AND OR PUSH1 0x1 SSTORE AND DUP4 PUSH1 0x2 SLOAD AND OR PUSH1 0x2 SSTORE AND SWAP1 PUSH1 0x3 SLOAD AND OR PUSH1 0x3 SSTORE PUSH1 0x40 MLOAD PUSH2 0x374C SWAP1 DUP2 PUSH3 0x10C DUP3 CODECOPY RETURN JUMPDEST PUSH0 DUP1 REVERT JUMPDEST PUSH4 0x4E487B71 PUSH1 0xE0 SHL PUSH0 MSTORE PUSH1 0x41 PUSH1 0x4 MSTORE PUSH1 0x24 PUSH0 REVERT JUMPDEST MLOAD SWAP1 PUSH1 0x1 PUSH1 0x1 PUSH1 0xA0 SHL SUB DUP3 AND DUP3 SUB PUSH3 0xDE JUMPI JUMP INVALID PUSH1 0xE0 DUP1 PUSH1 0x40 MSTORE PUSH1 0x4 CALLDATASIZE LT ISZERO PUSH2 0x12 JUMPI PUSH0 DUP1 REVERT JUMPDEST PUSH0 SWAP1 PUSH0 CALLDATALOAD PUSH1 0xE0 SHR SWAP1 DUP2 PUSH4 0x2A58B330 EQ PUSH2 0x2A58 JUMPI POP DUP1 PUSH4 0x33E7DDDB EQ PUSH2 0x140A JUMPI DUP1 PUSH4 0x368DBBA8 EQ PUSH2 0x13EC JUMPI DUP1 PUSH4 0x3E413BEE EQ PUSH2 0x13C3 JUMPI DUP1 PUSH4 0x514FCAC7 EQ PUSH2 0x123C JUMPI DUP1 PUSH4 0x5E1B4D99 EQ PUSH2 0x11FE JUMPI DUP1 PUSH4 0x666C187E EQ PUSH2 0xE21 JUMPI DUP1 PUSH4 0x6FB197F7 EQ PUSH2 0xAEF JUMPI DUP1 PUSH4 0x7DC0D1D0 EQ PUSH2 0xAC6 JUMPI DUP1 PUSH4 0x80B74258 EQ PUSH2 0x8CD JUMPI DUP1 PUSH4 0x856652E9 EQ PUSH2 0x881 JUMPI DUP1 PUSH4 0x899346C7 EQ PUSH2 0x863 JUMPI DUP1 PUSH4 0x8FB735EE EQ PUSH2 0x845 JUMPI DUP1 PUSH4 0x99FBAB88 EQ PUSH2 0x782 JUMPI DUP1 PUSH4 0x9BFE7E3E EQ PUSH2 0x5A8 JUMPI DUP1 PUSH4 0xC3AAEA4E EQ PUSH2 0x454 JUMPI DUP1 PUSH4 0xEFFAED89 EQ PUSH2 0x436 JUMPI DUP1 PUSH4 0xF2F4EB26 EQ PUSH2 0x40D JUMPI DUP1 PUSH4 0xF6614170 EQ PUSH2 0x125 JUMPI PUSH4 0xFBFA77CF EQ PUSH2 0xFA JUMPI PUSH0 DUP1 REVERT JUMPDEST CALLVALUE PUSH2 0x122 JUMPI DUP1 PUSH1 0x3 NOT CALLDATASIZE ADD SLT PUSH2 0x122 JUMPI PUSH1 0x2 SLOAD PUSH1 0x40 MLOAD PUSH1 0x1 PUSH1 0x1 PUSH1 0xA0 SHL SUB SWAP1 SWAP2 AND DUP2 MSTORE PUSH1 0x20 SWAP1 RETURN JUMPDEST DUP1 REVERT JUMPDEST POP DUP1 PUSH2 0x130 CALLDATASIZE PUSH2 0x2A72 JUMP JUMPDEST SWAP1 PUSH2 0x13C SWAP4 SWAP3 SWAP4 PUSH2 0x2EB3 JUMP JUMPDEST DUP2 PUSH2 0x3AB JUMPI JUMPDEST POP POP SWAP1 DUP1 PUSH1 0x24 SWAP3 MSTORE PUSH1 0x7 PUSH1 0x20 MSTORE PUSH1 0x40 DUP4 KECCAK256 SWAP1 PUSH1 0x8 DUP3 ADD SWAP2 DUP3 SLOAD SWAP3 PUSH2 0x168 PUSH1 0xFF DUP6 AND PUSH2 0x2E7C JUMP JUMPDEST PUSH1 0x3 SLOAD DUP3 SLOAD PUSH1 0x40 DUP1 MLOAD PUSH4 0x31D98B3F PUSH1 0xE0 SHL DUP2 MSTORE PUSH1 0x4 DUP2 ADD DUP4 SWAP1 MSTORE SWAP8 PUSH1 0x1 PUSH1 0x1 PUSH1 0xA0 SHL SUB SWAP6 SWAP3 SWAP5 SWAP3 SWAP4 DUP10 SWAP2 SWAP1 DUP3 SWAP1 DUP9 AND GAS STATICCALL SWAP7 DUP8 ISZERO PUSH2 0x3A0 JUMPI DUP9 SWAP8 PUSH2 0x36E JUMPI JUMPDEST POP PUSH1 0x1 DUP3 ADD SWAP3 DUP4 SLOAD PUSH1 0xFF DUP2 PUSH1 0xA0 SHR AND SWAP2 DUP3 PUSH0 EQ PUSH2 0x361 JUMPI PUSH1 0x6 DUP6 ADD SLOAD DUP11 GT ISZERO JUMPDEST ISZERO PUSH2 0x329 JUMPI DUP5 PUSH1 0x3 DUP13 SWAP7 ADD SWAP5 PUSH2 0x2710 PUSH2 0x1E4 DUP8 SLOAD PUSH1 0xC SLOAD SWAP1 PUSH2 0x2E22 JUMP JUMPDEST DIV SWAP11 PUSH1 0xFF NOT AND SWAP1 SSTORE PUSH1 0x2 DUP9 PUSH1 0x1 SLOAD AND SWAP2 ADD SLOAD SWAP3 DUP2 EXTCODESIZE ISZERO PUSH2 0x325 JUMPI PUSH1 0x40 MLOAD PUSH4 0x19CA2B9 PUSH1 0xE5 SHL DUP2 MSTORE PUSH1 0x4 DUP2 ADD SWAP4 SWAP1 SWAP4 MSTORE DUP9 AND PUSH1 0x1 PUSH1 0x1 PUSH1 0xA0 SHL SUB AND PUSH1 0x24 DUP4 ADD MSTORE SWAP3 ISZERO ISZERO PUSH1 0x44 DUP3 ADD MSTORE PUSH1 0x64 DUP2 ADD SWAP2 SWAP1 SWAP2 MSTORE SWAP1 DUP4 SWAP1 DUP3 SWAP1 PUSH1 0x84 SWAP1 DUP3 SWAP1 DUP5 SWAP1 GAS CALL SWAP1 DUP2 ISZERO PUSH2 0x31A JUMPI DUP4 SWAP2 PUSH2 0x302 JUMPI JUMPDEST POP POP DUP4 PUSH1 0x2 SLOAD AND SWAP1 DUP5 DUP5 SLOAD AND SWAP1 SLOAD DUP3 EXTCODESIZE ISZERO PUSH2 0x2FE JUMPI PUSH1 0x84 DUP5 SWAP3 DUP4 PUSH1 0x40 MLOAD SWAP6 DUP7 SWAP5 DUP6 SWAP4 PUSH4 0x9C0533B PUSH1 0xE0 SHL DUP6 MSTORE PUSH1 0x4 DUP6 ADD MSTORE CALLER PUSH1 0x24 DUP6 ADD MSTORE PUSH1 0x44 DUP5 ADD MSTORE DUP12 PUSH1 0x64 DUP5 ADD MSTORE GAS CALL DUP1 ISZERO PUSH2 0x2F3 JUMPI PUSH2 0x2DB JUMPI JUMPDEST POP POP SLOAD AND SWAP2 PUSH1 0x40 MLOAD SWAP4 DUP5 MSTORE PUSH1 0x20 DUP5 ADD MSTORE PUSH32 0x3B7BC7C0FDC798AC653B9F0D6D28ADB2293A55402D32C21D323DA740CCC65539 PUSH1 0x40 CALLER SWAP5 LOG4 PUSH1 0x1 DUP2 SSTORE DUP1 RETURN JUMPDEST PUSH2 0x2E4 SWAP1 PUSH2 0x2B20 JUMP JUMPDEST PUSH2 0x2EF JUMPI DUP6 PUSH0 PUSH2 0x29E JUMP JUMPDEST DUP6 DUP1 REVERT JUMPDEST PUSH1 0x40 MLOAD RETURNDATASIZE DUP5 DUP3 RETURNDATACOPY RETURNDATASIZE SWAP1 REVERT JUMPDEST DUP4 DUP1 REVERT JUMPDEST PUSH2 0x30B SWAP1 PUSH2 0x2B20 JUMP JUMPDEST PUSH2 0x316 JUMPI DUP2 PUSH0 PUSH2 0x24F JUMP JUMPDEST POP DUP1 REVERT JUMPDEST PUSH1 0x40 MLOAD RETURNDATASIZE DUP6 DUP3 RETURNDATACOPY RETURNDATASIZE SWAP1 REVERT JUMPDEST DUP7 DUP1 REVERT JUMPDEST PUSH1 0x40 MLOAD PUSH3 0x461BCD PUSH1 0xE5 SHL DUP2 MSTORE PUSH1 0x20 PUSH1 0x4 DUP3 ADD MSTORE PUSH1 0x10 PUSH1 0x24 DUP3 ADD MSTORE PUSH16 0x4E6F74206C6971756964617461626C65 PUSH1 0x80 SHL PUSH1 0x44 DUP3 ADD MSTORE PUSH1 0x64 SWAP1 REVERT JUMPDEST PUSH1 0x6 DUP6 ADD SLOAD DUP11 LT ISZERO PUSH2 0x1C7 JUMP JUMPDEST PUSH2 0x391 SWAP2 SWAP8 POP PUSH1 0x40 RETURNDATASIZE PUSH1 0x40 GT PUSH2 0x399 JUMPI JUMPDEST PUSH2 0x389 DUP2 DUP4 PUSH2 0x2B48 JUMP JUMPDEST DUP2 ADD SWAP1 PUSH2 0x2C45 JUMP JUMPDEST POP SWAP6 PUSH0 PUSH2 0x1A7 JUMP JUMPDEST POP RETURNDATASIZE PUSH2 0x37F JUMP JUMPDEST PUSH1 0x40 MLOAD RETURNDATASIZE DUP11 DUP3 RETURNDATACOPY RETURNDATASIZE SWAP1 REVERT JUMPDEST PUSH1 0x3 SLOAD PUSH1 0x1 PUSH1 0x1 PUSH1 0xA0 SHL SUB AND SWAP2 DUP3 EXTCODESIZE ISZERO PUSH2 0x2FE JUMPI PUSH1 0x40 MLOAD PUSH4 0x1DF3CBC5 PUSH1 0xE3 SHL DUP2 MSTORE SWAP3 DUP5 SWAP3 DUP5 SWAP3 DUP4 SWAP2 DUP3 SWAP2 PUSH2 0x3E2 SWAP2 PUSH1 0x4 DUP5 ADD PUSH2 0x2B6A JUMP JUMPDEST SUB SWAP2 CALLVALUE SWAP1 GAS CALL DUP1 ISZERO PUSH2 0x2F3 JUMPI PUSH2 0x3F9 JUMPI JUMPDEST DUP1 PUSH2 0x142 JUMP JUMPDEST PUSH2 0x402 SWAP1 PUSH2 0x2B20 JUMP JUMPDEST PUSH2 0x316 JUMPI DUP2 PUSH0 PUSH2 0x3F3 JUMP JUMPDEST POP CALLVALUE PUSH2 0x122 JUMPI DUP1 PUSH1 0x3 NOT CALLDATASIZE ADD SLT PUSH2 0x122 JUMPI PUSH1 0x1 SLOAD PUSH1 0x40 MLOAD PUSH1 0x1 PUSH1 0x1 PUSH1 0xA0 SHL SUB SWAP1 SWAP2 AND DUP2 MSTORE PUSH1 0x20 SWAP1 RETURN JUMPDEST POP CALLVALUE PUSH2 0x122 JUMPI DUP1 PUSH1 0x3 NOT CALLDATASIZE ADD SLT PUSH2 0x122 JUMPI PUSH1 0x20 PUSH1 0xC SLOAD PUSH1 0x40 MLOAD SWAP1 DUP2 MSTORE RETURN JUMPDEST POP CALLVALUE PUSH2 0x122 JUMPI PUSH1 0x20 CALLDATASIZE PUSH1 0x3 NOT ADD SLT PUSH2 0x122 JUMPI PUSH1 0x4 CALLDATALOAD DUP2 MSTORE PUSH1 0x8 PUSH1 0x20 MSTORE PUSH1 0x40 SWAP1 KECCAK256 DUP1 DUP1 DUP1 SLOAD PUSH1 0x1 DUP3 ADD SLOAD PUSH1 0xC0 MSTORE PUSH1 0x2 DUP3 ADD SLOAD PUSH1 0x3 DUP4 ADD SLOAD PUSH1 0x4 DUP5 ADD SLOAD PUSH1 0x5 DUP6 ADD SLOAD PUSH1 0x6 DUP7 ADD SLOAD PUSH1 0x7 DUP8 ADD SLOAD SWAP1 PUSH1 0x8 DUP9 ADD SLOAD SWAP3 PUSH1 0x9 DUP10 ADD SLOAD SWAP5 PUSH1 0xA DUP11 ADD SLOAD SWAP7 PUSH1 0xB DUP12 ADD SLOAD SWAP9 PUSH1 0xC DUP13 ADD SLOAD SWAP11 PUSH1 0xD DUP14 ADD SLOAD SWAP13 PUSH1 0xE ADD SLOAD SWAP14 PUSH1 0xF ADD SLOAD SWAP15 PUSH1 0x10 ADD SLOAD PUSH1 0x80 MSTORE PUSH1 0x40 MLOAD PUSH1 0xA0 MSTORE PUSH1 0xA0 MLOAD MSTORE PUSH1 0x1 PUSH1 0xA0 SHL PUSH1 0x1 SWAP1 SUB PUSH1 0xC0 MLOAD AND PUSH1 0xA0 MLOAD PUSH1 0x20 ADD MSTORE PUSH1 0xC0 MLOAD PUSH1 0xA0 SHR PUSH1 0xFF AND ISZERO ISZERO PUSH1 0xA0 MLOAD PUSH1 0x40 ADD MSTORE PUSH1 0xA0 MLOAD PUSH1 0x60 ADD MSTORE PUSH1 0xA0 MLOAD PUSH1 0x80 ADD MSTORE PUSH1 0xA0 MLOAD PUSH1 0xA0 ADD MSTORE PUSH1 0xA0 MLOAD PUSH1 0xC0 ADD MSTORE PUSH1 0xFF DUP2 AND PUSH1 0xA0 MLOAD PUSH1 0xE0 ADD MSTORE DUP1 PUSH1 0x8 SHR PUSH1 0xFF AND ISZERO ISZERO PUSH1 0xA0 MLOAD PUSH2 0x100 ADD MSTORE PUSH1 0x10 SHR PUSH1 0xFF AND ISZERO ISZERO PUSH1 0xA0 MLOAD PUSH2 0x120 ADD MSTORE PUSH1 0xA0 MLOAD PUSH2 0x140 ADD MSTORE PUSH1 0xA0 MLOAD PUSH2 0x160 ADD MSTORE PUSH1 0xA0 MLOAD PUSH2 0x180 ADD MSTORE PUSH1 0xA0 MLOAD PUSH2 0x1A0 ADD MSTORE PUSH1 0xA0 MLOAD PUSH2 0x1C0 ADD MSTORE PUSH1 0xA0 MLOAD PUSH2 0x1E0 ADD MSTORE PUSH1 0xA0 MLOAD PUSH2 0x200 ADD MSTORE PUSH1 0xA0 MLOAD PUSH2 0x220 ADD MSTORE PUSH1 0xA0 MLOAD PUSH2 0x240 ADD MSTORE PUSH1 0x80 MLOAD PUSH1 0xA0 MLOAD PUSH2 0x260 ADD MSTORE PUSH1 0xA0 MLOAD PUSH2 0x280 SWAP1 RETURN JUMPDEST POP PUSH1 0x20 SWAP1 DUP2 PUSH1 0x3 NOT CALLDATASIZE ADD SLT PUSH2 0x122 JUMPI PUSH1 0x4 CALLDATALOAD SWAP1 PUSH2 0x5C3 PUSH2 0x2EB3 JUMP JUMPDEST DUP2 DUP2 MSTORE PUSH1 0x7 DUP4 MSTORE PUSH1 0x40 DUP2 KECCAK256 PUSH1 0xFF PUSH1 0x8 DUP3 ADD SLOAD AND ISZERO PUSH2 0x749 JUMPI PUSH1 0x4 PUSH1 0x1 DUP1 PUSH1 0xA0 SHL SUB PUSH2 0x5F5 DUP2 PUSH1 0x1 DUP6 ADD SLOAD AND CALLER EQ PUSH2 0x2DEA JUMP JUMPDEST DUP6 PUSH1 0x7 DUP5 ADD SLOAD SWAP2 PUSH1 0x1 SLOAD AND PUSH1 0x40 MLOAD SWAP4 DUP5 DUP1 SWAP3 PUSH4 0x6D780973 PUSH1 0xE1 SHL DUP3 MSTORE GAS STATICCALL SWAP1 DUP2 ISZERO PUSH2 0x73E JUMPI DUP5 SWAP2 PUSH2 0x709 JUMPI JUMPDEST PUSH2 0x62B SWAP3 POP PUSH2 0x2C5B JUMP JUMPDEST TIMESTAMP LT PUSH2 0x6D2 JUMPI SWAP1 PUSH1 0x1 SWAP2 PUSH1 0x6 SLOAD SWAP4 PUSH2 0x642 DUP6 PUSH2 0x2E35 JUMP JUMPDEST PUSH1 0x6 SSTORE DUP5 DUP4 MSTORE PUSH1 0x8 DUP7 MSTORE PUSH1 0x40 DUP4 KECCAK256 SWAP1 DUP5 DUP3 ADD CALLER PUSH12 0xFFFFFFFFFFFFFFFFFFFFFFFF PUSH1 0xA0 SHL DUP3 SLOAD AND OR SWAP1 SSTORE PUSH1 0x6 DUP3 ADD PUSH3 0x10003 PUSH3 0xFF00FF NOT DUP3 SLOAD AND OR SWAP1 SSTORE TIMESTAMP PUSH1 0x7 DUP4 ADD SSTORE PUSH1 0x8 DUP3 ADD SSTORE PUSH1 0xA CALLVALUE SWAP2 ADD SSTORE SLOAD PUSH1 0x40 MLOAD SWAP1 DUP2 MSTORE PUSH1 0x3 DUP6 DUP3 ADD MSTORE DUP2 PUSH1 0x40 DUP3 ADD MSTORE DUP4 PUSH32 0x401524BECCFF0D9DD3447788DEA32E11F3B7C9618ED6084F14A773DBF2025F16 PUSH1 0x60 CALLER SWAP4 LOG3 SSTORE PUSH1 0x40 MLOAD SWAP1 DUP2 MSTORE RETURN JUMPDEST PUSH1 0x40 MLOAD PUSH3 0x461BCD PUSH1 0xE5 SHL DUP2 MSTORE PUSH1 0x4 DUP2 ADD DUP6 SWAP1 MSTORE PUSH1 0xF PUSH1 0x24 DUP3 ADD MSTORE PUSH15 0x436F6F6C646F776E20616374697665 PUSH1 0x88 SHL PUSH1 0x44 DUP3 ADD MSTORE PUSH1 0x64 SWAP1 REVERT JUMPDEST SWAP1 POP DUP6 DUP3 DUP2 RETURNDATASIZE DUP4 GT PUSH2 0x737 JUMPI JUMPDEST PUSH2 0x720 DUP2 DUP4 PUSH2 0x2B48 JUMP JUMPDEST DUP2 ADD SUB SLT PUSH2 0x733 JUMPI PUSH2 0x62B SWAP2 MLOAD SWAP1 PUSH2 0x621 JUMP JUMPDEST PUSH0 DUP1 REVERT JUMPDEST POP RETURNDATASIZE PUSH2 0x716 JUMP JUMPDEST PUSH1 0x40 MLOAD RETURNDATASIZE DUP7 DUP3 RETURNDATACOPY RETURNDATASIZE SWAP1 REVERT JUMPDEST PUSH1 0x40 MLOAD PUSH3 0x461BCD PUSH1 0xE5 SHL DUP2 MSTORE PUSH1 0x4 DUP2 ADD DUP6 SWAP1 MSTORE PUSH1 0x11 PUSH1 0x24 DUP3 ADD MSTORE PUSH17 0x2837B9B4BA34B7B7103737BA1037B832B7 PUSH1 0x79 SHL PUSH1 0x44 DUP3 ADD MSTORE PUSH1 0x64 SWAP1 REVERT JUMPDEST POP CALLVALUE PUSH2 0x122 JUMPI PUSH1 0x20 CALLDATASIZE PUSH1 0x3 NOT ADD SLT PUSH2 0x122 JUMPI PUSH1 0x40 PUSH2 0x1A0 SWAP2 PUSH1 0x4 CALLDATALOAD DUP2 MSTORE PUSH1 0x7 PUSH1 0x20 MSTORE KECCAK256 DUP1 SLOAD SWAP1 PUSH1 0x1 DUP2 ADD SLOAD SWAP1 PUSH1 0x2 DUP2 ADD SLOAD PUSH1 0x3 DUP3 ADD SLOAD PUSH1 0x4 DUP4 ADD SLOAD PUSH1 0x5 DUP5 ADD SLOAD PUSH1 0x6 DUP6 ADD SLOAD SWAP1 PUSH1 0x7 DUP7 ADD SLOAD SWAP3 PUSH1 0xFF PUSH1 0x8 DUP9 ADD SLOAD AND SWAP5 PUSH1 0x9 DUP9 ADD SLOAD SWAP7 PUSH1 0xFF PUSH1 0xB PUSH1 0xA DUP12 ADD SLOAD SWAP11 ADD SLOAD SWAP11 PUSH1 0x40 MLOAD SWAP13 DUP14 MSTORE DUP13 PUSH1 0x20 PUSH1 0x1 DUP1 PUSH1 0xA0 SHL SUB DUP4 AND SWAP2 ADD MSTORE PUSH1 0xA0 SHR AND ISZERO ISZERO PUSH1 0x40 DUP13 ADD MSTORE PUSH1 0x60 DUP12 ADD MSTORE PUSH1 0x80 DUP11 ADD MSTORE PUSH1 0xA0 DUP10 ADD MSTORE PUSH1 0xC0 DUP9 ADD MSTORE PUSH1 0xE0 DUP8 ADD MSTORE PUSH2 0x100 DUP7 ADD MSTORE ISZERO ISZERO PUSH2 0x120 DUP6 ADD MSTORE PUSH2 0x140 DUP5 ADD MSTORE PUSH2 0x160 DUP4 ADD MSTORE PUSH2 0x180 DUP3 ADD MSTORE RETURN JUMPDEST POP CALLVALUE PUSH2 0x122 JUMPI DUP1 PUSH1 0x3 NOT CALLDATASIZE ADD SLT PUSH2 0x122 JUMPI PUSH1 0x20 PUSH1 0xB SLOAD PUSH1 0x40 MLOAD SWAP1 DUP2 MSTORE RETURN JUMPDEST POP CALLVALUE PUSH2 0x122 JUMPI DUP1 PUSH1 0x3 NOT CALLDATASIZE ADD SLT PUSH2 0x122 JUMPI PUSH1 0x20 PUSH1 0x5 SLOAD PUSH1 0x40 MLOAD SWAP1 DUP2 MSTORE RETURN JUMPDEST POP CALLVALUE PUSH2 0x122 JUMPI PUSH2 0x890 CALLDATASIZE PUSH2 0x2AC2 JUMP JUMPDEST PUSH1 0x1 PUSH1 0x1 PUSH1 0xA0 SHL SUB SWAP1 SWAP2 AND DUP3 MSTORE PUSH1 0xA PUSH1 0x20 MSTORE PUSH1 0x40 DUP3 KECCAK256 DUP1 SLOAD SWAP2 SWAP3 SWAP1 SWAP2 DUP4 LT ISZERO PUSH2 0x122 JUMPI PUSH1 0x20 PUSH2 0x8BF DUP5 DUP5 PUSH2 0x2AE8 JUMP JUMPDEST SWAP1 SLOAD PUSH1 0x40 MLOAD SWAP2 PUSH1 0x3 SHL SHR DUP2 MSTORE RETURN JUMPDEST POP DUP1 PUSH2 0x8D8 CALLDATASIZE PUSH2 0x2A72 JUMP JUMPDEST SWAP1 PUSH2 0x8E4 SWAP4 SWAP3 SWAP4 PUSH2 0x2EB3 JUMP JUMPDEST DUP2 PUSH2 0xA64 JUMPI JUMPDEST POP POP DUP2 SWAP1 MSTORE PUSH1 0x7 PUSH1 0x20 MSTORE PUSH1 0x40 DUP3 KECCAK256 SWAP1 PUSH2 0x909 PUSH1 0xFF PUSH1 0x8 DUP5 ADD SLOAD AND PUSH2 0x2E7C JUMP JUMPDEST PUSH1 0x1 DUP1 PUSH1 0xA0 SHL SUB PUSH1 0x3 SLOAD AND SWAP1 PUSH1 0x40 DUP4 SLOAD PUSH1 0x24 DUP3 MLOAD DUP1 SWAP6 DUP2 SWAP4 PUSH4 0x31D98B3F PUSH1 0xE0 SHL DUP4 MSTORE PUSH1 0x4 DUP4 ADD MSTORE GAS STATICCALL SWAP2 DUP3 ISZERO PUSH2 0x73E JUMPI DUP5 SWAP3 PUSH2 0xA42 JUMPI JUMPDEST POP DUP4 DUP5 SWAP4 PUSH1 0x9 DUP2 ADD SLOAD DUP1 PUSH2 0xA17 JUMPI JUMPDEST POP DUP2 ISZERO DUP1 PUSH2 0xA0A JUMPI JUMPDEST PUSH2 0x9E0 JUMPI JUMPDEST POP ISZERO PUSH2 0x9A5 JUMPI DUP1 PUSH32 0xAC4FD466C8F994E08CE2EB9141C2F01F2A779A3537D9BD71FA8762DF3D12842C PUSH1 0x40 PUSH2 0x99E SWAP6 DUP2 MLOAD SWAP1 ISZERO ISZERO DUP2 MSTORE DUP6 PUSH1 0x20 DUP3 ADD MSTORE LOG2 PUSH2 0x3007 JUMP JUMPDEST PUSH1 0x1 DUP2 SSTORE DUP1 RETURN JUMPDEST PUSH1 0x40 MLOAD PUSH3 0x461BCD PUSH1 0xE5 SHL DUP2 MSTORE PUSH1 0x20 PUSH1 0x4 DUP3 ADD MSTORE PUSH1 0x13 PUSH1 0x24 DUP3 ADD MSTORE PUSH19 0x15140BD4D3081B9BDD081D1C9A59D9D95C9959 PUSH1 0x6A SHL PUSH1 0x44 DUP3 ADD MSTORE PUSH1 0x64 SWAP1 REVERT JUMPDEST PUSH1 0x1 DUP2 ADD SLOAD PUSH1 0xA SWAP3 POP PUSH1 0xA0 SHR PUSH1 0xFF AND ISZERO PUSH2 0xA00 JUMPI ADD SLOAD DUP3 GT ISZERO JUMPDEST PUSH0 PUSH2 0x95D JUMP JUMPDEST ADD SLOAD DUP3 LT ISZERO PUSH2 0x9FA JUMP JUMPDEST POP PUSH1 0xA DUP2 ADD SLOAD ISZERO ISZERO PUSH2 0x958 JUMP JUMPDEST SWAP2 POP SWAP4 POP PUSH1 0xFF PUSH1 0x1 DUP6 ADD SLOAD PUSH1 0xA0 SHR AND PUSH0 EQ PUSH2 0xA39 JUMPI DUP3 LT ISZERO SWAP3 JUMPDEST DUP4 SWAP1 PUSH0 PUSH2 0x94F JUMP JUMPDEST DUP3 GT ISZERO SWAP3 PUSH2 0xA31 JUMP JUMPDEST PUSH2 0xA5C SWAP2 SWAP3 POP PUSH1 0x40 RETURNDATASIZE PUSH1 0x40 GT PUSH2 0x399 JUMPI PUSH2 0x389 DUP2 DUP4 PUSH2 0x2B48 JUMP JUMPDEST POP SWAP1 PUSH0 PUSH2 0x940 JUMP JUMPDEST PUSH1 0x3 SLOAD PUSH1 0x1 PUSH1 0x1 PUSH1 0xA0 SHL SUB AND SWAP2 DUP3 EXTCODESIZE ISZERO PUSH2 0x2FE JUMPI PUSH1 0x40 MLOAD PUSH4 0x1DF3CBC5 PUSH1 0xE3 SHL DUP2 MSTORE SWAP3 DUP5 SWAP3 DUP5 SWAP3 DUP4 SWAP2 DUP3 SWAP2 PUSH2 0xA9B SWAP2 PUSH1 0x4 DUP5 ADD PUSH2 0x2B6A JUMP JUMPDEST SUB SWAP2 CALLVALUE SWAP1 GAS CALL DUP1 ISZERO PUSH2 0x2F3 JUMPI PUSH2 0xAB2 JUMPI JUMPDEST DUP1 PUSH2 0x8EA JUMP JUMPDEST PUSH2 0xABB SWAP1 PUSH2 0x2B20 JUMP JUMPDEST PUSH2 0x316 JUMPI DUP2 PUSH0 PUSH2 0xAAC JUMP JUMPDEST POP CALLVALUE PUSH2 0x122 JUMPI DUP1 PUSH1 0x3 NOT CALLDATASIZE ADD SLT PUSH2 0x122 JUMPI PUSH1 0x3 SLOAD PUSH1 0x40 MLOAD PUSH1 0x1 PUSH1 0x1 PUSH1 0xA0 SHL SUB SWAP1 SWAP2 AND DUP2 MSTORE PUSH1 0x20 SWAP1 RETURN JUMPDEST POP PUSH2 0x100 CALLDATASIZE PUSH1 0x3 NOT ADD SLT PUSH2 0x122 JUMPI PUSH1 0x4 CALLDATALOAD SWAP1 PUSH2 0xB09 PUSH2 0x2B11 JUMP JUMPDEST SWAP2 PUSH1 0x44 CALLDATALOAD SWAP2 PUSH1 0x64 CALLDATALOAD SWAP2 PUSH1 0x84 CALLDATALOAD SWAP5 PUSH1 0xA4 CALLDATALOAD SWAP1 PUSH2 0xB22 PUSH2 0x2EB3 JUMP JUMPDEST PUSH1 0x2 DUP8 LT ISZERO DUP1 PUSH2 0xE16 JUMPI JUMPDEST ISZERO PUSH2 0xDE0 JUMPI PUSH1 0x3C DUP3 LT PUSH2 0xDA8 JUMPI PUSH3 0x989680 DUP8 DUP2 MUL SWAP1 DUP2 DIV DUP9 SUB PUSH2 0xD94 JUMPI DUP7 LT PUSH2 0xD58 JUMPI PUSH1 0x1 SLOAD PUSH1 0x1 PUSH1 0x1 PUSH1 0xA0 SHL SUB AND SWAP7 DUP8 EXTCODESIZE ISZERO PUSH2 0xD49 JUMPI PUSH1 0x40 MLOAD PUSH4 0xBD79156F PUSH1 0xE0 SHL DUP2 MSTORE PUSH1 0x4 DUP2 ADD DUP6 SWAP1 MSTORE CALLER PUSH1 0x24 DUP3 ADD MSTORE DUP3 ISZERO ISZERO PUSH1 0x44 DUP3 ADD MSTORE PUSH1 0x64 DUP2 ADD DUP9 SWAP1 MSTORE PUSH1 0x84 DUP2 ADD DUP8 SWAP1 MSTORE DUP6 DUP2 PUSH1 0xA4 DUP2 DUP13 GAS STATICCALL DUP1 ISZERO PUSH2 0xD4D JUMPI SWAP1 DUP7 SWAP2 PUSH2 0xD35 JUMPI JUMPDEST POP POP PUSH2 0xBB6 DUP7 DUP9 PUSH2 0x2D80 JUMP JUMPDEST SWAP8 PUSH1 0x40 MLOAD SWAP9 DUP10 SWAP2 PUSH4 0xE4D8CBE5 PUSH1 0xE0 SHL DUP4 MSTORE DUP10 PUSH1 0x4 DUP5 ADD MSTORE DUP8 PUSH1 0x24 DUP5 ADD MSTORE DUP3 PUSH1 0x44 PUSH1 0x20 SWAP13 DUP14 SWAP4 GAS STATICCALL SWAP2 DUP3 ISZERO PUSH2 0xD2A JUMPI DUP8 SWAP3 PUSH2 0xCF4 JUMPI JUMPDEST POP SWAP1 PUSH1 0x1 SWAP8 DUP3 PUSH2 0xC09 PUSH2 0xC02 DUP5 PUSH1 0xE SWAP9 SWAP8 SWAP7 PUSH2 0x2C5B JUMP JUMPDEST ADDRESS CALLER PUSH2 0x3492 JUMP JUMPDEST PUSH1 0x6 SLOAD SWAP11 PUSH2 0xC16 DUP13 PUSH2 0x2E35 JUMP JUMPDEST PUSH1 0x6 SSTORE DUP12 DUP11 MSTORE PUSH1 0x8 DUP14 MSTORE PUSH1 0x40 DUP11 KECCAK256 DUP10 DUP2 SSTORE DUP12 DUP2 ADD DUP1 SLOAD PUSH1 0xFF PUSH1 0xA0 SHL NOT CALLER AND PUSH1 0x1 PUSH1 0x1 PUSH1 0xA8 SHL SUB NOT SWAP1 SWAP2 AND OR SWAP8 ISZERO ISZERO PUSH1 0xA0 SHL PUSH1 0xFF PUSH1 0xA0 SHL AND SWAP8 SWAP1 SWAP8 OR SWAP1 SWAP7 SSTORE PUSH1 0x2 DUP7 ADD SSTORE PUSH1 0x3 DUP6 ADD SSTORE PUSH1 0x4 DUP5 ADD SSTORE PUSH1 0x6 DUP4 ADD PUSH3 0x10004 PUSH3 0xFF00FF NOT DUP3 SLOAD AND OR SWAP1 SSTORE TIMESTAMP PUSH1 0x7 DUP5 ADD SSTORE PUSH1 0x9 DUP4 ADD SSTORE CALLVALUE PUSH1 0xA DUP4 ADD SSTORE PUSH1 0xC4 CALLDATALOAD PUSH1 0xB DUP4 ADD SSTORE PUSH1 0xE4 CALLDATALOAD PUSH1 0xC DUP4 ADD SSTORE PUSH1 0xD DUP3 ADD SSTORE ADD SSTORE CALLER DUP3 MSTORE PUSH1 0xA DUP6 MSTORE PUSH2 0xCB2 DUP5 PUSH1 0x40 DUP5 KECCAK256 PUSH2 0x2E43 JUMP JUMPDEST PUSH1 0x40 MLOAD SWAP1 DUP2 MSTORE PUSH1 0x4 DUP6 DUP3 ADD MSTORE DUP2 PUSH1 0x40 DUP3 ADD MSTORE DUP4 PUSH32 0x401524BECCFF0D9DD3447788DEA32E11F3B7C9618ED6084F14A773DBF2025F16 PUSH1 0x60 CALLER SWAP4 LOG3 SSTORE PUSH1 0x40 MLOAD SWAP1 DUP2 MSTORE RETURN JUMPDEST SWAP4 SWAP3 SWAP2 POP DUP10 DUP5 DUP2 RETURNDATASIZE DUP4 GT PUSH2 0xD23 JUMPI JUMPDEST PUSH2 0xD0D DUP2 DUP4 PUSH2 0x2B48 JUMP JUMPDEST DUP2 ADD SUB SLT PUSH2 0x733 JUMPI SWAP3 MLOAD SWAP2 SWAP3 SWAP1 SWAP2 SWAP1 PUSH1 0x1 PUSH2 0xBEB JUMP JUMPDEST POP RETURNDATASIZE PUSH2 0xD03 JUMP JUMPDEST PUSH1 0x40 MLOAD RETURNDATASIZE DUP10 DUP3 RETURNDATACOPY RETURNDATASIZE SWAP1 REVERT JUMPDEST PUSH2 0xD3E SWAP1 PUSH2 0x2B20 JUMP JUMPDEST PUSH2 0xD49 JUMPI DUP5 PUSH0 PUSH2 0xBAA JUMP JUMPDEST DUP5 DUP1 REVERT JUMPDEST PUSH1 0x40 MLOAD RETURNDATASIZE DUP9 DUP3 RETURNDATACOPY RETURNDATASIZE SWAP1 REVERT JUMPDEST PUSH1 0x40 MLOAD PUSH3 0x461BCD PUSH1 0xE5 SHL DUP2 MSTORE PUSH1 0x20 PUSH1 0x4 DUP3 ADD MSTORE PUSH1 0x14 PUSH1 0x24 DUP3 ADD MSTORE PUSH20 0x14DB1A58D9481CDA5E99481D1BDBC81CDB585B1B PUSH1 0x62 SHL PUSH1 0x44 DUP3 ADD MSTORE PUSH1 0x64 SWAP1 REVERT JUMPDEST PUSH4 0x4E487B71 PUSH1 0xE0 SHL DUP6 MSTORE PUSH1 0x11 PUSH1 0x4 MSTORE PUSH1 0x24 DUP6 REVERT JUMPDEST PUSH1 0x40 MLOAD PUSH3 0x461BCD PUSH1 0xE5 SHL DUP2 MSTORE PUSH1 0x20 PUSH1 0x4 DUP3 ADD MSTORE PUSH1 0x10 PUSH1 0x24 DUP3 ADD MSTORE PUSH16 0x135A5B880D8C1CC81A5B9D195C9D985B PUSH1 0x82 SHL PUSH1 0x44 DUP3 ADD MSTORE PUSH1 0x64 SWAP1 REVERT JUMPDEST PUSH1 0x40 MLOAD PUSH3 0x461BCD PUSH1 0xE5 SHL DUP2 MSTORE PUSH1 0x20 PUSH1 0x4 DUP3 ADD MSTORE PUSH1 0xE PUSH1 0x24 DUP3 ADD MSTORE PUSH14 0x496E76616C696420736C69636573 PUSH1 0x90 SHL PUSH1 0x44 DUP3 ADD MSTORE PUSH1 0x64 SWAP1 REVERT JUMPDEST POP PUSH1 0x64 DUP8 GT ISZERO PUSH2 0xB2D JUMP JUMPDEST POP PUSH2 0x120 CALLDATASIZE PUSH1 0x3 NOT ADD SLT PUSH2 0x122 JUMPI PUSH2 0xE37 PUSH2 0x2B11 JUMP JUMPDEST SWAP1 PUSH1 0xA4 CALLDATALOAD SWAP1 PUSH1 0xFF DUP3 AND DUP3 SUB PUSH2 0x122 JUMPI PUSH1 0xC4 CALLDATALOAD SWAP2 DUP3 ISZERO ISZERO DUP4 SUB PUSH2 0x733 JUMPI PUSH2 0xE5B PUSH2 0x2EB3 JUMP JUMPDEST PUSH3 0x989680 PUSH1 0x44 CALLDATALOAD LT PUSH2 0x11C8 JUMPI PUSH1 0x2 PUSH1 0xFF DUP3 AND GT PUSH2 0x118E JUMPI PUSH1 0xE4 CALLDATALOAD PUSH2 0x1118 JUMPI JUMPDEST PUSH2 0x104 CALLDATALOAD PUSH2 0x10A0 JUMPI JUMPDEST PUSH1 0x1 SLOAD PUSH1 0x1 PUSH1 0x1 PUSH1 0xA0 SHL SUB AND DUP1 EXTCODESIZE ISZERO PUSH2 0x109C JUMPI PUSH1 0x40 MLOAD PUSH4 0xBD79156F PUSH1 0xE0 SHL DUP2 MSTORE PUSH1 0x4 DUP1 CALLDATALOAD SWAP1 DUP3 ADD MSTORE CALLER PUSH1 0x24 DUP3 ADD MSTORE DUP6 ISZERO ISZERO PUSH1 0x44 DUP1 DUP4 ADD SWAP2 SWAP1 SWAP2 MSTORE CALLDATALOAD PUSH1 0x64 DUP1 DUP4 ADD SWAP2 SWAP1 SWAP2 MSTORE CALLDATALOAD PUSH1 0x84 DUP3 ADD MSTORE DUP4 DUP2 PUSH1 0xA4 DUP2 DUP6 GAS STATICCALL DUP1 ISZERO PUSH2 0x73E JUMPI SWAP1 DUP5 SWAP2 PUSH2 0x1088 JUMPI JUMPDEST POP POP PUSH1 0x20 PUSH1 0x44 SWAP2 PUSH1 0x40 MLOAD SWAP3 DUP4 DUP1 SWAP3 PUSH4 0xE4D8CBE5 PUSH1 0xE0 SHL DUP3 MSTORE DUP3 CALLDATALOAD PUSH1 0x4 DUP4 ADD MSTORE PUSH1 0xFF DUP8 AND ISZERO PUSH1 0x24 DUP4 ADD MSTORE GAS STATICCALL SWAP1 DUP2 ISZERO PUSH2 0x31A JUMPI DUP4 SWAP2 PUSH2 0x104F JUMPI JUMPDEST POP SWAP1 PUSH1 0x20 SWAP5 PUSH1 0x1 SWAP4 SWAP3 PUSH2 0xF33 PUSH1 0x64 CALLDATALOAD PUSH1 0x44 CALLDATALOAD PUSH2 0x2D80 JUMP JUMPDEST SWAP6 PUSH2 0xF41 PUSH2 0xC02 DUP4 DUP10 PUSH2 0x2C5B JUMP JUMPDEST PUSH1 0x6 SLOAD SWAP7 PUSH2 0xF4E DUP9 PUSH2 0x2E35 JUMP JUMPDEST PUSH1 0x6 SSTORE DUP8 DUP7 MSTORE PUSH1 0x8 DUP10 MSTORE PUSH1 0x40 DUP7 KECCAK256 PUSH1 0x4 CALLDATALOAD DUP2 SSTORE DUP8 DUP2 ADD DUP1 SLOAD PUSH1 0xFF PUSH1 0xA0 SHL NOT CALLER AND PUSH1 0x1 PUSH1 0x1 PUSH1 0xA8 SHL SUB NOT SWAP1 SWAP2 AND OR SWAP6 ISZERO ISZERO PUSH1 0xA0 SHL PUSH1 0xFF PUSH1 0xA0 SHL AND SWAP6 SWAP1 SWAP6 OR SWAP1 SWAP5 SSTORE PUSH1 0x44 CALLDATALOAD PUSH1 0x2 DUP6 ADD SSTORE PUSH1 0x3 DUP5 ADD SSTORE PUSH1 0x64 CALLDATALOAD PUSH1 0x4 DUP5 ADD SSTORE PUSH1 0x84 CALLDATALOAD PUSH1 0x5 DUP5 ADD SSTORE PUSH3 0x10000 PUSH1 0x6 DUP5 ADD SWAP2 PUSH2 0xFF00 DUP4 SLOAD SWAP2 ISZERO ISZERO PUSH1 0x8 SHL AND SWAP1 PUSH1 0xFF DUP8 AND SWAP1 PUSH3 0xFFFFFF NOT AND OR OR OR SWAP1 SSTORE TIMESTAMP PUSH1 0x7 DUP4 ADD SSTORE PUSH1 0x9 DUP3 ADD SSTORE CALLVALUE PUSH1 0xA DUP3 ADD SSTORE PUSH1 0xE4 CALLDATALOAD PUSH1 0xB DUP3 ADD SSTORE PUSH1 0xC PUSH2 0x104 CALLDATALOAD SWAP2 ADD SSTORE CALLER DUP3 MSTORE PUSH1 0xA DUP6 MSTORE PUSH2 0x1007 DUP5 PUSH1 0x40 DUP5 KECCAK256 PUSH2 0x2E43 JUMP JUMPDEST PUSH1 0xFF PUSH1 0x40 MLOAD SWAP2 PUSH1 0x4 CALLDATALOAD DUP4 MSTORE AND DUP6 DUP3 ADD MSTORE PUSH1 0x84 CALLDATALOAD PUSH1 0x40 DUP3 ADD MSTORE DUP4 PUSH32 0x401524BECCFF0D9DD3447788DEA32E11F3B7C9618ED6084F14A773DBF2025F16 PUSH1 0x60 CALLER SWAP4 LOG3 SSTORE PUSH1 0x40 MLOAD SWAP1 DUP2 MSTORE RETURN JUMPDEST SWAP3 SWAP2 SWAP1 POP PUSH1 0x20 DUP4 RETURNDATASIZE PUSH1 0x20 GT PUSH2 0x1080 JUMPI JUMPDEST DUP2 PUSH2 0x106C PUSH1 0x20 SWAP4 DUP4 PUSH2 0x2B48 JUMP JUMPDEST DUP2 ADD SUB SLT PUSH2 0x733 JUMPI SWAP2 MLOAD SWAP1 SWAP2 SWAP1 PUSH1 0x20 PUSH2 0xF1C JUMP JUMPDEST RETURNDATASIZE SWAP2 POP PUSH2 0x105F JUMP JUMPDEST PUSH2 0x1091 SWAP1 PUSH2 0x2B20 JUMP JUMPDEST PUSH2 0x109C JUMPI DUP3 PUSH0 PUSH2 0xEE3 JUMP JUMPDEST DUP3 DUP1 REVERT JUMPDEST DUP4 ISZERO PUSH2 0x10FE JUMPI PUSH1 0x84 CALLDATALOAD PUSH2 0x104 CALLDATALOAD LT DUP1 ISZERO PUSH2 0x10F1 JUMPI JUMPDEST PUSH2 0xE83 JUMPI PUSH1 0x40 MLOAD PUSH3 0x461BCD PUSH1 0xE5 SHL DUP2 MSTORE PUSH1 0x20 PUSH1 0x4 DUP3 ADD MSTORE PUSH1 0x10 PUSH1 0x24 DUP3 ADD MSTORE PUSH16 0x496E76616C696420534C207072696365 PUSH1 0x80 SHL PUSH1 0x44 DUP3 ADD MSTORE PUSH1 0x64 SWAP1 REVERT JUMPDEST POP PUSH1 0x2 PUSH1 0xFF DUP3 AND EQ PUSH2 0x10B5 JUMP JUMPDEST PUSH1 0x84 CALLDATALOAD PUSH2 0x104 CALLDATALOAD GT DUP1 PUSH2 0x10B5 JUMPI POP PUSH1 0x2 PUSH1 0xFF DUP3 AND EQ PUSH2 0x10B5 JUMP JUMPDEST DUP4 ISZERO PUSH2 0x1175 JUMPI PUSH1 0x84 CALLDATALOAD PUSH1 0xE4 CALLDATALOAD GT DUP1 ISZERO PUSH2 0x1168 JUMPI JUMPDEST PUSH2 0xE7A JUMPI PUSH1 0x40 MLOAD PUSH3 0x461BCD PUSH1 0xE5 SHL DUP2 MSTORE PUSH1 0x20 PUSH1 0x4 DUP3 ADD MSTORE PUSH1 0x10 PUSH1 0x24 DUP3 ADD MSTORE PUSH16 0x496E76616C6964205450207072696365 PUSH1 0x80 SHL PUSH1 0x44 DUP3 ADD MSTORE PUSH1 0x64 SWAP1 REVERT JUMPDEST POP PUSH1 0x2 PUSH1 0xFF DUP3 AND EQ PUSH2 0x112C JUMP JUMPDEST PUSH1 0x84 CALLDATALOAD PUSH1 0xE4 CALLDATALOAD LT DUP1 PUSH2 0x112C JUMPI POP PUSH1 0x2 PUSH1 0xFF DUP3 AND EQ PUSH2 0x112C JUMP JUMPDEST PUSH1 0x40 MLOAD PUSH3 0x461BCD PUSH1 0xE5 SHL DUP2 MSTORE PUSH1 0x20 PUSH1 0x4 DUP3 ADD MSTORE PUSH1 0x12 PUSH1 0x24 DUP3 ADD MSTORE PUSH18 0x496E76616C6964206F726465722074797065 PUSH1 0x70 SHL PUSH1 0x44 DUP3 ADD MSTORE PUSH1 0x64 SWAP1 REVERT JUMPDEST PUSH1 0x40 MLOAD PUSH3 0x461BCD PUSH1 0xE5 SHL DUP2 MSTORE PUSH1 0x20 PUSH1 0x4 DUP3 ADD MSTORE PUSH1 0xE PUSH1 0x24 DUP3 ADD MSTORE PUSH14 0x14DA5E99481D1BDBC81CDB585B1B PUSH1 0x92 SHL PUSH1 0x44 DUP3 ADD MSTORE PUSH1 0x64 SWAP1 REVERT JUMPDEST POP CALLVALUE PUSH2 0x122 JUMPI PUSH2 0x120D CALLDATASIZE PUSH2 0x2AC2 JUMP JUMPDEST PUSH1 0x1 PUSH1 0x1 PUSH1 0xA0 SHL SUB SWAP1 SWAP2 AND DUP3 MSTORE PUSH1 0x9 PUSH1 0x20 MSTORE PUSH1 0x40 DUP3 KECCAK256 DUP1 SLOAD SWAP2 SWAP3 SWAP1 SWAP2 DUP4 LT ISZERO PUSH2 0x122 JUMPI PUSH1 0x20 PUSH2 0x8BF DUP5 DUP5 PUSH2 0x2AE8 JUMP JUMPDEST POP CALLVALUE PUSH2 0x122 JUMPI PUSH1 0x20 CALLDATASIZE PUSH1 0x3 NOT ADD SLT PUSH2 0x122 JUMPI PUSH1 0x4 CALLDATALOAD PUSH2 0x1259 PUSH2 0x2EB3 JUMP JUMPDEST DUP1 DUP3 MSTORE PUSH1 0x8 PUSH1 0x20 MSTORE DUP2 PUSH1 0xA PUSH1 0x40 DUP3 KECCAK256 PUSH1 0xFF PUSH1 0x6 DUP3 ADD DUP1 SLOAD SWAP1 PUSH2 0x127F DUP4 DUP4 PUSH1 0x10 SHR AND PUSH2 0x2C0C JUMP JUMPDEST PUSH2 0x1296 PUSH1 0x1 DUP1 PUSH1 0xA0 SHL SUB PUSH1 0x1 DUP7 ADD SLOAD AND CALLER EQ PUSH2 0x2DEA JUMP JUMPDEST PUSH3 0xFF0000 NOT DUP3 AND SWAP1 SSTORE AND PUSH1 0x2 NOT DUP2 ADD PUSH2 0x1334 JUMPI JUMPDEST POP ADD SLOAD DUP1 PUSH2 0x12DF JUMPI JUMPDEST POP DUP1 PUSH32 0x61B9399F2F0F32CA39CE8D7BE32CAED5EC22FE07A6DABA3A467ED479EC606582 SWAP2 LOG2 PUSH1 0x1 DUP2 SSTORE DUP1 RETURN JUMPDEST DUP2 DUP1 DUP1 SWAP3 CALLER GAS CALL PUSH2 0x12EE PUSH2 0x2D9E JUMP JUMPDEST POP ISZERO PUSH2 0x12FB JUMPI DUP2 PUSH0 PUSH2 0x12B3 JUMP JUMPDEST PUSH1 0x40 MLOAD PUSH3 0x461BCD PUSH1 0xE5 SHL DUP2 MSTORE PUSH1 0x20 PUSH1 0x4 DUP3 ADD MSTORE PUSH1 0x11 PUSH1 0x24 DUP3 ADD MSTORE PUSH17 0x115512081C99599D5B990819985A5B1959 PUSH1 0x7A SHL PUSH1 0x44 DUP3 ADD MSTORE PUSH1 0x64 SWAP1 REVERT JUMPDEST PUSH1 0x3 DUP3 ADD SLOAD PUSH1 0x4 PUSH1 0x9 DUP5 ADD SLOAD SWAP3 EQ DUP1 PUSH2 0x13B6 JUMPI JUMPDEST PUSH2 0x137C JUMPI JUMPDEST PUSH2 0x1357 DUP3 DUP3 PUSH2 0x2C5B JUMP JUMPDEST PUSH2 0x1362 JUMPI JUMPDEST POP PUSH2 0x12AA JUMP JUMPDEST PUSH2 0x1375 SWAP2 PUSH2 0x136F SWAP2 PUSH2 0x2C5B JUMP JUMPDEST CALLER PUSH2 0x33E4 JUMP JUMPDEST PUSH0 DUP1 PUSH2 0x135C JUMP JUMPDEST PUSH2 0x13B0 SWAP1 PUSH2 0x13A5 PUSH1 0xD DUP6 ADD SLOAD SWAP2 PUSH2 0x13AA DUP4 PUSH2 0x13A5 PUSH2 0x139E PUSH1 0xF DUP11 ADD SLOAD DUP4 PUSH2 0x2DDD JUMP JUMPDEST DUP1 SWAP5 PUSH2 0x2E22 JUMP JUMPDEST PUSH2 0x2D80 JUMP JUMPDEST SWAP5 PUSH2 0x2E22 JUMP JUMPDEST SWAP1 PUSH2 0x134D JUMP JUMPDEST POP PUSH1 0xF DUP4 ADD SLOAD ISZERO ISZERO PUSH2 0x1348 JUMP JUMPDEST POP CALLVALUE PUSH2 0x122 JUMPI DUP1 PUSH1 0x3 NOT CALLDATASIZE ADD SLT PUSH2 0x122 JUMPI PUSH1 0x4 SLOAD PUSH1 0x40 MLOAD PUSH1 0x1 PUSH1 0x1 PUSH1 0xA0 SHL SUB SWAP1 SWAP2 AND DUP2 MSTORE PUSH1 0x20 SWAP1 RETURN JUMPDEST POP CALLVALUE PUSH2 0x122 JUMPI DUP1 PUSH1 0x3 NOT CALLDATASIZE ADD SLT PUSH2 0x122 JUMPI PUSH1 0x20 PUSH1 0x40 MLOAD PUSH3 0x989680 DUP2 MSTORE RETURN JUMPDEST POP PUSH2 0x1414 CALLDATASIZE PUSH2 0x2A72 JUMP JUMPDEST SWAP1 PUSH2 0x141D PUSH2 0x2EB3 JUMP JUMPDEST DUP2 PUSH2 0x29EC JUMPI JUMPDEST POP POP DUP1 DUP3 MSTORE PUSH1 0x8 PUSH1 0x20 MSTORE PUSH1 0x40 DUP3 KECCAK256 PUSH1 0x6 DUP2 ADD SLOAD PUSH2 0x1445 PUSH1 0xFF DUP3 PUSH1 0x10 SHR AND PUSH2 0x2C0C JUMP JUMPDEST PUSH1 0x1 DUP1 PUSH1 0xA0 SHL SUB PUSH1 0x3 SLOAD AND SWAP1 PUSH1 0x40 DUP4 SLOAD PUSH1 0x24 DUP3 MLOAD DUP1 SWAP6 DUP2 SWAP4 PUSH4 0x31D98B3F PUSH1 0xE0 SHL DUP4 MSTORE PUSH1 0x4 DUP4 ADD MSTORE GAS STATICCALL SWAP2 DUP3 ISZERO PUSH2 0x29E1 JUMPI DUP6 SWAP3 PUSH2 0x29BC JUMPI JUMPDEST POP PUSH1 0xFF AND DUP1 PUSH2 0x1C4C JUMPI POP PUSH1 0x1 DUP3 ADD SLOAD PUSH1 0xA0 SHR PUSH1 0xFF AND ISZERO PUSH2 0x1C3F JUMPI PUSH1 0x5 DUP3 ADD SLOAD DUP2 GT ISZERO JUMPDEST ISZERO PUSH2 0x1C06 JUMPI PUSH2 0x14AD DUP3 PUSH2 0x2C7C JUMP JUMPDEST SWAP1 PUSH1 0x1 DUP1 PUSH1 0xA0 SHL SUB PUSH1 0x1 SLOAD AND PUSH1 0x20 DUP4 MLOAD PUSH1 0x64 PUSH1 0x40 DUP7 ADD MLOAD ISZERO ISZERO SWAP2 PUSH1 0x60 DUP8 ADD MLOAD SWAP5 PUSH1 0x40 MLOAD SWAP6 DUP7 SWAP5 DUP6 SWAP4 PUSH4 0xB391DECF PUSH1 0xE0 SHL DUP6 MSTORE PUSH1 0x4 DUP6 ADD MSTORE PUSH1 0x24 DUP5 ADD MSTORE PUSH1 0x44 DUP4 ADD MSTORE GAS STATICCALL SWAP1 DUP2 ISZERO PUSH2 0xD4D JUMPI DUP7 SWAP2 PUSH2 0x1BD4 JUMPI JUMPDEST POP DUP2 DUP7 DUP3 SGT ISZERO PUSH2 0x1B80 JUMPI POP PUSH2 0x1516 PUSH2 0x2710 SWAP2 DUP4 PUSH2 0x2E22 JUMP JUMPDEST DIV PUSH1 0x40 DUP4 ADD MLOAD ISZERO ISZERO PUSH0 EQ PUSH2 0x1B72 JUMPI PUSH2 0x152D SWAP2 PUSH2 0x2C5B JUMP JUMPDEST PUSH1 0x5 SLOAD SWAP1 PUSH2 0x153A DUP3 PUSH2 0x2E35 JUMP JUMPDEST PUSH1 0x5 SSTORE DUP2 DUP7 MSTORE PUSH1 0x7 PUSH1 0x20 SWAP1 DUP2 MSTORE PUSH1 0x40 DUP1 DUP9 KECCAK256 DUP6 MLOAD DUP2 SSTORE SWAP2 DUP6 ADD MLOAD PUSH1 0x1 DUP4 ADD DUP1 SLOAD SWAP3 DUP8 ADD MLOAD PUSH1 0x1 PUSH1 0x1 PUSH1 0xA8 SHL SUB NOT SWAP1 SWAP4 AND PUSH1 0x1 PUSH1 0x1 PUSH1 0xA0 SHL SUB SWAP3 SWAP1 SWAP3 AND SWAP2 SWAP1 SWAP2 OR SWAP2 ISZERO ISZERO PUSH1 0xA0 DUP2 SWAP1 SHL PUSH1 0xFF PUSH1 0xA0 SHL AND SWAP3 SWAP1 SWAP3 OR SWAP1 SSTORE DUP8 SWAP2 SWAP1 PUSH2 0x15C1 SWAP1 JUMPDEST PUSH1 0x60 DUP8 ADD MLOAD PUSH1 0x2 DUP5 ADD SSTORE PUSH1 0x80 DUP8 ADD MLOAD PUSH1 0x3 DUP5 ADD SSTORE DUP5 PUSH1 0x4 DUP5 ADD SSTORE PUSH1 0xA0 DUP8 ADD MLOAD DUP1 PUSH1 0x5 DUP6 ADD SSTORE DUP6 PUSH2 0x353E JUMP JUMPDEST PUSH1 0x6 DUP3 ADD SSTORE TIMESTAMP PUSH1 0x7 DUP3 ADD SSTORE PUSH1 0x8 DUP2 ADD PUSH1 0x1 PUSH1 0xFF NOT DUP3 SLOAD AND OR SWAP1 SSTORE PUSH2 0x1C0 DUP6 ADD MLOAD PUSH1 0x9 DUP3 ADD SSTORE PUSH2 0x1E0 DUP6 ADD MLOAD PUSH1 0xA DUP3 ADD SSTORE PUSH1 0x20 PUSH1 0x1 DUP1 PUSH1 0xA0 SHL SUB PUSH1 0x1 SLOAD AND PUSH1 0x24 DUP8 MLOAD PUSH1 0x40 MLOAD SWAP6 DUP7 SWAP4 DUP5 SWAP3 PUSH4 0x7CC6765F PUSH1 0xE1 SHL DUP5 MSTORE PUSH1 0x4 DUP5 ADD MSTORE GAS CALL SWAP2 DUP3 ISZERO PUSH2 0x3A0 JUMPI DUP9 SWAP3 PUSH2 0x1B3D JUMPI JUMPDEST POP PUSH1 0xB ADD SSTORE PUSH1 0x1 SLOAD DUP4 MLOAD PUSH1 0x20 DUP6 ADD MLOAD PUSH1 0x40 DUP7 ADD MLOAD PUSH1 0x60 DUP8 ADD MLOAD DUP11 SWAP5 SWAP1 SWAP4 SWAP3 SWAP2 ISZERO ISZERO SWAP2 PUSH1 0x1 PUSH1 0x1 PUSH1 0xA0 SHL SUB SWAP2 DUP3 AND SWAP2 AND DUP2 EXTCODESIZE ISZERO PUSH2 0x2EF JUMPI PUSH1 0x40 MLOAD PUSH4 0xB65B361F PUSH1 0xE0 SHL DUP2 MSTORE PUSH1 0x4 DUP2 ADD SWAP5 SWAP1 SWAP5 MSTORE PUSH1 0x1 PUSH1 0x1 PUSH1 0xA0 SHL SUB AND PUSH1 0x24 DUP5 ADD MSTORE SWAP1 ISZERO ISZERO PUSH1 0x44 DUP4 ADD MSTORE PUSH1 0x64 DUP3 ADD SWAP3 SWAP1 SWAP3 MSTORE SWAP1 DUP3 SWAP1 DUP3 SWAP1 PUSH1 0x84 SWAP1 DUP3 SWAP1 DUP5 SWAP1 GAS CALL DUP1 ISZERO PUSH2 0x2F3 JUMPI PUSH2 0x1B29 JUMPI JUMPDEST POP POP PUSH1 0x2 SLOAD PUSH1 0x80 DUP5 ADD MLOAD PUSH2 0x16C7 SWAP2 PUSH1 0x1 PUSH1 0x1 PUSH1 0xA0 SHL SUB AND PUSH2 0x33E4 JUMP JUMPDEST PUSH1 0x2 SLOAD PUSH1 0x80 DUP5 ADD MLOAD DUP8 SWAP2 PUSH1 0x1 PUSH1 0x1 PUSH1 0xA0 SHL SUB AND SWAP1 DUP2 EXTCODESIZE ISZERO PUSH2 0x109C JUMPI DUP3 SWAP2 PUSH1 0x24 DUP4 SWAP3 PUSH1 0x40 MLOAD SWAP5 DUP6 SWAP4 DUP5 SWAP3 PUSH4 0x6E93AE2B PUSH1 0xE0 SHL DUP5 MSTORE PUSH1 0x4 DUP5 ADD MSTORE GAS CALL DUP1 ISZERO PUSH2 0x2F3 JUMPI PUSH2 0x1B15 JUMPI JUMPDEST POP POP PUSH2 0x180 DUP4 ADD MLOAD PUSH1 0x1 SLOAD PUSH1 0x40 MLOAD PUSH4 0x1DB04579 PUSH1 0xE1 SHL DUP2 MSTORE PUSH1 0x4 DUP2 ADD SWAP3 SWAP1 SWAP3 MSTORE PUSH1 0x60 SWAP1 DUP3 SWAP1 PUSH1 0x24 SWAP1 DUP3 SWAP1 PUSH1 0x1 PUSH1 0x1 PUSH1 0xA0 SHL SUB AND GAS STATICCALL SWAP1 DUP2 ISZERO PUSH2 0xD2A JUMPI DUP8 DUP1 DUP2 SWAP3 DUP3 SWAP5 PUSH2 0x1AD0 JUMPI JUMPDEST POP DUP1 PUSH2 0x1A63 JUMPI JUMPDEST POP POP DUP1 PUSH2 0x19F5 JUMPI JUMPDEST POP DUP1 PUSH2 0x1920 JUMPI JUMPDEST POP PUSH1 0xA0 PUSH0 DUP1 MLOAD PUSH1 0x20 PUSH2 0x36F7 DUP4 CODECOPY DUP2 MLOAD SWAP2 MSTORE SWAP2 PUSH1 0x1 DUP1 DUP4 SHL SUB PUSH1 0x20 DUP7 ADD MLOAD AND DUP9 MSTORE PUSH1 0x9 PUSH1 0x20 MSTORE PUSH2 0x179B DUP5 PUSH1 0x40 DUP11 KECCAK256 PUSH2 0x2E43 JUMP JUMPDEST PUSH1 0x1 DUP1 DUP4 SHL SUB PUSH1 0x20 DUP7 ADD MLOAD AND SWAP5 DUP1 MLOAD SWAP2 PUSH1 0x40 DUP3 ADD MLOAD ISZERO ISZERO SWAP2 DUP5 PUSH1 0x60 DUP3 ADD MLOAD SWAP2 ADD MLOAD SWAP3 PUSH1 0x40 MLOAD SWAP5 DUP6 MSTORE PUSH1 0x20 DUP6 ADD MSTORE PUSH1 0x40 DUP5 ADD MSTORE PUSH1 0x60 DUP4 ADD MSTORE PUSH1 0x80 DUP3 ADD MSTORE LOG3 PUSH1 0x6 DUP2 ADD DUP1 SLOAD PUSH3 0xFF0000 NOT AND SWAP1 SSTORE JUMPDEST DUP3 PUSH1 0xA DUP3 ADD SLOAD DUP1 PUSH2 0x1874 JUMPI JUMPDEST POP POP PUSH1 0x6 DUP2 ADD SLOAD PUSH1 0xFF DUP2 PUSH1 0x10 SHR AND ISZERO PUSH2 0x180F JUMPI JUMPDEST DUP4 PUSH1 0x1 DUP2 SSTORE DUP1 RETURN JUMPDEST PUSH1 0xFF AND PUSH1 0x3 SUB PUSH2 0x184B JUMPI PUSH1 0x8 ADD SLOAD SWAP1 JUMPDEST PUSH32 0x9947370F1E808DD40DE986FCA744D8715D4D7AA575359F77A7BDEEB887F590EA DUP4 DUP1 LOG3 PUSH0 DUP1 DUP1 PUSH2 0x1807 JUMP JUMPDEST POP PUSH1 0x5 SLOAD PUSH0 NOT DUP2 ADD SWAP1 DUP2 GT PUSH2 0x1860 JUMPI SWAP1 PUSH2 0x181F JUMP JUMPDEST PUSH4 0x4E487B71 PUSH1 0xE0 SHL DUP4 MSTORE PUSH1 0x11 PUSH1 0x4 MSTORE PUSH1 0x24 DUP4 REVERT JUMPDEST DUP2 SWAP1 PUSH1 0x6 DUP5 ADD SLOAD PUSH1 0x4 PUSH1 0xFF DUP3 AND EQ DUP1 PUSH2 0x1913 JUMPI JUMPDEST ISZERO PUSH2 0x18F9 JUMPI POP PUSH2 0x189E SWAP2 POP PUSH1 0xD DUP5 ADD SLOAD SWAP1 PUSH2 0x2D80 JUMP JUMPDEST DUP1 ISZERO PUSH2 0x17F3 JUMPI DUP2 DUP1 DUP1 SWAP3 CALLER GAS CALL PUSH2 0x18B3 PUSH2 0x2D9E JUMP JUMPDEST POP ISZERO PUSH2 0x18C0 JUMPI DUP3 PUSH0 PUSH2 0x17F3 JUMP JUMPDEST PUSH1 0x40 MLOAD PUSH3 0x461BCD PUSH1 0xE5 SHL DUP2 MSTORE PUSH1 0x20 PUSH1 0x4 DUP3 ADD MSTORE PUSH1 0x11 PUSH1 0x24 DUP3 ADD MSTORE PUSH17 0x12D9595C195C881999594819985A5B1959 PUSH1 0x7A SHL PUSH1 0x44 DUP3 ADD MSTORE PUSH1 0x64 SWAP1 REVERT JUMPDEST PUSH1 0x10 SHR PUSH1 0xFF AND ISZERO PUSH2 0x190B JUMPI JUMPDEST POP PUSH2 0x189E JUMP JUMPDEST SWAP1 POP PUSH0 PUSH2 0x1905 JUMP JUMPDEST POP PUSH1 0xD DUP6 ADD SLOAD ISZERO ISZERO PUSH2 0x1888 JUMP JUMPDEST PUSH1 0x1 SLOAD PUSH1 0x40 MLOAD PUSH4 0xB7902303 PUSH1 0xE0 SHL DUP2 MSTORE SWAP3 SWAP1 PUSH1 0x20 SWAP1 DUP5 SWAP1 PUSH1 0x4 SWAP1 DUP3 SWAP1 PUSH1 0x1 PUSH1 0x1 PUSH1 0xA0 SHL SUB AND GAS STATICCALL SWAP3 DUP4 ISZERO PUSH2 0x3A0 JUMPI DUP9 SWAP4 PUSH2 0x19C4 JUMPI JUMPDEST POP PUSH1 0x1 PUSH1 0x1 PUSH1 0xA0 SHL SUB DUP4 AND ISZERO PUSH2 0x1986 JUMPI PUSH2 0x197F PUSH1 0xA0 SWAP3 PUSH0 DUP1 MLOAD PUSH1 0x20 PUSH2 0x36F7 DUP4 CODECOPY DUP2 MLOAD SWAP2 MSTORE SWAP5 PUSH2 0x33E4 JUMP JUMPDEST SWAP2 POP PUSH2 0x1769 JUMP JUMPDEST PUSH1 0x40 MLOAD PUSH3 0x461BCD PUSH1 0xE5 SHL DUP2 MSTORE PUSH1 0x20 PUSH1 0x4 DUP3 ADD MSTORE PUSH1 0x16 PUSH1 0x24 DUP3 ADD MSTORE PUSH22 0x125B9CDD5C985B98D948199D5B99081B9BDD081CD95D PUSH1 0x52 SHL PUSH1 0x44 DUP3 ADD MSTORE PUSH1 0x64 SWAP1 REVERT JUMPDEST PUSH2 0x19E7 SWAP2 SWAP4 POP PUSH1 0x20 RETURNDATASIZE PUSH1 0x20 GT PUSH2 0x19EE JUMPI JUMPDEST PUSH2 0x19DF DUP2 DUP4 PUSH2 0x2B48 JUMP JUMPDEST DUP2 ADD SWAP1 PUSH2 0x361E JUMP JUMPDEST SWAP2 PUSH0 PUSH2 0x1955 JUMP JUMPDEST POP RETURNDATASIZE PUSH2 0x19D5 JUMP JUMPDEST PUSH1 0x1 SLOAD PUSH1 0x40 MLOAD PUSH4 0x61D027B3 PUSH1 0xE0 SHL DUP2 MSTORE SWAP2 SWAP1 PUSH1 0x20 SWAP1 DUP4 SWAP1 PUSH1 0x4 SWAP1 DUP3 SWAP1 PUSH1 0x1 PUSH1 0x1 PUSH1 0xA0 SHL SUB AND GAS STATICCALL DUP1 ISZERO PUSH2 0x1A58 JUMPI PUSH2 0x1A33 SWAP3 DUP11 SWAP2 PUSH2 0x1A39 JUMPI JUMPDEST POP PUSH2 0x33E4 JUMP JUMPDEST PUSH0 PUSH2 0x1762 JUMP JUMPDEST PUSH2 0x1A52 SWAP2 POP PUSH1 0x20 RETURNDATASIZE PUSH1 0x20 GT PUSH2 0x19EE JUMPI PUSH2 0x19DF DUP2 DUP4 PUSH2 0x2B48 JUMP JUMPDEST PUSH0 PUSH2 0x1A2D JUMP JUMPDEST PUSH1 0x40 MLOAD RETURNDATASIZE DUP12 DUP3 RETURNDATACOPY RETURNDATASIZE SWAP1 REVERT JUMPDEST PUSH1 0x2 SLOAD PUSH2 0x1A7A SWAP1 DUP3 SWAP1 PUSH1 0x1 PUSH1 0x1 PUSH1 0xA0 SHL SUB AND PUSH2 0x33E4 JUMP JUMPDEST PUSH1 0x2 SLOAD PUSH1 0x1 PUSH1 0x1 PUSH1 0xA0 SHL SUB AND SWAP1 DUP2 EXTCODESIZE ISZERO PUSH2 0x109C JUMPI DUP3 SWAP2 PUSH1 0x24 DUP4 SWAP3 PUSH1 0x40 MLOAD SWAP5 DUP6 SWAP4 DUP5 SWAP3 PUSH4 0x2102C97 PUSH1 0xE1 SHL DUP5 MSTORE PUSH1 0x4 DUP5 ADD MSTORE GAS CALL DUP1 ISZERO PUSH2 0x2F3 JUMPI ISZERO PUSH2 0x175A JUMPI PUSH2 0x1AC1 SWAP1 PUSH2 0x2B20 JUMP JUMPDEST PUSH2 0x1ACC JUMPI DUP8 PUSH0 PUSH2 0x175A JUMP JUMPDEST DUP8 DUP1 REVERT JUMPDEST SWAP4 POP POP POP POP PUSH1 0x60 DUP2 RETURNDATASIZE PUSH1 0x60 GT PUSH2 0x1B0D JUMPI JUMPDEST DUP2 PUSH2 0x1AEE PUSH1 0x60 SWAP4 DUP4 PUSH2 0x2B48 JUMP JUMPDEST DUP2 ADD SUB SLT PUSH2 0x325 JUMPI DUP1 MLOAD DUP8 PUSH1 0x40 PUSH1 0x20 DUP5 ADD MLOAD SWAP4 ADD MLOAD SWAP2 SWAP3 SWAP2 SWAP3 PUSH0 PUSH2 0x1753 JUMP JUMPDEST RETURNDATASIZE SWAP2 POP PUSH2 0x1AE1 JUMP JUMPDEST PUSH2 0x1B1E SWAP1 PUSH2 0x2B20 JUMP JUMPDEST PUSH2 0x2EF JUMPI DUP6 PUSH0 PUSH2 0x170C JUMP JUMPDEST PUSH2 0x1B32 SWAP1 PUSH2 0x2B20 JUMP JUMPDEST PUSH2 0x2EF JUMPI DUP6 PUSH0 PUSH2 0x16AB JUMP JUMPDEST SWAP1 SWAP2 POP PUSH1 0x20 DUP2 RETURNDATASIZE PUSH1 0x20 GT PUSH2 0x1B6A JUMPI JUMPDEST DUP2 PUSH2 0x1B59 PUSH1 0x20 SWAP4 DUP4 PUSH2 0x2B48 JUMP JUMPDEST DUP2 ADD SUB SLT PUSH2 0x733 JUMPI MLOAD SWAP1 PUSH1 0xB PUSH2 0x1629 JUMP JUMPDEST RETURNDATASIZE SWAP2 POP PUSH2 0x1B4C JUMP JUMPDEST PUSH2 0x1B7B SWAP2 PUSH2 0x2DDD JUMP JUMPDEST PUSH2 0x152D JUMP JUMPDEST SWAP1 DUP7 DUP2 SLT PUSH2 0x1B90 JUMPI JUMPDEST POP POP PUSH2 0x152D JUMP JUMPDEST PUSH2 0x2710 SWAP2 SWAP3 POP PUSH2 0x1BA2 PUSH2 0x1BA8 SWAP2 PUSH2 0x2ED4 JUMP JUMPDEST DUP4 PUSH2 0x2E22 JUMP JUMPDEST DIV PUSH1 0x40 DUP4 ADD MLOAD ISZERO ISZERO PUSH0 EQ PUSH2 0x1BC6 JUMPI PUSH2 0x1BBF SWAP2 PUSH2 0x2DDD JUMP JUMPDEST PUSH0 DUP1 PUSH2 0x1B89 JUMP JUMPDEST PUSH2 0x1BCF SWAP2 PUSH2 0x2C5B JUMP JUMPDEST PUSH2 0x1BBF JUMP JUMPDEST SWAP1 POP PUSH1 0x20 DUP2 RETURNDATASIZE PUSH1 0x20 GT PUSH2 0x1BFE JUMPI JUMPDEST DUP2 PUSH2 0x1BEF PUSH1 0x20 SWAP4 DUP4 PUSH2 0x2B48 JUMP JUMPDEST DUP2 ADD SUB SLT PUSH2 0x733 JUMPI MLOAD PUSH0 PUSH2 0x14FE JUMP JUMPDEST RETURNDATASIZE SWAP2 POP PUSH2 0x1BE2 JUMP JUMPDEST PUSH1 0x40 MLOAD PUSH3 0x461BCD PUSH1 0xE5 SHL DUP2 MSTORE PUSH1 0x20 PUSH1 0x4 DUP3 ADD MSTORE PUSH1 0x11 PUSH1 0x24 DUP3 ADD MSTORE PUSH17 0x131A5B5A5D081B9BDD081C995858DA1959 PUSH1 0x7A SHL PUSH1 0x44 DUP3 ADD MSTORE PUSH1 0x64 SWAP1 REVERT JUMPDEST PUSH1 0x5 DUP3 ADD SLOAD DUP2 LT ISZERO PUSH2 0x149F JUMP JUMPDEST PUSH1 0x1 DUP2 SUB PUSH2 0x223B JUMPI POP PUSH1 0x1 DUP3 ADD SLOAD PUSH1 0xA0 SHR PUSH1 0xFF AND ISZERO PUSH2 0x222E JUMPI PUSH1 0x5 DUP3 ADD SLOAD DUP2 LT ISZERO JUMPDEST ISZERO PUSH2 0x21F6 JUMPI PUSH2 0x1C7C DUP3 PUSH2 0x2C7C JUMP JUMPDEST SWAP1 PUSH1 0x1 DUP1 PUSH1 0xA0 SHL SUB PUSH1 0x1 SLOAD AND PUSH1 0x20 DUP4 MLOAD PUSH1 0x64 PUSH1 0x40 DUP7 ADD MLOAD ISZERO ISZERO SWAP2 PUSH1 0x60 DUP8 ADD MLOAD SWAP5 PUSH1 0x40 MLOAD SWAP6 DUP7 SWAP5 DUP6 SWAP4 PUSH4 0xB391DECF PUSH1 0xE0 SHL DUP6 MSTORE PUSH1 0x4 DUP6 ADD MSTORE PUSH1 0x24 DUP5 ADD MSTORE PUSH1 0x44 DUP4 ADD MSTORE GAS STATICCALL SWAP1 DUP2 ISZERO PUSH2 0xD4D JUMPI DUP7 SWAP2 PUSH2 0x21C4 JUMPI JUMPDEST POP DUP2 DUP7 DUP3 SGT ISZERO PUSH2 0x2176 JUMPI POP PUSH2 0x1CE5 PUSH2 0x2710 SWAP2 DUP4 PUSH2 0x2E22 JUMP JUMPDEST DIV PUSH1 0x40 DUP4 ADD MLOAD ISZERO ISZERO PUSH0 EQ PUSH2 0x2168 JUMPI PUSH2 0x1CFC SWAP2 PUSH2 0x2C5B JUMP JUMPDEST PUSH1 0x5 SLOAD SWAP1 PUSH2 0x1D09 DUP3 PUSH2 0x2E35 JUMP JUMPDEST PUSH1 0x5 SSTORE DUP2 DUP7 MSTORE PUSH1 0x7 PUSH1 0x20 SWAP1 DUP2 MSTORE PUSH1 0x40 DUP1 DUP9 KECCAK256 DUP6 MLOAD DUP2 SSTORE SWAP2 DUP6 ADD MLOAD PUSH1 0x1 DUP4 ADD DUP1 SLOAD SWAP3 DUP8 ADD MLOAD PUSH1 0x1 PUSH1 0x1 PUSH1 0xA8 SHL SUB NOT SWAP1 SWAP4 AND PUSH1 0x1 PUSH1 0x1 PUSH1 0xA0 SHL SUB SWAP3 SWAP1 SWAP3 AND SWAP2 SWAP1 SWAP2 OR SWAP2 ISZERO ISZERO PUSH1 0xA0 DUP2 SWAP1 SHL PUSH1 0xFF PUSH1 0xA0 SHL AND SWAP3 SWAP1 SWAP3 OR SWAP1 SSTORE DUP8 SWAP2 SWAP1 PUSH2 0x1D69 SWAP1 PUSH2 0x1596 JUMP JUMPDEST PUSH1 0x6 DUP3 ADD SSTORE TIMESTAMP PUSH1 0x7 DUP3 ADD SSTORE PUSH1 0x8 DUP2 ADD PUSH1 0x1 PUSH1 0xFF NOT DUP3 SLOAD AND OR SWAP1 SSTORE PUSH2 0x1C0 DUP6 ADD MLOAD PUSH1 0x9 DUP3 ADD SSTORE PUSH2 0x1E0 DUP6 ADD MLOAD PUSH1 0xA DUP3 ADD SSTORE PUSH1 0x20 PUSH1 0x1 DUP1 PUSH1 0xA0 SHL SUB PUSH1 0x1 SLOAD AND PUSH1 0x24 DUP8 MLOAD PUSH1 0x40 MLOAD SWAP6 DUP7 SWAP4 DUP5 SWAP3 PUSH4 0x7CC6765F PUSH1 0xE1 SHL DUP5 MSTORE PUSH1 0x4 DUP5 ADD MSTORE GAS CALL SWAP2 DUP3 ISZERO PUSH2 0x3A0 JUMPI DUP9 SWAP3 PUSH2 0x2133 JUMPI JUMPDEST POP PUSH1 0xB ADD SSTORE PUSH1 0x1 SLOAD DUP4 MLOAD PUSH1 0x20 DUP6 ADD MLOAD PUSH1 0x40 DUP7 ADD MLOAD PUSH1 0x60 DUP8 ADD MLOAD DUP11 SWAP5 SWAP1 SWAP4 SWAP3 SWAP2 ISZERO ISZERO SWAP2 PUSH1 0x1 PUSH1 0x1 PUSH1 0xA0 SHL SUB SWAP2 DUP3 AND SWAP2 AND DUP2 EXTCODESIZE ISZERO PUSH2 0x2EF JUMPI PUSH1 0x40 MLOAD PUSH4 0xB65B361F PUSH1 0xE0 SHL DUP2 MSTORE PUSH1 0x4 DUP2 ADD SWAP5 SWAP1 SWAP5 MSTORE PUSH1 0x1 PUSH1 0x1 PUSH1 0xA0 SHL SUB AND PUSH1 0x24 DUP5 ADD MSTORE SWAP1 ISZERO ISZERO PUSH1 0x44 DUP4 ADD MSTORE PUSH1 0x64 DUP3 ADD SWAP3 SWAP1 SWAP3 MSTORE SWAP1 DUP3 SWAP1 DUP3 SWAP1 PUSH1 0x84 SWAP1 DUP3 SWAP1 DUP5 SWAP1 GAS CALL DUP1 ISZERO PUSH2 0x2F3 JUMPI PUSH2 0x211F JUMPI JUMPDEST POP POP PUSH1 0x2 SLOAD PUSH1 0x80 DUP5 ADD MLOAD PUSH2 0x1E6F SWAP2 PUSH1 0x1 PUSH1 0x1 PUSH1 0xA0 SHL SUB AND PUSH2 0x33E4 JUMP JUMPDEST PUSH1 0x2 SLOAD PUSH1 0x80 DUP5 ADD MLOAD DUP8 SWAP2 PUSH1 0x1 PUSH1 0x1 PUSH1 0xA0 SHL SUB AND SWAP1 DUP2 EXTCODESIZE ISZERO PUSH2 0x109C JUMPI DUP3 SWAP2 PUSH1 0x24 DUP4 SWAP3 PUSH1 0x40 MLOAD SWAP5 DUP6 SWAP4 DUP5 SWAP3 PUSH4 0x6E93AE2B PUSH1 0xE0 SHL DUP5 MSTORE PUSH1 0x4 DUP5 ADD MSTORE GAS CALL DUP1 ISZERO PUSH2 0x2F3 JUMPI PUSH2 0x210B JUMPI JUMPDEST POP POP PUSH2 0x180 DUP4 ADD MLOAD PUSH1 0x1 SLOAD PUSH1 0x40 MLOAD PUSH4 0x1DB04579 PUSH1 0xE1 SHL DUP2 MSTORE PUSH1 0x4 DUP2 ADD SWAP3 SWAP1 SWAP3 MSTORE PUSH1 0x60 SWAP1 DUP3 SWAP1 PUSH1 0x24 SWAP1 DUP3 SWAP1 PUSH1 0x1 PUSH1 0x1 PUSH1 0xA0 SHL SUB AND GAS STATICCALL SWAP1 DUP2 ISZERO PUSH2 0xD2A JUMPI DUP8 DUP1 DUP2 SWAP3 DUP3 SWAP5 PUSH2 0x20C6 JUMPI JUMPDEST POP DUP1 PUSH2 0x205D JUMPI JUMPDEST POP POP DUP1 PUSH2 0x201A JUMPI JUMPDEST POP DUP1 PUSH2 0x1F93 JUMPI JUMPDEST POP PUSH1 0xA0 PUSH0 DUP1 MLOAD PUSH1 0x20 PUSH2 0x36F7 DUP4 CODECOPY DUP2 MLOAD SWAP2 MSTORE SWAP2 PUSH1 0x1 DUP1 DUP4 SHL SUB PUSH1 0x20 DUP7 ADD MLOAD AND DUP9 MSTORE PUSH1 0x9 PUSH1 0x20 MSTORE PUSH2 0x1F43 DUP5 PUSH1 0x40 DUP11 KECCAK256 PUSH2 0x2E43 JUMP JUMPDEST PUSH1 0x1 DUP1 DUP4 SHL SUB PUSH1 0x20 DUP7 ADD MLOAD AND SWAP5 DUP1 MLOAD SWAP2 PUSH1 0x40 DUP3 ADD MLOAD ISZERO ISZERO SWAP2 DUP5 PUSH1 0x60 DUP3 ADD MLOAD SWAP2 ADD MLOAD SWAP3 PUSH1 0x40 MLOAD SWAP5 DUP6 MSTORE PUSH1 0x20 DUP6 ADD MSTORE PUSH1 0x40 DUP5 ADD MSTORE PUSH1 0x60 DUP4 ADD MSTORE PUSH1 0x80 DUP3 ADD MSTORE LOG3 PUSH1 0x6 DUP2 ADD DUP1 SLOAD PUSH3 0xFF0000 NOT AND SWAP1 SSTORE PUSH2 0x17E7 JUMP JUMPDEST PUSH1 0x1 SLOAD PUSH1 0x40 MLOAD PUSH4 0xB7902303 PUSH1 0xE0 SHL DUP2 MSTORE SWAP3 SWAP1 PUSH1 0x20 SWAP1 DUP5 SWAP1 PUSH1 0x4 SWAP1 DUP3 SWAP1 PUSH1 0x1 PUSH1 0x1 PUSH1 0xA0 SHL SUB AND GAS STATICCALL SWAP3 DUP4 ISZERO PUSH2 0x3A0 JUMPI DUP9 SWAP4 PUSH2 0x1FF9 JUMPI JUMPDEST POP PUSH1 0x1 PUSH1 0x1 PUSH1 0xA0 SHL SUB DUP4 AND ISZERO PUSH2 0x1986 JUMPI PUSH2 0x1FF2 PUSH1 0xA0 SWAP3 PUSH0 DUP1 MLOAD PUSH1 0x20 PUSH2 0x36F7 DUP4 CODECOPY DUP2 MLOAD SWAP2 MSTORE SWAP5 PUSH2 0x33E4 JUMP JUMPDEST SWAP2 POP PUSH2 0x1F11 JUMP JUMPDEST PUSH2 0x2013 SWAP2 SWAP4 POP PUSH1 0x20 RETURNDATASIZE PUSH1 0x20 GT PUSH2 0x19EE JUMPI PUSH2 0x19DF DUP2 DUP4 PUSH2 0x2B48 JUMP JUMPDEST SWAP2 PUSH0 PUSH2 0x1FC8 JUMP JUMPDEST PUSH1 0x1 SLOAD PUSH1 0x40 MLOAD PUSH4 0x61D027B3 PUSH1 0xE0 SHL DUP2 MSTORE SWAP2 SWAP1 PUSH1 0x20 SWAP1 DUP4 SWAP1 PUSH1 0x4 SWAP1 DUP3 SWAP1 PUSH1 0x1 PUSH1 0x1 PUSH1 0xA0 SHL SUB AND GAS STATICCALL DUP1 ISZERO PUSH2 0x1A58 JUMPI PUSH2 0x2057 SWAP3 DUP11 SWAP2 PUSH2 0x1A39 JUMPI POP PUSH2 0x33E4 JUMP JUMPDEST PUSH0 PUSH2 0x1F0A JUMP JUMPDEST PUSH1 0x2 SLOAD PUSH2 0x2074 SWAP1 DUP3 SWAP1 PUSH1 0x1 PUSH1 0x1 PUSH1 0xA0 SHL SUB AND PUSH2 0x33E4 JUMP JUMPDEST PUSH1 0x2 SLOAD PUSH1 0x1 PUSH1 0x1 PUSH1 0xA0 SHL SUB AND SWAP1 DUP2 EXTCODESIZE ISZERO PUSH2 0x109C JUMPI DUP3 SWAP2 PUSH1 0x24 DUP4 SWAP3 PUSH1 0x40 MLOAD SWAP5 DUP6 SWAP4 DUP5 SWAP3 PUSH4 0x2102C97 PUSH1 0xE1 SHL DUP5 MSTORE PUSH1 0x4 DUP5 ADD MSTORE GAS CALL DUP1 ISZERO PUSH2 0x2F3 JUMPI ISZERO PUSH2 0x1F02 JUMPI PUSH2 0x20BB SWAP1 PUSH2 0x2B20 JUMP JUMPDEST PUSH2 0x1ACC JUMPI DUP8 PUSH0 PUSH2 0x1F02 JUMP JUMPDEST SWAP4 POP POP POP POP PUSH1 0x60 DUP2 RETURNDATASIZE PUSH1 0x60 GT PUSH2 0x2103 JUMPI JUMPDEST DUP2 PUSH2 0x20E4 PUSH1 0x60 SWAP4 DUP4 PUSH2 0x2B48 JUMP JUMPDEST DUP2 ADD SUB SLT PUSH2 0x325 JUMPI DUP1 MLOAD DUP8 PUSH1 0x40 PUSH1 0x20 DUP5 ADD MLOAD SWAP4 ADD MLOAD SWAP2 SWAP3 SWAP2 SWAP3 PUSH0 PUSH2 0x1EFB JUMP JUMPDEST RETURNDATASIZE SWAP2 POP PUSH2 0x20D7 JUMP JUMPDEST PUSH2 0x2114 SWAP1 PUSH2 0x2B20 JUMP JUMPDEST PUSH2 0x2EF JUMPI DUP6 PUSH0 PUSH2 0x1EB4 JUMP JUMPDEST PUSH2 0x2128 SWAP1 PUSH2 0x2B20 JUMP JUMPDEST PUSH2 0x2EF JUMPI DUP6 PUSH0 PUSH2 0x1E53 JUMP JUMPDEST SWAP1 SWAP2 POP PUSH1 0x20 DUP2 RETURNDATASIZE PUSH1 0x20 GT PUSH2 0x2160 JUMPI JUMPDEST DUP2 PUSH2 0x214F PUSH1 0x20 SWAP4 DUP4 PUSH2 0x2B48 JUMP JUMPDEST DUP2 ADD SUB SLT PUSH2 0x733 JUMPI MLOAD SWAP1 PUSH1 0xB PUSH2 0x1DD1 JUMP JUMPDEST RETURNDATASIZE SWAP2 POP PUSH2 0x2142 JUMP JUMPDEST PUSH2 0x2171 SWAP2 PUSH2 0x2DDD JUMP JUMPDEST PUSH2 0x1CFC JUMP JUMPDEST SWAP1 DUP7 DUP2 SLT PUSH2 0x2186 JUMPI JUMPDEST POP POP PUSH2 0x1CFC JUMP JUMPDEST PUSH2 0x2710 SWAP2 SWAP3 POP PUSH2 0x1BA2 PUSH2 0x2198 SWAP2 PUSH2 0x2ED4 JUMP JUMPDEST DIV PUSH1 0x40 DUP4 ADD MLOAD ISZERO ISZERO PUSH0 EQ PUSH2 0x21B6 JUMPI PUSH2 0x21AF SWAP2 PUSH2 0x2DDD JUMP JUMPDEST PUSH0 DUP1 PUSH2 0x217F JUMP JUMPDEST PUSH2 0x21BF SWAP2 PUSH2 0x2C5B JUMP JUMPDEST PUSH2 0x21AF JUMP JUMPDEST SWAP1 POP PUSH1 0x20 DUP2 RETURNDATASIZE PUSH1 0x20 GT PUSH2 0x21EE JUMPI JUMPDEST DUP2 PUSH2 0x21DF PUSH1 0x20 SWAP4 DUP4 PUSH2 0x2B48 JUMP JUMPDEST DUP2 ADD SUB SLT PUSH2 0x733 JUMPI MLOAD PUSH0 PUSH2 0x1CCD JUMP JUMPDEST RETURNDATASIZE SWAP2 POP PUSH2 0x21D2 JUMP JUMPDEST PUSH1 0x40 MLOAD PUSH3 0x461BCD PUSH1 0xE5 SHL DUP2 MSTORE PUSH1 0x20 PUSH1 0x4 DUP3 ADD MSTORE PUSH1 0x10 PUSH1 0x24 DUP3 ADD MSTORE PUSH16 0x14DD1BDC081B9BDD081C995858DA1959 PUSH1 0x82 SHL PUSH1 0x44 DUP3 ADD MSTORE PUSH1 0x64 SWAP1 REVERT JUMPDEST PUSH1 0x5 DUP3 ADD SLOAD DUP2 GT ISZERO PUSH2 0x1C6E JUMP JUMPDEST PUSH1 0x2 DUP2 SUB PUSH2 0x22F2 JUMPI POP PUSH1 0x1 DUP3 ADD SLOAD PUSH1 0xFF DUP2 PUSH1 0xA0 SHR AND PUSH0 EQ PUSH2 0x22E5 JUMPI PUSH1 0x5 DUP4 ADD SLOAD DUP3 GT ISZERO JUMPDEST DUP1 ISZERO PUSH2 0x22D9 JUMPI JUMPDEST ISZERO PUSH2 0x2288 JUMPI POP PUSH2 0x1C7C DUP3 PUSH2 0x2C7C JUMP JUMPDEST PUSH1 0x6 DUP2 ADD DUP1 SLOAD PUSH3 0xFF0000 NOT AND SWAP1 SSTORE PUSH2 0x17E7 JUMP JUMPDEST PUSH2 0x22AF SWAP2 POP PUSH2 0x22A0 PUSH1 0x3 DUP5 ADD SLOAD PUSH1 0x9 DUP6 ADD SLOAD SWAP1 PUSH2 0x2C5B JUMP JUMPDEST SWAP1 PUSH1 0x1 PUSH1 0x1 PUSH1 0xA0 SHL SUB AND PUSH2 0x33E4 JUMP JUMPDEST DUP2 PUSH32 0x61B9399F2F0F32CA39CE8D7BE32CAED5EC22FE07A6DABA3A467ED479EC606582 DUP5 DUP1 LOG2 PUSH2 0x2275 JUMP JUMPDEST POP PUSH1 0x5 DUP4 ADD SLOAD ISZERO PUSH2 0x2266 JUMP JUMPDEST PUSH1 0x5 DUP4 ADD SLOAD DUP3 LT ISZERO PUSH2 0x225F JUMP JUMPDEST PUSH1 0x3 DUP2 SUB PUSH2 0x2309 JUMPI POP PUSH2 0x2275 SWAP1 PUSH1 0x8 DUP4 ADD SLOAD PUSH2 0x3007 JUMP JUMPDEST PUSH1 0x4 EQ PUSH2 0x2317 JUMPI JUMPDEST POP PUSH2 0x17E7 JUMP JUMPDEST PUSH1 0xF DUP3 ADD SLOAD ISZERO DUP1 ISZERO PUSH2 0x29A0 JUMPI JUMPDEST ISZERO PUSH2 0x2969 JUMPI PUSH2 0x2332 DUP3 PUSH2 0x2C7C JUMP JUMPDEST SWAP1 PUSH2 0x236C PUSH1 0x2 DUP5 ADD SLOAD PUSH2 0x234A PUSH1 0xD DUP7 ADD SLOAD DUP1 SWAP3 PUSH2 0x2D80 JUMP JUMPDEST PUSH1 0x60 DUP6 ADD MSTORE PUSH2 0x235D DUP2 PUSH1 0x3 DUP8 ADD SLOAD PUSH2 0x2D80 JUMP JUMPDEST PUSH1 0x80 DUP6 ADD MSTORE PUSH1 0x9 DUP6 ADD SLOAD PUSH2 0x2D80 JUMP JUMPDEST PUSH2 0x180 DUP4 ADD MSTORE PUSH1 0x1 SLOAD DUP3 MLOAD PUSH1 0x40 DUP1 DUP6 ADD MLOAD PUSH1 0x60 DUP7 ADD MLOAD SWAP2 MLOAD PUSH4 0xB391DECF PUSH1 0xE0 SHL DUP2 MSTORE PUSH1 0x4 DUP2 ADD SWAP4 SWAP1 SWAP4 MSTORE ISZERO ISZERO PUSH1 0x24 DUP4 ADD MSTORE PUSH1 0x44 DUP3 ADD MSTORE SWAP1 PUSH1 0x20 SWAP1 DUP3 SWAP1 PUSH1 0x64 SWAP1 DUP3 SWAP1 PUSH1 0x1 PUSH1 0x1 PUSH1 0xA0 SHL SUB AND GAS STATICCALL SWAP1 DUP2 ISZERO PUSH2 0xD4D JUMPI DUP7 SWAP2 PUSH2 0x2937 JUMPI JUMPDEST POP DUP2 DUP7 DUP3 SGT ISZERO PUSH2 0x28E9 JUMPI POP PUSH2 0x23DE PUSH2 0x2710 SWAP2 DUP4 PUSH2 0x2E22 JUMP JUMPDEST DIV PUSH1 0x40 DUP4 ADD MLOAD ISZERO ISZERO PUSH0 EQ PUSH2 0x28DB JUMPI PUSH2 0x23F5 SWAP2 PUSH2 0x2C5B JUMP JUMPDEST PUSH1 0x5 SLOAD PUSH2 0x2401 DUP2 PUSH2 0x2E35 JUMP JUMPDEST PUSH1 0x5 SSTORE DUP1 DUP7 MSTORE PUSH1 0x7 PUSH1 0x20 SWAP1 DUP2 MSTORE PUSH1 0x40 DUP1 DUP9 KECCAK256 DUP6 MLOAD DUP2 SSTORE SWAP2 DUP6 ADD MLOAD PUSH1 0x1 DUP4 ADD DUP1 SLOAD SWAP3 DUP8 ADD MLOAD PUSH1 0x1 PUSH1 0x1 PUSH1 0xA8 SHL SUB NOT SWAP1 SWAP4 AND PUSH1 0x1 PUSH1 0x1 PUSH1 0xA0 SHL SUB SWAP3 SWAP1 SWAP3 AND SWAP2 SWAP1 SWAP2 OR SWAP2 ISZERO ISZERO PUSH1 0xA0 DUP2 SWAP1 SHL PUSH1 0xFF PUSH1 0xA0 SHL AND SWAP3 SWAP1 SWAP3 OR SWAP1 SSTORE DUP8 SWAP2 SWAP1 PUSH2 0x2487 SWAP1 PUSH1 0x60 DUP8 ADD MLOAD PUSH1 0x2 DUP5 ADD SSTORE PUSH1 0x80 DUP8 ADD MLOAD PUSH1 0x3 DUP5 ADD SSTORE DUP6 PUSH1 0x4 DUP5 ADD SSTORE PUSH1 0xA0 DUP8 ADD MLOAD DUP1 PUSH1 0x5 DUP6 ADD SSTORE DUP7 PUSH2 0x353E JUMP JUMPDEST PUSH1 0x6 DUP3 ADD SSTORE TIMESTAMP PUSH1 0x7 DUP3 ADD SSTORE PUSH1 0x8 DUP2 ADD PUSH1 0x1 PUSH1 0xFF NOT DUP3 SLOAD AND OR SWAP1 SSTORE PUSH2 0x1C0 DUP6 ADD MLOAD PUSH1 0x9 DUP3 ADD SSTORE PUSH2 0x1E0 DUP6 ADD MLOAD PUSH1 0xA DUP3 ADD SSTORE PUSH1 0x20 PUSH1 0x1 DUP1 PUSH1 0xA0 SHL SUB PUSH1 0x1 SLOAD AND PUSH1 0x24 DUP8 MLOAD PUSH1 0x40 MLOAD SWAP6 DUP7 SWAP4 DUP5 SWAP3 PUSH4 0x7CC6765F PUSH1 0xE1 SHL DUP5 MSTORE PUSH1 0x4 DUP5 ADD MSTORE GAS CALL SWAP2 DUP3 ISZERO PUSH2 0x3A0 JUMPI DUP9 SWAP3 PUSH2 0x28A6 JUMPI JUMPDEST POP PUSH1 0xB ADD SSTORE PUSH1 0x1 SLOAD DUP4 MLOAD PUSH1 0x20 DUP6 ADD MLOAD PUSH1 0x40 DUP7 ADD MLOAD PUSH1 0x60 DUP8 ADD MLOAD DUP11 SWAP5 SWAP1 SWAP4 SWAP3 SWAP2 ISZERO ISZERO SWAP2 PUSH1 0x1 PUSH1 0x1 PUSH1 0xA0 SHL SUB SWAP2 DUP3 AND SWAP2 AND DUP2 EXTCODESIZE ISZERO PUSH2 0x2EF JUMPI PUSH1 0x40 MLOAD PUSH4 0xB65B361F PUSH1 0xE0 SHL DUP2 MSTORE PUSH1 0x4 DUP2 ADD SWAP5 SWAP1 SWAP5 MSTORE PUSH1 0x1 PUSH1 0x1 PUSH1 0xA0 SHL SUB AND PUSH1 0x24 DUP5 ADD MSTORE SWAP1 ISZERO ISZERO PUSH1 0x44 DUP4 ADD MSTORE PUSH1 0x64 DUP3 ADD SWAP3 SWAP1 SWAP3 MSTORE SWAP1 DUP3 SWAP1 DUP3 SWAP1 PUSH1 0x84 SWAP1 DUP3 SWAP1 DUP5 SWAP1 GAS CALL DUP1 ISZERO PUSH2 0x2F3 JUMPI PUSH2 0x2892 JUMPI JUMPDEST POP POP PUSH1 0x2 SLOAD PUSH1 0x80 DUP5 ADD MLOAD PUSH2 0x258D SWAP2 PUSH1 0x1 PUSH1 0x1 PUSH1 0xA0 SHL SUB AND PUSH2 0x33E4 JUMP JUMPDEST PUSH1 0x2 SLOAD PUSH1 0x80 DUP5 ADD MLOAD DUP8 SWAP2 PUSH1 0x1 PUSH1 0x1 PUSH1 0xA0 SHL SUB AND SWAP1 DUP2 EXTCODESIZE ISZERO PUSH2 0x109C JUMPI DUP3 SWAP2 PUSH1 0x24 DUP4 SWAP3 PUSH1 0x40 MLOAD SWAP5 DUP6 SWAP4 DUP5 SWAP3 PUSH4 0x6E93AE2B PUSH1 0xE0 SHL DUP5 MSTORE PUSH1 0x4 DUP5 ADD MSTORE GAS CALL DUP1 ISZERO PUSH2 0x2F3 JUMPI PUSH2 0x287E JUMPI JUMPDEST POP POP PUSH2 0x180 DUP4 ADD MLOAD PUSH1 0x1 SLOAD PUSH1 0x40 MLOAD PUSH4 0x1DB04579 PUSH1 0xE1 SHL DUP2 MSTORE PUSH1 0x4 DUP2 ADD SWAP3 SWAP1 SWAP3 MSTORE PUSH1 0x60 SWAP1 DUP3 SWAP1 PUSH1 0x24 SWAP1 DUP3 SWAP1 PUSH1 0x1 PUSH1 0x1 PUSH1 0xA0 SHL SUB AND GAS STATICCALL SWAP1 DUP2 ISZERO PUSH2 0xD2A JUMPI DUP8 DUP1 DUP2 SWAP3 DUP3 SWAP5 PUSH2 0x2839 JUMPI JUMPDEST POP DUP1 PUSH2 0x27D0 JUMPI JUMPDEST POP POP DUP1 PUSH2 0x278D JUMPI JUMPDEST POP DUP1 PUSH2 0x2718 JUMPI JUMPDEST POP PUSH1 0x20 DUP4 DUP2 ADD MLOAD PUSH1 0x1 PUSH1 0x1 PUSH1 0xA0 SHL SUB AND DUP8 MSTORE PUSH1 0x9 SWAP1 MSTORE PUSH1 0x40 DUP7 KECCAK256 PUSH2 0x2654 SWAP1 DUP3 SWAP1 PUSH2 0x2E43 JUMP JUMPDEST PUSH0 DUP1 MLOAD PUSH1 0x20 PUSH2 0x36F7 DUP4 CODECOPY DUP2 MLOAD SWAP2 MSTORE PUSH1 0xA0 PUSH1 0x1 DUP1 DUP3 SHL SUB PUSH1 0x20 DUP7 ADD MLOAD AND SWAP4 DUP6 MLOAD SWAP1 PUSH1 0x40 DUP8 ADD MLOAD ISZERO ISZERO SWAP1 PUSH1 0x60 DUP9 ADD MLOAD DUP5 DUP10 ADD MLOAD SWAP3 PUSH1 0x40 MLOAD SWAP5 DUP6 MSTORE PUSH1 0x20 DUP6 ADD MSTORE PUSH1 0x40 DUP5 ADD MSTORE PUSH1 0x60 DUP4 ADD MSTORE PUSH1 0x80 DUP3 ADD MSTORE LOG3 PUSH1 0xF DUP3 ADD SLOAD SWAP1 PUSH1 0x1 DUP3 ADD DUP1 SWAP3 GT PUSH2 0xD94 JUMPI PUSH32 0x98DC6C1012D2FB4CC0470EC0F1B82AD9EAF354865D76EBAD869D83F1559344E PUSH1 0x40 PUSH1 0x60 DUP7 SWAP4 DUP6 PUSH1 0xF DUP9 ADD SSTORE TIMESTAMP PUSH1 0x10 DUP9 ADD SSTORE ADD MLOAD DUP2 MLOAD SWAP1 DUP6 DUP3 MSTORE PUSH1 0x20 DUP3 ADD MSTORE LOG2 PUSH1 0xD DUP3 ADD SLOAD GT ISZERO PUSH2 0x2705 JUMPI JUMPDEST PUSH0 PUSH2 0x2311 JUMP JUMPDEST PUSH1 0x6 DUP2 ADD DUP1 SLOAD PUSH3 0xFF0000 NOT AND SWAP1 SSTORE PUSH2 0x26FF JUMP JUMPDEST PUSH1 0x1 SLOAD PUSH1 0x40 MLOAD PUSH4 0xB7902303 PUSH1 0xE0 SHL DUP2 MSTORE SWAP2 SWAP1 PUSH1 0x20 SWAP1 DUP4 SWAP1 PUSH1 0x4 SWAP1 DUP3 SWAP1 PUSH1 0x1 PUSH1 0x1 PUSH1 0xA0 SHL SUB AND GAS STATICCALL SWAP2 DUP3 ISZERO PUSH2 0x3A0 JUMPI DUP9 SWAP3 PUSH2 0x276C JUMPI JUMPDEST POP PUSH1 0x1 PUSH1 0x1 PUSH1 0xA0 SHL SUB DUP3 AND ISZERO PUSH2 0x1986 JUMPI PUSH2 0x2766 SWAP2 PUSH2 0x33E4 JUMP JUMPDEST PUSH0 PUSH2 0x262F JUMP JUMPDEST PUSH2 0x2786 SWAP2 SWAP3 POP PUSH1 0x20 RETURNDATASIZE PUSH1 0x20 GT PUSH2 0x19EE JUMPI PUSH2 0x19DF DUP2 DUP4 PUSH2 0x2B48 JUMP JUMPDEST SWAP1 PUSH0 PUSH2 0x274D JUMP JUMPDEST PUSH1 0x1 SLOAD PUSH1 0x40 MLOAD PUSH4 0x61D027B3 PUSH1 0xE0 SHL DUP2 MSTORE SWAP2 SWAP1 PUSH1 0x20 SWAP1 DUP4 SWAP1 PUSH1 0x4 SWAP1 DUP3 SWAP1 PUSH1 0x1 PUSH1 0x1 PUSH1 0xA0 SHL SUB AND GAS STATICCALL DUP1 ISZERO PUSH2 0x1A58 JUMPI PUSH2 0x27CA SWAP3 DUP11 SWAP2 PUSH2 0x1A39 JUMPI POP PUSH2 0x33E4 JUMP JUMPDEST PUSH0 PUSH2 0x2628 JUMP JUMPDEST PUSH1 0x2 SLOAD PUSH2 0x27E7 SWAP1 DUP3 SWAP1 PUSH1 0x1 PUSH1 0x1 PUSH1 0xA0 SHL SUB AND PUSH2 0x33E4 JUMP JUMPDEST PUSH1 0x2 SLOAD PUSH1 0x1 PUSH1 0x1 PUSH1 0xA0 SHL SUB AND SWAP1 DUP2 EXTCODESIZE ISZERO PUSH2 0x109C JUMPI DUP3 SWAP2 PUSH1 0x24 DUP4 SWAP3 PUSH1 0x40 MLOAD SWAP5 DUP6 SWAP4 DUP5 SWAP3 PUSH4 0x2102C97 PUSH1 0xE1 SHL DUP5 MSTORE PUSH1 0x4 DUP5 ADD MSTORE GAS CALL DUP1 ISZERO PUSH2 0x2F3 JUMPI ISZERO PUSH2 0x2620 JUMPI PUSH2 0x282E SWAP1 PUSH2 0x2B20 JUMP JUMPDEST PUSH2 0x1ACC JUMPI DUP8 PUSH0 PUSH2 0x2620 JUMP JUMPDEST SWAP4 POP POP POP POP PUSH1 0x60 DUP2 RETURNDATASIZE PUSH1 0x60 GT PUSH2 0x2876 JUMPI JUMPDEST DUP2 PUSH2 0x2857 PUSH1 0x60 SWAP4 DUP4 PUSH2 0x2B48 JUMP JUMPDEST DUP2 ADD SUB SLT PUSH2 0x325 JUMPI DUP1 MLOAD DUP8 PUSH1 0x40 PUSH1 0x20 DUP5 ADD MLOAD SWAP4 ADD MLOAD SWAP2 SWAP3 SWAP2 SWAP3 PUSH0 PUSH2 0x2619 JUMP JUMPDEST RETURNDATASIZE SWAP2 POP PUSH2 0x284A JUMP JUMPDEST PUSH2 0x2887 SWAP1 PUSH2 0x2B20 JUMP JUMPDEST PUSH2 0x2EF JUMPI DUP6 PUSH0 PUSH2 0x25D2 JUMP JUMPDEST PUSH2 0x289B SWAP1 PUSH2 0x2B20 JUMP JUMPDEST PUSH2 0x2EF JUMPI DUP6 PUSH0 PUSH2 0x2571 JUMP JUMPDEST SWAP1 SWAP2 POP PUSH1 0x20 DUP2 RETURNDATASIZE PUSH1 0x20 GT PUSH2 0x28D3 JUMPI JUMPDEST DUP2 PUSH2 0x28C2 PUSH1 0x20 SWAP4 DUP4 PUSH2 0x2B48 JUMP JUMPDEST DUP2 ADD SUB SLT PUSH2 0x733 JUMPI MLOAD SWAP1 PUSH1 0xB PUSH2 0x24EF JUMP JUMPDEST RETURNDATASIZE SWAP2 POP PUSH2 0x28B5 JUMP JUMPDEST PUSH2 0x28E4 SWAP2 PUSH2 0x2DDD JUMP JUMPDEST PUSH2 0x23F5 JUMP JUMPDEST SWAP1 DUP7 DUP2 SLT PUSH2 0x28F9 JUMPI JUMPDEST POP POP PUSH2 0x23F5 JUMP JUMPDEST PUSH2 0x2710 SWAP2 SWAP3 POP PUSH2 0x1BA2 PUSH2 0x290B SWAP2 PUSH2 0x2ED4 JUMP JUMPDEST DIV PUSH1 0x40 DUP4 ADD MLOAD ISZERO ISZERO PUSH0 EQ PUSH2 0x2929 JUMPI PUSH2 0x2922 SWAP2 PUSH2 0x2DDD JUMP JUMPDEST PUSH0 DUP1 PUSH2 0x28F2 JUMP JUMPDEST PUSH2 0x2932 SWAP2 PUSH2 0x2C5B JUMP JUMPDEST PUSH2 0x2922 JUMP JUMPDEST SWAP1 POP PUSH1 0x20 DUP2 RETURNDATASIZE PUSH1 0x20 GT PUSH2 0x2961 JUMPI JUMPDEST DUP2 PUSH2 0x2952 PUSH1 0x20 SWAP4 DUP4 PUSH2 0x2B48 JUMP JUMPDEST DUP2 ADD SUB SLT PUSH2 0x733 JUMPI MLOAD PUSH0 PUSH2 0x23C6 JUMP JUMPDEST RETURNDATASIZE SWAP2 POP PUSH2 0x2945 JUMP JUMPDEST PUSH1 0x40 MLOAD PUSH3 0x461BCD PUSH1 0xE5 SHL DUP2 MSTORE PUSH1 0x20 PUSH1 0x4 DUP3 ADD MSTORE PUSH1 0xF PUSH1 0x24 DUP3 ADD MSTORE PUSH15 0x545741503A20746F6F206561726C79 PUSH1 0x88 SHL PUSH1 0x44 DUP3 ADD MSTORE PUSH1 0x64 SWAP1 REVERT JUMPDEST POP PUSH2 0x29B4 PUSH1 0x10 DUP4 ADD SLOAD PUSH1 0xE DUP5 ADD SLOAD SWAP1 PUSH2 0x2C5B JUMP JUMPDEST TIMESTAMP LT ISZERO PUSH2 0x2324 JUMP JUMPDEST PUSH1 0xFF SWAP2 SWAP3 POP PUSH2 0x29D9 SWAP1 PUSH1 0x40 RETURNDATASIZE PUSH1 0x40 GT PUSH2 0x399 JUMPI PUSH2 0x389 DUP2 DUP4 PUSH2 0x2B48 JUMP JUMPDEST POP SWAP2 SWAP1 PUSH2 0x147C JUMP JUMPDEST PUSH1 0x40 MLOAD RETURNDATASIZE DUP8 DUP3 RETURNDATACOPY RETURNDATASIZE SWAP1 REVERT JUMPDEST PUSH1 0x3 SLOAD PUSH1 0x1 PUSH1 0x1 PUSH1 0xA0 SHL SUB AND SWAP2 DUP3 EXTCODESIZE ISZERO PUSH2 0x733 JUMPI PUSH1 0x40 MLOAD PUSH4 0x1DF3CBC5 PUSH1 0xE3 SHL DUP2 MSTORE SWAP3 PUSH0 SWAP3 DUP5 SWAP3 DUP4 SWAP2 DUP3 SWAP2 PUSH2 0x2A23 SWAP2 PUSH1 0x4 DUP5 ADD PUSH2 0x2B6A JUMP JUMPDEST SUB SWAP2 CALLVALUE SWAP1 GAS CALL DUP1 ISZERO PUSH2 0x2A4D JUMPI PUSH2 0x2A3A JUMPI JUMPDEST DUP1 PUSH2 0x1423 JUMP JUMPDEST PUSH2 0x2A45 SWAP2 SWAP3 POP PUSH2 0x2B20 JUMP JUMPDEST PUSH0 SWAP1 PUSH0 PUSH2 0x2A34 JUMP JUMPDEST PUSH1 0x40 MLOAD RETURNDATASIZE PUSH0 DUP3 RETURNDATACOPY RETURNDATASIZE SWAP1 REVERT JUMPDEST CALLVALUE PUSH2 0x733 JUMPI PUSH0 CALLDATASIZE PUSH1 0x3 NOT ADD SLT PUSH2 0x733 JUMPI PUSH1 0x20 SWAP1 PUSH1 0x6 SLOAD DUP2 MSTORE RETURN JUMPDEST PUSH1 0x40 PUSH1 0x3 NOT DUP3 ADD SLT PUSH2 0x733 JUMPI PUSH1 0x4 CALLDATALOAD SWAP2 PUSH1 0x24 CALLDATALOAD PUSH8 0xFFFFFFFFFFFFFFFF SWAP3 DUP4 DUP3 GT PUSH2 0x733 JUMPI DUP1 PUSH1 0x23 DUP4 ADD SLT ISZERO PUSH2 0x733 JUMPI DUP2 PUSH1 0x4 ADD CALLDATALOAD SWAP4 DUP5 GT PUSH2 0x733 JUMPI PUSH1 0x24 DUP5 PUSH1 0x5 SHL DUP4 ADD ADD GT PUSH2 0x733 JUMPI PUSH1 0x24 ADD SWAP2 SWAP1 JUMP JUMPDEST PUSH1 0x40 SWAP1 PUSH1 0x3 NOT ADD SLT PUSH2 0x733 JUMPI PUSH1 0x4 CALLDATALOAD PUSH1 0x1 PUSH1 0x1 PUSH1 0xA0 SHL SUB DUP2 AND DUP2 SUB PUSH2 0x733 JUMPI SWAP1 PUSH1 0x24 CALLDATALOAD SWAP1 JUMP JUMPDEST DUP1 SLOAD DUP3 LT ISZERO PUSH2 0x2AFD JUMPI PUSH0 MSTORE PUSH1 0x20 PUSH0 KECCAK256 ADD SWAP1 PUSH0 SWAP1 JUMP JUMPDEST PUSH4 0x4E487B71 PUSH1 0xE0 SHL PUSH0 MSTORE PUSH1 0x32 PUSH1 0x4 MSTORE PUSH1 0x24 PUSH0 REVERT JUMPDEST PUSH1 0x24 CALLDATALOAD SWAP1 DUP2 ISZERO ISZERO DUP3 SUB PUSH2 0x733 JUMPI JUMP JUMPDEST PUSH8 0xFFFFFFFFFFFFFFFF DUP2 GT PUSH2 0x2B34 JUMPI PUSH1 0x40 MSTORE JUMP JUMPDEST PUSH4 0x4E487B71 PUSH1 0xE0 SHL PUSH0 MSTORE PUSH1 0x41 PUSH1 0x4 MSTORE PUSH1 0x24 PUSH0 REVERT JUMPDEST SWAP1 PUSH1 0x1F DUP1 NOT SWAP2 ADD AND DUP2 ADD SWAP1 DUP2 LT PUSH8 0xFFFFFFFFFFFFFFFF DUP3 GT OR PUSH2 0x2B34 JUMPI PUSH1 0x40 MSTORE JUMP JUMPDEST SWAP2 PUSH1 0x20 DUP2 DUP2 DUP6 ADD DUP3 DUP7 MSTORE MSTORE PUSH1 0x40 DUP5 ADD SWAP4 PUSH1 0x40 DUP4 PUSH1 0x5 SHL DUP3 ADD ADD SWAP5 DUP5 PUSH0 SWAP3 JUMPDEST DUP6 DUP5 LT PUSH2 0x2B99 JUMPI POP POP POP POP POP POP POP SWAP1 JUMP JUMPDEST SWAP1 SWAP2 SWAP3 SWAP4 SWAP5 SWAP6 SWAP7 PUSH1 0x3F NOT DUP3 DUP3 SUB ADD DUP5 MSTORE DUP8 CALLDATALOAD PUSH1 0x1E NOT DUP5 CALLDATASIZE SUB ADD DUP2 SLT ISZERO PUSH2 0x733 JUMPI DUP4 ADD DUP7 DUP2 ADD SWAP2 SWAP1 CALLDATALOAD PUSH8 0xFFFFFFFFFFFFFFFF DUP2 GT PUSH2 0x733 JUMPI DUP1 CALLDATASIZE SUB DUP4 SGT PUSH2 0x733 JUMPI DUP8 DUP3 DUP3 DUP1 PUSH1 0x1 SWAP7 DUP5 SWAP7 SWAP6 DUP6 SWAP7 MSTORE DUP5 DUP5 ADD CALLDATACOPY PUSH0 DUP3 DUP3 ADD DUP5 ADD MSTORE PUSH1 0x1F ADD PUSH1 0x1F NOT AND ADD ADD SWAP10 ADD SWAP8 SWAP7 SWAP6 SWAP2 SWAP1 SWAP2 ADD SWAP4 ADD SWAP2 SWAP1 PUSH2 0x2B88 JUMP JUMPDEST ISZERO PUSH2 0x2C13 JUMPI JUMP JUMPDEST PUSH1 0x40 MLOAD PUSH3 0x461BCD PUSH1 0xE5 SHL DUP2 MSTORE PUSH1 0x20 PUSH1 0x4 DUP3 ADD MSTORE PUSH1 0xA PUSH1 0x24 DUP3 ADD MSTORE PUSH10 0x4E6F7420616374697665 PUSH1 0xB0 SHL PUSH1 0x44 DUP3 ADD MSTORE PUSH1 0x64 SWAP1 REVERT JUMPDEST SWAP2 SWAP1 DUP3 PUSH1 0x40 SWAP2 SUB SLT PUSH2 0x733 JUMPI PUSH1 0x20 DUP3 MLOAD SWAP3 ADD MLOAD SWAP1 JUMP JUMPDEST SWAP2 SWAP1 DUP3 ADD DUP1 SWAP3 GT PUSH2 0x2C68 JUMPI JUMP JUMPDEST PUSH4 0x4E487B71 PUSH1 0xE0 SHL PUSH0 MSTORE PUSH1 0x11 PUSH1 0x4 MSTORE PUSH1 0x24 PUSH0 REVERT JUMPDEST SWAP1 PUSH1 0x40 MLOAD PUSH2 0x280 DUP2 ADD DUP2 DUP2 LT PUSH8 0xFFFFFFFFFFFFFFFF DUP3 GT OR PUSH2 0x2B34 JUMPI PUSH1 0x40 MSTORE PUSH2 0x260 PUSH1 0x10 DUP3 SWAP5 DUP1 SLOAD DUP5 MSTORE PUSH1 0xFF PUSH1 0x1 DUP3 ADD SLOAD PUSH1 0x1 DUP1 PUSH1 0xA0 SHL SUB DUP2 AND PUSH1 0x20 DUP8 ADD MSTORE PUSH1 0xA0 SHR AND ISZERO ISZERO PUSH1 0x40 DUP6 ADD MSTORE PUSH1 0x2 DUP2 ADD SLOAD PUSH1 0x60 DUP6 ADD MSTORE PUSH1 0x3 DUP2 ADD SLOAD PUSH1 0x80 DUP6 ADD MSTORE PUSH1 0x4 DUP2 ADD SLOAD PUSH1 0xA0 DUP6 ADD MSTORE PUSH1 0x5 DUP2 ADD SLOAD PUSH1 0xC0 DUP6 ADD MSTORE PUSH1 0xFF PUSH1 0x6 DUP3 ADD SLOAD DUP2 DUP2 AND PUSH1 0xE0 DUP8 ADD MSTORE DUP2 DUP2 PUSH1 0x8 SHR AND ISZERO ISZERO PUSH2 0x100 DUP8 ADD MSTORE DUP4 SHR AND ISZERO ISZERO PUSH2 0x120 DUP6 ADD MSTORE PUSH1 0x7 DUP2 ADD SLOAD PUSH2 0x140 DUP6 ADD MSTORE PUSH1 0x8 DUP2 ADD SLOAD PUSH2 0x160 DUP6 ADD MSTORE PUSH1 0x9 DUP2 ADD SLOAD PUSH2 0x180 DUP6 ADD MSTORE PUSH1 0xA DUP2 ADD SLOAD PUSH2 0x1A0 DUP6 ADD MSTORE PUSH1 0xB DUP2 ADD SLOAD PUSH2 0x1C0 DUP6 ADD MSTORE PUSH1 0xC DUP2 ADD SLOAD PUSH2 0x1E0 DUP6 ADD MSTORE PUSH1 0xD DUP2 ADD SLOAD PUSH2 0x200 DUP6 ADD MSTORE PUSH1 0xE DUP2 ADD SLOAD PUSH2 0x220 DUP6 ADD MSTORE PUSH1 0xF DUP2 ADD SLOAD PUSH2 0x240 DUP6 ADD MSTORE ADD SLOAD SWAP2 ADD MSTORE JUMP JUMPDEST DUP2 ISZERO PUSH2 0x2D8A JUMPI DIV SWAP1 JUMP JUMPDEST PUSH4 0x4E487B71 PUSH1 0xE0 SHL PUSH0 MSTORE PUSH1 0x12 PUSH1 0x4 MSTORE PUSH1 0x24 PUSH0 REVERT JUMPDEST RETURNDATASIZE ISZERO PUSH2 0x2DD8 JUMPI RETURNDATASIZE SWAP1 PUSH8 0xFFFFFFFFFFFFFFFF DUP3 GT PUSH2 0x2B34 JUMPI PUSH1 0x40 MLOAD SWAP2 PUSH2 0x2DCD PUSH1 0x1F DUP3 ADD PUSH1 0x1F NOT AND PUSH1 0x20 ADD DUP5 PUSH2 0x2B48 JUMP JUMPDEST DUP3 MSTORE RETURNDATASIZE PUSH0 PUSH1 0x20 DUP5 ADD RETURNDATACOPY JUMP JUMPDEST PUSH1 0x60 SWAP1 JUMP JUMPDEST SWAP2 SWAP1 DUP3 SUB SWAP2 DUP3 GT PUSH2 0x2C68 JUMPI JUMP JUMPDEST ISZERO PUSH2 0x2DF1 JUMPI JUMP JUMPDEST PUSH1 0x40 MLOAD PUSH3 0x461BCD PUSH1 0xE5 SHL DUP2 MSTORE PUSH1 0x20 PUSH1 0x4 DUP3 ADD MSTORE PUSH1 0x9 PUSH1 0x24 DUP3 ADD MSTORE PUSH9 0x2737BA1037BBB732B9 PUSH1 0xB9 SHL PUSH1 0x44 DUP3 ADD MSTORE PUSH1 0x64 SWAP1 REVERT JUMPDEST DUP2 DUP2 MUL SWAP3 SWAP2 DUP2 ISZERO SWAP2 DUP5 DIV EQ OR ISZERO PUSH2 0x2C68 JUMPI JUMP JUMPDEST PUSH0 NOT DUP2 EQ PUSH2 0x2C68 JUMPI PUSH1 0x1 ADD SWAP1 JUMP JUMPDEST DUP1 SLOAD PUSH9 0x10000000000000000 DUP2 LT ISZERO PUSH2 0x2B34 JUMPI PUSH2 0x2E65 SWAP2 PUSH1 0x1 DUP3 ADD DUP2 SSTORE PUSH2 0x2AE8 JUMP JUMPDEST DUP2 SWAP3 SWAP2 SLOAD SWAP1 PUSH1 0x3 SHL SWAP2 DUP3 SHL SWAP2 PUSH0 NOT SWAP1 SHL NOT AND OR SWAP1 SSTORE JUMP JUMPDEST ISZERO PUSH2 0x2E83 JUMPI JUMP JUMPDEST PUSH1 0x40 MLOAD PUSH3 0x461BCD PUSH1 0xE5 SHL DUP2 MSTORE PUSH1 0x20 PUSH1 0x4 DUP3 ADD MSTORE PUSH1 0x8 PUSH1 0x24 DUP3 ADD MSTORE PUSH8 0x2737BA1037B832B7 PUSH1 0xC1 SHL PUSH1 0x44 DUP3 ADD MSTORE PUSH1 0x64 SWAP1 REVERT JUMPDEST PUSH1 0x2 PUSH0 SLOAD EQ PUSH2 0x2EC2 JUMPI PUSH1 0x2 PUSH0 SSTORE JUMP JUMPDEST PUSH1 0x40 MLOAD PUSH4 0x3EE5AEB5 PUSH1 0xE0 SHL DUP2 MSTORE PUSH1 0x4 SWAP1 REVERT JUMPDEST PUSH1 0x1 PUSH1 0xFF SHL DUP2 EQ PUSH2 0x2C68 JUMPI PUSH0 SUB SWAP1 JUMP JUMPDEST DUP2 DUP2 SUB SWAP3 SWAP2 PUSH0 SGT DUP1 ISZERO DUP3 DUP6 SGT AND SWAP2 DUP5 SLT AND OR PUSH2 0x2C68 JUMPI JUMP JUMPDEST DUP2 DUP2 MUL SWAP3 SWAP2 PUSH0 DUP3 SLT PUSH1 0x1 PUSH1 0xFF SHL DUP3 EQ AND PUSH2 0x2C68 JUMPI DUP2 DUP5 SDIV EQ SWAP1 ISZERO OR ISZERO PUSH2 0x2C68 JUMPI JUMP JUMPDEST DUP2 ISZERO PUSH2 0x2D8A JUMPI PUSH1 0x1 PUSH1 0xFF SHL DUP2 EQ PUSH0 NOT DUP4 EQ AND PUSH2 0x2C68 JUMPI SDIV SWAP1 JUMP JUMPDEST SWAP1 PUSH1 0x40 MLOAD PUSH2 0x1A0 DUP2 ADD DUP2 DUP2 LT PUSH8 0xFFFFFFFFFFFFFFFF DUP3 GT OR PUSH2 0x2B34 JUMPI PUSH1 0x40 MSTORE PUSH2 0x180 PUSH1 0xB DUP3 SWAP5 DUP1 SLOAD DUP5 MSTORE PUSH1 0xFF PUSH1 0x1 DUP3 ADD SLOAD PUSH1 0x1 DUP1 PUSH1 0xA0 SHL SUB DUP2 AND PUSH1 0x20 DUP8 ADD MSTORE PUSH1 0xA0 SHR AND ISZERO ISZERO PUSH1 0x40 DUP6 ADD MSTORE PUSH1 0x2 DUP2 ADD SLOAD PUSH1 0x60 DUP6 ADD MSTORE PUSH1 0x3 DUP2 ADD SLOAD PUSH1 0x80 DUP6 ADD MSTORE PUSH1 0x4 DUP2 ADD SLOAD PUSH1 0xA0 DUP6 ADD MSTORE PUSH1 0x5 DUP2 ADD SLOAD PUSH1 0xC0 DUP6 ADD MSTORE PUSH1 0x6 DUP2 ADD SLOAD PUSH1 0xE0 DUP6 ADD MSTORE PUSH1 0x7 DUP2 ADD SLOAD PUSH2 0x100 DUP6 ADD MSTORE PUSH1 0xFF PUSH1 0x8 DUP3 ADD SLOAD AND ISZERO ISZERO PUSH2 0x120 DUP6 ADD MSTORE PUSH1 0x9 DUP2 ADD SLOAD PUSH2 0x140 DUP6 ADD MSTORE PUSH1 0xA DUP2 ADD SLOAD PUSH2 0x160 DUP6 ADD MSTORE ADD SLOAD SWAP2 ADD MSTORE JUMP JUMPDEST SWAP2 SWAP1 SWAP2 PUSH0 DUP4 DUP3 ADD SWAP4 DUP5 SLT SWAP2 SLT SWAP1 DUP1 ISZERO DUP3 AND SWAP2 ISZERO AND OR PUSH2 0x2C68 JUMPI JUMP JUMPDEST SWAP2 SWAP1 PUSH0 SWAP3 DUP1 PUSH0 MSTORE PUSH1 0x20 SWAP2 PUSH1 0x7 DUP4 MSTORE PUSH1 0x40 SWAP1 DUP2 PUSH0 KECCAK256 PUSH1 0x8 DUP2 ADD PUSH2 0x302C PUSH1 0xFF DUP3 SLOAD AND PUSH2 0x2E7C JUMP JUMPDEST PUSH1 0x1 DUP3 ADD DUP1 SLOAD PUSH1 0xA0 SHR PUSH1 0xFF AND ISZERO PUSH2 0x33B1 JUMPI PUSH2 0x3062 PUSH1 0x4 DUP5 ADD SLOAD PUSH2 0x305D PUSH2 0x3052 DUP3 DUP9 PUSH2 0x2EE4 JUMP JUMPDEST PUSH1 0x2 DUP8 ADD SLOAD SWAP1 PUSH2 0x2EFC JUMP JUMPDEST PUSH2 0x2F1E JUMP JUMPDEST SWAP3 JUMPDEST PUSH1 0x1 DUP1 PUSH1 0xA0 SHL SUB SWAP3 DUP4 PUSH1 0x1 SLOAD AND SWAP1 PUSH1 0x2 DUP4 ADD SWAP3 DUP4 SLOAD SWAP4 DUP10 MLOAD SWAP4 PUSH4 0xE4D8CBE5 PUSH1 0xE0 SHL DUP6 MSTORE PUSH1 0x4 SWAP6 DUP7 DUP7 ADD MSTORE PUSH0 PUSH1 0x24 DUP7 ADD MSTORE DUP13 DUP6 PUSH1 0x44 DUP2 DUP5 GAS STATICCALL SWAP5 DUP6 ISZERO PUSH2 0x33A7 JUMPI DUP12 SWAP2 DUP15 SWAP2 PUSH0 SWAP8 PUSH2 0x3374 JUMPI JUMPDEST POP SWAP1 PUSH0 SWAP2 PUSH1 0x24 PUSH4 0xD693A400 PUSH2 0x30EA PUSH2 0x30C5 DUP10 PUSH2 0x2F38 JUMP JUMPDEST PUSH2 0x30E5 PUSH1 0x60 PUSH2 0x30D9 PUSH2 0x100 DUP5 ADD MLOAD TIMESTAMP PUSH2 0x2DDD JUMP JUMPDEST SWAP3 ADD MLOAD PUSH1 0xB SLOAD SWAP1 PUSH2 0x2E22 JUMP JUMPDEST PUSH2 0x2E22 JUMP JUMPDEST DIV SWAP5 DUP8 SLOAD SWAP1 MLOAD SWAP5 DUP6 SWAP4 DUP5 SWAP3 PUSH4 0x7CC6765F PUSH1 0xE1 SHL DUP5 MSTORE DUP14 DUP5 ADD MSTORE GAS CALL DUP1 ISZERO PUSH2 0x336A JUMPI SWAP1 DUP15 SWAP2 PUSH2 0x3341 JUMPI JUMPDEST POP POP PUSH2 0x313C PUSH2 0x3142 SWAP2 PUSH2 0x3137 PUSH2 0x3130 PUSH2 0x312B DUP8 PUSH2 0x2F38 JUMP JUMPDEST PUSH2 0x363D JUMP JUMPDEST SWAP2 DUP9 PUSH2 0x2FEC JUMP JUMPDEST PUSH2 0x2FEC JUMP JUMPDEST DUP10 PUSH2 0x2EE4 JUMP JUMPDEST DUP4 SLOAD PUSH1 0xFF NOT AND SWAP1 SWAP4 SSTORE PUSH1 0x1 SLOAD DUP3 SLOAD DUP8 SLOAD SWAP3 SLOAD SWAP1 SWAP2 DUP10 AND DUP1 EXTCODESIZE ISZERO PUSH2 0x733 JUMPI DUP13 MLOAD PUSH4 0x19CA2B9 PUSH1 0xE5 SHL DUP2 MSTORE DUP1 DUP10 ADD SWAP4 DUP5 MSTORE PUSH1 0x1 PUSH1 0x1 PUSH1 0xA0 SHL SUB DUP6 DUP13 AND AND PUSH1 0x20 DUP6 ADD MSTORE PUSH1 0xA0 SWAP5 SWAP1 SWAP5 SHR PUSH1 0xFF AND ISZERO ISZERO PUSH1 0x40 DUP5 ADD MSTORE PUSH1 0x60 DUP4 ADD SWAP2 SWAP1 SWAP2 MSTORE PUSH0 SWAP2 DUP4 SWAP2 SWAP1 DUP3 SWAP1 DUP5 SWAP1 DUP3 SWAP1 PUSH1 0x80 ADD SUB SWAP3 GAS CALL DUP1 ISZERO PUSH2 0x3337 JUMPI PUSH2 0x3322 JUMPI JUMPDEST POP SWAP1 DUP13 SWAP2 DUP3 DUP3 SGT PUSH2 0x32C7 JUMPI JUMPDEST DUP7 PUSH1 0x2 SLOAD AND PUSH1 0x3 DUP9 DUP9 SLOAD AND SWAP3 ADD SLOAD SWAP1 DUP1 EXTCODESIZE ISZERO PUSH2 0xD49 JUMPI DUP5 SWAP3 DUP4 PUSH1 0x64 SWAP3 DUP15 MLOAD SWAP7 DUP8 SWAP6 DUP7 SWAP5 PUSH4 0x118F3043 PUSH1 0xE0 SHL DUP7 MSTORE DUP13 DUP7 ADD MSTORE PUSH1 0x24 DUP6 ADD MSTORE PUSH1 0x44 DUP5 ADD MSTORE GAS CALL DUP1 ISZERO PUSH2 0x32BD JUMPI PUSH2 0x32A5 JUMPI JUMPDEST POP POP DUP1 PUSH2 0x3249 JUMPI JUMPDEST POP POP PUSH32 0x356FCA566F3A054A459C7224D9C9D634F31A98835CFD4FB4C5DDBF8B96ACA211 SWAP6 SWAP7 SWAP8 SWAP9 POP SLOAD AND SWAP6 DUP4 MLOAD SWAP3 DUP4 MSTORE DUP3 ADD MSTORE LOG3 JUMP JUMPDEST DUP11 SWAP1 DUP5 PUSH1 0x2 SLOAD AND SWAP3 DUP4 EXTCODESIZE ISZERO PUSH2 0x109C JUMPI PUSH1 0x24 SWAP1 DUP4 DUP11 MLOAD SWAP6 DUP7 SWAP5 DUP6 SWAP4 PUSH4 0x35B8E713 PUSH1 0xE0 SHL DUP6 MSTORE DUP5 ADD MSTORE GAS CALL DUP1 ISZERO PUSH2 0x329B JUMPI PUSH2 0x3283 JUMPI JUMPDEST DUP1 PUSH2 0x3213 JUMP JUMPDEST PUSH2 0x328D DUP11 SWAP2 PUSH2 0x2B20 JUMP JUMPDEST PUSH2 0x3297 JUMPI DUP9 PUSH2 0x327D JUMP JUMPDEST DUP9 DUP1 REVERT JUMPDEST DUP7 MLOAD RETURNDATASIZE DUP13 DUP3 RETURNDATACOPY RETURNDATASIZE SWAP1 REVERT JUMPDEST PUSH2 0x32AE SWAP1 PUSH2 0x2B20 JUMP JUMPDEST PUSH2 0x32B9 JUMPI DUP11 PUSH0 PUSH2 0x320B JUMP JUMPDEST DUP11 DUP1 REVERT JUMPDEST DUP10 MLOAD RETURNDATASIZE DUP5 DUP3 RETURNDATACOPY RETURNDATASIZE SWAP1 REVERT JUMPDEST DUP7 PUSH1 0x1 SLOAD AND DUP1 EXTCODESIZE ISZERO PUSH2 0x2FE JUMPI DUP4 DUP1 SWAP2 PUSH1 0x24 DUP14 MLOAD DUP1 SWAP5 DUP2 SWAP4 PUSH4 0x630304F9 PUSH1 0xE1 SHL DUP4 MSTORE DUP9 DUP13 DUP5 ADD MSTORE GAS CALL DUP1 ISZERO PUSH2 0x3318 JUMPI SWAP1 DUP5 SWAP2 PUSH2 0x3304 JUMPI JUMPDEST POP POP PUSH2 0x31C3 JUMP JUMPDEST PUSH2 0x330D SWAP1 PUSH2 0x2B20 JUMP JUMPDEST PUSH2 0x109C JUMPI DUP3 PUSH0 PUSH2 0x32FD JUMP JUMPDEST DUP12 MLOAD RETURNDATASIZE DUP7 DUP3 RETURNDATACOPY RETURNDATASIZE SWAP1 REVERT JUMPDEST PUSH2 0x332E SWAP2 SWAP3 SWAP14 POP PUSH2 0x2B20 JUMP JUMPDEST PUSH0 SWAP12 SWAP1 PUSH0 PUSH2 0x31B7 JUMP JUMPDEST DUP11 MLOAD RETURNDATASIZE PUSH0 DUP3 RETURNDATACOPY RETURNDATASIZE SWAP1 REVERT JUMPDEST DUP2 RETURNDATASIZE DUP4 GT PUSH2 0x3363 JUMPI JUMPDEST PUSH2 0x3354 DUP2 DUP4 PUSH2 0x2B48 JUMP JUMPDEST DUP2 ADD SUB SLT PUSH2 0x733 JUMPI DUP13 PUSH0 PUSH2 0x3113 JUMP JUMPDEST POP RETURNDATASIZE PUSH2 0x334A JUMP JUMPDEST DUP13 MLOAD RETURNDATASIZE PUSH0 DUP3 RETURNDATACOPY RETURNDATASIZE SWAP1 REVERT JUMPDEST SWAP3 POP SWAP6 POP DUP2 DUP2 RETURNDATASIZE DUP4 GT PUSH2 0x33A0 JUMPI JUMPDEST PUSH2 0x338C DUP2 DUP4 PUSH2 0x2B48 JUMP JUMPDEST DUP2 ADD SUB SLT PUSH2 0x733 JUMPI MLOAD SWAP4 DUP11 SWAP1 DUP14 SWAP1 PUSH0 PUSH2 0x30AE JUMP JUMPDEST POP RETURNDATASIZE PUSH2 0x3382 JUMP JUMPDEST DUP12 MLOAD RETURNDATASIZE PUSH0 DUP3 RETURNDATACOPY RETURNDATASIZE SWAP1 REVERT JUMPDEST PUSH2 0x33C6 PUSH1 0x4 DUP5 ADD SLOAD PUSH2 0x305D PUSH2 0x3052 DUP8 DUP4 PUSH2 0x2EE4 JUMP JUMPDEST SWAP3 PUSH2 0x3064 JUMP JUMPDEST SWAP1 DUP2 PUSH1 0x20 SWAP2 SUB SLT PUSH2 0x733 JUMPI MLOAD DUP1 ISZERO ISZERO DUP2 SUB PUSH2 0x733 JUMPI SWAP1 JUMP JUMPDEST PUSH1 0x20 SWAP1 PUSH1 0x44 PUSH1 0x1 DUP1 PUSH1 0xA0 SHL SUB SWAP2 PUSH0 DUP4 PUSH1 0x4 SLOAD AND PUSH1 0x40 MLOAD SWAP7 DUP8 SWAP6 DUP7 SWAP5 PUSH4 0xA9059CBB PUSH1 0xE0 SHL DUP7 MSTORE AND PUSH1 0x4 DUP6 ADD MSTORE PUSH1 0x24 DUP5 ADD MSTORE GAS CALL SWAP1 DUP2 ISZERO PUSH2 0x2A4D JUMPI PUSH0 SWAP2 PUSH2 0x3463 JUMPI JUMPDEST POP ISZERO PUSH2 0x342C JUMPI JUMP JUMPDEST PUSH1 0x40 MLOAD PUSH3 0x461BCD PUSH1 0xE5 SHL DUP2 MSTORE PUSH1 0x20 PUSH1 0x4 DUP3 ADD MSTORE PUSH1 0xF PUSH1 0x24 DUP3 ADD MSTORE PUSH15 0x151C985B9CD9995C8819985A5B1959 PUSH1 0x8A SHL PUSH1 0x44 DUP3 ADD MSTORE PUSH1 0x64 SWAP1 REVERT JUMPDEST PUSH2 0x3485 SWAP2 POP PUSH1 0x20 RETURNDATASIZE PUSH1 0x20 GT PUSH2 0x348B JUMPI JUMPDEST PUSH2 0x347D DUP2 DUP4 PUSH2 0x2B48 JUMP JUMPDEST DUP2 ADD SWAP1 PUSH2 0x33CC JUMP JUMPDEST PUSH0 PUSH2 0x3424 JUMP JUMPDEST POP RETURNDATASIZE PUSH2 0x3473 JUMP JUMPDEST SWAP2 PUSH1 0x64 PUSH1 0x20 SWAP3 SWAP4 PUSH0 PUSH1 0x1 DUP1 PUSH1 0xA0 SHL SUB SWAP4 DUP5 PUSH1 0x4 SLOAD AND SWAP1 DUP6 PUSH1 0x40 MLOAD SWAP9 DUP10 SWAP8 DUP9 SWAP7 PUSH4 0x23B872DD PUSH1 0xE0 SHL DUP9 MSTORE AND PUSH1 0x4 DUP8 ADD MSTORE AND PUSH1 0x24 DUP6 ADD MSTORE PUSH1 0x44 DUP5 ADD MSTORE GAS CALL SWAP1 DUP2 ISZERO PUSH2 0x2A4D JUMPI PUSH0 SWAP2 PUSH2 0x351F JUMPI JUMPDEST POP ISZERO PUSH2 0x34E4 JUMPI JUMP JUMPDEST PUSH1 0x40 MLOAD PUSH3 0x461BCD PUSH1 0xE5 SHL DUP2 MSTORE PUSH1 0x20 PUSH1 0x4 DUP3 ADD MSTORE PUSH1 0x13 PUSH1 0x24 DUP3 ADD MSTORE PUSH19 0x151C985B9CD9995C919C9BDB4819985A5B1959 PUSH1 0x6A SHL PUSH1 0x44 DUP3 ADD MSTORE PUSH1 0x64 SWAP1 REVERT JUMPDEST PUSH2 0x3538 SWAP2 POP PUSH1 0x20 RETURNDATASIZE PUSH1 0x20 GT PUSH2 0x348B JUMPI PUSH2 0x347D DUP2 DUP4 PUSH2 0x2B48 JUMP JUMPDEST PUSH0 PUSH2 0x34DC JUMP JUMPDEST PUSH1 0x1 SLOAD PUSH1 0x40 MLOAD PUSH4 0x35123BAF PUSH1 0xE2 SHL DUP2 MSTORE SWAP2 SWAP3 SWAP2 SWAP1 PUSH1 0x20 SWAP1 DUP3 SWAP1 PUSH1 0x4 SWAP1 DUP3 SWAP1 PUSH1 0x1 PUSH1 0x1 PUSH1 0xA0 SHL SUB AND GAS STATICCALL SWAP1 DUP2 ISZERO PUSH2 0x2A4D JUMPI PUSH0 SWAP2 PUSH2 0x35EC JUMPI JUMPDEST POP PUSH1 0xA DUP2 ADD DUP1 SWAP2 GT PUSH2 0x2C68 JUMPI DUP2 PUSH2 0x358B SWAP2 PUSH2 0x2E22 JUMP JUMPDEST PUSH2 0x2328 SWAP2 SWAP1 DUP3 DUP2 LT PUSH2 0x35D4 JUMPI POP POP POP PUSH1 0x64 SWAP2 JUMPDEST ISZERO PUSH2 0x35BD JUMPI PUSH2 0x2710 PUSH2 0x35B3 PUSH2 0x35BA SWAP4 DUP4 PUSH2 0x2E22 JUMP JUMPDEST DIV SWAP1 PUSH2 0x2DDD JUMP JUMPDEST SWAP1 JUMP JUMPDEST PUSH2 0x2710 PUSH2 0x35CD PUSH2 0x35BA SWAP4 DUP4 PUSH2 0x2E22 JUMP JUMPDEST DIV SWAP1 PUSH2 0x2C5B JUMP JUMPDEST DUP3 SUB SWAP2 DUP3 GT PUSH2 0x2C68 JUMPI PUSH2 0x35E6 SWAP2 PUSH2 0x2D80 JUMP JUMPDEST SWAP2 PUSH2 0x359E JUMP JUMPDEST SWAP1 POP PUSH1 0x20 DUP2 RETURNDATASIZE PUSH1 0x20 GT PUSH2 0x3616 JUMPI JUMPDEST DUP2 PUSH2 0x3607 PUSH1 0x20 SWAP4 DUP4 PUSH2 0x2B48 JUMP JUMPDEST DUP2 ADD SUB SLT PUSH2 0x733 JUMPI MLOAD PUSH0 PUSH2 0x3575 JUMP JUMPDEST RETURNDATASIZE SWAP2 POP PUSH2 0x35FA JUMP JUMPDEST SWAP1 DUP2 PUSH1 0x20 SWAP2 SUB SLT PUSH2 0x733 JUMPI MLOAD PUSH1 0x1 PUSH1 0x1 PUSH1 0xA0 SHL SUB DUP2 AND DUP2 SUB PUSH2 0x733 JUMPI SWAP1 JUMP JUMPDEST PUSH1 0x1 DUP1 PUSH1 0xA0 SHL SUB PUSH1 0x1 SLOAD AND SWAP1 PUSH1 0x20 DUP2 MLOAD PUSH1 0x24 PUSH1 0x40 MLOAD DUP1 SWAP6 DUP2 SWAP4 PUSH4 0x4655F1EB PUSH1 0xE0 SHL DUP4 MSTORE PUSH1 0x4 DUP4 ADD MSTORE GAS STATICCALL SWAP2 DUP3 ISZERO PUSH2 0x2A4D JUMPI PUSH0 SWAP3 PUSH2 0x36C0 JUMPI JUMPDEST POP PUSH2 0x368F PUSH8 0xDE0B6B3A7640000 SWAP3 PUSH2 0x180 DUP4 ADD MLOAD SWAP1 PUSH2 0x2EE4 JUMP JUMPDEST PUSH1 0x40 DUP3 ADD MLOAD ISZERO PUSH2 0x36AA JUMPI PUSH1 0x60 PUSH2 0x36A6 SWAP3 ADD MLOAD PUSH2 0x2EFC JUMP JUMPDEST SDIV SWAP1 JUMP JUMPDEST PUSH2 0x36BB SWAP1 PUSH1 0x60 PUSH2 0x36A6 SWAP4 ADD MLOAD PUSH2 0x2EFC JUMP JUMPDEST PUSH2 0x2ED4 JUMP JUMPDEST SWAP2 POP PUSH1 0x20 DUP3 RETURNDATASIZE PUSH1 0x20 GT PUSH2 0x36EE JUMPI JUMPDEST DUP2 PUSH2 0x36DB PUSH1 0x20 SWAP4 DUP4 PUSH2 0x2B48 JUMP JUMPDEST DUP2 ADD SUB SLT PUSH2 0x733 JUMPI SWAP1 MLOAD SWAP1 PUSH2 0x368F PUSH2 0x3675 JUMP JUMPDEST RETURNDATASIZE SWAP2 POP PUSH2 0x36CE JUMP INVALID MSTORE 0xCA PREVRANDAO 0xDE 0xA9 SELFBALANCE BLOBHASH 0xAA 0xDF 0xAA 0x4D CALLDATACOPY BLOBHASH LOG0 ORIGIN GASPRICE CALLER 0xB3 0xA6 NUMBER BLOBBASEFEE 0xDC SELFDESTRUCT CREATE2 0x2A 0xD5 0x4C MLOAD 0x1F SSTORE PUSH26 0xC7A2646970667358221220C154B09E3DE2B57932BC767B2CAACE LOG3 0xCA PUSH9 0xE63CFC8D65561E835C 0xCB 0xF9 0xC9 0x4F 0xB6 PUSH5 0x736F6C6343 STOP ADDMOD XOR STOP CALLER "},"methodIdentifiers":{"MIN_POSITION_SIZE()":"368dbba8","cancelOrder(uint256)":"514fcac7","core()":"f2f4eb26","createCloseRequest(uint256)":"9bfe7e3e","createTwapOrder(bytes32,bool,uint256,uint256,uint256,uint256,uint256,uint256)":"6fb197f7","executeOrder(uint256,bytes[])":"33e7dddb","executeTPSL(uint256,bytes[])":"80b74258","liquidate(uint256,bytes[])":"f6614170","liquidationRewardBps()":"effaed89","nextOrderId()":"2a58b330","nextPositionId()":"899346c7","oracle()":"7dc0d1d0","pendingOrders(uint256)":"c3aaea4e","placeOrder(bytes32,bool,uint256,uint256,uint256,uint8,bool,uint256,uint256)":"666c187e","positions(uint256)":"99fbab88","rolloverFeePerHour()":"8fb735ee","usdc()":"3e413bee","userOrders(address,uint256)":"856652e9","userPositions(address,uint256)":"5e1b4d99","vault()":"fbfa77cf"}}}}}