{"project/src/ConfidentialTrading.sol":{"ConfidentialTrading":{"abi":[{"inputs":[{"internalType":"address","name":"_usdc","type":"address"},{"internalType":"address","name":"_core","type":"address"},{"internalType":"address","name":"_vault","type":"address"},{"internalType":"address","name":"_oracle","type":"address"}],"stateMutability":"nonpayable","type":"constructor"},{"inputs":[],"name":"ReentrancyGuardReentrantCall","type":"error"},{"anonymous":false,"inputs":[{"indexed":true,"internalType":"uint256","name":"orderId","type":"uint256"}],"name":"OrderCancelled","type":"event"},{"anonymous":false,"inputs":[{"indexed":true,"internalType":"uint256","name":"orderId","type":"uint256"},{"indexed":true,"internalType":"uint256","name":"positionId","type":"uint256"}],"name":"OrderExecuted","type":"event"},{"anonymous":false,"inputs":[{"indexed":true,"internalType":"uint256","name":"orderId","type":"uint256"},{"indexed":true,"internalType":"address","name":"trader","type":"address"},{"indexed":false,"internalType":"bytes32","name":"pairId","type":"bytes32"},{"indexed":false,"internalType":"uint8","name":"orderType","type":"uint8"},{"indexed":false,"internalType":"uint256","name":"triggerPrice","type":"uint256"}],"name":"OrderPlaced","type":"event"},{"anonymous":false,"inputs":[{"indexed":true,"internalType":"uint256","name":"positionId","type":"uint256"},{"indexed":true,"internalType":"address","name":"trader","type":"address"},{"indexed":false,"internalType":"uint256","name":"exitPrice","type":"uint256"},{"indexed":false,"internalType":"int256","name":"pnl","type":"int256"}],"name":"PositionClosed","type":"event"},{"anonymous":false,"inputs":[{"indexed":true,"internalType":"uint256","name":"positionId","type":"uint256"},{"indexed":true,"internalType":"address","name":"trader","type":"address"},{"indexed":false,"internalType":"uint256","name":"executionPrice","type":"uint256"},{"indexed":true,"internalType":"address","name":"liquidator","type":"address"},{"indexed":false,"internalType":"uint256","name":"reward","type":"uint256"}],"name":"PositionLiquidated","type":"event"},{"anonymous":false,"inputs":[{"indexed":true,"internalType":"uint256","name":"positionId","type":"uint256"},{"indexed":true,"internalType":"address","name":"trader","type":"address"},{"indexed":false,"internalType":"bytes32","name":"pairId","type":"bytes32"},{"indexed":false,"internalType":"bool","name":"isLong","type":"bool"},{"indexed":false,"internalType":"uint256","name":"sizeUsd","type":"uint256"},{"indexed":false,"internalType":"uint256","name":"entryPrice","type":"uint256"},{"indexed":false,"internalType":"uint256","name":"leverage","type":"uint256"}],"name":"PositionOpened","type":"event"},{"anonymous":false,"inputs":[{"indexed":true,"internalType":"uint256","name":"positionId","type":"uint256"},{"indexed":false,"internalType":"bool","name":"isTakeProfit","type":"bool"},{"indexed":false,"internalType":"uint256","name":"executionPrice","type":"uint256"}],"name":"TPSLTriggered","type":"event"},{"anonymous":false,"inputs":[{"indexed":true,"internalType":"uint256","name":"orderId","type":"uint256"},{"indexed":false,"internalType":"uint256","name":"sliceNumber","type":"uint256"},{"indexed":false,"internalType":"uint256","name":"sizeUsd","type":"uint256"}],"name":"TWAPSliceExecuted","type":"event"},{"inputs":[],"name":"MIN_POSITION_SIZE","outputs":[{"internalType":"uint256","name":"","type":"uint256"}],"stateMutability":"view","type":"function"},{"inputs":[{"internalType":"uint256","name":"orderId","type":"uint256"}],"name":"cancelOrder","outputs":[],"stateMutability":"nonpayable","type":"function"},{"inputs":[],"name":"core","outputs":[{"internalType":"contract ConfidentialCore","name":"","type":"address"}],"stateMutability":"view","type":"function"},{"inputs":[{"internalType":"uint256","name":"positionId","type":"uint256"}],"name":"createCloseRequest","outputs":[{"internalType":"uint256","name":"orderId","type":"uint256"}],"stateMutability":"payable","type":"function"},{"inputs":[{"internalType":"bytes32","name":"pairId","type":"bytes32"},{"internalType":"bool","name":"isLong","type":"bool"},{"internalType":"uint256","name":"totalSizeUsd","type":"uint256"},{"internalType":"uint256","name":"leverage","type":"uint256"},{"internalType":"uint256","name":"slices","type":"uint256"},{"internalType":"uint256","name":"intervalSec","type":"uint256"},{"internalType":"uint256","name":"tpPrice","type":"uint256"},{"internalType":"uint256","name":"slPrice","type":"uint256"}],"name":"createTwapOrder","outputs":[{"internalType":"uint256","name":"orderId","type":"uint256"}],"stateMutability":"payable","type":"function"},{"inputs":[{"internalType":"uint256","name":"orderId","type":"uint256"},{"internalType":"bytes[]","name":"updateData","type":"bytes[]"}],"name":"executeOrder","outputs":[],"stateMutability":"payable","type":"function"},{"inputs":[{"internalType":"uint256","name":"positionId","type":"uint256"},{"internalType":"bytes[]","name":"updateData","type":"bytes[]"}],"name":"executeTPSL","outputs":[],"stateMutability":"payable","type":"function"},{"inputs":[{"internalType":"uint256","name":"positionId","type":"uint256"},{"internalType":"bytes[]","name":"updateData","type":"bytes[]"}],"name":"liquidate","outputs":[],"stateMutability":"payable","type":"function"},{"inputs":[],"name":"liquidationRewardBps","outputs":[{"internalType":"uint256","name":"","type":"uint256"}],"stateMutability":"view","type":"function"},{"inputs":[],"name":"nextOrderId","outputs":[{"internalType":"uint256","name":"","type":"uint256"}],"stateMutability":"view","type":"function"},{"inputs":[],"name":"nextPositionId","outputs":[{"internalType":"uint256","name":"","type":"uint256"}],"stateMutability":"view","type":"function"},{"inputs":[],"name":"oracle","outputs":[{"internalType":"contract PythPriceOracle","name":"","type":"address"}],"stateMutability":"view","type":"function"},{"inputs":[{"internalType":"uint256","name":"","type":"uint256"}],"name":"pendingOrders","outputs":[{"internalType":"bytes32","name":"pairId","type":"bytes32"},{"internalType":"address","name":"trader","type":"address"},{"internalType":"bool","name":"isLong","type":"bool"},{"internalType":"uint256","name":"sizeUsd","type":"uint256"},{"internalType":"uint256","name":"collateral","type":"uint256"},{"internalType":"uint256","name":"leverage","type":"uint256"},{"internalType":"uint256","name":"triggerPrice","type":"uint256"},{"internalType":"uint8","name":"orderType","type":"uint8"},{"internalType":"bool","name":"reduceOnly","type":"bool"},{"internalType":"bool","name":"isActive","type":"bool"},{"internalType":"uint256","name":"createdAt","type":"uint256"},{"internalType":"uint256","name":"positionId","type":"uint256"},{"internalType":"uint256","name":"feePaid","type":"uint256"},{"internalType":"uint256","name":"executionFee","type":"uint256"},{"internalType":"uint256","name":"tpPrice","type":"uint256"},{"internalType":"uint256","name":"slPrice","type":"uint256"},{"internalType":"uint256","name":"twapSlices","type":"uint256"},{"internalType":"uint256","name":"twapInterval","type":"uint256"},{"internalType":"uint256","name":"twapExecuted","type":"uint256"},{"internalType":"uint256","name":"twapLastExec","type":"uint256"}],"stateMutability":"view","type":"function"},{"inputs":[{"internalType":"bytes32","name":"pairId","type":"bytes32"},{"internalType":"bool","name":"isLong","type":"bool"},{"internalType":"uint256","name":"sizeUsd","type":"uint256"},{"internalType":"uint256","name":"leverage","type":"uint256"},{"internalType":"uint256","name":"triggerPrice","type":"uint256"},{"internalType":"uint8","name":"orderType","type":"uint8"},{"internalType":"bool","name":"reduceOnly","type":"bool"},{"internalType":"uint256","name":"tpPrice","type":"uint256"},{"internalType":"uint256","name":"slPrice","type":"uint256"}],"name":"placeOrder","outputs":[{"internalType":"uint256","name":"orderId","type":"uint256"}],"stateMutability":"payable","type":"function"},{"inputs":[{"internalType":"uint256","name":"","type":"uint256"}],"name":"positions","outputs":[{"internalType":"bytes32","name":"pairId","type":"bytes32"},{"internalType":"address","name":"trader","type":"address"},{"internalType":"bool","name":"isLong","type":"bool"},{"internalType":"uint256","name":"sizeUsd","type":"uint256"},{"internalType":"uint256","name":"collateral","type":"uint256"},{"internalType":"uint256","name":"entryPrice","type":"uint256"},{"internalType":"uint256","name":"leverage","type":"uint256"},{"internalType":"uint256","name":"liquidationPrice","type":"uint256"},{"internalType":"uint256","name":"openedAt","type":"uint256"},{"internalType":"bool","name":"isOpen","type":"bool"},{"internalType":"uint256","name":"tpPrice","type":"uint256"},{"internalType":"uint256","name":"slPrice","type":"uint256"},{"internalType":"int256","name":"entryFundingIndex","type":"int256"}],"stateMutability":"view","type":"function"},{"inputs":[],"name":"rolloverFeePerHour","outputs":[{"internalType":"uint256","name":"","type":"uint256"}],"stateMutability":"view","type":"function"},{"inputs":[],"name":"usdc","outputs":[{"internalType":"contract IERC20","name":"","type":"address"}],"stateMutability":"view","type":"function"},{"inputs":[{"internalType":"address","name":"","type":"address"},{"internalType":"uint256","name":"","type":"uint256"}],"name":"userOrders","outputs":[{"internalType":"uint256","name":"","type":"uint256"}],"stateMutability":"view","type":"function"},{"inputs":[{"internalType":"address","name":"","type":"address"},{"internalType":"uint256","name":"","type":"uint256"}],"name":"userPositions","outputs":[{"internalType":"uint256","name":"","type":"uint256"}],"stateMutability":"view","type":"function"},{"inputs":[],"name":"vault","outputs":[{"internalType":"contract ConfidentialVault","name":"","type":"address"}],"stateMutability":"view","type":"function"}],"evm":{"bytecode":{"linkReferences":{},"object":"608034620000de57601f6200387738819003918201601f19168301916001600160401b03831184841017620000e257808492608094604052833981010312620000de576200004d81620000f6565b906200005c60208201620000f6565b6200007860606200007060408501620000f6565b9301620000f6565b9060015f55600160055560016006556014600b556064600c5560018060a01b03928380928160018060a01b0319971687600454161760045516856001541617600155168360025416176002551690600354161760035560405161376b90816200010c8239f35b5f80fd5b634e487b7160e01b5f52604160045260245ffd5b51906001600160a01b0382168203620000de5756fe60e0806040526004361015610012575f80fd5b5f905f3560e01c9081632a58b33014612a775750806333e7dddb14611420578063368dbba8146114025780633e413bee146113d9578063514fcac7146112525780635e1b4d9914611214578063666c187e14610e2d5780636fb197f714610aef5780637dc0d1d014610ac657806380b74258146108cd578063856652e914610881578063899346c7146108635780638fb735ee1461084557806399fbab88146107825780639bfe7e3e146105a8578063c3aaea4e14610454578063effaed8914610436578063f2f4eb261461040d578063f6614170146101255763fbfa77cf146100fa575f80fd5b346101225780600319360112610122576002546040516001600160a01b039091168152602090f35b80fd5b508061013036612a91565b9061013c939293612ed2565b816103ab575b505090806024925260076020526040832090600882019182549261016860ff8516612e9b565b6003548254604080516331d98b3f60e01b815260048101839052976001600160a01b039592949293899190829088165afa9687156103a057889761036e575b506001820192835460ff8160a01c1691825f146103615760068501548a11155b15610329578460038c9601946127106101e48754600c5490612e41565b049a60ff191690556002886001541691015492813b156103255760405163019ca2b960e51b8152600481019390935288166001600160a01b03166024830152921515604482015260648101919091529083908290608490829084905af190811561031a578391610302575b5050836002541690848454169054823b156102fe57608484928360405195869485936309c0533b60e01b8552600485015233602485015260448401528b60648401525af180156102f3576102db575b505054169160405193845260208401527f3b7bc7c0fdc798ac653b9f0d6d28adb2293a55402d32c21d323da740ccc6553960403394a46001815580f35b6102e490612b3f565b6102ef57855f61029e565b8580fd5b6040513d84823e3d90fd5b8380fd5b61030b90612b3f565b61031657815f61024f565b5080fd5b6040513d85823e3d90fd5b8680fd5b60405162461bcd60e51b815260206004820152601060248201526f4e6f74206c6971756964617461626c6560801b6044820152606490fd5b60068501548a10156101c7565b61039191975060403d604011610399575b6103898183612b67565b810190612c64565b50955f6101a7565b503d61037f565b6040513d8a823e3d90fd5b6003546001600160a01b031691823b156102fe57604051631df3cbc560e31b81529284928492839182916103e29160048401612b89565b039134905af180156102f3576103f9575b80610142565b61040290612b3f565b61031657815f6103f3565b50346101225780600319360112610122576001546040516001600160a01b039091168152602090f35b50346101225780600319360112610122576020600c54604051908152f35b503461012257602036600319011261012257600435815260086020526040902080808054600182015460c05260028201546003830154600484015460058501546006860154600787015490600888015492600989015494600a8a015496600b8b015498600c8c01549a600d8d01549c600e01549d600f01549e6010015460805260405160a05260a05152600160a01b6001900360c0511660a0516020015260c05160a01c60ff16151560a0516040015260a0516060015260a0516080015260a05160a0015260a05160c0015260ff811660a05160e001528060081c60ff16151560a051610100015260101c60ff16151560a051610120015260a051610140015260a051610160015260a051610180015260a0516101a0015260a0516101c0015260a0516101e0015260a051610200015260a051610220015260a051610240015260805160a051610260015260a05161028090f35b506020908160031936011261012257600435906105c3612ed2565b818152600783526040812060ff6008820154161561074957600460018060a01b036105f5816001850154163314612e09565b856007840154916001541660405193848092636d78097360e11b82525afa90811561073e578491610709575b61062b9250612c7a565b42106106d257906001916006549361064285612e54565b600655848352600886526040832090848201336bffffffffffffffffffffffff60a01b825416179055600682016201000362ff00ff198254161790554260078301556008820155600a3491015554604051908152600385820152816040820152837f401524beccff0d9dd3447788dea32e11f3b7c9618ed6084f14a773dbf2025f1660603393a355604051908152f35b60405162461bcd60e51b815260048101859052600f60248201526e436f6f6c646f776e2061637469766560881b6044820152606490fd5b90508582813d8311610737575b6107208183612b67565b810103126107335761062b915190610621565b5f80fd5b503d610716565b6040513d86823e3d90fd5b60405162461bcd60e51b81526004810185905260116024820152702837b9b4ba34b7b7103737ba1037b832b760791b6044820152606490fd5b50346101225760203660031901126101225760406101a0916004358152600760205220805490600181015490600281015460038201546004830154600584015460068501549060078601549260ff6008880154169460098801549660ff600b600a8b01549a01549a6040519c8d528c602060018060a01b03831691015260a01c16151560408c015260608b015260808a015260a089015260c088015260e08701526101008601521515610120850152610140840152610160830152610180820152f35b50346101225780600319360112610122576020600b54604051908152f35b50346101225780600319360112610122576020600554604051908152f35b50346101225761089036612ae1565b6001600160a01b039091168252600a602052604082208054919290918310156101225760206108bf8484612b07565b90546040519160031b1c8152f35b50806108d836612a91565b906108e4939293612ed2565b81610a64575b50508190526007602052604082209061090960ff600884015416612e9b565b60018060a01b0360035416906040835460248251809581936331d98b3f60e01b835260048301525afa91821561073e578492610a42575b50838493600981015480610a17575b50811580610a0a575b6109e0575b50156109a557807fac4fd466c8f994e08ce2eb9141c2f01f2a779a3537d9bd71fa8762df3d12842c604061099e9581519015158152856020820152a2613026565b6001815580f35b60405162461bcd60e51b815260206004820152601360248201527215140bd4d3081b9bdd081d1c9a59d9d95c9959606a1b6044820152606490fd5b6001810154600a925060a01c60ff1615610a005701548211155b5f61095d565b01548210156109fa565b50600a8101541515610958565b9150935060ff600185015460a01c165f14610a3957821015925b83905f61094f565b82111592610a31565b610a5c91925060403d604011610399576103898183612b67565b50905f610940565b6003546001600160a01b031691823b156102fe57604051631df3cbc560e31b8152928492849283918291610a9b9160048401612b89565b039134905af180156102f357610ab2575b806108ea565b610abb90612b3f565b61031657815f610aac565b50346101225780600319360112610122576003546040516001600160a01b039091168152602090f35b5061010036600319011261012257600435610b08612b30565b91604435906064359260843560a43590610b20612ed2565b600281101580610e22575b15610dec57603c8210610db457629896808181029081048203610da0578510610d64576001546001600160a01b031690813b15610d555760405163bd79156f60e01b81526004810185905233602482015288151560448201526064810187905260848101889052858160a481865afa8015610d5957908691610d41575b505060065496610bb788612e54565b60065560405198899363e4d8cbe560e01b855288600486015287602486015284604460209c8d935afa938415610d36578a8a918996610cfc575b5083928a926008610c6693610c0c600e9a999860019f612d9f565b92610c21610c1a8b86612c7a565b30336134b1565b8d525260408b20600981019790975560038701558886558a8601805460ff60a01b1933166001600160a81b03199091161791151560a01b60ff60a01b16919091179055565b60028401556004830155600682016201000462ff00ff1982541617905542600783015534600a83015560c435600b83015560e435600c830155600d8201550155338252600a8552610cba8460408420612e62565b604051908152600485820152816040820152837f401524beccff0d9dd3447788dea32e11f3b7c9618ed6084f14a773dbf2025f1660603393a355604051908152f35b955090508481949392943d8311610d2f575b610d188183612b67565b81010312610733579251929091888a610c66610bf1565b503d610d0e565b6040513d89823e3d90fd5b610d4a90612b3f565b610d5557845f610ba8565b8480fd5b6040513d88823e3d90fd5b60405162461bcd60e51b815260206004820152601460248201527314db1a58d9481cda5e99481d1bdbc81cdb585b1b60621b6044820152606490fd5b634e487b7160e01b85526011600452602485fd5b60405162461bcd60e51b815260206004820152601060248201526f135a5b880d8c1cc81a5b9d195c9d985b60821b6044820152606490fd5b60405162461bcd60e51b815260206004820152600e60248201526d496e76616c696420736c6963657360901b6044820152606490fd5b506064811115610b2b565b5061012036600319011261012257610e43612b30565b60a4359160ff831683036101225760c43592831515840361073357610e66612ed2565b62989680604435106111de57600260ff8216116111a45760e43561112e575b610104356110b6575b6001546001600160a01b031692833b156110b25760405163bd79156f60e01b8152600480359082015233602482015281151560448083019190915235606480830191909152356084820152838160a481885afa801561073e5790849161109e575b5050604490602060065495610f0387612e54565b60065560405163e4d8cbe560e01b81528435600482015260ff861615602482015293849182905afa91821561073e578492611063575b5090602095610fac6001959493610f54606435604435612d9f565b610f61610c1a8683612c7a565b88875260088a5260408720600981019590955560038501556004358455868401805460ff60a01b1933166001600160a81b03199091161791151560a01b60ff60a01b16919091179055565b60443560028301556064356004830155608435600583015562010000600683019161ff00835491151560081b169060ff86169062ffffff1916171717905542600782015534600a82015560e435600b820155600c61010435910155338252600a855261101b8460408420612e62565b60ff60405191600435835216858201526084356040820152837f401524beccff0d9dd3447788dea32e11f3b7c9618ed6084f14a773dbf2025f1660603393a355604051908152f35b939291506020843d602011611096575b8161108060209383612b67565b8101031261073357925191929091906020610f39565b3d9150611073565b6110a790612b3f565b6110b257825f610eef565b8280fd5b82156111145760843561010435108015611107575b610e8e5760405162461bcd60e51b815260206004820152601060248201526f496e76616c696420534c20707269636560801b6044820152606490fd5b50600260ff8216146110cb565b6084356101043511806110cb5750600260ff8216146110cb565b821561118b5760843560e43511801561117e575b610e855760405162461bcd60e51b815260206004820152601060248201526f496e76616c696420545020707269636560801b6044820152606490fd5b50600260ff821614611142565b60843560e43510806111425750600260ff821614611142565b60405162461bcd60e51b8152602060048201526012602482015271496e76616c6964206f72646572207479706560701b6044820152606490fd5b60405162461bcd60e51b815260206004820152600e60248201526d14da5e99481d1bdbc81cdb585b1b60921b6044820152606490fd5b50346101225761122336612ae1565b6001600160a01b0390911682526009602052604082208054919290918310156101225760206108bf8484612b07565b50346101225760203660031901126101225760043561126f612ed2565b808252600860205281600a6040822060ff60068201805490611295838360101c16612c2b565b6112ac60018060a01b036001860154163314612e09565b62ff0000198216905516600219810161134a575b500154806112f5575b50807f61b9399f2f0f32ca39ce8d7be32caed5ec22fe07a6daba3a467ed479ec60658291a26001815580f35b81808092335af1611304612dbd565b501561131157815f6112c9565b60405162461bcd60e51b8152602060048201526011602482015270115512081c99599d5b990819985a5b1959607a1b6044820152606490fd5b6003820154600460098401549214806113cc575b611392575b61136d8282612c7a565b611378575b506112c0565b61138b9161138591612c7a565b33613403565b5f80611372565b6113c6906113bb600d850154916113c0836113bb6113b4600f8a015483612dfc565b8094612e41565b612d9f565b94612e41565b90611363565b50600f830154151561135e565b50346101225780600319360112610122576004546040516001600160a01b039091168152602090f35b50346101225780600319360112610122576020604051629896808152f35b5061142a36612a91565b90611433612ed2565b81612a0b575b5050808252600860205260408220600681015461145b60ff8260101c16612c2b565b60018060a01b0360035416906040835460248251809581936331d98b3f60e01b835260048301525afa918215612a005785926129db575b5060ff1680611c655750600182015460a01c60ff1615611c585760058201548111155b15611c1f576114c382612c9b565b908060018060a01b0360015416906020845160646040870151151591606088015195604051968794859363b391decf60e01b85526004850152602484015260448301525afa918215610d36578792611beb575b5086821315611b97575061152d6127109183612e41565b04604083015115155f14611b895761154491612c7a565b6005549061155182612e54565b6005558186526007602090815260408088208551815591850151600183018054928701516001600160a81b03199093166001600160a01b03929092169190911791151560a081901b60ff60a01b169290921790558791906115d8905b606087015160028401556080870151600384015584600484015560a08701518060058501558561355d565b600682015542600782015560088101600160ff198254161790556101c085015160098201556101e0850151600a820155602060018060a01b0360015416602487516040519586938492637cc6765f60e11b845260048401525af19182156103a0578892611b54575b50600b015560015483516020850151604086015160608701518a94909392911515916001600160a01b039182169116813b156102ef5760405163b65b361f60e01b815260048101949094526001600160a01b03166024840152901515604483015260648201929092529082908290608490829084905af180156102f357611b40575b505060025460808401516116de916001600160a01b0316613403565b600254608084015187916001600160a01b031690813b156110b2578291602483926040519485938492636e93ae2b60e01b845260048401525af180156102f357611b2c575b5050610180830151600154604051631db0457960e11b81526004810192909252606090829060249082906001600160a01b03165afa908115610d3657878081928294611ae7575b5080611a7a575b505080611a0c575b5080611937575b5060a05f8051602061371683398151915291600180831b03602086015116885260096020526117b28460408a20612e62565b600180831b03602086015116948051916040820151151591846060820151910151926040519485526020850152604084015260608301526080820152a360068101805462ff0000191690555b82600a8201548061188b575b5050600681015460ff8160101c1615611826575b836001815580f35b60ff166003036118625760080154905b7f9947370f1e808dd40de986fca744d8715d4d7aa575359f77a7bdeeb887f590ea8380a35f808061181e565b506005545f1981019081116118775790611836565b634e487b7160e01b83526011600452602483fd5b81906006840154600460ff8216148061192a575b1561191057506118b59150600d84015490612d9f565b801561180a5781808092335af16118ca612dbd565b50156118d757825f61180a565b60405162461bcd60e51b815260206004820152601160248201527012d9595c195c881999594819985a5b1959607a1b6044820152606490fd5b60101c60ff1615611922575b506118b5565b90505f61191c565b50600d850154151561189f565b60015460405163b790230360e01b81529290602090849060049082906001600160a01b03165afa9283156103a05788936119db575b506001600160a01b0383161561199d5761199660a0925f8051602061371683398151915294613403565b9150611780565b60405162461bcd60e51b8152602060048201526016602482015275125b9cdd5c985b98d948199d5b99081b9bdd081cd95d60521b6044820152606490fd5b6119fe91935060203d602011611a05575b6119f68183612b67565b81019061363d565b915f61196c565b503d6119ec565b6001546040516361d027b360e01b81529190602090839060049082906001600160a01b03165afa8015611a6f57611a4a928a91611a50575b50613403565b5f611779565b611a69915060203d602011611a05576119f68183612b67565b5f611a44565b6040513d8b823e3d90fd5b600254611a919082906001600160a01b0316613403565b6002546001600160a01b031690813b156110b25782916024839260405194859384926302102c9760e11b845260048401525af180156102f3571561177157611ad890612b3f565b611ae357875f611771565b8780fd5b93505050506060813d606011611b24575b81611b0560609383612b67565b810103126103255780518760406020840151930151919291925f61176a565b3d9150611af8565b611b3590612b3f565b6102ef57855f611723565b611b4990612b3f565b6102ef57855f6116c2565b9091506020813d602011611b81575b81611b7060209383612b67565b81010312610733575190600b611640565b3d9150611b63565b611b9291612dfc565b611544565b90868112611ba7575b5050611544565b612710919250611bb9611bbf91612ef3565b83612e41565b04604083015115155f14611bdd57611bd691612dfc565b5f80611ba0565b611be691612c7a565b611bd6565b9091506020813d602011611c17575b81611c0760209383612b67565b810103126107335751905f611516565b3d9150611bfa565b60405162461bcd60e51b8152602060048201526011602482015270131a5b5a5d081b9bdd081c995858da1959607a1b6044820152606490fd5b60058201548110156114b5565b600181036122575750600182015460a01c60ff161561224a5760058201548110155b1561221257611c9582612c9b565b908060018060a01b0360015416906020845160646040870151151591606088015195604051968794859363b391decf60e01b85526004850152602484015260448301525afa918215610d365787926121de575b50868213156121905750611cff6127109183612e41565b04604083015115155f1461218257611d1691612c7a565b60055490611d2382612e54565b6005558186526007602090815260408088208551815591850151600183018054928701516001600160a81b03199093166001600160a01b03929092169190911791151560a081901b60ff60a01b16929092179055879190611d83906115ad565b600682015542600782015560088101600160ff198254161790556101c085015160098201556101e0850151600a820155602060018060a01b0360015416602487516040519586938492637cc6765f60e11b845260048401525af19182156103a057889261214d575b50600b015560015483516020850151604086015160608701518a94909392911515916001600160a01b039182169116813b156102ef5760405163b65b361f60e01b815260048101949094526001600160a01b03166024840152901515604483015260648201929092529082908290608490829084905af180156102f357612139575b50506002546080840151611e89916001600160a01b0316613403565b600254608084015187916001600160a01b031690813b156110b2578291602483926040519485938492636e93ae2b60e01b845260048401525af180156102f357612125575b5050610180830151600154604051631db0457960e11b81526004810192909252606090829060249082906001600160a01b03165afa908115610d36578780819282946120e0575b5080612077575b505080612034575b5080611fad575b5060a05f8051602061371683398151915291600180831b0360208601511688526009602052611f5d8460408a20612e62565b600180831b03602086015116948051916040820151151591846060820151910151926040519485526020850152604084015260608301526080820152a360068101805462ff0000191690556117fe565b60015460405163b790230360e01b81529290602090849060049082906001600160a01b03165afa9283156103a0578893612013575b506001600160a01b0383161561199d5761200c60a0925f8051602061371683398151915294613403565b9150611f2b565b61202d91935060203d602011611a05576119f68183612b67565b915f611fe2565b6001546040516361d027b360e01b81529190602090839060049082906001600160a01b03165afa8015611a6f57612071928a91611a505750613403565b5f611f24565b60025461208e9082906001600160a01b0316613403565b6002546001600160a01b031690813b156110b25782916024839260405194859384926302102c9760e11b845260048401525af180156102f35715611f1c576120d590612b3f565b611ae357875f611f1c565b93505050506060813d60601161211d575b816120fe60609383612b67565b810103126103255780518760406020840151930151919291925f611f15565b3d91506120f1565b61212e90612b3f565b6102ef57855f611ece565b61214290612b3f565b6102ef57855f611e6d565b9091506020813d60201161217a575b8161216960209383612b67565b81010312610733575190600b611deb565b3d915061215c565b61218b91612dfc565b611d16565b908681126121a0575b5050611d16565b612710919250611bb96121b291612ef3565b04604083015115155f146121d0576121c991612dfc565b5f80612199565b6121d991612c7a565b6121c9565b9091506020813d60201161220a575b816121fa60209383612b67565b810103126107335751905f611ce8565b3d91506121ed565b60405162461bcd60e51b815260206004820152601060248201526f14dd1bdc081b9bdd081c995858da195960821b6044820152606490fd5b6005820154811115611c87565b6002810361230e5750600182015460ff8160a01c165f146123015760058301548211155b80156122f5575b156122a45750611c9582612c9b565b60068101805462ff0000191690556117fe565b6122cb91506122bc6003840154600985015490612c7a565b906001600160a01b0316613403565b817f61b9399f2f0f32ca39ce8d7be32caed5ec22fe07a6daba3a467ed479ec6065828480a2612291565b50600583015415612282565b600583015482101561227b565b600381036123255750612291906008830154613026565b600414612333575b506117fe565b600f8201541580156129bf575b156129885761234e82612c9b565b906123886002840154612366600d8601548092612d9f565b6060850152612379816003870154612d9f565b60808501526009850154612d9f565b61018083015260015482516040808501516060860151915163b391decf60e01b81526004810193909352151560248301526044820152908290602090839060649082906001600160a01b03165afa918215610d36578792612954575b508682131561290657506123fb6127109183612e41565b04604083015115155f146128f85761241291612c7a565b60055461241e81612e54565b6005558086526007602090815260408088208551815591850151600183018054928701516001600160a81b03199093166001600160a01b03929092169190911791151560a081901b60ff60a01b169290921790558791906124a490606087015160028401556080870151600384015585600484015560a08701518060058501558661355d565b600682015542600782015560088101600160ff198254161790556101c085015160098201556101e0850151600a820155602060018060a01b0360015416602487516040519586938492637cc6765f60e11b845260048401525af19182156103a05788926128c3575b50600b015560015483516020850151604086015160608701518a94909392911515916001600160a01b039182169116813b156102ef5760405163b65b361f60e01b815260048101949094526001600160a01b03166024840152901515604483015260648201929092529082908290608490829084905af180156102f3576128af575b505060025460808401516125aa916001600160a01b0316613403565b600254608084015187916001600160a01b031690813b156110b2578291602483926040519485938492636e93ae2b60e01b845260048401525af180156102f35761289b575b5050610180830151600154604051631db0457960e11b81526004810192909252606090829060249082906001600160a01b03165afa908115610d3657878081928294612856575b50806127ed575b5050806127aa575b5080612735575b506020838101516001600160a01b031687526009905260408620612671908290612e62565b5f8051602061371683398151915260a0600180821b03602086015116938551906040870151151590606088015184890151926040519485526020850152604084015260608301526080820152a3600f8201549060018201809211610da0577f098dc6c1012d2fb4cc0470ec0f1b82ad9eaf354865d76ebad869d83f1559344e60406060869385600f88015542601088015501518151908582526020820152a2600d8201541115612722575b5f61232d565b60068101805462ff00001916905561271c565b60015460405163b790230360e01b81529190602090839060049082906001600160a01b03165afa9182156103a0578892612789575b506001600160a01b0382161561199d5761278391613403565b5f61264c565b6127a391925060203d602011611a05576119f68183612b67565b905f61276a565b6001546040516361d027b360e01b81529190602090839060049082906001600160a01b03165afa8015611a6f576127e7928a91611a505750613403565b5f612645565b6002546128049082906001600160a01b0316613403565b6002546001600160a01b031690813b156110b25782916024839260405194859384926302102c9760e11b845260048401525af180156102f3571561263d5761284b90612b3f565b611ae357875f61263d565b93505050506060813d606011612893575b8161287460609383612b67565b810103126103255780518760406020840151930151919291925f612636565b3d9150612867565b6128a490612b3f565b6102ef57855f6125ef565b6128b890612b3f565b6102ef57855f61258e565b9091506020813d6020116128f0575b816128df60209383612b67565b81010312610733575190600b61250c565b3d91506128d2565b61290191612dfc565b612412565b90868112612916575b5050612412565b612710919250611bb961292891612ef3565b04604083015115155f146129465761293f91612dfc565b5f8061290f565b61294f91612c7a565b61293f565b9091506020813d602011612980575b8161297060209383612b67565b810103126107335751905f6123e4565b3d9150612963565b60405162461bcd60e51b815260206004820152600f60248201526e545741503a20746f6f206561726c7960881b6044820152606490fd5b506129d36010830154600e84015490612c7a565b421015612340565b60ff9192506129f89060403d604011610399576103898183612b67565b509190611492565b6040513d87823e3d90fd5b6003546001600160a01b031691823b1561073357604051631df3cbc560e31b8152925f92849283918291612a429160048401612b89565b039134905af18015612a6c57612a59575b80611439565b612a64919250612b3f565b5f905f612a53565b6040513d5f823e3d90fd5b34610733575f366003190112610733576020906006548152f35b6040600319820112610733576004359160243567ffffffffffffffff9283821161073357806023830112156107335781600401359384116107335760248460051b83010111610733576024019190565b6040906003190112610733576004356001600160a01b0381168103610733579060243590565b8054821015612b1c575f5260205f2001905f90565b634e487b7160e01b5f52603260045260245ffd5b60243590811515820361073357565b67ffffffffffffffff8111612b5357604052565b634e487b7160e01b5f52604160045260245ffd5b90601f8019910116810190811067ffffffffffffffff821117612b5357604052565b9160208181850182865252604084019360408360051b82010194845f925b858410612bb8575050505050505090565b90919293949596603f198282030184528735601e198436030181121561073357830186810191903567ffffffffffffffff81116107335780360383136107335787828280600196849695859652848401375f828201840152601f01601f1916010199019796959190910193019190612ba7565b15612c3257565b60405162461bcd60e51b815260206004820152600a6024820152694e6f742061637469766560b01b6044820152606490fd5b9190826040910312610733576020825192015190565b91908201809211612c8757565b634e487b7160e01b5f52601160045260245ffd5b90604051610280810181811067ffffffffffffffff821117612b5357604052610260601082948054845260ff600182015460018060a01b038116602087015260a01c16151560408501526002810154606085015260038101546080850152600481015460a0850152600581015460c085015260ff600682015481811660e0870152818160081c161515610100870152831c161515610120850152600781015461014085015260088101546101608501526009810154610180850152600a8101546101a0850152600b8101546101c0850152600c8101546101e0850152600d810154610200850152600e810154610220850152600f8101546102408501520154910152565b8115612da9570490565b634e487b7160e01b5f52601260045260245ffd5b3d15612df7573d9067ffffffffffffffff8211612b535760405191612dec601f8201601f191660200184612b67565b82523d5f602084013e565b606090565b91908203918211612c8757565b15612e1057565b60405162461bcd60e51b81526020600482015260096024820152682737ba1037bbb732b960b91b6044820152606490fd5b81810292918115918404141715612c8757565b5f198114612c875760010190565b805468010000000000000000811015612b5357612e8491600182018155612b07565b819291549060031b91821b915f19901b1916179055565b15612ea257565b60405162461bcd60e51b81526020600482015260086024820152672737ba1037b832b760c11b6044820152606490fd5b60025f5414612ee15760025f55565b604051633ee5aeb560e01b8152600490fd5b600160ff1b8114612c87575f0390565b81810392915f138015828513169184121617612c8757565b81810292915f8212600160ff1b821416612c87578184051490151715612c8757565b8115612da957600160ff1b81145f19831416612c87570590565b906040516101a0810181811067ffffffffffffffff821117612b5357604052610180600b82948054845260ff600182015460018060a01b038116602087015260a01c16151560408501526002810154606085015260038101546080850152600481015460a0850152600581015460c0850152600681015460e0850152600781015461010085015260ff60088201541615156101208501526009810154610140850152600a8101546101608501520154910152565b9190915f8382019384129112908015821691151617612c8757565b91905f92805f5260209160078352604090815f206008810161304b60ff825416612e9b565b60018201805460a01c60ff16156133d057613081600484015461307c6130718288612f03565b600287015490612f1b565b612f3d565b925b60018060a01b0392836001541690600283019283549389519363e4d8cbe560e01b8552600495868601525f60248601528c85604481845afa9485156133c6578b918e915f97613393575b50905f91602463d693a4006131096130e489612f57565b61310460606130f861010084015142612dfc565b920151600b5490612e41565b612e41565b0494875490519485938492637cc6765f60e11b84528d8401525af1801561338957908e91613360575b505061315b6131619161315661314f61314a87612f57565b61365c565b918861300b565b61300b565b89612f03565b835460ff191690935560015482548754925490918916803b15610733578c5163019ca2b960e51b81528089019384526001600160a01b03858c1616602085015260a09490941c60ff161515604084015260608301919091525f9183919082908490829060800103925af1801561335657613341575b50908c918282136132e6575b866002541660038888541692015490803b15610d55578492836064928e51968795869463118f304360e01b86528c860152602485015260448401525af180156132dc576132c4575b505080613268575b50507f356fca566f3a054a459c7224d9c9d634f31a98835cfd4fb4c5ddbf8b96aca21195969798505416958351928352820152a3565b8a90846002541692833b156110b257602490838a5195869485936335b8e71360e01b85528401525af180156132ba576132a2575b80613232565b6132ac8a91612b3f565b6132b6578861329c565b8880fd5b86513d8c823e3d90fd5b6132cd90612b3f565b6132d8578a5f61322a565b8a80fd5b89513d84823e3d90fd5b8660015416803b156102fe5783809160248d518094819363630304f960e11b8352888c8401525af1801561333757908491613323575b50506131e2565b61332c90612b3f565b6110b257825f61331c565b8b513d86823e3d90fd5b61334d91929d50612b3f565b5f9b905f6131d6565b8a513d5f823e3d90fd5b813d8311613382575b6133738183612b67565b81010312610733578c5f613132565b503d613369565b8c513d5f823e3d90fd5b9250955081813d83116133bf575b6133ab8183612b67565b810103126107335751938a908d905f6130cd565b503d6133a1565b8b513d5f823e3d90fd5b6133e5600484015461307c6130718783612f03565b92613083565b90816020910312610733575180151581036107335790565b602090604460018060a01b03915f8360045416604051968795869463a9059cbb60e01b865216600485015260248401525af1908115612a6c575f91613482575b501561344b57565b60405162461bcd60e51b815260206004820152600f60248201526e151c985b9cd9995c8819985a5b1959608a1b6044820152606490fd5b6134a4915060203d6020116134aa575b61349c8183612b67565b8101906133eb565b5f613443565b503d613492565b916064602092935f60018060a01b03938460045416908560405198899788966323b872dd60e01b885216600487015216602485015260448401525af1908115612a6c575f9161353e575b501561350357565b60405162461bcd60e51b8152602060048201526013602482015272151c985b9cd9995c919c9bdb4819985a5b1959606a1b6044820152606490fd5b613557915060203d6020116134aa5761349c8183612b67565b5f6134fb565b6001546040516335123baf60e21b815291929190602090829060049082906001600160a01b03165afa908115612a6c575f9161360b575b50600a8101809111612c8757816135aa91612e41565b61232891908281106135f3575050506064915b156135dc576127106135d26135d99383612e41565b0490612dfc565b90565b6127106135ec6135d99383612e41565b0490612c7a565b8203918211612c875761360591612d9f565b916135bd565b90506020813d602011613635575b8161362660209383612b67565b8101031261073357515f613594565b3d9150613619565b9081602091031261073357516001600160a01b03811681036107335790565b60018060a01b03600154169060208151602460405180958193634655f1eb60e01b835260048301525afa918215612a6c575f926136df575b506136ae670de0b6b3a76400009261018083015190612f03565b6040820151156136c95760606136c5920151612f1b565b0590565b6136da9060606136c5930151612f1b565b612ef3565b91506020823d60201161370d575b816136fa60209383612b67565b81010312610733579051906136ae613694565b3d91506136ed56fe52ca44dea94749aadfaa4d3749a0323a33b3a6434adcfff52ad54c511f5579c7a26469706673582212207b7686b7af02f114f509a31f46e4a4f2c0f4da69e3ea74218b2027f8eed5a21a64736f6c63430008180033","opcodes":"PUSH1 0x80 CALLVALUE PUSH3 0xDE JUMPI PUSH1 0x1F PUSH3 0x3877 CODESIZE DUP2 SWAP1 SUB SWAP2 DUP3 ADD PUSH1 0x1F NOT AND DUP4 ADD SWAP2 PUSH1 0x1 PUSH1 0x1 PUSH1 0x40 SHL SUB DUP4 GT DUP5 DUP5 LT OR PUSH3 0xE2 JUMPI DUP1 DUP5 SWAP3 PUSH1 0x80 SWAP5 PUSH1 0x40 MSTORE DUP4 CODECOPY DUP2 ADD SUB SLT PUSH3 0xDE JUMPI PUSH3 0x4D DUP2 PUSH3 0xF6 JUMP JUMPDEST SWAP1 PUSH3 0x5C PUSH1 0x20 DUP3 ADD PUSH3 0xF6 JUMP JUMPDEST PUSH3 0x78 PUSH1 0x60 PUSH3 0x70 PUSH1 0x40 DUP6 ADD PUSH3 0xF6 JUMP JUMPDEST SWAP4 ADD PUSH3 0xF6 JUMP JUMPDEST SWAP1 PUSH1 0x1 PUSH0 SSTORE PUSH1 0x1 PUSH1 0x5 SSTORE PUSH1 0x1 PUSH1 0x6 SSTORE PUSH1 0x14 PUSH1 0xB SSTORE PUSH1 0x64 PUSH1 0xC SSTORE PUSH1 0x1 DUP1 PUSH1 0xA0 SHL SUB SWAP3 DUP4 DUP1 SWAP3 DUP2 PUSH1 0x1 DUP1 PUSH1 0xA0 SHL SUB NOT SWAP8 AND DUP8 PUSH1 0x4 SLOAD AND OR PUSH1 0x4 SSTORE AND DUP6 PUSH1 0x1 SLOAD AND OR PUSH1 0x1 SSTORE AND DUP4 PUSH1 0x2 SLOAD AND OR PUSH1 0x2 SSTORE AND SWAP1 PUSH1 0x3 SLOAD AND OR PUSH1 0x3 SSTORE PUSH1 0x40 MLOAD PUSH2 0x376B SWAP1 DUP2 PUSH3 0x10C DUP3 CODECOPY RETURN JUMPDEST PUSH0 DUP1 REVERT JUMPDEST PUSH4 0x4E487B71 PUSH1 0xE0 SHL PUSH0 MSTORE PUSH1 0x41 PUSH1 0x4 MSTORE PUSH1 0x24 PUSH0 REVERT JUMPDEST MLOAD SWAP1 PUSH1 0x1 PUSH1 0x1 PUSH1 0xA0 SHL SUB DUP3 AND DUP3 SUB PUSH3 0xDE JUMPI JUMP INVALID PUSH1 0xE0 DUP1 PUSH1 0x40 MSTORE PUSH1 0x4 CALLDATASIZE LT ISZERO PUSH2 0x12 JUMPI PUSH0 DUP1 REVERT JUMPDEST PUSH0 SWAP1 PUSH0 CALLDATALOAD PUSH1 0xE0 SHR SWAP1 DUP2 PUSH4 0x2A58B330 EQ PUSH2 0x2A77 JUMPI POP DUP1 PUSH4 0x33E7DDDB EQ PUSH2 0x1420 JUMPI DUP1 PUSH4 0x368DBBA8 EQ PUSH2 0x1402 JUMPI DUP1 PUSH4 0x3E413BEE EQ PUSH2 0x13D9 JUMPI DUP1 PUSH4 0x514FCAC7 EQ PUSH2 0x1252 JUMPI DUP1 PUSH4 0x5E1B4D99 EQ PUSH2 0x1214 JUMPI DUP1 PUSH4 0x666C187E EQ PUSH2 0xE2D JUMPI DUP1 PUSH4 0x6FB197F7 EQ PUSH2 0xAEF JUMPI DUP1 PUSH4 0x7DC0D1D0 EQ PUSH2 0xAC6 JUMPI DUP1 PUSH4 0x80B74258 EQ PUSH2 0x8CD JUMPI DUP1 PUSH4 0x856652E9 EQ PUSH2 0x881 JUMPI DUP1 PUSH4 0x899346C7 EQ PUSH2 0x863 JUMPI DUP1 PUSH4 0x8FB735EE EQ PUSH2 0x845 JUMPI DUP1 PUSH4 0x99FBAB88 EQ PUSH2 0x782 JUMPI DUP1 PUSH4 0x9BFE7E3E EQ PUSH2 0x5A8 JUMPI DUP1 PUSH4 0xC3AAEA4E EQ PUSH2 0x454 JUMPI DUP1 PUSH4 0xEFFAED89 EQ PUSH2 0x436 JUMPI DUP1 PUSH4 0xF2F4EB26 EQ PUSH2 0x40D JUMPI DUP1 PUSH4 0xF6614170 EQ PUSH2 0x125 JUMPI PUSH4 0xFBFA77CF EQ PUSH2 0xFA JUMPI PUSH0 DUP1 REVERT JUMPDEST CALLVALUE PUSH2 0x122 JUMPI DUP1 PUSH1 0x3 NOT CALLDATASIZE ADD SLT PUSH2 0x122 JUMPI PUSH1 0x2 SLOAD PUSH1 0x40 MLOAD PUSH1 0x1 PUSH1 0x1 PUSH1 0xA0 SHL SUB SWAP1 SWAP2 AND DUP2 MSTORE PUSH1 0x20 SWAP1 RETURN JUMPDEST DUP1 REVERT JUMPDEST POP DUP1 PUSH2 0x130 CALLDATASIZE PUSH2 0x2A91 JUMP JUMPDEST SWAP1 PUSH2 0x13C SWAP4 SWAP3 SWAP4 PUSH2 0x2ED2 JUMP JUMPDEST DUP2 PUSH2 0x3AB JUMPI JUMPDEST POP POP SWAP1 DUP1 PUSH1 0x24 SWAP3 MSTORE PUSH1 0x7 PUSH1 0x20 MSTORE PUSH1 0x40 DUP4 KECCAK256 SWAP1 PUSH1 0x8 DUP3 ADD SWAP2 DUP3 SLOAD SWAP3 PUSH2 0x168 PUSH1 0xFF DUP6 AND PUSH2 0x2E9B JUMP JUMPDEST PUSH1 0x3 SLOAD DUP3 SLOAD PUSH1 0x40 DUP1 MLOAD PUSH4 0x31D98B3F PUSH1 0xE0 SHL DUP2 MSTORE PUSH1 0x4 DUP2 ADD DUP4 SWAP1 MSTORE SWAP8 PUSH1 0x1 PUSH1 0x1 PUSH1 0xA0 SHL SUB SWAP6 SWAP3 SWAP5 SWAP3 SWAP4 DUP10 SWAP2 SWAP1 DUP3 SWAP1 DUP9 AND GAS STATICCALL SWAP7 DUP8 ISZERO PUSH2 0x3A0 JUMPI DUP9 SWAP8 PUSH2 0x36E JUMPI JUMPDEST POP PUSH1 0x1 DUP3 ADD SWAP3 DUP4 SLOAD PUSH1 0xFF DUP2 PUSH1 0xA0 SHR AND SWAP2 DUP3 PUSH0 EQ PUSH2 0x361 JUMPI PUSH1 0x6 DUP6 ADD SLOAD DUP11 GT ISZERO JUMPDEST ISZERO PUSH2 0x329 JUMPI DUP5 PUSH1 0x3 DUP13 SWAP7 ADD SWAP5 PUSH2 0x2710 PUSH2 0x1E4 DUP8 SLOAD PUSH1 0xC SLOAD SWAP1 PUSH2 0x2E41 JUMP JUMPDEST DIV SWAP11 PUSH1 0xFF NOT AND SWAP1 SSTORE PUSH1 0x2 DUP9 PUSH1 0x1 SLOAD AND SWAP2 ADD SLOAD SWAP3 DUP2 EXTCODESIZE ISZERO PUSH2 0x325 JUMPI PUSH1 0x40 MLOAD PUSH4 0x19CA2B9 PUSH1 0xE5 SHL DUP2 MSTORE PUSH1 0x4 DUP2 ADD SWAP4 SWAP1 SWAP4 MSTORE DUP9 AND PUSH1 0x1 PUSH1 0x1 PUSH1 0xA0 SHL SUB AND PUSH1 0x24 DUP4 ADD MSTORE SWAP3 ISZERO ISZERO PUSH1 0x44 DUP3 ADD MSTORE PUSH1 0x64 DUP2 ADD SWAP2 SWAP1 SWAP2 MSTORE SWAP1 DUP4 SWAP1 DUP3 SWAP1 PUSH1 0x84 SWAP1 DUP3 SWAP1 DUP5 SWAP1 GAS CALL SWAP1 DUP2 ISZERO PUSH2 0x31A JUMPI DUP4 SWAP2 PUSH2 0x302 JUMPI JUMPDEST POP POP DUP4 PUSH1 0x2 SLOAD AND SWAP1 DUP5 DUP5 SLOAD AND SWAP1 SLOAD DUP3 EXTCODESIZE ISZERO PUSH2 0x2FE JUMPI PUSH1 0x84 DUP5 SWAP3 DUP4 PUSH1 0x40 MLOAD SWAP6 DUP7 SWAP5 DUP6 SWAP4 PUSH4 0x9C0533B PUSH1 0xE0 SHL DUP6 MSTORE PUSH1 0x4 DUP6 ADD MSTORE CALLER PUSH1 0x24 DUP6 ADD MSTORE PUSH1 0x44 DUP5 ADD MSTORE DUP12 PUSH1 0x64 DUP5 ADD MSTORE GAS CALL DUP1 ISZERO PUSH2 0x2F3 JUMPI PUSH2 0x2DB JUMPI JUMPDEST POP POP SLOAD AND SWAP2 PUSH1 0x40 MLOAD SWAP4 DUP5 MSTORE PUSH1 0x20 DUP5 ADD MSTORE PUSH32 0x3B7BC7C0FDC798AC653B9F0D6D28ADB2293A55402D32C21D323DA740CCC65539 PUSH1 0x40 CALLER SWAP5 LOG4 PUSH1 0x1 DUP2 SSTORE DUP1 RETURN JUMPDEST PUSH2 0x2E4 SWAP1 PUSH2 0x2B3F JUMP JUMPDEST PUSH2 0x2EF JUMPI DUP6 PUSH0 PUSH2 0x29E JUMP JUMPDEST DUP6 DUP1 REVERT JUMPDEST PUSH1 0x40 MLOAD RETURNDATASIZE DUP5 DUP3 RETURNDATACOPY RETURNDATASIZE SWAP1 REVERT JUMPDEST DUP4 DUP1 REVERT JUMPDEST PUSH2 0x30B SWAP1 PUSH2 0x2B3F JUMP JUMPDEST PUSH2 0x316 JUMPI DUP2 PUSH0 PUSH2 0x24F JUMP JUMPDEST POP DUP1 REVERT JUMPDEST PUSH1 0x40 MLOAD RETURNDATASIZE DUP6 DUP3 RETURNDATACOPY RETURNDATASIZE SWAP1 REVERT JUMPDEST DUP7 DUP1 REVERT JUMPDEST PUSH1 0x40 MLOAD PUSH3 0x461BCD PUSH1 0xE5 SHL DUP2 MSTORE PUSH1 0x20 PUSH1 0x4 DUP3 ADD MSTORE PUSH1 0x10 PUSH1 0x24 DUP3 ADD MSTORE PUSH16 0x4E6F74206C6971756964617461626C65 PUSH1 0x80 SHL PUSH1 0x44 DUP3 ADD MSTORE PUSH1 0x64 SWAP1 REVERT JUMPDEST PUSH1 0x6 DUP6 ADD SLOAD DUP11 LT ISZERO PUSH2 0x1C7 JUMP JUMPDEST PUSH2 0x391 SWAP2 SWAP8 POP PUSH1 0x40 RETURNDATASIZE PUSH1 0x40 GT PUSH2 0x399 JUMPI JUMPDEST PUSH2 0x389 DUP2 DUP4 PUSH2 0x2B67 JUMP JUMPDEST DUP2 ADD SWAP1 PUSH2 0x2C64 JUMP JUMPDEST POP SWAP6 PUSH0 PUSH2 0x1A7 JUMP JUMPDEST POP RETURNDATASIZE PUSH2 0x37F JUMP JUMPDEST PUSH1 0x40 MLOAD RETURNDATASIZE DUP11 DUP3 RETURNDATACOPY RETURNDATASIZE SWAP1 REVERT JUMPDEST PUSH1 0x3 SLOAD PUSH1 0x1 PUSH1 0x1 PUSH1 0xA0 SHL SUB AND SWAP2 DUP3 EXTCODESIZE ISZERO PUSH2 0x2FE JUMPI PUSH1 0x40 MLOAD PUSH4 0x1DF3CBC5 PUSH1 0xE3 SHL DUP2 MSTORE SWAP3 DUP5 SWAP3 DUP5 SWAP3 DUP4 SWAP2 DUP3 SWAP2 PUSH2 0x3E2 SWAP2 PUSH1 0x4 DUP5 ADD PUSH2 0x2B89 JUMP JUMPDEST SUB SWAP2 CALLVALUE SWAP1 GAS CALL DUP1 ISZERO PUSH2 0x2F3 JUMPI PUSH2 0x3F9 JUMPI JUMPDEST DUP1 PUSH2 0x142 JUMP JUMPDEST PUSH2 0x402 SWAP1 PUSH2 0x2B3F JUMP JUMPDEST PUSH2 0x316 JUMPI DUP2 PUSH0 PUSH2 0x3F3 JUMP JUMPDEST POP CALLVALUE PUSH2 0x122 JUMPI DUP1 PUSH1 0x3 NOT CALLDATASIZE ADD SLT PUSH2 0x122 JUMPI PUSH1 0x1 SLOAD PUSH1 0x40 MLOAD PUSH1 0x1 PUSH1 0x1 PUSH1 0xA0 SHL SUB SWAP1 SWAP2 AND DUP2 MSTORE PUSH1 0x20 SWAP1 RETURN JUMPDEST POP CALLVALUE PUSH2 0x122 JUMPI DUP1 PUSH1 0x3 NOT CALLDATASIZE ADD SLT PUSH2 0x122 JUMPI PUSH1 0x20 PUSH1 0xC SLOAD PUSH1 0x40 MLOAD SWAP1 DUP2 MSTORE RETURN JUMPDEST POP CALLVALUE PUSH2 0x122 JUMPI PUSH1 0x20 CALLDATASIZE PUSH1 0x3 NOT ADD SLT PUSH2 0x122 JUMPI PUSH1 0x4 CALLDATALOAD DUP2 MSTORE PUSH1 0x8 PUSH1 0x20 MSTORE PUSH1 0x40 SWAP1 KECCAK256 DUP1 DUP1 DUP1 SLOAD PUSH1 0x1 DUP3 ADD SLOAD PUSH1 0xC0 MSTORE PUSH1 0x2 DUP3 ADD SLOAD PUSH1 0x3 DUP4 ADD SLOAD PUSH1 0x4 DUP5 ADD SLOAD PUSH1 0x5 DUP6 ADD SLOAD PUSH1 0x6 DUP7 ADD SLOAD PUSH1 0x7 DUP8 ADD SLOAD SWAP1 PUSH1 0x8 DUP9 ADD SLOAD SWAP3 PUSH1 0x9 DUP10 ADD SLOAD SWAP5 PUSH1 0xA DUP11 ADD SLOAD SWAP7 PUSH1 0xB DUP12 ADD SLOAD SWAP9 PUSH1 0xC DUP13 ADD SLOAD SWAP11 PUSH1 0xD DUP14 ADD SLOAD SWAP13 PUSH1 0xE ADD SLOAD SWAP14 PUSH1 0xF ADD SLOAD SWAP15 PUSH1 0x10 ADD SLOAD PUSH1 0x80 MSTORE PUSH1 0x40 MLOAD PUSH1 0xA0 MSTORE PUSH1 0xA0 MLOAD MSTORE PUSH1 0x1 PUSH1 0xA0 SHL PUSH1 0x1 SWAP1 SUB PUSH1 0xC0 MLOAD AND PUSH1 0xA0 MLOAD PUSH1 0x20 ADD MSTORE PUSH1 0xC0 MLOAD PUSH1 0xA0 SHR PUSH1 0xFF AND ISZERO ISZERO PUSH1 0xA0 MLOAD PUSH1 0x40 ADD MSTORE PUSH1 0xA0 MLOAD PUSH1 0x60 ADD MSTORE PUSH1 0xA0 MLOAD PUSH1 0x80 ADD MSTORE PUSH1 0xA0 MLOAD PUSH1 0xA0 ADD MSTORE PUSH1 0xA0 MLOAD PUSH1 0xC0 ADD MSTORE PUSH1 0xFF DUP2 AND PUSH1 0xA0 MLOAD PUSH1 0xE0 ADD MSTORE DUP1 PUSH1 0x8 SHR PUSH1 0xFF AND ISZERO ISZERO PUSH1 0xA0 MLOAD PUSH2 0x100 ADD MSTORE PUSH1 0x10 SHR PUSH1 0xFF AND ISZERO ISZERO PUSH1 0xA0 MLOAD PUSH2 0x120 ADD MSTORE PUSH1 0xA0 MLOAD PUSH2 0x140 ADD MSTORE PUSH1 0xA0 MLOAD PUSH2 0x160 ADD MSTORE PUSH1 0xA0 MLOAD PUSH2 0x180 ADD MSTORE PUSH1 0xA0 MLOAD PUSH2 0x1A0 ADD MSTORE PUSH1 0xA0 MLOAD PUSH2 0x1C0 ADD MSTORE PUSH1 0xA0 MLOAD PUSH2 0x1E0 ADD MSTORE PUSH1 0xA0 MLOAD PUSH2 0x200 ADD MSTORE PUSH1 0xA0 MLOAD PUSH2 0x220 ADD MSTORE PUSH1 0xA0 MLOAD PUSH2 0x240 ADD MSTORE PUSH1 0x80 MLOAD PUSH1 0xA0 MLOAD PUSH2 0x260 ADD MSTORE PUSH1 0xA0 MLOAD PUSH2 0x280 SWAP1 RETURN JUMPDEST POP PUSH1 0x20 SWAP1 DUP2 PUSH1 0x3 NOT CALLDATASIZE ADD SLT PUSH2 0x122 JUMPI PUSH1 0x4 CALLDATALOAD SWAP1 PUSH2 0x5C3 PUSH2 0x2ED2 JUMP JUMPDEST DUP2 DUP2 MSTORE PUSH1 0x7 DUP4 MSTORE PUSH1 0x40 DUP2 KECCAK256 PUSH1 0xFF PUSH1 0x8 DUP3 ADD SLOAD AND ISZERO PUSH2 0x749 JUMPI PUSH1 0x4 PUSH1 0x1 DUP1 PUSH1 0xA0 SHL SUB PUSH2 0x5F5 DUP2 PUSH1 0x1 DUP6 ADD SLOAD AND CALLER EQ PUSH2 0x2E09 JUMP JUMPDEST DUP6 PUSH1 0x7 DUP5 ADD SLOAD SWAP2 PUSH1 0x1 SLOAD AND PUSH1 0x40 MLOAD SWAP4 DUP5 DUP1 SWAP3 PUSH4 0x6D780973 PUSH1 0xE1 SHL DUP3 MSTORE GAS STATICCALL SWAP1 DUP2 ISZERO PUSH2 0x73E JUMPI DUP5 SWAP2 PUSH2 0x709 JUMPI JUMPDEST PUSH2 0x62B SWAP3 POP PUSH2 0x2C7A JUMP JUMPDEST TIMESTAMP LT PUSH2 0x6D2 JUMPI SWAP1 PUSH1 0x1 SWAP2 PUSH1 0x6 SLOAD SWAP4 PUSH2 0x642 DUP6 PUSH2 0x2E54 JUMP JUMPDEST PUSH1 0x6 SSTORE DUP5 DUP4 MSTORE PUSH1 0x8 DUP7 MSTORE PUSH1 0x40 DUP4 KECCAK256 SWAP1 DUP5 DUP3 ADD CALLER PUSH12 0xFFFFFFFFFFFFFFFFFFFFFFFF PUSH1 0xA0 SHL DUP3 SLOAD AND OR SWAP1 SSTORE PUSH1 0x6 DUP3 ADD PUSH3 0x10003 PUSH3 0xFF00FF NOT DUP3 SLOAD AND OR SWAP1 SSTORE TIMESTAMP PUSH1 0x7 DUP4 ADD SSTORE PUSH1 0x8 DUP3 ADD SSTORE PUSH1 0xA CALLVALUE SWAP2 ADD SSTORE SLOAD PUSH1 0x40 MLOAD SWAP1 DUP2 MSTORE PUSH1 0x3 DUP6 DUP3 ADD MSTORE DUP2 PUSH1 0x40 DUP3 ADD MSTORE DUP4 PUSH32 0x401524BECCFF0D9DD3447788DEA32E11F3B7C9618ED6084F14A773DBF2025F16 PUSH1 0x60 CALLER SWAP4 LOG3 SSTORE PUSH1 0x40 MLOAD SWAP1 DUP2 MSTORE RETURN JUMPDEST PUSH1 0x40 MLOAD PUSH3 0x461BCD PUSH1 0xE5 SHL DUP2 MSTORE PUSH1 0x4 DUP2 ADD DUP6 SWAP1 MSTORE PUSH1 0xF PUSH1 0x24 DUP3 ADD MSTORE PUSH15 0x436F6F6C646F776E20616374697665 PUSH1 0x88 SHL PUSH1 0x44 DUP3 ADD MSTORE PUSH1 0x64 SWAP1 REVERT JUMPDEST SWAP1 POP DUP6 DUP3 DUP2 RETURNDATASIZE DUP4 GT PUSH2 0x737 JUMPI JUMPDEST PUSH2 0x720 DUP2 DUP4 PUSH2 0x2B67 JUMP JUMPDEST DUP2 ADD SUB SLT PUSH2 0x733 JUMPI PUSH2 0x62B SWAP2 MLOAD SWAP1 PUSH2 0x621 JUMP JUMPDEST PUSH0 DUP1 REVERT JUMPDEST POP RETURNDATASIZE PUSH2 0x716 JUMP JUMPDEST PUSH1 0x40 MLOAD RETURNDATASIZE DUP7 DUP3 RETURNDATACOPY RETURNDATASIZE SWAP1 REVERT JUMPDEST PUSH1 0x40 MLOAD PUSH3 0x461BCD PUSH1 0xE5 SHL DUP2 MSTORE PUSH1 0x4 DUP2 ADD DUP6 SWAP1 MSTORE PUSH1 0x11 PUSH1 0x24 DUP3 ADD MSTORE PUSH17 0x2837B9B4BA34B7B7103737BA1037B832B7 PUSH1 0x79 SHL PUSH1 0x44 DUP3 ADD MSTORE PUSH1 0x64 SWAP1 REVERT JUMPDEST POP CALLVALUE PUSH2 0x122 JUMPI PUSH1 0x20 CALLDATASIZE PUSH1 0x3 NOT ADD SLT PUSH2 0x122 JUMPI PUSH1 0x40 PUSH2 0x1A0 SWAP2 PUSH1 0x4 CALLDATALOAD DUP2 MSTORE PUSH1 0x7 PUSH1 0x20 MSTORE KECCAK256 DUP1 SLOAD SWAP1 PUSH1 0x1 DUP2 ADD SLOAD SWAP1 PUSH1 0x2 DUP2 ADD SLOAD PUSH1 0x3 DUP3 ADD SLOAD PUSH1 0x4 DUP4 ADD SLOAD PUSH1 0x5 DUP5 ADD SLOAD PUSH1 0x6 DUP6 ADD SLOAD SWAP1 PUSH1 0x7 DUP7 ADD SLOAD SWAP3 PUSH1 0xFF PUSH1 0x8 DUP9 ADD SLOAD AND SWAP5 PUSH1 0x9 DUP9 ADD SLOAD SWAP7 PUSH1 0xFF PUSH1 0xB PUSH1 0xA DUP12 ADD SLOAD SWAP11 ADD SLOAD SWAP11 PUSH1 0x40 MLOAD SWAP13 DUP14 MSTORE DUP13 PUSH1 0x20 PUSH1 0x1 DUP1 PUSH1 0xA0 SHL SUB DUP4 AND SWAP2 ADD MSTORE PUSH1 0xA0 SHR AND ISZERO ISZERO PUSH1 0x40 DUP13 ADD MSTORE PUSH1 0x60 DUP12 ADD MSTORE PUSH1 0x80 DUP11 ADD MSTORE PUSH1 0xA0 DUP10 ADD MSTORE PUSH1 0xC0 DUP9 ADD MSTORE PUSH1 0xE0 DUP8 ADD MSTORE PUSH2 0x100 DUP7 ADD MSTORE ISZERO ISZERO PUSH2 0x120 DUP6 ADD MSTORE PUSH2 0x140 DUP5 ADD MSTORE PUSH2 0x160 DUP4 ADD MSTORE PUSH2 0x180 DUP3 ADD MSTORE RETURN JUMPDEST POP CALLVALUE PUSH2 0x122 JUMPI DUP1 PUSH1 0x3 NOT CALLDATASIZE ADD SLT PUSH2 0x122 JUMPI PUSH1 0x20 PUSH1 0xB SLOAD PUSH1 0x40 MLOAD SWAP1 DUP2 MSTORE RETURN JUMPDEST POP CALLVALUE PUSH2 0x122 JUMPI DUP1 PUSH1 0x3 NOT CALLDATASIZE ADD SLT PUSH2 0x122 JUMPI PUSH1 0x20 PUSH1 0x5 SLOAD PUSH1 0x40 MLOAD SWAP1 DUP2 MSTORE RETURN JUMPDEST POP CALLVALUE PUSH2 0x122 JUMPI PUSH2 0x890 CALLDATASIZE PUSH2 0x2AE1 JUMP JUMPDEST PUSH1 0x1 PUSH1 0x1 PUSH1 0xA0 SHL SUB SWAP1 SWAP2 AND DUP3 MSTORE PUSH1 0xA PUSH1 0x20 MSTORE PUSH1 0x40 DUP3 KECCAK256 DUP1 SLOAD SWAP2 SWAP3 SWAP1 SWAP2 DUP4 LT ISZERO PUSH2 0x122 JUMPI PUSH1 0x20 PUSH2 0x8BF DUP5 DUP5 PUSH2 0x2B07 JUMP JUMPDEST SWAP1 SLOAD PUSH1 0x40 MLOAD SWAP2 PUSH1 0x3 SHL SHR DUP2 MSTORE RETURN JUMPDEST POP DUP1 PUSH2 0x8D8 CALLDATASIZE PUSH2 0x2A91 JUMP JUMPDEST SWAP1 PUSH2 0x8E4 SWAP4 SWAP3 SWAP4 PUSH2 0x2ED2 JUMP JUMPDEST DUP2 PUSH2 0xA64 JUMPI JUMPDEST POP POP DUP2 SWAP1 MSTORE PUSH1 0x7 PUSH1 0x20 MSTORE PUSH1 0x40 DUP3 KECCAK256 SWAP1 PUSH2 0x909 PUSH1 0xFF PUSH1 0x8 DUP5 ADD SLOAD AND PUSH2 0x2E9B JUMP JUMPDEST PUSH1 0x1 DUP1 PUSH1 0xA0 SHL SUB PUSH1 0x3 SLOAD AND SWAP1 PUSH1 0x40 DUP4 SLOAD PUSH1 0x24 DUP3 MLOAD DUP1 SWAP6 DUP2 SWAP4 PUSH4 0x31D98B3F PUSH1 0xE0 SHL DUP4 MSTORE PUSH1 0x4 DUP4 ADD MSTORE GAS STATICCALL SWAP2 DUP3 ISZERO PUSH2 0x73E JUMPI DUP5 SWAP3 PUSH2 0xA42 JUMPI JUMPDEST POP DUP4 DUP5 SWAP4 PUSH1 0x9 DUP2 ADD SLOAD DUP1 PUSH2 0xA17 JUMPI JUMPDEST POP DUP2 ISZERO DUP1 PUSH2 0xA0A JUMPI JUMPDEST PUSH2 0x9E0 JUMPI JUMPDEST POP ISZERO PUSH2 0x9A5 JUMPI DUP1 PUSH32 0xAC4FD466C8F994E08CE2EB9141C2F01F2A779A3537D9BD71FA8762DF3D12842C PUSH1 0x40 PUSH2 0x99E SWAP6 DUP2 MLOAD SWAP1 ISZERO ISZERO DUP2 MSTORE DUP6 PUSH1 0x20 DUP3 ADD MSTORE LOG2 PUSH2 0x3026 JUMP JUMPDEST PUSH1 0x1 DUP2 SSTORE DUP1 RETURN JUMPDEST PUSH1 0x40 MLOAD PUSH3 0x461BCD PUSH1 0xE5 SHL DUP2 MSTORE PUSH1 0x20 PUSH1 0x4 DUP3 ADD MSTORE PUSH1 0x13 PUSH1 0x24 DUP3 ADD MSTORE PUSH19 0x15140BD4D3081B9BDD081D1C9A59D9D95C9959 PUSH1 0x6A SHL PUSH1 0x44 DUP3 ADD MSTORE PUSH1 0x64 SWAP1 REVERT JUMPDEST PUSH1 0x1 DUP2 ADD SLOAD PUSH1 0xA SWAP3 POP PUSH1 0xA0 SHR PUSH1 0xFF AND ISZERO PUSH2 0xA00 JUMPI ADD SLOAD DUP3 GT ISZERO JUMPDEST PUSH0 PUSH2 0x95D JUMP JUMPDEST ADD SLOAD DUP3 LT ISZERO PUSH2 0x9FA JUMP JUMPDEST POP PUSH1 0xA DUP2 ADD SLOAD ISZERO ISZERO PUSH2 0x958 JUMP JUMPDEST SWAP2 POP SWAP4 POP PUSH1 0xFF PUSH1 0x1 DUP6 ADD SLOAD PUSH1 0xA0 SHR AND PUSH0 EQ PUSH2 0xA39 JUMPI DUP3 LT ISZERO SWAP3 JUMPDEST DUP4 SWAP1 PUSH0 PUSH2 0x94F JUMP JUMPDEST DUP3 GT ISZERO SWAP3 PUSH2 0xA31 JUMP JUMPDEST PUSH2 0xA5C SWAP2 SWAP3 POP PUSH1 0x40 RETURNDATASIZE PUSH1 0x40 GT PUSH2 0x399 JUMPI PUSH2 0x389 DUP2 DUP4 PUSH2 0x2B67 JUMP JUMPDEST POP SWAP1 PUSH0 PUSH2 0x940 JUMP JUMPDEST PUSH1 0x3 SLOAD PUSH1 0x1 PUSH1 0x1 PUSH1 0xA0 SHL SUB AND SWAP2 DUP3 EXTCODESIZE ISZERO PUSH2 0x2FE JUMPI PUSH1 0x40 MLOAD PUSH4 0x1DF3CBC5 PUSH1 0xE3 SHL DUP2 MSTORE SWAP3 DUP5 SWAP3 DUP5 SWAP3 DUP4 SWAP2 DUP3 SWAP2 PUSH2 0xA9B SWAP2 PUSH1 0x4 DUP5 ADD PUSH2 0x2B89 JUMP JUMPDEST SUB SWAP2 CALLVALUE SWAP1 GAS CALL DUP1 ISZERO PUSH2 0x2F3 JUMPI PUSH2 0xAB2 JUMPI JUMPDEST DUP1 PUSH2 0x8EA JUMP JUMPDEST PUSH2 0xABB SWAP1 PUSH2 0x2B3F JUMP JUMPDEST PUSH2 0x316 JUMPI DUP2 PUSH0 PUSH2 0xAAC JUMP JUMPDEST POP CALLVALUE PUSH2 0x122 JUMPI DUP1 PUSH1 0x3 NOT CALLDATASIZE ADD SLT PUSH2 0x122 JUMPI PUSH1 0x3 SLOAD PUSH1 0x40 MLOAD PUSH1 0x1 PUSH1 0x1 PUSH1 0xA0 SHL SUB SWAP1 SWAP2 AND DUP2 MSTORE PUSH1 0x20 SWAP1 RETURN JUMPDEST POP PUSH2 0x100 CALLDATASIZE PUSH1 0x3 NOT ADD SLT PUSH2 0x122 JUMPI PUSH1 0x4 CALLDATALOAD PUSH2 0xB08 PUSH2 0x2B30 JUMP JUMPDEST SWAP2 PUSH1 0x44 CALLDATALOAD SWAP1 PUSH1 0x64 CALLDATALOAD SWAP3 PUSH1 0x84 CALLDATALOAD PUSH1 0xA4 CALLDATALOAD SWAP1 PUSH2 0xB20 PUSH2 0x2ED2 JUMP JUMPDEST PUSH1 0x2 DUP2 LT ISZERO DUP1 PUSH2 0xE22 JUMPI JUMPDEST ISZERO PUSH2 0xDEC JUMPI PUSH1 0x3C DUP3 LT PUSH2 0xDB4 JUMPI PUSH3 0x989680 DUP2 DUP2 MUL SWAP1 DUP2 DIV DUP3 SUB PUSH2 0xDA0 JUMPI DUP6 LT PUSH2 0xD64 JUMPI PUSH1 0x1 SLOAD PUSH1 0x1 PUSH1 0x1 PUSH1 0xA0 SHL SUB AND SWAP1 DUP2 EXTCODESIZE ISZERO PUSH2 0xD55 JUMPI PUSH1 0x40 MLOAD PUSH4 0xBD79156F PUSH1 0xE0 SHL DUP2 MSTORE PUSH1 0x4 DUP2 ADD DUP6 SWAP1 MSTORE CALLER PUSH1 0x24 DUP3 ADD MSTORE DUP9 ISZERO ISZERO PUSH1 0x44 DUP3 ADD MSTORE PUSH1 0x64 DUP2 ADD DUP8 SWAP1 MSTORE PUSH1 0x84 DUP2 ADD DUP9 SWAP1 MSTORE DUP6 DUP2 PUSH1 0xA4 DUP2 DUP7 GAS STATICCALL DUP1 ISZERO PUSH2 0xD59 JUMPI SWAP1 DUP7 SWAP2 PUSH2 0xD41 JUMPI JUMPDEST POP POP PUSH1 0x6 SLOAD SWAP7 PUSH2 0xBB7 DUP9 PUSH2 0x2E54 JUMP JUMPDEST PUSH1 0x6 SSTORE PUSH1 0x40 MLOAD SWAP9 DUP10 SWAP4 PUSH4 0xE4D8CBE5 PUSH1 0xE0 SHL DUP6 MSTORE DUP9 PUSH1 0x4 DUP7 ADD MSTORE DUP8 PUSH1 0x24 DUP7 ADD MSTORE DUP5 PUSH1 0x44 PUSH1 0x20 SWAP13 DUP14 SWAP4 GAS STATICCALL SWAP4 DUP5 ISZERO PUSH2 0xD36 JUMPI DUP11 DUP11 SWAP2 DUP10 SWAP7 PUSH2 0xCFC JUMPI JUMPDEST POP DUP4 SWAP3 DUP11 SWAP3 PUSH1 0x8 PUSH2 0xC66 SWAP4 PUSH2 0xC0C PUSH1 0xE SWAP11 SWAP10 SWAP9 PUSH1 0x1 SWAP16 PUSH2 0x2D9F JUMP JUMPDEST SWAP3 PUSH2 0xC21 PUSH2 0xC1A DUP12 DUP7 PUSH2 0x2C7A JUMP JUMPDEST ADDRESS CALLER PUSH2 0x34B1 JUMP JUMPDEST DUP14 MSTORE MSTORE PUSH1 0x40 DUP12 KECCAK256 PUSH1 0x9 DUP2 ADD SWAP8 SWAP1 SWAP8 SSTORE PUSH1 0x3 DUP8 ADD SSTORE DUP9 DUP7 SSTORE DUP11 DUP7 ADD DUP1 SLOAD PUSH1 0xFF PUSH1 0xA0 SHL NOT CALLER AND PUSH1 0x1 PUSH1 0x1 PUSH1 0xA8 SHL SUB NOT SWAP1 SWAP2 AND OR SWAP2 ISZERO ISZERO PUSH1 0xA0 SHL PUSH1 0xFF PUSH1 0xA0 SHL AND SWAP2 SWAP1 SWAP2 OR SWAP1 SSTORE JUMP JUMPDEST PUSH1 0x2 DUP5 ADD SSTORE PUSH1 0x4 DUP4 ADD SSTORE PUSH1 0x6 DUP3 ADD PUSH3 0x10004 PUSH3 0xFF00FF NOT DUP3 SLOAD AND OR SWAP1 SSTORE TIMESTAMP PUSH1 0x7 DUP4 ADD SSTORE CALLVALUE PUSH1 0xA DUP4 ADD SSTORE PUSH1 0xC4 CALLDATALOAD PUSH1 0xB DUP4 ADD SSTORE PUSH1 0xE4 CALLDATALOAD PUSH1 0xC DUP4 ADD SSTORE PUSH1 0xD DUP3 ADD SSTORE ADD SSTORE CALLER DUP3 MSTORE PUSH1 0xA DUP6 MSTORE PUSH2 0xCBA DUP5 PUSH1 0x40 DUP5 KECCAK256 PUSH2 0x2E62 JUMP JUMPDEST PUSH1 0x40 MLOAD SWAP1 DUP2 MSTORE PUSH1 0x4 DUP6 DUP3 ADD MSTORE DUP2 PUSH1 0x40 DUP3 ADD MSTORE DUP4 PUSH32 0x401524BECCFF0D9DD3447788DEA32E11F3B7C9618ED6084F14A773DBF2025F16 PUSH1 0x60 CALLER SWAP4 LOG3 SSTORE PUSH1 0x40 MLOAD SWAP1 DUP2 MSTORE RETURN JUMPDEST SWAP6 POP SWAP1 POP DUP5 DUP2 SWAP5 SWAP4 SWAP3 SWAP5 RETURNDATASIZE DUP4 GT PUSH2 0xD2F JUMPI JUMPDEST PUSH2 0xD18 DUP2 DUP4 PUSH2 0x2B67 JUMP JUMPDEST DUP2 ADD SUB SLT PUSH2 0x733 JUMPI SWAP3 MLOAD SWAP3 SWAP1 SWAP2 DUP9 DUP11 PUSH2 0xC66 PUSH2 0xBF1 JUMP JUMPDEST POP RETURNDATASIZE PUSH2 0xD0E JUMP JUMPDEST PUSH1 0x40 MLOAD RETURNDATASIZE DUP10 DUP3 RETURNDATACOPY RETURNDATASIZE SWAP1 REVERT JUMPDEST PUSH2 0xD4A SWAP1 PUSH2 0x2B3F JUMP JUMPDEST PUSH2 0xD55 JUMPI DUP5 PUSH0 PUSH2 0xBA8 JUMP JUMPDEST DUP5 DUP1 REVERT JUMPDEST PUSH1 0x40 MLOAD RETURNDATASIZE DUP9 DUP3 RETURNDATACOPY RETURNDATASIZE SWAP1 REVERT JUMPDEST PUSH1 0x40 MLOAD PUSH3 0x461BCD PUSH1 0xE5 SHL DUP2 MSTORE PUSH1 0x20 PUSH1 0x4 DUP3 ADD MSTORE PUSH1 0x14 PUSH1 0x24 DUP3 ADD MSTORE PUSH20 0x14DB1A58D9481CDA5E99481D1BDBC81CDB585B1B PUSH1 0x62 SHL PUSH1 0x44 DUP3 ADD MSTORE PUSH1 0x64 SWAP1 REVERT JUMPDEST PUSH4 0x4E487B71 PUSH1 0xE0 SHL DUP6 MSTORE PUSH1 0x11 PUSH1 0x4 MSTORE PUSH1 0x24 DUP6 REVERT JUMPDEST PUSH1 0x40 MLOAD PUSH3 0x461BCD PUSH1 0xE5 SHL DUP2 MSTORE PUSH1 0x20 PUSH1 0x4 DUP3 ADD MSTORE PUSH1 0x10 PUSH1 0x24 DUP3 ADD MSTORE PUSH16 0x135A5B880D8C1CC81A5B9D195C9D985B PUSH1 0x82 SHL PUSH1 0x44 DUP3 ADD MSTORE PUSH1 0x64 SWAP1 REVERT JUMPDEST PUSH1 0x40 MLOAD PUSH3 0x461BCD PUSH1 0xE5 SHL DUP2 MSTORE PUSH1 0x20 PUSH1 0x4 DUP3 ADD MSTORE PUSH1 0xE PUSH1 0x24 DUP3 ADD MSTORE PUSH14 0x496E76616C696420736C69636573 PUSH1 0x90 SHL PUSH1 0x44 DUP3 ADD MSTORE PUSH1 0x64 SWAP1 REVERT JUMPDEST POP PUSH1 0x64 DUP2 GT ISZERO PUSH2 0xB2B JUMP JUMPDEST POP PUSH2 0x120 CALLDATASIZE PUSH1 0x3 NOT ADD SLT PUSH2 0x122 JUMPI PUSH2 0xE43 PUSH2 0x2B30 JUMP JUMPDEST PUSH1 0xA4 CALLDATALOAD SWAP2 PUSH1 0xFF DUP4 AND DUP4 SUB PUSH2 0x122 JUMPI PUSH1 0xC4 CALLDATALOAD SWAP3 DUP4 ISZERO ISZERO DUP5 SUB PUSH2 0x733 JUMPI PUSH2 0xE66 PUSH2 0x2ED2 JUMP JUMPDEST PUSH3 0x989680 PUSH1 0x44 CALLDATALOAD LT PUSH2 0x11DE JUMPI PUSH1 0x2 PUSH1 0xFF DUP3 AND GT PUSH2 0x11A4 JUMPI PUSH1 0xE4 CALLDATALOAD PUSH2 0x112E JUMPI JUMPDEST PUSH2 0x104 CALLDATALOAD PUSH2 0x10B6 JUMPI JUMPDEST PUSH1 0x1 SLOAD PUSH1 0x1 PUSH1 0x1 PUSH1 0xA0 SHL SUB AND SWAP3 DUP4 EXTCODESIZE ISZERO PUSH2 0x10B2 JUMPI PUSH1 0x40 MLOAD PUSH4 0xBD79156F PUSH1 0xE0 SHL DUP2 MSTORE PUSH1 0x4 DUP1 CALLDATALOAD SWAP1 DUP3 ADD MSTORE CALLER PUSH1 0x24 DUP3 ADD MSTORE DUP2 ISZERO ISZERO PUSH1 0x44 DUP1 DUP4 ADD SWAP2 SWAP1 SWAP2 MSTORE CALLDATALOAD PUSH1 0x64 DUP1 DUP4 ADD SWAP2 SWAP1 SWAP2 MSTORE CALLDATALOAD PUSH1 0x84 DUP3 ADD MSTORE DUP4 DUP2 PUSH1 0xA4 DUP2 DUP9 GAS STATICCALL DUP1 ISZERO PUSH2 0x73E JUMPI SWAP1 DUP5 SWAP2 PUSH2 0x109E JUMPI JUMPDEST POP POP PUSH1 0x44 SWAP1 PUSH1 0x20 PUSH1 0x6 SLOAD SWAP6 PUSH2 0xF03 DUP8 PUSH2 0x2E54 JUMP JUMPDEST PUSH1 0x6 SSTORE PUSH1 0x40 MLOAD PUSH4 0xE4D8CBE5 PUSH1 0xE0 SHL DUP2 MSTORE DUP5 CALLDATALOAD PUSH1 0x4 DUP3 ADD MSTORE PUSH1 0xFF DUP7 AND ISZERO PUSH1 0x24 DUP3 ADD MSTORE SWAP4 DUP5 SWAP2 DUP3 SWAP1 GAS STATICCALL SWAP2 DUP3 ISZERO PUSH2 0x73E JUMPI DUP5 SWAP3 PUSH2 0x1063 JUMPI JUMPDEST POP SWAP1 PUSH1 0x20 SWAP6 PUSH2 0xFAC PUSH1 0x1 SWAP6 SWAP5 SWAP4 PUSH2 0xF54 PUSH1 0x64 CALLDATALOAD PUSH1 0x44 CALLDATALOAD PUSH2 0x2D9F JUMP JUMPDEST PUSH2 0xF61 PUSH2 0xC1A DUP7 DUP4 PUSH2 0x2C7A JUMP JUMPDEST DUP9 DUP8 MSTORE PUSH1 0x8 DUP11 MSTORE PUSH1 0x40 DUP8 KECCAK256 PUSH1 0x9 DUP2 ADD SWAP6 SWAP1 SWAP6 SSTORE PUSH1 0x3 DUP6 ADD SSTORE PUSH1 0x4 CALLDATALOAD DUP5 SSTORE DUP7 DUP5 ADD DUP1 SLOAD PUSH1 0xFF PUSH1 0xA0 SHL NOT CALLER AND PUSH1 0x1 PUSH1 0x1 PUSH1 0xA8 SHL SUB NOT SWAP1 SWAP2 AND OR SWAP2 ISZERO ISZERO PUSH1 0xA0 SHL PUSH1 0xFF PUSH1 0xA0 SHL AND SWAP2 SWAP1 SWAP2 OR SWAP1 SSTORE JUMP JUMPDEST PUSH1 0x44 CALLDATALOAD PUSH1 0x2 DUP4 ADD SSTORE PUSH1 0x64 CALLDATALOAD PUSH1 0x4 DUP4 ADD SSTORE PUSH1 0x84 CALLDATALOAD PUSH1 0x5 DUP4 ADD SSTORE PUSH3 0x10000 PUSH1 0x6 DUP4 ADD SWAP2 PUSH2 0xFF00 DUP4 SLOAD SWAP2 ISZERO ISZERO PUSH1 0x8 SHL AND SWAP1 PUSH1 0xFF DUP7 AND SWAP1 PUSH3 0xFFFFFF NOT AND OR OR OR SWAP1 SSTORE TIMESTAMP PUSH1 0x7 DUP3 ADD SSTORE CALLVALUE PUSH1 0xA DUP3 ADD SSTORE PUSH1 0xE4 CALLDATALOAD PUSH1 0xB DUP3 ADD SSTORE PUSH1 0xC PUSH2 0x104 CALLDATALOAD SWAP2 ADD SSTORE CALLER DUP3 MSTORE PUSH1 0xA DUP6 MSTORE PUSH2 0x101B DUP5 PUSH1 0x40 DUP5 KECCAK256 PUSH2 0x2E62 JUMP JUMPDEST PUSH1 0xFF PUSH1 0x40 MLOAD SWAP2 PUSH1 0x4 CALLDATALOAD DUP4 MSTORE AND DUP6 DUP3 ADD MSTORE PUSH1 0x84 CALLDATALOAD PUSH1 0x40 DUP3 ADD MSTORE DUP4 PUSH32 0x401524BECCFF0D9DD3447788DEA32E11F3B7C9618ED6084F14A773DBF2025F16 PUSH1 0x60 CALLER SWAP4 LOG3 SSTORE PUSH1 0x40 MLOAD SWAP1 DUP2 MSTORE RETURN JUMPDEST SWAP4 SWAP3 SWAP2 POP PUSH1 0x20 DUP5 RETURNDATASIZE PUSH1 0x20 GT PUSH2 0x1096 JUMPI JUMPDEST DUP2 PUSH2 0x1080 PUSH1 0x20 SWAP4 DUP4 PUSH2 0x2B67 JUMP JUMPDEST DUP2 ADD SUB SLT PUSH2 0x733 JUMPI SWAP3 MLOAD SWAP2 SWAP3 SWAP1 SWAP2 SWAP1 PUSH1 0x20 PUSH2 0xF39 JUMP JUMPDEST RETURNDATASIZE SWAP2 POP PUSH2 0x1073 JUMP JUMPDEST PUSH2 0x10A7 SWAP1 PUSH2 0x2B3F JUMP JUMPDEST PUSH2 0x10B2 JUMPI DUP3 PUSH0 PUSH2 0xEEF JUMP JUMPDEST DUP3 DUP1 REVERT JUMPDEST DUP3 ISZERO PUSH2 0x1114 JUMPI PUSH1 0x84 CALLDATALOAD PUSH2 0x104 CALLDATALOAD LT DUP1 ISZERO PUSH2 0x1107 JUMPI JUMPDEST PUSH2 0xE8E JUMPI PUSH1 0x40 MLOAD PUSH3 0x461BCD PUSH1 0xE5 SHL DUP2 MSTORE PUSH1 0x20 PUSH1 0x4 DUP3 ADD MSTORE PUSH1 0x10 PUSH1 0x24 DUP3 ADD MSTORE PUSH16 0x496E76616C696420534C207072696365 PUSH1 0x80 SHL PUSH1 0x44 DUP3 ADD MSTORE PUSH1 0x64 SWAP1 REVERT JUMPDEST POP PUSH1 0x2 PUSH1 0xFF DUP3 AND EQ PUSH2 0x10CB JUMP JUMPDEST PUSH1 0x84 CALLDATALOAD PUSH2 0x104 CALLDATALOAD GT DUP1 PUSH2 0x10CB JUMPI POP PUSH1 0x2 PUSH1 0xFF DUP3 AND EQ PUSH2 0x10CB JUMP JUMPDEST DUP3 ISZERO PUSH2 0x118B JUMPI PUSH1 0x84 CALLDATALOAD PUSH1 0xE4 CALLDATALOAD GT DUP1 ISZERO PUSH2 0x117E JUMPI JUMPDEST PUSH2 0xE85 JUMPI PUSH1 0x40 MLOAD PUSH3 0x461BCD PUSH1 0xE5 SHL DUP2 MSTORE PUSH1 0x20 PUSH1 0x4 DUP3 ADD MSTORE PUSH1 0x10 PUSH1 0x24 DUP3 ADD MSTORE PUSH16 0x496E76616C6964205450207072696365 PUSH1 0x80 SHL PUSH1 0x44 DUP3 ADD MSTORE PUSH1 0x64 SWAP1 REVERT JUMPDEST POP PUSH1 0x2 PUSH1 0xFF DUP3 AND EQ PUSH2 0x1142 JUMP JUMPDEST PUSH1 0x84 CALLDATALOAD PUSH1 0xE4 CALLDATALOAD LT DUP1 PUSH2 0x1142 JUMPI POP PUSH1 0x2 PUSH1 0xFF DUP3 AND EQ PUSH2 0x1142 JUMP JUMPDEST PUSH1 0x40 MLOAD PUSH3 0x461BCD PUSH1 0xE5 SHL DUP2 MSTORE PUSH1 0x20 PUSH1 0x4 DUP3 ADD MSTORE PUSH1 0x12 PUSH1 0x24 DUP3 ADD MSTORE PUSH18 0x496E76616C6964206F726465722074797065 PUSH1 0x70 SHL PUSH1 0x44 DUP3 ADD MSTORE PUSH1 0x64 SWAP1 REVERT JUMPDEST PUSH1 0x40 MLOAD PUSH3 0x461BCD PUSH1 0xE5 SHL DUP2 MSTORE PUSH1 0x20 PUSH1 0x4 DUP3 ADD MSTORE PUSH1 0xE PUSH1 0x24 DUP3 ADD MSTORE PUSH14 0x14DA5E99481D1BDBC81CDB585B1B PUSH1 0x92 SHL PUSH1 0x44 DUP3 ADD MSTORE PUSH1 0x64 SWAP1 REVERT JUMPDEST POP CALLVALUE PUSH2 0x122 JUMPI PUSH2 0x1223 CALLDATASIZE PUSH2 0x2AE1 JUMP JUMPDEST PUSH1 0x1 PUSH1 0x1 PUSH1 0xA0 SHL SUB SWAP1 SWAP2 AND DUP3 MSTORE PUSH1 0x9 PUSH1 0x20 MSTORE PUSH1 0x40 DUP3 KECCAK256 DUP1 SLOAD SWAP2 SWAP3 SWAP1 SWAP2 DUP4 LT ISZERO PUSH2 0x122 JUMPI PUSH1 0x20 PUSH2 0x8BF DUP5 DUP5 PUSH2 0x2B07 JUMP JUMPDEST POP CALLVALUE PUSH2 0x122 JUMPI PUSH1 0x20 CALLDATASIZE PUSH1 0x3 NOT ADD SLT PUSH2 0x122 JUMPI PUSH1 0x4 CALLDATALOAD PUSH2 0x126F PUSH2 0x2ED2 JUMP JUMPDEST DUP1 DUP3 MSTORE PUSH1 0x8 PUSH1 0x20 MSTORE DUP2 PUSH1 0xA PUSH1 0x40 DUP3 KECCAK256 PUSH1 0xFF PUSH1 0x6 DUP3 ADD DUP1 SLOAD SWAP1 PUSH2 0x1295 DUP4 DUP4 PUSH1 0x10 SHR AND PUSH2 0x2C2B JUMP JUMPDEST PUSH2 0x12AC PUSH1 0x1 DUP1 PUSH1 0xA0 SHL SUB PUSH1 0x1 DUP7 ADD SLOAD AND CALLER EQ PUSH2 0x2E09 JUMP JUMPDEST PUSH3 0xFF0000 NOT DUP3 AND SWAP1 SSTORE AND PUSH1 0x2 NOT DUP2 ADD PUSH2 0x134A JUMPI JUMPDEST POP ADD SLOAD DUP1 PUSH2 0x12F5 JUMPI JUMPDEST POP DUP1 PUSH32 0x61B9399F2F0F32CA39CE8D7BE32CAED5EC22FE07A6DABA3A467ED479EC606582 SWAP2 LOG2 PUSH1 0x1 DUP2 SSTORE DUP1 RETURN JUMPDEST DUP2 DUP1 DUP1 SWAP3 CALLER GAS CALL PUSH2 0x1304 PUSH2 0x2DBD JUMP JUMPDEST POP ISZERO PUSH2 0x1311 JUMPI DUP2 PUSH0 PUSH2 0x12C9 JUMP JUMPDEST PUSH1 0x40 MLOAD PUSH3 0x461BCD PUSH1 0xE5 SHL DUP2 MSTORE PUSH1 0x20 PUSH1 0x4 DUP3 ADD MSTORE PUSH1 0x11 PUSH1 0x24 DUP3 ADD MSTORE PUSH17 0x115512081C99599D5B990819985A5B1959 PUSH1 0x7A SHL PUSH1 0x44 DUP3 ADD MSTORE PUSH1 0x64 SWAP1 REVERT JUMPDEST PUSH1 0x3 DUP3 ADD SLOAD PUSH1 0x4 PUSH1 0x9 DUP5 ADD SLOAD SWAP3 EQ DUP1 PUSH2 0x13CC JUMPI JUMPDEST PUSH2 0x1392 JUMPI JUMPDEST PUSH2 0x136D DUP3 DUP3 PUSH2 0x2C7A JUMP JUMPDEST PUSH2 0x1378 JUMPI JUMPDEST POP PUSH2 0x12C0 JUMP JUMPDEST PUSH2 0x138B SWAP2 PUSH2 0x1385 SWAP2 PUSH2 0x2C7A JUMP JUMPDEST CALLER PUSH2 0x3403 JUMP JUMPDEST PUSH0 DUP1 PUSH2 0x1372 JUMP JUMPDEST PUSH2 0x13C6 SWAP1 PUSH2 0x13BB PUSH1 0xD DUP6 ADD SLOAD SWAP2 PUSH2 0x13C0 DUP4 PUSH2 0x13BB PUSH2 0x13B4 PUSH1 0xF DUP11 ADD SLOAD DUP4 PUSH2 0x2DFC JUMP JUMPDEST DUP1 SWAP5 PUSH2 0x2E41 JUMP JUMPDEST PUSH2 0x2D9F JUMP JUMPDEST SWAP5 PUSH2 0x2E41 JUMP JUMPDEST SWAP1 PUSH2 0x1363 JUMP JUMPDEST POP PUSH1 0xF DUP4 ADD SLOAD ISZERO ISZERO PUSH2 0x135E JUMP JUMPDEST POP CALLVALUE PUSH2 0x122 JUMPI DUP1 PUSH1 0x3 NOT CALLDATASIZE ADD SLT PUSH2 0x122 JUMPI PUSH1 0x4 SLOAD PUSH1 0x40 MLOAD PUSH1 0x1 PUSH1 0x1 PUSH1 0xA0 SHL SUB SWAP1 SWAP2 AND DUP2 MSTORE PUSH1 0x20 SWAP1 RETURN JUMPDEST POP CALLVALUE PUSH2 0x122 JUMPI DUP1 PUSH1 0x3 NOT CALLDATASIZE ADD SLT PUSH2 0x122 JUMPI PUSH1 0x20 PUSH1 0x40 MLOAD PUSH3 0x989680 DUP2 MSTORE RETURN JUMPDEST POP PUSH2 0x142A CALLDATASIZE PUSH2 0x2A91 JUMP JUMPDEST SWAP1 PUSH2 0x1433 PUSH2 0x2ED2 JUMP JUMPDEST DUP2 PUSH2 0x2A0B JUMPI JUMPDEST POP POP DUP1 DUP3 MSTORE PUSH1 0x8 PUSH1 0x20 MSTORE PUSH1 0x40 DUP3 KECCAK256 PUSH1 0x6 DUP2 ADD SLOAD PUSH2 0x145B PUSH1 0xFF DUP3 PUSH1 0x10 SHR AND PUSH2 0x2C2B JUMP JUMPDEST PUSH1 0x1 DUP1 PUSH1 0xA0 SHL SUB PUSH1 0x3 SLOAD AND SWAP1 PUSH1 0x40 DUP4 SLOAD PUSH1 0x24 DUP3 MLOAD DUP1 SWAP6 DUP2 SWAP4 PUSH4 0x31D98B3F PUSH1 0xE0 SHL DUP4 MSTORE PUSH1 0x4 DUP4 ADD MSTORE GAS STATICCALL SWAP2 DUP3 ISZERO PUSH2 0x2A00 JUMPI DUP6 SWAP3 PUSH2 0x29DB JUMPI JUMPDEST POP PUSH1 0xFF AND DUP1 PUSH2 0x1C65 JUMPI POP PUSH1 0x1 DUP3 ADD SLOAD PUSH1 0xA0 SHR PUSH1 0xFF AND ISZERO PUSH2 0x1C58 JUMPI PUSH1 0x5 DUP3 ADD SLOAD DUP2 GT ISZERO JUMPDEST ISZERO PUSH2 0x1C1F JUMPI PUSH2 0x14C3 DUP3 PUSH2 0x2C9B JUMP JUMPDEST SWAP1 DUP1 PUSH1 0x1 DUP1 PUSH1 0xA0 SHL SUB PUSH1 0x1 SLOAD AND SWAP1 PUSH1 0x20 DUP5 MLOAD PUSH1 0x64 PUSH1 0x40 DUP8 ADD MLOAD ISZERO ISZERO SWAP2 PUSH1 0x60 DUP9 ADD MLOAD SWAP6 PUSH1 0x40 MLOAD SWAP7 DUP8 SWAP5 DUP6 SWAP4 PUSH4 0xB391DECF PUSH1 0xE0 SHL DUP6 MSTORE PUSH1 0x4 DUP6 ADD MSTORE PUSH1 0x24 DUP5 ADD MSTORE PUSH1 0x44 DUP4 ADD MSTORE GAS STATICCALL SWAP2 DUP3 ISZERO PUSH2 0xD36 JUMPI DUP8 SWAP3 PUSH2 0x1BEB JUMPI JUMPDEST POP DUP7 DUP3 SGT ISZERO PUSH2 0x1B97 JUMPI POP PUSH2 0x152D PUSH2 0x2710 SWAP2 DUP4 PUSH2 0x2E41 JUMP JUMPDEST DIV PUSH1 0x40 DUP4 ADD MLOAD ISZERO ISZERO PUSH0 EQ PUSH2 0x1B89 JUMPI PUSH2 0x1544 SWAP2 PUSH2 0x2C7A JUMP JUMPDEST PUSH1 0x5 SLOAD SWAP1 PUSH2 0x1551 DUP3 PUSH2 0x2E54 JUMP JUMPDEST PUSH1 0x5 SSTORE DUP2 DUP7 MSTORE PUSH1 0x7 PUSH1 0x20 SWAP1 DUP2 MSTORE PUSH1 0x40 DUP1 DUP9 KECCAK256 DUP6 MLOAD DUP2 SSTORE SWAP2 DUP6 ADD MLOAD PUSH1 0x1 DUP4 ADD DUP1 SLOAD SWAP3 DUP8 ADD MLOAD PUSH1 0x1 PUSH1 0x1 PUSH1 0xA8 SHL SUB NOT SWAP1 SWAP4 AND PUSH1 0x1 PUSH1 0x1 PUSH1 0xA0 SHL SUB SWAP3 SWAP1 SWAP3 AND SWAP2 SWAP1 SWAP2 OR SWAP2 ISZERO ISZERO PUSH1 0xA0 DUP2 SWAP1 SHL PUSH1 0xFF PUSH1 0xA0 SHL AND SWAP3 SWAP1 SWAP3 OR SWAP1 SSTORE DUP8 SWAP2 SWAP1 PUSH2 0x15D8 SWAP1 JUMPDEST PUSH1 0x60 DUP8 ADD MLOAD PUSH1 0x2 DUP5 ADD SSTORE PUSH1 0x80 DUP8 ADD MLOAD PUSH1 0x3 DUP5 ADD SSTORE DUP5 PUSH1 0x4 DUP5 ADD SSTORE PUSH1 0xA0 DUP8 ADD MLOAD DUP1 PUSH1 0x5 DUP6 ADD SSTORE DUP6 PUSH2 0x355D JUMP JUMPDEST PUSH1 0x6 DUP3 ADD SSTORE TIMESTAMP PUSH1 0x7 DUP3 ADD SSTORE PUSH1 0x8 DUP2 ADD PUSH1 0x1 PUSH1 0xFF NOT DUP3 SLOAD AND OR SWAP1 SSTORE PUSH2 0x1C0 DUP6 ADD MLOAD PUSH1 0x9 DUP3 ADD SSTORE PUSH2 0x1E0 DUP6 ADD MLOAD PUSH1 0xA DUP3 ADD SSTORE PUSH1 0x20 PUSH1 0x1 DUP1 PUSH1 0xA0 SHL SUB PUSH1 0x1 SLOAD AND PUSH1 0x24 DUP8 MLOAD PUSH1 0x40 MLOAD SWAP6 DUP7 SWAP4 DUP5 SWAP3 PUSH4 0x7CC6765F PUSH1 0xE1 SHL DUP5 MSTORE PUSH1 0x4 DUP5 ADD MSTORE GAS CALL SWAP2 DUP3 ISZERO PUSH2 0x3A0 JUMPI DUP9 SWAP3 PUSH2 0x1B54 JUMPI JUMPDEST POP PUSH1 0xB ADD SSTORE PUSH1 0x1 SLOAD DUP4 MLOAD PUSH1 0x20 DUP6 ADD MLOAD PUSH1 0x40 DUP7 ADD MLOAD PUSH1 0x60 DUP8 ADD MLOAD DUP11 SWAP5 SWAP1 SWAP4 SWAP3 SWAP2 ISZERO ISZERO SWAP2 PUSH1 0x1 PUSH1 0x1 PUSH1 0xA0 SHL SUB SWAP2 DUP3 AND SWAP2 AND DUP2 EXTCODESIZE ISZERO PUSH2 0x2EF JUMPI PUSH1 0x40 MLOAD PUSH4 0xB65B361F PUSH1 0xE0 SHL DUP2 MSTORE PUSH1 0x4 DUP2 ADD SWAP5 SWAP1 SWAP5 MSTORE PUSH1 0x1 PUSH1 0x1 PUSH1 0xA0 SHL SUB AND PUSH1 0x24 DUP5 ADD MSTORE SWAP1 ISZERO ISZERO PUSH1 0x44 DUP4 ADD MSTORE PUSH1 0x64 DUP3 ADD SWAP3 SWAP1 SWAP3 MSTORE SWAP1 DUP3 SWAP1 DUP3 SWAP1 PUSH1 0x84 SWAP1 DUP3 SWAP1 DUP5 SWAP1 GAS CALL DUP1 ISZERO PUSH2 0x2F3 JUMPI PUSH2 0x1B40 JUMPI JUMPDEST POP POP PUSH1 0x2 SLOAD PUSH1 0x80 DUP5 ADD MLOAD PUSH2 0x16DE SWAP2 PUSH1 0x1 PUSH1 0x1 PUSH1 0xA0 SHL SUB AND PUSH2 0x3403 JUMP JUMPDEST PUSH1 0x2 SLOAD PUSH1 0x80 DUP5 ADD MLOAD DUP8 SWAP2 PUSH1 0x1 PUSH1 0x1 PUSH1 0xA0 SHL SUB AND SWAP1 DUP2 EXTCODESIZE ISZERO PUSH2 0x10B2 JUMPI DUP3 SWAP2 PUSH1 0x24 DUP4 SWAP3 PUSH1 0x40 MLOAD SWAP5 DUP6 SWAP4 DUP5 SWAP3 PUSH4 0x6E93AE2B PUSH1 0xE0 SHL DUP5 MSTORE PUSH1 0x4 DUP5 ADD MSTORE GAS CALL DUP1 ISZERO PUSH2 0x2F3 JUMPI PUSH2 0x1B2C JUMPI JUMPDEST POP POP PUSH2 0x180 DUP4 ADD MLOAD PUSH1 0x1 SLOAD PUSH1 0x40 MLOAD PUSH4 0x1DB04579 PUSH1 0xE1 SHL DUP2 MSTORE PUSH1 0x4 DUP2 ADD SWAP3 SWAP1 SWAP3 MSTORE PUSH1 0x60 SWAP1 DUP3 SWAP1 PUSH1 0x24 SWAP1 DUP3 SWAP1 PUSH1 0x1 PUSH1 0x1 PUSH1 0xA0 SHL SUB AND GAS STATICCALL SWAP1 DUP2 ISZERO PUSH2 0xD36 JUMPI DUP8 DUP1 DUP2 SWAP3 DUP3 SWAP5 PUSH2 0x1AE7 JUMPI JUMPDEST POP DUP1 PUSH2 0x1A7A JUMPI JUMPDEST POP POP DUP1 PUSH2 0x1A0C JUMPI JUMPDEST POP DUP1 PUSH2 0x1937 JUMPI JUMPDEST POP PUSH1 0xA0 PUSH0 DUP1 MLOAD PUSH1 0x20 PUSH2 0x3716 DUP4 CODECOPY DUP2 MLOAD SWAP2 MSTORE SWAP2 PUSH1 0x1 DUP1 DUP4 SHL SUB PUSH1 0x20 DUP7 ADD MLOAD AND DUP9 MSTORE PUSH1 0x9 PUSH1 0x20 MSTORE PUSH2 0x17B2 DUP5 PUSH1 0x40 DUP11 KECCAK256 PUSH2 0x2E62 JUMP JUMPDEST PUSH1 0x1 DUP1 DUP4 SHL SUB PUSH1 0x20 DUP7 ADD MLOAD AND SWAP5 DUP1 MLOAD SWAP2 PUSH1 0x40 DUP3 ADD MLOAD ISZERO ISZERO SWAP2 DUP5 PUSH1 0x60 DUP3 ADD MLOAD SWAP2 ADD MLOAD SWAP3 PUSH1 0x40 MLOAD SWAP5 DUP6 MSTORE PUSH1 0x20 DUP6 ADD MSTORE PUSH1 0x40 DUP5 ADD MSTORE PUSH1 0x60 DUP4 ADD MSTORE PUSH1 0x80 DUP3 ADD MSTORE LOG3 PUSH1 0x6 DUP2 ADD DUP1 SLOAD PUSH3 0xFF0000 NOT AND SWAP1 SSTORE JUMPDEST DUP3 PUSH1 0xA DUP3 ADD SLOAD DUP1 PUSH2 0x188B JUMPI JUMPDEST POP POP PUSH1 0x6 DUP2 ADD SLOAD PUSH1 0xFF DUP2 PUSH1 0x10 SHR AND ISZERO PUSH2 0x1826 JUMPI JUMPDEST DUP4 PUSH1 0x1 DUP2 SSTORE DUP1 RETURN JUMPDEST PUSH1 0xFF AND PUSH1 0x3 SUB PUSH2 0x1862 JUMPI PUSH1 0x8 ADD SLOAD SWAP1 JUMPDEST PUSH32 0x9947370F1E808DD40DE986FCA744D8715D4D7AA575359F77A7BDEEB887F590EA DUP4 DUP1 LOG3 PUSH0 DUP1 DUP1 PUSH2 0x181E JUMP JUMPDEST POP PUSH1 0x5 SLOAD PUSH0 NOT DUP2 ADD SWAP1 DUP2 GT PUSH2 0x1877 JUMPI SWAP1 PUSH2 0x1836 JUMP JUMPDEST PUSH4 0x4E487B71 PUSH1 0xE0 SHL DUP4 MSTORE PUSH1 0x11 PUSH1 0x4 MSTORE PUSH1 0x24 DUP4 REVERT JUMPDEST DUP2 SWAP1 PUSH1 0x6 DUP5 ADD SLOAD PUSH1 0x4 PUSH1 0xFF DUP3 AND EQ DUP1 PUSH2 0x192A JUMPI JUMPDEST ISZERO PUSH2 0x1910 JUMPI POP PUSH2 0x18B5 SWAP2 POP PUSH1 0xD DUP5 ADD SLOAD SWAP1 PUSH2 0x2D9F JUMP JUMPDEST DUP1 ISZERO PUSH2 0x180A JUMPI DUP2 DUP1 DUP1 SWAP3 CALLER GAS CALL PUSH2 0x18CA PUSH2 0x2DBD JUMP JUMPDEST POP ISZERO PUSH2 0x18D7 JUMPI DUP3 PUSH0 PUSH2 0x180A JUMP JUMPDEST PUSH1 0x40 MLOAD PUSH3 0x461BCD PUSH1 0xE5 SHL DUP2 MSTORE PUSH1 0x20 PUSH1 0x4 DUP3 ADD MSTORE PUSH1 0x11 PUSH1 0x24 DUP3 ADD MSTORE PUSH17 0x12D9595C195C881999594819985A5B1959 PUSH1 0x7A SHL PUSH1 0x44 DUP3 ADD MSTORE PUSH1 0x64 SWAP1 REVERT JUMPDEST PUSH1 0x10 SHR PUSH1 0xFF AND ISZERO PUSH2 0x1922 JUMPI JUMPDEST POP PUSH2 0x18B5 JUMP JUMPDEST SWAP1 POP PUSH0 PUSH2 0x191C JUMP JUMPDEST POP PUSH1 0xD DUP6 ADD SLOAD ISZERO ISZERO PUSH2 0x189F JUMP JUMPDEST PUSH1 0x1 SLOAD PUSH1 0x40 MLOAD PUSH4 0xB7902303 PUSH1 0xE0 SHL DUP2 MSTORE SWAP3 SWAP1 PUSH1 0x20 SWAP1 DUP5 SWAP1 PUSH1 0x4 SWAP1 DUP3 SWAP1 PUSH1 0x1 PUSH1 0x1 PUSH1 0xA0 SHL SUB AND GAS STATICCALL SWAP3 DUP4 ISZERO PUSH2 0x3A0 JUMPI DUP9 SWAP4 PUSH2 0x19DB JUMPI JUMPDEST POP PUSH1 0x1 PUSH1 0x1 PUSH1 0xA0 SHL SUB DUP4 AND ISZERO PUSH2 0x199D JUMPI PUSH2 0x1996 PUSH1 0xA0 SWAP3 PUSH0 DUP1 MLOAD PUSH1 0x20 PUSH2 0x3716 DUP4 CODECOPY DUP2 MLOAD SWAP2 MSTORE SWAP5 PUSH2 0x3403 JUMP JUMPDEST SWAP2 POP PUSH2 0x1780 JUMP JUMPDEST PUSH1 0x40 MLOAD PUSH3 0x461BCD PUSH1 0xE5 SHL DUP2 MSTORE PUSH1 0x20 PUSH1 0x4 DUP3 ADD MSTORE PUSH1 0x16 PUSH1 0x24 DUP3 ADD MSTORE PUSH22 0x125B9CDD5C985B98D948199D5B99081B9BDD081CD95D PUSH1 0x52 SHL PUSH1 0x44 DUP3 ADD MSTORE PUSH1 0x64 SWAP1 REVERT JUMPDEST PUSH2 0x19FE SWAP2 SWAP4 POP PUSH1 0x20 RETURNDATASIZE PUSH1 0x20 GT PUSH2 0x1A05 JUMPI JUMPDEST PUSH2 0x19F6 DUP2 DUP4 PUSH2 0x2B67 JUMP JUMPDEST DUP2 ADD SWAP1 PUSH2 0x363D JUMP JUMPDEST SWAP2 PUSH0 PUSH2 0x196C JUMP JUMPDEST POP RETURNDATASIZE PUSH2 0x19EC JUMP JUMPDEST PUSH1 0x1 SLOAD PUSH1 0x40 MLOAD PUSH4 0x61D027B3 PUSH1 0xE0 SHL DUP2 MSTORE SWAP2 SWAP1 PUSH1 0x20 SWAP1 DUP4 SWAP1 PUSH1 0x4 SWAP1 DUP3 SWAP1 PUSH1 0x1 PUSH1 0x1 PUSH1 0xA0 SHL SUB AND GAS STATICCALL DUP1 ISZERO PUSH2 0x1A6F JUMPI PUSH2 0x1A4A SWAP3 DUP11 SWAP2 PUSH2 0x1A50 JUMPI JUMPDEST POP PUSH2 0x3403 JUMP JUMPDEST PUSH0 PUSH2 0x1779 JUMP JUMPDEST PUSH2 0x1A69 SWAP2 POP PUSH1 0x20 RETURNDATASIZE PUSH1 0x20 GT PUSH2 0x1A05 JUMPI PUSH2 0x19F6 DUP2 DUP4 PUSH2 0x2B67 JUMP JUMPDEST PUSH0 PUSH2 0x1A44 JUMP JUMPDEST PUSH1 0x40 MLOAD RETURNDATASIZE DUP12 DUP3 RETURNDATACOPY RETURNDATASIZE SWAP1 REVERT JUMPDEST PUSH1 0x2 SLOAD PUSH2 0x1A91 SWAP1 DUP3 SWAP1 PUSH1 0x1 PUSH1 0x1 PUSH1 0xA0 SHL SUB AND PUSH2 0x3403 JUMP JUMPDEST PUSH1 0x2 SLOAD PUSH1 0x1 PUSH1 0x1 PUSH1 0xA0 SHL SUB AND SWAP1 DUP2 EXTCODESIZE ISZERO PUSH2 0x10B2 JUMPI DUP3 SWAP2 PUSH1 0x24 DUP4 SWAP3 PUSH1 0x40 MLOAD SWAP5 DUP6 SWAP4 DUP5 SWAP3 PUSH4 0x2102C97 PUSH1 0xE1 SHL DUP5 MSTORE PUSH1 0x4 DUP5 ADD MSTORE GAS CALL DUP1 ISZERO PUSH2 0x2F3 JUMPI ISZERO PUSH2 0x1771 JUMPI PUSH2 0x1AD8 SWAP1 PUSH2 0x2B3F JUMP JUMPDEST PUSH2 0x1AE3 JUMPI DUP8 PUSH0 PUSH2 0x1771 JUMP JUMPDEST DUP8 DUP1 REVERT JUMPDEST SWAP4 POP POP POP POP PUSH1 0x60 DUP2 RETURNDATASIZE PUSH1 0x60 GT PUSH2 0x1B24 JUMPI JUMPDEST DUP2 PUSH2 0x1B05 PUSH1 0x60 SWAP4 DUP4 PUSH2 0x2B67 JUMP JUMPDEST DUP2 ADD SUB SLT PUSH2 0x325 JUMPI DUP1 MLOAD DUP8 PUSH1 0x40 PUSH1 0x20 DUP5 ADD MLOAD SWAP4 ADD MLOAD SWAP2 SWAP3 SWAP2 SWAP3 PUSH0 PUSH2 0x176A JUMP JUMPDEST RETURNDATASIZE SWAP2 POP PUSH2 0x1AF8 JUMP JUMPDEST PUSH2 0x1B35 SWAP1 PUSH2 0x2B3F JUMP JUMPDEST PUSH2 0x2EF JUMPI DUP6 PUSH0 PUSH2 0x1723 JUMP JUMPDEST PUSH2 0x1B49 SWAP1 PUSH2 0x2B3F JUMP JUMPDEST PUSH2 0x2EF JUMPI DUP6 PUSH0 PUSH2 0x16C2 JUMP JUMPDEST SWAP1 SWAP2 POP PUSH1 0x20 DUP2 RETURNDATASIZE PUSH1 0x20 GT PUSH2 0x1B81 JUMPI JUMPDEST DUP2 PUSH2 0x1B70 PUSH1 0x20 SWAP4 DUP4 PUSH2 0x2B67 JUMP JUMPDEST DUP2 ADD SUB SLT PUSH2 0x733 JUMPI MLOAD SWAP1 PUSH1 0xB PUSH2 0x1640 JUMP JUMPDEST RETURNDATASIZE SWAP2 POP PUSH2 0x1B63 JUMP JUMPDEST PUSH2 0x1B92 SWAP2 PUSH2 0x2DFC JUMP JUMPDEST PUSH2 0x1544 JUMP JUMPDEST SWAP1 DUP7 DUP2 SLT PUSH2 0x1BA7 JUMPI JUMPDEST POP POP PUSH2 0x1544 JUMP JUMPDEST PUSH2 0x2710 SWAP2 SWAP3 POP PUSH2 0x1BB9 PUSH2 0x1BBF SWAP2 PUSH2 0x2EF3 JUMP JUMPDEST DUP4 PUSH2 0x2E41 JUMP JUMPDEST DIV PUSH1 0x40 DUP4 ADD MLOAD ISZERO ISZERO PUSH0 EQ PUSH2 0x1BDD JUMPI PUSH2 0x1BD6 SWAP2 PUSH2 0x2DFC JUMP JUMPDEST PUSH0 DUP1 PUSH2 0x1BA0 JUMP JUMPDEST PUSH2 0x1BE6 SWAP2 PUSH2 0x2C7A JUMP JUMPDEST PUSH2 0x1BD6 JUMP JUMPDEST SWAP1 SWAP2 POP PUSH1 0x20 DUP2 RETURNDATASIZE PUSH1 0x20 GT PUSH2 0x1C17 JUMPI JUMPDEST DUP2 PUSH2 0x1C07 PUSH1 0x20 SWAP4 DUP4 PUSH2 0x2B67 JUMP JUMPDEST DUP2 ADD SUB SLT PUSH2 0x733 JUMPI MLOAD SWAP1 PUSH0 PUSH2 0x1516 JUMP JUMPDEST RETURNDATASIZE SWAP2 POP PUSH2 0x1BFA JUMP JUMPDEST PUSH1 0x40 MLOAD PUSH3 0x461BCD PUSH1 0xE5 SHL DUP2 MSTORE PUSH1 0x20 PUSH1 0x4 DUP3 ADD MSTORE PUSH1 0x11 PUSH1 0x24 DUP3 ADD MSTORE PUSH17 0x131A5B5A5D081B9BDD081C995858DA1959 PUSH1 0x7A SHL PUSH1 0x44 DUP3 ADD MSTORE PUSH1 0x64 SWAP1 REVERT JUMPDEST PUSH1 0x5 DUP3 ADD SLOAD DUP2 LT ISZERO PUSH2 0x14B5 JUMP JUMPDEST PUSH1 0x1 DUP2 SUB PUSH2 0x2257 JUMPI POP PUSH1 0x1 DUP3 ADD SLOAD PUSH1 0xA0 SHR PUSH1 0xFF AND ISZERO PUSH2 0x224A JUMPI PUSH1 0x5 DUP3 ADD SLOAD DUP2 LT ISZERO JUMPDEST ISZERO PUSH2 0x2212 JUMPI PUSH2 0x1C95 DUP3 PUSH2 0x2C9B JUMP JUMPDEST SWAP1 DUP1 PUSH1 0x1 DUP1 PUSH1 0xA0 SHL SUB PUSH1 0x1 SLOAD AND SWAP1 PUSH1 0x20 DUP5 MLOAD PUSH1 0x64 PUSH1 0x40 DUP8 ADD MLOAD ISZERO ISZERO SWAP2 PUSH1 0x60 DUP9 ADD MLOAD SWAP6 PUSH1 0x40 MLOAD SWAP7 DUP8 SWAP5 DUP6 SWAP4 PUSH4 0xB391DECF PUSH1 0xE0 SHL DUP6 MSTORE PUSH1 0x4 DUP6 ADD MSTORE PUSH1 0x24 DUP5 ADD MSTORE PUSH1 0x44 DUP4 ADD MSTORE GAS STATICCALL SWAP2 DUP3 ISZERO PUSH2 0xD36 JUMPI DUP8 SWAP3 PUSH2 0x21DE JUMPI JUMPDEST POP DUP7 DUP3 SGT ISZERO PUSH2 0x2190 JUMPI POP PUSH2 0x1CFF PUSH2 0x2710 SWAP2 DUP4 PUSH2 0x2E41 JUMP JUMPDEST DIV PUSH1 0x40 DUP4 ADD MLOAD ISZERO ISZERO PUSH0 EQ PUSH2 0x2182 JUMPI PUSH2 0x1D16 SWAP2 PUSH2 0x2C7A JUMP JUMPDEST PUSH1 0x5 SLOAD SWAP1 PUSH2 0x1D23 DUP3 PUSH2 0x2E54 JUMP JUMPDEST PUSH1 0x5 SSTORE DUP2 DUP7 MSTORE PUSH1 0x7 PUSH1 0x20 SWAP1 DUP2 MSTORE PUSH1 0x40 DUP1 DUP9 KECCAK256 DUP6 MLOAD DUP2 SSTORE SWAP2 DUP6 ADD MLOAD PUSH1 0x1 DUP4 ADD DUP1 SLOAD SWAP3 DUP8 ADD MLOAD PUSH1 0x1 PUSH1 0x1 PUSH1 0xA8 SHL SUB NOT SWAP1 SWAP4 AND PUSH1 0x1 PUSH1 0x1 PUSH1 0xA0 SHL SUB SWAP3 SWAP1 SWAP3 AND SWAP2 SWAP1 SWAP2 OR SWAP2 ISZERO ISZERO PUSH1 0xA0 DUP2 SWAP1 SHL PUSH1 0xFF PUSH1 0xA0 SHL AND SWAP3 SWAP1 SWAP3 OR SWAP1 SSTORE DUP8 SWAP2 SWAP1 PUSH2 0x1D83 SWAP1 PUSH2 0x15AD JUMP JUMPDEST PUSH1 0x6 DUP3 ADD SSTORE TIMESTAMP PUSH1 0x7 DUP3 ADD SSTORE PUSH1 0x8 DUP2 ADD PUSH1 0x1 PUSH1 0xFF NOT DUP3 SLOAD AND OR SWAP1 SSTORE PUSH2 0x1C0 DUP6 ADD MLOAD PUSH1 0x9 DUP3 ADD SSTORE PUSH2 0x1E0 DUP6 ADD MLOAD PUSH1 0xA DUP3 ADD SSTORE PUSH1 0x20 PUSH1 0x1 DUP1 PUSH1 0xA0 SHL SUB PUSH1 0x1 SLOAD AND PUSH1 0x24 DUP8 MLOAD PUSH1 0x40 MLOAD SWAP6 DUP7 SWAP4 DUP5 SWAP3 PUSH4 0x7CC6765F PUSH1 0xE1 SHL DUP5 MSTORE PUSH1 0x4 DUP5 ADD MSTORE GAS CALL SWAP2 DUP3 ISZERO PUSH2 0x3A0 JUMPI DUP9 SWAP3 PUSH2 0x214D JUMPI JUMPDEST POP PUSH1 0xB ADD SSTORE PUSH1 0x1 SLOAD DUP4 MLOAD PUSH1 0x20 DUP6 ADD MLOAD PUSH1 0x40 DUP7 ADD MLOAD PUSH1 0x60 DUP8 ADD MLOAD DUP11 SWAP5 SWAP1 SWAP4 SWAP3 SWAP2 ISZERO ISZERO SWAP2 PUSH1 0x1 PUSH1 0x1 PUSH1 0xA0 SHL SUB SWAP2 DUP3 AND SWAP2 AND DUP2 EXTCODESIZE ISZERO PUSH2 0x2EF JUMPI PUSH1 0x40 MLOAD PUSH4 0xB65B361F PUSH1 0xE0 SHL DUP2 MSTORE PUSH1 0x4 DUP2 ADD SWAP5 SWAP1 SWAP5 MSTORE PUSH1 0x1 PUSH1 0x1 PUSH1 0xA0 SHL SUB AND PUSH1 0x24 DUP5 ADD MSTORE SWAP1 ISZERO ISZERO PUSH1 0x44 DUP4 ADD MSTORE PUSH1 0x64 DUP3 ADD SWAP3 SWAP1 SWAP3 MSTORE SWAP1 DUP3 SWAP1 DUP3 SWAP1 PUSH1 0x84 SWAP1 DUP3 SWAP1 DUP5 SWAP1 GAS CALL DUP1 ISZERO PUSH2 0x2F3 JUMPI PUSH2 0x2139 JUMPI JUMPDEST POP POP PUSH1 0x2 SLOAD PUSH1 0x80 DUP5 ADD MLOAD PUSH2 0x1E89 SWAP2 PUSH1 0x1 PUSH1 0x1 PUSH1 0xA0 SHL SUB AND PUSH2 0x3403 JUMP JUMPDEST PUSH1 0x2 SLOAD PUSH1 0x80 DUP5 ADD MLOAD DUP8 SWAP2 PUSH1 0x1 PUSH1 0x1 PUSH1 0xA0 SHL SUB AND SWAP1 DUP2 EXTCODESIZE ISZERO PUSH2 0x10B2 JUMPI DUP3 SWAP2 PUSH1 0x24 DUP4 SWAP3 PUSH1 0x40 MLOAD SWAP5 DUP6 SWAP4 DUP5 SWAP3 PUSH4 0x6E93AE2B PUSH1 0xE0 SHL DUP5 MSTORE PUSH1 0x4 DUP5 ADD MSTORE GAS CALL DUP1 ISZERO PUSH2 0x2F3 JUMPI PUSH2 0x2125 JUMPI JUMPDEST POP POP PUSH2 0x180 DUP4 ADD MLOAD PUSH1 0x1 SLOAD PUSH1 0x40 MLOAD PUSH4 0x1DB04579 PUSH1 0xE1 SHL DUP2 MSTORE PUSH1 0x4 DUP2 ADD SWAP3 SWAP1 SWAP3 MSTORE PUSH1 0x60 SWAP1 DUP3 SWAP1 PUSH1 0x24 SWAP1 DUP3 SWAP1 PUSH1 0x1 PUSH1 0x1 PUSH1 0xA0 SHL SUB AND GAS STATICCALL SWAP1 DUP2 ISZERO PUSH2 0xD36 JUMPI DUP8 DUP1 DUP2 SWAP3 DUP3 SWAP5 PUSH2 0x20E0 JUMPI JUMPDEST POP DUP1 PUSH2 0x2077 JUMPI JUMPDEST POP POP DUP1 PUSH2 0x2034 JUMPI JUMPDEST POP DUP1 PUSH2 0x1FAD JUMPI JUMPDEST POP PUSH1 0xA0 PUSH0 DUP1 MLOAD PUSH1 0x20 PUSH2 0x3716 DUP4 CODECOPY DUP2 MLOAD SWAP2 MSTORE SWAP2 PUSH1 0x1 DUP1 DUP4 SHL SUB PUSH1 0x20 DUP7 ADD MLOAD AND DUP9 MSTORE PUSH1 0x9 PUSH1 0x20 MSTORE PUSH2 0x1F5D DUP5 PUSH1 0x40 DUP11 KECCAK256 PUSH2 0x2E62 JUMP JUMPDEST PUSH1 0x1 DUP1 DUP4 SHL SUB PUSH1 0x20 DUP7 ADD MLOAD AND SWAP5 DUP1 MLOAD SWAP2 PUSH1 0x40 DUP3 ADD MLOAD ISZERO ISZERO SWAP2 DUP5 PUSH1 0x60 DUP3 ADD MLOAD SWAP2 ADD MLOAD SWAP3 PUSH1 0x40 MLOAD SWAP5 DUP6 MSTORE PUSH1 0x20 DUP6 ADD MSTORE PUSH1 0x40 DUP5 ADD MSTORE PUSH1 0x60 DUP4 ADD MSTORE PUSH1 0x80 DUP3 ADD MSTORE LOG3 PUSH1 0x6 DUP2 ADD DUP1 SLOAD PUSH3 0xFF0000 NOT AND SWAP1 SSTORE PUSH2 0x17FE JUMP JUMPDEST PUSH1 0x1 SLOAD PUSH1 0x40 MLOAD PUSH4 0xB7902303 PUSH1 0xE0 SHL DUP2 MSTORE SWAP3 SWAP1 PUSH1 0x20 SWAP1 DUP5 SWAP1 PUSH1 0x4 SWAP1 DUP3 SWAP1 PUSH1 0x1 PUSH1 0x1 PUSH1 0xA0 SHL SUB AND GAS STATICCALL SWAP3 DUP4 ISZERO PUSH2 0x3A0 JUMPI DUP9 SWAP4 PUSH2 0x2013 JUMPI JUMPDEST POP PUSH1 0x1 PUSH1 0x1 PUSH1 0xA0 SHL SUB DUP4 AND ISZERO PUSH2 0x199D JUMPI PUSH2 0x200C PUSH1 0xA0 SWAP3 PUSH0 DUP1 MLOAD PUSH1 0x20 PUSH2 0x3716 DUP4 CODECOPY DUP2 MLOAD SWAP2 MSTORE SWAP5 PUSH2 0x3403 JUMP JUMPDEST SWAP2 POP PUSH2 0x1F2B JUMP JUMPDEST PUSH2 0x202D SWAP2 SWAP4 POP PUSH1 0x20 RETURNDATASIZE PUSH1 0x20 GT PUSH2 0x1A05 JUMPI PUSH2 0x19F6 DUP2 DUP4 PUSH2 0x2B67 JUMP JUMPDEST SWAP2 PUSH0 PUSH2 0x1FE2 JUMP JUMPDEST PUSH1 0x1 SLOAD PUSH1 0x40 MLOAD PUSH4 0x61D027B3 PUSH1 0xE0 SHL DUP2 MSTORE SWAP2 SWAP1 PUSH1 0x20 SWAP1 DUP4 SWAP1 PUSH1 0x4 SWAP1 DUP3 SWAP1 PUSH1 0x1 PUSH1 0x1 PUSH1 0xA0 SHL SUB AND GAS STATICCALL DUP1 ISZERO PUSH2 0x1A6F JUMPI PUSH2 0x2071 SWAP3 DUP11 SWAP2 PUSH2 0x1A50 JUMPI POP PUSH2 0x3403 JUMP JUMPDEST PUSH0 PUSH2 0x1F24 JUMP JUMPDEST PUSH1 0x2 SLOAD PUSH2 0x208E SWAP1 DUP3 SWAP1 PUSH1 0x1 PUSH1 0x1 PUSH1 0xA0 SHL SUB AND PUSH2 0x3403 JUMP JUMPDEST PUSH1 0x2 SLOAD PUSH1 0x1 PUSH1 0x1 PUSH1 0xA0 SHL SUB AND SWAP1 DUP2 EXTCODESIZE ISZERO PUSH2 0x10B2 JUMPI DUP3 SWAP2 PUSH1 0x24 DUP4 SWAP3 PUSH1 0x40 MLOAD SWAP5 DUP6 SWAP4 DUP5 SWAP3 PUSH4 0x2102C97 PUSH1 0xE1 SHL DUP5 MSTORE PUSH1 0x4 DUP5 ADD MSTORE GAS CALL DUP1 ISZERO PUSH2 0x2F3 JUMPI ISZERO PUSH2 0x1F1C JUMPI PUSH2 0x20D5 SWAP1 PUSH2 0x2B3F JUMP JUMPDEST PUSH2 0x1AE3 JUMPI DUP8 PUSH0 PUSH2 0x1F1C JUMP JUMPDEST SWAP4 POP POP POP POP PUSH1 0x60 DUP2 RETURNDATASIZE PUSH1 0x60 GT PUSH2 0x211D JUMPI JUMPDEST DUP2 PUSH2 0x20FE PUSH1 0x60 SWAP4 DUP4 PUSH2 0x2B67 JUMP JUMPDEST DUP2 ADD SUB SLT PUSH2 0x325 JUMPI DUP1 MLOAD DUP8 PUSH1 0x40 PUSH1 0x20 DUP5 ADD MLOAD SWAP4 ADD MLOAD SWAP2 SWAP3 SWAP2 SWAP3 PUSH0 PUSH2 0x1F15 JUMP JUMPDEST RETURNDATASIZE SWAP2 POP PUSH2 0x20F1 JUMP JUMPDEST PUSH2 0x212E SWAP1 PUSH2 0x2B3F JUMP JUMPDEST PUSH2 0x2EF JUMPI DUP6 PUSH0 PUSH2 0x1ECE JUMP JUMPDEST PUSH2 0x2142 SWAP1 PUSH2 0x2B3F JUMP JUMPDEST PUSH2 0x2EF JUMPI DUP6 PUSH0 PUSH2 0x1E6D JUMP JUMPDEST SWAP1 SWAP2 POP PUSH1 0x20 DUP2 RETURNDATASIZE PUSH1 0x20 GT PUSH2 0x217A JUMPI JUMPDEST DUP2 PUSH2 0x2169 PUSH1 0x20 SWAP4 DUP4 PUSH2 0x2B67 JUMP JUMPDEST DUP2 ADD SUB SLT PUSH2 0x733 JUMPI MLOAD SWAP1 PUSH1 0xB PUSH2 0x1DEB JUMP JUMPDEST RETURNDATASIZE SWAP2 POP PUSH2 0x215C JUMP JUMPDEST PUSH2 0x218B SWAP2 PUSH2 0x2DFC JUMP JUMPDEST PUSH2 0x1D16 JUMP JUMPDEST SWAP1 DUP7 DUP2 SLT PUSH2 0x21A0 JUMPI JUMPDEST POP POP PUSH2 0x1D16 JUMP JUMPDEST PUSH2 0x2710 SWAP2 SWAP3 POP PUSH2 0x1BB9 PUSH2 0x21B2 SWAP2 PUSH2 0x2EF3 JUMP JUMPDEST DIV PUSH1 0x40 DUP4 ADD MLOAD ISZERO ISZERO PUSH0 EQ PUSH2 0x21D0 JUMPI PUSH2 0x21C9 SWAP2 PUSH2 0x2DFC JUMP JUMPDEST PUSH0 DUP1 PUSH2 0x2199 JUMP JUMPDEST PUSH2 0x21D9 SWAP2 PUSH2 0x2C7A JUMP JUMPDEST PUSH2 0x21C9 JUMP JUMPDEST SWAP1 SWAP2 POP PUSH1 0x20 DUP2 RETURNDATASIZE PUSH1 0x20 GT PUSH2 0x220A JUMPI JUMPDEST DUP2 PUSH2 0x21FA PUSH1 0x20 SWAP4 DUP4 PUSH2 0x2B67 JUMP JUMPDEST DUP2 ADD SUB SLT PUSH2 0x733 JUMPI MLOAD SWAP1 PUSH0 PUSH2 0x1CE8 JUMP JUMPDEST RETURNDATASIZE SWAP2 POP PUSH2 0x21ED JUMP JUMPDEST PUSH1 0x40 MLOAD PUSH3 0x461BCD PUSH1 0xE5 SHL DUP2 MSTORE PUSH1 0x20 PUSH1 0x4 DUP3 ADD MSTORE PUSH1 0x10 PUSH1 0x24 DUP3 ADD MSTORE PUSH16 0x14DD1BDC081B9BDD081C995858DA1959 PUSH1 0x82 SHL PUSH1 0x44 DUP3 ADD MSTORE PUSH1 0x64 SWAP1 REVERT JUMPDEST PUSH1 0x5 DUP3 ADD SLOAD DUP2 GT ISZERO PUSH2 0x1C87 JUMP JUMPDEST PUSH1 0x2 DUP2 SUB PUSH2 0x230E JUMPI POP PUSH1 0x1 DUP3 ADD SLOAD PUSH1 0xFF DUP2 PUSH1 0xA0 SHR AND PUSH0 EQ PUSH2 0x2301 JUMPI PUSH1 0x5 DUP4 ADD SLOAD DUP3 GT ISZERO JUMPDEST DUP1 ISZERO PUSH2 0x22F5 JUMPI JUMPDEST ISZERO PUSH2 0x22A4 JUMPI POP PUSH2 0x1C95 DUP3 PUSH2 0x2C9B JUMP JUMPDEST PUSH1 0x6 DUP2 ADD DUP1 SLOAD PUSH3 0xFF0000 NOT AND SWAP1 SSTORE PUSH2 0x17FE JUMP JUMPDEST PUSH2 0x22CB SWAP2 POP PUSH2 0x22BC PUSH1 0x3 DUP5 ADD SLOAD PUSH1 0x9 DUP6 ADD SLOAD SWAP1 PUSH2 0x2C7A JUMP JUMPDEST SWAP1 PUSH1 0x1 PUSH1 0x1 PUSH1 0xA0 SHL SUB AND PUSH2 0x3403 JUMP JUMPDEST DUP2 PUSH32 0x61B9399F2F0F32CA39CE8D7BE32CAED5EC22FE07A6DABA3A467ED479EC606582 DUP5 DUP1 LOG2 PUSH2 0x2291 JUMP JUMPDEST POP PUSH1 0x5 DUP4 ADD SLOAD ISZERO PUSH2 0x2282 JUMP JUMPDEST PUSH1 0x5 DUP4 ADD SLOAD DUP3 LT ISZERO PUSH2 0x227B JUMP JUMPDEST PUSH1 0x3 DUP2 SUB PUSH2 0x2325 JUMPI POP PUSH2 0x2291 SWAP1 PUSH1 0x8 DUP4 ADD SLOAD PUSH2 0x3026 JUMP JUMPDEST PUSH1 0x4 EQ PUSH2 0x2333 JUMPI JUMPDEST POP PUSH2 0x17FE JUMP JUMPDEST PUSH1 0xF DUP3 ADD SLOAD ISZERO DUP1 ISZERO PUSH2 0x29BF JUMPI JUMPDEST ISZERO PUSH2 0x2988 JUMPI PUSH2 0x234E DUP3 PUSH2 0x2C9B JUMP JUMPDEST SWAP1 PUSH2 0x2388 PUSH1 0x2 DUP5 ADD SLOAD PUSH2 0x2366 PUSH1 0xD DUP7 ADD SLOAD DUP1 SWAP3 PUSH2 0x2D9F JUMP JUMPDEST PUSH1 0x60 DUP6 ADD MSTORE PUSH2 0x2379 DUP2 PUSH1 0x3 DUP8 ADD SLOAD PUSH2 0x2D9F JUMP JUMPDEST PUSH1 0x80 DUP6 ADD MSTORE PUSH1 0x9 DUP6 ADD SLOAD PUSH2 0x2D9F JUMP JUMPDEST PUSH2 0x180 DUP4 ADD MSTORE PUSH1 0x1 SLOAD DUP3 MLOAD PUSH1 0x40 DUP1 DUP6 ADD MLOAD PUSH1 0x60 DUP7 ADD MLOAD SWAP2 MLOAD PUSH4 0xB391DECF PUSH1 0xE0 SHL DUP2 MSTORE PUSH1 0x4 DUP2 ADD SWAP4 SWAP1 SWAP4 MSTORE ISZERO ISZERO PUSH1 0x24 DUP4 ADD MSTORE PUSH1 0x44 DUP3 ADD MSTORE SWAP1 DUP3 SWAP1 PUSH1 0x20 SWAP1 DUP4 SWAP1 PUSH1 0x64 SWAP1 DUP3 SWAP1 PUSH1 0x1 PUSH1 0x1 PUSH1 0xA0 SHL SUB AND GAS STATICCALL SWAP2 DUP3 ISZERO PUSH2 0xD36 JUMPI DUP8 SWAP3 PUSH2 0x2954 JUMPI JUMPDEST POP DUP7 DUP3 SGT ISZERO PUSH2 0x2906 JUMPI POP PUSH2 0x23FB PUSH2 0x2710 SWAP2 DUP4 PUSH2 0x2E41 JUMP JUMPDEST DIV PUSH1 0x40 DUP4 ADD MLOAD ISZERO ISZERO PUSH0 EQ PUSH2 0x28F8 JUMPI PUSH2 0x2412 SWAP2 PUSH2 0x2C7A JUMP JUMPDEST PUSH1 0x5 SLOAD PUSH2 0x241E DUP2 PUSH2 0x2E54 JUMP JUMPDEST PUSH1 0x5 SSTORE DUP1 DUP7 MSTORE PUSH1 0x7 PUSH1 0x20 SWAP1 DUP2 MSTORE PUSH1 0x40 DUP1 DUP9 KECCAK256 DUP6 MLOAD DUP2 SSTORE SWAP2 DUP6 ADD MLOAD PUSH1 0x1 DUP4 ADD DUP1 SLOAD SWAP3 DUP8 ADD MLOAD PUSH1 0x1 PUSH1 0x1 PUSH1 0xA8 SHL SUB NOT SWAP1 SWAP4 AND PUSH1 0x1 PUSH1 0x1 PUSH1 0xA0 SHL SUB SWAP3 SWAP1 SWAP3 AND SWAP2 SWAP1 SWAP2 OR SWAP2 ISZERO ISZERO PUSH1 0xA0 DUP2 SWAP1 SHL PUSH1 0xFF PUSH1 0xA0 SHL AND SWAP3 SWAP1 SWAP3 OR SWAP1 SSTORE DUP8 SWAP2 SWAP1 PUSH2 0x24A4 SWAP1 PUSH1 0x60 DUP8 ADD MLOAD PUSH1 0x2 DUP5 ADD SSTORE PUSH1 0x80 DUP8 ADD MLOAD PUSH1 0x3 DUP5 ADD SSTORE DUP6 PUSH1 0x4 DUP5 ADD SSTORE PUSH1 0xA0 DUP8 ADD MLOAD DUP1 PUSH1 0x5 DUP6 ADD SSTORE DUP7 PUSH2 0x355D JUMP JUMPDEST PUSH1 0x6 DUP3 ADD SSTORE TIMESTAMP PUSH1 0x7 DUP3 ADD SSTORE PUSH1 0x8 DUP2 ADD PUSH1 0x1 PUSH1 0xFF NOT DUP3 SLOAD AND OR SWAP1 SSTORE PUSH2 0x1C0 DUP6 ADD MLOAD PUSH1 0x9 DUP3 ADD SSTORE PUSH2 0x1E0 DUP6 ADD MLOAD PUSH1 0xA DUP3 ADD SSTORE PUSH1 0x20 PUSH1 0x1 DUP1 PUSH1 0xA0 SHL SUB PUSH1 0x1 SLOAD AND PUSH1 0x24 DUP8 MLOAD PUSH1 0x40 MLOAD SWAP6 DUP7 SWAP4 DUP5 SWAP3 PUSH4 0x7CC6765F PUSH1 0xE1 SHL DUP5 MSTORE PUSH1 0x4 DUP5 ADD MSTORE GAS CALL SWAP2 DUP3 ISZERO PUSH2 0x3A0 JUMPI DUP9 SWAP3 PUSH2 0x28C3 JUMPI JUMPDEST POP PUSH1 0xB ADD SSTORE PUSH1 0x1 SLOAD DUP4 MLOAD PUSH1 0x20 DUP6 ADD MLOAD PUSH1 0x40 DUP7 ADD MLOAD PUSH1 0x60 DUP8 ADD MLOAD DUP11 SWAP5 SWAP1 SWAP4 SWAP3 SWAP2 ISZERO ISZERO SWAP2 PUSH1 0x1 PUSH1 0x1 PUSH1 0xA0 SHL SUB SWAP2 DUP3 AND SWAP2 AND DUP2 EXTCODESIZE ISZERO PUSH2 0x2EF JUMPI PUSH1 0x40 MLOAD PUSH4 0xB65B361F PUSH1 0xE0 SHL DUP2 MSTORE PUSH1 0x4 DUP2 ADD SWAP5 SWAP1 SWAP5 MSTORE PUSH1 0x1 PUSH1 0x1 PUSH1 0xA0 SHL SUB AND PUSH1 0x24 DUP5 ADD MSTORE SWAP1 ISZERO ISZERO PUSH1 0x44 DUP4 ADD MSTORE PUSH1 0x64 DUP3 ADD SWAP3 SWAP1 SWAP3 MSTORE SWAP1 DUP3 SWAP1 DUP3 SWAP1 PUSH1 0x84 SWAP1 DUP3 SWAP1 DUP5 SWAP1 GAS CALL DUP1 ISZERO PUSH2 0x2F3 JUMPI PUSH2 0x28AF JUMPI JUMPDEST POP POP PUSH1 0x2 SLOAD PUSH1 0x80 DUP5 ADD MLOAD PUSH2 0x25AA SWAP2 PUSH1 0x1 PUSH1 0x1 PUSH1 0xA0 SHL SUB AND PUSH2 0x3403 JUMP JUMPDEST PUSH1 0x2 SLOAD PUSH1 0x80 DUP5 ADD MLOAD DUP8 SWAP2 PUSH1 0x1 PUSH1 0x1 PUSH1 0xA0 SHL SUB AND SWAP1 DUP2 EXTCODESIZE ISZERO PUSH2 0x10B2 JUMPI DUP3 SWAP2 PUSH1 0x24 DUP4 SWAP3 PUSH1 0x40 MLOAD SWAP5 DUP6 SWAP4 DUP5 SWAP3 PUSH4 0x6E93AE2B PUSH1 0xE0 SHL DUP5 MSTORE PUSH1 0x4 DUP5 ADD MSTORE GAS CALL DUP1 ISZERO PUSH2 0x2F3 JUMPI PUSH2 0x289B JUMPI JUMPDEST POP POP PUSH2 0x180 DUP4 ADD MLOAD PUSH1 0x1 SLOAD PUSH1 0x40 MLOAD PUSH4 0x1DB04579 PUSH1 0xE1 SHL DUP2 MSTORE PUSH1 0x4 DUP2 ADD SWAP3 SWAP1 SWAP3 MSTORE PUSH1 0x60 SWAP1 DUP3 SWAP1 PUSH1 0x24 SWAP1 DUP3 SWAP1 PUSH1 0x1 PUSH1 0x1 PUSH1 0xA0 SHL SUB AND GAS STATICCALL SWAP1 DUP2 ISZERO PUSH2 0xD36 JUMPI DUP8 DUP1 DUP2 SWAP3 DUP3 SWAP5 PUSH2 0x2856 JUMPI JUMPDEST POP DUP1 PUSH2 0x27ED JUMPI JUMPDEST POP POP DUP1 PUSH2 0x27AA JUMPI JUMPDEST POP DUP1 PUSH2 0x2735 JUMPI JUMPDEST POP PUSH1 0x20 DUP4 DUP2 ADD MLOAD PUSH1 0x1 PUSH1 0x1 PUSH1 0xA0 SHL SUB AND DUP8 MSTORE PUSH1 0x9 SWAP1 MSTORE PUSH1 0x40 DUP7 KECCAK256 PUSH2 0x2671 SWAP1 DUP3 SWAP1 PUSH2 0x2E62 JUMP JUMPDEST PUSH0 DUP1 MLOAD PUSH1 0x20 PUSH2 0x3716 DUP4 CODECOPY DUP2 MLOAD SWAP2 MSTORE PUSH1 0xA0 PUSH1 0x1 DUP1 DUP3 SHL SUB PUSH1 0x20 DUP7 ADD MLOAD AND SWAP4 DUP6 MLOAD SWAP1 PUSH1 0x40 DUP8 ADD MLOAD ISZERO ISZERO SWAP1 PUSH1 0x60 DUP9 ADD MLOAD DUP5 DUP10 ADD MLOAD SWAP3 PUSH1 0x40 MLOAD SWAP5 DUP6 MSTORE PUSH1 0x20 DUP6 ADD MSTORE PUSH1 0x40 DUP5 ADD MSTORE PUSH1 0x60 DUP4 ADD MSTORE PUSH1 0x80 DUP3 ADD MSTORE LOG3 PUSH1 0xF DUP3 ADD SLOAD SWAP1 PUSH1 0x1 DUP3 ADD DUP1 SWAP3 GT PUSH2 0xDA0 JUMPI PUSH32 0x98DC6C1012D2FB4CC0470EC0F1B82AD9EAF354865D76EBAD869D83F1559344E PUSH1 0x40 PUSH1 0x60 DUP7 SWAP4 DUP6 PUSH1 0xF DUP9 ADD SSTORE TIMESTAMP PUSH1 0x10 DUP9 ADD SSTORE ADD MLOAD DUP2 MLOAD SWAP1 DUP6 DUP3 MSTORE PUSH1 0x20 DUP3 ADD MSTORE LOG2 PUSH1 0xD DUP3 ADD SLOAD GT ISZERO PUSH2 0x2722 JUMPI JUMPDEST PUSH0 PUSH2 0x232D JUMP JUMPDEST PUSH1 0x6 DUP2 ADD DUP1 SLOAD PUSH3 0xFF0000 NOT AND SWAP1 SSTORE PUSH2 0x271C JUMP JUMPDEST PUSH1 0x1 SLOAD PUSH1 0x40 MLOAD PUSH4 0xB7902303 PUSH1 0xE0 SHL DUP2 MSTORE SWAP2 SWAP1 PUSH1 0x20 SWAP1 DUP4 SWAP1 PUSH1 0x4 SWAP1 DUP3 SWAP1 PUSH1 0x1 PUSH1 0x1 PUSH1 0xA0 SHL SUB AND GAS STATICCALL SWAP2 DUP3 ISZERO PUSH2 0x3A0 JUMPI DUP9 SWAP3 PUSH2 0x2789 JUMPI JUMPDEST POP PUSH1 0x1 PUSH1 0x1 PUSH1 0xA0 SHL SUB DUP3 AND ISZERO PUSH2 0x199D JUMPI PUSH2 0x2783 SWAP2 PUSH2 0x3403 JUMP JUMPDEST PUSH0 PUSH2 0x264C JUMP JUMPDEST PUSH2 0x27A3 SWAP2 SWAP3 POP PUSH1 0x20 RETURNDATASIZE PUSH1 0x20 GT PUSH2 0x1A05 JUMPI PUSH2 0x19F6 DUP2 DUP4 PUSH2 0x2B67 JUMP JUMPDEST SWAP1 PUSH0 PUSH2 0x276A JUMP JUMPDEST PUSH1 0x1 SLOAD PUSH1 0x40 MLOAD PUSH4 0x61D027B3 PUSH1 0xE0 SHL DUP2 MSTORE SWAP2 SWAP1 PUSH1 0x20 SWAP1 DUP4 SWAP1 PUSH1 0x4 SWAP1 DUP3 SWAP1 PUSH1 0x1 PUSH1 0x1 PUSH1 0xA0 SHL SUB AND GAS STATICCALL DUP1 ISZERO PUSH2 0x1A6F JUMPI PUSH2 0x27E7 SWAP3 DUP11 SWAP2 PUSH2 0x1A50 JUMPI POP PUSH2 0x3403 JUMP JUMPDEST PUSH0 PUSH2 0x2645 JUMP JUMPDEST PUSH1 0x2 SLOAD PUSH2 0x2804 SWAP1 DUP3 SWAP1 PUSH1 0x1 PUSH1 0x1 PUSH1 0xA0 SHL SUB AND PUSH2 0x3403 JUMP JUMPDEST PUSH1 0x2 SLOAD PUSH1 0x1 PUSH1 0x1 PUSH1 0xA0 SHL SUB AND SWAP1 DUP2 EXTCODESIZE ISZERO PUSH2 0x10B2 JUMPI DUP3 SWAP2 PUSH1 0x24 DUP4 SWAP3 PUSH1 0x40 MLOAD SWAP5 DUP6 SWAP4 DUP5 SWAP3 PUSH4 0x2102C97 PUSH1 0xE1 SHL DUP5 MSTORE PUSH1 0x4 DUP5 ADD MSTORE GAS CALL DUP1 ISZERO PUSH2 0x2F3 JUMPI ISZERO PUSH2 0x263D JUMPI PUSH2 0x284B SWAP1 PUSH2 0x2B3F JUMP JUMPDEST PUSH2 0x1AE3 JUMPI DUP8 PUSH0 PUSH2 0x263D JUMP JUMPDEST SWAP4 POP POP POP POP PUSH1 0x60 DUP2 RETURNDATASIZE PUSH1 0x60 GT PUSH2 0x2893 JUMPI JUMPDEST DUP2 PUSH2 0x2874 PUSH1 0x60 SWAP4 DUP4 PUSH2 0x2B67 JUMP JUMPDEST DUP2 ADD SUB SLT PUSH2 0x325 JUMPI DUP1 MLOAD DUP8 PUSH1 0x40 PUSH1 0x20 DUP5 ADD MLOAD SWAP4 ADD MLOAD SWAP2 SWAP3 SWAP2 SWAP3 PUSH0 PUSH2 0x2636 JUMP JUMPDEST RETURNDATASIZE SWAP2 POP PUSH2 0x2867 JUMP JUMPDEST PUSH2 0x28A4 SWAP1 PUSH2 0x2B3F JUMP JUMPDEST PUSH2 0x2EF JUMPI DUP6 PUSH0 PUSH2 0x25EF JUMP JUMPDEST PUSH2 0x28B8 SWAP1 PUSH2 0x2B3F JUMP JUMPDEST PUSH2 0x2EF JUMPI DUP6 PUSH0 PUSH2 0x258E JUMP JUMPDEST SWAP1 SWAP2 POP PUSH1 0x20 DUP2 RETURNDATASIZE PUSH1 0x20 GT PUSH2 0x28F0 JUMPI JUMPDEST DUP2 PUSH2 0x28DF PUSH1 0x20 SWAP4 DUP4 PUSH2 0x2B67 JUMP JUMPDEST DUP2 ADD SUB SLT PUSH2 0x733 JUMPI MLOAD SWAP1 PUSH1 0xB PUSH2 0x250C JUMP JUMPDEST RETURNDATASIZE SWAP2 POP PUSH2 0x28D2 JUMP JUMPDEST PUSH2 0x2901 SWAP2 PUSH2 0x2DFC JUMP JUMPDEST PUSH2 0x2412 JUMP JUMPDEST SWAP1 DUP7 DUP2 SLT PUSH2 0x2916 JUMPI JUMPDEST POP POP PUSH2 0x2412 JUMP JUMPDEST PUSH2 0x2710 SWAP2 SWAP3 POP PUSH2 0x1BB9 PUSH2 0x2928 SWAP2 PUSH2 0x2EF3 JUMP JUMPDEST DIV PUSH1 0x40 DUP4 ADD MLOAD ISZERO ISZERO PUSH0 EQ PUSH2 0x2946 JUMPI PUSH2 0x293F SWAP2 PUSH2 0x2DFC JUMP JUMPDEST PUSH0 DUP1 PUSH2 0x290F JUMP JUMPDEST PUSH2 0x294F SWAP2 PUSH2 0x2C7A JUMP JUMPDEST PUSH2 0x293F JUMP JUMPDEST SWAP1 SWAP2 POP PUSH1 0x20 DUP2 RETURNDATASIZE PUSH1 0x20 GT PUSH2 0x2980 JUMPI JUMPDEST DUP2 PUSH2 0x2970 PUSH1 0x20 SWAP4 DUP4 PUSH2 0x2B67 JUMP JUMPDEST DUP2 ADD SUB SLT PUSH2 0x733 JUMPI MLOAD SWAP1 PUSH0 PUSH2 0x23E4 JUMP JUMPDEST RETURNDATASIZE SWAP2 POP PUSH2 0x2963 JUMP JUMPDEST PUSH1 0x40 MLOAD PUSH3 0x461BCD PUSH1 0xE5 SHL DUP2 MSTORE PUSH1 0x20 PUSH1 0x4 DUP3 ADD MSTORE PUSH1 0xF PUSH1 0x24 DUP3 ADD MSTORE PUSH15 0x545741503A20746F6F206561726C79 PUSH1 0x88 SHL PUSH1 0x44 DUP3 ADD MSTORE PUSH1 0x64 SWAP1 REVERT JUMPDEST POP PUSH2 0x29D3 PUSH1 0x10 DUP4 ADD SLOAD PUSH1 0xE DUP5 ADD SLOAD SWAP1 PUSH2 0x2C7A JUMP JUMPDEST TIMESTAMP LT ISZERO PUSH2 0x2340 JUMP JUMPDEST PUSH1 0xFF SWAP2 SWAP3 POP PUSH2 0x29F8 SWAP1 PUSH1 0x40 RETURNDATASIZE PUSH1 0x40 GT PUSH2 0x399 JUMPI PUSH2 0x389 DUP2 DUP4 PUSH2 0x2B67 JUMP JUMPDEST POP SWAP2 SWAP1 PUSH2 0x1492 JUMP JUMPDEST PUSH1 0x40 MLOAD RETURNDATASIZE DUP8 DUP3 RETURNDATACOPY RETURNDATASIZE SWAP1 REVERT JUMPDEST PUSH1 0x3 SLOAD PUSH1 0x1 PUSH1 0x1 PUSH1 0xA0 SHL SUB AND SWAP2 DUP3 EXTCODESIZE ISZERO PUSH2 0x733 JUMPI PUSH1 0x40 MLOAD PUSH4 0x1DF3CBC5 PUSH1 0xE3 SHL DUP2 MSTORE SWAP3 PUSH0 SWAP3 DUP5 SWAP3 DUP4 SWAP2 DUP3 SWAP2 PUSH2 0x2A42 SWAP2 PUSH1 0x4 DUP5 ADD PUSH2 0x2B89 JUMP JUMPDEST SUB SWAP2 CALLVALUE SWAP1 GAS CALL DUP1 ISZERO PUSH2 0x2A6C JUMPI PUSH2 0x2A59 JUMPI JUMPDEST DUP1 PUSH2 0x1439 JUMP JUMPDEST PUSH2 0x2A64 SWAP2 SWAP3 POP PUSH2 0x2B3F JUMP JUMPDEST PUSH0 SWAP1 PUSH0 PUSH2 0x2A53 JUMP JUMPDEST PUSH1 0x40 MLOAD RETURNDATASIZE PUSH0 DUP3 RETURNDATACOPY RETURNDATASIZE SWAP1 REVERT JUMPDEST CALLVALUE PUSH2 0x733 JUMPI PUSH0 CALLDATASIZE PUSH1 0x3 NOT ADD SLT PUSH2 0x733 JUMPI PUSH1 0x20 SWAP1 PUSH1 0x6 SLOAD DUP2 MSTORE RETURN JUMPDEST PUSH1 0x40 PUSH1 0x3 NOT DUP3 ADD SLT PUSH2 0x733 JUMPI PUSH1 0x4 CALLDATALOAD SWAP2 PUSH1 0x24 CALLDATALOAD PUSH8 0xFFFFFFFFFFFFFFFF SWAP3 DUP4 DUP3 GT PUSH2 0x733 JUMPI DUP1 PUSH1 0x23 DUP4 ADD SLT ISZERO PUSH2 0x733 JUMPI DUP2 PUSH1 0x4 ADD CALLDATALOAD SWAP4 DUP5 GT PUSH2 0x733 JUMPI PUSH1 0x24 DUP5 PUSH1 0x5 SHL DUP4 ADD ADD GT PUSH2 0x733 JUMPI PUSH1 0x24 ADD SWAP2 SWAP1 JUMP JUMPDEST PUSH1 0x40 SWAP1 PUSH1 0x3 NOT ADD SLT PUSH2 0x733 JUMPI PUSH1 0x4 CALLDATALOAD PUSH1 0x1 PUSH1 0x1 PUSH1 0xA0 SHL SUB DUP2 AND DUP2 SUB PUSH2 0x733 JUMPI SWAP1 PUSH1 0x24 CALLDATALOAD SWAP1 JUMP JUMPDEST DUP1 SLOAD DUP3 LT ISZERO PUSH2 0x2B1C JUMPI PUSH0 MSTORE PUSH1 0x20 PUSH0 KECCAK256 ADD SWAP1 PUSH0 SWAP1 JUMP JUMPDEST PUSH4 0x4E487B71 PUSH1 0xE0 SHL PUSH0 MSTORE PUSH1 0x32 PUSH1 0x4 MSTORE PUSH1 0x24 PUSH0 REVERT JUMPDEST PUSH1 0x24 CALLDATALOAD SWAP1 DUP2 ISZERO ISZERO DUP3 SUB PUSH2 0x733 JUMPI JUMP JUMPDEST PUSH8 0xFFFFFFFFFFFFFFFF DUP2 GT PUSH2 0x2B53 JUMPI PUSH1 0x40 MSTORE JUMP JUMPDEST PUSH4 0x4E487B71 PUSH1 0xE0 SHL PUSH0 MSTORE PUSH1 0x41 PUSH1 0x4 MSTORE PUSH1 0x24 PUSH0 REVERT JUMPDEST SWAP1 PUSH1 0x1F DUP1 NOT SWAP2 ADD AND DUP2 ADD SWAP1 DUP2 LT PUSH8 0xFFFFFFFFFFFFFFFF DUP3 GT OR PUSH2 0x2B53 JUMPI PUSH1 0x40 MSTORE JUMP JUMPDEST SWAP2 PUSH1 0x20 DUP2 DUP2 DUP6 ADD DUP3 DUP7 MSTORE MSTORE PUSH1 0x40 DUP5 ADD SWAP4 PUSH1 0x40 DUP4 PUSH1 0x5 SHL DUP3 ADD ADD SWAP5 DUP5 PUSH0 SWAP3 JUMPDEST DUP6 DUP5 LT PUSH2 0x2BB8 JUMPI POP POP POP POP POP POP POP SWAP1 JUMP JUMPDEST SWAP1 SWAP2 SWAP3 SWAP4 SWAP5 SWAP6 SWAP7 PUSH1 0x3F NOT DUP3 DUP3 SUB ADD DUP5 MSTORE DUP8 CALLDATALOAD PUSH1 0x1E NOT DUP5 CALLDATASIZE SUB ADD DUP2 SLT ISZERO PUSH2 0x733 JUMPI DUP4 ADD DUP7 DUP2 ADD SWAP2 SWAP1 CALLDATALOAD PUSH8 0xFFFFFFFFFFFFFFFF DUP2 GT PUSH2 0x733 JUMPI DUP1 CALLDATASIZE SUB DUP4 SGT PUSH2 0x733 JUMPI DUP8 DUP3 DUP3 DUP1 PUSH1 0x1 SWAP7 DUP5 SWAP7 SWAP6 DUP6 SWAP7 MSTORE DUP5 DUP5 ADD CALLDATACOPY PUSH0 DUP3 DUP3 ADD DUP5 ADD MSTORE PUSH1 0x1F ADD PUSH1 0x1F NOT AND ADD ADD SWAP10 ADD SWAP8 SWAP7 SWAP6 SWAP2 SWAP1 SWAP2 ADD SWAP4 ADD SWAP2 SWAP1 PUSH2 0x2BA7 JUMP JUMPDEST ISZERO PUSH2 0x2C32 JUMPI JUMP JUMPDEST PUSH1 0x40 MLOAD PUSH3 0x461BCD PUSH1 0xE5 SHL DUP2 MSTORE PUSH1 0x20 PUSH1 0x4 DUP3 ADD MSTORE PUSH1 0xA PUSH1 0x24 DUP3 ADD MSTORE PUSH10 0x4E6F7420616374697665 PUSH1 0xB0 SHL PUSH1 0x44 DUP3 ADD MSTORE PUSH1 0x64 SWAP1 REVERT JUMPDEST SWAP2 SWAP1 DUP3 PUSH1 0x40 SWAP2 SUB SLT PUSH2 0x733 JUMPI PUSH1 0x20 DUP3 MLOAD SWAP3 ADD MLOAD SWAP1 JUMP JUMPDEST SWAP2 SWAP1 DUP3 ADD DUP1 SWAP3 GT PUSH2 0x2C87 JUMPI JUMP JUMPDEST PUSH4 0x4E487B71 PUSH1 0xE0 SHL PUSH0 MSTORE PUSH1 0x11 PUSH1 0x4 MSTORE PUSH1 0x24 PUSH0 REVERT JUMPDEST SWAP1 PUSH1 0x40 MLOAD PUSH2 0x280 DUP2 ADD DUP2 DUP2 LT PUSH8 0xFFFFFFFFFFFFFFFF DUP3 GT OR PUSH2 0x2B53 JUMPI PUSH1 0x40 MSTORE PUSH2 0x260 PUSH1 0x10 DUP3 SWAP5 DUP1 SLOAD DUP5 MSTORE PUSH1 0xFF PUSH1 0x1 DUP3 ADD SLOAD PUSH1 0x1 DUP1 PUSH1 0xA0 SHL SUB DUP2 AND PUSH1 0x20 DUP8 ADD MSTORE PUSH1 0xA0 SHR AND ISZERO ISZERO PUSH1 0x40 DUP6 ADD MSTORE PUSH1 0x2 DUP2 ADD SLOAD PUSH1 0x60 DUP6 ADD MSTORE PUSH1 0x3 DUP2 ADD SLOAD PUSH1 0x80 DUP6 ADD MSTORE PUSH1 0x4 DUP2 ADD SLOAD PUSH1 0xA0 DUP6 ADD MSTORE PUSH1 0x5 DUP2 ADD SLOAD PUSH1 0xC0 DUP6 ADD MSTORE PUSH1 0xFF PUSH1 0x6 DUP3 ADD SLOAD DUP2 DUP2 AND PUSH1 0xE0 DUP8 ADD MSTORE DUP2 DUP2 PUSH1 0x8 SHR AND ISZERO ISZERO PUSH2 0x100 DUP8 ADD MSTORE DUP4 SHR AND ISZERO ISZERO PUSH2 0x120 DUP6 ADD MSTORE PUSH1 0x7 DUP2 ADD SLOAD PUSH2 0x140 DUP6 ADD MSTORE PUSH1 0x8 DUP2 ADD SLOAD PUSH2 0x160 DUP6 ADD MSTORE PUSH1 0x9 DUP2 ADD SLOAD PUSH2 0x180 DUP6 ADD MSTORE PUSH1 0xA DUP2 ADD SLOAD PUSH2 0x1A0 DUP6 ADD MSTORE PUSH1 0xB DUP2 ADD SLOAD PUSH2 0x1C0 DUP6 ADD MSTORE PUSH1 0xC DUP2 ADD SLOAD PUSH2 0x1E0 DUP6 ADD MSTORE PUSH1 0xD DUP2 ADD SLOAD PUSH2 0x200 DUP6 ADD MSTORE PUSH1 0xE DUP2 ADD SLOAD PUSH2 0x220 DUP6 ADD MSTORE PUSH1 0xF DUP2 ADD SLOAD PUSH2 0x240 DUP6 ADD MSTORE ADD SLOAD SWAP2 ADD MSTORE JUMP JUMPDEST DUP2 ISZERO PUSH2 0x2DA9 JUMPI DIV SWAP1 JUMP JUMPDEST PUSH4 0x4E487B71 PUSH1 0xE0 SHL PUSH0 MSTORE PUSH1 0x12 PUSH1 0x4 MSTORE PUSH1 0x24 PUSH0 REVERT JUMPDEST RETURNDATASIZE ISZERO PUSH2 0x2DF7 JUMPI RETURNDATASIZE SWAP1 PUSH8 0xFFFFFFFFFFFFFFFF DUP3 GT PUSH2 0x2B53 JUMPI PUSH1 0x40 MLOAD SWAP2 PUSH2 0x2DEC PUSH1 0x1F DUP3 ADD PUSH1 0x1F NOT AND PUSH1 0x20 ADD DUP5 PUSH2 0x2B67 JUMP JUMPDEST DUP3 MSTORE RETURNDATASIZE PUSH0 PUSH1 0x20 DUP5 ADD RETURNDATACOPY JUMP JUMPDEST PUSH1 0x60 SWAP1 JUMP JUMPDEST SWAP2 SWAP1 DUP3 SUB SWAP2 DUP3 GT PUSH2 0x2C87 JUMPI JUMP JUMPDEST ISZERO PUSH2 0x2E10 JUMPI JUMP JUMPDEST PUSH1 0x40 MLOAD PUSH3 0x461BCD PUSH1 0xE5 SHL DUP2 MSTORE PUSH1 0x20 PUSH1 0x4 DUP3 ADD MSTORE PUSH1 0x9 PUSH1 0x24 DUP3 ADD MSTORE PUSH9 0x2737BA1037BBB732B9 PUSH1 0xB9 SHL PUSH1 0x44 DUP3 ADD MSTORE PUSH1 0x64 SWAP1 REVERT JUMPDEST DUP2 DUP2 MUL SWAP3 SWAP2 DUP2 ISZERO SWAP2 DUP5 DIV EQ OR ISZERO PUSH2 0x2C87 JUMPI JUMP JUMPDEST PUSH0 NOT DUP2 EQ PUSH2 0x2C87 JUMPI PUSH1 0x1 ADD SWAP1 JUMP JUMPDEST DUP1 SLOAD PUSH9 0x10000000000000000 DUP2 LT ISZERO PUSH2 0x2B53 JUMPI PUSH2 0x2E84 SWAP2 PUSH1 0x1 DUP3 ADD DUP2 SSTORE PUSH2 0x2B07 JUMP JUMPDEST DUP2 SWAP3 SWAP2 SLOAD SWAP1 PUSH1 0x3 SHL SWAP2 DUP3 SHL SWAP2 PUSH0 NOT SWAP1 SHL NOT AND OR SWAP1 SSTORE JUMP JUMPDEST ISZERO PUSH2 0x2EA2 JUMPI JUMP JUMPDEST PUSH1 0x40 MLOAD PUSH3 0x461BCD PUSH1 0xE5 SHL DUP2 MSTORE PUSH1 0x20 PUSH1 0x4 DUP3 ADD MSTORE PUSH1 0x8 PUSH1 0x24 DUP3 ADD MSTORE PUSH8 0x2737BA1037B832B7 PUSH1 0xC1 SHL PUSH1 0x44 DUP3 ADD MSTORE PUSH1 0x64 SWAP1 REVERT JUMPDEST PUSH1 0x2 PUSH0 SLOAD EQ PUSH2 0x2EE1 JUMPI PUSH1 0x2 PUSH0 SSTORE JUMP JUMPDEST PUSH1 0x40 MLOAD PUSH4 0x3EE5AEB5 PUSH1 0xE0 SHL DUP2 MSTORE PUSH1 0x4 SWAP1 REVERT JUMPDEST PUSH1 0x1 PUSH1 0xFF SHL DUP2 EQ PUSH2 0x2C87 JUMPI PUSH0 SUB SWAP1 JUMP JUMPDEST DUP2 DUP2 SUB SWAP3 SWAP2 PUSH0 SGT DUP1 ISZERO DUP3 DUP6 SGT AND SWAP2 DUP5 SLT AND OR PUSH2 0x2C87 JUMPI JUMP JUMPDEST DUP2 DUP2 MUL SWAP3 SWAP2 PUSH0 DUP3 SLT PUSH1 0x1 PUSH1 0xFF SHL DUP3 EQ AND PUSH2 0x2C87 JUMPI DUP2 DUP5 SDIV EQ SWAP1 ISZERO OR ISZERO PUSH2 0x2C87 JUMPI JUMP JUMPDEST DUP2 ISZERO PUSH2 0x2DA9 JUMPI PUSH1 0x1 PUSH1 0xFF SHL DUP2 EQ PUSH0 NOT DUP4 EQ AND PUSH2 0x2C87 JUMPI SDIV SWAP1 JUMP JUMPDEST SWAP1 PUSH1 0x40 MLOAD PUSH2 0x1A0 DUP2 ADD DUP2 DUP2 LT PUSH8 0xFFFFFFFFFFFFFFFF DUP3 GT OR PUSH2 0x2B53 JUMPI PUSH1 0x40 MSTORE PUSH2 0x180 PUSH1 0xB DUP3 SWAP5 DUP1 SLOAD DUP5 MSTORE PUSH1 0xFF PUSH1 0x1 DUP3 ADD SLOAD PUSH1 0x1 DUP1 PUSH1 0xA0 SHL SUB DUP2 AND PUSH1 0x20 DUP8 ADD MSTORE PUSH1 0xA0 SHR AND ISZERO ISZERO PUSH1 0x40 DUP6 ADD MSTORE PUSH1 0x2 DUP2 ADD SLOAD PUSH1 0x60 DUP6 ADD MSTORE PUSH1 0x3 DUP2 ADD SLOAD PUSH1 0x80 DUP6 ADD MSTORE PUSH1 0x4 DUP2 ADD SLOAD PUSH1 0xA0 DUP6 ADD MSTORE PUSH1 0x5 DUP2 ADD SLOAD PUSH1 0xC0 DUP6 ADD MSTORE PUSH1 0x6 DUP2 ADD SLOAD PUSH1 0xE0 DUP6 ADD MSTORE PUSH1 0x7 DUP2 ADD SLOAD PUSH2 0x100 DUP6 ADD MSTORE PUSH1 0xFF PUSH1 0x8 DUP3 ADD SLOAD AND ISZERO ISZERO PUSH2 0x120 DUP6 ADD MSTORE PUSH1 0x9 DUP2 ADD SLOAD PUSH2 0x140 DUP6 ADD MSTORE PUSH1 0xA DUP2 ADD SLOAD PUSH2 0x160 DUP6 ADD MSTORE ADD SLOAD SWAP2 ADD MSTORE JUMP JUMPDEST SWAP2 SWAP1 SWAP2 PUSH0 DUP4 DUP3 ADD SWAP4 DUP5 SLT SWAP2 SLT SWAP1 DUP1 ISZERO DUP3 AND SWAP2 ISZERO AND OR PUSH2 0x2C87 JUMPI JUMP JUMPDEST SWAP2 SWAP1 PUSH0 SWAP3 DUP1 PUSH0 MSTORE PUSH1 0x20 SWAP2 PUSH1 0x7 DUP4 MSTORE PUSH1 0x40 SWAP1 DUP2 PUSH0 KECCAK256 PUSH1 0x8 DUP2 ADD PUSH2 0x304B PUSH1 0xFF DUP3 SLOAD AND PUSH2 0x2E9B JUMP JUMPDEST PUSH1 0x1 DUP3 ADD DUP1 SLOAD PUSH1 0xA0 SHR PUSH1 0xFF AND ISZERO PUSH2 0x33D0 JUMPI PUSH2 0x3081 PUSH1 0x4 DUP5 ADD SLOAD PUSH2 0x307C PUSH2 0x3071 DUP3 DUP9 PUSH2 0x2F03 JUMP JUMPDEST PUSH1 0x2 DUP8 ADD SLOAD SWAP1 PUSH2 0x2F1B JUMP JUMPDEST PUSH2 0x2F3D JUMP JUMPDEST SWAP3 JUMPDEST PUSH1 0x1 DUP1 PUSH1 0xA0 SHL SUB SWAP3 DUP4 PUSH1 0x1 SLOAD AND SWAP1 PUSH1 0x2 DUP4 ADD SWAP3 DUP4 SLOAD SWAP4 DUP10 MLOAD SWAP4 PUSH4 0xE4D8CBE5 PUSH1 0xE0 SHL DUP6 MSTORE PUSH1 0x4 SWAP6 DUP7 DUP7 ADD MSTORE PUSH0 PUSH1 0x24 DUP7 ADD MSTORE DUP13 DUP6 PUSH1 0x44 DUP2 DUP5 GAS STATICCALL SWAP5 DUP6 ISZERO PUSH2 0x33C6 JUMPI DUP12 SWAP2 DUP15 SWAP2 PUSH0 SWAP8 PUSH2 0x3393 JUMPI JUMPDEST POP SWAP1 PUSH0 SWAP2 PUSH1 0x24 PUSH4 0xD693A400 PUSH2 0x3109 PUSH2 0x30E4 DUP10 PUSH2 0x2F57 JUMP JUMPDEST PUSH2 0x3104 PUSH1 0x60 PUSH2 0x30F8 PUSH2 0x100 DUP5 ADD MLOAD TIMESTAMP PUSH2 0x2DFC JUMP JUMPDEST SWAP3 ADD MLOAD PUSH1 0xB SLOAD SWAP1 PUSH2 0x2E41 JUMP JUMPDEST PUSH2 0x2E41 JUMP JUMPDEST DIV SWAP5 DUP8 SLOAD SWAP1 MLOAD SWAP5 DUP6 SWAP4 DUP5 SWAP3 PUSH4 0x7CC6765F PUSH1 0xE1 SHL DUP5 MSTORE DUP14 DUP5 ADD MSTORE GAS CALL DUP1 ISZERO PUSH2 0x3389 JUMPI SWAP1 DUP15 SWAP2 PUSH2 0x3360 JUMPI JUMPDEST POP POP PUSH2 0x315B PUSH2 0x3161 SWAP2 PUSH2 0x3156 PUSH2 0x314F PUSH2 0x314A DUP8 PUSH2 0x2F57 JUMP JUMPDEST PUSH2 0x365C JUMP JUMPDEST SWAP2 DUP9 PUSH2 0x300B JUMP JUMPDEST PUSH2 0x300B JUMP JUMPDEST DUP10 PUSH2 0x2F03 JUMP JUMPDEST DUP4 SLOAD PUSH1 0xFF NOT AND SWAP1 SWAP4 SSTORE PUSH1 0x1 SLOAD DUP3 SLOAD DUP8 SLOAD SWAP3 SLOAD SWAP1 SWAP2 DUP10 AND DUP1 EXTCODESIZE ISZERO PUSH2 0x733 JUMPI DUP13 MLOAD PUSH4 0x19CA2B9 PUSH1 0xE5 SHL DUP2 MSTORE DUP1 DUP10 ADD SWAP4 DUP5 MSTORE PUSH1 0x1 PUSH1 0x1 PUSH1 0xA0 SHL SUB DUP6 DUP13 AND AND PUSH1 0x20 DUP6 ADD MSTORE PUSH1 0xA0 SWAP5 SWAP1 SWAP5 SHR PUSH1 0xFF AND ISZERO ISZERO PUSH1 0x40 DUP5 ADD MSTORE PUSH1 0x60 DUP4 ADD SWAP2 SWAP1 SWAP2 MSTORE PUSH0 SWAP2 DUP4 SWAP2 SWAP1 DUP3 SWAP1 DUP5 SWAP1 DUP3 SWAP1 PUSH1 0x80 ADD SUB SWAP3 GAS CALL DUP1 ISZERO PUSH2 0x3356 JUMPI PUSH2 0x3341 JUMPI JUMPDEST POP SWAP1 DUP13 SWAP2 DUP3 DUP3 SGT PUSH2 0x32E6 JUMPI JUMPDEST DUP7 PUSH1 0x2 SLOAD AND PUSH1 0x3 DUP9 DUP9 SLOAD AND SWAP3 ADD SLOAD SWAP1 DUP1 EXTCODESIZE ISZERO PUSH2 0xD55 JUMPI DUP5 SWAP3 DUP4 PUSH1 0x64 SWAP3 DUP15 MLOAD SWAP7 DUP8 SWAP6 DUP7 SWAP5 PUSH4 0x118F3043 PUSH1 0xE0 SHL DUP7 MSTORE DUP13 DUP7 ADD MSTORE PUSH1 0x24 DUP6 ADD MSTORE PUSH1 0x44 DUP5 ADD MSTORE GAS CALL DUP1 ISZERO PUSH2 0x32DC JUMPI PUSH2 0x32C4 JUMPI JUMPDEST POP POP DUP1 PUSH2 0x3268 JUMPI JUMPDEST POP POP PUSH32 0x356FCA566F3A054A459C7224D9C9D634F31A98835CFD4FB4C5DDBF8B96ACA211 SWAP6 SWAP7 SWAP8 SWAP9 POP SLOAD AND SWAP6 DUP4 MLOAD SWAP3 DUP4 MSTORE DUP3 ADD MSTORE LOG3 JUMP JUMPDEST DUP11 SWAP1 DUP5 PUSH1 0x2 SLOAD AND SWAP3 DUP4 EXTCODESIZE ISZERO PUSH2 0x10B2 JUMPI PUSH1 0x24 SWAP1 DUP4 DUP11 MLOAD SWAP6 DUP7 SWAP5 DUP6 SWAP4 PUSH4 0x35B8E713 PUSH1 0xE0 SHL DUP6 MSTORE DUP5 ADD MSTORE GAS CALL DUP1 ISZERO PUSH2 0x32BA JUMPI PUSH2 0x32A2 JUMPI JUMPDEST DUP1 PUSH2 0x3232 JUMP JUMPDEST PUSH2 0x32AC DUP11 SWAP2 PUSH2 0x2B3F JUMP JUMPDEST PUSH2 0x32B6 JUMPI DUP9 PUSH2 0x329C JUMP JUMPDEST DUP9 DUP1 REVERT JUMPDEST DUP7 MLOAD RETURNDATASIZE DUP13 DUP3 RETURNDATACOPY RETURNDATASIZE SWAP1 REVERT JUMPDEST PUSH2 0x32CD SWAP1 PUSH2 0x2B3F JUMP JUMPDEST PUSH2 0x32D8 JUMPI DUP11 PUSH0 PUSH2 0x322A JUMP JUMPDEST DUP11 DUP1 REVERT JUMPDEST DUP10 MLOAD RETURNDATASIZE DUP5 DUP3 RETURNDATACOPY RETURNDATASIZE SWAP1 REVERT JUMPDEST DUP7 PUSH1 0x1 SLOAD AND DUP1 EXTCODESIZE ISZERO PUSH2 0x2FE JUMPI DUP4 DUP1 SWAP2 PUSH1 0x24 DUP14 MLOAD DUP1 SWAP5 DUP2 SWAP4 PUSH4 0x630304F9 PUSH1 0xE1 SHL DUP4 MSTORE DUP9 DUP13 DUP5 ADD MSTORE GAS CALL DUP1 ISZERO PUSH2 0x3337 JUMPI SWAP1 DUP5 SWAP2 PUSH2 0x3323 JUMPI JUMPDEST POP POP PUSH2 0x31E2 JUMP JUMPDEST PUSH2 0x332C SWAP1 PUSH2 0x2B3F JUMP JUMPDEST PUSH2 0x10B2 JUMPI DUP3 PUSH0 PUSH2 0x331C JUMP JUMPDEST DUP12 MLOAD RETURNDATASIZE DUP7 DUP3 RETURNDATACOPY RETURNDATASIZE SWAP1 REVERT JUMPDEST PUSH2 0x334D SWAP2 SWAP3 SWAP14 POP PUSH2 0x2B3F JUMP JUMPDEST PUSH0 SWAP12 SWAP1 PUSH0 PUSH2 0x31D6 JUMP JUMPDEST DUP11 MLOAD RETURNDATASIZE PUSH0 DUP3 RETURNDATACOPY RETURNDATASIZE SWAP1 REVERT JUMPDEST DUP2 RETURNDATASIZE DUP4 GT PUSH2 0x3382 JUMPI JUMPDEST PUSH2 0x3373 DUP2 DUP4 PUSH2 0x2B67 JUMP JUMPDEST DUP2 ADD SUB SLT PUSH2 0x733 JUMPI DUP13 PUSH0 PUSH2 0x3132 JUMP JUMPDEST POP RETURNDATASIZE PUSH2 0x3369 JUMP JUMPDEST DUP13 MLOAD RETURNDATASIZE PUSH0 DUP3 RETURNDATACOPY RETURNDATASIZE SWAP1 REVERT JUMPDEST SWAP3 POP SWAP6 POP DUP2 DUP2 RETURNDATASIZE DUP4 GT PUSH2 0x33BF JUMPI JUMPDEST PUSH2 0x33AB DUP2 DUP4 PUSH2 0x2B67 JUMP JUMPDEST DUP2 ADD SUB SLT PUSH2 0x733 JUMPI MLOAD SWAP4 DUP11 SWAP1 DUP14 SWAP1 PUSH0 PUSH2 0x30CD JUMP JUMPDEST POP RETURNDATASIZE PUSH2 0x33A1 JUMP JUMPDEST DUP12 MLOAD RETURNDATASIZE PUSH0 DUP3 RETURNDATACOPY RETURNDATASIZE SWAP1 REVERT JUMPDEST PUSH2 0x33E5 PUSH1 0x4 DUP5 ADD SLOAD PUSH2 0x307C PUSH2 0x3071 DUP8 DUP4 PUSH2 0x2F03 JUMP JUMPDEST SWAP3 PUSH2 0x3083 JUMP JUMPDEST SWAP1 DUP2 PUSH1 0x20 SWAP2 SUB SLT PUSH2 0x733 JUMPI MLOAD DUP1 ISZERO ISZERO DUP2 SUB PUSH2 0x733 JUMPI SWAP1 JUMP JUMPDEST PUSH1 0x20 SWAP1 PUSH1 0x44 PUSH1 0x1 DUP1 PUSH1 0xA0 SHL SUB SWAP2 PUSH0 DUP4 PUSH1 0x4 SLOAD AND PUSH1 0x40 MLOAD SWAP7 DUP8 SWAP6 DUP7 SWAP5 PUSH4 0xA9059CBB PUSH1 0xE0 SHL DUP7 MSTORE AND PUSH1 0x4 DUP6 ADD MSTORE PUSH1 0x24 DUP5 ADD MSTORE GAS CALL SWAP1 DUP2 ISZERO PUSH2 0x2A6C JUMPI PUSH0 SWAP2 PUSH2 0x3482 JUMPI JUMPDEST POP ISZERO PUSH2 0x344B JUMPI JUMP JUMPDEST PUSH1 0x40 MLOAD PUSH3 0x461BCD PUSH1 0xE5 SHL DUP2 MSTORE PUSH1 0x20 PUSH1 0x4 DUP3 ADD MSTORE PUSH1 0xF PUSH1 0x24 DUP3 ADD MSTORE PUSH15 0x151C985B9CD9995C8819985A5B1959 PUSH1 0x8A SHL PUSH1 0x44 DUP3 ADD MSTORE PUSH1 0x64 SWAP1 REVERT JUMPDEST PUSH2 0x34A4 SWAP2 POP PUSH1 0x20 RETURNDATASIZE PUSH1 0x20 GT PUSH2 0x34AA JUMPI JUMPDEST PUSH2 0x349C DUP2 DUP4 PUSH2 0x2B67 JUMP JUMPDEST DUP2 ADD SWAP1 PUSH2 0x33EB JUMP JUMPDEST PUSH0 PUSH2 0x3443 JUMP JUMPDEST POP RETURNDATASIZE PUSH2 0x3492 JUMP JUMPDEST SWAP2 PUSH1 0x64 PUSH1 0x20 SWAP3 SWAP4 PUSH0 PUSH1 0x1 DUP1 PUSH1 0xA0 SHL SUB SWAP4 DUP5 PUSH1 0x4 SLOAD AND SWAP1 DUP6 PUSH1 0x40 MLOAD SWAP9 DUP10 SWAP8 DUP9 SWAP7 PUSH4 0x23B872DD PUSH1 0xE0 SHL DUP9 MSTORE AND PUSH1 0x4 DUP8 ADD MSTORE AND PUSH1 0x24 DUP6 ADD MSTORE PUSH1 0x44 DUP5 ADD MSTORE GAS CALL SWAP1 DUP2 ISZERO PUSH2 0x2A6C JUMPI PUSH0 SWAP2 PUSH2 0x353E JUMPI JUMPDEST POP ISZERO PUSH2 0x3503 JUMPI JUMP JUMPDEST PUSH1 0x40 MLOAD PUSH3 0x461BCD PUSH1 0xE5 SHL DUP2 MSTORE PUSH1 0x20 PUSH1 0x4 DUP3 ADD MSTORE PUSH1 0x13 PUSH1 0x24 DUP3 ADD MSTORE PUSH19 0x151C985B9CD9995C919C9BDB4819985A5B1959 PUSH1 0x6A SHL PUSH1 0x44 DUP3 ADD MSTORE PUSH1 0x64 SWAP1 REVERT JUMPDEST PUSH2 0x3557 SWAP2 POP PUSH1 0x20 RETURNDATASIZE PUSH1 0x20 GT PUSH2 0x34AA JUMPI PUSH2 0x349C DUP2 DUP4 PUSH2 0x2B67 JUMP JUMPDEST PUSH0 PUSH2 0x34FB JUMP JUMPDEST PUSH1 0x1 SLOAD PUSH1 0x40 MLOAD PUSH4 0x35123BAF PUSH1 0xE2 SHL DUP2 MSTORE SWAP2 SWAP3 SWAP2 SWAP1 PUSH1 0x20 SWAP1 DUP3 SWAP1 PUSH1 0x4 SWAP1 DUP3 SWAP1 PUSH1 0x1 PUSH1 0x1 PUSH1 0xA0 SHL SUB AND GAS STATICCALL SWAP1 DUP2 ISZERO PUSH2 0x2A6C JUMPI PUSH0 SWAP2 PUSH2 0x360B JUMPI JUMPDEST POP PUSH1 0xA DUP2 ADD DUP1 SWAP2 GT PUSH2 0x2C87 JUMPI DUP2 PUSH2 0x35AA SWAP2 PUSH2 0x2E41 JUMP JUMPDEST PUSH2 0x2328 SWAP2 SWAP1 DUP3 DUP2 LT PUSH2 0x35F3 JUMPI POP POP POP PUSH1 0x64 SWAP2 JUMPDEST ISZERO PUSH2 0x35DC JUMPI PUSH2 0x2710 PUSH2 0x35D2 PUSH2 0x35D9 SWAP4 DUP4 PUSH2 0x2E41 JUMP JUMPDEST DIV SWAP1 PUSH2 0x2DFC JUMP JUMPDEST SWAP1 JUMP JUMPDEST PUSH2 0x2710 PUSH2 0x35EC PUSH2 0x35D9 SWAP4 DUP4 PUSH2 0x2E41 JUMP JUMPDEST DIV SWAP1 PUSH2 0x2C7A JUMP JUMPDEST DUP3 SUB SWAP2 DUP3 GT PUSH2 0x2C87 JUMPI PUSH2 0x3605 SWAP2 PUSH2 0x2D9F JUMP JUMPDEST SWAP2 PUSH2 0x35BD JUMP JUMPDEST SWAP1 POP PUSH1 0x20 DUP2 RETURNDATASIZE PUSH1 0x20 GT PUSH2 0x3635 JUMPI JUMPDEST DUP2 PUSH2 0x3626 PUSH1 0x20 SWAP4 DUP4 PUSH2 0x2B67 JUMP JUMPDEST DUP2 ADD SUB SLT PUSH2 0x733 JUMPI MLOAD PUSH0 PUSH2 0x3594 JUMP JUMPDEST RETURNDATASIZE SWAP2 POP PUSH2 0x3619 JUMP JUMPDEST SWAP1 DUP2 PUSH1 0x20 SWAP2 SUB SLT PUSH2 0x733 JUMPI MLOAD PUSH1 0x1 PUSH1 0x1 PUSH1 0xA0 SHL SUB DUP2 AND DUP2 SUB PUSH2 0x733 JUMPI SWAP1 JUMP JUMPDEST PUSH1 0x1 DUP1 PUSH1 0xA0 SHL SUB PUSH1 0x1 SLOAD AND SWAP1 PUSH1 0x20 DUP2 MLOAD PUSH1 0x24 PUSH1 0x40 MLOAD DUP1 SWAP6 DUP2 SWAP4 PUSH4 0x4655F1EB PUSH1 0xE0 SHL DUP4 MSTORE PUSH1 0x4 DUP4 ADD MSTORE GAS STATICCALL SWAP2 DUP3 ISZERO PUSH2 0x2A6C JUMPI PUSH0 SWAP3 PUSH2 0x36DF JUMPI JUMPDEST POP PUSH2 0x36AE PUSH8 0xDE0B6B3A7640000 SWAP3 PUSH2 0x180 DUP4 ADD MLOAD SWAP1 PUSH2 0x2F03 JUMP JUMPDEST PUSH1 0x40 DUP3 ADD MLOAD ISZERO PUSH2 0x36C9 JUMPI PUSH1 0x60 PUSH2 0x36C5 SWAP3 ADD MLOAD PUSH2 0x2F1B JUMP JUMPDEST SDIV SWAP1 JUMP JUMPDEST PUSH2 0x36DA SWAP1 PUSH1 0x60 PUSH2 0x36C5 SWAP4 ADD MLOAD PUSH2 0x2F1B JUMP JUMPDEST PUSH2 0x2EF3 JUMP JUMPDEST SWAP2 POP PUSH1 0x20 DUP3 RETURNDATASIZE PUSH1 0x20 GT PUSH2 0x370D JUMPI JUMPDEST DUP2 PUSH2 0x36FA PUSH1 0x20 SWAP4 DUP4 PUSH2 0x2B67 JUMP JUMPDEST DUP2 ADD SUB SLT PUSH2 0x733 JUMPI SWAP1 MLOAD SWAP1 PUSH2 0x36AE PUSH2 0x3694 JUMP JUMPDEST RETURNDATASIZE SWAP2 POP PUSH2 0x36ED JUMP INVALID MSTORE 0xCA PREVRANDAO 0xDE 0xA9 SELFBALANCE BLOBHASH 0xAA 0xDF 0xAA 0x4D CALLDATACOPY BLOBHASH LOG0 ORIGIN GASPRICE CALLER 0xB3 0xA6 NUMBER BLOBBASEFEE 0xDC SELFDESTRUCT CREATE2 0x2A 0xD5 0x4C MLOAD 0x1F SSTORE PUSH26 0xC7A26469706673582212207B7686B7AF02F114F509A31F46E4A4 CALLCODE 0xC0 DELEGATECALL 0xDA PUSH10 0xE3EA74218B2027F8EED5 LOG2 BYTE PUSH5 0x736F6C6343 STOP ADDMOD XOR STOP CALLER "},"methodIdentifiers":{"MIN_POSITION_SIZE()":"368dbba8","cancelOrder(uint256)":"514fcac7","core()":"f2f4eb26","createCloseRequest(uint256)":"9bfe7e3e","createTwapOrder(bytes32,bool,uint256,uint256,uint256,uint256,uint256,uint256)":"6fb197f7","executeOrder(uint256,bytes[])":"33e7dddb","executeTPSL(uint256,bytes[])":"80b74258","liquidate(uint256,bytes[])":"f6614170","liquidationRewardBps()":"effaed89","nextOrderId()":"2a58b330","nextPositionId()":"899346c7","oracle()":"7dc0d1d0","pendingOrders(uint256)":"c3aaea4e","placeOrder(bytes32,bool,uint256,uint256,uint256,uint8,bool,uint256,uint256)":"666c187e","positions(uint256)":"99fbab88","rolloverFeePerHour()":"8fb735ee","usdc()":"3e413bee","userOrders(address,uint256)":"856652e9","userPositions(address,uint256)":"5e1b4d99","vault()":"fbfa77cf"}}}}}