{"project/src/ConfidentialCore.sol":{"ConfidentialCore":{"abi":[{"inputs":[{"internalType":"address","name":"_usdc","type":"address"},{"internalType":"address","name":"_oracle","type":"address"}],"stateMutability":"nonpayable","type":"constructor"},{"inputs":[],"name":"ExceedsMaxLeverage","type":"error"},{"inputs":[],"name":"ExceedsMaxOI","type":"error"},{"inputs":[],"name":"ExceedsMaxPositionSize","type":"error"},{"inputs":[],"name":"ExceedsUtilizationCap","type":"error"},{"inputs":[],"name":"InvalidFeeSplit","type":"error"},{"inputs":[],"name":"IsPaused","type":"error"},{"inputs":[],"name":"OnlyOwner","type":"error"},{"inputs":[],"name":"OnlyTrading","type":"error"},{"inputs":[],"name":"PairNotActive","type":"error"},{"inputs":[],"name":"ZeroAddress","type":"error"},{"anonymous":false,"inputs":[{"indexed":false,"internalType":"uint256","name":"dailyLoss","type":"uint256"},{"indexed":false,"internalType":"uint256","name":"threshold","type":"uint256"}],"name":"CircuitBreakerTriggered","type":"event"},{"anonymous":false,"inputs":[{"indexed":false,"internalType":"uint256","name":"toVault","type":"uint256"},{"indexed":false,"internalType":"uint256","name":"toTreasury","type":"uint256"}],"name":"FeeDistributed","type":"event"},{"anonymous":false,"inputs":[{"indexed":true,"internalType":"bytes32","name":"pairId","type":"bytes32"},{"indexed":false,"internalType":"int256","name":"newCumulativeIndex","type":"int256"},{"indexed":false,"internalType":"int256","name":"delta","type":"int256"}],"name":"FundingUpdated","type":"event"},{"anonymous":false,"inputs":[{"indexed":true,"internalType":"address","name":"current","type":"address"},{"indexed":true,"internalType":"address","name":"pending","type":"address"}],"name":"OwnershipTransferStarted","type":"event"},{"anonymous":false,"inputs":[{"indexed":true,"internalType":"address","name":"prev","type":"address"},{"indexed":true,"internalType":"address","name":"next","type":"address"}],"name":"OwnershipTransferred","type":"event"},{"anonymous":false,"inputs":[{"indexed":true,"internalType":"bytes32","name":"pairId","type":"bytes32"},{"indexed":false,"internalType":"uint256","name":"maxLeverage","type":"uint256"},{"indexed":false,"internalType":"uint256","name":"maxLongOI","type":"uint256"},{"indexed":false,"internalType":"uint256","name":"maxShortOI","type":"uint256"}],"name":"PairAdded","type":"event"},{"anonymous":false,"inputs":[{"indexed":true,"internalType":"bytes32","name":"pairId","type":"bytes32"},{"indexed":false,"internalType":"bool","name":"active","type":"bool"}],"name":"PairToggled","type":"event"},{"anonymous":false,"inputs":[{"indexed":true,"internalType":"bytes32","name":"pairId","type":"bytes32"}],"name":"PairUpdated","type":"event"},{"anonymous":false,"inputs":[],"name":"Paused","type":"event"},{"anonymous":false,"inputs":[],"name":"Unpaused","type":"event"},{"inputs":[],"name":"acceptOwnership","outputs":[],"stateMutability":"nonpayable","type":"function"},{"inputs":[{"internalType":"string","name":"pairName","type":"string"},{"internalType":"bytes32","name":"pythFeedId","type":"bytes32"},{"internalType":"uint256","name":"maxLeverage","type":"uint256"},{"internalType":"uint256","name":"maxLongOI_","type":"uint256"},{"internalType":"uint256","name":"maxShortOI_","type":"uint256"},{"internalType":"uint256","name":"maxPositionPct","type":"uint256"}],"name":"addPair","outputs":[],"stateMutability":"nonpayable","type":"function"},{"inputs":[{"internalType":"bytes32","name":"pairId","type":"bytes32"},{"internalType":"bool","name":"isLong","type":"bool"},{"internalType":"uint256","name":"sizeUsd","type":"uint256"}],"name":"calcPriceImpact","outputs":[{"internalType":"int256","name":"impactBps","type":"int256"}],"stateMutability":"view","type":"function"},{"inputs":[{"internalType":"uint256","name":"sizeUsd","type":"uint256"}],"name":"calculateFee","outputs":[{"internalType":"uint256","name":"","type":"uint256"}],"stateMutability":"view","type":"function"},{"inputs":[{"internalType":"uint256","name":"sizeUsd","type":"uint256"},{"internalType":"bool","name":"isMaker","type":"bool"}],"name":"calculateFee","outputs":[{"internalType":"uint256","name":"","type":"uint256"}],"stateMutability":"view","type":"function"},{"inputs":[{"internalType":"bytes32","name":"","type":"bytes32"}],"name":"cumulativeFundingIndex","outputs":[{"internalType":"int256","name":"","type":"int256"}],"stateMutability":"view","type":"function"},{"inputs":[],"name":"dailyLossResetTime","outputs":[{"internalType":"uint256","name":"","type":"uint256"}],"stateMutability":"view","type":"function"},{"inputs":[],"name":"dailyLossTracker","outputs":[{"internalType":"uint256","name":"","type":"uint256"}],"stateMutability":"view","type":"function"},{"inputs":[{"internalType":"bytes32","name":"pairId","type":"bytes32"},{"internalType":"address","name":"user","type":"address"},{"internalType":"bool","name":"isLong","type":"bool"},{"internalType":"uint256","name":"sizeUsd","type":"uint256"}],"name":"decreaseOI","outputs":[],"stateMutability":"nonpayable","type":"function"},{"inputs":[],"name":"fundingRateCoefficient","outputs":[{"internalType":"uint256","name":"","type":"uint256"}],"stateMutability":"view","type":"function"},{"inputs":[{"internalType":"uint256","name":"totalFee","type":"uint256"}],"name":"getFeeSplit","outputs":[{"internalType":"uint256","name":"toVault","type":"uint256"},{"internalType":"uint256","name":"toTreasury","type":"uint256"}],"stateMutability":"view","type":"function"},{"inputs":[{"internalType":"bytes32","name":"pairId","type":"bytes32"}],"name":"getNetOI","outputs":[{"internalType":"int256","name":"","type":"int256"}],"stateMutability":"view","type":"function"},{"inputs":[{"internalType":"bytes32","name":"pairId","type":"bytes32"}],"name":"getOIInfo","outputs":[{"internalType":"uint256","name":"longOI_","type":"uint256"},{"internalType":"uint256","name":"shortOI_","type":"uint256"},{"internalType":"uint256","name":"maxLong_","type":"uint256"},{"internalType":"uint256","name":"maxShort_","type":"uint256"}],"stateMutability":"view","type":"function"},{"inputs":[{"internalType":"bytes32","name":"pairId","type":"bytes32"}],"name":"getPairConfig","outputs":[{"components":[{"internalType":"bytes32","name":"pairId","type":"bytes32"},{"internalType":"bytes32","name":"pythFeedId","type":"bytes32"},{"internalType":"uint256","name":"maxLeverage","type":"uint256"},{"internalType":"uint256","name":"maxLongOI","type":"uint256"},{"internalType":"uint256","name":"maxShortOI","type":"uint256"},{"internalType":"uint256","name":"maxPositionPct","type":"uint256"},{"internalType":"bool","name":"active","type":"bool"}],"internalType":"struct ConfidentialCore.PairConfig","name":"","type":"tuple"}],"stateMutability":"view","type":"function"},{"inputs":[],"name":"getPairCount","outputs":[{"internalType":"uint256","name":"","type":"uint256"}],"stateMutability":"view","type":"function"},{"inputs":[{"internalType":"bytes32","name":"pairId","type":"bytes32"}],"name":"getProjectedFundingRate","outputs":[{"internalType":"int256","name":"","type":"int256"}],"stateMutability":"view","type":"function"},{"inputs":[{"internalType":"bytes32","name":"pairId","type":"bytes32"},{"internalType":"address","name":"user","type":"address"},{"internalType":"bool","name":"isLong","type":"bool"},{"internalType":"uint256","name":"sizeUsd","type":"uint256"}],"name":"increaseOI","outputs":[],"stateMutability":"nonpayable","type":"function"},{"inputs":[{"internalType":"bytes32","name":"","type":"bytes32"}],"name":"lastFundingUpdate","outputs":[{"internalType":"uint256","name":"","type":"uint256"}],"stateMutability":"view","type":"function"},{"inputs":[{"internalType":"bytes32","name":"","type":"bytes32"}],"name":"longOI","outputs":[{"internalType":"uint256","name":"","type":"uint256"}],"stateMutability":"view","type":"function"},{"inputs":[],"name":"makerFeeBps","outputs":[{"internalType":"uint256","name":"","type":"uint256"}],"stateMutability":"view","type":"function"},{"inputs":[],"name":"maxDailyDrawdownBps","outputs":[{"internalType":"uint256","name":"","type":"uint256"}],"stateMutability":"view","type":"function"},{"inputs":[],"name":"maxPriceImpactBps","outputs":[{"internalType":"uint256","name":"","type":"uint256"}],"stateMutability":"view","type":"function"},{"inputs":[],"name":"minPositionDuration","outputs":[{"internalType":"uint256","name":"","type":"uint256"}],"stateMutability":"view","type":"function"},{"inputs":[],"name":"oracle","outputs":[{"internalType":"contract PythPriceOracle","name":"","type":"address"}],"stateMutability":"view","type":"function"},{"inputs":[],"name":"owner","outputs":[{"internalType":"address","name":"","type":"address"}],"stateMutability":"view","type":"function"},{"inputs":[{"internalType":"uint256","name":"","type":"uint256"}],"name":"pairList","outputs":[{"internalType":"bytes32","name":"","type":"bytes32"}],"stateMutability":"view","type":"function"},{"inputs":[{"internalType":"bytes32","name":"","type":"bytes32"}],"name":"pairs","outputs":[{"internalType":"bytes32","name":"pairId","type":"bytes32"},{"internalType":"bytes32","name":"pythFeedId","type":"bytes32"},{"internalType":"uint256","name":"maxLeverage","type":"uint256"},{"internalType":"uint256","name":"maxLongOI","type":"uint256"},{"internalType":"uint256","name":"maxShortOI","type":"uint256"},{"internalType":"uint256","name":"maxPositionPct","type":"uint256"},{"internalType":"bool","name":"active","type":"bool"}],"stateMutability":"view","type":"function"},{"inputs":[],"name":"pause","outputs":[],"stateMutability":"nonpayable","type":"function"},{"inputs":[],"name":"paused","outputs":[{"internalType":"bool","name":"","type":"bool"}],"stateMutability":"view","type":"function"},{"inputs":[],"name":"pendingOwner","outputs":[{"internalType":"address","name":"","type":"address"}],"stateMutability":"view","type":"function"},{"inputs":[{"internalType":"uint256","name":"_vaultBps","type":"uint256"},{"internalType":"uint256","name":"_treasuryBps","type":"uint256"}],"name":"setFeeSplit","outputs":[],"stateMutability":"nonpayable","type":"function"},{"inputs":[{"internalType":"uint256","name":"_coefficient","type":"uint256"}],"name":"setFundingRateCoefficient","outputs":[],"stateMutability":"nonpayable","type":"function"},{"inputs":[{"internalType":"uint256","name":"_bps","type":"uint256"}],"name":"setMaxDailyDrawdown","outputs":[],"stateMutability":"nonpayable","type":"function"},{"inputs":[{"internalType":"uint256","name":"_maxBps","type":"uint256"}],"name":"setMaxPriceImpact","outputs":[],"stateMutability":"nonpayable","type":"function"},{"inputs":[{"internalType":"uint256","name":"_seconds","type":"uint256"}],"name":"setMinPositionDuration","outputs":[],"stateMutability":"nonpayable","type":"function"},{"inputs":[{"internalType":"address","name":"_trading","type":"address"}],"name":"setTrading","outputs":[],"stateMutability":"nonpayable","type":"function"},{"inputs":[{"internalType":"uint256","name":"_takerBps","type":"uint256"},{"internalType":"uint256","name":"_makerBps","type":"uint256"}],"name":"setTradingFees","outputs":[],"stateMutability":"nonpayable","type":"function"},{"inputs":[{"internalType":"address","name":"_treasury","type":"address"}],"name":"setTreasury","outputs":[],"stateMutability":"nonpayable","type":"function"},{"inputs":[{"internalType":"uint256","name":"_capBps","type":"uint256"}],"name":"setUtilizationCap","outputs":[],"stateMutability":"nonpayable","type":"function"},{"inputs":[{"internalType":"address","name":"_vault","type":"address"}],"name":"setVault","outputs":[],"stateMutability":"nonpayable","type":"function"},{"inputs":[{"internalType":"bytes32","name":"","type":"bytes32"}],"name":"shortOI","outputs":[{"internalType":"uint256","name":"","type":"uint256"}],"stateMutability":"view","type":"function"},{"inputs":[],"name":"takerFeeBps","outputs":[{"internalType":"uint256","name":"","type":"uint256"}],"stateMutability":"view","type":"function"},{"inputs":[{"internalType":"bytes32","name":"pairId","type":"bytes32"},{"internalType":"bool","name":"active","type":"bool"}],"name":"togglePair","outputs":[],"stateMutability":"nonpayable","type":"function"},{"inputs":[{"internalType":"uint256","name":"lossAmount","type":"uint256"}],"name":"trackVaultLoss","outputs":[],"stateMutability":"nonpayable","type":"function"},{"inputs":[],"name":"trading","outputs":[{"internalType":"address","name":"","type":"address"}],"stateMutability":"view","type":"function"},{"inputs":[{"internalType":"address","name":"newOwner","type":"address"}],"name":"transferOwnership","outputs":[],"stateMutability":"nonpayable","type":"function"},{"inputs":[],"name":"treasury","outputs":[{"internalType":"address","name":"","type":"address"}],"stateMutability":"view","type":"function"},{"inputs":[],"name":"treasuryFeeBps","outputs":[{"internalType":"uint256","name":"","type":"uint256"}],"stateMutability":"view","type":"function"},{"inputs":[],"name":"unpause","outputs":[],"stateMutability":"nonpayable","type":"function"},{"inputs":[{"internalType":"bytes32","name":"pairId","type":"bytes32"}],"name":"updateFunding","outputs":[{"internalType":"int256","name":"","type":"int256"}],"stateMutability":"nonpayable","type":"function"},{"inputs":[{"internalType":"bytes32","name":"pairId","type":"bytes32"},{"internalType":"uint256","name":"maxLeverage_","type":"uint256"}],"name":"updatePairLeverage","outputs":[],"stateMutability":"nonpayable","type":"function"},{"inputs":[{"internalType":"bytes32","name":"pairId","type":"bytes32"},{"internalType":"uint256","name":"maxLongOI_","type":"uint256"},{"internalType":"uint256","name":"maxShortOI_","type":"uint256"},{"internalType":"uint256","name":"maxPositionPct","type":"uint256"}],"name":"updatePairLimits","outputs":[],"stateMutability":"nonpayable","type":"function"},{"inputs":[],"name":"usdc","outputs":[{"internalType":"address","name":"","type":"address"}],"stateMutability":"view","type":"function"},{"inputs":[{"internalType":"bytes32","name":"","type":"bytes32"},{"internalType":"address","name":"","type":"address"}],"name":"userLongOI","outputs":[{"internalType":"uint256","name":"","type":"uint256"}],"stateMutability":"view","type":"function"},{"inputs":[{"internalType":"bytes32","name":"","type":"bytes32"},{"internalType":"address","name":"","type":"address"}],"name":"userShortOI","outputs":[{"internalType":"uint256","name":"","type":"uint256"}],"stateMutability":"view","type":"function"},{"inputs":[],"name":"utilizationCapBps","outputs":[{"internalType":"uint256","name":"","type":"uint256"}],"stateMutability":"view","type":"function"},{"inputs":[{"internalType":"bytes32","name":"pairId","type":"bytes32"},{"internalType":"address","name":"user","type":"address"},{"internalType":"bool","name":"isLong","type":"bool"},{"internalType":"uint256","name":"sizeUsd","type":"uint256"},{"internalType":"uint256","name":"leverage","type":"uint256"}],"name":"validateOpenPosition","outputs":[],"stateMutability":"view","type":"function"},{"inputs":[],"name":"vault","outputs":[{"internalType":"address","name":"","type":"address"}],"stateMutability":"view","type":"function"},{"inputs":[],"name":"vaultFeeBps","outputs":[{"internalType":"uint256","name":"","type":"uint256"}],"stateMutability":"view","type":"function"}],"evm":{"bytecode":{"linkReferences":{},"object":"60a034620000fc57601f62001fb638819003918201601f19168301916001600160401b0383118484101762000100578084926040948552833981010312620000fc576200005a6020620000528362000114565b920162000114565b60046006556002600755611b58600855610bb86009819055611f40600a556064600b819055600e5560056015556016556001600160a01b0390828216158015620000f1575b620000df5760018060a01b03199233845f5416175f556080521690600254161760025542601855604051611e8c90816200012a8239608051816113c80152f35b60405163d92e233d60e01b8152600490fd5b50818116156200009f565b5f80fd5b634e487b7160e01b5f52604160045260245ffd5b51906001600160a01b0382168203620000fc5756fe6080604081815260049182361015610015575f80fd5b5f3560e01c9081631b57301914611849575080632de900b51461182b57806333945720146116db578063353081e51461165f5780633b608af2146116255780633c098f10146115ad5780633e153c40146113f75780633e413bee146113b45780633f4ba83a1461135f5780634655f1eb1461133857806353c915f81461131a5780635a109871146112db5780635c975abb146112b557806361d027b31461128d5780636321de7f1461126f5780636510053114611248578063673e0481146111dc5780636811dbb2146111765780636817031b1461112b5780636a37a22a1461104e57806379ba509714610faa5780637dc0d1d014610f825780637e6335c714610f345780637e8d588314610f16578063806954e314610ee5578063837df08e14610ea65780638456cb5914610e4b5780638da5cb5b14610e245780638da97d9d14610dd05780638e8c779114610d985780639124d0cb14610d7a57806393359fe414610d5c57806399a5d74714610d375780639cf2ebf514610d19578063a553906c14610cb3578063a7432ecc14610c31578063ac1fff0514610bc1578063acc87ba614610b54578063aec376cd14610b36578063b391decf14610b0c578063b65b361f14610a5e578063bd79156f1461080a578063c60609f2146106a8578063c8d594db1461068a578063d448eebc1461066c578063daf012e61461064e578063dc5998e0146105e7578063dd2bb29f146105c9578063dd561c8c146105a2578063decbc2b71461057b578063e30c397814610553578063e4d8cbe514610510578063e80cfa5e146104f2578063ec44acf2146104cb578063f0f4426014610470578063f2fde38b146103df578063f98cecbe1461039c578063fbfa77cf146103745763fda5ecb1146102a8575f80fd5b34610370576102b63661192e565b5f5490939192906001600160a01b0316330361036357603283111580610358575b15610326578383106102ed575050600655600755005b906020606492519162461bcd60e51b835282015260136024820152722a30b5b2b91036bab9ba101f1e9026b0b5b2b960691b6044820152fd5b906020606492519162461bcd60e51b8352820152600c60248201526b08ccaca40e8dede40d0d2ced60a31b6044820152fd5b5060328411156102d7565b51635fc483c560e01b8152fd5b5f80fd5b5034610370575f3660031901126103705760035490516001600160a01b039091168152602090f35b50346103705760203660031901126103705781546001600160a01b031633036103d2576103cb60209235611d03565b9051908152f35b5163e9e3f4ad60e01b8152fd5b509034610370576020366003190112610370576103fa6118d2565b5f546001600160a01b039081169291338490036104605716928315610453575050600180546001600160a01b031916831790557f38d16b8cac22d99fc7c124b9cd0de2d3fa1faef420bfe791d8c362d765e227005f80a3005b5163d92e233d60e01b8152fd5b8451635fc483c560e01b81528390fd5b5090346103705760203660031901126103705761048b6118d2565b5f546001600160a01b039190821633036104bb571691821561045357600580546001600160a01b03191684179055005b8351635fc483c560e01b81528390fd5b5034610370575f36600319011261037057905490516001600160a01b039091168152602090f35b5034610370575f366003190112610370576020906009549051908152f35b50346103705780600319360112610370576127106105426020936105326118e8565b1561054a57600754905b356119ae565b049051908152f35b6006549061053c565b5034610370575f3660031901126103705760015490516001600160a01b039091168152602090f35b503461037057602036600319011261037057602091355f52600d8252805f20549051908152f35b503461037057602036600319011261037057602091355f5260128252805f20549051908152f35b5034610370575f366003190112610370576020906008549051908152f35b509034610370576020366003190112610370575f54813592906001600160a01b031633036103635761012c831161061f576015839055005b906020606492519162461bcd60e51b8352820152600960248201526826b0bc101a9036b4b760b91b6044820152fd5b5034610370575f366003190112610370576020906015549051908152f35b5034610370575f366003190112610370576020906006549051908152f35b5034610370575f366003190112610370576020906007549051908152f35b503461037057602091826003193601126103705780546001600160a01b039190821633036107fc576018546201518081018091116107e9574210156107dc575b6106f58135601754611a4d565b91826017556003541680610706575b005b5f80918551878101906278744560e21b825285815261072481611a0f565b51915afa610730611cc4565b90806107d1575b61073d57005b84818051810103126103705784015190811561070457612710908184029184830414841517156107be575090610772916119c1565b60165480911161077e57005b7fc1b68f84e2906898e13e04dfea4f2ca4c44015fceb114b71916f54a7072712a693600160a01b60ff60a01b1960015416176001558351928352820152a1005b601190634e487b7160e01b5f525260245ffd5b508481511015610737565b5f601755426018556106e8565b601182634e487b7160e01b5f525260245ffd5b825163e9e3f4ad60e01b8152fd5b50346103705760a03660031901126103705781356108266118bc565b9060443580151581036103705760643560ff60015460a01c16610a4e57825f52602093600f8552855f20865161085b816119df565b81548152600182015487820152600282015494888201958652600383015495606083019687528a840154926080810193845260ff600660058701549660a08401978852015416159060c08215910152610a3e575160843511610a2e57156109bf5750845f52601186526108d183885f2054611a4d565b8451106109af575180610960575b50505050505b6003546001600160a01b0316806108f857005b5f8091845184810190637510e6c960e11b825287815261091781611a0f565b51915afa610923611cc4565b9080610955575b61093057005b8181805181010312610370570151600a541061094857005b516324e397d360e21b8152fd5b50818151101561092a565b6109716127109161099295516119ae565b04935f5260138552855f209060018060a01b03165f528452845f2054611a4d565b116109a1575f808080806108df565b5051639f17b34d60e01b8152fd5b8651638a9d1c4160e01b81528890fd5b9350845f52601286526109d583885f2054611a4d565b8451106109af5751806109ed575b50505050506108e5565b6109fe61271091610a1f95516119ae565b04935f5260148552855f209060018060a01b03165f528452845f2054611a4d565b116109a1575f808080806109e3565b88516334bcdead60e11b81528a90fd5b8951634fedf0ed60e01b81528b90fd5b8451631309a56360e01b81528690fd5b50903461037057610a6e366118f7565b8454909593946001600160a01b03929183163303610afe575015610ac75783610ac3945f526011602052835f20610aa6878254611a4d565b90555f526013602052825f2091165f526020525f20918254611a4d565b9055005b83610ac3945f526012602052835f20610ae1878254611a4d565b90555f526014602052825f2091165f526020525f20918254611a4d565b845163e9e3f4ad60e01b8152fd5b5034610370576060366003190112610370576103cb602092610b2c6118e8565b6044359135611bcb565b5034610370575f366003190112610370576020906016549051908152f35b50346103705780600319360112610370575f54823592906001600160a01b03163303610bb35750815f52600f6020526002602435915f2001557feaab1fbae57c9453947c2c5733c4728c55777f0c7adefa5cc50d91eb3e1e36845f80a2005b9051635fc483c560e01b8152fd5b509034610370576080366003190112610370575f54813592906001600160a01b0316330361036357825f52600f6020525f209060243560038301556044359082015560056064359101557feaab1fbae57c9453947c2c5733c4728c55777f0c7adefa5cc50d91eb3e1e36845f80a2005b509034610370578160031936011261037057803591610c4e6118e8565b5f549092906001600160a01b03163303610bb357507fd6c85b16f14b4f3729d9c05fba629c9c41cb77a2eaea1cbe9f972e3c1add760a91602091845f52600f8352610caa826006835f20019060ff801983541691151516179055565b519015158152a2005b503461037057602036600319011261037057610ccd6118d2565b5f546001600160a01b03919082163303610d0a5716908115610cfb575081546001600160a01b031916179055005b5163d92e233d60e01b81529050fd5b505051635fc483c560e01b8152fd5b5034610370575f366003190112610370576020906010549051908152f35b50346103705760203660031901126103705761271061054260209360065490356119ae565b5034610370575f36600319011261037057602090600e549051908152f35b5034610370576020366003190112610370576103cb60209235611afa565b50903461037057602036600319011261037057359060105482101561037057610dc2602092611944565b91905490519160031b1c8152f35b5090346103705760203660031901126103705760809181355f526011602052805f2054916012602052815f205491600f602052805f2091600383015492015492815194855260208501528301526060820152f35b5034610370575f366003190112610370575f5490516001600160a01b039091168152602090f35b5034610370575f366003190112610370575f546001600160a01b03163303610363576001805460ff60a01b1916600160a01b1790557f9e87fac88ff661f02d44f95383c817fece4bce600a3dab7a54406878b965e7525f80a1005b5034610370578060031936011261037057602091610ec26118bc565b90355f5260138352815f209060018060a01b03165f528252805f20549051908152f35b503461037057602036600319011261037057602091355f52601182526103cb815f205460128452825f205490611a5a565b5034610370575f36600319011261037057602090600a549051908152f35b503461037057610f433661192e565b5f5490939192906001600160a01b0316330361036357612710610f668585611a4d565b03610f75575050600855600955005b51630601f69760e01b8152fd5b5034610370575f3660031901126103705760025490516001600160a01b039091168152602090f35b5034610370575f366003190112610370576001546001600160a01b03929091838316919033839003611017575050805f549384167f8be0079c531659141344cd1fd0a4f28419497f9722a3daafe3b4186f6b6457e05f80a36001600160a01b0319928316175f5516600155005b906020606492519162461bcd60e51b835282015260116024820152702737ba103832b73234b7339037bbb732b960791b6044820152fd5b50903461037057602036600319011261037057815f60c060e09451611072816119df565b82815282602082015282848201528260608201528260808201528260a0820152015281355f52600f602052805f208151916110ac836119df565b81549384845260018301549160208501928352600284015481860190815260038501549260608701938452850154936080870194855260c060ff600660058901549860a08b01998a5201541697019615158752825197885251602088015251908601525160608501525160808401525160a083015251151560c0820152f35b509034610370576020366003190112610370576111466118d2565b5f546001600160a01b039190821633036104bb571691821561045357600380546001600160a01b03191684179055005b509034610370576020366003190112610370575f54813592906001600160a01b03163303610363576103e883116111ae57600b839055005b906020606492519162461bcd60e51b835282015260086024820152670a8dede40d0d2ced60c31b6044820152fd5b5034610370576020366003190112610370578160e092355f52600f602052815f2080549260018201549260028301546003840154918401549260ff600660058701549601541695815197885260208801528601526060850152608084015260a0830152151560c0820152f35b503461037057602036600319011261037057602091355f5260118252805f20549051908152f35b5034610370575f366003190112610370576020906017549051908152f35b5034610370575f3660031901126103705760055490516001600160a01b039091168152602090f35b5034610370575f3660031901126103705760209060ff60015460a01c1690519015158152f35b50346103705780600319360112610370576020916112f76118bc565b90355f5260148352815f209060018060a01b03165f528252805f20549051908152f35b5034610370575f366003190112610370576020906018549051908152f35b503461037057602036600319011261037057602091355f52600c8252805f20549051908152f35b5034610370575f366003190112610370575f546001600160a01b03163303610363576001805460ff60a01b191690557fa45f47fdea8a1efdd9029a5691c7f759c32b7c698632b563573e155625d169335f80a1005b5034610370575f36600319011261037057517f00000000000000000000000000000000000000000000000000000000000000006001600160a01b03168152602090f35b50346103705760c03660031901126103705781359067ffffffffffffffff9081831161037057366023840112156103705782840135918211610370573660248385010111610370575f546044359360843593606435926001600160a01b0316330361159d5783516020928382019261148691859184918190602401873781015f83820152038084520182611a2b565b5190209561150e8451611498816119df565b88815260068985830160243581528884018b81526060850189815260808601918c835260a087019360a435855260c0880195600187525f52600f8b528c5f2097518855516001880155516002870155516003860155518685015551600584015551151591019060ff801983541691151516179055565b601054906801000000000000000082101561158a5750917fc09b0e6ea17e638181154aed6758ae0143886172f6cf847a2302ff6def18661995939161155c8460016060989601601055611944565b81549060031b908a821b915f19901b1916179055875f52600d815242835f20558251948552840152820152a2005b604190634e487b7160e01b5f525260245ffd5b8351635fc483c560e01b81528790fd5b509034610370576020366003190112610370575f54813592906001600160a01b03163303610363576103e883101580611619575b156115ed576016839055005b906020606492519162461bcd60e51b8352820152600660248201526531302d35302560d01b6044820152fd5b506113888311156115e1565b509034610370576020366003190112610370573561165361271061164b600854846119ae565b04809261198d565b82519182526020820152f35b509034610370576020366003190112610370575f54813592906001600160a01b0316330361036357611388831015806116cf575b1561169f57600a839055005b906020606492519162461bcd60e51b8352820152600a6024820152694361702035302d39352560b01b6044820152fd5b5061251c831115611693565b5034610370576116ea366118f7565b8554939592936001600160a01b0393919291908416330361181d57501561179457845f5260209160118352845f2054828082115f1461178c5761172c9161198d565b865f5260118452855f205560138352845f20931692835f52825280845f2054115f146117845761176e90855f5260138352845f20845f528352845f205461198d565b935b5f5260138152825f20915f52525f20555f80f35b505f93611770565b50505f61172c565b845f5260209160128352845f2054828082115f14611815576117b59161198d565b865f5260128452855f205560148352845f20931692835f52825280845f2054115f1461180d576117f790855f5260148352845f20845f528352845f205461198d565b935b5f5260148152825f20915f52525f20555f80f35b505f936117f9565b50505f6117b5565b855163e9e3f4ad60e01b8152fd5b5034610370575f36600319011261037057602090600b549051908152f35b838334610370576020366003190112610370575f54823593906001600160a01b031633036118ae57506101f4831161188257600e839055005b906020606492519162461bcd60e51b835282015260066024820152654d617820352560d01b6044820152fd5b635fc483c560e01b81529050fd5b602435906001600160a01b038216820361037057565b600435906001600160a01b038216820361037057565b60243590811515820361037057565b608090600319011261037057600435906024356001600160a01b038116810361037057906044358015158103610370579060643590565b6040906003190112610370576004359060243590565b6010548110156119795760105f527f1b6847dc741a1b0cd08d278845f9d819d87b734759afb55fe2de5cb82a9ae67201905f90565b634e487b7160e01b5f52603260045260245ffd5b9190820391821161199a57565b634e487b7160e01b5f52601160045260245ffd5b8181029291811591840414171561199a57565b81156119cb570490565b634e487b7160e01b5f52601260045260245ffd5b60e0810190811067ffffffffffffffff8211176119fb57604052565b634e487b7160e01b5f52604160045260245ffd5b6040810190811067ffffffffffffffff8211176119fb57604052565b90601f8019910116810190811067ffffffffffffffff8211176119fb57604052565b9190820180921161199a57565b81810392915f13801582851316918412161761199a57565b90670de0b6b3a76400009182810292818405149015171561199a57565b90620151809182810292818405149015171561199a57565b906127109182810292818405149015171561199a57565b81810292915f8212600160ff1b82141661199a57818405149015171561199a57565b81156119cb57600160ff1b81145f1983141661199a570590565b805f52600f60205260405f2090604051611b13816119df565b82548152600183015460208201526002830154604082015260c060ff600660038601549586606086015260048101546080860152600581015460a086015201541615159101528115611bc5575f526011602052611b8a611b8160405f2054601260205260405f205490611a5a565b600b5490611abe565b906170809182810292818405149015171561199a57611bbc611bb7611bb1611bc294611a72565b92611a8f565b611aa7565b90611ae0565b90565b50505f90565b90815f526020600f81526040805f20815190611be6826119df565b8054825260018101548483015260028101548383015260038101549182606082015260c060ff6006600485015494856080860152600581015460a08601520154161515910152845f14611cbc5750935b8415611cb257611c6c9315611c99575f52601182526012815f205492525f20541115915b611c67600e5480956119ae565b6119c1565b91808311611c91575b5015611c7e5790565b60011c600160ff1b811461199a575f0390565b91505f611c75565b5f52601282526011815f205492525f2054111591611c5a565b5050505050505f90565b905093611c36565b3d15611cfe573d9067ffffffffffffffff82116119fb5760405191611cf3601f8201601f191660200184611a2b565b82523d5f602084013e565b606090565b805f52602090600d8252604091611d1d835f20544261198d565b8015611e4957825f52600f8252835f20908451611d39816119df565b8254815260018301548482015260028301548682015260c060ff600660038601549586606086015260048101546080860152600581015460a086015201541615159101528115611e325790611bbc611bb7611bb1611db8611dbd95885f5260118852611db3611b818b5f205460128b528c5f205490611a5a565b611abe565b611a72565b91805f52600c8252835f20928354818101905f838312911290801582169115161761199a578583927facab28495f5d412e24f181214dd823bd5fa666235afd596193c593fedee9064f92600c9755835f52600d865242825f2055868652815f205490825191825286820152a25f52525f205490565b5050600c915f52600d815242835f2055525f205490565b50600c915f52525f20549056fea26469706673582212202d6dbd209362a2ef27c5f3aabbb01e3f4551c7c1def1d5280500fdedd9d502da64736f6c63430008180033","opcodes":"PUSH1 0xA0 CALLVALUE PUSH3 0xFC JUMPI PUSH1 0x1F PUSH3 0x1FB6 CODESIZE DUP2 SWAP1 SUB SWAP2 DUP3 ADD PUSH1 0x1F NOT AND DUP4 ADD SWAP2 PUSH1 0x1 PUSH1 0x1 PUSH1 0x40 SHL SUB DUP4 GT DUP5 DUP5 LT OR PUSH3 0x100 JUMPI DUP1 DUP5 SWAP3 PUSH1 0x40 SWAP5 DUP6 MSTORE DUP4 CODECOPY DUP2 ADD SUB SLT PUSH3 0xFC JUMPI PUSH3 0x5A PUSH1 0x20 PUSH3 0x52 DUP4 PUSH3 0x114 JUMP JUMPDEST SWAP3 ADD PUSH3 0x114 JUMP JUMPDEST PUSH1 0x4 PUSH1 0x6 SSTORE PUSH1 0x2 PUSH1 0x7 SSTORE PUSH2 0x1B58 PUSH1 0x8 SSTORE PUSH2 0xBB8 PUSH1 0x9 DUP2 SWAP1 SSTORE PUSH2 0x1F40 PUSH1 0xA SSTORE PUSH1 0x64 PUSH1 0xB DUP2 SWAP1 SSTORE PUSH1 0xE SSTORE PUSH1 0x5 PUSH1 0x15 SSTORE PUSH1 0x16 SSTORE PUSH1 0x1 PUSH1 0x1 PUSH1 0xA0 SHL SUB SWAP1 DUP3 DUP3 AND ISZERO DUP1 ISZERO PUSH3 0xF1 JUMPI JUMPDEST PUSH3 0xDF JUMPI PUSH1 0x1 DUP1 PUSH1 0xA0 SHL SUB NOT SWAP3 CALLER DUP5 PUSH0 SLOAD AND OR PUSH0 SSTORE PUSH1 0x80 MSTORE AND SWAP1 PUSH1 0x2 SLOAD AND OR PUSH1 0x2 SSTORE TIMESTAMP PUSH1 0x18 SSTORE PUSH1 0x40 MLOAD PUSH2 0x1E8C SWAP1 DUP2 PUSH3 0x12A DUP3 CODECOPY PUSH1 0x80 MLOAD DUP2 PUSH2 0x13C8 ADD MSTORE RETURN JUMPDEST PUSH1 0x40 MLOAD PUSH4 0xD92E233D PUSH1 0xE0 SHL DUP2 MSTORE PUSH1 0x4 SWAP1 REVERT JUMPDEST POP DUP2 DUP2 AND ISZERO PUSH3 0x9F JUMP JUMPDEST PUSH0 DUP1 REVERT JUMPDEST PUSH4 0x4E487B71 PUSH1 0xE0 SHL PUSH0 MSTORE PUSH1 0x41 PUSH1 0x4 MSTORE PUSH1 0x24 PUSH0 REVERT JUMPDEST MLOAD SWAP1 PUSH1 0x1 PUSH1 0x1 PUSH1 0xA0 SHL SUB DUP3 AND DUP3 SUB PUSH3 0xFC JUMPI JUMP INVALID PUSH1 0x80 PUSH1 0x40 DUP2 DUP2 MSTORE PUSH1 0x4 SWAP2 DUP3 CALLDATASIZE LT ISZERO PUSH2 0x15 JUMPI PUSH0 DUP1 REVERT JUMPDEST PUSH0 CALLDATALOAD PUSH1 0xE0 SHR SWAP1 DUP2 PUSH4 0x1B573019 EQ PUSH2 0x1849 JUMPI POP DUP1 PUSH4 0x2DE900B5 EQ PUSH2 0x182B JUMPI DUP1 PUSH4 0x33945720 EQ PUSH2 0x16DB JUMPI DUP1 PUSH4 0x353081E5 EQ PUSH2 0x165F JUMPI DUP1 PUSH4 0x3B608AF2 EQ PUSH2 0x1625 JUMPI DUP1 PUSH4 0x3C098F10 EQ PUSH2 0x15AD JUMPI DUP1 PUSH4 0x3E153C40 EQ PUSH2 0x13F7 JUMPI DUP1 PUSH4 0x3E413BEE EQ PUSH2 0x13B4 JUMPI DUP1 PUSH4 0x3F4BA83A EQ PUSH2 0x135F JUMPI DUP1 PUSH4 0x4655F1EB EQ PUSH2 0x1338 JUMPI DUP1 PUSH4 0x53C915F8 EQ PUSH2 0x131A JUMPI DUP1 PUSH4 0x5A109871 EQ PUSH2 0x12DB JUMPI DUP1 PUSH4 0x5C975ABB EQ PUSH2 0x12B5 JUMPI DUP1 PUSH4 0x61D027B3 EQ PUSH2 0x128D JUMPI DUP1 PUSH4 0x6321DE7F EQ PUSH2 0x126F JUMPI DUP1 PUSH4 0x65100531 EQ PUSH2 0x1248 JUMPI DUP1 PUSH4 0x673E0481 EQ PUSH2 0x11DC JUMPI DUP1 PUSH4 0x6811DBB2 EQ PUSH2 0x1176 JUMPI DUP1 PUSH4 0x6817031B EQ PUSH2 0x112B JUMPI DUP1 PUSH4 0x6A37A22A EQ PUSH2 0x104E JUMPI DUP1 PUSH4 0x79BA5097 EQ PUSH2 0xFAA JUMPI DUP1 PUSH4 0x7DC0D1D0 EQ PUSH2 0xF82 JUMPI DUP1 PUSH4 0x7E6335C7 EQ PUSH2 0xF34 JUMPI DUP1 PUSH4 0x7E8D5883 EQ PUSH2 0xF16 JUMPI DUP1 PUSH4 0x806954E3 EQ PUSH2 0xEE5 JUMPI DUP1 PUSH4 0x837DF08E EQ PUSH2 0xEA6 JUMPI DUP1 PUSH4 0x8456CB59 EQ PUSH2 0xE4B JUMPI DUP1 PUSH4 0x8DA5CB5B EQ PUSH2 0xE24 JUMPI DUP1 PUSH4 0x8DA97D9D EQ PUSH2 0xDD0 JUMPI DUP1 PUSH4 0x8E8C7791 EQ PUSH2 0xD98 JUMPI DUP1 PUSH4 0x9124D0CB EQ PUSH2 0xD7A JUMPI DUP1 PUSH4 0x93359FE4 EQ PUSH2 0xD5C JUMPI DUP1 PUSH4 0x99A5D747 EQ PUSH2 0xD37 JUMPI DUP1 PUSH4 0x9CF2EBF5 EQ PUSH2 0xD19 JUMPI DUP1 PUSH4 0xA553906C EQ PUSH2 0xCB3 JUMPI DUP1 PUSH4 0xA7432ECC EQ PUSH2 0xC31 JUMPI DUP1 PUSH4 0xAC1FFF05 EQ PUSH2 0xBC1 JUMPI DUP1 PUSH4 0xACC87BA6 EQ PUSH2 0xB54 JUMPI DUP1 PUSH4 0xAEC376CD EQ PUSH2 0xB36 JUMPI DUP1 PUSH4 0xB391DECF EQ PUSH2 0xB0C JUMPI DUP1 PUSH4 0xB65B361F EQ PUSH2 0xA5E JUMPI DUP1 PUSH4 0xBD79156F EQ PUSH2 0x80A JUMPI DUP1 PUSH4 0xC60609F2 EQ PUSH2 0x6A8 JUMPI DUP1 PUSH4 0xC8D594DB EQ PUSH2 0x68A JUMPI DUP1 PUSH4 0xD448EEBC EQ PUSH2 0x66C JUMPI DUP1 PUSH4 0xDAF012E6 EQ PUSH2 0x64E JUMPI DUP1 PUSH4 0xDC5998E0 EQ PUSH2 0x5E7 JUMPI DUP1 PUSH4 0xDD2BB29F EQ PUSH2 0x5C9 JUMPI DUP1 PUSH4 0xDD561C8C EQ PUSH2 0x5A2 JUMPI DUP1 PUSH4 0xDECBC2B7 EQ PUSH2 0x57B JUMPI DUP1 PUSH4 0xE30C3978 EQ PUSH2 0x553 JUMPI DUP1 PUSH4 0xE4D8CBE5 EQ PUSH2 0x510 JUMPI DUP1 PUSH4 0xE80CFA5E EQ PUSH2 0x4F2 JUMPI DUP1 PUSH4 0xEC44ACF2 EQ PUSH2 0x4CB JUMPI DUP1 PUSH4 0xF0F44260 EQ PUSH2 0x470 JUMPI DUP1 PUSH4 0xF2FDE38B EQ PUSH2 0x3DF JUMPI DUP1 PUSH4 0xF98CECBE EQ PUSH2 0x39C JUMPI DUP1 PUSH4 0xFBFA77CF EQ PUSH2 0x374 JUMPI PUSH4 0xFDA5ECB1 EQ PUSH2 0x2A8 JUMPI PUSH0 DUP1 REVERT JUMPDEST CALLVALUE PUSH2 0x370 JUMPI PUSH2 0x2B6 CALLDATASIZE PUSH2 0x192E JUMP JUMPDEST PUSH0 SLOAD SWAP1 SWAP4 SWAP2 SWAP3 SWAP1 PUSH1 0x1 PUSH1 0x1 PUSH1 0xA0 SHL SUB AND CALLER SUB PUSH2 0x363 JUMPI PUSH1 0x32 DUP4 GT ISZERO DUP1 PUSH2 0x358 JUMPI JUMPDEST ISZERO PUSH2 0x326 JUMPI DUP4 DUP4 LT PUSH2 0x2ED JUMPI POP POP PUSH1 0x6 SSTORE PUSH1 0x7 SSTORE STOP JUMPDEST SWAP1 PUSH1 0x20 PUSH1 0x64 SWAP3 MLOAD SWAP2 PUSH3 0x461BCD PUSH1 0xE5 SHL DUP4 MSTORE DUP3 ADD MSTORE PUSH1 0x13 PUSH1 0x24 DUP3 ADD MSTORE PUSH19 0x2A30B5B2B91036BAB9BA101F1E9026B0B5B2B9 PUSH1 0x69 SHL PUSH1 0x44 DUP3 ADD MSTORE REVERT JUMPDEST SWAP1 PUSH1 0x20 PUSH1 0x64 SWAP3 MLOAD SWAP2 PUSH3 0x461BCD PUSH1 0xE5 SHL DUP4 MSTORE DUP3 ADD MSTORE PUSH1 0xC PUSH1 0x24 DUP3 ADD MSTORE PUSH12 0x8CCACA40E8DEDE40D0D2CED PUSH1 0xA3 SHL PUSH1 0x44 DUP3 ADD MSTORE REVERT JUMPDEST POP PUSH1 0x32 DUP5 GT ISZERO PUSH2 0x2D7 JUMP JUMPDEST MLOAD PUSH4 0x5FC483C5 PUSH1 0xE0 SHL DUP2 MSTORE REVERT JUMPDEST PUSH0 DUP1 REVERT JUMPDEST POP CALLVALUE PUSH2 0x370 JUMPI PUSH0 CALLDATASIZE PUSH1 0x3 NOT ADD SLT PUSH2 0x370 JUMPI PUSH1 0x3 SLOAD SWAP1 MLOAD PUSH1 0x1 PUSH1 0x1 PUSH1 0xA0 SHL SUB SWAP1 SWAP2 AND DUP2 MSTORE PUSH1 0x20 SWAP1 RETURN JUMPDEST POP CALLVALUE PUSH2 0x370 JUMPI PUSH1 0x20 CALLDATASIZE PUSH1 0x3 NOT ADD SLT PUSH2 0x370 JUMPI DUP2 SLOAD PUSH1 0x1 PUSH1 0x1 PUSH1 0xA0 SHL SUB AND CALLER SUB PUSH2 0x3D2 JUMPI PUSH2 0x3CB PUSH1 0x20 SWAP3 CALLDATALOAD PUSH2 0x1D03 JUMP JUMPDEST SWAP1 MLOAD SWAP1 DUP2 MSTORE RETURN JUMPDEST MLOAD PUSH4 0xE9E3F4AD PUSH1 0xE0 SHL DUP2 MSTORE REVERT JUMPDEST POP SWAP1 CALLVALUE PUSH2 0x370 JUMPI PUSH1 0x20 CALLDATASIZE PUSH1 0x3 NOT ADD SLT PUSH2 0x370 JUMPI PUSH2 0x3FA PUSH2 0x18D2 JUMP JUMPDEST PUSH0 SLOAD PUSH1 0x1 PUSH1 0x1 PUSH1 0xA0 SHL SUB SWAP1 DUP2 AND SWAP3 SWAP2 CALLER DUP5 SWAP1 SUB PUSH2 0x460 JUMPI AND SWAP3 DUP4 ISZERO PUSH2 0x453 JUMPI POP POP PUSH1 0x1 DUP1 SLOAD PUSH1 0x1 PUSH1 0x1 PUSH1 0xA0 SHL SUB NOT AND DUP4 OR SWAP1 SSTORE PUSH32 0x38D16B8CAC22D99FC7C124B9CD0DE2D3FA1FAEF420BFE791D8C362D765E22700 PUSH0 DUP1 LOG3 STOP JUMPDEST MLOAD PUSH4 0xD92E233D PUSH1 0xE0 SHL DUP2 MSTORE REVERT JUMPDEST DUP5 MLOAD PUSH4 0x5FC483C5 PUSH1 0xE0 SHL DUP2 MSTORE DUP4 SWAP1 REVERT JUMPDEST POP SWAP1 CALLVALUE PUSH2 0x370 JUMPI PUSH1 0x20 CALLDATASIZE PUSH1 0x3 NOT ADD SLT PUSH2 0x370 JUMPI PUSH2 0x48B PUSH2 0x18D2 JUMP JUMPDEST PUSH0 SLOAD PUSH1 0x1 PUSH1 0x1 PUSH1 0xA0 SHL SUB SWAP2 SWAP1 DUP3 AND CALLER SUB PUSH2 0x4BB JUMPI AND SWAP2 DUP3 ISZERO PUSH2 0x453 JUMPI PUSH1 0x5 DUP1 SLOAD PUSH1 0x1 PUSH1 0x1 PUSH1 0xA0 SHL SUB NOT AND DUP5 OR SWAP1 SSTORE STOP JUMPDEST DUP4 MLOAD PUSH4 0x5FC483C5 PUSH1 0xE0 SHL DUP2 MSTORE DUP4 SWAP1 REVERT JUMPDEST POP CALLVALUE PUSH2 0x370 JUMPI PUSH0 CALLDATASIZE PUSH1 0x3 NOT ADD SLT PUSH2 0x370 JUMPI SWAP1 SLOAD SWAP1 MLOAD PUSH1 0x1 PUSH1 0x1 PUSH1 0xA0 SHL SUB SWAP1 SWAP2 AND DUP2 MSTORE PUSH1 0x20 SWAP1 RETURN JUMPDEST POP CALLVALUE PUSH2 0x370 JUMPI PUSH0 CALLDATASIZE PUSH1 0x3 NOT ADD SLT PUSH2 0x370 JUMPI PUSH1 0x20 SWAP1 PUSH1 0x9 SLOAD SWAP1 MLOAD SWAP1 DUP2 MSTORE RETURN JUMPDEST POP CALLVALUE PUSH2 0x370 JUMPI DUP1 PUSH1 0x3 NOT CALLDATASIZE ADD SLT PUSH2 0x370 JUMPI PUSH2 0x2710 PUSH2 0x542 PUSH1 0x20 SWAP4 PUSH2 0x532 PUSH2 0x18E8 JUMP JUMPDEST ISZERO PUSH2 0x54A JUMPI PUSH1 0x7 SLOAD SWAP1 JUMPDEST CALLDATALOAD PUSH2 0x19AE JUMP JUMPDEST DIV SWAP1 MLOAD SWAP1 DUP2 MSTORE RETURN JUMPDEST PUSH1 0x6 SLOAD SWAP1 PUSH2 0x53C JUMP JUMPDEST POP CALLVALUE PUSH2 0x370 JUMPI PUSH0 CALLDATASIZE PUSH1 0x3 NOT ADD SLT PUSH2 0x370 JUMPI PUSH1 0x1 SLOAD SWAP1 MLOAD PUSH1 0x1 PUSH1 0x1 PUSH1 0xA0 SHL SUB SWAP1 SWAP2 AND DUP2 MSTORE PUSH1 0x20 SWAP1 RETURN JUMPDEST POP CALLVALUE PUSH2 0x370 JUMPI PUSH1 0x20 CALLDATASIZE PUSH1 0x3 NOT ADD SLT PUSH2 0x370 JUMPI PUSH1 0x20 SWAP2 CALLDATALOAD PUSH0 MSTORE PUSH1 0xD DUP3 MSTORE DUP1 PUSH0 KECCAK256 SLOAD SWAP1 MLOAD SWAP1 DUP2 MSTORE RETURN JUMPDEST POP CALLVALUE PUSH2 0x370 JUMPI PUSH1 0x20 CALLDATASIZE PUSH1 0x3 NOT ADD SLT PUSH2 0x370 JUMPI PUSH1 0x20 SWAP2 CALLDATALOAD PUSH0 MSTORE PUSH1 0x12 DUP3 MSTORE DUP1 PUSH0 KECCAK256 SLOAD SWAP1 MLOAD SWAP1 DUP2 MSTORE RETURN JUMPDEST POP CALLVALUE PUSH2 0x370 JUMPI PUSH0 CALLDATASIZE PUSH1 0x3 NOT ADD SLT PUSH2 0x370 JUMPI PUSH1 0x20 SWAP1 PUSH1 0x8 SLOAD SWAP1 MLOAD SWAP1 DUP2 MSTORE RETURN JUMPDEST POP SWAP1 CALLVALUE PUSH2 0x370 JUMPI PUSH1 0x20 CALLDATASIZE PUSH1 0x3 NOT ADD SLT PUSH2 0x370 JUMPI PUSH0 SLOAD DUP2 CALLDATALOAD SWAP3 SWAP1 PUSH1 0x1 PUSH1 0x1 PUSH1 0xA0 SHL SUB AND CALLER SUB PUSH2 0x363 JUMPI PUSH2 0x12C DUP4 GT PUSH2 0x61F JUMPI PUSH1 0x15 DUP4 SWAP1 SSTORE STOP JUMPDEST SWAP1 PUSH1 0x20 PUSH1 0x64 SWAP3 MLOAD SWAP2 PUSH3 0x461BCD PUSH1 0xE5 SHL DUP4 MSTORE DUP3 ADD MSTORE PUSH1 0x9 PUSH1 0x24 DUP3 ADD MSTORE PUSH9 0x26B0BC101A9036B4B7 PUSH1 0xB9 SHL PUSH1 0x44 DUP3 ADD MSTORE REVERT JUMPDEST POP CALLVALUE PUSH2 0x370 JUMPI PUSH0 CALLDATASIZE PUSH1 0x3 NOT ADD SLT PUSH2 0x370 JUMPI PUSH1 0x20 SWAP1 PUSH1 0x15 SLOAD SWAP1 MLOAD SWAP1 DUP2 MSTORE RETURN JUMPDEST POP CALLVALUE PUSH2 0x370 JUMPI PUSH0 CALLDATASIZE PUSH1 0x3 NOT ADD SLT PUSH2 0x370 JUMPI PUSH1 0x20 SWAP1 PUSH1 0x6 SLOAD SWAP1 MLOAD SWAP1 DUP2 MSTORE RETURN JUMPDEST POP CALLVALUE PUSH2 0x370 JUMPI PUSH0 CALLDATASIZE PUSH1 0x3 NOT ADD SLT PUSH2 0x370 JUMPI PUSH1 0x20 SWAP1 PUSH1 0x7 SLOAD SWAP1 MLOAD SWAP1 DUP2 MSTORE RETURN JUMPDEST POP CALLVALUE PUSH2 0x370 JUMPI PUSH1 0x20 SWAP2 DUP3 PUSH1 0x3 NOT CALLDATASIZE ADD SLT PUSH2 0x370 JUMPI DUP1 SLOAD PUSH1 0x1 PUSH1 0x1 PUSH1 0xA0 SHL SUB SWAP2 SWAP1 DUP3 AND CALLER SUB PUSH2 0x7FC JUMPI PUSH1 0x18 SLOAD PUSH3 0x15180 DUP2 ADD DUP1 SWAP2 GT PUSH2 0x7E9 JUMPI TIMESTAMP LT ISZERO PUSH2 0x7DC JUMPI JUMPDEST PUSH2 0x6F5 DUP2 CALLDATALOAD PUSH1 0x17 SLOAD PUSH2 0x1A4D JUMP JUMPDEST SWAP2 DUP3 PUSH1 0x17 SSTORE PUSH1 0x3 SLOAD AND DUP1 PUSH2 0x706 JUMPI JUMPDEST STOP JUMPDEST PUSH0 DUP1 SWAP2 DUP6 MLOAD DUP8 DUP2 ADD SWAP1 PUSH3 0x787445 PUSH1 0xE2 SHL DUP3 MSTORE DUP6 DUP2 MSTORE PUSH2 0x724 DUP2 PUSH2 0x1A0F JUMP JUMPDEST MLOAD SWAP2 GAS STATICCALL PUSH2 0x730 PUSH2 0x1CC4 JUMP JUMPDEST SWAP1 DUP1 PUSH2 0x7D1 JUMPI JUMPDEST PUSH2 0x73D JUMPI STOP JUMPDEST DUP5 DUP2 DUP1 MLOAD DUP2 ADD SUB SLT PUSH2 0x370 JUMPI DUP5 ADD MLOAD SWAP1 DUP2 ISZERO PUSH2 0x704 JUMPI PUSH2 0x2710 SWAP1 DUP2 DUP5 MUL SWAP2 DUP5 DUP4 DIV EQ DUP5 ISZERO OR ISZERO PUSH2 0x7BE JUMPI POP SWAP1 PUSH2 0x772 SWAP2 PUSH2 0x19C1 JUMP JUMPDEST PUSH1 0x16 SLOAD DUP1 SWAP2 GT PUSH2 0x77E JUMPI STOP JUMPDEST PUSH32 0xC1B68F84E2906898E13E04DFEA4F2CA4C44015FCEB114B71916F54A7072712A6 SWAP4 PUSH1 0x1 PUSH1 0xA0 SHL PUSH1 0xFF PUSH1 0xA0 SHL NOT PUSH1 0x1 SLOAD AND OR PUSH1 0x1 SSTORE DUP4 MLOAD SWAP3 DUP4 MSTORE DUP3 ADD MSTORE LOG1 STOP JUMPDEST PUSH1 0x11 SWAP1 PUSH4 0x4E487B71 PUSH1 0xE0 SHL PUSH0 MSTORE MSTORE PUSH1 0x24 PUSH0 REVERT JUMPDEST POP DUP5 DUP2 MLOAD LT ISZERO PUSH2 0x737 JUMP JUMPDEST PUSH0 PUSH1 0x17 SSTORE TIMESTAMP PUSH1 0x18 SSTORE PUSH2 0x6E8 JUMP JUMPDEST PUSH1 0x11 DUP3 PUSH4 0x4E487B71 PUSH1 0xE0 SHL PUSH0 MSTORE MSTORE PUSH1 0x24 PUSH0 REVERT JUMPDEST DUP3 MLOAD PUSH4 0xE9E3F4AD PUSH1 0xE0 SHL DUP2 MSTORE REVERT JUMPDEST POP CALLVALUE PUSH2 0x370 JUMPI PUSH1 0xA0 CALLDATASIZE PUSH1 0x3 NOT ADD SLT PUSH2 0x370 JUMPI DUP2 CALLDATALOAD PUSH2 0x826 PUSH2 0x18BC JUMP JUMPDEST SWAP1 PUSH1 0x44 CALLDATALOAD DUP1 ISZERO ISZERO DUP2 SUB PUSH2 0x370 JUMPI PUSH1 0x64 CALLDATALOAD PUSH1 0xFF PUSH1 0x1 SLOAD PUSH1 0xA0 SHR AND PUSH2 0xA4E JUMPI DUP3 PUSH0 MSTORE PUSH1 0x20 SWAP4 PUSH1 0xF DUP6 MSTORE DUP6 PUSH0 KECCAK256 DUP7 MLOAD PUSH2 0x85B DUP2 PUSH2 0x19DF JUMP JUMPDEST DUP2 SLOAD DUP2 MSTORE PUSH1 0x1 DUP3 ADD SLOAD DUP8 DUP3 ADD MSTORE PUSH1 0x2 DUP3 ADD SLOAD SWAP5 DUP9 DUP3 ADD SWAP6 DUP7 MSTORE PUSH1 0x3 DUP4 ADD SLOAD SWAP6 PUSH1 0x60 DUP4 ADD SWAP7 DUP8 MSTORE DUP11 DUP5 ADD SLOAD SWAP3 PUSH1 0x80 DUP2 ADD SWAP4 DUP5 MSTORE PUSH1 0xFF PUSH1 0x6 PUSH1 0x5 DUP8 ADD SLOAD SWAP7 PUSH1 0xA0 DUP5 ADD SWAP8 DUP9 MSTORE ADD SLOAD AND ISZERO SWAP1 PUSH1 0xC0 DUP3 ISZERO SWAP2 ADD MSTORE PUSH2 0xA3E JUMPI MLOAD PUSH1 0x84 CALLDATALOAD GT PUSH2 0xA2E JUMPI ISZERO PUSH2 0x9BF JUMPI POP DUP5 PUSH0 MSTORE PUSH1 0x11 DUP7 MSTORE PUSH2 0x8D1 DUP4 DUP9 PUSH0 KECCAK256 SLOAD PUSH2 0x1A4D JUMP JUMPDEST DUP5 MLOAD LT PUSH2 0x9AF JUMPI MLOAD DUP1 PUSH2 0x960 JUMPI JUMPDEST POP POP POP POP POP JUMPDEST PUSH1 0x3 SLOAD PUSH1 0x1 PUSH1 0x1 PUSH1 0xA0 SHL SUB AND DUP1 PUSH2 0x8F8 JUMPI STOP JUMPDEST PUSH0 DUP1 SWAP2 DUP5 MLOAD DUP5 DUP2 ADD SWAP1 PUSH4 0x7510E6C9 PUSH1 0xE1 SHL DUP3 MSTORE DUP8 DUP2 MSTORE PUSH2 0x917 DUP2 PUSH2 0x1A0F JUMP JUMPDEST MLOAD SWAP2 GAS STATICCALL PUSH2 0x923 PUSH2 0x1CC4 JUMP JUMPDEST SWAP1 DUP1 PUSH2 0x955 JUMPI JUMPDEST PUSH2 0x930 JUMPI STOP JUMPDEST DUP2 DUP2 DUP1 MLOAD DUP2 ADD SUB SLT PUSH2 0x370 JUMPI ADD MLOAD PUSH1 0xA SLOAD LT PUSH2 0x948 JUMPI STOP JUMPDEST MLOAD PUSH4 0x24E397D3 PUSH1 0xE2 SHL DUP2 MSTORE REVERT JUMPDEST POP DUP2 DUP2 MLOAD LT ISZERO PUSH2 0x92A JUMP JUMPDEST PUSH2 0x971 PUSH2 0x2710 SWAP2 PUSH2 0x992 SWAP6 MLOAD PUSH2 0x19AE JUMP JUMPDEST DIV SWAP4 PUSH0 MSTORE PUSH1 0x13 DUP6 MSTORE DUP6 PUSH0 KECCAK256 SWAP1 PUSH1 0x1 DUP1 PUSH1 0xA0 SHL SUB AND PUSH0 MSTORE DUP5 MSTORE DUP5 PUSH0 KECCAK256 SLOAD PUSH2 0x1A4D JUMP JUMPDEST GT PUSH2 0x9A1 JUMPI PUSH0 DUP1 DUP1 DUP1 DUP1 PUSH2 0x8DF JUMP JUMPDEST POP MLOAD PUSH4 0x9F17B34D PUSH1 0xE0 SHL DUP2 MSTORE REVERT JUMPDEST DUP7 MLOAD PUSH4 0x8A9D1C41 PUSH1 0xE0 SHL DUP2 MSTORE DUP9 SWAP1 REVERT JUMPDEST SWAP4 POP DUP5 PUSH0 MSTORE PUSH1 0x12 DUP7 MSTORE PUSH2 0x9D5 DUP4 DUP9 PUSH0 KECCAK256 SLOAD PUSH2 0x1A4D JUMP JUMPDEST DUP5 MLOAD LT PUSH2 0x9AF JUMPI MLOAD DUP1 PUSH2 0x9ED JUMPI JUMPDEST POP POP POP POP POP PUSH2 0x8E5 JUMP JUMPDEST PUSH2 0x9FE PUSH2 0x2710 SWAP2 PUSH2 0xA1F SWAP6 MLOAD PUSH2 0x19AE JUMP JUMPDEST DIV SWAP4 PUSH0 MSTORE PUSH1 0x14 DUP6 MSTORE DUP6 PUSH0 KECCAK256 SWAP1 PUSH1 0x1 DUP1 PUSH1 0xA0 SHL SUB AND PUSH0 MSTORE DUP5 MSTORE DUP5 PUSH0 KECCAK256 SLOAD PUSH2 0x1A4D JUMP JUMPDEST GT PUSH2 0x9A1 JUMPI PUSH0 DUP1 DUP1 DUP1 DUP1 PUSH2 0x9E3 JUMP JUMPDEST DUP9 MLOAD PUSH4 0x34BCDEAD PUSH1 0xE1 SHL DUP2 MSTORE DUP11 SWAP1 REVERT JUMPDEST DUP10 MLOAD PUSH4 0x4FEDF0ED PUSH1 0xE0 SHL DUP2 MSTORE DUP12 SWAP1 REVERT JUMPDEST DUP5 MLOAD PUSH4 0x1309A563 PUSH1 0xE0 SHL DUP2 MSTORE DUP7 SWAP1 REVERT JUMPDEST POP SWAP1 CALLVALUE PUSH2 0x370 JUMPI PUSH2 0xA6E CALLDATASIZE PUSH2 0x18F7 JUMP JUMPDEST DUP5 SLOAD SWAP1 SWAP6 SWAP4 SWAP5 PUSH1 0x1 PUSH1 0x1 PUSH1 0xA0 SHL SUB SWAP3 SWAP2 DUP4 AND CALLER SUB PUSH2 0xAFE JUMPI POP ISZERO PUSH2 0xAC7 JUMPI DUP4 PUSH2 0xAC3 SWAP5 PUSH0 MSTORE PUSH1 0x11 PUSH1 0x20 MSTORE DUP4 PUSH0 KECCAK256 PUSH2 0xAA6 DUP8 DUP3 SLOAD PUSH2 0x1A4D JUMP JUMPDEST SWAP1 SSTORE PUSH0 MSTORE PUSH1 0x13 PUSH1 0x20 MSTORE DUP3 PUSH0 KECCAK256 SWAP2 AND PUSH0 MSTORE PUSH1 0x20 MSTORE PUSH0 KECCAK256 SWAP2 DUP3 SLOAD PUSH2 0x1A4D JUMP JUMPDEST SWAP1 SSTORE STOP JUMPDEST DUP4 PUSH2 0xAC3 SWAP5 PUSH0 MSTORE PUSH1 0x12 PUSH1 0x20 MSTORE DUP4 PUSH0 KECCAK256 PUSH2 0xAE1 DUP8 DUP3 SLOAD PUSH2 0x1A4D JUMP JUMPDEST SWAP1 SSTORE PUSH0 MSTORE PUSH1 0x14 PUSH1 0x20 MSTORE DUP3 PUSH0 KECCAK256 SWAP2 AND PUSH0 MSTORE PUSH1 0x20 MSTORE PUSH0 KECCAK256 SWAP2 DUP3 SLOAD PUSH2 0x1A4D JUMP JUMPDEST DUP5 MLOAD PUSH4 0xE9E3F4AD PUSH1 0xE0 SHL DUP2 MSTORE REVERT JUMPDEST POP CALLVALUE PUSH2 0x370 JUMPI PUSH1 0x60 CALLDATASIZE PUSH1 0x3 NOT ADD SLT PUSH2 0x370 JUMPI PUSH2 0x3CB PUSH1 0x20 SWAP3 PUSH2 0xB2C PUSH2 0x18E8 JUMP JUMPDEST PUSH1 0x44 CALLDATALOAD SWAP2 CALLDATALOAD PUSH2 0x1BCB JUMP JUMPDEST POP CALLVALUE PUSH2 0x370 JUMPI PUSH0 CALLDATASIZE PUSH1 0x3 NOT ADD SLT PUSH2 0x370 JUMPI PUSH1 0x20 SWAP1 PUSH1 0x16 SLOAD SWAP1 MLOAD SWAP1 DUP2 MSTORE RETURN JUMPDEST POP CALLVALUE PUSH2 0x370 JUMPI DUP1 PUSH1 0x3 NOT CALLDATASIZE ADD SLT PUSH2 0x370 JUMPI PUSH0 SLOAD DUP3 CALLDATALOAD SWAP3 SWAP1 PUSH1 0x1 PUSH1 0x1 PUSH1 0xA0 SHL SUB AND CALLER SUB PUSH2 0xBB3 JUMPI POP DUP2 PUSH0 MSTORE PUSH1 0xF PUSH1 0x20 MSTORE PUSH1 0x2 PUSH1 0x24 CALLDATALOAD SWAP2 PUSH0 KECCAK256 ADD SSTORE PUSH32 0xEAAB1FBAE57C9453947C2C5733C4728C55777F0C7ADEFA5CC50D91EB3E1E3684 PUSH0 DUP1 LOG2 STOP JUMPDEST SWAP1 MLOAD PUSH4 0x5FC483C5 PUSH1 0xE0 SHL DUP2 MSTORE REVERT JUMPDEST POP SWAP1 CALLVALUE PUSH2 0x370 JUMPI PUSH1 0x80 CALLDATASIZE PUSH1 0x3 NOT ADD SLT PUSH2 0x370 JUMPI PUSH0 SLOAD DUP2 CALLDATALOAD SWAP3 SWAP1 PUSH1 0x1 PUSH1 0x1 PUSH1 0xA0 SHL SUB AND CALLER SUB PUSH2 0x363 JUMPI DUP3 PUSH0 MSTORE PUSH1 0xF PUSH1 0x20 MSTORE PUSH0 KECCAK256 SWAP1 PUSH1 0x24 CALLDATALOAD PUSH1 0x3 DUP4 ADD SSTORE PUSH1 0x44 CALLDATALOAD SWAP1 DUP3 ADD SSTORE PUSH1 0x5 PUSH1 0x64 CALLDATALOAD SWAP2 ADD SSTORE PUSH32 0xEAAB1FBAE57C9453947C2C5733C4728C55777F0C7ADEFA5CC50D91EB3E1E3684 PUSH0 DUP1 LOG2 STOP JUMPDEST POP SWAP1 CALLVALUE PUSH2 0x370 JUMPI DUP2 PUSH1 0x3 NOT CALLDATASIZE ADD SLT PUSH2 0x370 JUMPI DUP1 CALLDATALOAD SWAP2 PUSH2 0xC4E PUSH2 0x18E8 JUMP JUMPDEST PUSH0 SLOAD SWAP1 SWAP3 SWAP1 PUSH1 0x1 PUSH1 0x1 PUSH1 0xA0 SHL SUB AND CALLER SUB PUSH2 0xBB3 JUMPI POP PUSH32 0xD6C85B16F14B4F3729D9C05FBA629C9C41CB77A2EAEA1CBE9F972E3C1ADD760A SWAP2 PUSH1 0x20 SWAP2 DUP5 PUSH0 MSTORE PUSH1 0xF DUP4 MSTORE PUSH2 0xCAA DUP3 PUSH1 0x6 DUP4 PUSH0 KECCAK256 ADD SWAP1 PUSH1 0xFF DUP1 NOT DUP4 SLOAD AND SWAP2 ISZERO ISZERO AND OR SWAP1 SSTORE JUMP JUMPDEST MLOAD SWAP1 ISZERO ISZERO DUP2 MSTORE LOG2 STOP JUMPDEST POP CALLVALUE PUSH2 0x370 JUMPI PUSH1 0x20 CALLDATASIZE PUSH1 0x3 NOT ADD SLT PUSH2 0x370 JUMPI PUSH2 0xCCD PUSH2 0x18D2 JUMP JUMPDEST PUSH0 SLOAD PUSH1 0x1 PUSH1 0x1 PUSH1 0xA0 SHL SUB SWAP2 SWAP1 DUP3 AND CALLER SUB PUSH2 0xD0A JUMPI AND SWAP1 DUP2 ISZERO PUSH2 0xCFB JUMPI POP DUP2 SLOAD PUSH1 0x1 PUSH1 0x1 PUSH1 0xA0 SHL SUB NOT AND OR SWAP1 SSTORE STOP JUMPDEST MLOAD PUSH4 0xD92E233D PUSH1 0xE0 SHL DUP2 MSTORE SWAP1 POP REVERT JUMPDEST POP POP MLOAD PUSH4 0x5FC483C5 PUSH1 0xE0 SHL DUP2 MSTORE REVERT JUMPDEST POP CALLVALUE PUSH2 0x370 JUMPI PUSH0 CALLDATASIZE PUSH1 0x3 NOT ADD SLT PUSH2 0x370 JUMPI PUSH1 0x20 SWAP1 PUSH1 0x10 SLOAD SWAP1 MLOAD SWAP1 DUP2 MSTORE RETURN JUMPDEST POP CALLVALUE PUSH2 0x370 JUMPI PUSH1 0x20 CALLDATASIZE PUSH1 0x3 NOT ADD SLT PUSH2 0x370 JUMPI PUSH2 0x2710 PUSH2 0x542 PUSH1 0x20 SWAP4 PUSH1 0x6 SLOAD SWAP1 CALLDATALOAD PUSH2 0x19AE JUMP JUMPDEST POP CALLVALUE PUSH2 0x370 JUMPI PUSH0 CALLDATASIZE PUSH1 0x3 NOT ADD SLT PUSH2 0x370 JUMPI PUSH1 0x20 SWAP1 PUSH1 0xE SLOAD SWAP1 MLOAD SWAP1 DUP2 MSTORE RETURN JUMPDEST POP CALLVALUE PUSH2 0x370 JUMPI PUSH1 0x20 CALLDATASIZE PUSH1 0x3 NOT ADD SLT PUSH2 0x370 JUMPI PUSH2 0x3CB PUSH1 0x20 SWAP3 CALLDATALOAD PUSH2 0x1AFA JUMP JUMPDEST POP SWAP1 CALLVALUE PUSH2 0x370 JUMPI PUSH1 0x20 CALLDATASIZE PUSH1 0x3 NOT ADD SLT PUSH2 0x370 JUMPI CALLDATALOAD SWAP1 PUSH1 0x10 SLOAD DUP3 LT ISZERO PUSH2 0x370 JUMPI PUSH2 0xDC2 PUSH1 0x20 SWAP3 PUSH2 0x1944 JUMP JUMPDEST SWAP2 SWAP1 SLOAD SWAP1 MLOAD SWAP2 PUSH1 0x3 SHL SHR DUP2 MSTORE RETURN JUMPDEST POP SWAP1 CALLVALUE PUSH2 0x370 JUMPI PUSH1 0x20 CALLDATASIZE PUSH1 0x3 NOT ADD SLT PUSH2 0x370 JUMPI PUSH1 0x80 SWAP2 DUP2 CALLDATALOAD PUSH0 MSTORE PUSH1 0x11 PUSH1 0x20 MSTORE DUP1 PUSH0 KECCAK256 SLOAD SWAP2 PUSH1 0x12 PUSH1 0x20 MSTORE DUP2 PUSH0 KECCAK256 SLOAD SWAP2 PUSH1 0xF PUSH1 0x20 MSTORE DUP1 PUSH0 KECCAK256 SWAP2 PUSH1 0x3 DUP4 ADD SLOAD SWAP3 ADD SLOAD SWAP3 DUP2 MLOAD SWAP5 DUP6 MSTORE PUSH1 0x20 DUP6 ADD MSTORE DUP4 ADD MSTORE PUSH1 0x60 DUP3 ADD MSTORE RETURN JUMPDEST POP CALLVALUE PUSH2 0x370 JUMPI PUSH0 CALLDATASIZE PUSH1 0x3 NOT ADD SLT PUSH2 0x370 JUMPI PUSH0 SLOAD SWAP1 MLOAD PUSH1 0x1 PUSH1 0x1 PUSH1 0xA0 SHL SUB SWAP1 SWAP2 AND DUP2 MSTORE PUSH1 0x20 SWAP1 RETURN JUMPDEST POP CALLVALUE PUSH2 0x370 JUMPI PUSH0 CALLDATASIZE PUSH1 0x3 NOT ADD SLT PUSH2 0x370 JUMPI PUSH0 SLOAD PUSH1 0x1 PUSH1 0x1 PUSH1 0xA0 SHL SUB AND CALLER SUB PUSH2 0x363 JUMPI PUSH1 0x1 DUP1 SLOAD PUSH1 0xFF PUSH1 0xA0 SHL NOT AND PUSH1 0x1 PUSH1 0xA0 SHL OR SWAP1 SSTORE PUSH32 0x9E87FAC88FF661F02D44F95383C817FECE4BCE600A3DAB7A54406878B965E752 PUSH0 DUP1 LOG1 STOP JUMPDEST POP CALLVALUE PUSH2 0x370 JUMPI DUP1 PUSH1 0x3 NOT CALLDATASIZE ADD SLT PUSH2 0x370 JUMPI PUSH1 0x20 SWAP2 PUSH2 0xEC2 PUSH2 0x18BC JUMP JUMPDEST SWAP1 CALLDATALOAD PUSH0 MSTORE PUSH1 0x13 DUP4 MSTORE DUP2 PUSH0 KECCAK256 SWAP1 PUSH1 0x1 DUP1 PUSH1 0xA0 SHL SUB AND PUSH0 MSTORE DUP3 MSTORE DUP1 PUSH0 KECCAK256 SLOAD SWAP1 MLOAD SWAP1 DUP2 MSTORE RETURN JUMPDEST POP CALLVALUE PUSH2 0x370 JUMPI PUSH1 0x20 CALLDATASIZE PUSH1 0x3 NOT ADD SLT PUSH2 0x370 JUMPI PUSH1 0x20 SWAP2 CALLDATALOAD PUSH0 MSTORE PUSH1 0x11 DUP3 MSTORE PUSH2 0x3CB DUP2 PUSH0 KECCAK256 SLOAD PUSH1 0x12 DUP5 MSTORE DUP3 PUSH0 KECCAK256 SLOAD SWAP1 PUSH2 0x1A5A JUMP JUMPDEST POP CALLVALUE PUSH2 0x370 JUMPI PUSH0 CALLDATASIZE PUSH1 0x3 NOT ADD SLT PUSH2 0x370 JUMPI PUSH1 0x20 SWAP1 PUSH1 0xA SLOAD SWAP1 MLOAD SWAP1 DUP2 MSTORE RETURN JUMPDEST POP CALLVALUE PUSH2 0x370 JUMPI PUSH2 0xF43 CALLDATASIZE PUSH2 0x192E JUMP JUMPDEST PUSH0 SLOAD SWAP1 SWAP4 SWAP2 SWAP3 SWAP1 PUSH1 0x1 PUSH1 0x1 PUSH1 0xA0 SHL SUB AND CALLER SUB PUSH2 0x363 JUMPI PUSH2 0x2710 PUSH2 0xF66 DUP6 DUP6 PUSH2 0x1A4D JUMP JUMPDEST SUB PUSH2 0xF75 JUMPI POP POP PUSH1 0x8 SSTORE PUSH1 0x9 SSTORE STOP JUMPDEST MLOAD PUSH4 0x601F697 PUSH1 0xE0 SHL DUP2 MSTORE REVERT JUMPDEST POP CALLVALUE PUSH2 0x370 JUMPI PUSH0 CALLDATASIZE PUSH1 0x3 NOT ADD SLT PUSH2 0x370 JUMPI PUSH1 0x2 SLOAD SWAP1 MLOAD PUSH1 0x1 PUSH1 0x1 PUSH1 0xA0 SHL SUB SWAP1 SWAP2 AND DUP2 MSTORE PUSH1 0x20 SWAP1 RETURN JUMPDEST POP CALLVALUE PUSH2 0x370 JUMPI PUSH0 CALLDATASIZE PUSH1 0x3 NOT ADD SLT PUSH2 0x370 JUMPI PUSH1 0x1 SLOAD PUSH1 0x1 PUSH1 0x1 PUSH1 0xA0 SHL SUB SWAP3 SWAP1 SWAP2 DUP4 DUP4 AND SWAP2 SWAP1 CALLER DUP4 SWAP1 SUB PUSH2 0x1017 JUMPI POP POP DUP1 PUSH0 SLOAD SWAP4 DUP5 AND PUSH32 0x8BE0079C531659141344CD1FD0A4F28419497F9722A3DAAFE3B4186F6B6457E0 PUSH0 DUP1 LOG3 PUSH1 0x1 PUSH1 0x1 PUSH1 0xA0 SHL SUB NOT SWAP3 DUP4 AND OR PUSH0 SSTORE AND PUSH1 0x1 SSTORE STOP JUMPDEST SWAP1 PUSH1 0x20 PUSH1 0x64 SWAP3 MLOAD SWAP2 PUSH3 0x461BCD PUSH1 0xE5 SHL DUP4 MSTORE DUP3 ADD MSTORE PUSH1 0x11 PUSH1 0x24 DUP3 ADD MSTORE PUSH17 0x2737BA103832B73234B7339037BBB732B9 PUSH1 0x79 SHL PUSH1 0x44 DUP3 ADD MSTORE REVERT JUMPDEST POP SWAP1 CALLVALUE PUSH2 0x370 JUMPI PUSH1 0x20 CALLDATASIZE PUSH1 0x3 NOT ADD SLT PUSH2 0x370 JUMPI DUP2 PUSH0 PUSH1 0xC0 PUSH1 0xE0 SWAP5 MLOAD PUSH2 0x1072 DUP2 PUSH2 0x19DF JUMP JUMPDEST DUP3 DUP2 MSTORE DUP3 PUSH1 0x20 DUP3 ADD MSTORE DUP3 DUP5 DUP3 ADD MSTORE DUP3 PUSH1 0x60 DUP3 ADD MSTORE DUP3 PUSH1 0x80 DUP3 ADD MSTORE DUP3 PUSH1 0xA0 DUP3 ADD MSTORE ADD MSTORE DUP2 CALLDATALOAD PUSH0 MSTORE PUSH1 0xF PUSH1 0x20 MSTORE DUP1 PUSH0 KECCAK256 DUP2 MLOAD SWAP2 PUSH2 0x10AC DUP4 PUSH2 0x19DF JUMP JUMPDEST DUP2 SLOAD SWAP4 DUP5 DUP5 MSTORE PUSH1 0x1 DUP4 ADD SLOAD SWAP2 PUSH1 0x20 DUP6 ADD SWAP3 DUP4 MSTORE PUSH1 0x2 DUP5 ADD SLOAD DUP2 DUP7 ADD SWAP1 DUP2 MSTORE PUSH1 0x3 DUP6 ADD SLOAD SWAP3 PUSH1 0x60 DUP8 ADD SWAP4 DUP5 MSTORE DUP6 ADD SLOAD SWAP4 PUSH1 0x80 DUP8 ADD SWAP5 DUP6 MSTORE PUSH1 0xC0 PUSH1 0xFF PUSH1 0x6 PUSH1 0x5 DUP10 ADD SLOAD SWAP9 PUSH1 0xA0 DUP12 ADD SWAP10 DUP11 MSTORE ADD SLOAD AND SWAP8 ADD SWAP7 ISZERO ISZERO DUP8 MSTORE DUP3 MLOAD SWAP8 DUP9 MSTORE MLOAD PUSH1 0x20 DUP9 ADD MSTORE MLOAD SWAP1 DUP7 ADD MSTORE MLOAD PUSH1 0x60 DUP6 ADD MSTORE MLOAD PUSH1 0x80 DUP5 ADD MSTORE MLOAD PUSH1 0xA0 DUP4 ADD MSTORE MLOAD ISZERO ISZERO PUSH1 0xC0 DUP3 ADD MSTORE RETURN JUMPDEST POP SWAP1 CALLVALUE PUSH2 0x370 JUMPI PUSH1 0x20 CALLDATASIZE PUSH1 0x3 NOT ADD SLT PUSH2 0x370 JUMPI PUSH2 0x1146 PUSH2 0x18D2 JUMP JUMPDEST PUSH0 SLOAD PUSH1 0x1 PUSH1 0x1 PUSH1 0xA0 SHL SUB SWAP2 SWAP1 DUP3 AND CALLER SUB PUSH2 0x4BB JUMPI AND SWAP2 DUP3 ISZERO PUSH2 0x453 JUMPI PUSH1 0x3 DUP1 SLOAD PUSH1 0x1 PUSH1 0x1 PUSH1 0xA0 SHL SUB NOT AND DUP5 OR SWAP1 SSTORE STOP JUMPDEST POP SWAP1 CALLVALUE PUSH2 0x370 JUMPI PUSH1 0x20 CALLDATASIZE PUSH1 0x3 NOT ADD SLT PUSH2 0x370 JUMPI PUSH0 SLOAD DUP2 CALLDATALOAD SWAP3 SWAP1 PUSH1 0x1 PUSH1 0x1 PUSH1 0xA0 SHL SUB AND CALLER SUB PUSH2 0x363 JUMPI PUSH2 0x3E8 DUP4 GT PUSH2 0x11AE JUMPI PUSH1 0xB DUP4 SWAP1 SSTORE STOP JUMPDEST SWAP1 PUSH1 0x20 PUSH1 0x64 SWAP3 MLOAD SWAP2 PUSH3 0x461BCD PUSH1 0xE5 SHL DUP4 MSTORE DUP3 ADD MSTORE PUSH1 0x8 PUSH1 0x24 DUP3 ADD MSTORE PUSH8 0xA8DEDE40D0D2CED PUSH1 0xC3 SHL PUSH1 0x44 DUP3 ADD MSTORE REVERT JUMPDEST POP CALLVALUE PUSH2 0x370 JUMPI PUSH1 0x20 CALLDATASIZE PUSH1 0x3 NOT ADD SLT PUSH2 0x370 JUMPI DUP2 PUSH1 0xE0 SWAP3 CALLDATALOAD PUSH0 MSTORE PUSH1 0xF PUSH1 0x20 MSTORE DUP2 PUSH0 KECCAK256 DUP1 SLOAD SWAP3 PUSH1 0x1 DUP3 ADD SLOAD SWAP3 PUSH1 0x2 DUP4 ADD SLOAD PUSH1 0x3 DUP5 ADD SLOAD SWAP2 DUP5 ADD SLOAD SWAP3 PUSH1 0xFF PUSH1 0x6 PUSH1 0x5 DUP8 ADD SLOAD SWAP7 ADD SLOAD AND SWAP6 DUP2 MLOAD SWAP8 DUP9 MSTORE PUSH1 0x20 DUP9 ADD MSTORE DUP7 ADD MSTORE PUSH1 0x60 DUP6 ADD MSTORE PUSH1 0x80 DUP5 ADD MSTORE PUSH1 0xA0 DUP4 ADD MSTORE ISZERO ISZERO PUSH1 0xC0 DUP3 ADD MSTORE RETURN JUMPDEST POP CALLVALUE PUSH2 0x370 JUMPI PUSH1 0x20 CALLDATASIZE PUSH1 0x3 NOT ADD SLT PUSH2 0x370 JUMPI PUSH1 0x20 SWAP2 CALLDATALOAD PUSH0 MSTORE PUSH1 0x11 DUP3 MSTORE DUP1 PUSH0 KECCAK256 SLOAD SWAP1 MLOAD SWAP1 DUP2 MSTORE RETURN JUMPDEST POP CALLVALUE PUSH2 0x370 JUMPI PUSH0 CALLDATASIZE PUSH1 0x3 NOT ADD SLT PUSH2 0x370 JUMPI PUSH1 0x20 SWAP1 PUSH1 0x17 SLOAD SWAP1 MLOAD SWAP1 DUP2 MSTORE RETURN JUMPDEST POP CALLVALUE PUSH2 0x370 JUMPI PUSH0 CALLDATASIZE PUSH1 0x3 NOT ADD SLT PUSH2 0x370 JUMPI PUSH1 0x5 SLOAD SWAP1 MLOAD PUSH1 0x1 PUSH1 0x1 PUSH1 0xA0 SHL SUB SWAP1 SWAP2 AND DUP2 MSTORE PUSH1 0x20 SWAP1 RETURN JUMPDEST POP CALLVALUE PUSH2 0x370 JUMPI PUSH0 CALLDATASIZE PUSH1 0x3 NOT ADD SLT PUSH2 0x370 JUMPI PUSH1 0x20 SWAP1 PUSH1 0xFF PUSH1 0x1 SLOAD PUSH1 0xA0 SHR AND SWAP1 MLOAD SWAP1 ISZERO ISZERO DUP2 MSTORE RETURN JUMPDEST POP CALLVALUE PUSH2 0x370 JUMPI DUP1 PUSH1 0x3 NOT CALLDATASIZE ADD SLT PUSH2 0x370 JUMPI PUSH1 0x20 SWAP2 PUSH2 0x12F7 PUSH2 0x18BC JUMP JUMPDEST SWAP1 CALLDATALOAD PUSH0 MSTORE PUSH1 0x14 DUP4 MSTORE DUP2 PUSH0 KECCAK256 SWAP1 PUSH1 0x1 DUP1 PUSH1 0xA0 SHL SUB AND PUSH0 MSTORE DUP3 MSTORE DUP1 PUSH0 KECCAK256 SLOAD SWAP1 MLOAD SWAP1 DUP2 MSTORE RETURN JUMPDEST POP CALLVALUE PUSH2 0x370 JUMPI PUSH0 CALLDATASIZE PUSH1 0x3 NOT ADD SLT PUSH2 0x370 JUMPI PUSH1 0x20 SWAP1 PUSH1 0x18 SLOAD SWAP1 MLOAD SWAP1 DUP2 MSTORE RETURN JUMPDEST POP CALLVALUE PUSH2 0x370 JUMPI PUSH1 0x20 CALLDATASIZE PUSH1 0x3 NOT ADD SLT PUSH2 0x370 JUMPI PUSH1 0x20 SWAP2 CALLDATALOAD PUSH0 MSTORE PUSH1 0xC DUP3 MSTORE DUP1 PUSH0 KECCAK256 SLOAD SWAP1 MLOAD SWAP1 DUP2 MSTORE RETURN JUMPDEST POP CALLVALUE PUSH2 0x370 JUMPI PUSH0 CALLDATASIZE PUSH1 0x3 NOT ADD SLT PUSH2 0x370 JUMPI PUSH0 SLOAD PUSH1 0x1 PUSH1 0x1 PUSH1 0xA0 SHL SUB AND CALLER SUB PUSH2 0x363 JUMPI PUSH1 0x1 DUP1 SLOAD PUSH1 0xFF PUSH1 0xA0 SHL NOT AND SWAP1 SSTORE PUSH32 0xA45F47FDEA8A1EFDD9029A5691C7F759C32B7C698632B563573E155625D16933 PUSH0 DUP1 LOG1 STOP JUMPDEST POP CALLVALUE PUSH2 0x370 JUMPI PUSH0 CALLDATASIZE PUSH1 0x3 NOT ADD SLT PUSH2 0x370 JUMPI MLOAD PUSH32 0x0 PUSH1 0x1 PUSH1 0x1 PUSH1 0xA0 SHL SUB AND DUP2 MSTORE PUSH1 0x20 SWAP1 RETURN JUMPDEST POP CALLVALUE PUSH2 0x370 JUMPI PUSH1 0xC0 CALLDATASIZE PUSH1 0x3 NOT ADD SLT PUSH2 0x370 JUMPI DUP2 CALLDATALOAD SWAP1 PUSH8 0xFFFFFFFFFFFFFFFF SWAP1 DUP2 DUP4 GT PUSH2 0x370 JUMPI CALLDATASIZE PUSH1 0x23 DUP5 ADD SLT ISZERO PUSH2 0x370 JUMPI DUP3 DUP5 ADD CALLDATALOAD SWAP2 DUP3 GT PUSH2 0x370 JUMPI CALLDATASIZE PUSH1 0x24 DUP4 DUP6 ADD ADD GT PUSH2 0x370 JUMPI PUSH0 SLOAD PUSH1 0x44 CALLDATALOAD SWAP4 PUSH1 0x84 CALLDATALOAD SWAP4 PUSH1 0x64 CALLDATALOAD SWAP3 PUSH1 0x1 PUSH1 0x1 PUSH1 0xA0 SHL SUB AND CALLER SUB PUSH2 0x159D JUMPI DUP4 MLOAD PUSH1 0x20 SWAP3 DUP4 DUP3 ADD SWAP3 PUSH2 0x1486 SWAP2 DUP6 SWAP2 DUP5 SWAP2 DUP2 SWAP1 PUSH1 0x24 ADD DUP8 CALLDATACOPY DUP2 ADD PUSH0 DUP4 DUP3 ADD MSTORE SUB DUP1 DUP5 MSTORE ADD DUP3 PUSH2 0x1A2B JUMP JUMPDEST MLOAD SWAP1 KECCAK256 SWAP6 PUSH2 0x150E DUP5 MLOAD PUSH2 0x1498 DUP2 PUSH2 0x19DF JUMP JUMPDEST DUP9 DUP2 MSTORE PUSH1 0x6 DUP10 DUP6 DUP4 ADD PUSH1 0x24 CALLDATALOAD DUP2 MSTORE DUP9 DUP5 ADD DUP12 DUP2 MSTORE PUSH1 0x60 DUP6 ADD DUP10 DUP2 MSTORE PUSH1 0x80 DUP7 ADD SWAP2 DUP13 DUP4 MSTORE PUSH1 0xA0 DUP8 ADD SWAP4 PUSH1 0xA4 CALLDATALOAD DUP6 MSTORE PUSH1 0xC0 DUP9 ADD SWAP6 PUSH1 0x1 DUP8 MSTORE PUSH0 MSTORE PUSH1 0xF DUP12 MSTORE DUP13 PUSH0 KECCAK256 SWAP8 MLOAD DUP9 SSTORE MLOAD PUSH1 0x1 DUP9 ADD SSTORE MLOAD PUSH1 0x2 DUP8 ADD SSTORE MLOAD PUSH1 0x3 DUP7 ADD SSTORE MLOAD DUP7 DUP6 ADD SSTORE MLOAD PUSH1 0x5 DUP5 ADD SSTORE MLOAD ISZERO ISZERO SWAP2 ADD SWAP1 PUSH1 0xFF DUP1 NOT DUP4 SLOAD AND SWAP2 ISZERO ISZERO AND OR SWAP1 SSTORE JUMP JUMPDEST PUSH1 0x10 SLOAD SWAP1 PUSH9 0x10000000000000000 DUP3 LT ISZERO PUSH2 0x158A JUMPI POP SWAP2 PUSH32 0xC09B0E6EA17E638181154AED6758AE0143886172F6CF847A2302FF6DEF186619 SWAP6 SWAP4 SWAP2 PUSH2 0x155C DUP5 PUSH1 0x1 PUSH1 0x60 SWAP9 SWAP7 ADD PUSH1 0x10 SSTORE PUSH2 0x1944 JUMP JUMPDEST DUP2 SLOAD SWAP1 PUSH1 0x3 SHL SWAP1 DUP11 DUP3 SHL SWAP2 PUSH0 NOT SWAP1 SHL NOT AND OR SWAP1 SSTORE DUP8 PUSH0 MSTORE PUSH1 0xD DUP2 MSTORE TIMESTAMP DUP4 PUSH0 KECCAK256 SSTORE DUP3 MLOAD SWAP5 DUP6 MSTORE DUP5 ADD MSTORE DUP3 ADD MSTORE LOG2 STOP JUMPDEST PUSH1 0x41 SWAP1 PUSH4 0x4E487B71 PUSH1 0xE0 SHL PUSH0 MSTORE MSTORE PUSH1 0x24 PUSH0 REVERT JUMPDEST DUP4 MLOAD PUSH4 0x5FC483C5 PUSH1 0xE0 SHL DUP2 MSTORE DUP8 SWAP1 REVERT JUMPDEST POP SWAP1 CALLVALUE PUSH2 0x370 JUMPI PUSH1 0x20 CALLDATASIZE PUSH1 0x3 NOT ADD SLT PUSH2 0x370 JUMPI PUSH0 SLOAD DUP2 CALLDATALOAD SWAP3 SWAP1 PUSH1 0x1 PUSH1 0x1 PUSH1 0xA0 SHL SUB AND CALLER SUB PUSH2 0x363 JUMPI PUSH2 0x3E8 DUP4 LT ISZERO DUP1 PUSH2 0x1619 JUMPI JUMPDEST ISZERO PUSH2 0x15ED JUMPI PUSH1 0x16 DUP4 SWAP1 SSTORE STOP JUMPDEST SWAP1 PUSH1 0x20 PUSH1 0x64 SWAP3 MLOAD SWAP2 PUSH3 0x461BCD PUSH1 0xE5 SHL DUP4 MSTORE DUP3 ADD MSTORE PUSH1 0x6 PUSH1 0x24 DUP3 ADD MSTORE PUSH6 0x31302D353025 PUSH1 0xD0 SHL PUSH1 0x44 DUP3 ADD MSTORE REVERT JUMPDEST POP PUSH2 0x1388 DUP4 GT ISZERO PUSH2 0x15E1 JUMP JUMPDEST POP SWAP1 CALLVALUE PUSH2 0x370 JUMPI PUSH1 0x20 CALLDATASIZE PUSH1 0x3 NOT ADD SLT PUSH2 0x370 JUMPI CALLDATALOAD PUSH2 0x1653 PUSH2 0x2710 PUSH2 0x164B PUSH1 0x8 SLOAD DUP5 PUSH2 0x19AE JUMP JUMPDEST DIV DUP1 SWAP3 PUSH2 0x198D JUMP JUMPDEST DUP3 MLOAD SWAP2 DUP3 MSTORE PUSH1 0x20 DUP3 ADD MSTORE RETURN JUMPDEST POP SWAP1 CALLVALUE PUSH2 0x370 JUMPI PUSH1 0x20 CALLDATASIZE PUSH1 0x3 NOT ADD SLT PUSH2 0x370 JUMPI PUSH0 SLOAD DUP2 CALLDATALOAD SWAP3 SWAP1 PUSH1 0x1 PUSH1 0x1 PUSH1 0xA0 SHL SUB AND CALLER SUB PUSH2 0x363 JUMPI PUSH2 0x1388 DUP4 LT ISZERO DUP1 PUSH2 0x16CF JUMPI JUMPDEST ISZERO PUSH2 0x169F JUMPI PUSH1 0xA DUP4 SWAP1 SSTORE STOP JUMPDEST SWAP1 PUSH1 0x20 PUSH1 0x64 SWAP3 MLOAD SWAP2 PUSH3 0x461BCD PUSH1 0xE5 SHL DUP4 MSTORE DUP3 ADD MSTORE PUSH1 0xA PUSH1 0x24 DUP3 ADD MSTORE PUSH10 0x4361702035302D393525 PUSH1 0xB0 SHL PUSH1 0x44 DUP3 ADD MSTORE REVERT JUMPDEST POP PUSH2 0x251C DUP4 GT ISZERO PUSH2 0x1693 JUMP JUMPDEST POP CALLVALUE PUSH2 0x370 JUMPI PUSH2 0x16EA CALLDATASIZE PUSH2 0x18F7 JUMP JUMPDEST DUP6 SLOAD SWAP4 SWAP6 SWAP3 SWAP4 PUSH1 0x1 PUSH1 0x1 PUSH1 0xA0 SHL SUB SWAP4 SWAP2 SWAP3 SWAP2 SWAP1 DUP5 AND CALLER SUB PUSH2 0x181D JUMPI POP ISZERO PUSH2 0x1794 JUMPI DUP5 PUSH0 MSTORE PUSH1 0x20 SWAP2 PUSH1 0x11 DUP4 MSTORE DUP5 PUSH0 KECCAK256 SLOAD DUP3 DUP1 DUP3 GT PUSH0 EQ PUSH2 0x178C JUMPI PUSH2 0x172C SWAP2 PUSH2 0x198D JUMP JUMPDEST DUP7 PUSH0 MSTORE PUSH1 0x11 DUP5 MSTORE DUP6 PUSH0 KECCAK256 SSTORE PUSH1 0x13 DUP4 MSTORE DUP5 PUSH0 KECCAK256 SWAP4 AND SWAP3 DUP4 PUSH0 MSTORE DUP3 MSTORE DUP1 DUP5 PUSH0 KECCAK256 SLOAD GT PUSH0 EQ PUSH2 0x1784 JUMPI PUSH2 0x176E SWAP1 DUP6 PUSH0 MSTORE PUSH1 0x13 DUP4 MSTORE DUP5 PUSH0 KECCAK256 DUP5 PUSH0 MSTORE DUP4 MSTORE DUP5 PUSH0 KECCAK256 SLOAD PUSH2 0x198D JUMP JUMPDEST SWAP4 JUMPDEST PUSH0 MSTORE PUSH1 0x13 DUP2 MSTORE DUP3 PUSH0 KECCAK256 SWAP2 PUSH0 MSTORE MSTORE PUSH0 KECCAK256 SSTORE PUSH0 DUP1 RETURN JUMPDEST POP PUSH0 SWAP4 PUSH2 0x1770 JUMP JUMPDEST POP POP PUSH0 PUSH2 0x172C JUMP JUMPDEST DUP5 PUSH0 MSTORE PUSH1 0x20 SWAP2 PUSH1 0x12 DUP4 MSTORE DUP5 PUSH0 KECCAK256 SLOAD DUP3 DUP1 DUP3 GT PUSH0 EQ PUSH2 0x1815 JUMPI PUSH2 0x17B5 SWAP2 PUSH2 0x198D JUMP JUMPDEST DUP7 PUSH0 MSTORE PUSH1 0x12 DUP5 MSTORE DUP6 PUSH0 KECCAK256 SSTORE PUSH1 0x14 DUP4 MSTORE DUP5 PUSH0 KECCAK256 SWAP4 AND SWAP3 DUP4 PUSH0 MSTORE DUP3 MSTORE DUP1 DUP5 PUSH0 KECCAK256 SLOAD GT PUSH0 EQ PUSH2 0x180D JUMPI PUSH2 0x17F7 SWAP1 DUP6 PUSH0 MSTORE PUSH1 0x14 DUP4 MSTORE DUP5 PUSH0 KECCAK256 DUP5 PUSH0 MSTORE DUP4 MSTORE DUP5 PUSH0 KECCAK256 SLOAD PUSH2 0x198D JUMP JUMPDEST SWAP4 JUMPDEST PUSH0 MSTORE PUSH1 0x14 DUP2 MSTORE DUP3 PUSH0 KECCAK256 SWAP2 PUSH0 MSTORE MSTORE PUSH0 KECCAK256 SSTORE PUSH0 DUP1 RETURN JUMPDEST POP PUSH0 SWAP4 PUSH2 0x17F9 JUMP JUMPDEST POP POP PUSH0 PUSH2 0x17B5 JUMP JUMPDEST DUP6 MLOAD PUSH4 0xE9E3F4AD PUSH1 0xE0 SHL DUP2 MSTORE REVERT JUMPDEST POP CALLVALUE PUSH2 0x370 JUMPI PUSH0 CALLDATASIZE PUSH1 0x3 NOT ADD SLT PUSH2 0x370 JUMPI PUSH1 0x20 SWAP1 PUSH1 0xB SLOAD SWAP1 MLOAD SWAP1 DUP2 MSTORE RETURN JUMPDEST DUP4 DUP4 CALLVALUE PUSH2 0x370 JUMPI PUSH1 0x20 CALLDATASIZE PUSH1 0x3 NOT ADD SLT PUSH2 0x370 JUMPI PUSH0 SLOAD DUP3 CALLDATALOAD SWAP4 SWAP1 PUSH1 0x1 PUSH1 0x1 PUSH1 0xA0 SHL SUB AND CALLER SUB PUSH2 0x18AE JUMPI POP PUSH2 0x1F4 DUP4 GT PUSH2 0x1882 JUMPI PUSH1 0xE DUP4 SWAP1 SSTORE STOP JUMPDEST SWAP1 PUSH1 0x20 PUSH1 0x64 SWAP3 MLOAD SWAP2 PUSH3 0x461BCD PUSH1 0xE5 SHL DUP4 MSTORE DUP3 ADD MSTORE PUSH1 0x6 PUSH1 0x24 DUP3 ADD MSTORE PUSH6 0x4D6178203525 PUSH1 0xD0 SHL PUSH1 0x44 DUP3 ADD MSTORE REVERT JUMPDEST PUSH4 0x5FC483C5 PUSH1 0xE0 SHL DUP2 MSTORE SWAP1 POP REVERT JUMPDEST PUSH1 0x24 CALLDATALOAD SWAP1 PUSH1 0x1 PUSH1 0x1 PUSH1 0xA0 SHL SUB DUP3 AND DUP3 SUB PUSH2 0x370 JUMPI JUMP JUMPDEST PUSH1 0x4 CALLDATALOAD SWAP1 PUSH1 0x1 PUSH1 0x1 PUSH1 0xA0 SHL SUB DUP3 AND DUP3 SUB PUSH2 0x370 JUMPI JUMP JUMPDEST PUSH1 0x24 CALLDATALOAD SWAP1 DUP2 ISZERO ISZERO DUP3 SUB PUSH2 0x370 JUMPI JUMP JUMPDEST PUSH1 0x80 SWAP1 PUSH1 0x3 NOT ADD SLT PUSH2 0x370 JUMPI PUSH1 0x4 CALLDATALOAD SWAP1 PUSH1 0x24 CALLDATALOAD PUSH1 0x1 PUSH1 0x1 PUSH1 0xA0 SHL SUB DUP2 AND DUP2 SUB PUSH2 0x370 JUMPI SWAP1 PUSH1 0x44 CALLDATALOAD DUP1 ISZERO ISZERO DUP2 SUB PUSH2 0x370 JUMPI SWAP1 PUSH1 0x64 CALLDATALOAD SWAP1 JUMP JUMPDEST PUSH1 0x40 SWAP1 PUSH1 0x3 NOT ADD SLT PUSH2 0x370 JUMPI PUSH1 0x4 CALLDATALOAD SWAP1 PUSH1 0x24 CALLDATALOAD SWAP1 JUMP JUMPDEST PUSH1 0x10 SLOAD DUP2 LT ISZERO PUSH2 0x1979 JUMPI PUSH1 0x10 PUSH0 MSTORE PUSH32 0x1B6847DC741A1B0CD08D278845F9D819D87B734759AFB55FE2DE5CB82A9AE672 ADD SWAP1 PUSH0 SWAP1 JUMP JUMPDEST PUSH4 0x4E487B71 PUSH1 0xE0 SHL PUSH0 MSTORE PUSH1 0x32 PUSH1 0x4 MSTORE PUSH1 0x24 PUSH0 REVERT JUMPDEST SWAP2 SWAP1 DUP3 SUB SWAP2 DUP3 GT PUSH2 0x199A JUMPI JUMP JUMPDEST PUSH4 0x4E487B71 PUSH1 0xE0 SHL PUSH0 MSTORE PUSH1 0x11 PUSH1 0x4 MSTORE PUSH1 0x24 PUSH0 REVERT JUMPDEST DUP2 DUP2 MUL SWAP3 SWAP2 DUP2 ISZERO SWAP2 DUP5 DIV EQ OR ISZERO PUSH2 0x199A JUMPI JUMP JUMPDEST DUP2 ISZERO PUSH2 0x19CB JUMPI DIV SWAP1 JUMP JUMPDEST PUSH4 0x4E487B71 PUSH1 0xE0 SHL PUSH0 MSTORE PUSH1 0x12 PUSH1 0x4 MSTORE PUSH1 0x24 PUSH0 REVERT JUMPDEST PUSH1 0xE0 DUP2 ADD SWAP1 DUP2 LT PUSH8 0xFFFFFFFFFFFFFFFF DUP3 GT OR PUSH2 0x19FB JUMPI PUSH1 0x40 MSTORE JUMP JUMPDEST PUSH4 0x4E487B71 PUSH1 0xE0 SHL PUSH0 MSTORE PUSH1 0x41 PUSH1 0x4 MSTORE PUSH1 0x24 PUSH0 REVERT JUMPDEST PUSH1 0x40 DUP2 ADD SWAP1 DUP2 LT PUSH8 0xFFFFFFFFFFFFFFFF DUP3 GT OR PUSH2 0x19FB JUMPI PUSH1 0x40 MSTORE JUMP JUMPDEST SWAP1 PUSH1 0x1F DUP1 NOT SWAP2 ADD AND DUP2 ADD SWAP1 DUP2 LT PUSH8 0xFFFFFFFFFFFFFFFF DUP3 GT OR PUSH2 0x19FB JUMPI PUSH1 0x40 MSTORE JUMP JUMPDEST SWAP2 SWAP1 DUP3 ADD DUP1 SWAP3 GT PUSH2 0x199A JUMPI JUMP JUMPDEST DUP2 DUP2 SUB SWAP3 SWAP2 PUSH0 SGT DUP1 ISZERO DUP3 DUP6 SGT AND SWAP2 DUP5 SLT AND OR PUSH2 0x199A JUMPI JUMP JUMPDEST SWAP1 PUSH8 0xDE0B6B3A7640000 SWAP2 DUP3 DUP2 MUL SWAP3 DUP2 DUP5 SDIV EQ SWAP1 ISZERO OR ISZERO PUSH2 0x199A JUMPI JUMP JUMPDEST SWAP1 PUSH3 0x15180 SWAP2 DUP3 DUP2 MUL SWAP3 DUP2 DUP5 SDIV EQ SWAP1 ISZERO OR ISZERO PUSH2 0x199A JUMPI JUMP JUMPDEST SWAP1 PUSH2 0x2710 SWAP2 DUP3 DUP2 MUL SWAP3 DUP2 DUP5 SDIV EQ SWAP1 ISZERO OR ISZERO PUSH2 0x199A JUMPI JUMP JUMPDEST DUP2 DUP2 MUL SWAP3 SWAP2 PUSH0 DUP3 SLT PUSH1 0x1 PUSH1 0xFF SHL DUP3 EQ AND PUSH2 0x199A JUMPI DUP2 DUP5 SDIV EQ SWAP1 ISZERO OR ISZERO PUSH2 0x199A JUMPI JUMP JUMPDEST DUP2 ISZERO PUSH2 0x19CB JUMPI PUSH1 0x1 PUSH1 0xFF SHL DUP2 EQ PUSH0 NOT DUP4 EQ AND PUSH2 0x199A JUMPI SDIV SWAP1 JUMP JUMPDEST DUP1 PUSH0 MSTORE PUSH1 0xF PUSH1 0x20 MSTORE PUSH1 0x40 PUSH0 KECCAK256 SWAP1 PUSH1 0x40 MLOAD PUSH2 0x1B13 DUP2 PUSH2 0x19DF JUMP JUMPDEST DUP3 SLOAD DUP2 MSTORE PUSH1 0x1 DUP4 ADD SLOAD PUSH1 0x20 DUP3 ADD MSTORE PUSH1 0x2 DUP4 ADD SLOAD PUSH1 0x40 DUP3 ADD MSTORE PUSH1 0xC0 PUSH1 0xFF PUSH1 0x6 PUSH1 0x3 DUP7 ADD SLOAD SWAP6 DUP7 PUSH1 0x60 DUP7 ADD MSTORE PUSH1 0x4 DUP2 ADD SLOAD PUSH1 0x80 DUP7 ADD MSTORE PUSH1 0x5 DUP2 ADD SLOAD PUSH1 0xA0 DUP7 ADD MSTORE ADD SLOAD AND ISZERO ISZERO SWAP2 ADD MSTORE DUP2 ISZERO PUSH2 0x1BC5 JUMPI PUSH0 MSTORE PUSH1 0x11 PUSH1 0x20 MSTORE PUSH2 0x1B8A PUSH2 0x1B81 PUSH1 0x40 PUSH0 KECCAK256 SLOAD PUSH1 0x12 PUSH1 0x20 MSTORE PUSH1 0x40 PUSH0 KECCAK256 SLOAD SWAP1 PUSH2 0x1A5A JUMP JUMPDEST PUSH1 0xB SLOAD SWAP1 PUSH2 0x1ABE JUMP JUMPDEST SWAP1 PUSH2 0x7080 SWAP2 DUP3 DUP2 MUL SWAP3 DUP2 DUP5 SDIV EQ SWAP1 ISZERO OR ISZERO PUSH2 0x199A JUMPI PUSH2 0x1BBC PUSH2 0x1BB7 PUSH2 0x1BB1 PUSH2 0x1BC2 SWAP5 PUSH2 0x1A72 JUMP JUMPDEST SWAP3 PUSH2 0x1A8F JUMP JUMPDEST PUSH2 0x1AA7 JUMP JUMPDEST SWAP1 PUSH2 0x1AE0 JUMP JUMPDEST SWAP1 JUMP JUMPDEST POP POP PUSH0 SWAP1 JUMP JUMPDEST SWAP1 DUP2 PUSH0 MSTORE PUSH1 0x20 PUSH1 0xF DUP2 MSTORE PUSH1 0x40 DUP1 PUSH0 KECCAK256 DUP2 MLOAD SWAP1 PUSH2 0x1BE6 DUP3 PUSH2 0x19DF JUMP JUMPDEST DUP1 SLOAD DUP3 MSTORE PUSH1 0x1 DUP2 ADD SLOAD DUP5 DUP4 ADD MSTORE PUSH1 0x2 DUP2 ADD SLOAD DUP4 DUP4 ADD MSTORE PUSH1 0x3 DUP2 ADD SLOAD SWAP2 DUP3 PUSH1 0x60 DUP3 ADD MSTORE PUSH1 0xC0 PUSH1 0xFF PUSH1 0x6 PUSH1 0x4 DUP6 ADD SLOAD SWAP5 DUP6 PUSH1 0x80 DUP7 ADD MSTORE PUSH1 0x5 DUP2 ADD SLOAD PUSH1 0xA0 DUP7 ADD MSTORE ADD SLOAD AND ISZERO ISZERO SWAP2 ADD MSTORE DUP5 PUSH0 EQ PUSH2 0x1CBC JUMPI POP SWAP4 JUMPDEST DUP5 ISZERO PUSH2 0x1CB2 JUMPI PUSH2 0x1C6C SWAP4 ISZERO PUSH2 0x1C99 JUMPI PUSH0 MSTORE PUSH1 0x11 DUP3 MSTORE PUSH1 0x12 DUP2 PUSH0 KECCAK256 SLOAD SWAP3 MSTORE PUSH0 KECCAK256 SLOAD GT ISZERO SWAP2 JUMPDEST PUSH2 0x1C67 PUSH1 0xE SLOAD DUP1 SWAP6 PUSH2 0x19AE JUMP JUMPDEST PUSH2 0x19C1 JUMP JUMPDEST SWAP2 DUP1 DUP4 GT PUSH2 0x1C91 JUMPI JUMPDEST POP ISZERO PUSH2 0x1C7E JUMPI SWAP1 JUMP JUMPDEST PUSH1 0x1 SHR PUSH1 0x1 PUSH1 0xFF SHL DUP2 EQ PUSH2 0x199A JUMPI PUSH0 SUB SWAP1 JUMP JUMPDEST SWAP2 POP PUSH0 PUSH2 0x1C75 JUMP JUMPDEST PUSH0 MSTORE PUSH1 0x12 DUP3 MSTORE PUSH1 0x11 DUP2 PUSH0 KECCAK256 SLOAD SWAP3 MSTORE PUSH0 KECCAK256 SLOAD GT ISZERO SWAP2 PUSH2 0x1C5A JUMP JUMPDEST POP POP POP POP POP POP PUSH0 SWAP1 JUMP JUMPDEST SWAP1 POP SWAP4 PUSH2 0x1C36 JUMP JUMPDEST RETURNDATASIZE ISZERO PUSH2 0x1CFE JUMPI RETURNDATASIZE SWAP1 PUSH8 0xFFFFFFFFFFFFFFFF DUP3 GT PUSH2 0x19FB JUMPI PUSH1 0x40 MLOAD SWAP2 PUSH2 0x1CF3 PUSH1 0x1F DUP3 ADD PUSH1 0x1F NOT AND PUSH1 0x20 ADD DUP5 PUSH2 0x1A2B JUMP JUMPDEST DUP3 MSTORE RETURNDATASIZE PUSH0 PUSH1 0x20 DUP5 ADD RETURNDATACOPY JUMP JUMPDEST PUSH1 0x60 SWAP1 JUMP JUMPDEST DUP1 PUSH0 MSTORE PUSH1 0x20 SWAP1 PUSH1 0xD DUP3 MSTORE PUSH1 0x40 SWAP2 PUSH2 0x1D1D DUP4 PUSH0 KECCAK256 SLOAD TIMESTAMP PUSH2 0x198D JUMP JUMPDEST DUP1 ISZERO PUSH2 0x1E49 JUMPI DUP3 PUSH0 MSTORE PUSH1 0xF DUP3 MSTORE DUP4 PUSH0 KECCAK256 SWAP1 DUP5 MLOAD PUSH2 0x1D39 DUP2 PUSH2 0x19DF JUMP JUMPDEST DUP3 SLOAD DUP2 MSTORE PUSH1 0x1 DUP4 ADD SLOAD DUP5 DUP3 ADD MSTORE PUSH1 0x2 DUP4 ADD SLOAD DUP7 DUP3 ADD MSTORE PUSH1 0xC0 PUSH1 0xFF PUSH1 0x6 PUSH1 0x3 DUP7 ADD SLOAD SWAP6 DUP7 PUSH1 0x60 DUP7 ADD MSTORE PUSH1 0x4 DUP2 ADD SLOAD PUSH1 0x80 DUP7 ADD MSTORE PUSH1 0x5 DUP2 ADD SLOAD PUSH1 0xA0 DUP7 ADD MSTORE ADD SLOAD AND ISZERO ISZERO SWAP2 ADD MSTORE DUP2 ISZERO PUSH2 0x1E32 JUMPI SWAP1 PUSH2 0x1BBC PUSH2 0x1BB7 PUSH2 0x1BB1 PUSH2 0x1DB8 PUSH2 0x1DBD SWAP6 DUP9 PUSH0 MSTORE PUSH1 0x11 DUP9 MSTORE PUSH2 0x1DB3 PUSH2 0x1B81 DUP12 PUSH0 KECCAK256 SLOAD PUSH1 0x12 DUP12 MSTORE DUP13 PUSH0 KECCAK256 SLOAD SWAP1 PUSH2 0x1A5A JUMP JUMPDEST PUSH2 0x1ABE JUMP JUMPDEST PUSH2 0x1A72 JUMP JUMPDEST SWAP2 DUP1 PUSH0 MSTORE PUSH1 0xC DUP3 MSTORE DUP4 PUSH0 KECCAK256 SWAP3 DUP4 SLOAD DUP2 DUP2 ADD SWAP1 PUSH0 DUP4 DUP4 SLT SWAP2 SLT SWAP1 DUP1 ISZERO DUP3 AND SWAP2 ISZERO AND OR PUSH2 0x199A JUMPI DUP6 DUP4 SWAP3 PUSH32 0xACAB28495F5D412E24F181214DD823BD5FA666235AFD596193C593FEDEE9064F SWAP3 PUSH1 0xC SWAP8 SSTORE DUP4 PUSH0 MSTORE PUSH1 0xD DUP7 MSTORE TIMESTAMP DUP3 PUSH0 KECCAK256 SSTORE DUP7 DUP7 MSTORE DUP2 PUSH0 KECCAK256 SLOAD SWAP1 DUP3 MLOAD SWAP2 DUP3 MSTORE DUP7 DUP3 ADD MSTORE LOG2 PUSH0 MSTORE MSTORE PUSH0 KECCAK256 SLOAD SWAP1 JUMP JUMPDEST POP POP PUSH1 0xC SWAP2 PUSH0 MSTORE PUSH1 0xD DUP2 MSTORE TIMESTAMP DUP4 PUSH0 KECCAK256 SSTORE MSTORE PUSH0 KECCAK256 SLOAD SWAP1 JUMP JUMPDEST POP PUSH1 0xC SWAP2 PUSH0 MSTORE MSTORE PUSH0 KECCAK256 SLOAD SWAP1 JUMP INVALID LOG2 PUSH5 0x6970667358 0x22 SLT KECCAK256 0x2D PUSH14 0xBD209362A2EF27C5F3AABBB01E3F GASLIMIT MLOAD 0xC7 0xC1 0xDE CALL 0xD5 0x28 SDIV STOP REVERT 0xED 0xD9 0xD5 MUL 0xDA PUSH5 0x736F6C6343 STOP ADDMOD XOR STOP CALLER "},"methodIdentifiers":{"acceptOwnership()":"79ba5097","addPair(string,bytes32,uint256,uint256,uint256,uint256)":"3e153c40","calcPriceImpact(bytes32,bool,uint256)":"b391decf","calculateFee(uint256)":"99a5d747","calculateFee(uint256,bool)":"e4d8cbe5","cumulativeFundingIndex(bytes32)":"4655f1eb","dailyLossResetTime()":"53c915f8","dailyLossTracker()":"6321de7f","decreaseOI(bytes32,address,bool,uint256)":"33945720","fundingRateCoefficient()":"2de900b5","getFeeSplit(uint256)":"3b608af2","getNetOI(bytes32)":"806954e3","getOIInfo(bytes32)":"8da97d9d","getPairConfig(bytes32)":"6a37a22a","getPairCount()":"9cf2ebf5","getProjectedFundingRate(bytes32)":"9124d0cb","increaseOI(bytes32,address,bool,uint256)":"b65b361f","lastFundingUpdate(bytes32)":"decbc2b7","longOI(bytes32)":"65100531","makerFeeBps()":"c8d594db","maxDailyDrawdownBps()":"aec376cd","maxPriceImpactBps()":"93359fe4","minPositionDuration()":"daf012e6","oracle()":"7dc0d1d0","owner()":"8da5cb5b","pairList(uint256)":"8e8c7791","pairs(bytes32)":"673e0481","pause()":"8456cb59","paused()":"5c975abb","pendingOwner()":"e30c3978","setFeeSplit(uint256,uint256)":"7e6335c7","setFundingRateCoefficient(uint256)":"6811dbb2","setMaxDailyDrawdown(uint256)":"3c098f10","setMaxPriceImpact(uint256)":"1b573019","setMinPositionDuration(uint256)":"dc5998e0","setTrading(address)":"a553906c","setTradingFees(uint256,uint256)":"fda5ecb1","setTreasury(address)":"f0f44260","setUtilizationCap(uint256)":"353081e5","setVault(address)":"6817031b","shortOI(bytes32)":"dd561c8c","takerFeeBps()":"d448eebc","togglePair(bytes32,bool)":"a7432ecc","trackVaultLoss(uint256)":"c60609f2","trading()":"ec44acf2","transferOwnership(address)":"f2fde38b","treasury()":"61d027b3","treasuryFeeBps()":"e80cfa5e","unpause()":"3f4ba83a","updateFunding(bytes32)":"f98cecbe","updatePairLeverage(bytes32,uint256)":"acc87ba6","updatePairLimits(bytes32,uint256,uint256,uint256)":"ac1fff05","usdc()":"3e413bee","userLongOI(bytes32,address)":"837df08e","userShortOI(bytes32,address)":"5a109871","utilizationCapBps()":"7e8d5883","validateOpenPosition(bytes32,address,bool,uint256,uint256)":"bd79156f","vault()":"fbfa77cf","vaultFeeBps()":"dd2bb29f"}}}}}