{"project/src/ConfidentialCore.sol":{"ConfidentialCore":{"abi":[{"inputs":[{"internalType":"address","name":"_usdc","type":"address"},{"internalType":"address","name":"_oracle","type":"address"}],"stateMutability":"nonpayable","type":"constructor"},{"inputs":[],"name":"ExceedsMaxLeverage","type":"error"},{"inputs":[],"name":"ExceedsMaxOI","type":"error"},{"inputs":[],"name":"ExceedsMaxPositionSize","type":"error"},{"inputs":[],"name":"ExceedsUtilizationCap","type":"error"},{"inputs":[],"name":"InvalidFeeSplit","type":"error"},{"inputs":[],"name":"IsPaused","type":"error"},{"inputs":[],"name":"OnlyOwner","type":"error"},{"inputs":[],"name":"OnlyTrading","type":"error"},{"inputs":[],"name":"PairNotActive","type":"error"},{"inputs":[],"name":"ZeroAddress","type":"error"},{"anonymous":false,"inputs":[{"indexed":false,"internalType":"uint256","name":"dailyLoss","type":"uint256"},{"indexed":false,"internalType":"uint256","name":"threshold","type":"uint256"}],"name":"CircuitBreakerTriggered","type":"event"},{"anonymous":false,"inputs":[{"indexed":false,"internalType":"uint256","name":"toVault","type":"uint256"},{"indexed":false,"internalType":"uint256","name":"toTreasury","type":"uint256"},{"indexed":false,"internalType":"uint256","name":"toInsurance","type":"uint256"}],"name":"FeeDistributed","type":"event"},{"anonymous":false,"inputs":[{"indexed":true,"internalType":"bytes32","name":"pairId","type":"bytes32"},{"indexed":false,"internalType":"int256","name":"newCumulativeIndex","type":"int256"},{"indexed":false,"internalType":"int256","name":"delta","type":"int256"}],"name":"FundingUpdated","type":"event"},{"anonymous":false,"inputs":[{"indexed":true,"internalType":"address","name":"current","type":"address"},{"indexed":true,"internalType":"address","name":"pending","type":"address"}],"name":"OwnershipTransferStarted","type":"event"},{"anonymous":false,"inputs":[{"indexed":true,"internalType":"address","name":"prev","type":"address"},{"indexed":true,"internalType":"address","name":"next","type":"address"}],"name":"OwnershipTransferred","type":"event"},{"anonymous":false,"inputs":[{"indexed":true,"internalType":"bytes32","name":"pairId","type":"bytes32"},{"indexed":false,"internalType":"uint256","name":"maxLeverage","type":"uint256"},{"indexed":false,"internalType":"uint256","name":"maxLongOI","type":"uint256"},{"indexed":false,"internalType":"uint256","name":"maxShortOI","type":"uint256"}],"name":"PairAdded","type":"event"},{"anonymous":false,"inputs":[{"indexed":true,"internalType":"bytes32","name":"pairId","type":"bytes32"},{"indexed":false,"internalType":"bool","name":"active","type":"bool"}],"name":"PairToggled","type":"event"},{"anonymous":false,"inputs":[{"indexed":true,"internalType":"bytes32","name":"pairId","type":"bytes32"}],"name":"PairUpdated","type":"event"},{"anonymous":false,"inputs":[],"name":"Paused","type":"event"},{"anonymous":false,"inputs":[],"name":"Unpaused","type":"event"},{"inputs":[],"name":"acceptOwnership","outputs":[],"stateMutability":"nonpayable","type":"function"},{"inputs":[{"internalType":"string","name":"pairName","type":"string"},{"internalType":"bytes32","name":"pythFeedId","type":"bytes32"},{"internalType":"uint256","name":"maxLeverage","type":"uint256"},{"internalType":"uint256","name":"maxLongOI_","type":"uint256"},{"internalType":"uint256","name":"maxShortOI_","type":"uint256"},{"internalType":"uint256","name":"maxPositionPct","type":"uint256"}],"name":"addPair","outputs":[],"stateMutability":"nonpayable","type":"function"},{"inputs":[{"internalType":"bytes32","name":"pairId","type":"bytes32"},{"internalType":"bool","name":"isLong","type":"bool"},{"internalType":"uint256","name":"sizeUsd","type":"uint256"}],"name":"calcPriceImpact","outputs":[{"internalType":"int256","name":"impactBps","type":"int256"}],"stateMutability":"view","type":"function"},{"inputs":[{"internalType":"uint256","name":"sizeUsd","type":"uint256"}],"name":"calculateFee","outputs":[{"internalType":"uint256","name":"","type":"uint256"}],"stateMutability":"view","type":"function"},{"inputs":[{"internalType":"uint256","name":"sizeUsd","type":"uint256"},{"internalType":"bool","name":"isMaker","type":"bool"}],"name":"calculateFee","outputs":[{"internalType":"uint256","name":"","type":"uint256"}],"stateMutability":"view","type":"function"},{"inputs":[{"internalType":"bytes32","name":"","type":"bytes32"}],"name":"cumulativeFundingIndex","outputs":[{"internalType":"int256","name":"","type":"int256"}],"stateMutability":"view","type":"function"},{"inputs":[],"name":"dailyLossResetTime","outputs":[{"internalType":"uint256","name":"","type":"uint256"}],"stateMutability":"view","type":"function"},{"inputs":[],"name":"dailyLossTracker","outputs":[{"internalType":"uint256","name":"","type":"uint256"}],"stateMutability":"view","type":"function"},{"inputs":[{"internalType":"bytes32","name":"pairId","type":"bytes32"},{"internalType":"address","name":"user","type":"address"},{"internalType":"bool","name":"isLong","type":"bool"},{"internalType":"uint256","name":"sizeUsd","type":"uint256"}],"name":"decreaseOI","outputs":[],"stateMutability":"nonpayable","type":"function"},{"inputs":[],"name":"fundingRateCoefficient","outputs":[{"internalType":"uint256","name":"","type":"uint256"}],"stateMutability":"view","type":"function"},{"inputs":[{"internalType":"uint256","name":"totalFee","type":"uint256"}],"name":"getFeeSplit","outputs":[{"internalType":"uint256","name":"toVault","type":"uint256"},{"internalType":"uint256","name":"toTreasury","type":"uint256"},{"internalType":"uint256","name":"toInsurance","type":"uint256"}],"stateMutability":"view","type":"function"},{"inputs":[{"internalType":"bytes32","name":"pairId","type":"bytes32"}],"name":"getNetOI","outputs":[{"internalType":"int256","name":"","type":"int256"}],"stateMutability":"view","type":"function"},{"inputs":[{"internalType":"bytes32","name":"pairId","type":"bytes32"}],"name":"getOIInfo","outputs":[{"internalType":"uint256","name":"longOI_","type":"uint256"},{"internalType":"uint256","name":"shortOI_","type":"uint256"},{"internalType":"uint256","name":"maxLong_","type":"uint256"},{"internalType":"uint256","name":"maxShort_","type":"uint256"}],"stateMutability":"view","type":"function"},{"inputs":[{"internalType":"bytes32","name":"pairId","type":"bytes32"}],"name":"getPairConfig","outputs":[{"components":[{"internalType":"bytes32","name":"pairId","type":"bytes32"},{"internalType":"bytes32","name":"pythFeedId","type":"bytes32"},{"internalType":"uint256","name":"maxLeverage","type":"uint256"},{"internalType":"uint256","name":"maxLongOI","type":"uint256"},{"internalType":"uint256","name":"maxShortOI","type":"uint256"},{"internalType":"uint256","name":"maxPositionPct","type":"uint256"},{"internalType":"bool","name":"active","type":"bool"}],"internalType":"struct ConfidentialCore.PairConfig","name":"","type":"tuple"}],"stateMutability":"view","type":"function"},{"inputs":[],"name":"getPairCount","outputs":[{"internalType":"uint256","name":"","type":"uint256"}],"stateMutability":"view","type":"function"},{"inputs":[{"internalType":"bytes32","name":"pairId","type":"bytes32"}],"name":"getProjectedFundingRate","outputs":[{"internalType":"int256","name":"","type":"int256"}],"stateMutability":"view","type":"function"},{"inputs":[{"internalType":"bytes32","name":"pairId","type":"bytes32"},{"internalType":"address","name":"user","type":"address"},{"internalType":"bool","name":"isLong","type":"bool"},{"internalType":"uint256","name":"sizeUsd","type":"uint256"}],"name":"increaseOI","outputs":[],"stateMutability":"nonpayable","type":"function"},{"inputs":[],"name":"insuranceFeeBps","outputs":[{"internalType":"uint256","name":"","type":"uint256"}],"stateMutability":"view","type":"function"},{"inputs":[],"name":"insuranceFund","outputs":[{"internalType":"address","name":"","type":"address"}],"stateMutability":"view","type":"function"},{"inputs":[{"internalType":"bytes32","name":"","type":"bytes32"}],"name":"lastFundingUpdate","outputs":[{"internalType":"uint256","name":"","type":"uint256"}],"stateMutability":"view","type":"function"},{"inputs":[{"internalType":"bytes32","name":"","type":"bytes32"}],"name":"longOI","outputs":[{"internalType":"uint256","name":"","type":"uint256"}],"stateMutability":"view","type":"function"},{"inputs":[],"name":"makerFeeBps","outputs":[{"internalType":"uint256","name":"","type":"uint256"}],"stateMutability":"view","type":"function"},{"inputs":[],"name":"maxDailyDrawdownBps","outputs":[{"internalType":"uint256","name":"","type":"uint256"}],"stateMutability":"view","type":"function"},{"inputs":[],"name":"maxPriceImpactBps","outputs":[{"internalType":"uint256","name":"","type":"uint256"}],"stateMutability":"view","type":"function"},{"inputs":[],"name":"minPositionDuration","outputs":[{"internalType":"uint256","name":"","type":"uint256"}],"stateMutability":"view","type":"function"},{"inputs":[],"name":"oracle","outputs":[{"internalType":"contract PythPriceOracle","name":"","type":"address"}],"stateMutability":"view","type":"function"},{"inputs":[],"name":"owner","outputs":[{"internalType":"address","name":"","type":"address"}],"stateMutability":"view","type":"function"},{"inputs":[{"internalType":"uint256","name":"","type":"uint256"}],"name":"pairList","outputs":[{"internalType":"bytes32","name":"","type":"bytes32"}],"stateMutability":"view","type":"function"},{"inputs":[{"internalType":"bytes32","name":"","type":"bytes32"}],"name":"pairs","outputs":[{"internalType":"bytes32","name":"pairId","type":"bytes32"},{"internalType":"bytes32","name":"pythFeedId","type":"bytes32"},{"internalType":"uint256","name":"maxLeverage","type":"uint256"},{"internalType":"uint256","name":"maxLongOI","type":"uint256"},{"internalType":"uint256","name":"maxShortOI","type":"uint256"},{"internalType":"uint256","name":"maxPositionPct","type":"uint256"},{"internalType":"bool","name":"active","type":"bool"}],"stateMutability":"view","type":"function"},{"inputs":[],"name":"pause","outputs":[],"stateMutability":"nonpayable","type":"function"},{"inputs":[],"name":"paused","outputs":[{"internalType":"bool","name":"","type":"bool"}],"stateMutability":"view","type":"function"},{"inputs":[],"name":"pendingOwner","outputs":[{"internalType":"address","name":"","type":"address"}],"stateMutability":"view","type":"function"},{"inputs":[{"internalType":"uint256","name":"_vaultBps","type":"uint256"},{"internalType":"uint256","name":"_treasuryBps","type":"uint256"},{"internalType":"uint256","name":"_insuranceBps","type":"uint256"}],"name":"setFeeSplit","outputs":[],"stateMutability":"nonpayable","type":"function"},{"inputs":[{"internalType":"uint256","name":"_coefficient","type":"uint256"}],"name":"setFundingRateCoefficient","outputs":[],"stateMutability":"nonpayable","type":"function"},{"inputs":[{"internalType":"address","name":"_insuranceFund","type":"address"}],"name":"setInsuranceFund","outputs":[],"stateMutability":"nonpayable","type":"function"},{"inputs":[{"internalType":"uint256","name":"_bps","type":"uint256"}],"name":"setMaxDailyDrawdown","outputs":[],"stateMutability":"nonpayable","type":"function"},{"inputs":[{"internalType":"uint256","name":"_maxBps","type":"uint256"}],"name":"setMaxPriceImpact","outputs":[],"stateMutability":"nonpayable","type":"function"},{"inputs":[{"internalType":"uint256","name":"_seconds","type":"uint256"}],"name":"setMinPositionDuration","outputs":[],"stateMutability":"nonpayable","type":"function"},{"inputs":[{"internalType":"address","name":"_trading","type":"address"}],"name":"setTrading","outputs":[],"stateMutability":"nonpayable","type":"function"},{"inputs":[{"internalType":"uint256","name":"_takerBps","type":"uint256"},{"internalType":"uint256","name":"_makerBps","type":"uint256"}],"name":"setTradingFees","outputs":[],"stateMutability":"nonpayable","type":"function"},{"inputs":[{"internalType":"address","name":"_treasury","type":"address"}],"name":"setTreasury","outputs":[],"stateMutability":"nonpayable","type":"function"},{"inputs":[{"internalType":"uint256","name":"_capBps","type":"uint256"}],"name":"setUtilizationCap","outputs":[],"stateMutability":"nonpayable","type":"function"},{"inputs":[{"internalType":"address","name":"_vault","type":"address"}],"name":"setVault","outputs":[],"stateMutability":"nonpayable","type":"function"},{"inputs":[{"internalType":"bytes32","name":"","type":"bytes32"}],"name":"shortOI","outputs":[{"internalType":"uint256","name":"","type":"uint256"}],"stateMutability":"view","type":"function"},{"inputs":[],"name":"takerFeeBps","outputs":[{"internalType":"uint256","name":"","type":"uint256"}],"stateMutability":"view","type":"function"},{"inputs":[{"internalType":"bytes32","name":"pairId","type":"bytes32"},{"internalType":"bool","name":"active","type":"bool"}],"name":"togglePair","outputs":[],"stateMutability":"nonpayable","type":"function"},{"inputs":[{"internalType":"uint256","name":"lossAmount","type":"uint256"}],"name":"trackVaultLoss","outputs":[],"stateMutability":"nonpayable","type":"function"},{"inputs":[],"name":"trading","outputs":[{"internalType":"address","name":"","type":"address"}],"stateMutability":"view","type":"function"},{"inputs":[{"internalType":"address","name":"newOwner","type":"address"}],"name":"transferOwnership","outputs":[],"stateMutability":"nonpayable","type":"function"},{"inputs":[],"name":"treasury","outputs":[{"internalType":"address","name":"","type":"address"}],"stateMutability":"view","type":"function"},{"inputs":[],"name":"treasuryFeeBps","outputs":[{"internalType":"uint256","name":"","type":"uint256"}],"stateMutability":"view","type":"function"},{"inputs":[],"name":"unpause","outputs":[],"stateMutability":"nonpayable","type":"function"},{"inputs":[{"internalType":"bytes32","name":"pairId","type":"bytes32"}],"name":"updateFunding","outputs":[{"internalType":"int256","name":"","type":"int256"}],"stateMutability":"nonpayable","type":"function"},{"inputs":[{"internalType":"bytes32","name":"pairId","type":"bytes32"},{"internalType":"uint256","name":"maxLeverage_","type":"uint256"}],"name":"updatePairLeverage","outputs":[],"stateMutability":"nonpayable","type":"function"},{"inputs":[{"internalType":"bytes32","name":"pairId","type":"bytes32"},{"internalType":"uint256","name":"maxLongOI_","type":"uint256"},{"internalType":"uint256","name":"maxShortOI_","type":"uint256"},{"internalType":"uint256","name":"maxPositionPct","type":"uint256"}],"name":"updatePairLimits","outputs":[],"stateMutability":"nonpayable","type":"function"},{"inputs":[],"name":"usdc","outputs":[{"internalType":"address","name":"","type":"address"}],"stateMutability":"view","type":"function"},{"inputs":[{"internalType":"bytes32","name":"","type":"bytes32"},{"internalType":"address","name":"","type":"address"}],"name":"userLongOI","outputs":[{"internalType":"uint256","name":"","type":"uint256"}],"stateMutability":"view","type":"function"},{"inputs":[{"internalType":"bytes32","name":"","type":"bytes32"},{"internalType":"address","name":"","type":"address"}],"name":"userShortOI","outputs":[{"internalType":"uint256","name":"","type":"uint256"}],"stateMutability":"view","type":"function"},{"inputs":[],"name":"utilizationCapBps","outputs":[{"internalType":"uint256","name":"","type":"uint256"}],"stateMutability":"view","type":"function"},{"inputs":[{"internalType":"bytes32","name":"pairId","type":"bytes32"},{"internalType":"address","name":"user","type":"address"},{"internalType":"bool","name":"isLong","type":"bool"},{"internalType":"uint256","name":"sizeUsd","type":"uint256"},{"internalType":"uint256","name":"leverage","type":"uint256"}],"name":"validateOpenPosition","outputs":[],"stateMutability":"view","type":"function"},{"inputs":[],"name":"vault","outputs":[{"internalType":"address","name":"","type":"address"}],"stateMutability":"view","type":"function"},{"inputs":[],"name":"vaultFeeBps","outputs":[{"internalType":"uint256","name":"","type":"uint256"}],"stateMutability":"view","type":"function"}],"evm":{"bytecode":{"linkReferences":{},"object":"60a0346200010057601f6200209938819003918201601f19168301916001600160401b038311848410176200010457808492604094855283398101031262000100576200005a6020620000528362000118565b920162000118565b60046007556002600855611b58600955610bb8600a8190555f600b55611f40600c556064600d81905560105560056017556018556001600160a01b0390828216158015620000f5575b620000e35760018060a01b03199233845f5416175f556080521690600254161760025542601a55604051611f6b90816200012e82396080518161149c0152f35b60405163d92e233d60e01b8152600490fd5b5081811615620000a3565b5f80fd5b634e487b7160e01b5f52604160045260245ffd5b51906001600160a01b0382168203620001005756fe608060409080825260049081361015610016575f80fd5b5f3560e01c9081631b57301914611960575080632de900b51461194257806333945720146117f1578063353081e5146117765780633b608af2146117085780633c098f10146116915780633e153c40146114cb5780633e413bee146114885780633f4ba83a146114325780634655f1eb1461140a57806353c915f8146113ec5780635a109871146113ac5780635c975abb1461138657806361d027b31461135e5780636321de7f146113405780636510053114611318578063673e0481146112ab5780636811dbb2146112465780636817031b146111fc5780636a37a22a1461112057806379ba50971461107b5780637dc0d1d0146110535780637e8d588314611035578063806954e314611003578063837df08e14610fc35780638456cb5914610f675780638da5cb5b14610f405780638da97d9d14610eed5780638e8c779114610eb65780639124d0cb14610e9757806393359fe414610e7957806399a5d74714610e535780639cf2ebf514610e35578063a553906c14610dce578063a7432ecc14610d4d578063ac1fff0514610cde578063acc87ba614610c70578063aec376cd14610c52578063b391decf14610c27578063b65b361f14610b7a578063b790230314610b52578063bd79156f146108fd578063c3c05293146108b3578063c60609f214610750578063c8d594db14610732578063d448eebc14610714578063daf012e6146106f6578063dc5998e014610690578063dd2bb29f14610672578063dd561c8c1461064a578063decbc2b714610622578063e30c3978146105fa578063e4d8cbe5146105b6578063e80cfa5e14610598578063ec44acf214610570578063f0f4426014610516578063f2fde38b14610486578063f768e0ce14610425578063f86f900014610407578063f98cecbe146103c3578063fbfa77cf1461039b5763fda5ecb1146102ca575f80fd5b346103975781600319360112610397575f5460243592823592916001600160a01b0316330361038a5760328311158061037f575b1561034d57838310610314575050600755600855005b906020606492519162461bcd60e51b835282015260136024820152722a30b5b2b91036bab9ba101f1e9026b0b5b2b960691b6044820152fd5b906020606492519162461bcd60e51b8352820152600c60248201526b08ccaca40e8dede40d0d2ced60a31b6044820152fd5b5060328411156102fe565b51635fc483c560e01b8152fd5b5f80fd5b8234610397575f3660031901126103975760035490516001600160a01b039091168152602090f35b5090346103975760203660031901126103975781546001600160a01b031633036103fa576103f360209235611de5565b9051908152f35b5163e9e3f4ad60e01b8152fd5b8234610397575f36600319011261039757602090600b549051908152f35b5034610397576060366003190112610397578035602435916044359360018060a01b035f5416330361038a57612710610467866104628787611d99565b611d99565b03610479575050600955600a55600b55005b51630601f69760e01b8152fd5b5034610397576020366003190112610397576104a06119e9565b5f546001600160a01b0390811692913384900361050657169283156104f9575050600180546001600160a01b031916831790557f38d16b8cac22d99fc7c124b9cd0de2d3fa1faef420bfe791d8c362d765e227005f80a3005b5163d92e233d60e01b8152fd5b8451635fc483c560e01b81528390fd5b5034610397576020366003190112610397576105306119e9565b5f546001600160a01b0391908216330361056057169182156104f957600580546001600160a01b03191684179055005b8351635fc483c560e01b81528390fd5b509034610397575f36600319011261039757905490516001600160a01b039091168152602090f35b8234610397575f36600319011261039757602090600a549051908152f35b5090346103975780600319360112610397576127106105e96020936105d96119ff565b156105f157600854905b35611aaf565b049051908152f35b600754906105e3565b8234610397575f3660031901126103975760015490516001600160a01b039091168152602090f35b50903461039757602036600319011261039757602091355f52600f8252805f20549051908152f35b50903461039757602036600319011261039757602091355f5260148252805f20549051908152f35b8234610397575f366003190112610397576020906009549051908152f35b5034610397576020366003190112610397575f54813592906001600160a01b0316330361038a5761012c83116106c7576017839055005b906020606492519162461bcd60e51b8352820152600960248201526826b0bc101a9036b4b760b91b6044820152fd5b8234610397575f366003190112610397576020906017549051908152f35b8234610397575f366003190112610397576020906007549051908152f35b8234610397575f366003190112610397576020906008549051908152f35b50903461039757602091826003193601126103975780546001600160a01b039190821633036108a557601a5462015180810180911161089257421015610885575b61079e8135601954611d99565b918260195560035416806107af575b005b5f80918551878101906278744560e21b82528581526107cd81611b10565b51915afa6107d9611da6565b908061087a575b6107e657005b8481805181010312610397578401519081156107ad576127109081840291848304148415171561086757509061081b91611ac2565b60185480911161082757005b7fc1b68f84e2906898e13e04dfea4f2ca4c44015fceb114b71916f54a7072712a693600160a01b60ff60a01b1960015416176001558351928352820152a1005b601190634e487b7160e01b5f525260245ffd5b5084815110156107e0565b5f60195542601a55610791565b601182634e487b7160e01b5f525260245ffd5b825163e9e3f4ad60e01b8152fd5b5034610397576020366003190112610397576108cd6119e9565b5f546001600160a01b0391908216330361056057169182156104f957600680546001600160a01b03191684179055005b5090346103975760a036600319011261039757813561091a6119d3565b9060443580151581036103975760643560ff60015460a01c16610b4257825f5260209360118552855f20865161094f81611ae0565b81548152600182015487820152600282015494888201958652600383015495606083019687528a840154926080810193845260ff600660058701549660a08401978852015416159060c08215910152610b32575160843511610b225715610ab35750845f52601386526109c583885f2054611d99565b845110610aa3575180610a54575b50505050505b6003546001600160a01b0316806109ec57005b5f8091845184810190637510e6c960e11b8252878152610a0b81611b10565b51915afa610a17611da6565b9080610a49575b610a2457005b8181805181010312610397570151600c5410610a3c57005b516324e397d360e21b8152fd5b508181511015610a1e565b610a6561271091610a869551611aaf565b04935f5260158552855f209060018060a01b03165f528452845f2054611d99565b11610a95575f808080806109d3565b5051639f17b34d60e01b8152fd5b8651638a9d1c4160e01b81528890fd5b9350845f5260148652610ac983885f2054611d99565b845110610aa3575180610ae1575b50505050506109d9565b610af261271091610b139551611aaf565b04935f5260168552855f209060018060a01b03165f528452845f2054611d99565b11610a95575f80808080610ad7565b88516334bcdead60e11b81528a90fd5b8951634fedf0ed60e01b81528b90fd5b8451631309a56360e01b81528690fd5b8234610397575f3660031901126103975760065490516001600160a01b039091168152602090f35b503461039757610b8936611a0e565b8454909593946001600160a01b03929183163303610c19575015610be25783610bde945f526013602052835f20610bc1878254611d99565b90555f526015602052825f2091165f526020525f20918254611d99565b9055005b83610bde945f526014602052835f20610bfc878254611d99565b90555f526016602052825f2091165f526020525f20918254611d99565b845163e9e3f4ad60e01b8152fd5b509034610397576060366003190112610397576103f3602092610c486119ff565b6044359135611ca0565b8234610397575f366003190112610397576020906018549051908152f35b5090346103975780600319360112610397575f54823592906001600160a01b03163303610cd05750815f5260116020526002602435915f2001557feaab1fbae57c9453947c2c5733c4728c55777f0c7adefa5cc50d91eb3e1e36845f80a2005b9051635fc483c560e01b8152fd5b5034610397576080366003190112610397575f54813592906001600160a01b0316330361038a57825f5260116020525f209060243560038301556044359082015560056064359101557feaab1fbae57c9453947c2c5733c4728c55777f0c7adefa5cc50d91eb3e1e36845f80a2005b5034610397578160031936011261039757803591610d696119ff565b5f549092906001600160a01b03163303610cd057507fd6c85b16f14b4f3729d9c05fba629c9c41cb77a2eaea1cbe9f972e3c1add760a91602091845f5260118352610dc5826006835f20019060ff801983541691151516179055565b519015158152a2005b50903461039757602036600319011261039757610de96119e9565b5f546001600160a01b03919082163303610e265716908115610e17575081546001600160a01b031916179055005b5163d92e233d60e01b81529050fd5b505051635fc483c560e01b8152fd5b8234610397575f366003190112610397576020906012549051908152f35b509034610397576020366003190112610397576127106105e96020936007549035611aaf565b8234610397575f366003190112610397576020906010549051908152f35b509034610397576020366003190112610397576103f360209235611bd7565b503461039757602036600319011261039757359060125482101561039757610edf602092611a45565b91905490519160031b1c8152f35b50346103975760203660031901126103975760809181355f526013602052805f2054916014602052815f2054916011602052805f2091600383015492015492815194855260208501528301526060820152f35b8234610397575f366003190112610397575f5490516001600160a01b039091168152602090f35b509034610397575f366003190112610397575f546001600160a01b0316330361038a576001805460ff60a01b1916600160a01b1790557f9e87fac88ff661f02d44f95383c817fece4bce600a3dab7a54406878b965e7525f80a1005b509034610397578060031936011261039757602091610fe06119d3565b90355f5260158352815f209060018060a01b03165f528252805f20549051908152f35b50903461039757602036600319011261039757602091355f52601382526103f3815f205460148452825f205490611b4e565b8234610397575f36600319011261039757602090600c549051908152f35b8234610397575f3660031901126103975760025490516001600160a01b039091168152602090f35b509034610397575f366003190112610397576001546001600160a01b039290918383169190338390036110e9575050805f549384167f8be0079c531659141344cd1fd0a4f28419497f9722a3daafe3b4186f6b6457e05f80a36001600160a01b0319928316175f5516600155005b906020606492519162461bcd60e51b835282015260116024820152702737ba103832b73234b7339037bbb732b960791b6044820152fd5b503461039757602036600319011261039757815f60c060e0945161114381611ae0565b82815282602082015282848201528260608201528260808201528260a0820152015281355f526011602052805f2081519161117d83611ae0565b81549384845260018301549160208501928352600284015481860190815260038501549260608701938452850154936080870194855260c060ff600660058901549860a08b01998a5201541697019615158752825197885251602088015251908601525160608501525160808401525160a083015251151560c0820152f35b5034610397576020366003190112610397576112166119e9565b5f546001600160a01b0391908216330361056057169182156104f957600380546001600160a01b03191684179055005b5034610397576020366003190112610397575f54813592906001600160a01b0316330361038a576103e8831161127d57600d839055005b906020606492519162461bcd60e51b835282015260086024820152670a8dede40d0d2ced60c31b6044820152fd5b509034610397576020366003190112610397578160e092355f526011602052815f2080549260018201549260028301546003840154918401549260ff600660058701549601541695815197885260208801528601526060850152608084015260a0830152151560c0820152f35b50903461039757602036600319011261039757602091355f5260138252805f20549051908152f35b8234610397575f366003190112610397576020906019549051908152f35b8234610397575f3660031901126103975760055490516001600160a01b039091168152602090f35b8234610397575f3660031901126103975760209060ff60015460a01c1690519015158152f35b5090346103975780600319360112610397576020916113c96119d3565b90355f5260168352815f209060018060a01b03165f528252805f20549051908152f35b8234610397575f36600319011261039757602090601a549051908152f35b50903461039757602036600319011261039757602091355f52600e8252805f20549051908152f35b509034610397575f366003190112610397575f546001600160a01b0316330361038a576001805460ff60a01b191690557fa45f47fdea8a1efdd9029a5691c7f759c32b7c698632b563573e155625d169335f80a1005b8234610397575f36600319011261039757517f00000000000000000000000000000000000000000000000000000000000000006001600160a01b03168152602090f35b50346103975760c036600319011261039757803567ffffffffffffffff92838211610397573660238301121561039757818301359384116103975736602485840101116103975760443590606435926084359560018060a01b035f541633036116815782516020928382019261155891859184918190602401873781015f83820152038084520182611b2c565b519020946115e1835161156a81611ae0565b87815260068885830160243581528b8885018a815260608601908c82526080870192835260a087019360a435855260c0880195600187525f5260118b528b5f2097518855516001880155516002870155516003860155518685015551600584015551151591019060ff801983541691151516179055565b601254906801000000000000000082101561166e575091600f7fc09b0e6ea17e638181154aed6758ae0143886172f6cf847a2302ff6def1866199697926116318560016116699701601255611a45565b81549060031b908b821b915f19901b1916179055885f525242815f205551938493846040919493926060820195825260208201520152565b0390a2005b604190634e487b7160e01b5f525260245ffd5b8251635fc483c560e01b81528690fd5b5034610397576020366003190112610397575f54813592906001600160a01b0316330361038a576103e8831015806116fc575b156116d0576018839055005b906020606492519162461bcd60e51b8352820152600660248201526531302d35302560d01b6044820152fd5b506113888311156116c4565b50903461039757602036600319011261039757611772611751923591611756612710938461173860095483611aaf565b04958695611748600a5484611aaf565b04968792611a8e565b611a8e565b9051938493846040919493926060820195825260208201520152565b0390f35b5034610397576020366003190112610397575f54813592906001600160a01b0316330361038a57611388831015806117e5575b156117b557600c839055005b906020606492519162461bcd60e51b8352820152600a6024820152694361702035302d39352560b01b6044820152fd5b5061251c8311156117a9565b5090346103975761180136611a0e565b8554939592936001600160a01b039391929190841633036119345750156118ab57845f5260209160138352845f2054828082115f146118a35761184391611a8e565b865f5260138452855f205560158352845f20931692835f52825280845f2054115f1461189b5761188590855f5260158352845f20845f528352845f2054611a8e565b935b5f5260158152825f20915f52525f20555f80f35b505f93611887565b50505f611843565b845f5260209160148352845f2054828082115f1461192c576118cc91611a8e565b865f5260148452855f205560168352845f20931692835f52825280845f2054115f146119245761190e90855f5260168352845f20845f528352845f2054611a8e565b935b5f5260168152825f20915f52525f20555f80f35b505f93611910565b50505f6118cc565b855163e9e3f4ad60e01b8152fd5b8234610397575f36600319011261039757602090600d549051908152f35b828434610397576020366003190112610397575f54823593906001600160a01b031633036119c557506101f48311611999576010839055005b906020606492519162461bcd60e51b835282015260066024820152654d617820352560d01b6044820152fd5b635fc483c560e01b81529050fd5b602435906001600160a01b038216820361039757565b600435906001600160a01b038216820361039757565b60243590811515820361039757565b608090600319011261039757600435906024356001600160a01b038116810361039757906044358015158103610397579060643590565b601254811015611a7a5760125f527fbb8a6a4669ba250d26cd7a459eca9d215f8307e33aebe50379bc5a3617ec344401905f90565b634e487b7160e01b5f52603260045260245ffd5b91908203918211611a9b57565b634e487b7160e01b5f52601160045260245ffd5b81810292918115918404141715611a9b57565b8115611acc570490565b634e487b7160e01b5f52601260045260245ffd5b60e0810190811067ffffffffffffffff821117611afc57604052565b634e487b7160e01b5f52604160045260245ffd5b6040810190811067ffffffffffffffff821117611afc57604052565b90601f8019910116810190811067ffffffffffffffff821117611afc57604052565b81810392915f138015828513169184121617611a9b57565b90670de0b6b3a764000091828102928184051490151715611a9b57565b906201518091828102928184051490151715611a9b57565b81810292915f8212600160ff1b821416611a9b578184051490151715611a9b57565b8115611acc57600160ff1b81145f19831416611a9b570590565b805f52601160205260405f2090604051611bf081611ae0565b82548152600183015460208201526002830154604082015260c060ff600660038601549586606086015260048101546080860152600581015460a086015201541615159101528115611c9a575f526013602052611c67611c5e60405f2054601460205260405f205490611b4e565b600d5490611b9b565b9061708091828102928184051490151715611a9b57611c91611c8b611c9793611b66565b91611b83565b90611bbd565b90565b50505f90565b90815f526020601181526040805f20815190611cbb82611ae0565b8054825260018101548483015260028101548383015260038101549182606082015260c060ff6006600485015494856080860152600581015460a08601520154161515910152845f14611d915750935b8415611d8757611d419315611d6e575f52601382526014815f205492525f20541115915b611d3c6010548095611aaf565b611ac2565b91808311611d66575b5015611d535790565b60011c600160ff1b8114611a9b575f0390565b91505f611d4a565b5f52601482526013815f205492525f2054111591611d2f565b5050505050505f90565b905093611d0b565b91908201809211611a9b57565b3d15611de0573d9067ffffffffffffffff8211611afc5760405191611dd5601f8201601f191660200184611b2c565b82523d5f602084013e565b606090565b805f52602090600f8252604091611dff835f205442611a8e565b8015611f2857825f5260118252835f20908451611e1b81611ae0565b8254815260018301548482015260028301548682015260c060ff600660038601549586606086015260048101546080860152600581015460a086015201541615159101528115611f115790611c91611c8b611e97611e9c94875f5260138752611e92611c5e8a5f205460148a528b5f205490611b4e565b611b9b565b611b66565b91805f52600e8252835f20928354818101905f8383129112908015821691151617611a9b578583927facab28495f5d412e24f181214dd823bd5fa666235afd596193c593fedee9064f92600e9755835f52600f865242825f2055868652815f205490825191825286820152a25f52525f205490565b5050600e915f52600f815242835f2055525f205490565b50600e915f52525f20549056fea2646970667358221220f59307e34cbeae8e42212763ff0bfa74a57fc8cb8c9adb896db12c496b686ffc64736f6c63430008180033","opcodes":"PUSH1 0xA0 CALLVALUE PUSH3 0x100 JUMPI PUSH1 0x1F PUSH3 0x2099 CODESIZE DUP2 SWAP1 SUB SWAP2 DUP3 ADD PUSH1 0x1F NOT AND DUP4 ADD SWAP2 PUSH1 0x1 PUSH1 0x1 PUSH1 0x40 SHL SUB DUP4 GT DUP5 DUP5 LT OR PUSH3 0x104 JUMPI DUP1 DUP5 SWAP3 PUSH1 0x40 SWAP5 DUP6 MSTORE DUP4 CODECOPY DUP2 ADD SUB SLT PUSH3 0x100 JUMPI PUSH3 0x5A PUSH1 0x20 PUSH3 0x52 DUP4 PUSH3 0x118 JUMP JUMPDEST SWAP3 ADD PUSH3 0x118 JUMP JUMPDEST PUSH1 0x4 PUSH1 0x7 SSTORE PUSH1 0x2 PUSH1 0x8 SSTORE PUSH2 0x1B58 PUSH1 0x9 SSTORE PUSH2 0xBB8 PUSH1 0xA DUP2 SWAP1 SSTORE PUSH0 PUSH1 0xB SSTORE PUSH2 0x1F40 PUSH1 0xC SSTORE PUSH1 0x64 PUSH1 0xD DUP2 SWAP1 SSTORE PUSH1 0x10 SSTORE PUSH1 0x5 PUSH1 0x17 SSTORE PUSH1 0x18 SSTORE PUSH1 0x1 PUSH1 0x1 PUSH1 0xA0 SHL SUB SWAP1 DUP3 DUP3 AND ISZERO DUP1 ISZERO PUSH3 0xF5 JUMPI JUMPDEST PUSH3 0xE3 JUMPI PUSH1 0x1 DUP1 PUSH1 0xA0 SHL SUB NOT SWAP3 CALLER DUP5 PUSH0 SLOAD AND OR PUSH0 SSTORE PUSH1 0x80 MSTORE AND SWAP1 PUSH1 0x2 SLOAD AND OR PUSH1 0x2 SSTORE TIMESTAMP PUSH1 0x1A SSTORE PUSH1 0x40 MLOAD PUSH2 0x1F6B SWAP1 DUP2 PUSH3 0x12E DUP3 CODECOPY PUSH1 0x80 MLOAD DUP2 PUSH2 0x149C ADD MSTORE RETURN JUMPDEST PUSH1 0x40 MLOAD PUSH4 0xD92E233D PUSH1 0xE0 SHL DUP2 MSTORE PUSH1 0x4 SWAP1 REVERT JUMPDEST POP DUP2 DUP2 AND ISZERO PUSH3 0xA3 JUMP JUMPDEST PUSH0 DUP1 REVERT JUMPDEST PUSH4 0x4E487B71 PUSH1 0xE0 SHL PUSH0 MSTORE PUSH1 0x41 PUSH1 0x4 MSTORE PUSH1 0x24 PUSH0 REVERT JUMPDEST MLOAD SWAP1 PUSH1 0x1 PUSH1 0x1 PUSH1 0xA0 SHL SUB DUP3 AND DUP3 SUB PUSH3 0x100 JUMPI JUMP INVALID PUSH1 0x80 PUSH1 0x40 SWAP1 DUP1 DUP3 MSTORE PUSH1 0x4 SWAP1 DUP2 CALLDATASIZE LT ISZERO PUSH2 0x16 JUMPI PUSH0 DUP1 REVERT JUMPDEST PUSH0 CALLDATALOAD PUSH1 0xE0 SHR SWAP1 DUP2 PUSH4 0x1B573019 EQ PUSH2 0x1960 JUMPI POP DUP1 PUSH4 0x2DE900B5 EQ PUSH2 0x1942 JUMPI DUP1 PUSH4 0x33945720 EQ PUSH2 0x17F1 JUMPI DUP1 PUSH4 0x353081E5 EQ PUSH2 0x1776 JUMPI DUP1 PUSH4 0x3B608AF2 EQ PUSH2 0x1708 JUMPI DUP1 PUSH4 0x3C098F10 EQ PUSH2 0x1691 JUMPI DUP1 PUSH4 0x3E153C40 EQ PUSH2 0x14CB JUMPI DUP1 PUSH4 0x3E413BEE EQ PUSH2 0x1488 JUMPI DUP1 PUSH4 0x3F4BA83A EQ PUSH2 0x1432 JUMPI DUP1 PUSH4 0x4655F1EB EQ PUSH2 0x140A JUMPI DUP1 PUSH4 0x53C915F8 EQ PUSH2 0x13EC JUMPI DUP1 PUSH4 0x5A109871 EQ PUSH2 0x13AC JUMPI DUP1 PUSH4 0x5C975ABB EQ PUSH2 0x1386 JUMPI DUP1 PUSH4 0x61D027B3 EQ PUSH2 0x135E JUMPI DUP1 PUSH4 0x6321DE7F EQ PUSH2 0x1340 JUMPI DUP1 PUSH4 0x65100531 EQ PUSH2 0x1318 JUMPI DUP1 PUSH4 0x673E0481 EQ PUSH2 0x12AB JUMPI DUP1 PUSH4 0x6811DBB2 EQ PUSH2 0x1246 JUMPI DUP1 PUSH4 0x6817031B EQ PUSH2 0x11FC JUMPI DUP1 PUSH4 0x6A37A22A EQ PUSH2 0x1120 JUMPI DUP1 PUSH4 0x79BA5097 EQ PUSH2 0x107B JUMPI DUP1 PUSH4 0x7DC0D1D0 EQ PUSH2 0x1053 JUMPI DUP1 PUSH4 0x7E8D5883 EQ PUSH2 0x1035 JUMPI DUP1 PUSH4 0x806954E3 EQ PUSH2 0x1003 JUMPI DUP1 PUSH4 0x837DF08E EQ PUSH2 0xFC3 JUMPI DUP1 PUSH4 0x8456CB59 EQ PUSH2 0xF67 JUMPI DUP1 PUSH4 0x8DA5CB5B EQ PUSH2 0xF40 JUMPI DUP1 PUSH4 0x8DA97D9D EQ PUSH2 0xEED JUMPI DUP1 PUSH4 0x8E8C7791 EQ PUSH2 0xEB6 JUMPI DUP1 PUSH4 0x9124D0CB EQ PUSH2 0xE97 JUMPI DUP1 PUSH4 0x93359FE4 EQ PUSH2 0xE79 JUMPI DUP1 PUSH4 0x99A5D747 EQ PUSH2 0xE53 JUMPI DUP1 PUSH4 0x9CF2EBF5 EQ PUSH2 0xE35 JUMPI DUP1 PUSH4 0xA553906C EQ PUSH2 0xDCE JUMPI DUP1 PUSH4 0xA7432ECC EQ PUSH2 0xD4D JUMPI DUP1 PUSH4 0xAC1FFF05 EQ PUSH2 0xCDE JUMPI DUP1 PUSH4 0xACC87BA6 EQ PUSH2 0xC70 JUMPI DUP1 PUSH4 0xAEC376CD EQ PUSH2 0xC52 JUMPI DUP1 PUSH4 0xB391DECF EQ PUSH2 0xC27 JUMPI DUP1 PUSH4 0xB65B361F EQ PUSH2 0xB7A JUMPI DUP1 PUSH4 0xB7902303 EQ PUSH2 0xB52 JUMPI DUP1 PUSH4 0xBD79156F EQ PUSH2 0x8FD JUMPI DUP1 PUSH4 0xC3C05293 EQ PUSH2 0x8B3 JUMPI DUP1 PUSH4 0xC60609F2 EQ PUSH2 0x750 JUMPI DUP1 PUSH4 0xC8D594DB EQ PUSH2 0x732 JUMPI DUP1 PUSH4 0xD448EEBC EQ PUSH2 0x714 JUMPI DUP1 PUSH4 0xDAF012E6 EQ PUSH2 0x6F6 JUMPI DUP1 PUSH4 0xDC5998E0 EQ PUSH2 0x690 JUMPI DUP1 PUSH4 0xDD2BB29F EQ PUSH2 0x672 JUMPI DUP1 PUSH4 0xDD561C8C EQ PUSH2 0x64A JUMPI DUP1 PUSH4 0xDECBC2B7 EQ PUSH2 0x622 JUMPI DUP1 PUSH4 0xE30C3978 EQ PUSH2 0x5FA JUMPI DUP1 PUSH4 0xE4D8CBE5 EQ PUSH2 0x5B6 JUMPI DUP1 PUSH4 0xE80CFA5E EQ PUSH2 0x598 JUMPI DUP1 PUSH4 0xEC44ACF2 EQ PUSH2 0x570 JUMPI DUP1 PUSH4 0xF0F44260 EQ PUSH2 0x516 JUMPI DUP1 PUSH4 0xF2FDE38B EQ PUSH2 0x486 JUMPI DUP1 PUSH4 0xF768E0CE EQ PUSH2 0x425 JUMPI DUP1 PUSH4 0xF86F9000 EQ PUSH2 0x407 JUMPI DUP1 PUSH4 0xF98CECBE EQ PUSH2 0x3C3 JUMPI DUP1 PUSH4 0xFBFA77CF EQ PUSH2 0x39B JUMPI PUSH4 0xFDA5ECB1 EQ PUSH2 0x2CA JUMPI PUSH0 DUP1 REVERT JUMPDEST CALLVALUE PUSH2 0x397 JUMPI DUP2 PUSH1 0x3 NOT CALLDATASIZE ADD SLT PUSH2 0x397 JUMPI PUSH0 SLOAD PUSH1 0x24 CALLDATALOAD SWAP3 DUP3 CALLDATALOAD SWAP3 SWAP2 PUSH1 0x1 PUSH1 0x1 PUSH1 0xA0 SHL SUB AND CALLER SUB PUSH2 0x38A JUMPI PUSH1 0x32 DUP4 GT ISZERO DUP1 PUSH2 0x37F JUMPI JUMPDEST ISZERO PUSH2 0x34D JUMPI DUP4 DUP4 LT PUSH2 0x314 JUMPI POP POP PUSH1 0x7 SSTORE PUSH1 0x8 SSTORE STOP JUMPDEST SWAP1 PUSH1 0x20 PUSH1 0x64 SWAP3 MLOAD SWAP2 PUSH3 0x461BCD PUSH1 0xE5 SHL DUP4 MSTORE DUP3 ADD MSTORE PUSH1 0x13 PUSH1 0x24 DUP3 ADD MSTORE PUSH19 0x2A30B5B2B91036BAB9BA101F1E9026B0B5B2B9 PUSH1 0x69 SHL PUSH1 0x44 DUP3 ADD MSTORE REVERT JUMPDEST SWAP1 PUSH1 0x20 PUSH1 0x64 SWAP3 MLOAD SWAP2 PUSH3 0x461BCD PUSH1 0xE5 SHL DUP4 MSTORE DUP3 ADD MSTORE PUSH1 0xC PUSH1 0x24 DUP3 ADD MSTORE PUSH12 0x8CCACA40E8DEDE40D0D2CED PUSH1 0xA3 SHL PUSH1 0x44 DUP3 ADD MSTORE REVERT JUMPDEST POP PUSH1 0x32 DUP5 GT ISZERO PUSH2 0x2FE JUMP JUMPDEST MLOAD PUSH4 0x5FC483C5 PUSH1 0xE0 SHL DUP2 MSTORE REVERT JUMPDEST PUSH0 DUP1 REVERT JUMPDEST DUP3 CALLVALUE PUSH2 0x397 JUMPI PUSH0 CALLDATASIZE PUSH1 0x3 NOT ADD SLT PUSH2 0x397 JUMPI PUSH1 0x3 SLOAD SWAP1 MLOAD PUSH1 0x1 PUSH1 0x1 PUSH1 0xA0 SHL SUB SWAP1 SWAP2 AND DUP2 MSTORE PUSH1 0x20 SWAP1 RETURN JUMPDEST POP SWAP1 CALLVALUE PUSH2 0x397 JUMPI PUSH1 0x20 CALLDATASIZE PUSH1 0x3 NOT ADD SLT PUSH2 0x397 JUMPI DUP2 SLOAD PUSH1 0x1 PUSH1 0x1 PUSH1 0xA0 SHL SUB AND CALLER SUB PUSH2 0x3FA JUMPI PUSH2 0x3F3 PUSH1 0x20 SWAP3 CALLDATALOAD PUSH2 0x1DE5 JUMP JUMPDEST SWAP1 MLOAD SWAP1 DUP2 MSTORE RETURN JUMPDEST MLOAD PUSH4 0xE9E3F4AD PUSH1 0xE0 SHL DUP2 MSTORE REVERT JUMPDEST DUP3 CALLVALUE PUSH2 0x397 JUMPI PUSH0 CALLDATASIZE PUSH1 0x3 NOT ADD SLT PUSH2 0x397 JUMPI PUSH1 0x20 SWAP1 PUSH1 0xB SLOAD SWAP1 MLOAD SWAP1 DUP2 MSTORE RETURN JUMPDEST POP CALLVALUE PUSH2 0x397 JUMPI PUSH1 0x60 CALLDATASIZE PUSH1 0x3 NOT ADD SLT PUSH2 0x397 JUMPI DUP1 CALLDATALOAD PUSH1 0x24 CALLDATALOAD SWAP2 PUSH1 0x44 CALLDATALOAD SWAP4 PUSH1 0x1 DUP1 PUSH1 0xA0 SHL SUB PUSH0 SLOAD AND CALLER SUB PUSH2 0x38A JUMPI PUSH2 0x2710 PUSH2 0x467 DUP7 PUSH2 0x462 DUP8 DUP8 PUSH2 0x1D99 JUMP JUMPDEST PUSH2 0x1D99 JUMP JUMPDEST SUB PUSH2 0x479 JUMPI POP POP PUSH1 0x9 SSTORE PUSH1 0xA SSTORE PUSH1 0xB SSTORE STOP JUMPDEST MLOAD PUSH4 0x601F697 PUSH1 0xE0 SHL DUP2 MSTORE REVERT JUMPDEST POP CALLVALUE PUSH2 0x397 JUMPI PUSH1 0x20 CALLDATASIZE PUSH1 0x3 NOT ADD SLT PUSH2 0x397 JUMPI PUSH2 0x4A0 PUSH2 0x19E9 JUMP JUMPDEST PUSH0 SLOAD PUSH1 0x1 PUSH1 0x1 PUSH1 0xA0 SHL SUB SWAP1 DUP2 AND SWAP3 SWAP2 CALLER DUP5 SWAP1 SUB PUSH2 0x506 JUMPI AND SWAP3 DUP4 ISZERO PUSH2 0x4F9 JUMPI POP POP PUSH1 0x1 DUP1 SLOAD PUSH1 0x1 PUSH1 0x1 PUSH1 0xA0 SHL SUB NOT AND DUP4 OR SWAP1 SSTORE PUSH32 0x38D16B8CAC22D99FC7C124B9CD0DE2D3FA1FAEF420BFE791D8C362D765E22700 PUSH0 DUP1 LOG3 STOP JUMPDEST MLOAD PUSH4 0xD92E233D PUSH1 0xE0 SHL DUP2 MSTORE REVERT JUMPDEST DUP5 MLOAD PUSH4 0x5FC483C5 PUSH1 0xE0 SHL DUP2 MSTORE DUP4 SWAP1 REVERT JUMPDEST POP CALLVALUE PUSH2 0x397 JUMPI PUSH1 0x20 CALLDATASIZE PUSH1 0x3 NOT ADD SLT PUSH2 0x397 JUMPI PUSH2 0x530 PUSH2 0x19E9 JUMP JUMPDEST PUSH0 SLOAD PUSH1 0x1 PUSH1 0x1 PUSH1 0xA0 SHL SUB SWAP2 SWAP1 DUP3 AND CALLER SUB PUSH2 0x560 JUMPI AND SWAP2 DUP3 ISZERO PUSH2 0x4F9 JUMPI PUSH1 0x5 DUP1 SLOAD PUSH1 0x1 PUSH1 0x1 PUSH1 0xA0 SHL SUB NOT AND DUP5 OR SWAP1 SSTORE STOP JUMPDEST DUP4 MLOAD PUSH4 0x5FC483C5 PUSH1 0xE0 SHL DUP2 MSTORE DUP4 SWAP1 REVERT JUMPDEST POP SWAP1 CALLVALUE PUSH2 0x397 JUMPI PUSH0 CALLDATASIZE PUSH1 0x3 NOT ADD SLT PUSH2 0x397 JUMPI SWAP1 SLOAD SWAP1 MLOAD PUSH1 0x1 PUSH1 0x1 PUSH1 0xA0 SHL SUB SWAP1 SWAP2 AND DUP2 MSTORE PUSH1 0x20 SWAP1 RETURN JUMPDEST DUP3 CALLVALUE PUSH2 0x397 JUMPI PUSH0 CALLDATASIZE PUSH1 0x3 NOT ADD SLT PUSH2 0x397 JUMPI PUSH1 0x20 SWAP1 PUSH1 0xA SLOAD SWAP1 MLOAD SWAP1 DUP2 MSTORE RETURN JUMPDEST POP SWAP1 CALLVALUE PUSH2 0x397 JUMPI DUP1 PUSH1 0x3 NOT CALLDATASIZE ADD SLT PUSH2 0x397 JUMPI PUSH2 0x2710 PUSH2 0x5E9 PUSH1 0x20 SWAP4 PUSH2 0x5D9 PUSH2 0x19FF JUMP JUMPDEST ISZERO PUSH2 0x5F1 JUMPI PUSH1 0x8 SLOAD SWAP1 JUMPDEST CALLDATALOAD PUSH2 0x1AAF JUMP JUMPDEST DIV SWAP1 MLOAD SWAP1 DUP2 MSTORE RETURN JUMPDEST PUSH1 0x7 SLOAD SWAP1 PUSH2 0x5E3 JUMP JUMPDEST DUP3 CALLVALUE PUSH2 0x397 JUMPI PUSH0 CALLDATASIZE PUSH1 0x3 NOT ADD SLT PUSH2 0x397 JUMPI PUSH1 0x1 SLOAD SWAP1 MLOAD PUSH1 0x1 PUSH1 0x1 PUSH1 0xA0 SHL SUB SWAP1 SWAP2 AND DUP2 MSTORE PUSH1 0x20 SWAP1 RETURN JUMPDEST POP SWAP1 CALLVALUE PUSH2 0x397 JUMPI PUSH1 0x20 CALLDATASIZE PUSH1 0x3 NOT ADD SLT PUSH2 0x397 JUMPI PUSH1 0x20 SWAP2 CALLDATALOAD PUSH0 MSTORE PUSH1 0xF DUP3 MSTORE DUP1 PUSH0 KECCAK256 SLOAD SWAP1 MLOAD SWAP1 DUP2 MSTORE RETURN JUMPDEST POP SWAP1 CALLVALUE PUSH2 0x397 JUMPI PUSH1 0x20 CALLDATASIZE PUSH1 0x3 NOT ADD SLT PUSH2 0x397 JUMPI PUSH1 0x20 SWAP2 CALLDATALOAD PUSH0 MSTORE PUSH1 0x14 DUP3 MSTORE DUP1 PUSH0 KECCAK256 SLOAD SWAP1 MLOAD SWAP1 DUP2 MSTORE RETURN JUMPDEST DUP3 CALLVALUE PUSH2 0x397 JUMPI PUSH0 CALLDATASIZE PUSH1 0x3 NOT ADD SLT PUSH2 0x397 JUMPI PUSH1 0x20 SWAP1 PUSH1 0x9 SLOAD SWAP1 MLOAD SWAP1 DUP2 MSTORE RETURN JUMPDEST POP CALLVALUE PUSH2 0x397 JUMPI PUSH1 0x20 CALLDATASIZE PUSH1 0x3 NOT ADD SLT PUSH2 0x397 JUMPI PUSH0 SLOAD DUP2 CALLDATALOAD SWAP3 SWAP1 PUSH1 0x1 PUSH1 0x1 PUSH1 0xA0 SHL SUB AND CALLER SUB PUSH2 0x38A JUMPI PUSH2 0x12C DUP4 GT PUSH2 0x6C7 JUMPI PUSH1 0x17 DUP4 SWAP1 SSTORE STOP JUMPDEST SWAP1 PUSH1 0x20 PUSH1 0x64 SWAP3 MLOAD SWAP2 PUSH3 0x461BCD PUSH1 0xE5 SHL DUP4 MSTORE DUP3 ADD MSTORE PUSH1 0x9 PUSH1 0x24 DUP3 ADD MSTORE PUSH9 0x26B0BC101A9036B4B7 PUSH1 0xB9 SHL PUSH1 0x44 DUP3 ADD MSTORE REVERT JUMPDEST DUP3 CALLVALUE PUSH2 0x397 JUMPI PUSH0 CALLDATASIZE PUSH1 0x3 NOT ADD SLT PUSH2 0x397 JUMPI PUSH1 0x20 SWAP1 PUSH1 0x17 SLOAD SWAP1 MLOAD SWAP1 DUP2 MSTORE RETURN JUMPDEST DUP3 CALLVALUE PUSH2 0x397 JUMPI PUSH0 CALLDATASIZE PUSH1 0x3 NOT ADD SLT PUSH2 0x397 JUMPI PUSH1 0x20 SWAP1 PUSH1 0x7 SLOAD SWAP1 MLOAD SWAP1 DUP2 MSTORE RETURN JUMPDEST DUP3 CALLVALUE PUSH2 0x397 JUMPI PUSH0 CALLDATASIZE PUSH1 0x3 NOT ADD SLT PUSH2 0x397 JUMPI PUSH1 0x20 SWAP1 PUSH1 0x8 SLOAD SWAP1 MLOAD SWAP1 DUP2 MSTORE RETURN JUMPDEST POP SWAP1 CALLVALUE PUSH2 0x397 JUMPI PUSH1 0x20 SWAP2 DUP3 PUSH1 0x3 NOT CALLDATASIZE ADD SLT PUSH2 0x397 JUMPI DUP1 SLOAD PUSH1 0x1 PUSH1 0x1 PUSH1 0xA0 SHL SUB SWAP2 SWAP1 DUP3 AND CALLER SUB PUSH2 0x8A5 JUMPI PUSH1 0x1A SLOAD PUSH3 0x15180 DUP2 ADD DUP1 SWAP2 GT PUSH2 0x892 JUMPI TIMESTAMP LT ISZERO PUSH2 0x885 JUMPI JUMPDEST PUSH2 0x79E DUP2 CALLDATALOAD PUSH1 0x19 SLOAD PUSH2 0x1D99 JUMP JUMPDEST SWAP2 DUP3 PUSH1 0x19 SSTORE PUSH1 0x3 SLOAD AND DUP1 PUSH2 0x7AF JUMPI JUMPDEST STOP JUMPDEST PUSH0 DUP1 SWAP2 DUP6 MLOAD DUP8 DUP2 ADD SWAP1 PUSH3 0x787445 PUSH1 0xE2 SHL DUP3 MSTORE DUP6 DUP2 MSTORE PUSH2 0x7CD DUP2 PUSH2 0x1B10 JUMP JUMPDEST MLOAD SWAP2 GAS STATICCALL PUSH2 0x7D9 PUSH2 0x1DA6 JUMP JUMPDEST SWAP1 DUP1 PUSH2 0x87A JUMPI JUMPDEST PUSH2 0x7E6 JUMPI STOP JUMPDEST DUP5 DUP2 DUP1 MLOAD DUP2 ADD SUB SLT PUSH2 0x397 JUMPI DUP5 ADD MLOAD SWAP1 DUP2 ISZERO PUSH2 0x7AD JUMPI PUSH2 0x2710 SWAP1 DUP2 DUP5 MUL SWAP2 DUP5 DUP4 DIV EQ DUP5 ISZERO OR ISZERO PUSH2 0x867 JUMPI POP SWAP1 PUSH2 0x81B SWAP2 PUSH2 0x1AC2 JUMP JUMPDEST PUSH1 0x18 SLOAD DUP1 SWAP2 GT PUSH2 0x827 JUMPI STOP JUMPDEST PUSH32 0xC1B68F84E2906898E13E04DFEA4F2CA4C44015FCEB114B71916F54A7072712A6 SWAP4 PUSH1 0x1 PUSH1 0xA0 SHL PUSH1 0xFF PUSH1 0xA0 SHL NOT PUSH1 0x1 SLOAD AND OR PUSH1 0x1 SSTORE DUP4 MLOAD SWAP3 DUP4 MSTORE DUP3 ADD MSTORE LOG1 STOP JUMPDEST PUSH1 0x11 SWAP1 PUSH4 0x4E487B71 PUSH1 0xE0 SHL PUSH0 MSTORE MSTORE PUSH1 0x24 PUSH0 REVERT JUMPDEST POP DUP5 DUP2 MLOAD LT ISZERO PUSH2 0x7E0 JUMP JUMPDEST PUSH0 PUSH1 0x19 SSTORE TIMESTAMP PUSH1 0x1A SSTORE PUSH2 0x791 JUMP JUMPDEST PUSH1 0x11 DUP3 PUSH4 0x4E487B71 PUSH1 0xE0 SHL PUSH0 MSTORE MSTORE PUSH1 0x24 PUSH0 REVERT JUMPDEST DUP3 MLOAD PUSH4 0xE9E3F4AD PUSH1 0xE0 SHL DUP2 MSTORE REVERT JUMPDEST POP CALLVALUE PUSH2 0x397 JUMPI PUSH1 0x20 CALLDATASIZE PUSH1 0x3 NOT ADD SLT PUSH2 0x397 JUMPI PUSH2 0x8CD PUSH2 0x19E9 JUMP JUMPDEST PUSH0 SLOAD PUSH1 0x1 PUSH1 0x1 PUSH1 0xA0 SHL SUB SWAP2 SWAP1 DUP3 AND CALLER SUB PUSH2 0x560 JUMPI AND SWAP2 DUP3 ISZERO PUSH2 0x4F9 JUMPI PUSH1 0x6 DUP1 SLOAD PUSH1 0x1 PUSH1 0x1 PUSH1 0xA0 SHL SUB NOT AND DUP5 OR SWAP1 SSTORE STOP JUMPDEST POP SWAP1 CALLVALUE PUSH2 0x397 JUMPI PUSH1 0xA0 CALLDATASIZE PUSH1 0x3 NOT ADD SLT PUSH2 0x397 JUMPI DUP2 CALLDATALOAD PUSH2 0x91A PUSH2 0x19D3 JUMP JUMPDEST SWAP1 PUSH1 0x44 CALLDATALOAD DUP1 ISZERO ISZERO DUP2 SUB PUSH2 0x397 JUMPI PUSH1 0x64 CALLDATALOAD PUSH1 0xFF PUSH1 0x1 SLOAD PUSH1 0xA0 SHR AND PUSH2 0xB42 JUMPI DUP3 PUSH0 MSTORE PUSH1 0x20 SWAP4 PUSH1 0x11 DUP6 MSTORE DUP6 PUSH0 KECCAK256 DUP7 MLOAD PUSH2 0x94F DUP2 PUSH2 0x1AE0 JUMP JUMPDEST DUP2 SLOAD DUP2 MSTORE PUSH1 0x1 DUP3 ADD SLOAD DUP8 DUP3 ADD MSTORE PUSH1 0x2 DUP3 ADD SLOAD SWAP5 DUP9 DUP3 ADD SWAP6 DUP7 MSTORE PUSH1 0x3 DUP4 ADD SLOAD SWAP6 PUSH1 0x60 DUP4 ADD SWAP7 DUP8 MSTORE DUP11 DUP5 ADD SLOAD SWAP3 PUSH1 0x80 DUP2 ADD SWAP4 DUP5 MSTORE PUSH1 0xFF PUSH1 0x6 PUSH1 0x5 DUP8 ADD SLOAD SWAP7 PUSH1 0xA0 DUP5 ADD SWAP8 DUP9 MSTORE ADD SLOAD AND ISZERO SWAP1 PUSH1 0xC0 DUP3 ISZERO SWAP2 ADD MSTORE PUSH2 0xB32 JUMPI MLOAD PUSH1 0x84 CALLDATALOAD GT PUSH2 0xB22 JUMPI ISZERO PUSH2 0xAB3 JUMPI POP DUP5 PUSH0 MSTORE PUSH1 0x13 DUP7 MSTORE PUSH2 0x9C5 DUP4 DUP9 PUSH0 KECCAK256 SLOAD PUSH2 0x1D99 JUMP JUMPDEST DUP5 MLOAD LT PUSH2 0xAA3 JUMPI MLOAD DUP1 PUSH2 0xA54 JUMPI JUMPDEST POP POP POP POP POP JUMPDEST PUSH1 0x3 SLOAD PUSH1 0x1 PUSH1 0x1 PUSH1 0xA0 SHL SUB AND DUP1 PUSH2 0x9EC JUMPI STOP JUMPDEST PUSH0 DUP1 SWAP2 DUP5 MLOAD DUP5 DUP2 ADD SWAP1 PUSH4 0x7510E6C9 PUSH1 0xE1 SHL DUP3 MSTORE DUP8 DUP2 MSTORE PUSH2 0xA0B DUP2 PUSH2 0x1B10 JUMP JUMPDEST MLOAD SWAP2 GAS STATICCALL PUSH2 0xA17 PUSH2 0x1DA6 JUMP JUMPDEST SWAP1 DUP1 PUSH2 0xA49 JUMPI JUMPDEST PUSH2 0xA24 JUMPI STOP JUMPDEST DUP2 DUP2 DUP1 MLOAD DUP2 ADD SUB SLT PUSH2 0x397 JUMPI ADD MLOAD PUSH1 0xC SLOAD LT PUSH2 0xA3C JUMPI STOP JUMPDEST MLOAD PUSH4 0x24E397D3 PUSH1 0xE2 SHL DUP2 MSTORE REVERT JUMPDEST POP DUP2 DUP2 MLOAD LT ISZERO PUSH2 0xA1E JUMP JUMPDEST PUSH2 0xA65 PUSH2 0x2710 SWAP2 PUSH2 0xA86 SWAP6 MLOAD PUSH2 0x1AAF JUMP JUMPDEST DIV SWAP4 PUSH0 MSTORE PUSH1 0x15 DUP6 MSTORE DUP6 PUSH0 KECCAK256 SWAP1 PUSH1 0x1 DUP1 PUSH1 0xA0 SHL SUB AND PUSH0 MSTORE DUP5 MSTORE DUP5 PUSH0 KECCAK256 SLOAD PUSH2 0x1D99 JUMP JUMPDEST GT PUSH2 0xA95 JUMPI PUSH0 DUP1 DUP1 DUP1 DUP1 PUSH2 0x9D3 JUMP JUMPDEST POP MLOAD PUSH4 0x9F17B34D PUSH1 0xE0 SHL DUP2 MSTORE REVERT JUMPDEST DUP7 MLOAD PUSH4 0x8A9D1C41 PUSH1 0xE0 SHL DUP2 MSTORE DUP9 SWAP1 REVERT JUMPDEST SWAP4 POP DUP5 PUSH0 MSTORE PUSH1 0x14 DUP7 MSTORE PUSH2 0xAC9 DUP4 DUP9 PUSH0 KECCAK256 SLOAD PUSH2 0x1D99 JUMP JUMPDEST DUP5 MLOAD LT PUSH2 0xAA3 JUMPI MLOAD DUP1 PUSH2 0xAE1 JUMPI JUMPDEST POP POP POP POP POP PUSH2 0x9D9 JUMP JUMPDEST PUSH2 0xAF2 PUSH2 0x2710 SWAP2 PUSH2 0xB13 SWAP6 MLOAD PUSH2 0x1AAF JUMP JUMPDEST DIV SWAP4 PUSH0 MSTORE PUSH1 0x16 DUP6 MSTORE DUP6 PUSH0 KECCAK256 SWAP1 PUSH1 0x1 DUP1 PUSH1 0xA0 SHL SUB AND PUSH0 MSTORE DUP5 MSTORE DUP5 PUSH0 KECCAK256 SLOAD PUSH2 0x1D99 JUMP JUMPDEST GT PUSH2 0xA95 JUMPI PUSH0 DUP1 DUP1 DUP1 DUP1 PUSH2 0xAD7 JUMP JUMPDEST DUP9 MLOAD PUSH4 0x34BCDEAD PUSH1 0xE1 SHL DUP2 MSTORE DUP11 SWAP1 REVERT JUMPDEST DUP10 MLOAD PUSH4 0x4FEDF0ED PUSH1 0xE0 SHL DUP2 MSTORE DUP12 SWAP1 REVERT JUMPDEST DUP5 MLOAD PUSH4 0x1309A563 PUSH1 0xE0 SHL DUP2 MSTORE DUP7 SWAP1 REVERT JUMPDEST DUP3 CALLVALUE PUSH2 0x397 JUMPI PUSH0 CALLDATASIZE PUSH1 0x3 NOT ADD SLT PUSH2 0x397 JUMPI PUSH1 0x6 SLOAD SWAP1 MLOAD PUSH1 0x1 PUSH1 0x1 PUSH1 0xA0 SHL SUB SWAP1 SWAP2 AND DUP2 MSTORE PUSH1 0x20 SWAP1 RETURN JUMPDEST POP CALLVALUE PUSH2 0x397 JUMPI PUSH2 0xB89 CALLDATASIZE PUSH2 0x1A0E JUMP JUMPDEST DUP5 SLOAD SWAP1 SWAP6 SWAP4 SWAP5 PUSH1 0x1 PUSH1 0x1 PUSH1 0xA0 SHL SUB SWAP3 SWAP2 DUP4 AND CALLER SUB PUSH2 0xC19 JUMPI POP ISZERO PUSH2 0xBE2 JUMPI DUP4 PUSH2 0xBDE SWAP5 PUSH0 MSTORE PUSH1 0x13 PUSH1 0x20 MSTORE DUP4 PUSH0 KECCAK256 PUSH2 0xBC1 DUP8 DUP3 SLOAD PUSH2 0x1D99 JUMP JUMPDEST SWAP1 SSTORE PUSH0 MSTORE PUSH1 0x15 PUSH1 0x20 MSTORE DUP3 PUSH0 KECCAK256 SWAP2 AND PUSH0 MSTORE PUSH1 0x20 MSTORE PUSH0 KECCAK256 SWAP2 DUP3 SLOAD PUSH2 0x1D99 JUMP JUMPDEST SWAP1 SSTORE STOP JUMPDEST DUP4 PUSH2 0xBDE SWAP5 PUSH0 MSTORE PUSH1 0x14 PUSH1 0x20 MSTORE DUP4 PUSH0 KECCAK256 PUSH2 0xBFC DUP8 DUP3 SLOAD PUSH2 0x1D99 JUMP JUMPDEST SWAP1 SSTORE PUSH0 MSTORE PUSH1 0x16 PUSH1 0x20 MSTORE DUP3 PUSH0 KECCAK256 SWAP2 AND PUSH0 MSTORE PUSH1 0x20 MSTORE PUSH0 KECCAK256 SWAP2 DUP3 SLOAD PUSH2 0x1D99 JUMP JUMPDEST DUP5 MLOAD PUSH4 0xE9E3F4AD PUSH1 0xE0 SHL DUP2 MSTORE REVERT JUMPDEST POP SWAP1 CALLVALUE PUSH2 0x397 JUMPI PUSH1 0x60 CALLDATASIZE PUSH1 0x3 NOT ADD SLT PUSH2 0x397 JUMPI PUSH2 0x3F3 PUSH1 0x20 SWAP3 PUSH2 0xC48 PUSH2 0x19FF JUMP JUMPDEST PUSH1 0x44 CALLDATALOAD SWAP2 CALLDATALOAD PUSH2 0x1CA0 JUMP JUMPDEST DUP3 CALLVALUE PUSH2 0x397 JUMPI PUSH0 CALLDATASIZE PUSH1 0x3 NOT ADD SLT PUSH2 0x397 JUMPI PUSH1 0x20 SWAP1 PUSH1 0x18 SLOAD SWAP1 MLOAD SWAP1 DUP2 MSTORE RETURN JUMPDEST POP SWAP1 CALLVALUE PUSH2 0x397 JUMPI DUP1 PUSH1 0x3 NOT CALLDATASIZE ADD SLT PUSH2 0x397 JUMPI PUSH0 SLOAD DUP3 CALLDATALOAD SWAP3 SWAP1 PUSH1 0x1 PUSH1 0x1 PUSH1 0xA0 SHL SUB AND CALLER SUB PUSH2 0xCD0 JUMPI POP DUP2 PUSH0 MSTORE PUSH1 0x11 PUSH1 0x20 MSTORE PUSH1 0x2 PUSH1 0x24 CALLDATALOAD SWAP2 PUSH0 KECCAK256 ADD SSTORE PUSH32 0xEAAB1FBAE57C9453947C2C5733C4728C55777F0C7ADEFA5CC50D91EB3E1E3684 PUSH0 DUP1 LOG2 STOP JUMPDEST SWAP1 MLOAD PUSH4 0x5FC483C5 PUSH1 0xE0 SHL DUP2 MSTORE REVERT JUMPDEST POP CALLVALUE PUSH2 0x397 JUMPI PUSH1 0x80 CALLDATASIZE PUSH1 0x3 NOT ADD SLT PUSH2 0x397 JUMPI PUSH0 SLOAD DUP2 CALLDATALOAD SWAP3 SWAP1 PUSH1 0x1 PUSH1 0x1 PUSH1 0xA0 SHL SUB AND CALLER SUB PUSH2 0x38A JUMPI DUP3 PUSH0 MSTORE PUSH1 0x11 PUSH1 0x20 MSTORE PUSH0 KECCAK256 SWAP1 PUSH1 0x24 CALLDATALOAD PUSH1 0x3 DUP4 ADD SSTORE PUSH1 0x44 CALLDATALOAD SWAP1 DUP3 ADD SSTORE PUSH1 0x5 PUSH1 0x64 CALLDATALOAD SWAP2 ADD SSTORE PUSH32 0xEAAB1FBAE57C9453947C2C5733C4728C55777F0C7ADEFA5CC50D91EB3E1E3684 PUSH0 DUP1 LOG2 STOP JUMPDEST POP CALLVALUE PUSH2 0x397 JUMPI DUP2 PUSH1 0x3 NOT CALLDATASIZE ADD SLT PUSH2 0x397 JUMPI DUP1 CALLDATALOAD SWAP2 PUSH2 0xD69 PUSH2 0x19FF JUMP JUMPDEST PUSH0 SLOAD SWAP1 SWAP3 SWAP1 PUSH1 0x1 PUSH1 0x1 PUSH1 0xA0 SHL SUB AND CALLER SUB PUSH2 0xCD0 JUMPI POP PUSH32 0xD6C85B16F14B4F3729D9C05FBA629C9C41CB77A2EAEA1CBE9F972E3C1ADD760A SWAP2 PUSH1 0x20 SWAP2 DUP5 PUSH0 MSTORE PUSH1 0x11 DUP4 MSTORE PUSH2 0xDC5 DUP3 PUSH1 0x6 DUP4 PUSH0 KECCAK256 ADD SWAP1 PUSH1 0xFF DUP1 NOT DUP4 SLOAD AND SWAP2 ISZERO ISZERO AND OR SWAP1 SSTORE JUMP JUMPDEST MLOAD SWAP1 ISZERO ISZERO DUP2 MSTORE LOG2 STOP JUMPDEST POP SWAP1 CALLVALUE PUSH2 0x397 JUMPI PUSH1 0x20 CALLDATASIZE PUSH1 0x3 NOT ADD SLT PUSH2 0x397 JUMPI PUSH2 0xDE9 PUSH2 0x19E9 JUMP JUMPDEST PUSH0 SLOAD PUSH1 0x1 PUSH1 0x1 PUSH1 0xA0 SHL SUB SWAP2 SWAP1 DUP3 AND CALLER SUB PUSH2 0xE26 JUMPI AND SWAP1 DUP2 ISZERO PUSH2 0xE17 JUMPI POP DUP2 SLOAD PUSH1 0x1 PUSH1 0x1 PUSH1 0xA0 SHL SUB NOT AND OR SWAP1 SSTORE STOP JUMPDEST MLOAD PUSH4 0xD92E233D PUSH1 0xE0 SHL DUP2 MSTORE SWAP1 POP REVERT JUMPDEST POP POP MLOAD PUSH4 0x5FC483C5 PUSH1 0xE0 SHL DUP2 MSTORE REVERT JUMPDEST DUP3 CALLVALUE PUSH2 0x397 JUMPI PUSH0 CALLDATASIZE PUSH1 0x3 NOT ADD SLT PUSH2 0x397 JUMPI PUSH1 0x20 SWAP1 PUSH1 0x12 SLOAD SWAP1 MLOAD SWAP1 DUP2 MSTORE RETURN JUMPDEST POP SWAP1 CALLVALUE PUSH2 0x397 JUMPI PUSH1 0x20 CALLDATASIZE PUSH1 0x3 NOT ADD SLT PUSH2 0x397 JUMPI PUSH2 0x2710 PUSH2 0x5E9 PUSH1 0x20 SWAP4 PUSH1 0x7 SLOAD SWAP1 CALLDATALOAD PUSH2 0x1AAF JUMP JUMPDEST DUP3 CALLVALUE PUSH2 0x397 JUMPI PUSH0 CALLDATASIZE PUSH1 0x3 NOT ADD SLT PUSH2 0x397 JUMPI PUSH1 0x20 SWAP1 PUSH1 0x10 SLOAD SWAP1 MLOAD SWAP1 DUP2 MSTORE RETURN JUMPDEST POP SWAP1 CALLVALUE PUSH2 0x397 JUMPI PUSH1 0x20 CALLDATASIZE PUSH1 0x3 NOT ADD SLT PUSH2 0x397 JUMPI PUSH2 0x3F3 PUSH1 0x20 SWAP3 CALLDATALOAD PUSH2 0x1BD7 JUMP JUMPDEST POP CALLVALUE PUSH2 0x397 JUMPI PUSH1 0x20 CALLDATASIZE PUSH1 0x3 NOT ADD SLT PUSH2 0x397 JUMPI CALLDATALOAD SWAP1 PUSH1 0x12 SLOAD DUP3 LT ISZERO PUSH2 0x397 JUMPI PUSH2 0xEDF PUSH1 0x20 SWAP3 PUSH2 0x1A45 JUMP JUMPDEST SWAP2 SWAP1 SLOAD SWAP1 MLOAD SWAP2 PUSH1 0x3 SHL SHR DUP2 MSTORE RETURN JUMPDEST POP CALLVALUE PUSH2 0x397 JUMPI PUSH1 0x20 CALLDATASIZE PUSH1 0x3 NOT ADD SLT PUSH2 0x397 JUMPI PUSH1 0x80 SWAP2 DUP2 CALLDATALOAD PUSH0 MSTORE PUSH1 0x13 PUSH1 0x20 MSTORE DUP1 PUSH0 KECCAK256 SLOAD SWAP2 PUSH1 0x14 PUSH1 0x20 MSTORE DUP2 PUSH0 KECCAK256 SLOAD SWAP2 PUSH1 0x11 PUSH1 0x20 MSTORE DUP1 PUSH0 KECCAK256 SWAP2 PUSH1 0x3 DUP4 ADD SLOAD SWAP3 ADD SLOAD SWAP3 DUP2 MLOAD SWAP5 DUP6 MSTORE PUSH1 0x20 DUP6 ADD MSTORE DUP4 ADD MSTORE PUSH1 0x60 DUP3 ADD MSTORE RETURN JUMPDEST DUP3 CALLVALUE PUSH2 0x397 JUMPI PUSH0 CALLDATASIZE PUSH1 0x3 NOT ADD SLT PUSH2 0x397 JUMPI PUSH0 SLOAD SWAP1 MLOAD PUSH1 0x1 PUSH1 0x1 PUSH1 0xA0 SHL SUB SWAP1 SWAP2 AND DUP2 MSTORE PUSH1 0x20 SWAP1 RETURN JUMPDEST POP SWAP1 CALLVALUE PUSH2 0x397 JUMPI PUSH0 CALLDATASIZE PUSH1 0x3 NOT ADD SLT PUSH2 0x397 JUMPI PUSH0 SLOAD PUSH1 0x1 PUSH1 0x1 PUSH1 0xA0 SHL SUB AND CALLER SUB PUSH2 0x38A JUMPI PUSH1 0x1 DUP1 SLOAD PUSH1 0xFF PUSH1 0xA0 SHL NOT AND PUSH1 0x1 PUSH1 0xA0 SHL OR SWAP1 SSTORE PUSH32 0x9E87FAC88FF661F02D44F95383C817FECE4BCE600A3DAB7A54406878B965E752 PUSH0 DUP1 LOG1 STOP JUMPDEST POP SWAP1 CALLVALUE PUSH2 0x397 JUMPI DUP1 PUSH1 0x3 NOT CALLDATASIZE ADD SLT PUSH2 0x397 JUMPI PUSH1 0x20 SWAP2 PUSH2 0xFE0 PUSH2 0x19D3 JUMP JUMPDEST SWAP1 CALLDATALOAD PUSH0 MSTORE PUSH1 0x15 DUP4 MSTORE DUP2 PUSH0 KECCAK256 SWAP1 PUSH1 0x1 DUP1 PUSH1 0xA0 SHL SUB AND PUSH0 MSTORE DUP3 MSTORE DUP1 PUSH0 KECCAK256 SLOAD SWAP1 MLOAD SWAP1 DUP2 MSTORE RETURN JUMPDEST POP SWAP1 CALLVALUE PUSH2 0x397 JUMPI PUSH1 0x20 CALLDATASIZE PUSH1 0x3 NOT ADD SLT PUSH2 0x397 JUMPI PUSH1 0x20 SWAP2 CALLDATALOAD PUSH0 MSTORE PUSH1 0x13 DUP3 MSTORE PUSH2 0x3F3 DUP2 PUSH0 KECCAK256 SLOAD PUSH1 0x14 DUP5 MSTORE DUP3 PUSH0 KECCAK256 SLOAD SWAP1 PUSH2 0x1B4E JUMP JUMPDEST DUP3 CALLVALUE PUSH2 0x397 JUMPI PUSH0 CALLDATASIZE PUSH1 0x3 NOT ADD SLT PUSH2 0x397 JUMPI PUSH1 0x20 SWAP1 PUSH1 0xC SLOAD SWAP1 MLOAD SWAP1 DUP2 MSTORE RETURN JUMPDEST DUP3 CALLVALUE PUSH2 0x397 JUMPI PUSH0 CALLDATASIZE PUSH1 0x3 NOT ADD SLT PUSH2 0x397 JUMPI PUSH1 0x2 SLOAD SWAP1 MLOAD PUSH1 0x1 PUSH1 0x1 PUSH1 0xA0 SHL SUB SWAP1 SWAP2 AND DUP2 MSTORE PUSH1 0x20 SWAP1 RETURN JUMPDEST POP SWAP1 CALLVALUE PUSH2 0x397 JUMPI PUSH0 CALLDATASIZE PUSH1 0x3 NOT ADD SLT PUSH2 0x397 JUMPI PUSH1 0x1 SLOAD PUSH1 0x1 PUSH1 0x1 PUSH1 0xA0 SHL SUB SWAP3 SWAP1 SWAP2 DUP4 DUP4 AND SWAP2 SWAP1 CALLER DUP4 SWAP1 SUB PUSH2 0x10E9 JUMPI POP POP DUP1 PUSH0 SLOAD SWAP4 DUP5 AND PUSH32 0x8BE0079C531659141344CD1FD0A4F28419497F9722A3DAAFE3B4186F6B6457E0 PUSH0 DUP1 LOG3 PUSH1 0x1 PUSH1 0x1 PUSH1 0xA0 SHL SUB NOT SWAP3 DUP4 AND OR PUSH0 SSTORE AND PUSH1 0x1 SSTORE STOP JUMPDEST SWAP1 PUSH1 0x20 PUSH1 0x64 SWAP3 MLOAD SWAP2 PUSH3 0x461BCD PUSH1 0xE5 SHL DUP4 MSTORE DUP3 ADD MSTORE PUSH1 0x11 PUSH1 0x24 DUP3 ADD MSTORE PUSH17 0x2737BA103832B73234B7339037BBB732B9 PUSH1 0x79 SHL PUSH1 0x44 DUP3 ADD MSTORE REVERT JUMPDEST POP CALLVALUE PUSH2 0x397 JUMPI PUSH1 0x20 CALLDATASIZE PUSH1 0x3 NOT ADD SLT PUSH2 0x397 JUMPI DUP2 PUSH0 PUSH1 0xC0 PUSH1 0xE0 SWAP5 MLOAD PUSH2 0x1143 DUP2 PUSH2 0x1AE0 JUMP JUMPDEST DUP3 DUP2 MSTORE DUP3 PUSH1 0x20 DUP3 ADD MSTORE DUP3 DUP5 DUP3 ADD MSTORE DUP3 PUSH1 0x60 DUP3 ADD MSTORE DUP3 PUSH1 0x80 DUP3 ADD MSTORE DUP3 PUSH1 0xA0 DUP3 ADD MSTORE ADD MSTORE DUP2 CALLDATALOAD PUSH0 MSTORE PUSH1 0x11 PUSH1 0x20 MSTORE DUP1 PUSH0 KECCAK256 DUP2 MLOAD SWAP2 PUSH2 0x117D DUP4 PUSH2 0x1AE0 JUMP JUMPDEST DUP2 SLOAD SWAP4 DUP5 DUP5 MSTORE PUSH1 0x1 DUP4 ADD SLOAD SWAP2 PUSH1 0x20 DUP6 ADD SWAP3 DUP4 MSTORE PUSH1 0x2 DUP5 ADD SLOAD DUP2 DUP7 ADD SWAP1 DUP2 MSTORE PUSH1 0x3 DUP6 ADD SLOAD SWAP3 PUSH1 0x60 DUP8 ADD SWAP4 DUP5 MSTORE DUP6 ADD SLOAD SWAP4 PUSH1 0x80 DUP8 ADD SWAP5 DUP6 MSTORE PUSH1 0xC0 PUSH1 0xFF PUSH1 0x6 PUSH1 0x5 DUP10 ADD SLOAD SWAP9 PUSH1 0xA0 DUP12 ADD SWAP10 DUP11 MSTORE ADD SLOAD AND SWAP8 ADD SWAP7 ISZERO ISZERO DUP8 MSTORE DUP3 MLOAD SWAP8 DUP9 MSTORE MLOAD PUSH1 0x20 DUP9 ADD MSTORE MLOAD SWAP1 DUP7 ADD MSTORE MLOAD PUSH1 0x60 DUP6 ADD MSTORE MLOAD PUSH1 0x80 DUP5 ADD MSTORE MLOAD PUSH1 0xA0 DUP4 ADD MSTORE MLOAD ISZERO ISZERO PUSH1 0xC0 DUP3 ADD MSTORE RETURN JUMPDEST POP CALLVALUE PUSH2 0x397 JUMPI PUSH1 0x20 CALLDATASIZE PUSH1 0x3 NOT ADD SLT PUSH2 0x397 JUMPI PUSH2 0x1216 PUSH2 0x19E9 JUMP JUMPDEST PUSH0 SLOAD PUSH1 0x1 PUSH1 0x1 PUSH1 0xA0 SHL SUB SWAP2 SWAP1 DUP3 AND CALLER SUB PUSH2 0x560 JUMPI AND SWAP2 DUP3 ISZERO PUSH2 0x4F9 JUMPI PUSH1 0x3 DUP1 SLOAD PUSH1 0x1 PUSH1 0x1 PUSH1 0xA0 SHL SUB NOT AND DUP5 OR SWAP1 SSTORE STOP JUMPDEST POP CALLVALUE PUSH2 0x397 JUMPI PUSH1 0x20 CALLDATASIZE PUSH1 0x3 NOT ADD SLT PUSH2 0x397 JUMPI PUSH0 SLOAD DUP2 CALLDATALOAD SWAP3 SWAP1 PUSH1 0x1 PUSH1 0x1 PUSH1 0xA0 SHL SUB AND CALLER SUB PUSH2 0x38A JUMPI PUSH2 0x3E8 DUP4 GT PUSH2 0x127D JUMPI PUSH1 0xD DUP4 SWAP1 SSTORE STOP JUMPDEST SWAP1 PUSH1 0x20 PUSH1 0x64 SWAP3 MLOAD SWAP2 PUSH3 0x461BCD PUSH1 0xE5 SHL DUP4 MSTORE DUP3 ADD MSTORE PUSH1 0x8 PUSH1 0x24 DUP3 ADD MSTORE PUSH8 0xA8DEDE40D0D2CED PUSH1 0xC3 SHL PUSH1 0x44 DUP3 ADD MSTORE REVERT JUMPDEST POP SWAP1 CALLVALUE PUSH2 0x397 JUMPI PUSH1 0x20 CALLDATASIZE PUSH1 0x3 NOT ADD SLT PUSH2 0x397 JUMPI DUP2 PUSH1 0xE0 SWAP3 CALLDATALOAD PUSH0 MSTORE PUSH1 0x11 PUSH1 0x20 MSTORE DUP2 PUSH0 KECCAK256 DUP1 SLOAD SWAP3 PUSH1 0x1 DUP3 ADD SLOAD SWAP3 PUSH1 0x2 DUP4 ADD SLOAD PUSH1 0x3 DUP5 ADD SLOAD SWAP2 DUP5 ADD SLOAD SWAP3 PUSH1 0xFF PUSH1 0x6 PUSH1 0x5 DUP8 ADD SLOAD SWAP7 ADD SLOAD AND SWAP6 DUP2 MLOAD SWAP8 DUP9 MSTORE PUSH1 0x20 DUP9 ADD MSTORE DUP7 ADD MSTORE PUSH1 0x60 DUP6 ADD MSTORE PUSH1 0x80 DUP5 ADD MSTORE PUSH1 0xA0 DUP4 ADD MSTORE ISZERO ISZERO PUSH1 0xC0 DUP3 ADD MSTORE RETURN JUMPDEST POP SWAP1 CALLVALUE PUSH2 0x397 JUMPI PUSH1 0x20 CALLDATASIZE PUSH1 0x3 NOT ADD SLT PUSH2 0x397 JUMPI PUSH1 0x20 SWAP2 CALLDATALOAD PUSH0 MSTORE PUSH1 0x13 DUP3 MSTORE DUP1 PUSH0 KECCAK256 SLOAD SWAP1 MLOAD SWAP1 DUP2 MSTORE RETURN JUMPDEST DUP3 CALLVALUE PUSH2 0x397 JUMPI PUSH0 CALLDATASIZE PUSH1 0x3 NOT ADD SLT PUSH2 0x397 JUMPI PUSH1 0x20 SWAP1 PUSH1 0x19 SLOAD SWAP1 MLOAD SWAP1 DUP2 MSTORE RETURN JUMPDEST DUP3 CALLVALUE PUSH2 0x397 JUMPI PUSH0 CALLDATASIZE PUSH1 0x3 NOT ADD SLT PUSH2 0x397 JUMPI PUSH1 0x5 SLOAD SWAP1 MLOAD PUSH1 0x1 PUSH1 0x1 PUSH1 0xA0 SHL SUB SWAP1 SWAP2 AND DUP2 MSTORE PUSH1 0x20 SWAP1 RETURN JUMPDEST DUP3 CALLVALUE PUSH2 0x397 JUMPI PUSH0 CALLDATASIZE PUSH1 0x3 NOT ADD SLT PUSH2 0x397 JUMPI PUSH1 0x20 SWAP1 PUSH1 0xFF PUSH1 0x1 SLOAD PUSH1 0xA0 SHR AND SWAP1 MLOAD SWAP1 ISZERO ISZERO DUP2 MSTORE RETURN JUMPDEST POP SWAP1 CALLVALUE PUSH2 0x397 JUMPI DUP1 PUSH1 0x3 NOT CALLDATASIZE ADD SLT PUSH2 0x397 JUMPI PUSH1 0x20 SWAP2 PUSH2 0x13C9 PUSH2 0x19D3 JUMP JUMPDEST SWAP1 CALLDATALOAD PUSH0 MSTORE PUSH1 0x16 DUP4 MSTORE DUP2 PUSH0 KECCAK256 SWAP1 PUSH1 0x1 DUP1 PUSH1 0xA0 SHL SUB AND PUSH0 MSTORE DUP3 MSTORE DUP1 PUSH0 KECCAK256 SLOAD SWAP1 MLOAD SWAP1 DUP2 MSTORE RETURN JUMPDEST DUP3 CALLVALUE PUSH2 0x397 JUMPI PUSH0 CALLDATASIZE PUSH1 0x3 NOT ADD SLT PUSH2 0x397 JUMPI PUSH1 0x20 SWAP1 PUSH1 0x1A SLOAD SWAP1 MLOAD SWAP1 DUP2 MSTORE RETURN JUMPDEST POP SWAP1 CALLVALUE PUSH2 0x397 JUMPI PUSH1 0x20 CALLDATASIZE PUSH1 0x3 NOT ADD SLT PUSH2 0x397 JUMPI PUSH1 0x20 SWAP2 CALLDATALOAD PUSH0 MSTORE PUSH1 0xE DUP3 MSTORE DUP1 PUSH0 KECCAK256 SLOAD SWAP1 MLOAD SWAP1 DUP2 MSTORE RETURN JUMPDEST POP SWAP1 CALLVALUE PUSH2 0x397 JUMPI PUSH0 CALLDATASIZE PUSH1 0x3 NOT ADD SLT PUSH2 0x397 JUMPI PUSH0 SLOAD PUSH1 0x1 PUSH1 0x1 PUSH1 0xA0 SHL SUB AND CALLER SUB PUSH2 0x38A JUMPI PUSH1 0x1 DUP1 SLOAD PUSH1 0xFF PUSH1 0xA0 SHL NOT AND SWAP1 SSTORE PUSH32 0xA45F47FDEA8A1EFDD9029A5691C7F759C32B7C698632B563573E155625D16933 PUSH0 DUP1 LOG1 STOP JUMPDEST DUP3 CALLVALUE PUSH2 0x397 JUMPI PUSH0 CALLDATASIZE PUSH1 0x3 NOT ADD SLT PUSH2 0x397 JUMPI MLOAD PUSH32 0x0 PUSH1 0x1 PUSH1 0x1 PUSH1 0xA0 SHL SUB AND DUP2 MSTORE PUSH1 0x20 SWAP1 RETURN JUMPDEST POP CALLVALUE PUSH2 0x397 JUMPI PUSH1 0xC0 CALLDATASIZE PUSH1 0x3 NOT ADD SLT PUSH2 0x397 JUMPI DUP1 CALLDATALOAD PUSH8 0xFFFFFFFFFFFFFFFF SWAP3 DUP4 DUP3 GT PUSH2 0x397 JUMPI CALLDATASIZE PUSH1 0x23 DUP4 ADD SLT ISZERO PUSH2 0x397 JUMPI DUP2 DUP4 ADD CALLDATALOAD SWAP4 DUP5 GT PUSH2 0x397 JUMPI CALLDATASIZE PUSH1 0x24 DUP6 DUP5 ADD ADD GT PUSH2 0x397 JUMPI PUSH1 0x44 CALLDATALOAD SWAP1 PUSH1 0x64 CALLDATALOAD SWAP3 PUSH1 0x84 CALLDATALOAD SWAP6 PUSH1 0x1 DUP1 PUSH1 0xA0 SHL SUB PUSH0 SLOAD AND CALLER SUB PUSH2 0x1681 JUMPI DUP3 MLOAD PUSH1 0x20 SWAP3 DUP4 DUP3 ADD SWAP3 PUSH2 0x1558 SWAP2 DUP6 SWAP2 DUP5 SWAP2 DUP2 SWAP1 PUSH1 0x24 ADD DUP8 CALLDATACOPY DUP2 ADD PUSH0 DUP4 DUP3 ADD MSTORE SUB DUP1 DUP5 MSTORE ADD DUP3 PUSH2 0x1B2C JUMP JUMPDEST MLOAD SWAP1 KECCAK256 SWAP5 PUSH2 0x15E1 DUP4 MLOAD PUSH2 0x156A DUP2 PUSH2 0x1AE0 JUMP JUMPDEST DUP8 DUP2 MSTORE PUSH1 0x6 DUP9 DUP6 DUP4 ADD PUSH1 0x24 CALLDATALOAD DUP2 MSTORE DUP12 DUP9 DUP6 ADD DUP11 DUP2 MSTORE PUSH1 0x60 DUP7 ADD SWAP1 DUP13 DUP3 MSTORE PUSH1 0x80 DUP8 ADD SWAP3 DUP4 MSTORE PUSH1 0xA0 DUP8 ADD SWAP4 PUSH1 0xA4 CALLDATALOAD DUP6 MSTORE PUSH1 0xC0 DUP9 ADD SWAP6 PUSH1 0x1 DUP8 MSTORE PUSH0 MSTORE PUSH1 0x11 DUP12 MSTORE DUP12 PUSH0 KECCAK256 SWAP8 MLOAD DUP9 SSTORE MLOAD PUSH1 0x1 DUP9 ADD SSTORE MLOAD PUSH1 0x2 DUP8 ADD SSTORE MLOAD PUSH1 0x3 DUP7 ADD SSTORE MLOAD DUP7 DUP6 ADD SSTORE MLOAD PUSH1 0x5 DUP5 ADD SSTORE MLOAD ISZERO ISZERO SWAP2 ADD SWAP1 PUSH1 0xFF DUP1 NOT DUP4 SLOAD AND SWAP2 ISZERO ISZERO AND OR SWAP1 SSTORE JUMP JUMPDEST PUSH1 0x12 SLOAD SWAP1 PUSH9 0x10000000000000000 DUP3 LT ISZERO PUSH2 0x166E JUMPI POP SWAP2 PUSH1 0xF PUSH32 0xC09B0E6EA17E638181154AED6758AE0143886172F6CF847A2302FF6DEF186619 SWAP7 SWAP8 SWAP3 PUSH2 0x1631 DUP6 PUSH1 0x1 PUSH2 0x1669 SWAP8 ADD PUSH1 0x12 SSTORE PUSH2 0x1A45 JUMP JUMPDEST DUP2 SLOAD SWAP1 PUSH1 0x3 SHL SWAP1 DUP12 DUP3 SHL SWAP2 PUSH0 NOT SWAP1 SHL NOT AND OR SWAP1 SSTORE DUP9 PUSH0 MSTORE MSTORE TIMESTAMP DUP2 PUSH0 KECCAK256 SSTORE MLOAD SWAP4 DUP5 SWAP4 DUP5 PUSH1 0x40 SWAP2 SWAP5 SWAP4 SWAP3 PUSH1 0x60 DUP3 ADD SWAP6 DUP3 MSTORE PUSH1 0x20 DUP3 ADD MSTORE ADD MSTORE JUMP JUMPDEST SUB SWAP1 LOG2 STOP JUMPDEST PUSH1 0x41 SWAP1 PUSH4 0x4E487B71 PUSH1 0xE0 SHL PUSH0 MSTORE MSTORE PUSH1 0x24 PUSH0 REVERT JUMPDEST DUP3 MLOAD PUSH4 0x5FC483C5 PUSH1 0xE0 SHL DUP2 MSTORE DUP7 SWAP1 REVERT JUMPDEST POP CALLVALUE PUSH2 0x397 JUMPI PUSH1 0x20 CALLDATASIZE PUSH1 0x3 NOT ADD SLT PUSH2 0x397 JUMPI PUSH0 SLOAD DUP2 CALLDATALOAD SWAP3 SWAP1 PUSH1 0x1 PUSH1 0x1 PUSH1 0xA0 SHL SUB AND CALLER SUB PUSH2 0x38A JUMPI PUSH2 0x3E8 DUP4 LT ISZERO DUP1 PUSH2 0x16FC JUMPI JUMPDEST ISZERO PUSH2 0x16D0 JUMPI PUSH1 0x18 DUP4 SWAP1 SSTORE STOP JUMPDEST SWAP1 PUSH1 0x20 PUSH1 0x64 SWAP3 MLOAD SWAP2 PUSH3 0x461BCD PUSH1 0xE5 SHL DUP4 MSTORE DUP3 ADD MSTORE PUSH1 0x6 PUSH1 0x24 DUP3 ADD MSTORE PUSH6 0x31302D353025 PUSH1 0xD0 SHL PUSH1 0x44 DUP3 ADD MSTORE REVERT JUMPDEST POP PUSH2 0x1388 DUP4 GT ISZERO PUSH2 0x16C4 JUMP JUMPDEST POP SWAP1 CALLVALUE PUSH2 0x397 JUMPI PUSH1 0x20 CALLDATASIZE PUSH1 0x3 NOT ADD SLT PUSH2 0x397 JUMPI PUSH2 0x1772 PUSH2 0x1751 SWAP3 CALLDATALOAD SWAP2 PUSH2 0x1756 PUSH2 0x2710 SWAP4 DUP5 PUSH2 0x1738 PUSH1 0x9 SLOAD DUP4 PUSH2 0x1AAF JUMP JUMPDEST DIV SWAP6 DUP7 SWAP6 PUSH2 0x1748 PUSH1 0xA SLOAD DUP5 PUSH2 0x1AAF JUMP JUMPDEST DIV SWAP7 DUP8 SWAP3 PUSH2 0x1A8E JUMP JUMPDEST PUSH2 0x1A8E JUMP JUMPDEST SWAP1 MLOAD SWAP4 DUP5 SWAP4 DUP5 PUSH1 0x40 SWAP2 SWAP5 SWAP4 SWAP3 PUSH1 0x60 DUP3 ADD SWAP6 DUP3 MSTORE PUSH1 0x20 DUP3 ADD MSTORE ADD MSTORE JUMP JUMPDEST SUB SWAP1 RETURN JUMPDEST POP CALLVALUE PUSH2 0x397 JUMPI PUSH1 0x20 CALLDATASIZE PUSH1 0x3 NOT ADD SLT PUSH2 0x397 JUMPI PUSH0 SLOAD DUP2 CALLDATALOAD SWAP3 SWAP1 PUSH1 0x1 PUSH1 0x1 PUSH1 0xA0 SHL SUB AND CALLER SUB PUSH2 0x38A JUMPI PUSH2 0x1388 DUP4 LT ISZERO DUP1 PUSH2 0x17E5 JUMPI JUMPDEST ISZERO PUSH2 0x17B5 JUMPI PUSH1 0xC DUP4 SWAP1 SSTORE STOP JUMPDEST SWAP1 PUSH1 0x20 PUSH1 0x64 SWAP3 MLOAD SWAP2 PUSH3 0x461BCD PUSH1 0xE5 SHL DUP4 MSTORE DUP3 ADD MSTORE PUSH1 0xA PUSH1 0x24 DUP3 ADD MSTORE PUSH10 0x4361702035302D393525 PUSH1 0xB0 SHL PUSH1 0x44 DUP3 ADD MSTORE REVERT JUMPDEST POP PUSH2 0x251C DUP4 GT ISZERO PUSH2 0x17A9 JUMP JUMPDEST POP SWAP1 CALLVALUE PUSH2 0x397 JUMPI PUSH2 0x1801 CALLDATASIZE PUSH2 0x1A0E JUMP JUMPDEST DUP6 SLOAD SWAP4 SWAP6 SWAP3 SWAP4 PUSH1 0x1 PUSH1 0x1 PUSH1 0xA0 SHL SUB SWAP4 SWAP2 SWAP3 SWAP2 SWAP1 DUP5 AND CALLER SUB PUSH2 0x1934 JUMPI POP ISZERO PUSH2 0x18AB JUMPI DUP5 PUSH0 MSTORE PUSH1 0x20 SWAP2 PUSH1 0x13 DUP4 MSTORE DUP5 PUSH0 KECCAK256 SLOAD DUP3 DUP1 DUP3 GT PUSH0 EQ PUSH2 0x18A3 JUMPI PUSH2 0x1843 SWAP2 PUSH2 0x1A8E JUMP JUMPDEST DUP7 PUSH0 MSTORE PUSH1 0x13 DUP5 MSTORE DUP6 PUSH0 KECCAK256 SSTORE PUSH1 0x15 DUP4 MSTORE DUP5 PUSH0 KECCAK256 SWAP4 AND SWAP3 DUP4 PUSH0 MSTORE DUP3 MSTORE DUP1 DUP5 PUSH0 KECCAK256 SLOAD GT PUSH0 EQ PUSH2 0x189B JUMPI PUSH2 0x1885 SWAP1 DUP6 PUSH0 MSTORE PUSH1 0x15 DUP4 MSTORE DUP5 PUSH0 KECCAK256 DUP5 PUSH0 MSTORE DUP4 MSTORE DUP5 PUSH0 KECCAK256 SLOAD PUSH2 0x1A8E JUMP JUMPDEST SWAP4 JUMPDEST PUSH0 MSTORE PUSH1 0x15 DUP2 MSTORE DUP3 PUSH0 KECCAK256 SWAP2 PUSH0 MSTORE MSTORE PUSH0 KECCAK256 SSTORE PUSH0 DUP1 RETURN JUMPDEST POP PUSH0 SWAP4 PUSH2 0x1887 JUMP JUMPDEST POP POP PUSH0 PUSH2 0x1843 JUMP JUMPDEST DUP5 PUSH0 MSTORE PUSH1 0x20 SWAP2 PUSH1 0x14 DUP4 MSTORE DUP5 PUSH0 KECCAK256 SLOAD DUP3 DUP1 DUP3 GT PUSH0 EQ PUSH2 0x192C JUMPI PUSH2 0x18CC SWAP2 PUSH2 0x1A8E JUMP JUMPDEST DUP7 PUSH0 MSTORE PUSH1 0x14 DUP5 MSTORE DUP6 PUSH0 KECCAK256 SSTORE PUSH1 0x16 DUP4 MSTORE DUP5 PUSH0 KECCAK256 SWAP4 AND SWAP3 DUP4 PUSH0 MSTORE DUP3 MSTORE DUP1 DUP5 PUSH0 KECCAK256 SLOAD GT PUSH0 EQ PUSH2 0x1924 JUMPI PUSH2 0x190E SWAP1 DUP6 PUSH0 MSTORE PUSH1 0x16 DUP4 MSTORE DUP5 PUSH0 KECCAK256 DUP5 PUSH0 MSTORE DUP4 MSTORE DUP5 PUSH0 KECCAK256 SLOAD PUSH2 0x1A8E JUMP JUMPDEST SWAP4 JUMPDEST PUSH0 MSTORE PUSH1 0x16 DUP2 MSTORE DUP3 PUSH0 KECCAK256 SWAP2 PUSH0 MSTORE MSTORE PUSH0 KECCAK256 SSTORE PUSH0 DUP1 RETURN JUMPDEST POP PUSH0 SWAP4 PUSH2 0x1910 JUMP JUMPDEST POP POP PUSH0 PUSH2 0x18CC JUMP JUMPDEST DUP6 MLOAD PUSH4 0xE9E3F4AD PUSH1 0xE0 SHL DUP2 MSTORE REVERT JUMPDEST DUP3 CALLVALUE PUSH2 0x397 JUMPI PUSH0 CALLDATASIZE PUSH1 0x3 NOT ADD SLT PUSH2 0x397 JUMPI PUSH1 0x20 SWAP1 PUSH1 0xD SLOAD SWAP1 MLOAD SWAP1 DUP2 MSTORE RETURN JUMPDEST DUP3 DUP5 CALLVALUE PUSH2 0x397 JUMPI PUSH1 0x20 CALLDATASIZE PUSH1 0x3 NOT ADD SLT PUSH2 0x397 JUMPI PUSH0 SLOAD DUP3 CALLDATALOAD SWAP4 SWAP1 PUSH1 0x1 PUSH1 0x1 PUSH1 0xA0 SHL SUB AND CALLER SUB PUSH2 0x19C5 JUMPI POP PUSH2 0x1F4 DUP4 GT PUSH2 0x1999 JUMPI PUSH1 0x10 DUP4 SWAP1 SSTORE STOP JUMPDEST SWAP1 PUSH1 0x20 PUSH1 0x64 SWAP3 MLOAD SWAP2 PUSH3 0x461BCD PUSH1 0xE5 SHL DUP4 MSTORE DUP3 ADD MSTORE PUSH1 0x6 PUSH1 0x24 DUP3 ADD MSTORE PUSH6 0x4D6178203525 PUSH1 0xD0 SHL PUSH1 0x44 DUP3 ADD MSTORE REVERT JUMPDEST PUSH4 0x5FC483C5 PUSH1 0xE0 SHL DUP2 MSTORE SWAP1 POP REVERT JUMPDEST PUSH1 0x24 CALLDATALOAD SWAP1 PUSH1 0x1 PUSH1 0x1 PUSH1 0xA0 SHL SUB DUP3 AND DUP3 SUB PUSH2 0x397 JUMPI JUMP JUMPDEST PUSH1 0x4 CALLDATALOAD SWAP1 PUSH1 0x1 PUSH1 0x1 PUSH1 0xA0 SHL SUB DUP3 AND DUP3 SUB PUSH2 0x397 JUMPI JUMP JUMPDEST PUSH1 0x24 CALLDATALOAD SWAP1 DUP2 ISZERO ISZERO DUP3 SUB PUSH2 0x397 JUMPI JUMP JUMPDEST PUSH1 0x80 SWAP1 PUSH1 0x3 NOT ADD SLT PUSH2 0x397 JUMPI PUSH1 0x4 CALLDATALOAD SWAP1 PUSH1 0x24 CALLDATALOAD PUSH1 0x1 PUSH1 0x1 PUSH1 0xA0 SHL SUB DUP2 AND DUP2 SUB PUSH2 0x397 JUMPI SWAP1 PUSH1 0x44 CALLDATALOAD DUP1 ISZERO ISZERO DUP2 SUB PUSH2 0x397 JUMPI SWAP1 PUSH1 0x64 CALLDATALOAD SWAP1 JUMP JUMPDEST PUSH1 0x12 SLOAD DUP2 LT ISZERO PUSH2 0x1A7A JUMPI PUSH1 0x12 PUSH0 MSTORE PUSH32 0xBB8A6A4669BA250D26CD7A459ECA9D215F8307E33AEBE50379BC5A3617EC3444 ADD SWAP1 PUSH0 SWAP1 JUMP JUMPDEST PUSH4 0x4E487B71 PUSH1 0xE0 SHL PUSH0 MSTORE PUSH1 0x32 PUSH1 0x4 MSTORE PUSH1 0x24 PUSH0 REVERT JUMPDEST SWAP2 SWAP1 DUP3 SUB SWAP2 DUP3 GT PUSH2 0x1A9B JUMPI JUMP JUMPDEST PUSH4 0x4E487B71 PUSH1 0xE0 SHL PUSH0 MSTORE PUSH1 0x11 PUSH1 0x4 MSTORE PUSH1 0x24 PUSH0 REVERT JUMPDEST DUP2 DUP2 MUL SWAP3 SWAP2 DUP2 ISZERO SWAP2 DUP5 DIV EQ OR ISZERO PUSH2 0x1A9B JUMPI JUMP JUMPDEST DUP2 ISZERO PUSH2 0x1ACC JUMPI DIV SWAP1 JUMP JUMPDEST PUSH4 0x4E487B71 PUSH1 0xE0 SHL PUSH0 MSTORE PUSH1 0x12 PUSH1 0x4 MSTORE PUSH1 0x24 PUSH0 REVERT JUMPDEST PUSH1 0xE0 DUP2 ADD SWAP1 DUP2 LT PUSH8 0xFFFFFFFFFFFFFFFF DUP3 GT OR PUSH2 0x1AFC JUMPI PUSH1 0x40 MSTORE JUMP JUMPDEST PUSH4 0x4E487B71 PUSH1 0xE0 SHL PUSH0 MSTORE PUSH1 0x41 PUSH1 0x4 MSTORE PUSH1 0x24 PUSH0 REVERT JUMPDEST PUSH1 0x40 DUP2 ADD SWAP1 DUP2 LT PUSH8 0xFFFFFFFFFFFFFFFF DUP3 GT OR PUSH2 0x1AFC JUMPI PUSH1 0x40 MSTORE JUMP JUMPDEST SWAP1 PUSH1 0x1F DUP1 NOT SWAP2 ADD AND DUP2 ADD SWAP1 DUP2 LT PUSH8 0xFFFFFFFFFFFFFFFF DUP3 GT OR PUSH2 0x1AFC JUMPI PUSH1 0x40 MSTORE JUMP JUMPDEST DUP2 DUP2 SUB SWAP3 SWAP2 PUSH0 SGT DUP1 ISZERO DUP3 DUP6 SGT AND SWAP2 DUP5 SLT AND OR PUSH2 0x1A9B JUMPI JUMP JUMPDEST SWAP1 PUSH8 0xDE0B6B3A7640000 SWAP2 DUP3 DUP2 MUL SWAP3 DUP2 DUP5 SDIV EQ SWAP1 ISZERO OR ISZERO PUSH2 0x1A9B JUMPI JUMP JUMPDEST SWAP1 PUSH3 0x15180 SWAP2 DUP3 DUP2 MUL SWAP3 DUP2 DUP5 SDIV EQ SWAP1 ISZERO OR ISZERO PUSH2 0x1A9B JUMPI JUMP JUMPDEST DUP2 DUP2 MUL SWAP3 SWAP2 PUSH0 DUP3 SLT PUSH1 0x1 PUSH1 0xFF SHL DUP3 EQ AND PUSH2 0x1A9B JUMPI DUP2 DUP5 SDIV EQ SWAP1 ISZERO OR ISZERO PUSH2 0x1A9B JUMPI JUMP JUMPDEST DUP2 ISZERO PUSH2 0x1ACC JUMPI PUSH1 0x1 PUSH1 0xFF SHL DUP2 EQ PUSH0 NOT DUP4 EQ AND PUSH2 0x1A9B JUMPI SDIV SWAP1 JUMP JUMPDEST DUP1 PUSH0 MSTORE PUSH1 0x11 PUSH1 0x20 MSTORE PUSH1 0x40 PUSH0 KECCAK256 SWAP1 PUSH1 0x40 MLOAD PUSH2 0x1BF0 DUP2 PUSH2 0x1AE0 JUMP JUMPDEST DUP3 SLOAD DUP2 MSTORE PUSH1 0x1 DUP4 ADD SLOAD PUSH1 0x20 DUP3 ADD MSTORE PUSH1 0x2 DUP4 ADD SLOAD PUSH1 0x40 DUP3 ADD MSTORE PUSH1 0xC0 PUSH1 0xFF PUSH1 0x6 PUSH1 0x3 DUP7 ADD SLOAD SWAP6 DUP7 PUSH1 0x60 DUP7 ADD MSTORE PUSH1 0x4 DUP2 ADD SLOAD PUSH1 0x80 DUP7 ADD MSTORE PUSH1 0x5 DUP2 ADD SLOAD PUSH1 0xA0 DUP7 ADD MSTORE ADD SLOAD AND ISZERO ISZERO SWAP2 ADD MSTORE DUP2 ISZERO PUSH2 0x1C9A JUMPI PUSH0 MSTORE PUSH1 0x13 PUSH1 0x20 MSTORE PUSH2 0x1C67 PUSH2 0x1C5E PUSH1 0x40 PUSH0 KECCAK256 SLOAD PUSH1 0x14 PUSH1 0x20 MSTORE PUSH1 0x40 PUSH0 KECCAK256 SLOAD SWAP1 PUSH2 0x1B4E JUMP JUMPDEST PUSH1 0xD SLOAD SWAP1 PUSH2 0x1B9B JUMP JUMPDEST SWAP1 PUSH2 0x7080 SWAP2 DUP3 DUP2 MUL SWAP3 DUP2 DUP5 SDIV EQ SWAP1 ISZERO OR ISZERO PUSH2 0x1A9B JUMPI PUSH2 0x1C91 PUSH2 0x1C8B PUSH2 0x1C97 SWAP4 PUSH2 0x1B66 JUMP JUMPDEST SWAP2 PUSH2 0x1B83 JUMP JUMPDEST SWAP1 PUSH2 0x1BBD JUMP JUMPDEST SWAP1 JUMP JUMPDEST POP POP PUSH0 SWAP1 JUMP JUMPDEST SWAP1 DUP2 PUSH0 MSTORE PUSH1 0x20 PUSH1 0x11 DUP2 MSTORE PUSH1 0x40 DUP1 PUSH0 KECCAK256 DUP2 MLOAD SWAP1 PUSH2 0x1CBB DUP3 PUSH2 0x1AE0 JUMP JUMPDEST DUP1 SLOAD DUP3 MSTORE PUSH1 0x1 DUP2 ADD SLOAD DUP5 DUP4 ADD MSTORE PUSH1 0x2 DUP2 ADD SLOAD DUP4 DUP4 ADD MSTORE PUSH1 0x3 DUP2 ADD SLOAD SWAP2 DUP3 PUSH1 0x60 DUP3 ADD MSTORE PUSH1 0xC0 PUSH1 0xFF PUSH1 0x6 PUSH1 0x4 DUP6 ADD SLOAD SWAP5 DUP6 PUSH1 0x80 DUP7 ADD MSTORE PUSH1 0x5 DUP2 ADD SLOAD PUSH1 0xA0 DUP7 ADD MSTORE ADD SLOAD AND ISZERO ISZERO SWAP2 ADD MSTORE DUP5 PUSH0 EQ PUSH2 0x1D91 JUMPI POP SWAP4 JUMPDEST DUP5 ISZERO PUSH2 0x1D87 JUMPI PUSH2 0x1D41 SWAP4 ISZERO PUSH2 0x1D6E JUMPI PUSH0 MSTORE PUSH1 0x13 DUP3 MSTORE PUSH1 0x14 DUP2 PUSH0 KECCAK256 SLOAD SWAP3 MSTORE PUSH0 KECCAK256 SLOAD GT ISZERO SWAP2 JUMPDEST PUSH2 0x1D3C PUSH1 0x10 SLOAD DUP1 SWAP6 PUSH2 0x1AAF JUMP JUMPDEST PUSH2 0x1AC2 JUMP JUMPDEST SWAP2 DUP1 DUP4 GT PUSH2 0x1D66 JUMPI JUMPDEST POP ISZERO PUSH2 0x1D53 JUMPI SWAP1 JUMP JUMPDEST PUSH1 0x1 SHR PUSH1 0x1 PUSH1 0xFF SHL DUP2 EQ PUSH2 0x1A9B JUMPI PUSH0 SUB SWAP1 JUMP JUMPDEST SWAP2 POP PUSH0 PUSH2 0x1D4A JUMP JUMPDEST PUSH0 MSTORE PUSH1 0x14 DUP3 MSTORE PUSH1 0x13 DUP2 PUSH0 KECCAK256 SLOAD SWAP3 MSTORE PUSH0 KECCAK256 SLOAD GT ISZERO SWAP2 PUSH2 0x1D2F JUMP JUMPDEST POP POP POP POP POP POP PUSH0 SWAP1 JUMP JUMPDEST SWAP1 POP SWAP4 PUSH2 0x1D0B JUMP JUMPDEST SWAP2 SWAP1 DUP3 ADD DUP1 SWAP3 GT PUSH2 0x1A9B JUMPI JUMP JUMPDEST RETURNDATASIZE ISZERO PUSH2 0x1DE0 JUMPI RETURNDATASIZE SWAP1 PUSH8 0xFFFFFFFFFFFFFFFF DUP3 GT PUSH2 0x1AFC JUMPI PUSH1 0x40 MLOAD SWAP2 PUSH2 0x1DD5 PUSH1 0x1F DUP3 ADD PUSH1 0x1F NOT AND PUSH1 0x20 ADD DUP5 PUSH2 0x1B2C JUMP JUMPDEST DUP3 MSTORE RETURNDATASIZE PUSH0 PUSH1 0x20 DUP5 ADD RETURNDATACOPY JUMP JUMPDEST PUSH1 0x60 SWAP1 JUMP JUMPDEST DUP1 PUSH0 MSTORE PUSH1 0x20 SWAP1 PUSH1 0xF DUP3 MSTORE PUSH1 0x40 SWAP2 PUSH2 0x1DFF DUP4 PUSH0 KECCAK256 SLOAD TIMESTAMP PUSH2 0x1A8E JUMP JUMPDEST DUP1 ISZERO PUSH2 0x1F28 JUMPI DUP3 PUSH0 MSTORE PUSH1 0x11 DUP3 MSTORE DUP4 PUSH0 KECCAK256 SWAP1 DUP5 MLOAD PUSH2 0x1E1B DUP2 PUSH2 0x1AE0 JUMP JUMPDEST DUP3 SLOAD DUP2 MSTORE PUSH1 0x1 DUP4 ADD SLOAD DUP5 DUP3 ADD MSTORE PUSH1 0x2 DUP4 ADD SLOAD DUP7 DUP3 ADD MSTORE PUSH1 0xC0 PUSH1 0xFF PUSH1 0x6 PUSH1 0x3 DUP7 ADD SLOAD SWAP6 DUP7 PUSH1 0x60 DUP7 ADD MSTORE PUSH1 0x4 DUP2 ADD SLOAD PUSH1 0x80 DUP7 ADD MSTORE PUSH1 0x5 DUP2 ADD SLOAD PUSH1 0xA0 DUP7 ADD MSTORE ADD SLOAD AND ISZERO ISZERO SWAP2 ADD MSTORE DUP2 ISZERO PUSH2 0x1F11 JUMPI SWAP1 PUSH2 0x1C91 PUSH2 0x1C8B PUSH2 0x1E97 PUSH2 0x1E9C SWAP5 DUP8 PUSH0 MSTORE PUSH1 0x13 DUP8 MSTORE PUSH2 0x1E92 PUSH2 0x1C5E DUP11 PUSH0 KECCAK256 SLOAD PUSH1 0x14 DUP11 MSTORE DUP12 PUSH0 KECCAK256 SLOAD SWAP1 PUSH2 0x1B4E JUMP JUMPDEST PUSH2 0x1B9B JUMP JUMPDEST PUSH2 0x1B66 JUMP JUMPDEST SWAP2 DUP1 PUSH0 MSTORE PUSH1 0xE DUP3 MSTORE DUP4 PUSH0 KECCAK256 SWAP3 DUP4 SLOAD DUP2 DUP2 ADD SWAP1 PUSH0 DUP4 DUP4 SLT SWAP2 SLT SWAP1 DUP1 ISZERO DUP3 AND SWAP2 ISZERO AND OR PUSH2 0x1A9B JUMPI DUP6 DUP4 SWAP3 PUSH32 0xACAB28495F5D412E24F181214DD823BD5FA666235AFD596193C593FEDEE9064F SWAP3 PUSH1 0xE SWAP8 SSTORE DUP4 PUSH0 MSTORE PUSH1 0xF DUP7 MSTORE TIMESTAMP DUP3 PUSH0 KECCAK256 SSTORE DUP7 DUP7 MSTORE DUP2 PUSH0 KECCAK256 SLOAD SWAP1 DUP3 MLOAD SWAP2 DUP3 MSTORE DUP7 DUP3 ADD MSTORE LOG2 PUSH0 MSTORE MSTORE PUSH0 KECCAK256 SLOAD SWAP1 JUMP JUMPDEST POP POP PUSH1 0xE SWAP2 PUSH0 MSTORE PUSH1 0xF DUP2 MSTORE TIMESTAMP DUP4 PUSH0 KECCAK256 SSTORE MSTORE PUSH0 KECCAK256 SLOAD SWAP1 JUMP JUMPDEST POP PUSH1 0xE SWAP2 PUSH0 MSTORE MSTORE PUSH0 KECCAK256 SLOAD SWAP1 JUMP INVALID LOG2 PUSH5 0x6970667358 0x22 SLT KECCAK256 CREATE2 SWAP4 SMOD 0xE3 0x4C 0xBE 0xAE DUP15 TIMESTAMP 0x21 0x27 PUSH4 0xFF0BFA74 0xA5 PUSH32 0xC8CB8C9ADB896DB12C496B686FFC64736F6C6343000818003300000000000000 "},"methodIdentifiers":{"acceptOwnership()":"79ba5097","addPair(string,bytes32,uint256,uint256,uint256,uint256)":"3e153c40","calcPriceImpact(bytes32,bool,uint256)":"b391decf","calculateFee(uint256)":"99a5d747","calculateFee(uint256,bool)":"e4d8cbe5","cumulativeFundingIndex(bytes32)":"4655f1eb","dailyLossResetTime()":"53c915f8","dailyLossTracker()":"6321de7f","decreaseOI(bytes32,address,bool,uint256)":"33945720","fundingRateCoefficient()":"2de900b5","getFeeSplit(uint256)":"3b608af2","getNetOI(bytes32)":"806954e3","getOIInfo(bytes32)":"8da97d9d","getPairConfig(bytes32)":"6a37a22a","getPairCount()":"9cf2ebf5","getProjectedFundingRate(bytes32)":"9124d0cb","increaseOI(bytes32,address,bool,uint256)":"b65b361f","insuranceFeeBps()":"f86f9000","insuranceFund()":"b7902303","lastFundingUpdate(bytes32)":"decbc2b7","longOI(bytes32)":"65100531","makerFeeBps()":"c8d594db","maxDailyDrawdownBps()":"aec376cd","maxPriceImpactBps()":"93359fe4","minPositionDuration()":"daf012e6","oracle()":"7dc0d1d0","owner()":"8da5cb5b","pairList(uint256)":"8e8c7791","pairs(bytes32)":"673e0481","pause()":"8456cb59","paused()":"5c975abb","pendingOwner()":"e30c3978","setFeeSplit(uint256,uint256,uint256)":"f768e0ce","setFundingRateCoefficient(uint256)":"6811dbb2","setInsuranceFund(address)":"c3c05293","setMaxDailyDrawdown(uint256)":"3c098f10","setMaxPriceImpact(uint256)":"1b573019","setMinPositionDuration(uint256)":"dc5998e0","setTrading(address)":"a553906c","setTradingFees(uint256,uint256)":"fda5ecb1","setTreasury(address)":"f0f44260","setUtilizationCap(uint256)":"353081e5","setVault(address)":"6817031b","shortOI(bytes32)":"dd561c8c","takerFeeBps()":"d448eebc","togglePair(bytes32,bool)":"a7432ecc","trackVaultLoss(uint256)":"c60609f2","trading()":"ec44acf2","transferOwnership(address)":"f2fde38b","treasury()":"61d027b3","treasuryFeeBps()":"e80cfa5e","unpause()":"3f4ba83a","updateFunding(bytes32)":"f98cecbe","updatePairLeverage(bytes32,uint256)":"acc87ba6","updatePairLimits(bytes32,uint256,uint256,uint256)":"ac1fff05","usdc()":"3e413bee","userLongOI(bytes32,address)":"837df08e","userShortOI(bytes32,address)":"5a109871","utilizationCapBps()":"7e8d5883","validateOpenPosition(bytes32,address,bool,uint256,uint256)":"bd79156f","vault()":"fbfa77cf","vaultFeeBps()":"dd2bb29f"}}}}}