{"project/src/ConfidentialTrading.sol":{"ConfidentialTrading":{"abi":[{"inputs":[{"internalType":"address","name":"_usdc","type":"address"},{"internalType":"address","name":"_core","type":"address"},{"internalType":"address","name":"_vault","type":"address"},{"internalType":"address","name":"_oracle","type":"address"}],"stateMutability":"nonpayable","type":"constructor"},{"inputs":[],"name":"ReentrancyGuardReentrantCall","type":"error"},{"anonymous":false,"inputs":[{"indexed":true,"internalType":"uint256","name":"orderId","type":"uint256"}],"name":"OrderCancelled","type":"event"},{"anonymous":false,"inputs":[{"indexed":true,"internalType":"uint256","name":"orderId","type":"uint256"},{"indexed":true,"internalType":"uint256","name":"positionId","type":"uint256"}],"name":"OrderExecuted","type":"event"},{"anonymous":false,"inputs":[{"indexed":true,"internalType":"uint256","name":"orderId","type":"uint256"},{"indexed":true,"internalType":"address","name":"trader","type":"address"},{"indexed":false,"internalType":"bytes32","name":"pairId","type":"bytes32"},{"indexed":false,"internalType":"uint8","name":"orderType","type":"uint8"},{"indexed":false,"internalType":"uint256","name":"triggerPrice","type":"uint256"}],"name":"OrderPlaced","type":"event"},{"anonymous":false,"inputs":[{"indexed":true,"internalType":"uint256","name":"positionId","type":"uint256"},{"indexed":true,"internalType":"address","name":"trader","type":"address"},{"indexed":false,"internalType":"uint256","name":"exitPrice","type":"uint256"},{"indexed":false,"internalType":"int256","name":"pnl","type":"int256"}],"name":"PositionClosed","type":"event"},{"anonymous":false,"inputs":[{"indexed":true,"internalType":"uint256","name":"positionId","type":"uint256"},{"indexed":true,"internalType":"address","name":"trader","type":"address"},{"indexed":false,"internalType":"uint256","name":"executionPrice","type":"uint256"},{"indexed":true,"internalType":"address","name":"liquidator","type":"address"},{"indexed":false,"internalType":"uint256","name":"reward","type":"uint256"}],"name":"PositionLiquidated","type":"event"},{"anonymous":false,"inputs":[{"indexed":true,"internalType":"uint256","name":"positionId","type":"uint256"},{"indexed":true,"internalType":"address","name":"trader","type":"address"},{"indexed":false,"internalType":"bytes32","name":"pairId","type":"bytes32"},{"indexed":false,"internalType":"bool","name":"isLong","type":"bool"},{"indexed":false,"internalType":"uint256","name":"sizeUsd","type":"uint256"},{"indexed":false,"internalType":"uint256","name":"entryPrice","type":"uint256"},{"indexed":false,"internalType":"uint256","name":"leverage","type":"uint256"}],"name":"PositionOpened","type":"event"},{"anonymous":false,"inputs":[{"indexed":true,"internalType":"uint256","name":"positionId","type":"uint256"},{"indexed":false,"internalType":"bool","name":"isTakeProfit","type":"bool"},{"indexed":false,"internalType":"uint256","name":"executionPrice","type":"uint256"}],"name":"TPSLTriggered","type":"event"},{"anonymous":false,"inputs":[{"indexed":true,"internalType":"uint256","name":"orderId","type":"uint256"},{"indexed":false,"internalType":"uint256","name":"sliceNumber","type":"uint256"},{"indexed":false,"internalType":"uint256","name":"sizeUsd","type":"uint256"}],"name":"TWAPSliceExecuted","type":"event"},{"inputs":[],"name":"MIN_POSITION_SIZE","outputs":[{"internalType":"uint256","name":"","type":"uint256"}],"stateMutability":"view","type":"function"},{"inputs":[{"internalType":"uint256","name":"orderId","type":"uint256"}],"name":"cancelOrder","outputs":[],"stateMutability":"nonpayable","type":"function"},{"inputs":[{"internalType":"uint256","name":"positionId","type":"uint256"},{"internalType":"bytes[]","name":"updateData","type":"bytes[]"}],"name":"closePositionInstantly","outputs":[],"stateMutability":"payable","type":"function"},{"inputs":[],"name":"core","outputs":[{"internalType":"contract ConfidentialCore","name":"","type":"address"}],"stateMutability":"view","type":"function"},{"inputs":[{"internalType":"uint256","name":"positionId","type":"uint256"}],"name":"createCloseRequest","outputs":[{"internalType":"uint256","name":"orderId","type":"uint256"}],"stateMutability":"payable","type":"function"},{"inputs":[{"internalType":"bytes32","name":"pairId","type":"bytes32"},{"internalType":"bool","name":"isLong","type":"bool"},{"internalType":"uint256","name":"totalSizeUsd","type":"uint256"},{"internalType":"uint256","name":"leverage","type":"uint256"},{"internalType":"uint256","name":"slices","type":"uint256"},{"internalType":"uint256","name":"intervalSec","type":"uint256"},{"internalType":"uint256","name":"tpPrice","type":"uint256"},{"internalType":"uint256","name":"slPrice","type":"uint256"}],"name":"createTwapOrder","outputs":[{"internalType":"uint256","name":"orderId","type":"uint256"}],"stateMutability":"payable","type":"function"},{"inputs":[{"internalType":"uint256","name":"orderId","type":"uint256"},{"internalType":"bytes[]","name":"updateData","type":"bytes[]"}],"name":"executeOrder","outputs":[],"stateMutability":"payable","type":"function"},{"inputs":[{"internalType":"uint256","name":"positionId","type":"uint256"},{"internalType":"bytes[]","name":"updateData","type":"bytes[]"}],"name":"executeTPSL","outputs":[],"stateMutability":"payable","type":"function"},{"inputs":[{"internalType":"uint256","name":"positionId","type":"uint256"},{"internalType":"bytes[]","name":"updateData","type":"bytes[]"}],"name":"liquidate","outputs":[],"stateMutability":"payable","type":"function"},{"inputs":[],"name":"liquidationRewardBps","outputs":[{"internalType":"uint256","name":"","type":"uint256"}],"stateMutability":"view","type":"function"},{"inputs":[],"name":"nextOrderId","outputs":[{"internalType":"uint256","name":"","type":"uint256"}],"stateMutability":"view","type":"function"},{"inputs":[],"name":"nextPositionId","outputs":[{"internalType":"uint256","name":"","type":"uint256"}],"stateMutability":"view","type":"function"},{"inputs":[],"name":"oracle","outputs":[{"internalType":"contract PythPriceOracle","name":"","type":"address"}],"stateMutability":"view","type":"function"},{"inputs":[{"internalType":"uint256","name":"","type":"uint256"}],"name":"pendingOrders","outputs":[{"internalType":"bytes32","name":"pairId","type":"bytes32"},{"internalType":"address","name":"trader","type":"address"},{"internalType":"bool","name":"isLong","type":"bool"},{"internalType":"uint256","name":"sizeUsd","type":"uint256"},{"internalType":"uint256","name":"collateral","type":"uint256"},{"internalType":"uint256","name":"leverage","type":"uint256"},{"internalType":"uint256","name":"triggerPrice","type":"uint256"},{"internalType":"uint8","name":"orderType","type":"uint8"},{"internalType":"bool","name":"reduceOnly","type":"bool"},{"internalType":"bool","name":"isActive","type":"bool"},{"internalType":"uint256","name":"createdAt","type":"uint256"},{"internalType":"uint256","name":"positionId","type":"uint256"},{"internalType":"uint256","name":"feePaid","type":"uint256"},{"internalType":"uint256","name":"executionFee","type":"uint256"},{"internalType":"uint256","name":"tpPrice","type":"uint256"},{"internalType":"uint256","name":"slPrice","type":"uint256"},{"internalType":"uint256","name":"twapSlices","type":"uint256"},{"internalType":"uint256","name":"twapInterval","type":"uint256"},{"internalType":"uint256","name":"twapExecuted","type":"uint256"},{"internalType":"uint256","name":"twapLastExec","type":"uint256"}],"stateMutability":"view","type":"function"},{"inputs":[{"internalType":"bytes32","name":"pairId","type":"bytes32"},{"internalType":"bool","name":"isLong","type":"bool"},{"internalType":"uint256","name":"sizeUsd","type":"uint256"},{"internalType":"uint256","name":"leverage","type":"uint256"},{"internalType":"uint256","name":"tpPrice","type":"uint256"},{"internalType":"uint256","name":"slPrice","type":"uint256"},{"internalType":"bytes[]","name":"updateData","type":"bytes[]"}],"name":"placeMarketOrder","outputs":[{"internalType":"uint256","name":"posId","type":"uint256"}],"stateMutability":"payable","type":"function"},{"inputs":[{"internalType":"bytes32","name":"pairId","type":"bytes32"},{"internalType":"bool","name":"isLong","type":"bool"},{"internalType":"uint256","name":"sizeUsd","type":"uint256"},{"internalType":"uint256","name":"leverage","type":"uint256"},{"internalType":"uint256","name":"triggerPrice","type":"uint256"},{"internalType":"uint8","name":"orderType","type":"uint8"},{"internalType":"bool","name":"reduceOnly","type":"bool"},{"internalType":"uint256","name":"tpPrice","type":"uint256"},{"internalType":"uint256","name":"slPrice","type":"uint256"}],"name":"placeOrder","outputs":[{"internalType":"uint256","name":"orderId","type":"uint256"}],"stateMutability":"payable","type":"function"},{"inputs":[{"internalType":"uint256","name":"","type":"uint256"}],"name":"positions","outputs":[{"internalType":"bytes32","name":"pairId","type":"bytes32"},{"internalType":"address","name":"trader","type":"address"},{"internalType":"bool","name":"isLong","type":"bool"},{"internalType":"uint256","name":"sizeUsd","type":"uint256"},{"internalType":"uint256","name":"collateral","type":"uint256"},{"internalType":"uint256","name":"entryPrice","type":"uint256"},{"internalType":"uint256","name":"leverage","type":"uint256"},{"internalType":"uint256","name":"liquidationPrice","type":"uint256"},{"internalType":"uint256","name":"openedAt","type":"uint256"},{"internalType":"bool","name":"isOpen","type":"bool"},{"internalType":"uint256","name":"tpPrice","type":"uint256"},{"internalType":"uint256","name":"slPrice","type":"uint256"},{"internalType":"int256","name":"entryFundingIndex","type":"int256"}],"stateMutability":"view","type":"function"},{"inputs":[],"name":"rolloverFeePerHour","outputs":[{"internalType":"uint256","name":"","type":"uint256"}],"stateMutability":"view","type":"function"},{"inputs":[],"name":"usdc","outputs":[{"internalType":"contract IERC20","name":"","type":"address"}],"stateMutability":"view","type":"function"},{"inputs":[{"internalType":"address","name":"","type":"address"},{"internalType":"uint256","name":"","type":"uint256"}],"name":"userOrders","outputs":[{"internalType":"uint256","name":"","type":"uint256"}],"stateMutability":"view","type":"function"},{"inputs":[{"internalType":"address","name":"","type":"address"},{"internalType":"uint256","name":"","type":"uint256"}],"name":"userPositions","outputs":[{"internalType":"uint256","name":"","type":"uint256"}],"stateMutability":"view","type":"function"},{"inputs":[],"name":"vault","outputs":[{"internalType":"contract ConfidentialVault","name":"","type":"address"}],"stateMutability":"view","type":"function"}],"evm":{"bytecode":{"linkReferences":{},"object":"608034620000de57601f620040fd38819003918201601f19168301916001600160401b03831184841017620000e257808492608094604052833981010312620000de576200004d81620000f6565b906200005c60208201620000f6565b6200007860606200007060408501620000f6565b9301620000f6565b9060015f55600160055560016006556014600b556064600c5560018060a01b03928380928160018060a01b03199716876004541617600455168560015416176001551683600254161760025516906003541617600355604051613ff190816200010c8239f35b5f80fd5b634e487b7160e01b5f52604160045260245ffd5b51906001600160a01b0382168203620000de5756fe60e0806040526004361015610012575f80fd5b5f905f3560e01c9081632a58b330146132035750806333e7dddb14611d6c578063368dbba814611d4e5780633ae95909146114d85780633e413bee146114af578063514fcac7146113285780635e1b4d99146112ea578063666c187e14610f955780636fb197f714610c635780637dc0d1d014610c3a57806380b7425814610a3d578063856652e9146109f1578063899346c7146109d35780638fb735ee146109b557806399fbab88146108f25780639bfe7e3e14610760578063c3aaea4e1461060c578063effaed89146105ee578063f2f4eb26146105c5578063f5ba8a2a14610423578063f66141701461013b5763fbfa77cf14610110575f80fd5b346101385780600319360112610138576002546040516001600160a01b039091168152602090f35b80fd5b50806101463661324e565b90610152939293613777565b816103c1575b505090806024925260076020526040832090600882019182549261017e60ff8516613702565b6003548254604080516331d98b3f60e01b815260048101839052976001600160a01b039592949293899190829088165afa9687156103b6578897610384575b506001820192835460ff8160a01c1691825f146103775760068501548a11155b1561033f578460038c9601946127106101fa8754600c54906136a8565b049a60ff191690556002886001541691015492813b1561033b5760405163019ca2b960e51b8152600481019390935288166001600160a01b03166024830152921515604482015260648101919091529083908290608490829084905af1908115610330578391610318575b5050836002541690848454169054823b1561031457608484928360405195869485936309c0533b60e01b8552600485015233602485015260448401528b60648401525af18015610309576102f1575b505054169160405193845260208401527f3b7bc7c0fdc798ac653b9f0d6d28adb2293a55402d32c21d323da740ccc6553960403394a46001815580f35b6102fa906132e0565b61030557855f6102b4565b8580fd5b6040513d84823e3d90fd5b8380fd5b610321906132e0565b61032c57815f610265565b5080fd5b6040513d85823e3d90fd5b8680fd5b60405162461bcd60e51b815260206004820152601060248201526f4e6f74206c6971756964617461626c6560801b6044820152606490fd5b60068501548a10156101dd565b6103a791975060403d6040116103af575b61039f8183613325565b810190613422565b50955f6101bd565b503d610395565b6040513d8a823e3d90fd5b6003546001600160a01b031691823b1561031457604051631df3cbc560e31b81529284928492839182916103f89160048401613347565b039134905af180156103095761040f575b80610158565b610418906132e0565b61032c57815f610409565b5061042d3661324e565b9190610437613777565b818452600760205283604081209361045560ff600887015416613702565b60018501546001600160a01b0393906104719085163314613670565b600460078701546020866001541660405193848092636d78097360e11b82525afa9182156105ba57859261057d575b506104b6916104ae91613438565b421015613739565b81610522575b50505060409060035416925460248251809581936331d98b3f60e01b835260048301525afa908115610330576104f9928492610500575b506138cb565b6001815580f35b61051a91925060403d6040116103af5761039f8183613325565b50905f6104f3565b836003541691823b1561031457604051631df3cbc560e31b81529284928492839182916105529160048401613347565b039134905af1801561030957610569575b806104bc565b610572906132e0565b61031457835f610563565b945090506020843d6020116105b2575b8161059a60209383613325565b810103126105ae57925187936104ae6104a0565b5f80fd5b3d915061058d565b6040513d87823e3d90fd5b50346101385780600319360112610138576001546040516001600160a01b039091168152602090f35b50346101385780600319360112610138576020600c54604051908152f35b503461013857602036600319011261013857600435815260086020526040902080808054600182015460c05260028201546003830154600484015460058501546006860154600787015490600888015492600989015494600a8a015496600b8b015498600c8c01549a600d8d01549c600e01549d600f01549e6010015460805260405160a05260a05152600160a01b6001900360c0511660a0516020015260c05160a01c60ff16151560a0516040015260a0516060015260a0516080015260a05160a0015260a05160c0015260ff811660a05160e001528060081c60ff16151560a051610100015260101c60ff16151560a051610120015260a051610140015260a051610160015260a051610180015260a0516101a0015260a0516101c0015260a0516101e0015260a051610200015260a051610220015260a051610240015260805160a051610260015260a05161028090f35b5060209081600319360112610138576004359061077b613777565b818152600783526040812060ff600882015416156108b9579060049160018060a01b036107af816001840154163314613670565b856007830154916001541660405195868092636d78097360e11b82525afa938415610330578394610888575b506104ae6001946107eb92613438565b600654936107f8856136bb565b600655848352600886526040832090848201336bffffffffffffffffffffffff60a01b825416179055600682016201000362ff00ff198254161790554260078301556008820155600a3491015554604051908152600385820152816040820152837f401524beccff0d9dd3447788dea32e11f3b7c9618ed6084f14a773dbf2025f1660603393a355604051908152f35b93508584813d83116108b2575b61089f8183613325565b810103126105ae579251926104ae6107db565b503d610895565b60405162461bcd60e51b81526004810185905260116024820152702837b9b4ba34b7b7103737ba1037b832b760791b6044820152606490fd5b50346101385760203660031901126101385760406101a0916004358152600760205220805490600181015490600281015460038201546004830154600584015460068501549060078601549260ff6008880154169460098801549660ff600b600a8b01549a01549a6040519c8d528c602060018060a01b03831691015260a01c16151560408c015260608b015260808a015260a089015260c088015260e08701526101008601521515610120850152610140840152610160830152610180820152f35b50346101385780600319360112610138576020600b54604051908152f35b50346101385780600319360112610138576020600554604051908152f35b503461013857610a0036613291565b6001600160a01b039091168252600a60205260408220805491929091831015610138576020610a2f84846132b7565b90546040519160031b1c8152f35b5080610a483661324e565b90610a54939293613777565b81610bd8575b505081905260076020526040822090610a7960ff600884015416613702565b60018060a01b0360035416906040835460248251809581936331d98b3f60e01b835260048301525afa918215610bcd578492610bab575b50838493600981015480610b80575b50811580610b73575b610b49575b5015610b0e57807fac4fd466c8f994e08ce2eb9141c2f01f2a779a3537d9bd71fa8762df3d12842c60406104f99581519015158152856020820152a26138cb565b60405162461bcd60e51b815260206004820152601360248201527215140bd4d3081b9bdd081d1c9a59d9d95c9959606a1b6044820152606490fd5b6001810154600a925060a01c60ff1615610b695701548211155b5f610acd565b0154821015610b63565b50600a8101541515610ac8565b9150935060ff600185015460a01c165f14610ba257821015925b83905f610abf565b82111592610b9a565b610bc591925060403d6040116103af5761039f8183613325565b50905f610ab0565b6040513d86823e3d90fd5b6003546001600160a01b031691823b1561031457604051631df3cbc560e31b8152928492849283918291610c0f9160048401613347565b039134905af1801561030957610c26575b80610a5a565b610c2f906132e0565b61032c57815f610c20565b50346101385780600319360112610138576003546040516001600160a01b039091168152602090f35b506101003660031901126101385760043590610c7d613282565b9160443591606435916084359460a43590610c96613777565b600287101580610f8a575b15610f5457603c8210610f1c57629896808781029081048803610f08578610610ecc576001546001600160a01b031696873b15610ebd5760405163bd79156f60e01b81526004810185905233602482015282151560448201526064810188905260848101879052858160a4818c5afa8015610ec157908691610ea9575b5050610d2a868861354b565b9760405198899163e4d8cbe560e01b835289600484015287602484015282604460209c8d935afa918215610e9e578792610e68575b509060019782610d7d610d7684600e989796613438565b3033613d56565b6006549a610d8a8c6136bb565b6006558b8a5260088d5260408a208981558b8101805460ff60a01b1933166001600160a81b03199091161797151560a01b60ff60a01b1697909717909655600286015560038501556004840155600683016201000462ff00ff19825416179055426007840155600983015534600a83015560c435600b83015560e435600c830155600d8201550155338252600a8552610e2684604084206136c9565b604051908152600485820152816040820152837f401524beccff0d9dd3447788dea32e11f3b7c9618ed6084f14a773dbf2025f1660603393a355604051908152f35b939291508984813d8311610e97575b610e818183613325565b810103126105ae57925191929091906001610d5f565b503d610e77565b6040513d89823e3d90fd5b610eb2906132e0565b610ebd57845f610d1e565b8480fd5b6040513d88823e3d90fd5b60405162461bcd60e51b815260206004820152601460248201527314db1a58d9481cda5e99481d1bdbc81cdb585b1b60621b6044820152606490fd5b634e487b7160e01b85526011600452602485fd5b60405162461bcd60e51b815260206004820152601060248201526f135a5b880d8c1cc81a5b9d195c9d985b60821b6044820152606490fd5b60405162461bcd60e51b815260206004820152600e60248201526d496e76616c696420736c6963657360901b6044820152606490fd5b506064871115610ca1565b5061012036600319011261013857610fab613282565b9060a4359060ff821682036101385760c4359182151583036105ae57610fcf613777565b610fe06298968060443510156135b5565b600160ff8216116112a55760e435611260575b61010435611219575b6001546001600160a01b0316803b156112155760405163bd79156f60e01b8152600480359082015233602482015285151560448083019190915235606480830191909152356084820152838160a481855afa8015610bcd57908491611201575b505060206044916040519283809263e4d8cbe560e01b82528235600483015260ff87161560248301525afa9081156103305783916111c8575b5090602094600193926110ac60643560443561354b565b956110ba610d768389613438565b600654966110c7886136bb565b60065587865260088952604086206004358155878101805460ff60a01b1933166001600160a81b03199091161795151560a01b60ff60a01b1695909517909455604435600285015560038401556064356004840155608435600584015562010000600684019161ff00835491151560081b169060ff87169062ffffff19161717179055426007830155600982015534600a82015560e435600b820155600c61010435910155338252600a855261118084604084206136c9565b60ff60405191600435835216858201526084356040820152837f401524beccff0d9dd3447788dea32e11f3b7c9618ed6084f14a773dbf2025f1660603393a355604051908152f35b929190506020833d6020116111f9575b816111e560209383613325565b810103126105ae5791519091906020611095565b3d91506111d8565b61120a906132e0565b61121557825f61105c565b8280fd5b8315611249576084356101043510801561123c575b61123790613631565b610ffc565b5060ff811660021461122e565b6084356101043511801561123c5761123790613631565b831561128f5760843560e435118015611282575b61127d906135f2565b610ff3565b5060ff8116600214611274565b60843560e4351080156112825761127d906135f2565b60405162461bcd60e51b815260206004820152601f60248201527f55736520706c6163654d61726b65744f7264657220666f72206d61726b6574006044820152606490fd5b5034610138576112f936613291565b6001600160a01b039091168252600960205260408220805491929091831015610138576020610a2f84846132b7565b503461013857602036600319011261013857600435611345613777565b808252600860205281600a6040822060ff6006820180549061136b838360101c166133e9565b61138260018060a01b036001860154163314613670565b62ff00001982169055166002198101611420575b500154806113cb575b50807f61b9399f2f0f32ca39ce8d7be32caed5ec22fe07a6daba3a467ed479ec60658291a26001815580f35b81808092335af16113da613569565b50156113e757815f61139f565b60405162461bcd60e51b8152602060048201526011602482015270115512081c99599d5b990819985a5b1959607a1b6044820152606490fd5b6003820154600460098401549214806114a2575b611468575b6114438282613438565b61144e575b50611396565b6114619161145b91613438565b33613ca8565b5f80611448565b61149c90611491600d850154916114968361149161148a600f8a0154836135a8565b80946136a8565b61354b565b946136a8565b90611439565b50600f8301541515611434565b50346101385780600319360112610138576004546040516001600160a01b039091168152602090f35b5060e0366003190112610138576114ed613282565b8160c43567ffffffffffffffff811161032c5761150e90369060040161321d565b90611517613777565b6115286298968060443510156135b5565b81611cec575b5050600354604080516331d98b3f60e01b81526004803590820152925090829060249082906001600160a01b03165afa908115610330578391611ccc575b50608435611ca7575b60a435611c82575b6001546001600160a01b031691823b156103145760405163bd79156f60e01b81526004803590820152336024820152811515604480830191909152356064808301919091523560848201528490818160a481885afa801561030957611c6e575b505060206044936040519485809263e4d8cbe560e01b8252823560048301528860248301525afa928315610bcd578493611c3a575b5061162160643560443561354b565b9261162f610d768286613438565b6040519361163c85613308565b8560c0860152856101008601528561014086015285610160860152856101a086015285610200860152856102208601528561024086015285610260860152600435855233602086015282151560408601526044356060860152608085015260643560a0850152600260e085015260016101208501526101808401526084356101c084015260a4356101e0840152602060018060a01b03600154169160646040518094819363b391decf60e01b835260043560048401521515602483015260443560448301525afa908115610bcd578491611c08575b508184821315611bb4575061172961271091836136a8565b04604083015115155f14611ba65761174091613438565b6005549061174d826136bb565b6005558184526007602090815260408086208551815591850151600183018054928701516001600160a81b03199093166001600160a01b03929092169190911791151560a081901b60ff60a01b169290921790558591906117d4905b606087015160028401556080870151600384015584600484015560a087015180600585015585613e02565b600682015542600782015560088101600160ff198254161790556101c085015160098201556101e0850151600a820155602060018060a01b0360015416602487516040519586938492637cc6765f60e11b845260048401525af1918215610ec1578692611b71575b50600b015560015483516020850151604086015160608701518894909392911515916001600160a01b039182169116813b156103055760405163b65b361f60e01b815260048101949094526001600160a01b03166024840152901515604483015260648201929092529082908290608490829084905af1801561030957611b5d575b505060025460808401516118da916001600160a01b0316613ca8565b600254608084015185916001600160a01b031690813b15611215578291602483926040519485938492636e93ae2b60e01b845260048401525af1801561030957611b49575b505061018083015160015460408051631db0457960e11b815260048101939093528691839060249082906001600160a01b03165afa918215611b3c5781908293611b18575b5080611aaf575b505080611a12575b5060a05f80516020613f9c83398151915291600180831b03602086015116865260096020526119a584604088206136c9565b600180831b03602086015116948051916040820151151591846060820151910151926040519485526020850152604084015260608301526080820152a36005545f1981019081116119fe57600160209255604051908152f35b634e487b7160e01b82526011600452602482fd5b6001546040516361d027b360e01b815290602090829060049082906001600160a01b03165afa908115610ec1578691611a69575b5091611a6260a0925f80516020613f9c83398151915294613ca8565b9150611973565b90506020813d602011611aa7575b81611a8460209383613325565b810103126103055751916001600160a01b03831683036103055791611a62611a46565b3d9150611a77565b600254611ac69082906001600160a01b0316613ca8565b6002546001600160a01b031690813b156112155782916024839260405194859384926302102c9760e11b845260048401525af18015610309571561196b57611b0d906132e0565b610ebd57845f61196b565b9050611b3491925060403d6040116103af5761039f8183613325565b91905f611964565b50604051903d90823e3d90fd5b611b52906132e0565b61031457835f61191f565b611b66906132e0565b61031457835f6118be565b9091506020813d602011611b9e575b81611b8d60209383613325565b810103126105ae575190600b61183c565b3d9150611b80565b611baf916135a8565b611740565b90848112611bc4575b5050611740565b612710919250611bd6611bdc91613798565b836136a8565b04604083015115155f14611bfa57611bf3916135a8565b5f80611bbd565b611c0391613438565b611bf3565b90506020813d602011611c32575b81611c2360209383613325565b810103126105ae57515f611711565b3d9150611c16565b9092506020813d602011611c66575b81611c5660209383613325565b810103126105ae5751915f611612565b3d9150611c49565b611c77906132e0565b61031457835f6115dd565b8115611c9a57611c958160a43510613631565b61157d565b611c958160a43511613631565b8115611cbf57611cba81608435116135f2565b611575565b611cba81608435106135f2565b611ce5915060403d6040116103af5761039f8183613325565b505f61156c565b6003546001600160a01b031691823b1561031457604051631df3cbc560e31b8152928492849283918291611d239160048401613347565b039134905af1801561030957611d3a575b8061152e565b611d43906132e0565b61032c57815f611d34565b50346101385780600319360112610138576020604051629896808152f35b50611d763661324e565b90611d7f613777565b81613197575b50508082526008602052604082206006810154611da760ff8260101c166133e9565b60018060a01b0360035416906040835460248251809581936331d98b3f60e01b835260048301525afa9182156105ba578592613172575b5060ff16806124b15750600182015460a01c60ff16156124a45760058201548111155b1561246b57611e0f82613459565b9060018060a01b03600154166020835160646040860151151591606087015194604051958694859363b391decf60e01b85526004850152602484015260448301525afa908115610ec1578691612439575b5081868213156123eb5750611e7861271091836136a8565b04604083015115155f146123dd57611e8f91613438565b60055490611e9c826136bb565b6005558186526007602090815260408088208551815591850151600183018054928701516001600160a81b03199093166001600160a01b03929092169190911791151560a081901b60ff60a01b16929092179055879190611efc906117a9565b600682015542600782015560088101600160ff198254161790556101c085015160098201556101e0850151600a820155602060018060a01b0360015416602487516040519586938492637cc6765f60e11b845260048401525af19182156103b65788926123a8575b50600b015560015483516020850151604086015160608701518a94909392911515916001600160a01b039182169116813b156103055760405163b65b361f60e01b815260048101949094526001600160a01b03166024840152901515604483015260648201929092529082908290608490829084905af1801561030957612394575b50506002546080840151612002916001600160a01b0316613ca8565b600254608084015187916001600160a01b031690813b15611215578291602483926040519485938492636e93ae2b60e01b845260048401525af1801561030957612380575b505061018083015160015460408051631db0457960e11b815260048101939093528891839060249082906001600160a01b03165afa918215611b3c578190829361235c575b50806122f3575b505080612252575b5060a05f80516020613f9c83398151915291600180831b03602086015116885260096020526120cd8460408a206136c9565b600180831b03602086015116948051916040820151151591846060820151910151926040519485526020850152604084015260608301526080820152a360068101805462ff0000191690555b82600a820154806121a6575b5050600681015460ff8160101c1615612141575b836001815580f35b60ff1660030361217d5760080154905b7f9947370f1e808dd40de986fca744d8715d4d7aa575359f77a7bdeeb887f590ea8380a35f8080612139565b506005545f1981019081116121925790612151565b634e487b7160e01b83526011600452602483fd5b81906006840154600460ff82161480612245575b1561222b57506121d09150600d8401549061354b565b80156121255781808092335af16121e5613569565b50156121f257825f612125565b60405162461bcd60e51b815260206004820152601160248201527012d9595c195c881999594819985a5b1959607a1b6044820152606490fd5b60101c60ff161561223d575b506121d0565b90505f612237565b50600d85015415156121ba565b6001546040516361d027b360e01b815290602090829060049082906001600160a01b03165afa9081156103b65788916122a9575b50916122a260a0925f80516020613f9c83398151915294613ca8565b915061209b565b90506020813d6020116122eb575b816122c460209383613325565b810103126122e75751916001600160a01b03831683036122e757916122a2612286565b8780fd5b3d91506122b7565b60025461230a9082906001600160a01b0316613ca8565b6002546001600160a01b031690813b156112155782916024839260405194859384926302102c9760e11b845260048401525af18015610309571561209357612351906132e0565b61033b57865f612093565b905061237891925060403d6040116103af5761039f8183613325565b91905f61208c565b612389906132e0565b61030557855f612047565b61239d906132e0565b61030557855f611fe6565b9091506020813d6020116123d5575b816123c460209383613325565b810103126105ae575190600b611f64565b3d91506123b7565b6123e6916135a8565b611e8f565b908681126123fb575b5050611e8f565b612710919250611bd661240d91613798565b04604083015115155f1461242b57612424916135a8565b5f806123f4565b61243491613438565b612424565b90506020813d602011612463575b8161245460209383613325565b810103126105ae57515f611e60565b3d9150612447565b60405162461bcd60e51b8152602060048201526011602482015270131a5b5a5d081b9bdd081c995858da1959607a1b6044820152606490fd5b6005820154811015611e01565b60018103612a495750600182015460a01c60ff1615612a3c5760058201548110155b15612a04576124e182613459565b9060018060a01b03600154166020835160646040860151151591606087015194604051958694859363b391decf60e01b85526004850152602484015260448301525afa908115610ec15786916129d2575b508186821315612984575061254a61271091836136a8565b04604083015115155f146129765761256191613438565b6005549061256e826136bb565b6005558186526007602090815260408088208551815591850151600183018054928701516001600160a81b03199093166001600160a01b03929092169190911791151560a081901b60ff60a01b169290921790558791906125ce906117a9565b600682015542600782015560088101600160ff198254161790556101c085015160098201556101e0850151600a820155602060018060a01b0360015416602487516040519586938492637cc6765f60e11b845260048401525af19182156103b6578892612941575b50600b015560015483516020850151604086015160608701518a94909392911515916001600160a01b039182169116813b156103055760405163b65b361f60e01b815260048101949094526001600160a01b03166024840152901515604483015260648201929092529082908290608490829084905af180156103095761292d575b505060025460808401516126d4916001600160a01b0316613ca8565b600254608084015187916001600160a01b031690813b15611215578291602483926040519485938492636e93ae2b60e01b845260048401525af1801561030957612919575b505061018083015160015460408051631db0457960e11b815260048101939093528891839060249082906001600160a01b03165afa918215611b3c57819082936128f5575b508061288c575b5050806127ef575b5060a05f80516020613f9c83398151915291600180831b036020860151168852600960205261279f8460408a206136c9565b600180831b03602086015116948051916040820151151591846060820151910151926040519485526020850152604084015260608301526080820152a360068101805462ff000019169055612119565b6001546040516361d027b360e01b815290602090829060049082906001600160a01b03165afa9081156103b6578891612846575b509161283f60a0925f80516020613f9c83398151915294613ca8565b915061276d565b90506020813d602011612884575b8161286160209383613325565b810103126122e75751916001600160a01b03831683036122e7579161283f612823565b3d9150612854565b6002546128a39082906001600160a01b0316613ca8565b6002546001600160a01b031690813b156112155782916024839260405194859384926302102c9760e11b845260048401525af180156103095715612765576128ea906132e0565b61033b57865f612765565b905061291191925060403d6040116103af5761039f8183613325565b91905f61275e565b612922906132e0565b61030557855f612719565b612936906132e0565b61030557855f6126b8565b9091506020813d60201161296e575b8161295d60209383613325565b810103126105ae575190600b612636565b3d9150612950565b61297f916135a8565b612561565b90868112612994575b5050612561565b612710919250611bd66129a691613798565b04604083015115155f146129c4576129bd916135a8565b5f8061298d565b6129cd91613438565b6129bd565b90506020813d6020116129fc575b816129ed60209383613325565b810103126105ae57515f612532565b3d91506129e0565b60405162461bcd60e51b815260206004820152601060248201526f14dd1bdc081b9bdd081c995858da195960821b6044820152606490fd5b60058201548111156124d3565b60028103612b005750600182015460ff8160a01c165f14612af35760058301548211155b8015612ae7575b15612a9657506124e182613459565b60068101805462ff000019169055612119565b612abd9150612aae6003840154600985015490613438565b906001600160a01b0316613ca8565b817f61b9399f2f0f32ca39ce8d7be32caed5ec22fe07a6daba3a467ed479ec6065828480a2612a83565b50600583015415612a74565b6005830154821015612a6d565b60038103612b175750612a839060088301546138cb565b600414612b25575b50612119565b600f820154158015613156575b1561311f57612b4082613459565b90612b7a6002840154612b58600d860154809261354b565b6060850152612b6b81600387015461354b565b6080850152600985015461354b565b61018083015260015482516040808501516060860151915163b391decf60e01b8152600481019390935215156024830152604482015290602090829060649082906001600160a01b03165afa908115610ec15786916130ed575b50818682131561309f5750612bec61271091836136a8565b04604083015115155f1461309157612c0391613438565b600554612c0f816136bb565b6005558086526007602090815260408088208551815591850151600183018054928701516001600160a81b03199093166001600160a01b03929092169190911791151560a081901b60ff60a01b16929092179055879190612c9590606087015160028401556080870151600384015585600484015560a087015180600585015586613e02565b600682015542600782015560088101600160ff198254161790556101c085015160098201556101e0850151600a820155602060018060a01b0360015416602487516040519586938492637cc6765f60e11b845260048401525af19182156103b657889261305c575b50600b015560015483516020850151604086015160608701518a94909392911515916001600160a01b039182169116813b156103055760405163b65b361f60e01b815260048101949094526001600160a01b03166024840152901515604483015260648201929092529082908290608490829084905af1801561030957613048575b50506002546080840151612d9b916001600160a01b0316613ca8565b600254608084015187916001600160a01b031690813b15611215578291602483926040519485938492636e93ae2b60e01b845260048401525af1801561030957613034575b505061018083015160015460408051631db0457960e11b815260048101939093528891839060249082906001600160a01b03165afa918215611b3c5781908293613010575b5080612fa7575b505080612f1d575b506020838101516001600160a01b031687526009905260408620612e599082906136c9565b5f80516020613f9c83398151915260a0600180821b03602086015116938551906040870151151590606088015184890151926040519485526020850152604084015260608301526080820152a3600f8201549060018201809211610f08577f098dc6c1012d2fb4cc0470ec0f1b82ad9eaf354865d76ebad869d83f1559344e60406060869385600f88015542601088015501518151908582526020820152a2600d8201541115612f0a575b5f612b1f565b60068101805462ff000019169055612f04565b6001546040516361d027b360e01b81529190602090839060049082906001600160a01b03165afa80156103b6578890612f61575b612f5b9250613ca8565b5f612e34565b50906020813d602011612f9f575b81612f7c60209383613325565b810103126122e75751906001600160a01b03821682036122e757612f5b91612f51565b3d9150612f6f565b600254612fbe9082906001600160a01b0316613ca8565b6002546001600160a01b031690813b156112155782916024839260405194859384926302102c9760e11b845260048401525af180156103095715612e2c57613005906132e0565b61033b57865f612e2c565b905061302c91925060403d6040116103af5761039f8183613325565b91905f612e25565b61303d906132e0565b61030557855f612de0565b613051906132e0565b61030557855f612d7f565b9091506020813d602011613089575b8161307860209383613325565b810103126105ae575190600b612cfd565b3d915061306b565b61309a916135a8565b612c03565b908681126130af575b5050612c03565b612710919250611bd66130c191613798565b04604083015115155f146130df576130d8916135a8565b5f806130a8565b6130e891613438565b6130d8565b90506020813d602011613117575b8161310860209383613325565b810103126105ae57515f612bd4565b3d91506130fb565b60405162461bcd60e51b815260206004820152600f60248201526e545741503a20746f6f206561726c7960881b6044820152606490fd5b5061316a6010830154600e84015490613438565b421015612b32565b60ff91925061318f9060403d6040116103af5761039f8183613325565b509190611dde565b6003546001600160a01b031691823b156105ae57604051631df3cbc560e31b8152925f928492839182916131ce9160048401613347565b039134905af180156131f8576131e5575b80611d85565b6131f09192506132e0565b5f905f6131df565b6040513d5f823e3d90fd5b346105ae575f3660031901126105ae576020906006548152f35b9181601f840112156105ae5782359167ffffffffffffffff83116105ae576020808501948460051b0101116105ae57565b9060406003198301126105ae57600435916024359067ffffffffffffffff82116105ae5761327e9160040161321d565b9091565b6024359081151582036105ae57565b60409060031901126105ae576004356001600160a01b03811681036105ae579060243590565b80548210156132cc575f5260205f2001905f90565b634e487b7160e01b5f52603260045260245ffd5b67ffffffffffffffff81116132f457604052565b634e487b7160e01b5f52604160045260245ffd5b610280810190811067ffffffffffffffff8211176132f457604052565b90601f8019910116810190811067ffffffffffffffff8211176132f457604052565b9160208181850182865252604084019360408360051b82010194845f925b858410613376575050505050505090565b90919293949596603f198282030184528735601e19843603018112156105ae57830186810191903567ffffffffffffffff81116105ae5780360383136105ae5787828280600196849695859652848401375f828201840152601f01601f1916010199019796959190910193019190613365565b156133f057565b60405162461bcd60e51b815260206004820152600a6024820152694e6f742061637469766560b01b6044820152606490fd5b91908260409103126105ae576020825192015190565b9190820180921161344557565b634e487b7160e01b5f52601160045260245ffd5b9060405161346681613308565b610260601082948054845260ff600182015460018060a01b038116602087015260a01c16151560408501526002810154606085015260038101546080850152600481015460a0850152600581015460c085015260ff600682015481811660e0870152818160081c161515610100870152831c161515610120850152600781015461014085015260088101546101608501526009810154610180850152600a8101546101a0850152600b8101546101c0850152600c8101546101e0850152600d810154610200850152600e810154610220850152600f8101546102408501520154910152565b8115613555570490565b634e487b7160e01b5f52601260045260245ffd5b3d156135a3573d9067ffffffffffffffff82116132f45760405191613598601f8201601f191660200184613325565b82523d5f602084013e565b606090565b9190820391821161344557565b156135bc57565b60405162461bcd60e51b815260206004820152600e60248201526d14da5e99481d1bdbc81cdb585b1b60921b6044820152606490fd5b156135f957565b60405162461bcd60e51b815260206004820152601060248201526f496e76616c696420545020707269636560801b6044820152606490fd5b1561363857565b60405162461bcd60e51b815260206004820152601060248201526f496e76616c696420534c20707269636560801b6044820152606490fd5b1561367757565b60405162461bcd60e51b81526020600482015260096024820152682737ba1037bbb732b960b91b6044820152606490fd5b8181029291811591840414171561344557565b5f1981146134455760010190565b8054680100000000000000008110156132f4576136eb916001820181556132b7565b819291549060031b91821b915f19901b1916179055565b1561370957565b60405162461bcd60e51b81526020600482015260086024820152672737ba1037b832b760c11b6044820152606490fd5b1561374057565b60405162461bcd60e51b815260206004820152600f60248201526e436f6f6c646f776e2061637469766560881b6044820152606490fd5b60025f54146137865760025f55565b604051633ee5aeb560e01b8152600490fd5b600160ff1b8114613445575f0390565b81810392915f13801582851316918412161761344557565b81810292915f8212600160ff1b82141661344557818405149015171561344557565b811561355557600160ff1b81145f19831416613445570590565b906040516101a0810181811067ffffffffffffffff8211176132f457604052610180600b82948054845260ff600182015460018060a01b038116602087015260a01c16151560408501526002810154606085015260038101546080850152600481015460a0850152600581015460c0850152600681015460e0850152600781015461010085015260ff60088201541615156101208501526009810154610140850152600a8101546101608501520154910152565b9190915f838201938412911290801582169115161761344557565b91905f92805f5260209160078352604090815f20600881016138f060ff825416613702565b60018201805460a01c60ff1615613c7557613926600484015461392161391682886137a8565b6002870154906137c0565b6137e2565b925b60018060a01b0392836001541690600283019283549389519363e4d8cbe560e01b8552600495868601525f60248601528c85604481845afa948515613c6b578b918e915f97613c38575b50905f91602463d693a4006139ae613989896137fc565b6139a9606061399d610100840151426135a8565b920151600b54906136a8565b6136a8565b0494875490519485938492637cc6765f60e11b84528d8401525af18015613c2e57908e91613c05575b5050613a00613a06916139fb6139f46139ef876137fc565b613ee2565b91886138b0565b6138b0565b896137a8565b835460ff191690935560015482548754925490918916803b156105ae578c5163019ca2b960e51b81528089019384526001600160a01b03858c1616602085015260a09490941c60ff161515604084015260608301919091525f9183919082908490829060800103925af18015613bfb57613be6575b50908c91828213613b8b575b866002541660038888541692015490803b15610ebd578492836064928e51968795869463118f304360e01b86528c860152602485015260448401525af18015613b8157613b69575b505080613b0d575b50507f356fca566f3a054a459c7224d9c9d634f31a98835cfd4fb4c5ddbf8b96aca21195969798505416958351928352820152a3565b8a90846002541692833b1561121557602490838a5195869485936335b8e71360e01b85528401525af18015613b5f57613b47575b80613ad7565b613b518a916132e0565b613b5b5788613b41565b8880fd5b86513d8c823e3d90fd5b613b72906132e0565b613b7d578a5f613acf565b8a80fd5b89513d84823e3d90fd5b8660015416803b156103145783809160248d518094819363630304f960e11b8352888c8401525af18015613bdc57908491613bc8575b5050613a87565b613bd1906132e0565b61121557825f613bc1565b8b513d86823e3d90fd5b613bf291929d506132e0565b5f9b905f613a7b565b8a513d5f823e3d90fd5b813d8311613c27575b613c188183613325565b810103126105ae578c5f6139d7565b503d613c0e565b8c513d5f823e3d90fd5b9250955081813d8311613c64575b613c508183613325565b810103126105ae5751938a908d905f613972565b503d613c46565b8b513d5f823e3d90fd5b613c8a600484015461392161391687836137a8565b92613928565b908160209103126105ae575180151581036105ae5790565b602090604460018060a01b03915f8360045416604051968795869463a9059cbb60e01b865216600485015260248401525af19081156131f8575f91613d27575b5015613cf057565b60405162461bcd60e51b815260206004820152600f60248201526e151c985b9cd9995c8819985a5b1959608a1b6044820152606490fd5b613d49915060203d602011613d4f575b613d418183613325565b810190613c90565b5f613ce8565b503d613d37565b916064602092935f60018060a01b03938460045416908560405198899788966323b872dd60e01b885216600487015216602485015260448401525af19081156131f8575f91613de3575b5015613da857565b60405162461bcd60e51b8152602060048201526013602482015272151c985b9cd9995c919c9bdb4819985a5b1959606a1b6044820152606490fd5b613dfc915060203d602011613d4f57613d418183613325565b5f613da0565b6001546040516335123baf60e21b815291929190602090829060049082906001600160a01b03165afa9081156131f8575f91613eb0575b50600a81018091116134455781613e4f916136a8565b6123289190828110613e98575050506064915b15613e8157612710613e77613e7e93836136a8565b04906135a8565b90565b612710613e91613e7e93836136a8565b0490613438565b820391821161344557613eaa9161354b565b91613e62565b90506020813d602011613eda575b81613ecb60209383613325565b810103126105ae57515f613e39565b3d9150613ebe565b60018060a01b03600154169060208151602460405180958193634655f1eb60e01b835260048301525afa9182156131f8575f92613f65575b50613f34670de0b6b3a764000092610180830151906137a8565b604082015115613f4f576060613f4b9201516137c0565b0590565b613f60906060613f4b9301516137c0565b613798565b91506020823d602011613f93575b81613f8060209383613325565b810103126105ae57905190613f34613f1a565b3d9150613f7356fe52ca44dea94749aadfaa4d3749a0323a33b3a6434adcfff52ad54c511f5579c7a26469706673582212203038c10fc340e68a102c5a906cbbf0146b7c04d37e2bf2b93593b272fac0b2df64736f6c63430008180033","opcodes":"PUSH1 0x80 CALLVALUE PUSH3 0xDE JUMPI PUSH1 0x1F PUSH3 0x40FD CODESIZE DUP2 SWAP1 SUB SWAP2 DUP3 ADD PUSH1 0x1F NOT AND DUP4 ADD SWAP2 PUSH1 0x1 PUSH1 0x1 PUSH1 0x40 SHL SUB DUP4 GT DUP5 DUP5 LT OR PUSH3 0xE2 JUMPI DUP1 DUP5 SWAP3 PUSH1 0x80 SWAP5 PUSH1 0x40 MSTORE DUP4 CODECOPY DUP2 ADD SUB SLT PUSH3 0xDE JUMPI PUSH3 0x4D DUP2 PUSH3 0xF6 JUMP JUMPDEST SWAP1 PUSH3 0x5C PUSH1 0x20 DUP3 ADD PUSH3 0xF6 JUMP JUMPDEST PUSH3 0x78 PUSH1 0x60 PUSH3 0x70 PUSH1 0x40 DUP6 ADD PUSH3 0xF6 JUMP JUMPDEST SWAP4 ADD PUSH3 0xF6 JUMP JUMPDEST SWAP1 PUSH1 0x1 PUSH0 SSTORE PUSH1 0x1 PUSH1 0x5 SSTORE PUSH1 0x1 PUSH1 0x6 SSTORE PUSH1 0x14 PUSH1 0xB SSTORE PUSH1 0x64 PUSH1 0xC SSTORE PUSH1 0x1 DUP1 PUSH1 0xA0 SHL SUB SWAP3 DUP4 DUP1 SWAP3 DUP2 PUSH1 0x1 DUP1 PUSH1 0xA0 SHL SUB NOT SWAP8 AND DUP8 PUSH1 0x4 SLOAD AND OR PUSH1 0x4 SSTORE AND DUP6 PUSH1 0x1 SLOAD AND OR PUSH1 0x1 SSTORE AND DUP4 PUSH1 0x2 SLOAD AND OR PUSH1 0x2 SSTORE AND SWAP1 PUSH1 0x3 SLOAD AND OR PUSH1 0x3 SSTORE PUSH1 0x40 MLOAD PUSH2 0x3FF1 SWAP1 DUP2 PUSH3 0x10C DUP3 CODECOPY RETURN JUMPDEST PUSH0 DUP1 REVERT JUMPDEST PUSH4 0x4E487B71 PUSH1 0xE0 SHL PUSH0 MSTORE PUSH1 0x41 PUSH1 0x4 MSTORE PUSH1 0x24 PUSH0 REVERT JUMPDEST MLOAD SWAP1 PUSH1 0x1 PUSH1 0x1 PUSH1 0xA0 SHL SUB DUP3 AND DUP3 SUB PUSH3 0xDE JUMPI JUMP INVALID PUSH1 0xE0 DUP1 PUSH1 0x40 MSTORE PUSH1 0x4 CALLDATASIZE LT ISZERO PUSH2 0x12 JUMPI PUSH0 DUP1 REVERT JUMPDEST PUSH0 SWAP1 PUSH0 CALLDATALOAD PUSH1 0xE0 SHR SWAP1 DUP2 PUSH4 0x2A58B330 EQ PUSH2 0x3203 JUMPI POP DUP1 PUSH4 0x33E7DDDB EQ PUSH2 0x1D6C JUMPI DUP1 PUSH4 0x368DBBA8 EQ PUSH2 0x1D4E JUMPI DUP1 PUSH4 0x3AE95909 EQ PUSH2 0x14D8 JUMPI DUP1 PUSH4 0x3E413BEE EQ PUSH2 0x14AF JUMPI DUP1 PUSH4 0x514FCAC7 EQ PUSH2 0x1328 JUMPI DUP1 PUSH4 0x5E1B4D99 EQ PUSH2 0x12EA JUMPI DUP1 PUSH4 0x666C187E EQ PUSH2 0xF95 JUMPI DUP1 PUSH4 0x6FB197F7 EQ PUSH2 0xC63 JUMPI DUP1 PUSH4 0x7DC0D1D0 EQ PUSH2 0xC3A JUMPI DUP1 PUSH4 0x80B74258 EQ PUSH2 0xA3D JUMPI DUP1 PUSH4 0x856652E9 EQ PUSH2 0x9F1 JUMPI DUP1 PUSH4 0x899346C7 EQ PUSH2 0x9D3 JUMPI DUP1 PUSH4 0x8FB735EE EQ PUSH2 0x9B5 JUMPI DUP1 PUSH4 0x99FBAB88 EQ PUSH2 0x8F2 JUMPI DUP1 PUSH4 0x9BFE7E3E EQ PUSH2 0x760 JUMPI DUP1 PUSH4 0xC3AAEA4E EQ PUSH2 0x60C JUMPI DUP1 PUSH4 0xEFFAED89 EQ PUSH2 0x5EE JUMPI DUP1 PUSH4 0xF2F4EB26 EQ PUSH2 0x5C5 JUMPI DUP1 PUSH4 0xF5BA8A2A EQ PUSH2 0x423 JUMPI DUP1 PUSH4 0xF6614170 EQ PUSH2 0x13B JUMPI PUSH4 0xFBFA77CF EQ PUSH2 0x110 JUMPI PUSH0 DUP1 REVERT JUMPDEST CALLVALUE PUSH2 0x138 JUMPI DUP1 PUSH1 0x3 NOT CALLDATASIZE ADD SLT PUSH2 0x138 JUMPI PUSH1 0x2 SLOAD PUSH1 0x40 MLOAD PUSH1 0x1 PUSH1 0x1 PUSH1 0xA0 SHL SUB SWAP1 SWAP2 AND DUP2 MSTORE PUSH1 0x20 SWAP1 RETURN JUMPDEST DUP1 REVERT JUMPDEST POP DUP1 PUSH2 0x146 CALLDATASIZE PUSH2 0x324E JUMP JUMPDEST SWAP1 PUSH2 0x152 SWAP4 SWAP3 SWAP4 PUSH2 0x3777 JUMP JUMPDEST DUP2 PUSH2 0x3C1 JUMPI JUMPDEST POP POP SWAP1 DUP1 PUSH1 0x24 SWAP3 MSTORE PUSH1 0x7 PUSH1 0x20 MSTORE PUSH1 0x40 DUP4 KECCAK256 SWAP1 PUSH1 0x8 DUP3 ADD SWAP2 DUP3 SLOAD SWAP3 PUSH2 0x17E PUSH1 0xFF DUP6 AND PUSH2 0x3702 JUMP JUMPDEST PUSH1 0x3 SLOAD DUP3 SLOAD PUSH1 0x40 DUP1 MLOAD PUSH4 0x31D98B3F PUSH1 0xE0 SHL DUP2 MSTORE PUSH1 0x4 DUP2 ADD DUP4 SWAP1 MSTORE SWAP8 PUSH1 0x1 PUSH1 0x1 PUSH1 0xA0 SHL SUB SWAP6 SWAP3 SWAP5 SWAP3 SWAP4 DUP10 SWAP2 SWAP1 DUP3 SWAP1 DUP9 AND GAS STATICCALL SWAP7 DUP8 ISZERO PUSH2 0x3B6 JUMPI DUP9 SWAP8 PUSH2 0x384 JUMPI JUMPDEST POP PUSH1 0x1 DUP3 ADD SWAP3 DUP4 SLOAD PUSH1 0xFF DUP2 PUSH1 0xA0 SHR AND SWAP2 DUP3 PUSH0 EQ PUSH2 0x377 JUMPI PUSH1 0x6 DUP6 ADD SLOAD DUP11 GT ISZERO JUMPDEST ISZERO PUSH2 0x33F JUMPI DUP5 PUSH1 0x3 DUP13 SWAP7 ADD SWAP5 PUSH2 0x2710 PUSH2 0x1FA DUP8 SLOAD PUSH1 0xC SLOAD SWAP1 PUSH2 0x36A8 JUMP JUMPDEST DIV SWAP11 PUSH1 0xFF NOT AND SWAP1 SSTORE PUSH1 0x2 DUP9 PUSH1 0x1 SLOAD AND SWAP2 ADD SLOAD SWAP3 DUP2 EXTCODESIZE ISZERO PUSH2 0x33B JUMPI PUSH1 0x40 MLOAD PUSH4 0x19CA2B9 PUSH1 0xE5 SHL DUP2 MSTORE PUSH1 0x4 DUP2 ADD SWAP4 SWAP1 SWAP4 MSTORE DUP9 AND PUSH1 0x1 PUSH1 0x1 PUSH1 0xA0 SHL SUB AND PUSH1 0x24 DUP4 ADD MSTORE SWAP3 ISZERO ISZERO PUSH1 0x44 DUP3 ADD MSTORE PUSH1 0x64 DUP2 ADD SWAP2 SWAP1 SWAP2 MSTORE SWAP1 DUP4 SWAP1 DUP3 SWAP1 PUSH1 0x84 SWAP1 DUP3 SWAP1 DUP5 SWAP1 GAS CALL SWAP1 DUP2 ISZERO PUSH2 0x330 JUMPI DUP4 SWAP2 PUSH2 0x318 JUMPI JUMPDEST POP POP DUP4 PUSH1 0x2 SLOAD AND SWAP1 DUP5 DUP5 SLOAD AND SWAP1 SLOAD DUP3 EXTCODESIZE ISZERO PUSH2 0x314 JUMPI PUSH1 0x84 DUP5 SWAP3 DUP4 PUSH1 0x40 MLOAD SWAP6 DUP7 SWAP5 DUP6 SWAP4 PUSH4 0x9C0533B PUSH1 0xE0 SHL DUP6 MSTORE PUSH1 0x4 DUP6 ADD MSTORE CALLER PUSH1 0x24 DUP6 ADD MSTORE PUSH1 0x44 DUP5 ADD MSTORE DUP12 PUSH1 0x64 DUP5 ADD MSTORE GAS CALL DUP1 ISZERO PUSH2 0x309 JUMPI PUSH2 0x2F1 JUMPI JUMPDEST POP POP SLOAD AND SWAP2 PUSH1 0x40 MLOAD SWAP4 DUP5 MSTORE PUSH1 0x20 DUP5 ADD MSTORE PUSH32 0x3B7BC7C0FDC798AC653B9F0D6D28ADB2293A55402D32C21D323DA740CCC65539 PUSH1 0x40 CALLER SWAP5 LOG4 PUSH1 0x1 DUP2 SSTORE DUP1 RETURN JUMPDEST PUSH2 0x2FA SWAP1 PUSH2 0x32E0 JUMP JUMPDEST PUSH2 0x305 JUMPI DUP6 PUSH0 PUSH2 0x2B4 JUMP JUMPDEST DUP6 DUP1 REVERT JUMPDEST PUSH1 0x40 MLOAD RETURNDATASIZE DUP5 DUP3 RETURNDATACOPY RETURNDATASIZE SWAP1 REVERT JUMPDEST DUP4 DUP1 REVERT JUMPDEST PUSH2 0x321 SWAP1 PUSH2 0x32E0 JUMP JUMPDEST PUSH2 0x32C JUMPI DUP2 PUSH0 PUSH2 0x265 JUMP JUMPDEST POP DUP1 REVERT JUMPDEST PUSH1 0x40 MLOAD RETURNDATASIZE DUP6 DUP3 RETURNDATACOPY RETURNDATASIZE SWAP1 REVERT JUMPDEST DUP7 DUP1 REVERT JUMPDEST PUSH1 0x40 MLOAD PUSH3 0x461BCD PUSH1 0xE5 SHL DUP2 MSTORE PUSH1 0x20 PUSH1 0x4 DUP3 ADD MSTORE PUSH1 0x10 PUSH1 0x24 DUP3 ADD MSTORE PUSH16 0x4E6F74206C6971756964617461626C65 PUSH1 0x80 SHL PUSH1 0x44 DUP3 ADD MSTORE PUSH1 0x64 SWAP1 REVERT JUMPDEST PUSH1 0x6 DUP6 ADD SLOAD DUP11 LT ISZERO PUSH2 0x1DD JUMP JUMPDEST PUSH2 0x3A7 SWAP2 SWAP8 POP PUSH1 0x40 RETURNDATASIZE PUSH1 0x40 GT PUSH2 0x3AF JUMPI JUMPDEST PUSH2 0x39F DUP2 DUP4 PUSH2 0x3325 JUMP JUMPDEST DUP2 ADD SWAP1 PUSH2 0x3422 JUMP JUMPDEST POP SWAP6 PUSH0 PUSH2 0x1BD JUMP JUMPDEST POP RETURNDATASIZE PUSH2 0x395 JUMP JUMPDEST PUSH1 0x40 MLOAD RETURNDATASIZE DUP11 DUP3 RETURNDATACOPY RETURNDATASIZE SWAP1 REVERT JUMPDEST PUSH1 0x3 SLOAD PUSH1 0x1 PUSH1 0x1 PUSH1 0xA0 SHL SUB AND SWAP2 DUP3 EXTCODESIZE ISZERO PUSH2 0x314 JUMPI PUSH1 0x40 MLOAD PUSH4 0x1DF3CBC5 PUSH1 0xE3 SHL DUP2 MSTORE SWAP3 DUP5 SWAP3 DUP5 SWAP3 DUP4 SWAP2 DUP3 SWAP2 PUSH2 0x3F8 SWAP2 PUSH1 0x4 DUP5 ADD PUSH2 0x3347 JUMP JUMPDEST SUB SWAP2 CALLVALUE SWAP1 GAS CALL DUP1 ISZERO PUSH2 0x309 JUMPI PUSH2 0x40F JUMPI JUMPDEST DUP1 PUSH2 0x158 JUMP JUMPDEST PUSH2 0x418 SWAP1 PUSH2 0x32E0 JUMP JUMPDEST PUSH2 0x32C JUMPI DUP2 PUSH0 PUSH2 0x409 JUMP JUMPDEST POP PUSH2 0x42D CALLDATASIZE PUSH2 0x324E JUMP JUMPDEST SWAP2 SWAP1 PUSH2 0x437 PUSH2 0x3777 JUMP JUMPDEST DUP2 DUP5 MSTORE PUSH1 0x7 PUSH1 0x20 MSTORE DUP4 PUSH1 0x40 DUP2 KECCAK256 SWAP4 PUSH2 0x455 PUSH1 0xFF PUSH1 0x8 DUP8 ADD SLOAD AND PUSH2 0x3702 JUMP JUMPDEST PUSH1 0x1 DUP6 ADD SLOAD PUSH1 0x1 PUSH1 0x1 PUSH1 0xA0 SHL SUB SWAP4 SWAP1 PUSH2 0x471 SWAP1 DUP6 AND CALLER EQ PUSH2 0x3670 JUMP JUMPDEST PUSH1 0x4 PUSH1 0x7 DUP8 ADD SLOAD PUSH1 0x20 DUP7 PUSH1 0x1 SLOAD AND PUSH1 0x40 MLOAD SWAP4 DUP5 DUP1 SWAP3 PUSH4 0x6D780973 PUSH1 0xE1 SHL DUP3 MSTORE GAS STATICCALL SWAP2 DUP3 ISZERO PUSH2 0x5BA JUMPI DUP6 SWAP3 PUSH2 0x57D JUMPI JUMPDEST POP PUSH2 0x4B6 SWAP2 PUSH2 0x4AE SWAP2 PUSH2 0x3438 JUMP JUMPDEST TIMESTAMP LT ISZERO PUSH2 0x3739 JUMP JUMPDEST DUP2 PUSH2 0x522 JUMPI JUMPDEST POP POP POP PUSH1 0x40 SWAP1 PUSH1 0x3 SLOAD AND SWAP3 SLOAD PUSH1 0x24 DUP3 MLOAD DUP1 SWAP6 DUP2 SWAP4 PUSH4 0x31D98B3F PUSH1 0xE0 SHL DUP4 MSTORE PUSH1 0x4 DUP4 ADD MSTORE GAS STATICCALL SWAP1 DUP2 ISZERO PUSH2 0x330 JUMPI PUSH2 0x4F9 SWAP3 DUP5 SWAP3 PUSH2 0x500 JUMPI JUMPDEST POP PUSH2 0x38CB JUMP JUMPDEST PUSH1 0x1 DUP2 SSTORE DUP1 RETURN JUMPDEST PUSH2 0x51A SWAP2 SWAP3 POP PUSH1 0x40 RETURNDATASIZE PUSH1 0x40 GT PUSH2 0x3AF JUMPI PUSH2 0x39F DUP2 DUP4 PUSH2 0x3325 JUMP JUMPDEST POP SWAP1 PUSH0 PUSH2 0x4F3 JUMP JUMPDEST DUP4 PUSH1 0x3 SLOAD AND SWAP2 DUP3 EXTCODESIZE ISZERO PUSH2 0x314 JUMPI PUSH1 0x40 MLOAD PUSH4 0x1DF3CBC5 PUSH1 0xE3 SHL DUP2 MSTORE SWAP3 DUP5 SWAP3 DUP5 SWAP3 DUP4 SWAP2 DUP3 SWAP2 PUSH2 0x552 SWAP2 PUSH1 0x4 DUP5 ADD PUSH2 0x3347 JUMP JUMPDEST SUB SWAP2 CALLVALUE SWAP1 GAS CALL DUP1 ISZERO PUSH2 0x309 JUMPI PUSH2 0x569 JUMPI JUMPDEST DUP1 PUSH2 0x4BC JUMP JUMPDEST PUSH2 0x572 SWAP1 PUSH2 0x32E0 JUMP JUMPDEST PUSH2 0x314 JUMPI DUP4 PUSH0 PUSH2 0x563 JUMP JUMPDEST SWAP5 POP SWAP1 POP PUSH1 0x20 DUP5 RETURNDATASIZE PUSH1 0x20 GT PUSH2 0x5B2 JUMPI JUMPDEST DUP2 PUSH2 0x59A PUSH1 0x20 SWAP4 DUP4 PUSH2 0x3325 JUMP JUMPDEST DUP2 ADD SUB SLT PUSH2 0x5AE JUMPI SWAP3 MLOAD DUP8 SWAP4 PUSH2 0x4AE PUSH2 0x4A0 JUMP JUMPDEST PUSH0 DUP1 REVERT JUMPDEST RETURNDATASIZE SWAP2 POP PUSH2 0x58D JUMP JUMPDEST PUSH1 0x40 MLOAD RETURNDATASIZE DUP8 DUP3 RETURNDATACOPY RETURNDATASIZE SWAP1 REVERT JUMPDEST POP CALLVALUE PUSH2 0x138 JUMPI DUP1 PUSH1 0x3 NOT CALLDATASIZE ADD SLT PUSH2 0x138 JUMPI PUSH1 0x1 SLOAD PUSH1 0x40 MLOAD PUSH1 0x1 PUSH1 0x1 PUSH1 0xA0 SHL SUB SWAP1 SWAP2 AND DUP2 MSTORE PUSH1 0x20 SWAP1 RETURN JUMPDEST POP CALLVALUE PUSH2 0x138 JUMPI DUP1 PUSH1 0x3 NOT CALLDATASIZE ADD SLT PUSH2 0x138 JUMPI PUSH1 0x20 PUSH1 0xC SLOAD PUSH1 0x40 MLOAD SWAP1 DUP2 MSTORE RETURN JUMPDEST POP CALLVALUE PUSH2 0x138 JUMPI PUSH1 0x20 CALLDATASIZE PUSH1 0x3 NOT ADD SLT PUSH2 0x138 JUMPI PUSH1 0x4 CALLDATALOAD DUP2 MSTORE PUSH1 0x8 PUSH1 0x20 MSTORE PUSH1 0x40 SWAP1 KECCAK256 DUP1 DUP1 DUP1 SLOAD PUSH1 0x1 DUP3 ADD SLOAD PUSH1 0xC0 MSTORE PUSH1 0x2 DUP3 ADD SLOAD PUSH1 0x3 DUP4 ADD SLOAD PUSH1 0x4 DUP5 ADD SLOAD PUSH1 0x5 DUP6 ADD SLOAD PUSH1 0x6 DUP7 ADD SLOAD PUSH1 0x7 DUP8 ADD SLOAD SWAP1 PUSH1 0x8 DUP9 ADD SLOAD SWAP3 PUSH1 0x9 DUP10 ADD SLOAD SWAP5 PUSH1 0xA DUP11 ADD SLOAD SWAP7 PUSH1 0xB DUP12 ADD SLOAD SWAP9 PUSH1 0xC DUP13 ADD SLOAD SWAP11 PUSH1 0xD DUP14 ADD SLOAD SWAP13 PUSH1 0xE ADD SLOAD SWAP14 PUSH1 0xF ADD SLOAD SWAP15 PUSH1 0x10 ADD SLOAD PUSH1 0x80 MSTORE PUSH1 0x40 MLOAD PUSH1 0xA0 MSTORE PUSH1 0xA0 MLOAD MSTORE PUSH1 0x1 PUSH1 0xA0 SHL PUSH1 0x1 SWAP1 SUB PUSH1 0xC0 MLOAD AND PUSH1 0xA0 MLOAD PUSH1 0x20 ADD MSTORE PUSH1 0xC0 MLOAD PUSH1 0xA0 SHR PUSH1 0xFF AND ISZERO ISZERO PUSH1 0xA0 MLOAD PUSH1 0x40 ADD MSTORE PUSH1 0xA0 MLOAD PUSH1 0x60 ADD MSTORE PUSH1 0xA0 MLOAD PUSH1 0x80 ADD MSTORE PUSH1 0xA0 MLOAD PUSH1 0xA0 ADD MSTORE PUSH1 0xA0 MLOAD PUSH1 0xC0 ADD MSTORE PUSH1 0xFF DUP2 AND PUSH1 0xA0 MLOAD PUSH1 0xE0 ADD MSTORE DUP1 PUSH1 0x8 SHR PUSH1 0xFF AND ISZERO ISZERO PUSH1 0xA0 MLOAD PUSH2 0x100 ADD MSTORE PUSH1 0x10 SHR PUSH1 0xFF AND ISZERO ISZERO PUSH1 0xA0 MLOAD PUSH2 0x120 ADD MSTORE PUSH1 0xA0 MLOAD PUSH2 0x140 ADD MSTORE PUSH1 0xA0 MLOAD PUSH2 0x160 ADD MSTORE PUSH1 0xA0 MLOAD PUSH2 0x180 ADD MSTORE PUSH1 0xA0 MLOAD PUSH2 0x1A0 ADD MSTORE PUSH1 0xA0 MLOAD PUSH2 0x1C0 ADD MSTORE PUSH1 0xA0 MLOAD PUSH2 0x1E0 ADD MSTORE PUSH1 0xA0 MLOAD PUSH2 0x200 ADD MSTORE PUSH1 0xA0 MLOAD PUSH2 0x220 ADD MSTORE PUSH1 0xA0 MLOAD PUSH2 0x240 ADD MSTORE PUSH1 0x80 MLOAD PUSH1 0xA0 MLOAD PUSH2 0x260 ADD MSTORE PUSH1 0xA0 MLOAD PUSH2 0x280 SWAP1 RETURN JUMPDEST POP PUSH1 0x20 SWAP1 DUP2 PUSH1 0x3 NOT CALLDATASIZE ADD SLT PUSH2 0x138 JUMPI PUSH1 0x4 CALLDATALOAD SWAP1 PUSH2 0x77B PUSH2 0x3777 JUMP JUMPDEST DUP2 DUP2 MSTORE PUSH1 0x7 DUP4 MSTORE PUSH1 0x40 DUP2 KECCAK256 PUSH1 0xFF PUSH1 0x8 DUP3 ADD SLOAD AND ISZERO PUSH2 0x8B9 JUMPI SWAP1 PUSH1 0x4 SWAP2 PUSH1 0x1 DUP1 PUSH1 0xA0 SHL SUB PUSH2 0x7AF DUP2 PUSH1 0x1 DUP5 ADD SLOAD AND CALLER EQ PUSH2 0x3670 JUMP JUMPDEST DUP6 PUSH1 0x7 DUP4 ADD SLOAD SWAP2 PUSH1 0x1 SLOAD AND PUSH1 0x40 MLOAD SWAP6 DUP7 DUP1 SWAP3 PUSH4 0x6D780973 PUSH1 0xE1 SHL DUP3 MSTORE GAS STATICCALL SWAP4 DUP5 ISZERO PUSH2 0x330 JUMPI DUP4 SWAP5 PUSH2 0x888 JUMPI JUMPDEST POP PUSH2 0x4AE PUSH1 0x1 SWAP5 PUSH2 0x7EB SWAP3 PUSH2 0x3438 JUMP JUMPDEST PUSH1 0x6 SLOAD SWAP4 PUSH2 0x7F8 DUP6 PUSH2 0x36BB JUMP JUMPDEST PUSH1 0x6 SSTORE DUP5 DUP4 MSTORE PUSH1 0x8 DUP7 MSTORE PUSH1 0x40 DUP4 KECCAK256 SWAP1 DUP5 DUP3 ADD CALLER PUSH12 0xFFFFFFFFFFFFFFFFFFFFFFFF PUSH1 0xA0 SHL DUP3 SLOAD AND OR SWAP1 SSTORE PUSH1 0x6 DUP3 ADD PUSH3 0x10003 PUSH3 0xFF00FF NOT DUP3 SLOAD AND OR SWAP1 SSTORE TIMESTAMP PUSH1 0x7 DUP4 ADD SSTORE PUSH1 0x8 DUP3 ADD SSTORE PUSH1 0xA CALLVALUE SWAP2 ADD SSTORE SLOAD PUSH1 0x40 MLOAD SWAP1 DUP2 MSTORE PUSH1 0x3 DUP6 DUP3 ADD MSTORE DUP2 PUSH1 0x40 DUP3 ADD MSTORE DUP4 PUSH32 0x401524BECCFF0D9DD3447788DEA32E11F3B7C9618ED6084F14A773DBF2025F16 PUSH1 0x60 CALLER SWAP4 LOG3 SSTORE PUSH1 0x40 MLOAD SWAP1 DUP2 MSTORE RETURN JUMPDEST SWAP4 POP DUP6 DUP5 DUP2 RETURNDATASIZE DUP4 GT PUSH2 0x8B2 JUMPI JUMPDEST PUSH2 0x89F DUP2 DUP4 PUSH2 0x3325 JUMP JUMPDEST DUP2 ADD SUB SLT PUSH2 0x5AE JUMPI SWAP3 MLOAD SWAP3 PUSH2 0x4AE PUSH2 0x7DB JUMP JUMPDEST POP RETURNDATASIZE PUSH2 0x895 JUMP JUMPDEST PUSH1 0x40 MLOAD PUSH3 0x461BCD PUSH1 0xE5 SHL DUP2 MSTORE PUSH1 0x4 DUP2 ADD DUP6 SWAP1 MSTORE PUSH1 0x11 PUSH1 0x24 DUP3 ADD MSTORE PUSH17 0x2837B9B4BA34B7B7103737BA1037B832B7 PUSH1 0x79 SHL PUSH1 0x44 DUP3 ADD MSTORE PUSH1 0x64 SWAP1 REVERT JUMPDEST POP CALLVALUE PUSH2 0x138 JUMPI PUSH1 0x20 CALLDATASIZE PUSH1 0x3 NOT ADD SLT PUSH2 0x138 JUMPI PUSH1 0x40 PUSH2 0x1A0 SWAP2 PUSH1 0x4 CALLDATALOAD DUP2 MSTORE PUSH1 0x7 PUSH1 0x20 MSTORE KECCAK256 DUP1 SLOAD SWAP1 PUSH1 0x1 DUP2 ADD SLOAD SWAP1 PUSH1 0x2 DUP2 ADD SLOAD PUSH1 0x3 DUP3 ADD SLOAD PUSH1 0x4 DUP4 ADD SLOAD PUSH1 0x5 DUP5 ADD SLOAD PUSH1 0x6 DUP6 ADD SLOAD SWAP1 PUSH1 0x7 DUP7 ADD SLOAD SWAP3 PUSH1 0xFF PUSH1 0x8 DUP9 ADD SLOAD AND SWAP5 PUSH1 0x9 DUP9 ADD SLOAD SWAP7 PUSH1 0xFF PUSH1 0xB PUSH1 0xA DUP12 ADD SLOAD SWAP11 ADD SLOAD SWAP11 PUSH1 0x40 MLOAD SWAP13 DUP14 MSTORE DUP13 PUSH1 0x20 PUSH1 0x1 DUP1 PUSH1 0xA0 SHL SUB DUP4 AND SWAP2 ADD MSTORE PUSH1 0xA0 SHR AND ISZERO ISZERO PUSH1 0x40 DUP13 ADD MSTORE PUSH1 0x60 DUP12 ADD MSTORE PUSH1 0x80 DUP11 ADD MSTORE PUSH1 0xA0 DUP10 ADD MSTORE PUSH1 0xC0 DUP9 ADD MSTORE PUSH1 0xE0 DUP8 ADD MSTORE PUSH2 0x100 DUP7 ADD MSTORE ISZERO ISZERO PUSH2 0x120 DUP6 ADD MSTORE PUSH2 0x140 DUP5 ADD MSTORE PUSH2 0x160 DUP4 ADD MSTORE PUSH2 0x180 DUP3 ADD MSTORE RETURN JUMPDEST POP CALLVALUE PUSH2 0x138 JUMPI DUP1 PUSH1 0x3 NOT CALLDATASIZE ADD SLT PUSH2 0x138 JUMPI PUSH1 0x20 PUSH1 0xB SLOAD PUSH1 0x40 MLOAD SWAP1 DUP2 MSTORE RETURN JUMPDEST POP CALLVALUE PUSH2 0x138 JUMPI DUP1 PUSH1 0x3 NOT CALLDATASIZE ADD SLT PUSH2 0x138 JUMPI PUSH1 0x20 PUSH1 0x5 SLOAD PUSH1 0x40 MLOAD SWAP1 DUP2 MSTORE RETURN JUMPDEST POP CALLVALUE PUSH2 0x138 JUMPI PUSH2 0xA00 CALLDATASIZE PUSH2 0x3291 JUMP JUMPDEST PUSH1 0x1 PUSH1 0x1 PUSH1 0xA0 SHL SUB SWAP1 SWAP2 AND DUP3 MSTORE PUSH1 0xA PUSH1 0x20 MSTORE PUSH1 0x40 DUP3 KECCAK256 DUP1 SLOAD SWAP2 SWAP3 SWAP1 SWAP2 DUP4 LT ISZERO PUSH2 0x138 JUMPI PUSH1 0x20 PUSH2 0xA2F DUP5 DUP5 PUSH2 0x32B7 JUMP JUMPDEST SWAP1 SLOAD PUSH1 0x40 MLOAD SWAP2 PUSH1 0x3 SHL SHR DUP2 MSTORE RETURN JUMPDEST POP DUP1 PUSH2 0xA48 CALLDATASIZE PUSH2 0x324E JUMP JUMPDEST SWAP1 PUSH2 0xA54 SWAP4 SWAP3 SWAP4 PUSH2 0x3777 JUMP JUMPDEST DUP2 PUSH2 0xBD8 JUMPI JUMPDEST POP POP DUP2 SWAP1 MSTORE PUSH1 0x7 PUSH1 0x20 MSTORE PUSH1 0x40 DUP3 KECCAK256 SWAP1 PUSH2 0xA79 PUSH1 0xFF PUSH1 0x8 DUP5 ADD SLOAD AND PUSH2 0x3702 JUMP JUMPDEST PUSH1 0x1 DUP1 PUSH1 0xA0 SHL SUB PUSH1 0x3 SLOAD AND SWAP1 PUSH1 0x40 DUP4 SLOAD PUSH1 0x24 DUP3 MLOAD DUP1 SWAP6 DUP2 SWAP4 PUSH4 0x31D98B3F PUSH1 0xE0 SHL DUP4 MSTORE PUSH1 0x4 DUP4 ADD MSTORE GAS STATICCALL SWAP2 DUP3 ISZERO PUSH2 0xBCD JUMPI DUP5 SWAP3 PUSH2 0xBAB JUMPI JUMPDEST POP DUP4 DUP5 SWAP4 PUSH1 0x9 DUP2 ADD SLOAD DUP1 PUSH2 0xB80 JUMPI JUMPDEST POP DUP2 ISZERO DUP1 PUSH2 0xB73 JUMPI JUMPDEST PUSH2 0xB49 JUMPI JUMPDEST POP ISZERO PUSH2 0xB0E JUMPI DUP1 PUSH32 0xAC4FD466C8F994E08CE2EB9141C2F01F2A779A3537D9BD71FA8762DF3D12842C PUSH1 0x40 PUSH2 0x4F9 SWAP6 DUP2 MLOAD SWAP1 ISZERO ISZERO DUP2 MSTORE DUP6 PUSH1 0x20 DUP3 ADD MSTORE LOG2 PUSH2 0x38CB JUMP JUMPDEST PUSH1 0x40 MLOAD PUSH3 0x461BCD PUSH1 0xE5 SHL DUP2 MSTORE PUSH1 0x20 PUSH1 0x4 DUP3 ADD MSTORE PUSH1 0x13 PUSH1 0x24 DUP3 ADD MSTORE PUSH19 0x15140BD4D3081B9BDD081D1C9A59D9D95C9959 PUSH1 0x6A SHL PUSH1 0x44 DUP3 ADD MSTORE PUSH1 0x64 SWAP1 REVERT JUMPDEST PUSH1 0x1 DUP2 ADD SLOAD PUSH1 0xA SWAP3 POP PUSH1 0xA0 SHR PUSH1 0xFF AND ISZERO PUSH2 0xB69 JUMPI ADD SLOAD DUP3 GT ISZERO JUMPDEST PUSH0 PUSH2 0xACD JUMP JUMPDEST ADD SLOAD DUP3 LT ISZERO PUSH2 0xB63 JUMP JUMPDEST POP PUSH1 0xA DUP2 ADD SLOAD ISZERO ISZERO PUSH2 0xAC8 JUMP JUMPDEST SWAP2 POP SWAP4 POP PUSH1 0xFF PUSH1 0x1 DUP6 ADD SLOAD PUSH1 0xA0 SHR AND PUSH0 EQ PUSH2 0xBA2 JUMPI DUP3 LT ISZERO SWAP3 JUMPDEST DUP4 SWAP1 PUSH0 PUSH2 0xABF JUMP JUMPDEST DUP3 GT ISZERO SWAP3 PUSH2 0xB9A JUMP JUMPDEST PUSH2 0xBC5 SWAP2 SWAP3 POP PUSH1 0x40 RETURNDATASIZE PUSH1 0x40 GT PUSH2 0x3AF JUMPI PUSH2 0x39F DUP2 DUP4 PUSH2 0x3325 JUMP JUMPDEST POP SWAP1 PUSH0 PUSH2 0xAB0 JUMP JUMPDEST PUSH1 0x40 MLOAD RETURNDATASIZE DUP7 DUP3 RETURNDATACOPY RETURNDATASIZE SWAP1 REVERT JUMPDEST PUSH1 0x3 SLOAD PUSH1 0x1 PUSH1 0x1 PUSH1 0xA0 SHL SUB AND SWAP2 DUP3 EXTCODESIZE ISZERO PUSH2 0x314 JUMPI PUSH1 0x40 MLOAD PUSH4 0x1DF3CBC5 PUSH1 0xE3 SHL DUP2 MSTORE SWAP3 DUP5 SWAP3 DUP5 SWAP3 DUP4 SWAP2 DUP3 SWAP2 PUSH2 0xC0F SWAP2 PUSH1 0x4 DUP5 ADD PUSH2 0x3347 JUMP JUMPDEST SUB SWAP2 CALLVALUE SWAP1 GAS CALL DUP1 ISZERO PUSH2 0x309 JUMPI PUSH2 0xC26 JUMPI JUMPDEST DUP1 PUSH2 0xA5A JUMP JUMPDEST PUSH2 0xC2F SWAP1 PUSH2 0x32E0 JUMP JUMPDEST PUSH2 0x32C JUMPI DUP2 PUSH0 PUSH2 0xC20 JUMP JUMPDEST POP CALLVALUE PUSH2 0x138 JUMPI DUP1 PUSH1 0x3 NOT CALLDATASIZE ADD SLT PUSH2 0x138 JUMPI PUSH1 0x3 SLOAD PUSH1 0x40 MLOAD PUSH1 0x1 PUSH1 0x1 PUSH1 0xA0 SHL SUB SWAP1 SWAP2 AND DUP2 MSTORE PUSH1 0x20 SWAP1 RETURN JUMPDEST POP PUSH2 0x100 CALLDATASIZE PUSH1 0x3 NOT ADD SLT PUSH2 0x138 JUMPI PUSH1 0x4 CALLDATALOAD SWAP1 PUSH2 0xC7D PUSH2 0x3282 JUMP JUMPDEST SWAP2 PUSH1 0x44 CALLDATALOAD SWAP2 PUSH1 0x64 CALLDATALOAD SWAP2 PUSH1 0x84 CALLDATALOAD SWAP5 PUSH1 0xA4 CALLDATALOAD SWAP1 PUSH2 0xC96 PUSH2 0x3777 JUMP JUMPDEST PUSH1 0x2 DUP8 LT ISZERO DUP1 PUSH2 0xF8A JUMPI JUMPDEST ISZERO PUSH2 0xF54 JUMPI PUSH1 0x3C DUP3 LT PUSH2 0xF1C JUMPI PUSH3 0x989680 DUP8 DUP2 MUL SWAP1 DUP2 DIV DUP9 SUB PUSH2 0xF08 JUMPI DUP7 LT PUSH2 0xECC JUMPI PUSH1 0x1 SLOAD PUSH1 0x1 PUSH1 0x1 PUSH1 0xA0 SHL SUB AND SWAP7 DUP8 EXTCODESIZE ISZERO PUSH2 0xEBD JUMPI PUSH1 0x40 MLOAD PUSH4 0xBD79156F PUSH1 0xE0 SHL DUP2 MSTORE PUSH1 0x4 DUP2 ADD DUP6 SWAP1 MSTORE CALLER PUSH1 0x24 DUP3 ADD MSTORE DUP3 ISZERO ISZERO PUSH1 0x44 DUP3 ADD MSTORE PUSH1 0x64 DUP2 ADD DUP9 SWAP1 MSTORE PUSH1 0x84 DUP2 ADD DUP8 SWAP1 MSTORE DUP6 DUP2 PUSH1 0xA4 DUP2 DUP13 GAS STATICCALL DUP1 ISZERO PUSH2 0xEC1 JUMPI SWAP1 DUP7 SWAP2 PUSH2 0xEA9 JUMPI JUMPDEST POP POP PUSH2 0xD2A DUP7 DUP9 PUSH2 0x354B JUMP JUMPDEST SWAP8 PUSH1 0x40 MLOAD SWAP9 DUP10 SWAP2 PUSH4 0xE4D8CBE5 PUSH1 0xE0 SHL DUP4 MSTORE DUP10 PUSH1 0x4 DUP5 ADD MSTORE DUP8 PUSH1 0x24 DUP5 ADD MSTORE DUP3 PUSH1 0x44 PUSH1 0x20 SWAP13 DUP14 SWAP4 GAS STATICCALL SWAP2 DUP3 ISZERO PUSH2 0xE9E JUMPI DUP8 SWAP3 PUSH2 0xE68 JUMPI JUMPDEST POP SWAP1 PUSH1 0x1 SWAP8 DUP3 PUSH2 0xD7D PUSH2 0xD76 DUP5 PUSH1 0xE SWAP9 SWAP8 SWAP7 PUSH2 0x3438 JUMP JUMPDEST ADDRESS CALLER PUSH2 0x3D56 JUMP JUMPDEST PUSH1 0x6 SLOAD SWAP11 PUSH2 0xD8A DUP13 PUSH2 0x36BB JUMP JUMPDEST PUSH1 0x6 SSTORE DUP12 DUP11 MSTORE PUSH1 0x8 DUP14 MSTORE PUSH1 0x40 DUP11 KECCAK256 DUP10 DUP2 SSTORE DUP12 DUP2 ADD DUP1 SLOAD PUSH1 0xFF PUSH1 0xA0 SHL NOT CALLER AND PUSH1 0x1 PUSH1 0x1 PUSH1 0xA8 SHL SUB NOT SWAP1 SWAP2 AND OR SWAP8 ISZERO ISZERO PUSH1 0xA0 SHL PUSH1 0xFF PUSH1 0xA0 SHL AND SWAP8 SWAP1 SWAP8 OR SWAP1 SWAP7 SSTORE PUSH1 0x2 DUP7 ADD SSTORE PUSH1 0x3 DUP6 ADD SSTORE PUSH1 0x4 DUP5 ADD SSTORE PUSH1 0x6 DUP4 ADD PUSH3 0x10004 PUSH3 0xFF00FF NOT DUP3 SLOAD AND OR SWAP1 SSTORE TIMESTAMP PUSH1 0x7 DUP5 ADD SSTORE PUSH1 0x9 DUP4 ADD SSTORE CALLVALUE PUSH1 0xA DUP4 ADD SSTORE PUSH1 0xC4 CALLDATALOAD PUSH1 0xB DUP4 ADD SSTORE PUSH1 0xE4 CALLDATALOAD PUSH1 0xC DUP4 ADD SSTORE PUSH1 0xD DUP3 ADD SSTORE ADD SSTORE CALLER DUP3 MSTORE PUSH1 0xA DUP6 MSTORE PUSH2 0xE26 DUP5 PUSH1 0x40 DUP5 KECCAK256 PUSH2 0x36C9 JUMP JUMPDEST PUSH1 0x40 MLOAD SWAP1 DUP2 MSTORE PUSH1 0x4 DUP6 DUP3 ADD MSTORE DUP2 PUSH1 0x40 DUP3 ADD MSTORE DUP4 PUSH32 0x401524BECCFF0D9DD3447788DEA32E11F3B7C9618ED6084F14A773DBF2025F16 PUSH1 0x60 CALLER SWAP4 LOG3 SSTORE PUSH1 0x40 MLOAD SWAP1 DUP2 MSTORE RETURN JUMPDEST SWAP4 SWAP3 SWAP2 POP DUP10 DUP5 DUP2 RETURNDATASIZE DUP4 GT PUSH2 0xE97 JUMPI JUMPDEST PUSH2 0xE81 DUP2 DUP4 PUSH2 0x3325 JUMP JUMPDEST DUP2 ADD SUB SLT PUSH2 0x5AE JUMPI SWAP3 MLOAD SWAP2 SWAP3 SWAP1 SWAP2 SWAP1 PUSH1 0x1 PUSH2 0xD5F JUMP JUMPDEST POP RETURNDATASIZE PUSH2 0xE77 JUMP JUMPDEST PUSH1 0x40 MLOAD RETURNDATASIZE DUP10 DUP3 RETURNDATACOPY RETURNDATASIZE SWAP1 REVERT JUMPDEST PUSH2 0xEB2 SWAP1 PUSH2 0x32E0 JUMP JUMPDEST PUSH2 0xEBD JUMPI DUP5 PUSH0 PUSH2 0xD1E JUMP JUMPDEST DUP5 DUP1 REVERT JUMPDEST PUSH1 0x40 MLOAD RETURNDATASIZE DUP9 DUP3 RETURNDATACOPY RETURNDATASIZE SWAP1 REVERT JUMPDEST PUSH1 0x40 MLOAD PUSH3 0x461BCD PUSH1 0xE5 SHL DUP2 MSTORE PUSH1 0x20 PUSH1 0x4 DUP3 ADD MSTORE PUSH1 0x14 PUSH1 0x24 DUP3 ADD MSTORE PUSH20 0x14DB1A58D9481CDA5E99481D1BDBC81CDB585B1B PUSH1 0x62 SHL PUSH1 0x44 DUP3 ADD MSTORE PUSH1 0x64 SWAP1 REVERT JUMPDEST PUSH4 0x4E487B71 PUSH1 0xE0 SHL DUP6 MSTORE PUSH1 0x11 PUSH1 0x4 MSTORE PUSH1 0x24 DUP6 REVERT JUMPDEST PUSH1 0x40 MLOAD PUSH3 0x461BCD PUSH1 0xE5 SHL DUP2 MSTORE PUSH1 0x20 PUSH1 0x4 DUP3 ADD MSTORE PUSH1 0x10 PUSH1 0x24 DUP3 ADD MSTORE PUSH16 0x135A5B880D8C1CC81A5B9D195C9D985B PUSH1 0x82 SHL PUSH1 0x44 DUP3 ADD MSTORE PUSH1 0x64 SWAP1 REVERT JUMPDEST PUSH1 0x40 MLOAD PUSH3 0x461BCD PUSH1 0xE5 SHL DUP2 MSTORE PUSH1 0x20 PUSH1 0x4 DUP3 ADD MSTORE PUSH1 0xE PUSH1 0x24 DUP3 ADD MSTORE PUSH14 0x496E76616C696420736C69636573 PUSH1 0x90 SHL PUSH1 0x44 DUP3 ADD MSTORE PUSH1 0x64 SWAP1 REVERT JUMPDEST POP PUSH1 0x64 DUP8 GT ISZERO PUSH2 0xCA1 JUMP JUMPDEST POP PUSH2 0x120 CALLDATASIZE PUSH1 0x3 NOT ADD SLT PUSH2 0x138 JUMPI PUSH2 0xFAB PUSH2 0x3282 JUMP JUMPDEST SWAP1 PUSH1 0xA4 CALLDATALOAD SWAP1 PUSH1 0xFF DUP3 AND DUP3 SUB PUSH2 0x138 JUMPI PUSH1 0xC4 CALLDATALOAD SWAP2 DUP3 ISZERO ISZERO DUP4 SUB PUSH2 0x5AE JUMPI PUSH2 0xFCF PUSH2 0x3777 JUMP JUMPDEST PUSH2 0xFE0 PUSH3 0x989680 PUSH1 0x44 CALLDATALOAD LT ISZERO PUSH2 0x35B5 JUMP JUMPDEST PUSH1 0x1 PUSH1 0xFF DUP3 AND GT PUSH2 0x12A5 JUMPI PUSH1 0xE4 CALLDATALOAD PUSH2 0x1260 JUMPI JUMPDEST PUSH2 0x104 CALLDATALOAD PUSH2 0x1219 JUMPI JUMPDEST PUSH1 0x1 SLOAD PUSH1 0x1 PUSH1 0x1 PUSH1 0xA0 SHL SUB AND DUP1 EXTCODESIZE ISZERO PUSH2 0x1215 JUMPI PUSH1 0x40 MLOAD PUSH4 0xBD79156F PUSH1 0xE0 SHL DUP2 MSTORE PUSH1 0x4 DUP1 CALLDATALOAD SWAP1 DUP3 ADD MSTORE CALLER PUSH1 0x24 DUP3 ADD MSTORE DUP6 ISZERO ISZERO PUSH1 0x44 DUP1 DUP4 ADD SWAP2 SWAP1 SWAP2 MSTORE CALLDATALOAD PUSH1 0x64 DUP1 DUP4 ADD SWAP2 SWAP1 SWAP2 MSTORE CALLDATALOAD PUSH1 0x84 DUP3 ADD MSTORE DUP4 DUP2 PUSH1 0xA4 DUP2 DUP6 GAS STATICCALL DUP1 ISZERO PUSH2 0xBCD JUMPI SWAP1 DUP5 SWAP2 PUSH2 0x1201 JUMPI JUMPDEST POP POP PUSH1 0x20 PUSH1 0x44 SWAP2 PUSH1 0x40 MLOAD SWAP3 DUP4 DUP1 SWAP3 PUSH4 0xE4D8CBE5 PUSH1 0xE0 SHL DUP3 MSTORE DUP3 CALLDATALOAD PUSH1 0x4 DUP4 ADD MSTORE PUSH1 0xFF DUP8 AND ISZERO PUSH1 0x24 DUP4 ADD MSTORE GAS STATICCALL SWAP1 DUP2 ISZERO PUSH2 0x330 JUMPI DUP4 SWAP2 PUSH2 0x11C8 JUMPI JUMPDEST POP SWAP1 PUSH1 0x20 SWAP5 PUSH1 0x1 SWAP4 SWAP3 PUSH2 0x10AC PUSH1 0x64 CALLDATALOAD PUSH1 0x44 CALLDATALOAD PUSH2 0x354B JUMP JUMPDEST SWAP6 PUSH2 0x10BA PUSH2 0xD76 DUP4 DUP10 PUSH2 0x3438 JUMP JUMPDEST PUSH1 0x6 SLOAD SWAP7 PUSH2 0x10C7 DUP9 PUSH2 0x36BB JUMP JUMPDEST PUSH1 0x6 SSTORE DUP8 DUP7 MSTORE PUSH1 0x8 DUP10 MSTORE PUSH1 0x40 DUP7 KECCAK256 PUSH1 0x4 CALLDATALOAD DUP2 SSTORE DUP8 DUP2 ADD DUP1 SLOAD PUSH1 0xFF PUSH1 0xA0 SHL NOT CALLER AND PUSH1 0x1 PUSH1 0x1 PUSH1 0xA8 SHL SUB NOT SWAP1 SWAP2 AND OR SWAP6 ISZERO ISZERO PUSH1 0xA0 SHL PUSH1 0xFF PUSH1 0xA0 SHL AND SWAP6 SWAP1 SWAP6 OR SWAP1 SWAP5 SSTORE PUSH1 0x44 CALLDATALOAD PUSH1 0x2 DUP6 ADD SSTORE PUSH1 0x3 DUP5 ADD SSTORE PUSH1 0x64 CALLDATALOAD PUSH1 0x4 DUP5 ADD SSTORE PUSH1 0x84 CALLDATALOAD PUSH1 0x5 DUP5 ADD SSTORE PUSH3 0x10000 PUSH1 0x6 DUP5 ADD SWAP2 PUSH2 0xFF00 DUP4 SLOAD SWAP2 ISZERO ISZERO PUSH1 0x8 SHL AND SWAP1 PUSH1 0xFF DUP8 AND SWAP1 PUSH3 0xFFFFFF NOT AND OR OR OR SWAP1 SSTORE TIMESTAMP PUSH1 0x7 DUP4 ADD SSTORE PUSH1 0x9 DUP3 ADD SSTORE CALLVALUE PUSH1 0xA DUP3 ADD SSTORE PUSH1 0xE4 CALLDATALOAD PUSH1 0xB DUP3 ADD SSTORE PUSH1 0xC PUSH2 0x104 CALLDATALOAD SWAP2 ADD SSTORE CALLER DUP3 MSTORE PUSH1 0xA DUP6 MSTORE PUSH2 0x1180 DUP5 PUSH1 0x40 DUP5 KECCAK256 PUSH2 0x36C9 JUMP JUMPDEST PUSH1 0xFF PUSH1 0x40 MLOAD SWAP2 PUSH1 0x4 CALLDATALOAD DUP4 MSTORE AND DUP6 DUP3 ADD MSTORE PUSH1 0x84 CALLDATALOAD PUSH1 0x40 DUP3 ADD MSTORE DUP4 PUSH32 0x401524BECCFF0D9DD3447788DEA32E11F3B7C9618ED6084F14A773DBF2025F16 PUSH1 0x60 CALLER SWAP4 LOG3 SSTORE PUSH1 0x40 MLOAD SWAP1 DUP2 MSTORE RETURN JUMPDEST SWAP3 SWAP2 SWAP1 POP PUSH1 0x20 DUP4 RETURNDATASIZE PUSH1 0x20 GT PUSH2 0x11F9 JUMPI JUMPDEST DUP2 PUSH2 0x11E5 PUSH1 0x20 SWAP4 DUP4 PUSH2 0x3325 JUMP JUMPDEST DUP2 ADD SUB SLT PUSH2 0x5AE JUMPI SWAP2 MLOAD SWAP1 SWAP2 SWAP1 PUSH1 0x20 PUSH2 0x1095 JUMP JUMPDEST RETURNDATASIZE SWAP2 POP PUSH2 0x11D8 JUMP JUMPDEST PUSH2 0x120A SWAP1 PUSH2 0x32E0 JUMP JUMPDEST PUSH2 0x1215 JUMPI DUP3 PUSH0 PUSH2 0x105C JUMP JUMPDEST DUP3 DUP1 REVERT JUMPDEST DUP4 ISZERO PUSH2 0x1249 JUMPI PUSH1 0x84 CALLDATALOAD PUSH2 0x104 CALLDATALOAD LT DUP1 ISZERO PUSH2 0x123C JUMPI JUMPDEST PUSH2 0x1237 SWAP1 PUSH2 0x3631 JUMP JUMPDEST PUSH2 0xFFC JUMP JUMPDEST POP PUSH1 0xFF DUP2 AND PUSH1 0x2 EQ PUSH2 0x122E JUMP JUMPDEST PUSH1 0x84 CALLDATALOAD PUSH2 0x104 CALLDATALOAD GT DUP1 ISZERO PUSH2 0x123C JUMPI PUSH2 0x1237 SWAP1 PUSH2 0x3631 JUMP JUMPDEST DUP4 ISZERO PUSH2 0x128F JUMPI PUSH1 0x84 CALLDATALOAD PUSH1 0xE4 CALLDATALOAD GT DUP1 ISZERO PUSH2 0x1282 JUMPI JUMPDEST PUSH2 0x127D SWAP1 PUSH2 0x35F2 JUMP JUMPDEST PUSH2 0xFF3 JUMP JUMPDEST POP PUSH1 0xFF DUP2 AND PUSH1 0x2 EQ PUSH2 0x1274 JUMP JUMPDEST PUSH1 0x84 CALLDATALOAD PUSH1 0xE4 CALLDATALOAD LT DUP1 ISZERO PUSH2 0x1282 JUMPI PUSH2 0x127D SWAP1 PUSH2 0x35F2 JUMP JUMPDEST PUSH1 0x40 MLOAD PUSH3 0x461BCD PUSH1 0xE5 SHL DUP2 MSTORE PUSH1 0x20 PUSH1 0x4 DUP3 ADD MSTORE PUSH1 0x1F PUSH1 0x24 DUP3 ADD MSTORE PUSH32 0x55736520706C6163654D61726B65744F7264657220666F72206D61726B657400 PUSH1 0x44 DUP3 ADD MSTORE PUSH1 0x64 SWAP1 REVERT JUMPDEST POP CALLVALUE PUSH2 0x138 JUMPI PUSH2 0x12F9 CALLDATASIZE PUSH2 0x3291 JUMP JUMPDEST PUSH1 0x1 PUSH1 0x1 PUSH1 0xA0 SHL SUB SWAP1 SWAP2 AND DUP3 MSTORE PUSH1 0x9 PUSH1 0x20 MSTORE PUSH1 0x40 DUP3 KECCAK256 DUP1 SLOAD SWAP2 SWAP3 SWAP1 SWAP2 DUP4 LT ISZERO PUSH2 0x138 JUMPI PUSH1 0x20 PUSH2 0xA2F DUP5 DUP5 PUSH2 0x32B7 JUMP JUMPDEST POP CALLVALUE PUSH2 0x138 JUMPI PUSH1 0x20 CALLDATASIZE PUSH1 0x3 NOT ADD SLT PUSH2 0x138 JUMPI PUSH1 0x4 CALLDATALOAD PUSH2 0x1345 PUSH2 0x3777 JUMP JUMPDEST DUP1 DUP3 MSTORE PUSH1 0x8 PUSH1 0x20 MSTORE DUP2 PUSH1 0xA PUSH1 0x40 DUP3 KECCAK256 PUSH1 0xFF PUSH1 0x6 DUP3 ADD DUP1 SLOAD SWAP1 PUSH2 0x136B DUP4 DUP4 PUSH1 0x10 SHR AND PUSH2 0x33E9 JUMP JUMPDEST PUSH2 0x1382 PUSH1 0x1 DUP1 PUSH1 0xA0 SHL SUB PUSH1 0x1 DUP7 ADD SLOAD AND CALLER EQ PUSH2 0x3670 JUMP JUMPDEST PUSH3 0xFF0000 NOT DUP3 AND SWAP1 SSTORE AND PUSH1 0x2 NOT DUP2 ADD PUSH2 0x1420 JUMPI JUMPDEST POP ADD SLOAD DUP1 PUSH2 0x13CB JUMPI JUMPDEST POP DUP1 PUSH32 0x61B9399F2F0F32CA39CE8D7BE32CAED5EC22FE07A6DABA3A467ED479EC606582 SWAP2 LOG2 PUSH1 0x1 DUP2 SSTORE DUP1 RETURN JUMPDEST DUP2 DUP1 DUP1 SWAP3 CALLER GAS CALL PUSH2 0x13DA PUSH2 0x3569 JUMP JUMPDEST POP ISZERO PUSH2 0x13E7 JUMPI DUP2 PUSH0 PUSH2 0x139F JUMP JUMPDEST PUSH1 0x40 MLOAD PUSH3 0x461BCD PUSH1 0xE5 SHL DUP2 MSTORE PUSH1 0x20 PUSH1 0x4 DUP3 ADD MSTORE PUSH1 0x11 PUSH1 0x24 DUP3 ADD MSTORE PUSH17 0x115512081C99599D5B990819985A5B1959 PUSH1 0x7A SHL PUSH1 0x44 DUP3 ADD MSTORE PUSH1 0x64 SWAP1 REVERT JUMPDEST PUSH1 0x3 DUP3 ADD SLOAD PUSH1 0x4 PUSH1 0x9 DUP5 ADD SLOAD SWAP3 EQ DUP1 PUSH2 0x14A2 JUMPI JUMPDEST PUSH2 0x1468 JUMPI JUMPDEST PUSH2 0x1443 DUP3 DUP3 PUSH2 0x3438 JUMP JUMPDEST PUSH2 0x144E JUMPI JUMPDEST POP PUSH2 0x1396 JUMP JUMPDEST PUSH2 0x1461 SWAP2 PUSH2 0x145B SWAP2 PUSH2 0x3438 JUMP JUMPDEST CALLER PUSH2 0x3CA8 JUMP JUMPDEST PUSH0 DUP1 PUSH2 0x1448 JUMP JUMPDEST PUSH2 0x149C SWAP1 PUSH2 0x1491 PUSH1 0xD DUP6 ADD SLOAD SWAP2 PUSH2 0x1496 DUP4 PUSH2 0x1491 PUSH2 0x148A PUSH1 0xF DUP11 ADD SLOAD DUP4 PUSH2 0x35A8 JUMP JUMPDEST DUP1 SWAP5 PUSH2 0x36A8 JUMP JUMPDEST PUSH2 0x354B JUMP JUMPDEST SWAP5 PUSH2 0x36A8 JUMP JUMPDEST SWAP1 PUSH2 0x1439 JUMP JUMPDEST POP PUSH1 0xF DUP4 ADD SLOAD ISZERO ISZERO PUSH2 0x1434 JUMP JUMPDEST POP CALLVALUE PUSH2 0x138 JUMPI DUP1 PUSH1 0x3 NOT CALLDATASIZE ADD SLT PUSH2 0x138 JUMPI PUSH1 0x4 SLOAD PUSH1 0x40 MLOAD PUSH1 0x1 PUSH1 0x1 PUSH1 0xA0 SHL SUB SWAP1 SWAP2 AND DUP2 MSTORE PUSH1 0x20 SWAP1 RETURN JUMPDEST POP PUSH1 0xE0 CALLDATASIZE PUSH1 0x3 NOT ADD SLT PUSH2 0x138 JUMPI PUSH2 0x14ED PUSH2 0x3282 JUMP JUMPDEST DUP2 PUSH1 0xC4 CALLDATALOAD PUSH8 0xFFFFFFFFFFFFFFFF DUP2 GT PUSH2 0x32C JUMPI PUSH2 0x150E SWAP1 CALLDATASIZE SWAP1 PUSH1 0x4 ADD PUSH2 0x321D JUMP JUMPDEST SWAP1 PUSH2 0x1517 PUSH2 0x3777 JUMP JUMPDEST PUSH2 0x1528 PUSH3 0x989680 PUSH1 0x44 CALLDATALOAD LT ISZERO PUSH2 0x35B5 JUMP JUMPDEST DUP2 PUSH2 0x1CEC JUMPI JUMPDEST POP POP PUSH1 0x3 SLOAD PUSH1 0x40 DUP1 MLOAD PUSH4 0x31D98B3F PUSH1 0xE0 SHL DUP2 MSTORE PUSH1 0x4 DUP1 CALLDATALOAD SWAP1 DUP3 ADD MSTORE SWAP3 POP SWAP1 DUP3 SWAP1 PUSH1 0x24 SWAP1 DUP3 SWAP1 PUSH1 0x1 PUSH1 0x1 PUSH1 0xA0 SHL SUB AND GAS STATICCALL SWAP1 DUP2 ISZERO PUSH2 0x330 JUMPI DUP4 SWAP2 PUSH2 0x1CCC JUMPI JUMPDEST POP PUSH1 0x84 CALLDATALOAD PUSH2 0x1CA7 JUMPI JUMPDEST PUSH1 0xA4 CALLDATALOAD PUSH2 0x1C82 JUMPI JUMPDEST PUSH1 0x1 SLOAD PUSH1 0x1 PUSH1 0x1 PUSH1 0xA0 SHL SUB AND SWAP2 DUP3 EXTCODESIZE ISZERO PUSH2 0x314 JUMPI PUSH1 0x40 MLOAD PUSH4 0xBD79156F PUSH1 0xE0 SHL DUP2 MSTORE PUSH1 0x4 DUP1 CALLDATALOAD SWAP1 DUP3 ADD MSTORE CALLER PUSH1 0x24 DUP3 ADD MSTORE DUP2 ISZERO ISZERO PUSH1 0x44 DUP1 DUP4 ADD SWAP2 SWAP1 SWAP2 MSTORE CALLDATALOAD PUSH1 0x64 DUP1 DUP4 ADD SWAP2 SWAP1 SWAP2 MSTORE CALLDATALOAD PUSH1 0x84 DUP3 ADD MSTORE DUP5 SWAP1 DUP2 DUP2 PUSH1 0xA4 DUP2 DUP9 GAS STATICCALL DUP1 ISZERO PUSH2 0x309 JUMPI PUSH2 0x1C6E JUMPI JUMPDEST POP POP PUSH1 0x20 PUSH1 0x44 SWAP4 PUSH1 0x40 MLOAD SWAP5 DUP6 DUP1 SWAP3 PUSH4 0xE4D8CBE5 PUSH1 0xE0 SHL DUP3 MSTORE DUP3 CALLDATALOAD PUSH1 0x4 DUP4 ADD MSTORE DUP9 PUSH1 0x24 DUP4 ADD MSTORE GAS STATICCALL SWAP3 DUP4 ISZERO PUSH2 0xBCD JUMPI DUP5 SWAP4 PUSH2 0x1C3A JUMPI JUMPDEST POP PUSH2 0x1621 PUSH1 0x64 CALLDATALOAD PUSH1 0x44 CALLDATALOAD PUSH2 0x354B JUMP JUMPDEST SWAP3 PUSH2 0x162F PUSH2 0xD76 DUP3 DUP7 PUSH2 0x3438 JUMP JUMPDEST PUSH1 0x40 MLOAD SWAP4 PUSH2 0x163C DUP6 PUSH2 0x3308 JUMP JUMPDEST DUP6 PUSH1 0xC0 DUP7 ADD MSTORE DUP6 PUSH2 0x100 DUP7 ADD MSTORE DUP6 PUSH2 0x140 DUP7 ADD MSTORE DUP6 PUSH2 0x160 DUP7 ADD MSTORE DUP6 PUSH2 0x1A0 DUP7 ADD MSTORE DUP6 PUSH2 0x200 DUP7 ADD MSTORE DUP6 PUSH2 0x220 DUP7 ADD MSTORE DUP6 PUSH2 0x240 DUP7 ADD MSTORE DUP6 PUSH2 0x260 DUP7 ADD MSTORE PUSH1 0x4 CALLDATALOAD DUP6 MSTORE CALLER PUSH1 0x20 DUP7 ADD MSTORE DUP3 ISZERO ISZERO PUSH1 0x40 DUP7 ADD MSTORE PUSH1 0x44 CALLDATALOAD PUSH1 0x60 DUP7 ADD MSTORE PUSH1 0x80 DUP6 ADD MSTORE PUSH1 0x64 CALLDATALOAD PUSH1 0xA0 DUP6 ADD MSTORE PUSH1 0x2 PUSH1 0xE0 DUP6 ADD MSTORE PUSH1 0x1 PUSH2 0x120 DUP6 ADD MSTORE PUSH2 0x180 DUP5 ADD MSTORE PUSH1 0x84 CALLDATALOAD PUSH2 0x1C0 DUP5 ADD MSTORE PUSH1 0xA4 CALLDATALOAD PUSH2 0x1E0 DUP5 ADD MSTORE PUSH1 0x20 PUSH1 0x1 DUP1 PUSH1 0xA0 SHL SUB PUSH1 0x1 SLOAD AND SWAP2 PUSH1 0x64 PUSH1 0x40 MLOAD DUP1 SWAP5 DUP2 SWAP4 PUSH4 0xB391DECF PUSH1 0xE0 SHL DUP4 MSTORE PUSH1 0x4 CALLDATALOAD PUSH1 0x4 DUP5 ADD MSTORE ISZERO ISZERO PUSH1 0x24 DUP4 ADD MSTORE PUSH1 0x44 CALLDATALOAD PUSH1 0x44 DUP4 ADD MSTORE GAS STATICCALL SWAP1 DUP2 ISZERO PUSH2 0xBCD JUMPI DUP5 SWAP2 PUSH2 0x1C08 JUMPI JUMPDEST POP DUP2 DUP5 DUP3 SGT ISZERO PUSH2 0x1BB4 JUMPI POP PUSH2 0x1729 PUSH2 0x2710 SWAP2 DUP4 PUSH2 0x36A8 JUMP JUMPDEST DIV PUSH1 0x40 DUP4 ADD MLOAD ISZERO ISZERO PUSH0 EQ PUSH2 0x1BA6 JUMPI PUSH2 0x1740 SWAP2 PUSH2 0x3438 JUMP JUMPDEST PUSH1 0x5 SLOAD SWAP1 PUSH2 0x174D DUP3 PUSH2 0x36BB JUMP JUMPDEST PUSH1 0x5 SSTORE DUP2 DUP5 MSTORE PUSH1 0x7 PUSH1 0x20 SWAP1 DUP2 MSTORE PUSH1 0x40 DUP1 DUP7 KECCAK256 DUP6 MLOAD DUP2 SSTORE SWAP2 DUP6 ADD MLOAD PUSH1 0x1 DUP4 ADD DUP1 SLOAD SWAP3 DUP8 ADD MLOAD PUSH1 0x1 PUSH1 0x1 PUSH1 0xA8 SHL SUB NOT SWAP1 SWAP4 AND PUSH1 0x1 PUSH1 0x1 PUSH1 0xA0 SHL SUB SWAP3 SWAP1 SWAP3 AND SWAP2 SWAP1 SWAP2 OR SWAP2 ISZERO ISZERO PUSH1 0xA0 DUP2 SWAP1 SHL PUSH1 0xFF PUSH1 0xA0 SHL AND SWAP3 SWAP1 SWAP3 OR SWAP1 SSTORE DUP6 SWAP2 SWAP1 PUSH2 0x17D4 SWAP1 JUMPDEST PUSH1 0x60 DUP8 ADD MLOAD PUSH1 0x2 DUP5 ADD SSTORE PUSH1 0x80 DUP8 ADD MLOAD PUSH1 0x3 DUP5 ADD SSTORE DUP5 PUSH1 0x4 DUP5 ADD SSTORE PUSH1 0xA0 DUP8 ADD MLOAD DUP1 PUSH1 0x5 DUP6 ADD SSTORE DUP6 PUSH2 0x3E02 JUMP JUMPDEST PUSH1 0x6 DUP3 ADD SSTORE TIMESTAMP PUSH1 0x7 DUP3 ADD SSTORE PUSH1 0x8 DUP2 ADD PUSH1 0x1 PUSH1 0xFF NOT DUP3 SLOAD AND OR SWAP1 SSTORE PUSH2 0x1C0 DUP6 ADD MLOAD PUSH1 0x9 DUP3 ADD SSTORE PUSH2 0x1E0 DUP6 ADD MLOAD PUSH1 0xA DUP3 ADD SSTORE PUSH1 0x20 PUSH1 0x1 DUP1 PUSH1 0xA0 SHL SUB PUSH1 0x1 SLOAD AND PUSH1 0x24 DUP8 MLOAD PUSH1 0x40 MLOAD SWAP6 DUP7 SWAP4 DUP5 SWAP3 PUSH4 0x7CC6765F PUSH1 0xE1 SHL DUP5 MSTORE PUSH1 0x4 DUP5 ADD MSTORE GAS CALL SWAP2 DUP3 ISZERO PUSH2 0xEC1 JUMPI DUP7 SWAP3 PUSH2 0x1B71 JUMPI JUMPDEST POP PUSH1 0xB ADD SSTORE PUSH1 0x1 SLOAD DUP4 MLOAD PUSH1 0x20 DUP6 ADD MLOAD PUSH1 0x40 DUP7 ADD MLOAD PUSH1 0x60 DUP8 ADD MLOAD DUP9 SWAP5 SWAP1 SWAP4 SWAP3 SWAP2 ISZERO ISZERO SWAP2 PUSH1 0x1 PUSH1 0x1 PUSH1 0xA0 SHL SUB SWAP2 DUP3 AND SWAP2 AND DUP2 EXTCODESIZE ISZERO PUSH2 0x305 JUMPI PUSH1 0x40 MLOAD PUSH4 0xB65B361F PUSH1 0xE0 SHL DUP2 MSTORE PUSH1 0x4 DUP2 ADD SWAP5 SWAP1 SWAP5 MSTORE PUSH1 0x1 PUSH1 0x1 PUSH1 0xA0 SHL SUB AND PUSH1 0x24 DUP5 ADD MSTORE SWAP1 ISZERO ISZERO PUSH1 0x44 DUP4 ADD MSTORE PUSH1 0x64 DUP3 ADD SWAP3 SWAP1 SWAP3 MSTORE SWAP1 DUP3 SWAP1 DUP3 SWAP1 PUSH1 0x84 SWAP1 DUP3 SWAP1 DUP5 SWAP1 GAS CALL DUP1 ISZERO PUSH2 0x309 JUMPI PUSH2 0x1B5D JUMPI JUMPDEST POP POP PUSH1 0x2 SLOAD PUSH1 0x80 DUP5 ADD MLOAD PUSH2 0x18DA SWAP2 PUSH1 0x1 PUSH1 0x1 PUSH1 0xA0 SHL SUB AND PUSH2 0x3CA8 JUMP JUMPDEST PUSH1 0x2 SLOAD PUSH1 0x80 DUP5 ADD MLOAD DUP6 SWAP2 PUSH1 0x1 PUSH1 0x1 PUSH1 0xA0 SHL SUB AND SWAP1 DUP2 EXTCODESIZE ISZERO PUSH2 0x1215 JUMPI DUP3 SWAP2 PUSH1 0x24 DUP4 SWAP3 PUSH1 0x40 MLOAD SWAP5 DUP6 SWAP4 DUP5 SWAP3 PUSH4 0x6E93AE2B PUSH1 0xE0 SHL DUP5 MSTORE PUSH1 0x4 DUP5 ADD MSTORE GAS CALL DUP1 ISZERO PUSH2 0x309 JUMPI PUSH2 0x1B49 JUMPI JUMPDEST POP POP PUSH2 0x180 DUP4 ADD MLOAD PUSH1 0x1 SLOAD PUSH1 0x40 DUP1 MLOAD PUSH4 0x1DB04579 PUSH1 0xE1 SHL DUP2 MSTORE PUSH1 0x4 DUP2 ADD SWAP4 SWAP1 SWAP4 MSTORE DUP7 SWAP2 DUP4 SWAP1 PUSH1 0x24 SWAP1 DUP3 SWAP1 PUSH1 0x1 PUSH1 0x1 PUSH1 0xA0 SHL SUB AND GAS STATICCALL SWAP2 DUP3 ISZERO PUSH2 0x1B3C JUMPI DUP2 SWAP1 DUP3 SWAP4 PUSH2 0x1B18 JUMPI JUMPDEST POP DUP1 PUSH2 0x1AAF JUMPI JUMPDEST POP POP DUP1 PUSH2 0x1A12 JUMPI JUMPDEST POP PUSH1 0xA0 PUSH0 DUP1 MLOAD PUSH1 0x20 PUSH2 0x3F9C DUP4 CODECOPY DUP2 MLOAD SWAP2 MSTORE SWAP2 PUSH1 0x1 DUP1 DUP4 SHL SUB PUSH1 0x20 DUP7 ADD MLOAD AND DUP7 MSTORE PUSH1 0x9 PUSH1 0x20 MSTORE PUSH2 0x19A5 DUP5 PUSH1 0x40 DUP9 KECCAK256 PUSH2 0x36C9 JUMP JUMPDEST PUSH1 0x1 DUP1 DUP4 SHL SUB PUSH1 0x20 DUP7 ADD MLOAD AND SWAP5 DUP1 MLOAD SWAP2 PUSH1 0x40 DUP3 ADD MLOAD ISZERO ISZERO SWAP2 DUP5 PUSH1 0x60 DUP3 ADD MLOAD SWAP2 ADD MLOAD SWAP3 PUSH1 0x40 MLOAD SWAP5 DUP6 MSTORE PUSH1 0x20 DUP6 ADD MSTORE PUSH1 0x40 DUP5 ADD MSTORE PUSH1 0x60 DUP4 ADD MSTORE PUSH1 0x80 DUP3 ADD MSTORE LOG3 PUSH1 0x5 SLOAD PUSH0 NOT DUP2 ADD SWAP1 DUP2 GT PUSH2 0x19FE JUMPI PUSH1 0x1 PUSH1 0x20 SWAP3 SSTORE PUSH1 0x40 MLOAD SWAP1 DUP2 MSTORE RETURN JUMPDEST PUSH4 0x4E487B71 PUSH1 0xE0 SHL DUP3 MSTORE PUSH1 0x11 PUSH1 0x4 MSTORE PUSH1 0x24 DUP3 REVERT JUMPDEST PUSH1 0x1 SLOAD PUSH1 0x40 MLOAD PUSH4 0x61D027B3 PUSH1 0xE0 SHL DUP2 MSTORE SWAP1 PUSH1 0x20 SWAP1 DUP3 SWAP1 PUSH1 0x4 SWAP1 DUP3 SWAP1 PUSH1 0x1 PUSH1 0x1 PUSH1 0xA0 SHL SUB AND GAS STATICCALL SWAP1 DUP2 ISZERO PUSH2 0xEC1 JUMPI DUP7 SWAP2 PUSH2 0x1A69 JUMPI JUMPDEST POP SWAP2 PUSH2 0x1A62 PUSH1 0xA0 SWAP3 PUSH0 DUP1 MLOAD PUSH1 0x20 PUSH2 0x3F9C DUP4 CODECOPY DUP2 MLOAD SWAP2 MSTORE SWAP5 PUSH2 0x3CA8 JUMP JUMPDEST SWAP2 POP PUSH2 0x1973 JUMP JUMPDEST SWAP1 POP PUSH1 0x20 DUP2 RETURNDATASIZE PUSH1 0x20 GT PUSH2 0x1AA7 JUMPI JUMPDEST DUP2 PUSH2 0x1A84 PUSH1 0x20 SWAP4 DUP4 PUSH2 0x3325 JUMP JUMPDEST DUP2 ADD SUB SLT PUSH2 0x305 JUMPI MLOAD SWAP2 PUSH1 0x1 PUSH1 0x1 PUSH1 0xA0 SHL SUB DUP4 AND DUP4 SUB PUSH2 0x305 JUMPI SWAP2 PUSH2 0x1A62 PUSH2 0x1A46 JUMP JUMPDEST RETURNDATASIZE SWAP2 POP PUSH2 0x1A77 JUMP JUMPDEST PUSH1 0x2 SLOAD PUSH2 0x1AC6 SWAP1 DUP3 SWAP1 PUSH1 0x1 PUSH1 0x1 PUSH1 0xA0 SHL SUB AND PUSH2 0x3CA8 JUMP JUMPDEST PUSH1 0x2 SLOAD PUSH1 0x1 PUSH1 0x1 PUSH1 0xA0 SHL SUB AND SWAP1 DUP2 EXTCODESIZE ISZERO PUSH2 0x1215 JUMPI DUP3 SWAP2 PUSH1 0x24 DUP4 SWAP3 PUSH1 0x40 MLOAD SWAP5 DUP6 SWAP4 DUP5 SWAP3 PUSH4 0x2102C97 PUSH1 0xE1 SHL DUP5 MSTORE PUSH1 0x4 DUP5 ADD MSTORE GAS CALL DUP1 ISZERO PUSH2 0x309 JUMPI ISZERO PUSH2 0x196B JUMPI PUSH2 0x1B0D SWAP1 PUSH2 0x32E0 JUMP JUMPDEST PUSH2 0xEBD JUMPI DUP5 PUSH0 PUSH2 0x196B JUMP JUMPDEST SWAP1 POP PUSH2 0x1B34 SWAP2 SWAP3 POP PUSH1 0x40 RETURNDATASIZE PUSH1 0x40 GT PUSH2 0x3AF JUMPI PUSH2 0x39F DUP2 DUP4 PUSH2 0x3325 JUMP JUMPDEST SWAP2 SWAP1 PUSH0 PUSH2 0x1964 JUMP JUMPDEST POP PUSH1 0x40 MLOAD SWAP1 RETURNDATASIZE SWAP1 DUP3 RETURNDATACOPY RETURNDATASIZE SWAP1 REVERT JUMPDEST PUSH2 0x1B52 SWAP1 PUSH2 0x32E0 JUMP JUMPDEST PUSH2 0x314 JUMPI DUP4 PUSH0 PUSH2 0x191F JUMP JUMPDEST PUSH2 0x1B66 SWAP1 PUSH2 0x32E0 JUMP JUMPDEST PUSH2 0x314 JUMPI DUP4 PUSH0 PUSH2 0x18BE JUMP JUMPDEST SWAP1 SWAP2 POP PUSH1 0x20 DUP2 RETURNDATASIZE PUSH1 0x20 GT PUSH2 0x1B9E JUMPI JUMPDEST DUP2 PUSH2 0x1B8D PUSH1 0x20 SWAP4 DUP4 PUSH2 0x3325 JUMP JUMPDEST DUP2 ADD SUB SLT PUSH2 0x5AE JUMPI MLOAD SWAP1 PUSH1 0xB PUSH2 0x183C JUMP JUMPDEST RETURNDATASIZE SWAP2 POP PUSH2 0x1B80 JUMP JUMPDEST PUSH2 0x1BAF SWAP2 PUSH2 0x35A8 JUMP JUMPDEST PUSH2 0x1740 JUMP JUMPDEST SWAP1 DUP5 DUP2 SLT PUSH2 0x1BC4 JUMPI JUMPDEST POP POP PUSH2 0x1740 JUMP JUMPDEST PUSH2 0x2710 SWAP2 SWAP3 POP PUSH2 0x1BD6 PUSH2 0x1BDC SWAP2 PUSH2 0x3798 JUMP JUMPDEST DUP4 PUSH2 0x36A8 JUMP JUMPDEST DIV PUSH1 0x40 DUP4 ADD MLOAD ISZERO ISZERO PUSH0 EQ PUSH2 0x1BFA JUMPI PUSH2 0x1BF3 SWAP2 PUSH2 0x35A8 JUMP JUMPDEST PUSH0 DUP1 PUSH2 0x1BBD JUMP JUMPDEST PUSH2 0x1C03 SWAP2 PUSH2 0x3438 JUMP JUMPDEST PUSH2 0x1BF3 JUMP JUMPDEST SWAP1 POP PUSH1 0x20 DUP2 RETURNDATASIZE PUSH1 0x20 GT PUSH2 0x1C32 JUMPI JUMPDEST DUP2 PUSH2 0x1C23 PUSH1 0x20 SWAP4 DUP4 PUSH2 0x3325 JUMP JUMPDEST DUP2 ADD SUB SLT PUSH2 0x5AE JUMPI MLOAD PUSH0 PUSH2 0x1711 JUMP JUMPDEST RETURNDATASIZE SWAP2 POP PUSH2 0x1C16 JUMP JUMPDEST SWAP1 SWAP3 POP PUSH1 0x20 DUP2 RETURNDATASIZE PUSH1 0x20 GT PUSH2 0x1C66 JUMPI JUMPDEST DUP2 PUSH2 0x1C56 PUSH1 0x20 SWAP4 DUP4 PUSH2 0x3325 JUMP JUMPDEST DUP2 ADD SUB SLT PUSH2 0x5AE JUMPI MLOAD SWAP2 PUSH0 PUSH2 0x1612 JUMP JUMPDEST RETURNDATASIZE SWAP2 POP PUSH2 0x1C49 JUMP JUMPDEST PUSH2 0x1C77 SWAP1 PUSH2 0x32E0 JUMP JUMPDEST PUSH2 0x314 JUMPI DUP4 PUSH0 PUSH2 0x15DD JUMP JUMPDEST DUP2 ISZERO PUSH2 0x1C9A JUMPI PUSH2 0x1C95 DUP2 PUSH1 0xA4 CALLDATALOAD LT PUSH2 0x3631 JUMP JUMPDEST PUSH2 0x157D JUMP JUMPDEST PUSH2 0x1C95 DUP2 PUSH1 0xA4 CALLDATALOAD GT PUSH2 0x3631 JUMP JUMPDEST DUP2 ISZERO PUSH2 0x1CBF JUMPI PUSH2 0x1CBA DUP2 PUSH1 0x84 CALLDATALOAD GT PUSH2 0x35F2 JUMP JUMPDEST PUSH2 0x1575 JUMP JUMPDEST PUSH2 0x1CBA DUP2 PUSH1 0x84 CALLDATALOAD LT PUSH2 0x35F2 JUMP JUMPDEST PUSH2 0x1CE5 SWAP2 POP PUSH1 0x40 RETURNDATASIZE PUSH1 0x40 GT PUSH2 0x3AF JUMPI PUSH2 0x39F DUP2 DUP4 PUSH2 0x3325 JUMP JUMPDEST POP PUSH0 PUSH2 0x156C JUMP JUMPDEST PUSH1 0x3 SLOAD PUSH1 0x1 PUSH1 0x1 PUSH1 0xA0 SHL SUB AND SWAP2 DUP3 EXTCODESIZE ISZERO PUSH2 0x314 JUMPI PUSH1 0x40 MLOAD PUSH4 0x1DF3CBC5 PUSH1 0xE3 SHL DUP2 MSTORE SWAP3 DUP5 SWAP3 DUP5 SWAP3 DUP4 SWAP2 DUP3 SWAP2 PUSH2 0x1D23 SWAP2 PUSH1 0x4 DUP5 ADD PUSH2 0x3347 JUMP JUMPDEST SUB SWAP2 CALLVALUE SWAP1 GAS CALL DUP1 ISZERO PUSH2 0x309 JUMPI PUSH2 0x1D3A JUMPI JUMPDEST DUP1 PUSH2 0x152E JUMP JUMPDEST PUSH2 0x1D43 SWAP1 PUSH2 0x32E0 JUMP JUMPDEST PUSH2 0x32C JUMPI DUP2 PUSH0 PUSH2 0x1D34 JUMP JUMPDEST POP CALLVALUE PUSH2 0x138 JUMPI DUP1 PUSH1 0x3 NOT CALLDATASIZE ADD SLT PUSH2 0x138 JUMPI PUSH1 0x20 PUSH1 0x40 MLOAD PUSH3 0x989680 DUP2 MSTORE RETURN JUMPDEST POP PUSH2 0x1D76 CALLDATASIZE PUSH2 0x324E JUMP JUMPDEST SWAP1 PUSH2 0x1D7F PUSH2 0x3777 JUMP JUMPDEST DUP2 PUSH2 0x3197 JUMPI JUMPDEST POP POP DUP1 DUP3 MSTORE PUSH1 0x8 PUSH1 0x20 MSTORE PUSH1 0x40 DUP3 KECCAK256 PUSH1 0x6 DUP2 ADD SLOAD PUSH2 0x1DA7 PUSH1 0xFF DUP3 PUSH1 0x10 SHR AND PUSH2 0x33E9 JUMP JUMPDEST PUSH1 0x1 DUP1 PUSH1 0xA0 SHL SUB PUSH1 0x3 SLOAD AND SWAP1 PUSH1 0x40 DUP4 SLOAD PUSH1 0x24 DUP3 MLOAD DUP1 SWAP6 DUP2 SWAP4 PUSH4 0x31D98B3F PUSH1 0xE0 SHL DUP4 MSTORE PUSH1 0x4 DUP4 ADD MSTORE GAS STATICCALL SWAP2 DUP3 ISZERO PUSH2 0x5BA JUMPI DUP6 SWAP3 PUSH2 0x3172 JUMPI JUMPDEST POP PUSH1 0xFF AND DUP1 PUSH2 0x24B1 JUMPI POP PUSH1 0x1 DUP3 ADD SLOAD PUSH1 0xA0 SHR PUSH1 0xFF AND ISZERO PUSH2 0x24A4 JUMPI PUSH1 0x5 DUP3 ADD SLOAD DUP2 GT ISZERO JUMPDEST ISZERO PUSH2 0x246B JUMPI PUSH2 0x1E0F DUP3 PUSH2 0x3459 JUMP JUMPDEST SWAP1 PUSH1 0x1 DUP1 PUSH1 0xA0 SHL SUB PUSH1 0x1 SLOAD AND PUSH1 0x20 DUP4 MLOAD PUSH1 0x64 PUSH1 0x40 DUP7 ADD MLOAD ISZERO ISZERO SWAP2 PUSH1 0x60 DUP8 ADD MLOAD SWAP5 PUSH1 0x40 MLOAD SWAP6 DUP7 SWAP5 DUP6 SWAP4 PUSH4 0xB391DECF PUSH1 0xE0 SHL DUP6 MSTORE PUSH1 0x4 DUP6 ADD MSTORE PUSH1 0x24 DUP5 ADD MSTORE PUSH1 0x44 DUP4 ADD MSTORE GAS STATICCALL SWAP1 DUP2 ISZERO PUSH2 0xEC1 JUMPI DUP7 SWAP2 PUSH2 0x2439 JUMPI JUMPDEST POP DUP2 DUP7 DUP3 SGT ISZERO PUSH2 0x23EB JUMPI POP PUSH2 0x1E78 PUSH2 0x2710 SWAP2 DUP4 PUSH2 0x36A8 JUMP JUMPDEST DIV PUSH1 0x40 DUP4 ADD MLOAD ISZERO ISZERO PUSH0 EQ PUSH2 0x23DD JUMPI PUSH2 0x1E8F SWAP2 PUSH2 0x3438 JUMP JUMPDEST PUSH1 0x5 SLOAD SWAP1 PUSH2 0x1E9C DUP3 PUSH2 0x36BB JUMP JUMPDEST PUSH1 0x5 SSTORE DUP2 DUP7 MSTORE PUSH1 0x7 PUSH1 0x20 SWAP1 DUP2 MSTORE PUSH1 0x40 DUP1 DUP9 KECCAK256 DUP6 MLOAD DUP2 SSTORE SWAP2 DUP6 ADD MLOAD PUSH1 0x1 DUP4 ADD DUP1 SLOAD SWAP3 DUP8 ADD MLOAD PUSH1 0x1 PUSH1 0x1 PUSH1 0xA8 SHL SUB NOT SWAP1 SWAP4 AND PUSH1 0x1 PUSH1 0x1 PUSH1 0xA0 SHL SUB SWAP3 SWAP1 SWAP3 AND SWAP2 SWAP1 SWAP2 OR SWAP2 ISZERO ISZERO PUSH1 0xA0 DUP2 SWAP1 SHL PUSH1 0xFF PUSH1 0xA0 SHL AND SWAP3 SWAP1 SWAP3 OR SWAP1 SSTORE DUP8 SWAP2 SWAP1 PUSH2 0x1EFC SWAP1 PUSH2 0x17A9 JUMP JUMPDEST PUSH1 0x6 DUP3 ADD SSTORE TIMESTAMP PUSH1 0x7 DUP3 ADD SSTORE PUSH1 0x8 DUP2 ADD PUSH1 0x1 PUSH1 0xFF NOT DUP3 SLOAD AND OR SWAP1 SSTORE PUSH2 0x1C0 DUP6 ADD MLOAD PUSH1 0x9 DUP3 ADD SSTORE PUSH2 0x1E0 DUP6 ADD MLOAD PUSH1 0xA DUP3 ADD SSTORE PUSH1 0x20 PUSH1 0x1 DUP1 PUSH1 0xA0 SHL SUB PUSH1 0x1 SLOAD AND PUSH1 0x24 DUP8 MLOAD PUSH1 0x40 MLOAD SWAP6 DUP7 SWAP4 DUP5 SWAP3 PUSH4 0x7CC6765F PUSH1 0xE1 SHL DUP5 MSTORE PUSH1 0x4 DUP5 ADD MSTORE GAS CALL SWAP2 DUP3 ISZERO PUSH2 0x3B6 JUMPI DUP9 SWAP3 PUSH2 0x23A8 JUMPI JUMPDEST POP PUSH1 0xB ADD SSTORE PUSH1 0x1 SLOAD DUP4 MLOAD PUSH1 0x20 DUP6 ADD MLOAD PUSH1 0x40 DUP7 ADD MLOAD PUSH1 0x60 DUP8 ADD MLOAD DUP11 SWAP5 SWAP1 SWAP4 SWAP3 SWAP2 ISZERO ISZERO SWAP2 PUSH1 0x1 PUSH1 0x1 PUSH1 0xA0 SHL SUB SWAP2 DUP3 AND SWAP2 AND DUP2 EXTCODESIZE ISZERO PUSH2 0x305 JUMPI PUSH1 0x40 MLOAD PUSH4 0xB65B361F PUSH1 0xE0 SHL DUP2 MSTORE PUSH1 0x4 DUP2 ADD SWAP5 SWAP1 SWAP5 MSTORE PUSH1 0x1 PUSH1 0x1 PUSH1 0xA0 SHL SUB AND PUSH1 0x24 DUP5 ADD MSTORE SWAP1 ISZERO ISZERO PUSH1 0x44 DUP4 ADD MSTORE PUSH1 0x64 DUP3 ADD SWAP3 SWAP1 SWAP3 MSTORE SWAP1 DUP3 SWAP1 DUP3 SWAP1 PUSH1 0x84 SWAP1 DUP3 SWAP1 DUP5 SWAP1 GAS CALL DUP1 ISZERO PUSH2 0x309 JUMPI PUSH2 0x2394 JUMPI JUMPDEST POP POP PUSH1 0x2 SLOAD PUSH1 0x80 DUP5 ADD MLOAD PUSH2 0x2002 SWAP2 PUSH1 0x1 PUSH1 0x1 PUSH1 0xA0 SHL SUB AND PUSH2 0x3CA8 JUMP JUMPDEST PUSH1 0x2 SLOAD PUSH1 0x80 DUP5 ADD MLOAD DUP8 SWAP2 PUSH1 0x1 PUSH1 0x1 PUSH1 0xA0 SHL SUB AND SWAP1 DUP2 EXTCODESIZE ISZERO PUSH2 0x1215 JUMPI DUP3 SWAP2 PUSH1 0x24 DUP4 SWAP3 PUSH1 0x40 MLOAD SWAP5 DUP6 SWAP4 DUP5 SWAP3 PUSH4 0x6E93AE2B PUSH1 0xE0 SHL DUP5 MSTORE PUSH1 0x4 DUP5 ADD MSTORE GAS CALL DUP1 ISZERO PUSH2 0x309 JUMPI PUSH2 0x2380 JUMPI JUMPDEST POP POP PUSH2 0x180 DUP4 ADD MLOAD PUSH1 0x1 SLOAD PUSH1 0x40 DUP1 MLOAD PUSH4 0x1DB04579 PUSH1 0xE1 SHL DUP2 MSTORE PUSH1 0x4 DUP2 ADD SWAP4 SWAP1 SWAP4 MSTORE DUP9 SWAP2 DUP4 SWAP1 PUSH1 0x24 SWAP1 DUP3 SWAP1 PUSH1 0x1 PUSH1 0x1 PUSH1 0xA0 SHL SUB AND GAS STATICCALL SWAP2 DUP3 ISZERO PUSH2 0x1B3C JUMPI DUP2 SWAP1 DUP3 SWAP4 PUSH2 0x235C JUMPI JUMPDEST POP DUP1 PUSH2 0x22F3 JUMPI JUMPDEST POP POP DUP1 PUSH2 0x2252 JUMPI JUMPDEST POP PUSH1 0xA0 PUSH0 DUP1 MLOAD PUSH1 0x20 PUSH2 0x3F9C DUP4 CODECOPY DUP2 MLOAD SWAP2 MSTORE SWAP2 PUSH1 0x1 DUP1 DUP4 SHL SUB PUSH1 0x20 DUP7 ADD MLOAD AND DUP9 MSTORE PUSH1 0x9 PUSH1 0x20 MSTORE PUSH2 0x20CD DUP5 PUSH1 0x40 DUP11 KECCAK256 PUSH2 0x36C9 JUMP JUMPDEST PUSH1 0x1 DUP1 DUP4 SHL SUB PUSH1 0x20 DUP7 ADD MLOAD AND SWAP5 DUP1 MLOAD SWAP2 PUSH1 0x40 DUP3 ADD MLOAD ISZERO ISZERO SWAP2 DUP5 PUSH1 0x60 DUP3 ADD MLOAD SWAP2 ADD MLOAD SWAP3 PUSH1 0x40 MLOAD SWAP5 DUP6 MSTORE PUSH1 0x20 DUP6 ADD MSTORE PUSH1 0x40 DUP5 ADD MSTORE PUSH1 0x60 DUP4 ADD MSTORE PUSH1 0x80 DUP3 ADD MSTORE LOG3 PUSH1 0x6 DUP2 ADD DUP1 SLOAD PUSH3 0xFF0000 NOT AND SWAP1 SSTORE JUMPDEST DUP3 PUSH1 0xA DUP3 ADD SLOAD DUP1 PUSH2 0x21A6 JUMPI JUMPDEST POP POP PUSH1 0x6 DUP2 ADD SLOAD PUSH1 0xFF DUP2 PUSH1 0x10 SHR AND ISZERO PUSH2 0x2141 JUMPI JUMPDEST DUP4 PUSH1 0x1 DUP2 SSTORE DUP1 RETURN JUMPDEST PUSH1 0xFF AND PUSH1 0x3 SUB PUSH2 0x217D JUMPI PUSH1 0x8 ADD SLOAD SWAP1 JUMPDEST PUSH32 0x9947370F1E808DD40DE986FCA744D8715D4D7AA575359F77A7BDEEB887F590EA DUP4 DUP1 LOG3 PUSH0 DUP1 DUP1 PUSH2 0x2139 JUMP JUMPDEST POP PUSH1 0x5 SLOAD PUSH0 NOT DUP2 ADD SWAP1 DUP2 GT PUSH2 0x2192 JUMPI SWAP1 PUSH2 0x2151 JUMP JUMPDEST PUSH4 0x4E487B71 PUSH1 0xE0 SHL DUP4 MSTORE PUSH1 0x11 PUSH1 0x4 MSTORE PUSH1 0x24 DUP4 REVERT JUMPDEST DUP2 SWAP1 PUSH1 0x6 DUP5 ADD SLOAD PUSH1 0x4 PUSH1 0xFF DUP3 AND EQ DUP1 PUSH2 0x2245 JUMPI JUMPDEST ISZERO PUSH2 0x222B JUMPI POP PUSH2 0x21D0 SWAP2 POP PUSH1 0xD DUP5 ADD SLOAD SWAP1 PUSH2 0x354B JUMP JUMPDEST DUP1 ISZERO PUSH2 0x2125 JUMPI DUP2 DUP1 DUP1 SWAP3 CALLER GAS CALL PUSH2 0x21E5 PUSH2 0x3569 JUMP JUMPDEST POP ISZERO PUSH2 0x21F2 JUMPI DUP3 PUSH0 PUSH2 0x2125 JUMP JUMPDEST PUSH1 0x40 MLOAD PUSH3 0x461BCD PUSH1 0xE5 SHL DUP2 MSTORE PUSH1 0x20 PUSH1 0x4 DUP3 ADD MSTORE PUSH1 0x11 PUSH1 0x24 DUP3 ADD MSTORE PUSH17 0x12D9595C195C881999594819985A5B1959 PUSH1 0x7A SHL PUSH1 0x44 DUP3 ADD MSTORE PUSH1 0x64 SWAP1 REVERT JUMPDEST PUSH1 0x10 SHR PUSH1 0xFF AND ISZERO PUSH2 0x223D JUMPI JUMPDEST POP PUSH2 0x21D0 JUMP JUMPDEST SWAP1 POP PUSH0 PUSH2 0x2237 JUMP JUMPDEST POP PUSH1 0xD DUP6 ADD SLOAD ISZERO ISZERO PUSH2 0x21BA JUMP JUMPDEST PUSH1 0x1 SLOAD PUSH1 0x40 MLOAD PUSH4 0x61D027B3 PUSH1 0xE0 SHL DUP2 MSTORE SWAP1 PUSH1 0x20 SWAP1 DUP3 SWAP1 PUSH1 0x4 SWAP1 DUP3 SWAP1 PUSH1 0x1 PUSH1 0x1 PUSH1 0xA0 SHL SUB AND GAS STATICCALL SWAP1 DUP2 ISZERO PUSH2 0x3B6 JUMPI DUP9 SWAP2 PUSH2 0x22A9 JUMPI JUMPDEST POP SWAP2 PUSH2 0x22A2 PUSH1 0xA0 SWAP3 PUSH0 DUP1 MLOAD PUSH1 0x20 PUSH2 0x3F9C DUP4 CODECOPY DUP2 MLOAD SWAP2 MSTORE SWAP5 PUSH2 0x3CA8 JUMP JUMPDEST SWAP2 POP PUSH2 0x209B JUMP JUMPDEST SWAP1 POP PUSH1 0x20 DUP2 RETURNDATASIZE PUSH1 0x20 GT PUSH2 0x22EB JUMPI JUMPDEST DUP2 PUSH2 0x22C4 PUSH1 0x20 SWAP4 DUP4 PUSH2 0x3325 JUMP JUMPDEST DUP2 ADD SUB SLT PUSH2 0x22E7 JUMPI MLOAD SWAP2 PUSH1 0x1 PUSH1 0x1 PUSH1 0xA0 SHL SUB DUP4 AND DUP4 SUB PUSH2 0x22E7 JUMPI SWAP2 PUSH2 0x22A2 PUSH2 0x2286 JUMP JUMPDEST DUP8 DUP1 REVERT JUMPDEST RETURNDATASIZE SWAP2 POP PUSH2 0x22B7 JUMP JUMPDEST PUSH1 0x2 SLOAD PUSH2 0x230A SWAP1 DUP3 SWAP1 PUSH1 0x1 PUSH1 0x1 PUSH1 0xA0 SHL SUB AND PUSH2 0x3CA8 JUMP JUMPDEST PUSH1 0x2 SLOAD PUSH1 0x1 PUSH1 0x1 PUSH1 0xA0 SHL SUB AND SWAP1 DUP2 EXTCODESIZE ISZERO PUSH2 0x1215 JUMPI DUP3 SWAP2 PUSH1 0x24 DUP4 SWAP3 PUSH1 0x40 MLOAD SWAP5 DUP6 SWAP4 DUP5 SWAP3 PUSH4 0x2102C97 PUSH1 0xE1 SHL DUP5 MSTORE PUSH1 0x4 DUP5 ADD MSTORE GAS CALL DUP1 ISZERO PUSH2 0x309 JUMPI ISZERO PUSH2 0x2093 JUMPI PUSH2 0x2351 SWAP1 PUSH2 0x32E0 JUMP JUMPDEST PUSH2 0x33B JUMPI DUP7 PUSH0 PUSH2 0x2093 JUMP JUMPDEST SWAP1 POP PUSH2 0x2378 SWAP2 SWAP3 POP PUSH1 0x40 RETURNDATASIZE PUSH1 0x40 GT PUSH2 0x3AF JUMPI PUSH2 0x39F DUP2 DUP4 PUSH2 0x3325 JUMP JUMPDEST SWAP2 SWAP1 PUSH0 PUSH2 0x208C JUMP JUMPDEST PUSH2 0x2389 SWAP1 PUSH2 0x32E0 JUMP JUMPDEST PUSH2 0x305 JUMPI DUP6 PUSH0 PUSH2 0x2047 JUMP JUMPDEST PUSH2 0x239D SWAP1 PUSH2 0x32E0 JUMP JUMPDEST PUSH2 0x305 JUMPI DUP6 PUSH0 PUSH2 0x1FE6 JUMP JUMPDEST SWAP1 SWAP2 POP PUSH1 0x20 DUP2 RETURNDATASIZE PUSH1 0x20 GT PUSH2 0x23D5 JUMPI JUMPDEST DUP2 PUSH2 0x23C4 PUSH1 0x20 SWAP4 DUP4 PUSH2 0x3325 JUMP JUMPDEST DUP2 ADD SUB SLT PUSH2 0x5AE JUMPI MLOAD SWAP1 PUSH1 0xB PUSH2 0x1F64 JUMP JUMPDEST RETURNDATASIZE SWAP2 POP PUSH2 0x23B7 JUMP JUMPDEST PUSH2 0x23E6 SWAP2 PUSH2 0x35A8 JUMP JUMPDEST PUSH2 0x1E8F JUMP JUMPDEST SWAP1 DUP7 DUP2 SLT PUSH2 0x23FB JUMPI JUMPDEST POP POP PUSH2 0x1E8F JUMP JUMPDEST PUSH2 0x2710 SWAP2 SWAP3 POP PUSH2 0x1BD6 PUSH2 0x240D SWAP2 PUSH2 0x3798 JUMP JUMPDEST DIV PUSH1 0x40 DUP4 ADD MLOAD ISZERO ISZERO PUSH0 EQ PUSH2 0x242B JUMPI PUSH2 0x2424 SWAP2 PUSH2 0x35A8 JUMP JUMPDEST PUSH0 DUP1 PUSH2 0x23F4 JUMP JUMPDEST PUSH2 0x2434 SWAP2 PUSH2 0x3438 JUMP JUMPDEST PUSH2 0x2424 JUMP JUMPDEST SWAP1 POP PUSH1 0x20 DUP2 RETURNDATASIZE PUSH1 0x20 GT PUSH2 0x2463 JUMPI JUMPDEST DUP2 PUSH2 0x2454 PUSH1 0x20 SWAP4 DUP4 PUSH2 0x3325 JUMP JUMPDEST DUP2 ADD SUB SLT PUSH2 0x5AE JUMPI MLOAD PUSH0 PUSH2 0x1E60 JUMP JUMPDEST RETURNDATASIZE SWAP2 POP PUSH2 0x2447 JUMP JUMPDEST PUSH1 0x40 MLOAD PUSH3 0x461BCD PUSH1 0xE5 SHL DUP2 MSTORE PUSH1 0x20 PUSH1 0x4 DUP3 ADD MSTORE PUSH1 0x11 PUSH1 0x24 DUP3 ADD MSTORE PUSH17 0x131A5B5A5D081B9BDD081C995858DA1959 PUSH1 0x7A SHL PUSH1 0x44 DUP3 ADD MSTORE PUSH1 0x64 SWAP1 REVERT JUMPDEST PUSH1 0x5 DUP3 ADD SLOAD DUP2 LT ISZERO PUSH2 0x1E01 JUMP JUMPDEST PUSH1 0x1 DUP2 SUB PUSH2 0x2A49 JUMPI POP PUSH1 0x1 DUP3 ADD SLOAD PUSH1 0xA0 SHR PUSH1 0xFF AND ISZERO PUSH2 0x2A3C JUMPI PUSH1 0x5 DUP3 ADD SLOAD DUP2 LT ISZERO JUMPDEST ISZERO PUSH2 0x2A04 JUMPI PUSH2 0x24E1 DUP3 PUSH2 0x3459 JUMP JUMPDEST SWAP1 PUSH1 0x1 DUP1 PUSH1 0xA0 SHL SUB PUSH1 0x1 SLOAD AND PUSH1 0x20 DUP4 MLOAD PUSH1 0x64 PUSH1 0x40 DUP7 ADD MLOAD ISZERO ISZERO SWAP2 PUSH1 0x60 DUP8 ADD MLOAD SWAP5 PUSH1 0x40 MLOAD SWAP6 DUP7 SWAP5 DUP6 SWAP4 PUSH4 0xB391DECF PUSH1 0xE0 SHL DUP6 MSTORE PUSH1 0x4 DUP6 ADD MSTORE PUSH1 0x24 DUP5 ADD MSTORE PUSH1 0x44 DUP4 ADD MSTORE GAS STATICCALL SWAP1 DUP2 ISZERO PUSH2 0xEC1 JUMPI DUP7 SWAP2 PUSH2 0x29D2 JUMPI JUMPDEST POP DUP2 DUP7 DUP3 SGT ISZERO PUSH2 0x2984 JUMPI POP PUSH2 0x254A PUSH2 0x2710 SWAP2 DUP4 PUSH2 0x36A8 JUMP JUMPDEST DIV PUSH1 0x40 DUP4 ADD MLOAD ISZERO ISZERO PUSH0 EQ PUSH2 0x2976 JUMPI PUSH2 0x2561 SWAP2 PUSH2 0x3438 JUMP JUMPDEST PUSH1 0x5 SLOAD SWAP1 PUSH2 0x256E DUP3 PUSH2 0x36BB JUMP JUMPDEST PUSH1 0x5 SSTORE DUP2 DUP7 MSTORE PUSH1 0x7 PUSH1 0x20 SWAP1 DUP2 MSTORE PUSH1 0x40 DUP1 DUP9 KECCAK256 DUP6 MLOAD DUP2 SSTORE SWAP2 DUP6 ADD MLOAD PUSH1 0x1 DUP4 ADD DUP1 SLOAD SWAP3 DUP8 ADD MLOAD PUSH1 0x1 PUSH1 0x1 PUSH1 0xA8 SHL SUB NOT SWAP1 SWAP4 AND PUSH1 0x1 PUSH1 0x1 PUSH1 0xA0 SHL SUB SWAP3 SWAP1 SWAP3 AND SWAP2 SWAP1 SWAP2 OR SWAP2 ISZERO ISZERO PUSH1 0xA0 DUP2 SWAP1 SHL PUSH1 0xFF PUSH1 0xA0 SHL AND SWAP3 SWAP1 SWAP3 OR SWAP1 SSTORE DUP8 SWAP2 SWAP1 PUSH2 0x25CE SWAP1 PUSH2 0x17A9 JUMP JUMPDEST PUSH1 0x6 DUP3 ADD SSTORE TIMESTAMP PUSH1 0x7 DUP3 ADD SSTORE PUSH1 0x8 DUP2 ADD PUSH1 0x1 PUSH1 0xFF NOT DUP3 SLOAD AND OR SWAP1 SSTORE PUSH2 0x1C0 DUP6 ADD MLOAD PUSH1 0x9 DUP3 ADD SSTORE PUSH2 0x1E0 DUP6 ADD MLOAD PUSH1 0xA DUP3 ADD SSTORE PUSH1 0x20 PUSH1 0x1 DUP1 PUSH1 0xA0 SHL SUB PUSH1 0x1 SLOAD AND PUSH1 0x24 DUP8 MLOAD PUSH1 0x40 MLOAD SWAP6 DUP7 SWAP4 DUP5 SWAP3 PUSH4 0x7CC6765F PUSH1 0xE1 SHL DUP5 MSTORE PUSH1 0x4 DUP5 ADD MSTORE GAS CALL SWAP2 DUP3 ISZERO PUSH2 0x3B6 JUMPI DUP9 SWAP3 PUSH2 0x2941 JUMPI JUMPDEST POP PUSH1 0xB ADD SSTORE PUSH1 0x1 SLOAD DUP4 MLOAD PUSH1 0x20 DUP6 ADD MLOAD PUSH1 0x40 DUP7 ADD MLOAD PUSH1 0x60 DUP8 ADD MLOAD DUP11 SWAP5 SWAP1 SWAP4 SWAP3 SWAP2 ISZERO ISZERO SWAP2 PUSH1 0x1 PUSH1 0x1 PUSH1 0xA0 SHL SUB SWAP2 DUP3 AND SWAP2 AND DUP2 EXTCODESIZE ISZERO PUSH2 0x305 JUMPI PUSH1 0x40 MLOAD PUSH4 0xB65B361F PUSH1 0xE0 SHL DUP2 MSTORE PUSH1 0x4 DUP2 ADD SWAP5 SWAP1 SWAP5 MSTORE PUSH1 0x1 PUSH1 0x1 PUSH1 0xA0 SHL SUB AND PUSH1 0x24 DUP5 ADD MSTORE SWAP1 ISZERO ISZERO PUSH1 0x44 DUP4 ADD MSTORE PUSH1 0x64 DUP3 ADD SWAP3 SWAP1 SWAP3 MSTORE SWAP1 DUP3 SWAP1 DUP3 SWAP1 PUSH1 0x84 SWAP1 DUP3 SWAP1 DUP5 SWAP1 GAS CALL DUP1 ISZERO PUSH2 0x309 JUMPI PUSH2 0x292D JUMPI JUMPDEST POP POP PUSH1 0x2 SLOAD PUSH1 0x80 DUP5 ADD MLOAD PUSH2 0x26D4 SWAP2 PUSH1 0x1 PUSH1 0x1 PUSH1 0xA0 SHL SUB AND PUSH2 0x3CA8 JUMP JUMPDEST PUSH1 0x2 SLOAD PUSH1 0x80 DUP5 ADD MLOAD DUP8 SWAP2 PUSH1 0x1 PUSH1 0x1 PUSH1 0xA0 SHL SUB AND SWAP1 DUP2 EXTCODESIZE ISZERO PUSH2 0x1215 JUMPI DUP3 SWAP2 PUSH1 0x24 DUP4 SWAP3 PUSH1 0x40 MLOAD SWAP5 DUP6 SWAP4 DUP5 SWAP3 PUSH4 0x6E93AE2B PUSH1 0xE0 SHL DUP5 MSTORE PUSH1 0x4 DUP5 ADD MSTORE GAS CALL DUP1 ISZERO PUSH2 0x309 JUMPI PUSH2 0x2919 JUMPI JUMPDEST POP POP PUSH2 0x180 DUP4 ADD MLOAD PUSH1 0x1 SLOAD PUSH1 0x40 DUP1 MLOAD PUSH4 0x1DB04579 PUSH1 0xE1 SHL DUP2 MSTORE PUSH1 0x4 DUP2 ADD SWAP4 SWAP1 SWAP4 MSTORE DUP9 SWAP2 DUP4 SWAP1 PUSH1 0x24 SWAP1 DUP3 SWAP1 PUSH1 0x1 PUSH1 0x1 PUSH1 0xA0 SHL SUB AND GAS STATICCALL SWAP2 DUP3 ISZERO PUSH2 0x1B3C JUMPI DUP2 SWAP1 DUP3 SWAP4 PUSH2 0x28F5 JUMPI JUMPDEST POP DUP1 PUSH2 0x288C JUMPI JUMPDEST POP POP DUP1 PUSH2 0x27EF JUMPI JUMPDEST POP PUSH1 0xA0 PUSH0 DUP1 MLOAD PUSH1 0x20 PUSH2 0x3F9C DUP4 CODECOPY DUP2 MLOAD SWAP2 MSTORE SWAP2 PUSH1 0x1 DUP1 DUP4 SHL SUB PUSH1 0x20 DUP7 ADD MLOAD AND DUP9 MSTORE PUSH1 0x9 PUSH1 0x20 MSTORE PUSH2 0x279F DUP5 PUSH1 0x40 DUP11 KECCAK256 PUSH2 0x36C9 JUMP JUMPDEST PUSH1 0x1 DUP1 DUP4 SHL SUB PUSH1 0x20 DUP7 ADD MLOAD AND SWAP5 DUP1 MLOAD SWAP2 PUSH1 0x40 DUP3 ADD MLOAD ISZERO ISZERO SWAP2 DUP5 PUSH1 0x60 DUP3 ADD MLOAD SWAP2 ADD MLOAD SWAP3 PUSH1 0x40 MLOAD SWAP5 DUP6 MSTORE PUSH1 0x20 DUP6 ADD MSTORE PUSH1 0x40 DUP5 ADD MSTORE PUSH1 0x60 DUP4 ADD MSTORE PUSH1 0x80 DUP3 ADD MSTORE LOG3 PUSH1 0x6 DUP2 ADD DUP1 SLOAD PUSH3 0xFF0000 NOT AND SWAP1 SSTORE PUSH2 0x2119 JUMP JUMPDEST PUSH1 0x1 SLOAD PUSH1 0x40 MLOAD PUSH4 0x61D027B3 PUSH1 0xE0 SHL DUP2 MSTORE SWAP1 PUSH1 0x20 SWAP1 DUP3 SWAP1 PUSH1 0x4 SWAP1 DUP3 SWAP1 PUSH1 0x1 PUSH1 0x1 PUSH1 0xA0 SHL SUB AND GAS STATICCALL SWAP1 DUP2 ISZERO PUSH2 0x3B6 JUMPI DUP9 SWAP2 PUSH2 0x2846 JUMPI JUMPDEST POP SWAP2 PUSH2 0x283F PUSH1 0xA0 SWAP3 PUSH0 DUP1 MLOAD PUSH1 0x20 PUSH2 0x3F9C DUP4 CODECOPY DUP2 MLOAD SWAP2 MSTORE SWAP5 PUSH2 0x3CA8 JUMP JUMPDEST SWAP2 POP PUSH2 0x276D JUMP JUMPDEST SWAP1 POP PUSH1 0x20 DUP2 RETURNDATASIZE PUSH1 0x20 GT PUSH2 0x2884 JUMPI JUMPDEST DUP2 PUSH2 0x2861 PUSH1 0x20 SWAP4 DUP4 PUSH2 0x3325 JUMP JUMPDEST DUP2 ADD SUB SLT PUSH2 0x22E7 JUMPI MLOAD SWAP2 PUSH1 0x1 PUSH1 0x1 PUSH1 0xA0 SHL SUB DUP4 AND DUP4 SUB PUSH2 0x22E7 JUMPI SWAP2 PUSH2 0x283F PUSH2 0x2823 JUMP JUMPDEST RETURNDATASIZE SWAP2 POP PUSH2 0x2854 JUMP JUMPDEST PUSH1 0x2 SLOAD PUSH2 0x28A3 SWAP1 DUP3 SWAP1 PUSH1 0x1 PUSH1 0x1 PUSH1 0xA0 SHL SUB AND PUSH2 0x3CA8 JUMP JUMPDEST PUSH1 0x2 SLOAD PUSH1 0x1 PUSH1 0x1 PUSH1 0xA0 SHL SUB AND SWAP1 DUP2 EXTCODESIZE ISZERO PUSH2 0x1215 JUMPI DUP3 SWAP2 PUSH1 0x24 DUP4 SWAP3 PUSH1 0x40 MLOAD SWAP5 DUP6 SWAP4 DUP5 SWAP3 PUSH4 0x2102C97 PUSH1 0xE1 SHL DUP5 MSTORE PUSH1 0x4 DUP5 ADD MSTORE GAS CALL DUP1 ISZERO PUSH2 0x309 JUMPI ISZERO PUSH2 0x2765 JUMPI PUSH2 0x28EA SWAP1 PUSH2 0x32E0 JUMP JUMPDEST PUSH2 0x33B JUMPI DUP7 PUSH0 PUSH2 0x2765 JUMP JUMPDEST SWAP1 POP PUSH2 0x2911 SWAP2 SWAP3 POP PUSH1 0x40 RETURNDATASIZE PUSH1 0x40 GT PUSH2 0x3AF JUMPI PUSH2 0x39F DUP2 DUP4 PUSH2 0x3325 JUMP JUMPDEST SWAP2 SWAP1 PUSH0 PUSH2 0x275E JUMP JUMPDEST PUSH2 0x2922 SWAP1 PUSH2 0x32E0 JUMP JUMPDEST PUSH2 0x305 JUMPI DUP6 PUSH0 PUSH2 0x2719 JUMP JUMPDEST PUSH2 0x2936 SWAP1 PUSH2 0x32E0 JUMP JUMPDEST PUSH2 0x305 JUMPI DUP6 PUSH0 PUSH2 0x26B8 JUMP JUMPDEST SWAP1 SWAP2 POP PUSH1 0x20 DUP2 RETURNDATASIZE PUSH1 0x20 GT PUSH2 0x296E JUMPI JUMPDEST DUP2 PUSH2 0x295D PUSH1 0x20 SWAP4 DUP4 PUSH2 0x3325 JUMP JUMPDEST DUP2 ADD SUB SLT PUSH2 0x5AE JUMPI MLOAD SWAP1 PUSH1 0xB PUSH2 0x2636 JUMP JUMPDEST RETURNDATASIZE SWAP2 POP PUSH2 0x2950 JUMP JUMPDEST PUSH2 0x297F SWAP2 PUSH2 0x35A8 JUMP JUMPDEST PUSH2 0x2561 JUMP JUMPDEST SWAP1 DUP7 DUP2 SLT PUSH2 0x2994 JUMPI JUMPDEST POP POP PUSH2 0x2561 JUMP JUMPDEST PUSH2 0x2710 SWAP2 SWAP3 POP PUSH2 0x1BD6 PUSH2 0x29A6 SWAP2 PUSH2 0x3798 JUMP JUMPDEST DIV PUSH1 0x40 DUP4 ADD MLOAD ISZERO ISZERO PUSH0 EQ PUSH2 0x29C4 JUMPI PUSH2 0x29BD SWAP2 PUSH2 0x35A8 JUMP JUMPDEST PUSH0 DUP1 PUSH2 0x298D JUMP JUMPDEST PUSH2 0x29CD SWAP2 PUSH2 0x3438 JUMP JUMPDEST PUSH2 0x29BD JUMP JUMPDEST SWAP1 POP PUSH1 0x20 DUP2 RETURNDATASIZE PUSH1 0x20 GT PUSH2 0x29FC JUMPI JUMPDEST DUP2 PUSH2 0x29ED PUSH1 0x20 SWAP4 DUP4 PUSH2 0x3325 JUMP JUMPDEST DUP2 ADD SUB SLT PUSH2 0x5AE JUMPI MLOAD PUSH0 PUSH2 0x2532 JUMP JUMPDEST RETURNDATASIZE SWAP2 POP PUSH2 0x29E0 JUMP JUMPDEST PUSH1 0x40 MLOAD PUSH3 0x461BCD PUSH1 0xE5 SHL DUP2 MSTORE PUSH1 0x20 PUSH1 0x4 DUP3 ADD MSTORE PUSH1 0x10 PUSH1 0x24 DUP3 ADD MSTORE PUSH16 0x14DD1BDC081B9BDD081C995858DA1959 PUSH1 0x82 SHL PUSH1 0x44 DUP3 ADD MSTORE PUSH1 0x64 SWAP1 REVERT JUMPDEST PUSH1 0x5 DUP3 ADD SLOAD DUP2 GT ISZERO PUSH2 0x24D3 JUMP JUMPDEST PUSH1 0x2 DUP2 SUB PUSH2 0x2B00 JUMPI POP PUSH1 0x1 DUP3 ADD SLOAD PUSH1 0xFF DUP2 PUSH1 0xA0 SHR AND PUSH0 EQ PUSH2 0x2AF3 JUMPI PUSH1 0x5 DUP4 ADD SLOAD DUP3 GT ISZERO JUMPDEST DUP1 ISZERO PUSH2 0x2AE7 JUMPI JUMPDEST ISZERO PUSH2 0x2A96 JUMPI POP PUSH2 0x24E1 DUP3 PUSH2 0x3459 JUMP JUMPDEST PUSH1 0x6 DUP2 ADD DUP1 SLOAD PUSH3 0xFF0000 NOT AND SWAP1 SSTORE PUSH2 0x2119 JUMP JUMPDEST PUSH2 0x2ABD SWAP2 POP PUSH2 0x2AAE PUSH1 0x3 DUP5 ADD SLOAD PUSH1 0x9 DUP6 ADD SLOAD SWAP1 PUSH2 0x3438 JUMP JUMPDEST SWAP1 PUSH1 0x1 PUSH1 0x1 PUSH1 0xA0 SHL SUB AND PUSH2 0x3CA8 JUMP JUMPDEST DUP2 PUSH32 0x61B9399F2F0F32CA39CE8D7BE32CAED5EC22FE07A6DABA3A467ED479EC606582 DUP5 DUP1 LOG2 PUSH2 0x2A83 JUMP JUMPDEST POP PUSH1 0x5 DUP4 ADD SLOAD ISZERO PUSH2 0x2A74 JUMP JUMPDEST PUSH1 0x5 DUP4 ADD SLOAD DUP3 LT ISZERO PUSH2 0x2A6D JUMP JUMPDEST PUSH1 0x3 DUP2 SUB PUSH2 0x2B17 JUMPI POP PUSH2 0x2A83 SWAP1 PUSH1 0x8 DUP4 ADD SLOAD PUSH2 0x38CB JUMP JUMPDEST PUSH1 0x4 EQ PUSH2 0x2B25 JUMPI JUMPDEST POP PUSH2 0x2119 JUMP JUMPDEST PUSH1 0xF DUP3 ADD SLOAD ISZERO DUP1 ISZERO PUSH2 0x3156 JUMPI JUMPDEST ISZERO PUSH2 0x311F JUMPI PUSH2 0x2B40 DUP3 PUSH2 0x3459 JUMP JUMPDEST SWAP1 PUSH2 0x2B7A PUSH1 0x2 DUP5 ADD SLOAD PUSH2 0x2B58 PUSH1 0xD DUP7 ADD SLOAD DUP1 SWAP3 PUSH2 0x354B JUMP JUMPDEST PUSH1 0x60 DUP6 ADD MSTORE PUSH2 0x2B6B DUP2 PUSH1 0x3 DUP8 ADD SLOAD PUSH2 0x354B JUMP JUMPDEST PUSH1 0x80 DUP6 ADD MSTORE PUSH1 0x9 DUP6 ADD SLOAD PUSH2 0x354B JUMP JUMPDEST PUSH2 0x180 DUP4 ADD MSTORE PUSH1 0x1 SLOAD DUP3 MLOAD PUSH1 0x40 DUP1 DUP6 ADD MLOAD PUSH1 0x60 DUP7 ADD MLOAD SWAP2 MLOAD PUSH4 0xB391DECF PUSH1 0xE0 SHL DUP2 MSTORE PUSH1 0x4 DUP2 ADD SWAP4 SWAP1 SWAP4 MSTORE ISZERO ISZERO PUSH1 0x24 DUP4 ADD MSTORE PUSH1 0x44 DUP3 ADD MSTORE SWAP1 PUSH1 0x20 SWAP1 DUP3 SWAP1 PUSH1 0x64 SWAP1 DUP3 SWAP1 PUSH1 0x1 PUSH1 0x1 PUSH1 0xA0 SHL SUB AND GAS STATICCALL SWAP1 DUP2 ISZERO PUSH2 0xEC1 JUMPI DUP7 SWAP2 PUSH2 0x30ED JUMPI JUMPDEST POP DUP2 DUP7 DUP3 SGT ISZERO PUSH2 0x309F JUMPI POP PUSH2 0x2BEC PUSH2 0x2710 SWAP2 DUP4 PUSH2 0x36A8 JUMP JUMPDEST DIV PUSH1 0x40 DUP4 ADD MLOAD ISZERO ISZERO PUSH0 EQ PUSH2 0x3091 JUMPI PUSH2 0x2C03 SWAP2 PUSH2 0x3438 JUMP JUMPDEST PUSH1 0x5 SLOAD PUSH2 0x2C0F DUP2 PUSH2 0x36BB JUMP JUMPDEST PUSH1 0x5 SSTORE DUP1 DUP7 MSTORE PUSH1 0x7 PUSH1 0x20 SWAP1 DUP2 MSTORE PUSH1 0x40 DUP1 DUP9 KECCAK256 DUP6 MLOAD DUP2 SSTORE SWAP2 DUP6 ADD MLOAD PUSH1 0x1 DUP4 ADD DUP1 SLOAD SWAP3 DUP8 ADD MLOAD PUSH1 0x1 PUSH1 0x1 PUSH1 0xA8 SHL SUB NOT SWAP1 SWAP4 AND PUSH1 0x1 PUSH1 0x1 PUSH1 0xA0 SHL SUB SWAP3 SWAP1 SWAP3 AND SWAP2 SWAP1 SWAP2 OR SWAP2 ISZERO ISZERO PUSH1 0xA0 DUP2 SWAP1 SHL PUSH1 0xFF PUSH1 0xA0 SHL AND SWAP3 SWAP1 SWAP3 OR SWAP1 SSTORE DUP8 SWAP2 SWAP1 PUSH2 0x2C95 SWAP1 PUSH1 0x60 DUP8 ADD MLOAD PUSH1 0x2 DUP5 ADD SSTORE PUSH1 0x80 DUP8 ADD MLOAD PUSH1 0x3 DUP5 ADD SSTORE DUP6 PUSH1 0x4 DUP5 ADD SSTORE PUSH1 0xA0 DUP8 ADD MLOAD DUP1 PUSH1 0x5 DUP6 ADD SSTORE DUP7 PUSH2 0x3E02 JUMP JUMPDEST PUSH1 0x6 DUP3 ADD SSTORE TIMESTAMP PUSH1 0x7 DUP3 ADD SSTORE PUSH1 0x8 DUP2 ADD PUSH1 0x1 PUSH1 0xFF NOT DUP3 SLOAD AND OR SWAP1 SSTORE PUSH2 0x1C0 DUP6 ADD MLOAD PUSH1 0x9 DUP3 ADD SSTORE PUSH2 0x1E0 DUP6 ADD MLOAD PUSH1 0xA DUP3 ADD SSTORE PUSH1 0x20 PUSH1 0x1 DUP1 PUSH1 0xA0 SHL SUB PUSH1 0x1 SLOAD AND PUSH1 0x24 DUP8 MLOAD PUSH1 0x40 MLOAD SWAP6 DUP7 SWAP4 DUP5 SWAP3 PUSH4 0x7CC6765F PUSH1 0xE1 SHL DUP5 MSTORE PUSH1 0x4 DUP5 ADD MSTORE GAS CALL SWAP2 DUP3 ISZERO PUSH2 0x3B6 JUMPI DUP9 SWAP3 PUSH2 0x305C JUMPI JUMPDEST POP PUSH1 0xB ADD SSTORE PUSH1 0x1 SLOAD DUP4 MLOAD PUSH1 0x20 DUP6 ADD MLOAD PUSH1 0x40 DUP7 ADD MLOAD PUSH1 0x60 DUP8 ADD MLOAD DUP11 SWAP5 SWAP1 SWAP4 SWAP3 SWAP2 ISZERO ISZERO SWAP2 PUSH1 0x1 PUSH1 0x1 PUSH1 0xA0 SHL SUB SWAP2 DUP3 AND SWAP2 AND DUP2 EXTCODESIZE ISZERO PUSH2 0x305 JUMPI PUSH1 0x40 MLOAD PUSH4 0xB65B361F PUSH1 0xE0 SHL DUP2 MSTORE PUSH1 0x4 DUP2 ADD SWAP5 SWAP1 SWAP5 MSTORE PUSH1 0x1 PUSH1 0x1 PUSH1 0xA0 SHL SUB AND PUSH1 0x24 DUP5 ADD MSTORE SWAP1 ISZERO ISZERO PUSH1 0x44 DUP4 ADD MSTORE PUSH1 0x64 DUP3 ADD SWAP3 SWAP1 SWAP3 MSTORE SWAP1 DUP3 SWAP1 DUP3 SWAP1 PUSH1 0x84 SWAP1 DUP3 SWAP1 DUP5 SWAP1 GAS CALL DUP1 ISZERO PUSH2 0x309 JUMPI PUSH2 0x3048 JUMPI JUMPDEST POP POP PUSH1 0x2 SLOAD PUSH1 0x80 DUP5 ADD MLOAD PUSH2 0x2D9B SWAP2 PUSH1 0x1 PUSH1 0x1 PUSH1 0xA0 SHL SUB AND PUSH2 0x3CA8 JUMP JUMPDEST PUSH1 0x2 SLOAD PUSH1 0x80 DUP5 ADD MLOAD DUP8 SWAP2 PUSH1 0x1 PUSH1 0x1 PUSH1 0xA0 SHL SUB AND SWAP1 DUP2 EXTCODESIZE ISZERO PUSH2 0x1215 JUMPI DUP3 SWAP2 PUSH1 0x24 DUP4 SWAP3 PUSH1 0x40 MLOAD SWAP5 DUP6 SWAP4 DUP5 SWAP3 PUSH4 0x6E93AE2B PUSH1 0xE0 SHL DUP5 MSTORE PUSH1 0x4 DUP5 ADD MSTORE GAS CALL DUP1 ISZERO PUSH2 0x309 JUMPI PUSH2 0x3034 JUMPI JUMPDEST POP POP PUSH2 0x180 DUP4 ADD MLOAD PUSH1 0x1 SLOAD PUSH1 0x40 DUP1 MLOAD PUSH4 0x1DB04579 PUSH1 0xE1 SHL DUP2 MSTORE PUSH1 0x4 DUP2 ADD SWAP4 SWAP1 SWAP4 MSTORE DUP9 SWAP2 DUP4 SWAP1 PUSH1 0x24 SWAP1 DUP3 SWAP1 PUSH1 0x1 PUSH1 0x1 PUSH1 0xA0 SHL SUB AND GAS STATICCALL SWAP2 DUP3 ISZERO PUSH2 0x1B3C JUMPI DUP2 SWAP1 DUP3 SWAP4 PUSH2 0x3010 JUMPI JUMPDEST POP DUP1 PUSH2 0x2FA7 JUMPI JUMPDEST POP POP DUP1 PUSH2 0x2F1D JUMPI JUMPDEST POP PUSH1 0x20 DUP4 DUP2 ADD MLOAD PUSH1 0x1 PUSH1 0x1 PUSH1 0xA0 SHL SUB AND DUP8 MSTORE PUSH1 0x9 SWAP1 MSTORE PUSH1 0x40 DUP7 KECCAK256 PUSH2 0x2E59 SWAP1 DUP3 SWAP1 PUSH2 0x36C9 JUMP JUMPDEST PUSH0 DUP1 MLOAD PUSH1 0x20 PUSH2 0x3F9C DUP4 CODECOPY DUP2 MLOAD SWAP2 MSTORE PUSH1 0xA0 PUSH1 0x1 DUP1 DUP3 SHL SUB PUSH1 0x20 DUP7 ADD MLOAD AND SWAP4 DUP6 MLOAD SWAP1 PUSH1 0x40 DUP8 ADD MLOAD ISZERO ISZERO SWAP1 PUSH1 0x60 DUP9 ADD MLOAD DUP5 DUP10 ADD MLOAD SWAP3 PUSH1 0x40 MLOAD SWAP5 DUP6 MSTORE PUSH1 0x20 DUP6 ADD MSTORE PUSH1 0x40 DUP5 ADD MSTORE PUSH1 0x60 DUP4 ADD MSTORE PUSH1 0x80 DUP3 ADD MSTORE LOG3 PUSH1 0xF DUP3 ADD SLOAD SWAP1 PUSH1 0x1 DUP3 ADD DUP1 SWAP3 GT PUSH2 0xF08 JUMPI PUSH32 0x98DC6C1012D2FB4CC0470EC0F1B82AD9EAF354865D76EBAD869D83F1559344E PUSH1 0x40 PUSH1 0x60 DUP7 SWAP4 DUP6 PUSH1 0xF DUP9 ADD SSTORE TIMESTAMP PUSH1 0x10 DUP9 ADD SSTORE ADD MLOAD DUP2 MLOAD SWAP1 DUP6 DUP3 MSTORE PUSH1 0x20 DUP3 ADD MSTORE LOG2 PUSH1 0xD DUP3 ADD SLOAD GT ISZERO PUSH2 0x2F0A JUMPI JUMPDEST PUSH0 PUSH2 0x2B1F JUMP JUMPDEST PUSH1 0x6 DUP2 ADD DUP1 SLOAD PUSH3 0xFF0000 NOT AND SWAP1 SSTORE PUSH2 0x2F04 JUMP JUMPDEST PUSH1 0x1 SLOAD PUSH1 0x40 MLOAD PUSH4 0x61D027B3 PUSH1 0xE0 SHL DUP2 MSTORE SWAP2 SWAP1 PUSH1 0x20 SWAP1 DUP4 SWAP1 PUSH1 0x4 SWAP1 DUP3 SWAP1 PUSH1 0x1 PUSH1 0x1 PUSH1 0xA0 SHL SUB AND GAS STATICCALL DUP1 ISZERO PUSH2 0x3B6 JUMPI DUP9 SWAP1 PUSH2 0x2F61 JUMPI JUMPDEST PUSH2 0x2F5B SWAP3 POP PUSH2 0x3CA8 JUMP JUMPDEST PUSH0 PUSH2 0x2E34 JUMP JUMPDEST POP SWAP1 PUSH1 0x20 DUP2 RETURNDATASIZE PUSH1 0x20 GT PUSH2 0x2F9F JUMPI JUMPDEST DUP2 PUSH2 0x2F7C PUSH1 0x20 SWAP4 DUP4 PUSH2 0x3325 JUMP JUMPDEST DUP2 ADD SUB SLT PUSH2 0x22E7 JUMPI MLOAD SWAP1 PUSH1 0x1 PUSH1 0x1 PUSH1 0xA0 SHL SUB DUP3 AND DUP3 SUB PUSH2 0x22E7 JUMPI PUSH2 0x2F5B SWAP2 PUSH2 0x2F51 JUMP JUMPDEST RETURNDATASIZE SWAP2 POP PUSH2 0x2F6F JUMP JUMPDEST PUSH1 0x2 SLOAD PUSH2 0x2FBE SWAP1 DUP3 SWAP1 PUSH1 0x1 PUSH1 0x1 PUSH1 0xA0 SHL SUB AND PUSH2 0x3CA8 JUMP JUMPDEST PUSH1 0x2 SLOAD PUSH1 0x1 PUSH1 0x1 PUSH1 0xA0 SHL SUB AND SWAP1 DUP2 EXTCODESIZE ISZERO PUSH2 0x1215 JUMPI DUP3 SWAP2 PUSH1 0x24 DUP4 SWAP3 PUSH1 0x40 MLOAD SWAP5 DUP6 SWAP4 DUP5 SWAP3 PUSH4 0x2102C97 PUSH1 0xE1 SHL DUP5 MSTORE PUSH1 0x4 DUP5 ADD MSTORE GAS CALL DUP1 ISZERO PUSH2 0x309 JUMPI ISZERO PUSH2 0x2E2C JUMPI PUSH2 0x3005 SWAP1 PUSH2 0x32E0 JUMP JUMPDEST PUSH2 0x33B JUMPI DUP7 PUSH0 PUSH2 0x2E2C JUMP JUMPDEST SWAP1 POP PUSH2 0x302C SWAP2 SWAP3 POP PUSH1 0x40 RETURNDATASIZE PUSH1 0x40 GT PUSH2 0x3AF JUMPI PUSH2 0x39F DUP2 DUP4 PUSH2 0x3325 JUMP JUMPDEST SWAP2 SWAP1 PUSH0 PUSH2 0x2E25 JUMP JUMPDEST PUSH2 0x303D SWAP1 PUSH2 0x32E0 JUMP JUMPDEST PUSH2 0x305 JUMPI DUP6 PUSH0 PUSH2 0x2DE0 JUMP JUMPDEST PUSH2 0x3051 SWAP1 PUSH2 0x32E0 JUMP JUMPDEST PUSH2 0x305 JUMPI DUP6 PUSH0 PUSH2 0x2D7F JUMP JUMPDEST SWAP1 SWAP2 POP PUSH1 0x20 DUP2 RETURNDATASIZE PUSH1 0x20 GT PUSH2 0x3089 JUMPI JUMPDEST DUP2 PUSH2 0x3078 PUSH1 0x20 SWAP4 DUP4 PUSH2 0x3325 JUMP JUMPDEST DUP2 ADD SUB SLT PUSH2 0x5AE JUMPI MLOAD SWAP1 PUSH1 0xB PUSH2 0x2CFD JUMP JUMPDEST RETURNDATASIZE SWAP2 POP PUSH2 0x306B JUMP JUMPDEST PUSH2 0x309A SWAP2 PUSH2 0x35A8 JUMP JUMPDEST PUSH2 0x2C03 JUMP JUMPDEST SWAP1 DUP7 DUP2 SLT PUSH2 0x30AF JUMPI JUMPDEST POP POP PUSH2 0x2C03 JUMP JUMPDEST PUSH2 0x2710 SWAP2 SWAP3 POP PUSH2 0x1BD6 PUSH2 0x30C1 SWAP2 PUSH2 0x3798 JUMP JUMPDEST DIV PUSH1 0x40 DUP4 ADD MLOAD ISZERO ISZERO PUSH0 EQ PUSH2 0x30DF JUMPI PUSH2 0x30D8 SWAP2 PUSH2 0x35A8 JUMP JUMPDEST PUSH0 DUP1 PUSH2 0x30A8 JUMP JUMPDEST PUSH2 0x30E8 SWAP2 PUSH2 0x3438 JUMP JUMPDEST PUSH2 0x30D8 JUMP JUMPDEST SWAP1 POP PUSH1 0x20 DUP2 RETURNDATASIZE PUSH1 0x20 GT PUSH2 0x3117 JUMPI JUMPDEST DUP2 PUSH2 0x3108 PUSH1 0x20 SWAP4 DUP4 PUSH2 0x3325 JUMP JUMPDEST DUP2 ADD SUB SLT PUSH2 0x5AE JUMPI MLOAD PUSH0 PUSH2 0x2BD4 JUMP JUMPDEST RETURNDATASIZE SWAP2 POP PUSH2 0x30FB JUMP JUMPDEST PUSH1 0x40 MLOAD PUSH3 0x461BCD PUSH1 0xE5 SHL DUP2 MSTORE PUSH1 0x20 PUSH1 0x4 DUP3 ADD MSTORE PUSH1 0xF PUSH1 0x24 DUP3 ADD MSTORE PUSH15 0x545741503A20746F6F206561726C79 PUSH1 0x88 SHL PUSH1 0x44 DUP3 ADD MSTORE PUSH1 0x64 SWAP1 REVERT JUMPDEST POP PUSH2 0x316A PUSH1 0x10 DUP4 ADD SLOAD PUSH1 0xE DUP5 ADD SLOAD SWAP1 PUSH2 0x3438 JUMP JUMPDEST TIMESTAMP LT ISZERO PUSH2 0x2B32 JUMP JUMPDEST PUSH1 0xFF SWAP2 SWAP3 POP PUSH2 0x318F SWAP1 PUSH1 0x40 RETURNDATASIZE PUSH1 0x40 GT PUSH2 0x3AF JUMPI PUSH2 0x39F DUP2 DUP4 PUSH2 0x3325 JUMP JUMPDEST POP SWAP2 SWAP1 PUSH2 0x1DDE JUMP JUMPDEST PUSH1 0x3 SLOAD PUSH1 0x1 PUSH1 0x1 PUSH1 0xA0 SHL SUB AND SWAP2 DUP3 EXTCODESIZE ISZERO PUSH2 0x5AE JUMPI PUSH1 0x40 MLOAD PUSH4 0x1DF3CBC5 PUSH1 0xE3 SHL DUP2 MSTORE SWAP3 PUSH0 SWAP3 DUP5 SWAP3 DUP4 SWAP2 DUP3 SWAP2 PUSH2 0x31CE SWAP2 PUSH1 0x4 DUP5 ADD PUSH2 0x3347 JUMP JUMPDEST SUB SWAP2 CALLVALUE SWAP1 GAS CALL DUP1 ISZERO PUSH2 0x31F8 JUMPI PUSH2 0x31E5 JUMPI JUMPDEST DUP1 PUSH2 0x1D85 JUMP JUMPDEST PUSH2 0x31F0 SWAP2 SWAP3 POP PUSH2 0x32E0 JUMP JUMPDEST PUSH0 SWAP1 PUSH0 PUSH2 0x31DF JUMP JUMPDEST PUSH1 0x40 MLOAD RETURNDATASIZE PUSH0 DUP3 RETURNDATACOPY RETURNDATASIZE SWAP1 REVERT JUMPDEST CALLVALUE PUSH2 0x5AE JUMPI PUSH0 CALLDATASIZE PUSH1 0x3 NOT ADD SLT PUSH2 0x5AE JUMPI PUSH1 0x20 SWAP1 PUSH1 0x6 SLOAD DUP2 MSTORE RETURN JUMPDEST SWAP2 DUP2 PUSH1 0x1F DUP5 ADD SLT ISZERO PUSH2 0x5AE JUMPI DUP3 CALLDATALOAD SWAP2 PUSH8 0xFFFFFFFFFFFFFFFF DUP4 GT PUSH2 0x5AE JUMPI PUSH1 0x20 DUP1 DUP6 ADD SWAP5 DUP5 PUSH1 0x5 SHL ADD ADD GT PUSH2 0x5AE JUMPI JUMP JUMPDEST SWAP1 PUSH1 0x40 PUSH1 0x3 NOT DUP4 ADD SLT PUSH2 0x5AE JUMPI PUSH1 0x4 CALLDATALOAD SWAP2 PUSH1 0x24 CALLDATALOAD SWAP1 PUSH8 0xFFFFFFFFFFFFFFFF DUP3 GT PUSH2 0x5AE JUMPI PUSH2 0x327E SWAP2 PUSH1 0x4 ADD PUSH2 0x321D JUMP JUMPDEST SWAP1 SWAP2 JUMP JUMPDEST PUSH1 0x24 CALLDATALOAD SWAP1 DUP2 ISZERO ISZERO DUP3 SUB PUSH2 0x5AE JUMPI JUMP JUMPDEST PUSH1 0x40 SWAP1 PUSH1 0x3 NOT ADD SLT PUSH2 0x5AE JUMPI PUSH1 0x4 CALLDATALOAD PUSH1 0x1 PUSH1 0x1 PUSH1 0xA0 SHL SUB DUP2 AND DUP2 SUB PUSH2 0x5AE JUMPI SWAP1 PUSH1 0x24 CALLDATALOAD SWAP1 JUMP JUMPDEST DUP1 SLOAD DUP3 LT ISZERO PUSH2 0x32CC JUMPI PUSH0 MSTORE PUSH1 0x20 PUSH0 KECCAK256 ADD SWAP1 PUSH0 SWAP1 JUMP JUMPDEST PUSH4 0x4E487B71 PUSH1 0xE0 SHL PUSH0 MSTORE PUSH1 0x32 PUSH1 0x4 MSTORE PUSH1 0x24 PUSH0 REVERT JUMPDEST PUSH8 0xFFFFFFFFFFFFFFFF DUP2 GT PUSH2 0x32F4 JUMPI PUSH1 0x40 MSTORE JUMP JUMPDEST PUSH4 0x4E487B71 PUSH1 0xE0 SHL PUSH0 MSTORE PUSH1 0x41 PUSH1 0x4 MSTORE PUSH1 0x24 PUSH0 REVERT JUMPDEST PUSH2 0x280 DUP2 ADD SWAP1 DUP2 LT PUSH8 0xFFFFFFFFFFFFFFFF DUP3 GT OR PUSH2 0x32F4 JUMPI PUSH1 0x40 MSTORE JUMP JUMPDEST SWAP1 PUSH1 0x1F DUP1 NOT SWAP2 ADD AND DUP2 ADD SWAP1 DUP2 LT PUSH8 0xFFFFFFFFFFFFFFFF DUP3 GT OR PUSH2 0x32F4 JUMPI PUSH1 0x40 MSTORE JUMP JUMPDEST SWAP2 PUSH1 0x20 DUP2 DUP2 DUP6 ADD DUP3 DUP7 MSTORE MSTORE PUSH1 0x40 DUP5 ADD SWAP4 PUSH1 0x40 DUP4 PUSH1 0x5 SHL DUP3 ADD ADD SWAP5 DUP5 PUSH0 SWAP3 JUMPDEST DUP6 DUP5 LT PUSH2 0x3376 JUMPI POP POP POP POP POP POP POP SWAP1 JUMP JUMPDEST SWAP1 SWAP2 SWAP3 SWAP4 SWAP5 SWAP6 SWAP7 PUSH1 0x3F NOT DUP3 DUP3 SUB ADD DUP5 MSTORE DUP8 CALLDATALOAD PUSH1 0x1E NOT DUP5 CALLDATASIZE SUB ADD DUP2 SLT ISZERO PUSH2 0x5AE JUMPI DUP4 ADD DUP7 DUP2 ADD SWAP2 SWAP1 CALLDATALOAD PUSH8 0xFFFFFFFFFFFFFFFF DUP2 GT PUSH2 0x5AE JUMPI DUP1 CALLDATASIZE SUB DUP4 SGT PUSH2 0x5AE JUMPI DUP8 DUP3 DUP3 DUP1 PUSH1 0x1 SWAP7 DUP5 SWAP7 SWAP6 DUP6 SWAP7 MSTORE DUP5 DUP5 ADD CALLDATACOPY PUSH0 DUP3 DUP3 ADD DUP5 ADD MSTORE PUSH1 0x1F ADD PUSH1 0x1F NOT AND ADD ADD SWAP10 ADD SWAP8 SWAP7 SWAP6 SWAP2 SWAP1 SWAP2 ADD SWAP4 ADD SWAP2 SWAP1 PUSH2 0x3365 JUMP JUMPDEST ISZERO PUSH2 0x33F0 JUMPI JUMP JUMPDEST PUSH1 0x40 MLOAD PUSH3 0x461BCD PUSH1 0xE5 SHL DUP2 MSTORE PUSH1 0x20 PUSH1 0x4 DUP3 ADD MSTORE PUSH1 0xA PUSH1 0x24 DUP3 ADD MSTORE PUSH10 0x4E6F7420616374697665 PUSH1 0xB0 SHL PUSH1 0x44 DUP3 ADD MSTORE PUSH1 0x64 SWAP1 REVERT JUMPDEST SWAP2 SWAP1 DUP3 PUSH1 0x40 SWAP2 SUB SLT PUSH2 0x5AE JUMPI PUSH1 0x20 DUP3 MLOAD SWAP3 ADD MLOAD SWAP1 JUMP JUMPDEST SWAP2 SWAP1 DUP3 ADD DUP1 SWAP3 GT PUSH2 0x3445 JUMPI JUMP JUMPDEST PUSH4 0x4E487B71 PUSH1 0xE0 SHL PUSH0 MSTORE PUSH1 0x11 PUSH1 0x4 MSTORE PUSH1 0x24 PUSH0 REVERT JUMPDEST SWAP1 PUSH1 0x40 MLOAD PUSH2 0x3466 DUP2 PUSH2 0x3308 JUMP JUMPDEST PUSH2 0x260 PUSH1 0x10 DUP3 SWAP5 DUP1 SLOAD DUP5 MSTORE PUSH1 0xFF PUSH1 0x1 DUP3 ADD SLOAD PUSH1 0x1 DUP1 PUSH1 0xA0 SHL SUB DUP2 AND PUSH1 0x20 DUP8 ADD MSTORE PUSH1 0xA0 SHR AND ISZERO ISZERO PUSH1 0x40 DUP6 ADD MSTORE PUSH1 0x2 DUP2 ADD SLOAD PUSH1 0x60 DUP6 ADD MSTORE PUSH1 0x3 DUP2 ADD SLOAD PUSH1 0x80 DUP6 ADD MSTORE PUSH1 0x4 DUP2 ADD SLOAD PUSH1 0xA0 DUP6 ADD MSTORE PUSH1 0x5 DUP2 ADD SLOAD PUSH1 0xC0 DUP6 ADD MSTORE PUSH1 0xFF PUSH1 0x6 DUP3 ADD SLOAD DUP2 DUP2 AND PUSH1 0xE0 DUP8 ADD MSTORE DUP2 DUP2 PUSH1 0x8 SHR AND ISZERO ISZERO PUSH2 0x100 DUP8 ADD MSTORE DUP4 SHR AND ISZERO ISZERO PUSH2 0x120 DUP6 ADD MSTORE PUSH1 0x7 DUP2 ADD SLOAD PUSH2 0x140 DUP6 ADD MSTORE PUSH1 0x8 DUP2 ADD SLOAD PUSH2 0x160 DUP6 ADD MSTORE PUSH1 0x9 DUP2 ADD SLOAD PUSH2 0x180 DUP6 ADD MSTORE PUSH1 0xA DUP2 ADD SLOAD PUSH2 0x1A0 DUP6 ADD MSTORE PUSH1 0xB DUP2 ADD SLOAD PUSH2 0x1C0 DUP6 ADD MSTORE PUSH1 0xC DUP2 ADD SLOAD PUSH2 0x1E0 DUP6 ADD MSTORE PUSH1 0xD DUP2 ADD SLOAD PUSH2 0x200 DUP6 ADD MSTORE PUSH1 0xE DUP2 ADD SLOAD PUSH2 0x220 DUP6 ADD MSTORE PUSH1 0xF DUP2 ADD SLOAD PUSH2 0x240 DUP6 ADD MSTORE ADD SLOAD SWAP2 ADD MSTORE JUMP JUMPDEST DUP2 ISZERO PUSH2 0x3555 JUMPI DIV SWAP1 JUMP JUMPDEST PUSH4 0x4E487B71 PUSH1 0xE0 SHL PUSH0 MSTORE PUSH1 0x12 PUSH1 0x4 MSTORE PUSH1 0x24 PUSH0 REVERT JUMPDEST RETURNDATASIZE ISZERO PUSH2 0x35A3 JUMPI RETURNDATASIZE SWAP1 PUSH8 0xFFFFFFFFFFFFFFFF DUP3 GT PUSH2 0x32F4 JUMPI PUSH1 0x40 MLOAD SWAP2 PUSH2 0x3598 PUSH1 0x1F DUP3 ADD PUSH1 0x1F NOT AND PUSH1 0x20 ADD DUP5 PUSH2 0x3325 JUMP JUMPDEST DUP3 MSTORE RETURNDATASIZE PUSH0 PUSH1 0x20 DUP5 ADD RETURNDATACOPY JUMP JUMPDEST PUSH1 0x60 SWAP1 JUMP JUMPDEST SWAP2 SWAP1 DUP3 SUB SWAP2 DUP3 GT PUSH2 0x3445 JUMPI JUMP JUMPDEST ISZERO PUSH2 0x35BC JUMPI JUMP JUMPDEST PUSH1 0x40 MLOAD PUSH3 0x461BCD PUSH1 0xE5 SHL DUP2 MSTORE PUSH1 0x20 PUSH1 0x4 DUP3 ADD MSTORE PUSH1 0xE PUSH1 0x24 DUP3 ADD MSTORE PUSH14 0x14DA5E99481D1BDBC81CDB585B1B PUSH1 0x92 SHL PUSH1 0x44 DUP3 ADD MSTORE PUSH1 0x64 SWAP1 REVERT JUMPDEST ISZERO PUSH2 0x35F9 JUMPI JUMP JUMPDEST PUSH1 0x40 MLOAD PUSH3 0x461BCD PUSH1 0xE5 SHL DUP2 MSTORE PUSH1 0x20 PUSH1 0x4 DUP3 ADD MSTORE PUSH1 0x10 PUSH1 0x24 DUP3 ADD MSTORE PUSH16 0x496E76616C6964205450207072696365 PUSH1 0x80 SHL PUSH1 0x44 DUP3 ADD MSTORE PUSH1 0x64 SWAP1 REVERT JUMPDEST ISZERO PUSH2 0x3638 JUMPI JUMP JUMPDEST PUSH1 0x40 MLOAD PUSH3 0x461BCD PUSH1 0xE5 SHL DUP2 MSTORE PUSH1 0x20 PUSH1 0x4 DUP3 ADD MSTORE PUSH1 0x10 PUSH1 0x24 DUP3 ADD MSTORE PUSH16 0x496E76616C696420534C207072696365 PUSH1 0x80 SHL PUSH1 0x44 DUP3 ADD MSTORE PUSH1 0x64 SWAP1 REVERT JUMPDEST ISZERO PUSH2 0x3677 JUMPI JUMP JUMPDEST PUSH1 0x40 MLOAD PUSH3 0x461BCD PUSH1 0xE5 SHL DUP2 MSTORE PUSH1 0x20 PUSH1 0x4 DUP3 ADD MSTORE PUSH1 0x9 PUSH1 0x24 DUP3 ADD MSTORE PUSH9 0x2737BA1037BBB732B9 PUSH1 0xB9 SHL PUSH1 0x44 DUP3 ADD MSTORE PUSH1 0x64 SWAP1 REVERT JUMPDEST DUP2 DUP2 MUL SWAP3 SWAP2 DUP2 ISZERO SWAP2 DUP5 DIV EQ OR ISZERO PUSH2 0x3445 JUMPI JUMP JUMPDEST PUSH0 NOT DUP2 EQ PUSH2 0x3445 JUMPI PUSH1 0x1 ADD SWAP1 JUMP JUMPDEST DUP1 SLOAD PUSH9 0x10000000000000000 DUP2 LT ISZERO PUSH2 0x32F4 JUMPI PUSH2 0x36EB SWAP2 PUSH1 0x1 DUP3 ADD DUP2 SSTORE PUSH2 0x32B7 JUMP JUMPDEST DUP2 SWAP3 SWAP2 SLOAD SWAP1 PUSH1 0x3 SHL SWAP2 DUP3 SHL SWAP2 PUSH0 NOT SWAP1 SHL NOT AND OR SWAP1 SSTORE JUMP JUMPDEST ISZERO PUSH2 0x3709 JUMPI JUMP JUMPDEST PUSH1 0x40 MLOAD PUSH3 0x461BCD PUSH1 0xE5 SHL DUP2 MSTORE PUSH1 0x20 PUSH1 0x4 DUP3 ADD MSTORE PUSH1 0x8 PUSH1 0x24 DUP3 ADD MSTORE PUSH8 0x2737BA1037B832B7 PUSH1 0xC1 SHL PUSH1 0x44 DUP3 ADD MSTORE PUSH1 0x64 SWAP1 REVERT JUMPDEST ISZERO PUSH2 0x3740 JUMPI JUMP JUMPDEST PUSH1 0x40 MLOAD PUSH3 0x461BCD PUSH1 0xE5 SHL DUP2 MSTORE PUSH1 0x20 PUSH1 0x4 DUP3 ADD MSTORE PUSH1 0xF PUSH1 0x24 DUP3 ADD MSTORE PUSH15 0x436F6F6C646F776E20616374697665 PUSH1 0x88 SHL PUSH1 0x44 DUP3 ADD MSTORE PUSH1 0x64 SWAP1 REVERT JUMPDEST PUSH1 0x2 PUSH0 SLOAD EQ PUSH2 0x3786 JUMPI PUSH1 0x2 PUSH0 SSTORE JUMP JUMPDEST PUSH1 0x40 MLOAD PUSH4 0x3EE5AEB5 PUSH1 0xE0 SHL DUP2 MSTORE PUSH1 0x4 SWAP1 REVERT JUMPDEST PUSH1 0x1 PUSH1 0xFF SHL DUP2 EQ PUSH2 0x3445 JUMPI PUSH0 SUB SWAP1 JUMP JUMPDEST DUP2 DUP2 SUB SWAP3 SWAP2 PUSH0 SGT DUP1 ISZERO DUP3 DUP6 SGT AND SWAP2 DUP5 SLT AND OR PUSH2 0x3445 JUMPI JUMP JUMPDEST DUP2 DUP2 MUL SWAP3 SWAP2 PUSH0 DUP3 SLT PUSH1 0x1 PUSH1 0xFF SHL DUP3 EQ AND PUSH2 0x3445 JUMPI DUP2 DUP5 SDIV EQ SWAP1 ISZERO OR ISZERO PUSH2 0x3445 JUMPI JUMP JUMPDEST DUP2 ISZERO PUSH2 0x3555 JUMPI PUSH1 0x1 PUSH1 0xFF SHL DUP2 EQ PUSH0 NOT DUP4 EQ AND PUSH2 0x3445 JUMPI SDIV SWAP1 JUMP JUMPDEST SWAP1 PUSH1 0x40 MLOAD PUSH2 0x1A0 DUP2 ADD DUP2 DUP2 LT PUSH8 0xFFFFFFFFFFFFFFFF DUP3 GT OR PUSH2 0x32F4 JUMPI PUSH1 0x40 MSTORE PUSH2 0x180 PUSH1 0xB DUP3 SWAP5 DUP1 SLOAD DUP5 MSTORE PUSH1 0xFF PUSH1 0x1 DUP3 ADD SLOAD PUSH1 0x1 DUP1 PUSH1 0xA0 SHL SUB DUP2 AND PUSH1 0x20 DUP8 ADD MSTORE PUSH1 0xA0 SHR AND ISZERO ISZERO PUSH1 0x40 DUP6 ADD MSTORE PUSH1 0x2 DUP2 ADD SLOAD PUSH1 0x60 DUP6 ADD MSTORE PUSH1 0x3 DUP2 ADD SLOAD PUSH1 0x80 DUP6 ADD MSTORE PUSH1 0x4 DUP2 ADD SLOAD PUSH1 0xA0 DUP6 ADD MSTORE PUSH1 0x5 DUP2 ADD SLOAD PUSH1 0xC0 DUP6 ADD MSTORE PUSH1 0x6 DUP2 ADD SLOAD PUSH1 0xE0 DUP6 ADD MSTORE PUSH1 0x7 DUP2 ADD SLOAD PUSH2 0x100 DUP6 ADD MSTORE PUSH1 0xFF PUSH1 0x8 DUP3 ADD SLOAD AND ISZERO ISZERO PUSH2 0x120 DUP6 ADD MSTORE PUSH1 0x9 DUP2 ADD SLOAD PUSH2 0x140 DUP6 ADD MSTORE PUSH1 0xA DUP2 ADD SLOAD PUSH2 0x160 DUP6 ADD MSTORE ADD SLOAD SWAP2 ADD MSTORE JUMP JUMPDEST SWAP2 SWAP1 SWAP2 PUSH0 DUP4 DUP3 ADD SWAP4 DUP5 SLT SWAP2 SLT SWAP1 DUP1 ISZERO DUP3 AND SWAP2 ISZERO AND OR PUSH2 0x3445 JUMPI JUMP JUMPDEST SWAP2 SWAP1 PUSH0 SWAP3 DUP1 PUSH0 MSTORE PUSH1 0x20 SWAP2 PUSH1 0x7 DUP4 MSTORE PUSH1 0x40 SWAP1 DUP2 PUSH0 KECCAK256 PUSH1 0x8 DUP2 ADD PUSH2 0x38F0 PUSH1 0xFF DUP3 SLOAD AND PUSH2 0x3702 JUMP JUMPDEST PUSH1 0x1 DUP3 ADD DUP1 SLOAD PUSH1 0xA0 SHR PUSH1 0xFF AND ISZERO PUSH2 0x3C75 JUMPI PUSH2 0x3926 PUSH1 0x4 DUP5 ADD SLOAD PUSH2 0x3921 PUSH2 0x3916 DUP3 DUP9 PUSH2 0x37A8 JUMP JUMPDEST PUSH1 0x2 DUP8 ADD SLOAD SWAP1 PUSH2 0x37C0 JUMP JUMPDEST PUSH2 0x37E2 JUMP JUMPDEST SWAP3 JUMPDEST PUSH1 0x1 DUP1 PUSH1 0xA0 SHL SUB SWAP3 DUP4 PUSH1 0x1 SLOAD AND SWAP1 PUSH1 0x2 DUP4 ADD SWAP3 DUP4 SLOAD SWAP4 DUP10 MLOAD SWAP4 PUSH4 0xE4D8CBE5 PUSH1 0xE0 SHL DUP6 MSTORE PUSH1 0x4 SWAP6 DUP7 DUP7 ADD MSTORE PUSH0 PUSH1 0x24 DUP7 ADD MSTORE DUP13 DUP6 PUSH1 0x44 DUP2 DUP5 GAS STATICCALL SWAP5 DUP6 ISZERO PUSH2 0x3C6B JUMPI DUP12 SWAP2 DUP15 SWAP2 PUSH0 SWAP8 PUSH2 0x3C38 JUMPI JUMPDEST POP SWAP1 PUSH0 SWAP2 PUSH1 0x24 PUSH4 0xD693A400 PUSH2 0x39AE PUSH2 0x3989 DUP10 PUSH2 0x37FC JUMP JUMPDEST PUSH2 0x39A9 PUSH1 0x60 PUSH2 0x399D PUSH2 0x100 DUP5 ADD MLOAD TIMESTAMP PUSH2 0x35A8 JUMP JUMPDEST SWAP3 ADD MLOAD PUSH1 0xB SLOAD SWAP1 PUSH2 0x36A8 JUMP JUMPDEST PUSH2 0x36A8 JUMP JUMPDEST DIV SWAP5 DUP8 SLOAD SWAP1 MLOAD SWAP5 DUP6 SWAP4 DUP5 SWAP3 PUSH4 0x7CC6765F PUSH1 0xE1 SHL DUP5 MSTORE DUP14 DUP5 ADD MSTORE GAS CALL DUP1 ISZERO PUSH2 0x3C2E JUMPI SWAP1 DUP15 SWAP2 PUSH2 0x3C05 JUMPI JUMPDEST POP POP PUSH2 0x3A00 PUSH2 0x3A06 SWAP2 PUSH2 0x39FB PUSH2 0x39F4 PUSH2 0x39EF DUP8 PUSH2 0x37FC JUMP JUMPDEST PUSH2 0x3EE2 JUMP JUMPDEST SWAP2 DUP9 PUSH2 0x38B0 JUMP JUMPDEST PUSH2 0x38B0 JUMP JUMPDEST DUP10 PUSH2 0x37A8 JUMP JUMPDEST DUP4 SLOAD PUSH1 0xFF NOT AND SWAP1 SWAP4 SSTORE PUSH1 0x1 SLOAD DUP3 SLOAD DUP8 SLOAD SWAP3 SLOAD SWAP1 SWAP2 DUP10 AND DUP1 EXTCODESIZE ISZERO PUSH2 0x5AE JUMPI DUP13 MLOAD PUSH4 0x19CA2B9 PUSH1 0xE5 SHL DUP2 MSTORE DUP1 DUP10 ADD SWAP4 DUP5 MSTORE PUSH1 0x1 PUSH1 0x1 PUSH1 0xA0 SHL SUB DUP6 DUP13 AND AND PUSH1 0x20 DUP6 ADD MSTORE PUSH1 0xA0 SWAP5 SWAP1 SWAP5 SHR PUSH1 0xFF AND ISZERO ISZERO PUSH1 0x40 DUP5 ADD MSTORE PUSH1 0x60 DUP4 ADD SWAP2 SWAP1 SWAP2 MSTORE PUSH0 SWAP2 DUP4 SWAP2 SWAP1 DUP3 SWAP1 DUP5 SWAP1 DUP3 SWAP1 PUSH1 0x80 ADD SUB SWAP3 GAS CALL DUP1 ISZERO PUSH2 0x3BFB JUMPI PUSH2 0x3BE6 JUMPI JUMPDEST POP SWAP1 DUP13 SWAP2 DUP3 DUP3 SGT PUSH2 0x3B8B JUMPI JUMPDEST DUP7 PUSH1 0x2 SLOAD AND PUSH1 0x3 DUP9 DUP9 SLOAD AND SWAP3 ADD SLOAD SWAP1 DUP1 EXTCODESIZE ISZERO PUSH2 0xEBD JUMPI DUP5 SWAP3 DUP4 PUSH1 0x64 SWAP3 DUP15 MLOAD SWAP7 DUP8 SWAP6 DUP7 SWAP5 PUSH4 0x118F3043 PUSH1 0xE0 SHL DUP7 MSTORE DUP13 DUP7 ADD MSTORE PUSH1 0x24 DUP6 ADD MSTORE PUSH1 0x44 DUP5 ADD MSTORE GAS CALL DUP1 ISZERO PUSH2 0x3B81 JUMPI PUSH2 0x3B69 JUMPI JUMPDEST POP POP DUP1 PUSH2 0x3B0D JUMPI JUMPDEST POP POP PUSH32 0x356FCA566F3A054A459C7224D9C9D634F31A98835CFD4FB4C5DDBF8B96ACA211 SWAP6 SWAP7 SWAP8 SWAP9 POP SLOAD AND SWAP6 DUP4 MLOAD SWAP3 DUP4 MSTORE DUP3 ADD MSTORE LOG3 JUMP JUMPDEST DUP11 SWAP1 DUP5 PUSH1 0x2 SLOAD AND SWAP3 DUP4 EXTCODESIZE ISZERO PUSH2 0x1215 JUMPI PUSH1 0x24 SWAP1 DUP4 DUP11 MLOAD SWAP6 DUP7 SWAP5 DUP6 SWAP4 PUSH4 0x35B8E713 PUSH1 0xE0 SHL DUP6 MSTORE DUP5 ADD MSTORE GAS CALL DUP1 ISZERO PUSH2 0x3B5F JUMPI PUSH2 0x3B47 JUMPI JUMPDEST DUP1 PUSH2 0x3AD7 JUMP JUMPDEST PUSH2 0x3B51 DUP11 SWAP2 PUSH2 0x32E0 JUMP JUMPDEST PUSH2 0x3B5B JUMPI DUP9 PUSH2 0x3B41 JUMP JUMPDEST DUP9 DUP1 REVERT JUMPDEST DUP7 MLOAD RETURNDATASIZE DUP13 DUP3 RETURNDATACOPY RETURNDATASIZE SWAP1 REVERT JUMPDEST PUSH2 0x3B72 SWAP1 PUSH2 0x32E0 JUMP JUMPDEST PUSH2 0x3B7D JUMPI DUP11 PUSH0 PUSH2 0x3ACF JUMP JUMPDEST DUP11 DUP1 REVERT JUMPDEST DUP10 MLOAD RETURNDATASIZE DUP5 DUP3 RETURNDATACOPY RETURNDATASIZE SWAP1 REVERT JUMPDEST DUP7 PUSH1 0x1 SLOAD AND DUP1 EXTCODESIZE ISZERO PUSH2 0x314 JUMPI DUP4 DUP1 SWAP2 PUSH1 0x24 DUP14 MLOAD DUP1 SWAP5 DUP2 SWAP4 PUSH4 0x630304F9 PUSH1 0xE1 SHL DUP4 MSTORE DUP9 DUP13 DUP5 ADD MSTORE GAS CALL DUP1 ISZERO PUSH2 0x3BDC JUMPI SWAP1 DUP5 SWAP2 PUSH2 0x3BC8 JUMPI JUMPDEST POP POP PUSH2 0x3A87 JUMP JUMPDEST PUSH2 0x3BD1 SWAP1 PUSH2 0x32E0 JUMP JUMPDEST PUSH2 0x1215 JUMPI DUP3 PUSH0 PUSH2 0x3BC1 JUMP JUMPDEST DUP12 MLOAD RETURNDATASIZE DUP7 DUP3 RETURNDATACOPY RETURNDATASIZE SWAP1 REVERT JUMPDEST PUSH2 0x3BF2 SWAP2 SWAP3 SWAP14 POP PUSH2 0x32E0 JUMP JUMPDEST PUSH0 SWAP12 SWAP1 PUSH0 PUSH2 0x3A7B JUMP JUMPDEST DUP11 MLOAD RETURNDATASIZE PUSH0 DUP3 RETURNDATACOPY RETURNDATASIZE SWAP1 REVERT JUMPDEST DUP2 RETURNDATASIZE DUP4 GT PUSH2 0x3C27 JUMPI JUMPDEST PUSH2 0x3C18 DUP2 DUP4 PUSH2 0x3325 JUMP JUMPDEST DUP2 ADD SUB SLT PUSH2 0x5AE JUMPI DUP13 PUSH0 PUSH2 0x39D7 JUMP JUMPDEST POP RETURNDATASIZE PUSH2 0x3C0E JUMP JUMPDEST DUP13 MLOAD RETURNDATASIZE PUSH0 DUP3 RETURNDATACOPY RETURNDATASIZE SWAP1 REVERT JUMPDEST SWAP3 POP SWAP6 POP DUP2 DUP2 RETURNDATASIZE DUP4 GT PUSH2 0x3C64 JUMPI JUMPDEST PUSH2 0x3C50 DUP2 DUP4 PUSH2 0x3325 JUMP JUMPDEST DUP2 ADD SUB SLT PUSH2 0x5AE JUMPI MLOAD SWAP4 DUP11 SWAP1 DUP14 SWAP1 PUSH0 PUSH2 0x3972 JUMP JUMPDEST POP RETURNDATASIZE PUSH2 0x3C46 JUMP JUMPDEST DUP12 MLOAD RETURNDATASIZE PUSH0 DUP3 RETURNDATACOPY RETURNDATASIZE SWAP1 REVERT JUMPDEST PUSH2 0x3C8A PUSH1 0x4 DUP5 ADD SLOAD PUSH2 0x3921 PUSH2 0x3916 DUP8 DUP4 PUSH2 0x37A8 JUMP JUMPDEST SWAP3 PUSH2 0x3928 JUMP JUMPDEST SWAP1 DUP2 PUSH1 0x20 SWAP2 SUB SLT PUSH2 0x5AE JUMPI MLOAD DUP1 ISZERO ISZERO DUP2 SUB PUSH2 0x5AE JUMPI SWAP1 JUMP JUMPDEST PUSH1 0x20 SWAP1 PUSH1 0x44 PUSH1 0x1 DUP1 PUSH1 0xA0 SHL SUB SWAP2 PUSH0 DUP4 PUSH1 0x4 SLOAD AND PUSH1 0x40 MLOAD SWAP7 DUP8 SWAP6 DUP7 SWAP5 PUSH4 0xA9059CBB PUSH1 0xE0 SHL DUP7 MSTORE AND PUSH1 0x4 DUP6 ADD MSTORE PUSH1 0x24 DUP5 ADD MSTORE GAS CALL SWAP1 DUP2 ISZERO PUSH2 0x31F8 JUMPI PUSH0 SWAP2 PUSH2 0x3D27 JUMPI JUMPDEST POP ISZERO PUSH2 0x3CF0 JUMPI JUMP JUMPDEST PUSH1 0x40 MLOAD PUSH3 0x461BCD PUSH1 0xE5 SHL DUP2 MSTORE PUSH1 0x20 PUSH1 0x4 DUP3 ADD MSTORE PUSH1 0xF PUSH1 0x24 DUP3 ADD MSTORE PUSH15 0x151C985B9CD9995C8819985A5B1959 PUSH1 0x8A SHL PUSH1 0x44 DUP3 ADD MSTORE PUSH1 0x64 SWAP1 REVERT JUMPDEST PUSH2 0x3D49 SWAP2 POP PUSH1 0x20 RETURNDATASIZE PUSH1 0x20 GT PUSH2 0x3D4F JUMPI JUMPDEST PUSH2 0x3D41 DUP2 DUP4 PUSH2 0x3325 JUMP JUMPDEST DUP2 ADD SWAP1 PUSH2 0x3C90 JUMP JUMPDEST PUSH0 PUSH2 0x3CE8 JUMP JUMPDEST POP RETURNDATASIZE PUSH2 0x3D37 JUMP JUMPDEST SWAP2 PUSH1 0x64 PUSH1 0x20 SWAP3 SWAP4 PUSH0 PUSH1 0x1 DUP1 PUSH1 0xA0 SHL SUB SWAP4 DUP5 PUSH1 0x4 SLOAD AND SWAP1 DUP6 PUSH1 0x40 MLOAD SWAP9 DUP10 SWAP8 DUP9 SWAP7 PUSH4 0x23B872DD PUSH1 0xE0 SHL DUP9 MSTORE AND PUSH1 0x4 DUP8 ADD MSTORE AND PUSH1 0x24 DUP6 ADD MSTORE PUSH1 0x44 DUP5 ADD MSTORE GAS CALL SWAP1 DUP2 ISZERO PUSH2 0x31F8 JUMPI PUSH0 SWAP2 PUSH2 0x3DE3 JUMPI JUMPDEST POP ISZERO PUSH2 0x3DA8 JUMPI JUMP JUMPDEST PUSH1 0x40 MLOAD PUSH3 0x461BCD PUSH1 0xE5 SHL DUP2 MSTORE PUSH1 0x20 PUSH1 0x4 DUP3 ADD MSTORE PUSH1 0x13 PUSH1 0x24 DUP3 ADD MSTORE PUSH19 0x151C985B9CD9995C919C9BDB4819985A5B1959 PUSH1 0x6A SHL PUSH1 0x44 DUP3 ADD MSTORE PUSH1 0x64 SWAP1 REVERT JUMPDEST PUSH2 0x3DFC SWAP2 POP PUSH1 0x20 RETURNDATASIZE PUSH1 0x20 GT PUSH2 0x3D4F JUMPI PUSH2 0x3D41 DUP2 DUP4 PUSH2 0x3325 JUMP JUMPDEST PUSH0 PUSH2 0x3DA0 JUMP JUMPDEST PUSH1 0x1 SLOAD PUSH1 0x40 MLOAD PUSH4 0x35123BAF PUSH1 0xE2 SHL DUP2 MSTORE SWAP2 SWAP3 SWAP2 SWAP1 PUSH1 0x20 SWAP1 DUP3 SWAP1 PUSH1 0x4 SWAP1 DUP3 SWAP1 PUSH1 0x1 PUSH1 0x1 PUSH1 0xA0 SHL SUB AND GAS STATICCALL SWAP1 DUP2 ISZERO PUSH2 0x31F8 JUMPI PUSH0 SWAP2 PUSH2 0x3EB0 JUMPI JUMPDEST POP PUSH1 0xA DUP2 ADD DUP1 SWAP2 GT PUSH2 0x3445 JUMPI DUP2 PUSH2 0x3E4F SWAP2 PUSH2 0x36A8 JUMP JUMPDEST PUSH2 0x2328 SWAP2 SWAP1 DUP3 DUP2 LT PUSH2 0x3E98 JUMPI POP POP POP PUSH1 0x64 SWAP2 JUMPDEST ISZERO PUSH2 0x3E81 JUMPI PUSH2 0x2710 PUSH2 0x3E77 PUSH2 0x3E7E SWAP4 DUP4 PUSH2 0x36A8 JUMP JUMPDEST DIV SWAP1 PUSH2 0x35A8 JUMP JUMPDEST SWAP1 JUMP JUMPDEST PUSH2 0x2710 PUSH2 0x3E91 PUSH2 0x3E7E SWAP4 DUP4 PUSH2 0x36A8 JUMP JUMPDEST DIV SWAP1 PUSH2 0x3438 JUMP JUMPDEST DUP3 SUB SWAP2 DUP3 GT PUSH2 0x3445 JUMPI PUSH2 0x3EAA SWAP2 PUSH2 0x354B JUMP JUMPDEST SWAP2 PUSH2 0x3E62 JUMP JUMPDEST SWAP1 POP PUSH1 0x20 DUP2 RETURNDATASIZE PUSH1 0x20 GT PUSH2 0x3EDA JUMPI JUMPDEST DUP2 PUSH2 0x3ECB PUSH1 0x20 SWAP4 DUP4 PUSH2 0x3325 JUMP JUMPDEST DUP2 ADD SUB SLT PUSH2 0x5AE JUMPI MLOAD PUSH0 PUSH2 0x3E39 JUMP JUMPDEST RETURNDATASIZE SWAP2 POP PUSH2 0x3EBE JUMP JUMPDEST PUSH1 0x1 DUP1 PUSH1 0xA0 SHL SUB PUSH1 0x1 SLOAD AND SWAP1 PUSH1 0x20 DUP2 MLOAD PUSH1 0x24 PUSH1 0x40 MLOAD DUP1 SWAP6 DUP2 SWAP4 PUSH4 0x4655F1EB PUSH1 0xE0 SHL DUP4 MSTORE PUSH1 0x4 DUP4 ADD MSTORE GAS STATICCALL SWAP2 DUP3 ISZERO PUSH2 0x31F8 JUMPI PUSH0 SWAP3 PUSH2 0x3F65 JUMPI JUMPDEST POP PUSH2 0x3F34 PUSH8 0xDE0B6B3A7640000 SWAP3 PUSH2 0x180 DUP4 ADD MLOAD SWAP1 PUSH2 0x37A8 JUMP JUMPDEST PUSH1 0x40 DUP3 ADD MLOAD ISZERO PUSH2 0x3F4F JUMPI PUSH1 0x60 PUSH2 0x3F4B SWAP3 ADD MLOAD PUSH2 0x37C0 JUMP JUMPDEST SDIV SWAP1 JUMP JUMPDEST PUSH2 0x3F60 SWAP1 PUSH1 0x60 PUSH2 0x3F4B SWAP4 ADD MLOAD PUSH2 0x37C0 JUMP JUMPDEST PUSH2 0x3798 JUMP JUMPDEST SWAP2 POP PUSH1 0x20 DUP3 RETURNDATASIZE PUSH1 0x20 GT PUSH2 0x3F93 JUMPI JUMPDEST DUP2 PUSH2 0x3F80 PUSH1 0x20 SWAP4 DUP4 PUSH2 0x3325 JUMP JUMPDEST DUP2 ADD SUB SLT PUSH2 0x5AE JUMPI SWAP1 MLOAD SWAP1 PUSH2 0x3F34 PUSH2 0x3F1A JUMP JUMPDEST RETURNDATASIZE SWAP2 POP PUSH2 0x3F73 JUMP INVALID MSTORE 0xCA PREVRANDAO 0xDE 0xA9 SELFBALANCE BLOBHASH 0xAA 0xDF 0xAA 0x4D CALLDATACOPY BLOBHASH LOG0 ORIGIN GASPRICE CALLER 0xB3 0xA6 NUMBER BLOBBASEFEE 0xDC SELFDESTRUCT CREATE2 0x2A 0xD5 0x4C MLOAD 0x1F SSTORE PUSH26 0xC7A26469706673582212203038C10FC340E68A102C5A906CBBF0 EQ PUSH12 0x7C04D37E2BF2B93593B272FA 0xC0 0xB2 0xDF PUSH5 0x736F6C6343 STOP ADDMOD XOR STOP CALLER "},"methodIdentifiers":{"MIN_POSITION_SIZE()":"368dbba8","cancelOrder(uint256)":"514fcac7","closePositionInstantly(uint256,bytes[])":"f5ba8a2a","core()":"f2f4eb26","createCloseRequest(uint256)":"9bfe7e3e","createTwapOrder(bytes32,bool,uint256,uint256,uint256,uint256,uint256,uint256)":"6fb197f7","executeOrder(uint256,bytes[])":"33e7dddb","executeTPSL(uint256,bytes[])":"80b74258","liquidate(uint256,bytes[])":"f6614170","liquidationRewardBps()":"effaed89","nextOrderId()":"2a58b330","nextPositionId()":"899346c7","oracle()":"7dc0d1d0","pendingOrders(uint256)":"c3aaea4e","placeMarketOrder(bytes32,bool,uint256,uint256,uint256,uint256,bytes[])":"3ae95909","placeOrder(bytes32,bool,uint256,uint256,uint256,uint8,bool,uint256,uint256)":"666c187e","positions(uint256)":"99fbab88","rolloverFeePerHour()":"8fb735ee","usdc()":"3e413bee","userOrders(address,uint256)":"856652e9","userPositions(address,uint256)":"5e1b4d99","vault()":"fbfa77cf"}}}}}