{
  "_format": "hh3-artifact-1",
  "contractName": "ConfidentialVault",
  "sourceName": "src/ConfidentialVault.sol",
  "abi": [
    {
      "inputs": [
        {
          "internalType": "address",
          "name": "_usdc",
          "type": "address"
        },
        {
          "internalType": "address",
          "name": "_core",
          "type": "address"
        }
      ],
      "stateMutability": "nonpayable",
      "type": "constructor"
    },
    {
      "inputs": [],
      "name": "DepositsDisabled",
      "type": "error"
    },
    {
      "inputs": [],
      "name": "ExceedsDepositCap",
      "type": "error"
    },
    {
      "inputs": [],
      "name": "ExceedsTVLCap",
      "type": "error"
    },
    {
      "inputs": [],
      "name": "InsufficientLiquidity",
      "type": "error"
    },
    {
      "inputs": [],
      "name": "InsufficientShares",
      "type": "error"
    },
    {
      "inputs": [],
      "name": "LockupNotExpired",
      "type": "error"
    },
    {
      "inputs": [],
      "name": "OnlyOwner",
      "type": "error"
    },
    {
      "inputs": [],
      "name": "OnlyTrading",
      "type": "error"
    },
    {
      "inputs": [],
      "name": "ReentrancyGuardReentrantCall",
      "type": "error"
    },
    {
      "inputs": [],
      "name": "ZeroAmount",
      "type": "error"
    },
    {
      "anonymous": false,
      "inputs": [
        {
          "indexed": true,
          "internalType": "address",
          "name": "user",
          "type": "address"
        },
        {
          "indexed": false,
          "internalType": "uint256",
          "name": "amount",
          "type": "uint256"
        },
        {
          "indexed": false,
          "internalType": "uint256",
          "name": "sharesReceived",
          "type": "uint256"
        }
      ],
      "name": "Deposit",
      "type": "event"
    },
    {
      "anonymous": false,
      "inputs": [],
      "name": "EmergencyModeActivated",
      "type": "event"
    },
    {
      "anonymous": false,
      "inputs": [],
      "name": "EmergencyModeDeactivated",
      "type": "event"
    },
    {
      "anonymous": false,
      "inputs": [
        {
          "indexed": false,
          "internalType": "uint256",
          "name": "amount",
          "type": "uint256"
        }
      ],
      "name": "FeeReceived",
      "type": "event"
    },
    {
      "anonymous": false,
      "inputs": [
        {
          "indexed": true,
          "internalType": "address",
          "name": "trader",
          "type": "address"
        },
        {
          "indexed": true,
          "internalType": "address",
          "name": "liquidator",
          "type": "address"
        },
        {
          "indexed": false,
          "internalType": "uint256",
          "name": "collateral",
          "type": "uint256"
        },
        {
          "indexed": false,
          "internalType": "uint256",
          "name": "reward",
          "type": "uint256"
        }
      ],
      "name": "LiquidationSettled",
      "type": "event"
    },
    {
      "anonymous": false,
      "inputs": [
        {
          "indexed": true,
          "internalType": "address",
          "name": "trader",
          "type": "address"
        },
        {
          "indexed": false,
          "internalType": "int256",
          "name": "netPnl",
          "type": "int256"
        },
        {
          "indexed": false,
          "internalType": "uint256",
          "name": "collateral",
          "type": "uint256"
        }
      ],
      "name": "PositionSettled",
      "type": "event"
    },
    {
      "anonymous": false,
      "inputs": [
        {
          "indexed": true,
          "internalType": "address",
          "name": "user",
          "type": "address"
        },
        {
          "indexed": false,
          "internalType": "uint256",
          "name": "amount",
          "type": "uint256"
        },
        {
          "indexed": false,
          "internalType": "uint256",
          "name": "sharesBurned",
          "type": "uint256"
        }
      ],
      "name": "Withdraw",
      "type": "event"
    },
    {
      "inputs": [],
      "name": "MINIMUM_LIQUIDITY",
      "outputs": [
        {
          "internalType": "uint256",
          "name": "",
          "type": "uint256"
        }
      ],
      "stateMutability": "view",
      "type": "function"
    },
    {
      "inputs": [],
      "name": "availableLiquidity",
      "outputs": [
        {
          "internalType": "uint256",
          "name": "",
          "type": "uint256"
        }
      ],
      "stateMutability": "view",
      "type": "function"
    },
    {
      "inputs": [
        {
          "internalType": "address",
          "name": "user",
          "type": "address"
        }
      ],
      "name": "balanceOfUnderlying",
      "outputs": [
        {
          "internalType": "uint256",
          "name": "",
          "type": "uint256"
        }
      ],
      "stateMutability": "view",
      "type": "function"
    },
    {
      "inputs": [
        {
          "internalType": "address",
          "name": "user",
          "type": "address"
        }
      ],
      "name": "canWithdraw",
      "outputs": [
        {
          "internalType": "bool",
          "name": "",
          "type": "bool"
        }
      ],
      "stateMutability": "view",
      "type": "function"
    },
    {
      "inputs": [],
      "name": "core",
      "outputs": [
        {
          "internalType": "contract ConfidentialCore",
          "name": "",
          "type": "address"
        }
      ],
      "stateMutability": "view",
      "type": "function"
    },
    {
      "inputs": [],
      "name": "decimals",
      "outputs": [
        {
          "internalType": "uint8",
          "name": "",
          "type": "uint8"
        }
      ],
      "stateMutability": "view",
      "type": "function"
    },
    {
      "inputs": [
        {
          "internalType": "uint256",
          "name": "amount",
          "type": "uint256"
        }
      ],
      "name": "deposit",
      "outputs": [],
      "stateMutability": "nonpayable",
      "type": "function"
    },
    {
      "inputs": [
        {
          "internalType": "address",
          "name": "",
          "type": "address"
        }
      ],
      "name": "depositTimestamp",
      "outputs": [
        {
          "internalType": "uint256",
          "name": "",
          "type": "uint256"
        }
      ],
      "stateMutability": "view",
      "type": "function"
    },
    {
      "inputs": [],
      "name": "depositsEnabled",
      "outputs": [
        {
          "internalType": "bool",
          "name": "",
          "type": "bool"
        }
      ],
      "stateMutability": "view",
      "type": "function"
    },
    {
      "inputs": [],
      "name": "disableEmergencyMode",
      "outputs": [],
      "stateMutability": "nonpayable",
      "type": "function"
    },
    {
      "inputs": [
        {
          "internalType": "uint256",
          "name": "totalFee",
          "type": "uint256"
        }
      ],
      "name": "distributeClosingFee",
      "outputs": [],
      "stateMutability": "nonpayable",
      "type": "function"
    },
    {
      "inputs": [],
      "name": "emergencyMode",
      "outputs": [
        {
          "internalType": "bool",
          "name": "",
          "type": "bool"
        }
      ],
      "stateMutability": "view",
      "type": "function"
    },
    {
      "inputs": [],
      "name": "enableEmergencyMode",
      "outputs": [],
      "stateMutability": "nonpayable",
      "type": "function"
    },
    {
      "inputs": [],
      "name": "lockupPeriod",
      "outputs": [
        {
          "internalType": "uint256",
          "name": "",
          "type": "uint256"
        }
      ],
      "stateMutability": "view",
      "type": "function"
    },
    {
      "inputs": [],
      "name": "maxDepositPerUser",
      "outputs": [
        {
          "internalType": "uint256",
          "name": "",
          "type": "uint256"
        }
      ],
      "stateMutability": "view",
      "type": "function"
    },
    {
      "inputs": [],
      "name": "maxTotalDeposits",
      "outputs": [
        {
          "internalType": "uint256",
          "name": "",
          "type": "uint256"
        }
      ],
      "stateMutability": "view",
      "type": "function"
    },
    {
      "inputs": [],
      "name": "name",
      "outputs": [
        {
          "internalType": "string",
          "name": "",
          "type": "string"
        }
      ],
      "stateMutability": "view",
      "type": "function"
    },
    {
      "inputs": [
        {
          "internalType": "uint256",
          "name": "amount",
          "type": "uint256"
        }
      ],
      "name": "receiveFees",
      "outputs": [],
      "stateMutability": "nonpayable",
      "type": "function"
    },
    {
      "inputs": [
        {
          "internalType": "uint256",
          "name": "amount",
          "type": "uint256"
        }
      ],
      "name": "reserveBacking",
      "outputs": [],
      "stateMutability": "nonpayable",
      "type": "function"
    },
    {
      "inputs": [
        {
          "internalType": "uint256",
          "name": "_perUser",
          "type": "uint256"
        },
        {
          "internalType": "uint256",
          "name": "_total",
          "type": "uint256"
        }
      ],
      "name": "setDepositCaps",
      "outputs": [],
      "stateMutability": "nonpayable",
      "type": "function"
    },
    {
      "inputs": [
        {
          "internalType": "bool",
          "name": "_enabled",
          "type": "bool"
        }
      ],
      "name": "setDepositsEnabled",
      "outputs": [],
      "stateMutability": "nonpayable",
      "type": "function"
    },
    {
      "inputs": [
        {
          "internalType": "uint256",
          "name": "_seconds",
          "type": "uint256"
        }
      ],
      "name": "setLockupPeriod",
      "outputs": [],
      "stateMutability": "nonpayable",
      "type": "function"
    },
    {
      "inputs": [
        {
          "internalType": "address",
          "name": "trader",
          "type": "address"
        },
        {
          "internalType": "address",
          "name": "liquidator",
          "type": "address"
        },
        {
          "internalType": "uint256",
          "name": "collateral",
          "type": "uint256"
        },
        {
          "internalType": "uint256",
          "name": "reward",
          "type": "uint256"
        }
      ],
      "name": "settleLiquidation",
      "outputs": [],
      "stateMutability": "nonpayable",
      "type": "function"
    },
    {
      "inputs": [
        {
          "internalType": "address",
          "name": "trader",
          "type": "address"
        },
        {
          "internalType": "uint256",
          "name": "collateral",
          "type": "uint256"
        },
        {
          "internalType": "int256",
          "name": "netPnl",
          "type": "int256"
        }
      ],
      "name": "settlePosition",
      "outputs": [],
      "stateMutability": "nonpayable",
      "type": "function"
    },
    {
      "inputs": [],
      "name": "sharePrice",
      "outputs": [
        {
          "internalType": "uint256",
          "name": "",
          "type": "uint256"
        }
      ],
      "stateMutability": "view",
      "type": "function"
    },
    {
      "inputs": [
        {
          "internalType": "address",
          "name": "",
          "type": "address"
        }
      ],
      "name": "shares",
      "outputs": [
        {
          "internalType": "uint256",
          "name": "",
          "type": "uint256"
        }
      ],
      "stateMutability": "view",
      "type": "function"
    },
    {
      "inputs": [],
      "name": "symbol",
      "outputs": [
        {
          "internalType": "string",
          "name": "",
          "type": "string"
        }
      ],
      "stateMutability": "view",
      "type": "function"
    },
    {
      "inputs": [],
      "name": "totalAssets",
      "outputs": [
        {
          "internalType": "uint256",
          "name": "",
          "type": "uint256"
        }
      ],
      "stateMutability": "view",
      "type": "function"
    },
    {
      "inputs": [],
      "name": "totalBacking",
      "outputs": [
        {
          "internalType": "uint256",
          "name": "",
          "type": "uint256"
        }
      ],
      "stateMutability": "view",
      "type": "function"
    },
    {
      "inputs": [],
      "name": "totalShares",
      "outputs": [
        {
          "internalType": "uint256",
          "name": "",
          "type": "uint256"
        }
      ],
      "stateMutability": "view",
      "type": "function"
    },
    {
      "inputs": [],
      "name": "usdc",
      "outputs": [
        {
          "internalType": "contract IERC20",
          "name": "",
          "type": "address"
        }
      ],
      "stateMutability": "view",
      "type": "function"
    },
    {
      "inputs": [],
      "name": "utilization",
      "outputs": [
        {
          "internalType": "uint256",
          "name": "",
          "type": "uint256"
        }
      ],
      "stateMutability": "view",
      "type": "function"
    },
    {
      "inputs": [
        {
          "internalType": "uint256",
          "name": "shareAmount",
          "type": "uint256"
        }
      ],
      "name": "withdraw",
      "outputs": [],
      "stateMutability": "nonpayable",
      "type": "function"
    }
  ],
  "bytecode": "0x60a0346100eb57601f6119dc38819003918201601f19168301916001600160401b038311848410176100ef5780849260409485528339810103126100eb57610052602061004b83610103565b9201610103565b60015f81905562093a8060055564e8d4a51000600855652d79883d2000600955600a805461ff0019166101001790556001600160a01b0392831660805280546001600160a01b031916919092161790556040516118c49081610118823960805181818161056c015281816109c001528181610b6f01528181610cd901528181610ebf015281816110b9015281816111fa015261141f0152f35b5f80fd5b634e487b7160e01b5f52604160045260245ffd5b51906001600160a01b03821682036100eb5756fe6080604090808252600480361015610015575f80fd5b5f3560e01c91826301e1d114146115ff575081630420592e1461154557816306fdde03146114f15781630905f560146114ce57816309c0533b146113125781630bfedc8c1461129a578163118f304314610fd457816319262d3014610fa65781632e1a7d4d14610de0578163313ce56714610dc557816335b8e71314610a325781633a98ef3914610a145781633af9e669146109ef5781633e413bee146109ac57816346b00d04146109775781635392fd1c1461095157816361b01b5d146109335781636e93ae2b146108a8578163743753591461086d57816382e5310c1461084f578163872697291461083357816395d89b41146107f25781639f04586c14610761578163b6b55f2514610482578163ba9a7a5614610466578163c5b1c7d0146103c7578163c771c39014610313578163ce7c2ac2146102dc578163ea21cd92146102b9578163eb2cd2581461029b578163ee947a7c1461027d578163ef952568146101b6575063f2f4eb261461018b575f80fd5b346101b2575f3660031901126101b25760015490516001600160a01b039091168152602090f35b5f80fd5b82346101b2575f3660031901126101b2576001548151638da5cb5b60e01b81526001600160a01b039160209082908690829086165afa908115610273575f91610244575b501633036102375761010061ffff19600a541617600a557f70b9dcaceb756943ac1a4f48b8df9ea82fbb012b87e405cba4ed77d1ded0df415f80a1005b51635fc483c560e01b8152fd5b610266915060203d60201161026c575b61025e8183611649565b8101906116c8565b846101fa565b503d610254565b83513d5f823e3d90fd5b82346101b2575f3660031901126101b2576020906005549051908152f35b82346101b2575f3660031901126101b2576020906007549051908152f35b82346101b2575f3660031901126101b2576020906102d561183e565b9051908152f35b82346101b25760203660031901126101b2576020906001600160a01b036103016116b2565b165f5260038252805f20549051908152f35b9050346101b25760203660031901126101b2576001548251638da5cb5b60e01b8152823593916001600160a01b03919060209082908690829086165afa908115610273575f916103a8575b501633036102375762278d008311610377576005839055005b906020606492519162461bcd60e51b8352820152600b60248201526a4d6178203330206461797360a81b6044820152fd5b6103c1915060203d60201161026c5761025e8183611649565b5f61035e565b82346101b2575f3660031901126101b2576001548151638da5cb5b60e01b81526001600160a01b039160209082908690829086165afa908115610273575f91610447575b5016330361023757600161ffff19600a541617600a557f9e91804b7b70a36dcecd9afc85507eb02441c485502f58d0e68589aa50b8226a5f80a1005b610460915060203d60201161026c5761025e8183611649565b8461040b565b82346101b2575f3660031901126101b257602090516103e88152f35b82346101b257602090816003193601126101b2578235916104a161186d565b82156107515760ff600a5460081c161561074157600654906104c384836116e7565b60095410610731576002549182158015610729575b1561071557506103e891828511156106d2576103e71985018581116106bf579281018091116106ac576002555b8115610673576002548481156106685761053861053d92335f5260038552610533875f2054600654906117a4565b6117b7565b6116e7565b600854106106585782516323b872dd60e01b81523386820152306024820152604481018590529481866064815f7f00000000000000000000000000000000000000000000000000000000000000006001600160a01b03165af195861561064e577f90890809c654f11d6e72a28fa60149770a0d11ec6c92319d6ceb2bb0a4ea1a1595966105d1915f91610621575b5061172d565b6105dd836002546116e7565b600255335f5260038252835f206105f58482546116e7565b9055610603866006546116e7565b600655335f52815242835f205582519485528401523392a260015f55005b6106419150843d8611610647575b6106398183611649565b810190611715565b886105cb565b503d61062f565b84513d5f823e3d90fd5b8251631823752b60e11b81528590fd5b61053d91505f6116e7565b8460649184519162461bcd60e51b8352820152601460248201527353686172657320776f756c64206265207a65726f60601b6044820152fd5b601186634e487b7160e01b5f525260245ffd5b601187634e487b7160e01b5f525260245ffd5b835162461bcd60e51b8152808701839052601760248201527f4669727374206465706f73697420746f6f20736d616c6c0000000000000000006044820152606490fd5b6105336107239293866117a4565b90610505565b5080156104d8565b82516336a00c8b60e11b81528590fd5b8151630e2f42c960e31b81528490fd5b8151631f2a200560e01b81528490fd5b9050346101b25760203660031901126101b2578035918215158093036101b2576001548151638da5cb5b60e01b81526001600160a01b039160209082908690829086165afa908115610273575f916107d3575b5016330361023757600a805461ff001916600885901b61ff0016179055005b6107ec915060203d60201161026c5761025e8183611649565b5f6107b4565b82346101b2575f3660031901126101b257805161082f9161081282611619565b600682526518d59055531560d21b6020830152519182918261166b565b0390f35b82346101b2575f3660031901126101b2576020906102d561180b565b82346101b2575f3660031901126101b2576020906008549051908152f35b82346101b2575f3660031901126101b2576020906006546007548082115f1461089f576102d591611708565b51908152f35b50505f90610899565b82346101b25760203660031901126101b2576001548151637622567960e11b81526001600160a01b039160209082908690829086165afa908115610273575f91610914575b501633036109075761090282356007546116e7565b600755005b5163e9e3f4ad60e01b8152fd5b61092d915060203d60201161026c5761025e8183611649565b846108ed565b82346101b2575f3660031901126101b2576020906009549051908152f35b82346101b2575f3660031901126101b25760209060ff600a5460081c1690519015158152f35b82346101b25760203660031901126101b2576020916001600160a01b0361099c6116b2565b165f528252805f20549051908152f35b82346101b2575f3660031901126101b257517f00000000000000000000000000000000000000000000000000000000000000006001600160a01b03168152602090f35b82346101b25760203660031901126101b2576020906102d5610a0f6116b2565b6117d5565b82346101b2575f3660031901126101b2576020906002549051908152f35b9050346101b257602090816003193601126101b2576001548351637622567960e11b8152823592916001600160a01b039081169185818581865afa8015610c115782915f91610da8575b50163303610d98578551631db0457960e11b8152838101859052606081602481865afa928315610c11578685915f935f96610d58575b5083610c6a575b5050505081151580610c1b575b610af7575b5050507f86c46efee0a638b418fa0952cd587c78b75b8bc989e7a7c13a86d448ec34a0849251908152a1005b908291610b0682600654611708565b60065585816001541688519485809263b790230360e01b82525afa8015610c1157610b6b9487945f92610bf0575b50885163a9059cbb60e01b81526001600160a01b03909216908201908152602081019390935293849283915f918391604090910190565b03927f0000000000000000000000000000000000000000000000000000000000000000165af190811561064e577f86c46efee0a638b418fa0952cd587c78b75b8bc989e7a7c13a86d448ec34a0849491610bcb915f91610bd3575061172d565b925f80610acb565b610bea9150853d8711610647576106398183611649565b5f6105cb565b5f919250610c0a90863d881161026c5761025e8183611649565b9190610b34565b87513d5f823e3d90fd5b508285826001541688519283809263b790230360e01b82525afa8015610c115782915f91610c4d575b50161515610ac6565b610c649150873d891161026c5761025e8183611649565b5f610c44565b610c7684600654611708565b60065589516361d027b360e01b815292839182905afa918215610d4e57610cd39288925f91610d31575b50895163a9059cbb60e01b81526001600160a01b0390911687820190815260208101929092529283918291604090910190565b03815f867f0000000000000000000000000000000000000000000000000000000000000000165af18015610c1157610d11915f91610d1a575061172d565b5f838682610ab9565b610bea9150873d8911610647576106398183611649565b610d489150833d851161026c5761025e8183611649565b5f610ca0565b88513d5f823e3d90fd5b9350945050506060813d606011610d90575b81610d7760609383611649565b810103126101b25783868881840151930151945f610ab2565b3d9150610d6a565b855163e9e3f4ad60e01b81528390fd5b610dbf9150873d891161026c5761025e8183611649565b5f610a7c565b82346101b2575f3660031901126101b2576020905160068152f35b82346101b257602090816003193601126101b2578235610dfe61186d565b801561075157335f526003835280825f205410610f965760ff600a541615610f69575b60065492610e2f84836117a4565b610e3c60025480926117b7565b946007548082115f14610f6157610e5291611708565b8511610f515784610eba96610e68858594611708565b600255335f5260038352855f20610e80868254611708565b9055610e8e82600654611708565b600655855163a9059cbb60e01b8152339181019182526020820192909252909687918291604090910190565b03815f7f00000000000000000000000000000000000000000000000000000000000000006001600160a01b03165af1948515610273577ff279e6a1f5e320cca91135676d9cb6e44ca8a08c0b88342bcdb1144f6511b5689495610f23915f91610f34575061172d565b82519485528401523392a260015f55005b610f4b9150833d8511610647576106398183611649565b876105cb565b835163bb55fd2760e01b81528690fd5b50505f610e52565b335f52838352610f7f825f2054600554906116e7565b421015610e215781516354e21be360e11b81528490fd5b8151633999656760e01b81528490fd5b82346101b25760203660031901126101b257602090610fcb610fc66116b2565b61176b565b90519015158152f35b82346101b25760603660031901126101b257610fee6116b2565b906024356044359260018060a01b0391826001541684518091637622567960e11b8252818960209485935afa908115611290579085915f91611273575b5016330361126357600754828082111561125b5761104891611708565b6007555f861261116057600654600754808211156111595761106a9082611708565b8711611149578661107a91611708565b600655808361108988856116e7565b875163a9059cbb60e01b81526001600160a01b03909216998201998a5260208a0152978890819060400103815f887f0000000000000000000000000000000000000000000000000000000000000000165af196871561113f577fa9c6720706505784683f09b0975d4f1a78dfdeebc7fead8936439abd5b96f0219697611115915f91611122575061172d565b84519687528601521692a2005b6111399150833d8511610647576106398183611649565b896105cb565b85513d5f823e3d90fd5b855163bb55fd2760e01b81528890fd5b505f61106a565b600160ff1b86146106bf575f8690038281106111af57507fa9c6720706505784683f09b0975d4f1a78dfdeebc7fead8936439abd5b96f0219596506111a7826006546116e7565b600655611115565b836111ca826111c185946006546116e7565b60065585611708565b875163a9059cbb60e01b81526001600160a01b03909216998201998a5260208a0152978890819060400103815f887f0000000000000000000000000000000000000000000000000000000000000000165af196871561113f577fa9c6720706505784683f09b0975d4f1a78dfdeebc7fead8936439abd5b96f0219697611256915f91611122575061172d565b611115565b50505f611048565b845163e9e3f4ad60e01b81528790fd5b61128a9150833d851161026c5761025e8183611649565b8961102b565b86513d5f823e3d90fd5b82346101b257806003193601126101b2576001548151638da5cb5b60e01b81526001600160a01b039160209082908690829086165afa908115610273575f916112f3575b50163303610237575035600855602435600955005b61130c915060203d60201161026c5761025e8183611649565b846112de565b9050346101b25760803660031901126101b25761132d6116b2565b602435926001600160a01b0380851693928486036101b257604435936064359083600154169085518092637622567960e11b8252818360209586935afa908115610c11579086915f916114b1575b501633036114a357600754878082111561149b5761139891611708565b6007556113b06113a88489611708565b6006546116e7565b600655826113ec575b507f3046bb5fb86890e6f3c32d7527b763c83ee73588c10f9533662078355cc634fa9596975084519687528601521692a3005b855163a9059cbb60e01b81526001600160a01b039099169089019081526020810183905281908990819060400103815f887f0000000000000000000000000000000000000000000000000000000000000000165af197881561113f577f3046bb5fb86890e6f3c32d7527b763c83ee73588c10f9533662078355cc634fa96979861147c915f91611484575061172d565b8796956113b9565b610bea9150833d8511610647576106398183611649565b50505f611398565b855163e9e3f4ad60e01b8152fd5b6114c89150843d861161026c5761025e8183611649565b5f61137b565b82346101b2575f3660031901126101b25760209060ff600a541690519015158152f35b82346101b2575f3660031901126101b257805161082f9161151182611619565b601882527f436f6e666964656e7469616c205661756c7420536861726500000000000000006020830152519182918261166b565b82346101b25760203660031901126101b2576001548151637622567960e11b8152833593916001600160a01b03919060209082908590829086165afa90811561064e575f916115e0575b501633036115d2577f86c46efee0a638b418fa0952cd587c78b75b8bc989e7a7c13a86d448ec34a084602084846115c8826006546116e7565b60065551908152a1005b905163e9e3f4ad60e01b8152fd5b6115f9915060203d60201161026c5761025e8183611649565b8561158f565b346101b2575f3660031901126101b2576020906006548152f35b6040810190811067ffffffffffffffff82111761163557604052565b634e487b7160e01b5f52604160045260245ffd5b90601f8019910116810190811067ffffffffffffffff82111761163557604052565b602080825282518183018190529093925f5b82811061169e57505060409293505f838284010152601f8019910116010190565b81810186015184820160400152850161167d565b600435906001600160a01b03821682036101b257565b908160209103126101b257516001600160a01b03811681036101b25790565b919082018092116116f457565b634e487b7160e01b5f52601160045260245ffd5b919082039182116116f457565b908160209103126101b2575180151581036101b25790565b1561173457565b60405162461bcd60e51b815260206004820152600f60248201526e151c985b9cd9995c8819985a5b1959608a1b6044820152606490fd5b60ff600a541661179e576001600160a01b03165f90815260046020526040902054600554611798916116e7565b42101590565b50600190565b818102929181159184041417156116f457565b81156117c1570490565b634e487b7160e01b5f52601260045260245ffd5b6002548015611805576118029160018060a01b03165f52600360205261053360405f2054600654906117a4565b90565b50505f90565b60025480156118365760065490620f4240918281029281840414901517156116f457611802916117b7565b50620f424090565b60065480156118685760075490612710918281029281840414901517156116f457611802916117b7565b505f90565b60025f541461187c5760025f55565b604051633ee5aeb560e01b8152600490fdfea2646970667358221220568a420363a0fce678b506308589b64382588e1e5c4ab150f1a9ab93095d113964736f6c63430008180033",
  "linkReferences": {},
  "deployedLinkReferences": {},
  "immutableReferences": {
    "3943": [
      {
        "length": 32,
        "start": 1388
      },
      {
        "length": 32,
        "start": 2496
      },
      {
        "length": 32,
        "start": 2927
      },
      {
        "length": 32,
        "start": 3289
      },
      {
        "length": 32,
        "start": 3775
      },
      {
        "length": 32,
        "start": 4281
      },
      {
        "length": 32,
        "start": 4602
      },
      {
        "length": 32,
        "start": 5151
      }
    ]
  },
  "inputSourceName": "project/src/ConfidentialVault.sol",
  "buildInfoId": "solc-0_8_24-0b724f6de738795327e329d48bf3483e54e0d3c8"
}