{
  "_format": "hh3-artifact-1",
  "contractName": "PythPriceOracle",
  "sourceName": "src/PythPriceOracle.sol",
  "abi": [
    {
      "inputs": [
        {
          "internalType": "address",
          "name": "_pyth",
          "type": "address"
        }
      ],
      "stateMutability": "nonpayable",
      "type": "constructor"
    },
    {
      "inputs": [],
      "name": "OnlyOwner",
      "type": "error"
    },
    {
      "inputs": [],
      "name": "PriceFeedNotSet",
      "type": "error"
    },
    {
      "inputs": [],
      "name": "StalePrice",
      "type": "error"
    },
    {
      "anonymous": false,
      "inputs": [
        {
          "indexed": false,
          "internalType": "uint256",
          "name": "newMaxStaleness",
          "type": "uint256"
        }
      ],
      "name": "MaxStalenessUpdated",
      "type": "event"
    },
    {
      "anonymous": false,
      "inputs": [
        {
          "indexed": true,
          "internalType": "address",
          "name": "prev",
          "type": "address"
        },
        {
          "indexed": true,
          "internalType": "address",
          "name": "next",
          "type": "address"
        }
      ],
      "name": "OwnershipTransferred",
      "type": "event"
    },
    {
      "anonymous": false,
      "inputs": [
        {
          "indexed": true,
          "internalType": "bytes32",
          "name": "pairId",
          "type": "bytes32"
        },
        {
          "indexed": false,
          "internalType": "bytes32",
          "name": "pythFeedId",
          "type": "bytes32"
        }
      ],
      "name": "PriceFeedSet",
      "type": "event"
    },
    {
      "inputs": [
        {
          "internalType": "bytes32",
          "name": "pairId",
          "type": "bytes32"
        }
      ],
      "name": "getPrice",
      "outputs": [
        {
          "internalType": "uint256",
          "name": "price",
          "type": "uint256"
        },
        {
          "internalType": "uint256",
          "name": "publishTime",
          "type": "uint256"
        }
      ],
      "stateMutability": "view",
      "type": "function"
    },
    {
      "inputs": [
        {
          "internalType": "bytes32",
          "name": "pairId",
          "type": "bytes32"
        }
      ],
      "name": "isPriceStale",
      "outputs": [
        {
          "internalType": "bool",
          "name": "",
          "type": "bool"
        }
      ],
      "stateMutability": "view",
      "type": "function"
    },
    {
      "inputs": [],
      "name": "maxStaleness",
      "outputs": [
        {
          "internalType": "uint256",
          "name": "",
          "type": "uint256"
        }
      ],
      "stateMutability": "view",
      "type": "function"
    },
    {
      "inputs": [],
      "name": "owner",
      "outputs": [
        {
          "internalType": "address",
          "name": "",
          "type": "address"
        }
      ],
      "stateMutability": "view",
      "type": "function"
    },
    {
      "inputs": [
        {
          "internalType": "bytes32",
          "name": "",
          "type": "bytes32"
        }
      ],
      "name": "priceFeedIds",
      "outputs": [
        {
          "internalType": "bytes32",
          "name": "",
          "type": "bytes32"
        }
      ],
      "stateMutability": "view",
      "type": "function"
    },
    {
      "inputs": [],
      "name": "pyth",
      "outputs": [
        {
          "internalType": "contract IPyth",
          "name": "",
          "type": "address"
        }
      ],
      "stateMutability": "view",
      "type": "function"
    },
    {
      "inputs": [
        {
          "internalType": "uint256",
          "name": "_seconds",
          "type": "uint256"
        }
      ],
      "name": "setMaxStaleness",
      "outputs": [],
      "stateMutability": "nonpayable",
      "type": "function"
    },
    {
      "inputs": [
        {
          "internalType": "bytes32",
          "name": "pairId",
          "type": "bytes32"
        },
        {
          "internalType": "bytes32",
          "name": "pythFeedId",
          "type": "bytes32"
        }
      ],
      "name": "setPriceFeed",
      "outputs": [],
      "stateMutability": "nonpayable",
      "type": "function"
    },
    {
      "inputs": [
        {
          "internalType": "bytes32[]",
          "name": "pairIds",
          "type": "bytes32[]"
        },
        {
          "internalType": "bytes32[]",
          "name": "pythFeedIds",
          "type": "bytes32[]"
        }
      ],
      "name": "setPriceFeedsBatch",
      "outputs": [],
      "stateMutability": "nonpayable",
      "type": "function"
    },
    {
      "inputs": [
        {
          "internalType": "address",
          "name": "newOwner",
          "type": "address"
        }
      ],
      "name": "transferOwnership",
      "outputs": [],
      "stateMutability": "nonpayable",
      "type": "function"
    },
    {
      "inputs": [
        {
          "internalType": "bytes[]",
          "name": "updateData",
          "type": "bytes[]"
        }
      ],
      "name": "updatePriceFeeds",
      "outputs": [],
      "stateMutability": "payable",
      "type": "function"
    }
  ],
  "bytecode": "0x60a03461009657601f610ba138819003918201601f19168301916001600160401b0383118484101761009a5780849260209460405283398101031261009657516001600160a01b0381169081900361009657603c6001556080525f80546001600160a01b03191633179055604051610af290816100af823960805181818160ad015281816101a20152818161053601526109b60152f35b5f80fd5b634e487b7160e01b5f52604160045260245ffdfe6080604081815260049182361015610015575f80fd5b5f925f3560e01c9182629591f5146107dc57508163100bc9e11461077757816331d98b3f146104e85781633d7d3294146104c15781633f3a3f401461039d57816387cf46961461037f5781638da5cb5b14610358578163dffc0aa614610331578163ef9e5e2814610165578163f2fde38b146100e0575063f98d06f01461009a575f80fd5b346100dc57816003193601126100dc57517f00000000000000000000000000000000000000000000000000000000000000006001600160a01b03168152602090f35b5080fd5b905034610161576020366003190112610161576001600160a01b0381358181169391929084900361015d5784549283169182330361015057505082907f8be0079c531659141344cd1fd0a4f28419497f9722a3daafe3b4186f6b6457e08580a36001600160a01b03191617815580f35b51635fc483c560e01b8152fd5b8480fd5b8280fd5b90506020806003193601126102bf5767ffffffffffffffff82358181116102bf57610193903690850161084c565b855163d47eed4560e01b8152937f00000000000000000000000000000000000000000000000000000000000000006001600160a01b0316939291908086806101de85878c8401610a1a565b0381885afa958615610327575f966102f8575b508534106102c35750833b156102bf57610222935f92868951809781958294631df3cbc560e31b84528c8401610a1a565b03925af180156102b55761028d575b505080341161023e578380f35b8034039134831161027a575083808093819382903414610271575b3390f1156102675780808380f35b51903d90823e3d90fd5b506108fc610259565b634e487b7160e01b855260119052602484fd5b9080929550116102a25782525f925f80610231565b604182634e487b7160e01b5f525260245ffd5b85513d5f823e3d90fd5b5f80fd5b8660649189519162461bcd60e51b8352820152601060248201526f496e73756666696369656e742066656560801b6044820152fd5b9080965081813d8311610320575b610310818361087d565b810103126102bf5751945f6101f1565b503d610306565b88513d5f823e3d90fd5b82346102bf5760203660031901126102bf5761034f6020923561097f565b90519015158152f35b82346102bf575f3660031901126102bf575f5490516001600160a01b039091168152602090f35b82346102bf575f3660031901126102bf576020906001549051908152f35b82346102bf57806003193601126102bf5767ffffffffffffffff9180358381116102bf576103ce903690830161084c565b90936024359081116102bf576103e7903690840161084c565b5f5490959193906001600160a01b031633036104b35785830361047e57505f5b82811061041057005b8061041e600192888761095b565b3561042a82868661095b565b355f5260209060028252875f20557fd535b46df135cf99612eae06ed421848b3208d647b0d241eb6d230a4cd382a7061046483878761095b565b3591610471848b8a61095b565b358951908152a201610407565b606490602086519162461bcd60e51b8352820152600f60248201526e098cadccee8d040dad2e6dac2e8c6d608b1b6044820152fd5b8451635fc483c560e01b8152fd5b82346102bf5760203660031901126102bf57602091355f5260028252805f20549051908152f35b9050346102bf576020806003193601126102bf5781355f5260028152825f205491821561076957600154845163052571af60e51b8152828101949094526024808501919091526080846044817f00000000000000000000000000000000000000000000000000000000000000006001600160a01b03165afa9384156102b5575f94610738575b505f845160070b13156106ff5767ffffffffffffffff9060648285870151160282811690810361069957828651169081156106ed5760019184910416116106ac57848601805190929060030b5f811261061057508551169263ffffffff809351166012019283116105ff5750506060916105ea6105f092610920565b90610948565b925b0151908351928352820152f35b601190634e487b7160e01b5f52525ffd5b909250637fffffff198114610699575f0363ffffffff9081169390926012851161065957865116936012039283116105ff5750506060916105ea61065392610920565b926105f2565b8694939194511692601119019081116106995761067590610920565b92831561068857505004916060906105f2565b601290634e487b7160e01b5f52525ffd5b50634e487b7160e01b5f90815260118452fd5b601a915060649386519362461bcd60e51b85528401528201527f4f7261636c6520636f6e666964656e636520746f6f20776964650000000000006044820152fd5b82601286634e487b7160e01b5f52525ffd5b60169060649386519362461bcd60e51b855284015282015275496e76616c6964206e6567617469766520707269636560501b6044820152fd5b61075b91945060803d608011610762575b610753818361087d565b8101906108b3565b928561056e565b503d610749565b8351637e68a04560e01b8152fd5b82346102bf5760203660031901126102bf575f54823592906001600160a01b031633036107ce577f64a4703c7c168827058126cbd2e71d8d0f026afa821e7dff1480173dffdd3895602084848160015551908152a1005b9051635fc483c560e01b8152fd5b83346102bf57806003193601126102bf575f548335936024359390916001600160a01b0316330361084057847fd535b46df135cf99612eae06ed421848b3208d647b0d241eb6d230a4cd382a7060208686845f526002835281815f205551908152a2005b635fc483c560e01b8152fd5b9181601f840112156102bf5782359167ffffffffffffffff83116102bf576020808501948460051b0101116102bf57565b90601f8019910116810190811067ffffffffffffffff82111761089f57604052565b634e487b7160e01b5f52604160045260245ffd5b908160809103126102bf576040519067ffffffffffffffff608083018181118482101761089f5760405281518060070b81036102bf578352602082015190811681036102bf5760208301526040810151908160030b82036102bf5760609160408401520151606082015290565b63ffffffff16604d811161093457600a0a90565b634e487b7160e01b5f52601160045260245ffd5b8181029291811591840414171561093457565b919081101561096b5760051b0190565b634e487b7160e01b5f52603260045260245ffd5b5f52600260205260405f20548015610a145760015460405163052571af60e51b8152600481019290925260248201526080816044817f00000000000000000000000000000000000000000000000000000000000000006001600160a01b03165afa90816109f5575b506109f157600190565b5f90565b610a0d9060803d60801161076257610753818361087d565b505f6109e7565b50600190565b9160208181850182865252604084019360408360051b82010194845f925b858410610a49575050505050505090565b90919293949596603f198282030184528735601e19843603018112156102bf57830186810191903567ffffffffffffffff81116102bf5780360383136102bf5787828280600196849695859652848401375f828201840152601f01601f1916010199019796959190910193019190610a3856fea2646970667358221220f7c59135420c48e7cab2f1dbeedb669fbec870b9cdfeb136f576b104091933cf64736f6c63430008180033",
  "linkReferences": {},
  "deployedLinkReferences": {},
  "immutableReferences": {
    "4839": [
      {
        "length": 32,
        "start": 173
      },
      {
        "length": 32,
        "start": 418
      },
      {
        "length": 32,
        "start": 1334
      },
      {
        "length": 32,
        "start": 2486
      }
    ]
  },
  "inputSourceName": "project/src/PythPriceOracle.sol",
  "buildInfoId": "solc-0_8_24-0b724f6de738795327e329d48bf3483e54e0d3c8"
}