{
  "_format": "hh3-artifact-1",
  "contractName": "ConfidentialTrading",
  "sourceName": "src/ConfidentialTrading.sol",
  "abi": [
    {
      "inputs": [
        {
          "internalType": "address",
          "name": "_usdc",
          "type": "address"
        },
        {
          "internalType": "address",
          "name": "_core",
          "type": "address"
        },
        {
          "internalType": "address",
          "name": "_vault",
          "type": "address"
        },
        {
          "internalType": "address",
          "name": "_oracle",
          "type": "address"
        }
      ],
      "stateMutability": "nonpayable",
      "type": "constructor"
    },
    {
      "inputs": [],
      "name": "ReentrancyGuardReentrantCall",
      "type": "error"
    },
    {
      "anonymous": false,
      "inputs": [
        {
          "indexed": true,
          "internalType": "uint256",
          "name": "positionId",
          "type": "uint256"
        },
        {
          "indexed": true,
          "internalType": "address",
          "name": "trader",
          "type": "address"
        },
        {
          "indexed": false,
          "internalType": "uint256",
          "name": "amount",
          "type": "uint256"
        },
        {
          "indexed": false,
          "internalType": "uint256",
          "name": "newLiquidationPrice",
          "type": "uint256"
        }
      ],
      "name": "CollateralAdded",
      "type": "event"
    },
    {
      "anonymous": false,
      "inputs": [
        {
          "indexed": true,
          "internalType": "uint256",
          "name": "positionId",
          "type": "uint256"
        },
        {
          "indexed": true,
          "internalType": "address",
          "name": "trader",
          "type": "address"
        },
        {
          "indexed": false,
          "internalType": "uint256",
          "name": "amount",
          "type": "uint256"
        },
        {
          "indexed": false,
          "internalType": "uint256",
          "name": "newLiquidationPrice",
          "type": "uint256"
        }
      ],
      "name": "CollateralRemoved",
      "type": "event"
    },
    {
      "anonymous": false,
      "inputs": [
        {
          "indexed": true,
          "internalType": "uint256",
          "name": "orderId",
          "type": "uint256"
        }
      ],
      "name": "OrderCancelled",
      "type": "event"
    },
    {
      "anonymous": false,
      "inputs": [
        {
          "indexed": true,
          "internalType": "uint256",
          "name": "orderId",
          "type": "uint256"
        },
        {
          "indexed": true,
          "internalType": "uint256",
          "name": "positionId",
          "type": "uint256"
        }
      ],
      "name": "OrderExecuted",
      "type": "event"
    },
    {
      "anonymous": false,
      "inputs": [
        {
          "indexed": true,
          "internalType": "uint256",
          "name": "orderId",
          "type": "uint256"
        },
        {
          "indexed": true,
          "internalType": "address",
          "name": "trader",
          "type": "address"
        },
        {
          "indexed": false,
          "internalType": "bytes32",
          "name": "pairId",
          "type": "bytes32"
        },
        {
          "indexed": false,
          "internalType": "uint8",
          "name": "orderType",
          "type": "uint8"
        },
        {
          "indexed": false,
          "internalType": "uint256",
          "name": "triggerPrice",
          "type": "uint256"
        }
      ],
      "name": "OrderPlaced",
      "type": "event"
    },
    {
      "anonymous": false,
      "inputs": [
        {
          "indexed": true,
          "internalType": "uint256",
          "name": "positionId",
          "type": "uint256"
        },
        {
          "indexed": true,
          "internalType": "address",
          "name": "trader",
          "type": "address"
        },
        {
          "indexed": false,
          "internalType": "uint256",
          "name": "exitPrice",
          "type": "uint256"
        },
        {
          "indexed": false,
          "internalType": "int256",
          "name": "pnl",
          "type": "int256"
        }
      ],
      "name": "PositionClosed",
      "type": "event"
    },
    {
      "anonymous": false,
      "inputs": [
        {
          "indexed": true,
          "internalType": "uint256",
          "name": "positionId",
          "type": "uint256"
        },
        {
          "indexed": true,
          "internalType": "address",
          "name": "trader",
          "type": "address"
        },
        {
          "indexed": false,
          "internalType": "uint256",
          "name": "additionalSizeUsd",
          "type": "uint256"
        },
        {
          "indexed": false,
          "internalType": "uint256",
          "name": "newEntryPrice",
          "type": "uint256"
        },
        {
          "indexed": false,
          "internalType": "uint256",
          "name": "newLiquidationPrice",
          "type": "uint256"
        }
      ],
      "name": "PositionIncreased",
      "type": "event"
    },
    {
      "anonymous": false,
      "inputs": [
        {
          "indexed": true,
          "internalType": "uint256",
          "name": "positionId",
          "type": "uint256"
        },
        {
          "indexed": true,
          "internalType": "address",
          "name": "trader",
          "type": "address"
        },
        {
          "indexed": false,
          "internalType": "uint256",
          "name": "executionPrice",
          "type": "uint256"
        },
        {
          "indexed": true,
          "internalType": "address",
          "name": "liquidator",
          "type": "address"
        },
        {
          "indexed": false,
          "internalType": "uint256",
          "name": "reward",
          "type": "uint256"
        }
      ],
      "name": "PositionLiquidated",
      "type": "event"
    },
    {
      "anonymous": false,
      "inputs": [
        {
          "indexed": true,
          "internalType": "uint256",
          "name": "positionId",
          "type": "uint256"
        },
        {
          "indexed": true,
          "internalType": "address",
          "name": "trader",
          "type": "address"
        },
        {
          "indexed": false,
          "internalType": "bytes32",
          "name": "pairId",
          "type": "bytes32"
        },
        {
          "indexed": false,
          "internalType": "bool",
          "name": "isLong",
          "type": "bool"
        },
        {
          "indexed": false,
          "internalType": "uint256",
          "name": "sizeUsd",
          "type": "uint256"
        },
        {
          "indexed": false,
          "internalType": "uint256",
          "name": "entryPrice",
          "type": "uint256"
        },
        {
          "indexed": false,
          "internalType": "uint256",
          "name": "leverage",
          "type": "uint256"
        }
      ],
      "name": "PositionOpened",
      "type": "event"
    },
    {
      "anonymous": false,
      "inputs": [
        {
          "indexed": true,
          "internalType": "uint256",
          "name": "positionId",
          "type": "uint256"
        },
        {
          "indexed": true,
          "internalType": "address",
          "name": "trader",
          "type": "address"
        },
        {
          "indexed": false,
          "internalType": "uint256",
          "name": "closeSizeUsd",
          "type": "uint256"
        },
        {
          "indexed": false,
          "internalType": "uint256",
          "name": "exitPrice",
          "type": "uint256"
        },
        {
          "indexed": false,
          "internalType": "int256",
          "name": "pnl",
          "type": "int256"
        }
      ],
      "name": "PositionPartialClose",
      "type": "event"
    },
    {
      "anonymous": false,
      "inputs": [
        {
          "indexed": true,
          "internalType": "uint256",
          "name": "positionId",
          "type": "uint256"
        },
        {
          "indexed": false,
          "internalType": "bool",
          "name": "isTakeProfit",
          "type": "bool"
        },
        {
          "indexed": false,
          "internalType": "uint256",
          "name": "executionPrice",
          "type": "uint256"
        }
      ],
      "name": "TPSLTriggered",
      "type": "event"
    },
    {
      "anonymous": false,
      "inputs": [
        {
          "indexed": true,
          "internalType": "uint256",
          "name": "orderId",
          "type": "uint256"
        },
        {
          "indexed": false,
          "internalType": "uint256",
          "name": "sliceNumber",
          "type": "uint256"
        },
        {
          "indexed": false,
          "internalType": "uint256",
          "name": "sizeUsd",
          "type": "uint256"
        }
      ],
      "name": "TWAPSliceExecuted",
      "type": "event"
    },
    {
      "inputs": [],
      "name": "MIN_COLLATERAL",
      "outputs": [
        {
          "internalType": "uint256",
          "name": "",
          "type": "uint256"
        }
      ],
      "stateMutability": "view",
      "type": "function"
    },
    {
      "inputs": [],
      "name": "MIN_POSITION_SIZE",
      "outputs": [
        {
          "internalType": "uint256",
          "name": "",
          "type": "uint256"
        }
      ],
      "stateMutability": "view",
      "type": "function"
    },
    {
      "inputs": [
        {
          "internalType": "uint256",
          "name": "positionId",
          "type": "uint256"
        },
        {
          "internalType": "uint256",
          "name": "amount",
          "type": "uint256"
        }
      ],
      "name": "addCollateral",
      "outputs": [],
      "stateMutability": "nonpayable",
      "type": "function"
    },
    {
      "inputs": [
        {
          "internalType": "uint256",
          "name": "orderId",
          "type": "uint256"
        }
      ],
      "name": "cancelOrder",
      "outputs": [],
      "stateMutability": "nonpayable",
      "type": "function"
    },
    {
      "inputs": [
        {
          "internalType": "uint256",
          "name": "positionId",
          "type": "uint256"
        },
        {
          "internalType": "bytes[]",
          "name": "updateData",
          "type": "bytes[]"
        }
      ],
      "name": "closePositionInstantly",
      "outputs": [],
      "stateMutability": "payable",
      "type": "function"
    },
    {
      "inputs": [
        {
          "internalType": "uint256",
          "name": "positionId",
          "type": "uint256"
        },
        {
          "internalType": "uint256",
          "name": "closePercent",
          "type": "uint256"
        },
        {
          "internalType": "bytes[]",
          "name": "updateData",
          "type": "bytes[]"
        }
      ],
      "name": "closePositionPartial",
      "outputs": [],
      "stateMutability": "payable",
      "type": "function"
    },
    {
      "inputs": [],
      "name": "core",
      "outputs": [
        {
          "internalType": "contract ConfidentialCore",
          "name": "",
          "type": "address"
        }
      ],
      "stateMutability": "view",
      "type": "function"
    },
    {
      "inputs": [
        {
          "internalType": "uint256",
          "name": "positionId",
          "type": "uint256"
        }
      ],
      "name": "createCloseRequest",
      "outputs": [
        {
          "internalType": "uint256",
          "name": "orderId",
          "type": "uint256"
        }
      ],
      "stateMutability": "payable",
      "type": "function"
    },
    {
      "inputs": [
        {
          "internalType": "bytes32",
          "name": "pairId",
          "type": "bytes32"
        },
        {
          "internalType": "bool",
          "name": "isLong",
          "type": "bool"
        },
        {
          "internalType": "uint256",
          "name": "totalSizeUsd",
          "type": "uint256"
        },
        {
          "internalType": "uint256",
          "name": "leverage",
          "type": "uint256"
        },
        {
          "internalType": "uint256",
          "name": "slices",
          "type": "uint256"
        },
        {
          "internalType": "uint256",
          "name": "intervalSec",
          "type": "uint256"
        },
        {
          "internalType": "uint256",
          "name": "tpPrice",
          "type": "uint256"
        },
        {
          "internalType": "uint256",
          "name": "slPrice",
          "type": "uint256"
        }
      ],
      "name": "createTwapOrder",
      "outputs": [
        {
          "internalType": "uint256",
          "name": "orderId",
          "type": "uint256"
        }
      ],
      "stateMutability": "payable",
      "type": "function"
    },
    {
      "inputs": [
        {
          "internalType": "uint256",
          "name": "orderId",
          "type": "uint256"
        },
        {
          "internalType": "bytes[]",
          "name": "updateData",
          "type": "bytes[]"
        }
      ],
      "name": "executeOrder",
      "outputs": [],
      "stateMutability": "payable",
      "type": "function"
    },
    {
      "inputs": [
        {
          "internalType": "uint256",
          "name": "positionId",
          "type": "uint256"
        },
        {
          "internalType": "bytes[]",
          "name": "updateData",
          "type": "bytes[]"
        }
      ],
      "name": "executeTPSL",
      "outputs": [],
      "stateMutability": "payable",
      "type": "function"
    },
    {
      "inputs": [
        {
          "internalType": "uint256",
          "name": "",
          "type": "uint256"
        }
      ],
      "name": "hasActiveCloseRequest",
      "outputs": [
        {
          "internalType": "bool",
          "name": "",
          "type": "bool"
        }
      ],
      "stateMutability": "view",
      "type": "function"
    },
    {
      "inputs": [
        {
          "internalType": "uint256",
          "name": "positionId",
          "type": "uint256"
        },
        {
          "internalType": "uint256",
          "name": "additionalSizeUsd",
          "type": "uint256"
        },
        {
          "internalType": "uint256",
          "name": "additionalLeverage",
          "type": "uint256"
        },
        {
          "internalType": "bytes[]",
          "name": "updateData",
          "type": "bytes[]"
        }
      ],
      "name": "increasePosition",
      "outputs": [],
      "stateMutability": "payable",
      "type": "function"
    },
    {
      "inputs": [
        {
          "internalType": "uint256",
          "name": "positionId",
          "type": "uint256"
        },
        {
          "internalType": "bytes[]",
          "name": "updateData",
          "type": "bytes[]"
        }
      ],
      "name": "liquidate",
      "outputs": [],
      "stateMutability": "payable",
      "type": "function"
    },
    {
      "inputs": [],
      "name": "liquidationRewardBps",
      "outputs": [
        {
          "internalType": "uint256",
          "name": "",
          "type": "uint256"
        }
      ],
      "stateMutability": "view",
      "type": "function"
    },
    {
      "inputs": [],
      "name": "maxOrderAge",
      "outputs": [
        {
          "internalType": "uint256",
          "name": "",
          "type": "uint256"
        }
      ],
      "stateMutability": "view",
      "type": "function"
    },
    {
      "inputs": [],
      "name": "nextOrderId",
      "outputs": [
        {
          "internalType": "uint256",
          "name": "",
          "type": "uint256"
        }
      ],
      "stateMutability": "view",
      "type": "function"
    },
    {
      "inputs": [],
      "name": "nextPositionId",
      "outputs": [
        {
          "internalType": "uint256",
          "name": "",
          "type": "uint256"
        }
      ],
      "stateMutability": "view",
      "type": "function"
    },
    {
      "inputs": [],
      "name": "oracle",
      "outputs": [
        {
          "internalType": "contract PythPriceOracle",
          "name": "",
          "type": "address"
        }
      ],
      "stateMutability": "view",
      "type": "function"
    },
    {
      "inputs": [
        {
          "internalType": "uint256",
          "name": "",
          "type": "uint256"
        }
      ],
      "name": "pendingOrders",
      "outputs": [
        {
          "internalType": "bytes32",
          "name": "pairId",
          "type": "bytes32"
        },
        {
          "internalType": "address",
          "name": "trader",
          "type": "address"
        },
        {
          "internalType": "bool",
          "name": "isLong",
          "type": "bool"
        },
        {
          "internalType": "uint256",
          "name": "sizeUsd",
          "type": "uint256"
        },
        {
          "internalType": "uint256",
          "name": "collateral",
          "type": "uint256"
        },
        {
          "internalType": "uint256",
          "name": "leverage",
          "type": "uint256"
        },
        {
          "internalType": "uint256",
          "name": "triggerPrice",
          "type": "uint256"
        },
        {
          "internalType": "uint8",
          "name": "orderType",
          "type": "uint8"
        },
        {
          "internalType": "bool",
          "name": "isActive",
          "type": "bool"
        },
        {
          "internalType": "uint256",
          "name": "createdAt",
          "type": "uint256"
        },
        {
          "internalType": "uint256",
          "name": "positionId",
          "type": "uint256"
        },
        {
          "internalType": "uint256",
          "name": "feePaid",
          "type": "uint256"
        },
        {
          "internalType": "uint256",
          "name": "executionFee",
          "type": "uint256"
        },
        {
          "internalType": "uint256",
          "name": "tpPrice",
          "type": "uint256"
        },
        {
          "internalType": "uint256",
          "name": "slPrice",
          "type": "uint256"
        },
        {
          "internalType": "uint256",
          "name": "twapSlices",
          "type": "uint256"
        },
        {
          "internalType": "uint256",
          "name": "twapInterval",
          "type": "uint256"
        },
        {
          "internalType": "uint256",
          "name": "twapExecuted",
          "type": "uint256"
        },
        {
          "internalType": "uint256",
          "name": "twapLastExec",
          "type": "uint256"
        }
      ],
      "stateMutability": "view",
      "type": "function"
    },
    {
      "inputs": [
        {
          "internalType": "bytes32",
          "name": "pairId",
          "type": "bytes32"
        },
        {
          "internalType": "bool",
          "name": "isLong",
          "type": "bool"
        },
        {
          "internalType": "uint256",
          "name": "sizeUsd",
          "type": "uint256"
        },
        {
          "internalType": "uint256",
          "name": "leverage",
          "type": "uint256"
        },
        {
          "internalType": "uint256",
          "name": "tpPrice",
          "type": "uint256"
        },
        {
          "internalType": "uint256",
          "name": "slPrice",
          "type": "uint256"
        },
        {
          "internalType": "bytes[]",
          "name": "updateData",
          "type": "bytes[]"
        }
      ],
      "name": "placeMarketOrder",
      "outputs": [
        {
          "internalType": "uint256",
          "name": "posId",
          "type": "uint256"
        }
      ],
      "stateMutability": "payable",
      "type": "function"
    },
    {
      "inputs": [
        {
          "internalType": "bytes32",
          "name": "pairId",
          "type": "bytes32"
        },
        {
          "internalType": "bool",
          "name": "isLong",
          "type": "bool"
        },
        {
          "internalType": "uint256",
          "name": "sizeUsd",
          "type": "uint256"
        },
        {
          "internalType": "uint256",
          "name": "leverage",
          "type": "uint256"
        },
        {
          "internalType": "uint256",
          "name": "triggerPrice",
          "type": "uint256"
        },
        {
          "internalType": "uint8",
          "name": "orderType",
          "type": "uint8"
        },
        {
          "internalType": "uint256",
          "name": "tpPrice",
          "type": "uint256"
        },
        {
          "internalType": "uint256",
          "name": "slPrice",
          "type": "uint256"
        }
      ],
      "name": "placeOrder",
      "outputs": [
        {
          "internalType": "uint256",
          "name": "orderId",
          "type": "uint256"
        }
      ],
      "stateMutability": "payable",
      "type": "function"
    },
    {
      "inputs": [
        {
          "internalType": "uint256",
          "name": "",
          "type": "uint256"
        }
      ],
      "name": "positions",
      "outputs": [
        {
          "internalType": "bytes32",
          "name": "pairId",
          "type": "bytes32"
        },
        {
          "internalType": "address",
          "name": "trader",
          "type": "address"
        },
        {
          "internalType": "bool",
          "name": "isLong",
          "type": "bool"
        },
        {
          "internalType": "uint256",
          "name": "sizeUsd",
          "type": "uint256"
        },
        {
          "internalType": "uint256",
          "name": "collateral",
          "type": "uint256"
        },
        {
          "internalType": "uint256",
          "name": "entryPrice",
          "type": "uint256"
        },
        {
          "internalType": "uint256",
          "name": "leverage",
          "type": "uint256"
        },
        {
          "internalType": "uint256",
          "name": "liquidationPrice",
          "type": "uint256"
        },
        {
          "internalType": "uint256",
          "name": "openedAt",
          "type": "uint256"
        },
        {
          "internalType": "bool",
          "name": "isOpen",
          "type": "bool"
        },
        {
          "internalType": "uint256",
          "name": "tpPrice",
          "type": "uint256"
        },
        {
          "internalType": "uint256",
          "name": "slPrice",
          "type": "uint256"
        },
        {
          "internalType": "int256",
          "name": "entryFundingIndex",
          "type": "int256"
        },
        {
          "internalType": "uint256",
          "name": "lastRolloverSettled",
          "type": "uint256"
        }
      ],
      "stateMutability": "view",
      "type": "function"
    },
    {
      "inputs": [
        {
          "internalType": "uint256",
          "name": "positionId",
          "type": "uint256"
        },
        {
          "internalType": "uint256",
          "name": "amount",
          "type": "uint256"
        },
        {
          "internalType": "bytes[]",
          "name": "updateData",
          "type": "bytes[]"
        }
      ],
      "name": "removeCollateral",
      "outputs": [],
      "stateMutability": "payable",
      "type": "function"
    },
    {
      "inputs": [],
      "name": "rolloverFeePerHour",
      "outputs": [
        {
          "internalType": "uint256",
          "name": "",
          "type": "uint256"
        }
      ],
      "stateMutability": "view",
      "type": "function"
    },
    {
      "inputs": [
        {
          "internalType": "uint256",
          "name": "_bps",
          "type": "uint256"
        }
      ],
      "name": "setLiquidationRewardBps",
      "outputs": [],
      "stateMutability": "nonpayable",
      "type": "function"
    },
    {
      "inputs": [
        {
          "internalType": "uint256",
          "name": "_seconds",
          "type": "uint256"
        }
      ],
      "name": "setMaxOrderAge",
      "outputs": [],
      "stateMutability": "nonpayable",
      "type": "function"
    },
    {
      "inputs": [
        {
          "internalType": "uint256",
          "name": "_fee",
          "type": "uint256"
        }
      ],
      "name": "setRolloverFeePerHour",
      "outputs": [],
      "stateMutability": "nonpayable",
      "type": "function"
    },
    {
      "inputs": [
        {
          "internalType": "uint256",
          "name": "positionId",
          "type": "uint256"
        },
        {
          "internalType": "uint256",
          "name": "newTpPrice",
          "type": "uint256"
        },
        {
          "internalType": "uint256",
          "name": "newSlPrice",
          "type": "uint256"
        }
      ],
      "name": "updateTpSl",
      "outputs": [],
      "stateMutability": "nonpayable",
      "type": "function"
    },
    {
      "inputs": [],
      "name": "usdc",
      "outputs": [
        {
          "internalType": "contract IERC20",
          "name": "",
          "type": "address"
        }
      ],
      "stateMutability": "view",
      "type": "function"
    },
    {
      "inputs": [
        {
          "internalType": "address",
          "name": "",
          "type": "address"
        },
        {
          "internalType": "uint256",
          "name": "",
          "type": "uint256"
        }
      ],
      "name": "userOrders",
      "outputs": [
        {
          "internalType": "uint256",
          "name": "",
          "type": "uint256"
        }
      ],
      "stateMutability": "view",
      "type": "function"
    },
    {
      "inputs": [
        {
          "internalType": "address",
          "name": "",
          "type": "address"
        },
        {
          "internalType": "uint256",
          "name": "",
          "type": "uint256"
        }
      ],
      "name": "userPositions",
      "outputs": [
        {
          "internalType": "uint256",
          "name": "",
          "type": "uint256"
        }
      ],
      "stateMutability": "view",
      "type": "function"
    },
    {
      "inputs": [],
      "name": "vault",
      "outputs": [
        {
          "internalType": "contract ConfidentialVault",
          "name": "",
          "type": "address"
        }
      ],
      "stateMutability": "view",
      "type": "function"
    }
  ],
  "bytecode": "0x608034620000e557601f6200565d38819003918201601f19168301916001600160401b03831184841017620000e957808492608094604052833981010312620000e5576200004d81620000fd565b906200005c60208201620000fd565b6200007860606200007060408501620000fd565b9301620000fd565b9060015f55600160055560016006556014600b556064600c5562093a80600d5560018060a01b03928380928160018060a01b0319971687600454161760045516856001541617600155168360025416176002551690600354161760035560405161554a9081620001138239f35b5f80fd5b634e487b7160e01b5f52604160045260245ffd5b51906001600160a01b0382168203620000e55756fe60e0806040526004361015610012575f80fd5b5f905f3560e01c9081632a58b33014613d80575080632c338fed14613d515780632e80f9a414613ca257806333e7dddb14612b6c578063368dbba814612b4e5780633ae95909146124715780633e413bee1461244857806341aa303b146123e2578063514fcac71461225c5780635e1b4d991461221e5780636fb197f714611f0b5780637dc0d1d014611ee257806380b7425814611cf0578063856652e914611ca457806387f19423146118d5578063899346c7146118b75780638fb735ee1461189957806394dc8bd0146111e557806399fbab88146111175780639bfe7e3e14610f1e578063a8f35adf14610de3578063ba7ebf5f14610d36578063c009687c14610c69578063c09403ac1461094a578063c29433a61461092c578063c3aaea4e146107e9578063ee6d5198146107cb578063effaed89146107ad578063f2f4eb2614610784578063f5ba8a2a146105f1578063f6614170146101d2578063fa779648146101b45763fbfa77cf14610189575f80fd5b346101b157806003193601126101b1576002546040516001600160a01b039091168152602090f35b80fd5b50346101b157806003193601126101b1576020604051624c4b408152f35b50806101dd36613dcb565b906101e9939293614c88565b8161058f575b50509080602492526020906007825260408420600881019061021460ff83541661429a565b6003548154604080516331d98b3f60e01b815260048101839052976001600160a01b03949293899190829087165afa968715610584578897610552575b50600181019160ff835460a01c165f146105455760068201548811155b1561050d57908891828861028961028485614bc9565b61540e565b9260248860015416916040519485938492637cc6765f60e11b845260048401525af19081156105025789916104cf575b50506102cc6102c783614bc9565b615440565b818482136104be575b505060038201805482808211156104b5576102ef91614162565b925b612710610300600c548661414f565b049760ff1981541690558660015416908054906002885491015492803b156104b1578792838b6103506040519788968795869463019ca2b960e51b865260ff8360a01c16921690600486016143b3565b03925af19081156104a6578591610492575b50508115159081610486575b50610423575b508360025416908484541690823b1561041f57608484928360405195869485936309c0533b60e01b8552600485015233602485015260448401528a60648401525af18015610414576103fc575b50505416926040519485528401527f3b7bc7c0fdc798ac653b9f0d6d28adb2293a55402d32c21d323da740ccc6553960403394a46001815580f35b61040590613e90565b61041057865f6103c1565b8680fd5b6040513d84823e3d90fd5b8380fd5b846002541690813b1561041f57839160248392604051948593849263ff20b48d60e01b845260048401525af190811561047b578391610463575b50610374565b61046c90613e90565b61047757815f61045d565b5080fd5b6040513d85823e3d90fd5b9050548111155f61036e565b61049b90613e90565b61041f57835f610362565b6040513d87823e3d90fd5b8780fd5b505083926102f1565b6104c89250614015565b5f806102d5565b90809294503d83116104fb575b6104e68183613ec1565b810103126104f7578891875f6102b9565b5f80fd5b503d6104dc565b6040513d86823e3d90fd5b60405162461bcd60e51b815260048101889052601060248201526f4e6f74206c6971756964617461626c6560801b6044820152606490fd5b600682015488101561026e565b61057591975060403d60401161057d575b61056d8183613ec1565b810190614036565b50955f610251565b503d610563565b6040513d8a823e3d90fd5b6003546001600160a01b031691823b1561041f57604051631df3cbc560e31b81529284928492839182916105c69160048401613f3a565b039134905af18015610414576105dd575b806101ef565b6105e690613e90565b61047757815f6105d7565b506105fb36613dcb565b9190610605614c88565b818452600760205283604081209361062360ff60088701541661429a565b60018501546001600160a01b03939061063f9085163314613f02565b600460078701546020866001541660405193848092636d78097360e11b82525afa9182156104a657859261074b575b506106849161067c91614015565b4210156143dc565b816106f0575b50505060409060035416925460248251809581936331d98b3f60e01b835260048301525afa90811561047b576106c79284926106ce575b50614ca9565b6001815580f35b6106e891925060403d60401161057d5761056d8183613ec1565b50905f6106c1565b836003541691823b1561041f57604051631df3cbc560e31b81529284928492839182916107209160048401613f3a565b039134905af1801561041457610737575b8061068a565b61074090613e90565b61041f57835f610731565b945090506020843d60201161077c575b8161076860209383613ec1565b810103126104f7579251879361067c61066e565b3d915061075b565b50346101b157806003193601126101b1576001546040516001600160a01b039091168152602090f35b50346101b157806003193601126101b1576020600c54604051908152f35b506106c76107d836613e5d565b926107e4929192614c88565b614489565b50346101b15760203660031901126101b157600435815260086020526040902080808054600182015460c05260028201546003830154600484015460058501546006860154600787015490600888015492600989015494600a8a015496600b8b015498600c8c01549a600d8d01549c600e01549d600f01549e6010015460805260405160a05260a05152600160a01b6001900360c0511660a0516020015260c05160a01c60ff16151560a0516040015260a0516060015260a0516080015260a05160a0015260a05160c0015260ff811660a05160e0015260081c60ff16151560a051610100015260a051610120015260a051610140015260a051610160015260a051610180015260a0516101a0015260a0516101c0015260a0516101e0015260a051610200015260a051610220015260805160a051610240015260a05161026090f35b50346101b157806003193601126101b1576020600d54604051908152f35b506101003660031901126101b157610960613dff565b9060a4359060ff821682036101b157610977614c88565b6109886298968060443510156141ae565b600160ff831611610c245760c435610bdf575b60e435610b9a575b6001546001600160a01b031692833b156104775760405163bd79156f60e01b81528281806109de606435604435873360048035908701614269565b0381885afa801561047b57610b86575b506020604493946040519485809263e4d8cbe560e01b82528235600483015260ff89161560248301525afa928315610414578293610b4f575b5090602093600192610a3d606435604435614131565b94610a52610a4b8288614015565b3033615101565b60065495610a5f876142d1565b60065586855260088852604085206004358155868101805460ff60a01b1933166001600160a81b03199091161794151560a01b60ff60a01b169490941790935560443560028401556003830155606435600483015560843560058301556006820161010060ff851661ffff1983541617179055426007830155600982015534600a82015560c435600b820155600c60e435910155338252600a8552610b0784604084206142df565b60ff60405191600435835216858201526084356040820152837f401524beccff0d9dd3447788dea32e11f3b7c9618ed6084f14a773dbf2025f1660603393a355604051908152f35b919092506020823d602011610b7e575b81610b6c60209383613ec1565b810103126104f7579051916020610a27565b3d9150610b5f565b610b908391613e90565b610477575f6109ee565b8215610bc95760843560e435108015610bbc575b610bb79061422a565b6109a3565b5060ff8216600214610bae565b60843560e435118015610bbc57610bb79061422a565b8215610c0e5760843560c435118015610c01575b610bfc906141eb565b61099b565b5060ff8216600214610bf3565b60843560c435108015610c0157610bfc906141eb565b60405162461bcd60e51b815260206004820152601f60248201527f55736520706c6163654d61726b65744f7264657220666f72206d61726b6574006044820152606490fd5b50346101b15760203660031901126101b157600154604051638da5cb5b60e01b815260048035926001600160a01b0391602091849190829085165afa801561050257610cbf928591610d07575b50163314613f02565b60c88111610ccd57600b5580f35b60405162461bcd60e51b815260206004820152601260248201527126b0bc101817181912903832b9103437bab960711b6044820152606490fd5b610d29915060203d602011610d2f575b610d218183613ec1565b810190613ee3565b5f610cb6565b503d610d17565b50346101b15760203660031901126101b157600154604051638da5cb5b60e01b815260048035926001600160a01b0391602091849190829085165afa801561050257610d8b928591610d075750163314613f02565b610e1081101580610dd6575b15610da257600d5580f35b60405162461bcd60e51b815260206004820152600c60248201526b31682d3330642072616e676560a01b6044820152606490fd5b5062278d00811115610d97565b50346101b15760403660031901126101b157602435600435610e03614c88565b610e0e821515614318565b808352600760205260408320610e2a60ff60088301541661429a565b60018101908460018060a01b03610e45818554163314613f02565b610e5486826002541633615101565b60025416803b1561047757818091602460405180948193636e93ae2b60e01b83528b60048401525af1801561041457610f06575b5050610ec960069260038301610e9f878254614015565b8091556002840154610eb18282614131565b600586015560ff6004860154935460a01c16926151c8565b918291015560405192835260208301527f935a476d8eb416e1441bbdc27477a7d90012bed1a74dba06f77fc32b8b119bd860403393a36001815580f35b610f0f90613e90565b610f1a57845f610e88565b8480fd5b50602090816003193601126101b15760043590610f39614c88565b818152600783526040812060ff600882015416156110de5760018101546001600160a01b0390610f6c9082163314613f02565b838352600e855260ff6040842054166110a2576007820154600154604051636d78097360e11b8152949392879186916004918391165afa93841561047b578394611071575b5061067c600194610fc192614015565b838252600e855260408220805460ff19168417905560065493610fe3856142d1565b600655848352600886526040832090848201336bffffffffffffffffffffffff60a01b8254161790556006820161010361ffff198254161790554260078301556008820155600a3491015554604051908152600385820152816040820152837f401524beccff0d9dd3447788dea32e11f3b7c9618ed6084f14a773dbf2025f1660603393a355604051908152f35b93508584813d831161109b575b6110888183613ec1565b810103126104f75792519261067c610fb1565b503d61107e565b60405162461bcd60e51b8152600481018690526014602482015273436c6f736520726571756573742065786973747360601b6044820152606490fd5b60405162461bcd60e51b81526004810185905260116024820152702837b9b4ba34b7b7103737ba1037b832b760791b6044820152606490fd5b50346101b15760203660031901126101b15760406101c09160043581526007602052208054906001810154906002810154600382015460048301546005840154600685015460078601549160ff60088801541693600988015495600a8901549760ff600c600b8c01549b01549b6040519d8e528d602060018060a01b03831691015260a01c16151560408d015260608c015260808b015260a08a015260c089015260e088015261010087015215156101208601526101408501526101608401526101808301526101a0820152f35b5060803660031901126101b1576044358160643567ffffffffffffffff811161047757611216903690600401613d9a565b611221929192614c88565b6112326298968060243510156141ae565b60043582526007602052604082209261125160ff60088601541661429a565b61126860018060a01b036001860154163314613f02565b81611837575b50506003548254604080516331d98b3f60e01b815260048101839052959392869060249082906001600160a01b03165afa948515610414578295611815575b5060018054908501546001600160a01b0390911691823b1561041f5760405163bd79156f60e01b8152918491839182916112f99189916024359160a01c60ff1690339060048701614269565b0381855afa801561047b57611801575b50602061131a604494602435614131565b916040519485809263e4d8cbe560e01b825260243560048301528660248301525afa9283156104145782936117ca575b50611358610a4b8483614015565b61136461028485614bc9565b82602060018060a01b0360015416602488546040519485938492637cc6765f60e11b845260048401525af180156105025761179b575b506113a76102c786614bc9565b8184821361178a575b50508015158061177d575b1561177757600385016113cf828254614162565b90556002546001600160a01b031690813b1561041f57839160248392604051948593849263ff20b48d60e01b845260048401525af190811561047b578391611763575b50505b42600c8501556001548454604051634655f1eb60e01b8152600481018290529091602090829060249082906001600160a01b03165afa90811561050257849161172e575b50600b860155600180549086015460405163b391decf60e01b81526004810184905260a09190911c60ff16801515602480840191909152356044830152979160209082906001600160a01b031681806064810103915afa9081156104a65785916116f9575b5081858213156116a757506114d6612710918361414f565b048715611699576114e691614015565b955b60028601549660048701546114fd908961414f565b9061150a9060243561414f565b61151391614015565b61151f60243589614015565b61152891614131565b9660243561153591614015565b80600288015581600388018581549061154d91614015565b8091558960048a01556115608184614131565b60058a015561156f928a6151c8565b60069096019586556001546001600160a01b031691823b15610f1a576115b49285928360405180968195829463b65b361f60e01b8452602435913390600486016143b3565b03925af190811561047b578391611685575b50506002546115df9082906001600160a01b031661503f565b6002546001600160a01b031690813b15611681578291602483926040519485938492636e93ae2b60e01b845260048401525af180156104145761166d575b5050611628906152c4565b546040519160243583526020830152604082015233907ff48aa9a1deec4f3fc0cb0c073f4f097041726d7c7f9d2c3a863cd52f721e8d1a606060043592a36001815580f35b61167690613e90565b61041f57835f61161d565b8280fd5b61168e90613e90565b61047757815f6115c6565b6116a291614162565b6114e6565b908581999399126116ba575b50506114e8565b612710919298506116cd6116d3916143a3565b8361414f565b0487156116eb576116e391614162565b955f806116b3565b6116f491614015565b6116e3565b9450506020843d602011611726575b8161171560209383613ec1565b810103126104f7578793515f6114be565b3d9150611708565b9350506020833d60201161175b575b8161174a60209383613ec1565b810103126104f7578692515f611459565b3d915061173d565b61176c90613e90565b61047757815f611412565b50611415565b50600385015481106113bb565b6117949250614015565b5f806113b0565b6020809294503d83116117c3575b6117b38183613ec1565b810103126104f75785915f61139a565b503d6117a9565b915091506020813d6020116117f9575b816117e760209383613ec1565b810103126104f757849051915f61134a565b3d91506117da565b61180b8391613e90565b610477575f611309565b61182f91955060403d60401161057d5761056d8183613ec1565b50935f6112ad565b6003546001600160a01b031691823b1561041f57604051631df3cbc560e31b815292849284928391829161186e9160048401613f3a565b039134905af1801561041457611885575b8061126e565b61188e90613e90565b61168157825f61187f565b50346101b157806003193601126101b1576020600b54604051908152f35b50346101b157806003193601126101b1576020600554604051908152f35b506118df36613e5d565b906118eb939293614c88565b6118f6841515614318565b82855260209060078252604086209261191560ff60088601541661429a565b86600185019160018060a01b0393611931858554163314613f02565b81611c49575b505050600384019361194a878654614162565b90624c4b408210611c0d576002810154916119658184614131565b90856001541694602460e08554976040519283809263351bd11560e11b82528b60048301525afa8015611c02578d90611b58575b6040915001518311611b1c57906119c68493928260ff8f9a99989760040154925460a01c169687926151c8565b98604087600354169660248251809981936331d98b3f60e01b835260048301525afa8015610584578a60069681988b93611afa575b5015611aeb57611a0b911161435f565b55600582015501558060025416803b15611681578280916024604051809481936306e980c560e51b83528c60048401525af190811561047b578391611ad7575b505060025416803b15610477576040516374e863ad60e01b8152336004820152602481018790529082908290604490829084905af1801561041457611ac3575b50506040519384528301527fdf372a02d8e5139b85d7448d53241f194a27db9f321178c970db6e998ebb600160403393a36001815580f35b611acc90613e90565b610f1a57845f611a8b565b611ae090613e90565b61047757815f611a4b565b611af5911061435f565b611a0b565b611b1491935060403d60401161057d5761056d8183613ec1565b50915f6119fb565b60405162461bcd60e51b815260048101899052601460248201527345786365656473206d6178206c6576657261676560601b6044820152606490fd5b5060e0813d60e011611bfa575b81611b7260e09383613ec1565b81010312611bf65760405160e081019181831067ffffffffffffffff841117611be25760c0611bd8916040948552805184528c8101518d8501528481015185850152606081015160608501526080810151608085015260a081015160a085015201614352565b60c0820152611999565b634e487b7160e01b5f52604160045260245ffd5b8c80fd5b3d9150611b65565b6040513d8f823e3d90fd5b60405162461bcd60e51b815260048101869052601460248201527310995b1bddc81b5a5b8818dbdb1b185d195c985b60621b6044820152606490fd5b846003541691823b1561041f57604051631df3cbc560e31b8152928492849283918291611c799160048401613f3a565b039134905af1801561041457611c90575b80611937565b611c9990613e90565b61041057865f611c8a565b50346101b157611cb336613e0e565b6001600160a01b039091168252600a602052604082208054919290918310156101b1576020611ce28484613e34565b90546040519160031b1c8152f35b5080611cfb36613dcb565b90611d07939293614c88565b81611e80575b505081905260076020526040822090611d2c60ff60088401541661429a565b60018060a01b0360035416906040835460248251809581936331d98b3f60e01b835260048301525afa918215610502578492611e5e575b50838493600981015480611e33575b50811580611e26575b611dfc575b5015611dc157807fac4fd466c8f994e08ce2eb9141c2f01f2a779a3537d9bd71fa8762df3d12842c60406106c79581519015158152856020820152a2614ca9565b60405162461bcd60e51b815260206004820152601360248201527215140bd4d3081b9bdd081d1c9a59d9d95c9959606a1b6044820152606490fd5b6001810154600a925060a01c60ff1615611e1c5701548211155b5f611d80565b0154821015611e16565b50600a8101541515611d7b565b9150935060ff600185015460a01c165f14611e5557821015925b83905f611d72565b82111592611e4d565b611e7891925060403d60401161057d5761056d8183613ec1565b50905f611d63565b6003546001600160a01b031691823b1561041f57604051631df3cbc560e31b8152928492849283918291611eb79160048401613f3a565b039134905af1801561041457611ece575b80611d0d565b611ed790613e90565b61047757815f611ec8565b50346101b157806003193601126101b1576003546040516001600160a01b039091168152602090f35b506101003660031901126101b15760043590611f25613dff565b9160443591606435916084359460a43590611f3e614c88565b600287101580612213575b156121dd57603c82106121a557629896808781029081048803612191578610612155576001546001600160a01b031696873b15610f1a5760405163bd79156f60e01b8152858180611fa18a8c88338c60048701614269565b03818c5afa801561214a57908691612136575b5050611fc08688614131565b9760405198899163e4d8cbe560e01b835289600484015287602484015282604460209c8d935afa91821561212b5787926120f5575b50906001978261200c610a4b84600e989796614015565b6006549a6120198c6142d1565b6006558b8a5260088d5260408a208981558b8101805460ff60a01b1933166001600160a81b03199091161797151560a01b60ff60a01b16979097179096556002860155600385015560048401556006830161010461ffff19825416179055426007840155600983015534600a83015560c435600b83015560e435600c830155600d8201550155338252600a85526120b384604084206142df565b604051908152600485820152816040820152837f401524beccff0d9dd3447788dea32e11f3b7c9618ed6084f14a773dbf2025f1660603393a355604051908152f35b939291508984813d8311612124575b61210e8183613ec1565b810103126104f757925191929091906001611ff5565b503d612104565b6040513d89823e3d90fd5b61213f90613e90565b610f1a57845f611fb4565b6040513d88823e3d90fd5b60405162461bcd60e51b815260206004820152601460248201527314db1a58d9481cda5e99481d1bdbc81cdb585b1b60621b6044820152606490fd5b634e487b7160e01b85526011600452602485fd5b60405162461bcd60e51b815260206004820152601060248201526f135a5b880d8c1cc81a5b9d195c9d985b60821b6044820152606490fd5b60405162461bcd60e51b815260206004820152600e60248201526d496e76616c696420736c6963657360901b6044820152606490fd5b506064871115611f49565b50346101b15761222d36613e0e565b6001600160a01b0390911682526009602052604082208054919290918310156101b1576020611ce28484613e34565b50346101b15760203660031901126101b157600435612279614c88565b808252600860205281600a6040822060ff6006820180549061229f838360081c16613fdc565b6122b660018060a01b036001860154163314613f02565b61ff001982169055166002198101612353575b500154806122fe575b50807f61b9399f2f0f32ca39ce8d7be32caed5ec22fe07a6daba3a467ed479ec60658291a26001815580f35b81808092335af161230d61416f565b501561231a57815f6122d2565b60405162461bcd60e51b8152602060048201526011602482015270115512081c99599d5b990819985a5b1959607a1b6044820152606490fd5b6003820154600460098401549214806123d5575b61239b575b6123768282614015565b612381575b506122c9565b6123949161238e91614015565b3361503f565b5f8061237b565b6123cf906123c4600d850154916123c9836123c46123bd600f8a015483614162565b809461414f565b614131565b9461414f565b9061236c565b50600f8301541515612367565b50346101b15760603660031901126101b1576123fc614c88565b600435815260076020526040812061241a60ff60088301541661429a565b61243160018060a01b036001830154163314613f02565b6024356009820155600a6044359101556001815580f35b50346101b157806003193601126101b1576004546040516001600160a01b039091168152602090f35b5060e03660031901126101b157612486613dff565b8160c43567ffffffffffffffff8111610477576124a7903690600401613d9a565b906124b0614c88565b6124c16298968060443510156141ae565b81612aec575b5050600354604080516331d98b3f60e01b81526004803590820152925090829060249082906001600160a01b03165afa90811561047b578391612acc575b50608435612aa7575b60a435612a82575b6001546001600160a01b031691823b1561041f578360405163bd79156f60e01b8152818180612552606435604435883360043560048701614269565b0381885afa801561041457612a6e575b505060206044936040519485809263e4d8cbe560e01b8252823560048301528860248301525afa928315610502578493612a39575b50602061268e916125ac606435604435614131565b946125ba610a4b8288614015565b604051956125c787613ea4565b8760c0880152876101208801528761014088015287610180880152876101e08801528761020088015287610220880152876102408801526004358752338488015282151560408801526044356060880152608087015260643560a0870152600260e087015260016101008701526101608601526084356101a086015260a4356101c086015260018060a01b0360015416604051808095819463b391decf60e01b83526044359015156004356004850160409194939260608201958252151560208201520152565b03915afa908115610502578491612a07575b5081848213156129b957506126b8612710918361414f565b04604083015115155f146129ab576126cf91614015565b600554906126dc826142d1565b6005558184526007602090815260408086208551815591850151600183018054928701516001600160a81b03199093166001600160a01b03929092169190911791151560a081901b60ff60a01b16929092179055859190612765905b606087015180600285015560808801519081600386015586600486015560a08901516005860155866151c8565b600682015542600782015542600c82015560088101600160ff198254161790556101a085015160098201556101c0850151600a820155602060018060a01b0360015416602487516040519586938492637cc6765f60e11b845260048401525af191821561214a578692612976575b50600b015560015483516020850151604086015160608701518894909392911515916001600160a01b039182169116813b156129725785809461282c6040519788968795869463b65b361f60e01b8652600486016143b3565b03925af180156104145761295e575b50506002546080840151612857916001600160a01b031661503f565b600254608084015185916001600160a01b031690813b15611681578291602483926040519485938492636e93ae2b60e01b845260048401525af180156104145761294a575b505060a05f805160206154f5833981519152916128bd6101608601516152c4565b600180831b03602086015116865260096020526128dd84604088206142df565b600180831b03602086015116948051916040820151151591846060820151910151926040519485526020850152604084015260608301526080820152a36005545f19810190811161293657600160209255604051908152f35b634e487b7160e01b82526011600452602482fd5b61295390613e90565b61041f57835f61289c565b61296790613e90565b61041f57835f61283b565b8580fd5b9091506020813d6020116129a3575b8161299260209383613ec1565b810103126104f7575190600b6127d3565b3d9150612985565b6129b491614162565b6126cf565b908481126129c9575b50506126cf565b6127109192506116cd6129db916143a3565b04604083015115155f146129f9576129f291614162565b5f806129c2565b612a0291614015565b6129f2565b90506020813d602011612a31575b81612a2260209383613ec1565b810103126104f757515f6126a0565b3d9150612a15565b9092506020813d602011612a66575b81612a5560209383613ec1565b810103126104f75751916020612597565b3d9150612a48565b612a7790613e90565b61041f57835f612562565b8115612a9a57612a958160a4351061422a565b612516565b612a958160a4351161422a565b8115612abf57612aba81608435116141eb565b61250e565b612aba81608435106141eb565b612ae5915060403d60401161057d5761056d8183613ec1565b505f612505565b6003546001600160a01b031691823b1561041f57604051631df3cbc560e31b8152928492849283918291612b239160048401613f3a565b039134905af1801561041457612b3a575b806124c7565b612b4390613e90565b61047757815f612b34565b50346101b157806003193601126101b1576020604051629896808152f35b50612b7636613dcb565b90612b7f614c88565b81613c36575b50508082526008602052604082206006810154612ba760ff8260081c16613fdc565b612bb86007830154600d5490614015565b4211613c015760018060a01b0360035416906040835460248251809581936331d98b3f60e01b835260048301525afa9182156104a6578592613bdc575b5060ff16806131465750600182015460a01c60ff16156131395760058201548111155b1561310057612c268261404c565b60015481516040808401516060850151915163b391decf60e01b8152600481019390935215156024830152604482015291929190602090829060649082906001600160a01b03165afa90811561214a5786916130ce575b5081868213156130805750612c95612710918361414f565b04604083015115155f1461307257612cac91614015565b60055490612cb9826142d1565b6005558186526007602090815260408088208551815591850151600183018054928701516001600160a81b03199093166001600160a01b03929092169190911791151560a081901b60ff60a01b16929092179055879190612d1990612738565b600682015542600782015542600c82015560088101600160ff198254161790556101a085015160098201556101c0850151600a820155602060018060a01b0360015416602487516040519586938492637cc6765f60e11b845260048401525af191821561058457889261303d575b50600b015560015483516020850151604086015160608701518a94909392911515916001600160a01b039182169116813b1561297257858094612de06040519788968795869463b65b361f60e01b8652600486016143b3565b03925af1801561041457613029575b50506002546080840151612e0b916001600160a01b031661503f565b600254608084015187916001600160a01b031690813b15611681578291602483926040519485938492636e93ae2b60e01b845260048401525af1801561041457613015575b505060a05f805160206154f583398151915291612e716101608601516152c4565b600180831b0360208601511688526009602052612e918460408a206142df565b600180831b03602086015116948051916040820151151591846060820151910151926040519485526020850152604084015260608301526080820152a360068101805461ff00191690555b82600a82015480612f69575b5050600681015460ff8160081c1615612f04575b836001815580f35b60ff16600303612f405760080154905b7f9947370f1e808dd40de986fca744d8715d4d7aa575359f77a7bdeeb887f590ea8380a35f8080612efc565b506005545f198101908111612f555790612f14565b634e487b7160e01b83526011600452602483fd5b81906006840154600460ff82161480613008575b15612fee5750612f939150600d84015490614131565b8015612ee85781808092335af1612fa861416f565b5015612fb557825f612ee8565b60405162461bcd60e51b815260206004820152601160248201527012d9595c195c881999594819985a5b1959607a1b6044820152606490fd5b60081c60ff1615613000575b50612f93565b90505f612ffa565b50600d8501541515612f7d565b61301e90613e90565b61297257855f612e50565b61303290613e90565b61297257855f612def565b9091506020813d60201161306a575b8161305960209383613ec1565b810103126104f7575190600b612d87565b3d915061304c565b61307b91614162565b612cac565b90868112613090575b5050612cac565b6127109192506116cd6130a2916143a3565b04604083015115155f146130c0576130b991614162565b5f80613089565b6130c991614015565b6130b9565b90506020813d6020116130f8575b816130e960209383613ec1565b810103126104f757515f612c7d565b3d91506130dc565b60405162461bcd60e51b8152602060048201526011602482015270131a5b5a5d081b9bdd081c995858da1959607a1b6044820152606490fd5b6005820154811015612c18565b600181036135605750600182015460a01c60ff16156135535760058201548110155b1561351b576131768261404c565b60015481516040808401516060850151915163b391decf60e01b8152600481019390935215156024830152604482015291929190602090829060649082906001600160a01b03165afa90811561214a5786916134e9575b50818682131561349b57506131e5612710918361414f565b04604083015115155f1461348d576131fc91614015565b60055490613209826142d1565b6005558186526007602090815260408088208551815591850151600183018054928701516001600160a81b03199093166001600160a01b03929092169190911791151560a081901b60ff60a01b1692909217905587919061326990612738565b600682015542600782015542600c82015560088101600160ff198254161790556101a085015160098201556101c0850151600a820155602060018060a01b0360015416602487516040519586938492637cc6765f60e11b845260048401525af1918215610584578892613458575b50600b015560015483516020850151604086015160608701518a94909392911515916001600160a01b039182169116813b15612972578580946133306040519788968795869463b65b361f60e01b8652600486016143b3565b03925af1801561041457613444575b5050600254608084015161335b916001600160a01b031661503f565b600254608084015187916001600160a01b031690813b15611681578291602483926040519485938492636e93ae2b60e01b845260048401525af1801561041457613430575b505060a05f805160206154f5833981519152916133c16101608601516152c4565b600180831b03602086015116885260096020526133e18460408a206142df565b600180831b03602086015116948051916040820151151591846060820151910151926040519485526020850152604084015260608301526080820152a360068101805461ff0019169055612edc565b61343990613e90565b61297257855f6133a0565b61344d90613e90565b61297257855f61333f565b9091506020813d602011613485575b8161347460209383613ec1565b810103126104f7575190600b6132d7565b3d9150613467565b61349691614162565b6131fc565b908681126134ab575b50506131fc565b6127109192506116cd6134bd916143a3565b04604083015115155f146134db576134d491614162565b5f806134a4565b6134e491614015565b6134d4565b90506020813d602011613513575b8161350460209383613ec1565b810103126104f757515f6131cd565b3d91506134f7565b60405162461bcd60e51b815260206004820152601060248201526f14dd1bdc081b9bdd081c995858da195960821b6044820152606490fd5b6005820154811115613168565b600281036136165750600182015460ff8160a01c165f146136095760058301548211155b80156135fd575b156135ac57506131768261404c565b60068101805461ff0019169055612edc565b6135d391506135c46003840154600985015490614015565b906001600160a01b031661503f565b817f61b9399f2f0f32ca39ce8d7be32caed5ec22fe07a6daba3a467ed479ec6065828480a261359a565b5060058301541561358b565b6005830154821015613584565b60038103613654575061362e60088301918254614ca9565b548352600e60205260408320805460ff1916905560068101805461ff0019169055612edc565b600414613662575b50612edc565b600f8201549081158015613bc0575b15613b895761367f8361404c565b91600181018111613b7557600d840154600182018103613b35576136e46136fe9260028701546136f4846136e4848b6136ea6136bb8588614131565b966136e4846136de60096136d460038801549a8b614131565b9601549d8e614131565b9961414f565b90614162565b60608d015261414f565b608088015261414f565b6101608301525b60015482516040808501516060860151915163b391decf60e01b8152600481019390935215156024830152604482015290602090829060649082906001600160a01b03165afa90811561214a578691613b03575b508186821315613ab55750613771612710918361414f565b04604083015115155f14613aa75761378891614015565b600554613794816142d1565b6005558086526007602090815260408088208551815591850151600183018054928701516001600160a81b03199093166001600160a01b03929092169190911791151560a081901b60ff60a01b1692909217905587919061381c90606087015180600285015560808801519081600386015587600486015560a08901516005860155876151c8565b600682015542600782015542600c82015560088101600160ff198254161790556101a085015160098201556101c0850151600a820155602060018060a01b0360015416602487516040519586938492637cc6765f60e11b845260048401525af1918215610584578892613a72575b50600b015560015483516020850151604086015160608701518a94909392911515916001600160a01b039182169116813b15612972578580946138e36040519788968795869463b65b361f60e01b8652600486016143b3565b03925af1801561041457613a5e575b5050600254608084015161390e916001600160a01b031661503f565b600254608084015187916001600160a01b031690813b15611681578291602483926040519485938492636e93ae2b60e01b845260048401525af1801561041457613a4a575b50506139636101608401516152c4565b6020838101516001600160a01b0316875260099052604086206139879082906142df565b5f805160206154f583398151915260a0600180821b03602086015116938551906040870151151590606088015184890151926040519485526020850152604084015260608301526080820152a3600f8201549060018201809211612191577f098dc6c1012d2fb4cc0470ec0f1b82ad9eaf354865d76ebad869d83f1559344e60406060869385600f88015542601088015501518151908582526020820152a2600d8201541115613a38575b5f61365c565b60068101805461ff0019169055613a32565b613a5390613e90565b61297257855f613953565b613a6790613e90565b61297257855f6138f2565b9091506020813d602011613a9f575b81613a8e60209383613ec1565b810103126104f7575190600b61388a565b3d9150613a81565b613ab091614162565b613788565b90868112613ac5575b5050613788565b6127109192506116cd613ad7916143a3565b04604083015115155f14613af557613aee91614162565b5f80613abe565b613afe91614015565b613aee565b90506020813d602011613b2d575b81613b1e60209383613ec1565b810103126104f757515f613759565b3d9150613b11565b613b6a9150613b48816002870154614131565b6060850152613b5b816003870154614131565b60808501526009850154614131565b610160830152613705565b634e487b7160e01b86526011600452602486fd5b60405162461bcd60e51b815260206004820152600f60248201526e545741503a20746f6f206561726c7960881b6044820152606490fd5b50613bd46010840154600e85015490614015565b421015613671565b60ff919250613bf99060403d60401161057d5761056d8183613ec1565b509190612bf5565b60405162461bcd60e51b815260206004820152600d60248201526c13dc99195c88195e1c1a5c9959609a1b6044820152606490fd5b6003546001600160a01b031691823b156104f757604051631df3cbc560e31b8152925f92849283918291613c6d9160048401613f3a565b039134905af18015613c9757613c84575b80612b85565b613c8f919250613e90565b5f905f613c7e565b6040513d5f823e3d90fd5b346104f75760203660031901126104f757600154604051638da5cb5b60e01b815260048035926001600160a01b0391602091849190829085165afa8015613c9757613cf6925f91613d325750163314613f02565b6101f48111613d0457600c55005b60405162461bcd60e51b81526020600482015260066024820152654d617820352560d01b6044820152606490fd5b613d4b915060203d602011610d2f57610d218183613ec1565b84610cb6565b346104f75760203660031901126104f7576004355f52600e602052602060ff60405f2054166040519015158152f35b346104f7575f3660031901126104f7576020906006548152f35b9181601f840112156104f75782359167ffffffffffffffff83116104f7576020808501948460051b0101116104f757565b9060406003198301126104f757600435916024359067ffffffffffffffff82116104f757613dfb91600401613d9a565b9091565b6024359081151582036104f757565b60409060031901126104f7576004356001600160a01b03811681036104f7579060243590565b8054821015613e49575f5260205f2001905f90565b634e487b7160e01b5f52603260045260245ffd5b60606003198201126104f75760043591602435916044359067ffffffffffffffff82116104f757613dfb91600401613d9a565b67ffffffffffffffff8111611be257604052565b610260810190811067ffffffffffffffff821117611be257604052565b90601f8019910116810190811067ffffffffffffffff821117611be257604052565b908160209103126104f757516001600160a01b03811681036104f75790565b15613f0957565b60405162461bcd60e51b81526020600482015260096024820152682737ba1037bbb732b960b91b6044820152606490fd5b9160208181850182865252604084019360408360051b82010194845f925b858410613f69575050505050505090565b90919293949596603f198282030184528735601e19843603018112156104f757830186810191903567ffffffffffffffff81116104f75780360383136104f75787828280600196849695859652848401375f828201840152601f01601f1916010199019796959190910193019190613f58565b15613fe357565b60405162461bcd60e51b815260206004820152600a6024820152694e6f742061637469766560b01b6044820152606490fd5b9190820180921161402257565b634e487b7160e01b5f52601160045260245ffd5b91908260409103126104f7576020825192015190565b9060405161405981613ea4565b610240601082948054845260ff600182015460018060a01b038116602087015260a01c16151560408501526002810154606085015260038101546080850152600481015460a0850152600581015460c085015260ff600682015481811660e087015260081c161515610100850152600781015461012085015260088101546101408501526009810154610160850152600a810154610180850152600b8101546101a0850152600c8101546101c0850152600d8101546101e0850152600e810154610200850152600f8101546102208501520154910152565b811561413b570490565b634e487b7160e01b5f52601260045260245ffd5b8181029291811591840414171561402257565b9190820391821161402257565b3d156141a9573d9067ffffffffffffffff8211611be2576040519161419e601f8201601f191660200184613ec1565b82523d5f602084013e565b606090565b156141b557565b60405162461bcd60e51b815260206004820152600e60248201526d14da5e99481d1bdbc81cdb585b1b60921b6044820152606490fd5b156141f257565b60405162461bcd60e51b815260206004820152601060248201526f496e76616c696420545020707269636560801b6044820152606490fd5b1561423157565b60405162461bcd60e51b815260206004820152601060248201526f496e76616c696420534c20707269636560801b6044820152606490fd5b9081526001600160a01b03909116602082015290151560408201526060810191909152608081019190915260a00190565b156142a157565b60405162461bcd60e51b81526020600482015260086024820152672737ba1037b832b760c11b6044820152606490fd5b5f1981146140225760010190565b805468010000000000000000811015611be25761430191600182018155613e34565b819291549060031b91821b915f19901b1916179055565b1561431f57565b60405162461bcd60e51b815260206004820152600b60248201526a16995c9bc8185b5bdd5b9d60aa1b6044820152606490fd5b519081151582036104f757565b1561436657565b60405162461bcd60e51b8152602060048201526015602482015274576f756c64206265206c6971756964617461626c6560581b6044820152606490fd5b600160ff1b8114614022575f0390565b9081526001600160a01b0390911660208201529015156040820152606081019190915260800190565b156143e357565b60405162461bcd60e51b815260206004820152600f60248201526e436f6f6c646f776e2061637469766560881b6044820152606490fd5b81810392915f13801582851316918412161761402257565b81810292915f8212600160ff1b82141661402257818405149015171561402257565b811561413b57600160ff1b81145f19831416614022570590565b9190915f838201938412911290801582169115161761402257565b9190925f9084151580614bbd575b15614b8657835f52600760205260405f20926144b960ff60088601541661429a565b6144d060018060a01b036001860154163314613f02565b6007840154600154604051636d78097360e11b815290602090829060049082906001600160a01b03165afa908115613c97575f91614b52575b5061067c9061451792614015565b81614af3575b505060018060a01b0360035416906040835460248251809581936331d98b3f60e01b835260048301525afa918215614ae6578192614ac4575b5061271094858114614ab3576145959561459b600286015482614579858361414f565b0498899361458c60038a0154968761414f565b04938492614162565b93614162565b629896808310614a7857624c4b408110614a3357600186015460a01c60ff1615614a17576145df60048701546145da8a6145d5838a61441a565b614432565b614454565b955b60015460405163e4d8cbe560e01b8152600481018b90526024810187905294906001600160a01b0316602086604481845afa95861561212b578b889182986149db575b5063d693a40061465061463c602093600b549061414f565b61464a600c89015442614162565b9061414f565b0492602486546040519485938492637cc6765f60e11b845260048401525af18015610584576149b0575b506001548354604051634655f1eb60e01b815260048101829052909391602090829060249082906001600160a01b03165afa9081156149a5578992918e918491614969575b5061474c939461470d670de0b6b3a7640000614718946146e761471295600b8d01549061441a565b60018c0154995060a08a901c60ff16156149505761470491614432565b05915b8c61446e565b61446e565b8c61441a565b9581600287015580600387015561472f8183614131565b600587015542600c87015560ff8460a01c169160048701546151c8565b60068401556001546001600160a01b031691823b156104b15761479c928892838e936040519687958694859363019ca2b960e51b855260ff8260a01c169160018060a01b031690600486016143b3565b03925af1801561214a5790869161493c575b5082136148e2575b600254600191909101546001600160a01b039182169116813b156129725760405163118f304360e01b81526001600160a01b0391909116600482015260248101849052604481018390529085908290606490829084905af180156104a6579085916148ce575b505082151591826148bb575b5050614869575b5050604051938452602084015260408301527f5cc0748e06097a585a6534dafcca64d5cc367340dff0e00469484e8269a7ca7b60603393a3565b6002546001600160a01b031690813b156116815782916024839260405194859384926335b8e71360e01b845260048401525af18015610414571561482f576148b18291613e90565b6101b1578061482f565b6148c69192506143a3565b125f80614828565b6148d790613e90565b61041f57835f61481c565b6001546001600160a01b0316803b156129725785809160246040518094819363630304f960e11b83528860048401525af1801561214a57908691614928575b50506147b6565b61493190613e90565b610f1a57845f614921565b61494590613e90565b610f1a57845f6147ae565b61495d9061496292614432565b6143a3565b0591614707565b935050506020823d60201161499d575b8161498660209383613ec1565b810103126104f75790518891908d9061474c6146bf565b3d9150614979565b6040513d8b823e3d90fd5b602090813d83116149d4575b6149c68183613ec1565b810103126104f7575f61467a565b503d6149bc565b975050506020863d602011614a0f575b816149f860209383613ec1565b810103126104f757945194868b63d693a400614624565b3d91506149eb565b614a2d60048701546145da8a6145d5898461441a565b956145e1565b60405162461bcd60e51b815260206004820152601e60248201527f52656d61696e64657220636f6c6c61746572616c20746f6f20736d616c6c00006044820152606490fd5b60405162461bcd60e51b815260206004820152601360248201527214995b585a5b99195c881d1bdbc81cdb585b1b606a1b6044820152606490fd5b5050919050614ac29250614ca9565b565b614ade91925060403d60401161057d5761056d8183613ec1565b50905f614556565b50604051903d90823e3d90fd5b6003546001600160a01b031691823b156104f757604051631df3cbc560e31b8152925f92849283918291614b2a9160048401613f3a565b039134905af18015613c9757614b41575b8061451d565b614b4b9150613e90565b5f80614b3b565b90506020813d602011614b7e575b81614b6d60209383613ec1565b810103126104f75751614517614509565b3d9150614b60565b60405162461bcd60e51b815260206004820152600f60248201526e125b9d985b1a59081c195c98d95b9d608a1b6044820152606490fd5b50612710851115614497565b906040516101c0810181811067ffffffffffffffff821117611be2576040526101a0600c82948054845260ff600182015460018060a01b038116602087015260a01c16151560408501526002810154606085015260038101546080850152600481015460a0850152600581015460c0850152600681015460e0850152600781015461010085015260ff60088201541615156101208501526009810154610140850152600a810154610160850152600b8101546101808501520154910152565b60025f5414614c975760025f55565b604051633ee5aeb560e01b8152600490fd5b91905f92805f5260209160078352604090815f206008810190614ccf60ff83541661429a565b60018101805460a01c60ff161561502457614d0060048301546145da614cf5828861441a565b600286015490614432565b925b60018060a01b0392836001541690600281019283549389519363e4d8cbe560e01b8552600495868601525f60248601528c85604481845afa94851561501a578b918e915f97614fe7575b50905f916024614d5e61028489614bc9565b94885490519485938492637cc6765f60e11b84528d8401525af18015614fdd57908e91614fb4575b5050614da5614dab9161470d614d9e6102c788614bc9565b918861446e565b8961441a565b825460ff191690925560015483548754925490918916803b156104f7575f92838b8f8b95614df691519889978896879563019ca2b960e51b875260ff8460a01c1693169186016143b3565b03925af18015614faa57614f97575b508c8113614f48575b8c86600254166003888854169401938454823b1561041f578c5163118f304360e01b81526001600160a01b039092168289019081526020810191909152604081018590529091839183919082908490829060600103925af18015614f3e57614f2a575b50508215159182614f16575b5050614eba575b50507f356fca566f3a054a459c7224d9c9d634f31a98835cfd4fb4c5ddbf8b96aca21195969798505416958351928352820152a3565b8a90846002541692833b1561168157602490838a5195869485936335b8e71360e01b85528401525af18015614f0c57614ef4575b80614e84565b614efe8a91613e90565b614f085788614eee565b8880fd5b86513d8c823e3d90fd5b614f22919250546143a3565b125f80614e7d565b614f3390613e90565b611bf6578c5f614e71565b8b513d84823e3d90fd5b8c8660015416803b156104775781809160248d518094819363630304f960e11b8352888c8401525af18015614f3e57614f83575b5050614e0e565b614f8c90613e90565b611bf6578c5f614f7c565b614fa2919d50613e90565b5f9b5f614e05565b8a513d5f823e3d90fd5b813d8311614fd6575b614fc78183613ec1565b810103126104f7578c5f614d86565b503d614fbd565b8c513d5f823e3d90fd5b9250955081813d8311615013575b614fff8183613ec1565b810103126104f75751938a908d905f614d4c565b503d614ff5565b8b513d5f823e3d90fd5b61503960048301546145da614cf5878361441a565b92614d02565b6004805460405163a9059cbb60e01b81526001600160a01b0393841692810192909252602482019390935291602091839160449183915f91165af1908115613c97575f916150c7575b501561509057565b60405162461bcd60e51b815260206004820152600f60248201526e151c985b9cd9995c8819985a5b1959608a1b6044820152606490fd5b90506020813d6020116150f9575b816150e260209383613ec1565b810103126104f7576150f390614352565b5f615088565b3d91506150d5565b916064602092935f60018060a01b03938460045416908560405198899788966323b872dd60e01b885216600487015216602485015260448401525af1908115613c97575f9161518e575b501561515357565b60405162461bcd60e51b8152602060048201526013602482015272151c985b9cd9995c919c9bdb4819985a5b1959606a1b6044820152606490fd5b90506020813d6020116151c0575b816151a960209383613ec1565b810103126104f7576151ba90614352565b5f61514b565b3d915061519c565b9192909261232890818102918183041490151715614022576001546040516335123baf60e21b81526127109283900491602090829060049082906001600160a01b03165afa908115613c97575f91615292575b50600a81018091116140225761523283918761414f565b049080821061528257505060648402848104606414851517156140225704905b1561526b57615268926123c46136e4928461414f565b90565b615268926123c461527c928461414f565b90614015565b61528c9250614162565b90615252565b90506020813d6020116152bc575b816152ad60209383613ec1565b810103126104f757515f61521b565b3d91506152a0565b60015460408051631db0457960e11b815260048101939093525f9392916001600160a01b039082908490602490829085165afa928315615404575f905f946153e2575b5080615381575b508261531c575b5050509050565b6020600491600154168351928380926361d027b360e01b82525afa9182156153785750615350939491615359575b5061503f565b805f8080615315565b615372915060203d602011610d2f57610d218183613ec1565b5f61534a565b513d86823e3d90fd5b61538f81836002541661503f565b816002541690813b156104f7575f9160248392865194859384926302102c9760e11b845260048401525af180156153d8571561530e576153d0919550613e90565b5f935f61530e565b83513d5f823e3d90fd5b90506153fc919350823d841161057d5761056d8183613ec1565b92905f615307565b82513d5f823e3d90fd5b61543c63d693a40091615437606061542b6101a084015142614162565b920151600b549061414f565b61414f565b0490565b60018060a01b03600154169060208151602460405180958193634655f1eb60e01b835260048301525afa918215613c97575f926154be575b50615492670de0b6b3a7640000926101808301519061441a565b6040820151156154ad5760606154a9920151614432565b0590565b61495d9060606154a9930151614432565b91506020823d6020116154ec575b816154d960209383613ec1565b810103126104f757905190615492615478565b3d91506154cc56fe52ca44dea94749aadfaa4d3749a0323a33b3a6434adcfff52ad54c511f5579c7a264697066735822122090a1edcd5b26f848a5450c944db13c23106b51ad47d654131f88f3396ff47b5464736f6c63430008180033",
  "linkReferences": {},
  "deployedLinkReferences": {},
  "immutableReferences": {},
  "inputSourceName": "project/src/ConfidentialTrading.sol",
  "buildInfoId": "solc-0_8_24-f74d5a9ad0236dc14ae9a70075bea0c87b016bdf"
}