{"abi":[{"type":"constructor","inputs":[{"name":"_usdc","type":"address","internalType":"address"},{"name":"_core","type":"address","internalType":"address"},{"name":"_vault","type":"address","internalType":"address"},{"name":"_oracle","type":"address","internalType":"address"}],"stateMutability":"nonpayable"},{"type":"receive","stateMutability":"payable"},{"type":"function","name":"MIN_COLLATERAL","inputs":[],"outputs":[{"name":"","type":"uint256","internalType":"uint256"}],"stateMutability":"view"},{"type":"function","name":"MIN_POSITION_SIZE","inputs":[],"outputs":[{"name":"","type":"uint256","internalType":"uint256"}],"stateMutability":"view"},{"type":"function","name":"addCollateral","inputs":[{"name":"positionId","type":"uint256","internalType":"uint256"},{"name":"amount","type":"uint256","internalType":"uint256"}],"outputs":[],"stateMutability":"nonpayable"},{"type":"function","name":"cancelOrder","inputs":[{"name":"orderId","type":"uint256","internalType":"uint256"}],"outputs":[],"stateMutability":"nonpayable"},{"type":"function","name":"closePositionInstantly","inputs":[{"name":"positionId","type":"uint256","internalType":"uint256"},{"name":"updateData","type":"bytes[]","internalType":"bytes[]"}],"outputs":[],"stateMutability":"payable"},{"type":"function","name":"closePositionPartial","inputs":[{"name":"positionId","type":"uint256","internalType":"uint256"},{"name":"closePercent","type":"uint256","internalType":"uint256"},{"name":"updateData","type":"bytes[]","internalType":"bytes[]"}],"outputs":[],"stateMutability":"payable"},{"type":"function","name":"core","inputs":[],"outputs":[{"name":"","type":"address","internalType":"contract ConfidentialCore"}],"stateMutability":"view"},{"type":"function","name":"createCloseRequest","inputs":[{"name":"positionId","type":"uint256","internalType":"uint256"}],"outputs":[{"name":"orderId","type":"uint256","internalType":"uint256"}],"stateMutability":"payable"},{"type":"function","name":"createTwapOrder","inputs":[{"name":"pairId","type":"bytes32","internalType":"bytes32"},{"name":"isLong","type":"bool","internalType":"bool"},{"name":"totalSizeUsd","type":"uint256","internalType":"uint256"},{"name":"leverage","type":"uint256","internalType":"uint256"},{"name":"slices","type":"uint256","internalType":"uint256"},{"name":"intervalSec","type":"uint256","internalType":"uint256"},{"name":"tpPrice","type":"uint256","internalType":"uint256"},{"name":"slPrice","type":"uint256","internalType":"uint256"}],"outputs":[{"name":"orderId","type":"uint256","internalType":"uint256"}],"stateMutability":"payable"},{"type":"function","name":"executeADL","inputs":[{"name":"positionIds","type":"uint256[]","internalType":"uint256[]"},{"name":"updateData","type":"bytes[]","internalType":"bytes[]"}],"outputs":[],"stateMutability":"payable"},{"type":"function","name":"executeHybridBatch","inputs":[{"name":"longOrderIds","type":"uint256[]","internalType":"uint256[]"},{"name":"shortOrderIds","type":"uint256[]","internalType":"uint256[]"},{"name":"updateData","type":"bytes[]","internalType":"bytes[]"}],"outputs":[],"stateMutability":"payable"},{"type":"function","name":"executeOrder","inputs":[{"name":"orderId","type":"uint256","internalType":"uint256"},{"name":"updateData","type":"bytes[]","internalType":"bytes[]"}],"outputs":[],"stateMutability":"payable"},{"type":"function","name":"executeTPSL","inputs":[{"name":"positionId","type":"uint256","internalType":"uint256"},{"name":"updateData","type":"bytes[]","internalType":"bytes[]"}],"outputs":[],"stateMutability":"payable"},{"type":"function","name":"hasActiveCloseRequest","inputs":[{"name":"","type":"uint256","internalType":"uint256"}],"outputs":[{"name":"","type":"bool","internalType":"bool"}],"stateMutability":"view"},{"type":"function","name":"increasePosition","inputs":[{"name":"positionId","type":"uint256","internalType":"uint256"},{"name":"additionalSizeUsd","type":"uint256","internalType":"uint256"},{"name":"additionalLeverage","type":"uint256","internalType":"uint256"},{"name":"acceptablePrice","type":"uint256","internalType":"uint256"},{"name":"updateData","type":"bytes[]","internalType":"bytes[]"}],"outputs":[],"stateMutability":"payable"},{"type":"function","name":"liquidate","inputs":[{"name":"positionId","type":"uint256","internalType":"uint256"},{"name":"updateData","type":"bytes[]","internalType":"bytes[]"}],"outputs":[],"stateMutability":"payable"},{"type":"function","name":"liquidationRewardBps","inputs":[],"outputs":[{"name":"","type":"uint256","internalType":"uint256"}],"stateMutability":"view"},{"type":"function","name":"maxOrderAge","inputs":[],"outputs":[{"name":"","type":"uint256","internalType":"uint256"}],"stateMutability":"view"},{"type":"function","name":"nextOrderId","inputs":[],"outputs":[{"name":"","type":"uint256","internalType":"uint256"}],"stateMutability":"view"},{"type":"function","name":"nextPositionId","inputs":[],"outputs":[{"name":"","type":"uint256","internalType":"uint256"}],"stateMutability":"view"},{"type":"function","name":"oracle","inputs":[],"outputs":[{"name":"","type":"address","internalType":"contract PythPriceOracle"}],"stateMutability":"view"},{"type":"function","name":"pendingOrders","inputs":[{"name":"","type":"uint256","internalType":"uint256"}],"outputs":[{"name":"pairId","type":"bytes32","internalType":"bytes32"},{"name":"trader","type":"address","internalType":"address"},{"name":"isLong","type":"bool","internalType":"bool"},{"name":"sizeUsd","type":"uint256","internalType":"uint256"},{"name":"collateral","type":"uint256","internalType":"uint256"},{"name":"leverage","type":"uint256","internalType":"uint256"},{"name":"triggerPrice","type":"uint256","internalType":"uint256"},{"name":"orderType","type":"uint8","internalType":"uint8"},{"name":"isActive","type":"bool","internalType":"bool"},{"name":"createdAt","type":"uint256","internalType":"uint256"},{"name":"positionId","type":"uint256","internalType":"uint256"},{"name":"feePaid","type":"uint256","internalType":"uint256"},{"name":"executionFee","type":"uint256","internalType":"uint256"},{"name":"tpPrice","type":"uint256","internalType":"uint256"},{"name":"slPrice","type":"uint256","internalType":"uint256"},{"name":"twapSlices","type":"uint256","internalType":"uint256"},{"name":"twapInterval","type":"uint256","internalType":"uint256"},{"name":"twapExecuted","type":"uint256","internalType":"uint256"},{"name":"twapLastExec","type":"uint256","internalType":"uint256"}],"stateMutability":"view"},{"type":"function","name":"placeMarketOrder","inputs":[{"name":"pairId","type":"bytes32","internalType":"bytes32"},{"name":"isLong","type":"bool","internalType":"bool"},{"name":"sizeUsd","type":"uint256","internalType":"uint256"},{"name":"leverage","type":"uint256","internalType":"uint256"},{"name":"tpPrice","type":"uint256","internalType":"uint256"},{"name":"slPrice","type":"uint256","internalType":"uint256"},{"name":"acceptablePrice","type":"uint256","internalType":"uint256"},{"name":"updateData","type":"bytes[]","internalType":"bytes[]"}],"outputs":[{"name":"posId","type":"uint256","internalType":"uint256"}],"stateMutability":"payable"},{"type":"function","name":"placeOrder","inputs":[{"name":"pairId","type":"bytes32","internalType":"bytes32"},{"name":"isLong","type":"bool","internalType":"bool"},{"name":"sizeUsd","type":"uint256","internalType":"uint256"},{"name":"leverage","type":"uint256","internalType":"uint256"},{"name":"triggerPrice","type":"uint256","internalType":"uint256"},{"name":"orderType","type":"uint8","internalType":"uint8"},{"name":"tpPrice","type":"uint256","internalType":"uint256"},{"name":"slPrice","type":"uint256","internalType":"uint256"}],"outputs":[{"name":"orderId","type":"uint256","internalType":"uint256"}],"stateMutability":"payable"},{"type":"function","name":"positions","inputs":[{"name":"","type":"uint256","internalType":"uint256"}],"outputs":[{"name":"pairId","type":"bytes32","internalType":"bytes32"},{"name":"trader","type":"address","internalType":"address"},{"name":"isLong","type":"bool","internalType":"bool"},{"name":"sizeUsd","type":"uint256","internalType":"uint256"},{"name":"collateral","type":"uint256","internalType":"uint256"},{"name":"entryPrice","type":"uint256","internalType":"uint256"},{"name":"leverage","type":"uint256","internalType":"uint256"},{"name":"liquidationPrice","type":"uint256","internalType":"uint256"},{"name":"openedAt","type":"uint256","internalType":"uint256"},{"name":"isOpen","type":"bool","internalType":"bool"},{"name":"tpPrice","type":"uint256","internalType":"uint256"},{"name":"slPrice","type":"uint256","internalType":"uint256"},{"name":"entryFundingIndex","type":"int256","internalType":"int256"},{"name":"lastRolloverSettled","type":"uint256","internalType":"uint256"}],"stateMutability":"view"},{"type":"function","name":"removeCollateral","inputs":[{"name":"positionId","type":"uint256","internalType":"uint256"},{"name":"amount","type":"uint256","internalType":"uint256"},{"name":"updateData","type":"bytes[]","internalType":"bytes[]"}],"outputs":[],"stateMutability":"payable"},{"type":"function","name":"rolloverFeePerHour","inputs":[],"outputs":[{"name":"","type":"uint256","internalType":"uint256"}],"stateMutability":"view"},{"type":"function","name":"setLiquidationRewardBps","inputs":[{"name":"_bps","type":"uint256","internalType":"uint256"}],"outputs":[],"stateMutability":"nonpayable"},{"type":"function","name":"setMaxOrderAge","inputs":[{"name":"_seconds","type":"uint256","internalType":"uint256"}],"outputs":[],"stateMutability":"nonpayable"},{"type":"function","name":"setRolloverFeePerHour","inputs":[{"name":"_fee","type":"uint256","internalType":"uint256"}],"outputs":[],"stateMutability":"nonpayable"},{"type":"function","name":"updateTpSl","inputs":[{"name":"positionId","type":"uint256","internalType":"uint256"},{"name":"newTpPrice","type":"uint256","internalType":"uint256"},{"name":"newSlPrice","type":"uint256","internalType":"uint256"}],"outputs":[],"stateMutability":"nonpayable"},{"type":"function","name":"usdc","inputs":[],"outputs":[{"name":"","type":"address","internalType":"contract IERC20"}],"stateMutability":"view"},{"type":"function","name":"userOrders","inputs":[{"name":"","type":"address","internalType":"address"},{"name":"","type":"uint256","internalType":"uint256"}],"outputs":[{"name":"","type":"uint256","internalType":"uint256"}],"stateMutability":"view"},{"type":"function","name":"userPositions","inputs":[{"name":"","type":"address","internalType":"address"},{"name":"","type":"uint256","internalType":"uint256"}],"outputs":[{"name":"","type":"uint256","internalType":"uint256"}],"stateMutability":"view"},{"type":"function","name":"vault","inputs":[],"outputs":[{"name":"","type":"address","internalType":"contract ConfidentialVault"}],"stateMutability":"view"},{"type":"event","name":"CollateralAdded","inputs":[{"name":"positionId","type":"uint256","indexed":true,"internalType":"uint256"},{"name":"trader","type":"address","indexed":true,"internalType":"address"},{"name":"amount","type":"uint256","indexed":false,"internalType":"uint256"},{"name":"newLiquidationPrice","type":"uint256","indexed":false,"internalType":"uint256"}],"anonymous":false},{"type":"event","name":"CollateralRemoved","inputs":[{"name":"positionId","type":"uint256","indexed":true,"internalType":"uint256"},{"name":"trader","type":"address","indexed":true,"internalType":"address"},{"name":"amount","type":"uint256","indexed":false,"internalType":"uint256"},{"name":"newLiquidationPrice","type":"uint256","indexed":false,"internalType":"uint256"}],"anonymous":false},{"type":"event","name":"OrderCancelled","inputs":[{"name":"orderId","type":"uint256","indexed":true,"internalType":"uint256"}],"anonymous":false},{"type":"event","name":"OrderExecuted","inputs":[{"name":"orderId","type":"uint256","indexed":true,"internalType":"uint256"},{"name":"positionId","type":"uint256","indexed":true,"internalType":"uint256"}],"anonymous":false},{"type":"event","name":"OrderPlaced","inputs":[{"name":"orderId","type":"uint256","indexed":true,"internalType":"uint256"},{"name":"trader","type":"address","indexed":true,"internalType":"address"},{"name":"pairId","type":"bytes32","indexed":false,"internalType":"bytes32"},{"name":"orderType","type":"uint8","indexed":false,"internalType":"uint8"},{"name":"triggerPrice","type":"uint256","indexed":false,"internalType":"uint256"}],"anonymous":false},{"type":"event","name":"PositionClosed","inputs":[{"name":"positionId","type":"uint256","indexed":true,"internalType":"uint256"},{"name":"trader","type":"address","indexed":true,"internalType":"address"},{"name":"exitPrice","type":"uint256","indexed":false,"internalType":"uint256"},{"name":"pnl","type":"int256","indexed":false,"internalType":"int256"}],"anonymous":false},{"type":"event","name":"PositionIncreased","inputs":[{"name":"positionId","type":"uint256","indexed":true,"internalType":"uint256"},{"name":"trader","type":"address","indexed":true,"internalType":"address"},{"name":"additionalSizeUsd","type":"uint256","indexed":false,"internalType":"uint256"},{"name":"newEntryPrice","type":"uint256","indexed":false,"internalType":"uint256"},{"name":"newLiquidationPrice","type":"uint256","indexed":false,"internalType":"uint256"}],"anonymous":false},{"type":"event","name":"PositionLiquidated","inputs":[{"name":"positionId","type":"uint256","indexed":true,"internalType":"uint256"},{"name":"trader","type":"address","indexed":true,"internalType":"address"},{"name":"executionPrice","type":"uint256","indexed":false,"internalType":"uint256"},{"name":"liquidator","type":"address","indexed":true,"internalType":"address"},{"name":"reward","type":"uint256","indexed":false,"internalType":"uint256"}],"anonymous":false},{"type":"event","name":"PositionOpened","inputs":[{"name":"positionId","type":"uint256","indexed":true,"internalType":"uint256"},{"name":"trader","type":"address","indexed":true,"internalType":"address"},{"name":"pairId","type":"bytes32","indexed":false,"internalType":"bytes32"},{"name":"isLong","type":"bool","indexed":false,"internalType":"bool"},{"name":"sizeUsd","type":"uint256","indexed":false,"internalType":"uint256"},{"name":"entryPrice","type":"uint256","indexed":false,"internalType":"uint256"},{"name":"leverage","type":"uint256","indexed":false,"internalType":"uint256"}],"anonymous":false},{"type":"event","name":"PositionPartialClose","inputs":[{"name":"positionId","type":"uint256","indexed":true,"internalType":"uint256"},{"name":"trader","type":"address","indexed":true,"internalType":"address"},{"name":"closeSizeUsd","type":"uint256","indexed":false,"internalType":"uint256"},{"name":"exitPrice","type":"uint256","indexed":false,"internalType":"uint256"},{"name":"pnl","type":"int256","indexed":false,"internalType":"int256"}],"anonymous":false},{"type":"event","name":"TPSLTriggered","inputs":[{"name":"positionId","type":"uint256","indexed":true,"internalType":"uint256"},{"name":"isTakeProfit","type":"bool","indexed":false,"internalType":"bool"},{"name":"executionPrice","type":"uint256","indexed":false,"internalType":"uint256"}],"anonymous":false},{"type":"event","name":"TWAPSliceExecuted","inputs":[{"name":"orderId","type":"uint256","indexed":true,"internalType":"uint256"},{"name":"sliceNumber","type":"uint256","indexed":false,"internalType":"uint256"},{"name":"sizeUsd","type":"uint256","indexed":false,"internalType":"uint256"}],"anonymous":false},{"type":"error","name":"ReentrancyGuardReentrantCall","inputs":[]}],"bytecode":{"object":"0x608034620000e457601f62005adf38819003918201601f19168301916001600160401b03831184841017620000e857808492608094604052833981010312620000e4576200004d81620000fc565b906200005c60208201620000fc565b6200007860606200007060408501620000fc565b9301620000fc565b9060015f55600160055560016006555f600b556064600c5562093a80600d5560018060a01b03928380928160018060a01b031997168760045416176004551685600154161760015516836002541617600255169060035416176003556040516159cd9081620001128239f35b5f80fd5b634e487b7160e01b5f52604160045260245ffd5b51906001600160a01b0382168203620000e45756fe60e080604052600436101561001c575b50361561001a575f80fd5b005b5f905f3560e01c9081632a58b3301461314a575080632c0e1e9e14612b425780632c338fed14612b135780632e80f9a414612a8157806331e01f4a1461273057806333e7dddb14612715578063368dbba8146105825780633e413bee146126ec57806341aa303b1461268657806341daf493146120cd578063514fcac714611f125780635e1b4d9914611ed45780636fb197f714611bf25780637dc0d1d014611bc957806380b742581461195e578063856652e91461191257806387f194231461153d578063899346c71461151f5780638fb735ee1461150157806399fbab88146114335780639bfe7e3e14611256578063a8f35adf1461111f578063ba7ebf5f14611072578063c009687c14610fb2578063c09403ac14610cb9578063c29433a614610c9b578063c3aaea4e14610b58578063ee6d519814610b3a578063effaed8914610b1c578063f2f4eb2614610af3578063f5ba8a2a14610955578063f661417014610587578063fa77964814610582578063fbfa77cf146105595763fd5c77cd0361000f576040366003190112610556576001600160401b03600435818111610552576101d1903690600401613164565b60249260243590811161054e576101ec903690600401613164565b9190926101f761489b565b60018060a01b0392600195846001541691604051809363aced166160e01b825281600460209687935afa80156105435787918b91610516575b501633036104db57600296600484886002541660405192838092637510e6c960e11b82525afa80156104d0578b9061049d575b61251c9150111561044d57908991816103df575b50505b84811061028957886001815580f35b610294818686613ef9565b35895260078352604089208960ff918a83600883015416156103d5575088600354169260408254878251809781936331d98b3f60e01b835260048301525afa9384156103ca578394610398575b50818c015460a01c161561037b57806103106004610315930154918c6103078488614088565b910154906140a0565b6140c2565b13156103385790610332899261032c838989613ef9565b35615543565b0161027a565b60405162461bcd60e51b815260048101859052601c818501527b21b0b73737ba1020a2261030903637b9b4b733903837b9b4ba34b7b760211b6044820152606490fd5b806103106004610393930154918c6103078785614088565b610315565b6103bb91945060403d6040116103c3575b6103b3818361334f565b810190613413565b50925f6102e1565b503d6103a9565b6040513d85823e3d90fd5b9392505050610332565b876003541691823b1561044957604051631df3cbc560e31b815292849284928391829161040f9160048401613372565b039134905af1801561043e57610426575b80610277565b61042f90613320565b61043a57875f610420565b8780fd5b6040513d84823e3d90fd5b8380fd5b60405162461bcd60e51b815260048101859052602260248201527f41444c206f6e6c7920696e20656d657267656e637920287574696c203e203935604482015261252960f01b6064820152608490fd5b508481813d83116104c9575b6104b3818361334f565b810103126104c55761251c9051610263565b5f80fd5b503d6104a9565b6040513d8d823e3d90fd5b60405162461bcd60e51b815260048101849052601360248201527213db9b1e4812d9595c195c8818d85b88105113606a1b6044820152606490fd5b6105369150853d871161053c575b61052e818361334f565b810190613536565b5f610230565b503d610524565b6040513d8c823e3d90fd5b8480fd5b8280fd5b80fd5b50346105565780600319360112610556576002546040516001600160a01b039091168152602090f35b6131d6565b5080610592366131a3565b9061059e93929361489b565b816108f3575b5050908060249252602090600782526040842060088101906105c960ff8354166132b1565b6003548154604080516331d98b3f60e01b815260048101839052976001600160a01b03949293899190829087165afa9687156108e85788976108c6575b50600181019160ff835460a01c165f146108b95760068201548811155b1561088157908891828861063e610639856147db565b615851565b9260248860015416916040519485938492637cc6765f60e11b845260048401525af190811561082b578991610852575b505061068161067c836147db565b615883565b81848213610841575b50506003820154908181111561083657506106a58180613500565b916127106106b5600c54856134ed565b049660ff1981541690558560015416908054906002875491015492803b156107bb578692838a6107056040519788968795869463019ca2b960e51b865260ff8360a01c169216906004860161350d565b03925af190811561082b578491610817575b5050806107bf575b508360025416908484541690823b1561044957608484928360405195869485936309c0533b60e01b8552600485015233602485015260448401528a60648401525af1801561043e576107a7575b50505416926040519485528401527f3b7bc7c0fdc798ac653b9f0d6d28adb2293a55402d32c21d323da740ccc6553960403394a46001815580f35b6107b090613320565b6107bb57865f61076c565b8680fd5b846002541690813b1561044957839160248392604051948593849263ff20b48d60e01b845260048401525af19081156103ca5783916107ff575b5061071f565b61080890613320565b61081357815f6107f9565b5080fd5b61082090613320565b61055257825f610717565b6040513d86823e3d90fd5b6106a5908092613500565b61084b92506134b8565b5f8061068a565b90809294503d831161087a575b610869818361334f565b810103126104c5578891875f61066e565b503d61085f565b60405162461bcd60e51b815260048101889052601060248201526f4e6f74206c6971756964617461626c6560801b6044820152606490fd5b6006820154881015610623565b6108e091975060403d6040116103c3576103b3818361334f565b50955f610606565b6040513d8a823e3d90fd5b6003546001600160a01b031691823b1561044957604051631df3cbc560e31b815292849284928391829161092a9160048401613372565b039134905af1801561043e57610941575b806105a4565b61094a90613320565b61081357815f61093b565b5061095f366131a3565b919061096961489b565b818452600760205283604081209361098760ff6008870154166132b1565b60018501546001600160a01b0393906109a390851633146132e8565b600460078701546020866001541660405193848092636d78097360e11b82525afa918215610ae8578592610aaf575b506109e8916109e0916134b8565b421015613fa4565b81610a54575b50505060409060035416925460248251809581936331d98b3f60e01b835260048301525afa9081156103ca57610a2b928492610a32575b50615543565b6001815580f35b610a4c91925060403d6040116103c3576103b3818361334f565b50905f610a25565b836003541691823b1561044957604051631df3cbc560e31b8152928492849283918291610a849160048401613372565b039134905af1801561043e57610a9b575b806109ee565b610aa490613320565b61044957835f610a95565b945090506020843d602011610ae0575b81610acc6020938361334f565b810103126104c557925187936109e06109d2565b3d9150610abf565b6040513d87823e3d90fd5b50346105565780600319360112610556576001546040516001600160a01b039091168152602090f35b50346105565780600319360112610556576020600c54604051908152f35b50610a2b610b4736613242565b92610b5392919261489b565b614115565b503461055657602036600319011261055657600435815260086020526040902080808054600182015460c05260028201546003830154600484015460058501546006860154600787015490600888015492600989015494600a8a015496600b8b015498600c8c01549a600d8d01549c600e01549d600f01549e6010015460805260405160a05260a05152600160a01b6001900360c0511660a0516020015260c05160a01c60ff16151560a0516040015260a0516060015260a0516080015260a05160a0015260a05160c0015260ff811660a05160e0015260081c60ff16151560a051610100015260a051610120015260a051610140015260a051610160015260a051610180015260a0516101a0015260a0516101c0015260a0516101e0015260a051610200015260a051610220015260805160a051610240015260a05161026090f35b50346105565780600319360112610556576020600d54604051908152f35b5061010036600319011261055657610ccf613194565b9060a4359060ff8216820361055657610ce661489b565b610cf7620f42406044351015613274565b600160ff831611610f6d5760c435610f28575b60e435610ee3575b6001546001600160a01b031692833b156108135760405163bd79156f60e01b8152828180610d4d606435604435873360048035908701613469565b0381885afa80156103ca57610ecf575b506020604493946040519485809263e4d8cbe560e01b82528235600483015260ff89161560248301525afa92831561043e578293610e98575b5090602093600192610dac60643560443561349a565b94610dc1610dba82886134b8565b30336148bc565b60065495610dce87613f45565b60065586855260088852610dfb6040862093600435855587850133898060a01b0319825416178155613f53565b60443560028401556003830155606435600483015560843560058301556006820161010060ff851661ffff1983541617179055426007830155600982015534600a82015560c435600b820155600c60e435910155338252600a8552610e638460408420613f70565b60ff60405191600435835216858201526084356040820152835f8051602061597883398151915260603393a355604051908152f35b919092506020823d602011610ec7575b81610eb56020938361334f565b810103126104c5579051916020610d96565b3d9150610ea8565b610ed98391613320565b610813575f610d5d565b8215610f125760843560e435108015610f05575b610f0090613594565b610d12565b5060ff8216600214610ef7565b60843560e435118015610f0557610f0090613594565b8215610f575760843560c435118015610f4a575b610f4590613555565b610d0a565b5060ff8216600214610f3c565b60843560c435108015610f4a57610f4590613555565b60405162461bcd60e51b815260206004820152601f60248201527f55736520706c6163654d61726b65744f7264657220666f72206d61726b6574006044820152606490fd5b503461055657602036600319011261055657600154604051638da5cb5b60e01b815260048035926001600160a01b0391602091849190829085165afa801561082b57611008928591611053575b501633146132e8565b8061101357600b5580f35b60405162461bcd60e51b815260206004820152601860248201527716995c9bc8189bdc9c9bddc819995948195b999bdc98d95960421b6044820152606490fd5b61106c915060203d60201161053c5761052e818361334f565b5f610fff565b503461055657602036600319011261055657600154604051638da5cb5b60e01b815260048035926001600160a01b0391602091849190829085165afa801561082b576110c792859161105357501633146132e8565b610e1081101580611112575b156110de57600d5580f35b60405162461bcd60e51b815260206004820152600c60248201526b31682d3330642072616e676560a01b6044820152606490fd5b5062278d008111156110d3565b50346105565760403660031901126105565760243560043561113f61489b565b61114a821515613fe2565b80835260076020526040832061116660ff6008830154166132b1565b60018101908460018060a01b036111818185541633146132e8565b611190868260025416336148bc565b60025416803b1561081357818091602460405180948193636e93ae2b60e01b83528b60048401525af1801561043e57611242575b5050611205600692600383016111db8782546134b8565b80915560028401546111ed828261349a565b600586015560ff6004860154935460a01c1692614b58565b918291015560405192835260208301527f935a476d8eb416e1441bbdc27477a7d90012bed1a74dba06f77fc32b8b119bd860403393a36001815580f35b61124b90613320565b61054e57845f6111c4565b5060209081600319360112610556576004359061127161489b565b818152600783526040812060ff600882015416156113fa5760018101546001600160a01b03906112a490821633146132e8565b838352600e855260ff6040842054166113be576007820154600154604051636d78097360e11b8152949392879186916004918391165afa9384156103ca57839461138d575b506109e06001946112f9926134b8565b838252600e855260408220805460ff1916841790556006549361131b85613f45565b60065584835260088652604083209084820133868060a01b03198254161790556006820161010361ffff198254161790554260078301556008820155600a3491015554604051908152600385820152816040820152835f8051602061597883398151915260603393a355604051908152f35b93508584813d83116113b7575b6113a4818361334f565b810103126104c5579251926109e06112e9565b503d61139a565b60405162461bcd60e51b8152600481018690526014602482015273436c6f736520726571756573742065786973747360601b6044820152606490fd5b60405162461bcd60e51b81526004810185905260116024820152702837b9b4ba34b7b7103737ba1037b832b760791b6044820152606490fd5b50346105565760203660031901126105565760406101c09160043581526007602052208054906001810154906002810154600382015460048301546005840154600685015460078601549160ff60088801541693600988015495600a8901549760ff600c600b8c01549b01549b6040519d8e528d602060018060a01b03831691015260a01c16151560408d015260608c015260808b015260a08a015260c089015260e088015261010087015215156101208601526101408501526101608401526101808301526101a0820152f35b50346105565780600319360112610556576020600b54604051908152f35b50346105565780600319360112610556576020600554604051908152f35b5061154736613242565b9061155393929361489b565b61155e841515613fe2565b82855260209060078252604086209261157d60ff6008860154166132b1565b86600185019160018060a01b03936115998585541633146132e8565b816118b7575b5050506115ab84614983565b5060038401936115bc878654613500565b90620f4240821061187b576002810154916115d7818461349a565b90856001541694602460e08554976040519283809263351bd11560e11b82528b60048301525afa8015611870578d906117c7575b604091500151831161178b57906116388493928260ff8f9a99989760040154925460a01c16968792614b58565b98604087600354169660248251809981936331d98b3f60e01b835260048301525afa80156108e8578a60069681988b93611769575b501561175a5761167d9111614029565b55600582015501558060025416803b15610552578280916024604051809481936306e980c560e51b83528c60048401525af19081156103ca578391611746575b505060025416803b15610813578160405180926374e863ad60e01b82528183816116eb8c336004840161406d565b03925af1801561043e57611732575b50506040519384528301527fdf372a02d8e5139b85d7448d53241f194a27db9f321178c970db6e998ebb600160403393a36001815580f35b61173b90613320565b61054e57845f6116fa565b61174f90613320565b61081357815f6116bd565b6117649110614029565b61167d565b61178391935060403d6040116103c3576103b3818361334f565b50915f61166d565b60405162461bcd60e51b815260048101899052601460248201527345786365656473206d6178206c6576657261676560601b6044820152606490fd5b5060e0813d60e011611868575b816117e160e0938361334f565b810103126118645760405160e08101916001600160401b038311828410176118505760c0611846916040948552805184528c8101518d8501528481015185850152606081015160608501526080810151608085015260a081015160a08501520161401c565b60c082015261160b565b634e487b7160e01b5f52604160045260245ffd5b8c80fd5b3d91506117d4565b6040513d8f823e3d90fd5b60405162461bcd60e51b815260048101869052601460248201527310995b1bddc81b5a5b8818dbdb1b185d195c985b60621b6044820152606490fd5b846003541691823b1561044957604051631df3cbc560e31b81529284928492839182916118e79160048401613372565b039134905af1801561043e576118fe575b8061159f565b61190790613320565b6107bb57865f6118f8565b503461055657611921366131f3565b6001600160a01b039091168252600a602052604082208054919290918310156105565760206119508484613219565b90546040519160031b1c8152f35b50611968366131a3565b9061197493929361489b565b81611b6a575b505081815260209160078352604082209061199b60ff6008840154166132b1565b6007820154600154604051636d78097360e11b81526001600160a01b03929187908290600490829087165afa908115611b5f578691611b30575b506109e0906119e3926134b8565b60035416916040815460248251809681936331d98b3f60e01b835260048301525afa92831561082b578493611b0e575b50838491600981015480611ae3575b50811580611ad6575b611aac575b5015611a71577fac4fd466c8f994e08ce2eb9141c2f01f2a779a3537d9bd71fa8762df3d12842c6040839285610a2b979883519215158352820152a2615543565b60405162461bcd60e51b815260048101869052601360248201527215140bd4d3081b9bdd081d1c9a59d9d95c9959606a1b6044820152606490fd5b6001810154600a925060a01c60ff1615611acc5701548311155b5f611a30565b0154831015611ac6565b50600a8101541515611a2b565b9150915060ff600183015460a01c165f14611b0557831015905b81905f611a22565b83111590611afd565b611b2891935060403d6040116103c3576103b3818361334f565b50915f611a13565b90508681813d8311611b58575b611b47818361334f565b810103126104c557516119e36119d5565b503d611b3d565b6040513d88823e3d90fd5b6003546001600160a01b031690813b1561044957918391611ba193604051809581948293631df3cbc560e31b845260048401613372565b039134905af1801561043e579082911561197a57611bbe90613320565b61055657805f61197a565b50346105565780600319360112610556576003546040516001600160a01b039091168152602090f35b506101003660031901126105565760043590611c0c613194565b9160443591606435916084359460a43590611c2561489b565b600287101580611ec9575b15611e9357603c8210611e5b57620f42408781029081048803611e47578610611e0b576001546001600160a01b031696873b1561054e5760405163bd79156f60e01b8152858180611c888a8c88338c60048701613469565b03818c5afa8015611b5f57908691611df7575b5050611ca7868861349a565b9760405198899163e4d8cbe560e01b835289600484015287602484015282604460209c8d935afa918215611dec578792611db6575b509060019782611cf3610dba84600e9897966134b8565b6006549a611d008c613f45565b6006558b8a5260088d52611d2b60408b20968a88558c8801338e8060a01b0319825416178155613f53565b6002860155600385015560048401556006830161010461ffff19825416179055426007840155600983015534600a83015560c435600b83015560e435600c830155600d8201550155338252600a8552611d878460408420613f70565b604051908152600485820152816040820152835f8051602061597883398151915260603393a355604051908152f35b939291508984813d8311611de5575b611dcf818361334f565b810103126104c557925191929091906001611cdc565b503d611dc5565b6040513d89823e3d90fd5b611e0090613320565b61054e57845f611c9b565b60405162461bcd60e51b815260206004820152601460248201527314db1a58d9481cda5e99481d1bdbc81cdb585b1b60621b6044820152606490fd5b634e487b7160e01b85526011600452602485fd5b60405162461bcd60e51b815260206004820152601060248201526f135a5b880d8c1cc81a5b9d195c9d985b60821b6044820152606490fd5b60405162461bcd60e51b815260206004820152600e60248201526d496e76616c696420736c6963657360901b6044820152606490fd5b506064871115611c30565b503461055657611ee3366131f3565b6001600160a01b0390911682526009602052604082208054919290918310156105565760206119508484613219565b503461055657602036600319011261055657600435611f2f61489b565b8082526008602052604082206006810190600360ff8354611f54828260081c166135d3565b611f6b60018060a01b0360018601541633146132e8565b61ff00198116855516146120b0575b60ff8254166003810361201b575b50600460ff600a830154935416148061200e575b611fe1575b508281611fc2575b5f80516020615958833981519152915080a26001815580f35b808080611fda94335af1611fd461360c565b5061364a565b5f82611fa9565b9061200282600f611ff9600d6120089601548561349a565b910154906134ed565b90613500565b5f611fa1565b50600f8101541515611f9c565b6003820154600460098401549214806120a3575b612063575b61203e82826134b8565b612049575b50611f88565b61205c91612056916134b8565b33614c59565b5f80612043565b9061209d90612002600d850154612097612087612080838861349a565b928561349a565b95612002600f89015480946134ed565b946134ed565b90612034565b50600f830154151561202f565b60088101548452600e60205260408420805460ff19169055611f7a565b506060366003190112610556576001600160401b0390600435828111610813576120fb903690600401613164565b9260243581811161044957612114903690600401613164565b9160443590811161054e5761212d903690600401613164565b9061213661489b565b60015460405163aced166160e01b815290602090829060049082906001600160a01b03165afa908115611dec578791612667575b506001600160a01b0316330361263457816125d5575b50849390508380805b8881106125265750865b85811061245f5750600354604080516331d98b3f60e01b8152600481019890985290879060249082906001600160a01b03165afa958615611dec57879661243d575b50808210156124355750955b5f915f5b82811061232857505050505f805b83811061220257856001815580f35b61220d818585613ef9565b355f526008602052600a61226760405f20935f8a8210612303575b6122536006870191600160ff84541680156122ee575b146122d9575b8a61224e8961368a565b615241565b805461ff00191690556002850154906134b8565b920154806122ba575b5061227c818585613ef9565b35906005545f1981019081116122a6576001925f805160206159388339815191525f80a3016121f3565b634e487b7160e01b5f52601160045260245ffd5b5f8080806122d394335af16122cd61360c565b506137ee565b5f612270565b6122e960058901548c111561376f565b612244565b6122fe8d60058c015411156137ae565b61223e565b5061230e818b613500565b6002860154908082116123215750612228565b9050612228565b612333818484613ef9565b355f526008602052600a61238d60405f20955f8c8210612410575b612379600689019160018d8b60ff8654169182156123fa575b5050146123e5575b8c61224e8b61368a565b805461ff00191690556002870154906134b8565b940154806123cc575b506123a2818484613ef9565b35906005545f1981019081116122a6576001925f805160206159388339815191525f80a3016121e5565b5f8080806123df94335af16122cd61360c565b5f612396565b6123f58d60058c0154111561376f565b61236f565b600561240992015410156137ae565b8b8f612367565b5061241b818d613500565b60028801549080821161242e575061234e565b905061234e565b9050956121e1565b61245791965060403d6040116103c3576103b3818361334f565b50945f6121d5565b9061246b828787613ef9565b35885260089687602052604089209760ff809160068b0154901c169081612514575b50156124df578915806124d7575b156124bc57506124b560019160028954995b0154906134b8565b9101612193565b966001916002826124d28b6124b5955414613f09565b6124ad565b50821561249b565b60405162461bcd60e51b815260206004820152600d60248201526c125b9d985b1a59081cda1bdc9d609a1b6044820152606490fd5b9050600189015460a01c16155f61248d565b91612532838a86613ef9565b35885260089687602052604089209760ff809160068b0154901c1690816125c4575b5015612590578361257a575061257360019160028954990154906134b8565b9201612189565b966001916002826124d28b612573955414613f09565b60405162461bcd60e51b815260206004820152600c60248201526b496e76616c6964206c6f6e6760a01b6044820152606490fd5b9050600189015460a01c165f612554565b6003546001600160a01b031690813b156107bb5791869161260c93604051809581948293631df3cbc560e31b845260048401613372565b039134905af18015610ae857908591156121805761262990613320565b61044957835f612180565b60405162461bcd60e51b815260206004820152600b60248201526a27b7363c9025b2b2b832b960a91b6044820152606490fd5b612680915060203d60201161053c5761052e818361334f565b5f61216a565b5034610556576060366003190112610556576126a061489b565b60043581526007602052604081206126be60ff6008830154166132b1565b6126d560018060a01b0360018301541633146132e8565b6024356009820155600a6044359101556001815580f35b50346105565780600319360112610556576004546040516001600160a01b039091168152602090f35b50610a2b612722366131a3565b9161272b61489b565b61382e565b50610100366003190112610556576004359061274a613194565b9160c43560e4356001600160401b0381116104495761276d903690600401613164565b9061277661489b565b612787620f42406044351015613274565b81612a1e575b5050600354604080516331d98b3f60e01b815260048101859052926001600160a01b03929091908490602490829086165afa928315610ae85785936129fc575b50806129d3575b506084356129ae575b60a435612989575b6001541691823b156104495760405163bd79156f60e01b81528481806128166064356044358b338960048701613469565b0381875afa8015610ae857908591612975575b505060405194859363e4d8cbe560e01b8552604435600486015285602486015284604460209889935afa908115610ae8578591612944575b612915945061287460643560443561349a565b90612882610dba84846134b8565b6040519361288f85613333565b8760c0860152876101208601528761014086015287610180860152876101e086015287610200860152876102208601528761024086015284523388850152151560408401526044356060840152608083015260643560a0830152600260e083015260016101008301526101608201526084356101a082015260a4356101c0820152614e5e565b6005545f198101919082116129305760019055604051908152f35b634e487b7160e01b81526011600452602490fd5b90508584813d831161296e575b61295b818361334f565b810103126104c557612915935190612861565b503d612951565b61297e90613320565b61044957835f612829565b84156129a15761299c8260a43510613594565b6127e5565b61299c8260a43511613594565b84156129c6576129c18260843511613555565b6127dd565b6129c18260843510613555565b85156129eb576129e590831115613429565b5f6127d4565b6129f790831015613429565b6129e5565b612a1691935060403d6040116103c3576103b3818361334f565b50915f6127cd565b6003546001600160a01b031690813b15612a7d57918591612a5593604051809581948293631df3cbc560e31b845260048401613372565b039134905af1801561082b579084911561278d57612a7290613320565b61055257825f61278d565b8580fd5b503461055657602036600319011261055657600154604051638da5cb5b60e01b815260048035926001600160a01b0391602091849190829085165afa801561082b57612ad692859161105357501633146132e8565b6101f48111612ae557600c5580f35b60405162461bcd60e51b81526020600482015260066024820152654d617820352560d01b6044820152606490fd5b50346105565760203660031901126105565760ff60406020926004358152600e84522054166040519015158152f35b5060a03660031901126104c557606435906044356084356001600160401b0381116104c557612b75903690600401613164565b919093612b8061489b565b612b91620f42406024351015613274565b6004355f52600760205260405f2092612bb060ff6008860154166132b1565b6001840195612bc960018060a01b0388541633146132e8565b816130dd575b50506003548354604080516331d98b3f60e01b815260048101839052969791939192879060249082906001600160a01b03165afa958615611dec5787966130bb575b508061308b575b508560018060a01b03600154169260ff835460a01c16843b156105525760405163bd79156f60e01b815291839183918291612c5e918a9160243591339060048701613469565b0381875afa801561043e57613077575b50506020612c8060449460243561349a565b926040519485809263e4d8cbe560e01b825260243560048301528a60248301525afa928315611b5f578693613043575b50612cbe610dba84846134b8565b612cc784614983565b506001548454915460405163b391decf60e01b815260a09190911c60ff16969160209082906001600160a01b03168180612d086024358d8a600485016134c5565b03915afa9081156108e8578891613011575b508188821315612fbf5750612d3261271091836134ed565b048615612fb157612d42916134b8565b945b60028501549586670de0b6b3a7640000810204670de0b6b3a76400001487151715612f9d57612d816004870154670de0b6b3a7640000890261349a565b90602435670de0b6b3a76400006024350204670de0b6b3a764000014602435151715612f8957612dbd90670de0b6b3a76400006024350261349a565b612dc9602435896134b8565b9182670de0b6b3a7640000810204670de0b6b3a76400001483151715612f755783612e1e612e148c98979695670de0b6b3a7640000612e0d600697612e52976134b8565b910261349a565b9a602435906134b8565b8060028b015560038a0190612e348883546134b8565b8092558b60048c0155612e47828261349a565b60058c01558b614b58565b96019586556001546001600160a01b031691823b1561054e57612e949285928360405180968195829463b65b361f60e01b84526024359133906004860161350d565b03925af19081156103ca578391612f61575b5050600254612ebf9082906001600160a01b0316614c59565b6002546001600160a01b031690813b15610552578291602483926040519485938492636e93ae2b60e01b845260048401525af1801561043e57612f4d575b5050612f0890614d14565b546040519160243583526020830152604082015233907ff48aa9a1deec4f3fc0cb0c073f4f097041726d7c7f9d2c3a863cd52f721e8d1a606060043592a36001815580f35b612f5690613320565b61044957835f612efd565b612f6a90613320565b61081357815f612ea6565b634e487b7160e01b8a52601160045260248afd5b634e487b7160e01b89526011600452602489fd5b634e487b7160e01b88526011600452602488fd5b612fba91613500565b612d42565b90888198939812612fd2575b5050612d44565b61271091929750612fe5612feb916134dd565b836134ed565b04861561300357612ffb91613500565b945f80612fcb565b61300c916134b8565b612ffb565b90506020813d60201161303b575b8161302c6020938361334f565b810103126104c557515f612d1a565b3d915061301f565b9092506020813d60201161306f575b8161305f6020938361334f565b810103126104c55751915f612cb0565b3d9150613052565b61308090613320565b612a7d57855f612c6e565b815460a01c60ff16156130aa576130a490861115613429565b5f612c18565b6130b690861015613429565b6130a4565b6130d591965060403d6040116103c3576103b3818361334f565b50945f612c11565b6003546001600160a01b031691823b156104c557604051631df3cbc560e31b8152925f928492839182916131149160048401613372565b039134905af1801561313f5761312b575b80612bcf565b6024945061313890613320565b5f93613125565b6040513d5f823e3d90fd5b346104c5575f3660031901126104c5576020906006548152f35b9181601f840112156104c5578235916001600160401b0383116104c5576020808501948460051b0101116104c557565b6024359081151582036104c557565b9060406003198301126104c55760043591602435906001600160401b0382116104c5576131d291600401613164565b9091565b346104c5575f3660031901126104c5576020604051620f42408152f35b60409060031901126104c5576004356001600160a01b03811681036104c5579060243590565b805482101561322e575f5260205f2001905f90565b634e487b7160e01b5f52603260045260245ffd5b60606003198201126104c5576004359160243591604435906001600160401b0382116104c5576131d291600401613164565b1561327b57565b60405162461bcd60e51b815260206004820152600e60248201526d14da5e99481d1bdbc81cdb585b1b60921b6044820152606490fd5b156132b857565b60405162461bcd60e51b81526020600482015260086024820152672737ba1037b832b760c11b6044820152606490fd5b156132ef57565b60405162461bcd60e51b81526020600482015260096024820152682737ba1037bbb732b960b91b6044820152606490fd5b6001600160401b03811161185057604052565b61026081019081106001600160401b0382111761185057604052565b601f909101601f19168101906001600160401b0382119082101761185057604052565b9160208181850182865252604084019360408360051b82010194845f925b8584106133a1575050505050505090565b90919293949596603f198282030184528735601e19843603018112156104c55783018681019190356001600160401b0381116104c55780360383136104c55787828280600196849695859652848401375f828201840152601f01601f1916010199019796959190910193019190613390565b91908260409103126104c5576020825192015190565b1561343057565b60405162461bcd60e51b815260206004820152601160248201527014db1a5c1c1859d948195e18d959591959607a1b6044820152606490fd5b9081526001600160a01b03909116602082015290151560408201526060810191909152608081019190915260a00190565b81156134a4570490565b634e487b7160e01b5f52601260045260245ffd5b919082018092116122a657565b60409194939260608201958252151560208201520152565b600160ff1b81146122a6575f0390565b818102929181159184041417156122a657565b919082039182116122a657565b9081526001600160a01b0390911660208201529015156040820152606081019190915260800190565b908160209103126104c557516001600160a01b03811681036104c55790565b1561355c57565b60405162461bcd60e51b815260206004820152601060248201526f496e76616c696420545020707269636560801b6044820152606490fd5b1561359b57565b60405162461bcd60e51b815260206004820152601060248201526f496e76616c696420534c20707269636560801b6044820152606490fd5b156135da57565b60405162461bcd60e51b815260206004820152600a6024820152694e6f742061637469766560b01b6044820152606490fd5b3d15613645573d906001600160401b038211611850576040519161363a601f8201601f19166020018461334f565b82523d5f602084013e565b606090565b1561365157565b60405162461bcd60e51b8152602060048201526011602482015270115512081c99599d5b990819985a5b1959607a1b6044820152606490fd5b9060405161369781613333565b610240601082948054845260ff600182015460018060a01b038116602087015260a01c16151560408501526002810154606085015260038101546080850152600481015460a0850152600581015460c085015260ff600682015481811660e087015260081c161515610100850152600781015461012085015260088101546101408501526009810154610160850152600a810154610180850152600b8101546101a0850152600c8101546101c0850152600d8101546101e0850152600e810154610200850152600f8101546102208501520154910152565b1561377657565b60405162461bcd60e51b815260206004820152601060248201526f14dd1bdc081b9bdd081c995858da195960821b6044820152606490fd5b156137b557565b60405162461bcd60e51b8152602060048201526011602482015270131a5b5a5d081b9bdd081c995858da1959607a1b6044820152606490fd5b156137f557565b60405162461bcd60e51b815260206004820152601160248201527012d9595c195c881999594819985a5b1959607a1b6044820152606490fd5b90915f9281613e98575b5050808252600860205260408220600681015461385a60ff8260081c166135d3565b61386b6007830154600d54906134b8565b4211613db357506003548154604080516331d98b3f60e01b8152600481018390529192829060249082906001600160a01b03165afa908115610ae8578591613d93575b50600683015460ff1680613a0b575060018301546138f0925060a01c60ff16156139fb576138e260058401548211156137ae565b6138eb8361368a565b614e5e565b60068101805461ff00191690555b600a81015480613984575b50600681015460ff8160081c1615613922575b50505050565b60ff1660030361394c5760085f80516020615938833981519152910154925b80a35f80808061391c565b506005545f198101908111613970575f805160206159388339815191529092613941565b634e487b7160e01b83526011600452602483fd5b83906006830154600460ff821614806139ee575b156139d457506139ae9150600d8301549061349a565b83816139bb575b50613909565b8080806139cd94335af16122cd61360c565b5f836139b5565b60081c60ff16156139e6575b506139ae565b90505f6139e0565b50600d8401541515613998565b6138e260058401548210156137ae565b60018103613a5b57506001830154613a39925060a01c60ff1615613a4b576138e2600584015482101561376f565b60068101805461ff00191690556138fe565b6138e2600584015482111561376f565b60028103613af257509050600182015460ff8160a01c165f14613ae55760058301548211155b8015613ad9575b15613a9b5750613a39906138eb8361368a565b613ac29150613ab360038401546009850154906134b8565b906001600160a01b0316614c59565b815f805160206159588339815191528480a2613a39565b50600583015415613a88565b6005830154821015613a81565b60038103613b3257509050613b0c60088301918254615543565b548352600e60205260408320805460ff1916905560068101805461ff00191690556138fe565b600414613b41575b50506138fe565b600f8301549182158015613d77575b15613d4057613b5e8461368a565b926001810190818111612f9d57600d860154918203613d0057806002870154613b87848261349a565b8260038a015492613b98878561349a565b9260098c015497613ba9908961349a565b96613bb3916134ed565b613bbc91613500565b60608a0152613bca916134ed565b613bd391613500565b6080870152613be1916134ed565b613bea91613500565b6101608401525b6001805490850154606085015160048701549390926001600160a01b03169190823b15613cfc5760405163bd79156f60e01b8152948a9486949385938493613c53939092909160a082901c60ff16916001600160a01b03169060048701613469565b03915afa8015611b5f57908691613ce8575b5050613c719082614e5e565b600f8201549060018201809211611e47577f098dc6c1012d2fb4cc0470ec0f1b82ad9eaf354865d76ebad869d83f1559344e60406060869385600f88015542601088015501518151908582526020820152a2600d8201541115613cd6575b5f80613b3a565b60068101805461ff0019169055613ccf565b613cf190613320565b61054e57845f613c65565b8980fd5b5080613d13613d3592600288015461349a565b6060860152613d2681600388015461349a565b6080860152600986015461349a565b610160840152613bf1565b60405162461bcd60e51b815260206004820152600f60248201526e545741503a20746f6f206561726c7960881b6044820152606490fd5b50613d8b6010850154600e860154906134b8565b421015613b50565b613dac915060403d6040116103c3576103b3818361334f565b505f6138ae565b90600360ff5f8051602061595883398151915294959361ff0019811660068501551614613e7b575b600360ff600683015416141580613e60575b613e2e575b81600a8201549182613e05575b509050a2565b60010154613e26928291829182916001600160a01b03165af1611fd461360c565b5f8181613dff565b600181015460038201546009830154613e5b926001600160a01b031691613e5591906134b8565b90614c59565b613df2565b50613e7460038201546009830154906134b8565b1515613ded565b60088101548252600e60205260408220805460ff19169055613ddb565b6003546001600160a01b031691823b156104c557604051631df3cbc560e31b8152925f92849283918291613ecf9160048401613372565b039134905af1801561313f57613ee6575b80613838565b613ef1919250613320565b5f905f613ee0565b919081101561322e5760051b0190565b15613f1057565b60405162461bcd60e51b815260206004820152600d60248201526c0a0c2d2e440dad2e6dac2e8c6d609b1b6044820152606490fd5b5f1981146122a65760010190565b805460ff60a01b191691151560a01b60ff60a01b16919091179055565b8054600160401b81101561185057613f8d91600182018155613219565b819291549060031b91821b915f19901b1916179055565b15613fab57565b60405162461bcd60e51b815260206004820152600f60248201526e436f6f6c646f776e2061637469766560881b6044820152606490fd5b15613fe957565b60405162461bcd60e51b815260206004820152600b60248201526a16995c9bc8185b5bdd5b9d60aa1b6044820152606490fd5b519081151582036104c557565b1561403057565b60405162461bcd60e51b8152602060048201526015602482015274576f756c64206265206c6971756964617461626c6560581b6044820152606490fd5b6001600160a01b039091168152602081019190915260400190565b81810392915f1380158285131691841216176122a657565b81810292915f8212600160ff1b8214166122a65781840514901517156122a657565b81156134a457600160ff1b81145f198314166122a6570590565b9190915f83820193841291129080158216911516176122a657565b604091949392606082019560018060a01b0316825260208201520152565b9190925f90841515806147cf575b1561479857835f52600760205260405f209261414560ff6008860154166132b1565b61415c60018060a01b0360018601541633146132e8565b6007840154600154604051636d78097360e11b815290602090829060049082906001600160a01b03165afa90811561313f575f91614764575b506109e0906141a3926134b8565b81614705575b505060018060a01b0360035416906040835460248251809581936331d98b3f60e01b835260048301525afa9182156146f85781926146d6575b50612710948581146146c5576142219561422760028601548261420585836134ed565b0498899361421860038a015496876134ed565b04938492613500565b93613500565b94620f424080841061468a57861061464557600181015460a01c60ff161561462a5761426460048201546103108a61425f838a614088565b6140a0565b60018060a01b0360015416906040519463e4d8cbe560e01b86528a6004870152866024870152602086604481865afa958615611dec578b889182986145ee575b5063d693a4006142d06142bc602093600b54906134ed565b6142ca600c8a015442613500565b906134ed565b0494602487546040519485938492637cc6765f60e11b845260048401525af180156108e8576145c3575b506001548454604051634655f1eb60e01b815260048101829052909491602090829060249082906001600160a01b03165afa9081156145b85789939291878f92869261457a575b5092614390670de0b6b3a76400006143cf97989461436a61439595600b61439b99015490614088565b60018d01549a5060a08b901c60ff161561456157614387916140a0565b05915b8c6140dc565b6140dc565b90614088565b998160028701558060038701556143b2818361349a565b600587015542600c87015560ff8460a01c16916004870154614b58565b60068401556001546001600160a01b031691823b156107bb5761441f928792838d936040519687958694859363019ca2b960e51b855260ff8260a01c169160018060a01b0316906004860161350d565b03925af18015610ae85790859161454d575b5050600254600191909101546001600160a01b039182169116813b1561054e578661447792848780946040519687958694859363118f304360e01b8552600485016140f7565b03925af1801561082b57908491614539575b50508115159081614527575b506144d5575b5050604051938452602084015260408301527f5cc0748e06097a585a6534dafcca64d5cc367340dff0e00469484e8269a7ca7b60603393a3565b6002546001600160a01b031690813b156105525782916024839260405194859384926335b8e71360e01b845260048401525af1801561043e571561449b5761451d8291613320565b610556578061449b565b61453191506134dd565b84135f614495565b61454290613320565b61055257825f614489565b61455690613320565b61044957835f614431565b61456e90614573926140a0565b6134dd565b059161438a565b95505050506020833d6020116145b0575b816145986020938361334f565b810103126104c55791518892908d9087614390614341565b3d915061458b565b6040513d8b823e3d90fd5b602090813d83116145e7575b6145d9818361334f565b810103126104c5575f6142fa565b503d6145cf565b975050506020863d602011614622575b8161460b6020938361334f565b810103126104c557945194868b63d693a4006142a4565b3d91506145fe565b61464060048201546103108a61425f8984614088565b614264565b60405162461bcd60e51b815260206004820152601e60248201527f52656d61696e64657220636f6c6c61746572616c20746f6f20736d616c6c00006044820152606490fd5b60405162461bcd60e51b815260206004820152601360248201527214995b585a5b99195c881d1bdbc81cdb585b1b606a1b6044820152606490fd5b50509190506146d49250615543565b565b6146f091925060403d6040116103c3576103b3818361334f565b50905f6141e2565b50604051903d90823e3d90fd5b6003546001600160a01b031691823b156104c557604051631df3cbc560e31b8152925f9284928391829161473c9160048401613372565b039134905af1801561313f57614753575b806141a9565b61475d9150613320565b5f8061474d565b90506020813d602011614790575b8161477f6020938361334f565b810103126104c557516141a3614195565b3d9150614772565b60405162461bcd60e51b815260206004820152600f60248201526e125b9d985b1a59081c195c98d95b9d608a1b6044820152606490fd5b50612710851115614123565b6040519091906101c081016001600160401b03811182821017611850576040526101a0600c82948054845260ff600182015460018060a01b038116602087015260a01c16151560408501526002810154606085015260038101546080850152600481015460a0850152600581015460c0850152600681015460e0850152600781015461010085015260ff60088201541615156101208501526009810154610140850152600a810154610160850152600b8101546101808501520154910152565b60025f54146148aa5760025f55565b604051633ee5aeb560e01b8152600490fd5b916064602092935f60018060a01b03938460045416908560405198899788966323b872dd60e01b885216600487015216602485015260448401525af190811561313f575f91614949575b501561490e57565b60405162461bcd60e51b8152602060048201526013602482015272151c985b9cd9995c919c9bdb4819985a5b1959606a1b6044820152606490fd5b90506020813d60201161497b575b816149646020938361334f565b810103126104c5576149759061401c565b5f614906565b3d9150614957565b90614990610639836147db565b91600154905f60018060a01b03808354604095865191637cc6765f60e11b83526004830152816024815f6020978895165af18015614ace57908391614b2f575b50506149de61067c856147db565b875f8213614b1c575b505086614a67575b42600c85015560015416918184546024875180968193634655f1eb60e01b835260048301525afa948515614a5d575093614a2c575b5050600b0155565b9080929350813d8311614a56575b614a44818361334f565b810103126104c5575190600b5f614a24565b503d614a3a565b51903d90823e3d90fd5b60038401805480891015614ad85788614a7f91613500565b90558060025416803b156104c5575f8091602488518094819363ff20b48d60e01b83528d60048401525af18015614ace57614abb575b506149ef565b614ac6919350613320565b5f915f614ab5565b86513d5f823e3d90fd5b865162461bcd60e51b815260048101859052601f60248201527f506f736974696f6e206c6971756964617461626c652066726f6d2066656573006044820152606490fd5b614b279298506134b8565b955f806149e7565b813d8311614b51575b614b42818361334f565b810103126104c557815f6149d0565b503d614b38565b91929092612328908181029181830414901517156122a6576001546040516335123baf60e21b81526127109283900491602090829060049082906001600160a01b03165afa90811561313f575f91614c27575b50600a81018091116122a657614bc28391876134ed565b0490808210614c1757505060648402848104606414851517156122a65704905b15614c0057614bfd92614bf861200292846134ed565b61349a565b90565b614bfd92614bf8614c1192846134ed565b906134b8565b614c219250613500565b90614be2565b90506020813d602011614c51575b81614c426020938361334f565b810103126104c557515f614bab565b3d9150614c35565b614c899160209160018060a01b0360045416905f60405180968195829463a9059cbb60e01b84526004840161406d565b03925af190811561313f575f91614cda575b5015614ca357565b60405162461bcd60e51b815260206004820152600f60248201526e151c985b9cd9995c8819985a5b1959608a1b6044820152606490fd5b90506020813d602011614d0c575b81614cf56020938361334f565b810103126104c557614d069061401c565b5f614c9b565b3d9150614ce8565b60015460408051631db0457960e11b815260048101939093525f9392916001600160a01b039082908490602490829085165afa928315614e54575f905f94614e32575b5080614dd1575b5082614d6c575b5050509050565b6020600491600154168351928380926361d027b360e01b82525afa918215614dc85750614da0939491614da9575b50614c59565b805f8080614d65565b614dc2915060203d60201161053c5761052e818361334f565b5f614d9a565b513d86823e3d90fd5b614ddf818360025416614c59565b816002541690813b156104c5575f9160248392865194859384926302102c9760e11b845260048401525af18015614e285715614d5e57614e20919550613320565b5f935f614d5e565b83513d5f823e3d90fd5b9050614e4c919350823d84116103c3576103b3818361334f565b92905f614d57565b82513d5f823e3d90fd5b60608101805191925f92919083831561523957505f925b83908061519d575b50818482131561514f5750614e9561271091836134ed565b04604086015115155f1461514157614eac916134b8565b60055493614eb985613f45565b6005558484526007602090815260408086208851815588830180516001830180546001600160a01b0319166001600160a01b039283161781558b85018051909a9699949795969495929490151591614f12908390613f53565b8c8651988960028201558a6080830194855180600385015582600485015560a085019c8d516005860155614f4593614b58565b600682015542600782015542600c8201556008810160ff1981541660011790556101a082015160098201556101c0820151600a8201558b876001541692518a51938491637cc6765f60e11b8352600483015281865a92602493f1918215615137578392615107575b50600b015584600154168d519086865116908d51151591895193823b15612a7d57908580949392614ff38e519788968795869463b65b361f60e01b86526004860161350d565b03925af180156150fd576150e9575b50506150148460025416825190614c59565b83600254169051813b156105525782916024839289519485938492636e93ae2b60e01b845260048401525af180156150df578b92918d916150c5575b508694927f52ca44dea94749aadfaa4d3749a0323a33b3a6434adcfff52ad54c511f5579c79b999760a09b999795936150906101606150a0950151614d14565b85855116815260098b5220613f70565b51169951955115159051925194825196875286015284015260608301526080820152a3565b8293506150d29150613320565b6105565789908b5f615050565b86513d84823e3d90fd5b6150f591929350613320565b905f80615002565b88513d84823e3d90fd5b9091508b81813d8311615130575b61511f818361334f565b81010312610552575190600b614fad565b503d615115565b89513d85823e3d90fd5b61514a91613500565b614eac565b9084811261515f575b5050614eac565b612710919250612fe5615171916134dd565b04604086015115155f1461518f5761518891613500565b5f80615158565b615198916134b8565b615188565b90506151d760208260018060a01b0360015416895160408b01511515906040519586948593849363b391decf60e01b8552600485016134c5565b03915afa908115610ae8578591615205575b506151ff916151f7916140a0565b8351906140c2565b5f614e7d565b90506020813d602011615231575b816152206020938361334f565b8101031261054e57516151ff6151e9565b3d9150615213565b92505f614e75565b91906060830180515f938082115f1461553a5761525d91613500565b915b5f92806154a1575b506152f692815f821315615453575061528361271091836134ed565b04604086015115155f146154455761529a916134b8565b80600554946152a886613f45565b600555855f5260209360078552604091825f209089518255868a01908a5f60018060a01b03948a8686511693600183019460018060a01b03198654161785558981019d8e5115158096613f53565b6153278951958660028601558c6080840197885191826003890155600488015560a085019e8f516005890155614b58565b600684015542600784015542600c84015560088301600160ff198254161790556101a081015160098401556101c0810151600a8401556024886001541691518b519586938492637cc6765f60e11b845260048401525af191821561543b575f9261540b575b50600b015583600154168c5185855116918c51151590885193813b156104c5575f80946153ce8d519788968795869463b65b361f60e01b86526004860161350d565b03925af18015615401576153ee575b506150148460025416825190614c59565b6153f9919250613320565b5f905f6153dd565b87513d5f823e3d90fd5b9091508a81813d8311615434575b615423818361334f565b810103126104c5575190600b61538c565b503d615419565b88513d5f823e3d90fd5b61544e91613500565b61529a565b905f8112615463575b505061529a565b612710919250612fe5615475916134dd565b04604086015115155f146154935761548c91613500565b5f8061545c565b61549c916134b8565b61548c565b6154db935060208160018060a01b0360015416885160408a01511515906040519889948593849363b391decf60e01b8552600485016134c5565b03915afa93841561313f575f94615504575b506151f76154fe916152f6956140a0565b92615267565b93506020843d602011615532575b8161551f6020938361334f565b810103126104c5579251926151f76154ed565b3d9150615512565b50505f9161525f565b91905f92805f5260209160078352604090815f20600881019061556960ff8354166132b1565b60018101805460a01c60ff16156158375761559a600483015461031061558f8288614088565b6002860154906140a0565b600154600284018054885163e4d8cbe560e01b815260048101919091525f60248201526001600160a01b0395909390928616908b85604481855afa94851561582d575f956157fe575b505f8c6155f2610639876147db565b9360248d885490519485938492637cc6765f60e11b845260048401525af180156157f457908d916157cb575b505061439561563d9261439061563661067c886147db565b91886140dc565b865460ff19169096556001548254855492549290918716803b156104c5575f9283896156888e519788968795869463019ca2b960e51b865260ff8360a01c169216906004860161350d565b03925af1801561543b576157b8575b508a8460025416600386865416930192835490823b15610449576156d6928492838b938e519687958694859363118f304360e01b8552600485016140f7565b03925af180156157ae57615796575b50508115159081615783575b5061572c575b507f356fca566f3a054a459c7224d9c9d634f31a98835cfd4fb4c5ddbf8b96aca21195969798505416958351928352820152a3565b89908360025416803b156105525760248392895194859384926335b8e71360e01b845260048401525af1801561577957156156f75761576b8a91613320565b61577557886156f7565b8880fd5b86513d8c823e3d90fd5b61578e9150546134dd565b84135f6156f1565b61579f90613320565b6157aa578a5f6156e5565b8a80fd5b89513d84823e3d90fd5b6157c3919b50613320565b5f995f615697565b813d83116157ed575b6157de818361334f565b810103126104c5578b5f61561e565b503d6157d4565b8b513d5f823e3d90fd5b9094508b81813d8311615826575b615816818361334f565b810103126104c55751935f6155e3565b503d61580c565b8a513d5f823e3d90fd5b61584c600483015461031061558f8783614088565b61559a565b61587f63d693a4009161587a606061586e6101a084015142613500565b920151600b54906134ed565b6134ed565b0490565b60018060a01b03600154169060208151602460405180958193634655f1eb60e01b835260048301525afa91821561313f575f92615901575b506158d5670de0b6b3a76400009261018083015190614088565b6040820151156158f05760606158ec9201516140a0565b0590565b61456e9060606158ec9301516140a0565b91506020823d60201161592f575b8161591c6020938361334f565b810103126104c5579051906158d56158bb565b3d915061590f56fe9947370f1e808dd40de986fca744d8715d4d7aa575359f77a7bdeeb887f590ea61b9399f2f0f32ca39ce8d7be32caed5ec22fe07a6daba3a467ed479ec606582401524beccff0d9dd3447788dea32e11f3b7c9618ed6084f14a773dbf2025f16a26469706673582212206929cc23b21891662dfcda8f4de9a2025290f2f6f38149bc4f4e114fefdfc3ed64736f6c63430008180033","linkReferences":{}},"methodIdentifiers":{"MIN_COLLATERAL()":"fa779648","MIN_POSITION_SIZE()":"368dbba8","addCollateral(uint256,uint256)":"a8f35adf","cancelOrder(uint256)":"514fcac7","closePositionInstantly(uint256,bytes[])":"f5ba8a2a","closePositionPartial(uint256,uint256,bytes[])":"ee6d5198","core()":"f2f4eb26","createCloseRequest(uint256)":"9bfe7e3e","createTwapOrder(bytes32,bool,uint256,uint256,uint256,uint256,uint256,uint256)":"6fb197f7","executeADL(uint256[],bytes[])":"fd5c77cd","executeHybridBatch(uint256[],uint256[],bytes[])":"41daf493","executeOrder(uint256,bytes[])":"33e7dddb","executeTPSL(uint256,bytes[])":"80b74258","hasActiveCloseRequest(uint256)":"2c338fed","increasePosition(uint256,uint256,uint256,uint256,bytes[])":"2c0e1e9e","liquidate(uint256,bytes[])":"f6614170","liquidationRewardBps()":"effaed89","maxOrderAge()":"c29433a6","nextOrderId()":"2a58b330","nextPositionId()":"899346c7","oracle()":"7dc0d1d0","pendingOrders(uint256)":"c3aaea4e","placeMarketOrder(bytes32,bool,uint256,uint256,uint256,uint256,uint256,bytes[])":"31e01f4a","placeOrder(bytes32,bool,uint256,uint256,uint256,uint8,uint256,uint256)":"c09403ac","positions(uint256)":"99fbab88","removeCollateral(uint256,uint256,bytes[])":"87f19423","rolloverFeePerHour()":"8fb735ee","setLiquidationRewardBps(uint256)":"2e80f9a4","setMaxOrderAge(uint256)":"ba7ebf5f","setRolloverFeePerHour(uint256)":"c009687c","updateTpSl(uint256,uint256,uint256)":"41aa303b","usdc()":"3e413bee","userOrders(address,uint256)":"856652e9","userPositions(address,uint256)":"5e1b4d99","vault()":"fbfa77cf"},"id":20}