{
  "_format": "hh3-artifact-1",
  "contractName": "ConfidentialVault",
  "sourceName": "src/ConfidentialVault.sol",
  "abi": [
    {
      "inputs": [
        {
          "internalType": "address",
          "name": "_usdc",
          "type": "address"
        },
        {
          "internalType": "address",
          "name": "_core",
          "type": "address"
        }
      ],
      "stateMutability": "nonpayable",
      "type": "constructor"
    },
    {
      "inputs": [],
      "name": "DepositsDisabled",
      "type": "error"
    },
    {
      "inputs": [],
      "name": "ExceedsDepositCap",
      "type": "error"
    },
    {
      "inputs": [],
      "name": "ExceedsTVLCap",
      "type": "error"
    },
    {
      "inputs": [],
      "name": "InsufficientLiquidity",
      "type": "error"
    },
    {
      "inputs": [],
      "name": "InsufficientShares",
      "type": "error"
    },
    {
      "inputs": [],
      "name": "LockupNotExpired",
      "type": "error"
    },
    {
      "inputs": [],
      "name": "OnlyOwner",
      "type": "error"
    },
    {
      "inputs": [],
      "name": "OnlyTrading",
      "type": "error"
    },
    {
      "inputs": [],
      "name": "ReentrancyGuardReentrantCall",
      "type": "error"
    },
    {
      "inputs": [],
      "name": "ZeroAmount",
      "type": "error"
    },
    {
      "anonymous": false,
      "inputs": [
        {
          "indexed": false,
          "internalType": "uint256",
          "name": "amount",
          "type": "uint256"
        }
      ],
      "name": "AccruedFeesSettled",
      "type": "event"
    },
    {
      "anonymous": false,
      "inputs": [
        {
          "indexed": true,
          "internalType": "address",
          "name": "trader",
          "type": "address"
        },
        {
          "indexed": false,
          "internalType": "uint256",
          "name": "amount",
          "type": "uint256"
        }
      ],
      "name": "CollateralReturned",
      "type": "event"
    },
    {
      "anonymous": false,
      "inputs": [
        {
          "indexed": true,
          "internalType": "address",
          "name": "user",
          "type": "address"
        },
        {
          "indexed": false,
          "internalType": "uint256",
          "name": "amount",
          "type": "uint256"
        },
        {
          "indexed": false,
          "internalType": "uint256",
          "name": "sharesReceived",
          "type": "uint256"
        }
      ],
      "name": "Deposit",
      "type": "event"
    },
    {
      "anonymous": false,
      "inputs": [],
      "name": "EmergencyModeActivated",
      "type": "event"
    },
    {
      "anonymous": false,
      "inputs": [],
      "name": "EmergencyModeDeactivated",
      "type": "event"
    },
    {
      "anonymous": false,
      "inputs": [
        {
          "indexed": false,
          "internalType": "uint256",
          "name": "amount",
          "type": "uint256"
        }
      ],
      "name": "FeeReceived",
      "type": "event"
    },
    {
      "anonymous": false,
      "inputs": [
        {
          "indexed": true,
          "internalType": "address",
          "name": "trader",
          "type": "address"
        },
        {
          "indexed": true,
          "internalType": "address",
          "name": "liquidator",
          "type": "address"
        },
        {
          "indexed": false,
          "internalType": "uint256",
          "name": "collateral",
          "type": "uint256"
        },
        {
          "indexed": false,
          "internalType": "uint256",
          "name": "reward",
          "type": "uint256"
        }
      ],
      "name": "LiquidationSettled",
      "type": "event"
    },
    {
      "anonymous": false,
      "inputs": [
        {
          "indexed": true,
          "internalType": "address",
          "name": "trader",
          "type": "address"
        },
        {
          "indexed": false,
          "internalType": "int256",
          "name": "netPnl",
          "type": "int256"
        },
        {
          "indexed": false,
          "internalType": "uint256",
          "name": "collateral",
          "type": "uint256"
        }
      ],
      "name": "PositionSettled",
      "type": "event"
    },
    {
      "anonymous": false,
      "inputs": [
        {
          "indexed": true,
          "internalType": "address",
          "name": "trader",
          "type": "address"
        },
        {
          "indexed": false,
          "internalType": "uint256",
          "name": "requestedProfit",
          "type": "uint256"
        },
        {
          "indexed": false,
          "internalType": "uint256",
          "name": "cappedProfit",
          "type": "uint256"
        }
      ],
      "name": "ProfitCapped",
      "type": "event"
    },
    {
      "anonymous": false,
      "inputs": [
        {
          "indexed": true,
          "internalType": "address",
          "name": "user",
          "type": "address"
        },
        {
          "indexed": false,
          "internalType": "uint256",
          "name": "amount",
          "type": "uint256"
        },
        {
          "indexed": false,
          "internalType": "uint256",
          "name": "sharesBurned",
          "type": "uint256"
        }
      ],
      "name": "Withdraw",
      "type": "event"
    },
    {
      "inputs": [],
      "name": "MINIMUM_LIQUIDITY",
      "outputs": [
        {
          "internalType": "uint256",
          "name": "",
          "type": "uint256"
        }
      ],
      "stateMutability": "view",
      "type": "function"
    },
    {
      "inputs": [],
      "name": "availableLiquidity",
      "outputs": [
        {
          "internalType": "uint256",
          "name": "",
          "type": "uint256"
        }
      ],
      "stateMutability": "view",
      "type": "function"
    },
    {
      "inputs": [
        {
          "internalType": "address",
          "name": "user",
          "type": "address"
        }
      ],
      "name": "balanceOfUnderlying",
      "outputs": [
        {
          "internalType": "uint256",
          "name": "",
          "type": "uint256"
        }
      ],
      "stateMutability": "view",
      "type": "function"
    },
    {
      "inputs": [
        {
          "internalType": "address",
          "name": "user",
          "type": "address"
        }
      ],
      "name": "canWithdraw",
      "outputs": [
        {
          "internalType": "bool",
          "name": "",
          "type": "bool"
        }
      ],
      "stateMutability": "view",
      "type": "function"
    },
    {
      "inputs": [],
      "name": "core",
      "outputs": [
        {
          "internalType": "contract ConfidentialCore",
          "name": "",
          "type": "address"
        }
      ],
      "stateMutability": "view",
      "type": "function"
    },
    {
      "inputs": [],
      "name": "decimals",
      "outputs": [
        {
          "internalType": "uint8",
          "name": "",
          "type": "uint8"
        }
      ],
      "stateMutability": "view",
      "type": "function"
    },
    {
      "inputs": [
        {
          "internalType": "uint256",
          "name": "amount",
          "type": "uint256"
        }
      ],
      "name": "deposit",
      "outputs": [],
      "stateMutability": "nonpayable",
      "type": "function"
    },
    {
      "inputs": [
        {
          "internalType": "address",
          "name": "",
          "type": "address"
        }
      ],
      "name": "depositTimestamp",
      "outputs": [
        {
          "internalType": "uint256",
          "name": "",
          "type": "uint256"
        }
      ],
      "stateMutability": "view",
      "type": "function"
    },
    {
      "inputs": [],
      "name": "depositsEnabled",
      "outputs": [
        {
          "internalType": "bool",
          "name": "",
          "type": "bool"
        }
      ],
      "stateMutability": "view",
      "type": "function"
    },
    {
      "inputs": [],
      "name": "disableEmergencyMode",
      "outputs": [],
      "stateMutability": "nonpayable",
      "type": "function"
    },
    {
      "inputs": [
        {
          "internalType": "uint256",
          "name": "totalFee",
          "type": "uint256"
        }
      ],
      "name": "distributeClosingFee",
      "outputs": [],
      "stateMutability": "nonpayable",
      "type": "function"
    },
    {
      "inputs": [],
      "name": "emergencyMode",
      "outputs": [
        {
          "internalType": "bool",
          "name": "",
          "type": "bool"
        }
      ],
      "stateMutability": "view",
      "type": "function"
    },
    {
      "inputs": [],
      "name": "enableEmergencyMode",
      "outputs": [],
      "stateMutability": "nonpayable",
      "type": "function"
    },
    {
      "inputs": [],
      "name": "lockupPeriod",
      "outputs": [
        {
          "internalType": "uint256",
          "name": "",
          "type": "uint256"
        }
      ],
      "stateMutability": "view",
      "type": "function"
    },
    {
      "inputs": [],
      "name": "maxDepositPerUser",
      "outputs": [
        {
          "internalType": "uint256",
          "name": "",
          "type": "uint256"
        }
      ],
      "stateMutability": "view",
      "type": "function"
    },
    {
      "inputs": [],
      "name": "maxTotalDeposits",
      "outputs": [
        {
          "internalType": "uint256",
          "name": "",
          "type": "uint256"
        }
      ],
      "stateMutability": "view",
      "type": "function"
    },
    {
      "inputs": [],
      "name": "name",
      "outputs": [
        {
          "internalType": "string",
          "name": "",
          "type": "string"
        }
      ],
      "stateMutability": "view",
      "type": "function"
    },
    {
      "inputs": [
        {
          "internalType": "uint256",
          "name": "amount",
          "type": "uint256"
        }
      ],
      "name": "receiveFees",
      "outputs": [],
      "stateMutability": "nonpayable",
      "type": "function"
    },
    {
      "inputs": [
        {
          "internalType": "uint256",
          "name": "amount",
          "type": "uint256"
        }
      ],
      "name": "releaseBacking",
      "outputs": [],
      "stateMutability": "nonpayable",
      "type": "function"
    },
    {
      "inputs": [
        {
          "internalType": "uint256",
          "name": "amount",
          "type": "uint256"
        }
      ],
      "name": "reserveBacking",
      "outputs": [],
      "stateMutability": "nonpayable",
      "type": "function"
    },
    {
      "inputs": [
        {
          "internalType": "address",
          "name": "trader",
          "type": "address"
        },
        {
          "internalType": "uint256",
          "name": "amount",
          "type": "uint256"
        }
      ],
      "name": "returnCollateral",
      "outputs": [],
      "stateMutability": "nonpayable",
      "type": "function"
    },
    {
      "inputs": [
        {
          "internalType": "uint256",
          "name": "_perUser",
          "type": "uint256"
        },
        {
          "internalType": "uint256",
          "name": "_total",
          "type": "uint256"
        }
      ],
      "name": "setDepositCaps",
      "outputs": [],
      "stateMutability": "nonpayable",
      "type": "function"
    },
    {
      "inputs": [
        {
          "internalType": "bool",
          "name": "_enabled",
          "type": "bool"
        }
      ],
      "name": "setDepositsEnabled",
      "outputs": [],
      "stateMutability": "nonpayable",
      "type": "function"
    },
    {
      "inputs": [
        {
          "internalType": "uint256",
          "name": "_seconds",
          "type": "uint256"
        }
      ],
      "name": "setLockupPeriod",
      "outputs": [],
      "stateMutability": "nonpayable",
      "type": "function"
    },
    {
      "inputs": [
        {
          "internalType": "uint256",
          "name": "amount",
          "type": "uint256"
        }
      ],
      "name": "settleAccruedFees",
      "outputs": [],
      "stateMutability": "nonpayable",
      "type": "function"
    },
    {
      "inputs": [
        {
          "internalType": "address",
          "name": "trader",
          "type": "address"
        },
        {
          "internalType": "address",
          "name": "liquidator",
          "type": "address"
        },
        {
          "internalType": "uint256",
          "name": "collateral",
          "type": "uint256"
        },
        {
          "internalType": "uint256",
          "name": "reward",
          "type": "uint256"
        }
      ],
      "name": "settleLiquidation",
      "outputs": [],
      "stateMutability": "nonpayable",
      "type": "function"
    },
    {
      "inputs": [
        {
          "internalType": "address",
          "name": "trader",
          "type": "address"
        },
        {
          "internalType": "uint256",
          "name": "collateral",
          "type": "uint256"
        },
        {
          "internalType": "int256",
          "name": "netPnl",
          "type": "int256"
        }
      ],
      "name": "settlePosition",
      "outputs": [],
      "stateMutability": "nonpayable",
      "type": "function"
    },
    {
      "inputs": [],
      "name": "sharePrice",
      "outputs": [
        {
          "internalType": "uint256",
          "name": "",
          "type": "uint256"
        }
      ],
      "stateMutability": "view",
      "type": "function"
    },
    {
      "inputs": [
        {
          "internalType": "address",
          "name": "",
          "type": "address"
        }
      ],
      "name": "shares",
      "outputs": [
        {
          "internalType": "uint256",
          "name": "",
          "type": "uint256"
        }
      ],
      "stateMutability": "view",
      "type": "function"
    },
    {
      "inputs": [],
      "name": "symbol",
      "outputs": [
        {
          "internalType": "string",
          "name": "",
          "type": "string"
        }
      ],
      "stateMutability": "view",
      "type": "function"
    },
    {
      "inputs": [],
      "name": "totalAssets",
      "outputs": [
        {
          "internalType": "uint256",
          "name": "",
          "type": "uint256"
        }
      ],
      "stateMutability": "view",
      "type": "function"
    },
    {
      "inputs": [],
      "name": "totalBacking",
      "outputs": [
        {
          "internalType": "uint256",
          "name": "",
          "type": "uint256"
        }
      ],
      "stateMutability": "view",
      "type": "function"
    },
    {
      "inputs": [],
      "name": "totalShares",
      "outputs": [
        {
          "internalType": "uint256",
          "name": "",
          "type": "uint256"
        }
      ],
      "stateMutability": "view",
      "type": "function"
    },
    {
      "inputs": [],
      "name": "usdc",
      "outputs": [
        {
          "internalType": "contract IERC20",
          "name": "",
          "type": "address"
        }
      ],
      "stateMutability": "view",
      "type": "function"
    },
    {
      "inputs": [],
      "name": "utilization",
      "outputs": [
        {
          "internalType": "uint256",
          "name": "",
          "type": "uint256"
        }
      ],
      "stateMutability": "view",
      "type": "function"
    },
    {
      "inputs": [
        {
          "internalType": "uint256",
          "name": "shareAmount",
          "type": "uint256"
        }
      ],
      "name": "withdraw",
      "outputs": [],
      "stateMutability": "nonpayable",
      "type": "function"
    }
  ],
  "bytecode": "0x60a0346100ed57601f62001b2338819003918201601f19168301916001600160401b038311848410176100f15780849260409485528339810103126100ed57610053602061004c83610105565b9201610105565b60015f81905562093a8060055564e8d4a51000600855652d79883d2000600955600a805461ff0019166101001790556001600160a01b0392831660805280546001600160a01b03191691909216179055604051611a0990816200011a82396080518181816106a501528181610a3801528181610c3501528181610dcb01528181610fbe015281816111b60152818161130801526115230152f35b5f80fd5b634e487b7160e01b5f52604160045260245ffd5b51906001600160a01b03821682036100ed5756fe6080604081815260049182361015610015575f80fd5b5f3560e01c90816301e1d114146116de575080630420592e1461162457806306fdde03146115d05780630905f560146115ad57806309c0533b146114165780630bfedc8c1461139e578063118f3043146110cd57806319262d301461109f5780632e1a7d4d14610edf578063313ce56714610ec457806335b8e71314610ca75780633a98ef3914610c895780633af9e66914610c645780633e413bee14610c2157806346b00d0414610bec5780635392fd1c14610bc657806361b01b5d14610ba85780636e93ae2b14610b2f5780637437535914610af457806374e863ad146109a657806382e5310c14610988578063872697291461096c57806395d89b411461092b5780639f04586c1461089a578063b6b55f25146105bb578063ba9a7a561461059f578063c5b1c7d014610500578063c771c3901461044c578063ce7c2ac214610415578063dd3018a014610381578063ea21cd921461035e578063eb2cd25814610340578063ee947a7c14610322578063ef95256814610275578063f2f4eb261461024d5763ff20b48d146101ab575f80fd5b34610249576020366003190112610249576001548151637622567960e11b81526001600160a01b039160209082908690829086165afa90811561023f575f91610210575b5016330361020357610201823561194c565b005b5163e9e3f4ad60e01b8152fd5b610232915060203d602011610238575b61022a8183611728565b8101906117a7565b5f6101ef565b503d610220565b83513d5f823e3d90fd5b5f80fd5b5034610249575f3660031901126102495760015490516001600160a01b039091168152602090f35b5034610249575f366003190112610249576001548151638da5cb5b60e01b81526001600160a01b039160209082908690829086165afa90811561023f575f91610303575b501633036102f65761010061ffff19600a541617600a557f70b9dcaceb756943ac1a4f48b8df9ea82fbb012b87e405cba4ed77d1ded0df415f80a1005b51635fc483c560e01b8152fd5b61031c915060203d6020116102385761022a8183611728565b5f6102b9565b5034610249575f366003190112610249576020906005549051908152f35b5034610249575f366003190112610249576020906007549051908152f35b5034610249575f3660031901126102495760209061037a61191d565b9051908152f35b509034610249576020366003190112610249576001548251637622567960e11b8152823593916001600160a01b03919060209082908690829086165afa90811561023f575f916103f6575b501633036102035760075483808211156103ee576103e9916117e7565b600755005b50505f600755005b61040f915060203d6020116102385761022a8183611728565b5f6103cc565b5034610249576020366003190112610249576020906001600160a01b0361043a611791565b165f5260038252805f20549051908152f35b509034610249576020366003190112610249576001548251638da5cb5b60e01b8152823593916001600160a01b03919060209082908690829086165afa90811561023f575f916104e1575b501633036102f65762278d0083116104b0576005839055005b906020606492519162461bcd60e51b8352820152600b60248201526a4d6178203330206461797360a81b6044820152fd5b6104fa915060203d6020116102385761022a8183611728565b5f610497565b5034610249575f366003190112610249576001548151638da5cb5b60e01b81526001600160a01b039160209082908690829086165afa90811561023f575f91610580575b501633036102f657600161ffff19600a541617600a557f9e91804b7b70a36dcecd9afc85507eb02441c485502f58d0e68589aa50b8226a5f80a1005b610599915060203d6020116102385761022a8183611728565b5f610544565b5034610249575f36600319011261024957602090516103e88152f35b50346102495760209081600319360112610249578235916105da6119b2565b821561088a5760ff600a5460081c161561087a57600654906105fc84836117c6565b6009541061086a576002549182158015610862575b1561084e57506103e8918285111561080b576103e71985018581116107f8579281018091116107e5576002555b81156107ac576002548481156107a15761067161067692335f526003855261066c875f205460065490611883565b611896565b6117c6565b600854106107915782516323b872dd60e01b81523386820152306024820152604481018590529481866064815f7f00000000000000000000000000000000000000000000000000000000000000006001600160a01b03165af1958615610787577f90890809c654f11d6e72a28fa60149770a0d11ec6c92319d6ceb2bb0a4ea1a15959661070a915f9161075a575b5061180c565b610716836002546117c6565b600255335f5260038252835f2061072e8482546117c6565b905561073c866006546117c6565b600655335f52815242835f205582519485528401523392a260015f55005b61077a9150843d8611610780575b6107728183611728565b8101906117f4565b5f610704565b503d610768565b84513d5f823e3d90fd5b8251631823752b60e11b81528590fd5b61067691505f6117c6565b8460649184519162461bcd60e51b8352820152601460248201527353686172657320776f756c64206265207a65726f60601b6044820152fd5b601186634e487b7160e01b5f525260245ffd5b601187634e487b7160e01b5f525260245ffd5b835162461bcd60e51b8152808701839052601760248201527f4669727374206465706f73697420746f6f20736d616c6c0000000000000000006044820152606490fd5b61066c61085c929386611883565b9061063e565b508015610611565b82516336a00c8b60e11b81528590fd5b8151630e2f42c960e31b81528490fd5b8151631f2a200560e01b81528490fd5b50903461024957602036600319011261024957803591821515809303610249576001548151638da5cb5b60e01b81526001600160a01b039160209082908690829086165afa90811561023f575f9161090c575b501633036102f657600a805461ff001916600885901b61ff0016179055005b610925915060203d6020116102385761022a8183611728565b5f6108ed565b5034610249575f3660031901126102495780516109689161094b826116f8565b600682526518d59055531560d21b6020830152519182918261174a565b0390f35b5034610249575f3660031901126102495760209061037a6118ea565b5034610249575f366003190112610249576020906008549051908152f35b5090346102495781600319360112610249576109c0611791565b6001548351637622567960e11b8152602435936020936001600160a01b0393909290859082908490829088165afa8015610aea5784915f91610acd575b50163303610abf57855163a9059cbb60e01b81526001600160a01b038316918101918252602082018690529084908290819060400103815f877f0000000000000000000000000000000000000000000000000000000000000000165af1908115610ab5577f3db642b80902afb8ef23a2aeab4800b4b3717feb180705cf0a1c273ccc591c97959691610a95915f91610a9e575061180c565b519485521692a2005b61077a9150863d8811610780576107728183611728565b86513d5f823e3d90fd5b855163e9e3f4ad60e01b8152fd5b610ae49150863d88116102385761022a8183611728565b5f6109fd565b87513d5f823e3d90fd5b5034610249575f366003190112610249576020906006546007548082115f14610b265761037a916117e7565b51908152f35b50505f90610b20565b5034610249576020366003190112610249576001548151637622567960e11b81526001600160a01b039160209082908690829086165afa90811561023f575f91610b89575b50163303610203576103e982356007546117c6565b610ba2915060203d6020116102385761022a8183611728565b5f610b74565b5034610249575f366003190112610249576020906009549051908152f35b5034610249575f3660031901126102495760209060ff600a5460081c1690519015158152f35b5034610249576020366003190112610249576020916001600160a01b03610c11611791565b165f528252805f20549051908152f35b5034610249575f36600319011261024957517f00000000000000000000000000000000000000000000000000000000000000006001600160a01b03168152602090f35b50346102495760203660031901126102495760209061037a610c84611791565b6118b4565b5034610249575f366003190112610249576020906002549051908152f35b50346102495760209081600319360112610249576001548151637622567960e11b81526001600160a01b0391821694803593929091858184818a5afa908115610787579082915f91610ea7575b50163303610e98578251631db0457960e11b81528281018590529083826024818a5afa918215610787575f92610e67575b5081610d57575b7f86c46efee0a638b418fa0952cd587c78b75b8bc989e7a7c13a86d448ec34a08486868651908152a1005b85839497610d67846006546117e7565b60065588516361d027b360e01b815294859182905afa8015610aea57610dc79487945f92610e46575b50885163a9059cbb60e01b81526001600160a01b03909216908201908152602081019390935293849283915f918391604090910190565b03927f0000000000000000000000000000000000000000000000000000000000000000165af1908115610787577f86c46efee0a638b418fa0952cd587c78b75b8bc989e7a7c13a86d448ec34a0849491610e27915f91610e2f575061180c565b5f8080610d2c565b61077a9150853d8711610780576107728183611728565b5f919250610e6090863d88116102385761022a8183611728565b9190610d90565b9091508381813d8311610e91575b610e7f8183611728565b8101031261024957850151905f610d25565b503d610e75565b50905163e9e3f4ad60e01b8152fd5b610ebe9150873d89116102385761022a8183611728565b5f610cf4565b5034610249575f366003190112610249576020905160068152f35b50346102495760209081600319360112610249578235610efd6119b2565b801561088a57335f526003835280825f20541061108f5760ff600a541615611062575b60065492610f2e8483611883565b610f3b6002548092611896565b946007548082115f1461105a57610f51916117e7565b851161104a5784610fb996610f678585946117e7565b600255335f5260038352855f20610f7f8682546117e7565b9055610f8d826006546117e7565b600655855163a9059cbb60e01b8152339181019182526020820192909252909687918291604090910190565b03815f7f00000000000000000000000000000000000000000000000000000000000000006001600160a01b03165af194851561023f577ff279e6a1f5e320cca91135676d9cb6e44ca8a08c0b88342bcdb1144f6511b5689495611022915f91611033575061180c565b82519485528401523392a260015f55005b61077a9150833d8511610780576107728183611728565b835163bb55fd2760e01b81528690fd5b50505f610f51565b335f52838352611078825f2054600554906117c6565b421015610f205781516354e21be360e11b81528490fd5b8151633999656760e01b81528490fd5b5034610249576020366003190112610249576020906110c46110bf611791565b61184a565b90519015158152f35b5034610249576060366003190112610249576110e7611791565b906024356044359260018060a01b0391826001541684518091637622567960e11b8252818960209485935afa908115610ab5579085915f91611381575b5016330361137157600754828082111561136957611141916117e7565b6007555f861261126e578083611186886006546007548082115f146112675761116a90826117e7565b808c11611229575b508161117d916117e7565b600655856117c6565b875163a9059cbb60e01b81526001600160a01b03909216998201998a5260208a0152978890819060400103815f887f0000000000000000000000000000000000000000000000000000000000000000165af196871561121f577fa9c6720706505784683f09b0975d4f1a78dfdeebc7fead8936439abd5b96f0219697611212915f91611033575061180c565b84519687528601521692a2005b85513d5f823e3d90fd5b61117d9192508a518c815281878201527f8bd96464087bd7a29c2d462da44e6cd69fa230fd14f8367b75b1f9240f3a89ea8c8c881692a29190611172565b505f61116a565b600160ff1b86146107f8575f8690038281106112bd57507fa9c6720706505784683f09b0975d4f1a78dfdeebc7fead8936439abd5b96f0219596506112b5826006546117c6565b600655611212565b836112d8826112cf85946006546117c6565b600655856117e7565b875163a9059cbb60e01b81526001600160a01b03909216998201998a5260208a0152978890819060400103815f887f0000000000000000000000000000000000000000000000000000000000000000165af196871561121f577fa9c6720706505784683f09b0975d4f1a78dfdeebc7fead8936439abd5b96f0219697611364915f91611033575061180c565b611212565b50505f611141565b845163e9e3f4ad60e01b81528790fd5b6113989150833d85116102385761022a8183611728565b5f611124565b50346102495780600319360112610249576001548151638da5cb5b60e01b81526001600160a01b039160209082908690829086165afa90811561023f575f916113f7575b501633036102f6575035600855602435600955005b611410915060203d6020116102385761022a8183611728565b5f6113e2565b50903461024957608036600319011261024957611431611791565b602435926001600160a01b03808516939284860361024957604435936064359083600154169085518092637622567960e11b8252818360209586935afa908115610aea579086915f91611590575b50163303610abf5760075487808211156115885761149c916117e7565b6007556114b46114ac84896117e7565b6006546117c6565b600655826114f0575b507f3046bb5fb86890e6f3c32d7527b763c83ee73588c10f9533662078355cc634fa9596975084519687528601521692a3005b855163a9059cbb60e01b81526001600160a01b039099169089019081526020810183905281908990819060400103815f887f0000000000000000000000000000000000000000000000000000000000000000165af197881561121f577f3046bb5fb86890e6f3c32d7527b763c83ee73588c10f9533662078355cc634fa969798611580915f91611033575061180c565b8796956114bd565b50505f61149c565b6115a79150843d86116102385761022a8183611728565b5f61147f565b5034610249575f3660031901126102495760209060ff600a541690519015158152f35b5034610249575f366003190112610249578051610968916115f0826116f8565b601882527f436f6e666964656e7469616c205661756c7420536861726500000000000000006020830152519182918261174a565b5034610249576020366003190112610249576001548151637622567960e11b8152833593916001600160a01b03919060209082908590829086165afa908115610787575f916116bf575b501633036116b1577f86c46efee0a638b418fa0952cd587c78b75b8bc989e7a7c13a86d448ec34a084602084846116a7826006546117c6565b60065551908152a1005b905163e9e3f4ad60e01b8152fd5b6116d8915060203d6020116102385761022a8183611728565b5f61166e565b34610249575f366003190112610249576020906006548152f35b6040810190811067ffffffffffffffff82111761171457604052565b634e487b7160e01b5f52604160045260245ffd5b90601f8019910116810190811067ffffffffffffffff82111761171457604052565b602080825282518183018190529093925f5b82811061177d57505060409293505f838284010152601f8019910116010190565b81810186015184820160400152850161175c565b600435906001600160a01b038216820361024957565b9081602091031261024957516001600160a01b03811681036102495790565b919082018092116117d357565b634e487b7160e01b5f52601160045260245ffd5b919082039182116117d357565b90816020910312610249575180151581036102495790565b1561181357565b60405162461bcd60e51b815260206004820152600f60248201526e151c985b9cd9995c8819985a5b1959608a1b6044820152606490fd5b60ff600a541661187d576001600160a01b03165f90815260046020526040902054600554611877916117c6565b42101590565b50600190565b818102929181159184041417156117d357565b81156118a0570490565b634e487b7160e01b5f52601260045260245ffd5b60025480156118e4576118e19160018060a01b03165f52600360205261066c60405f205460065490611883565b90565b50505f90565b60025480156119155760065490620f4240918281029281840414901517156117d3576118e191611896565b50620f424090565b60065480156119475760075490612710918281029281840414901517156117d3576118e191611896565b505f90565b80156119af5760207fb0bf1136427af53a4f141a4607b21ad2b14e0ae6d42711aaf85b8ee33f65d3db91600754818082115f146119a75761198c916117e7565b60075561199b816006546117c6565b600655604051908152a1565b50505f61198c565b50565b60025f54146119c15760025f55565b604051633ee5aeb560e01b8152600490fdfea26469706673582212201fb731ac5e74860124509643612a09e8616059163fd36290b2e592151522b4af64736f6c63430008180033",
  "linkReferences": {},
  "deployedLinkReferences": {},
  "immutableReferences": {
    "5554": [
      {
        "length": 32,
        "start": 1701
      },
      {
        "length": 32,
        "start": 2616
      },
      {
        "length": 32,
        "start": 3125
      },
      {
        "length": 32,
        "start": 3531
      },
      {
        "length": 32,
        "start": 4030
      },
      {
        "length": 32,
        "start": 4534
      },
      {
        "length": 32,
        "start": 4872
      },
      {
        "length": 32,
        "start": 5411
      }
    ]
  },
  "inputSourceName": "project/src/ConfidentialVault.sol",
  "buildInfoId": "solc-0_8_24-f74d5a9ad0236dc14ae9a70075bea0c87b016bdf"
}